{
  "address": "0x8Cf8b03E0A862f17FA5fA24B8927902B2FDf8454",
  "abi": [
    {
      "inputs": [
        {
          "internalType": "uint256",
          "name": "gasToBeForwarded",
          "type": "uint256"
        },
        {
          "internalType": "uint256",
          "name": "callbackGasLimit",
          "type": "uint256"
        }
      ],
      "name": "InsufficientGasLeftForCallback",
      "type": "error"
    },
    {
      "inputs": [
        {
          "internalType": "uint256",
          "name": "callbackGasLimit",
          "type": "uint256"
        },
        {
          "internalType": "uint256",
          "name": "maxCallbackGasLimit",
          "type": "uint256"
        }
      ],
      "name": "MaxCallbackGasLimitExceeded",
      "type": "error"
    },
    {
      "anonymous": false,
      "inputs": [
        {
          "indexed": false,
          "internalType": "bytes32",
          "name": "key",
          "type": "bytes32"
        },
        {
          "components": [
            {
              "components": [
                {
                  "internalType": "address",
                  "name": "account",
                  "type": "address"
                },
                {
                  "internalType": "address",
                  "name": "receiver",
                  "type": "address"
                },
                {
                  "internalType": "address",
                  "name": "callbackContract",
                  "type": "address"
                },
                {
                  "internalType": "address",
                  "name": "uiFeeReceiver",
                  "type": "address"
                },
                {
                  "internalType": "address",
                  "name": "market",
                  "type": "address"
                },
                {
                  "internalType": "address",
                  "name": "initialLongToken",
                  "type": "address"
                },
                {
                  "internalType": "address",
                  "name": "initialShortToken",
                  "type": "address"
                },
                {
                  "internalType": "address[]",
                  "name": "longTokenSwapPath",
                  "type": "address[]"
                },
                {
                  "internalType": "address[]",
                  "name": "shortTokenSwapPath",
                  "type": "address[]"
                }
              ],
              "internalType": "struct Deposit.Addresses",
              "name": "addresses",
              "type": "tuple"
            },
            {
              "components": [
                {
                  "internalType": "uint256",
                  "name": "initialLongTokenAmount",
                  "type": "uint256"
                },
                {
                  "internalType": "uint256",
                  "name": "initialShortTokenAmount",
                  "type": "uint256"
                },
                {
                  "internalType": "uint256",
                  "name": "minMarketTokens",
                  "type": "uint256"
                },
                {
                  "internalType": "uint256",
                  "name": "updatedAtTime",
                  "type": "uint256"
                },
                {
                  "internalType": "uint256",
                  "name": "executionFee",
                  "type": "uint256"
                },
                {
                  "internalType": "uint256",
                  "name": "callbackGasLimit",
                  "type": "uint256"
                },
                {
                  "internalType": "uint256",
                  "name": "srcChainId",
                  "type": "uint256"
                }
              ],
              "internalType": "struct Deposit.Numbers",
              "name": "numbers",
              "type": "tuple"
            },
            {
              "components": [
                {
                  "internalType": "bool",
                  "name": "shouldUnwrapNativeToken",
                  "type": "bool"
                }
              ],
              "internalType": "struct Deposit.Flags",
              "name": "flags",
              "type": "tuple"
            },
            {
              "internalType": "bytes32[]",
              "name": "_dataList",
              "type": "bytes32[]"
            }
          ],
          "indexed": false,
          "internalType": "struct Deposit.Props",
          "name": "deposit",
          "type": "tuple"
        }
      ],
      "name": "AfterDepositCancellationError",
      "type": "event"
    },
    {
      "anonymous": false,
      "inputs": [
        {
          "indexed": false,
          "internalType": "bytes32",
          "name": "key",
          "type": "bytes32"
        },
        {
          "components": [
            {
              "components": [
                {
                  "internalType": "address",
                  "name": "account",
                  "type": "address"
                },
                {
                  "internalType": "address",
                  "name": "receiver",
                  "type": "address"
                },
                {
                  "internalType": "address",
                  "name": "callbackContract",
                  "type": "address"
                },
                {
                  "internalType": "address",
                  "name": "uiFeeReceiver",
                  "type": "address"
                },
                {
                  "internalType": "address",
                  "name": "market",
                  "type": "address"
                },
                {
                  "internalType": "address",
                  "name": "initialLongToken",
                  "type": "address"
                },
                {
                  "internalType": "address",
                  "name": "initialShortToken",
                  "type": "address"
                },
                {
                  "internalType": "address[]",
                  "name": "longTokenSwapPath",
                  "type": "address[]"
                },
                {
                  "internalType": "address[]",
                  "name": "shortTokenSwapPath",
                  "type": "address[]"
                }
              ],
              "internalType": "struct Deposit.Addresses",
              "name": "addresses",
              "type": "tuple"
            },
            {
              "components": [
                {
                  "internalType": "uint256",
                  "name": "initialLongTokenAmount",
                  "type": "uint256"
                },
                {
                  "internalType": "uint256",
                  "name": "initialShortTokenAmount",
                  "type": "uint256"
                },
                {
                  "internalType": "uint256",
                  "name": "minMarketTokens",
                  "type": "uint256"
                },
                {
                  "internalType": "uint256",
                  "name": "updatedAtTime",
                  "type": "uint256"
                },
                {
                  "internalType": "uint256",
                  "name": "executionFee",
                  "type": "uint256"
                },
                {
                  "internalType": "uint256",
                  "name": "callbackGasLimit",
                  "type": "uint256"
                },
                {
                  "internalType": "uint256",
                  "name": "srcChainId",
                  "type": "uint256"
                }
              ],
              "internalType": "struct Deposit.Numbers",
              "name": "numbers",
              "type": "tuple"
            },
            {
              "components": [
                {
                  "internalType": "bool",
                  "name": "shouldUnwrapNativeToken",
                  "type": "bool"
                }
              ],
              "internalType": "struct Deposit.Flags",
              "name": "flags",
              "type": "tuple"
            },
            {
              "internalType": "bytes32[]",
              "name": "_dataList",
              "type": "bytes32[]"
            }
          ],
          "indexed": false,
          "internalType": "struct Deposit.Props",
          "name": "deposit",
          "type": "tuple"
        }
      ],
      "name": "AfterDepositExecutionError",
      "type": "event"
    },
    {
      "anonymous": false,
      "inputs": [
        {
          "indexed": false,
          "internalType": "bytes32",
          "name": "key",
          "type": "bytes32"
        },
        {
          "components": [
            {
              "components": [
                {
                  "internalType": "address",
                  "name": "glv",
                  "type": "address"
                },
                {
                  "internalType": "address",
                  "name": "account",
                  "type": "address"
                },
                {
                  "internalType": "address",
                  "name": "receiver",
                  "type": "address"
                },
                {
                  "internalType": "address",
                  "name": "callbackContract",
                  "type": "address"
                },
                {
                  "internalType": "address",
                  "name": "uiFeeReceiver",
                  "type": "address"
                },
                {
                  "internalType": "address",
                  "name": "market",
                  "type": "address"
                },
                {
                  "internalType": "address",
                  "name": "initialLongToken",
                  "type": "address"
                },
                {
                  "internalType": "address",
                  "name": "initialShortToken",
                  "type": "address"
                },
                {
                  "internalType": "address[]",
                  "name": "longTokenSwapPath",
                  "type": "address[]"
                },
                {
                  "internalType": "address[]",
                  "name": "shortTokenSwapPath",
                  "type": "address[]"
                }
              ],
              "internalType": "struct GlvDeposit.Addresses",
              "name": "addresses",
              "type": "tuple"
            },
            {
              "components": [
                {
                  "internalType": "uint256",
                  "name": "marketTokenAmount",
                  "type": "uint256"
                },
                {
                  "internalType": "uint256",
                  "name": "initialLongTokenAmount",
                  "type": "uint256"
                },
                {
                  "internalType": "uint256",
                  "name": "initialShortTokenAmount",
                  "type": "uint256"
                },
                {
                  "internalType": "uint256",
                  "name": "minGlvTokens",
                  "type": "uint256"
                },
                {
                  "internalType": "uint256",
                  "name": "updatedAtTime",
                  "type": "uint256"
                },
                {
                  "internalType": "uint256",
                  "name": "executionFee",
                  "type": "uint256"
                },
                {
                  "internalType": "uint256",
                  "name": "callbackGasLimit",
                  "type": "uint256"
                },
                {
                  "internalType": "uint256",
                  "name": "srcChainId",
                  "type": "uint256"
                }
              ],
              "internalType": "struct GlvDeposit.Numbers",
              "name": "numbers",
              "type": "tuple"
            },
            {
              "components": [
                {
                  "internalType": "bool",
                  "name": "shouldUnwrapNativeToken",
                  "type": "bool"
                },
                {
                  "internalType": "bool",
                  "name": "isMarketTokenDeposit",
                  "type": "bool"
                }
              ],
              "internalType": "struct GlvDeposit.Flags",
              "name": "flags",
              "type": "tuple"
            },
            {
              "internalType": "bytes32[]",
              "name": "_dataList",
              "type": "bytes32[]"
            }
          ],
          "indexed": false,
          "internalType": "struct GlvDeposit.Props",
          "name": "glvDeposit",
          "type": "tuple"
        }
      ],
      "name": "AfterGlvDepositCancellationError",
      "type": "event"
    },
    {
      "anonymous": false,
      "inputs": [
        {
          "indexed": false,
          "internalType": "bytes32",
          "name": "key",
          "type": "bytes32"
        },
        {
          "components": [
            {
              "components": [
                {
                  "internalType": "address",
                  "name": "glv",
                  "type": "address"
                },
                {
                  "internalType": "address",
                  "name": "account",
                  "type": "address"
                },
                {
                  "internalType": "address",
                  "name": "receiver",
                  "type": "address"
                },
                {
                  "internalType": "address",
                  "name": "callbackContract",
                  "type": "address"
                },
                {
                  "internalType": "address",
                  "name": "uiFeeReceiver",
                  "type": "address"
                },
                {
                  "internalType": "address",
                  "name": "market",
                  "type": "address"
                },
                {
                  "internalType": "address",
                  "name": "initialLongToken",
                  "type": "address"
                },
                {
                  "internalType": "address",
                  "name": "initialShortToken",
                  "type": "address"
                },
                {
                  "internalType": "address[]",
                  "name": "longTokenSwapPath",
                  "type": "address[]"
                },
                {
                  "internalType": "address[]",
                  "name": "shortTokenSwapPath",
                  "type": "address[]"
                }
              ],
              "internalType": "struct GlvDeposit.Addresses",
              "name": "addresses",
              "type": "tuple"
            },
            {
              "components": [
                {
                  "internalType": "uint256",
                  "name": "marketTokenAmount",
                  "type": "uint256"
                },
                {
                  "internalType": "uint256",
                  "name": "initialLongTokenAmount",
                  "type": "uint256"
                },
                {
                  "internalType": "uint256",
                  "name": "initialShortTokenAmount",
                  "type": "uint256"
                },
                {
                  "internalType": "uint256",
                  "name": "minGlvTokens",
                  "type": "uint256"
                },
                {
                  "internalType": "uint256",
                  "name": "updatedAtTime",
                  "type": "uint256"
                },
                {
                  "internalType": "uint256",
                  "name": "executionFee",
                  "type": "uint256"
                },
                {
                  "internalType": "uint256",
                  "name": "callbackGasLimit",
                  "type": "uint256"
                },
                {
                  "internalType": "uint256",
                  "name": "srcChainId",
                  "type": "uint256"
                }
              ],
              "internalType": "struct GlvDeposit.Numbers",
              "name": "numbers",
              "type": "tuple"
            },
            {
              "components": [
                {
                  "internalType": "bool",
                  "name": "shouldUnwrapNativeToken",
                  "type": "bool"
                },
                {
                  "internalType": "bool",
                  "name": "isMarketTokenDeposit",
                  "type": "bool"
                }
              ],
              "internalType": "struct GlvDeposit.Flags",
              "name": "flags",
              "type": "tuple"
            },
            {
              "internalType": "bytes32[]",
              "name": "_dataList",
              "type": "bytes32[]"
            }
          ],
          "indexed": false,
          "internalType": "struct GlvDeposit.Props",
          "name": "glvDeposit",
          "type": "tuple"
        }
      ],
      "name": "AfterGlvDepositExecutionError",
      "type": "event"
    },
    {
      "anonymous": false,
      "inputs": [
        {
          "indexed": false,
          "internalType": "bytes32",
          "name": "key",
          "type": "bytes32"
        },
        {
          "components": [
            {
              "components": [
                {
                  "internalType": "address",
                  "name": "glv",
                  "type": "address"
                },
                {
                  "internalType": "address",
                  "name": "market",
                  "type": "address"
                },
                {
                  "internalType": "address",
                  "name": "account",
                  "type": "address"
                },
                {
                  "internalType": "address",
                  "name": "receiver",
                  "type": "address"
                },
                {
                  "internalType": "address",
                  "name": "callbackContract",
                  "type": "address"
                },
                {
                  "internalType": "address",
                  "name": "uiFeeReceiver",
                  "type": "address"
                },
                {
                  "internalType": "address[]",
                  "name": "longTokenSwapPath",
                  "type": "address[]"
                },
                {
                  "internalType": "address[]",
                  "name": "shortTokenSwapPath",
                  "type": "address[]"
                }
              ],
              "internalType": "struct GlvWithdrawal.Addresses",
              "name": "addresses",
              "type": "tuple"
            },
            {
              "components": [
                {
                  "internalType": "uint256",
                  "name": "glvTokenAmount",
                  "type": "uint256"
                },
                {
                  "internalType": "uint256",
                  "name": "minLongTokenAmount",
                  "type": "uint256"
                },
                {
                  "internalType": "uint256",
                  "name": "minShortTokenAmount",
                  "type": "uint256"
                },
                {
                  "internalType": "uint256",
                  "name": "updatedAtTime",
                  "type": "uint256"
                },
                {
                  "internalType": "uint256",
                  "name": "executionFee",
                  "type": "uint256"
                },
                {
                  "internalType": "uint256",
                  "name": "callbackGasLimit",
                  "type": "uint256"
                },
                {
                  "internalType": "uint256",
                  "name": "srcChainId",
                  "type": "uint256"
                }
              ],
              "internalType": "struct GlvWithdrawal.Numbers",
              "name": "numbers",
              "type": "tuple"
            },
            {
              "components": [
                {
                  "internalType": "bool",
                  "name": "shouldUnwrapNativeToken",
                  "type": "bool"
                }
              ],
              "internalType": "struct GlvWithdrawal.Flags",
              "name": "flags",
              "type": "tuple"
            },
            {
              "internalType": "bytes32[]",
              "name": "_dataList",
              "type": "bytes32[]"
            }
          ],
          "indexed": false,
          "internalType": "struct GlvWithdrawal.Props",
          "name": "glvWithdrawal",
          "type": "tuple"
        }
      ],
      "name": "AfterGlvWithdrawalCancellationError",
      "type": "event"
    },
    {
      "anonymous": false,
      "inputs": [
        {
          "indexed": false,
          "internalType": "bytes32",
          "name": "key",
          "type": "bytes32"
        },
        {
          "components": [
            {
              "components": [
                {
                  "internalType": "address",
                  "name": "glv",
                  "type": "address"
                },
                {
                  "internalType": "address",
                  "name": "market",
                  "type": "address"
                },
                {
                  "internalType": "address",
                  "name": "account",
                  "type": "address"
                },
                {
                  "internalType": "address",
                  "name": "receiver",
                  "type": "address"
                },
                {
                  "internalType": "address",
                  "name": "callbackContract",
                  "type": "address"
                },
                {
                  "internalType": "address",
                  "name": "uiFeeReceiver",
                  "type": "address"
                },
                {
                  "internalType": "address[]",
                  "name": "longTokenSwapPath",
                  "type": "address[]"
                },
                {
                  "internalType": "address[]",
                  "name": "shortTokenSwapPath",
                  "type": "address[]"
                }
              ],
              "internalType": "struct GlvWithdrawal.Addresses",
              "name": "addresses",
              "type": "tuple"
            },
            {
              "components": [
                {
                  "internalType": "uint256",
                  "name": "glvTokenAmount",
                  "type": "uint256"
                },
                {
                  "internalType": "uint256",
                  "name": "minLongTokenAmount",
                  "type": "uint256"
                },
                {
                  "internalType": "uint256",
                  "name": "minShortTokenAmount",
                  "type": "uint256"
                },
                {
                  "internalType": "uint256",
                  "name": "updatedAtTime",
                  "type": "uint256"
                },
                {
                  "internalType": "uint256",
                  "name": "executionFee",
                  "type": "uint256"
                },
                {
                  "internalType": "uint256",
                  "name": "callbackGasLimit",
                  "type": "uint256"
                },
                {
                  "internalType": "uint256",
                  "name": "srcChainId",
                  "type": "uint256"
                }
              ],
              "internalType": "struct GlvWithdrawal.Numbers",
              "name": "numbers",
              "type": "tuple"
            },
            {
              "components": [
                {
                  "internalType": "bool",
                  "name": "shouldUnwrapNativeToken",
                  "type": "bool"
                }
              ],
              "internalType": "struct GlvWithdrawal.Flags",
              "name": "flags",
              "type": "tuple"
            },
            {
              "internalType": "bytes32[]",
              "name": "_dataList",
              "type": "bytes32[]"
            }
          ],
          "indexed": false,
          "internalType": "struct GlvWithdrawal.Props",
          "name": "glvWithdrawal",
          "type": "tuple"
        }
      ],
      "name": "AfterGlvWithdrawalExecutionError",
      "type": "event"
    },
    {
      "anonymous": false,
      "inputs": [
        {
          "indexed": false,
          "internalType": "bytes32",
          "name": "key",
          "type": "bytes32"
        },
        {
          "components": [
            {
              "components": [
                {
                  "internalType": "address",
                  "name": "account",
                  "type": "address"
                },
                {
                  "internalType": "address",
                  "name": "receiver",
                  "type": "address"
                },
                {
                  "internalType": "address",
                  "name": "cancellationReceiver",
                  "type": "address"
                },
                {
                  "internalType": "address",
                  "name": "callbackContract",
                  "type": "address"
                },
                {
                  "internalType": "address",
                  "name": "uiFeeReceiver",
                  "type": "address"
                },
                {
                  "internalType": "address",
                  "name": "market",
                  "type": "address"
                },
                {
                  "internalType": "address",
                  "name": "initialCollateralToken",
                  "type": "address"
                },
                {
                  "internalType": "address[]",
                  "name": "swapPath",
                  "type": "address[]"
                }
              ],
              "internalType": "struct Order.Addresses",
              "name": "addresses",
              "type": "tuple"
            },
            {
              "components": [
                {
                  "internalType": "enum Order.OrderType",
                  "name": "orderType",
                  "type": "uint8"
                },
                {
                  "internalType": "enum Order.DecreasePositionSwapType",
                  "name": "decreasePositionSwapType",
                  "type": "uint8"
                },
                {
                  "internalType": "uint256",
                  "name": "sizeDeltaUsd",
                  "type": "uint256"
                },
                {
                  "internalType": "uint256",
                  "name": "initialCollateralDeltaAmount",
                  "type": "uint256"
                },
                {
                  "internalType": "uint256",
                  "name": "triggerPrice",
                  "type": "uint256"
                },
                {
                  "internalType": "uint256",
                  "name": "acceptablePrice",
                  "type": "uint256"
                },
                {
                  "internalType": "uint256",
                  "name": "executionFee",
                  "type": "uint256"
                },
                {
                  "internalType": "uint256",
                  "name": "callbackGasLimit",
                  "type": "uint256"
                },
                {
                  "internalType": "uint256",
                  "name": "minOutputAmount",
                  "type": "uint256"
                },
                {
                  "internalType": "uint256",
                  "name": "updatedAtTime",
                  "type": "uint256"
                },
                {
                  "internalType": "uint256",
                  "name": "validFromTime",
                  "type": "uint256"
                },
                {
                  "internalType": "uint256",
                  "name": "srcChainId",
                  "type": "uint256"
                }
              ],
              "internalType": "struct Order.Numbers",
              "name": "numbers",
              "type": "tuple"
            },
            {
              "components": [
                {
                  "internalType": "bool",
                  "name": "isLong",
                  "type": "bool"
                },
                {
                  "internalType": "bool",
                  "name": "shouldUnwrapNativeToken",
                  "type": "bool"
                },
                {
                  "internalType": "bool",
                  "name": "isFrozen",
                  "type": "bool"
                },
                {
                  "internalType": "bool",
                  "name": "autoCancel",
                  "type": "bool"
                }
              ],
              "internalType": "struct Order.Flags",
              "name": "flags",
              "type": "tuple"
            },
            {
              "internalType": "bytes32[]",
              "name": "_dataList",
              "type": "bytes32[]"
            }
          ],
          "indexed": false,
          "internalType": "struct Order.Props",
          "name": "order",
          "type": "tuple"
        }
      ],
      "name": "AfterOrderCancellationError",
      "type": "event"
    },
    {
      "anonymous": false,
      "inputs": [
        {
          "indexed": false,
          "internalType": "bytes32",
          "name": "key",
          "type": "bytes32"
        },
        {
          "components": [
            {
              "components": [
                {
                  "internalType": "address",
                  "name": "account",
                  "type": "address"
                },
                {
                  "internalType": "address",
                  "name": "receiver",
                  "type": "address"
                },
                {
                  "internalType": "address",
                  "name": "cancellationReceiver",
                  "type": "address"
                },
                {
                  "internalType": "address",
                  "name": "callbackContract",
                  "type": "address"
                },
                {
                  "internalType": "address",
                  "name": "uiFeeReceiver",
                  "type": "address"
                },
                {
                  "internalType": "address",
                  "name": "market",
                  "type": "address"
                },
                {
                  "internalType": "address",
                  "name": "initialCollateralToken",
                  "type": "address"
                },
                {
                  "internalType": "address[]",
                  "name": "swapPath",
                  "type": "address[]"
                }
              ],
              "internalType": "struct Order.Addresses",
              "name": "addresses",
              "type": "tuple"
            },
            {
              "components": [
                {
                  "internalType": "enum Order.OrderType",
                  "name": "orderType",
                  "type": "uint8"
                },
                {
                  "internalType": "enum Order.DecreasePositionSwapType",
                  "name": "decreasePositionSwapType",
                  "type": "uint8"
                },
                {
                  "internalType": "uint256",
                  "name": "sizeDeltaUsd",
                  "type": "uint256"
                },
                {
                  "internalType": "uint256",
                  "name": "initialCollateralDeltaAmount",
                  "type": "uint256"
                },
                {
                  "internalType": "uint256",
                  "name": "triggerPrice",
                  "type": "uint256"
                },
                {
                  "internalType": "uint256",
                  "name": "acceptablePrice",
                  "type": "uint256"
                },
                {
                  "internalType": "uint256",
                  "name": "executionFee",
                  "type": "uint256"
                },
                {
                  "internalType": "uint256",
                  "name": "callbackGasLimit",
                  "type": "uint256"
                },
                {
                  "internalType": "uint256",
                  "name": "minOutputAmount",
                  "type": "uint256"
                },
                {
                  "internalType": "uint256",
                  "name": "updatedAtTime",
                  "type": "uint256"
                },
                {
                  "internalType": "uint256",
                  "name": "validFromTime",
                  "type": "uint256"
                },
                {
                  "internalType": "uint256",
                  "name": "srcChainId",
                  "type": "uint256"
                }
              ],
              "internalType": "struct Order.Numbers",
              "name": "numbers",
              "type": "tuple"
            },
            {
              "components": [
                {
                  "internalType": "bool",
                  "name": "isLong",
                  "type": "bool"
                },
                {
                  "internalType": "bool",
                  "name": "shouldUnwrapNativeToken",
                  "type": "bool"
                },
                {
                  "internalType": "bool",
                  "name": "isFrozen",
                  "type": "bool"
                },
                {
                  "internalType": "bool",
                  "name": "autoCancel",
                  "type": "bool"
                }
              ],
              "internalType": "struct Order.Flags",
              "name": "flags",
              "type": "tuple"
            },
            {
              "internalType": "bytes32[]",
              "name": "_dataList",
              "type": "bytes32[]"
            }
          ],
          "indexed": false,
          "internalType": "struct Order.Props",
          "name": "order",
          "type": "tuple"
        }
      ],
      "name": "AfterOrderExecutionError",
      "type": "event"
    },
    {
      "anonymous": false,
      "inputs": [
        {
          "indexed": false,
          "internalType": "bytes32",
          "name": "key",
          "type": "bytes32"
        },
        {
          "components": [
            {
              "components": [
                {
                  "internalType": "address",
                  "name": "account",
                  "type": "address"
                },
                {
                  "internalType": "address",
                  "name": "receiver",
                  "type": "address"
                },
                {
                  "internalType": "address",
                  "name": "cancellationReceiver",
                  "type": "address"
                },
                {
                  "internalType": "address",
                  "name": "callbackContract",
                  "type": "address"
                },
                {
                  "internalType": "address",
                  "name": "uiFeeReceiver",
                  "type": "address"
                },
                {
                  "internalType": "address",
                  "name": "market",
                  "type": "address"
                },
                {
                  "internalType": "address",
                  "name": "initialCollateralToken",
                  "type": "address"
                },
                {
                  "internalType": "address[]",
                  "name": "swapPath",
                  "type": "address[]"
                }
              ],
              "internalType": "struct Order.Addresses",
              "name": "addresses",
              "type": "tuple"
            },
            {
              "components": [
                {
                  "internalType": "enum Order.OrderType",
                  "name": "orderType",
                  "type": "uint8"
                },
                {
                  "internalType": "enum Order.DecreasePositionSwapType",
                  "name": "decreasePositionSwapType",
                  "type": "uint8"
                },
                {
                  "internalType": "uint256",
                  "name": "sizeDeltaUsd",
                  "type": "uint256"
                },
                {
                  "internalType": "uint256",
                  "name": "initialCollateralDeltaAmount",
                  "type": "uint256"
                },
                {
                  "internalType": "uint256",
                  "name": "triggerPrice",
                  "type": "uint256"
                },
                {
                  "internalType": "uint256",
                  "name": "acceptablePrice",
                  "type": "uint256"
                },
                {
                  "internalType": "uint256",
                  "name": "executionFee",
                  "type": "uint256"
                },
                {
                  "internalType": "uint256",
                  "name": "callbackGasLimit",
                  "type": "uint256"
                },
                {
                  "internalType": "uint256",
                  "name": "minOutputAmount",
                  "type": "uint256"
                },
                {
                  "internalType": "uint256",
                  "name": "updatedAtTime",
                  "type": "uint256"
                },
                {
                  "internalType": "uint256",
                  "name": "validFromTime",
                  "type": "uint256"
                },
                {
                  "internalType": "uint256",
                  "name": "srcChainId",
                  "type": "uint256"
                }
              ],
              "internalType": "struct Order.Numbers",
              "name": "numbers",
              "type": "tuple"
            },
            {
              "components": [
                {
                  "internalType": "bool",
                  "name": "isLong",
                  "type": "bool"
                },
                {
                  "internalType": "bool",
                  "name": "shouldUnwrapNativeToken",
                  "type": "bool"
                },
                {
                  "internalType": "bool",
                  "name": "isFrozen",
                  "type": "bool"
                },
                {
                  "internalType": "bool",
                  "name": "autoCancel",
                  "type": "bool"
                }
              ],
              "internalType": "struct Order.Flags",
              "name": "flags",
              "type": "tuple"
            },
            {
              "internalType": "bytes32[]",
              "name": "_dataList",
              "type": "bytes32[]"
            }
          ],
          "indexed": false,
          "internalType": "struct Order.Props",
          "name": "order",
          "type": "tuple"
        }
      ],
      "name": "AfterOrderFrozenError",
      "type": "event"
    },
    {
      "anonymous": false,
      "inputs": [
        {
          "indexed": false,
          "internalType": "bytes32",
          "name": "key",
          "type": "bytes32"
        },
        {
          "components": [
            {
              "components": [
                {
                  "internalType": "address",
                  "name": "account",
                  "type": "address"
                },
                {
                  "internalType": "address",
                  "name": "receiver",
                  "type": "address"
                },
                {
                  "internalType": "address",
                  "name": "callbackContract",
                  "type": "address"
                },
                {
                  "internalType": "address",
                  "name": "uiFeeReceiver",
                  "type": "address"
                },
                {
                  "internalType": "address",
                  "name": "fromMarket",
                  "type": "address"
                },
                {
                  "internalType": "address",
                  "name": "toMarket",
                  "type": "address"
                }
              ],
              "internalType": "struct Shift.Addresses",
              "name": "addresses",
              "type": "tuple"
            },
            {
              "components": [
                {
                  "internalType": "uint256",
                  "name": "marketTokenAmount",
                  "type": "uint256"
                },
                {
                  "internalType": "uint256",
                  "name": "minMarketTokens",
                  "type": "uint256"
                },
                {
                  "internalType": "uint256",
                  "name": "updatedAtTime",
                  "type": "uint256"
                },
                {
                  "internalType": "uint256",
                  "name": "executionFee",
                  "type": "uint256"
                },
                {
                  "internalType": "uint256",
                  "name": "callbackGasLimit",
                  "type": "uint256"
                },
                {
                  "internalType": "uint256",
                  "name": "srcChainId",
                  "type": "uint256"
                }
              ],
              "internalType": "struct Shift.Numbers",
              "name": "numbers",
              "type": "tuple"
            },
            {
              "internalType": "bytes32[]",
              "name": "_dataList",
              "type": "bytes32[]"
            }
          ],
          "indexed": false,
          "internalType": "struct Shift.Props",
          "name": "shift",
          "type": "tuple"
        }
      ],
      "name": "AfterShiftCancellationError",
      "type": "event"
    },
    {
      "anonymous": false,
      "inputs": [
        {
          "indexed": false,
          "internalType": "bytes32",
          "name": "key",
          "type": "bytes32"
        },
        {
          "components": [
            {
              "components": [
                {
                  "internalType": "address",
                  "name": "account",
                  "type": "address"
                },
                {
                  "internalType": "address",
                  "name": "receiver",
                  "type": "address"
                },
                {
                  "internalType": "address",
                  "name": "callbackContract",
                  "type": "address"
                },
                {
                  "internalType": "address",
                  "name": "uiFeeReceiver",
                  "type": "address"
                },
                {
                  "internalType": "address",
                  "name": "fromMarket",
                  "type": "address"
                },
                {
                  "internalType": "address",
                  "name": "toMarket",
                  "type": "address"
                }
              ],
              "internalType": "struct Shift.Addresses",
              "name": "addresses",
              "type": "tuple"
            },
            {
              "components": [
                {
                  "internalType": "uint256",
                  "name": "marketTokenAmount",
                  "type": "uint256"
                },
                {
                  "internalType": "uint256",
                  "name": "minMarketTokens",
                  "type": "uint256"
                },
                {
                  "internalType": "uint256",
                  "name": "updatedAtTime",
                  "type": "uint256"
                },
                {
                  "internalType": "uint256",
                  "name": "executionFee",
                  "type": "uint256"
                },
                {
                  "internalType": "uint256",
                  "name": "callbackGasLimit",
                  "type": "uint256"
                },
                {
                  "internalType": "uint256",
                  "name": "srcChainId",
                  "type": "uint256"
                }
              ],
              "internalType": "struct Shift.Numbers",
              "name": "numbers",
              "type": "tuple"
            },
            {
              "internalType": "bytes32[]",
              "name": "_dataList",
              "type": "bytes32[]"
            }
          ],
          "indexed": false,
          "internalType": "struct Shift.Props",
          "name": "shift",
          "type": "tuple"
        }
      ],
      "name": "AfterShiftExecutionError",
      "type": "event"
    },
    {
      "anonymous": false,
      "inputs": [
        {
          "indexed": false,
          "internalType": "bytes32",
          "name": "key",
          "type": "bytes32"
        },
        {
          "components": [
            {
              "components": [
                {
                  "internalType": "address",
                  "name": "account",
                  "type": "address"
                },
                {
                  "internalType": "address",
                  "name": "receiver",
                  "type": "address"
                },
                {
                  "internalType": "address",
                  "name": "callbackContract",
                  "type": "address"
                },
                {
                  "internalType": "address",
                  "name": "uiFeeReceiver",
                  "type": "address"
                },
                {
                  "internalType": "address",
                  "name": "market",
                  "type": "address"
                },
                {
                  "internalType": "address[]",
                  "name": "longTokenSwapPath",
                  "type": "address[]"
                },
                {
                  "internalType": "address[]",
                  "name": "shortTokenSwapPath",
                  "type": "address[]"
                }
              ],
              "internalType": "struct Withdrawal.Addresses",
              "name": "addresses",
              "type": "tuple"
            },
            {
              "components": [
                {
                  "internalType": "uint256",
                  "name": "marketTokenAmount",
                  "type": "uint256"
                },
                {
                  "internalType": "uint256",
                  "name": "minLongTokenAmount",
                  "type": "uint256"
                },
                {
                  "internalType": "uint256",
                  "name": "minShortTokenAmount",
                  "type": "uint256"
                },
                {
                  "internalType": "uint256",
                  "name": "updatedAtTime",
                  "type": "uint256"
                },
                {
                  "internalType": "uint256",
                  "name": "executionFee",
                  "type": "uint256"
                },
                {
                  "internalType": "uint256",
                  "name": "callbackGasLimit",
                  "type": "uint256"
                },
                {
                  "internalType": "uint256",
                  "name": "srcChainId",
                  "type": "uint256"
                }
              ],
              "internalType": "struct Withdrawal.Numbers",
              "name": "numbers",
              "type": "tuple"
            },
            {
              "components": [
                {
                  "internalType": "bool",
                  "name": "shouldUnwrapNativeToken",
                  "type": "bool"
                }
              ],
              "internalType": "struct Withdrawal.Flags",
              "name": "flags",
              "type": "tuple"
            },
            {
              "internalType": "bytes32[]",
              "name": "_dataList",
              "type": "bytes32[]"
            }
          ],
          "indexed": false,
          "internalType": "struct Withdrawal.Props",
          "name": "withdrawal",
          "type": "tuple"
        }
      ],
      "name": "AfterWithdrawalCancellationError",
      "type": "event"
    },
    {
      "anonymous": false,
      "inputs": [
        {
          "indexed": false,
          "internalType": "bytes32",
          "name": "key",
          "type": "bytes32"
        },
        {
          "components": [
            {
              "components": [
                {
                  "internalType": "address",
                  "name": "account",
                  "type": "address"
                },
                {
                  "internalType": "address",
                  "name": "receiver",
                  "type": "address"
                },
                {
                  "internalType": "address",
                  "name": "callbackContract",
                  "type": "address"
                },
                {
                  "internalType": "address",
                  "name": "uiFeeReceiver",
                  "type": "address"
                },
                {
                  "internalType": "address",
                  "name": "market",
                  "type": "address"
                },
                {
                  "internalType": "address[]",
                  "name": "longTokenSwapPath",
                  "type": "address[]"
                },
                {
                  "internalType": "address[]",
                  "name": "shortTokenSwapPath",
                  "type": "address[]"
                }
              ],
              "internalType": "struct Withdrawal.Addresses",
              "name": "addresses",
              "type": "tuple"
            },
            {
              "components": [
                {
                  "internalType": "uint256",
                  "name": "marketTokenAmount",
                  "type": "uint256"
                },
                {
                  "internalType": "uint256",
                  "name": "minLongTokenAmount",
                  "type": "uint256"
                },
                {
                  "internalType": "uint256",
                  "name": "minShortTokenAmount",
                  "type": "uint256"
                },
                {
                  "internalType": "uint256",
                  "name": "updatedAtTime",
                  "type": "uint256"
                },
                {
                  "internalType": "uint256",
                  "name": "executionFee",
                  "type": "uint256"
                },
                {
                  "internalType": "uint256",
                  "name": "callbackGasLimit",
                  "type": "uint256"
                },
                {
                  "internalType": "uint256",
                  "name": "srcChainId",
                  "type": "uint256"
                }
              ],
              "internalType": "struct Withdrawal.Numbers",
              "name": "numbers",
              "type": "tuple"
            },
            {
              "components": [
                {
                  "internalType": "bool",
                  "name": "shouldUnwrapNativeToken",
                  "type": "bool"
                }
              ],
              "internalType": "struct Withdrawal.Flags",
              "name": "flags",
              "type": "tuple"
            },
            {
              "internalType": "bytes32[]",
              "name": "_dataList",
              "type": "bytes32[]"
            }
          ],
          "indexed": false,
          "internalType": "struct Withdrawal.Props",
          "name": "withdrawal",
          "type": "tuple"
        }
      ],
      "name": "AfterWithdrawalExecutionError",
      "type": "event"
    },
    {
      "inputs": [
        {
          "internalType": "contract DataStore",
          "name": "dataStore",
          "type": "DataStore"
        },
        {
          "internalType": "address",
          "name": "account",
          "type": "address"
        },
        {
          "internalType": "address",
          "name": "market",
          "type": "address"
        }
      ],
      "name": "getSavedCallbackContract",
      "outputs": [
        {
          "internalType": "address",
          "name": "",
          "type": "address"
        }
      ],
      "stateMutability": "view",
      "type": "function"
    },
    {
      "inputs": [
        {
          "internalType": "address",
          "name": "callbackContract",
          "type": "address"
        }
      ],
      "name": "isValidCallbackContract",
      "outputs": [
        {
          "internalType": "bool",
          "name": "",
          "type": "bool"
        }
      ],
      "stateMutability": "view",
      "type": "function"
    },
    {
      "inputs": [
        {
          "internalType": "contract DataStore",
          "name": "dataStore",
          "type": "DataStore"
        },
        {
          "internalType": "uint256",
          "name": "callbackGasLimit",
          "type": "uint256"
        }
      ],
      "name": "validateCallbackGasLimit",
      "outputs": [],
      "stateMutability": "view",
      "type": "function"
    }
  ],
  "transactionHash": "0xb1a3410add21acc398e58e61932ca5f76bfb9f1649ced17a15668eff88c3cb04",
  "args": [],
  "numDeployments": 1,
  "solcInputHash": "e622a9010b5f527c0b91b3b694e003a0",
  "bytecode": "0x615e3e6200003b600b82828239805160001a60731461002e57634e487b7160e01b600052600060045260246000fd5b30600052607381538281f3fe73000000000000000000000000000000000000000030146080604052600436106100e55760003560e01c806314df816b146100ea57806339510d6f146100ff5780633ef2464d1461011f5780635004ae8e1461013f57806351034cc31461015f578063569d6f2b1461017f578063717c2ba5146101af5780637ac9a535146101d2578063840b4478146101f25780639384884d146102125780639d63a68614610232578063b3678d5b14610252578063b385847a14610272578063b47d5c9f14610292578063b4849276146102b2578063c9d846da146102d2578063f00202e0146102f2575b600080fd5b6100fd6100f8366004611778565b610312565b005b81801561010b57600080fd5b506100fd61011a366004612bec565b610409565b81801561012b57600080fd5b506100fd61013a366004612ddb565b61056d565b81801561014b57600080fd5b506100fd61015a366004613021565b6106bf565b81801561016b57600080fd5b506100fd61017a3660046132d5565b61080f565b61019261018d36600461341f565b61095f565b6040516001600160a01b0390911681526020015b60405180910390f35b6101c26101bd366004613477565b6109e3565b60405190151581526020016101a6565b8180156101de57600080fd5b506100fd6101ed366004613021565b610a1a565b8180156101fe57600080fd5b506100fd61020d3660046132d5565b610b6a565b81801561021e57600080fd5b506100fd61022d366004613494565b610cba565b81801561023e57600080fd5b506100fd61024d366004612ddb565b610e0c565b81801561025e57600080fd5b506100fd61026d3660046135df565b610f5e565b81801561027e57600080fd5b506100fd61028d366004613494565b610fef565b81801561029e57600080fd5b506100fd6102ad36600461363b565b611141565b8180156102be57600080fd5b506100fd6102cd36600461363b565b611291565b8180156102de57600080fd5b506100fd6102ed3660046132d5565b6113e1565b8180156102fe57600080fd5b506100fd61030d366004612bec565b611531565b6000826001600160a01b031663bd02d0f560405160200161035d9060208082526016908201527513505617d0d05313109050d2d7d1d054d7d31253525560521b604082015260600190565b604051602081830303815290604052805190602001206040518263ffffffff1660e01b815260040161039191815260200190565b602060405180830381865afa1580156103ae573d6000803e3d6000fd5b505050506040513d601f19601f820116820180604052508101906103d29190613798565b905080821115610404576040516308575b4960e11b815260048101839052602481018290526044015b60405180910390fd5b505050565b6104186101bd83516040015190565b61042157505050565b6040516384b29b5760e01b815260009073c044B0b4C8530A7c6D2EF5B4EefDA927391aA4d9906384b29b579061045b908690600401613871565b600060405180830381865af4158015610478573d6000803e3d6000fd5b505050506040513d6000823e601f3d908101601f191682016040526104a09190810190614861565b90506104b96104b484602001516080015190565b611681565b8251604001516001600160a01b0316633accaf266104dc85602001516080015190565b8684866040518563ffffffff1660e01b81526004016104fd939291906151ff565b600060405180830381600088803b15801561051757600080fd5b5087f193505050508015610529575060015b610567577fbefdc7c08b73634e388aa6a4849cfa7f8c2d2b9e4dc8f9790efd40114a1ccea4848460405161055e929190615234565b60405180910390a15b50505050565b61057c6101bd83516040015190565b61058557505050565b604051637093839f60e01b815260009073ecAA260C2F41EAf2D175D65E57dd26a284129fE890637093839f906105c190869085906004016152ec565b600060405180830381865af41580156105de573d6000803e3d6000fd5b505050506040513d6000823e601f3d908101601f191682016040526106069190810190614861565b905061061a6104b4846020015160a0015190565b8251604001516001600160a01b03166329e5be2161063d856020015160a0015190565b8684866040518563ffffffff1660e01b815260040161065e939291906151ff565b600060405180830381600088803b15801561067857600080fd5b5087f19350505050801561068a575060015b610567577f380ebabc00a0193314fe71ac63be6788bd78a935c348b66828cbc935bf0d889e848460405161055e929190615411565b6106ce6101bd83516060015190565b6106d757505050565b6040516379145fc560e01b81526000907335a9a0ee125bB482A348A6a0de5A63103c2bBD08906379145fc590610711908690600401615579565b600060405180830381865af415801561072e573d6000803e3d6000fd5b505050506040513d6000823e601f3d908101601f191682016040526107569190810190614861565b905061076a6104b4846020015160c0015190565b8251606001516001600160a01b0316631d5c411261078d856020015160c0015190565b8684866040518563ffffffff1660e01b81526004016107ae939291906151ff565b600060405180830381600088803b1580156107c857600080fd5b5087f1935050505080156107da575060015b610567577ff8ad94b0b4db45343504cdad24293ea3fd54bb199bc53eef64cfd4aa65056421848460405161055e9291906156b8565b61081e6101bd83516060015190565b61082757505050565b60405163163a46cd60e01b8152600090731137f156b71F1E887AF137fc613E16ADdC16f17D9063163a46cd906108619086906004016158ba565b600060405180830381865af415801561087e573d6000803e3d6000fd5b505050506040513d6000823e601f3d908101601f191682016040526108a69190810190614861565b90506108ba6104b4846020015160e0015190565b8251606001516001600160a01b031663ffaf393f6108dd856020015160e0015190565b8684866040518563ffffffff1660e01b81526004016108fe939291906151ff565b600060405180830381600088803b15801561091857600080fd5b5087f19350505050801561092a575060015b610567577f1a77c0912881ff648e2052d6f9d04d5b49a7aa516967275c74add34c65d5a5d4848460405161055e9291906159af565b6000836001600160a01b03166321f8a72161097a85856116cc565b6040518263ffffffff1660e01b815260040161099891815260200190565b602060405180830381865afa1580156109b5573d6000803e3d6000fd5b505050506040513d601f19601f820116820180604052508101906109d99190615aa8565b90505b9392505050565b60006001600160a01b0382166109fb57506000919050565b6001600160a01b0382163b610a1257506000919050565b506001919050565b610a296101bd83516060015190565b610a3257505050565b6040516379145fc560e01b81526000907335a9a0ee125bB482A348A6a0de5A63103c2bBD08906379145fc590610a6c908690600401615579565b600060405180830381865af4158015610a89573d6000803e3d6000fd5b505050506040513d6000823e601f3d908101601f19168201604052610ab19190810190614861565b9050610ac56104b4846020015160c0015190565b8251606001516001600160a01b031663ca2ff6a2610ae8856020015160c0015190565b8684866040518563ffffffff1660e01b8152600401610b09939291906151ff565b600060405180830381600088803b158015610b2357600080fd5b5087f193505050508015610b35575060015b610567577f9821b6fcb394be152c4864dcbfccf0ba2a32bcf7f2f6b316470e78c4e44d92f6848460405161055e9291906156b8565b610b796101bd83516060015190565b610b8257505050565b60405163163a46cd60e01b8152600090731137f156b71F1E887AF137fc613E16ADdC16f17D9063163a46cd90610bbc9086906004016158ba565b600060405180830381865af4158015610bd9573d6000803e3d6000fd5b505050506040513d6000823e601f3d908101601f19168201604052610c019190810190614861565b9050610c156104b4846020015160e0015190565b8251606001516001600160a01b03166383fc34cf610c38856020015160e0015190565b8684866040518563ffffffff1660e01b8152600401610c59939291906151ff565b600060405180830381600088803b158015610c7357600080fd5b5087f193505050508015610c85575060015b610567577fd6142bdbcb7f6b7674e793dd31ef1ecdae5be9a475644beb8238617242d256c5848460405161055e9291906159af565b610cc96101bd83516040015190565b610cd257505050565b604051634673c40d60e01b81526000907396146e12928edb1dF8b81618103457bd085F52Fa90634673c40d90610d0e9086908590600401615ac5565b600060405180830381865af4158015610d2b573d6000803e3d6000fd5b505050506040513d6000823e601f3d908101601f19168201604052610d539190810190614861565b9050610d676104b4846020015160a0015190565b8251604001516001600160a01b0316631046848b610d8a856020015160a0015190565b8684866040518563ffffffff1660e01b8152600401610dab939291906151ff565b600060405180830381600088803b158015610dc557600080fd5b5087f193505050508015610dd7575060015b610567577fe13cbf4c327b33a9d2e5963825ddd30ebe121b89d5ac1d4a65af848501448603848460405161055e929190615b66565b610e1b6101bd83516040015190565b610e2457505050565b604051637093839f60e01b815260009073ecAA260C2F41EAf2D175D65E57dd26a284129fE890637093839f90610e6090869085906004016152ec565b600060405180830381865af4158015610e7d573d6000803e3d6000fd5b505050506040513d6000823e601f3d908101601f19168201604052610ea59190810190614861565b9050610eb96104b4846020015160a0015190565b8251604001516001600160a01b03166351f21238610edc856020015160a0015190565b8684866040518563ffffffff1660e01b8152600401610efd939291906151ff565b600060405180830381600088803b158015610f1757600080fd5b5087f193505050508015610f29575060015b610567577f2eba240a3d3070bfec2568eb305818feb740b736d35d99c5f44c647d4c0d4d8b848460405161055e929190615411565b836001600160a01b031663ca446dd9610f7785856116cc565b6040516001600160e01b031960e084901b16815260048101919091526001600160a01b03841660248201526044016020604051808303816000875af1158015610fc4573d6000803e3d6000fd5b505050506040513d601f19601f82011682018060405250810190610fe89190615aa8565b5050505050565b610ffe6101bd83516040015190565b61100757505050565b604051634673c40d60e01b81526000907396146e12928edb1dF8b81618103457bd085F52Fa90634673c40d906110439086908590600401615ac5565b600060405180830381865af4158015611060573d6000803e3d6000fd5b505050506040513d6000823e601f3d908101601f191682016040526110889190810190614861565b905061109c6104b4846020015160a0015190565b8251604001516001600160a01b03166381b6d9126110bf856020015160a0015190565b8684866040518563ffffffff1660e01b81526004016110e0939291906151ff565b600060405180830381600088803b1580156110fa57600080fd5b5087f19350505050801561110c575060015b610567577fc0f2eb8071e0d571b552589c90992b567c17c67516648c72b6fbe0e373ebe4be848460405161055e929190615b66565b6111506101bd83516080015190565b61115957505050565b60405163cb58eb5b60e01b815260009073965bC814F574F27903f5fbe0a0870bd05D8dDEb19063cb58eb5b90611193908690600401615c0d565b600060405180830381865af41580156111b0573d6000803e3d6000fd5b505050506040513d6000823e601f3d908101601f191682016040526111d89190810190614861565b90506111ec6104b4846020015160a0015190565b8251608001516001600160a01b03166352c631c861120f856020015160a0015190565b8684866040518563ffffffff1660e01b8152600401611230939291906151ff565b600060405180830381600088803b15801561124a57600080fd5b5087f19350505050801561125c575060015b610567577f6c475808d30c96d678f6f8be069a06808c8cfc432c08082dad5c45e9f87919ec848460405161055e929190615cf9565b6112a06101bd83516080015190565b6112a957505050565b60405163cb58eb5b60e01b815260009073965bC814F574F27903f5fbe0a0870bd05D8dDEb19063cb58eb5b906112e3908690600401615c0d565b600060405180830381865af4158015611300573d6000803e3d6000fd5b505050506040513d6000823e601f3d908101601f191682016040526113289190810190614861565b905061133c6104b4846020015160a0015190565b8251608001516001600160a01b0316634658379c61135f856020015160a0015190565b8684866040518563ffffffff1660e01b8152600401611380939291906151ff565b600060405180830381600088803b15801561139a57600080fd5b5087f1935050505080156113ac575060015b610567577fb9898a5974aff894bdb0cc66a32cd9e69e00cd5122423a7beea199426ff19c80848460405161055e929190615cf9565b6113f06101bd83516060015190565b6113f957505050565b60405163163a46cd60e01b8152600090731137f156b71F1E887AF137fc613E16ADdC16f17D9063163a46cd906114339086906004016158ba565b600060405180830381865af4158015611450573d6000803e3d6000fd5b505050506040513d6000823e601f3d908101601f191682016040526114789190810190614861565b905061148c6104b4846020015160e0015190565b8251606001516001600160a01b031663d8bbbe426114af856020015160e0015190565b8684866040518563ffffffff1660e01b81526004016114d0939291906151ff565b600060405180830381600088803b1580156114ea57600080fd5b5087f1935050505080156114fc575060015b610567577fae6226bd5e7b59d8cef685e023de512bdfcb3c146f2be0a86484237f94e252f4848460405161055e9291906159af565b6115406101bd83516040015190565b61154957505050565b6040516384b29b5760e01b815260009073c044B0b4C8530A7c6D2EF5B4EefDA927391aA4d9906384b29b5790611583908690600401613871565b600060405180830381865af41580156115a0573d6000803e3d6000fd5b505050506040513d6000823e601f3d908101601f191682016040526115c89190810190614861565b90506115dc6104b484602001516080015190565b8251604001516001600160a01b03166360bc514b6115ff85602001516080015190565b8684866040518563ffffffff1660e01b8152600401611620939291906151ff565b600060405180830381600088803b15801561163a57600080fd5b5087f19350505050801561164c575060015b610567577f24b81d467c346571d5b95fff6054842e6137fdd52e61966ce97f90eb8bf8d153848460405161055e929190615234565b600060405a6116909190615dc1565b61169b90603f615de3565b9050818110156116c8576040516379a2abad60e01b815260048101829052602481018390526044016103fb565b5050565b60006040516020016117099060208082526017908201527614d055915117d0d05313109050d2d7d0d3d395149050d5604a1b604082015260600190565b60408051601f198184030181528282528051602091820120908301526001600160a01b0380861691830191909152831660608201526080016040516020818303038152906040528051906020012090505b92915050565b6001600160a01b038116811461177557600080fd5b50565b6000806040838503121561178b57600080fd5b823561179681611760565b946020939093013593505050565b634e487b7160e01b600052604160045260246000fd5b60405160c081016001600160401b03811182821017156117dc576117dc6117a4565b60405290565b604080519081016001600160401b03811182821017156117dc576117dc6117a4565b60405160e081016001600160401b03811182821017156117dc576117dc6117a4565b604051606081016001600160401b03811182821017156117dc576117dc6117a4565b604051608081016001600160401b03811182821017156117dc576117dc6117a4565b60405161012081016001600160401b03811182821017156117dc576117dc6117a4565b60405161010081016001600160401b03811182821017156117dc576117dc6117a4565b60405161014081016001600160401b03811182821017156117dc576117dc6117a4565b60405161018081016001600160401b03811182821017156117dc576117dc6117a4565b604051601f8201601f191681016001600160401b038111828210171561191e5761191e6117a4565b604052919050565b803561193181611760565b919050565b600060c0828403121561194857600080fd5b6119506117ba565b9050813581526020820135602082015260408201356040820152606082013560608201526080820135608082015260a082013560a082015292915050565b60006001600160401b038211156119a7576119a76117a4565b5060051b60200190565b600082601f8301126119c257600080fd5b813560206119d76119d28361198e565b6118f6565b82815260059290921b840181019181810190868411156119f657600080fd5b8286015b84811015611a1157803583529183019183016119fa565b509695505050505050565b60006001600160401b03821115611a3557611a356117a4565b50601f01601f191660200190565b600082601f830112611a5457600080fd5b8135611a626119d282611a1c565b818152846020838601011115611a7757600080fd5b816020850160208301376000918101602001919091529392505050565b600082601f830112611aa557600080fd5b81356020611ab56119d28361198e565b82815260059290921b84018101918181019086841115611ad457600080fd5b8286015b84811015611a11578035611aeb81611760565b8352918301918301611ad8565b600082601f830112611b0957600080fd5b81356020611b196119d28361198e565b82815260059290921b84018101918181019086841115611b3857600080fd5b8286015b84811015611a115780356001600160401b0380821115611b5c5760008081fd5b908801906040828b03601f1901811315611b765760008081fd5b611b7e6117e2565b8784013583811115611b905760008081fd5b611b9e8d8a83880101611a43565b825250908301359082821115611bb45760008081fd5b611bc28c8984870101611a94565b818901528652505050918301918301611b3c565b60006040808385031215611be957600080fd5b611bf16117e2565b915082356001600160401b0380821115611c0a57600080fd5b818501915085601f830112611c1e57600080fd5b81356020611c2e6119d28361198e565b82815260059290921b84018101918181019089841115611c4d57600080fd5b8286015b84811015611ccc57803586811115611c695760008081fd5b8701808c03601f1901891315611c7f5760008081fd5b611c876117e2565b8582013588811115611c995760008081fd5b611ca78e8883860101611a43565b8252509089013590611cb882611760565b808601919091528352918301918301611c51565b5087525086810135945082851115611ce357600080fd5b611cef88868901611af8565b81870152505050505092915050565b600082601f830112611d0f57600080fd5b81356020611d1f6119d28361198e565b828152600592831b8501820192828201919087851115611d3e57600080fd5b8387015b85811015611e335780356001600160401b0380821115611d625760008081fd5b908901906040828c03601f1901811315611d7c5760008081fd5b611d846117e2565b8884013583811115611d965760008081fd5b611da48e8b83880101611a43565b8252508184013583811115611db95760008081fd5b8085019450508c603f850112611dd157600092508283fd5b888401359250611de36119d28461198e565b83815292861b8401820192898101908e851115611e005760008081fd5b948301945b84861015611e1e5785358252948a0194908a0190611e05565b828b0152508752505050928401928401611d42565b5090979650505050505050565b60006040808385031215611e5357600080fd5b611e5b6117e2565b915082356001600160401b0380821115611e7457600080fd5b818501915085601f830112611e8857600080fd5b81356020611e986119d28361198e565b82815260059290921b84018101918181019089841115611eb757600080fd5b8286015b84811015611f2957803586811115611ed35760008081fd5b8701808c03601f1901891315611ee95760008081fd5b611ef16117e2565b8582013588811115611f035760008081fd5b611f118e8883860101611a43565b82525090890135858201528352918301918301611ebb565b5087525086810135945082851115611f4057600080fd5b611cef88868901611cfe565b600082601f830112611f5d57600080fd5b81356020611f6d6119d28361198e565b828152600592831b8501820192828201919087851115611f8c57600080fd5b8387015b85811015611e335780356001600160401b0380821115611fb05760008081fd5b908901906040828c03601f1901811315611fca5760008081fd5b611fd26117e2565b8884013583811115611fe45760008081fd5b611ff28e8b83880101611a43565b82525081840135838111156120075760008081fd5b8085019450508c603f85011261201f57600092508283fd5b8884013592506120316119d28461198e565b83815292861b8401820192898101908e85111561204e5760008081fd5b948301945b8486101561206c5785358252948a0194908a0190612053565b828b0152508752505050928401928401611f90565b6000604080838503121561209457600080fd5b61209c6117e2565b915082356001600160401b03808211156120b557600080fd5b818501915085601f8301126120c957600080fd5b813560206120d96119d28361198e565b82815260059290921b840181019181810190898411156120f857600080fd5b8286015b8481101561216a578035868111156121145760008081fd5b8701808c03601f190189131561212a5760008081fd5b6121326117e2565b85820135888111156121445760008081fd5b6121528e8883860101611a43565b825250908901358582015283529183019183016120fc565b508752508681013594508285111561218157600080fd5b611cef88868901611f4c565b801515811461177557600080fd5b600082601f8301126121ac57600080fd5b813560206121bc6119d28361198e565b828152600592831b85018201928282019190878511156121db57600080fd5b8387015b85811015611e335780356001600160401b03808211156121ff5760008081fd5b908901906040828c03601f19018113156122195760008081fd5b6122216117e2565b88840135838111156122335760008081fd5b6122418e8b83880101611a43565b82525081840135838111156122565760008081fd5b8085019450508c603f85011261226e57600092508283fd5b8884013592506122806119d28461198e565b83815292861b8401820192898101908e85111561229d5760008081fd5b948301945b848610156122c757853593506122b78461218d565b838252948a0194908a01906122a2565b828b01525087525050509284019284016121df565b600060408083850312156122ef57600080fd5b6122f76117e2565b915082356001600160401b038082111561231057600080fd5b818501915085601f83011261232457600080fd5b813560206123346119d28361198e565b82815260059290921b8401810191818101908984111561235357600080fd5b8286015b848110156123d25780358681111561236f5760008081fd5b8701808c03601f19018913156123855760008081fd5b61238d6117e2565b858201358881111561239f5760008081fd5b6123ad8e8883860101611a43565b82525090890135906123be8261218d565b808601919091528352918301918301612357565b50875250868101359450828511156123e957600080fd5b611cef8886890161219b565b600082601f83011261240657600080fd5b813560206124166119d28361198e565b82815260059290921b8401810191818101908684111561243557600080fd5b8286015b84811015611a115780356001600160401b03808211156124595760008081fd5b908801906040828b03601f19018113156124735760008081fd5b61247b6117e2565b878401358381111561248d5760008081fd5b61249b8d8a83880101611a43565b8252509083013590828211156124b15760008081fd5b6124bf8c89848701016119b1565b818901528652505050918301918301612439565b600060408083850312156124e657600080fd5b6124ee6117e2565b915082356001600160401b038082111561250757600080fd5b818501915085601f83011261251b57600080fd5b8135602061252b6119d28361198e565b82815260059290921b8401810191818101908984111561254a57600080fd5b8286015b848110156125bc578035868111156125665760008081fd5b8701808c03601f190189131561257c5760008081fd5b6125846117e2565b85820135888111156125965760008081fd5b6125a48e8883860101611a43565b8252509089013585820152835291830191830161254e565b50875250868101359450828511156125d357600080fd5b611cef888689016123f5565b600082601f8301126125f057600080fd5b813560206126006119d28361198e565b82815260059290921b8401810191818101908684111561261f57600080fd5b8286015b84811015611a11576001600160401b03813581101561264157600080fd5b813588016040818b03601f1901121561265957600080fd5b6126616117e2565b868201358381111561267257600080fd5b6126808c8983860101611a43565b82525060408201358381111561269557600080fd5b8083019250508a603f8301126126aa57600080fd5b868201356126ba6119d28261198e565b81815260059190911b830160400190888101908d8311156126da57600080fd5b604085015b838110156127125786813511156126f557600080fd5b6127058f60408335890101611a43565b8352918a01918a016126df565b50838a0152505085525050918301918301612623565b6000604080838503121561273b57600080fd5b6127436117e2565b915082356001600160401b038082111561275c57600080fd5b818501915085601f83011261277057600080fd5b813560206127806119d28361198e565b82815260059290921b8401810191818101908984111561279f57600080fd5b8286015b8481101561282f578035868111156127bb5760008081fd5b8701808c03601f19018913156127d15760008081fd5b6127d96117e2565b85820135888111156127eb5760008081fd5b6127f98e8883860101611a43565b825250898201358881111561280e5760008081fd5b61281c8e8883860101611a43565b82880152508452509183019183016127a3565b508752508681013594508285111561284657600080fd5b611cef888689016125df565b600082601f83011261286357600080fd5b813560206128736119d28361198e565b82815260059290921b8401810191818101908684111561289257600080fd5b8286015b84811015611a11576001600160401b0381358110156128b457600080fd5b813588016040818b03601f190112156128cc57600080fd5b6128d46117e2565b86820135838111156128e557600080fd5b6128f38c8983860101611a43565b82525060408201358381111561290857600080fd5b8083019250508a603f83011261291d57600080fd5b8682013561292d6119d28261198e565b81815260059190911b830160400190888101908d83111561294d57600080fd5b604085015b8381101561298557868135111561296857600080fd5b6129788f60408335890101611a43565b8352918a01918a01612952565b50838a0152505085525050918301918301612896565b600060408083850312156129ae57600080fd5b6129b66117e2565b915082356001600160401b03808211156129cf57600080fd5b818501915085601f8301126129e357600080fd5b813560206129f36119d28361198e565b82815260059290921b84018101918181019089841115612a1257600080fd5b8286015b84811015612aa257803586811115612a2e5760008081fd5b8701808c03601f1901891315612a445760008081fd5b612a4c6117e2565b8582013588811115612a5e5760008081fd5b612a6c8e8883860101611a43565b8252508982013588811115612a815760008081fd5b612a8f8e8883860101611a43565b8288015250845250918301918301612a16565b5087525086810135945082851115612ab957600080fd5b611cef88868901612852565b600060e08284031215612ad757600080fd5b612adf611804565b905081356001600160401b0380821115612af857600080fd5b612b0485838601611bd6565b83526020840135915080821115612b1a57600080fd5b612b2685838601611e40565b60208401526040840135915080821115612b3f57600080fd5b612b4b85838601612081565b60408401526060840135915080821115612b6457600080fd5b612b70858386016122dc565b60608401526080840135915080821115612b8957600080fd5b612b95858386016124d3565b608084015260a0840135915080821115612bae57600080fd5b612bba85838601612728565b60a084015260c0840135915080821115612bd357600080fd5b50612be08482850161299b565b60c08301525092915050565b600080600060608486031215612c0157600080fd5b8335925060208401356001600160401b0380821115612c1f57600080fd5b908501908187036101a0811215612c3557600080fd5b612c3d611826565b60c0821215612c4b57600080fd5b612c536117ba565b91508335612c6081611760565b82526020840135612c7081611760565b60208301526040840135612c8381611760565b60408301526060840135612c9681611760565b60608301526080840135612ca981611760565b608083015260a0840135612cbc81611760565b60a0830152818152612cd18960c08601611936565b6020820152610180840135915082821115612ceb57600080fd5b612cf7898386016119b1565b604082015280955050506040860135915080821115612d1557600080fd5b50612d2286828701612ac5565b9150509250925092565b600060e08284031215612d3e57600080fd5b612d46611804565b9050813581526020820135602082015260408201356040820152606082013560608201526080820135608082015260a082013560a082015260c082013560c082015292915050565b600060208284031215612da057600080fd5b604051602081016001600160401b0381118282101715612dc257612dc26117a4565b6040529050808235612dd38161218d565b905292915050565b600080600060608486031215612df057600080fd5b8335925060208401356001600160401b0380821115612e0e57600080fd5b908501906101408288031215612e2357600080fd5b612e2b611848565b823582811115612e3a57600080fd5b8301610120818a03811315612e4e57600080fd5b612e5661186a565b612e5f83611926565b8152612e6d60208401611926565b6020820152612e7e60408401611926565b6040820152612e8f60608401611926565b6060820152612ea060808401611926565b6080820152612eb160a08401611926565b60a0820152612ec260c08401611926565b60c082015260e083013585811115612ed957600080fd5b612ee58c828601611a94565b60e0830152506101008084013586811115612eff57600080fd5b612f0b8d828701611a94565b8284015250818552612f208c60208901612d2c565b6020860152612f318c828901612d8e565b60408601525050840135905082811115612f4a57600080fd5b612f56898286016119b1565b60608301525093506040860135915080821115612d1557600080fd5b60006101008284031215612f8557600080fd5b612f8d61188d565b9050813581526020820135602082015260408201356040820152606082013560608201526080820135608082015260a082013560a082015260c082013560c082015260e082013560e082015292915050565b600060408284031215612ff157600080fd5b612ff96117e2565b905081356130068161218d565b815260208201356130168161218d565b602082015292915050565b60008060006060848603121561303657600080fd5b8335925060208401356001600160401b038082111561305457600080fd5b90850190610180828803121561306957600080fd5b613071611848565b82358281111561308057600080fd5b8301610140818a03121561309357600080fd5b61309b6118b0565b6130a482611926565b81526130b260208301611926565b60208201526130c360408301611926565b60408201526130d460608301611926565b60608201526130e560808301611926565b60808201526130f660a08301611926565b60a082015261310760c08301611926565b60c082015261311860e08301611926565b60e0820152610100808301358581111561313157600080fd5b61313d8c828601611a94565b828401525050610120808301358581111561315757600080fd5b6131638c828601611a94565b82840152508184526131788b60208801612f72565b60208501526131898b828801612fdf565b604085015250505061016083013582811115612f4a57600080fd5b80356009811061193157600080fd5b80356003811061193157600080fd5b600061018082840312156131d557600080fd5b6131dd6118d3565b90506131e8826131a4565b81526131f6602083016131b3565b602082015260408201356040820152606082013560608201526080820135608082015260a082013560a082015260c082013560c082015260e082013560e082015261010080830135818301525061012080830135818301525061014080830135818301525061016080830135818301525092915050565b60006080828403121561327f57600080fd5b613287611848565b905081356132948161218d565b815260208201356132a48161218d565b602082015260408201356132b78161218d565b604082015260608201356132ca8161218d565b606082015292915050565b6000806000606084860312156132ea57600080fd5b8335925060208401356001600160401b038082111561330857600080fd5b90850190610240828803121561331d57600080fd5b613325611848565b82358281111561333457600080fd5b8301610100818a03121561334757600080fd5b61334f61188d565b61335882611926565b815261336660208301611926565b602082015261337760408301611926565b604082015261338860608301611926565b606082015261339960808301611926565b60808201526133aa60a08301611926565b60a08201526133bb60c08301611926565b60c082015260e0820135848111156133d257600080fd5b6133de8b828501611a94565b60e0830152508252506133f488602085016131c2565b6020820152613407886101a0850161326d565b604082015261022083013582811115612f4a57600080fd5b60008060006060848603121561343457600080fd5b833561343f81611760565b9250602084013561344f81611760565b9150604084013561345f81611760565b809150509250925092565b6001600160a01b03169052565b60006020828403121561348957600080fd5b81356109dc81611760565b6000806000606084860312156134a957600080fd5b8335925060208401356001600160401b03808211156134c757600080fd5b9085019061014082880312156134dc57600080fd5b6134e4611848565b8235828111156134f357600080fd5b830160e0818a03121561350557600080fd5b61350d611804565b61351682611926565b815261352460208301611926565b602082015261353560408301611926565b604082015261354660608301611926565b606082015261355760808301611926565b608082015260a08201358481111561356e57600080fd5b61357a8b828501611a94565b60a08301525060c08201358481111561359257600080fd5b61359e8b828501611a94565b60c0830152508252506135b48860208501612d2c565b60208201526135c7886101008501612d8e565b604082015261012083013582811115612f4a57600080fd5b600080600080608085870312156135f557600080fd5b843561360081611760565b9350602085013561361081611760565b9250604085013561362081611760565b9150606085013561363081611760565b939692955090935050565b60008060006060848603121561365057600080fd5b8335925060208401356001600160401b038082111561366e57600080fd5b90850190610140828803121561368357600080fd5b61368b611848565b82358281111561369a57600080fd5b8301610100818a038113156136ae57600080fd5b6136b661188d565b6136bf83611926565b81526136cd60208401611926565b60208201526136de60408401611926565b60408201526136ef60608401611926565b606082015261370060808401611926565b608082015261371160a08401611926565b60a082015260c08301358581111561372857600080fd5b6137348c828601611a94565b60c08301525060e08301358581111561374c57600080fd5b6137588c828601611a94565b60e083015250835261376d8a60208701612d2c565b602084015261377e8a828701612d8e565b6040840152505061012083013582811115612f4a57600080fd5b6000602082840312156137aa57600080fd5b5051919050565b80516001600160a01b03908116835260208083015182169084015260408083015182169084015260608083015182169084015260808083015182169084015260a09182015116910152565b805182526020810151602083015260408101516040830152606081015160608301526080810151608083015260a081015160a08301525050565b600081518084526020808501945080840160005b838110156138665781518752958201959082019060010161384a565b509495945050505050565b602081526138836020820183516137b1565b6000602083015161389760e08401826137fc565b5060408301516101a0838101526138b26101c0840182613836565b949350505050565b60005b838110156138d55781810151838201526020016138bd565b50506000910152565b600082601f8301126138ef57600080fd5b81516138fd6119d282611a1c565b81815284602083860101111561391257600080fd5b6138b28260208301602087016138ba565b600082601f83011261393457600080fd5b815160206139446119d28361198e565b828152600592831b850182019282820191908785111561396357600080fd5b8387015b85811015611e335780516001600160401b03808211156139875760008081fd5b908901906040828c03601f19018113156139a15760008081fd5b6139a96117e2565b88840151838111156139bb5760008081fd5b6139c98e8b838801016138de565b82525081840151838111156139de5760008081fd5b8085019450508c603f8501126139f657600092508283fd5b888401519250613a086119d28461198e565b83815292861b8401820192898101908e851115613a255760008081fd5b948301945b84861015613a4f5785519350613a3f84611760565b838252948a0194908a0190613a2a565b828b0152508752505050928401928401613967565b60006040808385031215613a7757600080fd5b613a7f6117e2565b83519092506001600160401b0380821115613a9957600080fd5b818501915085601f830112613aad57600080fd5b81516020613abd6119d28361198e565b82815260059290921b84018101918181019089841115613adc57600080fd5b8286015b84811015613b5b57805186811115613af85760008081fd5b8701808c03601f1901891315613b0e5760008081fd5b613b166117e2565b8582015188811115613b285760008081fd5b613b368e88838601016138de565b8252509089015190613b4782611760565b808601919091528352918301918301613ae0565b5087525086810151945082851115613b7257600080fd5b611cef88868901613923565b600082601f830112613b8f57600080fd5b81516020613b9f6119d28361198e565b828152600592831b8501820192828201919087851115613bbe57600080fd5b8387015b85811015611e335780516001600160401b0380821115613be25760008081fd5b908901906040828c03601f1901811315613bfc5760008081fd5b613c046117e2565b8884015183811115613c165760008081fd5b613c248e8b838801016138de565b8252508184015183811115613c395760008081fd5b8085019450508c603f850112613c5157600092508283fd5b888401519250613c636119d28461198e565b83815292861b8401820192898101908e851115613c805760008081fd5b948301945b84861015613c9e5785518252948a0194908a0190613c85565b828b0152508752505050928401928401613bc2565b60006040808385031215613cc657600080fd5b613cce6117e2565b83519092506001600160401b0380821115613ce857600080fd5b818501915085601f830112613cfc57600080fd5b81516020613d0c6119d28361198e565b82815260059290921b84018101918181019089841115613d2b57600080fd5b8286015b84811015613d9d57805186811115613d475760008081fd5b8701808c03601f1901891315613d5d5760008081fd5b613d656117e2565b8582015188811115613d775760008081fd5b613d858e88838601016138de565b82525090890151858201528352918301918301613d2f565b5087525086810151945082851115613db457600080fd5b611cef88868901613b7e565b600082601f830112613dd157600080fd5b81516020613de16119d28361198e565b828152600592831b8501820192828201919087851115613e0057600080fd5b8387015b85811015611e335780516001600160401b0380821115613e245760008081fd5b908901906040828c03601f1901811315613e3e5760008081fd5b613e466117e2565b8884015183811115613e585760008081fd5b613e668e8b838801016138de565b8252508184015183811115613e7b5760008081fd5b8085019450508c603f850112613e9357600092508283fd5b888401519250613ea56119d28461198e565b83815292861b8401820192898101908e851115613ec25760008081fd5b948301945b84861015613ee05785518252948a0194908a0190613ec7565b828b0152508752505050928401928401613e04565b60006040808385031215613f0857600080fd5b613f106117e2565b83519092506001600160401b0380821115613f2a57600080fd5b818501915085601f830112613f3e57600080fd5b81516020613f4e6119d28361198e565b82815260059290921b84018101918181019089841115613f6d57600080fd5b8286015b84811015613fdf57805186811115613f895760008081fd5b8701808c03601f1901891315613f9f5760008081fd5b613fa76117e2565b8582015188811115613fb95760008081fd5b613fc78e88838601016138de565b82525090890151858201528352918301918301613f71565b5087525086810151945082851115613ff657600080fd5b611cef88868901613dc0565b600082601f83011261401357600080fd5b815160206140236119d28361198e565b828152600592831b850182019282820191908785111561404257600080fd5b8387015b85811015611e335780516001600160401b03808211156140665760008081fd5b908901906040828c03601f19018113156140805760008081fd5b6140886117e2565b888401518381111561409a5760008081fd5b6140a88e8b838801016138de565b82525081840151838111156140bd5760008081fd5b8085019450508c603f8501126140d557600092508283fd5b8884015192506140e76119d28461198e565b83815292861b8401820192898101908e8511156141045760008081fd5b948301945b8486101561412e578551935061411e8461218d565b838252948a0194908a0190614109565b828b0152508752505050928401928401614046565b6000604080838503121561415657600080fd5b61415e6117e2565b83519092506001600160401b038082111561417857600080fd5b818501915085601f83011261418c57600080fd5b8151602061419c6119d28361198e565b82815260059290921b840181019181810190898411156141bb57600080fd5b8286015b8481101561423a578051868111156141d75760008081fd5b8701808c03601f19018913156141ed5760008081fd5b6141f56117e2565b85820151888111156142075760008081fd5b6142158e88838601016138de565b82525090890151906142268261218d565b8086019190915283529183019183016141bf565b508752508681015194508285111561425157600080fd5b611cef88868901614002565b6000604080838503121561427057600080fd5b6142786117e2565b83519092506001600160401b038082111561429257600080fd5b818501915085601f8301126142a657600080fd5b815160206142b66119d28361198e565b82815260059290921b840181019181810190898411156142d557600080fd5b8286015b84811015613fdf578051868111156142f15760008081fd5b8701808c03601f19018913156143075760008081fd5b61430f6117e2565b85820151888111156143215760008081fd5b61432f8e88838601016138de565b825250908901518582015283529183019183016142d9565b600082601f83011261435857600080fd5b81516143666119d28261198e565b8082825260208201915060208360051b86010192508583111561438857600080fd5b602085015b838110156144a45780516001600160401b03808211156143ac57600080fd5b908701906040828a03601f190112156143c457600080fd5b6143cc6117e2565b6020830151828111156143de57600080fd5b6143ed8b6020838701016138de565b82525060408301518281111561440257600080fd5b80840193505089603f84011261441757600080fd5b60208301516144286119d28261198e565b81815260059190911b84016040019060208101908c83111561444957600080fd5b604086015b838110156144835780518681111561446557600080fd5b6144748f6040838b01016138de565b8452506020928301920161444e565b5080602085015250505080865250505060208301925060208101905061438d565b5095945050505050565b600060408083850312156144c157600080fd5b6144c96117e2565b83519092506001600160401b03808211156144e357600080fd5b818501915085601f8301126144f757600080fd5b815160206145076119d28361198e565b82815260059290921b8401810191818101908984111561452657600080fd5b8286015b848110156145b6578051868111156145425760008081fd5b8701808c03601f19018913156145585760008081fd5b6145606117e2565b85820151888111156145725760008081fd5b6145808e88838601016138de565b82525089820151888111156145955760008081fd5b6145a38e88838601016138de565b828801525084525091830191830161452a565b50875250868101519450828511156145cd57600080fd5b611cef88868901614347565b600082601f8301126145ea57600080fd5b81516145f86119d28261198e565b8082825260208201915060208360051b86010192508583111561461a57600080fd5b602085015b838110156144a45780516001600160401b038082111561463e57600080fd5b908701906040828a03601f1901121561465657600080fd5b61465e6117e2565b60208301518281111561467057600080fd5b61467f8b6020838701016138de565b82525060408301518281111561469457600080fd5b80840193505089603f8401126146a957600080fd5b60208301516146ba6119d28261198e565b81815260059190911b84016040019060208101908c8311156146db57600080fd5b604086015b83811015614715578051868111156146f757600080fd5b6147068f6040838b01016138de565b845250602092830192016146e0565b5080602085015250505080865250505060208301925060208101905061461f565b6000604080838503121561474957600080fd5b6147516117e2565b83519092506001600160401b038082111561476b57600080fd5b818501915085601f83011261477f57600080fd5b8151602061478f6119d28361198e565b82815260059290921b840181019181810190898411156147ae57600080fd5b8286015b8481101561483e578051868111156147ca5760008081fd5b8701808c03601f19018913156147e05760008081fd5b6147e86117e2565b85820151888111156147fa5760008081fd5b6148088e88838601016138de565b825250898201518881111561481d5760008081fd5b61482b8e88838601016138de565b82880152508452509183019183016147b2565b508752508681015194508285111561485557600080fd5b611cef888689016145d9565b60006020828403121561487357600080fd5b81516001600160401b038082111561488a57600080fd5b9083019060e0828603121561489e57600080fd5b6148a6611804565b8251828111156148b557600080fd5b6148c187828601613a64565b8252506020830151828111156148d657600080fd5b6148e287828601613cb3565b6020830152506040830151828111156148fa57600080fd5b61490687828601613ef5565b60408301525060608301518281111561491e57600080fd5b61492a87828601614143565b60608301525060808301518281111561494257600080fd5b61494e8782860161425d565b60808301525060a08301518281111561496657600080fd5b614972878286016144ae565b60a08301525060c08301518281111561498a57600080fd5b61499687828601614736565b60c08301525095945050505050565b600081518084526149bd8160208601602086016138ba565b601f01601f19169290920160200192915050565b600081518084526020808501945080840160005b838110156138665781516001600160a01b0316875295820195908201906001016149e5565b600081518084526020808501808196508360051b8101915082860160005b85811015614a78578284038952815160408151818752614a4a828801826149a5565b91505086820151915085810387870152614a6481836149d1565b9a87019a9550505090840190600101614a28565b5091979650505050505050565b60006040808401835182865281815180845260608801915060608160051b89010193506020808401935060005b82811015614afc57898603605f1901845284518051888852614ad6898901826149a5565b918401516001600160a01b03169784019790975295509381019392810192600101614ab2565b50808801519550888503818a015250505050614b188183614a0a565b95945050505050565b600081518084526020808501808196508360051b810191508286016000805b86811015614bb3578385038a52825160408151818852614b62828901826149a5565b92890151888403898b01528051808552908a01938693508a0191505b80831015614b9e5783518252928901926001929092019190890190614b7e565b509b88019b9650505091850191600101614b40565b509298975050505050505050565b60006040808401835182865281815180845260608801915060608160051b89010193506020808401935060005b82811015614c2f57898603605f1901845284518051888852614c12898901826149a5565b918401519784019790975295509381019392810192600101614bee565b50808801519550888503818a015250505050614b188183614b21565b600081518084526020808501808196508360051b810191508286016000805b86811015614bb3578385038a52825160408151818852614c8c828901826149a5565b92890151888403898b01528051808552908a01938693508a0191505b80831015614cc85783518252928901926001929092019190890190614ca8565b509b88019b9650505091850191600101614c6a565b60006040808401835182865281815180845260608801915060608160051b89010193506020808401935060005b82811015614d4b57898603605f1901845284518051888852614d2e898901826149a5565b918401519784019790975295509381019392810192600101614d0a565b50808801519550888503818a015250505050614b188183614c4b565b600081518084526020808501808196508360051b810191508286016000805b86811015614bb3578385038a52825160408151818852614da8828901826149a5565b92890151888403898b01528051808552908a01938693508a0191505b80831015614de657835115158252928901926001929092019190890190614dc4565b509b88019b9650505091850191600101614d86565b60006040808401835182865281815180845260608801915060608160051b89010193506020808401935060005b82811015614e6b57898603605f1901845284518051888852614e4c898901826149a5565b9184015115159784019790975295509381019392810192600101614e28565b50808801519550888503818a015250505050614b188183614d67565b600081518084526020808501808196508360051b8101915082860160005b85811015614a78578284038952815160408151818752614ec7828801826149a5565b91505086820151915085810387870152614ee18183613836565b9a87019a9550505090840190600101614ea5565b60006040808401835182865281815180845260608801915060608160051b89010193506020808401935060005b82811015614f6357898603605f1901845284518051888852614f46898901826149a5565b918401519784019790975295509381019392810192600101614f22565b50808801519550888503818a015250505050614b188183614e87565b600081518084526020808501808196506005915083821b81018387016000805b8781101561502a578484038b52825160408151818752614fc1828801826149a5565b928a0151878403888c01528051808552908b019392508a83019150808a1b83018b01865b8281101561501357601f198583030184526150018287516149a5565b958d0195938d01939150600101614fe5565b509e8b019e97505050938801935050600101614f9f565b50919998505050505050505050565b60006040808401835182865281815180845260608801915060608160051b89010193506020808401935060005b828110156150b657898603605f190184528451805188885261508a898901826149a5565b91840151888303898601529190506150a281836149a5565b975050509381019392810192600101615066565b50808801519550888503818a015250505050614b188183614f7f565b60006040808401835182865281815180845260608801915060608160051b89010193506020808401935060005b828110156150b657898603605f1901845284518051888852615123898901826149a5565b918401518883038986015291905061513b81836149a5565b9750505093810193928101926001016150ff565b6000815160e0845261516460e0850182614a85565b90506020830151848203602086015261517d8282614bc1565b915050604083015184820360408601526151978282614cdd565b915050606083015184820360608601526151b18282614dfb565b915050608083015184820360808601526151cb8282614ef5565b91505060a083015184820360a08601526151e58282615039565b91505060c083015184820360c0860152614b1882826150d2565b838152606060208201526000615218606083018561514f565b828103604084015261522a818561514f565b9695505050505050565b8281526040602082015261524c6040820183516137b1565b600060208301516152616101008401826137fc565b5060408301516101a06101c0840152614b186101e0840182613836565b805182526020810151602083015260408101516040830152606081015160608301526080810151608083015260a081015160a083015260c081015160c08301525050565b634e487b7160e01b600052602160045260246000fd5b600381106152e8576152e86152c2565b9052565b604081526000835161014080604085015261530c6101808501835161346a565b602082015161531f6101a086018261346a565b5060408201516153336101c086018261346a565b5060608201516153476101e086018261346a565b50608082015161535b61020086018261346a565b5060a082015161536f61022086018261346a565b5060c082015161538361024086018261346a565b5060e08201516101206102608601526153a06102a08601826149d1565b9050610100830151925061017f19858203016102808601526153c281846149d1565b92505060208601516153d7606086018261527e565b506040860151511515908401526060850151603f19848303016101608501526154008282613836565b925050506109dc60208301846152d8565b82815260406020820152600082516101408060408501526154376101808501835161346a565b602082015161544a6101a086018261346a565b50604082015161545e6101c086018261346a565b5060608201516154726101e086018261346a565b50608082015161548661020086018261346a565b5060a082015161549a61022086018261346a565b5060c08201516154ae61024086018261346a565b5060e08201516101206102608601526154cb6102a08601826149d1565b9050610100830151925061017f19858203016102808601526154ed81846149d1565b9250506020850151615502606086018261527e565b506040850151511515908401526060840151603f198483030161016085015261522a8282613836565b805182526020810151602083015260408101516040830152606081015160608301526080810151608083015260a081015160a083015260c081015160c083015260e081015160e08301525050565b60208152600082516101808060208501526155996101a08501835161346a565b60208201516155ac6101c086018261346a565b5060408201516155c06101e086018261346a565b5060608201516155d461020086018261346a565b5060808201516155e861022086018261346a565b5060a08201516155fc61024086018261346a565b5060c082015161561061026086018261346a565b5060e082015161562461028086018261346a565b50610100820151610140806102a08701526156436102e08701836149d1565b9150610120840151935061019f19868303016102c087015261566582856149d1565b93506020870151915061567b604087018361552b565b6040870151915061569c818701838051151582526020908101511515910152565b50506060850151848303601f19018286015261522a8382613836565b828152604060208201526000825161018060408401526156dd6101c08401825161346a565b60208101516156f06101e085018261346a565b50604081015161570461020085018261346a565b50606081015161571861022085018261346a565b50608081015161572c61024085018261346a565b5060a081015161574061026085018261346a565b5060c081015161575461028085018261346a565b5060e08101516157686102a085018261346a565b506101008101516101406102c08501526157866103008501826149d1565b905061012082015191506101bf19848203016102e08501526157a881836149d1565b91505060208401516157bd606085018261552b565b506040840151805115156101608501526020015115156101808401526060840151603f19848303016101a085015261522a8282613836565b600981106152e8576152e86152c2565b6158108282516157f5565b602081015161582260208401826152d8565b5060408181015190830152606080820151908301526080808201519083015260a0808201519083015260c0808201519083015260e0808201519083015261010080820151908301526101208082015190830152610140808201519083015261016090810151910152565b8051151582526020810151151560208301526040810151151560408301526060810151151560608301525050565b602081526000825161024080602085015260018060a01b0380835116610260860152806020840151166102808601525060408201516158fd6102a086018261346a565b5060608201516159116102c086018261346a565b5060808201516159256102e086018261346a565b5060a082015161593961030086018261346a565b5060c082015161594d61032086018261346a565b5060e0820151915061010061034085015261596c6103608501836149d1565b915060208501516159806040860182615805565b5060408501516159946101c086018261588c565b506060850151848303601f19018286015261522a8382613836565b8281526040602082015260008251610240604084015260018060a01b0380825116610280850152806020830151166102a08501525060408101516159f76102c085018261346a565b506060810151615a0b6102e085018261346a565b506080810151615a1f61030085018261346a565b5060a0810151615a3361032085018261346a565b5060c0810151615a4761034085018261346a565b5060e00151610100610360840152615a636103808401826149d1565b90506020840151615a776060850182615805565b506040840151615a8b6101e085018261588c565b506060840151838203603f190161026085015261522a8282613836565b600060208284031215615aba57600080fd5b81516109dc81611760565b604081526000835161014080604085015260018060a01b0380835116610180860152806020840151166101a0860152806040840151166101c0860152506060820151615b156101e086018261346a565b506080820151615b2961020086018261346a565b5060a082015160e0610220860152615b456102608601826149d1565b905060c0830151925061017f19858203016102408601526153c281846149d1565b828152604060208201526000825161014080604085015260018060a01b0380835116610180860152806020840151166101a0860152806040840151166101c0860152506060820151615bbc6101e086018261346a565b506080820151615bd061020086018261346a565b5060a082015160e0610220860152615bec6102608601826149d1565b905060c0830151925061017f19858203016102408601526154ed81846149d1565b602081526000825161014080602085015260018060a01b038251166101608501526020820151615c4161018086018261346a565b506040820151615c556101a086018261346a565b506060820151615c696101c086018261346a565b506080820151615c7d6101e086018261346a565b5060a0820151615c9161020086018261346a565b5060c0820151610100610220860152615cae6102608601826149d1565b905060e0830151925061015f1985820301610240860152615ccf81846149d1565b9250506020850151615ce4604086018261527e565b50604085015180511515610120860152615994565b828152604060208201526000825161014080604085015260018060a01b038251166101808501526020820151615d336101a086018261346a565b506040820151615d476101c086018261346a565b506060820151615d5b6101e086018261346a565b506080820151615d6f61020086018261346a565b5060a0820151615d8361022086018261346a565b5060c0820151610100610240860152615da06102808601826149d1565b905060e0830151925061017f19858203016102608601526154ed81846149d1565b600082615dde57634e487b7160e01b600052601260045260246000fd5b500490565b808202811582820484141761175a57634e487b7160e01b600052601160045260246000fdfea264697066735822122023332ee9daea5fb726eac723a33093c5c186757b784507c362effd47161f6ba964736f6c63430008140033",
  "deployedBytecode": "0x73000000000000000000000000000000000000000030146080604052600436106100e55760003560e01c806314df816b146100ea57806339510d6f146100ff5780633ef2464d1461011f5780635004ae8e1461013f57806351034cc31461015f578063569d6f2b1461017f578063717c2ba5146101af5780637ac9a535146101d2578063840b4478146101f25780639384884d146102125780639d63a68614610232578063b3678d5b14610252578063b385847a14610272578063b47d5c9f14610292578063b4849276146102b2578063c9d846da146102d2578063f00202e0146102f2575b600080fd5b6100fd6100f8366004611778565b610312565b005b81801561010b57600080fd5b506100fd61011a366004612bec565b610409565b81801561012b57600080fd5b506100fd61013a366004612ddb565b61056d565b81801561014b57600080fd5b506100fd61015a366004613021565b6106bf565b81801561016b57600080fd5b506100fd61017a3660046132d5565b61080f565b61019261018d36600461341f565b61095f565b6040516001600160a01b0390911681526020015b60405180910390f35b6101c26101bd366004613477565b6109e3565b60405190151581526020016101a6565b8180156101de57600080fd5b506100fd6101ed366004613021565b610a1a565b8180156101fe57600080fd5b506100fd61020d3660046132d5565b610b6a565b81801561021e57600080fd5b506100fd61022d366004613494565b610cba565b81801561023e57600080fd5b506100fd61024d366004612ddb565b610e0c565b81801561025e57600080fd5b506100fd61026d3660046135df565b610f5e565b81801561027e57600080fd5b506100fd61028d366004613494565b610fef565b81801561029e57600080fd5b506100fd6102ad36600461363b565b611141565b8180156102be57600080fd5b506100fd6102cd36600461363b565b611291565b8180156102de57600080fd5b506100fd6102ed3660046132d5565b6113e1565b8180156102fe57600080fd5b506100fd61030d366004612bec565b611531565b6000826001600160a01b031663bd02d0f560405160200161035d9060208082526016908201527513505617d0d05313109050d2d7d1d054d7d31253525560521b604082015260600190565b604051602081830303815290604052805190602001206040518263ffffffff1660e01b815260040161039191815260200190565b602060405180830381865afa1580156103ae573d6000803e3d6000fd5b505050506040513d601f19601f820116820180604052508101906103d29190613798565b905080821115610404576040516308575b4960e11b815260048101839052602481018290526044015b60405180910390fd5b505050565b6104186101bd83516040015190565b61042157505050565b6040516384b29b5760e01b815260009073__$177448b54fb2cdec765bde6691f13c6dd4$__906384b29b579061045b908690600401613871565b600060405180830381865af4158015610478573d6000803e3d6000fd5b505050506040513d6000823e601f3d908101601f191682016040526104a09190810190614861565b90506104b96104b484602001516080015190565b611681565b8251604001516001600160a01b0316633accaf266104dc85602001516080015190565b8684866040518563ffffffff1660e01b81526004016104fd939291906151ff565b600060405180830381600088803b15801561051757600080fd5b5087f193505050508015610529575060015b610567577fbefdc7c08b73634e388aa6a4849cfa7f8c2d2b9e4dc8f9790efd40114a1ccea4848460405161055e929190615234565b60405180910390a15b50505050565b61057c6101bd83516040015190565b61058557505050565b604051637093839f60e01b815260009073__$c1a7af12cfab3fde53a677c13aea00f1f1$__90637093839f906105c190869085906004016152ec565b600060405180830381865af41580156105de573d6000803e3d6000fd5b505050506040513d6000823e601f3d908101601f191682016040526106069190810190614861565b905061061a6104b4846020015160a0015190565b8251604001516001600160a01b03166329e5be2161063d856020015160a0015190565b8684866040518563ffffffff1660e01b815260040161065e939291906151ff565b600060405180830381600088803b15801561067857600080fd5b5087f19350505050801561068a575060015b610567577f380ebabc00a0193314fe71ac63be6788bd78a935c348b66828cbc935bf0d889e848460405161055e929190615411565b6106ce6101bd83516060015190565b6106d757505050565b6040516379145fc560e01b815260009073__$0103e1f3fc7cf5dac62eee53f1c3919990$__906379145fc590610711908690600401615579565b600060405180830381865af415801561072e573d6000803e3d6000fd5b505050506040513d6000823e601f3d908101601f191682016040526107569190810190614861565b905061076a6104b4846020015160c0015190565b8251606001516001600160a01b0316631d5c411261078d856020015160c0015190565b8684866040518563ffffffff1660e01b81526004016107ae939291906151ff565b600060405180830381600088803b1580156107c857600080fd5b5087f1935050505080156107da575060015b610567577ff8ad94b0b4db45343504cdad24293ea3fd54bb199bc53eef64cfd4aa65056421848460405161055e9291906156b8565b61081e6101bd83516060015190565b61082757505050565b60405163163a46cd60e01b815260009073__$2cb2169b31257cc84fcd1b9a9c4c15efa9$__9063163a46cd906108619086906004016158ba565b600060405180830381865af415801561087e573d6000803e3d6000fd5b505050506040513d6000823e601f3d908101601f191682016040526108a69190810190614861565b90506108ba6104b4846020015160e0015190565b8251606001516001600160a01b031663ffaf393f6108dd856020015160e0015190565b8684866040518563ffffffff1660e01b81526004016108fe939291906151ff565b600060405180830381600088803b15801561091857600080fd5b5087f19350505050801561092a575060015b610567577f1a77c0912881ff648e2052d6f9d04d5b49a7aa516967275c74add34c65d5a5d4848460405161055e9291906159af565b6000836001600160a01b03166321f8a72161097a85856116cc565b6040518263ffffffff1660e01b815260040161099891815260200190565b602060405180830381865afa1580156109b5573d6000803e3d6000fd5b505050506040513d601f19601f820116820180604052508101906109d99190615aa8565b90505b9392505050565b60006001600160a01b0382166109fb57506000919050565b6001600160a01b0382163b610a1257506000919050565b506001919050565b610a296101bd83516060015190565b610a3257505050565b6040516379145fc560e01b815260009073__$0103e1f3fc7cf5dac62eee53f1c3919990$__906379145fc590610a6c908690600401615579565b600060405180830381865af4158015610a89573d6000803e3d6000fd5b505050506040513d6000823e601f3d908101601f19168201604052610ab19190810190614861565b9050610ac56104b4846020015160c0015190565b8251606001516001600160a01b031663ca2ff6a2610ae8856020015160c0015190565b8684866040518563ffffffff1660e01b8152600401610b09939291906151ff565b600060405180830381600088803b158015610b2357600080fd5b5087f193505050508015610b35575060015b610567577f9821b6fcb394be152c4864dcbfccf0ba2a32bcf7f2f6b316470e78c4e44d92f6848460405161055e9291906156b8565b610b796101bd83516060015190565b610b8257505050565b60405163163a46cd60e01b815260009073__$2cb2169b31257cc84fcd1b9a9c4c15efa9$__9063163a46cd90610bbc9086906004016158ba565b600060405180830381865af4158015610bd9573d6000803e3d6000fd5b505050506040513d6000823e601f3d908101601f19168201604052610c019190810190614861565b9050610c156104b4846020015160e0015190565b8251606001516001600160a01b03166383fc34cf610c38856020015160e0015190565b8684866040518563ffffffff1660e01b8152600401610c59939291906151ff565b600060405180830381600088803b158015610c7357600080fd5b5087f193505050508015610c85575060015b610567577fd6142bdbcb7f6b7674e793dd31ef1ecdae5be9a475644beb8238617242d256c5848460405161055e9291906159af565b610cc96101bd83516040015190565b610cd257505050565b604051634673c40d60e01b815260009073__$02d0c358d87c2372101d42c2df65da4fff$__90634673c40d90610d0e9086908590600401615ac5565b600060405180830381865af4158015610d2b573d6000803e3d6000fd5b505050506040513d6000823e601f3d908101601f19168201604052610d539190810190614861565b9050610d676104b4846020015160a0015190565b8251604001516001600160a01b0316631046848b610d8a856020015160a0015190565b8684866040518563ffffffff1660e01b8152600401610dab939291906151ff565b600060405180830381600088803b158015610dc557600080fd5b5087f193505050508015610dd7575060015b610567577fe13cbf4c327b33a9d2e5963825ddd30ebe121b89d5ac1d4a65af848501448603848460405161055e929190615b66565b610e1b6101bd83516040015190565b610e2457505050565b604051637093839f60e01b815260009073__$c1a7af12cfab3fde53a677c13aea00f1f1$__90637093839f90610e6090869085906004016152ec565b600060405180830381865af4158015610e7d573d6000803e3d6000fd5b505050506040513d6000823e601f3d908101601f19168201604052610ea59190810190614861565b9050610eb96104b4846020015160a0015190565b8251604001516001600160a01b03166351f21238610edc856020015160a0015190565b8684866040518563ffffffff1660e01b8152600401610efd939291906151ff565b600060405180830381600088803b158015610f1757600080fd5b5087f193505050508015610f29575060015b610567577f2eba240a3d3070bfec2568eb305818feb740b736d35d99c5f44c647d4c0d4d8b848460405161055e929190615411565b836001600160a01b031663ca446dd9610f7785856116cc565b6040516001600160e01b031960e084901b16815260048101919091526001600160a01b03841660248201526044016020604051808303816000875af1158015610fc4573d6000803e3d6000fd5b505050506040513d601f19601f82011682018060405250810190610fe89190615aa8565b5050505050565b610ffe6101bd83516040015190565b61100757505050565b604051634673c40d60e01b815260009073__$02d0c358d87c2372101d42c2df65da4fff$__90634673c40d906110439086908590600401615ac5565b600060405180830381865af4158015611060573d6000803e3d6000fd5b505050506040513d6000823e601f3d908101601f191682016040526110889190810190614861565b905061109c6104b4846020015160a0015190565b8251604001516001600160a01b03166381b6d9126110bf856020015160a0015190565b8684866040518563ffffffff1660e01b81526004016110e0939291906151ff565b600060405180830381600088803b1580156110fa57600080fd5b5087f19350505050801561110c575060015b610567577fc0f2eb8071e0d571b552589c90992b567c17c67516648c72b6fbe0e373ebe4be848460405161055e929190615b66565b6111506101bd83516080015190565b61115957505050565b60405163cb58eb5b60e01b815260009073__$e699bdc7034b9f834da4366fbe4e418c66$__9063cb58eb5b90611193908690600401615c0d565b600060405180830381865af41580156111b0573d6000803e3d6000fd5b505050506040513d6000823e601f3d908101601f191682016040526111d89190810190614861565b90506111ec6104b4846020015160a0015190565b8251608001516001600160a01b03166352c631c861120f856020015160a0015190565b8684866040518563ffffffff1660e01b8152600401611230939291906151ff565b600060405180830381600088803b15801561124a57600080fd5b5087f19350505050801561125c575060015b610567577f6c475808d30c96d678f6f8be069a06808c8cfc432c08082dad5c45e9f87919ec848460405161055e929190615cf9565b6112a06101bd83516080015190565b6112a957505050565b60405163cb58eb5b60e01b815260009073__$e699bdc7034b9f834da4366fbe4e418c66$__9063cb58eb5b906112e3908690600401615c0d565b600060405180830381865af4158015611300573d6000803e3d6000fd5b505050506040513d6000823e601f3d908101601f191682016040526113289190810190614861565b905061133c6104b4846020015160a0015190565b8251608001516001600160a01b0316634658379c61135f856020015160a0015190565b8684866040518563ffffffff1660e01b8152600401611380939291906151ff565b600060405180830381600088803b15801561139a57600080fd5b5087f1935050505080156113ac575060015b610567577fb9898a5974aff894bdb0cc66a32cd9e69e00cd5122423a7beea199426ff19c80848460405161055e929190615cf9565b6113f06101bd83516060015190565b6113f957505050565b60405163163a46cd60e01b815260009073__$2cb2169b31257cc84fcd1b9a9c4c15efa9$__9063163a46cd906114339086906004016158ba565b600060405180830381865af4158015611450573d6000803e3d6000fd5b505050506040513d6000823e601f3d908101601f191682016040526114789190810190614861565b905061148c6104b4846020015160e0015190565b8251606001516001600160a01b031663d8bbbe426114af856020015160e0015190565b8684866040518563ffffffff1660e01b81526004016114d0939291906151ff565b600060405180830381600088803b1580156114ea57600080fd5b5087f1935050505080156114fc575060015b610567577fae6226bd5e7b59d8cef685e023de512bdfcb3c146f2be0a86484237f94e252f4848460405161055e9291906159af565b6115406101bd83516040015190565b61154957505050565b6040516384b29b5760e01b815260009073__$177448b54fb2cdec765bde6691f13c6dd4$__906384b29b5790611583908690600401613871565b600060405180830381865af41580156115a0573d6000803e3d6000fd5b505050506040513d6000823e601f3d908101601f191682016040526115c89190810190614861565b90506115dc6104b484602001516080015190565b8251604001516001600160a01b03166360bc514b6115ff85602001516080015190565b8684866040518563ffffffff1660e01b8152600401611620939291906151ff565b600060405180830381600088803b15801561163a57600080fd5b5087f19350505050801561164c575060015b610567577f24b81d467c346571d5b95fff6054842e6137fdd52e61966ce97f90eb8bf8d153848460405161055e929190615234565b600060405a6116909190615dc1565b61169b90603f615de3565b9050818110156116c8576040516379a2abad60e01b815260048101829052602481018390526044016103fb565b5050565b60006040516020016117099060208082526017908201527614d055915117d0d05313109050d2d7d0d3d395149050d5604a1b604082015260600190565b60408051601f198184030181528282528051602091820120908301526001600160a01b0380861691830191909152831660608201526080016040516020818303038152906040528051906020012090505b92915050565b6001600160a01b038116811461177557600080fd5b50565b6000806040838503121561178b57600080fd5b823561179681611760565b946020939093013593505050565b634e487b7160e01b600052604160045260246000fd5b60405160c081016001600160401b03811182821017156117dc576117dc6117a4565b60405290565b604080519081016001600160401b03811182821017156117dc576117dc6117a4565b60405160e081016001600160401b03811182821017156117dc576117dc6117a4565b604051606081016001600160401b03811182821017156117dc576117dc6117a4565b604051608081016001600160401b03811182821017156117dc576117dc6117a4565b60405161012081016001600160401b03811182821017156117dc576117dc6117a4565b60405161010081016001600160401b03811182821017156117dc576117dc6117a4565b60405161014081016001600160401b03811182821017156117dc576117dc6117a4565b60405161018081016001600160401b03811182821017156117dc576117dc6117a4565b604051601f8201601f191681016001600160401b038111828210171561191e5761191e6117a4565b604052919050565b803561193181611760565b919050565b600060c0828403121561194857600080fd5b6119506117ba565b9050813581526020820135602082015260408201356040820152606082013560608201526080820135608082015260a082013560a082015292915050565b60006001600160401b038211156119a7576119a76117a4565b5060051b60200190565b600082601f8301126119c257600080fd5b813560206119d76119d28361198e565b6118f6565b82815260059290921b840181019181810190868411156119f657600080fd5b8286015b84811015611a1157803583529183019183016119fa565b509695505050505050565b60006001600160401b03821115611a3557611a356117a4565b50601f01601f191660200190565b600082601f830112611a5457600080fd5b8135611a626119d282611a1c565b818152846020838601011115611a7757600080fd5b816020850160208301376000918101602001919091529392505050565b600082601f830112611aa557600080fd5b81356020611ab56119d28361198e565b82815260059290921b84018101918181019086841115611ad457600080fd5b8286015b84811015611a11578035611aeb81611760565b8352918301918301611ad8565b600082601f830112611b0957600080fd5b81356020611b196119d28361198e565b82815260059290921b84018101918181019086841115611b3857600080fd5b8286015b84811015611a115780356001600160401b0380821115611b5c5760008081fd5b908801906040828b03601f1901811315611b765760008081fd5b611b7e6117e2565b8784013583811115611b905760008081fd5b611b9e8d8a83880101611a43565b825250908301359082821115611bb45760008081fd5b611bc28c8984870101611a94565b818901528652505050918301918301611b3c565b60006040808385031215611be957600080fd5b611bf16117e2565b915082356001600160401b0380821115611c0a57600080fd5b818501915085601f830112611c1e57600080fd5b81356020611c2e6119d28361198e565b82815260059290921b84018101918181019089841115611c4d57600080fd5b8286015b84811015611ccc57803586811115611c695760008081fd5b8701808c03601f1901891315611c7f5760008081fd5b611c876117e2565b8582013588811115611c995760008081fd5b611ca78e8883860101611a43565b8252509089013590611cb882611760565b808601919091528352918301918301611c51565b5087525086810135945082851115611ce357600080fd5b611cef88868901611af8565b81870152505050505092915050565b600082601f830112611d0f57600080fd5b81356020611d1f6119d28361198e565b828152600592831b8501820192828201919087851115611d3e57600080fd5b8387015b85811015611e335780356001600160401b0380821115611d625760008081fd5b908901906040828c03601f1901811315611d7c5760008081fd5b611d846117e2565b8884013583811115611d965760008081fd5b611da48e8b83880101611a43565b8252508184013583811115611db95760008081fd5b8085019450508c603f850112611dd157600092508283fd5b888401359250611de36119d28461198e565b83815292861b8401820192898101908e851115611e005760008081fd5b948301945b84861015611e1e5785358252948a0194908a0190611e05565b828b0152508752505050928401928401611d42565b5090979650505050505050565b60006040808385031215611e5357600080fd5b611e5b6117e2565b915082356001600160401b0380821115611e7457600080fd5b818501915085601f830112611e8857600080fd5b81356020611e986119d28361198e565b82815260059290921b84018101918181019089841115611eb757600080fd5b8286015b84811015611f2957803586811115611ed35760008081fd5b8701808c03601f1901891315611ee95760008081fd5b611ef16117e2565b8582013588811115611f035760008081fd5b611f118e8883860101611a43565b82525090890135858201528352918301918301611ebb565b5087525086810135945082851115611f4057600080fd5b611cef88868901611cfe565b600082601f830112611f5d57600080fd5b81356020611f6d6119d28361198e565b828152600592831b8501820192828201919087851115611f8c57600080fd5b8387015b85811015611e335780356001600160401b0380821115611fb05760008081fd5b908901906040828c03601f1901811315611fca5760008081fd5b611fd26117e2565b8884013583811115611fe45760008081fd5b611ff28e8b83880101611a43565b82525081840135838111156120075760008081fd5b8085019450508c603f85011261201f57600092508283fd5b8884013592506120316119d28461198e565b83815292861b8401820192898101908e85111561204e5760008081fd5b948301945b8486101561206c5785358252948a0194908a0190612053565b828b0152508752505050928401928401611f90565b6000604080838503121561209457600080fd5b61209c6117e2565b915082356001600160401b03808211156120b557600080fd5b818501915085601f8301126120c957600080fd5b813560206120d96119d28361198e565b82815260059290921b840181019181810190898411156120f857600080fd5b8286015b8481101561216a578035868111156121145760008081fd5b8701808c03601f190189131561212a5760008081fd5b6121326117e2565b85820135888111156121445760008081fd5b6121528e8883860101611a43565b825250908901358582015283529183019183016120fc565b508752508681013594508285111561218157600080fd5b611cef88868901611f4c565b801515811461177557600080fd5b600082601f8301126121ac57600080fd5b813560206121bc6119d28361198e565b828152600592831b85018201928282019190878511156121db57600080fd5b8387015b85811015611e335780356001600160401b03808211156121ff5760008081fd5b908901906040828c03601f19018113156122195760008081fd5b6122216117e2565b88840135838111156122335760008081fd5b6122418e8b83880101611a43565b82525081840135838111156122565760008081fd5b8085019450508c603f85011261226e57600092508283fd5b8884013592506122806119d28461198e565b83815292861b8401820192898101908e85111561229d5760008081fd5b948301945b848610156122c757853593506122b78461218d565b838252948a0194908a01906122a2565b828b01525087525050509284019284016121df565b600060408083850312156122ef57600080fd5b6122f76117e2565b915082356001600160401b038082111561231057600080fd5b818501915085601f83011261232457600080fd5b813560206123346119d28361198e565b82815260059290921b8401810191818101908984111561235357600080fd5b8286015b848110156123d25780358681111561236f5760008081fd5b8701808c03601f19018913156123855760008081fd5b61238d6117e2565b858201358881111561239f5760008081fd5b6123ad8e8883860101611a43565b82525090890135906123be8261218d565b808601919091528352918301918301612357565b50875250868101359450828511156123e957600080fd5b611cef8886890161219b565b600082601f83011261240657600080fd5b813560206124166119d28361198e565b82815260059290921b8401810191818101908684111561243557600080fd5b8286015b84811015611a115780356001600160401b03808211156124595760008081fd5b908801906040828b03601f19018113156124735760008081fd5b61247b6117e2565b878401358381111561248d5760008081fd5b61249b8d8a83880101611a43565b8252509083013590828211156124b15760008081fd5b6124bf8c89848701016119b1565b818901528652505050918301918301612439565b600060408083850312156124e657600080fd5b6124ee6117e2565b915082356001600160401b038082111561250757600080fd5b818501915085601f83011261251b57600080fd5b8135602061252b6119d28361198e565b82815260059290921b8401810191818101908984111561254a57600080fd5b8286015b848110156125bc578035868111156125665760008081fd5b8701808c03601f190189131561257c5760008081fd5b6125846117e2565b85820135888111156125965760008081fd5b6125a48e8883860101611a43565b8252509089013585820152835291830191830161254e565b50875250868101359450828511156125d357600080fd5b611cef888689016123f5565b600082601f8301126125f057600080fd5b813560206126006119d28361198e565b82815260059290921b8401810191818101908684111561261f57600080fd5b8286015b84811015611a11576001600160401b03813581101561264157600080fd5b813588016040818b03601f1901121561265957600080fd5b6126616117e2565b868201358381111561267257600080fd5b6126808c8983860101611a43565b82525060408201358381111561269557600080fd5b8083019250508a603f8301126126aa57600080fd5b868201356126ba6119d28261198e565b81815260059190911b830160400190888101908d8311156126da57600080fd5b604085015b838110156127125786813511156126f557600080fd5b6127058f60408335890101611a43565b8352918a01918a016126df565b50838a0152505085525050918301918301612623565b6000604080838503121561273b57600080fd5b6127436117e2565b915082356001600160401b038082111561275c57600080fd5b818501915085601f83011261277057600080fd5b813560206127806119d28361198e565b82815260059290921b8401810191818101908984111561279f57600080fd5b8286015b8481101561282f578035868111156127bb5760008081fd5b8701808c03601f19018913156127d15760008081fd5b6127d96117e2565b85820135888111156127eb5760008081fd5b6127f98e8883860101611a43565b825250898201358881111561280e5760008081fd5b61281c8e8883860101611a43565b82880152508452509183019183016127a3565b508752508681013594508285111561284657600080fd5b611cef888689016125df565b600082601f83011261286357600080fd5b813560206128736119d28361198e565b82815260059290921b8401810191818101908684111561289257600080fd5b8286015b84811015611a11576001600160401b0381358110156128b457600080fd5b813588016040818b03601f190112156128cc57600080fd5b6128d46117e2565b86820135838111156128e557600080fd5b6128f38c8983860101611a43565b82525060408201358381111561290857600080fd5b8083019250508a603f83011261291d57600080fd5b8682013561292d6119d28261198e565b81815260059190911b830160400190888101908d83111561294d57600080fd5b604085015b8381101561298557868135111561296857600080fd5b6129788f60408335890101611a43565b8352918a01918a01612952565b50838a0152505085525050918301918301612896565b600060408083850312156129ae57600080fd5b6129b66117e2565b915082356001600160401b03808211156129cf57600080fd5b818501915085601f8301126129e357600080fd5b813560206129f36119d28361198e565b82815260059290921b84018101918181019089841115612a1257600080fd5b8286015b84811015612aa257803586811115612a2e5760008081fd5b8701808c03601f1901891315612a445760008081fd5b612a4c6117e2565b8582013588811115612a5e5760008081fd5b612a6c8e8883860101611a43565b8252508982013588811115612a815760008081fd5b612a8f8e8883860101611a43565b8288015250845250918301918301612a16565b5087525086810135945082851115612ab957600080fd5b611cef88868901612852565b600060e08284031215612ad757600080fd5b612adf611804565b905081356001600160401b0380821115612af857600080fd5b612b0485838601611bd6565b83526020840135915080821115612b1a57600080fd5b612b2685838601611e40565b60208401526040840135915080821115612b3f57600080fd5b612b4b85838601612081565b60408401526060840135915080821115612b6457600080fd5b612b70858386016122dc565b60608401526080840135915080821115612b8957600080fd5b612b95858386016124d3565b608084015260a0840135915080821115612bae57600080fd5b612bba85838601612728565b60a084015260c0840135915080821115612bd357600080fd5b50612be08482850161299b565b60c08301525092915050565b600080600060608486031215612c0157600080fd5b8335925060208401356001600160401b0380821115612c1f57600080fd5b908501908187036101a0811215612c3557600080fd5b612c3d611826565b60c0821215612c4b57600080fd5b612c536117ba565b91508335612c6081611760565b82526020840135612c7081611760565b60208301526040840135612c8381611760565b60408301526060840135612c9681611760565b60608301526080840135612ca981611760565b608083015260a0840135612cbc81611760565b60a0830152818152612cd18960c08601611936565b6020820152610180840135915082821115612ceb57600080fd5b612cf7898386016119b1565b604082015280955050506040860135915080821115612d1557600080fd5b50612d2286828701612ac5565b9150509250925092565b600060e08284031215612d3e57600080fd5b612d46611804565b9050813581526020820135602082015260408201356040820152606082013560608201526080820135608082015260a082013560a082015260c082013560c082015292915050565b600060208284031215612da057600080fd5b604051602081016001600160401b0381118282101715612dc257612dc26117a4565b6040529050808235612dd38161218d565b905292915050565b600080600060608486031215612df057600080fd5b8335925060208401356001600160401b0380821115612e0e57600080fd5b908501906101408288031215612e2357600080fd5b612e2b611848565b823582811115612e3a57600080fd5b8301610120818a03811315612e4e57600080fd5b612e5661186a565b612e5f83611926565b8152612e6d60208401611926565b6020820152612e7e60408401611926565b6040820152612e8f60608401611926565b6060820152612ea060808401611926565b6080820152612eb160a08401611926565b60a0820152612ec260c08401611926565b60c082015260e083013585811115612ed957600080fd5b612ee58c828601611a94565b60e0830152506101008084013586811115612eff57600080fd5b612f0b8d828701611a94565b8284015250818552612f208c60208901612d2c565b6020860152612f318c828901612d8e565b60408601525050840135905082811115612f4a57600080fd5b612f56898286016119b1565b60608301525093506040860135915080821115612d1557600080fd5b60006101008284031215612f8557600080fd5b612f8d61188d565b9050813581526020820135602082015260408201356040820152606082013560608201526080820135608082015260a082013560a082015260c082013560c082015260e082013560e082015292915050565b600060408284031215612ff157600080fd5b612ff96117e2565b905081356130068161218d565b815260208201356130168161218d565b602082015292915050565b60008060006060848603121561303657600080fd5b8335925060208401356001600160401b038082111561305457600080fd5b90850190610180828803121561306957600080fd5b613071611848565b82358281111561308057600080fd5b8301610140818a03121561309357600080fd5b61309b6118b0565b6130a482611926565b81526130b260208301611926565b60208201526130c360408301611926565b60408201526130d460608301611926565b60608201526130e560808301611926565b60808201526130f660a08301611926565b60a082015261310760c08301611926565b60c082015261311860e08301611926565b60e0820152610100808301358581111561313157600080fd5b61313d8c828601611a94565b828401525050610120808301358581111561315757600080fd5b6131638c828601611a94565b82840152508184526131788b60208801612f72565b60208501526131898b828801612fdf565b604085015250505061016083013582811115612f4a57600080fd5b80356009811061193157600080fd5b80356003811061193157600080fd5b600061018082840312156131d557600080fd5b6131dd6118d3565b90506131e8826131a4565b81526131f6602083016131b3565b602082015260408201356040820152606082013560608201526080820135608082015260a082013560a082015260c082013560c082015260e082013560e082015261010080830135818301525061012080830135818301525061014080830135818301525061016080830135818301525092915050565b60006080828403121561327f57600080fd5b613287611848565b905081356132948161218d565b815260208201356132a48161218d565b602082015260408201356132b78161218d565b604082015260608201356132ca8161218d565b606082015292915050565b6000806000606084860312156132ea57600080fd5b8335925060208401356001600160401b038082111561330857600080fd5b90850190610240828803121561331d57600080fd5b613325611848565b82358281111561333457600080fd5b8301610100818a03121561334757600080fd5b61334f61188d565b61335882611926565b815261336660208301611926565b602082015261337760408301611926565b604082015261338860608301611926565b606082015261339960808301611926565b60808201526133aa60a08301611926565b60a08201526133bb60c08301611926565b60c082015260e0820135848111156133d257600080fd5b6133de8b828501611a94565b60e0830152508252506133f488602085016131c2565b6020820152613407886101a0850161326d565b604082015261022083013582811115612f4a57600080fd5b60008060006060848603121561343457600080fd5b833561343f81611760565b9250602084013561344f81611760565b9150604084013561345f81611760565b809150509250925092565b6001600160a01b03169052565b60006020828403121561348957600080fd5b81356109dc81611760565b6000806000606084860312156134a957600080fd5b8335925060208401356001600160401b03808211156134c757600080fd5b9085019061014082880312156134dc57600080fd5b6134e4611848565b8235828111156134f357600080fd5b830160e0818a03121561350557600080fd5b61350d611804565b61351682611926565b815261352460208301611926565b602082015261353560408301611926565b604082015261354660608301611926565b606082015261355760808301611926565b608082015260a08201358481111561356e57600080fd5b61357a8b828501611a94565b60a08301525060c08201358481111561359257600080fd5b61359e8b828501611a94565b60c0830152508252506135b48860208501612d2c565b60208201526135c7886101008501612d8e565b604082015261012083013582811115612f4a57600080fd5b600080600080608085870312156135f557600080fd5b843561360081611760565b9350602085013561361081611760565b9250604085013561362081611760565b9150606085013561363081611760565b939692955090935050565b60008060006060848603121561365057600080fd5b8335925060208401356001600160401b038082111561366e57600080fd5b90850190610140828803121561368357600080fd5b61368b611848565b82358281111561369a57600080fd5b8301610100818a038113156136ae57600080fd5b6136b661188d565b6136bf83611926565b81526136cd60208401611926565b60208201526136de60408401611926565b60408201526136ef60608401611926565b606082015261370060808401611926565b608082015261371160a08401611926565b60a082015260c08301358581111561372857600080fd5b6137348c828601611a94565b60c08301525060e08301358581111561374c57600080fd5b6137588c828601611a94565b60e083015250835261376d8a60208701612d2c565b602084015261377e8a828701612d8e565b6040840152505061012083013582811115612f4a57600080fd5b6000602082840312156137aa57600080fd5b5051919050565b80516001600160a01b03908116835260208083015182169084015260408083015182169084015260608083015182169084015260808083015182169084015260a09182015116910152565b805182526020810151602083015260408101516040830152606081015160608301526080810151608083015260a081015160a08301525050565b600081518084526020808501945080840160005b838110156138665781518752958201959082019060010161384a565b509495945050505050565b602081526138836020820183516137b1565b6000602083015161389760e08401826137fc565b5060408301516101a0838101526138b26101c0840182613836565b949350505050565b60005b838110156138d55781810151838201526020016138bd565b50506000910152565b600082601f8301126138ef57600080fd5b81516138fd6119d282611a1c565b81815284602083860101111561391257600080fd5b6138b28260208301602087016138ba565b600082601f83011261393457600080fd5b815160206139446119d28361198e565b828152600592831b850182019282820191908785111561396357600080fd5b8387015b85811015611e335780516001600160401b03808211156139875760008081fd5b908901906040828c03601f19018113156139a15760008081fd5b6139a96117e2565b88840151838111156139bb5760008081fd5b6139c98e8b838801016138de565b82525081840151838111156139de5760008081fd5b8085019450508c603f8501126139f657600092508283fd5b888401519250613a086119d28461198e565b83815292861b8401820192898101908e851115613a255760008081fd5b948301945b84861015613a4f5785519350613a3f84611760565b838252948a0194908a0190613a2a565b828b0152508752505050928401928401613967565b60006040808385031215613a7757600080fd5b613a7f6117e2565b83519092506001600160401b0380821115613a9957600080fd5b818501915085601f830112613aad57600080fd5b81516020613abd6119d28361198e565b82815260059290921b84018101918181019089841115613adc57600080fd5b8286015b84811015613b5b57805186811115613af85760008081fd5b8701808c03601f1901891315613b0e5760008081fd5b613b166117e2565b8582015188811115613b285760008081fd5b613b368e88838601016138de565b8252509089015190613b4782611760565b808601919091528352918301918301613ae0565b5087525086810151945082851115613b7257600080fd5b611cef88868901613923565b600082601f830112613b8f57600080fd5b81516020613b9f6119d28361198e565b828152600592831b8501820192828201919087851115613bbe57600080fd5b8387015b85811015611e335780516001600160401b0380821115613be25760008081fd5b908901906040828c03601f1901811315613bfc5760008081fd5b613c046117e2565b8884015183811115613c165760008081fd5b613c248e8b838801016138de565b8252508184015183811115613c395760008081fd5b8085019450508c603f850112613c5157600092508283fd5b888401519250613c636119d28461198e565b83815292861b8401820192898101908e851115613c805760008081fd5b948301945b84861015613c9e5785518252948a0194908a0190613c85565b828b0152508752505050928401928401613bc2565b60006040808385031215613cc657600080fd5b613cce6117e2565b83519092506001600160401b0380821115613ce857600080fd5b818501915085601f830112613cfc57600080fd5b81516020613d0c6119d28361198e565b82815260059290921b84018101918181019089841115613d2b57600080fd5b8286015b84811015613d9d57805186811115613d475760008081fd5b8701808c03601f1901891315613d5d5760008081fd5b613d656117e2565b8582015188811115613d775760008081fd5b613d858e88838601016138de565b82525090890151858201528352918301918301613d2f565b5087525086810151945082851115613db457600080fd5b611cef88868901613b7e565b600082601f830112613dd157600080fd5b81516020613de16119d28361198e565b828152600592831b8501820192828201919087851115613e0057600080fd5b8387015b85811015611e335780516001600160401b0380821115613e245760008081fd5b908901906040828c03601f1901811315613e3e5760008081fd5b613e466117e2565b8884015183811115613e585760008081fd5b613e668e8b838801016138de565b8252508184015183811115613e7b5760008081fd5b8085019450508c603f850112613e9357600092508283fd5b888401519250613ea56119d28461198e565b83815292861b8401820192898101908e851115613ec25760008081fd5b948301945b84861015613ee05785518252948a0194908a0190613ec7565b828b0152508752505050928401928401613e04565b60006040808385031215613f0857600080fd5b613f106117e2565b83519092506001600160401b0380821115613f2a57600080fd5b818501915085601f830112613f3e57600080fd5b81516020613f4e6119d28361198e565b82815260059290921b84018101918181019089841115613f6d57600080fd5b8286015b84811015613fdf57805186811115613f895760008081fd5b8701808c03601f1901891315613f9f5760008081fd5b613fa76117e2565b8582015188811115613fb95760008081fd5b613fc78e88838601016138de565b82525090890151858201528352918301918301613f71565b5087525086810151945082851115613ff657600080fd5b611cef88868901613dc0565b600082601f83011261401357600080fd5b815160206140236119d28361198e565b828152600592831b850182019282820191908785111561404257600080fd5b8387015b85811015611e335780516001600160401b03808211156140665760008081fd5b908901906040828c03601f19018113156140805760008081fd5b6140886117e2565b888401518381111561409a5760008081fd5b6140a88e8b838801016138de565b82525081840151838111156140bd5760008081fd5b8085019450508c603f8501126140d557600092508283fd5b8884015192506140e76119d28461198e565b83815292861b8401820192898101908e8511156141045760008081fd5b948301945b8486101561412e578551935061411e8461218d565b838252948a0194908a0190614109565b828b0152508752505050928401928401614046565b6000604080838503121561415657600080fd5b61415e6117e2565b83519092506001600160401b038082111561417857600080fd5b818501915085601f83011261418c57600080fd5b8151602061419c6119d28361198e565b82815260059290921b840181019181810190898411156141bb57600080fd5b8286015b8481101561423a578051868111156141d75760008081fd5b8701808c03601f19018913156141ed5760008081fd5b6141f56117e2565b85820151888111156142075760008081fd5b6142158e88838601016138de565b82525090890151906142268261218d565b8086019190915283529183019183016141bf565b508752508681015194508285111561425157600080fd5b611cef88868901614002565b6000604080838503121561427057600080fd5b6142786117e2565b83519092506001600160401b038082111561429257600080fd5b818501915085601f8301126142a657600080fd5b815160206142b66119d28361198e565b82815260059290921b840181019181810190898411156142d557600080fd5b8286015b84811015613fdf578051868111156142f15760008081fd5b8701808c03601f19018913156143075760008081fd5b61430f6117e2565b85820151888111156143215760008081fd5b61432f8e88838601016138de565b825250908901518582015283529183019183016142d9565b600082601f83011261435857600080fd5b81516143666119d28261198e565b8082825260208201915060208360051b86010192508583111561438857600080fd5b602085015b838110156144a45780516001600160401b03808211156143ac57600080fd5b908701906040828a03601f190112156143c457600080fd5b6143cc6117e2565b6020830151828111156143de57600080fd5b6143ed8b6020838701016138de565b82525060408301518281111561440257600080fd5b80840193505089603f84011261441757600080fd5b60208301516144286119d28261198e565b81815260059190911b84016040019060208101908c83111561444957600080fd5b604086015b838110156144835780518681111561446557600080fd5b6144748f6040838b01016138de565b8452506020928301920161444e565b5080602085015250505080865250505060208301925060208101905061438d565b5095945050505050565b600060408083850312156144c157600080fd5b6144c96117e2565b83519092506001600160401b03808211156144e357600080fd5b818501915085601f8301126144f757600080fd5b815160206145076119d28361198e565b82815260059290921b8401810191818101908984111561452657600080fd5b8286015b848110156145b6578051868111156145425760008081fd5b8701808c03601f19018913156145585760008081fd5b6145606117e2565b85820151888111156145725760008081fd5b6145808e88838601016138de565b82525089820151888111156145955760008081fd5b6145a38e88838601016138de565b828801525084525091830191830161452a565b50875250868101519450828511156145cd57600080fd5b611cef88868901614347565b600082601f8301126145ea57600080fd5b81516145f86119d28261198e565b8082825260208201915060208360051b86010192508583111561461a57600080fd5b602085015b838110156144a45780516001600160401b038082111561463e57600080fd5b908701906040828a03601f1901121561465657600080fd5b61465e6117e2565b60208301518281111561467057600080fd5b61467f8b6020838701016138de565b82525060408301518281111561469457600080fd5b80840193505089603f8401126146a957600080fd5b60208301516146ba6119d28261198e565b81815260059190911b84016040019060208101908c8311156146db57600080fd5b604086015b83811015614715578051868111156146f757600080fd5b6147068f6040838b01016138de565b845250602092830192016146e0565b5080602085015250505080865250505060208301925060208101905061461f565b6000604080838503121561474957600080fd5b6147516117e2565b83519092506001600160401b038082111561476b57600080fd5b818501915085601f83011261477f57600080fd5b8151602061478f6119d28361198e565b82815260059290921b840181019181810190898411156147ae57600080fd5b8286015b8481101561483e578051868111156147ca5760008081fd5b8701808c03601f19018913156147e05760008081fd5b6147e86117e2565b85820151888111156147fa5760008081fd5b6148088e88838601016138de565b825250898201518881111561481d5760008081fd5b61482b8e88838601016138de565b82880152508452509183019183016147b2565b508752508681015194508285111561485557600080fd5b611cef888689016145d9565b60006020828403121561487357600080fd5b81516001600160401b038082111561488a57600080fd5b9083019060e0828603121561489e57600080fd5b6148a6611804565b8251828111156148b557600080fd5b6148c187828601613a64565b8252506020830151828111156148d657600080fd5b6148e287828601613cb3565b6020830152506040830151828111156148fa57600080fd5b61490687828601613ef5565b60408301525060608301518281111561491e57600080fd5b61492a87828601614143565b60608301525060808301518281111561494257600080fd5b61494e8782860161425d565b60808301525060a08301518281111561496657600080fd5b614972878286016144ae565b60a08301525060c08301518281111561498a57600080fd5b61499687828601614736565b60c08301525095945050505050565b600081518084526149bd8160208601602086016138ba565b601f01601f19169290920160200192915050565b600081518084526020808501945080840160005b838110156138665781516001600160a01b0316875295820195908201906001016149e5565b600081518084526020808501808196508360051b8101915082860160005b85811015614a78578284038952815160408151818752614a4a828801826149a5565b91505086820151915085810387870152614a6481836149d1565b9a87019a9550505090840190600101614a28565b5091979650505050505050565b60006040808401835182865281815180845260608801915060608160051b89010193506020808401935060005b82811015614afc57898603605f1901845284518051888852614ad6898901826149a5565b918401516001600160a01b03169784019790975295509381019392810192600101614ab2565b50808801519550888503818a015250505050614b188183614a0a565b95945050505050565b600081518084526020808501808196508360051b810191508286016000805b86811015614bb3578385038a52825160408151818852614b62828901826149a5565b92890151888403898b01528051808552908a01938693508a0191505b80831015614b9e5783518252928901926001929092019190890190614b7e565b509b88019b9650505091850191600101614b40565b509298975050505050505050565b60006040808401835182865281815180845260608801915060608160051b89010193506020808401935060005b82811015614c2f57898603605f1901845284518051888852614c12898901826149a5565b918401519784019790975295509381019392810192600101614bee565b50808801519550888503818a015250505050614b188183614b21565b600081518084526020808501808196508360051b810191508286016000805b86811015614bb3578385038a52825160408151818852614c8c828901826149a5565b92890151888403898b01528051808552908a01938693508a0191505b80831015614cc85783518252928901926001929092019190890190614ca8565b509b88019b9650505091850191600101614c6a565b60006040808401835182865281815180845260608801915060608160051b89010193506020808401935060005b82811015614d4b57898603605f1901845284518051888852614d2e898901826149a5565b918401519784019790975295509381019392810192600101614d0a565b50808801519550888503818a015250505050614b188183614c4b565b600081518084526020808501808196508360051b810191508286016000805b86811015614bb3578385038a52825160408151818852614da8828901826149a5565b92890151888403898b01528051808552908a01938693508a0191505b80831015614de657835115158252928901926001929092019190890190614dc4565b509b88019b9650505091850191600101614d86565b60006040808401835182865281815180845260608801915060608160051b89010193506020808401935060005b82811015614e6b57898603605f1901845284518051888852614e4c898901826149a5565b9184015115159784019790975295509381019392810192600101614e28565b50808801519550888503818a015250505050614b188183614d67565b600081518084526020808501808196508360051b8101915082860160005b85811015614a78578284038952815160408151818752614ec7828801826149a5565b91505086820151915085810387870152614ee18183613836565b9a87019a9550505090840190600101614ea5565b60006040808401835182865281815180845260608801915060608160051b89010193506020808401935060005b82811015614f6357898603605f1901845284518051888852614f46898901826149a5565b918401519784019790975295509381019392810192600101614f22565b50808801519550888503818a015250505050614b188183614e87565b600081518084526020808501808196506005915083821b81018387016000805b8781101561502a578484038b52825160408151818752614fc1828801826149a5565b928a0151878403888c01528051808552908b019392508a83019150808a1b83018b01865b8281101561501357601f198583030184526150018287516149a5565b958d0195938d01939150600101614fe5565b509e8b019e97505050938801935050600101614f9f565b50919998505050505050505050565b60006040808401835182865281815180845260608801915060608160051b89010193506020808401935060005b828110156150b657898603605f190184528451805188885261508a898901826149a5565b91840151888303898601529190506150a281836149a5565b975050509381019392810192600101615066565b50808801519550888503818a015250505050614b188183614f7f565b60006040808401835182865281815180845260608801915060608160051b89010193506020808401935060005b828110156150b657898603605f1901845284518051888852615123898901826149a5565b918401518883038986015291905061513b81836149a5565b9750505093810193928101926001016150ff565b6000815160e0845261516460e0850182614a85565b90506020830151848203602086015261517d8282614bc1565b915050604083015184820360408601526151978282614cdd565b915050606083015184820360608601526151b18282614dfb565b915050608083015184820360808601526151cb8282614ef5565b91505060a083015184820360a08601526151e58282615039565b91505060c083015184820360c0860152614b1882826150d2565b838152606060208201526000615218606083018561514f565b828103604084015261522a818561514f565b9695505050505050565b8281526040602082015261524c6040820183516137b1565b600060208301516152616101008401826137fc565b5060408301516101a06101c0840152614b186101e0840182613836565b805182526020810151602083015260408101516040830152606081015160608301526080810151608083015260a081015160a083015260c081015160c08301525050565b634e487b7160e01b600052602160045260246000fd5b600381106152e8576152e86152c2565b9052565b604081526000835161014080604085015261530c6101808501835161346a565b602082015161531f6101a086018261346a565b5060408201516153336101c086018261346a565b5060608201516153476101e086018261346a565b50608082015161535b61020086018261346a565b5060a082015161536f61022086018261346a565b5060c082015161538361024086018261346a565b5060e08201516101206102608601526153a06102a08601826149d1565b9050610100830151925061017f19858203016102808601526153c281846149d1565b92505060208601516153d7606086018261527e565b506040860151511515908401526060850151603f19848303016101608501526154008282613836565b925050506109dc60208301846152d8565b82815260406020820152600082516101408060408501526154376101808501835161346a565b602082015161544a6101a086018261346a565b50604082015161545e6101c086018261346a565b5060608201516154726101e086018261346a565b50608082015161548661020086018261346a565b5060a082015161549a61022086018261346a565b5060c08201516154ae61024086018261346a565b5060e08201516101206102608601526154cb6102a08601826149d1565b9050610100830151925061017f19858203016102808601526154ed81846149d1565b9250506020850151615502606086018261527e565b506040850151511515908401526060840151603f198483030161016085015261522a8282613836565b805182526020810151602083015260408101516040830152606081015160608301526080810151608083015260a081015160a083015260c081015160c083015260e081015160e08301525050565b60208152600082516101808060208501526155996101a08501835161346a565b60208201516155ac6101c086018261346a565b5060408201516155c06101e086018261346a565b5060608201516155d461020086018261346a565b5060808201516155e861022086018261346a565b5060a08201516155fc61024086018261346a565b5060c082015161561061026086018261346a565b5060e082015161562461028086018261346a565b50610100820151610140806102a08701526156436102e08701836149d1565b9150610120840151935061019f19868303016102c087015261566582856149d1565b93506020870151915061567b604087018361552b565b6040870151915061569c818701838051151582526020908101511515910152565b50506060850151848303601f19018286015261522a8382613836565b828152604060208201526000825161018060408401526156dd6101c08401825161346a565b60208101516156f06101e085018261346a565b50604081015161570461020085018261346a565b50606081015161571861022085018261346a565b50608081015161572c61024085018261346a565b5060a081015161574061026085018261346a565b5060c081015161575461028085018261346a565b5060e08101516157686102a085018261346a565b506101008101516101406102c08501526157866103008501826149d1565b905061012082015191506101bf19848203016102e08501526157a881836149d1565b91505060208401516157bd606085018261552b565b506040840151805115156101608501526020015115156101808401526060840151603f19848303016101a085015261522a8282613836565b600981106152e8576152e86152c2565b6158108282516157f5565b602081015161582260208401826152d8565b5060408181015190830152606080820151908301526080808201519083015260a0808201519083015260c0808201519083015260e0808201519083015261010080820151908301526101208082015190830152610140808201519083015261016090810151910152565b8051151582526020810151151560208301526040810151151560408301526060810151151560608301525050565b602081526000825161024080602085015260018060a01b0380835116610260860152806020840151166102808601525060408201516158fd6102a086018261346a565b5060608201516159116102c086018261346a565b5060808201516159256102e086018261346a565b5060a082015161593961030086018261346a565b5060c082015161594d61032086018261346a565b5060e0820151915061010061034085015261596c6103608501836149d1565b915060208501516159806040860182615805565b5060408501516159946101c086018261588c565b506060850151848303601f19018286015261522a8382613836565b8281526040602082015260008251610240604084015260018060a01b0380825116610280850152806020830151166102a08501525060408101516159f76102c085018261346a565b506060810151615a0b6102e085018261346a565b506080810151615a1f61030085018261346a565b5060a0810151615a3361032085018261346a565b5060c0810151615a4761034085018261346a565b5060e00151610100610360840152615a636103808401826149d1565b90506020840151615a776060850182615805565b506040840151615a8b6101e085018261588c565b506060840151838203603f190161026085015261522a8282613836565b600060208284031215615aba57600080fd5b81516109dc81611760565b604081526000835161014080604085015260018060a01b0380835116610180860152806020840151166101a0860152806040840151166101c0860152506060820151615b156101e086018261346a565b506080820151615b2961020086018261346a565b5060a082015160e0610220860152615b456102608601826149d1565b905060c0830151925061017f19858203016102408601526153c281846149d1565b828152604060208201526000825161014080604085015260018060a01b0380835116610180860152806020840151166101a0860152806040840151166101c0860152506060820151615bbc6101e086018261346a565b506080820151615bd061020086018261346a565b5060a082015160e0610220860152615bec6102608601826149d1565b905060c0830151925061017f19858203016102408601526154ed81846149d1565b602081526000825161014080602085015260018060a01b038251166101608501526020820151615c4161018086018261346a565b506040820151615c556101a086018261346a565b506060820151615c696101c086018261346a565b506080820151615c7d6101e086018261346a565b5060a0820151615c9161020086018261346a565b5060c0820151610100610220860152615cae6102608601826149d1565b905060e0830151925061015f1985820301610240860152615ccf81846149d1565b9250506020850151615ce4604086018261527e565b50604085015180511515610120860152615994565b828152604060208201526000825161014080604085015260018060a01b038251166101808501526020820151615d336101a086018261346a565b506040820151615d476101c086018261346a565b506060820151615d5b6101e086018261346a565b506080820151615d6f61020086018261346a565b5060a0820151615d8361022086018261346a565b5060c0820151610100610240860152615da06102808601826149d1565b905060e0830151925061017f19858203016102608601526154ed81846149d1565b600082615dde57634e487b7160e01b600052601260045260246000fd5b500490565b808202811582820484141761175a57634e487b7160e01b600052601160045260246000fdfea264697066735822122023332ee9daea5fb726eac723a33093c5c186757b784507c362effd47161f6ba964736f6c63430008140033",
  "libraries": {
    "GlvDepositEventUtils": "0x35a9a0ee125bB482A348A6a0de5A63103c2bBD08",
    "GlvWithdrawalEventUtils": "0x965bC814F574F27903f5fbe0a0870bd05D8dDEb1",
    "OrderEventUtils": "0x1137f156b71F1E887AF137fc613E16ADdC16f17D",
    "WithdrawalEventUtils": "0x96146e12928edb1dF8b81618103457bd085F52Fa",
    "DepositEventUtils": "0xecAA260C2F41EAf2D175D65E57dd26a284129fE8",
    "ShiftEventUtils": "0xc044B0b4C8530A7c6D2EF5B4EefDA927391aA4d9"
  },
  "devdoc": {
    "kind": "dev",
    "methods": {},
    "version": 1
  },
  "userdoc": {
    "kind": "user",
    "methods": {},
    "version": 1
  },
  "storageLayout": {
    "storage": [],
    "types": null
  }
}