{
  "address": "0x96FE82b9C6FE46af537cE465B3befBD7b076C982",
  "abi": [
    {
      "inputs": [
        {
          "internalType": "contract RoleStore",
          "name": "_roleStore",
          "type": "address"
        },
        {
          "internalType": "contract DataStore",
          "name": "_dataStore",
          "type": "address"
        },
        {
          "internalType": "contract EventEmitter",
          "name": "_eventEmitter",
          "type": "address"
        },
        {
          "internalType": "contract ClaimVault",
          "name": "_claimVault",
          "type": "address"
        }
      ],
      "stateMutability": "nonpayable",
      "type": "constructor"
    },
    {
      "inputs": [
        {
          "internalType": "bytes32",
          "name": "key",
          "type": "bytes32"
        }
      ],
      "name": "DisabledFeature",
      "type": "error"
    },
    {
      "inputs": [
        {
          "internalType": "uint256",
          "name": "existingDistributionId",
          "type": "uint256"
        }
      ],
      "name": "DuplicateClaimTerms",
      "type": "error"
    },
    {
      "inputs": [],
      "name": "EmptyAccount",
      "type": "error"
    },
    {
      "inputs": [],
      "name": "EmptyAmount",
      "type": "error"
    },
    {
      "inputs": [
        {
          "internalType": "address",
          "name": "token",
          "type": "address"
        }
      ],
      "name": "EmptyClaimableAmount",
      "type": "error"
    },
    {
      "inputs": [],
      "name": "EmptyReceiver",
      "type": "error"
    },
    {
      "inputs": [],
      "name": "EmptyToken",
      "type": "error"
    },
    {
      "inputs": [
        {
          "internalType": "address",
          "name": "token",
          "type": "address"
        }
      ],
      "name": "InsufficientFunds",
      "type": "error"
    },
    {
      "inputs": [
        {
          "internalType": "address",
          "name": "recoveredSigner",
          "type": "address"
        },
        {
          "internalType": "address",
          "name": "expectedSigner",
          "type": "address"
        }
      ],
      "name": "InvalidClaimTermsSignature",
      "type": "error"
    },
    {
      "inputs": [
        {
          "internalType": "address",
          "name": "expectedSigner",
          "type": "address"
        }
      ],
      "name": "InvalidClaimTermsSignatureForContract",
      "type": "error"
    },
    {
      "inputs": [
        {
          "internalType": "string",
          "name": "reason",
          "type": "string"
        }
      ],
      "name": "InvalidParams",
      "type": "error"
    },
    {
      "inputs": [
        {
          "internalType": "address",
          "name": "msgSender",
          "type": "address"
        },
        {
          "internalType": "string",
          "name": "role",
          "type": "string"
        }
      ],
      "name": "Unauthorized",
      "type": "error"
    },
    {
      "inputs": [
        {
          "components": [
            {
              "internalType": "address",
              "name": "token",
              "type": "address"
            },
            {
              "internalType": "uint256",
              "name": "distributionId",
              "type": "uint256"
            },
            {
              "internalType": "bytes",
              "name": "termsSignature",
              "type": "bytes"
            }
          ],
          "internalType": "struct ClaimHandler.ClaimParam[]",
          "name": "params",
          "type": "tuple[]"
        },
        {
          "internalType": "address",
          "name": "receiver",
          "type": "address"
        }
      ],
      "name": "claimFunds",
      "outputs": [],
      "stateMutability": "nonpayable",
      "type": "function"
    },
    {
      "inputs": [],
      "name": "claimVault",
      "outputs": [
        {
          "internalType": "contract ClaimVault",
          "name": "",
          "type": "address"
        }
      ],
      "stateMutability": "view",
      "type": "function"
    },
    {
      "inputs": [],
      "name": "dataStore",
      "outputs": [
        {
          "internalType": "contract DataStore",
          "name": "",
          "type": "address"
        }
      ],
      "stateMutability": "view",
      "type": "function"
    },
    {
      "inputs": [
        {
          "internalType": "address",
          "name": "token",
          "type": "address"
        },
        {
          "internalType": "uint256",
          "name": "distributionId",
          "type": "uint256"
        },
        {
          "components": [
            {
              "internalType": "address",
              "name": "account",
              "type": "address"
            },
            {
              "internalType": "uint256",
              "name": "amount",
              "type": "uint256"
            }
          ],
          "internalType": "struct ClaimHandler.DepositParam[]",
          "name": "params",
          "type": "tuple[]"
        }
      ],
      "name": "depositFunds",
      "outputs": [],
      "stateMutability": "nonpayable",
      "type": "function"
    },
    {
      "inputs": [],
      "name": "eventEmitter",
      "outputs": [
        {
          "internalType": "contract EventEmitter",
          "name": "",
          "type": "address"
        }
      ],
      "stateMutability": "view",
      "type": "function"
    },
    {
      "inputs": [
        {
          "internalType": "address",
          "name": "account",
          "type": "address"
        },
        {
          "internalType": "address",
          "name": "token",
          "type": "address"
        },
        {
          "internalType": "uint256[]",
          "name": "distributionIds",
          "type": "uint256[]"
        }
      ],
      "name": "getClaimableAmount",
      "outputs": [
        {
          "internalType": "uint256",
          "name": "",
          "type": "uint256"
        }
      ],
      "stateMutability": "view",
      "type": "function"
    },
    {
      "inputs": [
        {
          "internalType": "address",
          "name": "token",
          "type": "address"
        }
      ],
      "name": "getTotalClaimableAmount",
      "outputs": [
        {
          "internalType": "uint256",
          "name": "",
          "type": "uint256"
        }
      ],
      "stateMutability": "view",
      "type": "function"
    },
    {
      "inputs": [
        {
          "internalType": "uint256",
          "name": "distributionId",
          "type": "uint256"
        }
      ],
      "name": "removeTerms",
      "outputs": [],
      "stateMutability": "nonpayable",
      "type": "function"
    },
    {
      "inputs": [],
      "name": "roleStore",
      "outputs": [
        {
          "internalType": "contract RoleStore",
          "name": "",
          "type": "address"
        }
      ],
      "stateMutability": "view",
      "type": "function"
    },
    {
      "inputs": [
        {
          "internalType": "uint256",
          "name": "distributionId",
          "type": "uint256"
        },
        {
          "internalType": "string",
          "name": "terms",
          "type": "string"
        }
      ],
      "name": "setTerms",
      "outputs": [],
      "stateMutability": "nonpayable",
      "type": "function"
    },
    {
      "inputs": [
        {
          "internalType": "address",
          "name": "token",
          "type": "address"
        },
        {
          "components": [
            {
              "internalType": "address",
              "name": "token",
              "type": "address"
            },
            {
              "internalType": "uint256",
              "name": "distributionId",
              "type": "uint256"
            },
            {
              "internalType": "address",
              "name": "fromAccount",
              "type": "address"
            },
            {
              "internalType": "address",
              "name": "toAccount",
              "type": "address"
            }
          ],
          "internalType": "struct ClaimHandler.TransferClaimParam[]",
          "name": "params",
          "type": "tuple[]"
        }
      ],
      "name": "transferClaim",
      "outputs": [],
      "stateMutability": "nonpayable",
      "type": "function"
    },
    {
      "inputs": [
        {
          "internalType": "address",
          "name": "token",
          "type": "address"
        },
        {
          "components": [
            {
              "internalType": "address",
              "name": "account",
              "type": "address"
            },
            {
              "internalType": "uint256",
              "name": "distributionId",
              "type": "uint256"
            }
          ],
          "internalType": "struct ClaimHandler.WithdrawParam[]",
          "name": "params",
          "type": "tuple[]"
        },
        {
          "internalType": "address",
          "name": "receiver",
          "type": "address"
        }
      ],
      "name": "withdrawFunds",
      "outputs": [],
      "stateMutability": "nonpayable",
      "type": "function"
    }
  ],
  "transactionHash": "0x2779c05f44ffcaba4f16c6a8770cd8570d74ac59580990907ce61f875833ed3a",
  "args": [
    "0x433E3C47885b929aEcE4149E3c835E565a20D95c",
    "0xCF4c2C4c53157BcC01A596e3788fFF69cBBCD201",
    "0xa973c2692C1556E1a3d478e745e9a75624AEDc73",
    "0xeB428ddF34D25Fc516DF81216c49b8fc2dAE5279"
  ],
  "numDeployments": 1,
  "solcInputHash": "2a28f96a124d5988e6c0ef3d29c54a03",
  "bytecode": "0x61010060405234801561001157600080fd5b506040516147753803806147758339810160408190526100309161006a565b6001600160a01b0393841660805291831660a052821660c0521660e0526100c9565b6001600160a01b038116811461006757600080fd5b50565b6000806000806080858703121561008057600080fd5b845161008b81610052565b602086015190945061009c81610052565b60408601519093506100ad81610052565b60608601519092506100be81610052565b939692955090935050565b60805160a05160c05160e0516145786101fd600039600081816101ce0152818161081601528181610a950152818161127a01526121a30152600081816101940152818161049e015281816107cc01528181610a4901528181610f1d01528181611226015261167901526000818161015a0152818161026001528181610370015281816103ee0152818161057001528181610605015281816106ad0152818161072b0152818161098f01528181610abc01528181610d5001528181610de801528181610e9901528181610f720152818161111401528181611199015281816112e70152818161134a015281816114b301528181611559015281816115d6015281816116ae015281816117b101528181611a8901528181611c4401526120e701526000818160fc015261188501526145786000f3fe608060405234801561001057600080fd5b50600436106100a45760003560e01c8063030edd79146100a957806308bad4ef146100be578063130b87f6146100d15780631a21f5fe146100e45780634a4a7b04146100f7578063605d52eb14610134578063660d0d6714610155578063979c77111461017c5780639ff78c301461018f578063a2bc7c4e146101b6578063ab518e6e146101c9578063c58fc940146101f0575b600080fd5b6100bc6100b736600461332f565b610203565b005b6100bc6100cc3660046133a8565b6104d1565b6100bc6100df36600461343f565b6108a6565b6100bc6100f2366004613498565b610b6c565b61011e7f000000000000000000000000000000000000000000000000000000000000000081565b60405161012b919061351e565b60405180910390f35b610147610142366004613532565b610f6e565b60405190815260200161012b565b61011e7f000000000000000000000000000000000000000000000000000000000000000081565b6100bc61018a36600461354d565b61100d565b61011e7f000000000000000000000000000000000000000000000000000000000000000081565b6101476101c43660046135b1565b61131d565b61011e7f000000000000000000000000000000000000000000000000000000000000000081565b6100bc6101fe366004613605565b611402565b61020b6116aa565b61025c60405160200161021d90613670565b604051602081830303815290604052805190602001206040518060400160405280600b81526020016a21a620a4a6afa0a226a4a760a91b815250611869565b60007f00000000000000000000000000000000000000000000000000000000000000006001600160a01b031663986e791a61029684611919565b6040518263ffffffff1660e01b81526004016102b491815260200190565b600060405180830381865afa1580156102d1573d6000803e3d6000fd5b505050506040513d6000823e601f3d908101601f191682016040526102f9919081019061374e565b905080516000036103445760405163a8c278dd60e01b815260206004820152600f60248201526e1d195c9b5cc81b9bdd08199bdd5b99608a1b60448201526064015b60405180910390fd5b8051602082012060006103568261198f565b604051637152429d60e11b81529091506001600160a01b037f0000000000000000000000000000000000000000000000000000000000000000169063e2a4853a906103a89084906000906004016137c9565b6020604051808303816000875af11580156103c7573d6000803e3d6000fd5b505050506040513d601f19601f820116820180604052508101906103eb91906137d7565b507f00000000000000000000000000000000000000000000000000000000000000006001600160a01b0316636e89955061042486611919565b6040518263ffffffff1660e01b815260040161045191815260406020820181905260009082015260600190565b6000604051808303816000875af1158015610470573d6000803e3d6000fd5b505050506040513d6000823e601f3d908101601f19168201604052610498919081019061374e565b506104c37f0000000000000000000000000000000000000000000000000000000000000000856119c8565b5050506104ce611a87565b50565b6104d96116aa565b60008290036105265760405163a8c278dd60e01b81526020600482015260186024820152770636c61696d20706172616d73206c656e67746820697320360441b604482015260640161033b565b61052f81611b3d565b60005b8281101561089857600084848381811061054e5761054e6137f0565b90506020028101906105609190613806565b61056990613826565b90506105a17f000000000000000000000000000000000000000000000000000000000000000061059c8360200151611b64565b611ba7565b80516105ac90611bd2565b6105b98160200151611bf9565b6105cc8160200151338360400151611c40565b60006105e13383600001518460200151611e3a565b60405163bd02d0f560e01b8152600481018290529091506000906001600160a01b037f0000000000000000000000000000000000000000000000000000000000000000169063bd02d0f590602401602060405180830381865afa15801561064c573d6000803e3d6000fd5b505050506040513d601f19601f8201168201806040525081019061067091906137d7565b905080600003610696578251604051637c8cdbf960e01b815261033b919060040161351e565b604051637152429d60e11b81526001600160a01b037f0000000000000000000000000000000000000000000000000000000000000000169063e2a4853a906106e59085906000906004016137c9565b6020604051808303816000875af1158015610704573d6000803e3d6000fd5b505050506040513d601f19601f8201168201806040525081019061072891906137d7565b507f00000000000000000000000000000000000000000000000000000000000000006001600160a01b031663e98aabc16107658560000151611ecd565b836040518363ffffffff1660e01b81526004016107839291906137c9565b6020604051808303816000875af11580156107a2573d6000803e3d6000fd5b505050506040513d601f19601f820116820180604052508101906107c691906137d7565b506107fd7f000000000000000000000000000000000000000000000000000000000000000033878660000151876020015186611f41565b825160405163078d3b7960e01b81526001600160a01b037f0000000000000000000000000000000000000000000000000000000000000000169163078d3b799161084e9190899086906004016138c4565b600060405180830381600087803b15801561086857600080fd5b505af115801561087c573d6000803e3d6000fd5b5050505061088d83600001516120e3565b505050600101610532565b506108a1611a87565b505050565b6108ae6116aa565b6108c060405160200161021d90613670565b600081900361090f5760405163a8c278dd60e01b815260206004820152601a60248201527906465706f73697420706172616d73206c656e67746820697320360341b604482015260640161033b565b61091884611bd2565b61092183611bf9565b6000805b82811015610a84576000848483818110610941576109416137f0565b905060400201803603810190610957919061393e565b9050610966816000015161222e565b806020015160000361098b576040516301a2868b60e31b815260040160405180910390fd5b60007f00000000000000000000000000000000000000000000000000000000000000006001600160a01b031663340dbab36109cb84600001518b8b611e3a565b84602001516040518363ffffffff1660e01b81526004016109ed9291906137c9565b6020604051808303816000875af1158015610a0c573d6000803e3d6000fd5b505050506040513d601f19601f82011682018060405250810190610a3091906137d7565b9050816020015184610a429190613970565b9350610a7a7f000000000000000000000000000000000000000000000000000000000000000083600001518a8a866020015186612255565b5050600101610925565b50610aba6001600160a01b038616337f0000000000000000000000000000000000000000000000000000000000000000846123cc565b7f00000000000000000000000000000000000000000000000000000000000000006001600160a01b031663340dbab3610af287611ecd565b836040518363ffffffff1660e01b8152600401610b109291906137c9565b6020604051808303816000875af1158015610b2f573d6000803e3d6000fd5b505050506040513d601f19601f82011682018060405250810190610b5391906137d7565b50610b5d856120e3565b50610b66611a87565b50505050565b610b746116aa565b610bcb604051602001610b8690613983565b604051602081830303815290604052805190602001206040518060400160405280601181526020017054494d454c4f434b5f4d554c544953494760781b815250611869565b6000819003610c1b5760405163a8c278dd60e01b815260206004820152601b60248201527a07472616e7366657220706172616d73206c656e677468206973203602c1b604482015260640161033b565b610c2483611bd2565b6040805160808101825260008082526020820181905291810182905260608101829052905b82811015610f64576000848483818110610c6557610c656137f0565b905060800201803603810190610c7b91906139ae565b905080606001516001600160a01b031681604001516001600160a01b031603610cfc5760405163a8c278dd60e01b815260206004820152602c60248201527f66726f6d4163636f756e7420616e6420746f4163636f756e742063616e6e6f7460448201526b206265207468652073616d6560a01b606482015260840161033b565b610d09816040015161222e565b610d168160600151611b3d565b610d238160200151611bf9565b610d368160400151878360200151611e3a565b80845260405163bd02d0f560e01b815260048101919091527f00000000000000000000000000000000000000000000000000000000000000006001600160a01b03169063bd02d0f590602401602060405180830381865afa158015610d9f573d6000803e3d6000fd5b505050506040513d601f19601f82011682018060405250810190610dc391906137d7565b6040840181905215610f5b578251604051637152429d60e11b81526001600160a01b037f0000000000000000000000000000000000000000000000000000000000000000169163e2a4853a91610e1f91906000906004016137c9565b6020604051808303816000875af1158015610e3e573d6000803e3d6000fd5b505050506040513d601f19601f82011682018060405250810190610e6291906137d7565b50610e768160600151878360200151611e3a565b60208401819052604080850151905163340dbab360e01b81526001600160a01b037f0000000000000000000000000000000000000000000000000000000000000000169263340dbab392610ecc926004016137c9565b6020604051808303816000875af1158015610eeb573d6000803e3d6000fd5b505050506040513d601f19601f82011682018060405250810190610f0f91906137d7565b836060018181525050610f5b7f00000000000000000000000000000000000000000000000000000000000000008783602001518460400151856060015188604001518960600151612424565b50600101610c49565b50610898846120e3565b60007f00000000000000000000000000000000000000000000000000000000000000006001600160a01b031663bd02d0f5610fa884611ecd565b6040518263ffffffff1660e01b8152600401610fc691815260200190565b602060405180830381865afa158015610fe3573d6000803e3d6000fd5b505050506040513d601f19601f8201168201806040525081019061100791906137d7565b92915050565b6110156116aa565b611027604051602001610b8690613983565b61103084611bd2565b61103981611b3d565b60008290036110895760405163a8c278dd60e01b815260206004820152601b60248201527a0776974686472617720706172616d73206c656e677468206973203602c1b604482015260640161033b565b6000805b838110156112625760008585838181106110a9576110a96137f0565b9050604002018036038101906110bf919061393e565b90506110ce816000015161222e565b6110db8160200151611bf9565b60006110f08260000151898460200151611e3a565b60405163bd02d0f560e01b8152600481018290529091506000906001600160a01b037f0000000000000000000000000000000000000000000000000000000000000000169063bd02d0f590602401602060405180830381865afa15801561115b573d6000803e3d6000fd5b505050506040513d601f19601f8201168201806040525081019061117f91906137d7565b604051637152429d60e11b81529091506001600160a01b037f0000000000000000000000000000000000000000000000000000000000000000169063e2a4853a906111d19085906000906004016137c9565b6020604051808303816000875af11580156111f0573d6000803e3d6000fd5b505050506040513d601f19601f8201168201806040525081019061121491906137d7565b5061121f8186613970565b94506112577f000000000000000000000000000000000000000000000000000000000000000084600001518b8660200151858b61260a565b50505060010161108d565b5060405163078d3b7960e01b81526001600160a01b037f0000000000000000000000000000000000000000000000000000000000000000169063078d3b79906112b3908890869086906004016138c4565b600060405180830381600087803b1580156112cd57600080fd5b505af11580156112e1573d6000803e3d6000fd5b505050507f00000000000000000000000000000000000000000000000000000000000000006001600160a01b031663e98aabc1610af287611ecd565b60008060005b838110156113f657600085858381811061133f5761133f6137f0565b9050602002013590507f00000000000000000000000000000000000000000000000000000000000000006001600160a01b031663bd02d0f56113828a8a85611e3a565b6040518263ffffffff1660e01b81526004016113a091815260200190565b602060405180830381865afa1580156113bd573d6000803e3d6000fd5b505050506040513d601f19601f820116820180604052508101906113e191906137d7565b6113eb9084613970565b925050600101611323565b5090505b949350505050565b61140a6116aa565b61141c60405160200161021d90613670565b61142583611bf9565b60008190036114685760405163a8c278dd60e01b815260206004820152600e60248201526d7465726d7320697320656d70747960901b604482015260640161033b565b6000828260405161147a929190613a25565b60405180910390209050600061148f8261198f565b60405163bd02d0f560e01b8152600481018290529091506000906001600160a01b037f0000000000000000000000000000000000000000000000000000000000000000169063bd02d0f590602401602060405180830381865afa1580156114fa573d6000803e3d6000fd5b505050506040513d601f19601f8201168201806040525081019061151e91906137d7565b905080156115425760405163fd795fc160e01b81526004810182905260240161033b565b604051637152429d60e11b81526001600160a01b037f0000000000000000000000000000000000000000000000000000000000000000169063e2a4853a906115909085908a906004016137c9565b6020604051808303816000875af11580156115af573d6000803e3d6000fd5b505050506040513d601f19601f820116820180604052508101906115d391906137d7565b507f00000000000000000000000000000000000000000000000000000000000000006001600160a01b0316636e89955061160c88611919565b87876040518463ffffffff1660e01b815260040161162c93929190613a35565b6000604051808303816000875af115801561164b573d6000803e3d6000fd5b505050506040513d6000823e601f3d908101601f19168201604052611673919081019061374e565b5061169f7f00000000000000000000000000000000000000000000000000000000000000008785612771565b5050506108a1611a87565b60007f00000000000000000000000000000000000000000000000000000000000000006001600160a01b031663bd02d0f56040516020016116ea90613a6b565b604051602081830303815290604052805190602001206040518263ffffffff1660e01b815260040161171e91815260200190565b602060405180830381865afa15801561173b573d6000803e3d6000fd5b505050506040513d601f19601f8201168201806040525081019061175f91906137d7565b905080156117af5760405162461bcd60e51b815260206004820152601f60248201527f5265656e7472616e637947756172643a207265656e7472616e742063616c6c00604482015260640161033b565b7f00000000000000000000000000000000000000000000000000000000000000006001600160a01b031663e2a4853a6040516020016117ed90613a6b565b6040516020818303038152906040528051906020012060016040518363ffffffff1660e01b81526004016118229291906137c9565b6020604051808303816000875af1158015611841573d6000803e3d6000fd5b505050506040513d601f19601f8201168201806040525081019061186591906137d7565b5050565b60405163ac4ab3fb60e01b8152336004820152602481018390527f00000000000000000000000000000000000000000000000000000000000000006001600160a01b03169063ac4ab3fb90604401602060405180830381865afa1580156118d4573d6000803e3d6000fd5b505050506040513d601f19601f820116820180604052508101906118f89190613a9c565b61186557338160405163a35b150b60e01b815260040161033b929190613aea565b600060405160200161194a906020808252600b908201526a434c41494d5f5445524d5360a81b604082015260600190565b60405160208183030381529060405280519060200120826040516020016119729291906137c9565b604051602081830303815290604052805190602001209050919050565b600060405160200161194a9060208082526013908201527221a620a4a6afaa22a926a9afa120a1a5a922a360691b604082015260600190565b6119d061323e565b60208101516119e0906001612873565b611a2260006040518060400160405280600e81526020016d191a5cdd1c9a589d5d1a5bdb925960921b8152508484602001516128d8909392919063ffffffff16565b604051630937807960e21b81526001600160a01b038416906324de01e490611a509085908590600401614222565b600060405180830381600087803b158015611a6a57600080fd5b505af1158015611a7e573d6000803e3d6000fd5b50505050505050565b7f00000000000000000000000000000000000000000000000000000000000000006001600160a01b031663e2a4853a604051602001611ac590613a6b565b6040516020818303038152906040528051906020012060006040518363ffffffff1660e01b8152600401611afa9291906137c9565b6020604051808303816000875af1158015611b19573d6000803e3d6000fd5b505050506040513d601f19601f820116820180604052508101906104ce91906137d7565b6001600160a01b0381166104ce5760405163d551823d60e01b815260040160405180910390fd5b600060405160200161194a906020808252601e908201527f47454e4552414c5f434c41494d5f464541545552455f44495341424c45440000604082015260600190565b611bb1828261292b565b156118655760405163dd70e0c960e01b81526004810182905260240161033b565b6001600160a01b0381166104ce5760405163066f53b160e01b815260040160405180910390fd5b806000036104ce5760405163a8c278dd60e01b81526020600482015260136024820152720646973747269627574696f6e4964206973203606c1b604482015260640161033b565b60007f00000000000000000000000000000000000000000000000000000000000000006001600160a01b031663986e791a611c7a86611919565b6040518263ffffffff1660e01b8152600401611c9891815260200190565b600060405180830381865afa158015611cb5573d6000803e3d6000fd5b505050506040513d6000823e601f3d908101601f19168201604052611cdd919081019061374e565b90508051600003611cee5750505050565b600081611cfa8661299e565b611d0330612a30565b611d0c4661299e565b604051602001611d1f9493929190614263565b60405160208183030381529060405290506000611d3b82612a46565b9050600080611d4a8387612a64565b90925090506000816004811115611d6357611d63614306565b148015611d815750866001600160a01b0316826001600160a01b0316145b15611d90575050505050505050565b611da2876001600160a01b0316612aa9565b611dd25760405163356305a560e11b81526001600160a01b0380841660048301528816602482015260440161033b565b6000611ddf888589612ab8565b90508015611df257505050505050505050565b6000611dfe8987612ba5565b9050611e0b89828a612ab8565b91508115611e1f5750505050505050505050565b88604051630500016f60e41b815260040161033b919061351e565b6000604051602001611e769060208082526016908201527510d31052535050931157d195539114d7d05353d5539560521b604082015260600190565b60408051808303601f190181528282528051602091820120818401526001600160a01b03968716838301529490951660608201526080808201939093528451808203909301835260a0019093528051910120919050565b6000604051602001611f0f906020808252601c908201527b1513d5105317d0d31052535050931157d195539114d7d05353d5539560221b604082015260600190565b60408051601f198184030181528282528051602091820120908301526001600160a01b03841690820152606001611972565b611f4961323e565b8051611f56906003612873565b6040805180820190915260078152661858d8dbdd5b9d60ca1b60208201528151611f839160009089612cb4565b6040805180820190915260088152673932b1b2b4bb32b960c11b60208201528151611fb19160019088612cb4565b6040805180820190915260058152643a37b5b2b760d91b60208201528151611fdc9160029087612cb4565b6020810151611fec906002612873565b61202e60006040518060400160405280600e81526020016d191a5cdd1c9a589d5d1a5bdb925960921b8152508584602001516128d8909392919063ffffffff16565b612068600160405180604001604052806006815260200165185b5bdd5b9d60d21b8152508484602001516128d8909392919063ffffffff16565b866001600160a01b03166363d1636361208088612d11565b61208987612d11565b846040518463ffffffff1660e01b81526004016120a89392919061431c565b600060405180830381600087803b1580156120c257600080fd5b505af11580156120d6573d6000803e3d6000fd5b5050505050505050505050565b60007f00000000000000000000000000000000000000000000000000000000000000006001600160a01b031663bd02d0f561211d84611ecd565b6040518263ffffffff1660e01b815260040161213b91815260200190565b602060405180830381865afa158015612158573d6000803e3d6000fd5b505050506040513d601f19601f8201168201806040525081019061217c91906137d7565b6040516370a0823160e01b81529091506001600160a01b038316906370a08231906121cb907f00000000000000000000000000000000000000000000000000000000000000009060040161351e565b602060405180830381865afa1580156121e8573d6000803e3d6000fd5b505050506040513d601f19601f8201168201806040525081019061220c91906137d7565b8111156118655781604051639fc47b7760e01b815260040161033b919061351e565b6001600160a01b0381166104ce57604051636eb80b5160e11b815260040160405180910390fd5b61225d61323e565b805161226a906002612873565b6040805180820190915260078152661858d8dbdd5b9d60ca1b602082015281516122979160009089612cb4565b6040805180820190915260058152643a37b5b2b760d91b602082015281516122c29160019088612cb4565b60208101516122d2906003612873565b61231460006040518060400160405280600e81526020016d191a5cdd1c9a589d5d1a5bdb925960921b8152508684602001516128d8909392919063ffffffff16565b61234e600160405180604001604052806006815260200165185b5bdd5b9d60d21b8152508584602001516128d8909392919063ffffffff16565b61238c60026040518060400160405280600a8152602001691b995e1d105b5bdd5b9d60b21b8152508484602001516128d8909392919063ffffffff16565b866001600160a01b03166363d163636123a488612d11565b6123ad88612d11565b846040518463ffffffff1660e01b81526004016120a893929190614363565b610b66846323b872dd60e01b8585856040516024016123ed939291906138c4565b60408051601f198184030181529190526020810180516001600160e01b03166001600160e01b031990931692909217909152612d1d565b61242c61323e565b8051612439906003612873565b60408051808201909152600b81526a199c9bdb5058d8dbdd5b9d60aa1b6020820152815161246a9160009088612cb4565b6040805180820190915260098152681d1bd058d8dbdd5b9d60ba1b602082015281516124999160019087612cb4565b6040805180820190915260058152643a37b5b2b760d91b602082015281516124c4916002908a612cb4565b60208101516124d4906003612873565b61251660006040518060400160405280600e81526020016d191a5cdd1c9a589d5d1a5bdb925960921b8152508884602001516128d8909392919063ffffffff16565b612550600160405180604001604052806006815260200165185b5bdd5b9d60d21b8152508584602001516128d8909392919063ffffffff16565b61258e60026040518060400160405280600a8152602001691b995e1d105b5bdd5b9d60b21b8152508484602001516128d8909392919063ffffffff16565b876001600160a01b03166363d163636125a687612d11565b6125af87612d11565b846040518463ffffffff1660e01b81526004016125ce939291906143ac565b600060405180830381600087803b1580156125e857600080fd5b505af11580156125fc573d6000803e3d6000fd5b505050505050505050505050565b61261261323e565b805161261f906003612873565b6040805180820190915260078152661858d8dbdd5b9d60ca1b6020820152815161264c9160009089612cb4565b6040805180820190915260058152643a37b5b2b760d91b602082015281516126779160019088612cb4565b6040805180820190915260088152673932b1b2b4bb32b960c11b602082015281516126a59160029085612cb4565b60208101516126b5906002612873565b6126f760006040518060400160405280600e81526020016d191a5cdd1c9a589d5d1a5bdb925960921b8152508684602001516128d8909392919063ffffffff16565b612731600160405180604001604052806006815260200165185b5bdd5b9d60d21b8152508584602001516128d8909392919063ffffffff16565b866001600160a01b03166363d1636361274988612d11565b61275288612d11565b846040518463ffffffff1660e01b81526004016120a8939291906143f7565b61277961323e565b6020810151612789906001612873565b6127cb60006040518060400160405280600e81526020016d191a5cdd1c9a589d5d1a5bdb925960921b8152508584602001516128d8909392919063ffffffff16565b60808101516127db906001612873565b6040805180820190915260098152680e8cae4dae690c2e6d60bb1b6020820152608082015161280d91600090856128d8565b604051630937807960e21b81526001600160a01b038516906324de01e49061283b9086908590600401614440565b600060405180830381600087803b15801561285557600080fd5b505af1158015612869573d6000803e3d6000fd5b5050505050505050565b806001600160401b0381111561288b5761288b613695565b6040519080825280602002602001820160405280156128d157816020015b6040805180820190915260608152600060208201528152602001906001900390816128a95790505b5090915250565b81846000015184815181106128ef576128ef6137f0565b6020026020010151600001819052508084600001518481518110612915576129156137f0565b6020026020010151602001818152505050505050565b604051633d70e7e560e11b8152600481018290526000906001600160a01b03841690637ae1cfca90602401602060405180830381865afa158015612973573d6000803e3d6000fd5b505050506040513d601f19601f820116820180604052508101906129979190613a9c565b9392505050565b606060006129ab83612df2565b60010190506000816001600160401b038111156129ca576129ca613695565b6040519080825280601f01601f1916602001820160405280156129f4576020820181803683370190505b5090508181016020015b600019016f181899199a1a9b1b9c1cb0b131b232b360811b600a86061a8153600a85049450846129fe57509392505050565b60606110076001600160a01b0383166014612ec8565b6000612a52825161299e565b8260405160200161197292919061447d565b6000808251604103612a9a5760208301516040840151606085015160001a612a8e87828585613063565b94509450505050612aa2565b506000905060025b9250929050565b6001600160a01b03163b151590565b6000806000856001600160a01b0316631626ba7e60e01b8686604051602401612ae29291906144d6565b60408051601f198184030181529181526020820180516001600160e01b03166001600160e01b0319909416939093179092529051612b2091906144ef565b600060405180830381855afa9150503d8060008114612b5b576040519150601f19603f3d011682016040523d82523d6000602084013e612b60565b606091505b5091509150818015612b7457506020815110155b8015612b9b57508051630b135d3f60e11b90612b9990830160209081019084016137d7565b145b9695505050505050565b6000807f60b3cbf8b4a223d68d641b3b6ddf9a298e7f33710cf3d3a9d1146b5a6150fbca60001b8380519060200120604051602001612be59291906137c9565b604051602081830303815290604052805190602001209050601960f81b600160f81b856001600160a01b031663f698da256040518163ffffffff1660e01b8152600401602060405180830381865afa158015612c45573d6000803e3d6000fd5b505050506040513d601f19601f82011682018060405250810190612c6991906137d7565b6040516001600160f81b031993841660208201529290911660218301526022820152604281018290526062016040516020818303038152906040528051906020012091505092915050565b8184600001518481518110612ccb57612ccb6137f0565b6020026020010151600001819052508084600001518481518110612cf157612cf16137f0565b6020908102919091018101516001600160a01b0390921691015250505050565b6001600160a01b031690565b6000612d72826040518060400160405280602081526020017f5361666545524332303a206c6f772d6c6576656c2063616c6c206661696c6564815250856001600160a01b031661311d9092919063ffffffff16565b9050805160001480612d93575080806020019051810190612d939190613a9c565b6108a15760405162461bcd60e51b815260206004820152602a60248201527f5361666545524332303a204552433230206f7065726174696f6e20646964206e6044820152691bdd081cdd58d8d9595960b21b606482015260840161033b565b60008072184f03e93ff9f4daa797ed6e38ed64bf6a1f0160401b8310612e315772184f03e93ff9f4daa797ed6e38ed64bf6a1f0160401b830492506040015b6904ee2d6d415b85acef8160201b8310612e5b576904ee2d6d415b85acef8160201b830492506020015b662386f26fc100008310612e7957662386f26fc10000830492506010015b6305f5e1008310612e91576305f5e100830492506008015b6127108310612ea557612710830492506004015b60648310612eb7576064830492506002015b600a83106110075760010192915050565b60606000612ed7836002614501565b612ee2906002613970565b6001600160401b03811115612ef957612ef9613695565b6040519080825280601f01601f191660200182016040528015612f23576020820181803683370190505b509050600360fc1b81600081518110612f3e57612f3e6137f0565b60200101906001600160f81b031916908160001a905350600f60fb1b81600181518110612f6d57612f6d6137f0565b60200101906001600160f81b031916908160001a9053506000612f91846002614501565b612f9c906001613970565b90505b6001811115613014576f181899199a1a9b1b9c1cb0b131b232b360811b85600f1660108110612fd057612fd06137f0565b1a60f81b828281518110612fe657612fe66137f0565b60200101906001600160f81b031916908160001a90535060049490941c9361300d81614518565b9050612f9f565b5083156129975760405162461bcd60e51b815260206004820181905260248201527f537472696e67733a20686578206c656e67746820696e73756666696369656e74604482015260640161033b565b6000806fa2a8918ca85bafe22016d0b997e4df60600160ff1b038311156130905750600090506003613114565b6040805160008082526020820180845289905260ff881692820192909252606081018690526080810185905260019060a0016020604051602081039080840390855afa1580156130e4573d6000803e3d6000fd5b5050604051601f1901519150506001600160a01b03811661310d57600060019250925050613114565b9150600090505b94509492505050565b60606113fa848460008585600080866001600160a01b0316858760405161314491906144ef565b60006040518083038185875af1925050503d8060008114613181576040519150601f19603f3d011682016040523d82523d6000602084013e613186565b606091505b5091509150613197878383876131a2565b979650505050505050565b6060831561320f578251600003613208576131bc85612aa9565b6132085760405162461bcd60e51b815260206004820152601d60248201527f416464726573733a2063616c6c20746f206e6f6e2d636f6e7472616374000000604482015260640161033b565b50816113fa565b6113fa83838151156132245781518083602001fd5b8060405162461bcd60e51b815260040161033b919061452f565b604080516101208101909152606060e0820181815261010083019190915281908152602001613280604051806040016040528060608152602001606081525090565b81526020016132a2604051806040016040528060608152602001606081525090565b81526020016132c4604051806040016040528060608152602001606081525090565b81526020016132e6604051806040016040528060608152602001606081525090565b8152602001613308604051806040016040528060608152602001606081525090565b815260200161332a604051806040016040528060608152602001606081525090565b905290565b60006020828403121561334157600080fd5b5035919050565b60008083601f84011261335a57600080fd5b5081356001600160401b0381111561337157600080fd5b6020830191508360208260051b8501011115612aa257600080fd5b80356001600160a01b03811681146133a357600080fd5b919050565b6000806000604084860312156133bd57600080fd5b83356001600160401b038111156133d357600080fd5b6133df86828701613348565b90945092506133f290506020850161338c565b90509250925092565b60008083601f84011261340d57600080fd5b5081356001600160401b0381111561342457600080fd5b6020830191508360208260061b8501011115612aa257600080fd5b6000806000806060858703121561345557600080fd5b61345e8561338c565b93506020850135925060408501356001600160401b0381111561348057600080fd5b61348c878288016133fb565b95989497509550505050565b6000806000604084860312156134ad57600080fd5b6134b68461338c565b925060208401356001600160401b038111156134d157600080fd5b8401601f810186136134e257600080fd5b80356001600160401b038111156134f857600080fd5b8660208260071b840101111561350d57600080fd5b939660209190910195509293505050565b6001600160a01b0391909116815260200190565b60006020828403121561354457600080fd5b6129978261338c565b6000806000806060858703121561356357600080fd5b61356c8561338c565b935060208501356001600160401b0381111561358757600080fd5b613593878288016133fb565b90945092506135a690506040860161338c565b905092959194509250565b600080600080606085870312156135c757600080fd5b6135d08561338c565b93506135de6020860161338c565b925060408501356001600160401b038111156135f957600080fd5b61348c87828801613348565b60008060006040848603121561361a57600080fd5b8335925060208401356001600160401b0381111561363757600080fd5b8401601f8101861361364857600080fd5b80356001600160401b0381111561365e57600080fd5b86602082840101111561350d57600080fd5b6020808252600b908201526a21a620a4a6afa0a226a4a760a91b604082015260600190565b634e487b7160e01b600052604160045260246000fd5b604051606081016001600160401b03811182821017156136cd576136cd613695565b60405290565b604051601f8201601f191681016001600160401b03811182821017156136fb576136fb613695565b604052919050565b60006001600160401b0382111561371c5761371c613695565b50601f01601f191660200190565b60005b8381101561374557818101518382015260200161372d565b50506000910152565b60006020828403121561376057600080fd5b81516001600160401b0381111561377657600080fd5b8201601f8101841361378757600080fd5b805161379a61379582613703565b6136d3565b8181528560208385010111156137af57600080fd5b6137c082602083016020860161372a565b95945050505050565b918252602082015260400190565b6000602082840312156137e957600080fd5b5051919050565b634e487b7160e01b600052603260045260246000fd5b60008235605e1983360301811261381c57600080fd5b9190910192915050565b60006060823603121561383857600080fd5b6138406136ab565b6138498361338c565b81526020838101359082015260408301356001600160401b0381111561386e57600080fd5b830136601f82011261387f57600080fd5b803561388d61379582613703565b8181523660208385010111156138a257600080fd5b8160208401602083013760009181016020019190915260408301525092915050565b6001600160a01b039384168152919092166020820152604081019190915260600190565b6000604082840312156138fa57600080fd5b604080519081016001600160401b038111828210171561391c5761391c613695565b60405290508061392b8361338c565b8152602092830135920191909152919050565b60006040828403121561395057600080fd5b61299783836138e8565b634e487b7160e01b600052601160045260246000fd5b808201808211156110075761100761395a565b60208082526011908201527054494d454c4f434b5f4d554c544953494760781b604082015260600190565b600060808284031280156139c157600080fd5b50604051608081016001600160401b03811182821017156139e4576139e4613695565b6040526139f08361338c565b815260208381013590820152613a086040840161338c565b6040820152613a196060840161338c565b60608201529392505050565b8183823760009101908152919050565b83815260406020820152816040820152818360608301376000818301606090810191909152601f909201601f1916010192915050565b6020808252601790820152765245454e5452414e43595f47554152445f53544154555360481b604082015260600190565b600060208284031215613aae57600080fd5b8151801515811461299757600080fd5b60008151808452613ad681602086016020860161372a565b601f01601f19169290920160200192915050565b6001600160a01b03831681526040602082018190526000906113fa90830184613abe565b600082825180855260208501945060208160051b8301016020850160005b83811015613bb557601f198584030188528151805160408552613b526040860182613abe565b6020928301518682038785015280518083529084019360009350909101905b80831015613b9c5783516001600160a01b031682526020938401936001939093019290910190613b71565b5060209a8b019a90955093909301925050600101613b2c565b50909695505050505050565b60006040830182516040855281815180845260608701915060608160051b880101935060208301925060005b81811015613c3b57605f198886030183528351805160408752613c136040880182613abe565b6020928301516001600160a01b03169783019790975250938401939290920191600101613bed565b50505050602083015184820360208601526137c08282613b0e565b600082825180855260208501945060208160051b8301016020850160005b83811015613bb557601f198584030188528151805160408552613c9a6040860182613abe565b6020928301518682038785015280518083529084019360009350909101905b80831015613cdc5783518252602082019150602084019350600183019250613cb9565b5060209a8b019a90955093909301925050600101613c74565b60006040830182516040855281815180845260608701915060608160051b880101935060208301925060005b81811015613d6657605f198886030183528351805160408752613d476040880182613abe565b6020928301519783019790975250938401939290920191600101613d21565b50505050602083015184820360208601526137c08282613c56565b60006040830182516040855281815180845260608701915060608160051b880101935060208301925060005b81811015613d6657605f198886030183528351805160408752613dd36040880182613abe565b6020928301519783019790975250938401939290920191600101613dad565b600082825180855260208501945060208160051b8301016020850160005b83811015613bb557601f198584030188528151805160408552613e366040860182613abe565b6020928301518682038785015280518083529084019360009350909101905b80831015613e7a57835115158252602082019150602084019350600183019250613e55565b5060209a8b019a90955093909301925050600101613e10565b60006040830182516040855281815180845260608701915060608160051b880101935060208301925060005b81811015613f0657605f198886030183528351805160408752613ee56040880182613abe565b60209283015115159783019790975250938401939290920191600101613ebf565b50505050602083015184820360208601526137c08282613df2565b60006040830182516040855281815180845260608701915060608160051b880101935060208301925060005b81811015613d6657605f198886030183528351805160408752613f736040880182613abe565b6020928301519783019790975250938401939290920191600101613f4d565b600082825180855260208501945060208160051b8301016020850160005b83811015613bb557601f198584030188528151805160408552613fd66040860182613abe565b6020928301518682038785015280518083529084019391925081830191600582901b84010160005b8281101561402f57601f1985830301845261401a828751613abe565b60209687019694909401939150600101613ffe565b508097505050505050602082019150602088019750600181019050613fb0565b60006040830182516040855281815180845260608701915060608160051b880101935060208301925060005b818110156140d357605f1988860301835283518051604087526140a16040880182613abe565b90506020820151915086810360208801526140bc8183613abe565b96505050602093840193929092019160010161407b565b50505050602083015184820360208601526137c08282613f92565b60006040830182516040855281815180845260608701915060608160051b880101935060208301925060005b818110156140d357605f1988860301835283518051604087526141406040880182613abe565b905060208201519150868103602088015261415b8183613abe565b96505050602093840193929092019160010161411a565b6000815160e0845261418760e0850182613bc1565b9050602083015184820360208601526141a08282613cf5565b915050604083015184820360408601526141ba8282613d81565b915050606083015184820360608601526141d48282613e93565b915050608083015184820360808601526141ee8282613f21565b91505060a083015184820360a0860152614208828261404f565b91505060c083015184820360c08601526137c082826140ee565b60608152601160608201527010db185a5b55195c9b5cd4995b5bdd9959607a1b608082015282602082015260a0604082015260006113fa60a0830184614172565b60008551614275818460208a0161372a565b6e53234b9ba3934b13aba34b7b724b2160851b90830190815285516142a1816010840160208a0161372a565b68531b7b73a3930b1ba160b51b6010929091019182015284516142cb81601a84016020890161372a565b60108183010191505067531b430b4b724b2160bd1b600a82015283516142f881601384016020880161372a565b016013019695505050505050565b634e487b7160e01b600052602160045260246000fd5b60808152601160808201527010db185a5b519d5b991cd0db185a5b5959607a1b60a082015283602082015282604082015260c0606082015260006137c060c0830184614172565b60808152601360808201527210db185a5b519d5b991cd1195c1bdcda5d1959606a1b60a082015283602082015282604082015260c0606082015260006137c060c0830184614172565b60808152601560808201527410db185a5b519d5b991cd51c985b9cd9995c9c9959605a1b60a082015283602082015282604082015260c0606082015260006137c060c0830184614172565b60808152601360808201527221b630b4b6a33ab73239abb4ba34323930bbb760691b60a082015283602082015282604082015260c0606082015260006137c060c0830184614172565b60608152600d60608201526c10db185a5b55195c9b5cd4d95d609a1b608082015282602082015260a0604082015260006113fa60a0830184614172565b790ca2ba3432b932bab69029b4b3b732b21026b2b9b9b0b3b29d0560311b815282516000906144b381601a85016020880161372a565b8351908301906144ca81601a84016020880161372a565b01601a01949350505050565b8281526040602082015260006113fa6040830184613abe565b6000825161381c81846020870161372a565b80820281158282048414176110075761100761395a565b6000816145275761452761395a565b506000190190565b6020815260006129976020830184613abe56fea26469706673582212203db0cb13590e4704ab470f7e95b24d583a51c3c0ec985f57f72631ea1a55d4df64736f6c634300081d0033",
  "libraries": {},
  "devdoc": {
    "kind": "dev",
    "methods": {},
    "version": 1
  },
  "userdoc": {
    "kind": "user",
    "methods": {},
    "version": 1
  },
  "storageLayout": {
    "storage": [],
    "types": null
  }
}