{
  "address": "0xEd124ba7258e49869A054bfD07Bb496b4bfFaeC7",
  "abi": [
    {
      "inputs": [
        {
          "internalType": "contract RoleStore",
          "name": "_roleStore",
          "type": "address"
        },
        {
          "internalType": "contract DataStore",
          "name": "_dataStore",
          "type": "address"
        },
        {
          "internalType": "contract EventEmitter",
          "name": "_eventEmitter",
          "type": "address"
        }
      ],
      "stateMutability": "nonpayable",
      "type": "constructor"
    },
    {
      "inputs": [
        {
          "internalType": "address",
          "name": "token",
          "type": "address"
        }
      ],
      "name": "InvalidContributorToken",
      "type": "error"
    },
    {
      "inputs": [
        {
          "internalType": "uint256",
          "name": "tokensLength",
          "type": "uint256"
        },
        {
          "internalType": "uint256",
          "name": "amountsLength",
          "type": "uint256"
        }
      ],
      "name": "InvalidSetContributorPaymentInput",
      "type": "error"
    },
    {
      "inputs": [
        {
          "internalType": "uint256",
          "name": "tokensLength",
          "type": "uint256"
        },
        {
          "internalType": "uint256",
          "name": "amountsLength",
          "type": "uint256"
        }
      ],
      "name": "InvalidSetMaxTotalContributorTokenAmountInput",
      "type": "error"
    },
    {
      "inputs": [
        {
          "internalType": "address",
          "name": "token",
          "type": "address"
        },
        {
          "internalType": "uint256",
          "name": "totalAmount",
          "type": "uint256"
        },
        {
          "internalType": "uint256",
          "name": "maxTotalAmount",
          "type": "uint256"
        }
      ],
      "name": "MaxTotalContributorTokenAmountExceeded",
      "type": "error"
    },
    {
      "inputs": [
        {
          "internalType": "uint256",
          "name": "interval",
          "type": "uint256"
        }
      ],
      "name": "MinContributorPaymentIntervalBelowAllowedRange",
      "type": "error"
    },
    {
      "inputs": [
        {
          "internalType": "uint256",
          "name": "minPaymentInterval",
          "type": "uint256"
        }
      ],
      "name": "MinContributorPaymentIntervalNotYetPassed",
      "type": "error"
    },
    {
      "inputs": [
        {
          "internalType": "address",
          "name": "msgSender",
          "type": "address"
        },
        {
          "internalType": "string",
          "name": "role",
          "type": "string"
        }
      ],
      "name": "Unauthorized",
      "type": "error"
    },
    {
      "inputs": [
        {
          "internalType": "address",
          "name": "account",
          "type": "address"
        }
      ],
      "name": "addContributorAccount",
      "outputs": [],
      "stateMutability": "nonpayable",
      "type": "function"
    },
    {
      "inputs": [
        {
          "internalType": "address",
          "name": "token",
          "type": "address"
        }
      ],
      "name": "addContributorToken",
      "outputs": [],
      "stateMutability": "nonpayable",
      "type": "function"
    },
    {
      "inputs": [],
      "name": "dataStore",
      "outputs": [
        {
          "internalType": "contract DataStore",
          "name": "",
          "type": "address"
        }
      ],
      "stateMutability": "view",
      "type": "function"
    },
    {
      "inputs": [],
      "name": "eventEmitter",
      "outputs": [
        {
          "internalType": "contract EventEmitter",
          "name": "",
          "type": "address"
        }
      ],
      "stateMutability": "view",
      "type": "function"
    },
    {
      "inputs": [
        {
          "internalType": "bytes[]",
          "name": "data",
          "type": "bytes[]"
        }
      ],
      "name": "multicall",
      "outputs": [
        {
          "internalType": "bytes[]",
          "name": "results",
          "type": "bytes[]"
        }
      ],
      "stateMutability": "nonpayable",
      "type": "function"
    },
    {
      "inputs": [
        {
          "internalType": "address",
          "name": "account",
          "type": "address"
        }
      ],
      "name": "removeContributorAccount",
      "outputs": [],
      "stateMutability": "nonpayable",
      "type": "function"
    },
    {
      "inputs": [
        {
          "internalType": "address",
          "name": "token",
          "type": "address"
        }
      ],
      "name": "removeContributorToken",
      "outputs": [],
      "stateMutability": "nonpayable",
      "type": "function"
    },
    {
      "inputs": [],
      "name": "roleStore",
      "outputs": [
        {
          "internalType": "contract RoleStore",
          "name": "",
          "type": "address"
        }
      ],
      "stateMutability": "view",
      "type": "function"
    },
    {
      "inputs": [],
      "name": "sendPayments",
      "outputs": [],
      "stateMutability": "nonpayable",
      "type": "function"
    },
    {
      "inputs": [
        {
          "internalType": "address",
          "name": "account",
          "type": "address"
        },
        {
          "internalType": "address[]",
          "name": "tokens",
          "type": "address[]"
        },
        {
          "internalType": "uint256[]",
          "name": "amounts",
          "type": "uint256[]"
        }
      ],
      "name": "setContributorAmount",
      "outputs": [],
      "stateMutability": "nonpayable",
      "type": "function"
    },
    {
      "inputs": [
        {
          "internalType": "address",
          "name": "token",
          "type": "address"
        },
        {
          "internalType": "address",
          "name": "fundingAccount",
          "type": "address"
        }
      ],
      "name": "setContributorFundingAccount",
      "outputs": [],
      "stateMutability": "nonpayable",
      "type": "function"
    },
    {
      "inputs": [
        {
          "internalType": "address",
          "name": "account",
          "type": "address"
        },
        {
          "internalType": "address",
          "name": "token",
          "type": "address"
        },
        {
          "internalType": "address",
          "name": "fundingAccount",
          "type": "address"
        }
      ],
      "name": "setCustomContributorFundingAccount",
      "outputs": [],
      "stateMutability": "nonpayable",
      "type": "function"
    },
    {
      "inputs": [
        {
          "internalType": "address[]",
          "name": "tokens",
          "type": "address[]"
        },
        {
          "internalType": "uint256[]",
          "name": "amounts",
          "type": "uint256[]"
        }
      ],
      "name": "setMaxTotalContributorTokenAmount",
      "outputs": [],
      "stateMutability": "nonpayable",
      "type": "function"
    },
    {
      "inputs": [
        {
          "internalType": "uint256",
          "name": "interval",
          "type": "uint256"
        }
      ],
      "name": "setMinContributorPaymentInterval",
      "outputs": [],
      "stateMutability": "nonpayable",
      "type": "function"
    }
  ],
  "transactionHash": "0x4fe216139ca3e046f31a7cabc10d10f41fab9479264f7d30767b0c3c236368fa",
  "args": [
    "0x433E3C47885b929aEcE4149E3c835E565a20D95c",
    "0xCF4c2C4c53157BcC01A596e3788fFF69cBBCD201",
    "0xa973c2692C1556E1a3d478e745e9a75624AEDc73"
  ],
  "numDeployments": 1,
  "solcInputHash": "7395371fe004d66725ceb3b753cee145",
  "bytecode": "0x60e060405234801561001057600080fd5b5060405161368a38038061368a83398101604081905261002f91610069565b60016000556001600160a01b0392831660805290821660a0521660c0526100b6565b6001600160a01b038116811461006657600080fd5b50565b60008060006060848603121561007e57600080fd5b835161008981610051565b602085015190935061009a81610051565b60408501519092506100ab81610051565b809150509250925092565b60805160a05160c0516134d46101b66000396000818161019101528181610ecf015261163901526000818161013c015281816102a5015281816103c8015281816104de015281816105b001528181610716015281816107cd015281816108b10152818161096801528181610a1f01528181610add01528181610bc401528181610c8801528181610d3501528181610f730152818161105b01528181611119015281816112f50152818161134d015281816113f7015281816114e7015281816116fd0152818161197d01528181611a3401528181611aeb01528181611ba901528181611cba0152611d6d01526000818160ff01526117ae01526134d46000f3fe608060405234801561001057600080fd5b50600436106100ba5760003560e01c80630f8c394b146100bf57806332c9025f146100d457806349f6c644146100e75780634a4a7b04146100fa578063660d0d671461013757806369ad67651461015e5780637a3a988e1461016657806389d6d138146101795780639ff78c301461018c578063ac9650d8146101b3578063d18f9a8f146101d3578063d95205cf146101e6578063f32b56dc146101f9578063f74b76131461020c575b600080fd5b6100d26100cd366004612477565b61021f565b005b6100d26100e23660046124a5565b610366565b6100d26100f536600461262d565b610470565b6101217f000000000000000000000000000000000000000000000000000000000000000081565b60405161012e9190612694565b60405180910390f35b6101217f000000000000000000000000000000000000000000000000000000000000000081565b6100d2610681565b6100d26101743660046126a8565b61103f565b6100d26101873660046126e1565b6110fd565b6101217f000000000000000000000000000000000000000000000000000000000000000081565b6101c66101c1366004612705565b6111c5565b60405161012e9190612826565b6100d26101e13660046126e1565b6112d9565b6100d26101f43660046126e1565b611331565b6100d2610207366004612839565b611389565b6100d261021a3660046126e1565b6116e1565b610227611739565b610277604051602001610239906128b2565b604051602081830303815290604052805190602001206040518060400160405280600a81526020016921a7a72a2927a62622a960b11b815250611792565b621a5e008110156102a35760405163961b402560e01b8152600481018290526024015b60405180910390fd5b7f00000000000000000000000000000000000000000000000000000000000000006001600160a01b031663e2a4853a6040516020016102e1906128d6565b60405160208183030381529060405280519060200120836040518363ffffffff1660e01b815260040161031592919061290b565b6020604051808303816000875af1158015610334573d6000803e3d6000fd5b505050506040513d601f19601f820116820180604052508101906103589190612919565b506103636001600055565b50565b61036e611739565b6103c660405160200161038090612932565b604051602081830303815290604052805190602001206040518060400160405280601281526020017121a7a72a2924a12aaa27a92fa5a2a2a822a960711b815250611792565b7f00000000000000000000000000000000000000000000000000000000000000006001600160a01b031663ca446dd96103ff8585611842565b836040518363ffffffff1660e01b815260040161041d92919061295e565b6020604051808303816000875af115801561043c573d6000803e3d6000fd5b505050506040513d601f19601f820116820180604052508101906104609190612975565b5061046b6001600055565b505050565b610478611739565b61048a604051602001610239906128b2565b80518251146104b25781518151604051630a6a4f7160e21b815260040161029a92919061290b565b60005b825181101561066a5760008382815181106104d2576104d2612992565b602002602001015190507f00000000000000000000000000000000000000000000000000000000000000006001600160a01b031663c769d1a160405160200161051a906129a8565b60405160208183030381529060405280519060200120836040518363ffffffff1660e01b815260040161054e92919061295e565b602060405180830381865afa15801561056b573d6000803e3d6000fd5b505050506040513d601f19601f8201168201806040525081019061058f91906129d8565b6105ae5780604051634a59130960e01b815260040161029a9190612694565b7f00000000000000000000000000000000000000000000000000000000000000006001600160a01b031663e2a4853a6105e6836118e6565b8585815181106105f8576105f8612992565b60200260200101516040518363ffffffff1660e01b815260040161061d92919061290b565b6020604051808303816000875af115801561063c573d6000803e3d6000fd5b505050506040513d601f19601f820116820180604052508101906106609190612919565b50506001016104b5565b50610673611979565b61067d6001600055565b5050565b610689611739565b6107126040516020016106c79060208082526017908201527621a7a72a2924a12aaa27a92fa224a9aa2924a12aaa27a960491b604082015260600190565b604051602081830303815290604052805190602001206040518060400160405280601781526020017621a7a72a2924a12aaa27a92fa224a9aa2924a12aaa27a960491b815250611792565b60007f00000000000000000000000000000000000000000000000000000000000000006001600160a01b031663bd02d0f5604051602001610752906129fa565b604051602081830303815290604052805190602001206040518263ffffffff1660e01b815260040161078691815260200190565b602060405180830381865afa1580156107a3573d6000803e3d6000fd5b505050506040513d601f19601f820116820180604052508101906107c79190612919565b905060007f00000000000000000000000000000000000000000000000000000000000000006001600160a01b031663bd02d0f5604051602001610809906128d6565b604051602081830303815290604052805190602001206040518263ffffffff1660e01b815260040161083d91815260200190565b602060405180830381865afa15801561085a573d6000803e3d6000fd5b505050506040513d601f19601f8201168201806040525081019061087e9190612919565b90504261088b8284612a2f565b11156108ad5760405163b9dc7b9d60e01b81526004810182905260240161029a565b60007f00000000000000000000000000000000000000000000000000000000000000006001600160a01b03166335ea80596040516020016108ed906129a8565b604051602081830303815290604052805190602001206040518263ffffffff1660e01b815260040161092191815260200190565b602060405180830381865afa15801561093e573d6000803e3d6000fd5b505050506040513d601f19601f820116820180604052508101906109629190612919565b905060007f00000000000000000000000000000000000000000000000000000000000000006001600160a01b03166335ea80596040516020016109a490612a50565b604051602081830303815290604052805190602001206040518263ffffffff1660e01b81526004016109d891815260200190565b602060405180830381865afa1580156109f5573d6000803e3d6000fd5b505050506040513d601f19601f82011682018060405250810190610a199190612919565b905060007f00000000000000000000000000000000000000000000000000000000000000006001600160a01b031663e7e4148e604051602001610a5b906129a8565b604051602081830303815290604052805190602001206000866040518463ffffffff1660e01b8152600401610a9293929190612a82565b600060405180830381865afa158015610aaf573d6000803e3d6000fd5b505050506040513d6000823e601f3d908101601f19168201604052610ad79190810190612a98565b905060007f00000000000000000000000000000000000000000000000000000000000000006001600160a01b031663e7e4148e604051602001610b1990612a50565b604051602081830303815290604052805190602001206000866040518463ffffffff1660e01b8152600401610b5093929190612a82565b600060405180830381865afa158015610b6d573d6000803e3d6000fd5b505050506040513d6000823e601f3d908101601f19168201604052610b959190810190612a98565b905060005b84811015610f70576000838281518110610bb657610bb6612992565b6020026020010151905060007f00000000000000000000000000000000000000000000000000000000000000006001600160a01b03166321f8a721610bfa84611e4f565b6040518263ffffffff1660e01b8152600401610c1891815260200190565b602060405180830381865afa158015610c35573d6000803e3d6000fd5b505050506040513d601f19601f82011682018060405250810190610c599190612975565b905060005b86811015610f65576000858281518110610c7a57610c7a612992565b6020026020010151905060007f00000000000000000000000000000000000000000000000000000000000000006001600160a01b03166321f8a721610cbf8488611842565b6040518263ffffffff1660e01b8152600401610cdd91815260200190565b602060405180830381865afa158015610cfa573d6000803e3d6000fd5b505050506040513d601f19601f82011682018060405250810190610d1e9190612975565b90506001600160a01b038116610d315750825b60007f00000000000000000000000000000000000000000000000000000000000000006001600160a01b031663bd02d0f5610d6c8589611e90565b6040518263ffffffff1660e01b8152600401610d8a91815260200190565b602060405180830381865afa158015610da7573d6000803e3d6000fd5b505050506040513d601f19601f82011682018060405250810190610dcb9190612919565b9050610de26001600160a01b038716838584611ece565b610dea612386565b8051610df7906003611f2e565b60408051808201909152600e81526d199d5b991a5b99d058d8dbdd5b9d60921b60208201528151610e2b9160009086611f93565b6040805180820190915260078152661858d8dbdd5b9d60ca1b60208201528151610e589160019087611f93565b6040805180820190915260058152643a37b5b2b760d91b60208201528151610e83916002908a611f93565b6020810151610e93906001611f2e565b610ecd600060405180604001604052806006815260200165185b5bdd5b9d60d21b815250848460200151611ff0909392919063ffffffff16565b7f00000000000000000000000000000000000000000000000000000000000000006001600160a01b03166324de01e4610f0586612043565b836040518363ffffffff1660e01b8152600401610f239291906132d9565b600060405180830381600087803b158015610f3d57600080fd5b505af1158015610f51573d6000803e3d6000fd5b505060019096019550610c5e945050505050565b505050600101610b9a565b507f00000000000000000000000000000000000000000000000000000000000000006001600160a01b031663e2a4853a604051602001610faf906129fa565b60405160208183030381529060405280519060200120610fcc4290565b6040518363ffffffff1660e01b8152600401610fe992919061290b565b6020604051808303816000875af1158015611008573d6000803e3d6000fd5b505050506040513d601f19601f8201168201806040525081019061102c9190612919565b5050505050505061103d6001600055565b565b611047611739565b61105960405160200161038090612932565b7f00000000000000000000000000000000000000000000000000000000000000006001600160a01b031663ca446dd961109184611e4f565b836040518363ffffffff1660e01b81526004016110af92919061295e565b6020604051808303816000875af11580156110ce573d6000803e3d6000fd5b505050506040513d601f19601f820116820180604052508101906110f29190612975565b5061067d6001600055565b611105611739565b61111760405160200161038090612932565b7f00000000000000000000000000000000000000000000000000000000000000006001600160a01b031663b348e63960405160200161115590612a50565b60405160208183030381529060405280519060200120836040518363ffffffff1660e01b815260040161118992919061295e565b600060405180830381600087803b1580156111a357600080fd5b505af11580156111b7573d6000803e3d6000fd5b505050506103636001600055565b6060816001600160401b038111156111df576111df6124f0565b60405190808252806020026020018201604052801561121257816020015b60608152602001906001900390816111fd5790505b50905060005b828110156112d1576000803086868581811061123657611236612992565b9050602002810190611248919061331f565b60405161125692919061336c565b600060405180830381855af49150503d8060008114611291576040519150601f19603f3d011682016040523d82523d6000602084013e611296565b606091505b5091509150816112a9576112a98161204f565b808484815181106112bc576112bc612992565b60209081029190910101525050600101611218565b505b92915050565b6112e1611739565b6112f360405160200161038090612932565b7f00000000000000000000000000000000000000000000000000000000000000006001600160a01b03166369721d41604051602001611155906129a8565b611339611739565b61134b60405160200161038090612932565b7f00000000000000000000000000000000000000000000000000000000000000006001600160a01b03166369721d4160405160200161115590612a50565b611391611739565b6113a360405160200161038090612932565b80518251146113cb5781518151604051630530b25960e41b815260040161029a92919061290b565b60005b82518110156116ce5760008382815181106113eb576113eb612992565b602002602001015190507f00000000000000000000000000000000000000000000000000000000000000006001600160a01b031663c769d1a1604051602001611433906129a8565b60405160208183030381529060405280519060200120836040518363ffffffff1660e01b815260040161146792919061295e565b602060405180830381865afa158015611484573d6000803e3d6000fd5b505050506040513d601f19601f820116820180604052508101906114a891906129d8565b6114c75780604051634a59130960e01b815260040161029a9190612694565b60008383815181106114db576114db612992565b602002602001015190507f00000000000000000000000000000000000000000000000000000000000000006001600160a01b031663e2a4853a61151e8885611e90565b836040518363ffffffff1660e01b815260040161153c92919061290b565b6020604051808303816000875af115801561155b573d6000803e3d6000fd5b505050506040513d601f19601f8201168201806040525081019061157f9190612919565b50611588612386565b8051611595906002611f2e565b6040805180820190915260078152661858d8dbdd5b9d60ca1b602082015281516115c2916000908a611f93565b6040805180820190915260058152643a37b5b2b760d91b602082015281516115ed9160019086611f93565b60208101516115fd906001611f2e565b611637600060405180604001604052806006815260200165185b5bdd5b9d60d21b815250848460200151611ff0909392919063ffffffff16565b7f00000000000000000000000000000000000000000000000000000000000000006001600160a01b03166324de01e461166f89612043565b836040518363ffffffff1660e01b815260040161168d92919061337c565b600060405180830381600087803b1580156116a757600080fd5b505af11580156116bb573d6000803e3d6000fd5b5050600190950194506113ce9350505050565b506116d7611979565b61046b6001600055565b6116e9611739565b6116fb60405160200161038090612932565b7f00000000000000000000000000000000000000000000000000000000000000006001600160a01b031663b348e639604051602001611155906129a8565b60026000540361178b5760405162461bcd60e51b815260206004820152601f60248201527f5265656e7472616e637947756172643a207265656e7472616e742063616c6c00604482015260640161029a565b6002600055565b60405163ac4ab3fb60e01b8152336004820152602481018390527f00000000000000000000000000000000000000000000000000000000000000006001600160a01b03169063ac4ab3fb90604401602060405180830381865afa1580156117fd573d6000803e3d6000fd5b505050506040513d601f19601f8201168201806040525081019061182191906129d8565b61067d57338160405163a35b150b60e01b815260040161029a9291906133c0565b60006040516020016118909060208082526022908201527f435553544f4d5f434f4e5452494255544f525f46554e44494e475f4143434f55604082015261139560f21b606082015260800190565b60408051601f198184030181528282528051602091820120908301526001600160a01b03808616918301919091528316606082015260800160405160208183030381529060405280519060200120905092915050565b60006040516020016119349060208082526022908201527f4d41585f544f54414c5f434f4e5452494255544f525f544f4b454e5f414d4f55604082015261139560f21b606082015260800190565b604051602081830303815290604052805190602001208260405160200161195c92919061295e565b604051602081830303815290604052805190602001209050919050565b60007f00000000000000000000000000000000000000000000000000000000000000006001600160a01b03166335ea80596040516020016119b9906129a8565b604051602081830303815290604052805190602001206040518263ffffffff1660e01b81526004016119ed91815260200190565b602060405180830381865afa158015611a0a573d6000803e3d6000fd5b505050506040513d601f19601f82011682018060405250810190611a2e9190612919565b905060007f00000000000000000000000000000000000000000000000000000000000000006001600160a01b03166335ea8059604051602001611a7090612a50565b604051602081830303815290604052805190602001206040518263ffffffff1660e01b8152600401611aa491815260200190565b602060405180830381865afa158015611ac1573d6000803e3d6000fd5b505050506040513d601f19601f82011682018060405250810190611ae59190612919565b905060007f00000000000000000000000000000000000000000000000000000000000000006001600160a01b031663e7e4148e604051602001611b27906129a8565b604051602081830303815290604052805190602001206000866040518463ffffffff1660e01b8152600401611b5e93929190612a82565b600060405180830381865afa158015611b7b573d6000803e3d6000fd5b505050506040513d6000823e601f3d908101601f19168201604052611ba39190810190612a98565b905060007f00000000000000000000000000000000000000000000000000000000000000006001600160a01b031663e7e4148e604051602001611be590612a50565b604051602081830303815290604052805190602001206000866040518463ffffffff1660e01b8152600401611c1c93929190612a82565b600060405180830381865afa158015611c39573d6000803e3d6000fd5b505050506040513d6000823e601f3d908101601f19168201604052611c619190810190612a98565b905060005b84811015611e48576000838281518110611c8257611c82612992565b602002602001015190506000805b86811015611d68576000858281518110611cac57611cac612992565b6020026020010151905060007f00000000000000000000000000000000000000000000000000000000000000006001600160a01b031663bd02d0f5611cf18488611e90565b6040518263ffffffff1660e01b8152600401611d0f91815260200190565b602060405180830381865afa158015611d2c573d6000803e3d6000fd5b505050506040513d601f19601f82011682018060405250810190611d509190612919565b9050611d5c8185612a2f565b93505050600101611c90565b5060007f00000000000000000000000000000000000000000000000000000000000000006001600160a01b031663bd02d0f5611da3856118e6565b6040518263ffffffff1660e01b8152600401611dc191815260200190565b602060405180830381865afa158015611dde573d6000803e3d6000fd5b505050506040513d601f19601f82011682018060405250810190611e029190612919565b905080821115611e3d576040516243038f60e41b81526001600160a01b0384166004820152602481018390526044810182905260640161029a565b505050600101611c66565b5050505050565b6000604051602001611934906020808252601b908201527a10d3d395149250955513d497d1955391125391d7d050d0d3d55395602a1b604082015260600190565b60006040516020016118909060208082526018908201527710d3d395149250955513d497d513d2d15397d05353d5539560421b604082015260600190565b604080516001600160a01b0385811660248301528416604482015260648082018490528251808303909101815260849091019091526020810180516001600160e01b03166323b872dd60e01b179052611f28908590612088565b50505050565b806001600160401b03811115611f4657611f466124f0565b604051908082528060200260200182016040528015611f8c57816020015b604080518082019091526060815260006020820152815260200190600190039081611f645790505b5090915250565b8184600001518481518110611faa57611faa612992565b6020026020010151600001819052508084600001518481518110611fd057611fd0612992565b6020908102919091018101516001600160a01b0390921691015250505050565b818460000151848151811061200757612007612992565b602002602001015160000181905250808460000151848151811061202d5761202d612992565b6020026020010151602001818152505050505050565b6001600160a01b031690565b60008061205b8361215d565b91509150801561207f578160405162461bcd60e51b815260040161029a91906133e4565b61046b836121ed565b60006120dd826040518060400160405280602081526020017f5361666545524332303a206c6f772d6c6576656c2063616c6c206661696c6564815250856001600160a01b03166121f69092919063ffffffff16565b90508051600014806120fe5750808060200190518101906120fe91906129d8565b61046b5760405162461bcd60e51b815260206004820152602a60248201527f5361666545524332303a204552433230206f7065726174696f6e20646964206e6044820152691bdd081cdd58d8d9595960b21b606482015260840161029a565b60606000604483511015612184575050604080516020810190915260008082529092909150565b6000612191846020015190565b90506307b9e43360e51b6001600160e01b03198216016121d057600484019350838060200190518101906121c591906133f7565b946001945092505050565b600060405180602001604052806000815250909250925050915091565b80518060208301fd5b6060612205848460008561220d565b949350505050565b60608247101561226e5760405162461bcd60e51b815260206004820152602660248201527f416464726573733a20696e73756666696369656e742062616c616e636520666f6044820152651c8818d85b1b60d21b606482015260840161029a565b600080866001600160a01b0316858760405161228a9190613482565b60006040518083038185875af1925050503d80600081146122c7576040519150601f19603f3d011682016040523d82523d6000602084013e6122cc565b606091505b50915091506122dd878383876122e8565b979650505050505050565b60608315612357578251600003612350576001600160a01b0385163b6123505760405162461bcd60e51b815260206004820152601d60248201527f416464726573733a2063616c6c20746f206e6f6e2d636f6e7472616374000000604482015260640161029a565b5081612205565b612205838381511561236c5781518083602001fd5b8060405162461bcd60e51b815260040161029a91906133e4565b604080516101208101909152606060e08201818152610100830191909152819081526020016123c8604051806040016040528060608152602001606081525090565b81526020016123ea604051806040016040528060608152602001606081525090565b815260200161240c604051806040016040528060608152602001606081525090565b815260200161242e604051806040016040528060608152602001606081525090565b8152602001612450604051806040016040528060608152602001606081525090565b8152602001612472604051806040016040528060608152602001606081525090565b905290565b60006020828403121561248957600080fd5b5035919050565b6001600160a01b038116811461036357600080fd5b6000806000606084860312156124ba57600080fd5b83356124c581612490565b925060208401356124d581612490565b915060408401356124e581612490565b809150509250925092565b634e487b7160e01b600052604160045260246000fd5b604051601f8201601f191681016001600160401b038111828210171561252e5761252e6124f0565b604052919050565b60006001600160401b0382111561254f5761254f6124f0565b5060051b60200190565b600082601f83011261256a57600080fd5b813561257d61257882612536565b612506565b8082825260208201915060208360051b86010192508583111561259f57600080fd5b602085015b838110156125c55780356125b781612490565b8352602092830192016125a4565b5095945050505050565b600082601f8301126125e057600080fd5b81356125ee61257882612536565b8082825260208201915060208360051b86010192508583111561261057600080fd5b602085015b838110156125c5578035835260209283019201612615565b6000806040838503121561264057600080fd5b82356001600160401b0381111561265657600080fd5b61266285828601612559565b92505060208301356001600160401b0381111561267e57600080fd5b61268a858286016125cf565b9150509250929050565b6001600160a01b0391909116815260200190565b600080604083850312156126bb57600080fd5b82356126c681612490565b915060208301356126d681612490565b809150509250929050565b6000602082840312156126f357600080fd5b81356126fe81612490565b9392505050565b6000806020838503121561271857600080fd5b82356001600160401b0381111561272e57600080fd5b8301601f8101851361273f57600080fd5b80356001600160401b0381111561275557600080fd5b8560208260051b840101111561276a57600080fd5b6020919091019590945092505050565b60005b8381101561279557818101518382015260200161277d565b50506000910152565b600081518084526127b681602086016020860161277a565b601f01601f19169290920160200192915050565b600082825180855260208501945060208160051b8301016020850160005b8381101561281a57601f1985840301885261280483835161279e565b60209889019890935091909101906001016127e8565b50909695505050505050565b6020815260006126fe60208301846127ca565b60008060006060848603121561284e57600080fd5b833561285981612490565b925060208401356001600160401b0381111561287457600080fd5b61288086828701612559565b92505060408401356001600160401b0381111561289c57600080fd5b6128a8868287016125cf565b9150509250925092565b6020808252600a908201526921a7a72a2927a62622a960b11b604082015260600190565b6020808252818101527f4d494e5f434f4e5452494255544f525f5041594d454e545f494e54455256414c604082015260600190565b918252602082015260400190565b60006020828403121561292b57600080fd5b5051919050565b60208082526012908201527121a7a72a2924a12aaa27a92fa5a2a2a822a960711b604082015260600190565b9182526001600160a01b0316602082015260400190565b60006020828403121561298757600080fd5b81516126fe81612490565b634e487b7160e01b600052603260045260246000fd5b60208082526016908201527510d3d395149250955513d497d513d2d15397d31254d560521b604082015260600190565b6000602082840312156129ea57600080fd5b815180151581146126fe57600080fd5b6020808252601b908201527a10d3d395149250955513d497d31054d517d410565351539517d055602a1b604082015260600190565b808201808211156112d357634e487b7160e01b600052601160045260246000fd5b60208082526018908201527710d3d395149250955513d497d050d0d3d5539517d31254d560421b604082015260600190565b9283526020830191909152604082015260600190565b600060208284031215612aaa57600080fd5b81516001600160401b03811115612ac057600080fd5b8201601f81018413612ad157600080fd5b8051612adf61257882612536565b8082825260208201915060208360051b850101925086831115612b0157600080fd5b6020840193505b82841015612b2c578351612b1b81612490565b825260209384019390910190612b08565b9695505050505050565b600082825180855260208501945060208160051b8301016020850160005b8381101561281a57601f198584030188528151805160408552612b7a604086018261279e565b6020928301518682038785015280518083529084019360009350909101905b80831015612bc45783516001600160a01b031682526020938401936001939093019290910190612b99565b5060209a8b019a90955093909301925050600101612b54565b60006040830182516040855281815180845260608701915060608160051b880101935060208301925060005b81811015612c5757605f198886030183528351805160408752612c2f604088018261279e565b6020928301516001600160a01b03169783019790975250938401939290920191600101612c09565b5050505060208301518482036020860152612c728282612b36565b95945050505050565b600082825180855260208501945060208160051b8301016020850160005b8381101561281a57601f198584030188528151805160408552612cbf604086018261279e565b6020928301518682038785015280518083529084019360009350909101905b80831015612d015783518252602082019150602084019350600183019250612cde565b5060209a8b019a90955093909301925050600101612c99565b60006040830182516040855281815180845260608701915060608160051b880101935060208301925060005b81811015612d8b57605f198886030183528351805160408752612d6c604088018261279e565b6020928301519783019790975250938401939290920191600101612d46565b5050505060208301518482036020860152612c728282612c7b565b60006040830182516040855281815180845260608701915060608160051b880101935060208301925060005b81811015612d8b57605f198886030183528351805160408752612df8604088018261279e565b6020928301519783019790975250938401939290920191600101612dd2565b600082825180855260208501945060208160051b8301016020850160005b8381101561281a57601f198584030188528151805160408552612e5b604086018261279e565b6020928301518682038785015280518083529084019360009350909101905b80831015612e9f57835115158252602082019150602084019350600183019250612e7a565b5060209a8b019a90955093909301925050600101612e35565b60006040830182516040855281815180845260608701915060608160051b880101935060208301925060005b81811015612f2b57605f198886030183528351805160408752612f0a604088018261279e565b60209283015115159783019790975250938401939290920191600101612ee4565b5050505060208301518482036020860152612c728282612e17565b60006040830182516040855281815180845260608701915060608160051b880101935060208301925060005b81811015612d8b57605f198886030183528351805160408752612f98604088018261279e565b6020928301519783019790975250938401939290920191600101612f72565b600082825180855260208501945060208160051b8301016020850160005b8381101561281a57601f198584030188528151805160408552612ffb604086018261279e565b905060208201519150848103602086015261301681836127ca565b60209a8b019a90955093909301925050600101612fd5565b60006040830182516040855281815180845260608701915060608160051b880101935060208301925060005b818110156130b257605f198886030183528351805160408752613080604088018261279e565b905060208201519150868103602088015261309b818361279e565b96505050602093840193929092019160010161305a565b5050505060208301518482036020860152612c728282612fb7565b600082825180855260208501945060208160051b8301016020850160005b8381101561281a57601f198584030188528151805160408552613111604086018261279e565b6020928301518682038785015280518083529084019391925081830191600582901b84010160005b8281101561316a57601f1985830301845261315582875161279e565b60209687019694909401939150600101613139565b5080975050505050506020820191506020880197506001810190506130eb565b60006040830182516040855281815180845260608701915060608160051b880101935060208301925060005b8181101561320e57605f1988860301835283518051604087526131dc604088018261279e565b90506020820151915086810360208801526131f7818361279e565b9650505060209384019392909201916001016131b6565b5050505060208301518482036020860152612c7282826130cd565b6000815160e0845261323e60e0850182612bdd565b9050602083015184820360208601526132578282612d1a565b915050604083015184820360408601526132718282612da6565b9150506060830151848203606086015261328b8282612eb8565b915050608083015184820360808601526132a58282612f46565b91505060a083015184820360a08601526132bf828261302e565b91505060c083015184820360c0860152612c72828261318a565b60608152601660608201527514d95b9910dbdb9d1c9a589d5d1bdc94185e5b595b9d60521b608082015282602082015260a06040820152600061220560a0830184613229565b6000808335601e1984360301811261333657600080fd5b8301803591506001600160401b0382111561335057600080fd5b60200191503681900382131561336557600080fd5b9250929050565b8183823760009101908152919050565b60608152601460608201527314d95d10dbdb9d1c9a589d5d1bdc905b5bdd5b9d60621b608082015282602082015260a06040820152600061220560a0830184613229565b6001600160a01b03831681526040602082018190526000906122059083018461279e565b6020815260006126fe602083018461279e565b60006020828403121561340957600080fd5b81516001600160401b0381111561341f57600080fd5b8201601f8101841361343057600080fd5b80516001600160401b03811115613449576134496124f0565b61345c601f8201601f1916602001612506565b81815285602083850101111561347157600080fd5b612c7282602083016020860161277a565b6000825161349481846020870161277a565b919091019291505056fea264697066735822122012cd08541a8b8e233fab9627cd3527a4e5f4c3a68feeeea33edf3d0b0f5a445f64736f6c634300081d0033",
  "libraries": {},
  "devdoc": {
    "kind": "dev",
    "methods": {
      "multicall(bytes[])": {
        "details": "Receives and executes a batch of function calls on this contract."
      }
    },
    "version": 1
  },
  "userdoc": {
    "kind": "user",
    "methods": {},
    "version": 1
  },
  "storageLayout": {
    "storage": [
      {
        "astId": 11968,
        "contract": "contracts/contributor/ContributorHandler.sol:ContributorHandler",
        "label": "_status",
        "offset": 0,
        "slot": "0",
        "type": "t_uint256"
      }
    ],
    "types": {
      "t_uint256": {
        "encoding": "inplace",
        "label": "uint256",
        "numberOfBytes": "32"
      }
    }
  }
}