{
  "address": "0xD5e1861D4B3f5c876B0c4fB7f52ab96aB8666B37",
  "abi": [
    {
      "inputs": [
        {
          "internalType": "address",
          "name": "_trustedSigner",
          "type": "address"
        }
      ],
      "stateMutability": "nonpayable",
      "type": "constructor"
    },
    {
      "inputs": [
        {
          "internalType": "uint256",
          "name": "recoverError",
          "type": "uint256"
        }
      ],
      "name": "InvalidEdgeSignature",
      "type": "error"
    },
    {
      "inputs": [],
      "name": "InvalidEdgeSigner",
      "type": "error"
    },
    {
      "inputs": [],
      "name": "InvalidTrustedSignerAddress",
      "type": "error"
    },
    {
      "inputs": [
        {
          "internalType": "string",
          "name": "feedId",
          "type": "string"
        },
        {
          "internalType": "uint192",
          "name": "price",
          "type": "uint192"
        },
        {
          "internalType": "uint32",
          "name": "roundId",
          "type": "uint32"
        },
        {
          "internalType": "uint32",
          "name": "timestamp",
          "type": "uint32"
        },
        {
          "internalType": "uint256",
          "name": "bid",
          "type": "uint256"
        },
        {
          "internalType": "uint256",
          "name": "ask",
          "type": "uint256"
        },
        {
          "internalType": "bytes",
          "name": "signature",
          "type": "bytes"
        }
      ],
      "name": "extractSigner",
      "outputs": [
        {
          "internalType": "address",
          "name": "",
          "type": "address"
        }
      ],
      "stateMutability": "pure",
      "type": "function"
    },
    {
      "inputs": [
        {
          "internalType": "string",
          "name": "feedId",
          "type": "string"
        },
        {
          "internalType": "uint192",
          "name": "price",
          "type": "uint192"
        },
        {
          "internalType": "uint32",
          "name": "roundId",
          "type": "uint32"
        },
        {
          "internalType": "uint32",
          "name": "timestamp",
          "type": "uint32"
        },
        {
          "internalType": "uint256",
          "name": "bid",
          "type": "uint256"
        },
        {
          "internalType": "uint256",
          "name": "ask",
          "type": "uint256"
        }
      ],
      "name": "getMessageHash",
      "outputs": [
        {
          "internalType": "bytes32",
          "name": "",
          "type": "bytes32"
        }
      ],
      "stateMutability": "pure",
      "type": "function"
    },
    {
      "inputs": [],
      "name": "trustedSigner",
      "outputs": [
        {
          "internalType": "address",
          "name": "",
          "type": "address"
        }
      ],
      "stateMutability": "view",
      "type": "function"
    },
    {
      "inputs": [
        {
          "internalType": "bytes",
          "name": "data",
          "type": "bytes"
        }
      ],
      "name": "verifyData",
      "outputs": [
        {
          "components": [
            {
              "internalType": "bytes32",
              "name": "feedId",
              "type": "bytes32"
            },
            {
              "internalType": "uint256",
              "name": "bid",
              "type": "uint256"
            },
            {
              "internalType": "uint256",
              "name": "ask",
              "type": "uint256"
            },
            {
              "internalType": "uint32",
              "name": "timestamp",
              "type": "uint32"
            },
            {
              "internalType": "int32",
              "name": "expo",
              "type": "int32"
            }
          ],
          "internalType": "struct EdgeDataStreamVerifier.Report",
          "name": "",
          "type": "tuple"
        }
      ],
      "stateMutability": "view",
      "type": "function"
    },
    {
      "inputs": [
        {
          "internalType": "string",
          "name": "feedId",
          "type": "string"
        },
        {
          "internalType": "uint192",
          "name": "price",
          "type": "uint192"
        },
        {
          "internalType": "uint32",
          "name": "roundId",
          "type": "uint32"
        },
        {
          "internalType": "uint32",
          "name": "timestamp",
          "type": "uint32"
        },
        {
          "internalType": "uint256",
          "name": "bid",
          "type": "uint256"
        },
        {
          "internalType": "uint256",
          "name": "ask",
          "type": "uint256"
        },
        {
          "internalType": "bytes",
          "name": "signature",
          "type": "bytes"
        }
      ],
      "name": "verifySignature",
      "outputs": [
        {
          "internalType": "bool",
          "name": "",
          "type": "bool"
        }
      ],
      "stateMutability": "view",
      "type": "function"
    }
  ],
  "transactionHash": "0x0958bd52f418abeb379471e31ad43785d3bc4e3178560394b784eeba34ddf85f",
  "args": [
    "0x1C498E2FE362e489A5Aac71690f9121914e0d55e"
  ],
  "numDeployments": 1,
  "solcInputHash": "71f4ffea0231d83b1ca2bfb33fa0be6f",
  "bytecode": "0x60a060405234801561001057600080fd5b50604051610a97380380610a9783398101604081905261002f91610067565b6001600160a01b03811661005657604051639e5d5cf360e01b815260040160405180910390fd5b6001600160a01b0316608052610097565b60006020828403121561007957600080fd5b81516001600160a01b038116811461009057600080fd5b9392505050565b6080516109de6100b960003960008181610133015261029001526109de6000f3fe608060405234801561001057600080fd5b50600436106100575760003560e01c806368d20a881461005c57806375c5ebb5146100825780639cddfee1146100e0578063a8cce85614610103578063f74d54801461012e575b600080fd5b61006f61006a366004610656565b610155565b6040519081526020015b60405180910390f35b6100956100903660046106d6565b6101c9565b6040516100799190600060a08201905082518252602083015160208301526040830151604083015263ffffffff6060840151166060830152608083015160030b608083015292915050565b6100f36100ee366004610747565b61028c565b6040519015158152602001610079565b610116610111366004610747565b6102dd565b6040516001600160a01b039091168152602001610079565b6101167f000000000000000000000000000000000000000000000000000000000000000081565b600080610163886020610360565b61016c8861043c565b6101758861043c565b61017e8861043c565b6101878861043c565b6101908861043c565b6040516020016101a59695949392919061081f565b60408051808303601f19018152919052805160209091012098975050505050505050565b6040805160a081018252600080825260208201819052918101829052606081018290526080810182905290808080808080806102078b8b018c610864565b975097509750975097509750975097506102268888888888888861028c565b61024357604051638a1cc36b60e01b815260040160405180910390fd5b6040518060a001604052806102578a610466565b81526020018581526020018481526020018663ffffffff1681526020018260030b815250985050505050505050505b92915050565b60007f00000000000000000000000000000000000000000000000000000000000000006001600160a01b03166102c7898989898989896102dd565b6001600160a01b03161498975050505050505050565b6000806102ee898989898989610155565b90506000806102fd8386610485565b9092509050600081600481111561031657610316610927565b146103525780600481111561032d5761032d610927565b60405163545e155f60e01b815260040161034991815260200190565b60405180910390fd5b509998505050505050505050565b60606000826001600160401b0381111561037c5761037c610584565b6040519080825280601f01601f1916602001820160405280156103a6576020820181803683370190505b508451909150838111156103b75750825b60005b81811015610432578581815181106103d4576103d461093d565b01602001516001600160f81b03191683826103ef8589610969565b6103f9919061097c565b815181106104095761040961093d565b60200101906001600160f81b031916908160001a9053508061042a8161098f565b9150506103ba565b5090949350505050565b60408051602080825281830190925260609160208201818036833750505060208101929092525090565b80516000908290820361047c5750600092915050565b50506020015190565b60008082516041036104bb5760208301516040840151606085015160001a6104af878285856104ca565b945094505050506104c3565b506000905060025b9250929050565b6000806fa2a8918ca85bafe22016d0b997e4df60600160ff1b038311156104f7575060009050600361057b565b6040805160008082526020820180845289905260ff881692820192909252606081018690526080810185905260019060a0016020604051602081039080840390855afa15801561054b573d6000803e3d6000fd5b5050604051601f1901519150506001600160a01b0381166105745760006001925092505061057b565b9150600090505b94509492505050565b634e487b7160e01b600052604160045260246000fd5b600082601f8301126105ab57600080fd5b81356001600160401b03808211156105c5576105c5610584565b604051601f8301601f19908116603f011681019082821181831017156105ed576105ed610584565b8160405283815286602085880101111561060657600080fd5b836020870160208301376000602085830101528094505050505092915050565b80356001600160c01b038116811461063d57600080fd5b919050565b803563ffffffff8116811461063d57600080fd5b60008060008060008060c0878903121561066f57600080fd5b86356001600160401b0381111561068557600080fd5b61069189828a0161059a565b9650506106a060208801610626565b94506106ae60408801610642565b93506106bc60608801610642565b92506080870135915060a087013590509295509295509295565b600080602083850312156106e957600080fd5b82356001600160401b038082111561070057600080fd5b818501915085601f83011261071457600080fd5b81358181111561072357600080fd5b86602082850101111561073557600080fd5b60209290920196919550909350505050565b600080600080600080600060e0888a03121561076257600080fd5b87356001600160401b038082111561077957600080fd5b6107858b838c0161059a565b985061079360208b01610626565b97506107a160408b01610642565b96506107af60608b01610642565b955060808a0135945060a08a0135935060c08a01359150808211156107d357600080fd5b506107e08a828b0161059a565b91505092959891949750929550565b6000815160005b8181101561081057602081850181015186830152016107f6565b50600093019283525090919050565b600061085861085261084c61084661084061083a878e6107ef565b8c6107ef565b8a6107ef565b886107ef565b866107ef565b846107ef565b98975050505050505050565b600080600080600080600080610100898b03121561088157600080fd5b88356001600160401b038082111561089857600080fd5b6108a48c838d0161059a565b99506108b260208c01610626565b98506108c060408c01610642565b97506108ce60608c01610642565b965060808b0135955060a08b0135945060c08b01359150808211156108f257600080fd5b506108ff8b828c0161059a565b92505060e08901358060030b811461091657600080fd5b809150509295985092959890939650565b634e487b7160e01b600052602160045260246000fd5b634e487b7160e01b600052603260045260246000fd5b634e487b7160e01b600052601160045260246000fd5b8181038181111561028657610286610953565b8082018082111561028657610286610953565b6000600182016109a1576109a1610953565b506001019056fea2646970667358221220e51ed755e2dbfbdc454765c1b5f679efe266719cf947debe35255fd3c7c9a31b64736f6c63430008140033",
  "libraries": {},
  "devdoc": {
    "kind": "dev",
    "methods": {
      "constructor": {
        "details": "Constructor to set the trusted signer address",
        "params": {
          "_trustedSigner": "The address of the trusted signer"
        }
      },
      "extractSigner(string,uint192,uint32,uint32,uint256,uint256,bytes)": {
        "details": "Extracts address that signed price feed message",
        "params": {
          "ask": "The best ask price",
          "bid": "The best bid price",
          "feedId": "The ID of the price feed (e.g., \"BTCUSD\")",
          "price": "The price value",
          "roundId": "The round ID",
          "signature": "The signature to verify",
          "timestamp": "The timestamp of the observation"
        },
        "returns": {
          "_0": "True if the signature is valid, false otherwise"
        }
      },
      "getMessageHash(string,uint192,uint32,uint32,uint256,uint256)": {
        "details": "Creates a hash of the serialized price data in the same format as server does"
      }
    },
    "version": 1
  },
  "userdoc": {
    "kind": "user",
    "methods": {},
    "version": 1
  },
  "storageLayout": {
    "storage": [],
    "types": null
  }
}