{
  "address": "0x7a3e6D18f88F5E3B9cD7441cB556BE1599f86134",
  "abi": [
    {
      "inputs": [
        {
          "internalType": "contract DataStore",
          "name": "_dataStore",
          "type": "address"
        },
        {
          "internalType": "contract RoleStore",
          "name": "_roleStore",
          "type": "address"
        },
        {
          "internalType": "contract EventEmitter",
          "name": "_eventEmitter",
          "type": "address"
        },
        {
          "internalType": "contract MultichainVault",
          "name": "_multichainVault",
          "type": "address"
        },
        {
          "internalType": "contract IMultichainGmRouter",
          "name": "_multichainGmRouter",
          "type": "address"
        },
        {
          "internalType": "contract IMultichainGlvRouter",
          "name": "_multichainGlvRouter",
          "type": "address"
        }
      ],
      "stateMutability": "nonpayable",
      "type": "constructor"
    },
    {
      "inputs": [],
      "name": "EmptyHoldingAddress",
      "type": "error"
    },
    {
      "inputs": [],
      "name": "EmptyReceiver",
      "type": "error"
    },
    {
      "inputs": [
        {
          "internalType": "address",
          "name": "token",
          "type": "address"
        }
      ],
      "name": "EmptyTokenTranferGasLimit",
      "type": "error"
    },
    {
      "inputs": [],
      "name": "EmptyWithdrawalAmount",
      "type": "error"
    },
    {
      "inputs": [
        {
          "internalType": "address",
          "name": "token",
          "type": "address"
        }
      ],
      "name": "InvalidBridgeOutToken",
      "type": "error"
    },
    {
      "inputs": [
        {
          "internalType": "address",
          "name": "token",
          "type": "address"
        },
        {
          "internalType": "address",
          "name": "receiver",
          "type": "address"
        },
        {
          "internalType": "uint256",
          "name": "amount",
          "type": "uint256"
        }
      ],
      "name": "TokenTransferError",
      "type": "error"
    },
    {
      "inputs": [
        {
          "internalType": "address",
          "name": "msgSender",
          "type": "address"
        },
        {
          "internalType": "string",
          "name": "role",
          "type": "string"
        }
      ],
      "name": "Unauthorized",
      "type": "error"
    },
    {
      "anonymous": false,
      "inputs": [
        {
          "indexed": false,
          "internalType": "string",
          "name": "reason",
          "type": "string"
        },
        {
          "indexed": false,
          "internalType": "bytes",
          "name": "returndata",
          "type": "bytes"
        }
      ],
      "name": "TokenTransferReverted",
      "type": "event"
    },
    {
      "inputs": [
        {
          "components": [
            {
              "internalType": "address",
              "name": "provider",
              "type": "address"
            },
            {
              "internalType": "address",
              "name": "account",
              "type": "address"
            },
            {
              "internalType": "address",
              "name": "token",
              "type": "address"
            },
            {
              "internalType": "uint256",
              "name": "amount",
              "type": "uint256"
            },
            {
              "internalType": "bytes",
              "name": "data",
              "type": "bytes"
            }
          ],
          "internalType": "struct IMultichainProvider.BridgeOutParams",
          "name": "params",
          "type": "tuple"
        }
      ],
      "name": "bridgeOut",
      "outputs": [
        {
          "internalType": "uint256",
          "name": "",
          "type": "uint256"
        }
      ],
      "stateMutability": "nonpayable",
      "type": "function"
    },
    {
      "inputs": [],
      "name": "dataStore",
      "outputs": [
        {
          "internalType": "contract DataStore",
          "name": "",
          "type": "address"
        }
      ],
      "stateMutability": "view",
      "type": "function"
    },
    {
      "inputs": [],
      "name": "eventEmitter",
      "outputs": [
        {
          "internalType": "contract EventEmitter",
          "name": "",
          "type": "address"
        }
      ],
      "stateMutability": "view",
      "type": "function"
    },
    {
      "inputs": [
        {
          "internalType": "address",
          "name": "from",
          "type": "address"
        },
        {
          "internalType": "bytes32",
          "name": "",
          "type": "bytes32"
        },
        {
          "internalType": "bytes",
          "name": "message",
          "type": "bytes"
        },
        {
          "internalType": "address",
          "name": "",
          "type": "address"
        },
        {
          "internalType": "bytes",
          "name": "",
          "type": "bytes"
        }
      ],
      "name": "lzCompose",
      "outputs": [],
      "stateMutability": "payable",
      "type": "function"
    },
    {
      "inputs": [],
      "name": "multichainGlvRouter",
      "outputs": [
        {
          "internalType": "contract IMultichainGlvRouter",
          "name": "",
          "type": "address"
        }
      ],
      "stateMutability": "view",
      "type": "function"
    },
    {
      "inputs": [],
      "name": "multichainGmRouter",
      "outputs": [
        {
          "internalType": "contract IMultichainGmRouter",
          "name": "",
          "type": "address"
        }
      ],
      "stateMutability": "view",
      "type": "function"
    },
    {
      "inputs": [],
      "name": "multichainVault",
      "outputs": [
        {
          "internalType": "contract MultichainVault",
          "name": "",
          "type": "address"
        }
      ],
      "stateMutability": "view",
      "type": "function"
    },
    {
      "inputs": [],
      "name": "roleStore",
      "outputs": [
        {
          "internalType": "contract RoleStore",
          "name": "",
          "type": "address"
        }
      ],
      "stateMutability": "view",
      "type": "function"
    },
    {
      "inputs": [
        {
          "internalType": "address",
          "name": "token",
          "type": "address"
        },
        {
          "internalType": "address",
          "name": "receiver",
          "type": "address"
        },
        {
          "internalType": "uint256",
          "name": "amount",
          "type": "uint256"
        }
      ],
      "name": "withdrawTokens",
      "outputs": [],
      "stateMutability": "nonpayable",
      "type": "function"
    },
    {
      "stateMutability": "payable",
      "type": "receive"
    }
  ],
  "transactionHash": "0xbf2c060fa132a5745f9977de84f926fb851e6723b67e0cb404587a21a861f832",
  "args": [
    "0xAd4759d41195aA5bA8592b8c9B454CD4E1735841",
    "0x55EC3A5B813ECe1ad6C112D358e9Fb08A1402d0a",
    "0x218f23Eb65F1C5939fDbadd46246c47b82dc8998",
    "0xbFaD74Ce7e3D203B6653368C9903AcF633c5D405",
    "0x5D347EDD2A97E8389B2f1E7390DB9B3954164A4F",
    "0xD34926dE6EAa481bD6CA947e009e384AF23e07F1"
  ],
  "numDeployments": 1,
  "solcInputHash": "d7554305745d5457b733f343bba577d9",
  "bytecode": "0x6101406040523480156200001257600080fd5b5060405162004d6038038062004d6083398101604081905262000035916200007e565b6001600160a01b0394851660805294841660a05291831660c052821660e052811661010052166101205262000112565b6001600160a01b03811681146200007b57600080fd5b50565b60008060008060008060c087890312156200009857600080fd5b8651620000a58162000065565b6020880151909650620000b88162000065565b6040880151909550620000cb8162000065565b6060880151909450620000de8162000065565b6080880151909350620000f18162000065565b60a0880151909250620001048162000065565b809150509295509295509295565b60805160a05160c05160e0516101005161012051614afd62000263600039600081816102150152611cc401526000818160e20152611afa015260008181610116015281816106cb0152818161087c0152818161091901528181610a6101528181610c3701528181610cd101528181610f5e01528181610fda01526110720152600081816101a0015281816106a9015281816108f701528181610a4001528181610ca90152818161105001528181611ba201528181611c160152611c4b01526000818161016c015281816102bb015281816102eb015281816103380152818161057701528181610687015281816107a20152818161085a015281816108d501528181610a1f01528181610c1501528181610c8101528181610db101528181610e3a01528181610f3d01528181610f8801528181610fb8015261102e015260008181609801526111680152614afd6000f3fe60806040526004361061007a5760003560e01c80634a4a7b041461008657806350212de8146100d0578063528a65f4146101045780635e35359e14610138578063660d0d671461015a5780639ff78c301461018e578063a41e91d2146101c2578063d0a10260146101f0578063f1df711b1461020357600080fd5b3661008157005b600080fd5b34801561009257600080fd5b506100ba7f000000000000000000000000000000000000000000000000000000000000000081565b6040516100c79190612705565b60405180910390f35b3480156100dc57600080fd5b506100ba7f000000000000000000000000000000000000000000000000000000000000000081565b34801561011057600080fd5b506100ba7f000000000000000000000000000000000000000000000000000000000000000081565b34801561014457600080fd5b5061015861015336600461272e565b610237565b005b34801561016657600080fd5b506100ba7f000000000000000000000000000000000000000000000000000000000000000081565b34801561019a57600080fd5b506100ba7f000000000000000000000000000000000000000000000000000000000000000081565b3480156101ce57600080fd5b506101e26101dd3660046128d7565b610312565b6040519081526020016100c7565b6101586101fe366004612a1e565b610d82565b34801561020f57600080fd5b506100ba7f000000000000000000000000000000000000000000000000000000000000000081565b61028760405160200161024990612abe565b604051602081830303815290604052805190602001206040518060400160405280600a81526020016921a7a72a2927a62622a960b11b815250611151565b806000036102a8576040516301d6f7b160e01b815260040160405180910390fd5b6001600160a01b0383166102e6576102e17f00000000000000000000000000000000000000000000000000000000000000008383611205565b505050565b6102e17f00000000000000000000000000000000000000000000000000000000000000008484846112df565b600061032660405160200161024990612abe565b81516040516000906001600160a01b037f000000000000000000000000000000000000000000000000000000000000000016906321f8a7219061036b90602001612ae2565b604051602081830303815290604052805190602001206040518263ffffffff1660e01b815260040161039f91815260200190565b602060405180830381865afa1580156103bc573d6000803e3d6000fd5b505050506040513d601f19601f820116820180604052508101906103e09190612b0a565b905060006001600160a01b0316826001600160a01b031663fc0c546a6040518163ffffffff1660e01b8152600401602060405180830381865afa15801561042b573d6000803e3d6000fd5b505050506040513d601f19601f8201168201806040525081019061044f9190612b0a565b6001600160a01b0316036104a757806001600160a01b031684604001516001600160a01b0316146104a2578360400151604051632877599b60e01b81526004016104999190612705565b60405180910390fd5b610544565b816001600160a01b031663fc0c546a6040518163ffffffff1660e01b8152600401602060405180830381865afa1580156104e5573d6000803e3d6000fd5b505050506040513d601f19601f820116820180604052508101906105099190612b0a565b6001600160a01b031684604001516001600160a01b031614610544578360400151604051632877599b60e01b81526004016104999190612705565b61054c612540565b84608001518060200190518101906105649190612b3b565b63ffffffff168082526001600160a01b037f0000000000000000000000000000000000000000000000000000000000000000169063bd02d0f5906105a79061152f565b6040518263ffffffff1660e01b81526004016105c591815260200190565b602060405180830381865afa1580156105e2573d6000803e3d6000fd5b505050506040513d601f19601f820116820180604052508101906106069190612b61565b816020018181525050610627838660600151876020015184600001516115b0565b60c0850181905260a0850191909152608084019190915260408084019283529051606088015260208781015192519084015191516313bc4d6960e01b815273d5B084178923E70872C5630412c3f5D7DFFe83EE936313bc4d69936106fb937f0000000000000000000000000000000000000000000000000000000000000000937f0000000000000000000000000000000000000000000000000000000000000000937f0000000000000000000000000000000000000000000000000000000000000000938b93919230929190600401612b7a565b60006040518083038186803b15801561071357600080fd5b505af4158015610727573d6000803e3d6000fd5b50506040516370a0823160e01b8152600092506001600160a01b03851691506370a082319061075a903090600401612705565b602060405180830381865afa158015610777573d6000803e3d6000fd5b505050506040513d601f19601f8201168201806040525081019061079b9190612b61565b90506107cd7f0000000000000000000000000000000000000000000000000000000000000000843085604001516117bc565b6040516370a0823160e01b81526000906001600160a01b038516906370a08231906107fc903090600401612705565b602060405180830381865afa158015610819573d6000803e3d6000fd5b505050506040513d601f19601f8201168201806040525081019061083d9190612b61565b9050818111156109885760006108538383612bdc565b90506108a17f0000000000000000000000000000000000000000000000000000000000000000867f0000000000000000000000000000000000000000000000000000000000000000846112df565b602088015160405163880af8af60e01b815273d5B084178923E70872C5630412c3f5D7DFFe83EE9163880af8af9161094a917f0000000000000000000000000000000000000000000000000000000000000000917f0000000000000000000000000000000000000000000000000000000000000000917f00000000000000000000000000000000000000000000000000000000000000009130918d918a90600090600401612b7a565b60006040518083038186803b15801561096257600080fd5b505af4158015610976573d6000803e3d6000fd5b5060009b9a5050505050505050505050565b60006001600160a01b0316856001600160a01b031663fc0c546a6040518163ffffffff1660e01b8152600401602060405180830381865afa1580156109d1573d6000803e3d6000fd5b505050506040513d601f19601f820116820180604052508101906109f59190612b0a565b6001600160a01b031614610b645773d5B084178923E70872C5630412c3f5D7DFFe83EE6313bc4d697f00000000000000000000000000000000000000000000000000000000000000007f00000000000000000000000000000000000000000000000000000000000000007f00000000000000000000000000000000000000000000000000000000000000008b604001518c60200151308e606001518b602001516040518963ffffffff1660e01b8152600401610ab8989796959493929190612b7a565b60006040518083038186803b158015610ad057600080fd5b505af4158015610ae4573d6000803e3d6000fd5b505050604080890151895160608b0151925163095ea7b360e01b81526001600160a01b03909216935063095ea7b392610b1f92600401612bef565b6020604051808303816000875af1158015610b3e573d6000803e3d6000fd5b505050506040513d601f19601f82011682018060405250810190610b629190612c18565b505b846001600160a01b031663c7c7f5b3846040015185608001518660a00151306040518563ffffffff1660e01b8152600401610ba193929190612d02565b60c06040518083038185885af1158015610bbf573d6000803e3d6000fd5b50505050506040513d601f19601f82011682018060405250810190610be49190612d77565b506060840181905260a084015151604090910151511015610d70576060830151604001515160a084015151610c65917f0000000000000000000000000000000000000000000000000000000000000000917f000000000000000000000000000000000000000000000000000000000000000091610c6091612bdc565b6118ea565b60208701516040516315ff6d2d60e01b81526001600160a01b037f0000000000000000000000000000000000000000000000000000000000000000811660048301527f0000000000000000000000000000000000000000000000000000000000000000811660248301527f00000000000000000000000000000000000000000000000000000000000000008116604483015280871660648301529091166084820152600060a482015273d5B084178923E70872C5630412c3f5D7DFFe83EE906315ff6d2d9060c401602060405180830381865af4158015610d4a573d6000803e3d6000fd5b505050506040513d601f19601f82011682018060405250810190610d6e9190612b61565b505b8660600151955050505050505b919050565b604051637e12891f60e11b815273d5B084178923E70872C5630412c3f5D7DFFe83EE9063fc25123e90610ddb907f0000000000000000000000000000000000000000000000000000000000000000908b90600401612df3565b60006040518083038186803b158015610df357600080fd5b505af4158015610e07573d6000803e3d6000fd5b50506040516301fa95c960e21b815273d5B084178923E70872C5630412c3f5D7DFFe83EE92506307ea57249150610e64907f0000000000000000000000000000000000000000000000000000000000000000903390600401612df3565b60006040518083038186803b158015610e7c57600080fd5b505af4158015610e90573d6000803e3d6000fd5b505050506000610ea0868661196d565b90506000610eae878761198f565b90506000806000610ebe846119da565b92509250925060008c6001600160a01b031663fc0c546a6040518163ffffffff1660e01b8152600401602060405180830381865afa158015610f04573d6000803e3d6000fd5b505050506040513d601f19601f82011682018060405250810190610f289190612b0a565b90506001600160a01b038116610fb357610f837f00000000000000000000000000000000000000000000000000000000000000007f0000000000000000000000000000000000000000000000000000000000000000886118ea565b610fac7f0000000000000000000000000000000000000000000000000000000000000000611a00565b9050610fff565b610fff7f0000000000000000000000000000000000000000000000000000000000000000827f0000000000000000000000000000000000000000000000000000000000000000896112df565b60405163880af8af60e01b815273d5B084178923E70872C5630412c3f5D7DFFe83EE9063880af8af906110a4907f0000000000000000000000000000000000000000000000000000000000000000907f0000000000000000000000000000000000000000000000000000000000000000907f000000000000000000000000000000000000000000000000000000000000000090309088908c908f908d90600401612b7a565b60006040518083038186803b1580156110bc57600080fd5b505af41580156110d0573d6000803e3d6000fd5b505050508151600014611142576000806110e984611a95565b9092509050600182600381111561110257611102612e0d565b03611119576111148f87878585611ab6565b61113f565b600282600381111561112d5761112d612e0d565b0361113f5761113f8f87878585611c80565b50505b50505050505050505050505050565b60405163ac4ab3fb60e01b81526001600160a01b037f0000000000000000000000000000000000000000000000000000000000000000169063ac4ab3fb9061119f9033908690600401612bef565b602060405180830381865afa1580156111bc573d6000803e3d6000fd5b505050506040513d601f19601f820116820180604052508101906111e09190612c18565b61120157338160405163a35b150b60e01b8152600401610499929190612e23565b5050565b8060000361121257505050565b61121b82611d01565b6000836001600160a01b031663bd02d0f560405160200161123b90612e4f565b604051602081830303815290604052805190602001206040518263ffffffff1660e01b815260040161126f91815260200190565b602060405180830381865afa15801561128c573d6000803e3d6000fd5b505050506040513d601f19601f820116820180604052508101906112b09190612b61565b90506000806000806000868887f1905080156112cd575050505050565b6112d88585856118ea565b5050505050565b8015611529576112ee82611d01565b6000846001600160a01b031663bd02d0f561130886611d2b565b6040518263ffffffff1660e01b815260040161132691815260200190565b602060405180830381865afa158015611343573d6000803e3d6000fd5b505050506040513d601f19601f820116820180604052508101906113679190612b61565b90508060000361138c5783604051634fe14bfd60e11b81526004016104999190612705565b600061139a85858585611d9b565b50905080156113aa575050611529565b6000866001600160a01b03166321f8a7216040516020016113ee906020808252600f908201526e484f4c44494e475f4144445245535360881b604082015260600190565b604051602081830303815290604052805190602001206040518263ffffffff1660e01b815260040161142291815260200190565b602060405180830381865afa15801561143f573d6000803e3d6000fd5b505050506040513d601f19601f820116820180604052508101906114639190612b0a565b90506001600160a01b03811661148c57604051633a6de2f560e21b815260040160405180910390fd5b60008061149b88848888611d9b565b9150915081156114af575050505050611529565b60006114ba82611f03565b5090507fc9f14d9a0a9b46470c7c0b6c508f8283abaab7f795f153953c58cd4250824dae81836040516114ee929190612e86565b60405180910390a160405163012f3b8f60e71b81526001600160a01b03808b1660048301528916602482015260448101889052606401610499565b50505050565b60006040516020016115689060208082526013908201527211525117d513d7d4d490d7d0d210525397d251606a1b604082015260600190565b60408051601f1981840301815282825280516020918201209083015263ffffffff8416908201526060015b604051602081830303815290604052805190602001209050919050565b60006115ba61259a565b6115c26125e0565b6115ca6125e0565b6040518060e001604052808663ffffffff1681526020016115ea88611f93565b815260208082018a905260408083018b9052805180830182526000808252606085019190915281518084018352818152608085015281519283018252825260a09092015251630d35b41560e01b81529093506001600160a01b03891690630d35b4159061165b908690600401612eab565b600060405180830381865afa158015611678573d6000803e3d6000fd5b505050506040513d6000823e601f3d908101601f191682016040526116a09190810190612f30565b60208101516060870152604051633b6f743b60e01b81529093506001600160a01b038b169250633b6f743b91506116de908690600090600401613050565b6040805180830381865afa1580156116fa573d6000803e3d6000fd5b505050506040513d601f19601f8201168201806040525081019061171e9190613074565b91508160000151935060006001600160a01b0316886001600160a01b031663fc0c546a6040518163ffffffff1660e01b8152600401602060405180830381865afa158015611770573d6000803e3d6000fd5b505050506040513d601f19601f820116820180604052508101906117949190612b0a565b6001600160a01b0316036117b15780516117ae9085613090565b93505b945094509450949050565b8015611529576117cb82611d01565b604051632e1a7d4d60e01b8152600481018290526001600160a01b03841690632e1a7d4d90602401600060405180830381600087803b15801561180d57600080fd5b505af1158015611821573d6000803e3d6000fd5b505050506000846001600160a01b031663bd02d0f560405160200161184590612e4f565b604051602081830303815290604052805190602001206040518263ffffffff1660e01b815260040161187991815260200190565b602060405180830381865afa158015611896573d6000803e3d6000fd5b505050506040513d601f19601f820116820180604052508101906118ba9190612b61565b90506000806000806000868887f1905080156118d7575050611529565b6118e28685856118ea565b505050505050565b806000036118f757505050565b61190082611d01565b600061190b84611a00565b9050806001600160a01b031663d0e30db0836040518263ffffffff1660e01b81526004016000604051808303818588803b15801561194857600080fd5b505af115801561195c573d6000803e3d6000fd5b5050505050611529848285856112df565b600061197d602c600c84866130a3565b611986916130cd565b90505b92915050565b606061199e82604c81866130a3565b8080601f016020809104026020016040519081016040528093929190818152602001838380828437600092019190915250929695505050505050565b6000806060838060200190518101906119f391906130eb565b9250925092509193909250565b6000816001600160a01b03166321f8a721604051602001611a2090612ae2565b604051602081830303815290604052805190602001206040518263ffffffff1660e01b8152600401611a5491815260200190565b602060405180830381865afa158015611a71573d6000803e3d6000fd5b505050506040513d601f19601f820116820180604052508101906119899190612b0a565b6000606082806020019051810190611aad9190613144565b91509150915091565b600080600083806020019051810190611acf9190613860565b925092509250611ade82611f9f565b15611c7657604051635e9fabfb60e11b81526001600160a01b037f0000000000000000000000000000000000000000000000000000000000000000169063bd3f57f690611b379086908b908b9088908890600401613cc7565b6020604051808303816000875af1925050508015611b72575060408051601f3d908101601f19168201909252611b6f91810190612b61565b60015b611c4657611b7e613e1c565b806308c379a003611bd15750611b92613e37565b80611b9d5750611bd3565b611bcb7f00000000000000000000000000000000000000000000000000000000000000008a8a8a8a8661208e565b50611c76565b505b3d808015611bfd576040519150601f19603f3d011682016040523d82523d6000602084013e611c02565b606091505b506000611c0e82611f03565b509050611c3f7f00000000000000000000000000000000000000000000000000000000000000008b8b8b8b8661208e565b5050611c76565b611c747f00000000000000000000000000000000000000000000000000000000000000008a8a8a8a86612243565b505b5050505050505050565b600080600083806020019051810190611c999190613fa8565b925092509250611ca882611f9f565b15611c765760405163f70a1ded60e01b81526001600160a01b037f0000000000000000000000000000000000000000000000000000000000000000169063f70a1ded90611b379086908b908b90889088906004016140c3565b6001600160a01b038116611d285760405163d551823d60e01b815260040160405180910390fd5b50565b6000604051602001611d69906020808252601890820152771513d2d15397d514905394d1915497d1d054d7d31253525560421b604082015260600190565b60408051601f198184030181528282528051602091820120908301526001600160a01b03841690820152606001611593565b60006060600063a9059cbb60e01b8686604051602401611dbc929190612bef565b604051602081830303815290604052906001600160e01b0319166020820180516001600160e01b0383818316178352505050509050600080886001600160a01b03168684604051611e0d9190614234565b60006040518083038160008787f1925050503d8060008114611e4b576040519150601f19603f3d011682016040523d82523d6000602084013e611e50565b606091505b50915091508115611ef1578051600003611eae576001600160a01b0389163b611eae5760006040518060400160405280601481526020017310d85b1b081d1bc81b9bdb8b58dbdb9d1c9858dd60621b81525094509450505050611efa565b60008151118015611ed0575080806020019051810190611ece9190612c18565b155b15611ee357600094509250611efa915050565b600194509250611efa915050565b60009450925050505b94509492505050565b60606000604483511015611f2a575050604080516020810190915260008082529092909150565b6000611f37846020015190565b90506307b9e43360e51b6001600160e01b0319821601611f765760048401935083806020019051810190611f6b9190614250565b946001945092505050565b600060405180602001604052806000815250909250925050915091565b6001600160a01b031690565b602081015151815151600091141580611fbf575060408201515182515114155b15611fcc57506000919050565b60005b82515181101561208557825180516000919083908110611ff157611ff1614284565b60200260200101516001600160a01b0316148061203d575060006001600160a01b03168360200151828151811061202a5761202a614284565b60200260200101516001600160a01b0316145b8061206557508260400151818151811061205957612059614284565b60200260200101516000145b156120735750600092915050565b8061207d8161429a565b915050611fcf565b50600192915050565b6120966125fa565b80516120a3906002612377565b604080518082019091526008815267383937bb34b232b960c11b602082015281516120d191600090896123dc565b6040805180820190915260078152661858d8dbdd5b9d60ca1b602082015281516120fe91600190886123dc565b602081015161210e906002612377565b61214c60006040518060400160405280600a8152602001691cdc98d0da185a5b925960b21b815250868460200151612439909392919063ffffffff16565b61219360016040518060400160405280600a815260200169616374696f6e5479706560b01b81525085600381111561218657612186612e0d565b6020850151929190612439565b60c08101516121a390600161248c565b6040805180820190915260068152653932b0b9b7b760d11b602082015260c08201516121d291600090856124ee565b866001600160a01b03166324de01e46121ea87611f93565b836040518363ffffffff1660e01b81526004016122089291906149be565b600060405180830381600087803b15801561222257600080fd5b505af1158015612236573d6000803e3d6000fd5b5050505050505050505050565b61224b6125fa565b8051612258906002612377565b604080518082019091526008815267383937bb34b232b960c11b6020820152815161228691600090896123dc565b6040805180820190915260078152661858d8dbdd5b9d60ca1b602082015281516122b391600190886123dc565b60208101516122c3906002612377565b61230160006040518060400160405280600a8152602001691cdc98d0da185a5b925960b21b815250868460200151612439909392919063ffffffff16565b61233b60016040518060400160405280600a815260200169616374696f6e5479706560b01b81525085600381111561218657612186612e0d565b608081015161234b906001612377565b6040805180820190915260038152626b657960e81b602082015260808201516121d29160009085612439565b806001600160401b0381111561238f5761238f61276f565b6040519080825280602002602001820160405280156123d557816020015b6040805180820190915260608152600060208201528152602001906001900390816123ad5790505b5090915250565b81846000015184815181106123f3576123f3614284565b602002602001015160000181905250808460000151848151811061241957612419614284565b6020908102919091018101516001600160a01b0390921691015250505050565b818460000151848151811061245057612450614284565b602002602001015160000181905250808460000151848151811061247657612476614284565b6020026020010151602001818152505050505050565b806001600160401b038111156124a4576124a461276f565b6040519080825280602002602001820160405280156123d557816020015b60408051808201909152606080825260208201528152602001906001900390816124c257505090915250565b818460000151848151811061250557612505614284565b602002602001015160000181905250808460000151848151811061252b5761252b614284565b60200260200101516020018190525050505050565b6040518060e00160405280600063ffffffff168152602001600081526020016000815260200161256e6126e6565b815260200161257b61259a565b81526020016125886125e0565b81526020016125956125e0565b905290565b6040518060e00160405280600063ffffffff1681526020016000801916815260200160008152602001600081526020016060815260200160608152602001606081525090565b604051806040016040528060008152602001600081525090565b604080516101208101909152606060e082018181526101008301919091528190815260200161263c604051806040016040528060608152602001606081525090565b815260200161265e604051806040016040528060608152602001606081525090565b8152602001612680604051806040016040528060608152602001606081525090565b81526020016126a2604051806040016040528060608152602001606081525090565b81526020016126c4604051806040016040528060608152602001606081525090565b8152602001612595604051806040016040528060608152602001606081525090565b60408051606081018252600080825260208201529081016125956125e0565b6001600160a01b0391909116815260200190565b6001600160a01b0381168114611d2857600080fd5b60008060006060848603121561274357600080fd5b833561274e81612719565b9250602084013561275e81612719565b929592945050506040919091013590565b634e487b7160e01b600052604160045260246000fd5b60a081016001600160401b03811182821017156127a4576127a461276f565b60405250565b604081016001600160401b03811182821017156127a4576127a461276f565b606081016001600160401b03811182821017156127a4576127a461276f565b61010081016001600160401b03811182821017156127a4576127a461276f565b601f8201601f191681016001600160401b038111828210171561282d5761282d61276f565b6040525050565b60405160c081016001600160401b03811182821017156128565761285661276f565b60405290565b604051612868816127e8565b90565b60405161012081016001600160401b03811182821017156128565761285661276f565b60405160e081016001600160401b03811182821017156128565761285661276f565b60006001600160401b038211156128c9576128c961276f565b50601f01601f191660200190565b600060208083850312156128ea57600080fd5b82356001600160401b038082111561290157600080fd5b9084019060a0828703121561291557600080fd5b60405161292181612785565b823561292c81612719565b81528284013561293b81612719565b81850152604083013561294d81612719565b60408201526060838101359082015260808301358281111561296e57600080fd5b80840193505086601f84011261298357600080fd5b82359150612990826128b0565b60405161299d8282612808565b83815288868587010111156129b157600080fd5b8386860187830137600086858301015280608084015250508094505050505092915050565b60008083601f8401126129e857600080fd5b5081356001600160401b038111156129ff57600080fd5b602083019150836020828501011115612a1757600080fd5b9250929050565b600080600080600080600060a0888a031215612a3957600080fd5b8735612a4481612719565b96506020880135955060408801356001600160401b0380821115612a6757600080fd5b612a738b838c016129d6565b909750955060608a01359150612a8882612719565b90935060808901359080821115612a9e57600080fd5b50612aab8a828b016129d6565b989b979a50959850939692959293505050565b6020808252600a908201526921a7a72a2927a62622a960b11b604082015260600190565b60208082526003908201526215d39560ea1b604082015260600190565b8051610d7d81612719565b600060208284031215612b1c57600080fd5b8151612b2781612719565b9392505050565b6001600160a01b03169052565b600060208284031215612b4d57600080fd5b815163ffffffff81168114612b2757600080fd5b600060208284031215612b7357600080fd5b5051919050565b6001600160a01b039889168152968816602088015294871660408701529286166060860152908516608085015290931660a083015260c082019290925260e08101919091526101000190565b634e487b7160e01b600052601160045260246000fd5b8181038181111561198957611989612bc6565b6001600160a01b03929092168252602082015260400190565b80518015158114610d7d57600080fd5b600060208284031215612c2a57600080fd5b612b2782612c08565b60005b83811015612c4e578181015183820152602001612c36565b50506000910152565b60008151808452612c6f816020860160208601612c33565b601f01601f19169290920160200192915050565b63ffffffff81511682526020810151602083015260408101516040830152606081015160608301526000608082015160e06080850152612cc660e0850182612c57565b905060a083015184820360a0860152612cdf8282612c57565b91505060c083015184820360c0860152612cf98282612c57565b95945050505050565b608081526000612d156080830186612c83565b8451602084810191909152909401516040830152506001600160a01b0391909116606090910152919050565b600060408284031215612d5357600080fd5b604051612d5f816127aa565b80915082518152602083015160208201525092915050565b60008082840360c0811215612d8b57600080fd5b6080811215612d9957600080fd5b50604051612da6816127c9565b8351815260208401516001600160401b0381168114612dc457600080fd5b6020820152612dd68560408601612d41565b60408201529150612dea8460808501612d41565b90509250929050565b6001600160a01b0392831681529116602082015260400190565b634e487b7160e01b600052602160045260246000fd5b6001600160a01b0383168152604060208201819052600090612e4790830184612c57565b949350505050565b6020808252601f908201527f4e41544956455f544f4b454e5f5452414e534645525f4741535f4c494d495400604082015260600190565b604081526000612e996040830185612c57565b8281036020840152612cf98185612c57565b602081526000612b276020830184612c83565b60006001600160401b03821115612ed757612ed761276f565b5060051b60200190565b600082601f830112612ef257600080fd5b8151612efd816128b0565b604051612f0a8282612808565b828152856020848701011115612f1f57600080fd5b612cf9836020830160208801612c33565b600080600060a08486031215612f4557600080fd5b612f4f8585612d41565b60408501519093506001600160401b0380821115612f6c57600080fd5b818601915086601f830112612f8057600080fd5b81516020612f8d82612ebe565b604051612f9a8282612808565b83815260059390931b850182019282810191508a841115612fba57600080fd5b8286015b8481101561303057805186811115612fd557600080fd5b87016040818e03601f19011215612feb57600080fd5b604051612ff7816127aa565b85820151815260408201518881111561300f57600080fd5b61301d8f8883860101612ee1565b8288015250845250918301918301612fbe565b508097505050505050506130478560608601612d41565b90509250925092565b6040815260006130636040830185612c83565b905082151560208301529392505050565b60006040828403121561308657600080fd5b612b278383612d41565b8082018082111561198957611989612bc6565b600080858511156130b357600080fd5b838611156130c057600080fd5b5050820193919092039150565b8035602083101561198957600019602084900360031b1b1692915050565b60008060006060848603121561310057600080fd5b835161310b81612719565b6020850151604086015191945092506001600160401b0381111561312e57600080fd5b61313a86828701612ee1565b9150509250925092565b6000806040838503121561315757600080fd5b82516004811061316657600080fd5b60208401519092506001600160401b0381111561318257600080fd5b61318e85828601612ee1565b9150509250929050565b600082601f8301126131a957600080fd5b815160206131b682612ebe565b6040516131c38282612808565b83815260059390931b85018201928281019150868411156131e357600080fd5b8286015b848110156132075780516131fa81612719565b83529183019183016131e7565b509695505050505050565b600082601f83011261322357600080fd5b8151602061323082612ebe565b60405161323d8282612808565b83815260059390931b850182019282810191508684111561325d57600080fd5b8286015b848110156132075780516001600160401b038111156132805760008081fd5b61328e8986838b0101612ee1565b845250918301918301613261565b6000606082840312156132ae57600080fd5b6040516132ba816127c9565b825190915081906001600160401b03808211156132d657600080fd5b6132e286838701613198565b835260208501519150808211156132f857600080fd5b61330486838701613198565b6020840152604085015191508082111561331d57600080fd5b5061332a85828601613212565b6040830152505092915050565b600082601f83011261334857600080fd5b8151602061335582612ebe565b6040516133628282612808565b83815260059390931b850182019282810191508684111561338257600080fd5b8286015b848110156132075780518352918301918301613386565b600060c082840312156133af57600080fd5b6133b7612834565b82519091506001600160401b03808211156133d157600080fd5b6133dd85838601613198565b835260208401519150808211156133f357600080fd5b6133ff85838601613337565b6020840152604084015191508082111561341857600080fd5b61342485838601613198565b6040840152606084015191508082111561343d57600080fd5b61344985838601613212565b6060840152608084015191508082111561346257600080fd5b61346e85838601613198565b608084015260a084015191508082111561348757600080fd5b5061349484828501613198565b60a08301525092915050565b805160ff81168114610d7d57600080fd5b600082601f8301126134c257600080fd5b815160206134cf82612ebe565b604080516134dd8382612808565b84815260089490941b86018301938381019250878511156134fd57600080fd5b8387015b8581101561359757610100818a03121561351b5760008081fd5b8251613526816127e8565b61352f82612aff565b815261353c868301612aff565b81870152818401518482015260608083015190820152608061355f8184016134a0565b9082015260a0828101519082015260c0808301519082015260e0613584818401612aff565b9082015284529284019261010001613501565b50979650505050505050565b6000606082840312156135b557600080fd5b6040516135c1816127c9565b80915082516135cf81612719565b81526020838101519082015260408301516001600160401b038111156135f457600080fd5b61332a85828601613198565b6000610100828403121561361357600080fd5b61361b61285c565b82519091506001600160401b038082111561363557600080fd5b6136418583860161329c565b8352602084015191508082111561365757600080fd5b6136638583860161339d565b6020840152604084015191508082111561367c57600080fd5b613688858386016134b1565b604084015260608401519150808211156136a157600080fd5b6136ad858386016135a3565b60608401526080840151608084015260a084015160a084015260c08401519150808211156136da57600080fd5b506136e784828501612ee1565b60c08301525060e082015160e082015292915050565b60006060828403121561370f57600080fd5b60405161371b816127c9565b825190915081906001600160401b038082111561373757600080fd5b61374386838701613198565b8352602085015191508082111561375957600080fd5b61376586838701613198565b6020840152604085015191508082111561377e57600080fd5b5061332a85828601613337565b6000610100828403121561379e57600080fd5b6137a661285c565b90506137b182612aff565b81526137bf60208301612aff565b60208201526137d060408301612aff565b60408201526137e160608301612aff565b60608201526137f260808301612aff565b608082015261380360a08301612aff565b60a082015260c08201516001600160401b038082111561382257600080fd5b61382e85838601613198565b60c084015260e084015191508082111561384757600080fd5b5061385484828501613198565b60e08301525092915050565b60008060006060848603121561387557600080fd5b83516001600160401b038082111561388c57600080fd5b61389887838801613600565b945060208601519150808211156138ae57600080fd5b6138ba878388016136fd565b935060408601519150808211156138d057600080fd5b9085019060c082880312156138e457600080fd5b6138ec612834565b8251828111156138fb57600080fd5b6139078982860161378b565b8252506020830151602082015261392060408401612c08565b6040820152606083015160608201526080830151608082015260a08301518281111561394b57600080fd5b61395789828601613337565b60a0830152508093505050509250925092565b600081518084526020808501945080840160005b838110156139a35781516001600160a01b03168752958201959082019060010161397e565b509495945050505050565b600081518084526020808501808196508360051b8101915082860160005b858110156139f65782840389526139e4848351612c57565b988501989350908401906001016139cc565b5091979650505050505050565b6000815160608452613a18606085018261396a565b905060208301518482036020860152613a31828261396a565b91505060408301518482036040860152612cf982826139ae565b600081518084526020808501945080840160005b838110156139a357815187529582019590820190600101613a5f565b6000815160c08452613a9060c085018261396a565b905060208301518482036020860152613aa98282613a4b565b91505060408301518482036040860152613ac3828261396a565b91505060608301518482036060860152613add82826139ae565b91505060808301518482036080860152613af7828261396a565b91505060a083015184820360a0860152612cf9828261396a565b600081518084526020808501945080840160005b838110156139a357815180516001600160a01b039081168952848201511684890152604080820151908901526060808201519089015260808082015160ff169089015260a0808201519089015260c0808201519089015260e09081015190613b8f818a0183612b2e565b5050610100969096019590820190600101613b25565b60018060a01b038151168252602081015160208301526000604082015160606040850152612e47606085018261396a565b60006101008251818552613bec82860182613a03565b91505060208301518482036020860152613c068282613a7b565b91505060408301518482036040860152613c208282613b11565b91505060608301518482036060860152613c3a8282613ba5565b9150506080830151608085015260a083015160a085015260c083015184820360c0860152613c688282612c57565b91505060e083015160e08501528091505092915050565b6000815160608452613c94606085018261396a565b905060208301518482036020860152613cad828261396a565b91505060408301518482036040860152612cf98282613a4b565b60a081526000613cda60a0830188613bd6565b6001600160a01b038781166020850152604084018790528382036060850152613d038287613c7f565b91508382036080850152845160c083528181511660c084015260208101519150613d3060e0840183612b2e565b60408101519150610100613d4681850184612b2e565b60608201519250613d5b610120850184612b2e565b60808201519250613d70610140850184612b2e565b60a08201519250613d85610160850184612b2e565b60c082015192508061018085015250613da26101c084018361396a565b915060e0810151905060bf19838303016101a0840152613dc2828261396a565b915050602085015160208301526040850151613de2604084018215159052565b50606085015160608301526080850151608083015260a085015182820360a0840152613e0e8282613a4b565b9a9950505050505050505050565b600060033d11156128685760046000803e5060005160e01c90565b600060443d1015613e455790565b6040516003193d81016004833e81513d6001600160401b038083116024840183101715613e7457505050505090565b8285019150815181811115613e8c5750505050505090565b843d8701016020828501011115613ea65750505050505090565b613eb560208286010187612808565b509095945050505050565b60006101208284031215613ed357600080fd5b613edb61286b565b9050613ee682612aff565b8152613ef460208301612aff565b6020820152613f0560408301612aff565b6040820152613f1660608301612aff565b6060820152613f2760808301612aff565b6080820152613f3860a08301612aff565b60a0820152613f4960c08301612aff565b60c082015260e08201516001600160401b0380821115613f6857600080fd5b613f7485838601613198565b60e084015261010091508184015181811115613f8f57600080fd5b613f9b86828701613198565b8385015250505092915050565b600080600060608486031215613fbd57600080fd5b83516001600160401b0380821115613fd457600080fd5b613fe087838801613600565b94506020860151915080821115613ff657600080fd5b614002878388016136fd565b9350604086015191508082111561401857600080fd5b9085019060e0828803121561402c57600080fd5b61403461288e565b82518281111561404357600080fd5b61404f89828601613ec0565b82525060208301516020820152604083015160408201526060830151606082015261407c60808401612c08565b608082015261408d60a08401612c08565b60a082015260c0830151828111156140a457600080fd5b6140b089828601613337565b60c0830152508093505050509250925092565b60a0815260006140d660a0830188613bd6565b6001600160a01b03871660208401526040830186905282810360608401526140fe8186613c7f565b90508281036080840152835160e0825261411c60e083018251612b2e565b602081015161010061413081850183612b2e565b6040830151915061012061414681860184612b2e565b6060840151925061415b610140860184612b2e565b60808401519250614170610160860184612b2e565b60a08401519250614185610180860184612b2e565b60c0840151925061419a6101a0860184612b2e565b60e08401519250806101c0860152506141b761020085018361396a565b92015183830360df19016101e08501529190506141d4818361396a565b9150506020850151602083015260408501516040830152606085015160608301526080850151614208608084018215159052565b5060a085015161421c60a084018215159052565b5060c085015182820360c0840152613e0e8282613a4b565b60008251614246818460208701612c33565b9190910192915050565b60006020828403121561426257600080fd5b81516001600160401b0381111561427857600080fd5b612e4784828501612ee1565b634e487b7160e01b600052603260045260246000fd5b6000600182016142ac576142ac612bc6565b5060010190565b600081518084526020808501808196508360051b8101915082860160005b858110156139f65782840389528151604081518187526142f382880182612c57565b9150508682015191508581038787015261430d818361396a565b9a87019a95505050908401906001016142d1565b60006040808401835182865281815180845260608801915060608160051b89010193506020808401935060005b8281101561439857898603605f190184528451805188885261437289890182612c57565b918401516001600160a01b0316978401979097529550938101939281019260010161434e565b50808801519550888503818a015250505050612cf981836142b3565b600081518084526020808501808196508360051b8101915082860160005b858110156139f65782840389528151604081518187526143f482880182612c57565b9150508682015191508581038787015261440e8183613a4b565b9a87019a95505050908401906001016143d2565b60006040808401835182865281815180845260608801915060608160051b89010193506020808401935060005b8281101561449057898603605f190184528451805188885261447389890182612c57565b91840151978401979097529550938101939281019260010161444f565b50808801519550888503818a015250505050612cf981836143b4565b600081518084526020808501808196508360051b810191508286016000805b8681101561453e578385038a528251604081518188526144ed82890182612c57565b92890151888403898b01528051808552908a01938693508a0191505b808310156145295783518252928901926001929092019190890190614509565b509b88019b96505050918501916001016144cb565b509298975050505050505050565b60006040808401835182865281815180845260608801915060608160051b89010193506020808401935060005b828110156145ba57898603605f190184528451805188885261459d89890182612c57565b918401519784019790975295509381019392810192600101614579565b50808801519550888503818a015250505050612cf981836144ac565b600081518084526020808501808196508360051b810191508286016000805b8681101561453e578385038a5282516040815181885261461782890182612c57565b92890151888403898b01528051808552908a01938693508a0191505b8083101561465557835115158252928901926001929092019190890190614633565b509b88019b96505050918501916001016145f5565b60006040808401835182865281815180845260608801915060608160051b89010193506020808401935060005b828110156146da57898603605f19018452845180518888526146bb89890182612c57565b9184015115159784019790975295509381019392810192600101614697565b50808801519550888503818a015250505050612cf981836145d6565b60006040808401835182865281815180845260608801915060608160051b89010193506020808401935060005b8281101561449057898603605f190184528451805188885261474789890182612c57565b918401519784019790975295509381019392810192600101614723565b600081518084526020808501808196508360051b8101915082860160005b858110156139f65782840389528151604081518187526147a482880182612c57565b915050868201519150858103878701526147be81836139ae565b9a87019a9550505090840190600101614782565b60006040808401835182865281815180845260608801915060608160051b89010193506020808401935060005b8281101561484f57898603605f190184528451805188885261482389890182612c57565b918401518883038986015291905061483b8183612c57565b9750505093810193928101926001016147ff565b50808801519550888503818a015250505050612cf98183614764565b600081518084526020808501808196506005915083821b81018387016000805b87811015614916578484038b528251604081518187526148ad82880182612c57565b928a0151878403888c01528051808552908b019392508a83019150808a1b83018b01865b828110156148ff57601f198583030184526148ed828751612c57565b958d0195938d019391506001016148d1565b509e8b019e9750505093880193505060010161488b565b50919998505050505050505050565b60006040808401835182865281815180845260608801915060608160051b89010193506020808401935060005b828110156149a257898603605f190184528451805188885261497689890182612c57565b918401518883038986015291905061498e8183612c57565b975050509381019392810192600101614952565b50808801519550888503818a015250505050612cf9818361486b565b6060815260116060820152704465706f73697446726f6d42726964676560781b608082015282602082015260a060408201526000825160e060a0840152614a09610180840182614321565b90506020840151609f19808584030160c0860152614a278383614422565b925060408601519150808584030160e0860152614a44838361454c565b9250606086015191508085840301610100860152614a62838361466a565b9250608086015191508085840301610120860152614a8083836146f6565b925060a086015191508085840301610140860152614a9e83836147d2565b925060c08601519150808584030161016086015250614abd8282614925565b969550505050505056fea2646970667358221220cb35bff53b75ba29d8ae06e0e5cd502596c120a7c47003cfc6aa08fb1d7346d364736f6c63430008140033",
  "deployedBytecode": "0x60806040526004361061007a5760003560e01c80634a4a7b041461008657806350212de8146100d0578063528a65f4146101045780635e35359e14610138578063660d0d671461015a5780639ff78c301461018e578063a41e91d2146101c2578063d0a10260146101f0578063f1df711b1461020357600080fd5b3661008157005b600080fd5b34801561009257600080fd5b506100ba7f000000000000000000000000000000000000000000000000000000000000000081565b6040516100c79190612705565b60405180910390f35b3480156100dc57600080fd5b506100ba7f000000000000000000000000000000000000000000000000000000000000000081565b34801561011057600080fd5b506100ba7f000000000000000000000000000000000000000000000000000000000000000081565b34801561014457600080fd5b5061015861015336600461272e565b610237565b005b34801561016657600080fd5b506100ba7f000000000000000000000000000000000000000000000000000000000000000081565b34801561019a57600080fd5b506100ba7f000000000000000000000000000000000000000000000000000000000000000081565b3480156101ce57600080fd5b506101e26101dd3660046128d7565b610312565b6040519081526020016100c7565b6101586101fe366004612a1e565b610d82565b34801561020f57600080fd5b506100ba7f000000000000000000000000000000000000000000000000000000000000000081565b61028760405160200161024990612abe565b604051602081830303815290604052805190602001206040518060400160405280600a81526020016921a7a72a2927a62622a960b11b815250611151565b806000036102a8576040516301d6f7b160e01b815260040160405180910390fd5b6001600160a01b0383166102e6576102e17f00000000000000000000000000000000000000000000000000000000000000008383611205565b505050565b6102e17f00000000000000000000000000000000000000000000000000000000000000008484846112df565b600061032660405160200161024990612abe565b81516040516000906001600160a01b037f000000000000000000000000000000000000000000000000000000000000000016906321f8a7219061036b90602001612ae2565b604051602081830303815290604052805190602001206040518263ffffffff1660e01b815260040161039f91815260200190565b602060405180830381865afa1580156103bc573d6000803e3d6000fd5b505050506040513d601f19601f820116820180604052508101906103e09190612b0a565b905060006001600160a01b0316826001600160a01b031663fc0c546a6040518163ffffffff1660e01b8152600401602060405180830381865afa15801561042b573d6000803e3d6000fd5b505050506040513d601f19601f8201168201806040525081019061044f9190612b0a565b6001600160a01b0316036104a757806001600160a01b031684604001516001600160a01b0316146104a2578360400151604051632877599b60e01b81526004016104999190612705565b60405180910390fd5b610544565b816001600160a01b031663fc0c546a6040518163ffffffff1660e01b8152600401602060405180830381865afa1580156104e5573d6000803e3d6000fd5b505050506040513d601f19601f820116820180604052508101906105099190612b0a565b6001600160a01b031684604001516001600160a01b031614610544578360400151604051632877599b60e01b81526004016104999190612705565b61054c612540565b84608001518060200190518101906105649190612b3b565b63ffffffff168082526001600160a01b037f0000000000000000000000000000000000000000000000000000000000000000169063bd02d0f5906105a79061152f565b6040518263ffffffff1660e01b81526004016105c591815260200190565b602060405180830381865afa1580156105e2573d6000803e3d6000fd5b505050506040513d601f19601f820116820180604052508101906106069190612b61565b816020018181525050610627838660600151876020015184600001516115b0565b60c0850181905260a0850191909152608084019190915260408084019283529051606088015260208781015192519084015191516313bc4d6960e01b815273__$97f16f82bae4ac682deb2ea1417bfd757e$__936313bc4d69936106fb937f0000000000000000000000000000000000000000000000000000000000000000937f0000000000000000000000000000000000000000000000000000000000000000937f0000000000000000000000000000000000000000000000000000000000000000938b93919230929190600401612b7a565b60006040518083038186803b15801561071357600080fd5b505af4158015610727573d6000803e3d6000fd5b50506040516370a0823160e01b8152600092506001600160a01b03851691506370a082319061075a903090600401612705565b602060405180830381865afa158015610777573d6000803e3d6000fd5b505050506040513d601f19601f8201168201806040525081019061079b9190612b61565b90506107cd7f0000000000000000000000000000000000000000000000000000000000000000843085604001516117bc565b6040516370a0823160e01b81526000906001600160a01b038516906370a08231906107fc903090600401612705565b602060405180830381865afa158015610819573d6000803e3d6000fd5b505050506040513d601f19601f8201168201806040525081019061083d9190612b61565b9050818111156109885760006108538383612bdc565b90506108a17f0000000000000000000000000000000000000000000000000000000000000000867f0000000000000000000000000000000000000000000000000000000000000000846112df565b602088015160405163880af8af60e01b815273__$97f16f82bae4ac682deb2ea1417bfd757e$__9163880af8af9161094a917f0000000000000000000000000000000000000000000000000000000000000000917f0000000000000000000000000000000000000000000000000000000000000000917f00000000000000000000000000000000000000000000000000000000000000009130918d918a90600090600401612b7a565b60006040518083038186803b15801561096257600080fd5b505af4158015610976573d6000803e3d6000fd5b5060009b9a5050505050505050505050565b60006001600160a01b0316856001600160a01b031663fc0c546a6040518163ffffffff1660e01b8152600401602060405180830381865afa1580156109d1573d6000803e3d6000fd5b505050506040513d601f19601f820116820180604052508101906109f59190612b0a565b6001600160a01b031614610b645773__$97f16f82bae4ac682deb2ea1417bfd757e$__6313bc4d697f00000000000000000000000000000000000000000000000000000000000000007f00000000000000000000000000000000000000000000000000000000000000007f00000000000000000000000000000000000000000000000000000000000000008b604001518c60200151308e606001518b602001516040518963ffffffff1660e01b8152600401610ab8989796959493929190612b7a565b60006040518083038186803b158015610ad057600080fd5b505af4158015610ae4573d6000803e3d6000fd5b505050604080890151895160608b0151925163095ea7b360e01b81526001600160a01b03909216935063095ea7b392610b1f92600401612bef565b6020604051808303816000875af1158015610b3e573d6000803e3d6000fd5b505050506040513d601f19601f82011682018060405250810190610b629190612c18565b505b846001600160a01b031663c7c7f5b3846040015185608001518660a00151306040518563ffffffff1660e01b8152600401610ba193929190612d02565b60c06040518083038185885af1158015610bbf573d6000803e3d6000fd5b50505050506040513d601f19601f82011682018060405250810190610be49190612d77565b506060840181905260a084015151604090910151511015610d70576060830151604001515160a084015151610c65917f0000000000000000000000000000000000000000000000000000000000000000917f000000000000000000000000000000000000000000000000000000000000000091610c6091612bdc565b6118ea565b60208701516040516315ff6d2d60e01b81526001600160a01b037f0000000000000000000000000000000000000000000000000000000000000000811660048301527f0000000000000000000000000000000000000000000000000000000000000000811660248301527f00000000000000000000000000000000000000000000000000000000000000008116604483015280871660648301529091166084820152600060a482015273__$97f16f82bae4ac682deb2ea1417bfd757e$__906315ff6d2d9060c401602060405180830381865af4158015610d4a573d6000803e3d6000fd5b505050506040513d601f19601f82011682018060405250810190610d6e9190612b61565b505b8660600151955050505050505b919050565b604051637e12891f60e11b815273__$97f16f82bae4ac682deb2ea1417bfd757e$__9063fc25123e90610ddb907f0000000000000000000000000000000000000000000000000000000000000000908b90600401612df3565b60006040518083038186803b158015610df357600080fd5b505af4158015610e07573d6000803e3d6000fd5b50506040516301fa95c960e21b815273__$97f16f82bae4ac682deb2ea1417bfd757e$__92506307ea57249150610e64907f0000000000000000000000000000000000000000000000000000000000000000903390600401612df3565b60006040518083038186803b158015610e7c57600080fd5b505af4158015610e90573d6000803e3d6000fd5b505050506000610ea0868661196d565b90506000610eae878761198f565b90506000806000610ebe846119da565b92509250925060008c6001600160a01b031663fc0c546a6040518163ffffffff1660e01b8152600401602060405180830381865afa158015610f04573d6000803e3d6000fd5b505050506040513d601f19601f82011682018060405250810190610f289190612b0a565b90506001600160a01b038116610fb357610f837f00000000000000000000000000000000000000000000000000000000000000007f0000000000000000000000000000000000000000000000000000000000000000886118ea565b610fac7f0000000000000000000000000000000000000000000000000000000000000000611a00565b9050610fff565b610fff7f0000000000000000000000000000000000000000000000000000000000000000827f0000000000000000000000000000000000000000000000000000000000000000896112df565b60405163880af8af60e01b815273__$97f16f82bae4ac682deb2ea1417bfd757e$__9063880af8af906110a4907f0000000000000000000000000000000000000000000000000000000000000000907f0000000000000000000000000000000000000000000000000000000000000000907f000000000000000000000000000000000000000000000000000000000000000090309088908c908f908d90600401612b7a565b60006040518083038186803b1580156110bc57600080fd5b505af41580156110d0573d6000803e3d6000fd5b505050508151600014611142576000806110e984611a95565b9092509050600182600381111561110257611102612e0d565b03611119576111148f87878585611ab6565b61113f565b600282600381111561112d5761112d612e0d565b0361113f5761113f8f87878585611c80565b50505b50505050505050505050505050565b60405163ac4ab3fb60e01b81526001600160a01b037f0000000000000000000000000000000000000000000000000000000000000000169063ac4ab3fb9061119f9033908690600401612bef565b602060405180830381865afa1580156111bc573d6000803e3d6000fd5b505050506040513d601f19601f820116820180604052508101906111e09190612c18565b61120157338160405163a35b150b60e01b8152600401610499929190612e23565b5050565b8060000361121257505050565b61121b82611d01565b6000836001600160a01b031663bd02d0f560405160200161123b90612e4f565b604051602081830303815290604052805190602001206040518263ffffffff1660e01b815260040161126f91815260200190565b602060405180830381865afa15801561128c573d6000803e3d6000fd5b505050506040513d601f19601f820116820180604052508101906112b09190612b61565b90506000806000806000868887f1905080156112cd575050505050565b6112d88585856118ea565b5050505050565b8015611529576112ee82611d01565b6000846001600160a01b031663bd02d0f561130886611d2b565b6040518263ffffffff1660e01b815260040161132691815260200190565b602060405180830381865afa158015611343573d6000803e3d6000fd5b505050506040513d601f19601f820116820180604052508101906113679190612b61565b90508060000361138c5783604051634fe14bfd60e11b81526004016104999190612705565b600061139a85858585611d9b565b50905080156113aa575050611529565b6000866001600160a01b03166321f8a7216040516020016113ee906020808252600f908201526e484f4c44494e475f4144445245535360881b604082015260600190565b604051602081830303815290604052805190602001206040518263ffffffff1660e01b815260040161142291815260200190565b602060405180830381865afa15801561143f573d6000803e3d6000fd5b505050506040513d601f19601f820116820180604052508101906114639190612b0a565b90506001600160a01b03811661148c57604051633a6de2f560e21b815260040160405180910390fd5b60008061149b88848888611d9b565b9150915081156114af575050505050611529565b60006114ba82611f03565b5090507fc9f14d9a0a9b46470c7c0b6c508f8283abaab7f795f153953c58cd4250824dae81836040516114ee929190612e86565b60405180910390a160405163012f3b8f60e71b81526001600160a01b03808b1660048301528916602482015260448101889052606401610499565b50505050565b60006040516020016115689060208082526013908201527211525117d513d7d4d490d7d0d210525397d251606a1b604082015260600190565b60408051601f1981840301815282825280516020918201209083015263ffffffff8416908201526060015b604051602081830303815290604052805190602001209050919050565b60006115ba61259a565b6115c26125e0565b6115ca6125e0565b6040518060e001604052808663ffffffff1681526020016115ea88611f93565b815260208082018a905260408083018b9052805180830182526000808252606085019190915281518084018352818152608085015281519283018252825260a09092015251630d35b41560e01b81529093506001600160a01b03891690630d35b4159061165b908690600401612eab565b600060405180830381865afa158015611678573d6000803e3d6000fd5b505050506040513d6000823e601f3d908101601f191682016040526116a09190810190612f30565b60208101516060870152604051633b6f743b60e01b81529093506001600160a01b038b169250633b6f743b91506116de908690600090600401613050565b6040805180830381865afa1580156116fa573d6000803e3d6000fd5b505050506040513d601f19601f8201168201806040525081019061171e9190613074565b91508160000151935060006001600160a01b0316886001600160a01b031663fc0c546a6040518163ffffffff1660e01b8152600401602060405180830381865afa158015611770573d6000803e3d6000fd5b505050506040513d601f19601f820116820180604052508101906117949190612b0a565b6001600160a01b0316036117b15780516117ae9085613090565b93505b945094509450949050565b8015611529576117cb82611d01565b604051632e1a7d4d60e01b8152600481018290526001600160a01b03841690632e1a7d4d90602401600060405180830381600087803b15801561180d57600080fd5b505af1158015611821573d6000803e3d6000fd5b505050506000846001600160a01b031663bd02d0f560405160200161184590612e4f565b604051602081830303815290604052805190602001206040518263ffffffff1660e01b815260040161187991815260200190565b602060405180830381865afa158015611896573d6000803e3d6000fd5b505050506040513d601f19601f820116820180604052508101906118ba9190612b61565b90506000806000806000868887f1905080156118d7575050611529565b6118e28685856118ea565b505050505050565b806000036118f757505050565b61190082611d01565b600061190b84611a00565b9050806001600160a01b031663d0e30db0836040518263ffffffff1660e01b81526004016000604051808303818588803b15801561194857600080fd5b505af115801561195c573d6000803e3d6000fd5b5050505050611529848285856112df565b600061197d602c600c84866130a3565b611986916130cd565b90505b92915050565b606061199e82604c81866130a3565b8080601f016020809104026020016040519081016040528093929190818152602001838380828437600092019190915250929695505050505050565b6000806060838060200190518101906119f391906130eb565b9250925092509193909250565b6000816001600160a01b03166321f8a721604051602001611a2090612ae2565b604051602081830303815290604052805190602001206040518263ffffffff1660e01b8152600401611a5491815260200190565b602060405180830381865afa158015611a71573d6000803e3d6000fd5b505050506040513d601f19601f820116820180604052508101906119899190612b0a565b6000606082806020019051810190611aad9190613144565b91509150915091565b600080600083806020019051810190611acf9190613860565b925092509250611ade82611f9f565b15611c7657604051635e9fabfb60e11b81526001600160a01b037f0000000000000000000000000000000000000000000000000000000000000000169063bd3f57f690611b379086908b908b9088908890600401613cc7565b6020604051808303816000875af1925050508015611b72575060408051601f3d908101601f19168201909252611b6f91810190612b61565b60015b611c4657611b7e613e1c565b806308c379a003611bd15750611b92613e37565b80611b9d5750611bd3565b611bcb7f00000000000000000000000000000000000000000000000000000000000000008a8a8a8a8661208e565b50611c76565b505b3d808015611bfd576040519150601f19603f3d011682016040523d82523d6000602084013e611c02565b606091505b506000611c0e82611f03565b509050611c3f7f00000000000000000000000000000000000000000000000000000000000000008b8b8b8b8661208e565b5050611c76565b611c747f00000000000000000000000000000000000000000000000000000000000000008a8a8a8a86612243565b505b5050505050505050565b600080600083806020019051810190611c999190613fa8565b925092509250611ca882611f9f565b15611c765760405163f70a1ded60e01b81526001600160a01b037f0000000000000000000000000000000000000000000000000000000000000000169063f70a1ded90611b379086908b908b90889088906004016140c3565b6001600160a01b038116611d285760405163d551823d60e01b815260040160405180910390fd5b50565b6000604051602001611d69906020808252601890820152771513d2d15397d514905394d1915497d1d054d7d31253525560421b604082015260600190565b60408051601f198184030181528282528051602091820120908301526001600160a01b03841690820152606001611593565b60006060600063a9059cbb60e01b8686604051602401611dbc929190612bef565b604051602081830303815290604052906001600160e01b0319166020820180516001600160e01b0383818316178352505050509050600080886001600160a01b03168684604051611e0d9190614234565b60006040518083038160008787f1925050503d8060008114611e4b576040519150601f19603f3d011682016040523d82523d6000602084013e611e50565b606091505b50915091508115611ef1578051600003611eae576001600160a01b0389163b611eae5760006040518060400160405280601481526020017310d85b1b081d1bc81b9bdb8b58dbdb9d1c9858dd60621b81525094509450505050611efa565b60008151118015611ed0575080806020019051810190611ece9190612c18565b155b15611ee357600094509250611efa915050565b600194509250611efa915050565b60009450925050505b94509492505050565b60606000604483511015611f2a575050604080516020810190915260008082529092909150565b6000611f37846020015190565b90506307b9e43360e51b6001600160e01b0319821601611f765760048401935083806020019051810190611f6b9190614250565b946001945092505050565b600060405180602001604052806000815250909250925050915091565b6001600160a01b031690565b602081015151815151600091141580611fbf575060408201515182515114155b15611fcc57506000919050565b60005b82515181101561208557825180516000919083908110611ff157611ff1614284565b60200260200101516001600160a01b0316148061203d575060006001600160a01b03168360200151828151811061202a5761202a614284565b60200260200101516001600160a01b0316145b8061206557508260400151818151811061205957612059614284565b60200260200101516000145b156120735750600092915050565b8061207d8161429a565b915050611fcf565b50600192915050565b6120966125fa565b80516120a3906002612377565b604080518082019091526008815267383937bb34b232b960c11b602082015281516120d191600090896123dc565b6040805180820190915260078152661858d8dbdd5b9d60ca1b602082015281516120fe91600190886123dc565b602081015161210e906002612377565b61214c60006040518060400160405280600a8152602001691cdc98d0da185a5b925960b21b815250868460200151612439909392919063ffffffff16565b61219360016040518060400160405280600a815260200169616374696f6e5479706560b01b81525085600381111561218657612186612e0d565b6020850151929190612439565b60c08101516121a390600161248c565b6040805180820190915260068152653932b0b9b7b760d11b602082015260c08201516121d291600090856124ee565b866001600160a01b03166324de01e46121ea87611f93565b836040518363ffffffff1660e01b81526004016122089291906149be565b600060405180830381600087803b15801561222257600080fd5b505af1158015612236573d6000803e3d6000fd5b5050505050505050505050565b61224b6125fa565b8051612258906002612377565b604080518082019091526008815267383937bb34b232b960c11b6020820152815161228691600090896123dc565b6040805180820190915260078152661858d8dbdd5b9d60ca1b602082015281516122b391600190886123dc565b60208101516122c3906002612377565b61230160006040518060400160405280600a8152602001691cdc98d0da185a5b925960b21b815250868460200151612439909392919063ffffffff16565b61233b60016040518060400160405280600a815260200169616374696f6e5479706560b01b81525085600381111561218657612186612e0d565b608081015161234b906001612377565b6040805180820190915260038152626b657960e81b602082015260808201516121d29160009085612439565b806001600160401b0381111561238f5761238f61276f565b6040519080825280602002602001820160405280156123d557816020015b6040805180820190915260608152600060208201528152602001906001900390816123ad5790505b5090915250565b81846000015184815181106123f3576123f3614284565b602002602001015160000181905250808460000151848151811061241957612419614284565b6020908102919091018101516001600160a01b0390921691015250505050565b818460000151848151811061245057612450614284565b602002602001015160000181905250808460000151848151811061247657612476614284565b6020026020010151602001818152505050505050565b806001600160401b038111156124a4576124a461276f565b6040519080825280602002602001820160405280156123d557816020015b60408051808201909152606080825260208201528152602001906001900390816124c257505090915250565b818460000151848151811061250557612505614284565b602002602001015160000181905250808460000151848151811061252b5761252b614284565b60200260200101516020018190525050505050565b6040518060e00160405280600063ffffffff168152602001600081526020016000815260200161256e6126e6565b815260200161257b61259a565b81526020016125886125e0565b81526020016125956125e0565b905290565b6040518060e00160405280600063ffffffff1681526020016000801916815260200160008152602001600081526020016060815260200160608152602001606081525090565b604051806040016040528060008152602001600081525090565b604080516101208101909152606060e082018181526101008301919091528190815260200161263c604051806040016040528060608152602001606081525090565b815260200161265e604051806040016040528060608152602001606081525090565b8152602001612680604051806040016040528060608152602001606081525090565b81526020016126a2604051806040016040528060608152602001606081525090565b81526020016126c4604051806040016040528060608152602001606081525090565b8152602001612595604051806040016040528060608152602001606081525090565b60408051606081018252600080825260208201529081016125956125e0565b6001600160a01b0391909116815260200190565b6001600160a01b0381168114611d2857600080fd5b60008060006060848603121561274357600080fd5b833561274e81612719565b9250602084013561275e81612719565b929592945050506040919091013590565b634e487b7160e01b600052604160045260246000fd5b60a081016001600160401b03811182821017156127a4576127a461276f565b60405250565b604081016001600160401b03811182821017156127a4576127a461276f565b606081016001600160401b03811182821017156127a4576127a461276f565b61010081016001600160401b03811182821017156127a4576127a461276f565b601f8201601f191681016001600160401b038111828210171561282d5761282d61276f565b6040525050565b60405160c081016001600160401b03811182821017156128565761285661276f565b60405290565b604051612868816127e8565b90565b60405161012081016001600160401b03811182821017156128565761285661276f565b60405160e081016001600160401b03811182821017156128565761285661276f565b60006001600160401b038211156128c9576128c961276f565b50601f01601f191660200190565b600060208083850312156128ea57600080fd5b82356001600160401b038082111561290157600080fd5b9084019060a0828703121561291557600080fd5b60405161292181612785565b823561292c81612719565b81528284013561293b81612719565b81850152604083013561294d81612719565b60408201526060838101359082015260808301358281111561296e57600080fd5b80840193505086601f84011261298357600080fd5b82359150612990826128b0565b60405161299d8282612808565b83815288868587010111156129b157600080fd5b8386860187830137600086858301015280608084015250508094505050505092915050565b60008083601f8401126129e857600080fd5b5081356001600160401b038111156129ff57600080fd5b602083019150836020828501011115612a1757600080fd5b9250929050565b600080600080600080600060a0888a031215612a3957600080fd5b8735612a4481612719565b96506020880135955060408801356001600160401b0380821115612a6757600080fd5b612a738b838c016129d6565b909750955060608a01359150612a8882612719565b90935060808901359080821115612a9e57600080fd5b50612aab8a828b016129d6565b989b979a50959850939692959293505050565b6020808252600a908201526921a7a72a2927a62622a960b11b604082015260600190565b60208082526003908201526215d39560ea1b604082015260600190565b8051610d7d81612719565b600060208284031215612b1c57600080fd5b8151612b2781612719565b9392505050565b6001600160a01b03169052565b600060208284031215612b4d57600080fd5b815163ffffffff81168114612b2757600080fd5b600060208284031215612b7357600080fd5b5051919050565b6001600160a01b039889168152968816602088015294871660408701529286166060860152908516608085015290931660a083015260c082019290925260e08101919091526101000190565b634e487b7160e01b600052601160045260246000fd5b8181038181111561198957611989612bc6565b6001600160a01b03929092168252602082015260400190565b80518015158114610d7d57600080fd5b600060208284031215612c2a57600080fd5b612b2782612c08565b60005b83811015612c4e578181015183820152602001612c36565b50506000910152565b60008151808452612c6f816020860160208601612c33565b601f01601f19169290920160200192915050565b63ffffffff81511682526020810151602083015260408101516040830152606081015160608301526000608082015160e06080850152612cc660e0850182612c57565b905060a083015184820360a0860152612cdf8282612c57565b91505060c083015184820360c0860152612cf98282612c57565b95945050505050565b608081526000612d156080830186612c83565b8451602084810191909152909401516040830152506001600160a01b0391909116606090910152919050565b600060408284031215612d5357600080fd5b604051612d5f816127aa565b80915082518152602083015160208201525092915050565b60008082840360c0811215612d8b57600080fd5b6080811215612d9957600080fd5b50604051612da6816127c9565b8351815260208401516001600160401b0381168114612dc457600080fd5b6020820152612dd68560408601612d41565b60408201529150612dea8460808501612d41565b90509250929050565b6001600160a01b0392831681529116602082015260400190565b634e487b7160e01b600052602160045260246000fd5b6001600160a01b0383168152604060208201819052600090612e4790830184612c57565b949350505050565b6020808252601f908201527f4e41544956455f544f4b454e5f5452414e534645525f4741535f4c494d495400604082015260600190565b604081526000612e996040830185612c57565b8281036020840152612cf98185612c57565b602081526000612b276020830184612c83565b60006001600160401b03821115612ed757612ed761276f565b5060051b60200190565b600082601f830112612ef257600080fd5b8151612efd816128b0565b604051612f0a8282612808565b828152856020848701011115612f1f57600080fd5b612cf9836020830160208801612c33565b600080600060a08486031215612f4557600080fd5b612f4f8585612d41565b60408501519093506001600160401b0380821115612f6c57600080fd5b818601915086601f830112612f8057600080fd5b81516020612f8d82612ebe565b604051612f9a8282612808565b83815260059390931b850182019282810191508a841115612fba57600080fd5b8286015b8481101561303057805186811115612fd557600080fd5b87016040818e03601f19011215612feb57600080fd5b604051612ff7816127aa565b85820151815260408201518881111561300f57600080fd5b61301d8f8883860101612ee1565b8288015250845250918301918301612fbe565b508097505050505050506130478560608601612d41565b90509250925092565b6040815260006130636040830185612c83565b905082151560208301529392505050565b60006040828403121561308657600080fd5b612b278383612d41565b8082018082111561198957611989612bc6565b600080858511156130b357600080fd5b838611156130c057600080fd5b5050820193919092039150565b8035602083101561198957600019602084900360031b1b1692915050565b60008060006060848603121561310057600080fd5b835161310b81612719565b6020850151604086015191945092506001600160401b0381111561312e57600080fd5b61313a86828701612ee1565b9150509250925092565b6000806040838503121561315757600080fd5b82516004811061316657600080fd5b60208401519092506001600160401b0381111561318257600080fd5b61318e85828601612ee1565b9150509250929050565b600082601f8301126131a957600080fd5b815160206131b682612ebe565b6040516131c38282612808565b83815260059390931b85018201928281019150868411156131e357600080fd5b8286015b848110156132075780516131fa81612719565b83529183019183016131e7565b509695505050505050565b600082601f83011261322357600080fd5b8151602061323082612ebe565b60405161323d8282612808565b83815260059390931b850182019282810191508684111561325d57600080fd5b8286015b848110156132075780516001600160401b038111156132805760008081fd5b61328e8986838b0101612ee1565b845250918301918301613261565b6000606082840312156132ae57600080fd5b6040516132ba816127c9565b825190915081906001600160401b03808211156132d657600080fd5b6132e286838701613198565b835260208501519150808211156132f857600080fd5b61330486838701613198565b6020840152604085015191508082111561331d57600080fd5b5061332a85828601613212565b6040830152505092915050565b600082601f83011261334857600080fd5b8151602061335582612ebe565b6040516133628282612808565b83815260059390931b850182019282810191508684111561338257600080fd5b8286015b848110156132075780518352918301918301613386565b600060c082840312156133af57600080fd5b6133b7612834565b82519091506001600160401b03808211156133d157600080fd5b6133dd85838601613198565b835260208401519150808211156133f357600080fd5b6133ff85838601613337565b6020840152604084015191508082111561341857600080fd5b61342485838601613198565b6040840152606084015191508082111561343d57600080fd5b61344985838601613212565b6060840152608084015191508082111561346257600080fd5b61346e85838601613198565b608084015260a084015191508082111561348757600080fd5b5061349484828501613198565b60a08301525092915050565b805160ff81168114610d7d57600080fd5b600082601f8301126134c257600080fd5b815160206134cf82612ebe565b604080516134dd8382612808565b84815260089490941b86018301938381019250878511156134fd57600080fd5b8387015b8581101561359757610100818a03121561351b5760008081fd5b8251613526816127e8565b61352f82612aff565b815261353c868301612aff565b81870152818401518482015260608083015190820152608061355f8184016134a0565b9082015260a0828101519082015260c0808301519082015260e0613584818401612aff565b9082015284529284019261010001613501565b50979650505050505050565b6000606082840312156135b557600080fd5b6040516135c1816127c9565b80915082516135cf81612719565b81526020838101519082015260408301516001600160401b038111156135f457600080fd5b61332a85828601613198565b6000610100828403121561361357600080fd5b61361b61285c565b82519091506001600160401b038082111561363557600080fd5b6136418583860161329c565b8352602084015191508082111561365757600080fd5b6136638583860161339d565b6020840152604084015191508082111561367c57600080fd5b613688858386016134b1565b604084015260608401519150808211156136a157600080fd5b6136ad858386016135a3565b60608401526080840151608084015260a084015160a084015260c08401519150808211156136da57600080fd5b506136e784828501612ee1565b60c08301525060e082015160e082015292915050565b60006060828403121561370f57600080fd5b60405161371b816127c9565b825190915081906001600160401b038082111561373757600080fd5b61374386838701613198565b8352602085015191508082111561375957600080fd5b61376586838701613198565b6020840152604085015191508082111561377e57600080fd5b5061332a85828601613337565b6000610100828403121561379e57600080fd5b6137a661285c565b90506137b182612aff565b81526137bf60208301612aff565b60208201526137d060408301612aff565b60408201526137e160608301612aff565b60608201526137f260808301612aff565b608082015261380360a08301612aff565b60a082015260c08201516001600160401b038082111561382257600080fd5b61382e85838601613198565b60c084015260e084015191508082111561384757600080fd5b5061385484828501613198565b60e08301525092915050565b60008060006060848603121561387557600080fd5b83516001600160401b038082111561388c57600080fd5b61389887838801613600565b945060208601519150808211156138ae57600080fd5b6138ba878388016136fd565b935060408601519150808211156138d057600080fd5b9085019060c082880312156138e457600080fd5b6138ec612834565b8251828111156138fb57600080fd5b6139078982860161378b565b8252506020830151602082015261392060408401612c08565b6040820152606083015160608201526080830151608082015260a08301518281111561394b57600080fd5b61395789828601613337565b60a0830152508093505050509250925092565b600081518084526020808501945080840160005b838110156139a35781516001600160a01b03168752958201959082019060010161397e565b509495945050505050565b600081518084526020808501808196508360051b8101915082860160005b858110156139f65782840389526139e4848351612c57565b988501989350908401906001016139cc565b5091979650505050505050565b6000815160608452613a18606085018261396a565b905060208301518482036020860152613a31828261396a565b91505060408301518482036040860152612cf982826139ae565b600081518084526020808501945080840160005b838110156139a357815187529582019590820190600101613a5f565b6000815160c08452613a9060c085018261396a565b905060208301518482036020860152613aa98282613a4b565b91505060408301518482036040860152613ac3828261396a565b91505060608301518482036060860152613add82826139ae565b91505060808301518482036080860152613af7828261396a565b91505060a083015184820360a0860152612cf9828261396a565b600081518084526020808501945080840160005b838110156139a357815180516001600160a01b039081168952848201511684890152604080820151908901526060808201519089015260808082015160ff169089015260a0808201519089015260c0808201519089015260e09081015190613b8f818a0183612b2e565b5050610100969096019590820190600101613b25565b60018060a01b038151168252602081015160208301526000604082015160606040850152612e47606085018261396a565b60006101008251818552613bec82860182613a03565b91505060208301518482036020860152613c068282613a7b565b91505060408301518482036040860152613c208282613b11565b91505060608301518482036060860152613c3a8282613ba5565b9150506080830151608085015260a083015160a085015260c083015184820360c0860152613c688282612c57565b91505060e083015160e08501528091505092915050565b6000815160608452613c94606085018261396a565b905060208301518482036020860152613cad828261396a565b91505060408301518482036040860152612cf98282613a4b565b60a081526000613cda60a0830188613bd6565b6001600160a01b038781166020850152604084018790528382036060850152613d038287613c7f565b91508382036080850152845160c083528181511660c084015260208101519150613d3060e0840183612b2e565b60408101519150610100613d4681850184612b2e565b60608201519250613d5b610120850184612b2e565b60808201519250613d70610140850184612b2e565b60a08201519250613d85610160850184612b2e565b60c082015192508061018085015250613da26101c084018361396a565b915060e0810151905060bf19838303016101a0840152613dc2828261396a565b915050602085015160208301526040850151613de2604084018215159052565b50606085015160608301526080850151608083015260a085015182820360a0840152613e0e8282613a4b565b9a9950505050505050505050565b600060033d11156128685760046000803e5060005160e01c90565b600060443d1015613e455790565b6040516003193d81016004833e81513d6001600160401b038083116024840183101715613e7457505050505090565b8285019150815181811115613e8c5750505050505090565b843d8701016020828501011115613ea65750505050505090565b613eb560208286010187612808565b509095945050505050565b60006101208284031215613ed357600080fd5b613edb61286b565b9050613ee682612aff565b8152613ef460208301612aff565b6020820152613f0560408301612aff565b6040820152613f1660608301612aff565b6060820152613f2760808301612aff565b6080820152613f3860a08301612aff565b60a0820152613f4960c08301612aff565b60c082015260e08201516001600160401b0380821115613f6857600080fd5b613f7485838601613198565b60e084015261010091508184015181811115613f8f57600080fd5b613f9b86828701613198565b8385015250505092915050565b600080600060608486031215613fbd57600080fd5b83516001600160401b0380821115613fd457600080fd5b613fe087838801613600565b94506020860151915080821115613ff657600080fd5b614002878388016136fd565b9350604086015191508082111561401857600080fd5b9085019060e0828803121561402c57600080fd5b61403461288e565b82518281111561404357600080fd5b61404f89828601613ec0565b82525060208301516020820152604083015160408201526060830151606082015261407c60808401612c08565b608082015261408d60a08401612c08565b60a082015260c0830151828111156140a457600080fd5b6140b089828601613337565b60c0830152508093505050509250925092565b60a0815260006140d660a0830188613bd6565b6001600160a01b03871660208401526040830186905282810360608401526140fe8186613c7f565b90508281036080840152835160e0825261411c60e083018251612b2e565b602081015161010061413081850183612b2e565b6040830151915061012061414681860184612b2e565b6060840151925061415b610140860184612b2e565b60808401519250614170610160860184612b2e565b60a08401519250614185610180860184612b2e565b60c0840151925061419a6101a0860184612b2e565b60e08401519250806101c0860152506141b761020085018361396a565b92015183830360df19016101e08501529190506141d4818361396a565b9150506020850151602083015260408501516040830152606085015160608301526080850151614208608084018215159052565b5060a085015161421c60a084018215159052565b5060c085015182820360c0840152613e0e8282613a4b565b60008251614246818460208701612c33565b9190910192915050565b60006020828403121561426257600080fd5b81516001600160401b0381111561427857600080fd5b612e4784828501612ee1565b634e487b7160e01b600052603260045260246000fd5b6000600182016142ac576142ac612bc6565b5060010190565b600081518084526020808501808196508360051b8101915082860160005b858110156139f65782840389528151604081518187526142f382880182612c57565b9150508682015191508581038787015261430d818361396a565b9a87019a95505050908401906001016142d1565b60006040808401835182865281815180845260608801915060608160051b89010193506020808401935060005b8281101561439857898603605f190184528451805188885261437289890182612c57565b918401516001600160a01b0316978401979097529550938101939281019260010161434e565b50808801519550888503818a015250505050612cf981836142b3565b600081518084526020808501808196508360051b8101915082860160005b858110156139f65782840389528151604081518187526143f482880182612c57565b9150508682015191508581038787015261440e8183613a4b565b9a87019a95505050908401906001016143d2565b60006040808401835182865281815180845260608801915060608160051b89010193506020808401935060005b8281101561449057898603605f190184528451805188885261447389890182612c57565b91840151978401979097529550938101939281019260010161444f565b50808801519550888503818a015250505050612cf981836143b4565b600081518084526020808501808196508360051b810191508286016000805b8681101561453e578385038a528251604081518188526144ed82890182612c57565b92890151888403898b01528051808552908a01938693508a0191505b808310156145295783518252928901926001929092019190890190614509565b509b88019b96505050918501916001016144cb565b509298975050505050505050565b60006040808401835182865281815180845260608801915060608160051b89010193506020808401935060005b828110156145ba57898603605f190184528451805188885261459d89890182612c57565b918401519784019790975295509381019392810192600101614579565b50808801519550888503818a015250505050612cf981836144ac565b600081518084526020808501808196508360051b810191508286016000805b8681101561453e578385038a5282516040815181885261461782890182612c57565b92890151888403898b01528051808552908a01938693508a0191505b8083101561465557835115158252928901926001929092019190890190614633565b509b88019b96505050918501916001016145f5565b60006040808401835182865281815180845260608801915060608160051b89010193506020808401935060005b828110156146da57898603605f19018452845180518888526146bb89890182612c57565b9184015115159784019790975295509381019392810192600101614697565b50808801519550888503818a015250505050612cf981836145d6565b60006040808401835182865281815180845260608801915060608160051b89010193506020808401935060005b8281101561449057898603605f190184528451805188885261474789890182612c57565b918401519784019790975295509381019392810192600101614723565b600081518084526020808501808196508360051b8101915082860160005b858110156139f65782840389528151604081518187526147a482880182612c57565b915050868201519150858103878701526147be81836139ae565b9a87019a9550505090840190600101614782565b60006040808401835182865281815180845260608801915060608160051b89010193506020808401935060005b8281101561484f57898603605f190184528451805188885261482389890182612c57565b918401518883038986015291905061483b8183612c57565b9750505093810193928101926001016147ff565b50808801519550888503818a015250505050612cf98183614764565b600081518084526020808501808196506005915083821b81018387016000805b87811015614916578484038b528251604081518187526148ad82880182612c57565b928a0151878403888c01528051808552908b019392508a83019150808a1b83018b01865b828110156148ff57601f198583030184526148ed828751612c57565b958d0195938d019391506001016148d1565b509e8b019e9750505093880193505060010161488b565b50919998505050505050505050565b60006040808401835182865281815180845260608801915060608160051b89010193506020808401935060005b828110156149a257898603605f190184528451805188885261497689890182612c57565b918401518883038986015291905061498e8183612c57565b975050509381019392810192600101614952565b50808801519550888503818a015250505050612cf9818361486b565b6060815260116060820152704465706f73697446726f6d42726964676560781b608082015282602082015260a060408201526000825160e060a0840152614a09610180840182614321565b90506020840151609f19808584030160c0860152614a278383614422565b925060408601519150808584030160e0860152614a44838361454c565b9250606086015191508085840301610100860152614a62838361466a565b9250608086015191508085840301610120860152614a8083836146f6565b925060a086015191508085840301610140860152614a9e83836147d2565b925060c08601519150808584030161016086015250614abd8282614925565b969550505050505056fea2646970667358221220cb35bff53b75ba29d8ae06e0e5cd502596c120a7c47003cfc6aa08fb1d7346d364736f6c63430008140033",
  "libraries": {
    "MultichainUtils": "0xd5B084178923E70872C5630412c3f5D7DFFe83EE"
  },
  "devdoc": {
    "kind": "dev",
    "methods": {
      "bridgeOut((address,address,address,uint256,bytes))": {
        "details": "Processes a cross-chain transfer of tokens from user's multichain balanceCalled by MultichainTransferRouter This function: 1. Approves tokens to be spent by Stargate 2. Prepares the necessary parameters and quotes fees 3. Transfers the bridging fee (in WNT) from user's multichain balance 4. Unwraps WNT to ETH to pay for the cross-chain fee 5. Transfers the tokens to be bridged from user's multichain balance 6. Calls Stargate to initiate the cross-chain transfer",
        "params": {
          "params": "A struct containing:        - provider: Address of the Stargate pool        - account: User account bridging tokens        - token: Address of token being bridged        - amount: Amount of tokens to bridge        - srcChainId: Source chain ID (for multichain balance accounting)        - data: ABI-encoded destination endpoint ID (dstEid)"
        },
        "returns": {
          "_0": "The amount of tokens bridged out (may be slightly different from params.amount after LZ precision/path limits adjustments)"
        }
      },
      "lzCompose(address,bytes32,bytes,address,bytes)": {
        "details": "Handles the receipt of bridged tokens and optionally executes a deposit action.If a user bridges tokens with deposit data, and already has sufficient funds in their multichain balance, it is possible for multiple bridge transactions to result in multiple deposits (i.e. double mints). For example, if a user bridges 10 WETH and 20,000 USDC, both with deposit data, and already has enough funds, both bridge transactions could result in a deposit. It is recommended that the interface or frontend enforces that users only bridge amounts that would not result in double deposits.",
        "params": {
          "from": "The address of the sender (i.e. Stargate address, not user's address). param guid A global unique identifier for tracking the packet.",
          "message": "Encoded message. Contains the params needed to record the deposit (account, srcChainId) param executor The address of the Executor. param extraData Any extra data or options to trigger on receipt."
        }
      },
      "withdrawTokens(address,address,uint256)": {
        "details": "Callable through the timelock contract.",
        "params": {
          "amount": "The amount of tokens to withdraw.",
          "receiver": "The address receiving the withdrawn tokens.",
          "token": "The address of the token to withdraw."
        }
      }
    },
    "title": "LayerZeroProvider Bridging In is done throught lzCompose (receives tokens + encoded message from a source chain) Bridging Out is done through bridgeOut (sends tokens to a source chain) Defines lzCompose function which:  - is called by the Stargate executor after tokens are delivered to this contract  - forwards the received tokens to MultichainVault and increases user's multichain balance Defines bridgeOut function which: - sends tokens to the Stargate executor for bridging out to the source chain",
    "version": 1
  },
  "userdoc": {
    "kind": "user",
    "methods": {
      "bridgeOut((address,address,address,uint256,bytes))": {
        "notice": "Bridges tokens from the current chain to a source chain using Stargate protocol"
      },
      "lzCompose(address,bytes32,bytes,address,bytes)": {
        "notice": "Called by Stargate after tokens have been delivered to this contract."
      },
      "withdrawTokens(address,address,uint256)": {
        "notice": "Withdraws tokens which have been locked in this contract due to potential errors in lzCompose (e.g. incorrect message format)."
      }
    },
    "version": 1
  },
  "storageLayout": {
    "storage": [],
    "types": null
  }
}