{
  "address": "0x886156a4420D724faF838A97fEB4680AD75BC481",
  "abi": [
    {
      "inputs": [
        {
          "internalType": "contract DataStore",
          "name": "_dataStore",
          "type": "address"
        },
        {
          "internalType": "contract RoleStore",
          "name": "_roleStore",
          "type": "address"
        },
        {
          "internalType": "contract EventEmitter",
          "name": "_eventEmitter",
          "type": "address"
        },
        {
          "internalType": "contract MultichainVault",
          "name": "_multichainVault",
          "type": "address"
        }
      ],
      "stateMutability": "nonpayable",
      "type": "constructor"
    },
    {
      "inputs": [],
      "name": "EmptyHoldingAddress",
      "type": "error"
    },
    {
      "inputs": [],
      "name": "EmptyReceiver",
      "type": "error"
    },
    {
      "inputs": [
        {
          "internalType": "address",
          "name": "token",
          "type": "address"
        }
      ],
      "name": "EmptyTokenTranferGasLimit",
      "type": "error"
    },
    {
      "inputs": [
        {
          "internalType": "address",
          "name": "token",
          "type": "address"
        }
      ],
      "name": "InvalidBridgeOutToken",
      "type": "error"
    },
    {
      "inputs": [
        {
          "internalType": "address",
          "name": "token",
          "type": "address"
        },
        {
          "internalType": "address",
          "name": "receiver",
          "type": "address"
        },
        {
          "internalType": "uint256",
          "name": "amount",
          "type": "uint256"
        }
      ],
      "name": "TokenTransferError",
      "type": "error"
    },
    {
      "inputs": [
        {
          "internalType": "address",
          "name": "msgSender",
          "type": "address"
        },
        {
          "internalType": "string",
          "name": "role",
          "type": "string"
        }
      ],
      "name": "Unauthorized",
      "type": "error"
    },
    {
      "anonymous": false,
      "inputs": [
        {
          "indexed": false,
          "internalType": "string",
          "name": "reason",
          "type": "string"
        },
        {
          "indexed": false,
          "internalType": "bytes",
          "name": "returndata",
          "type": "bytes"
        }
      ],
      "name": "TokenTransferReverted",
      "type": "event"
    },
    {
      "inputs": [
        {
          "components": [
            {
              "internalType": "address",
              "name": "provider",
              "type": "address"
            },
            {
              "internalType": "address",
              "name": "account",
              "type": "address"
            },
            {
              "internalType": "address",
              "name": "token",
              "type": "address"
            },
            {
              "internalType": "uint256",
              "name": "amount",
              "type": "uint256"
            },
            {
              "internalType": "uint256",
              "name": "srcChainId",
              "type": "uint256"
            },
            {
              "internalType": "bytes",
              "name": "data",
              "type": "bytes"
            }
          ],
          "internalType": "struct IMultichainProvider.BridgeOutParams",
          "name": "params",
          "type": "tuple"
        }
      ],
      "name": "bridgeOut",
      "outputs": [
        {
          "internalType": "uint256",
          "name": "",
          "type": "uint256"
        }
      ],
      "stateMutability": "nonpayable",
      "type": "function"
    },
    {
      "inputs": [],
      "name": "dataStore",
      "outputs": [
        {
          "internalType": "contract DataStore",
          "name": "",
          "type": "address"
        }
      ],
      "stateMutability": "view",
      "type": "function"
    },
    {
      "inputs": [],
      "name": "eventEmitter",
      "outputs": [
        {
          "internalType": "contract EventEmitter",
          "name": "",
          "type": "address"
        }
      ],
      "stateMutability": "view",
      "type": "function"
    },
    {
      "inputs": [
        {
          "internalType": "address",
          "name": "from",
          "type": "address"
        },
        {
          "internalType": "bytes32",
          "name": "",
          "type": "bytes32"
        },
        {
          "internalType": "bytes",
          "name": "message",
          "type": "bytes"
        },
        {
          "internalType": "address",
          "name": "",
          "type": "address"
        },
        {
          "internalType": "bytes",
          "name": "",
          "type": "bytes"
        }
      ],
      "name": "lzCompose",
      "outputs": [],
      "stateMutability": "payable",
      "type": "function"
    },
    {
      "inputs": [],
      "name": "multichainVault",
      "outputs": [
        {
          "internalType": "contract MultichainVault",
          "name": "",
          "type": "address"
        }
      ],
      "stateMutability": "view",
      "type": "function"
    },
    {
      "inputs": [],
      "name": "roleStore",
      "outputs": [
        {
          "internalType": "contract RoleStore",
          "name": "",
          "type": "address"
        }
      ],
      "stateMutability": "view",
      "type": "function"
    },
    {
      "stateMutability": "payable",
      "type": "receive"
    }
  ],
  "transactionHash": "0xffae715d9a68f85e177037d946bbf71729d00a65d97a76719638e8136779ebd9",
  "args": [
    "0xB558f529F97a405178E2437737F97Bb10eFadAfE",
    "0xB0681d729Fc85C93b442Eaf110A847dB8d3cF28F",
    "0x3Ab21B44cffFD87a69F909f40dD2335ff68945A8",
    "0x924Bb6a9FA7aA0b96697AD8Fd934C782E45DF52f"
  ],
  "numDeployments": 4,
  "solcInputHash": "56be4a23543c966cc969a78e013c5aca",
  "bytecode": "0x6101006040523480156200001257600080fd5b506040516200256c3803806200256c833981016040819052620000359162000071565b6001600160a01b0392831660805292821660a052811660c0521660e052620000d9565b6001600160a01b03811681146200006e57600080fd5b50565b600080600080608085870312156200008857600080fd5b8451620000958162000058565b6020860151909450620000a88162000058565b6040860151909350620000bb8162000058565b6060860151909250620000ce8162000058565b939692955090935050565b60805160a05160c05160e051612390620001dc6000396000818160eb0152818161056601528181610716015281816107b30152818161092401528181610a5301528181610aed01528181610d7401528181610df00152610e8801526000818161015301528181610544015281816107910152818161090201528181610ac50152610e6601526000818161011f0152818161020d015281816105220152818161063c015281816106f40152818161076f015281816108e001528181610a3101528181610a9d01528181610bcb01528181610c5401528181610d5301528181610d9e01528181610dce0152610e4401526000818160aa0152610f0f01526123906000f3fe6080604052600436106100595760003560e01c8063416f7985146100655780634a4a7b0414610098578063528a65f4146100d9578063660d0d671461010d5780639ff78c3014610141578063d0a102601461017557600080fd5b3661006057005b600080fd5b34801561007157600080fd5b50610085610080366004611ba0565b61018a565b6040519081526020015b60405180910390f35b3480156100a457600080fd5b506100cc7f000000000000000000000000000000000000000000000000000000000000000081565b60405161008f9190611c5b565b3480156100e557600080fd5b506100cc7f000000000000000000000000000000000000000000000000000000000000000081565b34801561011957600080fd5b506100cc7f000000000000000000000000000000000000000000000000000000000000000081565b34801561014d57600080fd5b506100cc7f000000000000000000000000000000000000000000000000000000000000000081565b610188610183366004611cb7565b610b9c565b005b60006101fb6040516020016101bd906020808252600a908201526921a7a72a2927a62622a960b11b604082015260600190565b604051602081830303815290604052805190602001206040518060400160405280600a81526020016921a7a72a2927a62622a960b11b815250610ef8565b81516040516000906001600160a01b037f000000000000000000000000000000000000000000000000000000000000000016906321f8a7219061024090602001611d57565b604051602081830303815290604052805190602001206040518263ffffffff1660e01b815260040161027491815260200190565b602060405180830381865afa158015610291573d6000803e3d6000fd5b505050506040513d601f19601f820116820180604052508101906102b59190611d74565b905060006001600160a01b0316826001600160a01b031663fc0c546a6040518163ffffffff1660e01b8152600401602060405180830381865afa158015610300573d6000803e3d6000fd5b505050506040513d601f19601f820116820180604052508101906103249190611d74565b6001600160a01b03160361037c57806001600160a01b031684604001516001600160a01b031614610377578360400151604051632877599b60e01b815260040161036e9190611c5b565b60405180910390fd5b610419565b816001600160a01b031663fc0c546a6040518163ffffffff1660e01b8152600401602060405180830381865afa1580156103ba573d6000803e3d6000fd5b505050506040513d601f19601f820116820180604052508101906103de9190611d74565b6001600160a01b031684604001516001600160a01b031614610419578360400151604051632877599b60e01b815260040161036e9190611c5b565b6104216119b9565b61044c83866060015187602001518860a001518060200190518101906104479190611d98565b610fac565b608085018190526060808601929092526040808601939093529284529151918701829052868101518751915163095ea7b360e01b81526001600160a01b039091169263095ea7b3926104a392909190600401611dbe565b6020604051808303816000875af11580156104c2573d6000803e3d6000fd5b505050506040513d601f19601f820116820180604052508101906104e69190611dd7565b506020850151815160808701516040516313bc4d6960e01b815273843F921839c09d07529121d29aeA5934D28D68D2936313bc4d6993610595937f0000000000000000000000000000000000000000000000000000000000000000937f0000000000000000000000000000000000000000000000000000000000000000937f0000000000000000000000000000000000000000000000000000000000000000938b939192309290600401611df9565b60006040518083038186803b1580156105ad57600080fd5b505af41580156105c1573d6000803e3d6000fd5b50506040516370a0823160e01b8152600092506001600160a01b03851691506370a08231906105f4903090600401611c5b565b602060405180830381865afa158015610611573d6000803e3d6000fd5b505050506040513d601f19601f820116820180604052508101906106359190611e45565b90506106677f0000000000000000000000000000000000000000000000000000000000000000843085600001516111bf565b6040516370a0823160e01b81526000906001600160a01b038516906370a0823190610696903090600401611c5b565b602060405180830381865afa1580156106b3573d6000803e3d6000fd5b505050506040513d601f19601f820116820180604052508101906106d79190611e45565b9050818111156108225760006106ed8383611e74565b905061073b7f0000000000000000000000000000000000000000000000000000000000000000867f000000000000000000000000000000000000000000000000000000000000000084611320565b602088015160405163880af8af60e01b815273843F921839c09d07529121d29aeA5934D28D68D29163880af8af916107e4917f0000000000000000000000000000000000000000000000000000000000000000917f0000000000000000000000000000000000000000000000000000000000000000917f00000000000000000000000000000000000000000000000000000000000000009130918d918a90600090600401611df9565b60006040518083038186803b1580156107fc57600080fd5b505af4158015610810573d6000803e3d6000fd5b5060009b9a5050505050505050505050565b60006001600160a01b0316856001600160a01b031663fc0c546a6040518163ffffffff1660e01b8152600401602060405180830381865afa15801561086b573d6000803e3d6000fd5b505050506040513d601f19601f8201168201806040525081019061088f9190611d74565b6001600160a01b03161461098057604080880151602089015160608a015160808b015193516313bc4d6960e01b815273843F921839c09d07529121d29aeA5934D28D68D2946313bc4d699461094f947f0000000000000000000000000000000000000000000000000000000000000000947f0000000000000000000000000000000000000000000000000000000000000000947f000000000000000000000000000000000000000000000000000000000000000094309291600401611df9565b60006040518083038186803b15801561096757600080fd5b505af415801561097b573d6000803e3d6000fd5b505050505b846001600160a01b031663c7c7f5b3846000015185604001518660600151306040518563ffffffff1660e01b81526004016109bd93929190611f56565b60c06040518083038185885af11580156109db573d6000803e3d6000fd5b50505050506040513d601f19601f82011682018060405250810190610a009190611fc5565b5060208401819052606084015151604090910151511015610b8c5760208301516040015151606084015151610a81917f0000000000000000000000000000000000000000000000000000000000000000917f000000000000000000000000000000000000000000000000000000000000000091610a7c91611e74565b61156a565b60208701516040516315ff6d2d60e01b81526001600160a01b037f0000000000000000000000000000000000000000000000000000000000000000811660048301527f0000000000000000000000000000000000000000000000000000000000000000811660248301527f00000000000000000000000000000000000000000000000000000000000000008116604483015280871660648301529091166084820152600060a482015273843F921839c09d07529121d29aeA5934D28D68D2906315ff6d2d9060c401602060405180830381865af4158015610b66573d6000803e3d6000fd5b505050506040513d601f19601f82011682018060405250810190610b8a9190611e45565b505b5050506060909301519392505050565b604051637e12891f60e11b815273843F921839c09d07529121d29aeA5934D28D68D29063fc25123e90610bf5907f0000000000000000000000000000000000000000000000000000000000000000908b90600401612058565b60006040518083038186803b158015610c0d57600080fd5b505af4158015610c21573d6000803e3d6000fd5b50506040516301fa95c960e21b815273843F921839c09d07529121d29aeA5934D28D68D292506307ea57249150610c7e907f0000000000000000000000000000000000000000000000000000000000000000903390600401612058565b60006040518083038186803b158015610c9657600080fd5b505af4158015610caa573d6000803e3d6000fd5b505050506000610cba86866115ed565b90506000610cc8878761160f565b9050600080610cd68361165a565b9150915060008b6001600160a01b031663fc0c546a6040518163ffffffff1660e01b8152600401602060405180830381865afa158015610d1a573d6000803e3d6000fd5b505050506040513d601f19601f82011682018060405250810190610d3e9190611d74565b90506001600160a01b038116610dc957610d997f00000000000000000000000000000000000000000000000000000000000000007f00000000000000000000000000000000000000000000000000000000000000008761156a565b610dc27f000000000000000000000000000000000000000000000000000000000000000061167a565b9050610e15565b610e157f0000000000000000000000000000000000000000000000000000000000000000827f000000000000000000000000000000000000000000000000000000000000000088611320565b60405163880af8af60e01b815273843F921839c09d07529121d29aeA5934D28D68D29063880af8af90610eba907f0000000000000000000000000000000000000000000000000000000000000000907f0000000000000000000000000000000000000000000000000000000000000000907f000000000000000000000000000000000000000000000000000000000000000090309088908b908e908c90600401611df9565b60006040518083038186803b158015610ed257600080fd5b505af4158015610ee6573d6000803e3d6000fd5b50505050505050505050505050505050565b60405163ac4ab3fb60e01b81526001600160a01b037f0000000000000000000000000000000000000000000000000000000000000000169063ac4ab3fb90610f469033908690600401611dbe565b602060405180830381865afa158015610f63573d6000803e3d6000fd5b505050506040513d601f19601f82011682018060405250810190610f879190611dd7565b610fa857338160405163a35b150b60e01b815260040161036e929190612072565b5050565b6000610fb66119ff565b610fbe611a45565b610fc6611a45565b6040518060e001604052808663ffffffff168152602001610fed886001600160a01b031690565b815260208082018a905260408083018b9052805180830182526000808252606085019190915281518084018352818152608085015281519283018252825260a09092015251630d35b41560e01b81529093506001600160a01b03891690630d35b4159061105e90869060040161209e565b600060405180830381865afa15801561107b573d6000803e3d6000fd5b505050506040513d6000823e601f3d908101601f191682016040526110a391908101906120f6565b60208101516060870152604051633b6f743b60e01b81529093506001600160a01b038b169250633b6f743b91506110e190869060009060040161221c565b6040805180830381865afa1580156110fd573d6000803e3d6000fd5b505050506040513d601f19601f820116820180604052508101906111219190612240565b91508160000151935060006001600160a01b0316886001600160a01b031663fc0c546a6040518163ffffffff1660e01b8152600401602060405180830381865afa158015611173573d6000803e3d6000fd5b505050506040513d601f19601f820116820180604052508101906111979190611d74565b6001600160a01b0316036111b45780516111b1908561225c565b93505b945094509450949050565b801561131a576111ce8261170f565b604051632e1a7d4d60e01b8152600481018290526001600160a01b03841690632e1a7d4d90602401600060405180830381600087803b15801561121057600080fd5b505af1158015611224573d6000803e3d6000fd5b505050506000846001600160a01b031663bd02d0f560405160200161127a906020808252601f908201527f4e41544956455f544f4b454e5f5452414e534645525f4741535f4c494d495400604082015260600190565b604051602081830303815290604052805190602001206040518263ffffffff1660e01b81526004016112ae91815260200190565b602060405180830381865afa1580156112cb573d6000803e3d6000fd5b505050506040513d601f19601f820116820180604052508101906112ef9190611e45565b90506000806000806000868887f19050801561130c57505061131a565b61131786858561156a565b50505b50505050565b801561131a5761132f8261170f565b6000846001600160a01b031663bd02d0f561134986611739565b6040518263ffffffff1660e01b815260040161136791815260200190565b602060405180830381865afa158015611384573d6000803e3d6000fd5b505050506040513d601f19601f820116820180604052508101906113a89190611e45565b9050806000036113cd5783604051634fe14bfd60e11b815260040161036e9190611c5b565b60006113db858585856117c1565b50905080156113eb57505061131a565b6000866001600160a01b03166321f8a72160405160200161142f906020808252600f908201526e484f4c44494e475f4144445245535360881b604082015260600190565b604051602081830303815290604052805190602001206040518263ffffffff1660e01b815260040161146391815260200190565b602060405180830381865afa158015611480573d6000803e3d6000fd5b505050506040513d601f19601f820116820180604052508101906114a49190611d74565b90506001600160a01b0381166114cd57604051633a6de2f560e21b815260040160405180910390fd5b6000806114dc888488886117c1565b9150915081156114f057505050505061131a565b60006114fb82611929565b5090507fc9f14d9a0a9b46470c7c0b6c508f8283abaab7f795f153953c58cd4250824dae818360405161152f92919061226f565b60405180910390a160405163012f3b8f60e71b81526001600160a01b03808b166004830152891660248201526044810188905260640161036e565b8060000361157757505050565b6115808261170f565b600061158b8461167a565b9050806001600160a01b031663d0e30db0836040518263ffffffff1660e01b81526004016000604051808303818588803b1580156115c857600080fd5b505af11580156115dc573d6000803e3d6000fd5b505050505061131a84828585611320565b60006115fd602c600c8486612294565b611606916122be565b90505b92915050565b606061161e82604c8186612294565b8080601f016020809104026020016040519081016040528093929190818152602001838380828437600092019190915250929695505050505050565b6000808280602001905181019061167191906122dc565b91509150915091565b6000816001600160a01b03166321f8a72160405160200161169a90611d57565b604051602081830303815290604052805190602001206040518263ffffffff1660e01b81526004016116ce91815260200190565b602060405180830381865afa1580156116eb573d6000803e3d6000fd5b505050506040513d601f19601f820116820180604052508101906116099190611d74565b6001600160a01b0381166117365760405163d551823d60e01b815260040160405180910390fd5b50565b6000604051602001611777906020808252601890820152771513d2d15397d514905394d1915497d1d054d7d31253525560421b604082015260600190565b60408051601f198184030181528282528051602091820120908301526001600160a01b03841690820152606001604051602081830303815290604052805190602001209050919050565b60006060600063a9059cbb60e01b86866040516024016117e2929190611dbe565b604051602081830303815290604052906001600160e01b0319166020820180516001600160e01b0383818316178352505050509050600080886001600160a01b03168684604051611833919061230a565b60006040518083038160008787f1925050503d8060008114611871576040519150601f19603f3d011682016040523d82523d6000602084013e611876565b606091505b509150915081156119175780516000036118d4576001600160a01b0389163b6118d45760006040518060400160405280601481526020017310d85b1b081d1bc81b9bdb8b58dbdb9d1c9858dd60621b81525094509450505050611920565b600081511180156118f65750808060200190518101906118f49190611dd7565b155b1561190957600094509250611920915050565b600194509250611920915050565b60009450925050505b94509492505050565b60606000604483511015611950575050604080516020810190915260008082529092909150565b600061195d846020015190565b90506307b9e43360e51b6001600160e01b031982160161199c57600484019350838060200190518101906119919190612326565b946001945092505050565b600060405180602001604052806000815250909250925050915091565b6040518060a00160405280600081526020016119d3611a5f565b81526020016119e06119ff565b81526020016119ed611a45565b81526020016119fa611a45565b905290565b6040518060e00160405280600063ffffffff1681526020016000801916815260200160008152602001600081526020016060815260200160608152602001606081525090565b604051806040016040528060008152602001600081525090565b60408051606081018252600080825260208201529081016119fa611a45565b634e487b7160e01b600052604160045260246000fd5b60405160c081016001600160401b0381118282101715611ab657611ab6611a7e565b60405290565b604080519081016001600160401b0381118282101715611ab657611ab6611a7e565b604051601f8201601f191681016001600160401b0381118282101715611b0657611b06611a7e565b604052919050565b6001600160a01b038116811461173657600080fd5b60006001600160401b03821115611b3c57611b3c611a7e565b50601f01601f191660200190565b600082601f830112611b5b57600080fd5b8135611b6e611b6982611b23565b611ade565b818152846020838601011115611b8357600080fd5b816020850160208301376000918101602001919091529392505050565b600060208284031215611bb257600080fd5b81356001600160401b0380821115611bc957600080fd5b9083019060c08286031215611bdd57600080fd5b611be5611a94565b8235611bf081611b0e565b81526020830135611c0081611b0e565b60208201526040830135611c1381611b0e565b80604083015250606083013560608201526080830135608082015260a083013582811115611c4057600080fd5b611c4c87828601611b4a565b60a08301525095945050505050565b6001600160a01b0391909116815260200190565b60008083601f840112611c8157600080fd5b5081356001600160401b03811115611c9857600080fd5b602083019150836020828501011115611cb057600080fd5b9250929050565b600080600080600080600060a0888a031215611cd257600080fd5b8735611cdd81611b0e565b96506020880135955060408801356001600160401b0380821115611d0057600080fd5b611d0c8b838c01611c6f565b909750955060608a01359150611d2182611b0e565b90935060808901359080821115611d3757600080fd5b50611d448a828b01611c6f565b989b979a50959850939692959293505050565b60208082526003908201526215d39560ea1b604082015260600190565b600060208284031215611d8657600080fd5b8151611d9181611b0e565b9392505050565b600060208284031215611daa57600080fd5b815163ffffffff81168114611d9157600080fd5b6001600160a01b03929092168252602082015260400190565b600060208284031215611de957600080fd5b81518015158114611d9157600080fd5b6001600160a01b039889168152968816602088015294871660408701529286166060860152908516608085015290931660a083015260c082019290925260e08101919091526101000190565b600060208284031215611e5757600080fd5b5051919050565b634e487b7160e01b600052601160045260246000fd5b8181038181111561160957611609611e5e565b60005b83811015611ea2578181015183820152602001611e8a565b50506000910152565b60008151808452611ec3816020860160208601611e87565b601f01601f19169290920160200192915050565b63ffffffff81511682526020810151602083015260408101516040830152606081015160608301526000608082015160e06080850152611f1a60e0850182611eab565b905060a083015184820360a0860152611f338282611eab565b91505060c083015184820360c0860152611f4d8282611eab565b95945050505050565b608081526000611f696080830186611ed7565b8451602084810191909152909401516040830152506001600160a01b0391909116606090910152919050565b600060408284031215611fa757600080fd5b611faf611abc565b9050815181526020820151602082015292915050565b60008082840360c0811215611fd957600080fd5b6080811215611fe757600080fd5b50604051606081016001600160401b03808211838310171561200b5761200b611a7e565b816040528551835260208601519150808216821461202857600080fd5b50602082015261203b8560408601611f95565b6040820152915061204f8460808501611f95565b90509250929050565b6001600160a01b0392831681529116602082015260400190565b6001600160a01b038316815260406020820181905260009061209690830184611eab565b949350505050565b602081526000611d916020830184611ed7565b600082601f8301126120c257600080fd5b81516120d0611b6982611b23565b8181528460208386010111156120e557600080fd5b612096826020830160208701611e87565b600080600060a0848603121561210b57600080fd5b6121158585611f95565b60408501519093506001600160401b038082111561213257600080fd5b818601915086601f83011261214657600080fd5b815160208282111561215a5761215a611a7e565b8160051b612169828201611ade565b928352848101820192828101908b85111561218357600080fd5b83870192505b848310156121fc578251868111156121a15760008081fd5b87016040818e03601f190112156121b85760008081fd5b6121c0611abc565b8582015181526040820151888111156121d95760008081fd5b6121e78f88838601016120b1565b82880152508352509183019190830190612189565b809850505050505050506122138560608601611f95565b90509250925092565b60408152600061222f6040830185611ed7565b905082151560208301529392505050565b60006040828403121561225257600080fd5b611d918383611f95565b8082018082111561160957611609611e5e565b6040815260006122826040830185611eab565b8281036020840152611f4d8185611eab565b600080858511156122a457600080fd5b838611156122b157600080fd5b5050820193919092039150565b8035602083101561160957600019602084900360031b1b1692915050565b600080604083850312156122ef57600080fd5b82516122fa81611b0e565b6020939093015192949293505050565b6000825161231c818460208701611e87565b9190910192915050565b60006020828403121561233857600080fd5b81516001600160401b0381111561234e57600080fd5b612096848285016120b156fea2646970667358221220dffe51b92d3128cef41b5028780cf50e35d95219c73ab7afe9ba345193d274e964736f6c63430008140033",
  "deployedBytecode": "0x6080604052600436106100595760003560e01c8063416f7985146100655780634a4a7b0414610098578063528a65f4146100d9578063660d0d671461010d5780639ff78c3014610141578063d0a102601461017557600080fd5b3661006057005b600080fd5b34801561007157600080fd5b50610085610080366004611ba0565b61018a565b6040519081526020015b60405180910390f35b3480156100a457600080fd5b506100cc7f000000000000000000000000000000000000000000000000000000000000000081565b60405161008f9190611c5b565b3480156100e557600080fd5b506100cc7f000000000000000000000000000000000000000000000000000000000000000081565b34801561011957600080fd5b506100cc7f000000000000000000000000000000000000000000000000000000000000000081565b34801561014d57600080fd5b506100cc7f000000000000000000000000000000000000000000000000000000000000000081565b610188610183366004611cb7565b610b9c565b005b60006101fb6040516020016101bd906020808252600a908201526921a7a72a2927a62622a960b11b604082015260600190565b604051602081830303815290604052805190602001206040518060400160405280600a81526020016921a7a72a2927a62622a960b11b815250610ef8565b81516040516000906001600160a01b037f000000000000000000000000000000000000000000000000000000000000000016906321f8a7219061024090602001611d57565b604051602081830303815290604052805190602001206040518263ffffffff1660e01b815260040161027491815260200190565b602060405180830381865afa158015610291573d6000803e3d6000fd5b505050506040513d601f19601f820116820180604052508101906102b59190611d74565b905060006001600160a01b0316826001600160a01b031663fc0c546a6040518163ffffffff1660e01b8152600401602060405180830381865afa158015610300573d6000803e3d6000fd5b505050506040513d601f19601f820116820180604052508101906103249190611d74565b6001600160a01b03160361037c57806001600160a01b031684604001516001600160a01b031614610377578360400151604051632877599b60e01b815260040161036e9190611c5b565b60405180910390fd5b610419565b816001600160a01b031663fc0c546a6040518163ffffffff1660e01b8152600401602060405180830381865afa1580156103ba573d6000803e3d6000fd5b505050506040513d601f19601f820116820180604052508101906103de9190611d74565b6001600160a01b031684604001516001600160a01b031614610419578360400151604051632877599b60e01b815260040161036e9190611c5b565b6104216119b9565b61044c83866060015187602001518860a001518060200190518101906104479190611d98565b610fac565b608085018190526060808601929092526040808601939093529284529151918701829052868101518751915163095ea7b360e01b81526001600160a01b039091169263095ea7b3926104a392909190600401611dbe565b6020604051808303816000875af11580156104c2573d6000803e3d6000fd5b505050506040513d601f19601f820116820180604052508101906104e69190611dd7565b506020850151815160808701516040516313bc4d6960e01b815273__$97f16f82bae4ac682deb2ea1417bfd757e$__936313bc4d6993610595937f0000000000000000000000000000000000000000000000000000000000000000937f0000000000000000000000000000000000000000000000000000000000000000937f0000000000000000000000000000000000000000000000000000000000000000938b939192309290600401611df9565b60006040518083038186803b1580156105ad57600080fd5b505af41580156105c1573d6000803e3d6000fd5b50506040516370a0823160e01b8152600092506001600160a01b03851691506370a08231906105f4903090600401611c5b565b602060405180830381865afa158015610611573d6000803e3d6000fd5b505050506040513d601f19601f820116820180604052508101906106359190611e45565b90506106677f0000000000000000000000000000000000000000000000000000000000000000843085600001516111bf565b6040516370a0823160e01b81526000906001600160a01b038516906370a0823190610696903090600401611c5b565b602060405180830381865afa1580156106b3573d6000803e3d6000fd5b505050506040513d601f19601f820116820180604052508101906106d79190611e45565b9050818111156108225760006106ed8383611e74565b905061073b7f0000000000000000000000000000000000000000000000000000000000000000867f000000000000000000000000000000000000000000000000000000000000000084611320565b602088015160405163880af8af60e01b815273__$97f16f82bae4ac682deb2ea1417bfd757e$__9163880af8af916107e4917f0000000000000000000000000000000000000000000000000000000000000000917f0000000000000000000000000000000000000000000000000000000000000000917f00000000000000000000000000000000000000000000000000000000000000009130918d918a90600090600401611df9565b60006040518083038186803b1580156107fc57600080fd5b505af4158015610810573d6000803e3d6000fd5b5060009b9a5050505050505050505050565b60006001600160a01b0316856001600160a01b031663fc0c546a6040518163ffffffff1660e01b8152600401602060405180830381865afa15801561086b573d6000803e3d6000fd5b505050506040513d601f19601f8201168201806040525081019061088f9190611d74565b6001600160a01b03161461098057604080880151602089015160608a015160808b015193516313bc4d6960e01b815273__$97f16f82bae4ac682deb2ea1417bfd757e$__946313bc4d699461094f947f0000000000000000000000000000000000000000000000000000000000000000947f0000000000000000000000000000000000000000000000000000000000000000947f000000000000000000000000000000000000000000000000000000000000000094309291600401611df9565b60006040518083038186803b15801561096757600080fd5b505af415801561097b573d6000803e3d6000fd5b505050505b846001600160a01b031663c7c7f5b3846000015185604001518660600151306040518563ffffffff1660e01b81526004016109bd93929190611f56565b60c06040518083038185885af11580156109db573d6000803e3d6000fd5b50505050506040513d601f19601f82011682018060405250810190610a009190611fc5565b5060208401819052606084015151604090910151511015610b8c5760208301516040015151606084015151610a81917f0000000000000000000000000000000000000000000000000000000000000000917f000000000000000000000000000000000000000000000000000000000000000091610a7c91611e74565b61156a565b60208701516040516315ff6d2d60e01b81526001600160a01b037f0000000000000000000000000000000000000000000000000000000000000000811660048301527f0000000000000000000000000000000000000000000000000000000000000000811660248301527f00000000000000000000000000000000000000000000000000000000000000008116604483015280871660648301529091166084820152600060a482015273__$97f16f82bae4ac682deb2ea1417bfd757e$__906315ff6d2d9060c401602060405180830381865af4158015610b66573d6000803e3d6000fd5b505050506040513d601f19601f82011682018060405250810190610b8a9190611e45565b505b5050506060909301519392505050565b604051637e12891f60e11b815273__$97f16f82bae4ac682deb2ea1417bfd757e$__9063fc25123e90610bf5907f0000000000000000000000000000000000000000000000000000000000000000908b90600401612058565b60006040518083038186803b158015610c0d57600080fd5b505af4158015610c21573d6000803e3d6000fd5b50506040516301fa95c960e21b815273__$97f16f82bae4ac682deb2ea1417bfd757e$__92506307ea57249150610c7e907f0000000000000000000000000000000000000000000000000000000000000000903390600401612058565b60006040518083038186803b158015610c9657600080fd5b505af4158015610caa573d6000803e3d6000fd5b505050506000610cba86866115ed565b90506000610cc8878761160f565b9050600080610cd68361165a565b9150915060008b6001600160a01b031663fc0c546a6040518163ffffffff1660e01b8152600401602060405180830381865afa158015610d1a573d6000803e3d6000fd5b505050506040513d601f19601f82011682018060405250810190610d3e9190611d74565b90506001600160a01b038116610dc957610d997f00000000000000000000000000000000000000000000000000000000000000007f00000000000000000000000000000000000000000000000000000000000000008761156a565b610dc27f000000000000000000000000000000000000000000000000000000000000000061167a565b9050610e15565b610e157f0000000000000000000000000000000000000000000000000000000000000000827f000000000000000000000000000000000000000000000000000000000000000088611320565b60405163880af8af60e01b815273__$97f16f82bae4ac682deb2ea1417bfd757e$__9063880af8af90610eba907f0000000000000000000000000000000000000000000000000000000000000000907f0000000000000000000000000000000000000000000000000000000000000000907f000000000000000000000000000000000000000000000000000000000000000090309088908b908e908c90600401611df9565b60006040518083038186803b158015610ed257600080fd5b505af4158015610ee6573d6000803e3d6000fd5b50505050505050505050505050505050565b60405163ac4ab3fb60e01b81526001600160a01b037f0000000000000000000000000000000000000000000000000000000000000000169063ac4ab3fb90610f469033908690600401611dbe565b602060405180830381865afa158015610f63573d6000803e3d6000fd5b505050506040513d601f19601f82011682018060405250810190610f879190611dd7565b610fa857338160405163a35b150b60e01b815260040161036e929190612072565b5050565b6000610fb66119ff565b610fbe611a45565b610fc6611a45565b6040518060e001604052808663ffffffff168152602001610fed886001600160a01b031690565b815260208082018a905260408083018b9052805180830182526000808252606085019190915281518084018352818152608085015281519283018252825260a09092015251630d35b41560e01b81529093506001600160a01b03891690630d35b4159061105e90869060040161209e565b600060405180830381865afa15801561107b573d6000803e3d6000fd5b505050506040513d6000823e601f3d908101601f191682016040526110a391908101906120f6565b60208101516060870152604051633b6f743b60e01b81529093506001600160a01b038b169250633b6f743b91506110e190869060009060040161221c565b6040805180830381865afa1580156110fd573d6000803e3d6000fd5b505050506040513d601f19601f820116820180604052508101906111219190612240565b91508160000151935060006001600160a01b0316886001600160a01b031663fc0c546a6040518163ffffffff1660e01b8152600401602060405180830381865afa158015611173573d6000803e3d6000fd5b505050506040513d601f19601f820116820180604052508101906111979190611d74565b6001600160a01b0316036111b45780516111b1908561225c565b93505b945094509450949050565b801561131a576111ce8261170f565b604051632e1a7d4d60e01b8152600481018290526001600160a01b03841690632e1a7d4d90602401600060405180830381600087803b15801561121057600080fd5b505af1158015611224573d6000803e3d6000fd5b505050506000846001600160a01b031663bd02d0f560405160200161127a906020808252601f908201527f4e41544956455f544f4b454e5f5452414e534645525f4741535f4c494d495400604082015260600190565b604051602081830303815290604052805190602001206040518263ffffffff1660e01b81526004016112ae91815260200190565b602060405180830381865afa1580156112cb573d6000803e3d6000fd5b505050506040513d601f19601f820116820180604052508101906112ef9190611e45565b90506000806000806000868887f19050801561130c57505061131a565b61131786858561156a565b50505b50505050565b801561131a5761132f8261170f565b6000846001600160a01b031663bd02d0f561134986611739565b6040518263ffffffff1660e01b815260040161136791815260200190565b602060405180830381865afa158015611384573d6000803e3d6000fd5b505050506040513d601f19601f820116820180604052508101906113a89190611e45565b9050806000036113cd5783604051634fe14bfd60e11b815260040161036e9190611c5b565b60006113db858585856117c1565b50905080156113eb57505061131a565b6000866001600160a01b03166321f8a72160405160200161142f906020808252600f908201526e484f4c44494e475f4144445245535360881b604082015260600190565b604051602081830303815290604052805190602001206040518263ffffffff1660e01b815260040161146391815260200190565b602060405180830381865afa158015611480573d6000803e3d6000fd5b505050506040513d601f19601f820116820180604052508101906114a49190611d74565b90506001600160a01b0381166114cd57604051633a6de2f560e21b815260040160405180910390fd5b6000806114dc888488886117c1565b9150915081156114f057505050505061131a565b60006114fb82611929565b5090507fc9f14d9a0a9b46470c7c0b6c508f8283abaab7f795f153953c58cd4250824dae818360405161152f92919061226f565b60405180910390a160405163012f3b8f60e71b81526001600160a01b03808b166004830152891660248201526044810188905260640161036e565b8060000361157757505050565b6115808261170f565b600061158b8461167a565b9050806001600160a01b031663d0e30db0836040518263ffffffff1660e01b81526004016000604051808303818588803b1580156115c857600080fd5b505af11580156115dc573d6000803e3d6000fd5b505050505061131a84828585611320565b60006115fd602c600c8486612294565b611606916122be565b90505b92915050565b606061161e82604c8186612294565b8080601f016020809104026020016040519081016040528093929190818152602001838380828437600092019190915250929695505050505050565b6000808280602001905181019061167191906122dc565b91509150915091565b6000816001600160a01b03166321f8a72160405160200161169a90611d57565b604051602081830303815290604052805190602001206040518263ffffffff1660e01b81526004016116ce91815260200190565b602060405180830381865afa1580156116eb573d6000803e3d6000fd5b505050506040513d601f19601f820116820180604052508101906116099190611d74565b6001600160a01b0381166117365760405163d551823d60e01b815260040160405180910390fd5b50565b6000604051602001611777906020808252601890820152771513d2d15397d514905394d1915497d1d054d7d31253525560421b604082015260600190565b60408051601f198184030181528282528051602091820120908301526001600160a01b03841690820152606001604051602081830303815290604052805190602001209050919050565b60006060600063a9059cbb60e01b86866040516024016117e2929190611dbe565b604051602081830303815290604052906001600160e01b0319166020820180516001600160e01b0383818316178352505050509050600080886001600160a01b03168684604051611833919061230a565b60006040518083038160008787f1925050503d8060008114611871576040519150601f19603f3d011682016040523d82523d6000602084013e611876565b606091505b509150915081156119175780516000036118d4576001600160a01b0389163b6118d45760006040518060400160405280601481526020017310d85b1b081d1bc81b9bdb8b58dbdb9d1c9858dd60621b81525094509450505050611920565b600081511180156118f65750808060200190518101906118f49190611dd7565b155b1561190957600094509250611920915050565b600194509250611920915050565b60009450925050505b94509492505050565b60606000604483511015611950575050604080516020810190915260008082529092909150565b600061195d846020015190565b90506307b9e43360e51b6001600160e01b031982160161199c57600484019350838060200190518101906119919190612326565b946001945092505050565b600060405180602001604052806000815250909250925050915091565b6040518060a00160405280600081526020016119d3611a5f565b81526020016119e06119ff565b81526020016119ed611a45565b81526020016119fa611a45565b905290565b6040518060e00160405280600063ffffffff1681526020016000801916815260200160008152602001600081526020016060815260200160608152602001606081525090565b604051806040016040528060008152602001600081525090565b60408051606081018252600080825260208201529081016119fa611a45565b634e487b7160e01b600052604160045260246000fd5b60405160c081016001600160401b0381118282101715611ab657611ab6611a7e565b60405290565b604080519081016001600160401b0381118282101715611ab657611ab6611a7e565b604051601f8201601f191681016001600160401b0381118282101715611b0657611b06611a7e565b604052919050565b6001600160a01b038116811461173657600080fd5b60006001600160401b03821115611b3c57611b3c611a7e565b50601f01601f191660200190565b600082601f830112611b5b57600080fd5b8135611b6e611b6982611b23565b611ade565b818152846020838601011115611b8357600080fd5b816020850160208301376000918101602001919091529392505050565b600060208284031215611bb257600080fd5b81356001600160401b0380821115611bc957600080fd5b9083019060c08286031215611bdd57600080fd5b611be5611a94565b8235611bf081611b0e565b81526020830135611c0081611b0e565b60208201526040830135611c1381611b0e565b80604083015250606083013560608201526080830135608082015260a083013582811115611c4057600080fd5b611c4c87828601611b4a565b60a08301525095945050505050565b6001600160a01b0391909116815260200190565b60008083601f840112611c8157600080fd5b5081356001600160401b03811115611c9857600080fd5b602083019150836020828501011115611cb057600080fd5b9250929050565b600080600080600080600060a0888a031215611cd257600080fd5b8735611cdd81611b0e565b96506020880135955060408801356001600160401b0380821115611d0057600080fd5b611d0c8b838c01611c6f565b909750955060608a01359150611d2182611b0e565b90935060808901359080821115611d3757600080fd5b50611d448a828b01611c6f565b989b979a50959850939692959293505050565b60208082526003908201526215d39560ea1b604082015260600190565b600060208284031215611d8657600080fd5b8151611d9181611b0e565b9392505050565b600060208284031215611daa57600080fd5b815163ffffffff81168114611d9157600080fd5b6001600160a01b03929092168252602082015260400190565b600060208284031215611de957600080fd5b81518015158114611d9157600080fd5b6001600160a01b039889168152968816602088015294871660408701529286166060860152908516608085015290931660a083015260c082019290925260e08101919091526101000190565b600060208284031215611e5757600080fd5b5051919050565b634e487b7160e01b600052601160045260246000fd5b8181038181111561160957611609611e5e565b60005b83811015611ea2578181015183820152602001611e8a565b50506000910152565b60008151808452611ec3816020860160208601611e87565b601f01601f19169290920160200192915050565b63ffffffff81511682526020810151602083015260408101516040830152606081015160608301526000608082015160e06080850152611f1a60e0850182611eab565b905060a083015184820360a0860152611f338282611eab565b91505060c083015184820360c0860152611f4d8282611eab565b95945050505050565b608081526000611f696080830186611ed7565b8451602084810191909152909401516040830152506001600160a01b0391909116606090910152919050565b600060408284031215611fa757600080fd5b611faf611abc565b9050815181526020820151602082015292915050565b60008082840360c0811215611fd957600080fd5b6080811215611fe757600080fd5b50604051606081016001600160401b03808211838310171561200b5761200b611a7e565b816040528551835260208601519150808216821461202857600080fd5b50602082015261203b8560408601611f95565b6040820152915061204f8460808501611f95565b90509250929050565b6001600160a01b0392831681529116602082015260400190565b6001600160a01b038316815260406020820181905260009061209690830184611eab565b949350505050565b602081526000611d916020830184611ed7565b600082601f8301126120c257600080fd5b81516120d0611b6982611b23565b8181528460208386010111156120e557600080fd5b612096826020830160208701611e87565b600080600060a0848603121561210b57600080fd5b6121158585611f95565b60408501519093506001600160401b038082111561213257600080fd5b818601915086601f83011261214657600080fd5b815160208282111561215a5761215a611a7e565b8160051b612169828201611ade565b928352848101820192828101908b85111561218357600080fd5b83870192505b848310156121fc578251868111156121a15760008081fd5b87016040818e03601f190112156121b85760008081fd5b6121c0611abc565b8582015181526040820151888111156121d95760008081fd5b6121e78f88838601016120b1565b82880152508352509183019190830190612189565b809850505050505050506122138560608601611f95565b90509250925092565b60408152600061222f6040830185611ed7565b905082151560208301529392505050565b60006040828403121561225257600080fd5b611d918383611f95565b8082018082111561160957611609611e5e565b6040815260006122826040830185611eab565b8281036020840152611f4d8185611eab565b600080858511156122a457600080fd5b838611156122b157600080fd5b5050820193919092039150565b8035602083101561160957600019602084900360031b1b1692915050565b600080604083850312156122ef57600080fd5b82516122fa81611b0e565b6020939093015192949293505050565b6000825161231c818460208701611e87565b9190910192915050565b60006020828403121561233857600080fd5b81516001600160401b0381111561234e57600080fd5b612096848285016120b156fea2646970667358221220dffe51b92d3128cef41b5028780cf50e35d95219c73ab7afe9ba345193d274e964736f6c63430008140033",
  "libraries": {
    "MultichainUtils": "0x843F921839c09d07529121d29aeA5934D28D68D2"
  },
  "devdoc": {
    "kind": "dev",
    "methods": {
      "bridgeOut((address,address,address,uint256,uint256,bytes))": {
        "details": "Processes a cross-chain transfer of tokens from user's multichain balanceCalled by MultichainTransferRouter This function: 1. Approves tokens to be spent by Stargate 2. Prepares the necessary parameters and quotes fees 3. Transfers the bridging fee (in WNT) from user's multichain balance 4. Unwraps WNT to ETH to pay for the cross-chain fee 5. Transfers the tokens to be bridged from user's multichain balance 6. Calls Stargate to initiate the cross-chain transfer",
        "params": {
          "params": "A struct containing:        - provider: Address of the Stargate pool        - account: User account bridging tokens        - token: Address of token being bridged        - amount: Amount of tokens to bridge        - srcChainId: Source chain ID (for multichain balance accounting)        - data: ABI-encoded destination endpoint ID (dstEid)"
        },
        "returns": {
          "_0": "The amount of tokens bridged out (may be slightly different from params.amount after LZ precision/path limits adjustments)"
        }
      },
      "lzCompose(address,bytes32,bytes,address,bytes)": {
        "params": {
          "from": "The address of the sender (i.e. Stargate address, not user's address). param guid A global unique identifier for tracking the packet.",
          "message": "Encoded message. Contains the params needed to record the deposit (account, srcChainId) param executor The address of the Executor. param extraData Any extra data or options to trigger on receipt."
        }
      }
    },
    "title": "LayerZeroProvider Bridging In is done throught lzCompose (receives tokens + encoded message from a source chain) Bridging Out is done through bridgeOut (sends tokens to a source chain) Defines lzCompose function which:  - is called by the Stargate executor after tokens are delivered to this contract  - forwards the received tokens to MultichainVault and increases user's multichain balance Defines bridgeOut function which: - sends tokens to the Stargate executor for bridging out to the source chain",
    "version": 1
  },
  "userdoc": {
    "kind": "user",
    "methods": {
      "bridgeOut((address,address,address,uint256,uint256,bytes))": {
        "notice": "Bridges tokens from the current chain to a source chain using Stargate protocol"
      },
      "lzCompose(address,bytes32,bytes,address,bytes)": {
        "notice": "Called by Stargate after tokens have been delivered to this contract."
      }
    },
    "version": 1
  },
  "storageLayout": {
    "storage": [],
    "types": null
  }
}