{
  "address": "0x0331d2c207476e55cA64e996669600749fa158D3",
  "abi": [
    {
      "inputs": [
        {
          "internalType": "address",
          "name": "_admin",
          "type": "address"
        }
      ],
      "stateMutability": "nonpayable",
      "type": "constructor"
    },
    {
      "inputs": [
        {
          "internalType": "address",
          "name": "_referralStorage",
          "type": "address"
        }
      ],
      "name": "acceptGov",
      "outputs": [],
      "stateMutability": "nonpayable",
      "type": "function"
    },
    {
      "inputs": [],
      "name": "admin",
      "outputs": [
        {
          "internalType": "address",
          "name": "",
          "type": "address"
        }
      ],
      "stateMutability": "view",
      "type": "function"
    },
    {
      "inputs": [
        {
          "internalType": "address",
          "name": "_referralStorage",
          "type": "address"
        },
        {
          "internalType": "bytes32",
          "name": "_code",
          "type": "bytes32"
        },
        {
          "internalType": "address",
          "name": "_newAccount",
          "type": "address"
        }
      ],
      "name": "govSetCodeOwner",
      "outputs": [],
      "stateMutability": "nonpayable",
      "type": "function"
    },
    {
      "inputs": [
        {
          "internalType": "address",
          "name": "",
          "type": "address"
        }
      ],
      "name": "isHandler",
      "outputs": [
        {
          "internalType": "bool",
          "name": "",
          "type": "bool"
        }
      ],
      "stateMutability": "view",
      "type": "function"
    },
    {
      "inputs": [
        {
          "internalType": "address",
          "name": "",
          "type": "address"
        }
      ],
      "name": "isKeeper",
      "outputs": [
        {
          "internalType": "bool",
          "name": "",
          "type": "bool"
        }
      ],
      "stateMutability": "view",
      "type": "function"
    },
    {
      "inputs": [
        {
          "internalType": "address",
          "name": "_admin",
          "type": "address"
        }
      ],
      "name": "setAdmin",
      "outputs": [],
      "stateMutability": "nonpayable",
      "type": "function"
    },
    {
      "inputs": [
        {
          "internalType": "address",
          "name": "_handler",
          "type": "address"
        },
        {
          "internalType": "bool",
          "name": "_isActive",
          "type": "bool"
        }
      ],
      "name": "setContractHandler",
      "outputs": [],
      "stateMutability": "nonpayable",
      "type": "function"
    },
    {
      "inputs": [
        {
          "internalType": "address",
          "name": "_referralStorage",
          "type": "address"
        },
        {
          "internalType": "address",
          "name": "_newGov",
          "type": "address"
        }
      ],
      "name": "setGov",
      "outputs": [],
      "stateMutability": "nonpayable",
      "type": "function"
    },
    {
      "inputs": [
        {
          "internalType": "address",
          "name": "_target",
          "type": "address"
        },
        {
          "internalType": "address",
          "name": "_handler",
          "type": "address"
        },
        {
          "internalType": "bool",
          "name": "_isActive",
          "type": "bool"
        }
      ],
      "name": "setHandler",
      "outputs": [],
      "stateMutability": "nonpayable",
      "type": "function"
    },
    {
      "inputs": [
        {
          "internalType": "address",
          "name": "_keeper",
          "type": "address"
        },
        {
          "internalType": "bool",
          "name": "_isActive",
          "type": "bool"
        }
      ],
      "name": "setKeeper",
      "outputs": [],
      "stateMutability": "nonpayable",
      "type": "function"
    },
    {
      "inputs": [
        {
          "internalType": "address",
          "name": "_referralStorage",
          "type": "address"
        },
        {
          "internalType": "address",
          "name": "_referrer",
          "type": "address"
        },
        {
          "internalType": "uint256",
          "name": "_tierId",
          "type": "uint256"
        }
      ],
      "name": "setReferrerTier",
      "outputs": [],
      "stateMutability": "nonpayable",
      "type": "function"
    },
    {
      "inputs": [
        {
          "internalType": "address",
          "name": "_referralStorage",
          "type": "address"
        },
        {
          "internalType": "uint256",
          "name": "_tierId",
          "type": "uint256"
        },
        {
          "internalType": "uint256",
          "name": "_totalRebate",
          "type": "uint256"
        },
        {
          "internalType": "uint256",
          "name": "_discountShare",
          "type": "uint256"
        }
      ],
      "name": "setTier",
      "outputs": [],
      "stateMutability": "nonpayable",
      "type": "function"
    }
  ],
  "transactionHash": "0x4d4b83e8bb4df6e540bc3b31de852293a6740c25c62c26c2521d5a3664bef109",
  "args": [
    "0xCD9706B6B71fdC4351091B5b1D910cEe7Fde28D0"
  ],
  "numDeployments": 1,
  "solcInputHash": "a8f08a50b1857f459bad4d5d99a5e97c",
  "bytecode": "0x6080604052348015600f57600080fd5b506040516109ea3803806109ea833981016040819052602c9160b5565b6001600160a01b03811660915760405162461bcd60e51b815260206004820152602360248201527f4d6f636b54696d656c6f636b3a20696e76616c69642061646d696e206164647260448201526265737360e81b606482015260840160405180910390fd5b600080546001600160a01b0319166001600160a01b039290921691909117905560e3565b60006020828403121560c657600080fd5b81516001600160a01b038116811460dc57600080fd5b9392505050565b6108f8806100f26000396000f3fe608060405234801561001057600080fd5b50600436106100a45760003560e01c80631154e808146100a9578063185051c1146100be578063204bbc54146100d157806346ea87af146100e457806351a6de0d1461011c578063524f10081461012f57806355818294146101425780636ba42aaa14610155578063704b6c0214610178578063c142940a1461018b578063d1b9e8531461019e578063f851a440146101b1575b600080fd5b6100bc6100b73660046106ef565b6101d1565b005b6100bc6100cc366004610732565b61026d565b6100bc6100df366004610765565b6102c2565b6101076100f2366004610798565b60016020526000908152604090205460ff1681565b60405190151581526020015b60405180910390f35b6100bc61012a3660046107ba565b610355565b6100bc61013d366004610798565b6103e1565b6100bc6101503660046107e4565b610461565b610107610163366004610798565b60026020526000908152604090205460ff1681565b6100bc610186366004610798565b61052d565b6100bc61019936600461081d565b6105db565b6100bc6101ac366004610732565b61066e565b6000546101c4906001600160a01b031681565b604051610113919061085a565b6000546001600160a01b031633146102045760405162461bcd60e51b81526004016101fb9061086e565b60405180910390fd5b604051639cb7de4b60e01b81526001600160a01b0383811660048301528215156024830152841690639cb7de4b906044015b600060405180830381600087803b15801561025057600080fd5b505af1158015610264573d6000803e3d6000fd5b50505050505050565b6000546001600160a01b031633146102975760405162461bcd60e51b81526004016101fb9061086e565b6001600160a01b03919091166000908152600160205260409020805460ff1916911515919091179055565b6000546001600160a01b03163314806102ea57503360009081526001602052604090205460ff165b8061030457503360009081526002602052604090205460ff165b6103205760405162461bcd60e51b81526004016101fb9061089f565b604051630dfcfa2560e41b8152600481018390526001600160a01b03828116602483015284169063dfcfa25090604401610236565b6000546001600160a01b0316331461037f5760405162461bcd60e51b81526004016101fb9061086e565b60405163f2fde38b60e01b81526001600160a01b0383169063f2fde38b906103ab90849060040161085a565b600060405180830381600087803b1580156103c557600080fd5b505af11580156103d9573d6000803e3d6000fd5b505050505050565b6000546001600160a01b0316331461040b5760405162461bcd60e51b81526004016101fb9061086e565b806001600160a01b03166379ba50976040518163ffffffff1660e01b8152600401600060405180830381600087803b15801561044657600080fd5b505af115801561045a573d6000803e3d6000fd5b5050505050565b6000546001600160a01b031633148061048957503360009081526001602052604090205460ff165b806104a357503360009081526002602052604090205460ff165b6104bf5760405162461bcd60e51b81526004016101fb9061089f565b60405163836a018760e01b81526004810184905260248101839052604481018290526001600160a01b0385169063836a018790606401600060405180830381600087803b15801561050f57600080fd5b505af1158015610523573d6000803e3d6000fd5b5050505050505050565b6000546001600160a01b031633146105575760405162461bcd60e51b81526004016101fb9061086e565b6001600160a01b0381166105b95760405162461bcd60e51b815260206004820152602360248201527f4d6f636b54696d656c6f636b3a20696e76616c69642061646d696e206164647260448201526265737360e81b60648201526084016101fb565b600080546001600160a01b0319166001600160a01b0392909216919091179055565b6000546001600160a01b031633148061060357503360009081526001602052604090205460ff165b8061061d57503360009081526002602052604090205460ff165b6106395760405162461bcd60e51b81526004016101fb9061089f565b604051633fb8b32360e01b81526001600160a01b03838116600483015260248201839052841690633fb8b32390604401610236565b6000546001600160a01b031633146106985760405162461bcd60e51b81526004016101fb9061086e565b6001600160a01b03919091166000908152600260205260409020805460ff1916911515919091179055565b80356001600160a01b03811681146106da57600080fd5b919050565b803580151581146106da57600080fd5b60008060006060848603121561070457600080fd5b61070d846106c3565b925061071b602085016106c3565b9150610729604085016106df565b90509250925092565b6000806040838503121561074557600080fd5b61074e836106c3565b915061075c602084016106df565b90509250929050565b60008060006060848603121561077a57600080fd5b610783846106c3565b925060208401359150610729604085016106c3565b6000602082840312156107aa57600080fd5b6107b3826106c3565b9392505050565b600080604083850312156107cd57600080fd5b6107d6836106c3565b915061075c602084016106c3565b600080600080608085870312156107fa57600080fd5b610803856106c3565b966020860135965060408601359560600135945092505050565b60008060006060848603121561083257600080fd5b61083b846106c3565b9250610849602085016106c3565b929592945050506040919091013590565b6001600160a01b0391909116815260200190565b60208082526017908201527626b7b1b5aa34b6b2b637b1b59d103337b93134b23232b760491b604082015260600190565b6020808252600990820152683337b93134b23232b760b91b60408201526060019056fea264697066735822122085b92741dbeabb5453dc9e0482a994d2ca578c9249aa947afcdfa1d23fa2160a64736f6c634300081d0033",
  "libraries": {},
  "devdoc": {
    "details": "This mock version removes time delays and complex governance features      for faster testnet iteration while maintaining access control structure Mainnet V1 Timelock contract deployed on arbitrum at 0xe7E740Fa40CA16b15B621B49de8E9F0D69CF4858",
    "kind": "dev",
    "methods": {},
    "version": 1
  },
  "userdoc": {
    "kind": "user",
    "methods": {},
    "notice": "Simplified V1 Timelock contract for testnet use with ReferralStorage",
    "version": 1
  },
  "storageLayout": {
    "storage": [
      {
        "astId": 93170,
        "contract": "contracts/mock/MockTimelockV1.sol:MockTimelockV1",
        "label": "admin",
        "offset": 0,
        "slot": "0",
        "type": "t_address"
      },
      {
        "astId": 93174,
        "contract": "contracts/mock/MockTimelockV1.sol:MockTimelockV1",
        "label": "isHandler",
        "offset": 0,
        "slot": "1",
        "type": "t_mapping(t_address,t_bool)"
      },
      {
        "astId": 93178,
        "contract": "contracts/mock/MockTimelockV1.sol:MockTimelockV1",
        "label": "isKeeper",
        "offset": 0,
        "slot": "2",
        "type": "t_mapping(t_address,t_bool)"
      }
    ],
    "types": {
      "t_address": {
        "encoding": "inplace",
        "label": "address",
        "numberOfBytes": "20"
      },
      "t_bool": {
        "encoding": "inplace",
        "label": "bool",
        "numberOfBytes": "1"
      },
      "t_mapping(t_address,t_bool)": {
        "encoding": "mapping",
        "key": "t_address",
        "label": "mapping(address => bool)",
        "numberOfBytes": "32",
        "value": "t_bool"
      }
    }
  }
}