{
  "address": "0xcd6D843B9CF3520920035A6c9937DdcCEc97cc26",
  "abi": [
    {
      "inputs": [
        {
          "internalType": "contract DataStore",
          "name": "_dataStore",
          "type": "address"
        },
        {
          "internalType": "contract IReferralStorage",
          "name": "_referralStorege",
          "type": "address"
        },
        {
          "internalType": "address",
          "name": "_endpoint",
          "type": "address"
        },
        {
          "internalType": "address",
          "name": "_owner",
          "type": "address"
        }
      ],
      "stateMutability": "nonpayable",
      "type": "constructor"
    },
    {
      "inputs": [],
      "name": "InvalidDelegate",
      "type": "error"
    },
    {
      "inputs": [],
      "name": "InvalidEndpointCall",
      "type": "error"
    },
    {
      "inputs": [],
      "name": "InvalidMultichainAction",
      "type": "error"
    },
    {
      "inputs": [
        {
          "internalType": "address",
          "name": "sender",
          "type": "address"
        }
      ],
      "name": "InvalidMultichainSender",
      "type": "error"
    },
    {
      "inputs": [
        {
          "internalType": "uint32",
          "name": "eid",
          "type": "uint32"
        }
      ],
      "name": "NoPeer",
      "type": "error"
    },
    {
      "inputs": [
        {
          "internalType": "address",
          "name": "addr",
          "type": "address"
        }
      ],
      "name": "OnlyEndpoint",
      "type": "error"
    },
    {
      "inputs": [
        {
          "internalType": "uint32",
          "name": "eid",
          "type": "uint32"
        },
        {
          "internalType": "bytes32",
          "name": "sender",
          "type": "bytes32"
        }
      ],
      "name": "OnlyPeer",
      "type": "error"
    },
    {
      "anonymous": false,
      "inputs": [
        {
          "indexed": true,
          "internalType": "address",
          "name": "previousOwner",
          "type": "address"
        },
        {
          "indexed": true,
          "internalType": "address",
          "name": "newOwner",
          "type": "address"
        }
      ],
      "name": "OwnershipTransferred",
      "type": "event"
    },
    {
      "anonymous": false,
      "inputs": [
        {
          "indexed": false,
          "internalType": "uint32",
          "name": "eid",
          "type": "uint32"
        },
        {
          "indexed": false,
          "internalType": "bytes32",
          "name": "peer",
          "type": "bytes32"
        }
      ],
      "name": "PeerSet",
      "type": "event"
    },
    {
      "inputs": [
        {
          "components": [
            {
              "internalType": "uint32",
              "name": "srcEid",
              "type": "uint32"
            },
            {
              "internalType": "bytes32",
              "name": "sender",
              "type": "bytes32"
            },
            {
              "internalType": "uint64",
              "name": "nonce",
              "type": "uint64"
            }
          ],
          "internalType": "struct Origin",
          "name": "origin",
          "type": "tuple"
        }
      ],
      "name": "allowInitializePath",
      "outputs": [
        {
          "internalType": "bool",
          "name": "",
          "type": "bool"
        }
      ],
      "stateMutability": "view",
      "type": "function"
    },
    {
      "inputs": [],
      "name": "dataStore",
      "outputs": [
        {
          "internalType": "contract DataStore",
          "name": "",
          "type": "address"
        }
      ],
      "stateMutability": "view",
      "type": "function"
    },
    {
      "inputs": [],
      "name": "endpoint",
      "outputs": [
        {
          "internalType": "contract ILayerZeroEndpointV2",
          "name": "",
          "type": "address"
        }
      ],
      "stateMutability": "view",
      "type": "function"
    },
    {
      "inputs": [
        {
          "components": [
            {
              "internalType": "uint32",
              "name": "srcEid",
              "type": "uint32"
            },
            {
              "internalType": "bytes32",
              "name": "sender",
              "type": "bytes32"
            },
            {
              "internalType": "uint64",
              "name": "nonce",
              "type": "uint64"
            }
          ],
          "internalType": "struct Origin",
          "name": "",
          "type": "tuple"
        },
        {
          "internalType": "bytes",
          "name": "",
          "type": "bytes"
        },
        {
          "internalType": "address",
          "name": "_sender",
          "type": "address"
        }
      ],
      "name": "isComposeMsgSender",
      "outputs": [
        {
          "internalType": "bool",
          "name": "",
          "type": "bool"
        }
      ],
      "stateMutability": "view",
      "type": "function"
    },
    {
      "inputs": [
        {
          "components": [
            {
              "internalType": "uint32",
              "name": "srcEid",
              "type": "uint32"
            },
            {
              "internalType": "bytes32",
              "name": "sender",
              "type": "bytes32"
            },
            {
              "internalType": "uint64",
              "name": "nonce",
              "type": "uint64"
            }
          ],
          "internalType": "struct Origin",
          "name": "_origin",
          "type": "tuple"
        },
        {
          "internalType": "bytes32",
          "name": "_guid",
          "type": "bytes32"
        },
        {
          "internalType": "bytes",
          "name": "_message",
          "type": "bytes"
        },
        {
          "internalType": "address",
          "name": "_executor",
          "type": "address"
        },
        {
          "internalType": "bytes",
          "name": "_extraData",
          "type": "bytes"
        }
      ],
      "name": "lzReceive",
      "outputs": [],
      "stateMutability": "payable",
      "type": "function"
    },
    {
      "inputs": [
        {
          "internalType": "uint32",
          "name": "",
          "type": "uint32"
        },
        {
          "internalType": "bytes32",
          "name": "",
          "type": "bytes32"
        }
      ],
      "name": "nextNonce",
      "outputs": [
        {
          "internalType": "uint64",
          "name": "nonce",
          "type": "uint64"
        }
      ],
      "stateMutability": "view",
      "type": "function"
    },
    {
      "inputs": [],
      "name": "oAppVersion",
      "outputs": [
        {
          "internalType": "uint64",
          "name": "senderVersion",
          "type": "uint64"
        },
        {
          "internalType": "uint64",
          "name": "receiverVersion",
          "type": "uint64"
        }
      ],
      "stateMutability": "view",
      "type": "function"
    },
    {
      "inputs": [],
      "name": "owner",
      "outputs": [
        {
          "internalType": "address",
          "name": "",
          "type": "address"
        }
      ],
      "stateMutability": "view",
      "type": "function"
    },
    {
      "inputs": [
        {
          "internalType": "uint32",
          "name": "eid",
          "type": "uint32"
        }
      ],
      "name": "peers",
      "outputs": [
        {
          "internalType": "bytes32",
          "name": "peer",
          "type": "bytes32"
        }
      ],
      "stateMutability": "view",
      "type": "function"
    },
    {
      "inputs": [],
      "name": "referralStorage",
      "outputs": [
        {
          "internalType": "contract IReferralStorage",
          "name": "",
          "type": "address"
        }
      ],
      "stateMutability": "view",
      "type": "function"
    },
    {
      "inputs": [],
      "name": "renounceOwnership",
      "outputs": [],
      "stateMutability": "nonpayable",
      "type": "function"
    },
    {
      "inputs": [
        {
          "internalType": "address",
          "name": "_delegate",
          "type": "address"
        }
      ],
      "name": "setDelegate",
      "outputs": [],
      "stateMutability": "nonpayable",
      "type": "function"
    },
    {
      "inputs": [
        {
          "internalType": "uint32",
          "name": "_eid",
          "type": "uint32"
        },
        {
          "internalType": "bytes32",
          "name": "_peer",
          "type": "bytes32"
        }
      ],
      "name": "setPeer",
      "outputs": [],
      "stateMutability": "nonpayable",
      "type": "function"
    },
    {
      "inputs": [
        {
          "internalType": "address",
          "name": "newOwner",
          "type": "address"
        }
      ],
      "name": "transferOwnership",
      "outputs": [],
      "stateMutability": "nonpayable",
      "type": "function"
    }
  ],
  "transactionHash": "0x9f0864d4c0bed989d7def3ae659765fe2555a4f52230d572032c45da15e15e25",
  "args": [
    "0xCF4c2C4c53157BcC01A596e3788fFF69cBBCD201",
    "0xBbCdA58c228Bb29B5769778181c81Ac8aC546c11",
    "0x6EDCE65403992e310A62460808c4b910D972f10f",
    "0xCD9706B6B71fdC4351091B5b1D910cEe7Fde28D0"
  ],
  "numDeployments": 1,
  "solcInputHash": "71189cab29890a82a5ee9a73e48a84e2",
  "bytecode": "0x60e060405234801561001057600080fd5b5060405162000e5b38038062000e5b8339810160408190526100319161014b565b818161003c336100e3565b6001600160a01b03808316608052811661006957604051632d618d8160e21b815260040160405180910390fd5b60805160405163ca5eb5e160e01b81526001600160a01b0383811660048301529091169063ca5eb5e190602401600060405180830381600087803b1580156100b057600080fd5b505af11580156100c4573d6000803e3d6000fd5b505050506001600160a01b0395861660c052505050501660a0526101aa565b600080546001600160a01b038381166001600160a01b0319831681178455604051919092169283917f8be0079c531659141344cd1fd0a4f28419497f9722a3daafe3b4186f6b6457e09190a35050565b6001600160a01b038116811461014857600080fd5b50565b6000806000806080858703121561016157600080fd5b845161016c81610133565b602086015190945061017d81610133565b604086015190935061018e81610133565b606086015190925061019f81610133565b939692955090935050565b60805160a05160c051610c66620001f560003960008181610198015261057501526000818160c3015261060b015260008181610164015281816102fb01526104150152610c666000f3fe6080604052600436106100ac5760003560e01c80626cc35e146100b157806313137d65146100fb57806317442b70146101105780633400288b146101325780635e280f1114610152578063660d0d6714610186578063715018a6146101ba5780637d25a05e146101cf57806382413eac1461020a5780638da5cb5b14610249578063bb0b6a531461025e578063ca5eb5e114610299578063f2fde38b146102b9578063ff7bd03d146102d9575b600080fd5b3480156100bd57600080fd5b506100e57f000000000000000000000000000000000000000000000000000000000000000081565b6040516100f291906108c1565b60405180910390f35b61010e61010936600461094a565b6102f9565b005b34801561011c57600080fd5b50604080516000815260026020820152016100f2565b34801561013e57600080fd5b5061010e61014d366004610a02565b6103bd565b34801561015e57600080fd5b506100e57f000000000000000000000000000000000000000000000000000000000000000081565b34801561019257600080fd5b506100e57f000000000000000000000000000000000000000000000000000000000000000081565b3480156101c657600080fd5b5061010e6103d3565b3480156101db57600080fd5b506101f26101ea366004610a02565b600092915050565b6040516001600160401b0390911681526020016100f2565b34801561021657600080fd5b50610239610225366004610a2c565b6001600160a01b0381163014949350505050565b60405190151581526020016100f2565b34801561025557600080fd5b506100e56103e7565b34801561026a57600080fd5b5061028b610279366004610a92565b60016020526000908152604090205481565b6040519081526020016100f2565b3480156102a557600080fd5b5061010e6102b4366004610ab4565b6103f6565b3480156102c557600080fd5b5061010e6102d4366004610ab4565b61047f565b3480156102e557600080fd5b506102396102f4366004610ad1565b6104f8565b7f00000000000000000000000000000000000000000000000000000000000000006001600160a01b0316331461034d57336040516391ac5e4f60e01b815260040161034491906108c1565b60405180910390fd5b6020870180359061036790610362908a610a92565b61052e565b146103a5576103796020880188610a92565b60405163309afaf360e21b815263ffffffff909116600482015260208801356024820152604401610344565b6103b487878787878787610570565b50505050505050565b6103c5610694565b6103cf82826106f3565b5050565b6103db610694565b6103e56000610748565b565b6000546001600160a01b031690565b6103fe610694565b60405163ca5eb5e160e01b81526001600160a01b037f0000000000000000000000000000000000000000000000000000000000000000169063ca5eb5e19061044a9084906004016108c1565b600060405180830381600087803b15801561046457600080fd5b505af1158015610478573d6000803e3d6000fd5b5050505050565b610487610694565b6001600160a01b0381166104ec5760405162461bcd60e51b815260206004820152602660248201527f4f776e61626c653a206e6577206f776e657220697320746865207a65726f206160448201526564647265737360d01b6064820152608401610344565b6104f581610748565b50565b60006020820180359060019083906105109086610a92565b63ffffffff1681526020810191909152604001600020541492915050565b63ffffffff81166000908152600160205260408120548061056a5760405163f6ff4fb760e01b815263ffffffff84166004820152602401610344565b92915050565b61059e7f00000000000000000000000000000000000000000000000000000000000000008860200135610798565b6000806105ad86880188610b03565b909250905060008280156105c3576105c3610bca565b0361067057600080828060200190518101906105df9190610be0565b6040516356b4b2ad60e01b81526001600160a01b038084166004830152602482018390529294509092507f0000000000000000000000000000000000000000000000000000000000000000909116906356b4b2ad90604401600060405180830381600087803b15801561065157600080fd5b505af1158015610665573d6000803e3d6000fd5b505050505050610689565b60405163233d802d60e01b815260040160405180910390fd5b505050505050505050565b3361069d6103e7565b6001600160a01b0316146103e55760405162461bcd60e51b815260206004820181905260248201527f4f776e61626c653a2063616c6c6572206973206e6f7420746865206f776e65726044820152606401610344565b63ffffffff8216600081815260016020908152604091829020849055815192835282018390527f238399d427b947898edb290f5ff0f9109849b1c3ba196a42e35f00c50a54b98b910160405180910390a15050565b600080546001600160a01b038381166001600160a01b0319831681178455604051919092169283917f8be0079c531659141344cd1fd0a4f28419497f9722a3daafe3b4186f6b6457e09190a35050565b8060006107a482610835565b604051633d70e7e560e11b8152600481018290529091506001600160a01b03851690637ae1cfca90602401602060405180830381865afa1580156107ec573d6000803e3d6000fd5b505050506040513d601f19601f820116820180604052508101906108109190610c0e565b61082f5781604051636995699960e01b815260040161034491906108c1565b50505050565b6000604051602001610877906020808252601c908201527b1254d7d35553151250d210525397d4d15391115497d153905093115160221b604082015260600190565b60408051601f198184030181528282528051602091820120908301526001600160a01b03841690820152606001604051602081830303815290604052805190602001209050919050565b6001600160a01b0391909116815260200190565b6000606082840312156108e757600080fd5b50919050565b60008083601f8401126108ff57600080fd5b5081356001600160401b0381111561091657600080fd5b60208301915083602082850101111561092e57600080fd5b9250929050565b6001600160a01b03811681146104f557600080fd5b600080600080600080600060e0888a03121561096557600080fd5b61096f89896108d5565b96506060880135955060808801356001600160401b038082111561099257600080fd5b61099e8b838c016108ed565b909750955060a08a013591506109b382610935565b90935060c089013590808211156109c957600080fd5b506109d68a828b016108ed565b989b979a50959850939692959293505050565b803563ffffffff811681146109fd57600080fd5b919050565b60008060408385031215610a1557600080fd5b610a1e836109e9565b946020939093013593505050565b60008060008060a08587031215610a4257600080fd5b610a4c86866108d5565b935060608501356001600160401b03811115610a6757600080fd5b610a73878288016108ed565b9094509250506080850135610a8781610935565b939692955090935050565b600060208284031215610aa457600080fd5b610aad826109e9565b9392505050565b600060208284031215610ac657600080fd5b8135610aad81610935565b600060608284031215610ae357600080fd5b610aad83836108d5565b634e487b7160e01b600052604160045260246000fd5b60008060408385031215610b1657600080fd5b823560018110610b2557600080fd5b915060208301356001600160401b0380821115610b4157600080fd5b818501915085601f830112610b5557600080fd5b813581811115610b6757610b67610aed565b604051601f8201601f19908116603f01168101908382118183101715610b8f57610b8f610aed565b81604052828152886020848701011115610ba857600080fd5b8260208601602083013760006020848301015280955050505050509250929050565b634e487b7160e01b600052602160045260246000fd5b60008060408385031215610bf357600080fd5b8251610bfe81610935565b6020939093015192949293505050565b600060208284031215610c2057600080fd5b81518015158114610aad57600080fdfea2646970667358221220ccf6cd03a666337820a5f19b0fc506bf3c8377e17d714741543d17e8234570f464736f6c63430008140033",
  "libraries": {},
  "devdoc": {
    "kind": "dev",
    "methods": {
      "allowInitializePath((uint32,bytes32,uint64))": {
        "details": "This indicates to the endpoint that the OApp has enabled msgs for this particular path to be received.This defaults to assuming if a peer has been set, its initialized. Can be overridden by the OApp if there is other logic to determine this.",
        "params": {
          "origin": "The origin information containing the source endpoint and sender address."
        },
        "returns": {
          "_0": "Whether the path has been initialized."
        }
      },
      "isComposeMsgSender((uint32,bytes32,uint64),bytes,address)": {
        "details": "_origin The origin information containing the source endpoint and sender address.  - srcEid: The source chain endpoint ID.  - sender: The sender address on the src chain.  - nonce: The nonce of the message._message The lzReceive payload.Applications can optionally choose to implement separate composeMsg senders that are NOT the bridging layer.The default sender IS the OAppReceiver implementer.",
        "params": {
          "_sender": "The sender address."
        },
        "returns": {
          "_0": "isSender Is a valid sender."
        }
      },
      "lzReceive((uint32,bytes32,uint64),bytes32,bytes,address,bytes)": {
        "details": "Entry point for receiving messages or packets from the endpoint.Entry point for receiving msg/packet from the LayerZero endpoint.",
        "params": {
          "_executor": "The address of the executor for the received message.",
          "_extraData": "Additional arbitrary data provided by the corresponding executor.",
          "_guid": "The unique identifier for the received LayerZero message.",
          "_message": "The payload of the received message.",
          "_origin": "The origin information containing the source endpoint and sender address.  - srcEid: The source chain endpoint ID.  - sender: The sender address on the src chain.  - nonce: The nonce of the message."
        }
      },
      "nextNonce(uint32,bytes32)": {
        "details": "_srcEid The source endpoint ID._sender The sender address.The path nonce starts from 1. If 0 is returned it means that there is NO nonce ordered enforcement.Is required by the off-chain executor to determine the OApp expects msg execution is ordered.This is also enforced by the OApp.By default this is NOT enabled. ie. nextNonce is hardcoded to return 0.",
        "returns": {
          "nonce": "The next nonce."
        }
      },
      "oAppVersion()": {
        "details": "Providing 0 as the default for OAppSender version. Indicates that the OAppSender is not implemented. ie. this is a RECEIVE only OApp.If the OApp uses both OAppSender and OAppReceiver, then this needs to be override returning the correct versions.",
        "returns": {
          "receiverVersion": "The version of the OAppReceiver.sol contract.",
          "senderVersion": "The version of the OAppSender.sol contract."
        }
      },
      "owner()": {
        "details": "Returns the address of the current owner."
      },
      "renounceOwnership()": {
        "details": "Leaves the contract without owner. It will not be possible to call `onlyOwner` functions. Can only be called by the current owner. NOTE: Renouncing ownership will leave the contract without an owner, thereby disabling any functionality that is only available to the owner."
      },
      "setDelegate(address)": {
        "details": "Only the owner/admin of the OApp can call this function.Provides the ability for a delegate to set configs, on behalf of the OApp, directly on the Endpoint contract.",
        "params": {
          "_delegate": "The address of the delegate to be set."
        }
      },
      "setPeer(uint32,bytes32)": {
        "details": "Only the owner/admin of the OApp can call this function.Indicates that the peer is trusted to send LayerZero messages to this OApp.Set this to bytes32(0) to remove the peer address.Peer is a bytes32 to accommodate non-evm chains.",
        "params": {
          "_eid": "The endpoint ID.",
          "_peer": "The address of the peer to be associated with the corresponding endpoint."
        }
      },
      "transferOwnership(address)": {
        "details": "Transfers ownership of the contract to a new account (`newOwner`). Can only be called by the current owner."
      }
    },
    "version": 1
  },
  "userdoc": {
    "kind": "user",
    "methods": {
      "allowInitializePath((uint32,bytes32,uint64))": {
        "notice": "Checks if the path initialization is allowed based on the provided origin."
      },
      "endpoint()": {
        "notice": "Retrieves the LayerZero endpoint associated with the OApp."
      },
      "isComposeMsgSender((uint32,bytes32,uint64),bytes,address)": {
        "notice": "Indicates whether an address is an approved composeMsg sender to the Endpoint."
      },
      "nextNonce(uint32,bytes32)": {
        "notice": "Retrieves the next nonce for a given source endpoint and sender address."
      },
      "oAppVersion()": {
        "notice": "Retrieves the OApp version information."
      },
      "peers(uint32)": {
        "notice": "Retrieves the peer (OApp) associated with a corresponding endpoint."
      },
      "setDelegate(address)": {
        "notice": "Sets the delegate address for the OApp."
      },
      "setPeer(uint32,bytes32)": {
        "notice": "Sets the peer address (OApp instance) for a corresponding endpoint."
      }
    },
    "version": 1
  },
  "storageLayout": {
    "storage": [
      {
        "astId": 3515,
        "contract": "contracts/multichain/MultichainReceiver.sol:MultichainReceiver",
        "label": "_owner",
        "offset": 0,
        "slot": "0",
        "type": "t_address"
      },
      {
        "astId": 2272,
        "contract": "contracts/multichain/MultichainReceiver.sol:MultichainReceiver",
        "label": "peers",
        "offset": 0,
        "slot": "1",
        "type": "t_mapping(t_uint32,t_bytes32)"
      }
    ],
    "types": {
      "t_address": {
        "encoding": "inplace",
        "label": "address",
        "numberOfBytes": "20"
      },
      "t_bytes32": {
        "encoding": "inplace",
        "label": "bytes32",
        "numberOfBytes": "32"
      },
      "t_mapping(t_uint32,t_bytes32)": {
        "encoding": "mapping",
        "key": "t_uint32",
        "label": "mapping(uint32 => bytes32)",
        "numberOfBytes": "32",
        "value": "t_bytes32"
      },
      "t_uint32": {
        "encoding": "inplace",
        "label": "uint32",
        "numberOfBytes": "4"
      }
    }
  }
}