{
  "address": "0x088c241ecb987236f33D0f215D52f3f8E4E9cD31",
  "abi": [
    {
      "inputs": [
        {
          "internalType": "contract Router",
          "name": "_router",
          "type": "address"
        },
        {
          "internalType": "contract RoleStore",
          "name": "_roleStore",
          "type": "address"
        },
        {
          "internalType": "contract DataStore",
          "name": "_dataStore",
          "type": "address"
        },
        {
          "internalType": "contract EventEmitter",
          "name": "_eventEmitter",
          "type": "address"
        },
        {
          "internalType": "contract IOrderHandler",
          "name": "_orderHandler",
          "type": "address"
        },
        {
          "internalType": "contract OrderVault",
          "name": "_orderVault",
          "type": "address"
        }
      ],
      "stateMutability": "nonpayable",
      "type": "constructor"
    },
    {
      "inputs": [
        {
          "internalType": "bytes32",
          "name": "key",
          "type": "bytes32"
        }
      ],
      "name": "DisabledFeature",
      "type": "error"
    },
    {
      "inputs": [],
      "name": "EmptyHoldingAddress",
      "type": "error"
    },
    {
      "inputs": [],
      "name": "EmptyOrder",
      "type": "error"
    },
    {
      "inputs": [],
      "name": "EmptyReceiver",
      "type": "error"
    },
    {
      "inputs": [
        {
          "internalType": "address",
          "name": "token",
          "type": "address"
        }
      ],
      "name": "EmptyTokenTranferGasLimit",
      "type": "error"
    },
    {
      "inputs": [
        {
          "internalType": "address",
          "name": "msgSender",
          "type": "address"
        }
      ],
      "name": "InvalidNativeTokenSender",
      "type": "error"
    },
    {
      "inputs": [
        {
          "internalType": "address",
          "name": "receiver",
          "type": "address"
        },
        {
          "internalType": "address",
          "name": "expectedReceiver",
          "type": "address"
        }
      ],
      "name": "InvalidReceiverForSubaccountOrder",
      "type": "error"
    },
    {
      "inputs": [
        {
          "internalType": "address",
          "name": "account",
          "type": "address"
        },
        {
          "internalType": "address",
          "name": "subaccount",
          "type": "address"
        },
        {
          "internalType": "uint256",
          "name": "count",
          "type": "uint256"
        },
        {
          "internalType": "uint256",
          "name": "maxCount",
          "type": "uint256"
        }
      ],
      "name": "MaxSubaccountActionCountExceeded",
      "type": "error"
    },
    {
      "inputs": [
        {
          "internalType": "address",
          "name": "account",
          "type": "address"
        },
        {
          "internalType": "address",
          "name": "subaccount",
          "type": "address"
        }
      ],
      "name": "SubaccountNotAuthorized",
      "type": "error"
    },
    {
      "inputs": [
        {
          "internalType": "address",
          "name": "token",
          "type": "address"
        },
        {
          "internalType": "address",
          "name": "receiver",
          "type": "address"
        },
        {
          "internalType": "uint256",
          "name": "amount",
          "type": "uint256"
        }
      ],
      "name": "TokenTransferError",
      "type": "error"
    },
    {
      "inputs": [
        {
          "internalType": "address",
          "name": "subaccount",
          "type": "address"
        }
      ],
      "name": "addSubaccount",
      "outputs": [],
      "stateMutability": "payable",
      "type": "function"
    },
    {
      "inputs": [
        {
          "internalType": "bytes32",
          "name": "key",
          "type": "bytes32"
        }
      ],
      "name": "cancelOrder",
      "outputs": [],
      "stateMutability": "payable",
      "type": "function"
    },
    {
      "inputs": [
        {
          "internalType": "address",
          "name": "account",
          "type": "address"
        },
        {
          "components": [
            {
              "components": [
                {
                  "internalType": "address",
                  "name": "receiver",
                  "type": "address"
                },
                {
                  "internalType": "address",
                  "name": "callbackContract",
                  "type": "address"
                },
                {
                  "internalType": "address",
                  "name": "uiFeeReceiver",
                  "type": "address"
                },
                {
                  "internalType": "address",
                  "name": "market",
                  "type": "address"
                },
                {
                  "internalType": "address",
                  "name": "initialCollateralToken",
                  "type": "address"
                },
                {
                  "internalType": "address[]",
                  "name": "swapPath",
                  "type": "address[]"
                }
              ],
              "internalType": "struct IBaseOrderUtils.CreateOrderParamsAddresses",
              "name": "addresses",
              "type": "tuple"
            },
            {
              "components": [
                {
                  "internalType": "uint256",
                  "name": "sizeDeltaUsd",
                  "type": "uint256"
                },
                {
                  "internalType": "uint256",
                  "name": "initialCollateralDeltaAmount",
                  "type": "uint256"
                },
                {
                  "internalType": "uint256",
                  "name": "triggerPrice",
                  "type": "uint256"
                },
                {
                  "internalType": "uint256",
                  "name": "acceptablePrice",
                  "type": "uint256"
                },
                {
                  "internalType": "uint256",
                  "name": "executionFee",
                  "type": "uint256"
                },
                {
                  "internalType": "uint256",
                  "name": "callbackGasLimit",
                  "type": "uint256"
                },
                {
                  "internalType": "uint256",
                  "name": "minOutputAmount",
                  "type": "uint256"
                }
              ],
              "internalType": "struct IBaseOrderUtils.CreateOrderParamsNumbers",
              "name": "numbers",
              "type": "tuple"
            },
            {
              "internalType": "enum Order.OrderType",
              "name": "orderType",
              "type": "uint8"
            },
            {
              "internalType": "enum Order.DecreasePositionSwapType",
              "name": "decreasePositionSwapType",
              "type": "uint8"
            },
            {
              "internalType": "bool",
              "name": "isLong",
              "type": "bool"
            },
            {
              "internalType": "bool",
              "name": "shouldUnwrapNativeToken",
              "type": "bool"
            },
            {
              "internalType": "bytes32",
              "name": "referralCode",
              "type": "bytes32"
            }
          ],
          "internalType": "struct IBaseOrderUtils.CreateOrderParams",
          "name": "params",
          "type": "tuple"
        }
      ],
      "name": "createOrder",
      "outputs": [
        {
          "internalType": "bytes32",
          "name": "",
          "type": "bytes32"
        }
      ],
      "stateMutability": "payable",
      "type": "function"
    },
    {
      "inputs": [],
      "name": "dataStore",
      "outputs": [
        {
          "internalType": "contract DataStore",
          "name": "",
          "type": "address"
        }
      ],
      "stateMutability": "view",
      "type": "function"
    },
    {
      "inputs": [],
      "name": "eventEmitter",
      "outputs": [
        {
          "internalType": "contract EventEmitter",
          "name": "",
          "type": "address"
        }
      ],
      "stateMutability": "view",
      "type": "function"
    },
    {
      "inputs": [
        {
          "internalType": "bytes[]",
          "name": "data",
          "type": "bytes[]"
        }
      ],
      "name": "multicall",
      "outputs": [
        {
          "internalType": "bytes[]",
          "name": "results",
          "type": "bytes[]"
        }
      ],
      "stateMutability": "payable",
      "type": "function"
    },
    {
      "inputs": [],
      "name": "orderHandler",
      "outputs": [
        {
          "internalType": "contract IOrderHandler",
          "name": "",
          "type": "address"
        }
      ],
      "stateMutability": "view",
      "type": "function"
    },
    {
      "inputs": [],
      "name": "orderVault",
      "outputs": [
        {
          "internalType": "contract OrderVault",
          "name": "",
          "type": "address"
        }
      ],
      "stateMutability": "view",
      "type": "function"
    },
    {
      "inputs": [
        {
          "internalType": "address",
          "name": "subaccount",
          "type": "address"
        }
      ],
      "name": "removeSubaccount",
      "outputs": [],
      "stateMutability": "payable",
      "type": "function"
    },
    {
      "inputs": [],
      "name": "roleStore",
      "outputs": [
        {
          "internalType": "contract RoleStore",
          "name": "",
          "type": "address"
        }
      ],
      "stateMutability": "view",
      "type": "function"
    },
    {
      "inputs": [],
      "name": "router",
      "outputs": [
        {
          "internalType": "contract Router",
          "name": "",
          "type": "address"
        }
      ],
      "stateMutability": "view",
      "type": "function"
    },
    {
      "inputs": [
        {
          "internalType": "address",
          "name": "receiver",
          "type": "address"
        },
        {
          "internalType": "uint256",
          "name": "amount",
          "type": "uint256"
        }
      ],
      "name": "sendNativeToken",
      "outputs": [],
      "stateMutability": "payable",
      "type": "function"
    },
    {
      "inputs": [
        {
          "internalType": "address",
          "name": "token",
          "type": "address"
        },
        {
          "internalType": "address",
          "name": "receiver",
          "type": "address"
        },
        {
          "internalType": "uint256",
          "name": "amount",
          "type": "uint256"
        }
      ],
      "name": "sendTokens",
      "outputs": [],
      "stateMutability": "payable",
      "type": "function"
    },
    {
      "inputs": [
        {
          "internalType": "address",
          "name": "receiver",
          "type": "address"
        },
        {
          "internalType": "uint256",
          "name": "amount",
          "type": "uint256"
        }
      ],
      "name": "sendWnt",
      "outputs": [],
      "stateMutability": "payable",
      "type": "function"
    },
    {
      "inputs": [
        {
          "internalType": "address",
          "name": "subaccount",
          "type": "address"
        },
        {
          "internalType": "bytes32",
          "name": "actionType",
          "type": "bytes32"
        },
        {
          "internalType": "uint256",
          "name": "maxAllowedCount",
          "type": "uint256"
        }
      ],
      "name": "setMaxAllowedSubaccountActionCount",
      "outputs": [],
      "stateMutability": "payable",
      "type": "function"
    },
    {
      "inputs": [
        {
          "internalType": "address",
          "name": "subaccount",
          "type": "address"
        },
        {
          "internalType": "uint256",
          "name": "amount",
          "type": "uint256"
        }
      ],
      "name": "setSubaccountAutoTopUpAmount",
      "outputs": [],
      "stateMutability": "payable",
      "type": "function"
    },
    {
      "inputs": [
        {
          "internalType": "bytes32",
          "name": "key",
          "type": "bytes32"
        },
        {
          "internalType": "uint256",
          "name": "sizeDeltaUsd",
          "type": "uint256"
        },
        {
          "internalType": "uint256",
          "name": "acceptablePrice",
          "type": "uint256"
        },
        {
          "internalType": "uint256",
          "name": "triggerPrice",
          "type": "uint256"
        },
        {
          "internalType": "uint256",
          "name": "minOutputAmount",
          "type": "uint256"
        }
      ],
      "name": "updateOrder",
      "outputs": [],
      "stateMutability": "payable",
      "type": "function"
    },
    {
      "stateMutability": "payable",
      "type": "receive"
    }
  ],
  "transactionHash": "0x89ed8a126d87b2c97b5725dc0a1a85642a6299a75c040f4754a4c6faf430a9b7",
  "args": [
    "0xd15B8b178981BFEF71f54BD5C9c4992424a73E5A",
    "0xB0681d729Fc85C93b442Eaf110A847dB8d3cF28F",
    "0xB558f529F97a405178E2437737F97Bb10eFadAfE",
    "0x3Ab21B44cffFD87a69F909f40dD2335ff68945A8",
    "0x8961819344B6577BeAD54741e3fB924edC549E6F",
    "0xD2A2044f62D7cD77470AC237408f9f59AcB5965E"
  ],
  "numDeployments": 1,
  "solcInputHash": "803202b181e2d61e27c8f419e02c8a04",
  "bytecode": "0x6101406040523480156200001257600080fd5b506040516200439c3803806200439c833981016040819052620000359162000083565b60016000556001600160a01b0394851660805294841660a05291831660c052821660e052811661010052166101205262000117565b6001600160a01b03811681146200008057600080fd5b50565b60008060008060008060c087890312156200009d57600080fd5b8651620000aa816200006a565b6020880151909650620000bd816200006a565b6040880151909550620000d0816200006a565b6060880151909450620000e3816200006a565b6080880151909350620000f6816200006a565b60a088015190925062000109816200006a565b809150509295509295509295565b60805160a05160c05160e051610100516101205161416b62000231600039600081816102540152610c1e0152600081816102ef015281816106aa015281816108d00152610c9701526000818161028801528181610443015281816104a6015281816105570152818161075e015281816113e701526117ba01526000818160de015281816101d40152818161042201528181610485015281816104f401528181610536015281816105a80152818161073d015281816107a6015281816107f7015281816113680152818161139b015281816113c6015281816114150152818161144f01526116d501526000818161035701528181610bc001528181610d5a01528181611515015261166301526000610177015261416b6000f3fe6080604052600436106100d25760003560e01c80633914f2171461013f5780633e46b365146101525780634a4a7b041461016557806353ead2d3146101af578063660d0d67146101c2578063712182eb146101f65780637489ec231461020957806379a358a21461021c5780637d39aaf11461022f57806393845e46146102425780639ff78c3014610276578063aab286f8146102aa578063ac9650d8146102bd578063b5848305146102dd578063e314617214610311578063e6d66ac814610332578063f887ea401461034557600080fd5b3661013a5760006101027f0000000000000000000000000000000000000000000000000000000000000000610379565b9050336001600160a01b03821614610138573360405163738d28df60e11b815260040161012f91906128fd565b60405180910390fd5b005b600080fd5b61013861014d366004612926565b610414565b610138610160366004612943565b610477565b34801561017157600080fd5b506101997f000000000000000000000000000000000000000000000000000000000000000081565b6040516101a691906128fd565b60405180910390f35b6101386101bd366004612978565b6104de565b3480156101ce57600080fd5b506101997f000000000000000000000000000000000000000000000000000000000000000081565b610138610204366004612926565b610528565b6101386102173660046129a4565b61057d565b61013861022a366004612978565b61072f565b61013861023d366004612978565b610790565b34801561024e57600080fd5b506101997f000000000000000000000000000000000000000000000000000000000000000081565b34801561028257600080fd5b506101997f000000000000000000000000000000000000000000000000000000000000000081565b6101386102b83660046129bd565b6107cc565b6102d06102cb3660046129f8565b610960565b6040516101a69190612b11565b3480156102e957600080fd5b506101997f000000000000000000000000000000000000000000000000000000000000000081565b61032461031f366004612b24565b610a7e565b6040519081526020016101a6565b610138610340366004612b7b565b610d30565b34801561035157600080fd5b506101997f000000000000000000000000000000000000000000000000000000000000000081565b6000816001600160a01b03166321f8a72160405160200161039990612bbc565b604051602081830303815290604052805190602001206040518263ffffffff1660e01b81526004016103cd91815260200190565b602060405180830381865afa1580156103ea573d6000803e3d6000fd5b505050506040513d601f19601f8201168201806040525081019061040e9190612be9565b92915050565b61041c610dd2565b336104697f00000000000000000000000000000000000000000000000000000000000000007f00000000000000000000000000000000000000000000000000000000000000008385610e2b565b506104746001600055565b50565b61047f610dd2565b336104ce7f00000000000000000000000000000000000000000000000000000000000000007f000000000000000000000000000000000000000000000000000000000000000083878787610f85565b506104d96001600055565b505050565b6104e6610dd2565b6104ef82611149565b61051a7f00000000000000000000000000000000000000000000000000000000000000008383611170565b6105246001600055565b5050565b610530610dd2565b336104697f00000000000000000000000000000000000000000000000000000000000000007f00000000000000000000000000000000000000000000000000000000000000008385611243565b610585610dd2565b60005a90506000732aDdc988291815C08b1433bE22b97D76264F848763fdfc26f37f0000000000000000000000000000000000000000000000000000000000000000856040518363ffffffff1660e01b81526004016105e5929190612c06565b600060405180830381865af4158015610602573d6000803e3d6000fd5b505050506040513d6000823e601f3d908101601f1916820160405261062a9190810190612e80565b9050600061063782515190565b6001600160a01b03160361065e57604051631630779760e01b815260040160405180910390fd5b61069461066a82515190565b60405160200161067990612fa4565b60405160208183030381529060405280519060200120611363565b604051637489ec2360e01b8152600481018490527f00000000000000000000000000000000000000000000000000000000000000006001600160a01b031690637489ec2390602401600060405180830381600087803b1580156106f657600080fd5b505af115801561070a573d6000803e3d6000fd5b5050505061072361071a82515190565b3384600061140e565b50506104746001600055565b610737610dd2565b336107857f00000000000000000000000000000000000000000000000000000000000000007f000000000000000000000000000000000000000000000000000000000000000083868661181e565b506105246001600055565b610798610dd2565b6107a182611149565b61051a7f000000000000000000000000000000000000000000000000000000000000000083836119d7565b6107d4610dd2565b60005a90506000732aDdc988291815C08b1433bE22b97D76264F848763fdfc26f37f0000000000000000000000000000000000000000000000000000000000000000896040518363ffffffff1660e01b8152600401610834929190612c06565b600060405180830381865af4158015610851573d6000803e3d6000fd5b505050506040513d6000823e601f3d908101601f191682016040526108799190810190612e80565b9050600061088682515190565b6001600160a01b0316036108ad57604051631630779760e01b815260040160405180910390fd5b6108b961066a82515190565b6040516396fe6a9360e01b81526001600160a01b037f000000000000000000000000000000000000000000000000000000000000000016906396fe6a939061090f908a908a908a908a908a9089906004016130c9565b600060405180830381600087803b15801561092957600080fd5b505af115801561093d573d6000803e3d6000fd5b5050505061094d61071a82515190565b50506109596001600055565b5050505050565b6060816001600160401b0381111561097a5761097a612c1f565b6040519080825280602002602001820160405280156109ad57816020015b60608152602001906001900390816109985790505b50905060005b82811015610a7757600080308686858181106109d1576109d16131c4565b90506020028101906109e391906131da565b6040516109f1929190613227565b600060405180830381855af49150503d8060008114610a2c576040519150601f19603f3d011682016040523d82523d6000602084013e610a31565b606091505b509150915081610a4457610a4481611a5a565b80848481518110610a5757610a576131c4565b602002602001018190525050508080610a6f9061324d565b9150506109b3565b5092915050565b6000610a88610dd2565b60005a9050610aa08460405160200161067990612fa4565b6001600160a01b038416610ab48480613266565b610ac2906020810190612926565b6001600160a01b031614610b0457610ada8380613266565b610ae8906020810190612926565b846040516325d55c0b60e11b815260040161012f929190613286565b6000610b18610120850161010086016132ab565b6007811115610b2957610b29613019565b1480610b5757506001610b44610120850161010086016132ab565b6007811115610b5557610b55613019565b145b80610b8457506002610b71610120850161010086016132ab565b6007811115610b8257610b82613019565b145b80610bb157506003610b9e610120850161010086016132ab565b6007811115610baf57610baf613019565b145b15610c7d576001600160a01b037f000000000000000000000000000000000000000000000000000000000000000016631b827878610bef8580613266565b610c009060a0810190608001612926565b604080516001600160e01b031960e085901b168152610c4a929189917f0000000000000000000000000000000000000000000000000000000000000000918a0135906004016132c8565b600060405180830381600087803b158015610c6457600080fd5b505af1158015610c78573d6000803e3d6000fd5b505050505b60405163718a30b960e11b81526000906001600160a01b037f0000000000000000000000000000000000000000000000000000000000000000169063e314617290610cce9088908890600401613415565b6020604051808303816000875af1158015610ced573d6000803e3d6000fd5b505050506040513d601f19601f82011682018060405250810190610d119190613535565b9050610d2385338460a088013561140e565b91505061040e6001600055565b610d38610dd2565b610d4182611149565b6040516303704f0f60e31b815233906001600160a01b037f00000000000000000000000000000000000000000000000000000000000000001690631b82787890610d959087908590889088906004016132c8565b600060405180830381600087803b158015610daf57600080fd5b505af1158015610dc3573d6000803e3d6000fd5b50505050506104d96001600055565b600260005403610e245760405162461bcd60e51b815260206004820152601f60248201527f5265656e7472616e637947756172643a207265656e7472616e742063616c6c00604482015260640161012f565b6002600055565b6000610e3683611a93565b60405163b348e63960e01b81529091506001600160a01b0386169063b348e63990610e67908490869060040161354e565b600060405180830381600087803b158015610e8157600080fd5b505af1158015610e95573d6000803e3d6000fd5b50505050610ea16127ff565b8051610eae906002611b0d565b6040805180820190915260078152661858d8dbdd5b9d60ca1b60208201528151610edb9160009087611b72565b60408051808201909152600a8152691cdd589858d8dbdd5b9d60b21b60208201528151610f0b9160019086611b72565b846001600160a01b03166363d16363610f2386611bcf565b610f2c86611bcf565b846040518463ffffffff1660e01b8152600401610f4b93929190613df2565b600060405180830381600087803b158015610f6557600080fd5b505af1158015610f79573d6000803e3d6000fd5b50505050505050505050565b6000610f92858585611bdb565b604051637152429d60e11b815260048101829052602481018490529091506001600160a01b0388169063e2a4853a906044016020604051808303816000875af1158015610fe3573d6000803e3d6000fd5b505050506040513d601f19601f820116820180604052508101906110079190613535565b506110106127ff565b805161101d906002611b0d565b6040805180820190915260078152661858d8dbdd5b9d60ca1b6020820152815161104a9160009089611b72565b60408051808201909152600a8152691cdd589858d8dbdd5b9d60b21b6020820152815161107a9160019088611b72565b602081015161108a906001611b0d565b6110cd60006040518060400160405280600f81526020016e1b585e105b1b1bddd95910dbdd5b9d608a1b815250858460200151611c81909392919063ffffffff16565b866001600160a01b03166363d163636110e588611bcf565b6110ee88611bcf565b846040518463ffffffff1660e01b815260040161110d93929190613e35565b600060405180830381600087803b15801561112757600080fd5b505af115801561113b573d6000803e3d6000fd5b505050505050505050505050565b6001600160a01b0381166104745760405163d551823d60e01b815260040160405180910390fd5b8060000361117d57505050565b61118682611149565b6000836001600160a01b031663bd02d0f56040516020016111a690613e93565b604051602081830303815290604052805190602001206040518263ffffffff1660e01b81526004016111da91815260200190565b602060405180830381865afa1580156111f7573d6000803e3d6000fd5b505050506040513d601f19601f8201168201806040525081019061121b9190613535565b90506000806000806000868887f190508015611238575050505050565b6109598585856119d7565b600061124e83611a93565b6040516369721d4160e01b81529091506001600160a01b038616906369721d419061127f908490869060040161354e565b600060405180830381600087803b15801561129957600080fd5b505af11580156112ad573d6000803e3d6000fd5b505050506112b96127ff565b80516112c6906002611b0d565b6040805180820190915260078152661858d8dbdd5b9d60ca1b602082015281516112f39160009087611b72565b60408051808201909152600a8152691cdd589858d8dbdd5b9d60b21b602082015281516113239160019086611b72565b846001600160a01b03166363d1636361133b86611bcf565b61134486611bcf565b846040518463ffffffff1660e01b8152600401610f4b93929190613eca565b6113957f000000000000000000000000000000000000000000000000000000000000000061139030611cd4565b611d15565b336113c17f00000000000000000000000000000000000000000000000000000000000000008483611d40565b6104d97f00000000000000000000000000000000000000000000000000000000000000007f0000000000000000000000000000000000000000000000000000000000000000858486611dde565b600061143b7f00000000000000000000000000000000000000000000000000000000000000008686611fb4565b90508060000361144b5750611818565b60007f00000000000000000000000000000000000000000000000000000000000000006001600160a01b03166321f8a72160405160200161148b90612bbc565b604051602081830303815290604052805190602001206040518263ffffffff1660e01b81526004016114bf91815260200190565b602060405180830381865afa1580156114dc573d6000803e3d6000fd5b505050506040513d601f19601f820116820180604052508101906115009190612be9565b905081816001600160a01b031663dd62ed3e887f00000000000000000000000000000000000000000000000000000000000000006040518363ffffffff1660e01b8152600401611551929190613286565b602060405180830381865afa15801561156e573d6000803e3d6000fd5b505050506040513d601f19601f820116820180604052508101906115929190613535565b101561159f575050611818565b6040516370a0823160e01b815282906001600160a01b038316906370a08231906115cd908a906004016128fd565b602060405180830381865afa1580156115ea573d6000803e3d6000fd5b505050506040513d601f19601f8201168201806040525081019061160e9190613535565b101561161b575050611818565b6000833a5a61162a9088613f10565b6116349190613f23565b61163e9190613f3a565b90508281101561164c578092505b6040516303704f0f60e31b81526001600160a01b037f00000000000000000000000000000000000000000000000000000000000000001690631b8278789061169e9085908b90309089906004016132c8565b600060405180830381600087803b1580156116b857600080fd5b505af11580156116cc573d6000803e3d6000fd5b505050506116fc7f0000000000000000000000000000000000000000000000000000000000000000838886612036565b6117046127ff565b8051611711906002611b0d565b6040805180820190915260078152661858d8dbdd5b9d60ca1b6020820152815161173e916000908b611b72565b60408051808201909152600a8152691cdd589858d8dbdd5b9d60b21b6020820152815161176e916001908a611b72565b602081015161177e906001611b0d565b6117b8600060405180604001604052806006815260200165185b5bdd5b9d60d21b815250868460200151611c81909392919063ffffffff16565b7f00000000000000000000000000000000000000000000000000000000000000006001600160a01b03166363d163636117f08a611bcf565b6117f98a611bcf565b846040518463ffffffff1660e01b815260040161110d93929190613f4d565b50505050565b600061182a8484612164565b604051637152429d60e11b815260048101829052602481018490529091506001600160a01b0387169063e2a4853a906044016020604051808303816000875af115801561187b573d6000803e3d6000fd5b505050506040513d601f19601f8201168201806040525081019061189f9190613535565b506118a86127ff565b80516118b5906002611b0d565b6040805180820190915260078152661858d8dbdd5b9d60ca1b602082015281516118e29160009088611b72565b60408051808201909152600a8152691cdd589858d8dbdd5b9d60b21b602082015281516119129160019087611b72565b6020810151611922906001611b0d565b61195c600060405180604001604052806006815260200165185b5bdd5b9d60d21b815250858460200151611c81909392919063ffffffff16565b856001600160a01b03166363d1636361197487611bcf565b61197d87611bcf565b846040518463ffffffff1660e01b815260040161199c93929190613f96565b600060405180830381600087803b1580156119b657600080fd5b505af11580156119ca573d6000803e3d6000fd5b5050505050505050505050565b806000036119e457505050565b6119ed82611149565b60006119f884610379565b9050806001600160a01b031663d0e30db0836040518263ffffffff1660e01b81526004016000604051808303818588803b158015611a3557600080fd5b505af1158015611a49573d6000803e3d6000fd5b5050505050611818848285856121fd565b600080611a6683612447565b915091508015611a8a578160405162461bcd60e51b815260040161012f9190613fe8565b6104d9836124d7565b6000604051602001611ac8906020808252600f908201526e14d5509050d0d3d5539517d31254d5608a1b604082015260600190565b6040516020818303038152906040528051906020012082604051602001611af092919061354e565b604051602081830303815290604052805190602001209050919050565b806001600160401b03811115611b2557611b25612c1f565b604051908082528060200260200182016040528015611b6b57816020015b604080518082019091526060815260006020820152815260200190600190039081611b435790505b5090915250565b8184600001518481518110611b8957611b896131c4565b6020026020010151600001819052508084600001518481518110611baf57611baf6131c4565b6020908102919091018101516001600160a01b0390921691015250505050565b6001600160a01b031690565b6000604051602001611c2a9060208082526023908201527f4d41585f414c4c4f5745445f5355424143434f554e545f414354494f4e5f434f60408201526215539560ea1b606082015260800190565b60408051808303601f190181528282528051602091820120818401526001600160a01b03968716838301529490951660608201526080808201939093528451808203909301835260a0019093528051910120919050565b8184600001518481518110611c9857611c986131c4565b6020026020010151600001819052508084600001518481518110611cbe57611cbe6131c4565b6020026020010151602001818152505050505050565b6000604051602001611ac8906020808252601b908201527a14d5509050d0d3d5539517d191505515549157d11254d050931151602a1b604082015260600190565b611d1f82826124e0565b156105245760405163dd70e0c960e01b81526004810182905260240161012f565b6000611d4b83611a93565b60405163c769d1a160e01b81529091506001600160a01b0385169063c769d1a190611d7c908490869060040161354e565b602060405180830381865afa158015611d99573d6000803e3d6000fd5b505050506040513d601f19601f82011682018060405250810190611dbd9190613ffb565b6118185782826040516326f8290f60e21b815260040161012f929190613286565b6000611deb848484612553565b60405163340dbab360e01b815260048101829052600160248201529091506000906001600160a01b0388169063340dbab3906044016020604051808303816000875af1158015611e3f573d6000803e3d6000fd5b505050506040513d601f19601f82011682018060405250810190611e639190613535565b9050611e728786868685612590565b611e7a6127ff565b8051611e87906002611b0d565b6040805180820190915260078152661858d8dbdd5b9d60ca1b60208201528151611eb49160009089611b72565b60408051808201909152600a8152691cdd589858d8dbdd5b9d60b21b60208201528151611ee49160019088611b72565b6020810151611ef4906001611b0d565b611f316000604051806040016040528060098152602001686e65787456616c756560b81b815250848460200151611c81909392919063ffffffff16565b6080810151611f41906001611b0d565b60408051808201909152600a815269616374696f6e5479706560b01b60208201526080820151611f749160009087611c81565b866001600160a01b03166363d16363611f8c88611bcf565b611f9588611bcf565b846040518463ffffffff1660e01b815260040161110d93929190614018565b600080611fc18484612164565b60405163bd02d0f560e01b8152600481018290529091506001600160a01b0386169063bd02d0f590602401602060405180830381865afa158015612009573d6000803e3d6000fd5b505050506040513d601f19601f8201168201806040525081019061202d9190613535565b95945050505050565b80156118185761204582611149565b604051632e1a7d4d60e01b8152600481018290526001600160a01b03841690632e1a7d4d90602401600060405180830381600087803b15801561208757600080fd5b505af115801561209b573d6000803e3d6000fd5b505050506000846001600160a01b031663bd02d0f56040516020016120bf90613e93565b604051602081830303815290604052805190602001206040518263ffffffff1660e01b81526004016120f391815260200190565b602060405180830381865afa158015612110573d6000803e3d6000fd5b505050506040513d601f19601f820116820180604052508101906121349190613535565b90506000806000806000868887f190508015612151575050611818565b61215c8685856119d7565b505050505050565b60006040516020016121a7906020808252601d908201527f5355424143434f554e545f4155544f5f544f505f55505f414d4f554e54000000604082015260600190565b60408051601f198184030181528282528051602091820120908301526001600160a01b03808616918301919091528316606082015260800160405160208183030381529060405280519060200120905092915050565b80156118185761220c82611149565b6000846001600160a01b031663bd02d0f561222686612659565b6040518263ffffffff1660e01b815260040161224491815260200190565b602060405180830381865afa158015612261573d6000803e3d6000fd5b505050506040513d601f19601f820116820180604052508101906122859190613535565b9050806000036122aa5783604051634fe14bfd60e11b815260040161012f91906128fd565b60006122b885858585612697565b50905080156122c8575050611818565b6000866001600160a01b03166321f8a72160405160200161230c906020808252600f908201526e484f4c44494e475f4144445245535360881b604082015260600190565b604051602081830303815290604052805190602001206040518263ffffffff1660e01b815260040161234091815260200190565b602060405180830381865afa15801561235d573d6000803e3d6000fd5b505050506040513d601f19601f820116820180604052508101906123819190612be9565b90506001600160a01b0381166123aa57604051633a6de2f560e21b815260040160405180910390fd5b6000806123b988848888612697565b9150915081156123cd575050505050611818565b60006123d882612447565b5090507fc9f14d9a0a9b46470c7c0b6c508f8283abaab7f795f153953c58cd4250824dae818360405161240c92919061406b565b60405180910390a160405163012f3b8f60e71b81526001600160a01b03808b166004830152891660248201526044810188905260640161012f565b6060600060448351101561246e575050604080516020810190915260008082529092909150565b600061247b846020015190565b90506307b9e43360e51b6001600160e01b03198216016124ba57600484019350838060200190518101906124af9190614090565b946001945092505050565b600060405180602001604052806000815250909250925050915091565b80518060208301fd5b604051633d70e7e560e11b8152600481018290526000906001600160a01b03841690637ae1cfca90602401602060405180830381865afa158015612528573d6000803e3d6000fd5b505050506040513d601f19601f8201168201806040525081019061254c9190613ffb565b9392505050565b6000604051602001611c2a9060208082526017908201527614d5509050d0d3d5539517d050d51253d397d0d3d55395604a1b604082015260600190565b600061259d858585611bdb565b60405163bd02d0f560e01b8152600481018290529091506000906001600160a01b0388169063bd02d0f590602401602060405180830381865afa1580156125e8573d6000803e3d6000fd5b505050506040513d601f19601f8201168201806040525081019061260c9190613535565b9050808311156126505760405163519ba75360e01b81526001600160a01b03808816600483015286166024820152604481018490526064810182905260840161012f565b50505050505050565b6000604051602001611ac8906020808252601890820152771513d2d15397d514905394d1915497d1d054d7d31253525560421b604082015260600190565b60006060600063a9059cbb60e01b86866040516024016126b8929190612c06565b604051602081830303815290604052906001600160e01b0319166020820180516001600160e01b0383818316178352505050509050600080886001600160a01b031686846040516127099190614123565b60006040518083038160008787f1925050503d8060008114612747576040519150601f19603f3d011682016040523d82523d6000602084013e61274c565b606091505b509150915081156127ed5780516000036127aa576001600160a01b0389163b6127aa5760006040518060400160405280601481526020017310d85b1b081d1bc81b9bdb8b58dbdb9d1c9858dd60621b815250945094505050506127f6565b600081511180156127cc5750808060200190518101906127ca9190613ffb565b155b156127df576000945092506127f6915050565b6001945092506127f6915050565b60009450925050505b94509492505050565b604080516101208101909152606060e0820181815261010083019190915281908152602001612841604051806040016040528060608152602001606081525090565b8152602001612863604051806040016040528060608152602001606081525090565b8152602001612885604051806040016040528060608152602001606081525090565b81526020016128a7604051806040016040528060608152602001606081525090565b81526020016128c9604051806040016040528060608152602001606081525090565b81526020016128eb604051806040016040528060608152602001606081525090565b905290565b6001600160a01b03169052565b6001600160a01b0391909116815260200190565b6001600160a01b038116811461047457600080fd5b60006020828403121561293857600080fd5b813561254c81612911565b60008060006060848603121561295857600080fd5b833561296381612911565b95602085013595506040909401359392505050565b6000806040838503121561298b57600080fd5b823561299681612911565b946020939093013593505050565b6000602082840312156129b657600080fd5b5035919050565b600080600080600060a086880312156129d557600080fd5b505083359560208501359550604085013594606081013594506080013592509050565b60008060208385031215612a0b57600080fd5b82356001600160401b0380821115612a2257600080fd5b818501915085601f830112612a3657600080fd5b813581811115612a4557600080fd5b8660208260051b8501011115612a5a57600080fd5b60209290920196919550909350505050565b60005b83811015612a87578181015183820152602001612a6f565b50506000910152565b60008151808452612aa8816020860160208601612a6c565b601f01601f19169290920160200192915050565b600081518084526020808501808196508360051b8101915082860160005b85811015612b04578284038952612af2848351612a90565b98850198935090840190600101612ada565b5091979650505050505050565b60208152600061254c6020830184612abc565b60008060408385031215612b3757600080fd5b8235612b4281612911565b915060208301356001600160401b03811115612b5d57600080fd5b83016101a08186031215612b7057600080fd5b809150509250929050565b600080600060608486031215612b9057600080fd5b8335612b9b81612911565b92506020840135612bab81612911565b929592945050506040919091013590565b60208082526003908201526215d39560ea1b604082015260600190565b8051612be481612911565b919050565b600060208284031215612bfb57600080fd5b815161254c81612911565b6001600160a01b03929092168252602082015260400190565b634e487b7160e01b600052604160045260246000fd5b60405161014081016001600160401b0381118282101715612c5857612c58612c1f565b60405290565b604051606081016001600160401b0381118282101715612c5857612c58612c1f565b60405160e081016001600160401b0381118282101715612c5857612c58612c1f565b604051601f8201601f191681016001600160401b0381118282101715612cca57612cca612c1f565b604052919050565b600082601f830112612ce357600080fd5b815160206001600160401b03821115612cfe57612cfe612c1f565b8160051b612d0d828201612ca2565b9283528481018201928281019087851115612d2757600080fd5b83870192505b84831015612d4f578251612d4081612911565b82529183019190830190612d2d565b979650505050505050565b6008811061047457600080fd5b8051612be481612d5a565b6003811061047457600080fd5b8051612be481612d72565b60006101408284031215612d9d57600080fd5b612da5612c35565b9050612db082612d67565b8152612dbe60208301612d7f565b602082015260408201516040820152606082015160608201526080820151608082015260a082015160a082015260c082015160c082015260e082015160e082015261010080830151818301525061012080830151818301525092915050565b801515811461047457600080fd5b600060608284031215612e3d57600080fd5b612e45612c5e565b90508151612e5281612e1d565b81526020820151612e6281612e1d565b60208201526040820151612e7581612e1d565b604082015292915050565b600060208284031215612e9257600080fd5b81516001600160401b0380821115612ea957600080fd5b908301906101c08286031215612ebe57600080fd5b612ec6612c5e565b825182811115612ed557600080fd5b830160e08188031215612ee757600080fd5b612eef612c80565b612ef882612bd9565b8152612f0660208301612bd9565b6020820152612f1760408301612bd9565b6040820152612f2860608301612bd9565b6060820152612f3960808301612bd9565b6080820152612f4a60a08301612bd9565b60a082015260c082015184811115612f6157600080fd5b612f6d89828501612cd2565b60c083015250825250612f838660208501612d8a565b6020820152612f96866101608501612e2b565b604082015295945050505050565b60208082526017908201527629aaa120a1a1a7aaa72a2fa7a92222a92fa0a1aa24a7a760491b604082015260600190565b600081518084526020808501945080840160005b8381101561300e5781516001600160a01b031687529582019590820190600101612fe9565b509495945050505050565b634e487b7160e01b600052602160045260246000fd5b6008811061303f5761303f613019565b9052565b6003811061303f5761303f613019565b61305e82825161302f565b60208101516130706020840182613043565b5060408101516040830152606081015160608301526080810151608083015260a081015160a083015260c081015160c083015260e081015160e08301526101008082015181840152506101208082015181840152505050565b86815285602082015284604082015283606082015282608082015260c060a0820152600082516101c060c084015260018060a01b0380825116610280850152806020830151166102a0850152806040830151166102c08501525060608101516131366102e08501826128f0565b50608081015161314a6103008501826128f0565b5060a081015161315e6103208501826128f0565b5060c0015160e0610340840152613179610360840182612fd5565b9050602084015161318d60e0850182613053565b5060408481015180511515610220860152602081015115156102408601529081015115156102608501525098975050505050505050565b634e487b7160e01b600052603260045260246000fd5b6000808335601e198436030181126131f157600080fd5b8301803591506001600160401b0382111561320b57600080fd5b60200191503681900382131561322057600080fd5b9250929050565b8183823760009101908152919050565b634e487b7160e01b600052601160045260246000fd5b60006001820161325f5761325f613237565b5060010190565b6000823560be1983360301811261327c57600080fd5b9190910192915050565b6001600160a01b0392831681529116602082015260400190565b8035612be481612d5a565b6000602082840312156132bd57600080fd5b813561254c81612d5a565b6001600160a01b039485168152928416602084015292166040820152606081019190915260800190565b8183526000602080850194508260005b8581101561300e57813561331581612911565b6001600160a01b031687529582019590820190600101613302565b6000813561333d81612911565b6001600160a01b03908116845260208301359061335982612911565b908116602085015260408301359061337082612911565b908116604085015260608301359061338782612911565b908116606085015260808301359061339e82612911565b16608084015260a082013536839003601e190181126133bc57600080fd5b82016020810190356001600160401b038111156133d857600080fd5b8060051b36038213156133ea57600080fd5b60c060a086015261202d60c0860182846132f2565b8035612be481612d72565b8035612be481612e1d565b6001600160a01b038316815260406020820152600082353684900360be1901811261343f57600080fd5b6101a08060408501526134586101e08501868401613330565b91506134a96060850160208701803582526020810135602083015260408101356040830152606081013560608301526080810135608083015260a081013560a083015260c081013560c08301525050565b6134b661010086016132a0565b6101406134c58187018361302f565b6134d261012088016133ff565b91506101606134e381880184613043565b6134ee82890161340a565b925061018091506135028288018415159052565b61350d81890161340a565b92505061351d8387018315159052565b808701356101c0870152505050809150509392505050565b60006020828403121561354757600080fd5b5051919050565b9182526001600160a01b0316602082015260400190565b600081518084526020808501808196508360051b8101915082860160005b85811015612b045782840389528151604081518187526135a582880182612a90565b915050868201519150858103878701526135bf8183612fd5565b9a87019a9550505090840190600101613583565b60006040808401835182865281815180845260608801915060608160051b89010193506020808401935060005b8281101561364a57898603605f190184528451805188885261362489890182612a90565b918401516001600160a01b03169784019790975295509381019392810192600101613600565b50808801519550888503818a01525050505061202d8183613565565b600081518084526020808501808196508360051b810191508286016000805b868110156136f8578385038a528251604081518188526136a782890182612a90565b92890151888403898b01528051808552908a01938693508a0191505b808310156136e357835182529289019260019290920191908901906136c3565b509b88019b9650505091850191600101613685565b509298975050505050505050565b60006040808401835182865281815180845260608801915060608160051b89010193506020808401935060005b8281101561377457898603605f190184528451805188885261375789890182612a90565b918401519784019790975295509381019392810192600101613733565b50808801519550888503818a01525050505061202d8183613666565b600081518084526020808501808196508360051b810191508286016000805b868110156136f8578385038a528251604081518188526137d182890182612a90565b92890151888403898b01528051808552908a01938693508a0191505b8083101561380d57835182529289019260019290920191908901906137ed565b509b88019b96505050918501916001016137af565b60006040808401835182865281815180845260608801915060608160051b89010193506020808401935060005b8281101561389057898603605f190184528451805188885261387389890182612a90565b91840151978401979097529550938101939281019260010161384f565b50808801519550888503818a01525050505061202d8183613790565b600081518084526020808501808196508360051b810191508286016000805b868110156136f8578385038a528251604081518188526138ed82890182612a90565b92890151888403898b01528051808552908a01938693508a0191505b8083101561392b57835115158252928901926001929092019190890190613909565b509b88019b96505050918501916001016138cb565b60006040808401835182865281815180845260608801915060608160051b89010193506020808401935060005b828110156139b057898603605f190184528451805188885261399189890182612a90565b918401511515978401979097529550938101939281019260010161396d565b50808801519550888503818a01525050505061202d81836138ac565b600081518084526020808501808196508360051b810191508286016000805b868110156136f8578385038a52825160408151818852613a0d82890182612a90565b92890151888403898b01528051808552908a01938693508a0191505b80831015613a495783518252928901926001929092019190890190613a29565b509b88019b96505050918501916001016139eb565b60006040808401835182865281815180845260608801915060608160051b89010193506020808401935060005b82811015613acc57898603605f1901845284518051888852613aaf89890182612a90565b918401519784019790975295509381019392810192600101613a8b565b50808801519550888503818a01525050505061202d81836139cc565b600081518084526020808501808196508360051b8101915082860160005b85811015612b04578284038952815160408151818752613b2882880182612a90565b91505086820151915085810387870152613b428183612abc565b9a87019a9550505090840190600101613b06565b60006040808401835182865281815180845260608801915060608160051b89010193506020808401935060005b82811015613bd357898603605f1901845284518051888852613ba789890182612a90565b9184015188830389860152919050613bbf8183612a90565b975050509381019392810192600101613b83565b50808801519550888503818a01525050505061202d8183613ae8565b600081518084526020808501808196506005915083821b81018387016000805b87811015613c9a578484038b52825160408151818752613c3182880182612a90565b928a0151878403888c01528051808552908b019392508a83019150808a1b83018b01865b82811015613c8357601f19858303018452613c71828751612a90565b958d0195938d01939150600101613c55565b509e8b019e97505050938801935050600101613c0f565b50919998505050505050505050565b60006040808401835182865281815180845260608801915060608160051b89010193506020808401935060005b82811015613d2657898603605f1901845284518051888852613cfa89890182612a90565b9184015188830389860152919050613d128183612a90565b975050509381019392810192600101613cd6565b50808801519550888503818a01525050505061202d8183613bef565b6000815160e08452613d5760e08501826135d3565b905060208301518482036020860152613d708282613706565b91505060408301518482036040860152613d8a8282613822565b91505060608301518482036060860152613da48282613940565b91505060808301518482036080860152613dbe8282613a5e565b91505060a083015184820360a0860152613dd88282613b56565b91505060c083015184820360c086015261202d8282613ca9565b60808152600d60808201526c10591914dd589858d8dbdd5b9d609a1b60a082015283602082015282604082015260c06060820152600061202d60c0830184613d42565b60808152602260808201527f5365744d6178416c6c6f7765645375626163636f756e74416374696f6e436f7560a0820152611b9d60f21b60c082015283602082015282604082015260e06060820152600061202d60e0830184613d42565b6020808252601f908201527f4e41544956455f544f4b454e5f5452414e534645525f4741535f4c494d495400604082015260600190565b60808152601060808201526f14995b5bdd9954dd589858d8dbdd5b9d60821b60a082015283602082015282604082015260c06060820152600061202d60c0830184613d42565b8181038181111561040e5761040e613237565b808202811582820484141761040e5761040e613237565b8082018082111561040e5761040e613237565b60808152601360808201527205375626163636f756e744175746f546f70557606c1b60a082015283602082015282604082015260c06060820152600061202d60c0830184613d42565b60808152601c60808201527b14d95d14dd589858d8dbdd5b9d105d5d1bd51bdc155c105b5bdd5b9d60221b60a082015283602082015282604082015260c06060820152600061202d60c0830184613d42565b60208152600061254c6020830184612a90565b60006020828403121561400d57600080fd5b815161254c81612e1d565b60808152601e60808201527f496e6372656d656e745375626163636f756e74416374696f6e436f756e74000060a082015283602082015282604082015260c06060820152600061202d60c0830184613d42565b60408152600061407e6040830185612a90565b828103602084015261202d8185612a90565b6000602082840312156140a257600080fd5b81516001600160401b03808211156140b957600080fd5b818401915084601f8301126140cd57600080fd5b8151818111156140df576140df612c1f565b6140f2601f8201601f1916602001612ca2565b915080825285602082850101111561410957600080fd5b61411a816020840160208601612a6c565b50949350505050565b6000825161327c818460208701612a6c56fea2646970667358221220d9f7d108305e968b36f16bf4489f10cd135f1cc3abb4dbdf61b3e209f685988664736f6c63430008120033",
  "deployedBytecode": "0x6080604052600436106100d25760003560e01c80633914f2171461013f5780633e46b365146101525780634a4a7b041461016557806353ead2d3146101af578063660d0d67146101c2578063712182eb146101f65780637489ec231461020957806379a358a21461021c5780637d39aaf11461022f57806393845e46146102425780639ff78c3014610276578063aab286f8146102aa578063ac9650d8146102bd578063b5848305146102dd578063e314617214610311578063e6d66ac814610332578063f887ea401461034557600080fd5b3661013a5760006101027f0000000000000000000000000000000000000000000000000000000000000000610379565b9050336001600160a01b03821614610138573360405163738d28df60e11b815260040161012f91906128fd565b60405180910390fd5b005b600080fd5b61013861014d366004612926565b610414565b610138610160366004612943565b610477565b34801561017157600080fd5b506101997f000000000000000000000000000000000000000000000000000000000000000081565b6040516101a691906128fd565b60405180910390f35b6101386101bd366004612978565b6104de565b3480156101ce57600080fd5b506101997f000000000000000000000000000000000000000000000000000000000000000081565b610138610204366004612926565b610528565b6101386102173660046129a4565b61057d565b61013861022a366004612978565b61072f565b61013861023d366004612978565b610790565b34801561024e57600080fd5b506101997f000000000000000000000000000000000000000000000000000000000000000081565b34801561028257600080fd5b506101997f000000000000000000000000000000000000000000000000000000000000000081565b6101386102b83660046129bd565b6107cc565b6102d06102cb3660046129f8565b610960565b6040516101a69190612b11565b3480156102e957600080fd5b506101997f000000000000000000000000000000000000000000000000000000000000000081565b61032461031f366004612b24565b610a7e565b6040519081526020016101a6565b610138610340366004612b7b565b610d30565b34801561035157600080fd5b506101997f000000000000000000000000000000000000000000000000000000000000000081565b6000816001600160a01b03166321f8a72160405160200161039990612bbc565b604051602081830303815290604052805190602001206040518263ffffffff1660e01b81526004016103cd91815260200190565b602060405180830381865afa1580156103ea573d6000803e3d6000fd5b505050506040513d601f19601f8201168201806040525081019061040e9190612be9565b92915050565b61041c610dd2565b336104697f00000000000000000000000000000000000000000000000000000000000000007f00000000000000000000000000000000000000000000000000000000000000008385610e2b565b506104746001600055565b50565b61047f610dd2565b336104ce7f00000000000000000000000000000000000000000000000000000000000000007f000000000000000000000000000000000000000000000000000000000000000083878787610f85565b506104d96001600055565b505050565b6104e6610dd2565b6104ef82611149565b61051a7f00000000000000000000000000000000000000000000000000000000000000008383611170565b6105246001600055565b5050565b610530610dd2565b336104697f00000000000000000000000000000000000000000000000000000000000000007f00000000000000000000000000000000000000000000000000000000000000008385611243565b610585610dd2565b60005a9050600073__$9dcb75ef0bb6c4288f2ccffe7dc492c4eb$__63fdfc26f37f0000000000000000000000000000000000000000000000000000000000000000856040518363ffffffff1660e01b81526004016105e5929190612c06565b600060405180830381865af4158015610602573d6000803e3d6000fd5b505050506040513d6000823e601f3d908101601f1916820160405261062a9190810190612e80565b9050600061063782515190565b6001600160a01b03160361065e57604051631630779760e01b815260040160405180910390fd5b61069461066a82515190565b60405160200161067990612fa4565b60405160208183030381529060405280519060200120611363565b604051637489ec2360e01b8152600481018490527f00000000000000000000000000000000000000000000000000000000000000006001600160a01b031690637489ec2390602401600060405180830381600087803b1580156106f657600080fd5b505af115801561070a573d6000803e3d6000fd5b5050505061072361071a82515190565b3384600061140e565b50506104746001600055565b610737610dd2565b336107857f00000000000000000000000000000000000000000000000000000000000000007f000000000000000000000000000000000000000000000000000000000000000083868661181e565b506105246001600055565b610798610dd2565b6107a182611149565b61051a7f000000000000000000000000000000000000000000000000000000000000000083836119d7565b6107d4610dd2565b60005a9050600073__$9dcb75ef0bb6c4288f2ccffe7dc492c4eb$__63fdfc26f37f0000000000000000000000000000000000000000000000000000000000000000896040518363ffffffff1660e01b8152600401610834929190612c06565b600060405180830381865af4158015610851573d6000803e3d6000fd5b505050506040513d6000823e601f3d908101601f191682016040526108799190810190612e80565b9050600061088682515190565b6001600160a01b0316036108ad57604051631630779760e01b815260040160405180910390fd5b6108b961066a82515190565b6040516396fe6a9360e01b81526001600160a01b037f000000000000000000000000000000000000000000000000000000000000000016906396fe6a939061090f908a908a908a908a908a9089906004016130c9565b600060405180830381600087803b15801561092957600080fd5b505af115801561093d573d6000803e3d6000fd5b5050505061094d61071a82515190565b50506109596001600055565b5050505050565b6060816001600160401b0381111561097a5761097a612c1f565b6040519080825280602002602001820160405280156109ad57816020015b60608152602001906001900390816109985790505b50905060005b82811015610a7757600080308686858181106109d1576109d16131c4565b90506020028101906109e391906131da565b6040516109f1929190613227565b600060405180830381855af49150503d8060008114610a2c576040519150601f19603f3d011682016040523d82523d6000602084013e610a31565b606091505b509150915081610a4457610a4481611a5a565b80848481518110610a5757610a576131c4565b602002602001018190525050508080610a6f9061324d565b9150506109b3565b5092915050565b6000610a88610dd2565b60005a9050610aa08460405160200161067990612fa4565b6001600160a01b038416610ab48480613266565b610ac2906020810190612926565b6001600160a01b031614610b0457610ada8380613266565b610ae8906020810190612926565b846040516325d55c0b60e11b815260040161012f929190613286565b6000610b18610120850161010086016132ab565b6007811115610b2957610b29613019565b1480610b5757506001610b44610120850161010086016132ab565b6007811115610b5557610b55613019565b145b80610b8457506002610b71610120850161010086016132ab565b6007811115610b8257610b82613019565b145b80610bb157506003610b9e610120850161010086016132ab565b6007811115610baf57610baf613019565b145b15610c7d576001600160a01b037f000000000000000000000000000000000000000000000000000000000000000016631b827878610bef8580613266565b610c009060a0810190608001612926565b604080516001600160e01b031960e085901b168152610c4a929189917f0000000000000000000000000000000000000000000000000000000000000000918a0135906004016132c8565b600060405180830381600087803b158015610c6457600080fd5b505af1158015610c78573d6000803e3d6000fd5b505050505b60405163718a30b960e11b81526000906001600160a01b037f0000000000000000000000000000000000000000000000000000000000000000169063e314617290610cce9088908890600401613415565b6020604051808303816000875af1158015610ced573d6000803e3d6000fd5b505050506040513d601f19601f82011682018060405250810190610d119190613535565b9050610d2385338460a088013561140e565b91505061040e6001600055565b610d38610dd2565b610d4182611149565b6040516303704f0f60e31b815233906001600160a01b037f00000000000000000000000000000000000000000000000000000000000000001690631b82787890610d959087908590889088906004016132c8565b600060405180830381600087803b158015610daf57600080fd5b505af1158015610dc3573d6000803e3d6000fd5b50505050506104d96001600055565b600260005403610e245760405162461bcd60e51b815260206004820152601f60248201527f5265656e7472616e637947756172643a207265656e7472616e742063616c6c00604482015260640161012f565b6002600055565b6000610e3683611a93565b60405163b348e63960e01b81529091506001600160a01b0386169063b348e63990610e67908490869060040161354e565b600060405180830381600087803b158015610e8157600080fd5b505af1158015610e95573d6000803e3d6000fd5b50505050610ea16127ff565b8051610eae906002611b0d565b6040805180820190915260078152661858d8dbdd5b9d60ca1b60208201528151610edb9160009087611b72565b60408051808201909152600a8152691cdd589858d8dbdd5b9d60b21b60208201528151610f0b9160019086611b72565b846001600160a01b03166363d16363610f2386611bcf565b610f2c86611bcf565b846040518463ffffffff1660e01b8152600401610f4b93929190613df2565b600060405180830381600087803b158015610f6557600080fd5b505af1158015610f79573d6000803e3d6000fd5b50505050505050505050565b6000610f92858585611bdb565b604051637152429d60e11b815260048101829052602481018490529091506001600160a01b0388169063e2a4853a906044016020604051808303816000875af1158015610fe3573d6000803e3d6000fd5b505050506040513d601f19601f820116820180604052508101906110079190613535565b506110106127ff565b805161101d906002611b0d565b6040805180820190915260078152661858d8dbdd5b9d60ca1b6020820152815161104a9160009089611b72565b60408051808201909152600a8152691cdd589858d8dbdd5b9d60b21b6020820152815161107a9160019088611b72565b602081015161108a906001611b0d565b6110cd60006040518060400160405280600f81526020016e1b585e105b1b1bddd95910dbdd5b9d608a1b815250858460200151611c81909392919063ffffffff16565b866001600160a01b03166363d163636110e588611bcf565b6110ee88611bcf565b846040518463ffffffff1660e01b815260040161110d93929190613e35565b600060405180830381600087803b15801561112757600080fd5b505af115801561113b573d6000803e3d6000fd5b505050505050505050505050565b6001600160a01b0381166104745760405163d551823d60e01b815260040160405180910390fd5b8060000361117d57505050565b61118682611149565b6000836001600160a01b031663bd02d0f56040516020016111a690613e93565b604051602081830303815290604052805190602001206040518263ffffffff1660e01b81526004016111da91815260200190565b602060405180830381865afa1580156111f7573d6000803e3d6000fd5b505050506040513d601f19601f8201168201806040525081019061121b9190613535565b90506000806000806000868887f190508015611238575050505050565b6109598585856119d7565b600061124e83611a93565b6040516369721d4160e01b81529091506001600160a01b038616906369721d419061127f908490869060040161354e565b600060405180830381600087803b15801561129957600080fd5b505af11580156112ad573d6000803e3d6000fd5b505050506112b96127ff565b80516112c6906002611b0d565b6040805180820190915260078152661858d8dbdd5b9d60ca1b602082015281516112f39160009087611b72565b60408051808201909152600a8152691cdd589858d8dbdd5b9d60b21b602082015281516113239160019086611b72565b846001600160a01b03166363d1636361133b86611bcf565b61134486611bcf565b846040518463ffffffff1660e01b8152600401610f4b93929190613eca565b6113957f000000000000000000000000000000000000000000000000000000000000000061139030611cd4565b611d15565b336113c17f00000000000000000000000000000000000000000000000000000000000000008483611d40565b6104d97f00000000000000000000000000000000000000000000000000000000000000007f0000000000000000000000000000000000000000000000000000000000000000858486611dde565b600061143b7f00000000000000000000000000000000000000000000000000000000000000008686611fb4565b90508060000361144b5750611818565b60007f00000000000000000000000000000000000000000000000000000000000000006001600160a01b03166321f8a72160405160200161148b90612bbc565b604051602081830303815290604052805190602001206040518263ffffffff1660e01b81526004016114bf91815260200190565b602060405180830381865afa1580156114dc573d6000803e3d6000fd5b505050506040513d601f19601f820116820180604052508101906115009190612be9565b905081816001600160a01b031663dd62ed3e887f00000000000000000000000000000000000000000000000000000000000000006040518363ffffffff1660e01b8152600401611551929190613286565b602060405180830381865afa15801561156e573d6000803e3d6000fd5b505050506040513d601f19601f820116820180604052508101906115929190613535565b101561159f575050611818565b6040516370a0823160e01b815282906001600160a01b038316906370a08231906115cd908a906004016128fd565b602060405180830381865afa1580156115ea573d6000803e3d6000fd5b505050506040513d601f19601f8201168201806040525081019061160e9190613535565b101561161b575050611818565b6000833a5a61162a9088613f10565b6116349190613f23565b61163e9190613f3a565b90508281101561164c578092505b6040516303704f0f60e31b81526001600160a01b037f00000000000000000000000000000000000000000000000000000000000000001690631b8278789061169e9085908b90309089906004016132c8565b600060405180830381600087803b1580156116b857600080fd5b505af11580156116cc573d6000803e3d6000fd5b505050506116fc7f0000000000000000000000000000000000000000000000000000000000000000838886612036565b6117046127ff565b8051611711906002611b0d565b6040805180820190915260078152661858d8dbdd5b9d60ca1b6020820152815161173e916000908b611b72565b60408051808201909152600a8152691cdd589858d8dbdd5b9d60b21b6020820152815161176e916001908a611b72565b602081015161177e906001611b0d565b6117b8600060405180604001604052806006815260200165185b5bdd5b9d60d21b815250868460200151611c81909392919063ffffffff16565b7f00000000000000000000000000000000000000000000000000000000000000006001600160a01b03166363d163636117f08a611bcf565b6117f98a611bcf565b846040518463ffffffff1660e01b815260040161110d93929190613f4d565b50505050565b600061182a8484612164565b604051637152429d60e11b815260048101829052602481018490529091506001600160a01b0387169063e2a4853a906044016020604051808303816000875af115801561187b573d6000803e3d6000fd5b505050506040513d601f19601f8201168201806040525081019061189f9190613535565b506118a86127ff565b80516118b5906002611b0d565b6040805180820190915260078152661858d8dbdd5b9d60ca1b602082015281516118e29160009088611b72565b60408051808201909152600a8152691cdd589858d8dbdd5b9d60b21b602082015281516119129160019087611b72565b6020810151611922906001611b0d565b61195c600060405180604001604052806006815260200165185b5bdd5b9d60d21b815250858460200151611c81909392919063ffffffff16565b856001600160a01b03166363d1636361197487611bcf565b61197d87611bcf565b846040518463ffffffff1660e01b815260040161199c93929190613f96565b600060405180830381600087803b1580156119b657600080fd5b505af11580156119ca573d6000803e3d6000fd5b5050505050505050505050565b806000036119e457505050565b6119ed82611149565b60006119f884610379565b9050806001600160a01b031663d0e30db0836040518263ffffffff1660e01b81526004016000604051808303818588803b158015611a3557600080fd5b505af1158015611a49573d6000803e3d6000fd5b5050505050611818848285856121fd565b600080611a6683612447565b915091508015611a8a578160405162461bcd60e51b815260040161012f9190613fe8565b6104d9836124d7565b6000604051602001611ac8906020808252600f908201526e14d5509050d0d3d5539517d31254d5608a1b604082015260600190565b6040516020818303038152906040528051906020012082604051602001611af092919061354e565b604051602081830303815290604052805190602001209050919050565b806001600160401b03811115611b2557611b25612c1f565b604051908082528060200260200182016040528015611b6b57816020015b604080518082019091526060815260006020820152815260200190600190039081611b435790505b5090915250565b8184600001518481518110611b8957611b896131c4565b6020026020010151600001819052508084600001518481518110611baf57611baf6131c4565b6020908102919091018101516001600160a01b0390921691015250505050565b6001600160a01b031690565b6000604051602001611c2a9060208082526023908201527f4d41585f414c4c4f5745445f5355424143434f554e545f414354494f4e5f434f60408201526215539560ea1b606082015260800190565b60408051808303601f190181528282528051602091820120818401526001600160a01b03968716838301529490951660608201526080808201939093528451808203909301835260a0019093528051910120919050565b8184600001518481518110611c9857611c986131c4565b6020026020010151600001819052508084600001518481518110611cbe57611cbe6131c4565b6020026020010151602001818152505050505050565b6000604051602001611ac8906020808252601b908201527a14d5509050d0d3d5539517d191505515549157d11254d050931151602a1b604082015260600190565b611d1f82826124e0565b156105245760405163dd70e0c960e01b81526004810182905260240161012f565b6000611d4b83611a93565b60405163c769d1a160e01b81529091506001600160a01b0385169063c769d1a190611d7c908490869060040161354e565b602060405180830381865afa158015611d99573d6000803e3d6000fd5b505050506040513d601f19601f82011682018060405250810190611dbd9190613ffb565b6118185782826040516326f8290f60e21b815260040161012f929190613286565b6000611deb848484612553565b60405163340dbab360e01b815260048101829052600160248201529091506000906001600160a01b0388169063340dbab3906044016020604051808303816000875af1158015611e3f573d6000803e3d6000fd5b505050506040513d601f19601f82011682018060405250810190611e639190613535565b9050611e728786868685612590565b611e7a6127ff565b8051611e87906002611b0d565b6040805180820190915260078152661858d8dbdd5b9d60ca1b60208201528151611eb49160009089611b72565b60408051808201909152600a8152691cdd589858d8dbdd5b9d60b21b60208201528151611ee49160019088611b72565b6020810151611ef4906001611b0d565b611f316000604051806040016040528060098152602001686e65787456616c756560b81b815250848460200151611c81909392919063ffffffff16565b6080810151611f41906001611b0d565b60408051808201909152600a815269616374696f6e5479706560b01b60208201526080820151611f749160009087611c81565b866001600160a01b03166363d16363611f8c88611bcf565b611f9588611bcf565b846040518463ffffffff1660e01b815260040161110d93929190614018565b600080611fc18484612164565b60405163bd02d0f560e01b8152600481018290529091506001600160a01b0386169063bd02d0f590602401602060405180830381865afa158015612009573d6000803e3d6000fd5b505050506040513d601f19601f8201168201806040525081019061202d9190613535565b95945050505050565b80156118185761204582611149565b604051632e1a7d4d60e01b8152600481018290526001600160a01b03841690632e1a7d4d90602401600060405180830381600087803b15801561208757600080fd5b505af115801561209b573d6000803e3d6000fd5b505050506000846001600160a01b031663bd02d0f56040516020016120bf90613e93565b604051602081830303815290604052805190602001206040518263ffffffff1660e01b81526004016120f391815260200190565b602060405180830381865afa158015612110573d6000803e3d6000fd5b505050506040513d601f19601f820116820180604052508101906121349190613535565b90506000806000806000868887f190508015612151575050611818565b61215c8685856119d7565b505050505050565b60006040516020016121a7906020808252601d908201527f5355424143434f554e545f4155544f5f544f505f55505f414d4f554e54000000604082015260600190565b60408051601f198184030181528282528051602091820120908301526001600160a01b03808616918301919091528316606082015260800160405160208183030381529060405280519060200120905092915050565b80156118185761220c82611149565b6000846001600160a01b031663bd02d0f561222686612659565b6040518263ffffffff1660e01b815260040161224491815260200190565b602060405180830381865afa158015612261573d6000803e3d6000fd5b505050506040513d601f19601f820116820180604052508101906122859190613535565b9050806000036122aa5783604051634fe14bfd60e11b815260040161012f91906128fd565b60006122b885858585612697565b50905080156122c8575050611818565b6000866001600160a01b03166321f8a72160405160200161230c906020808252600f908201526e484f4c44494e475f4144445245535360881b604082015260600190565b604051602081830303815290604052805190602001206040518263ffffffff1660e01b815260040161234091815260200190565b602060405180830381865afa15801561235d573d6000803e3d6000fd5b505050506040513d601f19601f820116820180604052508101906123819190612be9565b90506001600160a01b0381166123aa57604051633a6de2f560e21b815260040160405180910390fd5b6000806123b988848888612697565b9150915081156123cd575050505050611818565b60006123d882612447565b5090507fc9f14d9a0a9b46470c7c0b6c508f8283abaab7f795f153953c58cd4250824dae818360405161240c92919061406b565b60405180910390a160405163012f3b8f60e71b81526001600160a01b03808b166004830152891660248201526044810188905260640161012f565b6060600060448351101561246e575050604080516020810190915260008082529092909150565b600061247b846020015190565b90506307b9e43360e51b6001600160e01b03198216016124ba57600484019350838060200190518101906124af9190614090565b946001945092505050565b600060405180602001604052806000815250909250925050915091565b80518060208301fd5b604051633d70e7e560e11b8152600481018290526000906001600160a01b03841690637ae1cfca90602401602060405180830381865afa158015612528573d6000803e3d6000fd5b505050506040513d601f19601f8201168201806040525081019061254c9190613ffb565b9392505050565b6000604051602001611c2a9060208082526017908201527614d5509050d0d3d5539517d050d51253d397d0d3d55395604a1b604082015260600190565b600061259d858585611bdb565b60405163bd02d0f560e01b8152600481018290529091506000906001600160a01b0388169063bd02d0f590602401602060405180830381865afa1580156125e8573d6000803e3d6000fd5b505050506040513d601f19601f8201168201806040525081019061260c9190613535565b9050808311156126505760405163519ba75360e01b81526001600160a01b03808816600483015286166024820152604481018490526064810182905260840161012f565b50505050505050565b6000604051602001611ac8906020808252601890820152771513d2d15397d514905394d1915497d1d054d7d31253525560421b604082015260600190565b60006060600063a9059cbb60e01b86866040516024016126b8929190612c06565b604051602081830303815290604052906001600160e01b0319166020820180516001600160e01b0383818316178352505050509050600080886001600160a01b031686846040516127099190614123565b60006040518083038160008787f1925050503d8060008114612747576040519150601f19603f3d011682016040523d82523d6000602084013e61274c565b606091505b509150915081156127ed5780516000036127aa576001600160a01b0389163b6127aa5760006040518060400160405280601481526020017310d85b1b081d1bc81b9bdb8b58dbdb9d1c9858dd60621b815250945094505050506127f6565b600081511180156127cc5750808060200190518101906127ca9190613ffb565b155b156127df576000945092506127f6915050565b6001945092506127f6915050565b60009450925050505b94509492505050565b604080516101208101909152606060e0820181815261010083019190915281908152602001612841604051806040016040528060608152602001606081525090565b8152602001612863604051806040016040528060608152602001606081525090565b8152602001612885604051806040016040528060608152602001606081525090565b81526020016128a7604051806040016040528060608152602001606081525090565b81526020016128c9604051806040016040528060608152602001606081525090565b81526020016128eb604051806040016040528060608152602001606081525090565b905290565b6001600160a01b03169052565b6001600160a01b0391909116815260200190565b6001600160a01b038116811461047457600080fd5b60006020828403121561293857600080fd5b813561254c81612911565b60008060006060848603121561295857600080fd5b833561296381612911565b95602085013595506040909401359392505050565b6000806040838503121561298b57600080fd5b823561299681612911565b946020939093013593505050565b6000602082840312156129b657600080fd5b5035919050565b600080600080600060a086880312156129d557600080fd5b505083359560208501359550604085013594606081013594506080013592509050565b60008060208385031215612a0b57600080fd5b82356001600160401b0380821115612a2257600080fd5b818501915085601f830112612a3657600080fd5b813581811115612a4557600080fd5b8660208260051b8501011115612a5a57600080fd5b60209290920196919550909350505050565b60005b83811015612a87578181015183820152602001612a6f565b50506000910152565b60008151808452612aa8816020860160208601612a6c565b601f01601f19169290920160200192915050565b600081518084526020808501808196508360051b8101915082860160005b85811015612b04578284038952612af2848351612a90565b98850198935090840190600101612ada565b5091979650505050505050565b60208152600061254c6020830184612abc565b60008060408385031215612b3757600080fd5b8235612b4281612911565b915060208301356001600160401b03811115612b5d57600080fd5b83016101a08186031215612b7057600080fd5b809150509250929050565b600080600060608486031215612b9057600080fd5b8335612b9b81612911565b92506020840135612bab81612911565b929592945050506040919091013590565b60208082526003908201526215d39560ea1b604082015260600190565b8051612be481612911565b919050565b600060208284031215612bfb57600080fd5b815161254c81612911565b6001600160a01b03929092168252602082015260400190565b634e487b7160e01b600052604160045260246000fd5b60405161014081016001600160401b0381118282101715612c5857612c58612c1f565b60405290565b604051606081016001600160401b0381118282101715612c5857612c58612c1f565b60405160e081016001600160401b0381118282101715612c5857612c58612c1f565b604051601f8201601f191681016001600160401b0381118282101715612cca57612cca612c1f565b604052919050565b600082601f830112612ce357600080fd5b815160206001600160401b03821115612cfe57612cfe612c1f565b8160051b612d0d828201612ca2565b9283528481018201928281019087851115612d2757600080fd5b83870192505b84831015612d4f578251612d4081612911565b82529183019190830190612d2d565b979650505050505050565b6008811061047457600080fd5b8051612be481612d5a565b6003811061047457600080fd5b8051612be481612d72565b60006101408284031215612d9d57600080fd5b612da5612c35565b9050612db082612d67565b8152612dbe60208301612d7f565b602082015260408201516040820152606082015160608201526080820151608082015260a082015160a082015260c082015160c082015260e082015160e082015261010080830151818301525061012080830151818301525092915050565b801515811461047457600080fd5b600060608284031215612e3d57600080fd5b612e45612c5e565b90508151612e5281612e1d565b81526020820151612e6281612e1d565b60208201526040820151612e7581612e1d565b604082015292915050565b600060208284031215612e9257600080fd5b81516001600160401b0380821115612ea957600080fd5b908301906101c08286031215612ebe57600080fd5b612ec6612c5e565b825182811115612ed557600080fd5b830160e08188031215612ee757600080fd5b612eef612c80565b612ef882612bd9565b8152612f0660208301612bd9565b6020820152612f1760408301612bd9565b6040820152612f2860608301612bd9565b6060820152612f3960808301612bd9565b6080820152612f4a60a08301612bd9565b60a082015260c082015184811115612f6157600080fd5b612f6d89828501612cd2565b60c083015250825250612f838660208501612d8a565b6020820152612f96866101608501612e2b565b604082015295945050505050565b60208082526017908201527629aaa120a1a1a7aaa72a2fa7a92222a92fa0a1aa24a7a760491b604082015260600190565b600081518084526020808501945080840160005b8381101561300e5781516001600160a01b031687529582019590820190600101612fe9565b509495945050505050565b634e487b7160e01b600052602160045260246000fd5b6008811061303f5761303f613019565b9052565b6003811061303f5761303f613019565b61305e82825161302f565b60208101516130706020840182613043565b5060408101516040830152606081015160608301526080810151608083015260a081015160a083015260c081015160c083015260e081015160e08301526101008082015181840152506101208082015181840152505050565b86815285602082015284604082015283606082015282608082015260c060a0820152600082516101c060c084015260018060a01b0380825116610280850152806020830151166102a0850152806040830151166102c08501525060608101516131366102e08501826128f0565b50608081015161314a6103008501826128f0565b5060a081015161315e6103208501826128f0565b5060c0015160e0610340840152613179610360840182612fd5565b9050602084015161318d60e0850182613053565b5060408481015180511515610220860152602081015115156102408601529081015115156102608501525098975050505050505050565b634e487b7160e01b600052603260045260246000fd5b6000808335601e198436030181126131f157600080fd5b8301803591506001600160401b0382111561320b57600080fd5b60200191503681900382131561322057600080fd5b9250929050565b8183823760009101908152919050565b634e487b7160e01b600052601160045260246000fd5b60006001820161325f5761325f613237565b5060010190565b6000823560be1983360301811261327c57600080fd5b9190910192915050565b6001600160a01b0392831681529116602082015260400190565b8035612be481612d5a565b6000602082840312156132bd57600080fd5b813561254c81612d5a565b6001600160a01b039485168152928416602084015292166040820152606081019190915260800190565b8183526000602080850194508260005b8581101561300e57813561331581612911565b6001600160a01b031687529582019590820190600101613302565b6000813561333d81612911565b6001600160a01b03908116845260208301359061335982612911565b908116602085015260408301359061337082612911565b908116604085015260608301359061338782612911565b908116606085015260808301359061339e82612911565b16608084015260a082013536839003601e190181126133bc57600080fd5b82016020810190356001600160401b038111156133d857600080fd5b8060051b36038213156133ea57600080fd5b60c060a086015261202d60c0860182846132f2565b8035612be481612d72565b8035612be481612e1d565b6001600160a01b038316815260406020820152600082353684900360be1901811261343f57600080fd5b6101a08060408501526134586101e08501868401613330565b91506134a96060850160208701803582526020810135602083015260408101356040830152606081013560608301526080810135608083015260a081013560a083015260c081013560c08301525050565b6134b661010086016132a0565b6101406134c58187018361302f565b6134d261012088016133ff565b91506101606134e381880184613043565b6134ee82890161340a565b925061018091506135028288018415159052565b61350d81890161340a565b92505061351d8387018315159052565b808701356101c0870152505050809150509392505050565b60006020828403121561354757600080fd5b5051919050565b9182526001600160a01b0316602082015260400190565b600081518084526020808501808196508360051b8101915082860160005b85811015612b045782840389528151604081518187526135a582880182612a90565b915050868201519150858103878701526135bf8183612fd5565b9a87019a9550505090840190600101613583565b60006040808401835182865281815180845260608801915060608160051b89010193506020808401935060005b8281101561364a57898603605f190184528451805188885261362489890182612a90565b918401516001600160a01b03169784019790975295509381019392810192600101613600565b50808801519550888503818a01525050505061202d8183613565565b600081518084526020808501808196508360051b810191508286016000805b868110156136f8578385038a528251604081518188526136a782890182612a90565b92890151888403898b01528051808552908a01938693508a0191505b808310156136e357835182529289019260019290920191908901906136c3565b509b88019b9650505091850191600101613685565b509298975050505050505050565b60006040808401835182865281815180845260608801915060608160051b89010193506020808401935060005b8281101561377457898603605f190184528451805188885261375789890182612a90565b918401519784019790975295509381019392810192600101613733565b50808801519550888503818a01525050505061202d8183613666565b600081518084526020808501808196508360051b810191508286016000805b868110156136f8578385038a528251604081518188526137d182890182612a90565b92890151888403898b01528051808552908a01938693508a0191505b8083101561380d57835182529289019260019290920191908901906137ed565b509b88019b96505050918501916001016137af565b60006040808401835182865281815180845260608801915060608160051b89010193506020808401935060005b8281101561389057898603605f190184528451805188885261387389890182612a90565b91840151978401979097529550938101939281019260010161384f565b50808801519550888503818a01525050505061202d8183613790565b600081518084526020808501808196508360051b810191508286016000805b868110156136f8578385038a528251604081518188526138ed82890182612a90565b92890151888403898b01528051808552908a01938693508a0191505b8083101561392b57835115158252928901926001929092019190890190613909565b509b88019b96505050918501916001016138cb565b60006040808401835182865281815180845260608801915060608160051b89010193506020808401935060005b828110156139b057898603605f190184528451805188885261399189890182612a90565b918401511515978401979097529550938101939281019260010161396d565b50808801519550888503818a01525050505061202d81836138ac565b600081518084526020808501808196508360051b810191508286016000805b868110156136f8578385038a52825160408151818852613a0d82890182612a90565b92890151888403898b01528051808552908a01938693508a0191505b80831015613a495783518252928901926001929092019190890190613a29565b509b88019b96505050918501916001016139eb565b60006040808401835182865281815180845260608801915060608160051b89010193506020808401935060005b82811015613acc57898603605f1901845284518051888852613aaf89890182612a90565b918401519784019790975295509381019392810192600101613a8b565b50808801519550888503818a01525050505061202d81836139cc565b600081518084526020808501808196508360051b8101915082860160005b85811015612b04578284038952815160408151818752613b2882880182612a90565b91505086820151915085810387870152613b428183612abc565b9a87019a9550505090840190600101613b06565b60006040808401835182865281815180845260608801915060608160051b89010193506020808401935060005b82811015613bd357898603605f1901845284518051888852613ba789890182612a90565b9184015188830389860152919050613bbf8183612a90565b975050509381019392810192600101613b83565b50808801519550888503818a01525050505061202d8183613ae8565b600081518084526020808501808196506005915083821b81018387016000805b87811015613c9a578484038b52825160408151818752613c3182880182612a90565b928a0151878403888c01528051808552908b019392508a83019150808a1b83018b01865b82811015613c8357601f19858303018452613c71828751612a90565b958d0195938d01939150600101613c55565b509e8b019e97505050938801935050600101613c0f565b50919998505050505050505050565b60006040808401835182865281815180845260608801915060608160051b89010193506020808401935060005b82811015613d2657898603605f1901845284518051888852613cfa89890182612a90565b9184015188830389860152919050613d128183612a90565b975050509381019392810192600101613cd6565b50808801519550888503818a01525050505061202d8183613bef565b6000815160e08452613d5760e08501826135d3565b905060208301518482036020860152613d708282613706565b91505060408301518482036040860152613d8a8282613822565b91505060608301518482036060860152613da48282613940565b91505060808301518482036080860152613dbe8282613a5e565b91505060a083015184820360a0860152613dd88282613b56565b91505060c083015184820360c086015261202d8282613ca9565b60808152600d60808201526c10591914dd589858d8dbdd5b9d609a1b60a082015283602082015282604082015260c06060820152600061202d60c0830184613d42565b60808152602260808201527f5365744d6178416c6c6f7765645375626163636f756e74416374696f6e436f7560a0820152611b9d60f21b60c082015283602082015282604082015260e06060820152600061202d60e0830184613d42565b6020808252601f908201527f4e41544956455f544f4b454e5f5452414e534645525f4741535f4c494d495400604082015260600190565b60808152601060808201526f14995b5bdd9954dd589858d8dbdd5b9d60821b60a082015283602082015282604082015260c06060820152600061202d60c0830184613d42565b8181038181111561040e5761040e613237565b808202811582820484141761040e5761040e613237565b8082018082111561040e5761040e613237565b60808152601360808201527205375626163636f756e744175746f546f70557606c1b60a082015283602082015282604082015260c06060820152600061202d60c0830184613d42565b60808152601c60808201527b14d95d14dd589858d8dbdd5b9d105d5d1bd51bdc155c105b5bdd5b9d60221b60a082015283602082015282604082015260c06060820152600061202d60c0830184613d42565b60208152600061254c6020830184612a90565b60006020828403121561400d57600080fd5b815161254c81612e1d565b60808152601e60808201527f496e6372656d656e745375626163636f756e74416374696f6e436f756e74000060a082015283602082015282604082015260c06060820152600061202d60c0830184613d42565b60408152600061407e6040830185612a90565b828103602084015261202d8185612a90565b6000602082840312156140a257600080fd5b81516001600160401b03808211156140b957600080fd5b818401915084601f8301126140cd57600080fd5b8151818111156140df576140df612c1f565b6140f2601f8201601f1916602001612ca2565b915080825285602082850101111561410957600080fd5b61411a816020840160208601612a6c565b50949350505050565b6000825161327c818460208701612a6c56fea2646970667358221220d9f7d108305e968b36f16bf4489f10cd135f1cc3abb4dbdf61b3e209f685988664736f6c63430008120033",
  "libraries": {
    "OrderStoreUtils": "0x2aDdc988291815C08b1433bE22b97D76264F8487"
  },
  "devdoc": {
    "kind": "dev",
    "methods": {
      "multicall(bytes[])": {
        "details": "Receives and executes a batch of function calls on this contract."
      }
    },
    "version": 1
  },
  "userdoc": {
    "kind": "user",
    "methods": {},
    "version": 1
  },
  "storageLayout": {
    "storage": [
      {
        "astId": 5326,
        "contract": "contracts/router/SubaccountRouter.sol:SubaccountRouter",
        "label": "_status",
        "offset": 0,
        "slot": "0",
        "type": "t_uint256"
      }
    ],
    "types": {
      "t_uint256": {
        "encoding": "inplace",
        "label": "uint256",
        "numberOfBytes": "32"
      }
    }
  }
}