{
  "address": "0x371ad9a177b543B4e13daA5E57126c6E4EA39037",
  "abi": [
    {
      "inputs": [
        {
          "internalType": "contract Router",
          "name": "_router",
          "type": "address"
        },
        {
          "internalType": "contract RoleStore",
          "name": "_roleStore",
          "type": "address"
        },
        {
          "internalType": "contract DataStore",
          "name": "_dataStore",
          "type": "address"
        },
        {
          "internalType": "contract EventEmitter",
          "name": "_eventEmitter",
          "type": "address"
        },
        {
          "internalType": "contract IOrderHandler",
          "name": "_orderHandler",
          "type": "address"
        },
        {
          "internalType": "contract OrderVault",
          "name": "_orderVault",
          "type": "address"
        }
      ],
      "stateMutability": "nonpayable",
      "type": "constructor"
    },
    {
      "inputs": [
        {
          "internalType": "bytes32",
          "name": "key",
          "type": "bytes32"
        }
      ],
      "name": "DisabledFeature",
      "type": "error"
    },
    {
      "inputs": [],
      "name": "EmptyHoldingAddress",
      "type": "error"
    },
    {
      "inputs": [],
      "name": "EmptyOrder",
      "type": "error"
    },
    {
      "inputs": [],
      "name": "EmptyReceiver",
      "type": "error"
    },
    {
      "inputs": [
        {
          "internalType": "address",
          "name": "token",
          "type": "address"
        }
      ],
      "name": "EmptyTokenTranferGasLimit",
      "type": "error"
    },
    {
      "inputs": [
        {
          "internalType": "address",
          "name": "cancellationReceiver",
          "type": "address"
        },
        {
          "internalType": "address",
          "name": "expectedCancellationReceiver",
          "type": "address"
        }
      ],
      "name": "InvalidCancellationReceiverForSubaccountOrder",
      "type": "error"
    },
    {
      "inputs": [
        {
          "internalType": "address",
          "name": "msgSender",
          "type": "address"
        }
      ],
      "name": "InvalidNativeTokenSender",
      "type": "error"
    },
    {
      "inputs": [
        {
          "internalType": "address",
          "name": "receiver",
          "type": "address"
        },
        {
          "internalType": "address",
          "name": "expectedReceiver",
          "type": "address"
        }
      ],
      "name": "InvalidReceiverForSubaccountOrder",
      "type": "error"
    },
    {
      "inputs": [
        {
          "internalType": "address",
          "name": "token",
          "type": "address"
        },
        {
          "internalType": "address",
          "name": "receiver",
          "type": "address"
        },
        {
          "internalType": "uint256",
          "name": "amount",
          "type": "uint256"
        }
      ],
      "name": "TokenTransferError",
      "type": "error"
    },
    {
      "anonymous": false,
      "inputs": [
        {
          "indexed": false,
          "internalType": "string",
          "name": "reason",
          "type": "string"
        },
        {
          "indexed": false,
          "internalType": "bytes",
          "name": "returndata",
          "type": "bytes"
        }
      ],
      "name": "TokenTransferReverted",
      "type": "event"
    },
    {
      "inputs": [
        {
          "internalType": "address",
          "name": "subaccount",
          "type": "address"
        }
      ],
      "name": "addSubaccount",
      "outputs": [],
      "stateMutability": "payable",
      "type": "function"
    },
    {
      "inputs": [
        {
          "internalType": "bytes32",
          "name": "key",
          "type": "bytes32"
        }
      ],
      "name": "cancelOrder",
      "outputs": [],
      "stateMutability": "payable",
      "type": "function"
    },
    {
      "inputs": [
        {
          "internalType": "address",
          "name": "account",
          "type": "address"
        },
        {
          "components": [
            {
              "components": [
                {
                  "internalType": "address",
                  "name": "receiver",
                  "type": "address"
                },
                {
                  "internalType": "address",
                  "name": "cancellationReceiver",
                  "type": "address"
                },
                {
                  "internalType": "address",
                  "name": "callbackContract",
                  "type": "address"
                },
                {
                  "internalType": "address",
                  "name": "uiFeeReceiver",
                  "type": "address"
                },
                {
                  "internalType": "address",
                  "name": "market",
                  "type": "address"
                },
                {
                  "internalType": "address",
                  "name": "initialCollateralToken",
                  "type": "address"
                },
                {
                  "internalType": "address[]",
                  "name": "swapPath",
                  "type": "address[]"
                }
              ],
              "internalType": "struct IBaseOrderUtils.CreateOrderParamsAddresses",
              "name": "addresses",
              "type": "tuple"
            },
            {
              "components": [
                {
                  "internalType": "uint256",
                  "name": "sizeDeltaUsd",
                  "type": "uint256"
                },
                {
                  "internalType": "uint256",
                  "name": "initialCollateralDeltaAmount",
                  "type": "uint256"
                },
                {
                  "internalType": "uint256",
                  "name": "triggerPrice",
                  "type": "uint256"
                },
                {
                  "internalType": "uint256",
                  "name": "acceptablePrice",
                  "type": "uint256"
                },
                {
                  "internalType": "uint256",
                  "name": "executionFee",
                  "type": "uint256"
                },
                {
                  "internalType": "uint256",
                  "name": "callbackGasLimit",
                  "type": "uint256"
                },
                {
                  "internalType": "uint256",
                  "name": "minOutputAmount",
                  "type": "uint256"
                },
                {
                  "internalType": "uint256",
                  "name": "validFromTime",
                  "type": "uint256"
                }
              ],
              "internalType": "struct IBaseOrderUtils.CreateOrderParamsNumbers",
              "name": "numbers",
              "type": "tuple"
            },
            {
              "internalType": "enum Order.OrderType",
              "name": "orderType",
              "type": "uint8"
            },
            {
              "internalType": "enum Order.DecreasePositionSwapType",
              "name": "decreasePositionSwapType",
              "type": "uint8"
            },
            {
              "internalType": "bool",
              "name": "isLong",
              "type": "bool"
            },
            {
              "internalType": "bool",
              "name": "shouldUnwrapNativeToken",
              "type": "bool"
            },
            {
              "internalType": "bool",
              "name": "autoCancel",
              "type": "bool"
            },
            {
              "internalType": "bytes32",
              "name": "referralCode",
              "type": "bytes32"
            },
            {
              "internalType": "bytes32[]",
              "name": "dataList",
              "type": "bytes32[]"
            }
          ],
          "internalType": "struct IBaseOrderUtils.CreateOrderParams",
          "name": "params",
          "type": "tuple"
        }
      ],
      "name": "createOrder",
      "outputs": [
        {
          "internalType": "bytes32",
          "name": "",
          "type": "bytes32"
        }
      ],
      "stateMutability": "payable",
      "type": "function"
    },
    {
      "inputs": [],
      "name": "dataStore",
      "outputs": [
        {
          "internalType": "contract DataStore",
          "name": "",
          "type": "address"
        }
      ],
      "stateMutability": "view",
      "type": "function"
    },
    {
      "inputs": [],
      "name": "eventEmitter",
      "outputs": [
        {
          "internalType": "contract EventEmitter",
          "name": "",
          "type": "address"
        }
      ],
      "stateMutability": "view",
      "type": "function"
    },
    {
      "inputs": [
        {
          "internalType": "bytes[]",
          "name": "data",
          "type": "bytes[]"
        }
      ],
      "name": "multicall",
      "outputs": [
        {
          "internalType": "bytes[]",
          "name": "results",
          "type": "bytes[]"
        }
      ],
      "stateMutability": "payable",
      "type": "function"
    },
    {
      "inputs": [],
      "name": "orderHandler",
      "outputs": [
        {
          "internalType": "contract IOrderHandler",
          "name": "",
          "type": "address"
        }
      ],
      "stateMutability": "view",
      "type": "function"
    },
    {
      "inputs": [],
      "name": "orderVault",
      "outputs": [
        {
          "internalType": "contract OrderVault",
          "name": "",
          "type": "address"
        }
      ],
      "stateMutability": "view",
      "type": "function"
    },
    {
      "inputs": [
        {
          "internalType": "address",
          "name": "subaccount",
          "type": "address"
        }
      ],
      "name": "removeSubaccount",
      "outputs": [],
      "stateMutability": "payable",
      "type": "function"
    },
    {
      "inputs": [],
      "name": "roleStore",
      "outputs": [
        {
          "internalType": "contract RoleStore",
          "name": "",
          "type": "address"
        }
      ],
      "stateMutability": "view",
      "type": "function"
    },
    {
      "inputs": [],
      "name": "router",
      "outputs": [
        {
          "internalType": "contract Router",
          "name": "",
          "type": "address"
        }
      ],
      "stateMutability": "view",
      "type": "function"
    },
    {
      "inputs": [
        {
          "internalType": "address",
          "name": "receiver",
          "type": "address"
        },
        {
          "internalType": "uint256",
          "name": "amount",
          "type": "uint256"
        }
      ],
      "name": "sendNativeToken",
      "outputs": [],
      "stateMutability": "payable",
      "type": "function"
    },
    {
      "inputs": [
        {
          "internalType": "address",
          "name": "token",
          "type": "address"
        },
        {
          "internalType": "address",
          "name": "receiver",
          "type": "address"
        },
        {
          "internalType": "uint256",
          "name": "amount",
          "type": "uint256"
        }
      ],
      "name": "sendTokens",
      "outputs": [],
      "stateMutability": "payable",
      "type": "function"
    },
    {
      "inputs": [
        {
          "internalType": "address",
          "name": "receiver",
          "type": "address"
        },
        {
          "internalType": "uint256",
          "name": "amount",
          "type": "uint256"
        }
      ],
      "name": "sendWnt",
      "outputs": [],
      "stateMutability": "payable",
      "type": "function"
    },
    {
      "inputs": [
        {
          "internalType": "address",
          "name": "subaccount",
          "type": "address"
        },
        {
          "internalType": "bytes32",
          "name": "integrationId",
          "type": "bytes32"
        }
      ],
      "name": "setIntegrationId",
      "outputs": [],
      "stateMutability": "payable",
      "type": "function"
    },
    {
      "inputs": [
        {
          "internalType": "address",
          "name": "subaccount",
          "type": "address"
        },
        {
          "internalType": "bytes32",
          "name": "actionType",
          "type": "bytes32"
        },
        {
          "internalType": "uint256",
          "name": "maxAllowedCount",
          "type": "uint256"
        }
      ],
      "name": "setMaxAllowedSubaccountActionCount",
      "outputs": [],
      "stateMutability": "payable",
      "type": "function"
    },
    {
      "inputs": [
        {
          "internalType": "address",
          "name": "subaccount",
          "type": "address"
        },
        {
          "internalType": "uint256",
          "name": "amount",
          "type": "uint256"
        }
      ],
      "name": "setSubaccountAutoTopUpAmount",
      "outputs": [],
      "stateMutability": "payable",
      "type": "function"
    },
    {
      "inputs": [
        {
          "internalType": "address",
          "name": "subaccount",
          "type": "address"
        },
        {
          "internalType": "bytes32",
          "name": "actionType",
          "type": "bytes32"
        },
        {
          "internalType": "uint256",
          "name": "expiresAt",
          "type": "uint256"
        }
      ],
      "name": "setSubaccountExpiresAt",
      "outputs": [],
      "stateMutability": "payable",
      "type": "function"
    },
    {
      "inputs": [
        {
          "internalType": "bytes32",
          "name": "key",
          "type": "bytes32"
        },
        {
          "internalType": "uint256",
          "name": "sizeDeltaUsd",
          "type": "uint256"
        },
        {
          "internalType": "uint256",
          "name": "acceptablePrice",
          "type": "uint256"
        },
        {
          "internalType": "uint256",
          "name": "triggerPrice",
          "type": "uint256"
        },
        {
          "internalType": "uint256",
          "name": "minOutputAmount",
          "type": "uint256"
        },
        {
          "internalType": "uint256",
          "name": "validFromTime",
          "type": "uint256"
        },
        {
          "internalType": "bool",
          "name": "autoCancel",
          "type": "bool"
        }
      ],
      "name": "updateOrder",
      "outputs": [],
      "stateMutability": "payable",
      "type": "function"
    },
    {
      "stateMutability": "payable",
      "type": "receive"
    }
  ],
  "transactionHash": "0xec0deb61f826a80805f6548ee41a928a95aee619efbe4e5da25df574d5b7d659",
  "args": [
    "0x72F13a44C8ba16a678CAD549F17bc9e06d2B8bD2",
    "0x433E3C47885b929aEcE4149E3c835E565a20D95c",
    "0xCF4c2C4c53157BcC01A596e3788fFF69cBBCD201",
    "0xa973c2692C1556E1a3d478e745e9a75624AEDc73",
    "0xF11aCD2a504D920F5522Cb2B241F01faf8940F72",
    "0x1b8AC606de71686fd2a1AEDEcb6E0EFba28909a2"
  ],
  "numDeployments": 3,
  "solcInputHash": "e4cc00085ed78cddcfe192cb7ac62153",
  "bytecode": "0x6101406040523480156200001257600080fd5b5060405162003f4138038062003f41833981016040819052620000359162000083565b60016000556001600160a01b0394851660805294841660a05291831660c052821660e052811661010052166101205262000117565b6001600160a01b03811681146200008057600080fd5b50565b60008060008060008060c087890312156200009d57600080fd5b8651620000aa816200006a565b6020880151909650620000bd816200006a565b6040880151909550620000d0816200006a565b6060880151909450620000e3816200006a565b6080880151909350620000f6816200006a565b60a088015190925062000109816200006a565b809150509295509295509295565b60805160a05160c05160e0516101005161012051613cf46200024d6000396000818161029e01526108ae0152600081816103260152818161091901528181610b8201526110300152600081816102d2015281816104ab0152818161057001528181610a4401528181610c6201528181610ced01528181610f0b015281816113ea015261186501526000818160f4015281816101ea015281816104890152818161054e015281816105f601528181610a2201528181610a9b01528181610c4001528181610ccb01528181610d6c01528181610ee901528181610f64015281816112df0152818161133d015281816113c801528181611479015281816114fa01526117800152600081816103930152818161085001528181611117015281816115c0015261170e0152600061018d0152613cf46000f3fe6080604052600436106100e85760003560e01c80633914f217146101555780633e46b365146101685780634a4a7b041461017b57806353ead2d3146101c5578063660d0d67146101d857806369b605c51461020c578063712182eb1461022d5780637489ec231461024057806378a61fa21461025357806379a358a2146102665780637d39aaf11461027957806393845e461461028c5780639ff78c30146102c0578063ac9650d8146102f4578063b584830514610314578063d1bfe05114610348578063dd5baad21461035b578063e6d66ac81461036e578063f887ea401461038157600080fd5b366101505760006101187f00000000000000000000000000000000000000000000000000000000000000006103b5565b9050336001600160a01b0382161461014e573360405163738d28df60e11b815260040161014591906122bb565b60405180910390fd5b005b600080fd5b61014e6101633660046122f4565b610450565b61014e610176366004612311565b610515565b34801561018757600080fd5b506101af7f000000000000000000000000000000000000000000000000000000000000000081565b6040516101bc91906122bb565b60405180910390f35b61014e6101d3366004612346565b6105e0565b3480156101e457600080fd5b506101af7f000000000000000000000000000000000000000000000000000000000000000081565b61021f61021a366004612372565b61062a565b6040519081526020016101bc565b61014e61023b3660046122f4565b6109e9565b61014e61024e3660046123c9565b610a70565b61014e610261366004612311565b610c07565b61014e610274366004612346565b610c92565b61014e610287366004612346565b610d56565b34801561029857600080fd5b506101af7f000000000000000000000000000000000000000000000000000000000000000081565b3480156102cc57600080fd5b506101af7f000000000000000000000000000000000000000000000000000000000000000081565b6103076103023660046123e2565b610d92565b6040516101bc91906124a6565b34801561032057600080fd5b506101af7f000000000000000000000000000000000000000000000000000000000000000081565b61014e610356366004612346565b610eb0565b61014e610369366004612521565b610f39565b61014e61037c366004612581565b6110ed565b34801561038d57600080fd5b506101af7f000000000000000000000000000000000000000000000000000000000000000081565b6000816001600160a01b03166321f8a7216040516020016103d5906125c2565b604051602081830303815290604052805190602001206040518263ffffffff1660e01b815260040161040991815260200190565b602060405180830381865afa158015610426573d6000803e3d6000fd5b505050506040513d601f19601f8201168201806040525081019061044a91906125ea565b92915050565b610458611180565b604051631638cf3360e31b8152339073B9A432427F9b46FA30965c1170e12a9CE6A4494b9063b1c67998906104d7907f0000000000000000000000000000000000000000000000000000000000000000907f00000000000000000000000000000000000000000000000000000000000000009086908890600401612607565b60006040518083038186803b1580156104ef57600080fd5b505af4158015610503573d6000803e3d6000fd5b50505050506105126001600055565b50565b61051d611180565b604051636583220d60e11b8152339073B9A432427F9b46FA30965c1170e12a9CE6A4494b9063cb06441a906105a0907f0000000000000000000000000000000000000000000000000000000000000000907f00000000000000000000000000000000000000000000000000000000000000009086908a908a908a90600401612632565b60006040518083038186803b1580156105b857600080fd5b505af41580156105cc573d6000803e3d6000fd5b50505050506105db6001600055565b505050565b6105e8611180565b6105f1826111d9565b61061c7f00000000000000000000000000000000000000000000000000000000000000008383611200565b6106266001600055565b5050565b6000610634611180565b60005a90506106678460405160200161064c9061266c565b604051602081830303815290604052805190602001206112da565b6001600160a01b03841661067b848061269d565b6106899060208101906122f4565b6001600160a01b0316146106cb576106a1838061269d565b6106af9060208101906122f4565b846040516325d55c0b60e11b81526004016101459291906126bd565b60006106d7848061269d565b6106e89060408101906020016122f4565b6001600160a01b03161415801561072b57506001600160a01b03841661070e848061269d565b61071f9060408101906020016122f4565b6001600160a01b031614155b156107675761073a838061269d565b61074b9060408101906020016122f4565b8460405163225cd96160e21b81526004016101459291906126bd565b600061077b61014085016101208601612705565b600881111561078c5761078c6126d7565b14806107ba575060016107a761014085016101208601612705565b60088111156107b8576107b86126d7565b145b806107e7575060026107d461014085016101208601612705565b60088111156107e5576107e56126d7565b145b806108145750600361080161014085016101208601612705565b6008811115610812576108126126d7565b145b806108415750600861082e61014085016101208601612705565b600881111561083f5761083f6126d7565b145b1561090d576001600160a01b037f000000000000000000000000000000000000000000000000000000000000000016631b82787861087f858061269d565b6108909060c081019060a0016122f4565b604080516001600160e01b031960e085901b1681526108da929189917f0000000000000000000000000000000000000000000000000000000000000000918a013590600401612722565b600060405180830381600087803b1580156108f457600080fd5b505af1158015610908573d6000803e3d6000fd5b505050505b60006001600160a01b037f00000000000000000000000000000000000000000000000000000000000000001663c6561b458683878161094c828061269d565b61095d9060608101906040016122f4565b6001600160a01b031614156040518563ffffffff1660e01b8152600401610987949392919061292a565b6020604051808303816000875af11580156109a6573d6000803e3d6000fd5b505050506040513d601f19601f820116820180604052508101906109ca9190612a8f565b90506109dc85338460a0880135611447565b91505061044a6001600055565b6109f1611180565b6040516331afcdf360e21b8152339073B9A432427F9b46FA30965c1170e12a9CE6A4494b9063c6bf37cc906104d7907f0000000000000000000000000000000000000000000000000000000000000000907f00000000000000000000000000000000000000000000000000000000000000009086908890600401612607565b610a78611180565b60005a90506000734926F2ea7B3759ea675D9BA2659CEe14a5A1D57c63fdfc26f37f0000000000000000000000000000000000000000000000000000000000000000856040518363ffffffff1660e01b8152600401610ad8929190612aa8565b600060405180830381865af4158015610af5573d6000803e3d6000fd5b505050506040513d6000823e601f3d908101601f19168201604052610b1d9190810190612d90565b90506000610b2a82515190565b6001600160a01b031603610b5157604051631630779760e01b815260040160405180910390fd5b610b6c610b5d82515190565b60405160200161064c9061266c565b604051637489ec2360e01b8152600481018490527f00000000000000000000000000000000000000000000000000000000000000006001600160a01b031690637489ec2390602401600060405180830381600087803b158015610bce57600080fd5b505af1158015610be2573d6000803e3d6000fd5b50505050610bfb610bf282515190565b33846000611447565b50506105126001600055565b610c0f611180565b60405163c563c4ed60e01b8152339073B9A432427F9b46FA30965c1170e12a9CE6A4494b9063c563c4ed906105a0907f0000000000000000000000000000000000000000000000000000000000000000907f00000000000000000000000000000000000000000000000000000000000000009086908a908a908a90600401612632565b610c9a611180565b6040516329493f7960e01b8152339073B9A432427F9b46FA30965c1170e12a9CE6A4494b906329493f7990610d1b907f0000000000000000000000000000000000000000000000000000000000000000907f000000000000000000000000000000000000000000000000000000000000000090869089908990600401612eeb565b60006040518083038186803b158015610d3357600080fd5b505af4158015610d47573d6000803e3d6000fd5b50505050506106266001600055565b610d5e611180565b610d67826111d9565b61061c7f00000000000000000000000000000000000000000000000000000000000000008383611900565b6060816001600160401b03811115610dac57610dac612ac1565b604051908082528060200260200182016040528015610ddf57816020015b6060815260200190600190039081610dca5790505b50905060005b82811015610ea95760008030868685818110610e0357610e03612f1e565b9050602002810190610e159190612f34565b604051610e23929190612f7a565b600060405180830381855af49150503d8060008114610e5e576040519150601f19603f3d011682016040523d82523d6000602084013e610e63565b606091505b509150915081610e7657610e7681611983565b80848481518110610e8957610e89612f1e565b602002602001018190525050508080610ea190612fa0565b915050610de5565b5092915050565b610eb8611180565b604051630c2b894360e01b8152339073B9A432427F9b46FA30965c1170e12a9CE6A4494b90630c2b894390610d1b907f0000000000000000000000000000000000000000000000000000000000000000907f000000000000000000000000000000000000000000000000000000000000000090869089908990600401612eeb565b610f41611180565b60005a90506000734926F2ea7B3759ea675D9BA2659CEe14a5A1D57c63fdfc26f37f00000000000000000000000000000000000000000000000000000000000000008b6040518363ffffffff1660e01b8152600401610fa1929190612aa8565b600060405180830381865af4158015610fbe573d6000803e3d6000fd5b505050506040513d6000823e601f3d908101601f19168201604052610fe69190810190612d90565b90506000610ff382515190565b6001600160a01b03160361101a57604051631630779760e01b815260040160405180910390fd5b611026610b5d82515190565b6001600160a01b037f00000000000000000000000000000000000000000000000000000000000000001663a9db59a78a8a8a8a8a8a8a89600061106b82516060015190565b6001600160a01b031614156040518a63ffffffff1660e01b815260040161109a999897969594939291906130a9565b600060405180830381600087803b1580156110b457600080fd5b505af11580156110c8573d6000803e3d6000fd5b505050506110d8610bf282515190565b50506110e46001600055565b50505050505050565b6110f5611180565b6110fe826111d9565b6040516303704f0f60e31b815233906001600160a01b037f00000000000000000000000000000000000000000000000000000000000000001690631b82787890611152908790859088908890600401612722565b600060405180830381600087803b15801561116c57600080fd5b505af11580156105cc573d6000803e3d6000fd5b6002600054036111d25760405162461bcd60e51b815260206004820152601f60248201527f5265656e7472616e637947756172643a207265656e7472616e742063616c6c006044820152606401610145565b6002600055565b6001600160a01b0381166105125760405163d551823d60e01b815260040160405180910390fd5b8060000361120d57505050565b611216826111d9565b6000836001600160a01b031663bd02d0f560405160200161123690613217565b604051602081830303815290604052805190602001206040518263ffffffff1660e01b815260040161126a91815260200190565b602060405180830381865afa158015611287573d6000803e3d6000fd5b505050506040513d601f19601f820116820180604052508101906112ab9190612a8f565b90506000806000806000868887f1905080156112c8575050505050565b6112d3858585611900565b5050505050565b61130c7f0000000000000000000000000000000000000000000000000000000000000000611307306119bc565b611a47565b60405163f7b4e61960e01b8152339073B9A432427F9b46FA30965c1170e12a9CE6A4494b9063f7b4e61990611369907f0000000000000000000000000000000000000000000000000000000000000000908790869060040161324e565b60006040518083038186803b15801561138157600080fd5b505af4158015611395573d6000803e3d6000fd5b5050604051631bbb493d60e31b815273B9A432427F9b46FA30965c1170e12a9CE6A4494b925063ddda49e8915061141b907f0000000000000000000000000000000000000000000000000000000000000000907f000000000000000000000000000000000000000000000000000000000000000090889087908990600190600401612632565b60006040518083038186803b15801561143357600080fd5b505af41580156110e4573d6000803e3d6000fd5b6040516307e9068160e31b815260009073B9A432427F9b46FA30965c1170e12a9CE6A4494b90633f483408906114a5907f0000000000000000000000000000000000000000000000000000000000000000908990899060040161324e565b602060405180830381865af41580156114c2573d6000803e3d6000fd5b505050506040513d601f19601f820116820180604052508101906114e69190612a8f565b9050806000036114f657506118fa565b60007f00000000000000000000000000000000000000000000000000000000000000006001600160a01b03166321f8a721604051602001611536906125c2565b604051602081830303815290604052805190602001206040518263ffffffff1660e01b815260040161156a91815260200190565b602060405180830381865afa158015611587573d6000803e3d6000fd5b505050506040513d601f19601f820116820180604052508101906115ab91906125ea565b905081816001600160a01b031663dd62ed3e887f00000000000000000000000000000000000000000000000000000000000000006040518363ffffffff1660e01b81526004016115fc9291906126bd565b602060405180830381865afa158015611619573d6000803e3d6000fd5b505050506040513d601f19601f8201168201806040525081019061163d9190612a8f565b101561164a5750506118fa565b6040516370a0823160e01b815282906001600160a01b038316906370a0823190611678908a906004016122bb565b602060405180830381865afa158015611695573d6000803e3d6000fd5b505050506040513d601f19601f820116820180604052508101906116b99190612a8f565b10156116c65750506118fa565b6000833a5a6116d59088613271565b6116df9190613284565b6116e9919061329b565b9050828110156116f7578092505b6040516303704f0f60e31b81526001600160a01b037f00000000000000000000000000000000000000000000000000000000000000001690631b827878906117499085908b9030908990600401612722565b600060405180830381600087803b15801561176357600080fd5b505af1158015611777573d6000803e3d6000fd5b505050506117a77f0000000000000000000000000000000000000000000000000000000000000000838886611a72565b6117af6121bd565b80516117bc906002611ba0565b6040805180820190915260078152661858d8dbdd5b9d60ca1b602082015281516117e9916000908b611c05565b60408051808201909152600a8152691cdd589858d8dbdd5b9d60b21b60208201528151611819916001908a611c05565b6020810151611829906001611ba0565b611863600060405180604001604052806006815260200165185b5bdd5b9d60d21b815250868460200151611c62909392919063ffffffff16565b7f00000000000000000000000000000000000000000000000000000000000000006001600160a01b03166363d1636361189b8a611cb5565b6118a48a611cb5565b846040518463ffffffff1660e01b81526004016118c393929190613ab1565b600060405180830381600087803b1580156118dd57600080fd5b505af11580156118f1573d6000803e3d6000fd5b50505050505050505b50505050565b8060000361190d57505050565b611916826111d9565b6000611921846103b5565b9050806001600160a01b031663d0e30db0836040518263ffffffff1660e01b81526004016000604051808303818588803b15801561195e57600080fd5b505af1158015611972573d6000803e3d6000fd5b50505050506118fa84828585611cc1565b60008061198f83611f0b565b9150915080156119b3578160405162461bcd60e51b81526004016101459190613bc4565b6105db83611f9b565b60006040516020016119fd906020808252601b908201527a14d5509050d0d3d5539517d191505515549157d11254d050931151602a1b604082015260600190565b60408051601f198184030181528282528051602091820120908301526001600160a01b03841690820152606001604051602081830303815290604052805190602001209050919050565b611a518282611fa4565b156106265760405163dd70e0c960e01b815260048101829052602401610145565b80156118fa57611a81826111d9565b604051632e1a7d4d60e01b8152600481018290526001600160a01b03841690632e1a7d4d90602401600060405180830381600087803b158015611ac357600080fd5b505af1158015611ad7573d6000803e3d6000fd5b505050506000846001600160a01b031663bd02d0f5604051602001611afb90613217565b604051602081830303815290604052805190602001206040518263ffffffff1660e01b8152600401611b2f91815260200190565b602060405180830381865afa158015611b4c573d6000803e3d6000fd5b505050506040513d601f19601f82011682018060405250810190611b709190612a8f565b90506000806000806000868887f190508015611b8d5750506118fa565b611b98868585611900565b505050505050565b806001600160401b03811115611bb857611bb8612ac1565b604051908082528060200260200182016040528015611bfe57816020015b604080518082019091526060815260006020820152815260200190600190039081611bd65790505b5090915250565b8184600001518481518110611c1c57611c1c612f1e565b6020026020010151600001819052508084600001518481518110611c4257611c42612f1e565b6020908102919091018101516001600160a01b0390921691015250505050565b8184600001518481518110611c7957611c79612f1e565b6020026020010151600001819052508084600001518481518110611c9f57611c9f612f1e565b6020026020010151602001818152505050505050565b6001600160a01b031690565b80156118fa57611cd0826111d9565b6000846001600160a01b031663bd02d0f5611cea86612017565b6040518263ffffffff1660e01b8152600401611d0891815260200190565b602060405180830381865afa158015611d25573d6000803e3d6000fd5b505050506040513d601f19601f82011682018060405250810190611d499190612a8f565b905080600003611d6e5783604051634fe14bfd60e11b815260040161014591906122bb565b6000611d7c85858585612055565b5090508015611d8c5750506118fa565b6000866001600160a01b03166321f8a721604051602001611dd0906020808252600f908201526e484f4c44494e475f4144445245535360881b604082015260600190565b604051602081830303815290604052805190602001206040518263ffffffff1660e01b8152600401611e0491815260200190565b602060405180830381865afa158015611e21573d6000803e3d6000fd5b505050506040513d601f19601f82011682018060405250810190611e4591906125ea565b90506001600160a01b038116611e6e57604051633a6de2f560e21b815260040160405180910390fd5b600080611e7d88848888612055565b915091508115611e915750505050506118fa565b6000611e9c82611f0b565b5090507fc9f14d9a0a9b46470c7c0b6c508f8283abaab7f795f153953c58cd4250824dae8183604051611ed0929190613bd7565b60405180910390a160405163012f3b8f60e71b81526001600160a01b03808b1660048301528916602482015260448101889052606401610145565b60606000604483511015611f32575050604080516020810190915260008082529092909150565b6000611f3f846020015190565b90506307b9e43360e51b6001600160e01b0319821601611f7e5760048401935083806020019051810190611f739190613bfc565b946001945092505050565b600060405180602001604052806000815250909250925050915091565b80518060208301fd5b604051633d70e7e560e11b8152600481018290526000906001600160a01b03841690637ae1cfca90602401602060405180830381865afa158015611fec573d6000803e3d6000fd5b505050506040513d601f19601f820116820180604052508101906120109190613c8f565b9392505050565b60006040516020016119fd906020808252601890820152771513d2d15397d514905394d1915497d1d054d7d31253525560421b604082015260600190565b60006060600063a9059cbb60e01b8686604051602401612076929190612aa8565b604051602081830303815290604052906001600160e01b0319166020820180516001600160e01b0383818316178352505050509050600080886001600160a01b031686846040516120c79190613cac565b60006040518083038160008787f1925050503d8060008114612105576040519150601f19603f3d011682016040523d82523d6000602084013e61210a565b606091505b509150915081156121ab578051600003612168576001600160a01b0389163b6121685760006040518060400160405280601481526020017310d85b1b081d1bc81b9bdb8b58dbdb9d1c9858dd60621b815250945094505050506121b4565b6000815111801561218a5750808060200190518101906121889190613c8f565b155b1561219d576000945092506121b4915050565b6001945092506121b4915050565b60009450925050505b94509492505050565b604080516101208101909152606060e08201818152610100830191909152819081526020016121ff604051806040016040528060608152602001606081525090565b8152602001612221604051806040016040528060608152602001606081525090565b8152602001612243604051806040016040528060608152602001606081525090565b8152602001612265604051806040016040528060608152602001606081525090565b8152602001612287604051806040016040528060608152602001606081525090565b81526020016122a9604051806040016040528060608152602001606081525090565b905290565b6001600160a01b03169052565b6001600160a01b0391909116815260200190565b6001600160a01b038116811461051257600080fd5b80356122ef816122cf565b919050565b60006020828403121561230657600080fd5b8135612010816122cf565b60008060006060848603121561232657600080fd5b8335612331816122cf565b95602085013595506040909401359392505050565b6000806040838503121561235957600080fd5b8235612364816122cf565b946020939093013593505050565b6000806040838503121561238557600080fd5b8235612390816122cf565b915060208301356001600160401b038111156123ab57600080fd5b830161020081860312156123be57600080fd5b809150509250929050565b6000602082840312156123db57600080fd5b5035919050565b600080602083850312156123f557600080fd5b82356001600160401b038082111561240c57600080fd5b818501915085601f83011261242057600080fd5b81358181111561242f57600080fd5b8660208260051b850101111561244457600080fd5b60209290920196919550909350505050565b60005b83811015612471578181015183820152602001612459565b50506000910152565b60008151808452612492816020860160208601612456565b601f01601f19169290920160200192915050565b6000602080830181845280855180835260408601915060408160051b870101925083870160005b828110156124fb57603f198886030184526124e985835161247a565b945092850192908501906001016124cd565b5092979650505050505050565b801515811461051257600080fd5b80356122ef81612508565b600080600080600080600060e0888a03121561253c57600080fd5b873596506020880135955060408801359450606088013593506080880135925060a0880135915060c088013561257181612508565b8091505092959891949750929550565b60008060006060848603121561259657600080fd5b83356125a1816122cf565b925060208401356125b1816122cf565b929592945050506040919091013590565b60208082526003908201526215d39560ea1b604082015260600190565b80516122ef816122cf565b6000602082840312156125fc57600080fd5b8151612010816122cf565b6001600160a01b03948516815292841660208401529083166040830152909116606082015260800190565b6001600160a01b0396871681529486166020860152928516604085015293166060830152608082019290925260a081019190915260c00190565b60208082526017908201527629aaa120a1a1a7aaa72a2fa7a92222a92fa0a1aa24a7a760491b604082015260600190565b6000823560de198336030181126126b357600080fd5b9190910192915050565b6001600160a01b0392831681529116602082015260400190565b634e487b7160e01b600052602160045260246000fd5b6009811061051257600080fd5b80356122ef816126ed565b60006020828403121561271757600080fd5b8135612010816126ed565b6001600160a01b039485168152928416602084015292166040820152606081019190915260800190565b6000823560de1983360301811261276257600080fd5b90910192915050565b6000808335601e1984360301811261278257600080fd5b83016020810192503590506001600160401b038111156127a157600080fd5b8060051b36038213156127b357600080fd5b9250929050565b8183526000602080850194508260005b858110156127f85781356127dd816122cf565b6001600160a01b0316875295820195908201906001016127ca565b509495945050505050565b60008135612810816122cf565b6001600160a01b03908116845260208301359061282c826122cf565b9081166020850152604083013590612843826122cf565b908116604085015260608301359061285a826122cf565b9081166060850152608083013590612871826122cf565b16608084015261288360a083016122e4565b61289060a08501826122ae565b5061289e60c083018361276b565b60e060c08601526128b360e0860182846127ba565b95945050505050565b600981106128cc576128cc6126d7565b9052565b6003811061051257600080fd5b80356122ef816128d0565b600381106128cc576128cc6126d7565b81835260006001600160fb1b0383111561291157600080fd5b8260051b80836020870137939093016020019392505050565b6001600160a01b038516815260208101849052608060408201526000612950848061274c565b610200806080850152612967610280850183612803565b91506129c260a0850160208801803582526020810135602083015260408101356040830152606081013560608301526080810135608083015260a081013560a083015260c081013560c083015260e081013560e08301525050565b6129cf61012087016126fa565b6101a06129de818701836128bc565b6129eb61014089016128dd565b91506101c06129fc818801846128e8565b612a096101608a01612516565b92506101e0612a1b8189018515159052565b612a286101808b01612516565b801515898701529350612a3c838b01612516565b8015156102208a01529450818a0135610240890152612a5d818b018b61276b565b95509350505050607f1985840301610260860152612a7c8383836128f8565b93505050506128b3606083018415159052565b600060208284031215612aa157600080fd5b5051919050565b6001600160a01b03929092168252602082015260400190565b634e487b7160e01b600052604160045260246000fd5b60405161018081016001600160401b0381118282101715612afa57612afa612ac1565b60405290565b604051608081016001600160401b0381118282101715612afa57612afa612ac1565b60405161010081016001600160401b0381118282101715612afa57612afa612ac1565b604051601f8201601f191681016001600160401b0381118282101715612b6d57612b6d612ac1565b604052919050565b60006001600160401b03821115612b8e57612b8e612ac1565b5060051b60200190565b600082601f830112612ba957600080fd5b81516020612bbe612bb983612b75565b612b45565b82815260059290921b84018101918181019086841115612bdd57600080fd5b8286015b84811015612c01578051612bf4816122cf565b8352918301918301612be1565b509695505050505050565b80516122ef816126ed565b80516122ef816128d0565b60006101808284031215612c3557600080fd5b612c3d612ad7565b9050612c4882612c0c565b8152612c5660208301612c17565b602082015260408201516040820152606082015160608201526080820151608082015260a082015160a082015260c082015160c082015260e082015160e082015261010080830151818301525061012080830151818301525061014080830151818301525061016080830151818301525092915050565b600060808284031215612cdf57600080fd5b612ce7612b00565b90508151612cf481612508565b81526020820151612d0481612508565b60208201526040820151612d1781612508565b60408201526060820151612d2a81612508565b606082015292915050565b600082601f830112612d4657600080fd5b81516020612d56612bb983612b75565b82815260059290921b84018101918181019086841115612d7557600080fd5b8286015b84811015612c015780518352918301918301612d79565b600060208284031215612da257600080fd5b81516001600160401b0380821115612db957600080fd5b908301906102408286031215612dce57600080fd5b612dd6612b00565b825182811115612de557600080fd5b83016101008188031215612df857600080fd5b612e00612b22565b612e09826125df565b8152612e17602083016125df565b6020820152612e28604083016125df565b6040820152612e39606083016125df565b6060820152612e4a608083016125df565b6080820152612e5b60a083016125df565b60a0820152612e6c60c083016125df565b60c082015260e082015184811115612e8357600080fd5b612e8f89828501612b98565b60e083015250825250612ea58660208501612c22565b6020820152612eb8866101a08501612ccd565b604082015261022083015182811115612ed057600080fd5b612edc87828601612d35565b60608301525095945050505050565b6001600160a01b039586168152938516602085015291841660408401529092166060820152608081019190915260a00190565b634e487b7160e01b600052603260045260246000fd5b6000808335601e19843603018112612f4b57600080fd5b8301803591506001600160401b03821115612f6557600080fd5b6020019150368190038213156127b357600080fd5b8183823760009101908152919050565b634e487b7160e01b600052601160045260246000fd5b600060018201612fb257612fb2612f8a565b5060010190565b600081518084526020808501945080840160005b838110156127f85781516001600160a01b031687529582019590820190600101612fcd565b612ffd8282516128bc565b602081015161300f60208401826128e8565b5060408181015190830152606080820151908301526080808201519083015260a0808201519083015260c0808201519083015260e0808201519083015261010080820151908301526101208082015190830152610140808201519083015261016090810151910152565b600081518084526020808501945080840160005b838110156127f85781518752958201959082019060010161308d565b60006101208b83528a60208401528960408401528860608401528760808401528660a084015285151560c08401528060e084015284516102408285015260018060a01b03915081815116610360850152816020820151166103808501526040810151915061311b6103a08501836122ae565b606081015191506131306103c08501836122ae565b608081015191506131456103e08501836122ae565b60a0810151915061315a6104008501836122ae565b60c0810151915061316f6104208501836122ae565b60e08101519150506101008061044085015261318f610460850183612fb9565b915060208601516131a4610140860182612ff2565b50604086810151805115156102c0870152602081015115156102e0870152908101511515610300860152606090810151151561032086015286015161011f19858403016103408601526131f78382613079565b9350506132078185018615159052565b50509a9950505050505050505050565b6020808252601f908201527f4e41544956455f544f4b454e5f5452414e534645525f4741535f4c494d495400604082015260600190565b6001600160a01b0393841681529183166020830152909116604082015260600190565b8181038181111561044a5761044a612f8a565b808202811582820484141761044a5761044a612f8a565b8082018082111561044a5761044a612f8a565b600081518084526020808501808196508360051b8101915082860160005b8581101561331c5782840389528151604081518187526132ee8288018261247a565b915050868201519150858103878701526133088183612fb9565b9a87019a95505050908401906001016132cc565b5091979650505050505050565b60006040808401835182865281815180845260608801915060608160051b89010193506020808401935060005b828110156133a057898603605f190184528451805188885261337a8989018261247a565b918401516001600160a01b03169784019790975295509381019392810192600101613356565b50808801519550888503818a0152505050506128b381836132ae565b600081518084526020808501808196508360051b810191508286016000805b8681101561344e578385038a528251604081518188526133fd8289018261247a565b92890151888403898b01528051808552908a01938693508a0191505b808310156134395783518252928901926001929092019190890190613419565b509b88019b96505050918501916001016133db565b509298975050505050505050565b60006040808401835182865281815180845260608801915060608160051b89010193506020808401935060005b828110156134ca57898603605f19018452845180518888526134ad8989018261247a565b918401519784019790975295509381019392810192600101613489565b50808801519550888503818a0152505050506128b381836133bc565b600081518084526020808501808196508360051b810191508286016000805b8681101561344e578385038a528251604081518188526135278289018261247a565b92890151888403898b01528051808552908a01938693508a0191505b808310156135635783518252928901926001929092019190890190613543565b509b88019b9650505091850191600101613505565b60006040808401835182865281815180845260608801915060608160051b89010193506020808401935060005b828110156135e657898603605f19018452845180518888526135c98989018261247a565b9184015197840197909752955093810193928101926001016135a5565b50808801519550888503818a0152505050506128b381836134e6565b600081518084526020808501808196508360051b810191508286016000805b8681101561344e578385038a528251604081518188526136438289018261247a565b92890151888403898b01528051808552908a01938693508a0191505b808310156136815783511515825292890192600192909201919089019061365f565b509b88019b9650505091850191600101613621565b60006040808401835182865281815180845260608801915060608160051b89010193506020808401935060005b8281101561370657898603605f19018452845180518888526136e78989018261247a565b91840151151597840197909752955093810193928101926001016136c3565b50808801519550888503818a0152505050506128b38183613602565b600081518084526020808501808196508360051b8101915082860160005b8581101561331c5782840389528151604081518187526137628288018261247a565b9150508682015191508581038787015261377c8183613079565b9a87019a9550505090840190600101613740565b60006040808401835182865281815180845260608801915060608160051b89010193506020808401935060005b828110156137fe57898603605f19018452845180518888526137e18989018261247a565b9184015197840197909752955093810193928101926001016137bd565b50808801519550888503818a0152505050506128b38183613722565b600081518084526020808501808196506005915083821b81018387016000805b878110156138c5578484038b5282516040815181875261385c8288018261247a565b928a0151878403888c01528051808552908b019392508a83019150808a1b83018b01865b828110156138ae57601f1985830301845261389c82875161247a565b958d0195938d01939150600101613880565b509e8b019e9750505093880193505060010161383a565b50919998505050505050505050565b60006040808401835182865281815180845260608801915060608160051b89010193506020808401935060005b8281101561395157898603605f19018452845180518888526139258989018261247a565b918401518883038986015291905061393d818361247a565b975050509381019392810192600101613901565b50808801519550888503818a0152505050506128b3818361381a565b600081518084526020808501808196506005915083821b81018387016000805b878110156138c5578484038b528251604081518187526139af8288018261247a565b928a0151878403888c01528051808552908b019392508a83019150808a1b83018b01865b82811015613a0157601f198583030184526139ef82875161247a565b958d0195938d019391506001016139d3565b509e8b019e9750505093880193505060010161398d565b60006040808401835182865281815180845260608801915060608160051b89010193506020808401935060005b82811015613a9557898603605f1901845284518051888852613a698989018261247a565b9184015188830389860152919050613a81818361247a565b975050509381019392810192600101613a45565b50808801519550888503818a0152505050506128b3818361396d565b60808152601360808201527205375626163636f756e744175746f546f70557606c1b60a082015283602082015282604082015260c060608201526000825160e060c0840152613b046101a0840182613329565b9050602084015160bf19808584030160e0860152613b22838361345c565b9250604086015191508085840301610100860152613b408383613578565b9250606086015191508085840301610120860152613b5e8383613696565b9250608086015191508085840301610140860152613b7c8383613790565b925060a086015191508085840301610160860152613b9a83836138d4565b925060c08601519150808584030161018086015250613bb98282613a18565b979650505050505050565b602081526000612010602083018461247a565b604081526000613bea604083018561247a565b82810360208401526128b3818561247a565b600060208284031215613c0e57600080fd5b81516001600160401b0380821115613c2557600080fd5b818401915084601f830112613c3957600080fd5b815181811115613c4b57613c4b612ac1565b613c5e601f8201601f1916602001612b45565b9150808252856020828501011115613c7557600080fd5b613c86816020840160208601612456565b50949350505050565b600060208284031215613ca157600080fd5b815161201081612508565b600082516126b381846020870161245656fea26469706673582212202d4773f0246092ff91123f4fdb20d756fe7720d9cca6d76e394c9d8facaaf03764736f6c63430008140033",
  "deployedBytecode": "0x6080604052600436106100e85760003560e01c80633914f217146101555780633e46b365146101685780634a4a7b041461017b57806353ead2d3146101c5578063660d0d67146101d857806369b605c51461020c578063712182eb1461022d5780637489ec231461024057806378a61fa21461025357806379a358a2146102665780637d39aaf11461027957806393845e461461028c5780639ff78c30146102c0578063ac9650d8146102f4578063b584830514610314578063d1bfe05114610348578063dd5baad21461035b578063e6d66ac81461036e578063f887ea401461038157600080fd5b366101505760006101187f00000000000000000000000000000000000000000000000000000000000000006103b5565b9050336001600160a01b0382161461014e573360405163738d28df60e11b815260040161014591906122bb565b60405180910390fd5b005b600080fd5b61014e6101633660046122f4565b610450565b61014e610176366004612311565b610515565b34801561018757600080fd5b506101af7f000000000000000000000000000000000000000000000000000000000000000081565b6040516101bc91906122bb565b60405180910390f35b61014e6101d3366004612346565b6105e0565b3480156101e457600080fd5b506101af7f000000000000000000000000000000000000000000000000000000000000000081565b61021f61021a366004612372565b61062a565b6040519081526020016101bc565b61014e61023b3660046122f4565b6109e9565b61014e61024e3660046123c9565b610a70565b61014e610261366004612311565b610c07565b61014e610274366004612346565b610c92565b61014e610287366004612346565b610d56565b34801561029857600080fd5b506101af7f000000000000000000000000000000000000000000000000000000000000000081565b3480156102cc57600080fd5b506101af7f000000000000000000000000000000000000000000000000000000000000000081565b6103076103023660046123e2565b610d92565b6040516101bc91906124a6565b34801561032057600080fd5b506101af7f000000000000000000000000000000000000000000000000000000000000000081565b61014e610356366004612346565b610eb0565b61014e610369366004612521565b610f39565b61014e61037c366004612581565b6110ed565b34801561038d57600080fd5b506101af7f000000000000000000000000000000000000000000000000000000000000000081565b6000816001600160a01b03166321f8a7216040516020016103d5906125c2565b604051602081830303815290604052805190602001206040518263ffffffff1660e01b815260040161040991815260200190565b602060405180830381865afa158015610426573d6000803e3d6000fd5b505050506040513d601f19601f8201168201806040525081019061044a91906125ea565b92915050565b610458611180565b604051631638cf3360e31b8152339073__$cd9cbb3e1d35f471855f1a1916300c2072$__9063b1c67998906104d7907f0000000000000000000000000000000000000000000000000000000000000000907f00000000000000000000000000000000000000000000000000000000000000009086908890600401612607565b60006040518083038186803b1580156104ef57600080fd5b505af4158015610503573d6000803e3d6000fd5b50505050506105126001600055565b50565b61051d611180565b604051636583220d60e11b8152339073__$cd9cbb3e1d35f471855f1a1916300c2072$__9063cb06441a906105a0907f0000000000000000000000000000000000000000000000000000000000000000907f00000000000000000000000000000000000000000000000000000000000000009086908a908a908a90600401612632565b60006040518083038186803b1580156105b857600080fd5b505af41580156105cc573d6000803e3d6000fd5b50505050506105db6001600055565b505050565b6105e8611180565b6105f1826111d9565b61061c7f00000000000000000000000000000000000000000000000000000000000000008383611200565b6106266001600055565b5050565b6000610634611180565b60005a90506106678460405160200161064c9061266c565b604051602081830303815290604052805190602001206112da565b6001600160a01b03841661067b848061269d565b6106899060208101906122f4565b6001600160a01b0316146106cb576106a1838061269d565b6106af9060208101906122f4565b846040516325d55c0b60e11b81526004016101459291906126bd565b60006106d7848061269d565b6106e89060408101906020016122f4565b6001600160a01b03161415801561072b57506001600160a01b03841661070e848061269d565b61071f9060408101906020016122f4565b6001600160a01b031614155b156107675761073a838061269d565b61074b9060408101906020016122f4565b8460405163225cd96160e21b81526004016101459291906126bd565b600061077b61014085016101208601612705565b600881111561078c5761078c6126d7565b14806107ba575060016107a761014085016101208601612705565b60088111156107b8576107b86126d7565b145b806107e7575060026107d461014085016101208601612705565b60088111156107e5576107e56126d7565b145b806108145750600361080161014085016101208601612705565b6008811115610812576108126126d7565b145b806108415750600861082e61014085016101208601612705565b600881111561083f5761083f6126d7565b145b1561090d576001600160a01b037f000000000000000000000000000000000000000000000000000000000000000016631b82787861087f858061269d565b6108909060c081019060a0016122f4565b604080516001600160e01b031960e085901b1681526108da929189917f0000000000000000000000000000000000000000000000000000000000000000918a013590600401612722565b600060405180830381600087803b1580156108f457600080fd5b505af1158015610908573d6000803e3d6000fd5b505050505b60006001600160a01b037f00000000000000000000000000000000000000000000000000000000000000001663c6561b458683878161094c828061269d565b61095d9060608101906040016122f4565b6001600160a01b031614156040518563ffffffff1660e01b8152600401610987949392919061292a565b6020604051808303816000875af11580156109a6573d6000803e3d6000fd5b505050506040513d601f19601f820116820180604052508101906109ca9190612a8f565b90506109dc85338460a0880135611447565b91505061044a6001600055565b6109f1611180565b6040516331afcdf360e21b8152339073__$cd9cbb3e1d35f471855f1a1916300c2072$__9063c6bf37cc906104d7907f0000000000000000000000000000000000000000000000000000000000000000907f00000000000000000000000000000000000000000000000000000000000000009086908890600401612607565b610a78611180565b60005a9050600073__$9dcb75ef0bb6c4288f2ccffe7dc492c4eb$__63fdfc26f37f0000000000000000000000000000000000000000000000000000000000000000856040518363ffffffff1660e01b8152600401610ad8929190612aa8565b600060405180830381865af4158015610af5573d6000803e3d6000fd5b505050506040513d6000823e601f3d908101601f19168201604052610b1d9190810190612d90565b90506000610b2a82515190565b6001600160a01b031603610b5157604051631630779760e01b815260040160405180910390fd5b610b6c610b5d82515190565b60405160200161064c9061266c565b604051637489ec2360e01b8152600481018490527f00000000000000000000000000000000000000000000000000000000000000006001600160a01b031690637489ec2390602401600060405180830381600087803b158015610bce57600080fd5b505af1158015610be2573d6000803e3d6000fd5b50505050610bfb610bf282515190565b33846000611447565b50506105126001600055565b610c0f611180565b60405163c563c4ed60e01b8152339073__$cd9cbb3e1d35f471855f1a1916300c2072$__9063c563c4ed906105a0907f0000000000000000000000000000000000000000000000000000000000000000907f00000000000000000000000000000000000000000000000000000000000000009086908a908a908a90600401612632565b610c9a611180565b6040516329493f7960e01b8152339073__$cd9cbb3e1d35f471855f1a1916300c2072$__906329493f7990610d1b907f0000000000000000000000000000000000000000000000000000000000000000907f000000000000000000000000000000000000000000000000000000000000000090869089908990600401612eeb565b60006040518083038186803b158015610d3357600080fd5b505af4158015610d47573d6000803e3d6000fd5b50505050506106266001600055565b610d5e611180565b610d67826111d9565b61061c7f00000000000000000000000000000000000000000000000000000000000000008383611900565b6060816001600160401b03811115610dac57610dac612ac1565b604051908082528060200260200182016040528015610ddf57816020015b6060815260200190600190039081610dca5790505b50905060005b82811015610ea95760008030868685818110610e0357610e03612f1e565b9050602002810190610e159190612f34565b604051610e23929190612f7a565b600060405180830381855af49150503d8060008114610e5e576040519150601f19603f3d011682016040523d82523d6000602084013e610e63565b606091505b509150915081610e7657610e7681611983565b80848481518110610e8957610e89612f1e565b602002602001018190525050508080610ea190612fa0565b915050610de5565b5092915050565b610eb8611180565b604051630c2b894360e01b8152339073__$cd9cbb3e1d35f471855f1a1916300c2072$__90630c2b894390610d1b907f0000000000000000000000000000000000000000000000000000000000000000907f000000000000000000000000000000000000000000000000000000000000000090869089908990600401612eeb565b610f41611180565b60005a9050600073__$9dcb75ef0bb6c4288f2ccffe7dc492c4eb$__63fdfc26f37f00000000000000000000000000000000000000000000000000000000000000008b6040518363ffffffff1660e01b8152600401610fa1929190612aa8565b600060405180830381865af4158015610fbe573d6000803e3d6000fd5b505050506040513d6000823e601f3d908101601f19168201604052610fe69190810190612d90565b90506000610ff382515190565b6001600160a01b03160361101a57604051631630779760e01b815260040160405180910390fd5b611026610b5d82515190565b6001600160a01b037f00000000000000000000000000000000000000000000000000000000000000001663a9db59a78a8a8a8a8a8a8a89600061106b82516060015190565b6001600160a01b031614156040518a63ffffffff1660e01b815260040161109a999897969594939291906130a9565b600060405180830381600087803b1580156110b457600080fd5b505af11580156110c8573d6000803e3d6000fd5b505050506110d8610bf282515190565b50506110e46001600055565b50505050505050565b6110f5611180565b6110fe826111d9565b6040516303704f0f60e31b815233906001600160a01b037f00000000000000000000000000000000000000000000000000000000000000001690631b82787890611152908790859088908890600401612722565b600060405180830381600087803b15801561116c57600080fd5b505af11580156105cc573d6000803e3d6000fd5b6002600054036111d25760405162461bcd60e51b815260206004820152601f60248201527f5265656e7472616e637947756172643a207265656e7472616e742063616c6c006044820152606401610145565b6002600055565b6001600160a01b0381166105125760405163d551823d60e01b815260040160405180910390fd5b8060000361120d57505050565b611216826111d9565b6000836001600160a01b031663bd02d0f560405160200161123690613217565b604051602081830303815290604052805190602001206040518263ffffffff1660e01b815260040161126a91815260200190565b602060405180830381865afa158015611287573d6000803e3d6000fd5b505050506040513d601f19601f820116820180604052508101906112ab9190612a8f565b90506000806000806000868887f1905080156112c8575050505050565b6112d3858585611900565b5050505050565b61130c7f0000000000000000000000000000000000000000000000000000000000000000611307306119bc565b611a47565b60405163f7b4e61960e01b8152339073__$cd9cbb3e1d35f471855f1a1916300c2072$__9063f7b4e61990611369907f0000000000000000000000000000000000000000000000000000000000000000908790869060040161324e565b60006040518083038186803b15801561138157600080fd5b505af4158015611395573d6000803e3d6000fd5b5050604051631bbb493d60e31b815273__$cd9cbb3e1d35f471855f1a1916300c2072$__925063ddda49e8915061141b907f0000000000000000000000000000000000000000000000000000000000000000907f000000000000000000000000000000000000000000000000000000000000000090889087908990600190600401612632565b60006040518083038186803b15801561143357600080fd5b505af41580156110e4573d6000803e3d6000fd5b6040516307e9068160e31b815260009073__$cd9cbb3e1d35f471855f1a1916300c2072$__90633f483408906114a5907f0000000000000000000000000000000000000000000000000000000000000000908990899060040161324e565b602060405180830381865af41580156114c2573d6000803e3d6000fd5b505050506040513d601f19601f820116820180604052508101906114e69190612a8f565b9050806000036114f657506118fa565b60007f00000000000000000000000000000000000000000000000000000000000000006001600160a01b03166321f8a721604051602001611536906125c2565b604051602081830303815290604052805190602001206040518263ffffffff1660e01b815260040161156a91815260200190565b602060405180830381865afa158015611587573d6000803e3d6000fd5b505050506040513d601f19601f820116820180604052508101906115ab91906125ea565b905081816001600160a01b031663dd62ed3e887f00000000000000000000000000000000000000000000000000000000000000006040518363ffffffff1660e01b81526004016115fc9291906126bd565b602060405180830381865afa158015611619573d6000803e3d6000fd5b505050506040513d601f19601f8201168201806040525081019061163d9190612a8f565b101561164a5750506118fa565b6040516370a0823160e01b815282906001600160a01b038316906370a0823190611678908a906004016122bb565b602060405180830381865afa158015611695573d6000803e3d6000fd5b505050506040513d601f19601f820116820180604052508101906116b99190612a8f565b10156116c65750506118fa565b6000833a5a6116d59088613271565b6116df9190613284565b6116e9919061329b565b9050828110156116f7578092505b6040516303704f0f60e31b81526001600160a01b037f00000000000000000000000000000000000000000000000000000000000000001690631b827878906117499085908b9030908990600401612722565b600060405180830381600087803b15801561176357600080fd5b505af1158015611777573d6000803e3d6000fd5b505050506117a77f0000000000000000000000000000000000000000000000000000000000000000838886611a72565b6117af6121bd565b80516117bc906002611ba0565b6040805180820190915260078152661858d8dbdd5b9d60ca1b602082015281516117e9916000908b611c05565b60408051808201909152600a8152691cdd589858d8dbdd5b9d60b21b60208201528151611819916001908a611c05565b6020810151611829906001611ba0565b611863600060405180604001604052806006815260200165185b5bdd5b9d60d21b815250868460200151611c62909392919063ffffffff16565b7f00000000000000000000000000000000000000000000000000000000000000006001600160a01b03166363d1636361189b8a611cb5565b6118a48a611cb5565b846040518463ffffffff1660e01b81526004016118c393929190613ab1565b600060405180830381600087803b1580156118dd57600080fd5b505af11580156118f1573d6000803e3d6000fd5b50505050505050505b50505050565b8060000361190d57505050565b611916826111d9565b6000611921846103b5565b9050806001600160a01b031663d0e30db0836040518263ffffffff1660e01b81526004016000604051808303818588803b15801561195e57600080fd5b505af1158015611972573d6000803e3d6000fd5b50505050506118fa84828585611cc1565b60008061198f83611f0b565b9150915080156119b3578160405162461bcd60e51b81526004016101459190613bc4565b6105db83611f9b565b60006040516020016119fd906020808252601b908201527a14d5509050d0d3d5539517d191505515549157d11254d050931151602a1b604082015260600190565b60408051601f198184030181528282528051602091820120908301526001600160a01b03841690820152606001604051602081830303815290604052805190602001209050919050565b611a518282611fa4565b156106265760405163dd70e0c960e01b815260048101829052602401610145565b80156118fa57611a81826111d9565b604051632e1a7d4d60e01b8152600481018290526001600160a01b03841690632e1a7d4d90602401600060405180830381600087803b158015611ac357600080fd5b505af1158015611ad7573d6000803e3d6000fd5b505050506000846001600160a01b031663bd02d0f5604051602001611afb90613217565b604051602081830303815290604052805190602001206040518263ffffffff1660e01b8152600401611b2f91815260200190565b602060405180830381865afa158015611b4c573d6000803e3d6000fd5b505050506040513d601f19601f82011682018060405250810190611b709190612a8f565b90506000806000806000868887f190508015611b8d5750506118fa565b611b98868585611900565b505050505050565b806001600160401b03811115611bb857611bb8612ac1565b604051908082528060200260200182016040528015611bfe57816020015b604080518082019091526060815260006020820152815260200190600190039081611bd65790505b5090915250565b8184600001518481518110611c1c57611c1c612f1e565b6020026020010151600001819052508084600001518481518110611c4257611c42612f1e565b6020908102919091018101516001600160a01b0390921691015250505050565b8184600001518481518110611c7957611c79612f1e565b6020026020010151600001819052508084600001518481518110611c9f57611c9f612f1e565b6020026020010151602001818152505050505050565b6001600160a01b031690565b80156118fa57611cd0826111d9565b6000846001600160a01b031663bd02d0f5611cea86612017565b6040518263ffffffff1660e01b8152600401611d0891815260200190565b602060405180830381865afa158015611d25573d6000803e3d6000fd5b505050506040513d601f19601f82011682018060405250810190611d499190612a8f565b905080600003611d6e5783604051634fe14bfd60e11b815260040161014591906122bb565b6000611d7c85858585612055565b5090508015611d8c5750506118fa565b6000866001600160a01b03166321f8a721604051602001611dd0906020808252600f908201526e484f4c44494e475f4144445245535360881b604082015260600190565b604051602081830303815290604052805190602001206040518263ffffffff1660e01b8152600401611e0491815260200190565b602060405180830381865afa158015611e21573d6000803e3d6000fd5b505050506040513d601f19601f82011682018060405250810190611e4591906125ea565b90506001600160a01b038116611e6e57604051633a6de2f560e21b815260040160405180910390fd5b600080611e7d88848888612055565b915091508115611e915750505050506118fa565b6000611e9c82611f0b565b5090507fc9f14d9a0a9b46470c7c0b6c508f8283abaab7f795f153953c58cd4250824dae8183604051611ed0929190613bd7565b60405180910390a160405163012f3b8f60e71b81526001600160a01b03808b1660048301528916602482015260448101889052606401610145565b60606000604483511015611f32575050604080516020810190915260008082529092909150565b6000611f3f846020015190565b90506307b9e43360e51b6001600160e01b0319821601611f7e5760048401935083806020019051810190611f739190613bfc565b946001945092505050565b600060405180602001604052806000815250909250925050915091565b80518060208301fd5b604051633d70e7e560e11b8152600481018290526000906001600160a01b03841690637ae1cfca90602401602060405180830381865afa158015611fec573d6000803e3d6000fd5b505050506040513d601f19601f820116820180604052508101906120109190613c8f565b9392505050565b60006040516020016119fd906020808252601890820152771513d2d15397d514905394d1915497d1d054d7d31253525560421b604082015260600190565b60006060600063a9059cbb60e01b8686604051602401612076929190612aa8565b604051602081830303815290604052906001600160e01b0319166020820180516001600160e01b0383818316178352505050509050600080886001600160a01b031686846040516120c79190613cac565b60006040518083038160008787f1925050503d8060008114612105576040519150601f19603f3d011682016040523d82523d6000602084013e61210a565b606091505b509150915081156121ab578051600003612168576001600160a01b0389163b6121685760006040518060400160405280601481526020017310d85b1b081d1bc81b9bdb8b58dbdb9d1c9858dd60621b815250945094505050506121b4565b6000815111801561218a5750808060200190518101906121889190613c8f565b155b1561219d576000945092506121b4915050565b6001945092506121b4915050565b60009450925050505b94509492505050565b604080516101208101909152606060e08201818152610100830191909152819081526020016121ff604051806040016040528060608152602001606081525090565b8152602001612221604051806040016040528060608152602001606081525090565b8152602001612243604051806040016040528060608152602001606081525090565b8152602001612265604051806040016040528060608152602001606081525090565b8152602001612287604051806040016040528060608152602001606081525090565b81526020016122a9604051806040016040528060608152602001606081525090565b905290565b6001600160a01b03169052565b6001600160a01b0391909116815260200190565b6001600160a01b038116811461051257600080fd5b80356122ef816122cf565b919050565b60006020828403121561230657600080fd5b8135612010816122cf565b60008060006060848603121561232657600080fd5b8335612331816122cf565b95602085013595506040909401359392505050565b6000806040838503121561235957600080fd5b8235612364816122cf565b946020939093013593505050565b6000806040838503121561238557600080fd5b8235612390816122cf565b915060208301356001600160401b038111156123ab57600080fd5b830161020081860312156123be57600080fd5b809150509250929050565b6000602082840312156123db57600080fd5b5035919050565b600080602083850312156123f557600080fd5b82356001600160401b038082111561240c57600080fd5b818501915085601f83011261242057600080fd5b81358181111561242f57600080fd5b8660208260051b850101111561244457600080fd5b60209290920196919550909350505050565b60005b83811015612471578181015183820152602001612459565b50506000910152565b60008151808452612492816020860160208601612456565b601f01601f19169290920160200192915050565b6000602080830181845280855180835260408601915060408160051b870101925083870160005b828110156124fb57603f198886030184526124e985835161247a565b945092850192908501906001016124cd565b5092979650505050505050565b801515811461051257600080fd5b80356122ef81612508565b600080600080600080600060e0888a03121561253c57600080fd5b873596506020880135955060408801359450606088013593506080880135925060a0880135915060c088013561257181612508565b8091505092959891949750929550565b60008060006060848603121561259657600080fd5b83356125a1816122cf565b925060208401356125b1816122cf565b929592945050506040919091013590565b60208082526003908201526215d39560ea1b604082015260600190565b80516122ef816122cf565b6000602082840312156125fc57600080fd5b8151612010816122cf565b6001600160a01b03948516815292841660208401529083166040830152909116606082015260800190565b6001600160a01b0396871681529486166020860152928516604085015293166060830152608082019290925260a081019190915260c00190565b60208082526017908201527629aaa120a1a1a7aaa72a2fa7a92222a92fa0a1aa24a7a760491b604082015260600190565b6000823560de198336030181126126b357600080fd5b9190910192915050565b6001600160a01b0392831681529116602082015260400190565b634e487b7160e01b600052602160045260246000fd5b6009811061051257600080fd5b80356122ef816126ed565b60006020828403121561271757600080fd5b8135612010816126ed565b6001600160a01b039485168152928416602084015292166040820152606081019190915260800190565b6000823560de1983360301811261276257600080fd5b90910192915050565b6000808335601e1984360301811261278257600080fd5b83016020810192503590506001600160401b038111156127a157600080fd5b8060051b36038213156127b357600080fd5b9250929050565b8183526000602080850194508260005b858110156127f85781356127dd816122cf565b6001600160a01b0316875295820195908201906001016127ca565b509495945050505050565b60008135612810816122cf565b6001600160a01b03908116845260208301359061282c826122cf565b9081166020850152604083013590612843826122cf565b908116604085015260608301359061285a826122cf565b9081166060850152608083013590612871826122cf565b16608084015261288360a083016122e4565b61289060a08501826122ae565b5061289e60c083018361276b565b60e060c08601526128b360e0860182846127ba565b95945050505050565b600981106128cc576128cc6126d7565b9052565b6003811061051257600080fd5b80356122ef816128d0565b600381106128cc576128cc6126d7565b81835260006001600160fb1b0383111561291157600080fd5b8260051b80836020870137939093016020019392505050565b6001600160a01b038516815260208101849052608060408201526000612950848061274c565b610200806080850152612967610280850183612803565b91506129c260a0850160208801803582526020810135602083015260408101356040830152606081013560608301526080810135608083015260a081013560a083015260c081013560c083015260e081013560e08301525050565b6129cf61012087016126fa565b6101a06129de818701836128bc565b6129eb61014089016128dd565b91506101c06129fc818801846128e8565b612a096101608a01612516565b92506101e0612a1b8189018515159052565b612a286101808b01612516565b801515898701529350612a3c838b01612516565b8015156102208a01529450818a0135610240890152612a5d818b018b61276b565b95509350505050607f1985840301610260860152612a7c8383836128f8565b93505050506128b3606083018415159052565b600060208284031215612aa157600080fd5b5051919050565b6001600160a01b03929092168252602082015260400190565b634e487b7160e01b600052604160045260246000fd5b60405161018081016001600160401b0381118282101715612afa57612afa612ac1565b60405290565b604051608081016001600160401b0381118282101715612afa57612afa612ac1565b60405161010081016001600160401b0381118282101715612afa57612afa612ac1565b604051601f8201601f191681016001600160401b0381118282101715612b6d57612b6d612ac1565b604052919050565b60006001600160401b03821115612b8e57612b8e612ac1565b5060051b60200190565b600082601f830112612ba957600080fd5b81516020612bbe612bb983612b75565b612b45565b82815260059290921b84018101918181019086841115612bdd57600080fd5b8286015b84811015612c01578051612bf4816122cf565b8352918301918301612be1565b509695505050505050565b80516122ef816126ed565b80516122ef816128d0565b60006101808284031215612c3557600080fd5b612c3d612ad7565b9050612c4882612c0c565b8152612c5660208301612c17565b602082015260408201516040820152606082015160608201526080820151608082015260a082015160a082015260c082015160c082015260e082015160e082015261010080830151818301525061012080830151818301525061014080830151818301525061016080830151818301525092915050565b600060808284031215612cdf57600080fd5b612ce7612b00565b90508151612cf481612508565b81526020820151612d0481612508565b60208201526040820151612d1781612508565b60408201526060820151612d2a81612508565b606082015292915050565b600082601f830112612d4657600080fd5b81516020612d56612bb983612b75565b82815260059290921b84018101918181019086841115612d7557600080fd5b8286015b84811015612c015780518352918301918301612d79565b600060208284031215612da257600080fd5b81516001600160401b0380821115612db957600080fd5b908301906102408286031215612dce57600080fd5b612dd6612b00565b825182811115612de557600080fd5b83016101008188031215612df857600080fd5b612e00612b22565b612e09826125df565b8152612e17602083016125df565b6020820152612e28604083016125df565b6040820152612e39606083016125df565b6060820152612e4a608083016125df565b6080820152612e5b60a083016125df565b60a0820152612e6c60c083016125df565b60c082015260e082015184811115612e8357600080fd5b612e8f89828501612b98565b60e083015250825250612ea58660208501612c22565b6020820152612eb8866101a08501612ccd565b604082015261022083015182811115612ed057600080fd5b612edc87828601612d35565b60608301525095945050505050565b6001600160a01b039586168152938516602085015291841660408401529092166060820152608081019190915260a00190565b634e487b7160e01b600052603260045260246000fd5b6000808335601e19843603018112612f4b57600080fd5b8301803591506001600160401b03821115612f6557600080fd5b6020019150368190038213156127b357600080fd5b8183823760009101908152919050565b634e487b7160e01b600052601160045260246000fd5b600060018201612fb257612fb2612f8a565b5060010190565b600081518084526020808501945080840160005b838110156127f85781516001600160a01b031687529582019590820190600101612fcd565b612ffd8282516128bc565b602081015161300f60208401826128e8565b5060408181015190830152606080820151908301526080808201519083015260a0808201519083015260c0808201519083015260e0808201519083015261010080820151908301526101208082015190830152610140808201519083015261016090810151910152565b600081518084526020808501945080840160005b838110156127f85781518752958201959082019060010161308d565b60006101208b83528a60208401528960408401528860608401528760808401528660a084015285151560c08401528060e084015284516102408285015260018060a01b03915081815116610360850152816020820151166103808501526040810151915061311b6103a08501836122ae565b606081015191506131306103c08501836122ae565b608081015191506131456103e08501836122ae565b60a0810151915061315a6104008501836122ae565b60c0810151915061316f6104208501836122ae565b60e08101519150506101008061044085015261318f610460850183612fb9565b915060208601516131a4610140860182612ff2565b50604086810151805115156102c0870152602081015115156102e0870152908101511515610300860152606090810151151561032086015286015161011f19858403016103408601526131f78382613079565b9350506132078185018615159052565b50509a9950505050505050505050565b6020808252601f908201527f4e41544956455f544f4b454e5f5452414e534645525f4741535f4c494d495400604082015260600190565b6001600160a01b0393841681529183166020830152909116604082015260600190565b8181038181111561044a5761044a612f8a565b808202811582820484141761044a5761044a612f8a565b8082018082111561044a5761044a612f8a565b600081518084526020808501808196508360051b8101915082860160005b8581101561331c5782840389528151604081518187526132ee8288018261247a565b915050868201519150858103878701526133088183612fb9565b9a87019a95505050908401906001016132cc565b5091979650505050505050565b60006040808401835182865281815180845260608801915060608160051b89010193506020808401935060005b828110156133a057898603605f190184528451805188885261337a8989018261247a565b918401516001600160a01b03169784019790975295509381019392810192600101613356565b50808801519550888503818a0152505050506128b381836132ae565b600081518084526020808501808196508360051b810191508286016000805b8681101561344e578385038a528251604081518188526133fd8289018261247a565b92890151888403898b01528051808552908a01938693508a0191505b808310156134395783518252928901926001929092019190890190613419565b509b88019b96505050918501916001016133db565b509298975050505050505050565b60006040808401835182865281815180845260608801915060608160051b89010193506020808401935060005b828110156134ca57898603605f19018452845180518888526134ad8989018261247a565b918401519784019790975295509381019392810192600101613489565b50808801519550888503818a0152505050506128b381836133bc565b600081518084526020808501808196508360051b810191508286016000805b8681101561344e578385038a528251604081518188526135278289018261247a565b92890151888403898b01528051808552908a01938693508a0191505b808310156135635783518252928901926001929092019190890190613543565b509b88019b9650505091850191600101613505565b60006040808401835182865281815180845260608801915060608160051b89010193506020808401935060005b828110156135e657898603605f19018452845180518888526135c98989018261247a565b9184015197840197909752955093810193928101926001016135a5565b50808801519550888503818a0152505050506128b381836134e6565b600081518084526020808501808196508360051b810191508286016000805b8681101561344e578385038a528251604081518188526136438289018261247a565b92890151888403898b01528051808552908a01938693508a0191505b808310156136815783511515825292890192600192909201919089019061365f565b509b88019b9650505091850191600101613621565b60006040808401835182865281815180845260608801915060608160051b89010193506020808401935060005b8281101561370657898603605f19018452845180518888526136e78989018261247a565b91840151151597840197909752955093810193928101926001016136c3565b50808801519550888503818a0152505050506128b38183613602565b600081518084526020808501808196508360051b8101915082860160005b8581101561331c5782840389528151604081518187526137628288018261247a565b9150508682015191508581038787015261377c8183613079565b9a87019a9550505090840190600101613740565b60006040808401835182865281815180845260608801915060608160051b89010193506020808401935060005b828110156137fe57898603605f19018452845180518888526137e18989018261247a565b9184015197840197909752955093810193928101926001016137bd565b50808801519550888503818a0152505050506128b38183613722565b600081518084526020808501808196506005915083821b81018387016000805b878110156138c5578484038b5282516040815181875261385c8288018261247a565b928a0151878403888c01528051808552908b019392508a83019150808a1b83018b01865b828110156138ae57601f1985830301845261389c82875161247a565b958d0195938d01939150600101613880565b509e8b019e9750505093880193505060010161383a565b50919998505050505050505050565b60006040808401835182865281815180845260608801915060608160051b89010193506020808401935060005b8281101561395157898603605f19018452845180518888526139258989018261247a565b918401518883038986015291905061393d818361247a565b975050509381019392810192600101613901565b50808801519550888503818a0152505050506128b3818361381a565b600081518084526020808501808196506005915083821b81018387016000805b878110156138c5578484038b528251604081518187526139af8288018261247a565b928a0151878403888c01528051808552908b019392508a83019150808a1b83018b01865b82811015613a0157601f198583030184526139ef82875161247a565b958d0195938d019391506001016139d3565b509e8b019e9750505093880193505060010161398d565b60006040808401835182865281815180845260608801915060608160051b89010193506020808401935060005b82811015613a9557898603605f1901845284518051888852613a698989018261247a565b9184015188830389860152919050613a81818361247a565b975050509381019392810192600101613a45565b50808801519550888503818a0152505050506128b3818361396d565b60808152601360808201527205375626163636f756e744175746f546f70557606c1b60a082015283602082015282604082015260c060608201526000825160e060c0840152613b046101a0840182613329565b9050602084015160bf19808584030160e0860152613b22838361345c565b9250604086015191508085840301610100860152613b408383613578565b9250606086015191508085840301610120860152613b5e8383613696565b9250608086015191508085840301610140860152613b7c8383613790565b925060a086015191508085840301610160860152613b9a83836138d4565b925060c08601519150808584030161018086015250613bb98282613a18565b979650505050505050565b602081526000612010602083018461247a565b604081526000613bea604083018561247a565b82810360208401526128b3818561247a565b600060208284031215613c0e57600080fd5b81516001600160401b0380821115613c2557600080fd5b818401915084601f830112613c3957600080fd5b815181811115613c4b57613c4b612ac1565b613c5e601f8201601f1916602001612b45565b9150808252856020828501011115613c7557600080fd5b613c86816020840160208601612456565b50949350505050565b600060208284031215613ca157600080fd5b815161201081612508565b600082516126b381846020870161245656fea26469706673582212202d4773f0246092ff91123f4fdb20d756fe7720d9cca6d76e394c9d8facaaf03764736f6c63430008140033",
  "libraries": {
    "OrderStoreUtils": "0x4926F2ea7B3759ea675D9BA2659CEe14a5A1D57c",
    "SubaccountUtils": "0xB9A432427F9b46FA30965c1170e12a9CE6A4494b"
  },
  "devdoc": {
    "kind": "dev",
    "methods": {
      "multicall(bytes[])": {
        "details": "Receives and executes a batch of function calls on this contract."
      }
    },
    "version": 1
  },
  "userdoc": {
    "kind": "user",
    "methods": {},
    "version": 1
  },
  "storageLayout": {
    "storage": [
      {
        "astId": 8158,
        "contract": "contracts/router/SubaccountRouter.sol:SubaccountRouter",
        "label": "_status",
        "offset": 0,
        "slot": "0",
        "type": "t_uint256"
      }
    ],
    "types": {
      "t_uint256": {
        "encoding": "inplace",
        "label": "uint256",
        "numberOfBytes": "32"
      }
    }
  }
}