{
  "address": "0x386a7fe1Ee4c647bE6764a8943B75AD8fe17013d",
  "abi": [
    {
      "inputs": [
        {
          "internalType": "contract RoleStore",
          "name": "_roleStore",
          "type": "address"
        },
        {
          "internalType": "contract DataStore",
          "name": "_dataStore",
          "type": "address"
        },
        {
          "internalType": "contract EventEmitter",
          "name": "_eventEmitter",
          "type": "address"
        },
        {
          "internalType": "contract OracleStore",
          "name": "_oracleStore",
          "type": "address"
        },
        {
          "internalType": "uint256",
          "name": "_timelockDelay",
          "type": "uint256"
        }
      ],
      "stateMutability": "nonpayable",
      "type": "constructor"
    },
    {
      "inputs": [],
      "name": "ActionAlreadySignalled",
      "type": "error"
    },
    {
      "inputs": [],
      "name": "ActionNotSignalled",
      "type": "error"
    },
    {
      "inputs": [
        {
          "internalType": "address",
          "name": "receiver",
          "type": "address"
        }
      ],
      "name": "InvalidFeeReceiver",
      "type": "error"
    },
    {
      "inputs": [
        {
          "internalType": "address",
          "name": "receiver",
          "type": "address"
        }
      ],
      "name": "InvalidOracleSigner",
      "type": "error"
    },
    {
      "inputs": [
        {
          "internalType": "uint256",
          "name": "timelockDelay",
          "type": "uint256"
        }
      ],
      "name": "InvalidTimelockDelay",
      "type": "error"
    },
    {
      "inputs": [
        {
          "internalType": "uint256",
          "name": "timelockDelay",
          "type": "uint256"
        }
      ],
      "name": "MaxTimelockDelayExceeded",
      "type": "error"
    },
    {
      "inputs": [
        {
          "internalType": "uint256",
          "name": "signalTime",
          "type": "uint256"
        }
      ],
      "name": "SignalTimeNotYetPassed",
      "type": "error"
    },
    {
      "inputs": [
        {
          "internalType": "address",
          "name": "msgSender",
          "type": "address"
        },
        {
          "internalType": "string",
          "name": "role",
          "type": "string"
        }
      ],
      "name": "Unauthorized",
      "type": "error"
    },
    {
      "inputs": [],
      "name": "MAX_TIMELOCK_DELAY",
      "outputs": [
        {
          "internalType": "uint256",
          "name": "",
          "type": "uint256"
        }
      ],
      "stateMutability": "view",
      "type": "function"
    },
    {
      "inputs": [
        {
          "internalType": "address",
          "name": "account",
          "type": "address"
        }
      ],
      "name": "addOracleSignerAfterSignal",
      "outputs": [],
      "stateMutability": "nonpayable",
      "type": "function"
    },
    {
      "inputs": [
        {
          "internalType": "bytes32",
          "name": "actionKey",
          "type": "bytes32"
        }
      ],
      "name": "cancelAction",
      "outputs": [],
      "stateMutability": "nonpayable",
      "type": "function"
    },
    {
      "inputs": [],
      "name": "dataStore",
      "outputs": [
        {
          "internalType": "contract DataStore",
          "name": "",
          "type": "address"
        }
      ],
      "stateMutability": "view",
      "type": "function"
    },
    {
      "inputs": [],
      "name": "eventEmitter",
      "outputs": [
        {
          "internalType": "contract EventEmitter",
          "name": "",
          "type": "address"
        }
      ],
      "stateMutability": "view",
      "type": "function"
    },
    {
      "inputs": [
        {
          "internalType": "address",
          "name": "account",
          "type": "address"
        },
        {
          "internalType": "bytes32",
          "name": "roleKey",
          "type": "bytes32"
        }
      ],
      "name": "grantRoleAfterSignal",
      "outputs": [],
      "stateMutability": "nonpayable",
      "type": "function"
    },
    {
      "inputs": [
        {
          "internalType": "uint256",
          "name": "_timelockDelay",
          "type": "uint256"
        }
      ],
      "name": "increaseTimelockDelay",
      "outputs": [],
      "stateMutability": "nonpayable",
      "type": "function"
    },
    {
      "inputs": [
        {
          "internalType": "bytes[]",
          "name": "data",
          "type": "bytes[]"
        }
      ],
      "name": "multicall",
      "outputs": [
        {
          "internalType": "bytes[]",
          "name": "results",
          "type": "bytes[]"
        }
      ],
      "stateMutability": "nonpayable",
      "type": "function"
    },
    {
      "inputs": [],
      "name": "oracleStore",
      "outputs": [
        {
          "internalType": "contract OracleStore",
          "name": "",
          "type": "address"
        }
      ],
      "stateMutability": "view",
      "type": "function"
    },
    {
      "inputs": [
        {
          "internalType": "bytes32",
          "name": "",
          "type": "bytes32"
        }
      ],
      "name": "pendingActions",
      "outputs": [
        {
          "internalType": "uint256",
          "name": "",
          "type": "uint256"
        }
      ],
      "stateMutability": "view",
      "type": "function"
    },
    {
      "inputs": [
        {
          "internalType": "address",
          "name": "account",
          "type": "address"
        }
      ],
      "name": "removeOracleSignerAfterSignal",
      "outputs": [],
      "stateMutability": "nonpayable",
      "type": "function"
    },
    {
      "inputs": [
        {
          "internalType": "address",
          "name": "account",
          "type": "address"
        },
        {
          "internalType": "bytes32",
          "name": "roleKey",
          "type": "bytes32"
        }
      ],
      "name": "revokeRole",
      "outputs": [],
      "stateMutability": "nonpayable",
      "type": "function"
    },
    {
      "inputs": [
        {
          "internalType": "address",
          "name": "account",
          "type": "address"
        },
        {
          "internalType": "bytes32",
          "name": "roleKey",
          "type": "bytes32"
        }
      ],
      "name": "revokeRoleAfterSignal",
      "outputs": [],
      "stateMutability": "nonpayable",
      "type": "function"
    },
    {
      "inputs": [],
      "name": "roleStore",
      "outputs": [
        {
          "internalType": "contract RoleStore",
          "name": "",
          "type": "address"
        }
      ],
      "stateMutability": "view",
      "type": "function"
    },
    {
      "inputs": [
        {
          "internalType": "address",
          "name": "account",
          "type": "address"
        }
      ],
      "name": "setFeeReceiverAfterSignal",
      "outputs": [],
      "stateMutability": "nonpayable",
      "type": "function"
    },
    {
      "inputs": [
        {
          "internalType": "bool",
          "name": "value",
          "type": "bool"
        }
      ],
      "name": "setInStrictPriceFeedMode",
      "outputs": [],
      "stateMutability": "nonpayable",
      "type": "function"
    },
    {
      "inputs": [
        {
          "internalType": "address",
          "name": "token",
          "type": "address"
        },
        {
          "internalType": "address",
          "name": "priceFeed",
          "type": "address"
        },
        {
          "internalType": "uint256",
          "name": "priceFeedMultiplier",
          "type": "uint256"
        },
        {
          "internalType": "uint256",
          "name": "priceFeedHeartbeatDuration",
          "type": "uint256"
        },
        {
          "internalType": "uint256",
          "name": "stablePrice",
          "type": "uint256"
        }
      ],
      "name": "setPriceFeedAfterSignal",
      "outputs": [],
      "stateMutability": "nonpayable",
      "type": "function"
    },
    {
      "inputs": [
        {
          "internalType": "address",
          "name": "token",
          "type": "address"
        },
        {
          "internalType": "bytes32",
          "name": "feedId",
          "type": "bytes32"
        },
        {
          "internalType": "uint256",
          "name": "realtimeFeedMultiplier",
          "type": "uint256"
        }
      ],
      "name": "setRealtimeFeedAfterSignal",
      "outputs": [],
      "stateMutability": "nonpayable",
      "type": "function"
    },
    {
      "inputs": [
        {
          "internalType": "address",
          "name": "account",
          "type": "address"
        }
      ],
      "name": "signalAddOracleSigner",
      "outputs": [],
      "stateMutability": "nonpayable",
      "type": "function"
    },
    {
      "inputs": [
        {
          "internalType": "address",
          "name": "account",
          "type": "address"
        },
        {
          "internalType": "bytes32",
          "name": "roleKey",
          "type": "bytes32"
        }
      ],
      "name": "signalGrantRole",
      "outputs": [],
      "stateMutability": "nonpayable",
      "type": "function"
    },
    {
      "inputs": [
        {
          "internalType": "address",
          "name": "account",
          "type": "address"
        }
      ],
      "name": "signalRemoveOracleSigner",
      "outputs": [],
      "stateMutability": "nonpayable",
      "type": "function"
    },
    {
      "inputs": [
        {
          "internalType": "address",
          "name": "account",
          "type": "address"
        },
        {
          "internalType": "bytes32",
          "name": "roleKey",
          "type": "bytes32"
        }
      ],
      "name": "signalRevokeRole",
      "outputs": [],
      "stateMutability": "nonpayable",
      "type": "function"
    },
    {
      "inputs": [
        {
          "internalType": "address",
          "name": "account",
          "type": "address"
        }
      ],
      "name": "signalSetFeeReceiver",
      "outputs": [],
      "stateMutability": "nonpayable",
      "type": "function"
    },
    {
      "inputs": [
        {
          "internalType": "address",
          "name": "token",
          "type": "address"
        },
        {
          "internalType": "address",
          "name": "priceFeed",
          "type": "address"
        },
        {
          "internalType": "uint256",
          "name": "priceFeedMultiplier",
          "type": "uint256"
        },
        {
          "internalType": "uint256",
          "name": "priceFeedHeartbeatDuration",
          "type": "uint256"
        },
        {
          "internalType": "uint256",
          "name": "stablePrice",
          "type": "uint256"
        }
      ],
      "name": "signalSetPriceFeed",
      "outputs": [],
      "stateMutability": "nonpayable",
      "type": "function"
    },
    {
      "inputs": [
        {
          "internalType": "address",
          "name": "token",
          "type": "address"
        },
        {
          "internalType": "bytes32",
          "name": "feedId",
          "type": "bytes32"
        },
        {
          "internalType": "uint256",
          "name": "realtimeFeedMultiplier",
          "type": "uint256"
        }
      ],
      "name": "signalSetRealtimeFeed",
      "outputs": [],
      "stateMutability": "nonpayable",
      "type": "function"
    },
    {
      "inputs": [],
      "name": "timelockDelay",
      "outputs": [
        {
          "internalType": "uint256",
          "name": "",
          "type": "uint256"
        }
      ],
      "stateMutability": "view",
      "type": "function"
    }
  ],
  "transactionHash": "0x23a5cd788e3c3f4f0b8600e0aeb2c9f9c1a6006f9a4f70d9be1da0f6ab3cc600",
  "args": [
    "0xB0681d729Fc85C93b442Eaf110A847dB8d3cF28F",
    "0xB558f529F97a405178E2437737F97Bb10eFadAfE",
    "0x3Ab21B44cffFD87a69F909f40dD2335ff68945A8",
    "0x34EEf098620a6A24303AF7f61FE9f144ba37670F",
    86400
  ],
  "numDeployments": 1,
  "solcInputHash": "803202b181e2d61e27c8f419e02c8a04",
  "bytecode": "0x6101006040523480156200001257600080fd5b50604051620043d7380380620043d78339810160408190526200003591620000c5565b600160008190556001600160a01b0380871660805285811660a05284811660c052831660e0528190556200006862000073565b505050505062000139565b620697806001541115620000aa57600154604051633ebd9bc360e21b8152600401620000a191815260200190565b60405180910390fd5b565b6001600160a01b0381168114620000c257600080fd5b50565b600080600080600060a08688031215620000de57600080fd5b8551620000eb81620000ac565b6020870151909550620000fe81620000ac565b60408701519094506200011181620000ac565b60608701519093506200012481620000ac565b80925050608086015190509295509295909350565b60805160a05160c05160e05161417d6200025a600039600081816101c601528181610bc40152611c360152600081816102ba015281816104cf0152818161070a015281816108f201528181610ae301528181610c8401528181610e1c01528181610f6b0152818161108f015281816114f1015281816117f80152818161195e01528181611b8d01528181611cf601528181611eb401528181612058015281816121d9015281816122cd0152818161254c0152612a6401526000818161023401528181610cd701528181611121015281816111bb01528181611255015281816112ef015281816115d6015281816116700152611d860152600081816101fa015281816107f0015281816109e101528181611f560152612319015261417d6000f3fe608060405234801561001057600080fd5b506004361061013e5760003560e01c80630f43905d146101435780630fe29bbc146101585780630ffc3cf61461016b578063208dd1ff1461017e5780632a083ca3146101915780632d6b4cc6146101ae578063392bf7f6146101c15780634a4a7b04146101f55780634a6758461461021c578063660d0d671461022f57806369bc0f3b14610256578063728ca5741461026957806375fa19131461027c578063781cc3d31461028f5780639d89c42b146102a25780639ff78c30146102b5578063a9765cae146102dc578063ac9650d8146102ef578063b6b9b02f1461030f578063bcb151e414610322578063c4fe486c14610335578063d59ba7e414610348578063e30569e51461035b578063e82d14f11461037b578063eef09bad1461038e578063f03278d414610397575b600080fd5b610156610151366004612ed5565b6103aa565b005b610156610166366004612ef9565b610547565b610156610179366004612f4a565b610786565b61015661018c366004612f4a565b61096b565b61019b6206978081565b6040519081526020015b60405180910390f35b6101566101bc366004612ed5565b610b55565b6101e87f000000000000000000000000000000000000000000000000000000000000000081565b6040516101a59190612f76565b6101e87f000000000000000000000000000000000000000000000000000000000000000081565b61015661022a366004612f98565b610cbb565b6101e87f000000000000000000000000000000000000000000000000000000000000000081565b610156610264366004612ed5565b610e8e565b610156610277366004612f4a565b610fa2565b61015661028a366004612ef9565b6110c6565b61015661029d366004612fb5565b611528565b6101566102b0366004612fce565b61157a565b6101e87f000000000000000000000000000000000000000000000000000000000000000081565b6101566102ea366004612f4a565b611872565b6103026102fd366004613003565b611995565b6040516101a5919061311c565b61015661031d366004612ed5565b611ab4565b610156610330366004612ed5565b611bc4565b610156610343366004612ed5565b611d2d565b610156610356366004612f4a565b611eeb565b61019b610369366004612fb5565b60026020526000908152604090205481565b610156610389366004612fce565b61208f565b61019b60015481565b6101566103a5366004612fb5565b612210565b6103fe6040516020016103bc9061312f565b604051602081830303815290604052805190602001206040518060400160405280600e81526020016d2a24a6a2a627a1a5afa0a226a4a760911b815250612302565b6104066123b2565b6001600160a01b038116610438578060405163c1b14c9160e01b815260040161042f9190612f76565b60405180910390fd5b60006104438261240b565b9050610476816040518060400160405280600f81526020016e30b23227b930b1b632a9b4b3b732b960891b81525061245e565b61047e612dcf565b805161048b9060016125ba565b6040805180820190915260078152661858d8dbdd5b9d60ca1b602082015281516104b8916000908661261f565b604051630937807960e21b81526001600160a01b037f000000000000000000000000000000000000000000000000000000000000000016906324de01e4906105069085908590600401613a1a565b600060405180830381600087803b15801561052057600080fd5b505af1158015610534573d6000803e3d6000fd5b5050505050506105446001600055565b50565b6105596040516020016103bc9061312f565b6105616123b2565b6000610570868686868661267c565b90506105a0816040518060400160405280600c81526020016b1cd95d141c9a58d95199595960a21b81525061245e565b6105a8612dcf565b80516105b59060026125ba565b6040805180820190915260058152643a37b5b2b760d91b602082015281516105e0916000908a61261f565b6040805180820190915260098152681c1c9a58d95199595960ba1b6020820152815161060f916001908961261f565b602081015161061f9060036125ba565b610666600060405180604001604052806013815260200172383934b1b2a332b2b226bab63a34b83634b2b960691b8152508784602001516126f1909392919063ffffffff16565b6106b460016040518060400160405280601a815260200179383934b1b2a332b2b22432b0b93a3132b0ba223ab930ba34b7b760311b8152508684602001516126f1909392919063ffffffff16565b6106f360026040518060400160405280600b81526020016a737461626c65507269636560a81b8152508584602001516126f1909392919063ffffffff16565b604051630937807960e21b81526001600160a01b037f000000000000000000000000000000000000000000000000000000000000000016906324de01e4906107419085908590600401613a67565b600060405180830381600087803b15801561075b57600080fd5b505af115801561076f573d6000803e3d6000fd5b50505050505061077f6001600055565b5050505050565b6107986040516020016103bc9061312f565b6107a06123b2565b60006107ac8383612744565b90506107d981604051806040016040528060098152602001686772616e74526f6c6560b81b815250612799565b604051632ac9d0b760e21b81526001600160a01b037f0000000000000000000000000000000000000000000000000000000000000000169063ab2742dc906108279086908690600401613aa9565b600060405180830381600087803b15801561084157600080fd5b505af1158015610855573d6000803e3d6000fd5b50505050610861612dcf565b805161086e9060016125ba565b6040805180820190915260078152661858d8dbdd5b9d60ca1b6020820152815161089b916000908761261f565b60808101516108ab9060016125ba565b604080518082019091526007815266726f6c654b657960c81b602082015260808201516108db91600090866126f1565b604051630937807960e21b81526001600160a01b037f000000000000000000000000000000000000000000000000000000000000000016906324de01e4906109299085908590600401613ac2565b600060405180830381600087803b15801561094357600080fd5b505af1158015610957573d6000803e3d6000fd5b5050505050506109676001600055565b5050565b6109c260405160200161097d90613afb565b604051602081830303815290604052805190602001206040518060400160405280601181526020017054494d454c4f434b5f4d554c544953494760781b815250612302565b6109ca6123b2565b60405163208dd1ff60e01b81526001600160a01b037f0000000000000000000000000000000000000000000000000000000000000000169063208dd1ff90610a189085908590600401613aa9565b600060405180830381600087803b158015610a3257600080fd5b505af1158015610a46573d6000803e3d6000fd5b50505050610a52612dcf565b8051610a5f9060016125ba565b6040805180820190915260078152661858d8dbdd5b9d60ca1b60208201528151610a8c916000908661261f565b6080810151610a9c9060016125ba565b604080518082019091526007815266726f6c654b657960c81b60208201526080820151610acc91600090856126f1565b60405163483624fb60e11b81526001600160a01b037f0000000000000000000000000000000000000000000000000000000000000000169063906c49f690610b18908490600401613b43565b600060405180830381600087803b158015610b3257600080fd5b505af1158015610b46573d6000803e3d6000fd5b50505050506109676001600055565b610b676040516020016103bc9061312f565b610b6f6123b2565b6000610b7a8261240b565b9050610bad816040518060400160405280600f81526020016e30b23227b930b1b632a9b4b3b732b960891b815250612799565b6040516375896b0f60e11b81526001600160a01b037f0000000000000000000000000000000000000000000000000000000000000000169063eb12d61e90610bf9908590600401612f76565b600060405180830381600087803b158015610c1357600080fd5b505af1158015610c27573d6000803e3d6000fd5b50505050610c33612dcf565b8051610c409060016125ba565b6040805180820190915260078152661858d8dbdd5b9d60ca1b60208201528151610c6d916000908661261f565b604051630937807960e21b81526001600160a01b037f000000000000000000000000000000000000000000000000000000000000000016906324de01e4906105069085908590600401613b67565b610ccd60405160200161097d90613afb565b610cd56123b2565b7f00000000000000000000000000000000000000000000000000000000000000006001600160a01b031663abfdcced604051602001610d4190602080825260199082015278494e5f5354524943545f50524943455f464545445f4d4f444560381b604082015260600190565b60408051601f198184030181529082905280516020909101206001600160e01b031960e084901b168252600482015283151560248201526044016020604051808303816000875af1158015610d9a573d6000803e3d6000fd5b505050506040513d601f19601f82011682018060405250810190610dbe9190613ba6565b50610dc7612dcf565b6060810151610dd79060016125ba565b60408051808201909152600581526476616c756560d81b60208201526060820151610e0591600090856127ac565b60405163483624fb60e11b81526001600160a01b037f0000000000000000000000000000000000000000000000000000000000000000169063906c49f690610e51908490600401613bc3565b600060405180830381600087803b158015610e6b57600080fd5b505af1158015610e7f573d6000803e3d6000fd5b50505050506105446001600055565b610ea06040516020016103bc9061312f565b610ea86123b2565b6001600160a01b038116610ed1578060405163c1b14c9160e01b815260040161042f9190612f76565b6000610edc82612801565b9050610f1281604051806040016040528060128152602001713932b6b7bb32a7b930b1b632a9b4b3b732b960711b81525061245e565b610f1a612dcf565b8051610f279060016125ba565b6040805180820190915260078152661858d8dbdd5b9d60ca1b60208201528151610f54916000908661261f565b604051630937807960e21b81526001600160a01b037f000000000000000000000000000000000000000000000000000000000000000016906324de01e4906105069085908590600401613c05565b610fb46040516020016103bc9061312f565b610fbc6123b2565b6000610fc8838361283e565b9050610ff6816040518060400160405280600a8152602001697265766f6b65526f6c6560b01b81525061245e565b610ffe612dcf565b805161100b9060016125ba565b6040805180820190915260078152661858d8dbdd5b9d60ca1b60208201528151611038916000908761261f565b60808101516110489060016125ba565b604080518082019091526007815266726f6c654b657960c81b6020820152608082015161107891600090866126f1565b604051630937807960e21b81526001600160a01b037f000000000000000000000000000000000000000000000000000000000000000016906324de01e4906109299085908590600401613c4d565b6110d86040516020016103bc9061312f565b6110e06123b2565b60006110ef868686868661267c565b905061111f816040518060400160405280600c81526020016b1cd95d141c9a58d95199595960a21b815250612799565b7f00000000000000000000000000000000000000000000000000000000000000006001600160a01b031663ca446dd96111578861287a565b876040518363ffffffff1660e01b8152600401611175929190613c8d565b6020604051808303816000875af1158015611194573d6000803e3d6000fd5b505050506040513d601f19601f820116820180604052508101906111b89190613ca4565b507f00000000000000000000000000000000000000000000000000000000000000006001600160a01b031663e2a4853a6111f1886128d2565b866040518363ffffffff1660e01b815260040161120f929190613cc1565b6020604051808303816000875af115801561122e573d6000803e3d6000fd5b505050506040513d601f19601f820116820180604052508101906112529190613ccf565b507f00000000000000000000000000000000000000000000000000000000000000006001600160a01b031663e2a4853a61128b8861290d565b856040518363ffffffff1660e01b81526004016112a9929190613cc1565b6020604051808303816000875af11580156112c8573d6000803e3d6000fd5b505050506040513d601f19601f820116820180604052508101906112ec9190613ccf565b507f00000000000000000000000000000000000000000000000000000000000000006001600160a01b031663e2a4853a61132588612950565b846040518363ffffffff1660e01b8152600401611343929190613cc1565b6020604051808303816000875af1158015611362573d6000803e3d6000fd5b505050506040513d601f19601f820116820180604052508101906113869190613ccf565b5061138f612dcf565b805161139c9060026125ba565b6040805180820190915260058152643a37b5b2b760d91b602082015281516113c7916000908a61261f565b6040805180820190915260098152681c1c9a58d95199595960ba1b602082015281516113f6916001908961261f565b60208101516114069060036125ba565b61144d600060405180604001604052806013815260200172383934b1b2a332b2b226bab63a34b83634b2b960691b8152508784602001516126f1909392919063ffffffff16565b61149b60016040518060400160405280601a815260200179383934b1b2a332b2b22432b0b93a3132b0ba223ab930ba34b7b760311b8152508684602001516126f1909392919063ffffffff16565b6114da60026040518060400160405280600b81526020016a737461626c65507269636560a81b8152508584602001516126f1909392919063ffffffff16565b604051630937807960e21b81526001600160a01b037f000000000000000000000000000000000000000000000000000000000000000016906324de01e4906107419085908590600401613ce8565b61153a6040516020016103bc9061312f565b6115426123b2565b611570816040518060400160405280600c81526020016b31b0b731b2b620b1ba34b7b760a11b815250612982565b6105446001600055565b61158c6040516020016103bc9061312f565b6115946123b2565b60006115a1848484612a9b565b90506115d4816040518060400160405280600f81526020016e1cd95d1499585b1d1a5b5951995959608a1b815250612799565b7f00000000000000000000000000000000000000000000000000000000000000006001600160a01b0316634e91db0861160c86612afd565b856040518363ffffffff1660e01b815260040161162a929190613cc1565b6020604051808303816000875af1158015611649573d6000803e3d6000fd5b505050506040513d601f19601f8201168201806040525081019061166d9190613ccf565b507f00000000000000000000000000000000000000000000000000000000000000006001600160a01b031663e2a4853a6116a686612b33565b846040518363ffffffff1660e01b81526004016116c4929190613cc1565b6020604051808303816000875af11580156116e3573d6000803e3d6000fd5b505050506040513d601f19601f820116820180604052508101906117079190613ccf565b50611710612dcf565b805161171d9060016125ba565b6040805180820190915260058152643a37b5b2b760d91b60208201528151611748916000908861261f565b60808101516117589060016125ba565b60408051808201909152600681526519995959125960d21b6020820152608082015161178791600090876126f1565b60208101516117979060016125ba565b6117e16000604051806040016040528060168152602001753932b0b63a34b6b2a332b2b226bab63a34b83634b2b960511b8152508584602001516126f1909392919063ffffffff16565b604051630937807960e21b81526001600160a01b037f000000000000000000000000000000000000000000000000000000000000000016906324de01e49061182f9085908590600401613d24565b600060405180830381600087803b15801561184957600080fd5b505af115801561185d573d6000803e3d6000fd5b50505050505061186d6001600055565b505050565b6118846040516020016103bc9061312f565b61188c6123b2565b60006118988383612744565b90506118c581604051806040016040528060098152602001686772616e74526f6c6560b81b81525061245e565b6118cd612dcf565b80516118da9060016125ba565b6040805180820190915260078152661858d8dbdd5b9d60ca1b60208201528151611907916000908761261f565b60808101516119179060016125ba565b604080518082019091526007815266726f6c654b657960c81b6020820152608082015161194791600090866126f1565b604051630937807960e21b81526001600160a01b037f000000000000000000000000000000000000000000000000000000000000000016906324de01e4906109299085908590600401613d63565b6060816001600160401b038111156119af576119af613da2565b6040519080825280602002602001820160405280156119e257816020015b60608152602001906001900390816119cd5790505b50905060005b82811015611aac5760008030868685818110611a0657611a06613db8565b9050602002810190611a189190613dce565b604051611a26929190613e1b565b600060405180830381855af49150503d8060008114611a61576040519150601f19603f3d011682016040523d82523d6000602084013e611a66565b606091505b509150915081611a7957611a7981612b71565b80848481518110611a8c57611a8c613db8565b602002602001018190525050508080611aa490613e41565b9150506119e8565b505b92915050565b611ac66040516020016103bc9061312f565b611ace6123b2565b6001600160a01b038116611af7578060405163cb9339d560e01b815260040161042f9190612f76565b6000611b0282612baa565b9050611b34816040518060400160405280600e81526020016d39b2ba2332b2a932b1b2b4bb32b960911b81525061245e565b611b3c612dcf565b8051611b499060016125ba565b6040805180820190915260078152661858d8dbdd5b9d60ca1b60208201528151611b76916000908661261f565b604051630937807960e21b81526001600160a01b037f000000000000000000000000000000000000000000000000000000000000000016906324de01e4906105069085908590600401613e5a565b611bd66040516020016103bc9061312f565b611bde6123b2565b6000611be982612801565b9050611c1f81604051806040016040528060128152602001713932b6b7bb32a7b930b1b632a9b4b3b732b960711b815250612799565b604051630e316ab760e01b81526001600160a01b037f00000000000000000000000000000000000000000000000000000000000000001690630e316ab790611c6b908590600401612f76565b600060405180830381600087803b158015611c8557600080fd5b505af1158015611c99573d6000803e3d6000fd5b50505050611ca5612dcf565b8051611cb29060016125ba565b6040805180820190915260078152661858d8dbdd5b9d60ca1b60208201528151611cdf916000908661261f565b604051630937807960e21b81526001600160a01b037f000000000000000000000000000000000000000000000000000000000000000016906324de01e4906105069085908590600401613e9e565b611d3f6040516020016103bc9061312f565b611d476123b2565b6000611d5282612baa565b9050611d84816040518060400160405280600e81526020016d39b2ba2332b2a932b1b2b4bb32b960911b815250612799565b7f00000000000000000000000000000000000000000000000000000000000000006001600160a01b031663ca446dd9604051602001611de3906020808252600c908201526b2322a2afa922a1a2a4ab22a960a11b604082015260600190565b60405160208183030381529060405280519060200120846040518363ffffffff1660e01b8152600401611e17929190613c8d565b6020604051808303816000875af1158015611e36573d6000803e3d6000fd5b505050506040513d601f19601f82011682018060405250810190611e5a9190613ca4565b50611e63612dcf565b8051611e709060016125ba565b6040805180820190915260078152661858d8dbdd5b9d60ca1b60208201528151611e9d916000908661261f565b604051630937807960e21b81526001600160a01b037f000000000000000000000000000000000000000000000000000000000000000016906324de01e4906105069085908590600401613ee0565b611efd6040516020016103bc9061312f565b611f056123b2565b6000611f11838361283e565b9050611f3f816040518060400160405280600a8152602001697265766f6b65526f6c6560b01b815250612799565b60405163208dd1ff60e01b81526001600160a01b037f0000000000000000000000000000000000000000000000000000000000000000169063208dd1ff90611f8d9086908690600401613aa9565b600060405180830381600087803b158015611fa757600080fd5b505af1158015611fbb573d6000803e3d6000fd5b50505050611fc7612dcf565b8051611fd49060016125ba565b6040805180820190915260078152661858d8dbdd5b9d60ca1b60208201528151612001916000908761261f565b60808101516120119060016125ba565b604080518082019091526007815266726f6c654b657960c81b6020820152608082015161204191600090866126f1565b604051630937807960e21b81526001600160a01b037f000000000000000000000000000000000000000000000000000000000000000016906324de01e4906109299085908590600401613f1e565b6120a16040516020016103bc9061312f565b6120a96123b2565b60006120b6848484612a9b565b90506120e9816040518060400160405280600f81526020016e1cd95d1499585b1d1a5b5951995959608a1b81525061245e565b6120f1612dcf565b80516120fe9060016125ba565b6040805180820190915260058152643a37b5b2b760d91b60208201528151612129916000908861261f565b60808101516121399060016125ba565b60408051808201909152600681526519995959125960d21b6020820152608082015161216891600090876126f1565b60208101516121789060016125ba565b6121c26000604051806040016040528060168152602001753932b0b63a34b6b2a332b2b226bab63a34b83634b2b960511b8152508584602001516126f1909392919063ffffffff16565b604051630937807960e21b81526001600160a01b037f000000000000000000000000000000000000000000000000000000000000000016906324de01e49061182f9085908590600401613f48565b6122226040516020016103bc9061312f565b61222a6123b2565b600154811161224f576040516373586edb60e11b81526004810182905260240161042f565b600181905561225c612be3565b612264612dcf565b60208101516122749060016125ba565b6122b660006040518060400160405280600e81526020016d5f74696d656c6f636b44656c617960901b8152508484602001516126f1909392919063ffffffff16565b60405163483624fb60e11b81526001600160a01b037f0000000000000000000000000000000000000000000000000000000000000000169063906c49f690610e51908490600401613f8d565b60405163ac4ab3fb60e01b81526001600160a01b037f0000000000000000000000000000000000000000000000000000000000000000169063ac4ab3fb906123509033908690600401613aa9565b602060405180830381865afa15801561236d573d6000803e3d6000fd5b505050506040513d601f19601f820116820180604052508101906123919190613ba6565b61096757338160405163a35b150b60e01b815260040161042f929190613fcc565b6002600054036124045760405162461bcd60e51b815260206004820152601f60248201527f5265656e7472616e637947756172643a207265656e7472616e742063616c6c00604482015260640161042f565b6002600055565b6040516e30b23227b930b1b632a9b4b3b732b960891b60208201526001600160601b0319606083901b16602f8201526000906043015b604051602081830303815290604052805190602001209050919050565b6000828152600260205260409020541561248b5760405163b244a10760e01b815260040160405180910390fd5b6001546124989042613ff0565b6000838152600260205260409020556124af612dcf565b60808101516124bf9060016125ba565b604080518082019091526009815268616374696f6e4b657960b81b602082015260808201516124f191600090866126f1565b60c0810151612501906001612c11565b60408051808201909152600b81526a1858dd1a5bdb931858995b60aa1b602082015260c08201516125359160009085612c73565b604051630937807960e21b81526001600160a01b037f000000000000000000000000000000000000000000000000000000000000000016906324de01e4906125839086908590600401614003565b600060405180830381600087803b15801561259d57600080fd5b505af11580156125b1573d6000803e3d6000fd5b50505050505050565b806001600160401b038111156125d2576125d2613da2565b60405190808252806020026020018201604052801561261857816020015b6040805180820190915260608152600060208201528152602001906001900390816125f05790505b5090915250565b818460000151848151811061263657612636613db8565b602002602001015160000181905250808460000151848151811061265c5761265c613db8565b6020908102919091018101516001600160a01b0390921691015250505050565b604080516b1cd95d141c9a58d95199595960a21b60208201526001600160601b0319606088811b8216602c84015287901b169181019190915260548101849052607481018390526094810182905260009060b40160405160208183030381529060405280519060200120905095945050505050565b818460000151848151811061270857612708613db8565b602002602001015160000181905250808460000151848151811061272e5761272e613db8565b6020026020010151602001818152505050505050565b604051686772616e74526f6c6560b81b60208201526001600160601b0319606084901b166029820152603d8101829052600090605d015b60405160208183030381529060405280519060200120905092915050565b6127a282612cc5565b6109678282612982565b81846000015184815181106127c3576127c3613db8565b60200260200101516000018190525080846000015184815181106127e9576127e9613db8565b60209081029190910181015191151591015250505050565b604051713932b6b7bb32a7b930b1b632a9b4b3b732b960711b60208201526001600160601b0319606083901b166032820152600090604601612441565b604051697265766f6b65526f6c6560b01b60208201526001600160601b0319606084901b16602a820152603e8101829052600090605e0161277b565b60006040516020016128aa906020808252600a908201526914149250d157d191515160b21b604082015260600190565b6040516020818303038152906040528051906020012082604051602001612441929190613c8d565b60006040516020016128aa90602080825260159082015274282924a1a2afa322a2a22fa6aaa62a24a82624a2a960591b604082015260600190565b60006040516020016128aa906020808252601d908201527f50524943455f464545445f4845415254424541545f4455524154494f4e000000604082015260600190565b60006040516020016128aa906020808252600c908201526b535441424c455f505249434560a01b604082015260600190565b60008281526002602052604081205490036129b057604051634a7ed75160e11b815260040160405180910390fd5b6000828152600260205260408120556129c7612dcf565b60808101516129d79060016125ba565b604080518082019091526009815268616374696f6e4b657960b81b60208201526080820151612a0991600090866126f1565b60c0810151612a19906001612c11565b60408051808201909152600b81526a1858dd1a5bdb931858995b60aa1b602082015260c0820151612a4d9160009085612c73565b604051630937807960e21b81526001600160a01b037f000000000000000000000000000000000000000000000000000000000000000016906324de01e4906125839086908590600401614046565b6040516e1cd95d1499585b1d1a5b5951995959608a1b60208201526001600160601b0319606085901b16602f82015260438101839052606381018290526000906083016040516020818303038152906040528051906020012090509392505050565b60006040516020016128aa9060208082526010908201526f149150531512535157d191515117d25160821b604082015260600190565b60006040516020016128aa906020808252601890820152772922a0a62a24a6a2afa322a2a22fa6aaa62a24a82624a2a960411b604082015260600190565b600080612b7d83612d36565b915091508015612ba1578160405162461bcd60e51b815260040161042f9190614088565b61186d83612dc6565b6040516d39b2ba2332b2a932b1b2b4bb32b960911b60208201526001600160601b0319606083901b16602e820152600090604201612441565b620697806001541115612c0f57600154604051633ebd9bc360e21b815260040161042f91815260200190565b565b806001600160401b03811115612c2957612c29613da2565b60405190808252806020026020018201604052801561261857816020015b6040805180820190915260608082526020820152815260200190600190039081612c4757505090915250565b8184600001518481518110612c8a57612c8a613db8565b6020026020010151600001819052508084600001518481518110612cb057612cb0613db8565b60200260200101516020018190525050505050565b6000818152600260205260408120549003612cf357604051634a7ed75160e11b815260040160405180910390fd5b426000828152600260205260409020541115610544576000818152600260205260409081902054905163082c8d6160e21b8152600481019190915260240161042f565b60606000604483511015612d5d575050604080516020810190915260008082529092909150565b6000612d6a846020015190565b90506307b9e43360e51b6001600160e01b0319821601612da95760048401935083806020019051810190612d9e919061409b565b946001945092505050565b600060405180602001604052806000815250909250925050915091565b80518060208301fd5b604080516101208101909152606060e0820181815261010083019190915281908152602001612e11604051806040016040528060608152602001606081525090565b8152602001612e33604051806040016040528060608152602001606081525090565b8152602001612e55604051806040016040528060608152602001606081525090565b8152602001612e77604051806040016040528060608152602001606081525090565b8152602001612e99604051806040016040528060608152602001606081525090565b8152602001612ebb604051806040016040528060608152602001606081525090565b905290565b6001600160a01b038116811461054457600080fd5b600060208284031215612ee757600080fd5b8135612ef281612ec0565b9392505050565b600080600080600060a08688031215612f1157600080fd5b8535612f1c81612ec0565b94506020860135612f2c81612ec0565b94979496505050506040830135926060810135926080909101359150565b60008060408385031215612f5d57600080fd5b8235612f6881612ec0565b946020939093013593505050565b6001600160a01b0391909116815260200190565b801515811461054457600080fd5b600060208284031215612faa57600080fd5b8135612ef281612f8a565b600060208284031215612fc757600080fd5b5035919050565b600080600060608486031215612fe357600080fd5b8335612fee81612ec0565b95602085013595506040909401359392505050565b6000806020838503121561301657600080fd5b82356001600160401b038082111561302d57600080fd5b818501915085601f83011261304157600080fd5b81358181111561305057600080fd5b8660208260051b850101111561306557600080fd5b60209290920196919550909350505050565b60005b8381101561309257818101518382015260200161307a565b50506000910152565b600081518084526130b3816020860160208601613077565b601f01601f19169290920160200192915050565b600081518084526020808501808196508360051b8101915082860160005b8581101561310f5782840389526130fd84835161309b565b988501989350908401906001016130e5565b5091979650505050505050565b602081526000612ef260208301846130c7565b6020808252600e908201526d2a24a6a2a627a1a5afa0a226a4a760911b604082015260600190565b600081518084526020808501808196508360051b810191508286016000805b868110156131f2578385038a528251604081518188526131988289018261309b565b92890151888403898b01528051808552908a01938693508a0191505b808310156131dd5783516001600160a01b031682529289019260019290920191908901906131b4565b509b88019b9650505091850191600101613176565b509298975050505050505050565b60006040808401835182865281815180845260608801915060608160051b89010193506020808401935060005b8281101561327757898603605f19018452845180518888526132518989018261309b565b918401516001600160a01b0316978401979097529550938101939281019260010161322d565b50808801519550888503818a0152505050506132938183613157565b95945050505050565b600081518084526020808501808196508360051b810191508286016000805b868110156131f2578385038a528251604081518188526132dd8289018261309b565b92890151888403898b01528051808552908a01938693508a0191505b8083101561331957835182529289019260019290920191908901906132f9565b509b88019b96505050918501916001016132bb565b60006040808401835182865281815180845260608801915060608160051b89010193506020808401935060005b8281101561339c57898603605f190184528451805188885261337f8989018261309b565b91840151978401979097529550938101939281019260010161335b565b50808801519550888503818a015250505050613293818361329c565b600081518084526020808501808196508360051b810191508286016000805b868110156131f2578385038a528251604081518188526133f98289018261309b565b92890151888403898b01528051808552908a01938693508a0191505b808310156134355783518252928901926001929092019190890190613415565b509b88019b96505050918501916001016133d7565b60006040808401835182865281815180845260608801915060608160051b89010193506020808401935060005b828110156134b857898603605f190184528451805188885261349b8989018261309b565b918401519784019790975295509381019392810192600101613477565b50808801519550888503818a01525050505061329381836133b8565b600081518084526020808501808196508360051b810191508286016000805b868110156131f2578385038a528251604081518188526135158289018261309b565b92890151888403898b01528051808552908a01938693508a0191505b8083101561355357835115158252928901926001929092019190890190613531565b509b88019b96505050918501916001016134f3565b60006040808401835182865281815180845260608801915060608160051b89010193506020808401935060005b828110156135d857898603605f19018452845180518888526135b98989018261309b565b9184015115159784019790975295509381019392810192600101613595565b50808801519550888503818a01525050505061329381836134d4565b600081518084526020808501808196508360051b810191508286016000805b868110156131f2578385038a528251604081518188526136358289018261309b565b92890151888403898b01528051808552908a01938693508a0191505b808310156136715783518252928901926001929092019190890190613651565b509b88019b9650505091850191600101613613565b60006040808401835182865281815180845260608801915060608160051b89010193506020808401935060005b828110156136f457898603605f19018452845180518888526136d78989018261309b565b9184015197840197909752955093810193928101926001016136b3565b50808801519550888503818a01525050505061329381836135f4565b600081518084526020808501808196508360051b8101915082860160005b8581101561310f5782840389528151604081518187526137508288018261309b565b9150508682015191508581038787015261376a81836130c7565b9a87019a955050509084019060010161372e565b60006040808401835182865281815180845260608801915060608160051b89010193506020808401935060005b828110156137fb57898603605f19018452845180518888526137cf8989018261309b565b91840151888303898601529190506137e7818361309b565b9750505093810193928101926001016137ab565b50808801519550888503818a0152505050506132938183613710565b600081518084526020808501808196506005915083821b81018387016000805b878110156138c2578484038b528251604081518187526138598288018261309b565b928a0151878403888c01528051808552908b019392508a83019150808a1b83018b01865b828110156138ab57601f1985830301845261389982875161309b565b958d0195938d0193915060010161387d565b509e8b019e97505050938801935050600101613837565b50919998505050505050505050565b60006040808401835182865281815180845260608801915060608160051b89010193506020808401935060005b8281101561394e57898603605f19018452845180518888526139228989018261309b565b918401518883038986015291905061393a818361309b565b9750505093810193928101926001016138fe565b50808801519550888503818a0152505050506132938183613817565b6000815160e0845261397f60e0850182613200565b905060208301518482036020860152613998828261332e565b915050604083015184820360408601526139b2828261344a565b915050606083015184820360608601526139cc8282613568565b915050608083015184820360808601526139e68282613686565b91505060a083015184820360a0860152613a00828261377e565b91505060c083015184820360c086015261329382826138d1565b60608152601560608201527429b4b3b730b620b23227b930b1b632a9b4b3b732b960591b608082015282602082015260a060408201526000613a5f60a083018461396a565b949350505050565b60608152601260608201527114da59db985b14d95d141c9a58d95199595960721b608082015282602082015260a060408201526000613a5f60a083018461396a565b6001600160a01b03929092168252602082015260400190565b6060815260096060820152684772616e74526f6c6560b81b608082015282602082015260a060408201526000613a5f60a083018461396a565b60208082526011908201527054494d454c4f434b5f4d554c544953494760781b604082015260600190565b600a8152695265766f6b65526f6c6560b01b602082015260400190565b604081526000613b5560408301613b26565b8281036020840152613a5f818561396a565b60608152600f60608201526e20b23227b930b1b632a9b4b3b732b960891b608082015282602082015260a060408201526000613a5f60a083018461396a565b600060208284031215613bb857600080fd5b8151612ef281612f8a565b604081526018604082015277536574496e5374726963745072696365466565644d6f646560401b6060820152608060208201526000612ef2608083018461396a565b60608152601860608201527729b4b3b730b62932b6b7bb32a7b930b1b632a9b4b3b732b960411b608082015282602082015260a060408201526000613a5f60a083018461396a565b60608152601060608201526f5369676e616c5265766f6b65526f6c6560801b608082015282602082015260a060408201526000613a5f60a083018461396a565b9182526001600160a01b0316602082015260400190565b600060208284031215613cb657600080fd5b8151612ef281612ec0565b918252602082015260400190565b600060208284031215613ce157600080fd5b5051919050565b60608152600c60608201526b14d95d141c9a58d95199595960a21b608082015282602082015260a060408201526000613a5f60a083018461396a565b60608152600f60608201526e14d95d1499585b1d1a5b5951995959608a1b608082015282602082015260a060408201526000613a5f60a083018461396a565b60608152600f60608201526e5369676e616c4772616e74526f6c6560881b608082015282602082015260a060408201526000613a5f60a083018461396a565b634e487b7160e01b600052604160045260246000fd5b634e487b7160e01b600052603260045260246000fd5b6000808335601e19843603018112613de557600080fd5b8301803591506001600160401b03821115613dff57600080fd5b602001915036819003821315613e1457600080fd5b9250929050565b8183823760009101908152919050565b634e487b7160e01b600052601160045260246000fd5b600060018201613e5357613e53613e2b565b5060010190565b60608152601460608201527329b4b3b730b629b2ba2332b2a932b1b2b4bb32b960611b608082015282602082015260a060408201526000613a5f60a083018461396a565b6060815260126060820152712932b6b7bb32a7b930b1b632a9b4b3b732b960711b608082015282602082015260a060408201526000613a5f60a083018461396a565b60608152600e60608201526d29b2ba2332b2a932b1b2b4bb32b960911b608082015282602082015260a060408201526000613a5f60a083018461396a565b606081526000613f3060608301613b26565b8460208401528281036040840152613293818561396a565b60608152601560608201527414da59db985b14d95d1499585b1d1a5b5951995959605a1b608082015282602082015260a060408201526000613a5f60a083018461396a565b604081526015604082015274496e63726561736554696d656c6f636b44656c617960581b6060820152608060208201526000612ef2608083018461396a565b6001600160a01b0383168152604060208201819052600090613a5f9083018461309b565b80820180821115611aae57611aae613e2b565b60608152601360608201527229b4b3b730b62832b73234b733a0b1ba34b7b760691b608082015282602082015260a060408201526000613a5f60a083018461396a565b60608152601260608201527121b632b0b92832b73234b733a0b1ba34b7b760711b608082015282602082015260a060408201526000613a5f60a083018461396a565b602081526000612ef2602083018461309b565b6000602082840312156140ad57600080fd5b81516001600160401b03808211156140c457600080fd5b818401915084601f8301126140d857600080fd5b8151818111156140ea576140ea613da2565b604051601f8201601f19908116603f0116810190838211818310171561411257614112613da2565b8160405282815287602084870101111561412b57600080fd5b61413c836020830160208801613077565b97965050505050505056fea264697066735822122029b5c5c312a938d419667aa4660bc1a73a372447bf99f54be3d2ee4e0bd55e7964736f6c63430008120033",
  "libraries": {},
  "devdoc": {
    "kind": "dev",
    "methods": {
      "multicall(bytes[])": {
        "details": "Receives and executes a batch of function calls on this contract."
      }
    },
    "version": 1
  },
  "userdoc": {
    "kind": "user",
    "methods": {},
    "version": 1
  },
  "storageLayout": {
    "storage": [
      {
        "astId": 5326,
        "contract": "contracts/config/Timelock.sol:Timelock",
        "label": "_status",
        "offset": 0,
        "slot": "0",
        "type": "t_uint256"
      },
      {
        "astId": 17835,
        "contract": "contracts/config/Timelock.sol:Timelock",
        "label": "timelockDelay",
        "offset": 0,
        "slot": "1",
        "type": "t_uint256"
      },
      {
        "astId": 17839,
        "contract": "contracts/config/Timelock.sol:Timelock",
        "label": "pendingActions",
        "offset": 0,
        "slot": "2",
        "type": "t_mapping(t_bytes32,t_uint256)"
      }
    ],
    "types": {
      "t_bytes32": {
        "encoding": "inplace",
        "label": "bytes32",
        "numberOfBytes": "32"
      },
      "t_mapping(t_bytes32,t_uint256)": {
        "encoding": "mapping",
        "key": "t_bytes32",
        "label": "mapping(bytes32 => uint256)",
        "numberOfBytes": "32",
        "value": "t_uint256"
      },
      "t_uint256": {
        "encoding": "inplace",
        "label": "uint256",
        "numberOfBytes": "32"
      }
    }
  }
}