{
  "address": "0xe517EAB070559d16112cF129B6837898Fa7A036A",
  "abi": [
    {
      "inputs": [
        {
          "internalType": "contract EventEmitter",
          "name": "_eventEmitter",
          "type": "address"
        },
        {
          "internalType": "address",
          "name": "_dataStore",
          "type": "address"
        },
        {
          "internalType": "address",
          "name": "_oracleStore",
          "type": "address"
        },
        {
          "internalType": "contract RoleStore",
          "name": "_roleStore",
          "type": "address"
        },
        {
          "internalType": "contract TimelockController",
          "name": "_timelockController",
          "type": "address"
        }
      ],
      "stateMutability": "nonpayable",
      "type": "constructor"
    },
    {
      "inputs": [
        {
          "internalType": "bytes32",
          "name": "baseKey",
          "type": "bytes32"
        },
        {
          "internalType": "uint256",
          "name": "value",
          "type": "uint256"
        }
      ],
      "name": "ConfigValueExceedsAllowedRange",
      "type": "error"
    },
    {
      "inputs": [
        {
          "internalType": "address",
          "name": "receiver",
          "type": "address"
        }
      ],
      "name": "InvalidFeeReceiver",
      "type": "error"
    },
    {
      "inputs": [
        {
          "internalType": "address",
          "name": "account",
          "type": "address"
        }
      ],
      "name": "InvalidHoldingAddress",
      "type": "error"
    },
    {
      "inputs": [
        {
          "internalType": "address",
          "name": "signer",
          "type": "address"
        }
      ],
      "name": "InvalidOracleSigner",
      "type": "error"
    },
    {
      "inputs": [
        {
          "internalType": "uint256",
          "name": "timelockDelay",
          "type": "uint256"
        }
      ],
      "name": "InvalidTimelockDelay",
      "type": "error"
    },
    {
      "inputs": [
        {
          "internalType": "uint256",
          "name": "timelockDelay",
          "type": "uint256"
        }
      ],
      "name": "MaxTimelockDelayExceeded",
      "type": "error"
    },
    {
      "inputs": [
        {
          "internalType": "address",
          "name": "msgSender",
          "type": "address"
        },
        {
          "internalType": "string",
          "name": "role",
          "type": "string"
        }
      ],
      "name": "Unauthorized",
      "type": "error"
    },
    {
      "inputs": [],
      "name": "MAX_TIMELOCK_DELAY",
      "outputs": [
        {
          "internalType": "uint256",
          "name": "",
          "type": "uint256"
        }
      ],
      "stateMutability": "view",
      "type": "function"
    },
    {
      "inputs": [
        {
          "internalType": "bytes32",
          "name": "id",
          "type": "bytes32"
        }
      ],
      "name": "cancelAction",
      "outputs": [],
      "stateMutability": "nonpayable",
      "type": "function"
    },
    {
      "inputs": [],
      "name": "dataStore",
      "outputs": [
        {
          "internalType": "address",
          "name": "",
          "type": "address"
        }
      ],
      "stateMutability": "view",
      "type": "function"
    },
    {
      "inputs": [],
      "name": "eventEmitter",
      "outputs": [
        {
          "internalType": "contract EventEmitter",
          "name": "",
          "type": "address"
        }
      ],
      "stateMutability": "view",
      "type": "function"
    },
    {
      "inputs": [
        {
          "internalType": "address",
          "name": "target",
          "type": "address"
        },
        {
          "internalType": "bytes",
          "name": "payload",
          "type": "bytes"
        }
      ],
      "name": "execute",
      "outputs": [],
      "stateMutability": "nonpayable",
      "type": "function"
    },
    {
      "inputs": [
        {
          "internalType": "address[]",
          "name": "targets",
          "type": "address[]"
        },
        {
          "internalType": "uint256[]",
          "name": "values",
          "type": "uint256[]"
        },
        {
          "internalType": "bytes[]",
          "name": "payloads",
          "type": "bytes[]"
        }
      ],
      "name": "executeBatch",
      "outputs": [],
      "stateMutability": "nonpayable",
      "type": "function"
    },
    {
      "inputs": [
        {
          "internalType": "address",
          "name": "target",
          "type": "address"
        },
        {
          "internalType": "bytes",
          "name": "payload",
          "type": "bytes"
        }
      ],
      "name": "getHash",
      "outputs": [
        {
          "internalType": "bytes32",
          "name": "",
          "type": "bytes32"
        }
      ],
      "stateMutability": "view",
      "type": "function"
    },
    {
      "inputs": [
        {
          "internalType": "address[]",
          "name": "targets",
          "type": "address[]"
        },
        {
          "internalType": "bytes[]",
          "name": "payloads",
          "type": "bytes[]"
        },
        {
          "internalType": "uint256[]",
          "name": "values",
          "type": "uint256[]"
        }
      ],
      "name": "getHashBatch",
      "outputs": [
        {
          "internalType": "bytes32",
          "name": "",
          "type": "bytes32"
        }
      ],
      "stateMutability": "view",
      "type": "function"
    },
    {
      "inputs": [
        {
          "internalType": "uint256",
          "name": "_timelockDelay",
          "type": "uint256"
        }
      ],
      "name": "increaseTimelockDelay",
      "outputs": [],
      "stateMutability": "nonpayable",
      "type": "function"
    },
    {
      "inputs": [
        {
          "internalType": "bytes[]",
          "name": "data",
          "type": "bytes[]"
        }
      ],
      "name": "multicall",
      "outputs": [
        {
          "internalType": "bytes[]",
          "name": "results",
          "type": "bytes[]"
        }
      ],
      "stateMutability": "nonpayable",
      "type": "function"
    },
    {
      "inputs": [],
      "name": "oracleStore",
      "outputs": [
        {
          "internalType": "address",
          "name": "",
          "type": "address"
        }
      ],
      "stateMutability": "view",
      "type": "function"
    },
    {
      "inputs": [
        {
          "internalType": "address",
          "name": "account",
          "type": "address"
        },
        {
          "internalType": "bytes32",
          "name": "roleKey",
          "type": "bytes32"
        }
      ],
      "name": "revokeRole",
      "outputs": [],
      "stateMutability": "nonpayable",
      "type": "function"
    },
    {
      "inputs": [],
      "name": "roleStore",
      "outputs": [
        {
          "internalType": "contract RoleStore",
          "name": "",
          "type": "address"
        }
      ],
      "stateMutability": "view",
      "type": "function"
    },
    {
      "inputs": [
        {
          "internalType": "address",
          "name": "account",
          "type": "address"
        }
      ],
      "name": "signalAddOracleSigner",
      "outputs": [],
      "stateMutability": "nonpayable",
      "type": "function"
    },
    {
      "inputs": [
        {
          "internalType": "address",
          "name": "account",
          "type": "address"
        },
        {
          "internalType": "bytes32",
          "name": "roleKey",
          "type": "bytes32"
        }
      ],
      "name": "signalGrantRole",
      "outputs": [],
      "stateMutability": "nonpayable",
      "type": "function"
    },
    {
      "inputs": [
        {
          "internalType": "address",
          "name": "account",
          "type": "address"
        }
      ],
      "name": "signalRemoveOracleSigner",
      "outputs": [],
      "stateMutability": "nonpayable",
      "type": "function"
    },
    {
      "inputs": [
        {
          "internalType": "address",
          "name": "account",
          "type": "address"
        },
        {
          "internalType": "bytes32",
          "name": "roleKey",
          "type": "bytes32"
        }
      ],
      "name": "signalRevokeRole",
      "outputs": [],
      "stateMutability": "nonpayable",
      "type": "function"
    },
    {
      "inputs": [
        {
          "internalType": "address",
          "name": "provider",
          "type": "address"
        },
        {
          "internalType": "bool",
          "name": "value",
          "type": "bool"
        }
      ],
      "name": "signalSetAtomicOracleProvider",
      "outputs": [],
      "stateMutability": "nonpayable",
      "type": "function"
    },
    {
      "inputs": [
        {
          "internalType": "address",
          "name": "token",
          "type": "address"
        },
        {
          "internalType": "bytes32",
          "name": "feedId",
          "type": "bytes32"
        },
        {
          "internalType": "uint256",
          "name": "dataStreamMultiplier",
          "type": "uint256"
        },
        {
          "internalType": "uint256",
          "name": "dataStreamSpreadReductionFactor",
          "type": "uint256"
        }
      ],
      "name": "signalSetDataStream",
      "outputs": [],
      "stateMutability": "nonpayable",
      "type": "function"
    },
    {
      "inputs": [
        {
          "internalType": "address",
          "name": "account",
          "type": "address"
        }
      ],
      "name": "signalSetFeeReceiver",
      "outputs": [],
      "stateMutability": "nonpayable",
      "type": "function"
    },
    {
      "inputs": [
        {
          "internalType": "address",
          "name": "account",
          "type": "address"
        }
      ],
      "name": "signalSetHoldingAddress",
      "outputs": [],
      "stateMutability": "nonpayable",
      "type": "function"
    },
    {
      "inputs": [
        {
          "internalType": "address",
          "name": "provider",
          "type": "address"
        },
        {
          "internalType": "bool",
          "name": "value",
          "type": "bool"
        }
      ],
      "name": "signalSetOracleProviderEnabled",
      "outputs": [],
      "stateMutability": "nonpayable",
      "type": "function"
    },
    {
      "inputs": [
        {
          "internalType": "address",
          "name": "token",
          "type": "address"
        },
        {
          "internalType": "address",
          "name": "provider",
          "type": "address"
        }
      ],
      "name": "signalSetOracleProviderForToken",
      "outputs": [],
      "stateMutability": "nonpayable",
      "type": "function"
    },
    {
      "inputs": [
        {
          "internalType": "address",
          "name": "token",
          "type": "address"
        },
        {
          "internalType": "address",
          "name": "priceFeed",
          "type": "address"
        },
        {
          "internalType": "uint256",
          "name": "priceFeedMultiplier",
          "type": "uint256"
        },
        {
          "internalType": "uint256",
          "name": "priceFeedHeartbeatDuration",
          "type": "uint256"
        },
        {
          "internalType": "uint256",
          "name": "stablePrice",
          "type": "uint256"
        }
      ],
      "name": "signalSetPriceFeed",
      "outputs": [],
      "stateMutability": "nonpayable",
      "type": "function"
    },
    {
      "inputs": [],
      "name": "timelockController",
      "outputs": [
        {
          "internalType": "contract TimelockController",
          "name": "",
          "type": "address"
        }
      ],
      "stateMutability": "view",
      "type": "function"
    }
  ],
  "transactionHash": "0xa7f49af4c648e3135b9ffd4102aaea64577850022adc9dc859c57d97b215772c",
  "args": [
    "0x3Ab21B44cffFD87a69F909f40dD2335ff68945A8",
    "0xB558f529F97a405178E2437737F97Bb10eFadAfE",
    "0x34EEf098620a6A24303AF7f61FE9f144ba37670F",
    "0xB0681d729Fc85C93b442Eaf110A847dB8d3cF28F",
    "0xAe749760c0DAB32A15fdb9E2B99aFFFdd008b007"
  ],
  "numDeployments": 1,
  "solcInputHash": "fe20f54a93a2967e7e0b316482de6ea3",
  "bytecode": "0x6101206040523480156200001257600080fd5b5060405162004ca538038062004ca5833981016040819052620000359162000078565b6001600160a01b0391821660805293811660a05291821660e0528116610100521660c052620000f8565b6001600160a01b03811681146200007557600080fd5b50565b600080600080600060a086880312156200009157600080fd5b85516200009e816200005f565b6020870151909550620000b1816200005f565b6040870151909450620000c4816200005f565b6060870151909350620000d7816200005f565b6080870151909250620000ea816200005f565b809150509295509295909350565b60805160a05160c05160e051610100516149b6620002ef600039600081816101a8015281816104a301526110eb01526000818161022901528181610699015281816106ed0152818161074101528181610795015281816116d40152818161191401528181611968015281816119bc015281816122be015281816124e601528181612ab00152612cd801526000818161037b01528181610474015281816104ca015281816109c8015281816109fd01528181610cd501528181610f0901528181610fa1015281816110bc015281816111120152818161128d0152818161137a015281816113d0015281816115d1015281816116a5015281816116fb01528181611b8a01528181611bbf01528181611ea701528181611efd0152818161228f015281816122e5015281816124b70152818161250d015281816126c1015281816127dd0152818161280c0152818161283301528181612a8101528181612ad701528181612ca90152612cff0152600081816102c2015281816105f601528181610c3a01528181610eab0152818161123e0152818161153c0152818161185301528181611dd10152818161206901528181612411015281816126780152818161297601528181612c030152612e6a0152600081816101ef01528181610da9015281816113a901528181611ed60152612eb601526149b66000f3fe608060405234801561001057600080fd5b50600436106101335760003560e01c80630f43905d146101385780630fe29bbc1461014d5780631cff79cd14610160578063208dd1ff146101735780632a083ca314610186578063392bf7f6146101a357806347e1da2a146101d75780634a4a7b04146101ea5780635348517e14610211578063660d0d671461022457806369bc0f3b1461024b5780636c69f41d1461025e578063728ca57414610271578063781cc3d3146102845780637c326db614610297578063809c7c7e146102aa5780639ff78c30146102bd578063a9765cae146102e4578063ac9650d8146102f7578063b6b9b02f14610317578063c15ab4ec1461032a578063f03278d41461033d578063f03f388814610350578063f2ee937714610363578063f3388e7514610376575b600080fd5b61014b610146366004613505565b61039d565b005b61014b61015b366004613527565b610662565b61014b61016e366004613574565b610cac565b61014b6101813660046135f6565b610d15565b6101906206978081565b6040519081526020015b60405180910390f35b6101ca7f000000000000000000000000000000000000000000000000000000000000000081565b60405161019a9190613620565b61014b6101e536600461367f565b610ee0565b6101ca7f000000000000000000000000000000000000000000000000000000000000000081565b61019061021f36600461367f565b610f87565b6101ca7f000000000000000000000000000000000000000000000000000000000000000081565b61014b610259366004613505565b611030565b61019061026c366004613574565b611273565b61014b61027f3660046135f6565b611315565b61014b610292366004613718565b6115a9565b61014b6102a5366004613731565b611638565b61014b6102b8366004613764565b611888565b6101ca7f000000000000000000000000000000000000000000000000000000000000000081565b61014b6102f23660046135f6565b611e42565b61030a61030536600461379d565b61209e565b60405161019a9190613883565b61014b610325366004613505565b6121bc565b61014b6103383660046138a7565b612446565b61014b61034b366004613718565b6126ad565b61014b61035e366004613505565b6129ab565b61014b6103713660046138a7565b612c38565b6101ca7f000000000000000000000000000000000000000000000000000000000000000081565b6103f16040516020016103af906138de565b604051602081830303815290604052805190602001206040518060400160405280600e81526020016d2a24a6a2a627a1a5afa0a226a4a760911b815250612e9f565b6001600160a01b038116610423578060405163c1b14c9160e01b815260040161041a9190613620565b60405180910390fd5b6000816040516024016104369190613620565b6040516020818303038152906040526375896b0f60e11b6001600160e01b0319166020820180516001600160e01b03838183161783525050505090507f00000000000000000000000000000000000000000000000000000000000000006001600160a01b03166301d5062a7f00000000000000000000000000000000000000000000000000000000000000006000846000807f00000000000000000000000000000000000000000000000000000000000000006001600160a01b031663f27a0c926040518163ffffffff1660e01b8152600401602060405180830381865afa158015610526573d6000803e3d6000fd5b505050506040513d601f19601f8201168201806040525081019061054a9190613906565b6040518763ffffffff1660e01b815260040161056b9695949392919061391f565b600060405180830381600087803b15801561058557600080fd5b505af1158015610599573d6000803e3d6000fd5b505050506105a56133f8565b80516105b2906001612f53565b6040805180820190915260078152661858d8dbdd5b9d60ca1b602082015281516105df9160009086612fb8565b60405163483624fb60e11b81526001600160a01b037f0000000000000000000000000000000000000000000000000000000000000000169063906c49f69061062b90849060040161424a565b600060405180830381600087803b15801561064557600080fd5b505af1158015610659573d6000803e3d6000fd5b50505050505050565b6106746040516020016103af906138de565b60408051600480825260a08201909252600091602082016080803683370190505090507f0000000000000000000000000000000000000000000000000000000000000000816000815181106106cb576106cb61429f565b60200260200101906001600160a01b031690816001600160a01b0316815250507f00000000000000000000000000000000000000000000000000000000000000008160018151811061071f5761071f61429f565b60200260200101906001600160a01b031690816001600160a01b0316815250507f0000000000000000000000000000000000000000000000000000000000000000816002815181106107735761077361429f565b60200260200101906001600160a01b031690816001600160a01b0316815250507f0000000000000000000000000000000000000000000000000000000000000000816003815181106107c7576107c761429f565b6001600160a01b03929092166020928302919091019091015260408051600480825260a08201909252600091816020015b60608152602001906001900390816107f857905050905061081887613015565b8660405160240161082a9291906142b5565b60408051601f198184030181529190526020810180516001600160e01b031663ca446dd960e01b179052815182906000906108675761086761429f565b602002602001018190525061087b8761308a565b8560405160240161088d9291906142cc565b60408051601f198184030181529190526020810180516001600160e01b0316637152429d60e11b1790528151829060019081106108cc576108cc61429f565b60200260200101819052506108e0876130c5565b846040516024016108f29291906142cc565b60408051601f198184030181529190526020810180516001600160e01b0316637152429d60e11b1790528151829060029081106109315761093161429f565b602002602001018190525061094587613108565b836040516024016109579291906142cc565b60408051601f198184030181529190526020810180516001600160e01b0316637152429d60e11b1790528151829060039081106109965761099661429f565b602090810291909101015260408051600480825260a082019092526000918160200160208202803683370190505090507f00000000000000000000000000000000000000000000000000000000000000006001600160a01b0316638f2a0bb08483856000807f00000000000000000000000000000000000000000000000000000000000000006001600160a01b031663f27a0c926040518163ffffffff1660e01b8152600401602060405180830381865afa158015610a59573d6000803e3d6000fd5b505050506040513d601f19601f82011682018060405250810190610a7d9190613906565b6040518763ffffffff1660e01b8152600401610a9e969594939291906142da565b600060405180830381600087803b158015610ab857600080fd5b505af1158015610acc573d6000803e3d6000fd5b50505050610ad86133f8565b8051610ae5906002612f53565b6040805180820190915260058152643a37b5b2b760d91b60208201528151610b10916000908c612fb8565b6040805180820190915260098152681c1c9a58d95199595960ba1b60208201528151610b3f916001908b612fb8565b6020810151610b4f906003612f53565b610b96600060405180604001604052806013815260200172383934b1b2a332b2b226bab63a34b83634b2b960691b81525089846020015161313a909392919063ffffffff16565b610be460016040518060400160405280601a815260200179383934b1b2a332b2b22432b0b93a3132b0ba223ab930ba34b7b760311b81525088846020015161313a909392919063ffffffff16565b610c2360026040518060400160405280600b81526020016a737461626c65507269636560a81b81525087846020015161313a909392919063ffffffff16565b60405163483624fb60e11b81526001600160a01b037f0000000000000000000000000000000000000000000000000000000000000000169063906c49f690610c6f908490600401614332565b600060405180830381600087803b158015610c8957600080fd5b505af1158015610c9d573d6000803e3d6000fd5b50505050505050505050505050565b610cbe6040516020016103af906138de565b60405163134008d360e01b81526001600160a01b037f0000000000000000000000000000000000000000000000000000000000000000169063134008d39061062b9086906000908790879083908190600401614397565b610d92604051602001610d4d9060208082526011908201527054494d454c4f434b5f4d554c544953494760781b604082015260600190565b604051602081830303815290604052805190602001206040518060400160405280601181526020017054494d454c4f434b5f4d554c544953494760781b815250612e9f565b60405163208dd1ff60e01b81526001600160a01b037f0000000000000000000000000000000000000000000000000000000000000000169063208dd1ff90610de090859085906004016143d4565b600060405180830381600087803b158015610dfa57600080fd5b505af1158015610e0e573d6000803e3d6000fd5b50505050610e1a6133f8565b8051610e27906001612f53565b6040805180820190915260078152661858d8dbdd5b9d60ca1b60208201528151610e549160009086612fb8565b6080810151610e64906001612f53565b604080518082019091526007815266726f6c654b657960c81b60208201526080820151610e94916000908561313a565b60405163483624fb60e11b81526001600160a01b037f0000000000000000000000000000000000000000000000000000000000000000169063906c49f69061062b9084906004016143ed565b610ef26040516020016103af906138de565b60405163e38335e560e01b81526001600160a01b037f0000000000000000000000000000000000000000000000000000000000000000169063e38335e590610f4d9089908990899089908990899060009081906004016144a5565b600060405180830381600087803b158015610f6757600080fd5b505af1158015610f7b573d6000803e3d6000fd5b50505050505050505050565b60405163b1c5f42760e01b81526000906001600160a01b037f0000000000000000000000000000000000000000000000000000000000000000169063b1c5f42790610fe4908a908a90889088908c908c908a9081906004016144a5565b602060405180830381865afa158015611001573d6000803e3d6000fd5b505050506040513d601f19601f820116820180604052508101906110259190613906565b979650505050505050565b6110426040516020016103af906138de565b6001600160a01b03811661106b578060405163c1b14c9160e01b815260040161041a9190613620565b60008160405160240161107e9190613620565b604051602081830303815290604052630e316ab760e01b6001600160e01b0319166020820180516001600160e01b03838183161783525050505090507f00000000000000000000000000000000000000000000000000000000000000006001600160a01b03166301d5062a7f00000000000000000000000000000000000000000000000000000000000000006000846000807f00000000000000000000000000000000000000000000000000000000000000006001600160a01b031663f27a0c926040518163ffffffff1660e01b8152600401602060405180830381865afa15801561116e573d6000803e3d6000fd5b505050506040513d601f19601f820116820180604052508101906111929190613906565b6040518763ffffffff1660e01b81526004016111b39695949392919061391f565b600060405180830381600087803b1580156111cd57600080fd5b505af11580156111e1573d6000803e3d6000fd5b505050506111ed6133f8565b80516111fa906001612f53565b6040805180820190915260078152661858d8dbdd5b9d60ca1b602082015281516112279160009086612fb8565b60405163483624fb60e11b81526001600160a01b037f0000000000000000000000000000000000000000000000000000000000000000169063906c49f69061062b908490600401614546565b604051638065657f60e01b81526000906001600160a01b037f00000000000000000000000000000000000000000000000000000000000000001690638065657f906112cc90879085908890889083908190600401614397565b602060405180830381865afa1580156112e9573d6000803e3d6000fd5b505050506040513d601f19601f8201168201806040525081019061130d9190613906565b949350505050565b6113276040516020016103af906138de565b6000828260405160240161133c9291906143d4565b60405160208183030381529060405263208dd1ff60e01b6001600160e01b0319166020820180516001600160e01b03838183161783525050505090507f00000000000000000000000000000000000000000000000000000000000000006001600160a01b03166301d5062a7f00000000000000000000000000000000000000000000000000000000000000006000846000807f00000000000000000000000000000000000000000000000000000000000000006001600160a01b031663f27a0c926040518163ffffffff1660e01b8152600401602060405180830381865afa15801561142c573d6000803e3d6000fd5b505050506040513d601f19601f820116820180604052508101906114509190613906565b6040518763ffffffff1660e01b81526004016114719695949392919061391f565b600060405180830381600087803b15801561148b57600080fd5b505af115801561149f573d6000803e3d6000fd5b505050506114ab6133f8565b80516114b8906001612f53565b6040805180820190915260078152661858d8dbdd5b9d60ca1b602082015281516114e59160009087612fb8565b60808101516114f5906001612f53565b604080518082019091526007815266726f6c654b657960c81b60208201526080820151611525916000908661313a565b60405163483624fb60e11b81526001600160a01b037f0000000000000000000000000000000000000000000000000000000000000000169063906c49f690611571908490600401614588565b600060405180830381600087803b15801561158b57600080fd5b505af115801561159f573d6000803e3d6000fd5b5050505050505050565b6115bb6040516020016103af906138de565b60405163c4d252f560e01b8152600481018290527f00000000000000000000000000000000000000000000000000000000000000006001600160a01b03169063c4d252f590602401600060405180830381600087803b15801561161d57600080fd5b505af1158015611631573d6000803e3d6000fd5b5050505050565b61164a6040516020016103af906138de565b60006116558361318d565b826040516024016116679291906142b5565b60405160208183030381529060405263ca446dd960e01b6001600160e01b0319166020820180516001600160e01b03838183161783525050505090507f00000000000000000000000000000000000000000000000000000000000000006001600160a01b03166301d5062a7f00000000000000000000000000000000000000000000000000000000000000006000846000807f00000000000000000000000000000000000000000000000000000000000000006001600160a01b031663f27a0c926040518163ffffffff1660e01b8152600401602060405180830381865afa158015611757573d6000803e3d6000fd5b505050506040513d601f19601f8201168201806040525081019061177b9190613906565b6040518763ffffffff1660e01b815260040161179c9695949392919061391f565b600060405180830381600087803b1580156117b657600080fd5b505af11580156117ca573d6000803e3d6000fd5b505050506117d66133f8565b80516117e3906002612f53565b6040805180820190915260058152643a37b5b2b760d91b6020820152815161180e9160009087612fb8565b604080518082019091526008815267383937bb34b232b960c11b6020820152815161183c9160019086612fb8565b60405163483624fb60e11b81526001600160a01b037f0000000000000000000000000000000000000000000000000000000000000000169063906c49f6906115719084906004016145c2565b61189a6040516020016103af906138de565b68327cb2734119d3b7a9601e1b8111156118ef576040516020016118bd90614609565b6040516020818303038152906040528051906020012081604051635ebb87c960e01b815260040161041a9291906142cc565b60408051600380825260808201909252600091602082016060803683370190505090507f0000000000000000000000000000000000000000000000000000000000000000816000815181106119465761194661429f565b60200260200101906001600160a01b031690816001600160a01b0316815250507f00000000000000000000000000000000000000000000000000000000000000008160018151811061199a5761199a61429f565b60200260200101906001600160a01b031690816001600160a01b0316815250507f0000000000000000000000000000000000000000000000000000000000000000816002815181106119ee576119ee61429f565b6001600160a01b03929092166020928302919091019091015260408051600380825260808201909252600091816020015b6060815260200190600190039081611a1f579050509050611a3f866131cc565b85604051602401611a519291906142cc565b60408051601f198184030181529190526020810180516001600160e01b03166309d23b6160e31b17905281518290600090611a8e57611a8e61429f565b6020026020010181905250611aa286613200565b84604051602401611ab49291906142cc565b60408051601f198184030181529190526020810180516001600160e01b0316637152429d60e11b179052815182906001908110611af357611af361429f565b6020026020010181905250611b078661323c565b83604051602401611b199291906142cc565b60408051601f198184030181529190526020810180516001600160e01b0316637152429d60e11b179052815182906002908110611b5857611b5861429f565b6020908102919091010152604080516003808252608082019092526000918160200160208202803683370190505090507f00000000000000000000000000000000000000000000000000000000000000006001600160a01b0316638f2a0bb08483856000807f00000000000000000000000000000000000000000000000000000000000000006001600160a01b031663f27a0c926040518163ffffffff1660e01b8152600401602060405180830381865afa158015611c1b573d6000803e3d6000fd5b505050506040513d601f19601f82011682018060405250810190611c3f9190613906565b6040518763ffffffff1660e01b8152600401611c60969594939291906142da565b600060405180830381600087803b158015611c7a57600080fd5b505af1158015611c8e573d6000803e3d6000fd5b50505050611c9a6133f8565b8051611ca7906001612f53565b6040805180820190915260058152643a37b5b2b760d91b60208201528151611cd2916000908b612fb8565b6080810151611ce2906001612f53565b60408051808201909152600681526519995959125960d21b60208201526080820151611d11916000908a61313a565b6020810151611d21906002612f53565b611d696000604051806040016040528060148152602001733230ba30a9ba3932b0b6a6bab63a34b83634b2b960611b81525088846020015161313a909392919063ffffffff16565b611dba60016040518060400160405280601f81526020017f6461746153747265616d537072656164526564756374696f6e466163746f720081525087846020015161313a909392919063ffffffff16565b60405163483624fb60e11b81526001600160a01b037f0000000000000000000000000000000000000000000000000000000000000000169063906c49f690611e0690849060040161464c565b600060405180830381600087803b158015611e2057600080fd5b505af1158015611e34573d6000803e3d6000fd5b505050505050505050505050565b611e546040516020016103af906138de565b60008282604051602401611e699291906143d4565b604051602081830303815290604052632ac9d0b760e21b6001600160e01b0319166020820180516001600160e01b03838183161783525050505090507f00000000000000000000000000000000000000000000000000000000000000006001600160a01b03166301d5062a7f00000000000000000000000000000000000000000000000000000000000000006000846000807f00000000000000000000000000000000000000000000000000000000000000006001600160a01b031663f27a0c926040518163ffffffff1660e01b8152600401602060405180830381865afa158015611f59573d6000803e3d6000fd5b505050506040513d601f19601f82011682018060405250810190611f7d9190613906565b6040518763ffffffff1660e01b8152600401611f9e9695949392919061391f565b600060405180830381600087803b158015611fb857600080fd5b505af1158015611fcc573d6000803e3d6000fd5b50505050611fd86133f8565b8051611fe5906001612f53565b6040805180820190915260078152661858d8dbdd5b9d60ca1b602082015281516120129160009087612fb8565b6080810151612022906001612f53565b604080518082019091526007815266726f6c654b657960c81b60208201526080820151612052916000908661313a565b60405163483624fb60e11b81526001600160a01b037f0000000000000000000000000000000000000000000000000000000000000000169063906c49f690611571908490600401614689565b6060816001600160401b038111156120b8576120b8614289565b6040519080825280602002602001820160405280156120eb57816020015b60608152602001906001900390816120d65790505b50905060005b828110156121b5576000803086868581811061210f5761210f61429f565b905060200281019061212191906146c2565b60405161212f929190614708565b600060405180830381855af49150503d806000811461216a576040519150601f19603f3d011682016040523d82523d6000602084013e61216f565b606091505b509150915081612182576121828161324d565b808484815181106121955761219561429f565b6020026020010181905250505080806121ad90614718565b9150506120f1565b5092915050565b6121ce6040516020016103af906138de565b6001600160a01b0381166121f7578060405163cb9339d560e01b815260040161041a9190613620565b6000604051602001612229906020808252600c908201526b2322a2afa922a1a2a4ab22a960a11b604082015260600190565b60405160208183030381529060405280519060200120826040516024016122519291906142b5565b60405160208183030381529060405263ca446dd960e01b6001600160e01b0319166020820180516001600160e01b03838183161783525050505090507f00000000000000000000000000000000000000000000000000000000000000006001600160a01b03166301d5062a7f00000000000000000000000000000000000000000000000000000000000000006000846000807f00000000000000000000000000000000000000000000000000000000000000006001600160a01b031663f27a0c926040518163ffffffff1660e01b8152600401602060405180830381865afa158015612341573d6000803e3d6000fd5b505050506040513d601f19601f820116820180604052508101906123659190613906565b6040518763ffffffff1660e01b81526004016123869695949392919061391f565b600060405180830381600087803b1580156123a057600080fd5b505af11580156123b4573d6000803e3d6000fd5b505050506123c06133f8565b80516123cd906001612f53565b6040805180820190915260078152661858d8dbdd5b9d60ca1b602082015281516123fa9160009086612fb8565b60405163483624fb60e11b81526001600160a01b037f0000000000000000000000000000000000000000000000000000000000000000169063906c49f69061062b90849060040161473f565b6124586040516020016103af906138de565b60006124638361328b565b6040516024810191909152821515604482015260640160405160208183030381529060405263abfdcced60e01b6001600160e01b0319166020820180516001600160e01b03838183161783525050505090507f00000000000000000000000000000000000000000000000000000000000000006001600160a01b03166301d5062a7f00000000000000000000000000000000000000000000000000000000000000006000846000807f00000000000000000000000000000000000000000000000000000000000000006001600160a01b031663f27a0c926040518163ffffffff1660e01b8152600401602060405180830381865afa158015612569573d6000803e3d6000fd5b505050506040513d601f19601f8201168201806040525081019061258d9190613906565b6040518763ffffffff1660e01b81526004016125ae9695949392919061391f565b600060405180830381600087803b1580156125c857600080fd5b505af11580156125dc573d6000803e3d6000fd5b505050506125e86133f8565b80516125f5906001612f53565b604080518082019091526008815267383937bb34b232b960c11b602082015281516126239160009087612fb8565b6060810151612633906001612f53565b60408051808201909152600581526476616c756560d81b6020820152606082015161266191600090866132cb565b60405163483624fb60e11b81526001600160a01b037f0000000000000000000000000000000000000000000000000000000000000000169063906c49f69061157190849060040161477d565b6126bf6040516020016103af906138de565b7f00000000000000000000000000000000000000000000000000000000000000006001600160a01b031663f27a0c926040518163ffffffff1660e01b8152600401602060405180830381865afa15801561271d573d6000803e3d6000fd5b505050506040513d601f19601f820116820180604052508101906127419190613906565b8111612763576040516373586edb60e11b81526004810182905260240161041a565b6206978081111561278a57604051633ebd9bc360e21b81526004810182905260240161041a565b60008160405160240161279f91815260200190565b6040516020818303038152906040526364d6235360e01b6001600160e01b0319166020820180516001600160e01b03838183161783525050505090507f00000000000000000000000000000000000000000000000000000000000000006001600160a01b03166301d5062a7f00000000000000000000000000000000000000000000000000000000000000006000846000807f00000000000000000000000000000000000000000000000000000000000000006001600160a01b031663f27a0c926040518163ffffffff1660e01b8152600401602060405180830381865afa15801561288f573d6000803e3d6000fd5b505050506040513d601f19601f820116820180604052508101906128b39190613906565b6040518763ffffffff1660e01b81526004016128d49695949392919061391f565b600060405180830381600087803b1580156128ee57600080fd5b505af1158015612902573d6000803e3d6000fd5b5050505061290e6133f8565b602081015161291e906001612f53565b61295f60006040518060400160405280600d81526020016c74696d656c6f636b44656c617960981b81525085846020015161313a909392919063ffffffff16565b60405163483624fb60e11b81526001600160a01b037f0000000000000000000000000000000000000000000000000000000000000000169063906c49f69061062b9084906004016147c4565b6129bd6040516020016103af906138de565b6001600160a01b0381166129e65780604051630f773b1f60e31b815260040161041a9190613620565b6000604051602001612a1b906020808252600f908201526e484f4c44494e475f4144445245535360881b604082015260600190565b6040516020818303038152906040528051906020012082604051602401612a439291906142b5565b60405160208183030381529060405263ca446dd960e01b6001600160e01b0319166020820180516001600160e01b03838183161783525050505090507f00000000000000000000000000000000000000000000000000000000000000006001600160a01b03166301d5062a7f00000000000000000000000000000000000000000000000000000000000000006000846000807f00000000000000000000000000000000000000000000000000000000000000006001600160a01b031663f27a0c926040518163ffffffff1660e01b8152600401602060405180830381865afa158015612b33573d6000803e3d6000fd5b505050506040513d601f19601f82011682018060405250810190612b579190613906565b6040518763ffffffff1660e01b8152600401612b789695949392919061391f565b600060405180830381600087803b158015612b9257600080fd5b505af1158015612ba6573d6000803e3d6000fd5b50505050612bb26133f8565b8051612bbf906001612f53565b6040805180820190915260078152661858d8dbdd5b9d60ca1b60208201528151612bec9160009086612fb8565b60405163483624fb60e11b81526001600160a01b037f0000000000000000000000000000000000000000000000000000000000000000169063906c49f69061062b908490600401614803565b612c4a6040516020016103af906138de565b6000612c5583613320565b6040516024810191909152821515604482015260640160405160208183030381529060405263abfdcced60e01b6001600160e01b0319166020820180516001600160e01b03838183161783525050505090507f00000000000000000000000000000000000000000000000000000000000000006001600160a01b03166301d5062a7f00000000000000000000000000000000000000000000000000000000000000006000846000807f00000000000000000000000000000000000000000000000000000000000000006001600160a01b031663f27a0c926040518163ffffffff1660e01b8152600401602060405180830381865afa158015612d5b573d6000803e3d6000fd5b505050506040513d601f19601f82011682018060405250810190612d7f9190613906565b6040518763ffffffff1660e01b8152600401612da09695949392919061391f565b600060405180830381600087803b158015612dba57600080fd5b505af1158015612dce573d6000803e3d6000fd5b50505050612dda6133f8565b8051612de7906001612f53565b604080518082019091526008815267383937bb34b232b960c11b60208201528151612e159160009087612fb8565b6060810151612e25906001612f53565b60408051808201909152600581526476616c756560d81b60208201526060820151612e5391600090866132cb565b60405163483624fb60e11b81526001600160a01b037f0000000000000000000000000000000000000000000000000000000000000000169063906c49f690611571908490600401614844565b60405163ac4ab3fb60e01b81526001600160a01b037f0000000000000000000000000000000000000000000000000000000000000000169063ac4ab3fb90612eed90339086906004016143d4565b602060405180830381865afa158015612f0a573d6000803e3d6000fd5b505050506040513d601f19601f82011682018060405250810190612f2e919061488b565b612f4f57338160405163a35b150b60e01b815260040161041a9291906148a8565b5050565b806001600160401b03811115612f6b57612f6b614289565b604051908082528060200260200182016040528015612fb157816020015b604080518082019091526060815260006020820152815260200190600190039081612f895790505b5090915250565b8184600001518481518110612fcf57612fcf61429f565b6020026020010151600001819052508084600001518481518110612ff557612ff561429f565b6020908102919091018101516001600160a01b0390921691015250505050565b6000604051602001613045906020808252600a908201526914149250d157d191515160b21b604082015260600190565b604051602081830303815290604052805190602001208260405160200161306d9291906142b5565b604051602081830303815290604052805190602001209050919050565b600060405160200161304590602080825260159082015274282924a1a2afa322a2a22fa6aaa62a24a82624a2a960591b604082015260600190565b6000604051602001613045906020808252601d908201527f50524943455f464545445f4845415254424541545f4455524154494f4e000000604082015260600190565b6000604051602001613045906020808252600c908201526b535441424c455f505249434560a01b604082015260600190565b81846000015184815181106131515761315161429f565b60200260200101516000018190525080846000015184815181106131775761317761429f565b6020026020010151602001818152505050505050565b60006040516020016130459060208082526019908201527827a920a1a622afa82927ab24a222a92fa327a92faa27a5a2a760391b604082015260600190565b6000604051602001613045906020808252600e908201526d1110551057d4d51491505357d25160921b604082015260600190565b6000604051602001613045906020808252601690820152752220aa20afa9aa2922a0a6afa6aaa62a24a82624a2a960511b604082015260600190565b600060405160200161304590614609565b6000806132598361335f565b91509150801561327d578160405162461bcd60e51b815260040161041a91906148cc565b613286836133ef565b505050565b6000604051602001613045906020808252601a90820152791254d7d3d49050d31157d41493d59251115497d153905093115160321b604082015260600190565b81846000015184815181106132e2576132e261429f565b60200260200101516000018190525080846000015184815181106133085761330861429f565b60209081029190910181015191151591015250505050565b60006040516020016130459060208082526019908201527824a9afa0aa27a6a4a1afa7a920a1a622afa82927ab24a222a960391b604082015260600190565b60606000604483511015613386575050604080516020810190915260008082529092909150565b6000613393846020015190565b90506307b9e43360e51b6001600160e01b03198216016133d257600484019350838060200190518101906133c791906148df565b946001945092505050565b600060405180602001604052806000815250909250925050915091565b80518060208301fd5b604080516101208101909152606060e082018181526101008301919091528190815260200161343a604051806040016040528060608152602001606081525090565b815260200161345c604051806040016040528060608152602001606081525090565b815260200161347e604051806040016040528060608152602001606081525090565b81526020016134a0604051806040016040528060608152602001606081525090565b81526020016134c2604051806040016040528060608152602001606081525090565b81526020016134e4604051806040016040528060608152602001606081525090565b905290565b80356001600160a01b038116811461350057600080fd5b919050565b60006020828403121561351757600080fd5b613520826134e9565b9392505050565b600080600080600060a0868803121561353f57600080fd5b613548866134e9565b9450613556602087016134e9565b94979496505050506040830135926060810135926080909101359150565b60008060006040848603121561358957600080fd5b613592846134e9565b925060208401356001600160401b03808211156135ae57600080fd5b818601915086601f8301126135c257600080fd5b8135818111156135d157600080fd5b8760208285010111156135e357600080fd5b6020830194508093505050509250925092565b6000806040838503121561360957600080fd5b613612836134e9565b946020939093013593505050565b6001600160a01b0391909116815260200190565b60008083601f84011261364657600080fd5b5081356001600160401b0381111561365d57600080fd5b6020830191508360208260051b850101111561367857600080fd5b9250929050565b6000806000806000806060878903121561369857600080fd5b86356001600160401b03808211156136af57600080fd5b6136bb8a838b01613634565b909850965060208901359150808211156136d457600080fd5b6136e08a838b01613634565b909650945060408901359150808211156136f957600080fd5b5061370689828a01613634565b979a9699509497509295939492505050565b60006020828403121561372a57600080fd5b5035919050565b6000806040838503121561374457600080fd5b61374d836134e9565b915061375b602084016134e9565b90509250929050565b6000806000806080858703121561377a57600080fd5b613783856134e9565b966020860135965060408601359560600135945092505050565b600080602083850312156137b057600080fd5b82356001600160401b038111156137c657600080fd5b6137d285828601613634565b90969095509350505050565b60005b838110156137f95781810151838201526020016137e1565b50506000910152565b6000815180845261381a8160208601602086016137de565b601f01601f19169290920160200192915050565b600081518084526020808501808196508360051b8101915082860160005b85811015613876578284038952613864848351613802565b9885019893509084019060010161384c565b5091979650505050505050565b602081526000613520602083018461382e565b80151581146138a457600080fd5b50565b600080604083850312156138ba57600080fd5b6138c3836134e9565b915060208301356138d381613896565b809150509250929050565b6020808252600e908201526d2a24a6a2a627a1a5afa0a226a4a760911b604082015260600190565b60006020828403121561391857600080fd5b5051919050565b60018060a01b038716815285602082015260c06040820152600061394660c0830187613802565b606083019590955250608081019290925260a0909101529392505050565b600081518084526020808501945080840160005b8381101561399d5781516001600160a01b031687529582019590820190600101613978565b509495945050505050565b600081518084526020808501808196508360051b8101915082860160005b858110156138765782840389528151604081518187526139e882880182613802565b91505086820151915085810387870152613a028183613964565b9a87019a95505050908401906001016139c6565b60006040808401835182865281815180845260608801915060608160051b89010193506020808401935060005b82811015613a8d57898603605f1901845284518051888852613a6789890182613802565b918401516001600160a01b03169784019790975295509381019392810192600101613a43565b50808801519550888503818a015250505050613aa981836139a8565b95945050505050565b600081518084526020808501945080840160005b8381101561399d57815187529582019590820190600101613ac6565b600081518084526020808501808196508360051b8101915082860160005b85811015613876578284038952815160408151818752613b2282880182613802565b91505086820151915085810387870152613b3c8183613ab2565b9a87019a9550505090840190600101613b00565b60006040808401835182865281815180845260608801915060608160051b89010193506020808401935060005b82811015613bbe57898603605f1901845284518051888852613ba189890182613802565b918401519784019790975295509381019392810192600101613b7d565b50808801519550888503818a015250505050613aa98183613ae2565b600081518084526020808501808196508360051b810191508286016000805b86811015613c6c578385038a52825160408151818852613c1b82890182613802565b92890151888403898b01528051808552908a01938693508a0191505b80831015613c575783518252928901926001929092019190890190613c37565b509b88019b9650505091850191600101613bf9565b509298975050505050505050565b60006040808401835182865281815180845260608801915060608160051b89010193506020808401935060005b82811015613ce857898603605f1901845284518051888852613ccb89890182613802565b918401519784019790975295509381019392810192600101613ca7565b50808801519550888503818a015250505050613aa98183613bda565b600081518084526020808501808196508360051b810191508286016000805b86811015613c6c578385038a52825160408151818852613d4582890182613802565b92890151888403898b01528051808552908a01938693508a0191505b80831015613d8357835115158252928901926001929092019190890190613d61565b509b88019b9650505091850191600101613d23565b60006040808401835182865281815180845260608801915060608160051b89010193506020808401935060005b82811015613e0857898603605f1901845284518051888852613de989890182613802565b9184015115159784019790975295509381019392810192600101613dc5565b50808801519550888503818a015250505050613aa98183613d04565b600081518084526020808501808196508360051b810191508286016000805b86811015613c6c578385038a52825160408151818852613e6582890182613802565b92890151888403898b01528051808552908a01938693508a0191505b80831015613ea15783518252928901926001929092019190890190613e81565b509b88019b9650505091850191600101613e43565b60006040808401835182865281815180845260608801915060608160051b89010193506020808401935060005b82811015613f2457898603605f1901845284518051888852613f0789890182613802565b918401519784019790975295509381019392810192600101613ee3565b50808801519550888503818a015250505050613aa98183613e24565b600081518084526020808501808196508360051b8101915082860160005b85811015613876578284038952815160408151818752613f8082880182613802565b91505086820151915085810387870152613f9a818361382e565b9a87019a9550505090840190600101613f5e565b60006040808401835182865281815180845260608801915060608160051b89010193506020808401935060005b8281101561402b57898603605f1901845284518051888852613fff89890182613802565b91840151888303898601529190506140178183613802565b975050509381019392810192600101613fdb565b50808801519550888503818a015250505050613aa98183613f40565b600081518084526020808501808196506005915083821b81018387016000805b878110156140f2578484038b5282516040815181875261408982880182613802565b928a0151878403888c01528051808552908b019392508a83019150808a1b83018b01865b828110156140db57601f198583030184526140c9828751613802565b958d0195938d019391506001016140ad565b509e8b019e97505050938801935050600101614067565b50919998505050505050505050565b60006040808401835182865281815180845260608801915060608160051b89010193506020808401935060005b8281101561417e57898603605f190184528451805188885261415289890182613802565b918401518883038986015291905061416a8183613802565b97505050938101939281019260010161412e565b50808801519550888503818a015250505050613aa98183614047565b6000815160e084526141af60e0850182613a16565b9050602083015184820360208601526141c88282613b50565b915050604083015184820360408601526141e28282613c7a565b915050606083015184820360608601526141fc8282613d98565b915050608083015184820360808601526142168282613eb6565b91505060a083015184820360a08601526142308282613fae565b91505060c083015184820360c0860152613aa98282614101565b60408152601560408201527429b4b3b730b620b23227b930b1b632a9b4b3b732b960591b6060820152608060208201526000613520608083018461419a565b634e487b7160e01b600052604160045260246000fd5b634e487b7160e01b600052603260045260246000fd5b9182526001600160a01b0316602082015260400190565b918252602082015260400190565b60c0815260006142ed60c0830189613964565b82810360208401526142ff8189613ab2565b90508281036040840152614313818861382e565b60608401969096525050608081019290925260a0909101529392505050565b60408152601260408201527114da59db985b14d95d141c9a58d95199595960721b6060820152608060208201526000613520608083018461419a565b81835281816020850137506000828201602090810191909152601f909101601f19169091010190565b60018060a01b038716815285602082015260a0604082015260006143bf60a08301868861436e565b60608301949094525060800152949350505050565b6001600160a01b03929092168252602082015260400190565b60408152600a6040820152695265766f6b65526f6c6560b01b6060820152608060208201526000613520608083018461419a565b81835260006020808501808196508560051b810191508460005b878110156138765782840389528135601e1988360301811261445c57600080fd5b870185810190356001600160401b0381111561447757600080fd5b80360382131561448657600080fd5b61449186828461436e565b9a87019a955050509084019060010161443b565b60a0808252810188905260008960c08301825b8b8110156144e6576001600160a01b036144d1846134e9565b168252602092830192909101906001016144b8565b5083810360208501528881526001600160fb1b0389111561450657600080fd5b8860051b9150818a6020830137018281036020908101604085015261452e9082018789614421565b60608401959095525050608001529695505050505050565b60408152601860408201527729b4b3b730b62932b6b7bb32a7b930b1b632a9b4b3b732b960411b6060820152608060208201526000613520608083018461419a565b60408152601060408201526f5369676e616c5265766f6b65526f6c6560801b6060820152608060208201526000613520608083018461419a565b60408152601f60408201527f5369676e616c5365744f7261636c6550726f7669646572466f72546f6b656e006060820152608060208201526000613520608083018461419a565b60208082526023908201527f444154415f53545245414d5f5350524541445f524544554354494f4e5f4641436040820152622a27a960e91b606082015260800190565b6040815260136040820152725369676e616c5365744461746153747265616d60681b6060820152608060208201526000613520608083018461419a565b60408152600f60408201526e5369676e616c4772616e74526f6c6560881b6060820152608060208201526000613520608083018461419a565b6000808335601e198436030181126146d957600080fd5b8301803591506001600160401b038211156146f357600080fd5b60200191503681900382131561367857600080fd5b8183823760009101908152919050565b60006001820161473857634e487b7160e01b600052601160045260246000fd5b5060010190565b60408152601460408201527329b4b3b730b629b2ba2332b2a932b1b2b4bb32b960611b6060820152608060208201526000613520608083018461419a565b60408152601e60408201527f5369676e616c5365744f7261636c6550726f7669646572456e61626c656400006060820152608060208201526000613520608083018461419a565b604081526015604082015274496e63726561736554696d656c6f636b44656c617960581b6060820152608060208201526000613520608083018461419a565b6040815260176040820152765369676e616c536574486f6c64696e674164647265737360481b6060820152608060208201526000613520608083018461419a565b60408152601d60408201527f5369676e616c53657441746f6d69634f7261636c6550726f76696465720000006060820152608060208201526000613520608083018461419a565b60006020828403121561489d57600080fd5b815161352081613896565b6001600160a01b038316815260406020820181905260009061130d90830184613802565b6020815260006135206020830184613802565b6000602082840312156148f157600080fd5b81516001600160401b038082111561490857600080fd5b818401915084601f83011261491c57600080fd5b81518181111561492e5761492e614289565b604051601f8201601f19908116603f0116810190838211818310171561495657614956614289565b8160405282815287602084870101111561496f57600080fd5b6110258360208301602088016137de56fea26469706673582212200c303d6955865065d1fa270b4ee36f2483faf3923db41804b2134679474fb72064736f6c63430008140033",
  "libraries": {},
  "devdoc": {
    "kind": "dev",
    "methods": {
      "multicall(bytes[])": {
        "details": "Receives and executes a batch of function calls on this contract."
      }
    },
    "version": 1
  },
  "userdoc": {
    "kind": "user",
    "methods": {},
    "version": 1
  },
  "storageLayout": {
    "storage": [],
    "types": null
  }
}