{
  "address": "0x31eF83a530Fde1B38EE9A18093A333D8Bbbc40D5",
  "abi": [
    {
      "inputs": [
        {
          "internalType": "contract RoleStore",
          "name": "_roleStore",
          "type": "address"
        },
        {
          "internalType": "contract DataStore",
          "name": "_dataStore",
          "type": "address"
        },
        {
          "internalType": "contract EventEmitter",
          "name": "_eventEmitter",
          "type": "address"
        }
      ],
      "stateMutability": "nonpayable",
      "type": "constructor"
    },
    {
      "inputs": [
        {
          "internalType": "bytes32",
          "name": "baseKey",
          "type": "bytes32"
        }
      ],
      "name": "InvalidBaseKey",
      "type": "error"
    },
    {
      "inputs": [
        {
          "internalType": "bytes32",
          "name": "baseKey",
          "type": "bytes32"
        },
        {
          "internalType": "uint256",
          "name": "value",
          "type": "uint256"
        }
      ],
      "name": "InvalidFeeFactor",
      "type": "error"
    },
    {
      "inputs": [
        {
          "internalType": "address",
          "name": "msgSender",
          "type": "address"
        },
        {
          "internalType": "string",
          "name": "role",
          "type": "string"
        }
      ],
      "name": "Unauthorized",
      "type": "error"
    },
    {
      "inputs": [],
      "name": "MAX_FEE_FACTOR",
      "outputs": [
        {
          "internalType": "uint256",
          "name": "",
          "type": "uint256"
        }
      ],
      "stateMutability": "view",
      "type": "function"
    },
    {
      "inputs": [
        {
          "internalType": "bytes32",
          "name": "",
          "type": "bytes32"
        }
      ],
      "name": "allowedBaseKeys",
      "outputs": [
        {
          "internalType": "bool",
          "name": "",
          "type": "bool"
        }
      ],
      "stateMutability": "view",
      "type": "function"
    },
    {
      "inputs": [],
      "name": "dataStore",
      "outputs": [
        {
          "internalType": "contract DataStore",
          "name": "",
          "type": "address"
        }
      ],
      "stateMutability": "view",
      "type": "function"
    },
    {
      "inputs": [],
      "name": "eventEmitter",
      "outputs": [
        {
          "internalType": "contract EventEmitter",
          "name": "",
          "type": "address"
        }
      ],
      "stateMutability": "view",
      "type": "function"
    },
    {
      "inputs": [
        {
          "internalType": "bytes[]",
          "name": "data",
          "type": "bytes[]"
        }
      ],
      "name": "multicall",
      "outputs": [
        {
          "internalType": "bytes[]",
          "name": "results",
          "type": "bytes[]"
        }
      ],
      "stateMutability": "nonpayable",
      "type": "function"
    },
    {
      "inputs": [],
      "name": "roleStore",
      "outputs": [
        {
          "internalType": "contract RoleStore",
          "name": "",
          "type": "address"
        }
      ],
      "stateMutability": "view",
      "type": "function"
    },
    {
      "inputs": [
        {
          "internalType": "bytes32",
          "name": "baseKey",
          "type": "bytes32"
        },
        {
          "internalType": "bytes",
          "name": "data",
          "type": "bytes"
        },
        {
          "internalType": "address",
          "name": "value",
          "type": "address"
        }
      ],
      "name": "setAddress",
      "outputs": [],
      "stateMutability": "nonpayable",
      "type": "function"
    },
    {
      "inputs": [
        {
          "internalType": "bytes32",
          "name": "baseKey",
          "type": "bytes32"
        },
        {
          "internalType": "bytes",
          "name": "data",
          "type": "bytes"
        },
        {
          "internalType": "bool",
          "name": "value",
          "type": "bool"
        }
      ],
      "name": "setBool",
      "outputs": [],
      "stateMutability": "nonpayable",
      "type": "function"
    },
    {
      "inputs": [
        {
          "internalType": "bytes32",
          "name": "baseKey",
          "type": "bytes32"
        },
        {
          "internalType": "bytes",
          "name": "data",
          "type": "bytes"
        },
        {
          "internalType": "bytes32",
          "name": "value",
          "type": "bytes32"
        }
      ],
      "name": "setBytes32",
      "outputs": [],
      "stateMutability": "nonpayable",
      "type": "function"
    },
    {
      "inputs": [
        {
          "internalType": "bytes32",
          "name": "baseKey",
          "type": "bytes32"
        },
        {
          "internalType": "bytes",
          "name": "data",
          "type": "bytes"
        },
        {
          "internalType": "int256",
          "name": "value",
          "type": "int256"
        }
      ],
      "name": "setInt",
      "outputs": [],
      "stateMutability": "nonpayable",
      "type": "function"
    },
    {
      "inputs": [
        {
          "internalType": "bytes32",
          "name": "baseKey",
          "type": "bytes32"
        },
        {
          "internalType": "bytes",
          "name": "data",
          "type": "bytes"
        },
        {
          "internalType": "uint256",
          "name": "value",
          "type": "uint256"
        }
      ],
      "name": "setUint",
      "outputs": [],
      "stateMutability": "nonpayable",
      "type": "function"
    }
  ],
  "transactionHash": "0x8ccbcf00aa576c11a69eb701a6032e58292daeca710b0df3277ca2369928e704",
  "args": [
    "0xA44F830B6a2B6fa76657a3B92C1fe74fcB7C6AfD",
    "0x2F0b22339414ADeD7D5F06f9D604c7fF5b2fe3f6",
    "0xDb17B211c34240B014ab6d61d4A31FA0C0e20c26"
  ],
  "numDeployments": 1,
  "solcInputHash": "ceaee67c68e8683a89d03d7b32cacd17",
  "bytecode": "0x60e06040523480156200001157600080fd5b5060405162004df938038062004df9833981016040819052620000349162002663565b60016000556001600160a01b0380841660805282811660a052811660c0526200005c62000065565b505050620026b7565b60018060006040516020016200009e906020808252600f908201526e484f4c44494e475f4144445245535360881b604082015260600190565b60405160208183030381529060405280519060200120815260200190815260200160002060006101000a81548160ff021916908315150217905550600180600060405160200162000120906020808252601e908201527f4d494e5f48414e444c455f455845435554494f4e5f4552524f525f4741530000604082015260600190565b60405160208183030381529060405280519060200120815260200190815260200160002060006101000a81548160ff021916908315150217905550600180600060405160200162000197906020808252601290820152711254d7d3505492d15517d11254d05093115160721b604082015260600190565b60405160208183030381529060405280519060200120815260200190815260200160002060006101000a81548160ff0219169083151502179055506001806000604051602001620002199060208082526014908201527f4d41585f535741505f504154485f4c454e475448000000000000000000000000604082015260600190565b60405160208183030381529060405280519060200120815260200190815260200160002060006101000a81548160ff02191690831515021790555060018060006040516020016200029b9060208082526016908201527f4d41585f43414c4c4241434b5f4741535f4c494d495400000000000000000000604082015260600190565b60405160208183030381529060405280519060200120815260200190815260200160002060006101000a81548160ff02191690831515021790555060018060006040516020016200031d9060208082526015908201527f4d494e5f504f534954494f4e5f53495a455f5553440000000000000000000000604082015260600190565b60405160208183030381529060405280519060200120815260200190815260200160002060006101000a81548160ff0219169083151502179055506001806000604051602001620003b3906020808252602b908201527f4d41585f504f534954494f4e5f494d504143545f464143544f525f464f525f4c60408201526a49515549444154494f4e5360a81b606082015260800190565b60405160208183030381529060405280519060200120815260200190815260200160002060006101000a81548160ff021916908315150217905550600180600060405160200162000427906020808252600f908201526e13505617d413d3d317d05353d55395608a1b604082015260600190565b60405160208183030381529060405280519060200120815260200190815260200160002060006101000a81548160ff02191690831515021790555060018060006040516020016200049d9060208082526011908201527013505617d3d4115397d2539511549154d5607a1b604082015260600190565b60405160208183030381529060405280519060200120815260200190815260200160002060006101000a81548160ff02191690831515021790555060018060006040516020016200051f906020808252601f908201527f4352454154455f4445504f5349545f464541545552455f44495341424c454400604082015260600190565b60405160208183030381529060405280519060200120815260200190815260200160002060006101000a81548160ff0219169083151502179055506001806000604051602001620005a1906020808252601f908201527f43414e43454c5f4445504f5349545f464541545552455f44495341424c454400604082015260600190565b60405160208183030381529060405280519060200120815260200190815260200160002060006101000a81548160ff021916908315150217905550600180600060405160200162000621906020808252818101527f455845435554455f4445504f5349545f464541545552455f44495341424c4544604082015260600190565b60405160208183030381529060405280519060200120815260200190815260200160002060006101000a81548160ff0219169083151502179055506001806000604051602001620006ae9060208082526022908201527f4352454154455f5749544844524157414c5f464541545552455f44495341424c604082015261115160f21b606082015260800190565b60405160208183030381529060405280519060200120815260200190815260200160002060006101000a81548160ff02191690831515021790555060018060006040516020016200073b9060208082526022908201527f43414e43454c5f5749544844524157414c5f464541545552455f44495341424c604082015261115160f21b606082015260800190565b60405160208183030381529060405280519060200120815260200190815260200160002060006101000a81548160ff0219169083151502179055506001806000604051602001620007c99060208082526023908201527f455845435554455f5749544844524157414c5f464541545552455f444953414260408201526213115160ea1b606082015260800190565b60405160208183030381529060405280519060200120815260200190815260200160002060006101000a81548160ff02191690831515021790555060018060006040516020016200084b906020808252601d908201527f4352454154455f4f524445525f464541545552455f44495341424c4544000000604082015260600190565b60405160208183030381529060405280519060200120815260200190815260200160002060006101000a81548160ff0219169083151502179055506001806000604051602001620008cd906020808252601e908201527f455845435554455f4f524445525f464541545552455f44495341424c45440000604082015260600190565b60405160208183030381529060405280519060200120815260200190815260200160002060006101000a81548160ff02191690831515021790555060018060006040516020016200094f906020808252601c908201527f455845435554455f41444c5f464541545552455f44495341424c454400000000604082015260600190565b60405160208183030381529060405280519060200120815260200190815260200160002060006101000a81548160ff0219169083151502179055506001806000604051602001620009d1906020808252601d908201527f5550444154455f4f524445525f464541545552455f44495341424c4544000000604082015260600190565b60405160208183030381529060405280519060200120815260200190815260200160002060006101000a81548160ff021916908315150217905550600180600060405160200162000a53906020808252601d908201527f43414e43454c5f4f524445525f464541545552455f44495341424c4544000000604082015260600190565b60405160208183030381529060405280519060200120815260200190815260200160002060006101000a81548160ff021916908315150217905550600180600060405160200162000ae19060208082526023908201527f434c41494d5f46554e44494e475f464545535f464541545552455f444953414260408201526213115160ea1b606082015260800190565b60405160208183030381529060405280519060200120815260200190815260200160002060006101000a81548160ff021916908315150217905550600180600060405160200162000b6d9060208082526021908201527f434c41494d5f434f4c4c41544552414c5f464541545552455f44495341424c456040820152601160fa1b606082015260800190565b60405160208183030381529060405280519060200120815260200190815260200160002060006101000a81548160ff021916908315150217905550600180600060405160200162000c009060208082526028908201527f434c41494d5f414646494c494154455f524557415244535f464541545552455f604082015267111254d05093115160c21b606082015260800190565b60405160208183030381529060405280519060200120815260200190815260200160002060006101000a81548160ff021916908315150217905550600180600060405160200162000c82906020808252601e908201527f434c41494d5f55495f464545535f464541545552455f44495341424c45440000604082015260600190565b60405160208183030381529060405280519060200120815260200190815260200160002060006101000a81548160ff021916908315150217905550600180600060405160200162000d04906020808252601e908201527f4d494e5f4f5241434c455f424c4f434b5f434f4e4649524d4154494f4e530000604082015260600190565b60405160208183030381529060405280519060200120815260200190815260200160002060006101000a81548160ff021916908315150217905550600180600060405160200162000d869060208082526014908201527f4d41585f4f5241434c455f50524943455f414745000000000000000000000000604082015260600190565b60405160208183030381529060405280519060200120815260200190815260200160002060006101000a81548160ff021916908315150217905550600180600060405160200162000e169060208082526025908201527f4d41585f4f5241434c455f5245465f50524943455f444556494154494f4e5f4660408201526420a1aa27a960d91b606082015260800190565b60405160208183030381529060405280519060200120815260200190815260200160002060006101000a81548160ff021916908315150217905550600180600060405160200162000e98906020808252601c908201527f504f534954494f4e5f4645455f52454345495645525f464143544f5200000000604082015260600190565b60405160208183030381529060405280519060200120815260200190815260200160002060006101000a81548160ff021916908315150217905550600180600060405160200162000f1a9060208082526018908201527f535741505f4645455f52454345495645525f464143544f520000000000000000604082015260600190565b60405160208183030381529060405280519060200120815260200190815260200160002060006101000a81548160ff021916908315150217905550600180600060405160200162000f9c906020808252601d908201527f424f52524f57494e475f4645455f52454345495645525f464143544f52000000604082015260600190565b60405160208183030381529060405280519060200120815260200190815260200160002060006101000a81548160ff02191690831515021790555060018060006040516020016200101e906020808252601d908201527f455354494d415445445f4741535f4645455f424153455f414d4f554e54000000604082015260600190565b60405160208183030381529060405280519060200120815260200190815260200160002060006101000a81548160ff0219169083151502179055506001806000604051602001620010ac9060208082526023908201527f455354494d415445445f4741535f4645455f4d554c5449504c4945525f4641436040820152622a27a960e91b606082015260800190565b60405160208183030381529060405280519060200120815260200190815260200160002060006101000a81548160ff02191690831515021790555060018060006040516020016200112e906020808252601d908201527f455845435554494f4e5f4741535f4645455f424153455f414d4f554e54000000604082015260600190565b60405160208183030381529060405280519060200120815260200190815260200160002060006101000a81548160ff0219169083151502179055506001806000604051602001620011bc9060208082526023908201527f455845435554494f4e5f4741535f4645455f4d554c5449504c4945525f4641436040820152622a27a960e91b606082015260800190565b60405160208183030381529060405280519060200120815260200190815260200160002060006101000a81548160ff0219169083151502179055506001806000604051602001620012329060208082526011908201527011115413d4d25517d1d054d7d312535255607a1b604082015260600190565b60405160208183030381529060405280519060200120815260200190815260200160002060006101000a81548160ff0219169083151502179055506001806000604051602001620012b49060208082526014908201527f5749544844524157414c5f4741535f4c494d4954000000000000000000000000604082015260600190565b60405160208183030381529060405280519060200120815260200190815260200160002060006101000a81548160ff0219169083151502179055506001806000604051602001620013369060208082526015908201527f53494e474c455f535741505f4741535f4c494d49540000000000000000000000604082015260600190565b60405160208183030381529060405280519060200120815260200190815260200160002060006101000a81548160ff0219169083151502179055506001806000604051602001620013b89060208082526018908201527f494e4352454153455f4f524445525f4741535f4c494d49540000000000000000604082015260600190565b60405160208183030381529060405280519060200120815260200190815260200160002060006101000a81548160ff02191690831515021790555060018060006040516020016200143a9060208082526018908201527f44454352454153455f4f524445525f4741535f4c494d49540000000000000000604082015260600190565b60405160208183030381529060405280519060200120815260200190815260200160002060006101000a81548160ff0219169083151502179055506001806000604051602001620014bc9060208082526014908201527f535741505f4f524445525f4741535f4c494d4954000000000000000000000000604082015260600190565b60405160208183030381529060405280519060200120815260200190815260200160002060006101000a81548160ff02191690831515021790555060018060006040516020016200153e9060208082526018908201527f544f4b454e5f5452414e534645525f4741535f4c494d49540000000000000000604082015260600190565b60405160208183030381529060405280519060200120815260200190815260200160002060006101000a81548160ff0219169083151502179055506001806000604051602001620015c0906020808252601f908201527f4e41544956455f544f4b454e5f5452414e534645525f4741535f4c494d495400604082015260600190565b60405160208183030381529060405280519060200120815260200190815260200160002060006101000a81548160ff021916908315150217905550600180600060405160200162001642906020808252601c908201527f524551554553545f45585049524154494f4e5f424c4f434b5f41474500000000604082015260600190565b60405160208183030381529060405280519060200120815260200190815260200160002060006101000a81548160ff0219169083151502179055506001806000604051602001620016c49060208082526015908201527f4d494e5f434f4c4c41544552414c5f464143544f520000000000000000000000604082015260600190565b60405160208183030381529060405280519060200120815260200190815260200160002060006101000a81548160ff0219169083151502179055506001806000604051602001620017619060208082526032908201527f4d494e5f434f4c4c41544552414c5f464143544f525f464f525f4f50454e5f49604082015271272a22a922a9aa2fa6aaa62a24a82624a2a960711b606082015260800190565b60405160208183030381529060405280519060200120815260200190815260200160002060006101000a81548160ff0219169083151502179055506001806000604051602001620017d89060208082526012908201527113525397d0d3d31310551154905317d554d160721b604082015260600190565b60405160208183030381529060405280519060200120815260200190815260200160002060006101000a81548160ff02191690831515021790555060018060006040516020016200184d9060208082526010908201526f1592549515505317d513d2d15397d25160821b604082015260600190565b60405160208183030381529060405280519060200120815260200190815260200160002060006101000a81548160ff0219169083151502179055506001806000604051602001620018c3906020808252601190820152701592549515505317d3505492d15517d251607a1b604082015260600190565b60405160208183030381529060405280519060200120815260200190815260200160002060006101000a81548160ff021916908315150217905550600180600060405160200162001945906020808252601b908201527f5649525455414c5f494e56454e544f52595f464f525f53574150530000000000604082015260600190565b60405160208183030381529060405280519060200120815260200190815260200160002060006101000a81548160ff0219169083151502179055506001806000604051602001620019c7906020808252601f908201527f5649525455414c5f494e56454e544f52595f464f525f504f534954494f4e5300604082015260600190565b60405160208183030381529060405280519060200120815260200190815260200160002060006101000a81548160ff021916908315150217905550600180600060405160200162001a499060208082526016908201527f504f534954494f4e5f494d504143545f464143544f5200000000000000000000604082015260600190565b60405160208183030381529060405280519060200120815260200190815260200160002060006101000a81548160ff021916908315150217905550600180600060405160200162001acb906020808252601f908201527f504f534954494f4e5f494d504143545f4558504f4e454e545f464143544f5200604082015260600190565b60405160208183030381529060405280519060200120815260200190815260200160002060006101000a81548160ff021916908315150217905550600180600060405160200162001b4d906020808252601a908201527f4d41585f504f534954494f4e5f494d504143545f464143544f52000000000000604082015260600190565b60405160208183030381529060405280519060200120815260200190815260200160002060006101000a81548160ff021916908315150217905550600180600060405160200162001bcf9060208082526013908201527f504f534954494f4e5f4645455f464143544f5200000000000000000000000000604082015260600190565b60405160208183030381529060405280519060200120815260200190815260200160002060006101000a81548160ff021916908315150217905550600180600060405160200162001c469060208082526012908201527129aba0a82fa4a6a820a1aa2fa320a1aa27a960711b604082015260600190565b60405160208183030381529060405280519060200120815260200190815260200160002060006101000a81548160ff021916908315150217905550600180600060405160200162001cc8906020808252601b908201527f535741505f494d504143545f4558504f4e454e545f464143544f520000000000604082015260600190565b60405160208183030381529060405280519060200120815260200190815260200160002060006101000a81548160ff021916908315150217905550600180600060405160200162001d3c906020808252600f908201526e29aba0a82fa322a2afa320a1aa27a960891b604082015260600190565b60405160208183030381529060405280519060200120815260200190815260200160002060006101000a81548160ff021916908315150217905550600180600060405160200162001db29060208082526011908201527026a0ac2faaa4afa322a2afa320a1aa27a960791b604082015260600190565b60405160208183030381529060405280519060200120815260200190815260200160002060006101000a81548160ff021916908315150217905550600180600060405160200162001e22906020808252600b908201526a4f5241434c455f5459504560a81b604082015260600190565b60405160208183030381529060405280519060200120815260200190815260200160002060006101000a81548160ff021916908315150217905550600180600060405160200162001e95906020808252600e908201526d2922a9a2a92b22afa320a1aa27a960911b604082015260600190565b60405160208183030381529060405280519060200120815260200190815260200160002060006101000a81548160ff021916908315150217905550600180600060405160200162001f17906020808252601c908201527f4f50454e5f494e5445524553545f524553455256455f464143544f5200000000604082015260600190565b60405160208183030381529060405280519060200120815260200190815260200160002060006101000a81548160ff021916908315150217905550600180600060405160200162001f8a906020808252600e908201526d26a0ac2fa827262fa320a1aa27a960911b604082015260600190565b60405160208183030381529060405280519060200120815260200190815260200160002060006101000a81548160ff02191690831515021790555060018060006040516020016200200c906020808252601a908201527f4d41585f504e4c5f464143544f525f464f525f54524144455253000000000000604082015260600190565b60405160208183030381529060405280519060200120815260200190815260200160002060006101000a81548160ff02191690831515021790555060018060006040516020016200208e9060208082526016908201527f4d41585f504e4c5f464143544f525f464f525f41444c00000000000000000000604082015260600190565b60405160208183030381529060405280519060200120815260200190815260200160002060006101000a81548160ff0219169083151502179055506001806000604051602001620021109060208082526018908201527f4d494e5f504e4c5f464143544f525f41465445525f41444c0000000000000000604082015260600190565b60405160208183030381529060405280519060200120815260200190815260200160002060006101000a81548160ff021916908315150217905550600180600060405160200162002192906020808252601b908201527f4d41585f504e4c5f464143544f525f464f525f4445504f534954530000000000604082015260600190565b60405160208183030381529060405280519060200120815260200190815260200160002060006101000a81548160ff021916908315150217905550600180600060405160200162002214906020808252601e908201527f4d41585f504e4c5f464143544f525f464f525f5749544844524157414c530000604082015260600190565b60405160208183030381529060405280519060200120815260200190815260200160002060006101000a81548160ff021916908315150217905550600180600060405160200162002287906020808252600e908201526d232aa72224a723afa320a1aa27a960911b604082015260600190565b60405160208183030381529060405280519060200120815260200190815260200160002060006101000a81548160ff0219169083151502179055506001806000604051602001620023099060208082526015908201527f535441424c455f46554e44494e475f464143544f520000000000000000000000604082015260600190565b60405160208183030381529060405280519060200120815260200190815260200160002060006101000a81548160ff02191690831515021790555060018060006040516020016200238b9060208082526017908201527f46554e44494e475f4558504f4e454e545f464143544f52000000000000000000604082015260600190565b60405160208183030381529060405280519060200120815260200190815260200160002060006101000a81548160ff0219169083151502179055506001806000604051602001620024009060208082526010908201526f2127a92927aba4a723afa320a1aa27a960811b604082015260600190565b60405160208183030381529060405280519060200120815260200190815260200160002060006101000a81548160ff0219169083151502179055506001806000604051602001620024829060208082526019908201527f424f52524f57494e475f4558504f4e454e545f464143544f5200000000000000604082015260600190565b60405160208183030381529060405280519060200120815260200190815260200160002060006101000a81548160ff0219169083151502179055506001806000604051602001620025109060208082526023908201527f534b49505f424f52524f57494e475f4645455f464f525f534d414c4c45525f5360408201526249444560e81b606082015260800190565b60405160208183030381529060405280519060200120815260200190815260200160002060006101000a81548160ff021916908315150217905550600180600060405160200162002592906020808252601b908201527f434c41494d41424c455f434f4c4c41544552414c5f464143544f520000000000604082015260600190565b60405160208183030381529060405280519060200120815260200190815260200160002060006101000a81548160ff021916908315150217905550600180600060405160200162002614906020808252601d908201527f50524943455f464545445f4845415254424541545f4455524154494f4e000000604082015260600190565b60408051808303601f19018152918152815160209283012083529082019290925201600020805460ff1916911515919091179055565b6001600160a01b03811681146200266057600080fd5b50565b6000806000606084860312156200267957600080fd5b835162002686816200264a565b602085015190935062002699816200264a565b6040850151909250620026ac816200264a565b809150509250925092565b60805160a05160c0516126c562002734600039600081816101690152818161040f0152818161065c0152818161088301528181610a970152610dec015260008181610142015281816102ca0152818161051a01528181610723015281816109470152610c990152600081816101030152610e3f01526126c56000f3fe608060405234801561001057600080fd5b50600436106100995760003560e01c8063039f2ca61461009e57806306850ad9146100b3578063160d0ce6146100eb5780634a4a7b04146100fe578063660d0d671461013d5780639ff78c3014610164578063a43f85c51461018b578063aa0179a51461019e578063ac9650d8146101b1578063af4937fc146101d1578063f70f0da2146101e7575b600080fd5b6100b16100ac36600461188f565b6101fa565b005b6100d66100c13660046118de565b60016020526000908152604090205460ff1681565b60405190151581526020015b60405180910390f35b6100b16100f936600461190c565b610484565b6101257f000000000000000000000000000000000000000000000000000000000000000081565b6040516001600160a01b0390911681526020016100e2565b6101257f000000000000000000000000000000000000000000000000000000000000000081565b6101257f000000000000000000000000000000000000000000000000000000000000000081565b6100b161019936600461188f565b610693565b6100b16101ac366004611974565b6108ba565b6101c46101bf3660046119c3565b610ace565b6040516100e29190611adc565b6101d9610bed565b6040519081526020016100e2565b6100b16101f536600461188f565b610c13565b61024d60405160200161020c90611af6565b604051602081830303815290604052805190602001206040518060400160405280600d81526020016c21a7a72324a3afa5a2a2a822a960991b815250610e23565b6002600054036102785760405162461bcd60e51b815260040161026f90611b1d565b60405180910390fd5b600260005561028683610ed7565b6000838360405160200161029b929190611b54565b60408051601f198184030181529082905280516020909101206309d23b6160e31b825291506001600160a01b037f00000000000000000000000000000000000000000000000000000000000000001690634e91db08906103019084908690600401611b7a565b6020604051808303816000875af1158015610320573d6000803e3d6000fd5b505050506040513d601f19601f820116820180604052508101906103449190611b88565b5061034d6116db565b608081015161035d906002610f0c565b604080518082019091526007815266626173654b657960c81b6020820152608082015161038d9160009088610f71565b60408051808201909152600581526476616c756560d81b602082015260808201516103bb9160019086610f71565b60a08101516103cb906001610fc4565b6040805180820190915260048152636461746160e01b602082015260a08201516103f89160009087611026565b604051630937807960e21b81526001600160a01b037f000000000000000000000000000000000000000000000000000000000000000016906324de01e49061044690889085906004016123b6565b600060405180830381600087803b15801561046057600080fd5b505af1158015610474573d6000803e3d6000fd5b5050600160005550505050505050565b61049660405160200161020c90611af6565b6002600054036104b85760405162461bcd60e51b815260040161026f90611b1d565b60026000556104c683610ed7565b600083836040516020016104db929190611b54565b60408051808303601f1901815290829052805160209091012063ca446dd960e01b8252600482018190526001600160a01b0384811660248401529092507f0000000000000000000000000000000000000000000000000000000000000000169063ca446dd9906044016020604051808303816000875af1158015610563573d6000803e3d6000fd5b505050506040513d601f19601f8201168201806040525081019061058791906123f8565b506105906116db565b60808101516105a0906001610f0c565b604080518082019091526007815266626173654b657960c81b602082015260808201516105d09160009088610f71565b60a08101516105e0906001610fc4565b6040805180820190915260048152636461746160e01b602082015260a082015161060d9160009087611026565b805161061a906001610f0c565b60408051808201909152600581526476616c756560d81b602082015281516106459160009086611078565b604051630937807960e21b81526001600160a01b037f000000000000000000000000000000000000000000000000000000000000000016906324de01e4906104469088908590600401612415565b6106a560405160200161020c90611af6565b6002600054036106c75760405162461bcd60e51b815260040161026f90611b1d565b60026000556106d583610ed7565b600083836040516020016106ea929190611b54565b60405160208183030381529060405280519060200120905061070c84836110d5565b604051637152429d60e11b81526001600160a01b037f0000000000000000000000000000000000000000000000000000000000000000169063e2a4853a9061075a9084908690600401611b7a565b6020604051808303816000875af1158015610779573d6000803e3d6000fd5b505050506040513d601f19601f8201168201806040525081019061079d9190611b88565b506107a66116db565b60808101516107b6906001610f0c565b604080518082019091526007815266626173654b657960c81b602082015260808201516107e69160009088610f71565b60a08101516107f6906001610fc4565b6040805180820190915260048152636461746160e01b602082015260a08201516108239160009087611026565b6020810151610833906001610f0c565b61086c60006040518060400160405280600581526020016476616c756560d81b815250858460200151610f71909392919063ffffffff16565b604051630937807960e21b81526001600160a01b037f000000000000000000000000000000000000000000000000000000000000000016906324de01e490610446908890859060040161244f565b6108cc60405160200161020c90611af6565b6002600054036108ee5760405162461bcd60e51b815260040161026f90611b1d565b60026000556108fc83610ed7565b60008383604051602001610911929190611b54565b60408051808303601f1901815290829052805160209091012063abfdcced60e01b825260048201819052831515602483015291507f00000000000000000000000000000000000000000000000000000000000000006001600160a01b03169063abfdcced906044016020604051808303816000875af1158015610998573d6000803e3d6000fd5b505050506040513d601f19601f820116820180604052508101906109bc9190612486565b506109c56116db565b60808101516109d5906001610f0c565b604080518082019091526007815266626173654b657960c81b60208201526080820151610a059160009088610f71565b60a0810151610a15906001610fc4565b6040805180820190915260048152636461746160e01b602082015260a0820151610a429160009087611026565b6060810151610a52906001610f0c565b60408051808201909152600581526476616c756560d81b60208201526060820151610a8091600090866115af565b604051630937807960e21b81526001600160a01b037f000000000000000000000000000000000000000000000000000000000000000016906324de01e49061044690889085906004016124a3565b6060816001600160401b03811115610ae857610ae86117cc565b604051908082528060200260200182016040528015610b1b57816020015b6060815260200190600190039081610b065790505b50905060005b82811015610be55760008030868685818110610b3f57610b3f6124da565b9050602002810190610b5191906124f0565b604051610b5f92919061253d565b600060405180830381855af49150503d8060008114610b9a576040519150601f19603f3d011682016040523d82523d6000602084013e610b9f565b606091505b509150915081610bb257610bb281611604565b80848481518110610bc557610bc56124da565b602002602001018190525050508080610bdd90612563565b915050610b21565b505b92915050565b6064610c0668327cb2734119d3b7a9601e1b600561257c565b610c109190612593565b81565b610c2560405160200161020c90611af6565b600260005403610c475760405162461bcd60e51b815260040161026f90611b1d565b6002600055610c5583610ed7565b60008383604051602001610c6a929190611b54565b60408051601f198184030181529082905280516020909101206303e49bed60e41b825291506001600160a01b037f00000000000000000000000000000000000000000000000000000000000000001690633e49bed090610cd09084908690600401611b7a565b6020604051808303816000875af1158015610cef573d6000803e3d6000fd5b505050506040513d601f19601f82011682018060405250810190610d139190611b88565b50610d1c6116db565b6080810151610d2c906001610f0c565b604080518082019091526007815266626173654b657960c81b60208201526080820151610d5c9160009088610f71565b60a0810151610d6c906001610fc4565b6040805180820190915260048152636461746160e01b602082015260a0820151610d999160009087611026565b6040810151610da9906001610f0c565b604080518082018252600581526476616c756560d81b602082015290820151610dd59160009086610f71565b604051630937807960e21b81526001600160a01b037f000000000000000000000000000000000000000000000000000000000000000016906324de01e49061044690889085906004016125b5565b60405163ac4ab3fb60e01b8152336004820152602481018390527f00000000000000000000000000000000000000000000000000000000000000006001600160a01b03169063ac4ab3fb90604401602060405180830381865afa158015610e8e573d6000803e3d6000fd5b505050506040513d601f19601f82011682018060405250810190610eb29190612486565b610ed357338160405163a35b150b60e01b815260040161026f9291906125eb565b5050565b60008181526001602052604090205460ff16610f095760405163eb19d3f560e01b81526004810182905260240161026f565b50565b806001600160401b03811115610f2457610f246117cc565b604051908082528060200260200182016040528015610f6a57816020015b604080518082019091526060815260006020820152815260200190600190039081610f425790505b5090915250565b8184600001518481518110610f8857610f886124da565b6020026020010151600001819052508084600001518481518110610fae57610fae6124da565b6020026020010151602001818152505050505050565b806001600160401b03811115610fdc57610fdc6117cc565b604051908082528060200260200182016040528015610f6a57816020015b6040805180820190915260608082526020820152815260200190600190039081610ffa57505090915250565b818460000151848151811061103d5761103d6124da565b6020026020010151600001819052508084600001518481518110611063576110636124da565b60200260200101516020018190525050505050565b818460000151848151811061108f5761108f6124da565b60200260200101516000018190525080846000015184815181106110b5576110b56124da565b6020908102919091018101516001600160a01b0390921691015250505050565b604051602001611107906020808252600e908201526d232aa72224a723afa320a1aa27a960911b604082015260600190565b6040516020818303038152906040528051906020012082148061117257506040516020016111599060208082526010908201526f2127a92927aba4a723afa320a1aa27a960811b604082015260600190565b6040516020818303038152906040528051906020012082145b156111be57606461119068327cb2734119d3b7a9601e1b600161257c565b61119a9190612593565b8111156111be578181604051633384d6fd60e21b815260040161026f929190611b7a565b6040516020016111f1906020808252600f908201526e29aba0a82fa322a2afa320a1aa27a960891b604082015260600190565b6040516020818303038152906040528051906020012082148061125f5750604051602001611246906020808252601390820152722827a9a4aa24a7a72fa322a2afa320a1aa27a960691b604082015260600190565b6040516020818303038152906040528051906020012082145b806112b3575060405160200161129a9060208082526011908201527026a0ac2faaa4afa322a2afa320a1aa27a960791b604082015260600190565b6040516020818303038152906040528051906020012082145b156112ff5760646112d168327cb2734119d3b7a9601e1b600561257c565b6112db9190612593565b8111156112ff578181604051633384d6fd60e21b815260040161026f929190611b7a565b60405160200161133f906020808252601c908201527b2827a9a4aa24a7a72fa322a2afa922a1a2a4ab22a92fa320a1aa27a960211b604082015260600190565b604051602081830303815290604052805190602001208214806113b257506040516020016113999060208082526018908201527729aba0a82fa322a2afa922a1a2a4ab22a92fa320a1aa27a960411b604082015260600190565b6040516020818303038152906040528051906020012082145b8061141257506040516020016113f9906020808252601d908201527f424f52524f57494e475f4645455f52454345495645525f464143544f52000000604082015260600190565b6040516020818303038152906040528051906020012082145b8061146a57506040516020016114519060208082526015908201527426a4a72fa1a7a62620aa22a920a62fa320a1aa27a960591b604082015260600190565b6040516020818303038152906040528051906020012082145b806114bb57506040516020016114a2906020808252600e908201526d26a0ac2fa827262fa320a1aa27a960911b604082015260600190565b6040516020818303038152906040528051906020012082145b8061151b5750604051602001611502906020808252601e908201527f4d41585f504e4c5f464143544f525f464f525f5749544844524157414c530000604082015260600190565b6040516020818303038152906040528051906020012082145b806115795750604051602001611560906020808252601b908201527a21a620a4a6a0a12622afa1a7a62620aa22a920a62fa320a1aa27a960291b604082015260600190565b6040516020818303038152906040528051906020012082145b15610ed35768327cb2734119d3b7a9601e1b811115610ed3578181604051633384d6fd60e21b815260040161026f929190611b7a565b81846000015184815181106115c6576115c66124da565b60200260200101516000018190525080846000015184815181106115ec576115ec6124da565b60209081029190910181015191151591015250505050565b60008061161083611642565b915091508015611634578160405162461bcd60e51b815260040161026f919061260f565b61163d836116d2565b505050565b60606000604483511015611669575050604080516020810190915260008082529092909150565b6000611676846020015190565b90506307b9e43360e51b6001600160e01b03198216016116b557600484019350838060200190518101906116aa9190612622565b946001945092505050565b600060405180602001604052806000815250909250925050915091565b80518060208301fd5b604080516101208101909152606060e082018181526101008301919091528190815260200161171d604051806040016040528060608152602001606081525090565b815260200161173f604051806040016040528060608152602001606081525090565b8152602001611761604051806040016040528060608152602001606081525090565b8152602001611783604051806040016040528060608152602001606081525090565b81526020016117a5604051806040016040528060608152602001606081525090565b81526020016117c7604051806040016040528060608152602001606081525090565b905290565b634e487b7160e01b600052604160045260246000fd5b604051601f8201601f191681016001600160401b038111828210171561180a5761180a6117cc565b604052919050565b60006001600160401b0382111561182b5761182b6117cc565b50601f01601f191660200190565b600082601f83011261184a57600080fd5b813561185d61185882611812565b6117e2565b81815284602083860101111561187257600080fd5b816020850160208301376000918101602001919091529392505050565b6000806000606084860312156118a457600080fd5b8335925060208401356001600160401b038111156118c157600080fd5b6118cd86828701611839565b925050604084013590509250925092565b6000602082840312156118f057600080fd5b5035919050565b6001600160a01b0381168114610f0957600080fd5b60008060006060848603121561192157600080fd5b8335925060208401356001600160401b0381111561193e57600080fd5b61194a86828701611839565b925050604084013561195b816118f7565b809150509250925092565b8015158114610f0957600080fd5b60008060006060848603121561198957600080fd5b8335925060208401356001600160401b038111156119a657600080fd5b6119b286828701611839565b925050604084013561195b81611966565b600080602083850312156119d657600080fd5b82356001600160401b03808211156119ed57600080fd5b818501915085601f830112611a0157600080fd5b813581811115611a1057600080fd5b8660208260051b8501011115611a2557600080fd5b60209290920196919550909350505050565b60005b83811015611a52578181015183820152602001611a3a565b50506000910152565b60008151808452611a73816020860160208601611a37565b601f01601f19169290920160200192915050565b600081518084526020808501808196508360051b8101915082860160005b85811015611acf578284038952611abd848351611a5b565b98850198935090840190600101611aa5565b5091979650505050505050565b602081526000611aef6020830184611a87565b9392505050565b6020808252600d908201526c21a7a72324a3afa5a2a2a822a960991b604082015260600190565b6020808252601f908201527f5265656e7472616e637947756172643a207265656e7472616e742063616c6c00604082015260600190565b82815260008251611b6c816020850160208701611a37565b919091016020019392505050565b918252602082015260400190565b600060208284031215611b9a57600080fd5b5051919050565b600081518084526020808501808196508360051b810191508286016000805b86811015611c3c578385038a52825160408151818852611be282890182611a5b565b92890151888403898b01528051808552908a01938693508a0191505b80831015611c275783516001600160a01b03168252928901926001929092019190890190611bfe565b509b88019b9650505091850191600101611bc0565b509298975050505050505050565b60006040808401835182865281815180845260608801915060608160051b89010193506020808401935060005b82811015611cc157898603605f1901845284518051888852611c9b89890182611a5b565b918401516001600160a01b03169784019790975295509381019392810192600101611c77565b50808801519550888503818a015250505050611cdd8183611ba1565b95945050505050565b600081518084526020808501808196508360051b810191508286016000805b86811015611c3c578385038a52825160408151818852611d2782890182611a5b565b92890151888403898b01528051808552908a01938693508a0191505b80831015611d635783518252928901926001929092019190890190611d43565b509b88019b9650505091850191600101611d05565b60006040808401835182865281815180845260608801915060608160051b89010193506020808401935060005b82811015611de657898603605f1901845284518051888852611dc989890182611a5b565b918401519784019790975295509381019392810192600101611da5565b50808801519550888503818a015250505050611cdd8183611ce6565b60006040808401835182865281815180845260608801915060608160051b89010193506020808401935060005b82811015611de657898603605f1901845284518051888852611e5389890182611a5b565b918401519784019790975295509381019392810192600101611e2f565b600081518084526020808501808196508360051b810191508286016000805b86811015611c3c578385038a52825160408151818852611eb182890182611a5b565b92890151888403898b01528051808552908a01938693508a0191505b80831015611eef57835115158252928901926001929092019190890190611ecd565b509b88019b9650505091850191600101611e8f565b60006040808401835182865281815180845260608801915060608160051b89010193506020808401935060005b82811015611f7457898603605f1901845284518051888852611f5589890182611a5b565b9184015115159784019790975295509381019392810192600101611f31565b50808801519550888503818a015250505050611cdd8183611e70565b600081518084526020808501808196508360051b810191508286016000805b86811015611c3c578385038a52825160408151818852611fd182890182611a5b565b92890151888403898b01528051808552908a01938693508a0191505b8083101561200d5783518252928901926001929092019190890190611fed565b509b88019b9650505091850191600101611faf565b60006040808401835182865281815180845260608801915060608160051b89010193506020808401935060005b8281101561209057898603605f190184528451805188885261207389890182611a5b565b91840151978401979097529550938101939281019260010161204f565b50808801519550888503818a015250505050611cdd8183611f90565b600081518084526020808501808196508360051b8101915082860160005b85811015611acf5782840389528151604081518187526120ec82880182611a5b565b915050868201519150858103878701526121068183611a87565b9a87019a95505050908401906001016120ca565b60006040808401835182865281815180845260608801915060608160051b89010193506020808401935060005b8281101561219757898603605f190184528451805188885261216b89890182611a5b565b91840151888303898601529190506121838183611a5b565b975050509381019392810192600101612147565b50808801519550888503818a015250505050611cdd81836120ac565b600081518084526020808501808196506005915083821b81018387016000805b8781101561225e578484038b528251604081518187526121f582880182611a5b565b928a0151878403888c01528051808552908b019392508a83019150808a1b83018b01865b8281101561224757601f19858303018452612235828751611a5b565b958d0195938d01939150600101612219565b509e8b019e975050509388019350506001016121d3565b50919998505050505050505050565b60006040808401835182865281815180845260608801915060608160051b89010193506020808401935060005b828110156122ea57898603605f19018452845180518888526122be89890182611a5b565b91840151888303898601529190506122d68183611a5b565b97505050938101939281019260010161229a565b50808801519550888503818a015250505050611cdd81836121b3565b6000815160e0845261231b60e0850182611c4a565b9050602083015184820360208601526123348282611d78565b9150506040830151848203604086015261234e8282611e02565b915050606083015184820360608601526123688282611f04565b915050608083015184820360808601526123828282612022565b91505060a083015184820360a086015261239c828261211a565b91505060c083015184820360c0860152611cdd828261226d565b60608152600a60608201526929b2ba213cba32b9999960b11b608082015282602082015260a0604082015260006123f060a0830184612306565b949350505050565b60006020828403121561240a57600080fd5b8151611aef816118f7565b60608152600a6060820152695365744164647265737360b01b608082015282602082015260a0604082015260006123f060a0830184612306565b60608152600760608201526614d95d155a5b9d60ca1b608082015282602082015260a0604082015260006123f060a0830184612306565b60006020828403121561249857600080fd5b8151611aef81611966565b60608152600760608201526614d95d109bdbdb60ca1b608082015282602082015260a0604082015260006123f060a0830184612306565b634e487b7160e01b600052603260045260246000fd5b6000808335601e1984360301811261250757600080fd5b8301803591506001600160401b0382111561252157600080fd5b60200191503681900382131561253657600080fd5b9250929050565b8183823760009101908152919050565b634e487b7160e01b600052601160045260246000fd5b6000600182016125755761257561254d565b5060010190565b8082028115828204841417610be757610be761254d565b6000826125b057634e487b7160e01b600052601260045260246000fd5b500490565b60608152600660608201526514d95d125b9d60d21b608082015282602082015260a0604082015260006123f060a0830184612306565b6001600160a01b03831681526040602082018190526000906123f090830184611a5b565b602081526000611aef6020830184611a5b565b60006020828403121561263457600080fd5b81516001600160401b0381111561264a57600080fd5b8201601f8101841361265b57600080fd5b805161266961185882611812565b81815285602083850101111561267e57600080fd5b611cdd826020830160208601611a3756fea2646970667358221220b60249abf10170636125a0ff313da0f020cb178f7cd4ec53591ee7a4f169679164736f6c63430008120033",
  "libraries": {},
  "devdoc": {
    "kind": "dev",
    "methods": {
      "multicall(bytes[])": {
        "details": "Receives and executes a batch of function calls on this contract."
      }
    },
    "version": 1
  },
  "userdoc": {
    "kind": "user",
    "methods": {},
    "version": 1
  },
  "storageLayout": {
    "storage": [
      {
        "astId": 10,
        "contract": "contracts/config/Config.sol:Config",
        "label": "_status",
        "offset": 0,
        "slot": "0",
        "type": "t_uint256"
      },
      {
        "astId": 7046,
        "contract": "contracts/config/Config.sol:Config",
        "label": "allowedBaseKeys",
        "offset": 0,
        "slot": "1",
        "type": "t_mapping(t_bytes32,t_bool)"
      }
    ],
    "types": {
      "t_bool": {
        "encoding": "inplace",
        "label": "bool",
        "numberOfBytes": "1"
      },
      "t_bytes32": {
        "encoding": "inplace",
        "label": "bytes32",
        "numberOfBytes": "32"
      },
      "t_mapping(t_bytes32,t_bool)": {
        "encoding": "mapping",
        "key": "t_bytes32",
        "label": "mapping(bytes32 => bool)",
        "numberOfBytes": "32",
        "value": "t_bool"
      },
      "t_uint256": {
        "encoding": "inplace",
        "label": "uint256",
        "numberOfBytes": "32"
      }
    }
  }
}