{
  "address": "0x233397357bB4cC6B951aa423D7cEadBC610499e2",
  "abi": [
    {
      "inputs": [
        {
          "internalType": "contract Router",
          "name": "_router",
          "type": "address"
        },
        {
          "internalType": "contract RoleStore",
          "name": "_roleStore",
          "type": "address"
        },
        {
          "internalType": "contract DataStore",
          "name": "_dataStore",
          "type": "address"
        },
        {
          "internalType": "contract EventEmitter",
          "name": "_eventEmitter",
          "type": "address"
        },
        {
          "internalType": "contract IOrderHandler",
          "name": "_orderHandler",
          "type": "address"
        },
        {
          "internalType": "contract OrderVault",
          "name": "_orderVault",
          "type": "address"
        }
      ],
      "stateMutability": "nonpayable",
      "type": "constructor"
    },
    {
      "inputs": [
        {
          "internalType": "bytes32",
          "name": "key",
          "type": "bytes32"
        }
      ],
      "name": "DisabledFeature",
      "type": "error"
    },
    {
      "inputs": [],
      "name": "EmptyHoldingAddress",
      "type": "error"
    },
    {
      "inputs": [],
      "name": "EmptyOrder",
      "type": "error"
    },
    {
      "inputs": [],
      "name": "EmptyReceiver",
      "type": "error"
    },
    {
      "inputs": [
        {
          "internalType": "address",
          "name": "token",
          "type": "address"
        }
      ],
      "name": "EmptyTokenTranferGasLimit",
      "type": "error"
    },
    {
      "inputs": [
        {
          "internalType": "address",
          "name": "cancellationReceiver",
          "type": "address"
        },
        {
          "internalType": "address",
          "name": "expectedCancellationReceiver",
          "type": "address"
        }
      ],
      "name": "InvalidCancellationReceiverForSubaccountOrder",
      "type": "error"
    },
    {
      "inputs": [
        {
          "internalType": "address",
          "name": "msgSender",
          "type": "address"
        }
      ],
      "name": "InvalidNativeTokenSender",
      "type": "error"
    },
    {
      "inputs": [
        {
          "internalType": "address",
          "name": "receiver",
          "type": "address"
        },
        {
          "internalType": "address",
          "name": "expectedReceiver",
          "type": "address"
        }
      ],
      "name": "InvalidReceiverForSubaccountOrder",
      "type": "error"
    },
    {
      "inputs": [
        {
          "internalType": "address",
          "name": "token",
          "type": "address"
        },
        {
          "internalType": "address",
          "name": "receiver",
          "type": "address"
        },
        {
          "internalType": "uint256",
          "name": "amount",
          "type": "uint256"
        }
      ],
      "name": "TokenTransferError",
      "type": "error"
    },
    {
      "inputs": [
        {
          "internalType": "address",
          "name": "subaccount",
          "type": "address"
        }
      ],
      "name": "addSubaccount",
      "outputs": [],
      "stateMutability": "payable",
      "type": "function"
    },
    {
      "inputs": [
        {
          "internalType": "bytes32",
          "name": "key",
          "type": "bytes32"
        }
      ],
      "name": "cancelOrder",
      "outputs": [],
      "stateMutability": "payable",
      "type": "function"
    },
    {
      "inputs": [
        {
          "internalType": "address",
          "name": "account",
          "type": "address"
        },
        {
          "components": [
            {
              "components": [
                {
                  "internalType": "address",
                  "name": "receiver",
                  "type": "address"
                },
                {
                  "internalType": "address",
                  "name": "cancellationReceiver",
                  "type": "address"
                },
                {
                  "internalType": "address",
                  "name": "callbackContract",
                  "type": "address"
                },
                {
                  "internalType": "address",
                  "name": "uiFeeReceiver",
                  "type": "address"
                },
                {
                  "internalType": "address",
                  "name": "market",
                  "type": "address"
                },
                {
                  "internalType": "address",
                  "name": "initialCollateralToken",
                  "type": "address"
                },
                {
                  "internalType": "address[]",
                  "name": "swapPath",
                  "type": "address[]"
                }
              ],
              "internalType": "struct IBaseOrderUtils.CreateOrderParamsAddresses",
              "name": "addresses",
              "type": "tuple"
            },
            {
              "components": [
                {
                  "internalType": "uint256",
                  "name": "sizeDeltaUsd",
                  "type": "uint256"
                },
                {
                  "internalType": "uint256",
                  "name": "initialCollateralDeltaAmount",
                  "type": "uint256"
                },
                {
                  "internalType": "uint256",
                  "name": "triggerPrice",
                  "type": "uint256"
                },
                {
                  "internalType": "uint256",
                  "name": "acceptablePrice",
                  "type": "uint256"
                },
                {
                  "internalType": "uint256",
                  "name": "executionFee",
                  "type": "uint256"
                },
                {
                  "internalType": "uint256",
                  "name": "callbackGasLimit",
                  "type": "uint256"
                },
                {
                  "internalType": "uint256",
                  "name": "minOutputAmount",
                  "type": "uint256"
                },
                {
                  "internalType": "uint256",
                  "name": "validFromTime",
                  "type": "uint256"
                }
              ],
              "internalType": "struct IBaseOrderUtils.CreateOrderParamsNumbers",
              "name": "numbers",
              "type": "tuple"
            },
            {
              "internalType": "enum Order.OrderType",
              "name": "orderType",
              "type": "uint8"
            },
            {
              "internalType": "enum Order.DecreasePositionSwapType",
              "name": "decreasePositionSwapType",
              "type": "uint8"
            },
            {
              "internalType": "bool",
              "name": "isLong",
              "type": "bool"
            },
            {
              "internalType": "bool",
              "name": "shouldUnwrapNativeToken",
              "type": "bool"
            },
            {
              "internalType": "bool",
              "name": "autoCancel",
              "type": "bool"
            },
            {
              "internalType": "bytes32",
              "name": "referralCode",
              "type": "bytes32"
            }
          ],
          "internalType": "struct IBaseOrderUtils.CreateOrderParams",
          "name": "params",
          "type": "tuple"
        }
      ],
      "name": "createOrder",
      "outputs": [
        {
          "internalType": "bytes32",
          "name": "",
          "type": "bytes32"
        }
      ],
      "stateMutability": "payable",
      "type": "function"
    },
    {
      "inputs": [],
      "name": "dataStore",
      "outputs": [
        {
          "internalType": "contract DataStore",
          "name": "",
          "type": "address"
        }
      ],
      "stateMutability": "view",
      "type": "function"
    },
    {
      "inputs": [],
      "name": "eventEmitter",
      "outputs": [
        {
          "internalType": "contract EventEmitter",
          "name": "",
          "type": "address"
        }
      ],
      "stateMutability": "view",
      "type": "function"
    },
    {
      "inputs": [
        {
          "internalType": "bytes[]",
          "name": "data",
          "type": "bytes[]"
        }
      ],
      "name": "multicall",
      "outputs": [
        {
          "internalType": "bytes[]",
          "name": "results",
          "type": "bytes[]"
        }
      ],
      "stateMutability": "payable",
      "type": "function"
    },
    {
      "inputs": [],
      "name": "orderHandler",
      "outputs": [
        {
          "internalType": "contract IOrderHandler",
          "name": "",
          "type": "address"
        }
      ],
      "stateMutability": "view",
      "type": "function"
    },
    {
      "inputs": [],
      "name": "orderVault",
      "outputs": [
        {
          "internalType": "contract OrderVault",
          "name": "",
          "type": "address"
        }
      ],
      "stateMutability": "view",
      "type": "function"
    },
    {
      "inputs": [
        {
          "internalType": "address",
          "name": "subaccount",
          "type": "address"
        }
      ],
      "name": "removeSubaccount",
      "outputs": [],
      "stateMutability": "payable",
      "type": "function"
    },
    {
      "inputs": [],
      "name": "roleStore",
      "outputs": [
        {
          "internalType": "contract RoleStore",
          "name": "",
          "type": "address"
        }
      ],
      "stateMutability": "view",
      "type": "function"
    },
    {
      "inputs": [],
      "name": "router",
      "outputs": [
        {
          "internalType": "contract Router",
          "name": "",
          "type": "address"
        }
      ],
      "stateMutability": "view",
      "type": "function"
    },
    {
      "inputs": [
        {
          "internalType": "address",
          "name": "receiver",
          "type": "address"
        },
        {
          "internalType": "uint256",
          "name": "amount",
          "type": "uint256"
        }
      ],
      "name": "sendNativeToken",
      "outputs": [],
      "stateMutability": "payable",
      "type": "function"
    },
    {
      "inputs": [
        {
          "internalType": "address",
          "name": "token",
          "type": "address"
        },
        {
          "internalType": "address",
          "name": "receiver",
          "type": "address"
        },
        {
          "internalType": "uint256",
          "name": "amount",
          "type": "uint256"
        }
      ],
      "name": "sendTokens",
      "outputs": [],
      "stateMutability": "payable",
      "type": "function"
    },
    {
      "inputs": [
        {
          "internalType": "address",
          "name": "receiver",
          "type": "address"
        },
        {
          "internalType": "uint256",
          "name": "amount",
          "type": "uint256"
        }
      ],
      "name": "sendWnt",
      "outputs": [],
      "stateMutability": "payable",
      "type": "function"
    },
    {
      "inputs": [
        {
          "internalType": "address",
          "name": "subaccount",
          "type": "address"
        },
        {
          "internalType": "bytes32",
          "name": "actionType",
          "type": "bytes32"
        },
        {
          "internalType": "uint256",
          "name": "maxAllowedCount",
          "type": "uint256"
        }
      ],
      "name": "setMaxAllowedSubaccountActionCount",
      "outputs": [],
      "stateMutability": "payable",
      "type": "function"
    },
    {
      "inputs": [
        {
          "internalType": "address",
          "name": "subaccount",
          "type": "address"
        },
        {
          "internalType": "uint256",
          "name": "amount",
          "type": "uint256"
        }
      ],
      "name": "setSubaccountAutoTopUpAmount",
      "outputs": [],
      "stateMutability": "payable",
      "type": "function"
    },
    {
      "inputs": [
        {
          "internalType": "address",
          "name": "subaccount",
          "type": "address"
        },
        {
          "internalType": "bytes32",
          "name": "actionType",
          "type": "bytes32"
        },
        {
          "internalType": "uint256",
          "name": "expiresAt",
          "type": "uint256"
        }
      ],
      "name": "setSubaccountExpiresAt",
      "outputs": [],
      "stateMutability": "payable",
      "type": "function"
    },
    {
      "inputs": [
        {
          "internalType": "bytes32",
          "name": "key",
          "type": "bytes32"
        },
        {
          "internalType": "uint256",
          "name": "sizeDeltaUsd",
          "type": "uint256"
        },
        {
          "internalType": "uint256",
          "name": "acceptablePrice",
          "type": "uint256"
        },
        {
          "internalType": "uint256",
          "name": "triggerPrice",
          "type": "uint256"
        },
        {
          "internalType": "uint256",
          "name": "minOutputAmount",
          "type": "uint256"
        },
        {
          "internalType": "uint256",
          "name": "validFromTime",
          "type": "uint256"
        },
        {
          "internalType": "bool",
          "name": "autoCancel",
          "type": "bool"
        }
      ],
      "name": "updateOrder",
      "outputs": [],
      "stateMutability": "payable",
      "type": "function"
    },
    {
      "stateMutability": "payable",
      "type": "receive"
    }
  ],
  "transactionHash": "0x0fdc32662228fa13aa435a661a01db22d39892f98d81d4d444184019e7f24e5c",
  "args": [
    "0x820F5FfC5b525cD4d88Cd91aCf2c28F16530Cc68",
    "0xA44F830B6a2B6fa76657a3B92C1fe74fcB7C6AfD",
    "0x2F0b22339414ADeD7D5F06f9D604c7fF5b2fe3f6",
    "0xDb17B211c34240B014ab6d61d4A31FA0C0e20c26",
    "0x00db21077c63FFf542c017Cc4cDCC84229BFb373",
    "0xD3D60D22d415aD43b7e64b510D86A30f19B1B12C"
  ],
  "numDeployments": 6,
  "solcInputHash": "9b1191e33d69ad67cf75d15dd99e95c4",
  "bytecode": "0x6101406040523480156200001257600080fd5b5060405162003e7d38038062003e7d833981016040819052620000359162000083565b60016000556001600160a01b0394851660805294841660a05291831660c052821660e052811661010052166101205262000117565b6001600160a01b03811681146200008057600080fd5b50565b60008060008060008060c087890312156200009d57600080fd5b8651620000aa816200006a565b6020880151909650620000bd816200006a565b6040880151909550620000d0816200006a565b6060880151909450620000e3816200006a565b6080880151909350620000f6816200006a565b60a088015190925062000109816200006a565b809150509295509295509295565b60805160a05160c05160e0516101005161012051613c456200023860003960008181610293015261084601526000818161031b015281816108b101528181610b620152610f240152600081816102c70152818161048d0152818161055201528181610a2401528181610c4201528181610ca10152818161113e015261157201526000818160e9015281816102000152818161046b015281816105300152818161099501528181610a0201528181610a7b01528181610c2001528181610c8001528181610ce901528181610e58015281816110d201528181611116015281816111cd01528181611207015261148d015260008181610375015281816107e80152818161100b015281816112cd015261141b015260006101820152613c456000f3fe6080604052600436106100dd5760003560e01c80633914f2171461014a5780633e46b3651461015d5780634a4a7b0414610170578063531f9cb7146101ba57806353ead2d3146101db578063660d0d67146101ee578063712182eb146102225780637489ec231461023557806378a61fa21461024857806379a358a21461025b5780637d39aaf11461026e57806393845e46146102815780639ff78c30146102b5578063ac9650d8146102e9578063b584830514610309578063dd5baad21461033d578063e6d66ac814610350578063f887ea401461036357600080fd5b3661014557600061010d7f0000000000000000000000000000000000000000000000000000000000000000610397565b9050336001600160a01b03821614610143573360405163738d28df60e11b815260040161013a919061239d565b60405180910390fd5b005b600080fd5b6101436101583660046123d6565b610432565b61014361016b3660046123f3565b6104f7565b34801561017c57600080fd5b506101a47f000000000000000000000000000000000000000000000000000000000000000081565b6040516101b1919061239d565b60405180910390f35b6101cd6101c8366004612428565b6105c2565b6040519081526020016101b1565b6101436101e936600461247f565b61097f565b3480156101fa57600080fd5b506101a47f000000000000000000000000000000000000000000000000000000000000000081565b6101436102303660046123d6565b6109c9565b6101436102433660046124ab565b610a50565b6101436102563660046123f3565b610be7565b61014361026936600461247f565b610c72565b61014361027c36600461247f565b610cd3565b34801561028d57600080fd5b506101a47f000000000000000000000000000000000000000000000000000000000000000081565b3480156102c157600080fd5b506101a47f000000000000000000000000000000000000000000000000000000000000000081565b6102fc6102f73660046124c4565b610d0f565b6040516101b191906125dd565b34801561031557600080fd5b506101a47f000000000000000000000000000000000000000000000000000000000000000081565b61014361034b366004612609565b610e2d565b61014361035e366004612669565b610fe1565b34801561036f57600080fd5b506101a47f000000000000000000000000000000000000000000000000000000000000000081565b6000816001600160a01b03166321f8a7216040516020016103b7906126aa565b604051602081830303815290604052805190602001206040518263ffffffff1660e01b81526004016103eb91815260200190565b602060405180830381865afa158015610408573d6000803e3d6000fd5b505050506040513d601f19601f8201168201806040525081019061042c91906126d2565b92915050565b61043a611074565b604051631638cf3360e31b81523390732aa13562A0b60bA97E0211795BA24F23822C0b7E9063b1c67998906104b9907f0000000000000000000000000000000000000000000000000000000000000000907f000000000000000000000000000000000000000000000000000000000000000090869088906004016126ef565b60006040518083038186803b1580156104d157600080fd5b505af41580156104e5573d6000803e3d6000fd5b50505050506104f46001600055565b50565b6104ff611074565b604051636583220d60e11b81523390732aa13562A0b60bA97E0211795BA24F23822C0b7E9063cb06441a90610582907f0000000000000000000000000000000000000000000000000000000000000000907f00000000000000000000000000000000000000000000000000000000000000009086908a908a908a9060040161271a565b60006040518083038186803b15801561059a57600080fd5b505af41580156105ae573d6000803e3d6000fd5b50505050506105bd6001600055565b505050565b60006105cc611074565b60005a90506105ff846040516020016105e490612754565b604051602081830303815290604052805190602001206110cd565b6001600160a01b0384166106138480612785565b6106219060208101906123d6565b6001600160a01b031614610663576106398380612785565b6106479060208101906123d6565b846040516325d55c0b60e11b815260040161013a9291906127a5565b600061066f8480612785565b6106809060408101906020016123d6565b6001600160a01b0316141580156106c357506001600160a01b0384166106a68480612785565b6106b79060408101906020016123d6565b6001600160a01b031614155b156106ff576106d28380612785565b6106e39060408101906020016123d6565b8460405163225cd96160e21b815260040161013a9291906127a5565b6000610713610140850161012086016127ed565b6008811115610724576107246127bf565b14806107525750600161073f610140850161012086016127ed565b6008811115610750576107506127bf565b145b8061077f5750600261076c610140850161012086016127ed565b600881111561077d5761077d6127bf565b145b806107ac57506003610799610140850161012086016127ed565b60088111156107aa576107aa6127bf565b145b806107d9575060086107c6610140850161012086016127ed565b60088111156107d7576107d76127bf565b145b156108a5576001600160a01b037f000000000000000000000000000000000000000000000000000000000000000016631b8278786108178580612785565b6108289060c081019060a0016123d6565b604080516001600160e01b031960e085901b168152610872929189917f0000000000000000000000000000000000000000000000000000000000000000918a01359060040161280a565b600060405180830381600087803b15801561088c57600080fd5b505af11580156108a0573d6000803e3d6000fd5b505050505b60006001600160a01b037f00000000000000000000000000000000000000000000000000000000000000001663b29e7ea98686846108e38280612785565b6108f49060608101906040016123d6565b6001600160a01b031614156040518463ffffffff1660e01b815260040161091d939291906129b8565b6020604051808303816000875af115801561093c573d6000803e3d6000fd5b505050506040513d601f19601f820116820180604052508101906109609190612af6565b905061097285338460a08801356111c6565b91505061042c6001600055565b610987611074565b6109908261160d565b6109bb7f00000000000000000000000000000000000000000000000000000000000000008383611634565b6109c56001600055565b5050565b6109d1611074565b6040516331afcdf360e21b81523390732aa13562A0b60bA97E0211795BA24F23822C0b7E9063c6bf37cc906104b9907f0000000000000000000000000000000000000000000000000000000000000000907f000000000000000000000000000000000000000000000000000000000000000090869088906004016126ef565b610a58611074565b60005a905060007369a26Ac43E6E6F1A4e631558c4D1DA46a678cd4e63fdfc26f37f0000000000000000000000000000000000000000000000000000000000000000856040518363ffffffff1660e01b8152600401610ab8929190612b0f565b600060405180830381865af4158015610ad5573d6000803e3d6000fd5b505050506040513d6000823e601f3d908101601f19168201604052610afd9190810190612da3565b90506000610b0a82515190565b6001600160a01b031603610b3157604051631630779760e01b815260040160405180910390fd5b610b4c610b3d82515190565b6040516020016105e490612754565b604051637489ec2360e01b8152600481018490527f00000000000000000000000000000000000000000000000000000000000000006001600160a01b031690637489ec2390602401600060405180830381600087803b158015610bae57600080fd5b505af1158015610bc2573d6000803e3d6000fd5b50505050610bdb610bd282515190565b338460006111c6565b50506104f46001600055565b610bef611074565b60405163c563c4ed60e01b81523390732aa13562A0b60bA97E0211795BA24F23822C0b7E9063c563c4ed90610582907f0000000000000000000000000000000000000000000000000000000000000000907f00000000000000000000000000000000000000000000000000000000000000009086908a908a908a9060040161271a565b610c7a611074565b33610cc87f00000000000000000000000000000000000000000000000000000000000000007f000000000000000000000000000000000000000000000000000000000000000083868661170e565b506109c56001600055565b610cdb611074565b610ce48261160d565b6109bb7f000000000000000000000000000000000000000000000000000000000000000083836118c7565b6060816001600160401b03811115610d2957610d29612b28565b604051908082528060200260200182016040528015610d5c57816020015b6060815260200190600190039081610d475790505b50905060005b82811015610e265760008030868685818110610d8057610d80612ed9565b9050602002810190610d929190612eef565b604051610da0929190612f35565b600060405180830381855af49150503d8060008114610ddb576040519150601f19603f3d011682016040523d82523d6000602084013e610de0565b606091505b509150915081610df357610df38161194a565b80848481518110610e0657610e06612ed9565b602002602001018190525050508080610e1e90612f5b565b915050610d62565b5092915050565b610e35611074565b60005a905060007369a26Ac43E6E6F1A4e631558c4D1DA46a678cd4e63fdfc26f37f00000000000000000000000000000000000000000000000000000000000000008b6040518363ffffffff1660e01b8152600401610e95929190612b0f565b600060405180830381865af4158015610eb2573d6000803e3d6000fd5b505050506040513d6000823e601f3d908101601f19168201604052610eda9190810190612da3565b90506000610ee782515190565b6001600160a01b031603610f0e57604051631630779760e01b815260040160405180910390fd5b610f1a610b3d82515190565b6001600160a01b037f000000000000000000000000000000000000000000000000000000000000000016639077d9e28a8a8a8a8a8a8a896000610f5f82516060015190565b6001600160a01b031614156040518a63ffffffff1660e01b8152600401610f8e9998979695949392919061302f565b600060405180830381600087803b158015610fa857600080fd5b505af1158015610fbc573d6000803e3d6000fd5b50505050610fcc610bd282515190565b5050610fd86001600055565b50505050505050565b610fe9611074565b610ff28261160d565b6040516303704f0f60e31b815233906001600160a01b037f00000000000000000000000000000000000000000000000000000000000000001690631b8278789061104690879085908890889060040161280a565b600060405180830381600087803b15801561106057600080fd5b505af11580156105ae573d6000803e3d6000fd5b6002600054036110c65760405162461bcd60e51b815260206004820152601f60248201527f5265656e7472616e637947756172643a207265656e7472616e742063616c6c00604482015260640161013a565b6002600055565b6110ff7f00000000000000000000000000000000000000000000000000000000000000006110fa30611983565b611a0e565b604051638a4a419960e01b81526001600160a01b037f0000000000000000000000000000000000000000000000000000000000000000811660048301527f0000000000000000000000000000000000000000000000000000000000000000811660248301528316604482015233606482018190526084820183905290732aa13562A0b60bA97E0211795BA24F23822C0b7E90638a4a41999060a40160006040518083038186803b1580156111b257600080fd5b505af4158015610fd8573d6000803e3d6000fd5b60006111f37f00000000000000000000000000000000000000000000000000000000000000008686611a39565b9050806000036112035750611607565b60007f00000000000000000000000000000000000000000000000000000000000000006001600160a01b03166321f8a721604051602001611243906126aa565b604051602081830303815290604052805190602001206040518263ffffffff1660e01b815260040161127791815260200190565b602060405180830381865afa158015611294573d6000803e3d6000fd5b505050506040513d601f19601f820116820180604052508101906112b891906126d2565b905081816001600160a01b031663dd62ed3e887f00000000000000000000000000000000000000000000000000000000000000006040518363ffffffff1660e01b81526004016113099291906127a5565b602060405180830381865afa158015611326573d6000803e3d6000fd5b505050506040513d601f19601f8201168201806040525081019061134a9190612af6565b1015611357575050611607565b6040516370a0823160e01b815282906001600160a01b038316906370a0823190611385908a9060040161239d565b602060405180830381865afa1580156113a2573d6000803e3d6000fd5b505050506040513d601f19601f820116820180604052508101906113c69190612af6565b10156113d3575050611607565b6000833a5a6113e29088613179565b6113ec919061318c565b6113f691906131a3565b905082811015611404578092505b6040516303704f0f60e31b81526001600160a01b037f00000000000000000000000000000000000000000000000000000000000000001690631b827878906114569085908b903090899060040161280a565b600060405180830381600087803b15801561147057600080fd5b505af1158015611484573d6000803e3d6000fd5b505050506114b47f0000000000000000000000000000000000000000000000000000000000000000838886611abb565b6114bc61229f565b80516114c9906002611be9565b6040805180820190915260078152661858d8dbdd5b9d60ca1b602082015281516114f6916000908b611c4e565b60408051808201909152600a8152691cdd589858d8dbdd5b9d60b21b60208201528151611526916001908a611c4e565b6020810151611536906001611be9565b611570600060405180604001604052806006815260200165185b5bdd5b9d60d21b815250868460200151611cab909392919063ffffffff16565b7f00000000000000000000000000000000000000000000000000000000000000006001600160a01b03166363d163636115a88a611cfe565b6115b18a611cfe565b846040518463ffffffff1660e01b81526004016115d093929190613a43565b600060405180830381600087803b1580156115ea57600080fd5b505af11580156115fe573d6000803e3d6000fd5b50505050505050505b50505050565b6001600160a01b0381166104f45760405163d551823d60e01b815260040160405180910390fd5b8060000361164157505050565b61164a8261160d565b6000836001600160a01b031663bd02d0f560405160200161166a90613a8c565b604051602081830303815290604052805190602001206040518263ffffffff1660e01b815260040161169e91815260200190565b602060405180830381865afa1580156116bb573d6000803e3d6000fd5b505050506040513d601f19601f820116820180604052508101906116df9190612af6565b90506000806000806000868887f1905080156116fc575050505050565b6117078585856118c7565b5050505050565b600061171a8484611d0a565b604051637152429d60e11b815260048101829052602481018490529091506001600160a01b0387169063e2a4853a906044016020604051808303816000875af115801561176b573d6000803e3d6000fd5b505050506040513d601f19601f8201168201806040525081019061178f9190612af6565b5061179861229f565b80516117a5906002611be9565b6040805180820190915260078152661858d8dbdd5b9d60ca1b602082015281516117d29160009088611c4e565b60408051808201909152600a8152691cdd589858d8dbdd5b9d60b21b602082015281516118029160019087611c4e565b6020810151611812906001611be9565b61184c600060405180604001604052806006815260200165185b5bdd5b9d60d21b815250858460200151611cab909392919063ffffffff16565b856001600160a01b03166363d1636361186487611cfe565b61186d87611cfe565b846040518463ffffffff1660e01b815260040161188c93929190613ac3565b600060405180830381600087803b1580156118a657600080fd5b505af11580156118ba573d6000803e3d6000fd5b5050505050505050505050565b806000036118d457505050565b6118dd8261160d565b60006118e884610397565b9050806001600160a01b031663d0e30db0836040518263ffffffff1660e01b81526004016000604051808303818588803b15801561192557600080fd5b505af1158015611939573d6000803e3d6000fd5b505050505061160784828585611da3565b60008061195683611fed565b91509150801561197a578160405162461bcd60e51b815260040161013a9190613b15565b6105bd8361207d565b60006040516020016119c4906020808252601b908201527a14d5509050d0d3d5539517d191505515549157d11254d050931151602a1b604082015260600190565b60408051601f198184030181528282528051602091820120908301526001600160a01b03841690820152606001604051602081830303815290604052805190602001209050919050565b611a188282612086565b156109c55760405163dd70e0c960e01b81526004810182905260240161013a565b600080611a468484611d0a565b60405163bd02d0f560e01b8152600481018290529091506001600160a01b0386169063bd02d0f590602401602060405180830381865afa158015611a8e573d6000803e3d6000fd5b505050506040513d601f19601f82011682018060405250810190611ab29190612af6565b95945050505050565b801561160757611aca8261160d565b604051632e1a7d4d60e01b8152600481018290526001600160a01b03841690632e1a7d4d90602401600060405180830381600087803b158015611b0c57600080fd5b505af1158015611b20573d6000803e3d6000fd5b505050506000846001600160a01b031663bd02d0f5604051602001611b4490613a8c565b604051602081830303815290604052805190602001206040518263ffffffff1660e01b8152600401611b7891815260200190565b602060405180830381865afa158015611b95573d6000803e3d6000fd5b505050506040513d601f19601f82011682018060405250810190611bb99190612af6565b90506000806000806000868887f190508015611bd6575050611607565b611be18685856118c7565b505050505050565b806001600160401b03811115611c0157611c01612b28565b604051908082528060200260200182016040528015611c4757816020015b604080518082019091526060815260006020820152815260200190600190039081611c1f5790505b5090915250565b8184600001518481518110611c6557611c65612ed9565b6020026020010151600001819052508084600001518481518110611c8b57611c8b612ed9565b6020908102919091018101516001600160a01b0390921691015250505050565b8184600001518481518110611cc257611cc2612ed9565b6020026020010151600001819052508084600001518481518110611ce857611ce8612ed9565b6020026020010151602001818152505050505050565b6001600160a01b031690565b6000604051602001611d4d906020808252601d908201527f5355424143434f554e545f4155544f5f544f505f55505f414d4f554e54000000604082015260600190565b60408051601f198184030181528282528051602091820120908301526001600160a01b03808616918301919091528316606082015260800160405160208183030381529060405280519060200120905092915050565b801561160757611db28261160d565b6000846001600160a01b031663bd02d0f5611dcc866120f9565b6040518263ffffffff1660e01b8152600401611dea91815260200190565b602060405180830381865afa158015611e07573d6000803e3d6000fd5b505050506040513d601f19601f82011682018060405250810190611e2b9190612af6565b905080600003611e505783604051634fe14bfd60e11b815260040161013a919061239d565b6000611e5e85858585612137565b5090508015611e6e575050611607565b6000866001600160a01b03166321f8a721604051602001611eb2906020808252600f908201526e484f4c44494e475f4144445245535360881b604082015260600190565b604051602081830303815290604052805190602001206040518263ffffffff1660e01b8152600401611ee691815260200190565b602060405180830381865afa158015611f03573d6000803e3d6000fd5b505050506040513d601f19601f82011682018060405250810190611f2791906126d2565b90506001600160a01b038116611f5057604051633a6de2f560e21b815260040160405180910390fd5b600080611f5f88848888612137565b915091508115611f73575050505050611607565b6000611f7e82611fed565b5090507fc9f14d9a0a9b46470c7c0b6c508f8283abaab7f795f153953c58cd4250824dae8183604051611fb2929190613b28565b60405180910390a160405163012f3b8f60e71b81526001600160a01b03808b166004830152891660248201526044810188905260640161013a565b60606000604483511015612014575050604080516020810190915260008082529092909150565b6000612021846020015190565b90506307b9e43360e51b6001600160e01b031982160161206057600484019350838060200190518101906120559190613b4d565b946001945092505050565b600060405180602001604052806000815250909250925050915091565b80518060208301fd5b604051633d70e7e560e11b8152600481018290526000906001600160a01b03841690637ae1cfca90602401602060405180830381865afa1580156120ce573d6000803e3d6000fd5b505050506040513d601f19601f820116820180604052508101906120f29190613be0565b9392505050565b60006040516020016119c4906020808252601890820152771513d2d15397d514905394d1915497d1d054d7d31253525560421b604082015260600190565b60006060600063a9059cbb60e01b8686604051602401612158929190612b0f565b604051602081830303815290604052906001600160e01b0319166020820180516001600160e01b0383818316178352505050509050600080886001600160a01b031686846040516121a99190613bfd565b60006040518083038160008787f1925050503d80600081146121e7576040519150601f19603f3d011682016040523d82523d6000602084013e6121ec565b606091505b5091509150811561228d57805160000361224a576001600160a01b0389163b61224a5760006040518060400160405280601481526020017310d85b1b081d1bc81b9bdb8b58dbdb9d1c9858dd60621b81525094509450505050612296565b6000815111801561226c57508080602001905181019061226a9190613be0565b155b1561227f57600094509250612296915050565b600194509250612296915050565b60009450925050505b94509492505050565b604080516101208101909152606060e08201818152610100830191909152819081526020016122e1604051806040016040528060608152602001606081525090565b8152602001612303604051806040016040528060608152602001606081525090565b8152602001612325604051806040016040528060608152602001606081525090565b8152602001612347604051806040016040528060608152602001606081525090565b8152602001612369604051806040016040528060608152602001606081525090565b815260200161238b604051806040016040528060608152602001606081525090565b905290565b6001600160a01b03169052565b6001600160a01b0391909116815260200190565b6001600160a01b03811681146104f457600080fd5b80356123d1816123b1565b919050565b6000602082840312156123e857600080fd5b81356120f2816123b1565b60008060006060848603121561240857600080fd5b8335612413816123b1565b95602085013595506040909401359392505050565b6000806040838503121561243b57600080fd5b8235612446816123b1565b915060208301356001600160401b0381111561246157600080fd5b83016101e0818603121561247457600080fd5b809150509250929050565b6000806040838503121561249257600080fd5b823561249d816123b1565b946020939093013593505050565b6000602082840312156124bd57600080fd5b5035919050565b600080602083850312156124d757600080fd5b82356001600160401b03808211156124ee57600080fd5b818501915085601f83011261250257600080fd5b81358181111561251157600080fd5b8660208260051b850101111561252657600080fd5b60209290920196919550909350505050565b60005b8381101561255357818101518382015260200161253b565b50506000910152565b60008151808452612574816020860160208601612538565b601f01601f19169290920160200192915050565b600081518084526020808501808196508360051b8101915082860160005b858110156125d05782840389526125be84835161255c565b988501989350908401906001016125a6565b5091979650505050505050565b6020815260006120f26020830184612588565b80151581146104f457600080fd5b80356123d1816125f0565b600080600080600080600060e0888a03121561262457600080fd5b873596506020880135955060408801359450606088013593506080880135925060a0880135915060c0880135612659816125f0565b8091505092959891949750929550565b60008060006060848603121561267e57600080fd5b8335612689816123b1565b92506020840135612699816123b1565b929592945050506040919091013590565b60208082526003908201526215d39560ea1b604082015260600190565b80516123d1816123b1565b6000602082840312156126e457600080fd5b81516120f2816123b1565b6001600160a01b03948516815292841660208401529083166040830152909116606082015260800190565b6001600160a01b0396871681529486166020860152928516604085015293166060830152608082019290925260a081019190915260c00190565b60208082526017908201527629aaa120a1a1a7aaa72a2fa7a92222a92fa0a1aa24a7a760491b604082015260600190565b6000823560de1983360301811261279b57600080fd5b9190910192915050565b6001600160a01b0392831681529116602082015260400190565b634e487b7160e01b600052602160045260246000fd5b600981106104f457600080fd5b80356123d1816127d5565b6000602082840312156127ff57600080fd5b81356120f2816127d5565b6001600160a01b039485168152928416602084015292166040820152606081019190915260800190565b6000808335601e1984360301811261284b57600080fd5b83016020810192503590506001600160401b0381111561286a57600080fd5b8060051b360382131561287c57600080fd5b9250929050565b8183526000602080850194508260005b858110156128c15781356128a6816123b1565b6001600160a01b031687529582019590820190600101612893565b509495945050505050565b600081356128d9816123b1565b6001600160a01b0390811684526020830135906128f5826123b1565b908116602085015260408301359061290c826123b1565b9081166040850152606083013590612923826123b1565b908116606085015260808301359061293a826123b1565b16608084015261294c60a083016123c6565b61295960a0850182612390565b5061296760c0830183612834565b60e060c0860152611ab260e086018284612883565b6009811061298c5761298c6127bf565b9052565b600381106104f457600080fd5b80356123d181612990565b6003811061298c5761298c6127bf565b6001600160a01b038416815260606020820152600083353685900360de190181126129e257600080fd5b6101e08060608501526129fb61024085018784016128cc565b9150612a566080850160208801803582526020810135602083015260408101356040830152606081013560608301526080810135608083015260a081013560a083015260c081013560c083015260e081013560e08301525050565b612a6361012087016127e2565b610180612a728187018361297c565b612a7f610140890161299d565b91506101a0612a90818801846129a8565b612a9d6101608a016125fe565b92506101c0612aaf8189018515159052565b612aba838b016125fe565b801515898701529350612ace828b016125fe565b1515610200890152909801356102208701525050509215156040909201919091525092915050565b600060208284031215612b0857600080fd5b5051919050565b6001600160a01b03929092168252602082015260400190565b634e487b7160e01b600052604160045260246000fd5b60405161016081016001600160401b0381118282101715612b6157612b61612b28565b60405290565b604051606081016001600160401b0381118282101715612b6157612b61612b28565b60405161010081016001600160401b0381118282101715612b6157612b61612b28565b604051601f8201601f191681016001600160401b0381118282101715612bd457612bd4612b28565b604052919050565b600082601f830112612bed57600080fd5b815160206001600160401b03821115612c0857612c08612b28565b8160051b612c17828201612bac565b9283528481018201928281019087851115612c3157600080fd5b83870192505b84831015612c59578251612c4a816123b1565b82529183019190830190612c37565b979650505050505050565b80516123d1816127d5565b80516123d181612990565b60006101608284031215612c8d57600080fd5b612c95612b3e565b9050612ca082612c64565b8152612cae60208301612c6f565b602082015260408201516040820152606082015160608201526080820151608082015260a082015160a082015260c082015160c082015260e082015160e082015261010080830151818301525061012080830151818301525061014080830151818301525092915050565b600060808284031215612d2b57600080fd5b604051608081016001600160401b0381118282101715612d4d57612d4d612b28565b80604052508091508251612d60816125f0565b81526020830151612d70816125f0565b60208201526040830151612d83816125f0565b60408201526060830151612d96816125f0565b6060919091015292915050565b600060208284031215612db557600080fd5b81516001600160401b0380821115612dcc57600080fd5b908301906102008286031215612de157600080fd5b612de9612b67565b825182811115612df857600080fd5b83016101008188031215612e0b57600080fd5b612e13612b89565b612e1c826126c7565b8152612e2a602083016126c7565b6020820152612e3b604083016126c7565b6040820152612e4c606083016126c7565b6060820152612e5d608083016126c7565b6080820152612e6e60a083016126c7565b60a0820152612e7f60c083016126c7565b60c082015260e082015184811115612e9657600080fd5b612ea289828501612bdc565b60e083015250825250612eb88660208501612c7a565b6020820152612ecb866101808501612d19565b604082015295945050505050565b634e487b7160e01b600052603260045260246000fd5b6000808335601e19843603018112612f0657600080fd5b8301803591506001600160401b03821115612f2057600080fd5b60200191503681900382131561287c57600080fd5b8183823760009101908152919050565b634e487b7160e01b600052601160045260246000fd5b600060018201612f6d57612f6d612f45565b5060010190565b600081518084526020808501945080840160005b838110156128c15781516001600160a01b031687529582019590820190600101612f88565b612fb882825161297c565b6020810151612fca60208401826129a8565b5060408101516040830152606081015160608301526080810151608083015260a081015160a083015260c081015160c083015260e081015160e08301526101008082015181840152506101208082015181840152506101408082015181840152505050565b60006101208b83528a60208401528960408401528860608401528760808401528660a084015285151560c08401528060e084015284516102008285015260018060a01b0391508181511661032085015281602082015116610340850152604081015191506130a1610360850183612390565b606081015191506130b6610380850183612390565b608081015191506130cb6103a0850183612390565b60a081015191506130e06103c0850183612390565b60c081015191506130f56103e0850183612390565b60e081015191505061010080610400850152613115610420850183612f74565b9150602086015161312a610140860182612fad565b50604095860151805115156102a0860152602081015115156102c08601529586015115156102e08501526060909501511515610300840152921515939091019290925298975050505050505050565b8181038181111561042c5761042c612f45565b808202811582820484141761042c5761042c612f45565b8082018082111561042c5761042c612f45565b600081518084526020808501808196508360051b8101915082860160005b858110156125d05782840389528151604081518187526131f68288018261255c565b915050868201519150858103878701526132108183612f74565b9a87019a95505050908401906001016131d4565b60006040808401835182865281815180845260608801915060608160051b89010193506020808401935060005b8281101561329b57898603605f19018452845180518888526132758989018261255c565b918401516001600160a01b03169784019790975295509381019392810192600101613251565b50808801519550888503818a015250505050611ab281836131b6565b600081518084526020808501808196508360051b810191508286016000805b86811015613349578385038a528251604081518188526132f88289018261255c565b92890151888403898b01528051808552908a01938693508a0191505b808310156133345783518252928901926001929092019190890190613314565b509b88019b96505050918501916001016132d6565b509298975050505050505050565b60006040808401835182865281815180845260608801915060608160051b89010193506020808401935060005b828110156133c557898603605f19018452845180518888526133a88989018261255c565b918401519784019790975295509381019392810192600101613384565b50808801519550888503818a015250505050611ab281836132b7565b600081518084526020808501808196508360051b810191508286016000805b86811015613349578385038a528251604081518188526134228289018261255c565b92890151888403898b01528051808552908a01938693508a0191505b8083101561345e578351825292890192600192909201919089019061343e565b509b88019b9650505091850191600101613400565b60006040808401835182865281815180845260608801915060608160051b89010193506020808401935060005b828110156134e157898603605f19018452845180518888526134c48989018261255c565b9184015197840197909752955093810193928101926001016134a0565b50808801519550888503818a015250505050611ab281836133e1565b600081518084526020808501808196508360051b810191508286016000805b86811015613349578385038a5282516040815181885261353e8289018261255c565b92890151888403898b01528051808552908a01938693508a0191505b8083101561357c5783511515825292890192600192909201919089019061355a565b509b88019b965050509185019160010161351c565b60006040808401835182865281815180845260608801915060608160051b89010193506020808401935060005b8281101561360157898603605f19018452845180518888526135e28989018261255c565b91840151151597840197909752955093810193928101926001016135be565b50808801519550888503818a015250505050611ab281836134fd565b600081518084526020808501808196508360051b810191508286016000805b86811015613349578385038a5282516040815181885261365e8289018261255c565b92890151888403898b01528051808552908a01938693508a0191505b8083101561369a578351825292890192600192909201919089019061367a565b509b88019b965050509185019160010161363c565b60006040808401835182865281815180845260608801915060608160051b89010193506020808401935060005b8281101561371d57898603605f19018452845180518888526137008989018261255c565b9184015197840197909752955093810193928101926001016136dc565b50808801519550888503818a015250505050611ab2818361361d565b600081518084526020808501808196508360051b8101915082860160005b858110156125d05782840389528151604081518187526137798288018261255c565b915050868201519150858103878701526137938183612588565b9a87019a9550505090840190600101613757565b60006040808401835182865281815180845260608801915060608160051b89010193506020808401935060005b8281101561382457898603605f19018452845180518888526137f88989018261255c565b9184015188830389860152919050613810818361255c565b9750505093810193928101926001016137d4565b50808801519550888503818a015250505050611ab28183613739565b600081518084526020808501808196506005915083821b81018387016000805b878110156138eb578484038b528251604081518187526138828288018261255c565b928a0151878403888c01528051808552908b019392508a83019150808a1b83018b01865b828110156138d457601f198583030184526138c282875161255c565b958d0195938d019391506001016138a6565b509e8b019e97505050938801935050600101613860565b50919998505050505050505050565b60006040808401835182865281815180845260608801915060608160051b89010193506020808401935060005b8281101561397757898603605f190184528451805188885261394b8989018261255c565b9184015188830389860152919050613963818361255c565b975050509381019392810192600101613927565b50808801519550888503818a015250505050611ab28183613840565b6000815160e084526139a860e0850182613224565b9050602083015184820360208601526139c18282613357565b915050604083015184820360408601526139db8282613473565b915050606083015184820360608601526139f58282613591565b91505060808301518482036080860152613a0f82826136af565b91505060a083015184820360a0860152613a2982826137a7565b91505060c083015184820360c0860152611ab282826138fa565b60808152601360808201527205375626163636f756e744175746f546f70557606c1b60a082015283602082015282604082015260c060608201526000611ab260c0830184613993565b6020808252601f908201527f4e41544956455f544f4b454e5f5452414e534645525f4741535f4c494d495400604082015260600190565b60808152601c60808201527b14d95d14dd589858d8dbdd5b9d105d5d1bd51bdc155c105b5bdd5b9d60221b60a082015283602082015282604082015260c060608201526000611ab260c0830184613993565b6020815260006120f2602083018461255c565b604081526000613b3b604083018561255c565b8281036020840152611ab2818561255c565b600060208284031215613b5f57600080fd5b81516001600160401b0380821115613b7657600080fd5b818401915084601f830112613b8a57600080fd5b815181811115613b9c57613b9c612b28565b613baf601f8201601f1916602001612bac565b9150808252856020828501011115613bc657600080fd5b613bd7816020840160208601612538565b50949350505050565b600060208284031215613bf257600080fd5b81516120f2816125f0565b6000825161279b81846020870161253856fea2646970667358221220378989d1bfbb99953ea77db1b103fad63eb28bd122bca4b36d0f818c63ec19d664736f6c63430008120033",
  "deployedBytecode": "0x6080604052600436106100dd5760003560e01c80633914f2171461014a5780633e46b3651461015d5780634a4a7b0414610170578063531f9cb7146101ba57806353ead2d3146101db578063660d0d67146101ee578063712182eb146102225780637489ec231461023557806378a61fa21461024857806379a358a21461025b5780637d39aaf11461026e57806393845e46146102815780639ff78c30146102b5578063ac9650d8146102e9578063b584830514610309578063dd5baad21461033d578063e6d66ac814610350578063f887ea401461036357600080fd5b3661014557600061010d7f0000000000000000000000000000000000000000000000000000000000000000610397565b9050336001600160a01b03821614610143573360405163738d28df60e11b815260040161013a919061239d565b60405180910390fd5b005b600080fd5b6101436101583660046123d6565b610432565b61014361016b3660046123f3565b6104f7565b34801561017c57600080fd5b506101a47f000000000000000000000000000000000000000000000000000000000000000081565b6040516101b1919061239d565b60405180910390f35b6101cd6101c8366004612428565b6105c2565b6040519081526020016101b1565b6101436101e936600461247f565b61097f565b3480156101fa57600080fd5b506101a47f000000000000000000000000000000000000000000000000000000000000000081565b6101436102303660046123d6565b6109c9565b6101436102433660046124ab565b610a50565b6101436102563660046123f3565b610be7565b61014361026936600461247f565b610c72565b61014361027c36600461247f565b610cd3565b34801561028d57600080fd5b506101a47f000000000000000000000000000000000000000000000000000000000000000081565b3480156102c157600080fd5b506101a47f000000000000000000000000000000000000000000000000000000000000000081565b6102fc6102f73660046124c4565b610d0f565b6040516101b191906125dd565b34801561031557600080fd5b506101a47f000000000000000000000000000000000000000000000000000000000000000081565b61014361034b366004612609565b610e2d565b61014361035e366004612669565b610fe1565b34801561036f57600080fd5b506101a47f000000000000000000000000000000000000000000000000000000000000000081565b6000816001600160a01b03166321f8a7216040516020016103b7906126aa565b604051602081830303815290604052805190602001206040518263ffffffff1660e01b81526004016103eb91815260200190565b602060405180830381865afa158015610408573d6000803e3d6000fd5b505050506040513d601f19601f8201168201806040525081019061042c91906126d2565b92915050565b61043a611074565b604051631638cf3360e31b8152339073__$cd9cbb3e1d35f471855f1a1916300c2072$__9063b1c67998906104b9907f0000000000000000000000000000000000000000000000000000000000000000907f000000000000000000000000000000000000000000000000000000000000000090869088906004016126ef565b60006040518083038186803b1580156104d157600080fd5b505af41580156104e5573d6000803e3d6000fd5b50505050506104f46001600055565b50565b6104ff611074565b604051636583220d60e11b8152339073__$cd9cbb3e1d35f471855f1a1916300c2072$__9063cb06441a90610582907f0000000000000000000000000000000000000000000000000000000000000000907f00000000000000000000000000000000000000000000000000000000000000009086908a908a908a9060040161271a565b60006040518083038186803b15801561059a57600080fd5b505af41580156105ae573d6000803e3d6000fd5b50505050506105bd6001600055565b505050565b60006105cc611074565b60005a90506105ff846040516020016105e490612754565b604051602081830303815290604052805190602001206110cd565b6001600160a01b0384166106138480612785565b6106219060208101906123d6565b6001600160a01b031614610663576106398380612785565b6106479060208101906123d6565b846040516325d55c0b60e11b815260040161013a9291906127a5565b600061066f8480612785565b6106809060408101906020016123d6565b6001600160a01b0316141580156106c357506001600160a01b0384166106a68480612785565b6106b79060408101906020016123d6565b6001600160a01b031614155b156106ff576106d28380612785565b6106e39060408101906020016123d6565b8460405163225cd96160e21b815260040161013a9291906127a5565b6000610713610140850161012086016127ed565b6008811115610724576107246127bf565b14806107525750600161073f610140850161012086016127ed565b6008811115610750576107506127bf565b145b8061077f5750600261076c610140850161012086016127ed565b600881111561077d5761077d6127bf565b145b806107ac57506003610799610140850161012086016127ed565b60088111156107aa576107aa6127bf565b145b806107d9575060086107c6610140850161012086016127ed565b60088111156107d7576107d76127bf565b145b156108a5576001600160a01b037f000000000000000000000000000000000000000000000000000000000000000016631b8278786108178580612785565b6108289060c081019060a0016123d6565b604080516001600160e01b031960e085901b168152610872929189917f0000000000000000000000000000000000000000000000000000000000000000918a01359060040161280a565b600060405180830381600087803b15801561088c57600080fd5b505af11580156108a0573d6000803e3d6000fd5b505050505b60006001600160a01b037f00000000000000000000000000000000000000000000000000000000000000001663b29e7ea98686846108e38280612785565b6108f49060608101906040016123d6565b6001600160a01b031614156040518463ffffffff1660e01b815260040161091d939291906129b8565b6020604051808303816000875af115801561093c573d6000803e3d6000fd5b505050506040513d601f19601f820116820180604052508101906109609190612af6565b905061097285338460a08801356111c6565b91505061042c6001600055565b610987611074565b6109908261160d565b6109bb7f00000000000000000000000000000000000000000000000000000000000000008383611634565b6109c56001600055565b5050565b6109d1611074565b6040516331afcdf360e21b8152339073__$cd9cbb3e1d35f471855f1a1916300c2072$__9063c6bf37cc906104b9907f0000000000000000000000000000000000000000000000000000000000000000907f000000000000000000000000000000000000000000000000000000000000000090869088906004016126ef565b610a58611074565b60005a9050600073__$9dcb75ef0bb6c4288f2ccffe7dc492c4eb$__63fdfc26f37f0000000000000000000000000000000000000000000000000000000000000000856040518363ffffffff1660e01b8152600401610ab8929190612b0f565b600060405180830381865af4158015610ad5573d6000803e3d6000fd5b505050506040513d6000823e601f3d908101601f19168201604052610afd9190810190612da3565b90506000610b0a82515190565b6001600160a01b031603610b3157604051631630779760e01b815260040160405180910390fd5b610b4c610b3d82515190565b6040516020016105e490612754565b604051637489ec2360e01b8152600481018490527f00000000000000000000000000000000000000000000000000000000000000006001600160a01b031690637489ec2390602401600060405180830381600087803b158015610bae57600080fd5b505af1158015610bc2573d6000803e3d6000fd5b50505050610bdb610bd282515190565b338460006111c6565b50506104f46001600055565b610bef611074565b60405163c563c4ed60e01b8152339073__$cd9cbb3e1d35f471855f1a1916300c2072$__9063c563c4ed90610582907f0000000000000000000000000000000000000000000000000000000000000000907f00000000000000000000000000000000000000000000000000000000000000009086908a908a908a9060040161271a565b610c7a611074565b33610cc87f00000000000000000000000000000000000000000000000000000000000000007f000000000000000000000000000000000000000000000000000000000000000083868661170e565b506109c56001600055565b610cdb611074565b610ce48261160d565b6109bb7f000000000000000000000000000000000000000000000000000000000000000083836118c7565b6060816001600160401b03811115610d2957610d29612b28565b604051908082528060200260200182016040528015610d5c57816020015b6060815260200190600190039081610d475790505b50905060005b82811015610e265760008030868685818110610d8057610d80612ed9565b9050602002810190610d929190612eef565b604051610da0929190612f35565b600060405180830381855af49150503d8060008114610ddb576040519150601f19603f3d011682016040523d82523d6000602084013e610de0565b606091505b509150915081610df357610df38161194a565b80848481518110610e0657610e06612ed9565b602002602001018190525050508080610e1e90612f5b565b915050610d62565b5092915050565b610e35611074565b60005a9050600073__$9dcb75ef0bb6c4288f2ccffe7dc492c4eb$__63fdfc26f37f00000000000000000000000000000000000000000000000000000000000000008b6040518363ffffffff1660e01b8152600401610e95929190612b0f565b600060405180830381865af4158015610eb2573d6000803e3d6000fd5b505050506040513d6000823e601f3d908101601f19168201604052610eda9190810190612da3565b90506000610ee782515190565b6001600160a01b031603610f0e57604051631630779760e01b815260040160405180910390fd5b610f1a610b3d82515190565b6001600160a01b037f000000000000000000000000000000000000000000000000000000000000000016639077d9e28a8a8a8a8a8a8a896000610f5f82516060015190565b6001600160a01b031614156040518a63ffffffff1660e01b8152600401610f8e9998979695949392919061302f565b600060405180830381600087803b158015610fa857600080fd5b505af1158015610fbc573d6000803e3d6000fd5b50505050610fcc610bd282515190565b5050610fd86001600055565b50505050505050565b610fe9611074565b610ff28261160d565b6040516303704f0f60e31b815233906001600160a01b037f00000000000000000000000000000000000000000000000000000000000000001690631b8278789061104690879085908890889060040161280a565b600060405180830381600087803b15801561106057600080fd5b505af11580156105ae573d6000803e3d6000fd5b6002600054036110c65760405162461bcd60e51b815260206004820152601f60248201527f5265656e7472616e637947756172643a207265656e7472616e742063616c6c00604482015260640161013a565b6002600055565b6110ff7f00000000000000000000000000000000000000000000000000000000000000006110fa30611983565b611a0e565b604051638a4a419960e01b81526001600160a01b037f0000000000000000000000000000000000000000000000000000000000000000811660048301527f000000000000000000000000000000000000000000000000000000000000000081166024830152831660448201523360648201819052608482018390529073__$cd9cbb3e1d35f471855f1a1916300c2072$__90638a4a41999060a40160006040518083038186803b1580156111b257600080fd5b505af4158015610fd8573d6000803e3d6000fd5b60006111f37f00000000000000000000000000000000000000000000000000000000000000008686611a39565b9050806000036112035750611607565b60007f00000000000000000000000000000000000000000000000000000000000000006001600160a01b03166321f8a721604051602001611243906126aa565b604051602081830303815290604052805190602001206040518263ffffffff1660e01b815260040161127791815260200190565b602060405180830381865afa158015611294573d6000803e3d6000fd5b505050506040513d601f19601f820116820180604052508101906112b891906126d2565b905081816001600160a01b031663dd62ed3e887f00000000000000000000000000000000000000000000000000000000000000006040518363ffffffff1660e01b81526004016113099291906127a5565b602060405180830381865afa158015611326573d6000803e3d6000fd5b505050506040513d601f19601f8201168201806040525081019061134a9190612af6565b1015611357575050611607565b6040516370a0823160e01b815282906001600160a01b038316906370a0823190611385908a9060040161239d565b602060405180830381865afa1580156113a2573d6000803e3d6000fd5b505050506040513d601f19601f820116820180604052508101906113c69190612af6565b10156113d3575050611607565b6000833a5a6113e29088613179565b6113ec919061318c565b6113f691906131a3565b905082811015611404578092505b6040516303704f0f60e31b81526001600160a01b037f00000000000000000000000000000000000000000000000000000000000000001690631b827878906114569085908b903090899060040161280a565b600060405180830381600087803b15801561147057600080fd5b505af1158015611484573d6000803e3d6000fd5b505050506114b47f0000000000000000000000000000000000000000000000000000000000000000838886611abb565b6114bc61229f565b80516114c9906002611be9565b6040805180820190915260078152661858d8dbdd5b9d60ca1b602082015281516114f6916000908b611c4e565b60408051808201909152600a8152691cdd589858d8dbdd5b9d60b21b60208201528151611526916001908a611c4e565b6020810151611536906001611be9565b611570600060405180604001604052806006815260200165185b5bdd5b9d60d21b815250868460200151611cab909392919063ffffffff16565b7f00000000000000000000000000000000000000000000000000000000000000006001600160a01b03166363d163636115a88a611cfe565b6115b18a611cfe565b846040518463ffffffff1660e01b81526004016115d093929190613a43565b600060405180830381600087803b1580156115ea57600080fd5b505af11580156115fe573d6000803e3d6000fd5b50505050505050505b50505050565b6001600160a01b0381166104f45760405163d551823d60e01b815260040160405180910390fd5b8060000361164157505050565b61164a8261160d565b6000836001600160a01b031663bd02d0f560405160200161166a90613a8c565b604051602081830303815290604052805190602001206040518263ffffffff1660e01b815260040161169e91815260200190565b602060405180830381865afa1580156116bb573d6000803e3d6000fd5b505050506040513d601f19601f820116820180604052508101906116df9190612af6565b90506000806000806000868887f1905080156116fc575050505050565b6117078585856118c7565b5050505050565b600061171a8484611d0a565b604051637152429d60e11b815260048101829052602481018490529091506001600160a01b0387169063e2a4853a906044016020604051808303816000875af115801561176b573d6000803e3d6000fd5b505050506040513d601f19601f8201168201806040525081019061178f9190612af6565b5061179861229f565b80516117a5906002611be9565b6040805180820190915260078152661858d8dbdd5b9d60ca1b602082015281516117d29160009088611c4e565b60408051808201909152600a8152691cdd589858d8dbdd5b9d60b21b602082015281516118029160019087611c4e565b6020810151611812906001611be9565b61184c600060405180604001604052806006815260200165185b5bdd5b9d60d21b815250858460200151611cab909392919063ffffffff16565b856001600160a01b03166363d1636361186487611cfe565b61186d87611cfe565b846040518463ffffffff1660e01b815260040161188c93929190613ac3565b600060405180830381600087803b1580156118a657600080fd5b505af11580156118ba573d6000803e3d6000fd5b5050505050505050505050565b806000036118d457505050565b6118dd8261160d565b60006118e884610397565b9050806001600160a01b031663d0e30db0836040518263ffffffff1660e01b81526004016000604051808303818588803b15801561192557600080fd5b505af1158015611939573d6000803e3d6000fd5b505050505061160784828585611da3565b60008061195683611fed565b91509150801561197a578160405162461bcd60e51b815260040161013a9190613b15565b6105bd8361207d565b60006040516020016119c4906020808252601b908201527a14d5509050d0d3d5539517d191505515549157d11254d050931151602a1b604082015260600190565b60408051601f198184030181528282528051602091820120908301526001600160a01b03841690820152606001604051602081830303815290604052805190602001209050919050565b611a188282612086565b156109c55760405163dd70e0c960e01b81526004810182905260240161013a565b600080611a468484611d0a565b60405163bd02d0f560e01b8152600481018290529091506001600160a01b0386169063bd02d0f590602401602060405180830381865afa158015611a8e573d6000803e3d6000fd5b505050506040513d601f19601f82011682018060405250810190611ab29190612af6565b95945050505050565b801561160757611aca8261160d565b604051632e1a7d4d60e01b8152600481018290526001600160a01b03841690632e1a7d4d90602401600060405180830381600087803b158015611b0c57600080fd5b505af1158015611b20573d6000803e3d6000fd5b505050506000846001600160a01b031663bd02d0f5604051602001611b4490613a8c565b604051602081830303815290604052805190602001206040518263ffffffff1660e01b8152600401611b7891815260200190565b602060405180830381865afa158015611b95573d6000803e3d6000fd5b505050506040513d601f19601f82011682018060405250810190611bb99190612af6565b90506000806000806000868887f190508015611bd6575050611607565b611be18685856118c7565b505050505050565b806001600160401b03811115611c0157611c01612b28565b604051908082528060200260200182016040528015611c4757816020015b604080518082019091526060815260006020820152815260200190600190039081611c1f5790505b5090915250565b8184600001518481518110611c6557611c65612ed9565b6020026020010151600001819052508084600001518481518110611c8b57611c8b612ed9565b6020908102919091018101516001600160a01b0390921691015250505050565b8184600001518481518110611cc257611cc2612ed9565b6020026020010151600001819052508084600001518481518110611ce857611ce8612ed9565b6020026020010151602001818152505050505050565b6001600160a01b031690565b6000604051602001611d4d906020808252601d908201527f5355424143434f554e545f4155544f5f544f505f55505f414d4f554e54000000604082015260600190565b60408051601f198184030181528282528051602091820120908301526001600160a01b03808616918301919091528316606082015260800160405160208183030381529060405280519060200120905092915050565b801561160757611db28261160d565b6000846001600160a01b031663bd02d0f5611dcc866120f9565b6040518263ffffffff1660e01b8152600401611dea91815260200190565b602060405180830381865afa158015611e07573d6000803e3d6000fd5b505050506040513d601f19601f82011682018060405250810190611e2b9190612af6565b905080600003611e505783604051634fe14bfd60e11b815260040161013a919061239d565b6000611e5e85858585612137565b5090508015611e6e575050611607565b6000866001600160a01b03166321f8a721604051602001611eb2906020808252600f908201526e484f4c44494e475f4144445245535360881b604082015260600190565b604051602081830303815290604052805190602001206040518263ffffffff1660e01b8152600401611ee691815260200190565b602060405180830381865afa158015611f03573d6000803e3d6000fd5b505050506040513d601f19601f82011682018060405250810190611f2791906126d2565b90506001600160a01b038116611f5057604051633a6de2f560e21b815260040160405180910390fd5b600080611f5f88848888612137565b915091508115611f73575050505050611607565b6000611f7e82611fed565b5090507fc9f14d9a0a9b46470c7c0b6c508f8283abaab7f795f153953c58cd4250824dae8183604051611fb2929190613b28565b60405180910390a160405163012f3b8f60e71b81526001600160a01b03808b166004830152891660248201526044810188905260640161013a565b60606000604483511015612014575050604080516020810190915260008082529092909150565b6000612021846020015190565b90506307b9e43360e51b6001600160e01b031982160161206057600484019350838060200190518101906120559190613b4d565b946001945092505050565b600060405180602001604052806000815250909250925050915091565b80518060208301fd5b604051633d70e7e560e11b8152600481018290526000906001600160a01b03841690637ae1cfca90602401602060405180830381865afa1580156120ce573d6000803e3d6000fd5b505050506040513d601f19601f820116820180604052508101906120f29190613be0565b9392505050565b60006040516020016119c4906020808252601890820152771513d2d15397d514905394d1915497d1d054d7d31253525560421b604082015260600190565b60006060600063a9059cbb60e01b8686604051602401612158929190612b0f565b604051602081830303815290604052906001600160e01b0319166020820180516001600160e01b0383818316178352505050509050600080886001600160a01b031686846040516121a99190613bfd565b60006040518083038160008787f1925050503d80600081146121e7576040519150601f19603f3d011682016040523d82523d6000602084013e6121ec565b606091505b5091509150811561228d57805160000361224a576001600160a01b0389163b61224a5760006040518060400160405280601481526020017310d85b1b081d1bc81b9bdb8b58dbdb9d1c9858dd60621b81525094509450505050612296565b6000815111801561226c57508080602001905181019061226a9190613be0565b155b1561227f57600094509250612296915050565b600194509250612296915050565b60009450925050505b94509492505050565b604080516101208101909152606060e08201818152610100830191909152819081526020016122e1604051806040016040528060608152602001606081525090565b8152602001612303604051806040016040528060608152602001606081525090565b8152602001612325604051806040016040528060608152602001606081525090565b8152602001612347604051806040016040528060608152602001606081525090565b8152602001612369604051806040016040528060608152602001606081525090565b815260200161238b604051806040016040528060608152602001606081525090565b905290565b6001600160a01b03169052565b6001600160a01b0391909116815260200190565b6001600160a01b03811681146104f457600080fd5b80356123d1816123b1565b919050565b6000602082840312156123e857600080fd5b81356120f2816123b1565b60008060006060848603121561240857600080fd5b8335612413816123b1565b95602085013595506040909401359392505050565b6000806040838503121561243b57600080fd5b8235612446816123b1565b915060208301356001600160401b0381111561246157600080fd5b83016101e0818603121561247457600080fd5b809150509250929050565b6000806040838503121561249257600080fd5b823561249d816123b1565b946020939093013593505050565b6000602082840312156124bd57600080fd5b5035919050565b600080602083850312156124d757600080fd5b82356001600160401b03808211156124ee57600080fd5b818501915085601f83011261250257600080fd5b81358181111561251157600080fd5b8660208260051b850101111561252657600080fd5b60209290920196919550909350505050565b60005b8381101561255357818101518382015260200161253b565b50506000910152565b60008151808452612574816020860160208601612538565b601f01601f19169290920160200192915050565b600081518084526020808501808196508360051b8101915082860160005b858110156125d05782840389526125be84835161255c565b988501989350908401906001016125a6565b5091979650505050505050565b6020815260006120f26020830184612588565b80151581146104f457600080fd5b80356123d1816125f0565b600080600080600080600060e0888a03121561262457600080fd5b873596506020880135955060408801359450606088013593506080880135925060a0880135915060c0880135612659816125f0565b8091505092959891949750929550565b60008060006060848603121561267e57600080fd5b8335612689816123b1565b92506020840135612699816123b1565b929592945050506040919091013590565b60208082526003908201526215d39560ea1b604082015260600190565b80516123d1816123b1565b6000602082840312156126e457600080fd5b81516120f2816123b1565b6001600160a01b03948516815292841660208401529083166040830152909116606082015260800190565b6001600160a01b0396871681529486166020860152928516604085015293166060830152608082019290925260a081019190915260c00190565b60208082526017908201527629aaa120a1a1a7aaa72a2fa7a92222a92fa0a1aa24a7a760491b604082015260600190565b6000823560de1983360301811261279b57600080fd5b9190910192915050565b6001600160a01b0392831681529116602082015260400190565b634e487b7160e01b600052602160045260246000fd5b600981106104f457600080fd5b80356123d1816127d5565b6000602082840312156127ff57600080fd5b81356120f2816127d5565b6001600160a01b039485168152928416602084015292166040820152606081019190915260800190565b6000808335601e1984360301811261284b57600080fd5b83016020810192503590506001600160401b0381111561286a57600080fd5b8060051b360382131561287c57600080fd5b9250929050565b8183526000602080850194508260005b858110156128c15781356128a6816123b1565b6001600160a01b031687529582019590820190600101612893565b509495945050505050565b600081356128d9816123b1565b6001600160a01b0390811684526020830135906128f5826123b1565b908116602085015260408301359061290c826123b1565b9081166040850152606083013590612923826123b1565b908116606085015260808301359061293a826123b1565b16608084015261294c60a083016123c6565b61295960a0850182612390565b5061296760c0830183612834565b60e060c0860152611ab260e086018284612883565b6009811061298c5761298c6127bf565b9052565b600381106104f457600080fd5b80356123d181612990565b6003811061298c5761298c6127bf565b6001600160a01b038416815260606020820152600083353685900360de190181126129e257600080fd5b6101e08060608501526129fb61024085018784016128cc565b9150612a566080850160208801803582526020810135602083015260408101356040830152606081013560608301526080810135608083015260a081013560a083015260c081013560c083015260e081013560e08301525050565b612a6361012087016127e2565b610180612a728187018361297c565b612a7f610140890161299d565b91506101a0612a90818801846129a8565b612a9d6101608a016125fe565b92506101c0612aaf8189018515159052565b612aba838b016125fe565b801515898701529350612ace828b016125fe565b1515610200890152909801356102208701525050509215156040909201919091525092915050565b600060208284031215612b0857600080fd5b5051919050565b6001600160a01b03929092168252602082015260400190565b634e487b7160e01b600052604160045260246000fd5b60405161016081016001600160401b0381118282101715612b6157612b61612b28565b60405290565b604051606081016001600160401b0381118282101715612b6157612b61612b28565b60405161010081016001600160401b0381118282101715612b6157612b61612b28565b604051601f8201601f191681016001600160401b0381118282101715612bd457612bd4612b28565b604052919050565b600082601f830112612bed57600080fd5b815160206001600160401b03821115612c0857612c08612b28565b8160051b612c17828201612bac565b9283528481018201928281019087851115612c3157600080fd5b83870192505b84831015612c59578251612c4a816123b1565b82529183019190830190612c37565b979650505050505050565b80516123d1816127d5565b80516123d181612990565b60006101608284031215612c8d57600080fd5b612c95612b3e565b9050612ca082612c64565b8152612cae60208301612c6f565b602082015260408201516040820152606082015160608201526080820151608082015260a082015160a082015260c082015160c082015260e082015160e082015261010080830151818301525061012080830151818301525061014080830151818301525092915050565b600060808284031215612d2b57600080fd5b604051608081016001600160401b0381118282101715612d4d57612d4d612b28565b80604052508091508251612d60816125f0565b81526020830151612d70816125f0565b60208201526040830151612d83816125f0565b60408201526060830151612d96816125f0565b6060919091015292915050565b600060208284031215612db557600080fd5b81516001600160401b0380821115612dcc57600080fd5b908301906102008286031215612de157600080fd5b612de9612b67565b825182811115612df857600080fd5b83016101008188031215612e0b57600080fd5b612e13612b89565b612e1c826126c7565b8152612e2a602083016126c7565b6020820152612e3b604083016126c7565b6040820152612e4c606083016126c7565b6060820152612e5d608083016126c7565b6080820152612e6e60a083016126c7565b60a0820152612e7f60c083016126c7565b60c082015260e082015184811115612e9657600080fd5b612ea289828501612bdc565b60e083015250825250612eb88660208501612c7a565b6020820152612ecb866101808501612d19565b604082015295945050505050565b634e487b7160e01b600052603260045260246000fd5b6000808335601e19843603018112612f0657600080fd5b8301803591506001600160401b03821115612f2057600080fd5b60200191503681900382131561287c57600080fd5b8183823760009101908152919050565b634e487b7160e01b600052601160045260246000fd5b600060018201612f6d57612f6d612f45565b5060010190565b600081518084526020808501945080840160005b838110156128c15781516001600160a01b031687529582019590820190600101612f88565b612fb882825161297c565b6020810151612fca60208401826129a8565b5060408101516040830152606081015160608301526080810151608083015260a081015160a083015260c081015160c083015260e081015160e08301526101008082015181840152506101208082015181840152506101408082015181840152505050565b60006101208b83528a60208401528960408401528860608401528760808401528660a084015285151560c08401528060e084015284516102008285015260018060a01b0391508181511661032085015281602082015116610340850152604081015191506130a1610360850183612390565b606081015191506130b6610380850183612390565b608081015191506130cb6103a0850183612390565b60a081015191506130e06103c0850183612390565b60c081015191506130f56103e0850183612390565b60e081015191505061010080610400850152613115610420850183612f74565b9150602086015161312a610140860182612fad565b50604095860151805115156102a0860152602081015115156102c08601529586015115156102e08501526060909501511515610300840152921515939091019290925298975050505050505050565b8181038181111561042c5761042c612f45565b808202811582820484141761042c5761042c612f45565b8082018082111561042c5761042c612f45565b600081518084526020808501808196508360051b8101915082860160005b858110156125d05782840389528151604081518187526131f68288018261255c565b915050868201519150858103878701526132108183612f74565b9a87019a95505050908401906001016131d4565b60006040808401835182865281815180845260608801915060608160051b89010193506020808401935060005b8281101561329b57898603605f19018452845180518888526132758989018261255c565b918401516001600160a01b03169784019790975295509381019392810192600101613251565b50808801519550888503818a015250505050611ab281836131b6565b600081518084526020808501808196508360051b810191508286016000805b86811015613349578385038a528251604081518188526132f88289018261255c565b92890151888403898b01528051808552908a01938693508a0191505b808310156133345783518252928901926001929092019190890190613314565b509b88019b96505050918501916001016132d6565b509298975050505050505050565b60006040808401835182865281815180845260608801915060608160051b89010193506020808401935060005b828110156133c557898603605f19018452845180518888526133a88989018261255c565b918401519784019790975295509381019392810192600101613384565b50808801519550888503818a015250505050611ab281836132b7565b600081518084526020808501808196508360051b810191508286016000805b86811015613349578385038a528251604081518188526134228289018261255c565b92890151888403898b01528051808552908a01938693508a0191505b8083101561345e578351825292890192600192909201919089019061343e565b509b88019b9650505091850191600101613400565b60006040808401835182865281815180845260608801915060608160051b89010193506020808401935060005b828110156134e157898603605f19018452845180518888526134c48989018261255c565b9184015197840197909752955093810193928101926001016134a0565b50808801519550888503818a015250505050611ab281836133e1565b600081518084526020808501808196508360051b810191508286016000805b86811015613349578385038a5282516040815181885261353e8289018261255c565b92890151888403898b01528051808552908a01938693508a0191505b8083101561357c5783511515825292890192600192909201919089019061355a565b509b88019b965050509185019160010161351c565b60006040808401835182865281815180845260608801915060608160051b89010193506020808401935060005b8281101561360157898603605f19018452845180518888526135e28989018261255c565b91840151151597840197909752955093810193928101926001016135be565b50808801519550888503818a015250505050611ab281836134fd565b600081518084526020808501808196508360051b810191508286016000805b86811015613349578385038a5282516040815181885261365e8289018261255c565b92890151888403898b01528051808552908a01938693508a0191505b8083101561369a578351825292890192600192909201919089019061367a565b509b88019b965050509185019160010161363c565b60006040808401835182865281815180845260608801915060608160051b89010193506020808401935060005b8281101561371d57898603605f19018452845180518888526137008989018261255c565b9184015197840197909752955093810193928101926001016136dc565b50808801519550888503818a015250505050611ab2818361361d565b600081518084526020808501808196508360051b8101915082860160005b858110156125d05782840389528151604081518187526137798288018261255c565b915050868201519150858103878701526137938183612588565b9a87019a9550505090840190600101613757565b60006040808401835182865281815180845260608801915060608160051b89010193506020808401935060005b8281101561382457898603605f19018452845180518888526137f88989018261255c565b9184015188830389860152919050613810818361255c565b9750505093810193928101926001016137d4565b50808801519550888503818a015250505050611ab28183613739565b600081518084526020808501808196506005915083821b81018387016000805b878110156138eb578484038b528251604081518187526138828288018261255c565b928a0151878403888c01528051808552908b019392508a83019150808a1b83018b01865b828110156138d457601f198583030184526138c282875161255c565b958d0195938d019391506001016138a6565b509e8b019e97505050938801935050600101613860565b50919998505050505050505050565b60006040808401835182865281815180845260608801915060608160051b89010193506020808401935060005b8281101561397757898603605f190184528451805188885261394b8989018261255c565b9184015188830389860152919050613963818361255c565b975050509381019392810192600101613927565b50808801519550888503818a015250505050611ab28183613840565b6000815160e084526139a860e0850182613224565b9050602083015184820360208601526139c18282613357565b915050604083015184820360408601526139db8282613473565b915050606083015184820360608601526139f58282613591565b91505060808301518482036080860152613a0f82826136af565b91505060a083015184820360a0860152613a2982826137a7565b91505060c083015184820360c0860152611ab282826138fa565b60808152601360808201527205375626163636f756e744175746f546f70557606c1b60a082015283602082015282604082015260c060608201526000611ab260c0830184613993565b6020808252601f908201527f4e41544956455f544f4b454e5f5452414e534645525f4741535f4c494d495400604082015260600190565b60808152601c60808201527b14d95d14dd589858d8dbdd5b9d105d5d1bd51bdc155c105b5bdd5b9d60221b60a082015283602082015282604082015260c060608201526000611ab260c0830184613993565b6020815260006120f2602083018461255c565b604081526000613b3b604083018561255c565b8281036020840152611ab2818561255c565b600060208284031215613b5f57600080fd5b81516001600160401b0380821115613b7657600080fd5b818401915084601f830112613b8a57600080fd5b815181811115613b9c57613b9c612b28565b613baf601f8201601f1916602001612bac565b9150808252856020828501011115613bc657600080fd5b613bd7816020840160208601612538565b50949350505050565b600060208284031215613bf257600080fd5b81516120f2816125f0565b6000825161279b81846020870161253856fea2646970667358221220378989d1bfbb99953ea77db1b103fad63eb28bd122bca4b36d0f818c63ec19d664736f6c63430008120033",
  "libraries": {
    "OrderStoreUtils": "0x69a26Ac43E6E6F1A4e631558c4D1DA46a678cd4e",
    "SubaccountUtils": "0x2aa13562A0b60bA97E0211795BA24F23822C0b7E"
  },
  "devdoc": {
    "kind": "dev",
    "methods": {
      "multicall(bytes[])": {
        "details": "Receives and executes a batch of function calls on this contract."
      }
    },
    "version": 1
  },
  "userdoc": {
    "kind": "user",
    "methods": {},
    "version": 1
  },
  "storageLayout": {
    "storage": [
      {
        "astId": 833,
        "contract": "contracts/router/SubaccountRouter.sol:SubaccountRouter",
        "label": "_status",
        "offset": 0,
        "slot": "0",
        "type": "t_uint256"
      }
    ],
    "types": {
      "t_uint256": {
        "encoding": "inplace",
        "label": "uint256",
        "numberOfBytes": "32"
      }
    }
  }
}