{
  "address": "0xdF23692341538340db0ff04C65017F51b69a29f6",
  "abi": [
    {
      "inputs": [
        {
          "internalType": "contract RoleStore",
          "name": "_roleStore",
          "type": "address"
        },
        {
          "internalType": "contract DataStore",
          "name": "_dataStore",
          "type": "address"
        },
        {
          "internalType": "contract EventEmitter",
          "name": "_eventEmitter",
          "type": "address"
        },
        {
          "internalType": "contract OracleStore",
          "name": "_oracleStore",
          "type": "address"
        },
        {
          "internalType": "uint256",
          "name": "_timelockDelay",
          "type": "uint256"
        }
      ],
      "stateMutability": "nonpayable",
      "type": "constructor"
    },
    {
      "inputs": [],
      "name": "ActionAlreadySignalled",
      "type": "error"
    },
    {
      "inputs": [],
      "name": "ActionNotSignalled",
      "type": "error"
    },
    {
      "inputs": [
        {
          "internalType": "address",
          "name": "receiver",
          "type": "address"
        }
      ],
      "name": "InvalidFeeReceiver",
      "type": "error"
    },
    {
      "inputs": [
        {
          "internalType": "address",
          "name": "receiver",
          "type": "address"
        }
      ],
      "name": "InvalidOracleSigner",
      "type": "error"
    },
    {
      "inputs": [
        {
          "internalType": "uint256",
          "name": "timelockDelay",
          "type": "uint256"
        }
      ],
      "name": "InvalidTimelockDelay",
      "type": "error"
    },
    {
      "inputs": [
        {
          "internalType": "uint256",
          "name": "timelockDelay",
          "type": "uint256"
        }
      ],
      "name": "MaxTimelockDelayExceeded",
      "type": "error"
    },
    {
      "inputs": [
        {
          "internalType": "uint256",
          "name": "signalTime",
          "type": "uint256"
        }
      ],
      "name": "SignalTimeNotYetPassed",
      "type": "error"
    },
    {
      "inputs": [
        {
          "internalType": "address",
          "name": "msgSender",
          "type": "address"
        },
        {
          "internalType": "string",
          "name": "role",
          "type": "string"
        }
      ],
      "name": "Unauthorized",
      "type": "error"
    },
    {
      "inputs": [],
      "name": "MAX_TIMELOCK_DELAY",
      "outputs": [
        {
          "internalType": "uint256",
          "name": "",
          "type": "uint256"
        }
      ],
      "stateMutability": "view",
      "type": "function"
    },
    {
      "inputs": [
        {
          "internalType": "address",
          "name": "account",
          "type": "address"
        }
      ],
      "name": "addOracleSignerAfterSignal",
      "outputs": [],
      "stateMutability": "nonpayable",
      "type": "function"
    },
    {
      "inputs": [
        {
          "internalType": "bytes32",
          "name": "actionKey",
          "type": "bytes32"
        }
      ],
      "name": "cancelAction",
      "outputs": [],
      "stateMutability": "nonpayable",
      "type": "function"
    },
    {
      "inputs": [],
      "name": "dataStore",
      "outputs": [
        {
          "internalType": "contract DataStore",
          "name": "",
          "type": "address"
        }
      ],
      "stateMutability": "view",
      "type": "function"
    },
    {
      "inputs": [],
      "name": "eventEmitter",
      "outputs": [
        {
          "internalType": "contract EventEmitter",
          "name": "",
          "type": "address"
        }
      ],
      "stateMutability": "view",
      "type": "function"
    },
    {
      "inputs": [
        {
          "internalType": "address",
          "name": "account",
          "type": "address"
        },
        {
          "internalType": "bytes32",
          "name": "roleKey",
          "type": "bytes32"
        }
      ],
      "name": "grantRoleAfterSignal",
      "outputs": [],
      "stateMutability": "nonpayable",
      "type": "function"
    },
    {
      "inputs": [
        {
          "internalType": "uint256",
          "name": "_timelockDelay",
          "type": "uint256"
        }
      ],
      "name": "increaseTimelockDelay",
      "outputs": [],
      "stateMutability": "nonpayable",
      "type": "function"
    },
    {
      "inputs": [
        {
          "internalType": "bytes[]",
          "name": "data",
          "type": "bytes[]"
        }
      ],
      "name": "multicall",
      "outputs": [
        {
          "internalType": "bytes[]",
          "name": "results",
          "type": "bytes[]"
        }
      ],
      "stateMutability": "nonpayable",
      "type": "function"
    },
    {
      "inputs": [],
      "name": "oracleStore",
      "outputs": [
        {
          "internalType": "contract OracleStore",
          "name": "",
          "type": "address"
        }
      ],
      "stateMutability": "view",
      "type": "function"
    },
    {
      "inputs": [
        {
          "internalType": "bytes32",
          "name": "",
          "type": "bytes32"
        }
      ],
      "name": "pendingActions",
      "outputs": [
        {
          "internalType": "uint256",
          "name": "",
          "type": "uint256"
        }
      ],
      "stateMutability": "view",
      "type": "function"
    },
    {
      "inputs": [
        {
          "internalType": "address",
          "name": "account",
          "type": "address"
        }
      ],
      "name": "removeOracleSignerAfterSignal",
      "outputs": [],
      "stateMutability": "nonpayable",
      "type": "function"
    },
    {
      "inputs": [
        {
          "internalType": "address",
          "name": "account",
          "type": "address"
        },
        {
          "internalType": "bytes32",
          "name": "roleKey",
          "type": "bytes32"
        }
      ],
      "name": "revokeRole",
      "outputs": [],
      "stateMutability": "nonpayable",
      "type": "function"
    },
    {
      "inputs": [
        {
          "internalType": "address",
          "name": "account",
          "type": "address"
        },
        {
          "internalType": "bytes32",
          "name": "roleKey",
          "type": "bytes32"
        }
      ],
      "name": "revokeRoleAfterSignal",
      "outputs": [],
      "stateMutability": "nonpayable",
      "type": "function"
    },
    {
      "inputs": [],
      "name": "roleStore",
      "outputs": [
        {
          "internalType": "contract RoleStore",
          "name": "",
          "type": "address"
        }
      ],
      "stateMutability": "view",
      "type": "function"
    },
    {
      "inputs": [
        {
          "internalType": "address",
          "name": "provider",
          "type": "address"
        },
        {
          "internalType": "bool",
          "name": "value",
          "type": "bool"
        }
      ],
      "name": "setAtomicOracleProviderAfterSignal",
      "outputs": [],
      "stateMutability": "nonpayable",
      "type": "function"
    },
    {
      "inputs": [
        {
          "internalType": "address",
          "name": "token",
          "type": "address"
        },
        {
          "internalType": "bytes32",
          "name": "feedId",
          "type": "bytes32"
        },
        {
          "internalType": "uint256",
          "name": "dataStreamMultiplier",
          "type": "uint256"
        }
      ],
      "name": "setDataStreamAfterSignal",
      "outputs": [],
      "stateMutability": "nonpayable",
      "type": "function"
    },
    {
      "inputs": [
        {
          "internalType": "address",
          "name": "account",
          "type": "address"
        }
      ],
      "name": "setFeeReceiverAfterSignal",
      "outputs": [],
      "stateMutability": "nonpayable",
      "type": "function"
    },
    {
      "inputs": [
        {
          "internalType": "address",
          "name": "provider",
          "type": "address"
        },
        {
          "internalType": "bool",
          "name": "value",
          "type": "bool"
        }
      ],
      "name": "setOracleProviderEnabled",
      "outputs": [],
      "stateMutability": "nonpayable",
      "type": "function"
    },
    {
      "inputs": [
        {
          "internalType": "address",
          "name": "provider",
          "type": "address"
        },
        {
          "internalType": "bool",
          "name": "value",
          "type": "bool"
        }
      ],
      "name": "setOracleProviderEnabledAfterSignal",
      "outputs": [],
      "stateMutability": "nonpayable",
      "type": "function"
    },
    {
      "inputs": [
        {
          "internalType": "address",
          "name": "token",
          "type": "address"
        },
        {
          "internalType": "address",
          "name": "provider",
          "type": "address"
        }
      ],
      "name": "setOracleProviderForTokenAfterSignal",
      "outputs": [],
      "stateMutability": "nonpayable",
      "type": "function"
    },
    {
      "inputs": [
        {
          "internalType": "address",
          "name": "token",
          "type": "address"
        },
        {
          "internalType": "address",
          "name": "priceFeed",
          "type": "address"
        },
        {
          "internalType": "uint256",
          "name": "priceFeedMultiplier",
          "type": "uint256"
        },
        {
          "internalType": "uint256",
          "name": "priceFeedHeartbeatDuration",
          "type": "uint256"
        },
        {
          "internalType": "uint256",
          "name": "stablePrice",
          "type": "uint256"
        }
      ],
      "name": "setPriceFeedAfterSignal",
      "outputs": [],
      "stateMutability": "nonpayable",
      "type": "function"
    },
    {
      "inputs": [
        {
          "internalType": "address",
          "name": "account",
          "type": "address"
        }
      ],
      "name": "signalAddOracleSigner",
      "outputs": [],
      "stateMutability": "nonpayable",
      "type": "function"
    },
    {
      "inputs": [
        {
          "internalType": "address",
          "name": "account",
          "type": "address"
        },
        {
          "internalType": "bytes32",
          "name": "roleKey",
          "type": "bytes32"
        }
      ],
      "name": "signalGrantRole",
      "outputs": [],
      "stateMutability": "nonpayable",
      "type": "function"
    },
    {
      "inputs": [
        {
          "internalType": "address",
          "name": "account",
          "type": "address"
        }
      ],
      "name": "signalRemoveOracleSigner",
      "outputs": [],
      "stateMutability": "nonpayable",
      "type": "function"
    },
    {
      "inputs": [
        {
          "internalType": "address",
          "name": "account",
          "type": "address"
        },
        {
          "internalType": "bytes32",
          "name": "roleKey",
          "type": "bytes32"
        }
      ],
      "name": "signalRevokeRole",
      "outputs": [],
      "stateMutability": "nonpayable",
      "type": "function"
    },
    {
      "inputs": [
        {
          "internalType": "address",
          "name": "provider",
          "type": "address"
        },
        {
          "internalType": "bool",
          "name": "value",
          "type": "bool"
        }
      ],
      "name": "signalSetAtomicOracleProvider",
      "outputs": [],
      "stateMutability": "nonpayable",
      "type": "function"
    },
    {
      "inputs": [
        {
          "internalType": "address",
          "name": "token",
          "type": "address"
        },
        {
          "internalType": "bytes32",
          "name": "feedId",
          "type": "bytes32"
        },
        {
          "internalType": "uint256",
          "name": "dataStreamMultiplier",
          "type": "uint256"
        }
      ],
      "name": "signalSetDataStream",
      "outputs": [],
      "stateMutability": "nonpayable",
      "type": "function"
    },
    {
      "inputs": [
        {
          "internalType": "address",
          "name": "account",
          "type": "address"
        }
      ],
      "name": "signalSetFeeReceiver",
      "outputs": [],
      "stateMutability": "nonpayable",
      "type": "function"
    },
    {
      "inputs": [
        {
          "internalType": "address",
          "name": "provider",
          "type": "address"
        },
        {
          "internalType": "bool",
          "name": "value",
          "type": "bool"
        }
      ],
      "name": "signalSetOracleProviderEnabled",
      "outputs": [],
      "stateMutability": "nonpayable",
      "type": "function"
    },
    {
      "inputs": [
        {
          "internalType": "address",
          "name": "token",
          "type": "address"
        },
        {
          "internalType": "address",
          "name": "provider",
          "type": "address"
        }
      ],
      "name": "signalSetOracleProviderForToken",
      "outputs": [],
      "stateMutability": "nonpayable",
      "type": "function"
    },
    {
      "inputs": [
        {
          "internalType": "address",
          "name": "token",
          "type": "address"
        },
        {
          "internalType": "address",
          "name": "priceFeed",
          "type": "address"
        },
        {
          "internalType": "uint256",
          "name": "priceFeedMultiplier",
          "type": "uint256"
        },
        {
          "internalType": "uint256",
          "name": "priceFeedHeartbeatDuration",
          "type": "uint256"
        },
        {
          "internalType": "uint256",
          "name": "stablePrice",
          "type": "uint256"
        }
      ],
      "name": "signalSetPriceFeed",
      "outputs": [],
      "stateMutability": "nonpayable",
      "type": "function"
    },
    {
      "inputs": [],
      "name": "timelockDelay",
      "outputs": [
        {
          "internalType": "uint256",
          "name": "",
          "type": "uint256"
        }
      ],
      "stateMutability": "view",
      "type": "function"
    }
  ],
  "transactionHash": "0x2b7dd60e92fe73cd4af500bf3c38cb488a5c23dc03a927da1ef913c78448a8c7",
  "args": [
    "0xA44F830B6a2B6fa76657a3B92C1fe74fcB7C6AfD",
    "0x2F0b22339414ADeD7D5F06f9D604c7fF5b2fe3f6",
    "0xDb17B211c34240B014ab6d61d4A31FA0C0e20c26",
    "0xA6aC2e08C6d6bbD9B237e0DaaEcd7577996f4e84",
    86400
  ],
  "numDeployments": 5,
  "solcInputHash": "73a4ba2d8b31271a9616d3de18931f8d",
  "bytecode": "0x6101006040523480156200001257600080fd5b5060405162005258380380620052588339810160408190526200003591620000c5565b600160008190556001600160a01b0380871660805285811660a05284811660c052831660e0528190556200006862000073565b505050505062000139565b620697806001541115620000aa57600154604051633ebd9bc360e21b8152600401620000a191815260200190565b60405180910390fd5b565b6001600160a01b0381168114620000c257600080fd5b50565b600080600080600060a08688031215620000de57600080fd5b8551620000eb81620000ac565b6020870151909550620000fe81620000ac565b60408701519094506200011181620000ac565b60608701519093506200012481620000ac565b80925050608086015190509295509295909350565b60805160a05160c05160e051614fbf620002996000396000818161021b01528181610f6c015261211a0152600081816103350152818161071a0152818161087701528181610ab201528181610c9a01528181610e8b0152818161102c015281816111b80152818161136101528181611526015281816116380152818161175c01528181611bbe01528181611d2101528181611e4201528181612071015281816121da015281816122fe015281816124ba01528181612637015281816127db015281816129ae01528181612aa001528181612c0b015281816130ba015261358e0152600081816102af015281816104fa015281816105940152818161107f01528181611244015281816113ed015281816117ee0152818161188801528181611922015281816119bc0152818161238c015261287501526000818161026201528181610b9801528181610d89015281816126d90152612c570152614fbf6000f3fe608060405234801561001057600080fd5b50600436106101805760003560e01c80630eaf7fc4146101855780630f43905d1461019a5780630fe29bbc146101ad5780630ffc3cf6146101c0578063208dd1ff146101d35780632a083ca3146101e65780632d6b4cc614610203578063392bf7f61461021657806349c73bca1461024a5780634a4a7b041461025d5780635077e242146102845780635bb70a2014610297578063660d0d67146102aa57806369bc0f3b146102d1578063728ca574146102e457806375fa1913146102f7578063781cc3d31461030a5780637c326db61461031d5780639ff78c3014610330578063a9765cae14610357578063ac9650d81461036a578063b6b9b02f1461038a578063bcb151e41461039d578063c15ab4ec146103b0578063c4fe486c146103c3578063ccdd6bb0146103d6578063d59ba7e4146103e9578063d5b0083b146103fc578063e30569e51461040f578063eef09bad1461042f578063f03278d414610438578063f2ee93771461044b575b600080fd5b610198610193366004613b16565b61045e565b005b6101986101a8366004613b4b565b610794565b6101986101bb366004613b68565b6108ef565b6101986101ce366004613bb9565b610b2e565b6101986101e1366004613bb9565b610d13565b6101f06206978081565b6040519081526020015b60405180910390f35b610198610211366004613b4b565b610efd565b61023d7f000000000000000000000000000000000000000000000000000000000000000081565b6040516101fa9190613be5565b610198610258366004613c07565b611063565b61023d7f000000000000000000000000000000000000000000000000000000000000000081565b610198610292366004613c40565b6111ed565b6101986102a5366004613c07565b611396565b61023d7f000000000000000000000000000000000000000000000000000000000000000081565b6101986102df366004613b4b565b61155b565b6101986102f2366004613bb9565b61166f565b610198610305366004613b68565b611793565b610198610318366004613c6e565b611bf5565b61019861032b366004613c40565b611c47565b61023d7f000000000000000000000000000000000000000000000000000000000000000081565b610198610365366004613bb9565b611d56565b61037d610378366004613c87565b611e79565b6040516101fa9190613da0565b610198610398366004613b4b565b611f98565b6101986103ab366004613b4b565b6120a8565b6101986103be366004613c07565b612211565b6101986103d1366004613b4b565b612333565b6101986103e4366004613b16565b6124f1565b6101986103f7366004613bb9565b61266e565b61019861040a366004613c07565b612812565b6101f061041d366004613c6e565b60026020526000908152604090205481565b6101f060015481565b610198610446366004613c6e565b6129e3565b610198610459366004613c07565b612b12565b6104b260405160200161047090613db3565b604051602081830303815290604052805190602001206040518060400160405280600e81526020016d2a24a6a2a627a1a5afa0a226a4a760911b815250612c40565b6104ba612cf0565b60006104c7848484612d49565b90506104f8816040518060400160405280600d81526020016c7365744461746153747265616d60981b815250612da9565b7f00000000000000000000000000000000000000000000000000000000000000006001600160a01b0316634e91db0861053086612dbc565b856040518363ffffffff1660e01b815260040161054e929190613ddb565b6020604051808303816000875af115801561056d573d6000803e3d6000fd5b505050506040513d601f19601f820116820180604052508101906105919190613de9565b507f00000000000000000000000000000000000000000000000000000000000000006001600160a01b031663e2a4853a6105ca86612e35565b846040518363ffffffff1660e01b81526004016105e8929190613ddb565b6020604051808303816000875af1158015610607573d6000803e3d6000fd5b505050506040513d601f19601f8201168201806040525081019061062b9190613de9565b50610634613a10565b8051610641906001612e71565b6040805180820190915260058152643a37b5b2b760d91b6020820152815161066c9160009088612ed6565b608081015161067c906001612e71565b60408051808201909152600681526519995959125960d21b602082015260808201516106ab9160009087612f33565b60208101516106bb906001612e71565b6107036000604051806040016040528060148152602001733230ba30a9ba3932b0b6a6bab63a34b83634b2b960611b815250858460200151612f33909392919063ffffffff16565b604051630937807960e21b81526001600160a01b037f000000000000000000000000000000000000000000000000000000000000000016906324de01e49061075190859085906004016146c5565b600060405180830381600087803b15801561076b57600080fd5b505af115801561077f573d6000803e3d6000fd5b50505050505061078f6001600055565b505050565b6107a660405160200161047090613db3565b6107ae612cf0565b6001600160a01b0381166107e0578060405163c1b14c9160e01b81526004016107d79190613be5565b60405180910390fd5b60006107eb82612f86565b905061081e816040518060400160405280600f81526020016e30b23227b930b1b632a9b4b3b732b960891b815250612fc0565b610826613a10565b8051610833906001612e71565b6040805180820190915260078152661858d8dbdd5b9d60ca1b602082015281516108609160009086612ed6565b604051630937807960e21b81526001600160a01b037f000000000000000000000000000000000000000000000000000000000000000016906324de01e4906108ae908590859060040161470a565b600060405180830381600087803b1580156108c857600080fd5b505af11580156108dc573d6000803e3d6000fd5b5050505050506108ec6001600055565b50565b61090160405160200161047090613db3565b610909612cf0565b60006109188686868686613128565b9050610948816040518060400160405280600c81526020016b1cd95d141c9a58d95199595960a21b815250612fc0565b610950613a10565b805161095d906002612e71565b6040805180820190915260058152643a37b5b2b760d91b60208201528151610988916000908a612ed6565b6040805180820190915260098152681c1c9a58d95199595960ba1b602082015281516109b79160019089612ed6565b60208101516109c7906003612e71565b610a0e600060405180604001604052806013815260200172383934b1b2a332b2b226bab63a34b83634b2b960691b815250878460200151612f33909392919063ffffffff16565b610a5c60016040518060400160405280601a815260200179383934b1b2a332b2b22432b0b93a3132b0ba223ab930ba34b7b760311b815250868460200151612f33909392919063ffffffff16565b610a9b60026040518060400160405280600b81526020016a737461626c65507269636560a81b815250858460200151612f33909392919063ffffffff16565b604051630937807960e21b81526001600160a01b037f000000000000000000000000000000000000000000000000000000000000000016906324de01e490610ae9908590859060040161474f565b600060405180830381600087803b158015610b0357600080fd5b505af1158015610b17573d6000803e3d6000fd5b505050505050610b276001600055565b5050505050565b610b4060405160200161047090613db3565b610b48612cf0565b6000610b54838361319d565b9050610b8181604051806040016040528060098152602001686772616e74526f6c6560b81b815250612da9565b604051632ac9d0b760e21b81526001600160a01b037f0000000000000000000000000000000000000000000000000000000000000000169063ab2742dc90610bcf9086908690600401614791565b600060405180830381600087803b158015610be957600080fd5b505af1158015610bfd573d6000803e3d6000fd5b50505050610c09613a10565b8051610c16906001612e71565b6040805180820190915260078152661858d8dbdd5b9d60ca1b60208201528151610c439160009087612ed6565b6080810151610c53906001612e71565b604080518082019091526007815266726f6c654b657960c81b60208201526080820151610c839160009086612f33565b604051630937807960e21b81526001600160a01b037f000000000000000000000000000000000000000000000000000000000000000016906324de01e490610cd190859085906004016147aa565b600060405180830381600087803b158015610ceb57600080fd5b505af1158015610cff573d6000803e3d6000fd5b505050505050610d0f6001600055565b5050565b610d6a604051602001610d25906147e3565b604051602081830303815290604052805190602001206040518060400160405280601181526020017054494d454c4f434b5f4d554c544953494760781b815250612c40565b610d72612cf0565b60405163208dd1ff60e01b81526001600160a01b037f0000000000000000000000000000000000000000000000000000000000000000169063208dd1ff90610dc09085908590600401614791565b600060405180830381600087803b158015610dda57600080fd5b505af1158015610dee573d6000803e3d6000fd5b50505050610dfa613a10565b8051610e07906001612e71565b6040805180820190915260078152661858d8dbdd5b9d60ca1b60208201528151610e349160009086612ed6565b6080810151610e44906001612e71565b604080518082019091526007815266726f6c654b657960c81b60208201526080820151610e749160009085612f33565b60405163483624fb60e11b81526001600160a01b037f0000000000000000000000000000000000000000000000000000000000000000169063906c49f690610ec090849060040161482b565b600060405180830381600087803b158015610eda57600080fd5b505af1158015610eee573d6000803e3d6000fd5b5050505050610d0f6001600055565b610f0f60405160200161047090613db3565b610f17612cf0565b6000610f2282612f86565b9050610f55816040518060400160405280600f81526020016e30b23227b930b1b632a9b4b3b732b960891b815250612da9565b6040516375896b0f60e11b81526001600160a01b037f0000000000000000000000000000000000000000000000000000000000000000169063eb12d61e90610fa1908590600401613be5565b600060405180830381600087803b158015610fbb57600080fd5b505af1158015610fcf573d6000803e3d6000fd5b50505050610fdb613a10565b8051610fe8906001612e71565b6040805180820190915260078152661858d8dbdd5b9d60ca1b602082015281516110159160009086612ed6565b604051630937807960e21b81526001600160a01b037f000000000000000000000000000000000000000000000000000000000000000016906324de01e4906108ae908590859060040161484f565b611075604051602001610d25906147e3565b61107d612cf0565b7f00000000000000000000000000000000000000000000000000000000000000006001600160a01b031663abfdcced6110b5846131f2565b6040516001600160e01b031960e084901b168152600481019190915283151560248201526044016020604051808303816000875af11580156110fb573d6000803e3d6000fd5b505050506040513d601f19601f8201168201806040525081019061111f919061488e565b50611128613a10565b8051611135906001612e71565b604080518082019091526008815267383937bb34b232b960c11b602082015281516111639160009086612ed6565b6060810151611173906001612e71565b60408051808201909152600581526476616c756560d81b602082015260608201516111a19160009085613232565b60405163483624fb60e11b81526001600160a01b037f0000000000000000000000000000000000000000000000000000000000000000169063906c49f690610ec09084906004016148ab565b6111ff60405160200161047090613db3565b611207612cf0565b60006112138383613287565b905061124281604051806040016040528060198152602001600080516020614f4a833981519152815250612da9565b7f00000000000000000000000000000000000000000000000000000000000000006001600160a01b031663ca446dd961127a856132c7565b846040518363ffffffff1660e01b81526004016112989291906148ed565b6020604051808303816000875af11580156112b7573d6000803e3d6000fd5b505050506040513d601f19601f820116820180604052508101906112db9190614904565b506112e4613a10565b80516112f1906002612e71565b6040805180820190915260058152643a37b5b2b760d91b6020820152815161131c9160009087612ed6565b604080518082019091526008815267383937bb34b232b960c11b6020820152815161134a9160019086612ed6565b60405163483624fb60e11b81526001600160a01b037f0000000000000000000000000000000000000000000000000000000000000000169063906c49f690610cd1908490600401614921565b6113a860405160200161047090613db3565b6113b0612cf0565b60006113bc8383613306565b90506113eb81604051806040016040528060188152602001600080516020614f6a833981519152815250612da9565b7f00000000000000000000000000000000000000000000000000000000000000006001600160a01b031663abfdcced611423856131f2565b6040516001600160e01b031960e084901b168152600481019190915284151560248201526044016020604051808303816000875af1158015611469573d6000803e3d6000fd5b505050506040513d601f19601f8201168201806040525081019061148d919061488e565b50611496613a10565b80516114a3906001612e71565b604080518082019091526008815267383937bb34b232b960c11b602082015281516114d19160009087612ed6565b60608101516114e1906001612e71565b60408051808201909152600581526476616c756560d81b6020820152606082015161150f9160009086613232565b60405163483624fb60e11b81526001600160a01b037f0000000000000000000000000000000000000000000000000000000000000000169063906c49f690610cd19084906004016148ab565b61156d60405160200161047090613db3565b611575612cf0565b6001600160a01b03811661159e578060405163c1b14c9160e01b81526004016107d79190613be5565b60006115a982613347565b90506115df81604051806040016040528060128152602001713932b6b7bb32a7b930b1b632a9b4b3b732b960711b815250612fc0565b6115e7613a10565b80516115f4906001612e71565b6040805180820190915260078152661858d8dbdd5b9d60ca1b602082015281516116219160009086612ed6565b604051630937807960e21b81526001600160a01b037f000000000000000000000000000000000000000000000000000000000000000016906324de01e4906108ae9085908590600401614964565b61168160405160200161047090613db3565b611689612cf0565b60006116958383613384565b90506116c3816040518060400160405280600a8152602001697265766f6b65526f6c6560b01b815250612fc0565b6116cb613a10565b80516116d8906001612e71565b6040805180820190915260078152661858d8dbdd5b9d60ca1b602082015281516117059160009087612ed6565b6080810151611715906001612e71565b604080518082019091526007815266726f6c654b657960c81b602082015260808201516117459160009086612f33565b604051630937807960e21b81526001600160a01b037f000000000000000000000000000000000000000000000000000000000000000016906324de01e490610cd190859085906004016149ac565b6117a560405160200161047090613db3565b6117ad612cf0565b60006117bc8686868686613128565b90506117ec816040518060400160405280600c81526020016b1cd95d141c9a58d95199595960a21b815250612da9565b7f00000000000000000000000000000000000000000000000000000000000000006001600160a01b031663ca446dd9611824886133c0565b876040518363ffffffff1660e01b81526004016118429291906148ed565b6020604051808303816000875af1158015611861573d6000803e3d6000fd5b505050506040513d601f19601f820116820180604052508101906118859190614904565b507f00000000000000000000000000000000000000000000000000000000000000006001600160a01b031663e2a4853a6118be886133f0565b866040518363ffffffff1660e01b81526004016118dc929190613ddb565b6020604051808303816000875af11580156118fb573d6000803e3d6000fd5b505050506040513d601f19601f8201168201806040525081019061191f9190613de9565b507f00000000000000000000000000000000000000000000000000000000000000006001600160a01b031663e2a4853a6119588861342b565b856040518363ffffffff1660e01b8152600401611976929190613ddb565b6020604051808303816000875af1158015611995573d6000803e3d6000fd5b505050506040513d601f19601f820116820180604052508101906119b99190613de9565b507f00000000000000000000000000000000000000000000000000000000000000006001600160a01b031663e2a4853a6119f28861346e565b846040518363ffffffff1660e01b8152600401611a10929190613ddb565b6020604051808303816000875af1158015611a2f573d6000803e3d6000fd5b505050506040513d601f19601f82011682018060405250810190611a539190613de9565b50611a5c613a10565b8051611a69906002612e71565b6040805180820190915260058152643a37b5b2b760d91b60208201528151611a94916000908a612ed6565b6040805180820190915260098152681c1c9a58d95199595960ba1b60208201528151611ac39160019089612ed6565b6020810151611ad3906003612e71565b611b1a600060405180604001604052806013815260200172383934b1b2a332b2b226bab63a34b83634b2b960691b815250878460200151612f33909392919063ffffffff16565b611b6860016040518060400160405280601a815260200179383934b1b2a332b2b22432b0b93a3132b0ba223ab930ba34b7b760311b815250868460200151612f33909392919063ffffffff16565b611ba760026040518060400160405280600b81526020016a737461626c65507269636560a81b815250858460200151612f33909392919063ffffffff16565b604051630937807960e21b81526001600160a01b037f000000000000000000000000000000000000000000000000000000000000000016906324de01e490610ae990859085906004016149ec565b611c0760405160200161047090613db3565b611c0f612cf0565b611c3d816040518060400160405280600c81526020016b31b0b731b2b620b1ba34b7b760a11b8152506134a0565b6108ec6001600055565b611c5960405160200161047090613db3565b611c61612cf0565b6000611c6d8383613287565b9050611c9c81604051806040016040528060198152602001600080516020614f4a833981519152815250612fc0565b611ca4613a10565b8051611cb1906002612e71565b6040805180820190915260058152643a37b5b2b760d91b60208201528151611cdc9160009087612ed6565b604080518082019091526008815267383937bb34b232b960c11b60208201528151611d0a9160019086612ed6565b60405163483624fb60e11b81526001600160a01b037f0000000000000000000000000000000000000000000000000000000000000000169063906c49f690610cd1908490600401614a28565b611d6860405160200161047090613db3565b611d70612cf0565b6000611d7c838361319d565b9050611da981604051806040016040528060098152602001686772616e74526f6c6560b81b815250612fc0565b611db1613a10565b8051611dbe906001612e71565b6040805180820190915260078152661858d8dbdd5b9d60ca1b60208201528151611deb9160009087612ed6565b6080810151611dfb906001612e71565b604080518082019091526007815266726f6c654b657960c81b60208201526080820151611e2b9160009086612f33565b604051630937807960e21b81526001600160a01b037f000000000000000000000000000000000000000000000000000000000000000016906324de01e490610cd19085908590600401614a6f565b6060816001600160401b03811115611e9357611e93614aae565b604051908082528060200260200182016040528015611ec657816020015b6060815260200190600190039081611eb15790505b50905060005b82811015611f905760008030868685818110611eea57611eea614ac4565b9050602002810190611efc9190614ada565b604051611f0a929190614b27565b600060405180830381855af49150503d8060008114611f45576040519150601f19603f3d011682016040523d82523d6000602084013e611f4a565b606091505b509150915081611f5d57611f5d816135c5565b80848481518110611f7057611f70614ac4565b602002602001018190525050508080611f8890614b4d565b915050611ecc565b505b92915050565b611faa60405160200161047090613db3565b611fb2612cf0565b6001600160a01b038116611fdb578060405163cb9339d560e01b81526004016107d79190613be5565b6000611fe6826135fe565b9050612018816040518060400160405280600e81526020016d39b2ba2332b2a932b1b2b4bb32b960911b815250612fc0565b612020613a10565b805161202d906001612e71565b6040805180820190915260078152661858d8dbdd5b9d60ca1b6020820152815161205a9160009086612ed6565b604051630937807960e21b81526001600160a01b037f000000000000000000000000000000000000000000000000000000000000000016906324de01e4906108ae9085908590600401614b66565b6120ba60405160200161047090613db3565b6120c2612cf0565b60006120cd82613347565b905061210381604051806040016040528060128152602001713932b6b7bb32a7b930b1b632a9b4b3b732b960711b815250612da9565b604051630e316ab760e01b81526001600160a01b037f00000000000000000000000000000000000000000000000000000000000000001690630e316ab79061214f908590600401613be5565b600060405180830381600087803b15801561216957600080fd5b505af115801561217d573d6000803e3d6000fd5b50505050612189613a10565b8051612196906001612e71565b6040805180820190915260078152661858d8dbdd5b9d60ca1b602082015281516121c39160009086612ed6565b604051630937807960e21b81526001600160a01b037f000000000000000000000000000000000000000000000000000000000000000016906324de01e4906108ae9085908590600401614baa565b61222360405160200161047090613db3565b61222b612cf0565b60006122378383613306565b905061226681604051806040016040528060188152602001600080516020614f6a833981519152815250612fc0565b61226e613a10565b805161227b906001612e71565b604080518082019091526008815267383937bb34b232b960c11b602082015281516122a99160009087612ed6565b60608101516122b9906001612e71565b60408051808201909152600581526476616c756560d81b602082015260608201516122e79160009086613232565b60405163483624fb60e11b81526001600160a01b037f0000000000000000000000000000000000000000000000000000000000000000169063906c49f690610cd1908490600401614bec565b61234560405160200161047090613db3565b61234d612cf0565b6000612358826135fe565b905061238a816040518060400160405280600e81526020016d39b2ba2332b2a932b1b2b4bb32b960911b815250612da9565b7f00000000000000000000000000000000000000000000000000000000000000006001600160a01b031663ca446dd96040516020016123e9906020808252600c908201526b2322a2afa922a1a2a4ab22a960a11b604082015260600190565b60405160208183030381529060405280519060200120846040518363ffffffff1660e01b815260040161241d9291906148ed565b6020604051808303816000875af115801561243c573d6000803e3d6000fd5b505050506040513d601f19601f820116820180604052508101906124609190614904565b50612469613a10565b8051612476906001612e71565b6040805180820190915260078152661858d8dbdd5b9d60ca1b602082015281516124a39160009086612ed6565b604051630937807960e21b81526001600160a01b037f000000000000000000000000000000000000000000000000000000000000000016906324de01e4906108ae9085908590600401614c33565b61250360405160200161047090613db3565b61250b612cf0565b6000612518848484612d49565b9050612549816040518060400160405280600d81526020016c7365744461746153747265616d60981b815250612fc0565b612551613a10565b805161255e906001612e71565b6040805180820190915260058152643a37b5b2b760d91b602082015281516125899160009088612ed6565b6080810151612599906001612e71565b60408051808201909152600681526519995959125960d21b602082015260808201516125c89160009087612f33565b60208101516125d8906001612e71565b6126206000604051806040016040528060148152602001733230ba30a9ba3932b0b6a6bab63a34b83634b2b960611b815250858460200151612f33909392919063ffffffff16565b604051630937807960e21b81526001600160a01b037f000000000000000000000000000000000000000000000000000000000000000016906324de01e4906107519085908590600401614c71565b61268060405160200161047090613db3565b612688612cf0565b60006126948383613384565b90506126c2816040518060400160405280600a8152602001697265766f6b65526f6c6560b01b815250612da9565b60405163208dd1ff60e01b81526001600160a01b037f0000000000000000000000000000000000000000000000000000000000000000169063208dd1ff906127109086908690600401614791565b600060405180830381600087803b15801561272a57600080fd5b505af115801561273e573d6000803e3d6000fd5b5050505061274a613a10565b8051612757906001612e71565b6040805180820190915260078152661858d8dbdd5b9d60ca1b602082015281516127849160009087612ed6565b6080810151612794906001612e71565b604080518082019091526007815266726f6c654b657960c81b602082015260808201516127c49160009086612f33565b604051630937807960e21b81526001600160a01b037f000000000000000000000000000000000000000000000000000000000000000016906324de01e490610cd19085908590600401614cb4565b61282460405160200161047090613db3565b61282c612cf0565b60006128388383613637565b9050612873816040518060400160405280601781526020017639b2ba20ba37b6b4b1a7b930b1b632a83937bb34b232b960491b815250612da9565b7f00000000000000000000000000000000000000000000000000000000000000006001600160a01b031663abfdcced6128ab85613684565b6040516001600160e01b031960e084901b168152600481019190915284151560248201526044016020604051808303816000875af11580156128f1573d6000803e3d6000fd5b505050506040513d601f19601f82011682018060405250810190612915919061488e565b5061291e613a10565b805161292b906001612e71565b604080518082019091526008815267383937bb34b232b960c11b602082015281516129599160009087612ed6565b6060810151612969906001612e71565b60408051808201909152600581526476616c756560d81b602082015260608201516129979160009086613232565b60405163483624fb60e11b81526001600160a01b037f0000000000000000000000000000000000000000000000000000000000000000169063906c49f690610cd1908490600401614cde565b6129f560405160200161047090613db3565b6129fd612cf0565b6001548111612a22576040516373586edb60e11b8152600481018290526024016107d7565b6001819055612a2f6136c3565b612a37613a10565b6020810151612a47906001612e71565b612a8960006040518060400160405280600e81526020016d5f74696d656c6f636b44656c617960901b815250848460200151612f33909392919063ffffffff16565b60405163483624fb60e11b81526001600160a01b037f0000000000000000000000000000000000000000000000000000000000000000169063906c49f690612ad5908490600401614d1f565b600060405180830381600087803b158015612aef57600080fd5b505af1158015612b03573d6000803e3d6000fd5b50505050506108ec6001600055565b612b2460405160200161047090613db3565b612b2c612cf0565b6000612b388383613637565b9050612b73816040518060400160405280601781526020017639b2ba20ba37b6b4b1a7b930b1b632a83937bb34b232b960491b815250612fc0565b612b7b613a10565b8051612b88906001612e71565b604080518082019091526008815267383937bb34b232b960c11b60208201528151612bb69160009087612ed6565b6060810151612bc6906001612e71565b60408051808201909152600581526476616c756560d81b60208201526060820151612bf49160009086613232565b60405163483624fb60e11b81526001600160a01b037f0000000000000000000000000000000000000000000000000000000000000000169063906c49f690610cd1908490600401614d5e565b60405163ac4ab3fb60e01b81526001600160a01b037f0000000000000000000000000000000000000000000000000000000000000000169063ac4ab3fb90612c8e9033908690600401614791565b602060405180830381865afa158015612cab573d6000803e3d6000fd5b505050506040513d601f19601f82011682018060405250810190612ccf919061488e565b610d0f57338160405163a35b150b60e01b81526004016107d7929190614da5565b600260005403612d425760405162461bcd60e51b815260206004820152601f60248201527f5265656e7472616e637947756172643a207265656e7472616e742063616c6c0060448201526064016107d7565b6002600055565b6040516c7365744461746153747265616d60981b60208201526001600160601b0319606085901b16602d82015260418101839052606181018290526000906081016040516020818303038152906040528051906020012090509392505050565b612db2826136f1565b610d0f82826134a0565b6000604051602001612df0906020808252600e908201526d1110551057d4d51491505357d25160921b604082015260600190565b6040516020818303038152906040528051906020012082604051602001612e189291906148ed565b604051602081830303815290604052805190602001209050919050565b6000604051602001612df0906020808252601690820152752220aa20afa9aa2922a0a6afa6aaa62a24a82624a2a960511b604082015260600190565b806001600160401b03811115612e8957612e89614aae565b604051908082528060200260200182016040528015612ecf57816020015b604080518082019091526060815260006020820152815260200190600190039081612ea75790505b5090915250565b8184600001518481518110612eed57612eed614ac4565b6020026020010151600001819052508084600001518481518110612f1357612f13614ac4565b6020908102919091018101516001600160a01b0390921691015250505050565b8184600001518481518110612f4a57612f4a614ac4565b6020026020010151600001819052508084600001518481518110612f7057612f70614ac4565b6020026020010151602001818152505050505050565b6040516e30b23227b930b1b632a9b4b3b732b960891b60208201526001600160601b0319606083901b16602f820152600090604301612e18565b60008281526002602052604090205415612fed5760405163b244a10760e01b815260040160405180910390fd5b600154612ffa9042614dc9565b600083815260026020526040902055613014600383613762565b5061301d613a10565b608081015161302d906001612e71565b604080518082019091526009815268616374696f6e4b657960b81b6020820152608082015161305f9160009086612f33565b60c081015161306f906001613775565b60408051808201909152600b81526a1858dd1a5bdb931858995b60aa1b602082015260c08201516130a391600090856137d7565b604051630937807960e21b81526001600160a01b037f000000000000000000000000000000000000000000000000000000000000000016906324de01e4906130f19086908590600401614ddc565b600060405180830381600087803b15801561310b57600080fd5b505af115801561311f573d6000803e3d6000fd5b50505050505050565b604080516b1cd95d141c9a58d95199595960a21b60208201526001600160601b0319606088811b8216602c84015287901b169181019190915260548101849052607481018390526094810182905260009060b40160405160208183030381529060405280519060200120905095945050505050565b604051686772616e74526f6c6560b81b60208201526001600160601b0319606084901b166029820152603d8101829052600090605d015b60405160208183030381529060405280519060200120905092915050565b6000604051602001612df0906020808252601a90820152791254d7d3d49050d31157d41493d59251115497d153905093115160321b604082015260600190565b818460000151848151811061324957613249614ac4565b602002602001015160000181905250808460000151848151811061326f5761326f614ac4565b60209081029190910181015191151591015250505050565b604051600080516020614f4a83398151915260208201526001600160601b0319606084811b8216603984015283901b16604d8201526000906061016131d4565b6000604051602001612df09060208082526019908201527827a920a1a622afa82927ab24a222a92fa327a92faa27a5a2a760391b604082015260600190565b604051600080516020614f6a83398151915260208201526001600160601b0319606084901b16603882015281151560f81b604c820152600090604d016131d4565b604051713932b6b7bb32a7b930b1b632a9b4b3b732b960711b60208201526001600160601b0319606083901b166032820152600090604601612e18565b604051697265766f6b65526f6c6560b01b60208201526001600160601b0319606084901b16602a820152603e8101829052600090605e016131d4565b6000604051602001612df0906020808252600a908201526914149250d157d191515160b21b604082015260600190565b6000604051602001612df090602080825260159082015274282924a1a2afa322a2a22fa6aaa62a24a82624a2a960591b604082015260600190565b6000604051602001612df0906020808252601d908201527f50524943455f464545445f4845415254424541545f4455524154494f4e000000604082015260600190565b6000604051602001612df0906020808252600c908201526b535441424c455f505249434560a01b604082015260600190565b60008281526002602052604081205490036134ce57604051634a7ed75160e11b815260040160405180910390fd5b6000828152600260205260408120556134e8600383613829565b506134f1613a10565b6080810151613501906001612e71565b604080518082019091526009815268616374696f6e4b657960b81b602082015260808201516135339160009086612f33565b60c0810151613543906001613775565b60408051808201909152600b81526a1858dd1a5bdb931858995b60aa1b602082015260c082015161357791600090856137d7565b604051630937807960e21b81526001600160a01b037f000000000000000000000000000000000000000000000000000000000000000016906324de01e4906130f19086908590600401614e1f565b6000806135d183613835565b9150915080156135f5578160405162461bcd60e51b81526004016107d79190614e61565b61078f836138c5565b6040516d39b2ba2332b2a932b1b2b4bb32b960911b60208201526001600160601b0319606083901b16602e820152600090604201612e18565b6040517639b2ba20ba37b6b4b1a7b930b1b632a83937bb34b232b960491b60208201526001600160601b0319606084901b16603782015281151560f81b604b820152600090604c016131d4565b6000604051602001612df09060208082526019908201527824a9afa0aa27a6a4a1afa7a920a1a622afa82927ab24a222a960391b604082015260600190565b6206978060015411156136ef57600154604051633ebd9bc360e21b81526004016107d791815260200190565b565b600081815260026020526040812054900361371f57604051634a7ed75160e11b815260040160405180910390fd5b4260008281526002602052604090205411156108ec576000818152600260205260409081902054905163082c8d6160e21b815260048101919091526024016107d7565b600061376e83836138ce565b9392505050565b806001600160401b0381111561378d5761378d614aae565b604051908082528060200260200182016040528015612ecf57816020015b60408051808201909152606080825260208201528152602001906001900390816137ab57505090915250565b81846000015184815181106137ee576137ee614ac4565b602002602001015160000181905250808460000151848151811061381457613814614ac4565b60200260200101516020018190525050505050565b600061376e838361391d565b6060600060448351101561385c575050604080516020810190915260008082529092909150565b6000613869846020015190565b90506307b9e43360e51b6001600160e01b03198216016138a8576004840193508380602001905181019061389d9190614e74565b946001945092505050565b600060405180602001604052806000815250909250925050915091565b80518060208301fd5b600081815260018301602052604081205461391557508154600181810184556000848152602080822090930184905584548482528286019093526040902091909155611f92565b506000611f92565b60008181526001830160205260408120548015613a06576000613941600183614f20565b855490915060009061395590600190614f20565b90508181146139ba57600086600001828154811061397557613975614ac4565b906000526020600020015490508087600001848154811061399857613998614ac4565b6000918252602080832090910192909255918252600188019052604090208390555b85548690806139cb576139cb614f33565b600190038181906000526020600020016000905590558560010160008681526020019081526020016000206000905560019350505050611f92565b6000915050611f92565b604080516101208101909152606060e0820181815261010083019190915281908152602001613a52604051806040016040528060608152602001606081525090565b8152602001613a74604051806040016040528060608152602001606081525090565b8152602001613a96604051806040016040528060608152602001606081525090565b8152602001613ab8604051806040016040528060608152602001606081525090565b8152602001613ada604051806040016040528060608152602001606081525090565b8152602001613afc604051806040016040528060608152602001606081525090565b905290565b6001600160a01b03811681146108ec57600080fd5b600080600060608486031215613b2b57600080fd5b8335613b3681613b01565b95602085013595506040909401359392505050565b600060208284031215613b5d57600080fd5b813561376e81613b01565b600080600080600060a08688031215613b8057600080fd5b8535613b8b81613b01565b94506020860135613b9b81613b01565b94979496505050506040830135926060810135926080909101359150565b60008060408385031215613bcc57600080fd5b8235613bd781613b01565b946020939093013593505050565b6001600160a01b0391909116815260200190565b80151581146108ec57600080fd5b60008060408385031215613c1a57600080fd5b8235613c2581613b01565b91506020830135613c3581613bf9565b809150509250929050565b60008060408385031215613c5357600080fd5b8235613c5e81613b01565b91506020830135613c3581613b01565b600060208284031215613c8057600080fd5b5035919050565b60008060208385031215613c9a57600080fd5b82356001600160401b0380821115613cb157600080fd5b818501915085601f830112613cc557600080fd5b813581811115613cd457600080fd5b8660208260051b8501011115613ce957600080fd5b60209290920196919550909350505050565b60005b83811015613d16578181015183820152602001613cfe565b50506000910152565b60008151808452613d37816020860160208601613cfb565b601f01601f19169290920160200192915050565b600081518084526020808501808196508360051b8101915082860160005b85811015613d93578284038952613d81848351613d1f565b98850198935090840190600101613d69565b5091979650505050505050565b60208152600061376e6020830184613d4b565b6020808252600e908201526d2a24a6a2a627a1a5afa0a226a4a760911b604082015260600190565b918252602082015260400190565b600060208284031215613dfb57600080fd5b5051919050565b600081518084526020808501808196508360051b810191508286016000805b86811015613e9d578385038a52825160408151818852613e4382890182613d1f565b92890151888403898b01528051808552908a01938693508a0191505b80831015613e885783516001600160a01b03168252928901926001929092019190890190613e5f565b509b88019b9650505091850191600101613e21565b509298975050505050505050565b60006040808401835182865281815180845260608801915060608160051b89010193506020808401935060005b82811015613f2257898603605f1901845284518051888852613efc89890182613d1f565b918401516001600160a01b03169784019790975295509381019392810192600101613ed8565b50808801519550888503818a015250505050613f3e8183613e02565b95945050505050565b600081518084526020808501808196508360051b810191508286016000805b86811015613e9d578385038a52825160408151818852613f8882890182613d1f565b92890151888403898b01528051808552908a01938693508a0191505b80831015613fc45783518252928901926001929092019190890190613fa4565b509b88019b9650505091850191600101613f66565b60006040808401835182865281815180845260608801915060608160051b89010193506020808401935060005b8281101561404757898603605f190184528451805188885261402a89890182613d1f565b918401519784019790975295509381019392810192600101614006565b50808801519550888503818a015250505050613f3e8183613f47565b600081518084526020808501808196508360051b810191508286016000805b86811015613e9d578385038a528251604081518188526140a482890182613d1f565b92890151888403898b01528051808552908a01938693508a0191505b808310156140e057835182529289019260019290920191908901906140c0565b509b88019b9650505091850191600101614082565b60006040808401835182865281815180845260608801915060608160051b89010193506020808401935060005b8281101561416357898603605f190184528451805188885261414689890182613d1f565b918401519784019790975295509381019392810192600101614122565b50808801519550888503818a015250505050613f3e8183614063565b600081518084526020808501808196508360051b810191508286016000805b86811015613e9d578385038a528251604081518188526141c082890182613d1f565b92890151888403898b01528051808552908a01938693508a0191505b808310156141fe578351151582529289019260019290920191908901906141dc565b509b88019b965050509185019160010161419e565b60006040808401835182865281815180845260608801915060608160051b89010193506020808401935060005b8281101561428357898603605f190184528451805188885261426489890182613d1f565b9184015115159784019790975295509381019392810192600101614240565b50808801519550888503818a015250505050613f3e818361417f565b600081518084526020808501808196508360051b810191508286016000805b86811015613e9d578385038a528251604081518188526142e082890182613d1f565b92890151888403898b01528051808552908a01938693508a0191505b8083101561431c57835182529289019260019290920191908901906142fc565b509b88019b96505050918501916001016142be565b60006040808401835182865281815180845260608801915060608160051b89010193506020808401935060005b8281101561439f57898603605f190184528451805188885261438289890182613d1f565b91840151978401979097529550938101939281019260010161435e565b50808801519550888503818a015250505050613f3e818361429f565b600081518084526020808501808196508360051b8101915082860160005b85811015613d935782840389528151604081518187526143fb82880182613d1f565b915050868201519150858103878701526144158183613d4b565b9a87019a95505050908401906001016143d9565b60006040808401835182865281815180845260608801915060608160051b89010193506020808401935060005b828110156144a657898603605f190184528451805188885261447a89890182613d1f565b91840151888303898601529190506144928183613d1f565b975050509381019392810192600101614456565b50808801519550888503818a015250505050613f3e81836143bb565b600081518084526020808501808196506005915083821b81018387016000805b8781101561456d578484038b5282516040815181875261450482880182613d1f565b928a0151878403888c01528051808552908b019392508a83019150808a1b83018b01865b8281101561455657601f19858303018452614544828751613d1f565b958d0195938d01939150600101614528565b509e8b019e975050509388019350506001016144e2565b50919998505050505050505050565b60006040808401835182865281815180845260608801915060608160051b89010193506020808401935060005b828110156145f957898603605f19018452845180518888526145cd89890182613d1f565b91840151888303898601529190506145e58183613d1f565b9750505093810193928101926001016145a9565b50808801519550888503818a015250505050613f3e81836144c2565b6000815160e0845261462a60e0850182613eab565b9050602083015184820360208601526146438282613fd9565b9150506040830151848203604086015261465d82826140f5565b915050606083015184820360608601526146778282614213565b915050608083015184820360808601526146918282614331565b91505060a083015184820360a08601526146ab8282614429565b91505060c083015184820360c0860152613f3e828261457c565b60608152600d60608201526c5365744461746153747265616d60981b608082015282602082015260a06040820152600061470260a0830184614615565b949350505050565b60608152601560608201527429b4b3b730b620b23227b930b1b632a9b4b3b732b960591b608082015282602082015260a06040820152600061470260a0830184614615565b60608152601260608201527114da59db985b14d95d141c9a58d95199595960721b608082015282602082015260a06040820152600061470260a0830184614615565b6001600160a01b03929092168252602082015260400190565b6060815260096060820152684772616e74526f6c6560b81b608082015282602082015260a06040820152600061470260a0830184614615565b60208082526011908201527054494d454c4f434b5f4d554c544953494760781b604082015260600190565b600a8152695265766f6b65526f6c6560b01b602082015260400190565b60408152600061483d6040830161480e565b82810360208401526147028185614615565b60608152600f60608201526e20b23227b930b1b632a9b4b3b732b960891b608082015282602082015260a06040820152600061470260a0830184614615565b6000602082840312156148a057600080fd5b815161376e81613bf9565b60408152601860408201527714d95d13dc9858db19541c9bdd9a59195c915b98589b195960421b606082015260806020820152600061376e6080830184614615565b9182526001600160a01b0316602082015260400190565b60006020828403121561491657600080fd5b815161376e81613b01565b60408152601960408201527829b2ba27b930b1b632a83937bb34b232b92337b92a37b5b2b760391b606082015260806020820152600061376e6080830184614615565b60608152601860608201527729b4b3b730b62932b6b7bb32a7b930b1b632a9b4b3b732b960411b608082015282602082015260a06040820152600061470260a0830184614615565b60608152601060608201526f5369676e616c5265766f6b65526f6c6560801b608082015282602082015260a06040820152600061470260a0830184614615565b60608152600c60608201526b14d95d141c9a58d95199595960a21b608082015282602082015260a06040820152600061470260a0830184614615565b60408152601f60408201527f5369676e616c5365744f7261636c6550726f7669646572466f72546f6b656e00606082015260806020820152600061376e6080830184614615565b60608152600f60608201526e5369676e616c4772616e74526f6c6560881b608082015282602082015260a06040820152600061470260a0830184614615565b634e487b7160e01b600052604160045260246000fd5b634e487b7160e01b600052603260045260246000fd5b6000808335601e19843603018112614af157600080fd5b8301803591506001600160401b03821115614b0b57600080fd5b602001915036819003821315614b2057600080fd5b9250929050565b8183823760009101908152919050565b634e487b7160e01b600052601160045260246000fd5b600060018201614b5f57614b5f614b37565b5060010190565b60608152601460608201527329b4b3b730b629b2ba2332b2a932b1b2b4bb32b960611b608082015282602082015260a06040820152600061470260a0830184614615565b6060815260126060820152712932b6b7bb32a7b930b1b632a9b4b3b732b960711b608082015282602082015260a06040820152600061470260a0830184614615565b60408152601e60408201527f5369676e616c5365744f7261636c6550726f7669646572456e61626c65640000606082015260806020820152600061376e6080830184614615565b60608152600e60608201526d29b2ba2332b2a932b1b2b4bb32b960911b608082015282602082015260a06040820152600061470260a0830184614615565b6060815260136060820152725369676e616c5365744461746153747265616d60681b608082015282602082015260a06040820152600061470260a0830184614615565b606081526000614cc66060830161480e565b8460208401528281036040840152613f3e8185614615565b60408152601760408201527629b2ba20ba37b6b4b1a7b930b1b632a83937bb34b232b960491b606082015260806020820152600061376e6080830184614615565b604081526015604082015274496e63726561736554696d656c6f636b44656c617960581b606082015260806020820152600061376e6080830184614615565b60408152601d60408201527f5369676e616c53657441746f6d69634f7261636c6550726f7669646572000000606082015260806020820152600061376e6080830184614615565b6001600160a01b038316815260406020820181905260009061470290830184613d1f565b80820180821115611f9257611f92614b37565b60608152601360608201527229b4b3b730b62832b73234b733a0b1ba34b7b760691b608082015282602082015260a06040820152600061470260a0830184614615565b60608152601260608201527121b632b0b92832b73234b733a0b1ba34b7b760711b608082015282602082015260a06040820152600061470260a0830184614615565b60208152600061376e6020830184613d1f565b600060208284031215614e8657600080fd5b81516001600160401b0380821115614e9d57600080fd5b818401915084601f830112614eb157600080fd5b815181811115614ec357614ec3614aae565b604051601f8201601f19908116603f01168101908382118183101715614eeb57614eeb614aae565b81604052828152876020848701011115614f0457600080fd5b614f15836020830160208801613cfb565b979650505050505050565b81810381811115611f9257611f92614b37565b634e487b7160e01b600052603160045260246000fdfe7365744f7261636c6550726f7669646572466f72546f6b656e000000000000007365744f7261636c6550726f7669646572456e61626c65640000000000000000a2646970667358221220f14607a41a42bd05cbe939d17742b48c265f3b87f92c77561416b59b1fee46d164736f6c63430008120033",
  "libraries": {},
  "devdoc": {
    "kind": "dev",
    "methods": {
      "multicall(bytes[])": {
        "details": "Receives and executes a batch of function calls on this contract."
      }
    },
    "version": 1
  },
  "userdoc": {
    "kind": "user",
    "methods": {},
    "version": 1
  },
  "storageLayout": {
    "storage": [
      {
        "astId": 5544,
        "contract": "contracts/config/Timelock.sol:Timelock",
        "label": "_status",
        "offset": 0,
        "slot": "0",
        "type": "t_uint256"
      },
      {
        "astId": 20465,
        "contract": "contracts/config/Timelock.sol:Timelock",
        "label": "timelockDelay",
        "offset": 0,
        "slot": "1",
        "type": "t_uint256"
      },
      {
        "astId": 20469,
        "contract": "contracts/config/Timelock.sol:Timelock",
        "label": "pendingActions",
        "offset": 0,
        "slot": "2",
        "type": "t_mapping(t_bytes32,t_uint256)"
      },
      {
        "astId": 20472,
        "contract": "contracts/config/Timelock.sol:Timelock",
        "label": "pendingActionsList",
        "offset": 0,
        "slot": "3",
        "type": "t_struct(Bytes32Set)13851_storage"
      }
    ],
    "types": {
      "t_array(t_bytes32)dyn_storage": {
        "base": "t_bytes32",
        "encoding": "dynamic_array",
        "label": "bytes32[]",
        "numberOfBytes": "32"
      },
      "t_bytes32": {
        "encoding": "inplace",
        "label": "bytes32",
        "numberOfBytes": "32"
      },
      "t_mapping(t_bytes32,t_uint256)": {
        "encoding": "mapping",
        "key": "t_bytes32",
        "label": "mapping(bytes32 => uint256)",
        "numberOfBytes": "32",
        "value": "t_uint256"
      },
      "t_struct(Bytes32Set)13851_storage": {
        "encoding": "inplace",
        "label": "struct EnumerableSet.Bytes32Set",
        "members": [
          {
            "astId": 13850,
            "contract": "contracts/config/Timelock.sol:Timelock",
            "label": "_inner",
            "offset": 0,
            "slot": "0",
            "type": "t_struct(Set)13657_storage"
          }
        ],
        "numberOfBytes": "64"
      },
      "t_struct(Set)13657_storage": {
        "encoding": "inplace",
        "label": "struct EnumerableSet.Set",
        "members": [
          {
            "astId": 13652,
            "contract": "contracts/config/Timelock.sol:Timelock",
            "label": "_values",
            "offset": 0,
            "slot": "0",
            "type": "t_array(t_bytes32)dyn_storage"
          },
          {
            "astId": 13656,
            "contract": "contracts/config/Timelock.sol:Timelock",
            "label": "_indexes",
            "offset": 0,
            "slot": "1",
            "type": "t_mapping(t_bytes32,t_uint256)"
          }
        ],
        "numberOfBytes": "64"
      },
      "t_uint256": {
        "encoding": "inplace",
        "label": "uint256",
        "numberOfBytes": "32"
      }
    }
  }
}