{
  "address": "0x610178dA211FEF7D417bC0e6FeD39F05609AD788",
  "abi": [
    {
      "inputs": [
        {
          "internalType": "contract RoleStore",
          "name": "_roleStore",
          "type": "address"
        }
      ],
      "stateMutability": "nonpayable",
      "type": "constructor"
    },
    {
      "inputs": [
        {
          "internalType": "address",
          "name": "msgSender",
          "type": "address"
        },
        {
          "internalType": "string",
          "name": "role",
          "type": "string"
        }
      ],
      "name": "Unauthorized",
      "type": "error"
    },
    {
      "anonymous": false,
      "inputs": [
        {
          "indexed": false,
          "internalType": "address",
          "name": "prevGov",
          "type": "address"
        },
        {
          "indexed": false,
          "internalType": "address",
          "name": "nextGov",
          "type": "address"
        }
      ],
      "name": "SetGov",
      "type": "event"
    },
    {
      "inputs": [
        {
          "internalType": "bytes32",
          "name": "",
          "type": "bytes32"
        }
      ],
      "name": "addressValues",
      "outputs": [
        {
          "internalType": "address",
          "name": "",
          "type": "address"
        }
      ],
      "stateMutability": "view",
      "type": "function"
    },
    {
      "inputs": [
        {
          "internalType": "bytes32",
          "name": "key",
          "type": "bytes32"
        },
        {
          "internalType": "int256",
          "name": "value",
          "type": "int256"
        }
      ],
      "name": "applyDeltaToInt",
      "outputs": [
        {
          "internalType": "int256",
          "name": "",
          "type": "int256"
        }
      ],
      "stateMutability": "nonpayable",
      "type": "function"
    },
    {
      "inputs": [
        {
          "internalType": "bytes32",
          "name": "key",
          "type": "bytes32"
        },
        {
          "internalType": "int256",
          "name": "value",
          "type": "int256"
        }
      ],
      "name": "applyDeltaToUint",
      "outputs": [
        {
          "internalType": "uint256",
          "name": "",
          "type": "uint256"
        }
      ],
      "stateMutability": "nonpayable",
      "type": "function"
    },
    {
      "inputs": [
        {
          "internalType": "bytes32",
          "name": "",
          "type": "bytes32"
        }
      ],
      "name": "boolValues",
      "outputs": [
        {
          "internalType": "bool",
          "name": "",
          "type": "bool"
        }
      ],
      "stateMutability": "view",
      "type": "function"
    },
    {
      "inputs": [
        {
          "internalType": "bytes32",
          "name": "",
          "type": "bytes32"
        }
      ],
      "name": "dataValues",
      "outputs": [
        {
          "internalType": "bytes32",
          "name": "",
          "type": "bytes32"
        }
      ],
      "stateMutability": "view",
      "type": "function"
    },
    {
      "inputs": [
        {
          "internalType": "bytes32",
          "name": "key",
          "type": "bytes32"
        },
        {
          "internalType": "int256",
          "name": "value",
          "type": "int256"
        }
      ],
      "name": "decrementInt",
      "outputs": [
        {
          "internalType": "int256",
          "name": "",
          "type": "int256"
        }
      ],
      "stateMutability": "nonpayable",
      "type": "function"
    },
    {
      "inputs": [
        {
          "internalType": "bytes32",
          "name": "key",
          "type": "bytes32"
        },
        {
          "internalType": "uint256",
          "name": "value",
          "type": "uint256"
        }
      ],
      "name": "decrementUint",
      "outputs": [
        {
          "internalType": "uint256",
          "name": "",
          "type": "uint256"
        }
      ],
      "stateMutability": "nonpayable",
      "type": "function"
    },
    {
      "inputs": [
        {
          "internalType": "bytes32",
          "name": "key",
          "type": "bytes32"
        }
      ],
      "name": "getAddress",
      "outputs": [
        {
          "internalType": "address",
          "name": "",
          "type": "address"
        }
      ],
      "stateMutability": "view",
      "type": "function"
    },
    {
      "inputs": [
        {
          "internalType": "bytes32",
          "name": "key",
          "type": "bytes32"
        }
      ],
      "name": "getBool",
      "outputs": [
        {
          "internalType": "bool",
          "name": "",
          "type": "bool"
        }
      ],
      "stateMutability": "view",
      "type": "function"
    },
    {
      "inputs": [
        {
          "internalType": "bytes32",
          "name": "key",
          "type": "bytes32"
        }
      ],
      "name": "getData",
      "outputs": [
        {
          "internalType": "bytes32",
          "name": "",
          "type": "bytes32"
        }
      ],
      "stateMutability": "view",
      "type": "function"
    },
    {
      "inputs": [
        {
          "internalType": "bytes32",
          "name": "key",
          "type": "bytes32"
        }
      ],
      "name": "getInt",
      "outputs": [
        {
          "internalType": "int256",
          "name": "",
          "type": "int256"
        }
      ],
      "stateMutability": "view",
      "type": "function"
    },
    {
      "inputs": [
        {
          "internalType": "bytes32",
          "name": "key",
          "type": "bytes32"
        }
      ],
      "name": "getString",
      "outputs": [
        {
          "internalType": "string",
          "name": "",
          "type": "string"
        }
      ],
      "stateMutability": "view",
      "type": "function"
    },
    {
      "inputs": [
        {
          "internalType": "bytes32",
          "name": "key",
          "type": "bytes32"
        }
      ],
      "name": "getUint",
      "outputs": [
        {
          "internalType": "uint256",
          "name": "",
          "type": "uint256"
        }
      ],
      "stateMutability": "view",
      "type": "function"
    },
    {
      "inputs": [],
      "name": "gov",
      "outputs": [
        {
          "internalType": "address",
          "name": "",
          "type": "address"
        }
      ],
      "stateMutability": "view",
      "type": "function"
    },
    {
      "inputs": [
        {
          "internalType": "bytes32",
          "name": "key",
          "type": "bytes32"
        },
        {
          "internalType": "int256",
          "name": "value",
          "type": "int256"
        }
      ],
      "name": "incrementInt",
      "outputs": [
        {
          "internalType": "int256",
          "name": "",
          "type": "int256"
        }
      ],
      "stateMutability": "nonpayable",
      "type": "function"
    },
    {
      "inputs": [
        {
          "internalType": "bytes32",
          "name": "key",
          "type": "bytes32"
        },
        {
          "internalType": "uint256",
          "name": "value",
          "type": "uint256"
        }
      ],
      "name": "incrementUint",
      "outputs": [
        {
          "internalType": "uint256",
          "name": "",
          "type": "uint256"
        }
      ],
      "stateMutability": "nonpayable",
      "type": "function"
    },
    {
      "inputs": [
        {
          "internalType": "bytes32",
          "name": "",
          "type": "bytes32"
        }
      ],
      "name": "intValues",
      "outputs": [
        {
          "internalType": "int256",
          "name": "",
          "type": "int256"
        }
      ],
      "stateMutability": "view",
      "type": "function"
    },
    {
      "inputs": [
        {
          "internalType": "bytes32",
          "name": "key",
          "type": "bytes32"
        },
        {
          "internalType": "address",
          "name": "value",
          "type": "address"
        }
      ],
      "name": "setAddress",
      "outputs": [
        {
          "internalType": "address",
          "name": "",
          "type": "address"
        }
      ],
      "stateMutability": "nonpayable",
      "type": "function"
    },
    {
      "inputs": [
        {
          "internalType": "bytes32",
          "name": "key",
          "type": "bytes32"
        },
        {
          "internalType": "bool",
          "name": "value",
          "type": "bool"
        }
      ],
      "name": "setBool",
      "outputs": [
        {
          "internalType": "bool",
          "name": "",
          "type": "bool"
        }
      ],
      "stateMutability": "nonpayable",
      "type": "function"
    },
    {
      "inputs": [
        {
          "internalType": "bytes32",
          "name": "key",
          "type": "bytes32"
        },
        {
          "internalType": "bytes32",
          "name": "value",
          "type": "bytes32"
        }
      ],
      "name": "setData",
      "outputs": [
        {
          "internalType": "bytes32",
          "name": "",
          "type": "bytes32"
        }
      ],
      "stateMutability": "nonpayable",
      "type": "function"
    },
    {
      "inputs": [
        {
          "internalType": "address",
          "name": "_gov",
          "type": "address"
        }
      ],
      "name": "setGov",
      "outputs": [],
      "stateMutability": "nonpayable",
      "type": "function"
    },
    {
      "inputs": [
        {
          "internalType": "bytes32",
          "name": "key",
          "type": "bytes32"
        },
        {
          "internalType": "int256",
          "name": "value",
          "type": "int256"
        }
      ],
      "name": "setInt",
      "outputs": [
        {
          "internalType": "int256",
          "name": "",
          "type": "int256"
        }
      ],
      "stateMutability": "nonpayable",
      "type": "function"
    },
    {
      "inputs": [
        {
          "internalType": "bytes32",
          "name": "key",
          "type": "bytes32"
        },
        {
          "internalType": "string",
          "name": "value",
          "type": "string"
        }
      ],
      "name": "setString",
      "outputs": [
        {
          "internalType": "string",
          "name": "",
          "type": "string"
        }
      ],
      "stateMutability": "nonpayable",
      "type": "function"
    },
    {
      "inputs": [
        {
          "internalType": "bytes32",
          "name": "key",
          "type": "bytes32"
        },
        {
          "internalType": "uint256",
          "name": "value",
          "type": "uint256"
        }
      ],
      "name": "setUint",
      "outputs": [
        {
          "internalType": "uint256",
          "name": "",
          "type": "uint256"
        }
      ],
      "stateMutability": "nonpayable",
      "type": "function"
    },
    {
      "inputs": [
        {
          "internalType": "bytes32",
          "name": "",
          "type": "bytes32"
        }
      ],
      "name": "stringValues",
      "outputs": [
        {
          "internalType": "string",
          "name": "",
          "type": "string"
        }
      ],
      "stateMutability": "view",
      "type": "function"
    },
    {
      "inputs": [
        {
          "internalType": "bytes32",
          "name": "",
          "type": "bytes32"
        }
      ],
      "name": "uintValues",
      "outputs": [
        {
          "internalType": "uint256",
          "name": "",
          "type": "uint256"
        }
      ],
      "stateMutability": "view",
      "type": "function"
    }
  ],
  "transactionHash": "0x80ded621c2dad1034a698b1d6be2d150da62416ac742494b85eedf4c48c19430",
  "args": [
    "0x5FbDB2315678afecb367f032d93F642f64180aa3"
  ],
  "numDeployments": 1,
  "solcInputHash": "074655bab3ff31f499c0f683e0548539",
  "bytecode": "0x60a060405234801561001057600080fd5b5060405161106738038061106783398101604081905261002f916100ac565b806100393361004b565b6001600160a01b0316608052506100dc565b600080546001600160a01b038381166001600160a01b031983168117909355604080519190921680825260208201939093527f53351836099c03ffc3b1727d8abd4b0222afa87d4ed76ae3102d51369ef7f785910160405180910390a15050565b6000602082840312156100be57600080fd5b81516001600160a01b03811681146100d557600080fd5b9392505050565b608051610f706100f760003960006109ab0152610f706000f3fe608060405234801561001057600080fd5b506004361061013e5760003560e01c806312d43a511461014357806321f8a7211461017357806322538dae1461019c578063340dbab3146101c55780633e49bed0146101e657806344a242b1146101f957806354f6127f1461022c5780635cf740951461024c5780636e8995501461026c5780636fae54f01461028c578063743df3251461029f578063749ebfb8146102bf5780637ae1cfca146102d2578063986e791a146102f55780639deed1c814610308578063abfdcced1461031b578063bd02d0f51461032e578063ca446dd91461034e578063cbb093dd14610361578063cfad57a214610374578063d38eebc714610389578063dc97d962146103a9578063e2a4853a146103c9578063e4e36c4e14610361578063e98aabc1146103dc578063f15caeac146103ef575b600080fd5b600054610156906001600160a01b031681565b6040516001600160a01b0390911681526020015b60405180910390f35b610156610181366004610af9565b6000908152600360205260409020546001600160a01b031690565b6101566101aa366004610af9565b6003602052600090815260409020546001600160a01b031681565b6101d86101d3366004610b12565b610402565b60405190815260200161016a565b6101d86101f4366004610b12565b610473565b61021c610207366004610af9565b60046020526000908152604090205460ff1681565b604051901515815260200161016a565b6101d861023a366004610af9565b60009081526006602052604090205490565b6101d861025a366004610af9565b60066020526000908152604090205481565b61027f61027a366004610b4a565b6104c5565b60405161016a9190610c4a565b6101d861029a366004610b12565b610521565b6101d86102ad366004610af9565b60026020526000908152604090205481565b6101d86102cd366004610b12565b610591565b61021c6102e0366004610af9565b60009081526004602052604090205460ff1690565b61027f610303366004610af9565b6105e3565b6101d8610316366004610b12565b610685565b61021c610329366004610c6b565b6106da565b6101d861033c366004610af9565b60009081526001602052604090205490565b61015661035c366004610cb7565b610735565b6101d861036f366004610b12565b61079d565b610387610382366004610ce3565b6107f3565b005b6101d8610397366004610af9565b60016020526000908152604090205481565b6101d86103b7366004610af9565b60009081526002602052604090205490565b6101d86103d7366004610b12565b61084d565b6101d86103ea366004610b12565b61089f565b61027f6103fd366004610af9565b6108f5565b600061043e600080516020610f1b8339815191526040518060400160405280600a81526020016921a7a72a2927a62622a960b11b81525061098f565b600083815260016020526040812054610458908490610d14565b60008581526001602052604090208190559150505b92915050565b60006104af600080516020610f1b8339815191526040518060400160405280600a81526020016921a7a72a2927a62622a960b11b81525061098f565b5060009182526002602052604090912081905590565b6060610501600080516020610f1b8339815191526040518060400160405280600a81526020016921a7a72a2927a62622a960b11b81525061098f565b60008381526005602052604090206105198382610db0565b509092915050565b600061055d600080516020610f1b8339815191526040518060400160405280600a81526020016921a7a72a2927a62622a960b11b81525061098f565b600083815260026020526040812054610577908490610e6f565b600085815260026020526040902081905591505092915050565b60006105cd600080516020610f1b8339815191526040518060400160405280600a81526020016921a7a72a2927a62622a960b11b81525061098f565b5060009182526006602052604090912081905590565b600081815260056020526040902080546060919061060090610d27565b80601f016020809104026020016040519081016040528092919081815260200182805461062c90610d27565b80156106795780601f1061064e57610100808354040283529160200191610679565b820191906000526020600020905b81548152906001019060200180831161065c57829003601f168201915b50505050509050919050565b60006106c1600080516020610f1b8339815191526040518060400160405280600a81526020016921a7a72a2927a62622a960b11b81525061098f565b6000838152600160205260408120546104589084610a43565b6000610716600080516020610f1b8339815191526040518060400160405280600a81526020016921a7a72a2927a62622a960b11b81525061098f565b50600091825260046020526040909120805460ff191682151517905590565b6000610771600080516020610f1b8339815191526040518060400160405280600a81526020016921a7a72a2927a62622a960b11b81525061098f565b5060009182526003602052604090912080546001600160a01b0319166001600160a01b03831617905590565b60006107d9600080516020610f1b8339815191526040518060400160405280600a81526020016921a7a72a2927a62622a960b11b81525061098f565b600083815260026020526040812054610577908490610e96565b6000546001600160a01b03163314610841576040805163a35b150b60e01b81523360048201526024810191909152600360448201526223a7ab60e91b60648201526084015b60405180910390fd5b61084a81610a81565b50565b6000610889600080516020610f1b8339815191526040518060400160405280600a81526020016921a7a72a2927a62622a960b11b81525061098f565b5060009182526001602052604090912081905590565b60006108db600080516020610f1b8339815191526040518060400160405280600a81526020016921a7a72a2927a62622a960b11b81525061098f565b600083815260016020526040812054610458908490610ebe565b6005602052600090815260409020805461090e90610d27565b80601f016020809104026020016040519081016040528092919081815260200182805461093a90610d27565b80156109875780601f1061095c57610100808354040283529160200191610987565b820191906000526020600020905b81548152906001019060200180831161096a57829003601f168201915b505050505081565b60405163ac4ab3fb60e01b8152336004820152602481018390527f00000000000000000000000000000000000000000000000000000000000000006001600160a01b03169063ac4ab3fb90604401602060405180830381865afa1580156109fa573d6000803e3d6000fd5b505050506040513d601f19601f82011682018060405250810190610a1e9190610ed1565b610a3f57338160405163a35b150b60e01b8152600401610838929190610eee565b5050565b600080821315610a6757610a5682610ae2565b610a609084610d14565b905061046d565b610a7082610ae2565b610a7a9084610ebe565b9392505050565b600080546001600160a01b038381166001600160a01b031983168117909355604080519190921680825260208201939093527f53351836099c03ffc3b1727d8abd4b0222afa87d4ed76ae3102d51369ef7f785910160405180910390a15050565b600080821215610af5578160000361046d565b5090565b600060208284031215610b0b57600080fd5b5035919050565b60008060408385031215610b2557600080fd5b50508035926020909101359150565b634e487b7160e01b600052604160045260246000fd5b60008060408385031215610b5d57600080fd5b8235915060208301356001600160401b0380821115610b7b57600080fd5b818501915085601f830112610b8f57600080fd5b813581811115610ba157610ba1610b34565b604051601f8201601f19908116603f01168101908382118183101715610bc957610bc9610b34565b81604052828152886020848701011115610be257600080fd5b8260208601602083013760006020848301015280955050505050509250929050565b6000815180845260005b81811015610c2a57602081850181015186830182015201610c0e565b506000602082860101526020601f19601f83011685010191505092915050565b602081526000610a7a6020830184610c04565b801515811461084a57600080fd5b60008060408385031215610c7e57600080fd5b823591506020830135610c9081610c5d565b809150509250929050565b80356001600160a01b0381168114610cb257600080fd5b919050565b60008060408385031215610cca57600080fd5b82359150610cda60208401610c9b565b90509250929050565b600060208284031215610cf557600080fd5b610a7a82610c9b565b634e487b7160e01b600052601160045260246000fd5b8082018082111561046d5761046d610cfe565b600181811c90821680610d3b57607f821691505b602082108103610d5b57634e487b7160e01b600052602260045260246000fd5b50919050565b601f821115610dab57600081815260208120601f850160051c81016020861015610d885750805b601f850160051c820191505b81811015610da757828155600101610d94565b5050505b505050565b81516001600160401b03811115610dc957610dc9610b34565b610ddd81610dd78454610d27565b84610d61565b602080601f831160018114610e125760008415610dfa5750858301515b600019600386901b1c1916600185901b178555610da7565b600085815260208120601f198616915b82811015610e4157888601518255948401946001909101908401610e22565b5085821015610e5f5787850151600019600388901b60f8161c191681555b5050505050600190811b01905550565b8181036000831280158383131683831282161715610e8f57610e8f610cfe565b5092915050565b8082018281126000831280158216821582161715610eb657610eb6610cfe565b505092915050565b8181038181111561046d5761046d610cfe565b600060208284031215610ee357600080fd5b8151610a7a81610c5d565b6001600160a01b0383168152604060208201819052600090610f1290830184610c04565b94935050505056fe70546d1c92f8c2132ae23a23f5177aa8526356051c7510df99f50e012d221529a2646970667358221220b6be20afc890ac14e526f824b10d1d8fc6eae829b02b12e36c70a058c96ab07b64736f6c63430008100033",
  "devdoc": {
    "kind": "dev",
    "methods": {},
    "version": 1
  },
  "userdoc": {
    "kind": "user",
    "methods": {},
    "version": 1
  },
  "storageLayout": {
    "storage": [
      {
        "astId": 10641,
        "contract": "contracts/data/DataStore.sol:DataStore",
        "label": "gov",
        "offset": 0,
        "slot": "0",
        "type": "t_address"
      },
      {
        "astId": 5284,
        "contract": "contracts/data/DataStore.sol:DataStore",
        "label": "uintValues",
        "offset": 0,
        "slot": "1",
        "type": "t_mapping(t_bytes32,t_uint256)"
      },
      {
        "astId": 5288,
        "contract": "contracts/data/DataStore.sol:DataStore",
        "label": "intValues",
        "offset": 0,
        "slot": "2",
        "type": "t_mapping(t_bytes32,t_int256)"
      },
      {
        "astId": 5292,
        "contract": "contracts/data/DataStore.sol:DataStore",
        "label": "addressValues",
        "offset": 0,
        "slot": "3",
        "type": "t_mapping(t_bytes32,t_address)"
      },
      {
        "astId": 5296,
        "contract": "contracts/data/DataStore.sol:DataStore",
        "label": "boolValues",
        "offset": 0,
        "slot": "4",
        "type": "t_mapping(t_bytes32,t_bool)"
      },
      {
        "astId": 5300,
        "contract": "contracts/data/DataStore.sol:DataStore",
        "label": "stringValues",
        "offset": 0,
        "slot": "5",
        "type": "t_mapping(t_bytes32,t_string_storage)"
      },
      {
        "astId": 5304,
        "contract": "contracts/data/DataStore.sol:DataStore",
        "label": "dataValues",
        "offset": 0,
        "slot": "6",
        "type": "t_mapping(t_bytes32,t_bytes32)"
      }
    ],
    "types": {
      "t_address": {
        "encoding": "inplace",
        "label": "address",
        "numberOfBytes": "20"
      },
      "t_bool": {
        "encoding": "inplace",
        "label": "bool",
        "numberOfBytes": "1"
      },
      "t_bytes32": {
        "encoding": "inplace",
        "label": "bytes32",
        "numberOfBytes": "32"
      },
      "t_int256": {
        "encoding": "inplace",
        "label": "int256",
        "numberOfBytes": "32"
      },
      "t_mapping(t_bytes32,t_address)": {
        "encoding": "mapping",
        "key": "t_bytes32",
        "label": "mapping(bytes32 => address)",
        "numberOfBytes": "32",
        "value": "t_address"
      },
      "t_mapping(t_bytes32,t_bool)": {
        "encoding": "mapping",
        "key": "t_bytes32",
        "label": "mapping(bytes32 => bool)",
        "numberOfBytes": "32",
        "value": "t_bool"
      },
      "t_mapping(t_bytes32,t_bytes32)": {
        "encoding": "mapping",
        "key": "t_bytes32",
        "label": "mapping(bytes32 => bytes32)",
        "numberOfBytes": "32",
        "value": "t_bytes32"
      },
      "t_mapping(t_bytes32,t_int256)": {
        "encoding": "mapping",
        "key": "t_bytes32",
        "label": "mapping(bytes32 => int256)",
        "numberOfBytes": "32",
        "value": "t_int256"
      },
      "t_mapping(t_bytes32,t_string_storage)": {
        "encoding": "mapping",
        "key": "t_bytes32",
        "label": "mapping(bytes32 => string)",
        "numberOfBytes": "32",
        "value": "t_string_storage"
      },
      "t_mapping(t_bytes32,t_uint256)": {
        "encoding": "mapping",
        "key": "t_bytes32",
        "label": "mapping(bytes32 => uint256)",
        "numberOfBytes": "32",
        "value": "t_uint256"
      },
      "t_string_storage": {
        "encoding": "bytes",
        "label": "string",
        "numberOfBytes": "32"
      },
      "t_uint256": {
        "encoding": "inplace",
        "label": "uint256",
        "numberOfBytes": "32"
      }
    }
  }
}