{
  "address": "0x59b670e9fA9D0A427751Af201D676719a970857b",
  "abi": [
    {
      "inputs": [
        {
          "internalType": "contract RoleStore",
          "name": "_roleStore",
          "type": "address"
        }
      ],
      "stateMutability": "nonpayable",
      "type": "constructor"
    },
    {
      "inputs": [
        {
          "internalType": "address",
          "name": "msgSender",
          "type": "address"
        },
        {
          "internalType": "string",
          "name": "role",
          "type": "string"
        }
      ],
      "name": "Unauthorized",
      "type": "error"
    },
    {
      "anonymous": false,
      "inputs": [
        {
          "indexed": false,
          "internalType": "address",
          "name": "prevGov",
          "type": "address"
        },
        {
          "indexed": false,
          "internalType": "address",
          "name": "nextGov",
          "type": "address"
        }
      ],
      "name": "SetGov",
      "type": "event"
    },
    {
      "inputs": [
        {
          "internalType": "bytes32",
          "name": "key",
          "type": "bytes32"
        }
      ],
      "name": "get",
      "outputs": [
        {
          "components": [
            {
              "internalType": "address",
              "name": "account",
              "type": "address"
            },
            {
              "internalType": "address",
              "name": "receiver",
              "type": "address"
            },
            {
              "internalType": "address",
              "name": "callbackContract",
              "type": "address"
            },
            {
              "internalType": "address",
              "name": "market",
              "type": "address"
            },
            {
              "internalType": "uint256",
              "name": "longTokenAmount",
              "type": "uint256"
            },
            {
              "internalType": "uint256",
              "name": "shortTokenAmount",
              "type": "uint256"
            },
            {
              "internalType": "uint256",
              "name": "minMarketTokens",
              "type": "uint256"
            },
            {
              "internalType": "uint256",
              "name": "updatedAtBlock",
              "type": "uint256"
            },
            {
              "internalType": "bool",
              "name": "shouldConvertETH",
              "type": "bool"
            },
            {
              "internalType": "uint256",
              "name": "executionFee",
              "type": "uint256"
            },
            {
              "internalType": "uint256",
              "name": "callbackGasLimit",
              "type": "uint256"
            },
            {
              "internalType": "bytes",
              "name": "data",
              "type": "bytes"
            }
          ],
          "internalType": "struct Deposit.Props",
          "name": "",
          "type": "tuple"
        }
      ],
      "stateMutability": "view",
      "type": "function"
    },
    {
      "inputs": [],
      "name": "getDepositCount",
      "outputs": [
        {
          "internalType": "uint256",
          "name": "",
          "type": "uint256"
        }
      ],
      "stateMutability": "view",
      "type": "function"
    },
    {
      "inputs": [
        {
          "internalType": "uint256",
          "name": "start",
          "type": "uint256"
        },
        {
          "internalType": "uint256",
          "name": "end",
          "type": "uint256"
        }
      ],
      "name": "getDepositKeys",
      "outputs": [
        {
          "internalType": "bytes32[]",
          "name": "",
          "type": "bytes32[]"
        }
      ],
      "stateMutability": "view",
      "type": "function"
    },
    {
      "inputs": [],
      "name": "gov",
      "outputs": [
        {
          "internalType": "address",
          "name": "",
          "type": "address"
        }
      ],
      "stateMutability": "view",
      "type": "function"
    },
    {
      "inputs": [
        {
          "internalType": "address",
          "name": "token",
          "type": "address"
        }
      ],
      "name": "recordTransferIn",
      "outputs": [
        {
          "internalType": "uint256",
          "name": "",
          "type": "uint256"
        }
      ],
      "stateMutability": "nonpayable",
      "type": "function"
    },
    {
      "inputs": [
        {
          "internalType": "address payable",
          "name": "receiver",
          "type": "address"
        },
        {
          "internalType": "uint256",
          "name": "amount",
          "type": "uint256"
        }
      ],
      "name": "recoverETH",
      "outputs": [],
      "stateMutability": "nonpayable",
      "type": "function"
    },
    {
      "inputs": [
        {
          "internalType": "bytes32",
          "name": "key",
          "type": "bytes32"
        }
      ],
      "name": "remove",
      "outputs": [],
      "stateMutability": "nonpayable",
      "type": "function"
    },
    {
      "inputs": [
        {
          "internalType": "bytes32",
          "name": "key",
          "type": "bytes32"
        },
        {
          "components": [
            {
              "internalType": "address",
              "name": "account",
              "type": "address"
            },
            {
              "internalType": "address",
              "name": "receiver",
              "type": "address"
            },
            {
              "internalType": "address",
              "name": "callbackContract",
              "type": "address"
            },
            {
              "internalType": "address",
              "name": "market",
              "type": "address"
            },
            {
              "internalType": "uint256",
              "name": "longTokenAmount",
              "type": "uint256"
            },
            {
              "internalType": "uint256",
              "name": "shortTokenAmount",
              "type": "uint256"
            },
            {
              "internalType": "uint256",
              "name": "minMarketTokens",
              "type": "uint256"
            },
            {
              "internalType": "uint256",
              "name": "updatedAtBlock",
              "type": "uint256"
            },
            {
              "internalType": "bool",
              "name": "shouldConvertETH",
              "type": "bool"
            },
            {
              "internalType": "uint256",
              "name": "executionFee",
              "type": "uint256"
            },
            {
              "internalType": "uint256",
              "name": "callbackGasLimit",
              "type": "uint256"
            },
            {
              "internalType": "bytes",
              "name": "data",
              "type": "bytes"
            }
          ],
          "internalType": "struct Deposit.Props",
          "name": "deposit",
          "type": "tuple"
        }
      ],
      "name": "set",
      "outputs": [],
      "stateMutability": "nonpayable",
      "type": "function"
    },
    {
      "inputs": [
        {
          "internalType": "address",
          "name": "_gov",
          "type": "address"
        }
      ],
      "name": "setGov",
      "outputs": [],
      "stateMutability": "nonpayable",
      "type": "function"
    },
    {
      "inputs": [
        {
          "internalType": "address",
          "name": "",
          "type": "address"
        }
      ],
      "name": "tokenBalances",
      "outputs": [
        {
          "internalType": "uint256",
          "name": "",
          "type": "uint256"
        }
      ],
      "stateMutability": "view",
      "type": "function"
    },
    {
      "inputs": [
        {
          "internalType": "address",
          "name": "token",
          "type": "address"
        },
        {
          "internalType": "uint256",
          "name": "amount",
          "type": "uint256"
        },
        {
          "internalType": "address",
          "name": "receiver",
          "type": "address"
        }
      ],
      "name": "transferOut",
      "outputs": [],
      "stateMutability": "nonpayable",
      "type": "function"
    },
    {
      "inputs": [
        {
          "internalType": "address",
          "name": "weth",
          "type": "address"
        },
        {
          "internalType": "address",
          "name": "token",
          "type": "address"
        },
        {
          "internalType": "uint256",
          "name": "amount",
          "type": "uint256"
        },
        {
          "internalType": "address",
          "name": "receiver",
          "type": "address"
        },
        {
          "internalType": "bool",
          "name": "shouldConvertETH",
          "type": "bool"
        }
      ],
      "name": "transferOut",
      "outputs": [],
      "stateMutability": "nonpayable",
      "type": "function"
    },
    {
      "stateMutability": "payable",
      "type": "receive"
    }
  ],
  "transactionHash": "0x6688f2e50def6f4c51e967ba69b9e4d9258fae8e5910c658c0a6eded8b1a9e84",
  "args": [
    "0x5FbDB2315678afecb367f032d93F642f64180aa3"
  ],
  "numDeployments": 1,
  "solcInputHash": "94248a78e23524a8af5dba653b641a0b",
  "bytecode": "0x60a060405234801561001057600080fd5b5060405161190038038061190083398101604081905261002f916100b3565b8080808061003c33610052565b6001600160a01b0316608052506100e392505050565b600080546001600160a01b038381166001600160a01b031983168117909355604080519190921680825260208201939093527f53351836099c03ffc3b1727d8abd4b0222afa87d4ed76ae3102d51369ef7f785910160405180910390a15050565b6000602082840312156100c557600080fd5b81516001600160a01b03811681146100dc57600080fd5b9392505050565b6080516118026100fe600039600061084b01526118026000f3fe60806040526004361061009b5760003560e01c806312d43a51146100a75780632d891fba146100dd578063352f9aed146100ff5780633e0c06291461012d578063523fba7f1461014d5780638eaa6ac01461017a5780639363a141146101a757806393a97118146101bc57806395bc2673146101e9578063cfad57a214610209578063f949893814610229578063fabd2ba31461024957600080fd5b366100a257005b600080fd5b3480156100b357600080fd5b506000546100c7906001600160a01b031681565b6040516100d49190611079565b60405180910390f35b3480156100e957600080fd5b506100fd6100f83660046110ad565b610269565b005b34801561010b57600080fd5b5061011f61011a3660046110ef565b6102b3565b6040519081526020016100d4565b34801561013957600080fd5b506100fd61014836600461110c565b610300565b34801561015957600080fd5b5061011f6101683660046110ef565b60016020526000908152604090205481565b34801561018657600080fd5b5061019a610195366004611138565b610370565b6040516100d491906111a1565b3480156101b357600080fd5b5061011f61053a565b3480156101c857600080fd5b506101dc6101d7366004611264565b61054b565b6040516100d49190611286565b3480156101f557600080fd5b506100fd610204366004611138565b610562565b34801561021557600080fd5b506100fd6102243660046110ef565b610631565b34801561023557600080fd5b506100fd6102443660046112e3565b61068b565b34801561025557600080fd5b506100fd610264366004611416565b61070a565b6102a36000805160206117ad8339815191526040518060400160405280600a81526020016921a7a72a2927a62622a960b11b815250610834565b6102ae8383836108e4565b505050565b60006102ef6000805160206117ad8339815191526040518060400160405280600a81526020016921a7a72a2927a62622a960b11b815250610834565b6102f882610929565b90505b919050565b61033a6000805160206117ad8339815191526040518060400160405280600a81526020016921a7a72a2927a62622a960b11b815250610834565b6040516001600160a01b0383169082156108fc029083906000818181858888f193505050501580156102ae573d6000803e3d6000fd5b6103fa60405180610180016040528060006001600160a01b0316815260200160006001600160a01b0316815260200160006001600160a01b0316815260200160006001600160a01b03168152602001600081526020016000815260200160008152602001600081526020016000151581526020016000815260200160008152602001606081525090565b60008281526002602081815260409283902083516101808101855281546001600160a01b039081168252600183015481169382019390935292810154821693830193909352600383015416606082015260048201546080820152600582015460a0820152600682015460c0820152600782015460e0820152600882015460ff1615156101008201526009820154610120820152600a820154610140820152600b82018054919291610160840191906104b190611525565b80601f01602080910402602001604051908101604052809291908181526020018280546104dd90611525565b801561052a5780601f106104ff5761010080835404028352916020019161052a565b820191906000526020600020905b81548152906001019060200180831161050d57829003601f168201915b5050505050815250509050919050565b600061054660036109da565b905090565b6060610559600384846109e4565b90505b92915050565b61059c6000805160206117ad8339815191526040518060400160405280600a81526020016921a7a72a2927a62622a960b11b815250610834565b6000818152600260208190526040822080546001600160a01b03199081168255600182018054821690559181018054831690556003810180549092169091556004810182905560058101829055600681018290556007810182905560088101805460ff1916905560098101829055600a81018290559061061f600b83018261101e565b5061062d9050600382610aa6565b5050565b6000546001600160a01b0316331461067f576040805163a35b150b60e01b81523360048201526024810191909152600360448201526223a7ab60e91b60648201526084015b60405180910390fd5b61068881610ab2565b50565b6106c56000805160206117ad8339815191526040518060400160405280600a81526020016921a7a72a2927a62622a960b11b815250610834565b846001600160a01b0316846001600160a01b03161480156106e35750805b156106f8576106f3848484610b13565b610703565b6107038484846108e4565b5050505050565b6107446000805160206117ad8339815191526040518060400160405280600a81526020016921a7a72a2927a62622a960b11b815250610834565b600082815260026020818152604092839020845181546001600160a01b03199081166001600160a01b0392831617835592860151600183018054851691831691909117905593850151928101805483169385169390931790925560608401516003830180549092169316929092179091556080820151600482015560a0820151600582015560c0820151600682015560e0820151600782015561010082015160088201805460ff19169115159190911790556101208201516009820155610140820151600a820155610160820151829190600b82019061082490826115ad565b506102ae91506003905083610bd5565b60405163ac4ab3fb60e01b81526001600160a01b037f0000000000000000000000000000000000000000000000000000000000000000169063ac4ab3fb90610882903390869060040161166c565b602060405180830381865afa15801561089f573d6000803e3d6000fd5b505050506040513d601f19601f820116820180604052508101906108c39190611685565b61062d57338160405163a35b150b60e01b81526004016106769291906116a2565b306001600160a01b0382160361090c5760405162461bcd60e51b8152600401610676906116c6565b6109206001600160a01b0384168284610be1565b6102ae83610c37565b6001600160a01b0381166000818152600160205260408082205490516370a0823160e01b8152919290918391906370a082319061096a903090600401611079565b602060405180830381865afa158015610987573d6000803e3d6000fd5b505050506040513d601f19601f820116820180604052508101906109ab91906116f6565b6001600160a01b038516600090815260016020526040902081905590506109d28282611725565b949350505050565b60006102f8825490565b606060006109f1856109da565b9050808311156109ff578092505b6000610a0b8585611725565b6001600160401b03811115610a2257610a2261134b565b604051908082528060200260200182016040528015610a4b578160200160208202803683370190505b509050845b84811015610a9a57610a628782610cc0565b82610a6d8884611725565b81518110610a7d57610a7d611738565b602090810291909101015280610a928161174e565b915050610a50565b509150505b9392505050565b60006105598383610ccc565b600080546001600160a01b038381166001600160a01b031983168117909355604080519190921680825260208201939093527f53351836099c03ffc3b1727d8abd4b0222afa87d4ed76ae3102d51369ef7f785910160405180910390a15050565b306001600160a01b03821603610b3b5760405162461bcd60e51b8152600401610676906116c6565b604051632e1a7d4d60e01b8152600481018390526001600160a01b03841690632e1a7d4d90602401600060405180830381600087803b158015610b7d57600080fd5b505af1158015610b91573d6000803e3d6000fd5b50506040516001600160a01b038416925084156108fc02915084906000818181858888f19350505050158015610bcb573d6000803e3d6000fd5b506102ae83610c37565b60006105598383610dbf565b6102ae8363a9059cbb60e01b8484604051602401610c0092919061166c565b60408051601f198184030181529190526020810180516001600160e01b03166001600160e01b031990931692909217909152610e0e565b6040516370a0823160e01b81526001600160a01b038216906370a0823190610c63903090600401611079565b602060405180830381865afa158015610c80573d6000803e3d6000fd5b505050506040513d601f19601f82011682018060405250810190610ca491906116f6565b6001600160a01b03909116600090815260016020526040902055565b60006105598383610ee0565b60008181526001830160205260408120548015610db5576000610cf0600183611725565b8554909150600090610d0490600190611725565b9050818114610d69576000866000018281548110610d2457610d24611738565b9060005260206000200154905080876000018481548110610d4757610d47611738565b6000918252602080832090910192909255918252600188019052604090208390555b8554869080610d7a57610d7a611767565b60019003818190600052602060002001600090559055856001016000868152602001908152602001600020600090556001935050505061055c565b600091505061055c565b6000818152600183016020526040812054610e065750815460018181018455600084815260208082209093018490558454848252828601909352604090209190915561055c565b50600061055c565b6000610e63826040518060400160405280602081526020017f5361666545524332303a206c6f772d6c6576656c2063616c6c206661696c6564815250856001600160a01b0316610f0a9092919063ffffffff16565b8051909150156102ae5780806020019051810190610e819190611685565b6102ae5760405162461bcd60e51b815260206004820152602a60248201527f5361666545524332303a204552433230206f7065726174696f6e20646964206e6044820152691bdd081cdd58d8d9595960b21b6064820152608401610676565b6000826000018281548110610ef757610ef7611738565b9060005260206000200154905092915050565b60606109d28484600085856001600160a01b0385163b610f6c5760405162461bcd60e51b815260206004820152601d60248201527f416464726573733a2063616c6c20746f206e6f6e2d636f6e74726163740000006044820152606401610676565b600080866001600160a01b03168587604051610f88919061177d565b60006040518083038185875af1925050503d8060008114610fc5576040519150601f19603f3d011682016040523d82523d6000602084013e610fca565b606091505b5091509150610fda828286610fe5565b979650505050505050565b60608315610ff4575081610a9f565b8251156110045782518084602001fd5b8160405162461bcd60e51b81526004016106769190611799565b50805461102a90611525565b6000825580601f1061103a575050565b601f01602090049060005260206000209081019061068891905b808211156110685760008155600101611054565b5090565b6001600160a01b03169052565b6001600160a01b0391909116815260200190565b6001600160a01b038116811461068857600080fd5b80356102fb8161108d565b6000806000606084860312156110c257600080fd5b83356110cd8161108d565b92506020840135915060408401356110e48161108d565b809150509250925092565b60006020828403121561110157600080fd5b8135610a9f8161108d565b6000806040838503121561111f57600080fd5b823561112a8161108d565b946020939093013593505050565b60006020828403121561114a57600080fd5b5035919050565b60005b8381101561116c578181015183820152602001611154565b50506000910152565b6000815180845261118d816020860160208601611151565b601f01601f19169290920160200192915050565b602081526111b360208201835161106c565b600060208301516111c7604084018261106c565b5060408301516111da606084018261106c565b5060608301516111ed608084018261106c565b50608083015160a083015260a083015160c083015260c083015160e083015260e08301516101008181850152808501519150506101206112308185018315159052565b84015161014084810191909152840151610160808501919091528401516101808085015290506109d26101a0840182611175565b6000806040838503121561127757600080fd5b50508035926020909101359150565b6020808252825182820181905260009190848201906040850190845b818110156112be578351835292840192918401916001016112a2565b50909695505050505050565b801515811461068857600080fd5b80356102fb816112ca565b600080600080600060a086880312156112fb57600080fd5b85356113068161108d565b945060208601356113168161108d565b935060408601359250606086013561132d8161108d565b9150608086013561133d816112ca565b809150509295509295909350565b634e487b7160e01b600052604160045260246000fd5b60405161018081016001600160401b03811182821017156113845761138461134b565b60405290565b600082601f83011261139b57600080fd5b81356001600160401b03808211156113b5576113b561134b565b604051601f8301601f19908116603f011681019082821181831017156113dd576113dd61134b565b816040528381528660208588010111156113f657600080fd5b836020870160208301376000602085830101528094505050505092915050565b6000806040838503121561142957600080fd5b8235915060208301356001600160401b038082111561144757600080fd5b90840190610180828703121561145c57600080fd5b611464611361565b61146d836110a2565b815261147b602084016110a2565b602082015261148c604084016110a2565b604082015261149d606084016110a2565b60608201526080830135608082015260a083013560a082015260c083013560c082015260e083013560e08201526101006114d88185016112d8565b9082015261012083810135908201526101408084013590820152610160808401358381111561150657600080fd5b6115128982870161138a565b8284015250508093505050509250929050565b600181811c9082168061153957607f821691505b60208210810361155957634e487b7160e01b600052602260045260246000fd5b50919050565b601f8211156102ae57600081815260208120601f850160051c810160208610156115865750805b601f850160051c820191505b818110156115a557828155600101611592565b505050505050565b81516001600160401b038111156115c6576115c661134b565b6115da816115d48454611525565b8461155f565b602080601f83116001811461160f57600084156115f75750858301515b600019600386901b1c1916600185901b1785556115a5565b600085815260208120601f198616915b8281101561163e5788860151825594840194600190910190840161161f565b508582101561165c5787850151600019600388901b60f8161c191681555b5050505050600190811b01905550565b6001600160a01b03929092168252602082015260400190565b60006020828403121561169757600080fd5b8151610a9f816112ca565b6001600160a01b03831681526040602082018190526000906109d290830184611175565b6020808252601690820152752130b7359d1034b73b30b634b2103932b1b2b4bb32b960511b604082015260600190565b60006020828403121561170857600080fd5b5051919050565b634e487b7160e01b600052601160045260246000fd5b8181038181111561055c5761055c61170f565b634e487b7160e01b600052603260045260246000fd5b6000600182016117605761176061170f565b5060010190565b634e487b7160e01b600052603160045260246000fd5b6000825161178f818460208701611151565b9190910192915050565b602081526000610559602083018461117556fe70546d1c92f8c2132ae23a23f5177aa8526356051c7510df99f50e012d221529a26469706673582212207dc73faa320f8bca15108b9ea26884f123418df50edf76279030fe6651360ae364736f6c63430008100033",
  "devdoc": {
    "kind": "dev",
    "methods": {},
    "version": 1
  },
  "userdoc": {
    "kind": "user",
    "methods": {},
    "version": 1
  },
  "storageLayout": {
    "storage": [
      {
        "astId": 10508,
        "contract": "contracts/deposit/DepositStore.sol:DepositStore",
        "label": "gov",
        "offset": 0,
        "slot": "0",
        "type": "t_address"
      },
      {
        "astId": 4792,
        "contract": "contracts/deposit/DepositStore.sol:DepositStore",
        "label": "tokenBalances",
        "offset": 0,
        "slot": "1",
        "type": "t_mapping(t_address,t_uint256)"
      },
      {
        "astId": 6470,
        "contract": "contracts/deposit/DepositStore.sol:DepositStore",
        "label": "deposits",
        "offset": 0,
        "slot": "2",
        "type": "t_mapping(t_bytes32,t_struct(Props)6450_storage)"
      },
      {
        "astId": 6473,
        "contract": "contracts/deposit/DepositStore.sol:DepositStore",
        "label": "depositKeys",
        "offset": 0,
        "slot": "3",
        "type": "t_struct(Bytes32Set)4192_storage"
      }
    ],
    "types": {
      "t_address": {
        "encoding": "inplace",
        "label": "address",
        "numberOfBytes": "20"
      },
      "t_array(t_bytes32)dyn_storage": {
        "base": "t_bytes32",
        "encoding": "dynamic_array",
        "label": "bytes32[]",
        "numberOfBytes": "32"
      },
      "t_bool": {
        "encoding": "inplace",
        "label": "bool",
        "numberOfBytes": "1"
      },
      "t_bytes32": {
        "encoding": "inplace",
        "label": "bytes32",
        "numberOfBytes": "32"
      },
      "t_bytes_storage": {
        "encoding": "bytes",
        "label": "bytes",
        "numberOfBytes": "32"
      },
      "t_mapping(t_address,t_uint256)": {
        "encoding": "mapping",
        "key": "t_address",
        "label": "mapping(address => uint256)",
        "numberOfBytes": "32",
        "value": "t_uint256"
      },
      "t_mapping(t_bytes32,t_struct(Props)6450_storage)": {
        "encoding": "mapping",
        "key": "t_bytes32",
        "label": "mapping(bytes32 => struct Deposit.Props)",
        "numberOfBytes": "32",
        "value": "t_struct(Props)6450_storage"
      },
      "t_mapping(t_bytes32,t_uint256)": {
        "encoding": "mapping",
        "key": "t_bytes32",
        "label": "mapping(bytes32 => uint256)",
        "numberOfBytes": "32",
        "value": "t_uint256"
      },
      "t_struct(Bytes32Set)4192_storage": {
        "encoding": "inplace",
        "label": "struct EnumerableSet.Bytes32Set",
        "members": [
          {
            "astId": 4191,
            "contract": "contracts/deposit/DepositStore.sol:DepositStore",
            "label": "_inner",
            "offset": 0,
            "slot": "0",
            "type": "t_struct(Set)3998_storage"
          }
        ],
        "numberOfBytes": "64"
      },
      "t_struct(Props)6450_storage": {
        "encoding": "inplace",
        "label": "struct Deposit.Props",
        "members": [
          {
            "astId": 6427,
            "contract": "contracts/deposit/DepositStore.sol:DepositStore",
            "label": "account",
            "offset": 0,
            "slot": "0",
            "type": "t_address"
          },
          {
            "astId": 6429,
            "contract": "contracts/deposit/DepositStore.sol:DepositStore",
            "label": "receiver",
            "offset": 0,
            "slot": "1",
            "type": "t_address"
          },
          {
            "astId": 6431,
            "contract": "contracts/deposit/DepositStore.sol:DepositStore",
            "label": "callbackContract",
            "offset": 0,
            "slot": "2",
            "type": "t_address"
          },
          {
            "astId": 6433,
            "contract": "contracts/deposit/DepositStore.sol:DepositStore",
            "label": "market",
            "offset": 0,
            "slot": "3",
            "type": "t_address"
          },
          {
            "astId": 6435,
            "contract": "contracts/deposit/DepositStore.sol:DepositStore",
            "label": "longTokenAmount",
            "offset": 0,
            "slot": "4",
            "type": "t_uint256"
          },
          {
            "astId": 6437,
            "contract": "contracts/deposit/DepositStore.sol:DepositStore",
            "label": "shortTokenAmount",
            "offset": 0,
            "slot": "5",
            "type": "t_uint256"
          },
          {
            "astId": 6439,
            "contract": "contracts/deposit/DepositStore.sol:DepositStore",
            "label": "minMarketTokens",
            "offset": 0,
            "slot": "6",
            "type": "t_uint256"
          },
          {
            "astId": 6441,
            "contract": "contracts/deposit/DepositStore.sol:DepositStore",
            "label": "updatedAtBlock",
            "offset": 0,
            "slot": "7",
            "type": "t_uint256"
          },
          {
            "astId": 6443,
            "contract": "contracts/deposit/DepositStore.sol:DepositStore",
            "label": "shouldConvertETH",
            "offset": 0,
            "slot": "8",
            "type": "t_bool"
          },
          {
            "astId": 6445,
            "contract": "contracts/deposit/DepositStore.sol:DepositStore",
            "label": "executionFee",
            "offset": 0,
            "slot": "9",
            "type": "t_uint256"
          },
          {
            "astId": 6447,
            "contract": "contracts/deposit/DepositStore.sol:DepositStore",
            "label": "callbackGasLimit",
            "offset": 0,
            "slot": "10",
            "type": "t_uint256"
          },
          {
            "astId": 6449,
            "contract": "contracts/deposit/DepositStore.sol:DepositStore",
            "label": "data",
            "offset": 0,
            "slot": "11",
            "type": "t_bytes_storage"
          }
        ],
        "numberOfBytes": "384"
      },
      "t_struct(Set)3998_storage": {
        "encoding": "inplace",
        "label": "struct EnumerableSet.Set",
        "members": [
          {
            "astId": 3993,
            "contract": "contracts/deposit/DepositStore.sol:DepositStore",
            "label": "_values",
            "offset": 0,
            "slot": "0",
            "type": "t_array(t_bytes32)dyn_storage"
          },
          {
            "astId": 3997,
            "contract": "contracts/deposit/DepositStore.sol:DepositStore",
            "label": "_indexes",
            "offset": 0,
            "slot": "1",
            "type": "t_mapping(t_bytes32,t_uint256)"
          }
        ],
        "numberOfBytes": "64"
      },
      "t_uint256": {
        "encoding": "inplace",
        "label": "uint256",
        "numberOfBytes": "32"
      }
    }
  }
}