{
  "address": "0xc6e7DF5E7b4f2A278906862b61205850344D4e7d",
  "abi": [
    {
      "inputs": [
        {
          "internalType": "contract RoleStore",
          "name": "_roleStore",
          "type": "address"
        }
      ],
      "stateMutability": "nonpayable",
      "type": "constructor"
    },
    {
      "inputs": [
        {
          "internalType": "address",
          "name": "msgSender",
          "type": "address"
        },
        {
          "internalType": "string",
          "name": "role",
          "type": "string"
        }
      ],
      "name": "Unauthorized",
      "type": "error"
    },
    {
      "anonymous": false,
      "inputs": [
        {
          "indexed": false,
          "internalType": "address",
          "name": "market",
          "type": "address"
        },
        {
          "indexed": false,
          "internalType": "address",
          "name": "collateralToken",
          "type": "address"
        },
        {
          "indexed": false,
          "internalType": "bool",
          "name": "isLong",
          "type": "bool"
        },
        {
          "indexed": false,
          "internalType": "int256",
          "name": "collateralDeltaAmount",
          "type": "int256"
        }
      ],
      "name": "CollateralSumDelta",
      "type": "event"
    },
    {
      "anonymous": false,
      "inputs": [
        {
          "indexed": false,
          "internalType": "bytes32",
          "name": "key",
          "type": "bytes32"
        }
      ],
      "name": "DepositCancelled",
      "type": "event"
    },
    {
      "anonymous": false,
      "inputs": [
        {
          "indexed": false,
          "internalType": "bytes32",
          "name": "key",
          "type": "bytes32"
        },
        {
          "components": [
            {
              "internalType": "address",
              "name": "account",
              "type": "address"
            },
            {
              "internalType": "address",
              "name": "receiver",
              "type": "address"
            },
            {
              "internalType": "address",
              "name": "callbackContract",
              "type": "address"
            },
            {
              "internalType": "address",
              "name": "market",
              "type": "address"
            },
            {
              "internalType": "uint256",
              "name": "longTokenAmount",
              "type": "uint256"
            },
            {
              "internalType": "uint256",
              "name": "shortTokenAmount",
              "type": "uint256"
            },
            {
              "internalType": "uint256",
              "name": "minMarketTokens",
              "type": "uint256"
            },
            {
              "internalType": "uint256",
              "name": "updatedAtBlock",
              "type": "uint256"
            },
            {
              "internalType": "bool",
              "name": "shouldConvertETH",
              "type": "bool"
            },
            {
              "internalType": "uint256",
              "name": "executionFee",
              "type": "uint256"
            },
            {
              "internalType": "uint256",
              "name": "callbackGasLimit",
              "type": "uint256"
            },
            {
              "internalType": "bytes",
              "name": "data",
              "type": "bytes"
            }
          ],
          "indexed": false,
          "internalType": "struct Deposit.Props",
          "name": "deposit",
          "type": "tuple"
        }
      ],
      "name": "DepositCreated",
      "type": "event"
    },
    {
      "anonymous": false,
      "inputs": [
        {
          "indexed": false,
          "internalType": "bytes32",
          "name": "key",
          "type": "bytes32"
        }
      ],
      "name": "DepositExecuted",
      "type": "event"
    },
    {
      "anonymous": false,
      "inputs": [
        {
          "indexed": false,
          "internalType": "address",
          "name": "market",
          "type": "address"
        },
        {
          "indexed": false,
          "internalType": "bool",
          "name": "isLong",
          "type": "bool"
        },
        {
          "indexed": false,
          "internalType": "int256",
          "name": "delta",
          "type": "int256"
        },
        {
          "indexed": false,
          "internalType": "uint256",
          "name": "nextValue",
          "type": "uint256"
        }
      ],
      "name": "OpenInterestUpdated",
      "type": "event"
    },
    {
      "anonymous": false,
      "inputs": [
        {
          "indexed": false,
          "internalType": "address",
          "name": "token",
          "type": "address"
        },
        {
          "indexed": false,
          "internalType": "uint256",
          "name": "minPrice",
          "type": "uint256"
        },
        {
          "indexed": false,
          "internalType": "uint256",
          "name": "maxPrice",
          "type": "uint256"
        },
        {
          "indexed": false,
          "internalType": "bool",
          "name": "isPrimary",
          "type": "bool"
        },
        {
          "indexed": false,
          "internalType": "bool",
          "name": "isPriceFeed",
          "type": "bool"
        }
      ],
      "name": "OraclePriceUpdated",
      "type": "event"
    },
    {
      "anonymous": false,
      "inputs": [
        {
          "indexed": false,
          "internalType": "bytes32",
          "name": "key",
          "type": "bytes32"
        },
        {
          "indexed": false,
          "internalType": "bytes32",
          "name": "reason",
          "type": "bytes32"
        }
      ],
      "name": "OrderCancelled",
      "type": "event"
    },
    {
      "anonymous": false,
      "inputs": [
        {
          "indexed": false,
          "internalType": "bytes32",
          "name": "key",
          "type": "bytes32"
        },
        {
          "components": [
            {
              "components": [
                {
                  "internalType": "address",
                  "name": "account",
                  "type": "address"
                },
                {
                  "internalType": "address",
                  "name": "receiver",
                  "type": "address"
                },
                {
                  "internalType": "address",
                  "name": "callbackContract",
                  "type": "address"
                },
                {
                  "internalType": "address",
                  "name": "market",
                  "type": "address"
                },
                {
                  "internalType": "address",
                  "name": "initialCollateralToken",
                  "type": "address"
                },
                {
                  "internalType": "address[]",
                  "name": "swapPath",
                  "type": "address[]"
                }
              ],
              "internalType": "struct Order.Addresses",
              "name": "addresses",
              "type": "tuple"
            },
            {
              "components": [
                {
                  "internalType": "uint256",
                  "name": "sizeDeltaUsd",
                  "type": "uint256"
                },
                {
                  "internalType": "uint256",
                  "name": "initialCollateralDeltaAmount",
                  "type": "uint256"
                },
                {
                  "internalType": "uint256",
                  "name": "acceptablePrice",
                  "type": "uint256"
                },
                {
                  "internalType": "int256",
                  "name": "acceptablePriceImpactUsd",
                  "type": "int256"
                },
                {
                  "internalType": "uint256",
                  "name": "executionFee",
                  "type": "uint256"
                },
                {
                  "internalType": "uint256",
                  "name": "callbackGasLimit",
                  "type": "uint256"
                },
                {
                  "internalType": "uint256",
                  "name": "minOutputAmount",
                  "type": "uint256"
                },
                {
                  "internalType": "uint256",
                  "name": "updatedAtBlock",
                  "type": "uint256"
                }
              ],
              "internalType": "struct Order.Numbers",
              "name": "numbers",
              "type": "tuple"
            },
            {
              "components": [
                {
                  "internalType": "enum Order.OrderType",
                  "name": "orderType",
                  "type": "uint8"
                },
                {
                  "internalType": "bool",
                  "name": "isLong",
                  "type": "bool"
                },
                {
                  "internalType": "bool",
                  "name": "shouldConvertETH",
                  "type": "bool"
                },
                {
                  "internalType": "bool",
                  "name": "isFrozen",
                  "type": "bool"
                }
              ],
              "internalType": "struct Order.Flags",
              "name": "flags",
              "type": "tuple"
            },
            {
              "internalType": "bytes",
              "name": "data",
              "type": "bytes"
            }
          ],
          "indexed": false,
          "internalType": "struct Order.Props",
          "name": "order",
          "type": "tuple"
        }
      ],
      "name": "OrderCreated",
      "type": "event"
    },
    {
      "anonymous": false,
      "inputs": [
        {
          "indexed": false,
          "internalType": "bytes32",
          "name": "key",
          "type": "bytes32"
        }
      ],
      "name": "OrderExecuted",
      "type": "event"
    },
    {
      "anonymous": false,
      "inputs": [
        {
          "indexed": false,
          "internalType": "bytes32",
          "name": "key",
          "type": "bytes32"
        },
        {
          "indexed": false,
          "internalType": "bytes32",
          "name": "reason",
          "type": "bytes32"
        }
      ],
      "name": "OrderFrozen",
      "type": "event"
    },
    {
      "anonymous": false,
      "inputs": [
        {
          "indexed": false,
          "internalType": "bytes32",
          "name": "key",
          "type": "bytes32"
        },
        {
          "indexed": false,
          "internalType": "uint256",
          "name": "sizeDeltaUsd",
          "type": "uint256"
        },
        {
          "indexed": false,
          "internalType": "uint256",
          "name": "acceptablePrice",
          "type": "uint256"
        },
        {
          "indexed": false,
          "internalType": "int256",
          "name": "acceptableUsdAdjustment",
          "type": "int256"
        }
      ],
      "name": "OrderUpdated",
      "type": "event"
    },
    {
      "anonymous": false,
      "inputs": [
        {
          "indexed": false,
          "internalType": "address",
          "name": "market",
          "type": "address"
        },
        {
          "indexed": false,
          "internalType": "address",
          "name": "token",
          "type": "address"
        },
        {
          "indexed": false,
          "internalType": "int256",
          "name": "delta",
          "type": "int256"
        },
        {
          "indexed": false,
          "internalType": "uint256",
          "name": "nextValue",
          "type": "uint256"
        }
      ],
      "name": "PoolAmountUpdated",
      "type": "event"
    },
    {
      "anonymous": false,
      "inputs": [
        {
          "indexed": false,
          "internalType": "bytes32",
          "name": "key",
          "type": "bytes32"
        },
        {
          "indexed": true,
          "internalType": "address",
          "name": "account",
          "type": "address"
        },
        {
          "indexed": true,
          "internalType": "address",
          "name": "market",
          "type": "address"
        },
        {
          "indexed": false,
          "internalType": "address",
          "name": "collateralToken",
          "type": "address"
        },
        {
          "indexed": false,
          "internalType": "bool",
          "name": "isLong",
          "type": "bool"
        },
        {
          "indexed": false,
          "internalType": "uint256",
          "name": "executionPrice",
          "type": "uint256"
        },
        {
          "indexed": false,
          "internalType": "uint256",
          "name": "sizeDeltaInUsd",
          "type": "uint256"
        },
        {
          "indexed": false,
          "internalType": "int256",
          "name": "collateralDeltaAmount",
          "type": "int256"
        },
        {
          "indexed": false,
          "internalType": "int256",
          "name": "remainingCollateralAmount",
          "type": "int256"
        },
        {
          "indexed": false,
          "internalType": "int256",
          "name": "outputAmount",
          "type": "int256"
        },
        {
          "indexed": false,
          "internalType": "int256",
          "name": "realizedPnlAmount",
          "type": "int256"
        }
      ],
      "name": "PositionDecrease",
      "type": "event"
    },
    {
      "anonymous": false,
      "inputs": [
        {
          "indexed": false,
          "internalType": "bool",
          "name": "isIncrease",
          "type": "bool"
        },
        {
          "components": [
            {
              "internalType": "uint256",
              "name": "feeReceiverAmount",
              "type": "uint256"
            },
            {
              "internalType": "uint256",
              "name": "feesForPool",
              "type": "uint256"
            },
            {
              "internalType": "uint256",
              "name": "amountForPool",
              "type": "uint256"
            },
            {
              "internalType": "uint256",
              "name": "positionFeeAmount",
              "type": "uint256"
            },
            {
              "internalType": "int256",
              "name": "fundingFeeAmount",
              "type": "int256"
            },
            {
              "internalType": "uint256",
              "name": "borrowingFeeAmount",
              "type": "uint256"
            },
            {
              "internalType": "int256",
              "name": "totalNetCostAmount",
              "type": "int256"
            }
          ],
          "indexed": false,
          "internalType": "struct PositionPricingUtils.PositionFees",
          "name": "fees",
          "type": "tuple"
        }
      ],
      "name": "PositionFeesCollected",
      "type": "event"
    },
    {
      "anonymous": false,
      "inputs": [
        {
          "indexed": false,
          "internalType": "bytes32",
          "name": "key",
          "type": "bytes32"
        },
        {
          "indexed": true,
          "internalType": "address",
          "name": "account",
          "type": "address"
        },
        {
          "indexed": true,
          "internalType": "address",
          "name": "market",
          "type": "address"
        },
        {
          "indexed": false,
          "internalType": "address",
          "name": "collateralToken",
          "type": "address"
        },
        {
          "indexed": false,
          "internalType": "bool",
          "name": "isLong",
          "type": "bool"
        },
        {
          "indexed": false,
          "internalType": "uint256",
          "name": "executionPrice",
          "type": "uint256"
        },
        {
          "indexed": false,
          "internalType": "uint256",
          "name": "sizeDeltaInUsd",
          "type": "uint256"
        },
        {
          "indexed": false,
          "internalType": "int256",
          "name": "collateralDeltaAmount",
          "type": "int256"
        }
      ],
      "name": "PositionIncrease",
      "type": "event"
    },
    {
      "anonymous": false,
      "inputs": [
        {
          "indexed": false,
          "internalType": "address",
          "name": "prevGov",
          "type": "address"
        },
        {
          "indexed": false,
          "internalType": "address",
          "name": "nextGov",
          "type": "address"
        }
      ],
      "name": "SetGov",
      "type": "event"
    },
    {
      "anonymous": false,
      "inputs": [
        {
          "indexed": false,
          "internalType": "bytes32",
          "name": "action",
          "type": "bytes32"
        },
        {
          "components": [
            {
              "internalType": "uint256",
              "name": "feeReceiverAmount",
              "type": "uint256"
            },
            {
              "internalType": "uint256",
              "name": "feesForPool",
              "type": "uint256"
            },
            {
              "internalType": "uint256",
              "name": "amountAfterFees",
              "type": "uint256"
            },
            {
              "internalType": "uint256",
              "name": "amountForPool",
              "type": "uint256"
            }
          ],
          "indexed": false,
          "internalType": "struct SwapPricingUtils.SwapFees",
          "name": "fees",
          "type": "tuple"
        }
      ],
      "name": "SwapFeesCollected",
      "type": "event"
    },
    {
      "anonymous": false,
      "inputs": [
        {
          "indexed": false,
          "internalType": "address",
          "name": "market",
          "type": "address"
        },
        {
          "indexed": false,
          "internalType": "address",
          "name": "token",
          "type": "address"
        },
        {
          "indexed": false,
          "internalType": "int256",
          "name": "delta",
          "type": "int256"
        },
        {
          "indexed": false,
          "internalType": "uint256",
          "name": "nextValue",
          "type": "uint256"
        }
      ],
      "name": "SwapImpactPoolAmountUpdated",
      "type": "event"
    },
    {
      "anonymous": false,
      "inputs": [
        {
          "indexed": false,
          "internalType": "bytes32",
          "name": "key",
          "type": "bytes32"
        }
      ],
      "name": "WithdrawalCancelled",
      "type": "event"
    },
    {
      "anonymous": false,
      "inputs": [
        {
          "indexed": false,
          "internalType": "bytes32",
          "name": "key",
          "type": "bytes32"
        },
        {
          "components": [
            {
              "internalType": "address",
              "name": "account",
              "type": "address"
            },
            {
              "internalType": "address",
              "name": "receiver",
              "type": "address"
            },
            {
              "internalType": "address",
              "name": "callbackContract",
              "type": "address"
            },
            {
              "internalType": "address",
              "name": "market",
              "type": "address"
            },
            {
              "internalType": "uint256",
              "name": "marketTokensLongAmount",
              "type": "uint256"
            },
            {
              "internalType": "uint256",
              "name": "marketTokensShortAmount",
              "type": "uint256"
            },
            {
              "internalType": "uint256",
              "name": "minLongTokenAmount",
              "type": "uint256"
            },
            {
              "internalType": "uint256",
              "name": "minShortTokenAmount",
              "type": "uint256"
            },
            {
              "internalType": "uint256",
              "name": "updatedAtBlock",
              "type": "uint256"
            },
            {
              "internalType": "bool",
              "name": "shouldConvertETH",
              "type": "bool"
            },
            {
              "internalType": "uint256",
              "name": "executionFee",
              "type": "uint256"
            },
            {
              "internalType": "uint256",
              "name": "callbackGasLimit",
              "type": "uint256"
            },
            {
              "internalType": "bytes",
              "name": "data",
              "type": "bytes"
            }
          ],
          "indexed": false,
          "internalType": "struct Withdrawal.Props",
          "name": "withdrawal",
          "type": "tuple"
        }
      ],
      "name": "WithdrawalCreated",
      "type": "event"
    },
    {
      "anonymous": false,
      "inputs": [
        {
          "indexed": false,
          "internalType": "bytes32",
          "name": "key",
          "type": "bytes32"
        }
      ],
      "name": "WithdrawalExecuted",
      "type": "event"
    },
    {
      "inputs": [
        {
          "internalType": "address",
          "name": "market",
          "type": "address"
        },
        {
          "internalType": "address",
          "name": "collateralToken",
          "type": "address"
        },
        {
          "internalType": "bool",
          "name": "isLong",
          "type": "bool"
        },
        {
          "internalType": "int256",
          "name": "collateralDeltaAmount",
          "type": "int256"
        }
      ],
      "name": "emitCollateralSumDelta",
      "outputs": [],
      "stateMutability": "nonpayable",
      "type": "function"
    },
    {
      "inputs": [
        {
          "internalType": "bytes32",
          "name": "key",
          "type": "bytes32"
        }
      ],
      "name": "emitDepositCancelled",
      "outputs": [],
      "stateMutability": "nonpayable",
      "type": "function"
    },
    {
      "inputs": [
        {
          "internalType": "bytes32",
          "name": "key",
          "type": "bytes32"
        },
        {
          "components": [
            {
              "internalType": "address",
              "name": "account",
              "type": "address"
            },
            {
              "internalType": "address",
              "name": "receiver",
              "type": "address"
            },
            {
              "internalType": "address",
              "name": "callbackContract",
              "type": "address"
            },
            {
              "internalType": "address",
              "name": "market",
              "type": "address"
            },
            {
              "internalType": "uint256",
              "name": "longTokenAmount",
              "type": "uint256"
            },
            {
              "internalType": "uint256",
              "name": "shortTokenAmount",
              "type": "uint256"
            },
            {
              "internalType": "uint256",
              "name": "minMarketTokens",
              "type": "uint256"
            },
            {
              "internalType": "uint256",
              "name": "updatedAtBlock",
              "type": "uint256"
            },
            {
              "internalType": "bool",
              "name": "shouldConvertETH",
              "type": "bool"
            },
            {
              "internalType": "uint256",
              "name": "executionFee",
              "type": "uint256"
            },
            {
              "internalType": "uint256",
              "name": "callbackGasLimit",
              "type": "uint256"
            },
            {
              "internalType": "bytes",
              "name": "data",
              "type": "bytes"
            }
          ],
          "internalType": "struct Deposit.Props",
          "name": "deposit",
          "type": "tuple"
        }
      ],
      "name": "emitDepositCreated",
      "outputs": [],
      "stateMutability": "nonpayable",
      "type": "function"
    },
    {
      "inputs": [
        {
          "internalType": "bytes32",
          "name": "key",
          "type": "bytes32"
        }
      ],
      "name": "emitDepositExecuted",
      "outputs": [],
      "stateMutability": "nonpayable",
      "type": "function"
    },
    {
      "inputs": [
        {
          "internalType": "address",
          "name": "market",
          "type": "address"
        },
        {
          "internalType": "bool",
          "name": "isLong",
          "type": "bool"
        },
        {
          "internalType": "int256",
          "name": "delta",
          "type": "int256"
        },
        {
          "internalType": "uint256",
          "name": "nextValue",
          "type": "uint256"
        }
      ],
      "name": "emitOpenInterestUpdated",
      "outputs": [],
      "stateMutability": "nonpayable",
      "type": "function"
    },
    {
      "inputs": [
        {
          "internalType": "address",
          "name": "token",
          "type": "address"
        },
        {
          "internalType": "uint256",
          "name": "minPrice",
          "type": "uint256"
        },
        {
          "internalType": "uint256",
          "name": "maxPrice",
          "type": "uint256"
        },
        {
          "internalType": "bool",
          "name": "isPrimary",
          "type": "bool"
        },
        {
          "internalType": "bool",
          "name": "isPriceFeed",
          "type": "bool"
        }
      ],
      "name": "emitOraclePriceUpdated",
      "outputs": [],
      "stateMutability": "nonpayable",
      "type": "function"
    },
    {
      "inputs": [
        {
          "internalType": "bytes32",
          "name": "key",
          "type": "bytes32"
        },
        {
          "internalType": "bytes32",
          "name": "reason",
          "type": "bytes32"
        }
      ],
      "name": "emitOrderCancelled",
      "outputs": [],
      "stateMutability": "nonpayable",
      "type": "function"
    },
    {
      "inputs": [
        {
          "internalType": "bytes32",
          "name": "key",
          "type": "bytes32"
        },
        {
          "components": [
            {
              "components": [
                {
                  "internalType": "address",
                  "name": "account",
                  "type": "address"
                },
                {
                  "internalType": "address",
                  "name": "receiver",
                  "type": "address"
                },
                {
                  "internalType": "address",
                  "name": "callbackContract",
                  "type": "address"
                },
                {
                  "internalType": "address",
                  "name": "market",
                  "type": "address"
                },
                {
                  "internalType": "address",
                  "name": "initialCollateralToken",
                  "type": "address"
                },
                {
                  "internalType": "address[]",
                  "name": "swapPath",
                  "type": "address[]"
                }
              ],
              "internalType": "struct Order.Addresses",
              "name": "addresses",
              "type": "tuple"
            },
            {
              "components": [
                {
                  "internalType": "uint256",
                  "name": "sizeDeltaUsd",
                  "type": "uint256"
                },
                {
                  "internalType": "uint256",
                  "name": "initialCollateralDeltaAmount",
                  "type": "uint256"
                },
                {
                  "internalType": "uint256",
                  "name": "acceptablePrice",
                  "type": "uint256"
                },
                {
                  "internalType": "int256",
                  "name": "acceptablePriceImpactUsd",
                  "type": "int256"
                },
                {
                  "internalType": "uint256",
                  "name": "executionFee",
                  "type": "uint256"
                },
                {
                  "internalType": "uint256",
                  "name": "callbackGasLimit",
                  "type": "uint256"
                },
                {
                  "internalType": "uint256",
                  "name": "minOutputAmount",
                  "type": "uint256"
                },
                {
                  "internalType": "uint256",
                  "name": "updatedAtBlock",
                  "type": "uint256"
                }
              ],
              "internalType": "struct Order.Numbers",
              "name": "numbers",
              "type": "tuple"
            },
            {
              "components": [
                {
                  "internalType": "enum Order.OrderType",
                  "name": "orderType",
                  "type": "uint8"
                },
                {
                  "internalType": "bool",
                  "name": "isLong",
                  "type": "bool"
                },
                {
                  "internalType": "bool",
                  "name": "shouldConvertETH",
                  "type": "bool"
                },
                {
                  "internalType": "bool",
                  "name": "isFrozen",
                  "type": "bool"
                }
              ],
              "internalType": "struct Order.Flags",
              "name": "flags",
              "type": "tuple"
            },
            {
              "internalType": "bytes",
              "name": "data",
              "type": "bytes"
            }
          ],
          "internalType": "struct Order.Props",
          "name": "order",
          "type": "tuple"
        }
      ],
      "name": "emitOrderCreated",
      "outputs": [],
      "stateMutability": "nonpayable",
      "type": "function"
    },
    {
      "inputs": [
        {
          "internalType": "bytes32",
          "name": "key",
          "type": "bytes32"
        }
      ],
      "name": "emitOrderExecuted",
      "outputs": [],
      "stateMutability": "nonpayable",
      "type": "function"
    },
    {
      "inputs": [
        {
          "internalType": "bytes32",
          "name": "key",
          "type": "bytes32"
        },
        {
          "internalType": "bytes32",
          "name": "reason",
          "type": "bytes32"
        }
      ],
      "name": "emitOrderFrozen",
      "outputs": [],
      "stateMutability": "nonpayable",
      "type": "function"
    },
    {
      "inputs": [
        {
          "internalType": "bytes32",
          "name": "key",
          "type": "bytes32"
        },
        {
          "internalType": "uint256",
          "name": "sizeDeltaUsd",
          "type": "uint256"
        },
        {
          "internalType": "uint256",
          "name": "acceptablePrice",
          "type": "uint256"
        },
        {
          "internalType": "int256",
          "name": "acceptableUsdAdjustment",
          "type": "int256"
        }
      ],
      "name": "emitOrderUpdated",
      "outputs": [],
      "stateMutability": "nonpayable",
      "type": "function"
    },
    {
      "inputs": [
        {
          "internalType": "address",
          "name": "market",
          "type": "address"
        },
        {
          "internalType": "address",
          "name": "token",
          "type": "address"
        },
        {
          "internalType": "int256",
          "name": "delta",
          "type": "int256"
        },
        {
          "internalType": "uint256",
          "name": "nextValue",
          "type": "uint256"
        }
      ],
      "name": "emitPoolAmountUpdated",
      "outputs": [],
      "stateMutability": "nonpayable",
      "type": "function"
    },
    {
      "inputs": [
        {
          "internalType": "bytes32",
          "name": "key",
          "type": "bytes32"
        },
        {
          "internalType": "address",
          "name": "account",
          "type": "address"
        },
        {
          "internalType": "address",
          "name": "market",
          "type": "address"
        },
        {
          "internalType": "address",
          "name": "collateralToken",
          "type": "address"
        },
        {
          "internalType": "bool",
          "name": "isLong",
          "type": "bool"
        },
        {
          "internalType": "uint256",
          "name": "executionPrice",
          "type": "uint256"
        },
        {
          "internalType": "uint256",
          "name": "sizeDeltaUsd",
          "type": "uint256"
        },
        {
          "internalType": "int256",
          "name": "collateralDeltaAmount",
          "type": "int256"
        },
        {
          "internalType": "int256",
          "name": "remainingCollateralAmount",
          "type": "int256"
        },
        {
          "internalType": "int256",
          "name": "outputAmount",
          "type": "int256"
        },
        {
          "internalType": "int256",
          "name": "realizedPnlAmount",
          "type": "int256"
        }
      ],
      "name": "emitPositionDecrease",
      "outputs": [],
      "stateMutability": "nonpayable",
      "type": "function"
    },
    {
      "inputs": [
        {
          "internalType": "bool",
          "name": "isIncrease",
          "type": "bool"
        },
        {
          "components": [
            {
              "internalType": "uint256",
              "name": "feeReceiverAmount",
              "type": "uint256"
            },
            {
              "internalType": "uint256",
              "name": "feesForPool",
              "type": "uint256"
            },
            {
              "internalType": "uint256",
              "name": "amountForPool",
              "type": "uint256"
            },
            {
              "internalType": "uint256",
              "name": "positionFeeAmount",
              "type": "uint256"
            },
            {
              "internalType": "int256",
              "name": "fundingFeeAmount",
              "type": "int256"
            },
            {
              "internalType": "uint256",
              "name": "borrowingFeeAmount",
              "type": "uint256"
            },
            {
              "internalType": "int256",
              "name": "totalNetCostAmount",
              "type": "int256"
            }
          ],
          "internalType": "struct PositionPricingUtils.PositionFees",
          "name": "fees",
          "type": "tuple"
        }
      ],
      "name": "emitPositionFeesCollected",
      "outputs": [],
      "stateMutability": "nonpayable",
      "type": "function"
    },
    {
      "inputs": [
        {
          "internalType": "bytes32",
          "name": "key",
          "type": "bytes32"
        },
        {
          "internalType": "address",
          "name": "account",
          "type": "address"
        },
        {
          "internalType": "address",
          "name": "market",
          "type": "address"
        },
        {
          "internalType": "address",
          "name": "collateralToken",
          "type": "address"
        },
        {
          "internalType": "bool",
          "name": "isLong",
          "type": "bool"
        },
        {
          "internalType": "uint256",
          "name": "executionPrice",
          "type": "uint256"
        },
        {
          "internalType": "uint256",
          "name": "sizeDeltaUsd",
          "type": "uint256"
        },
        {
          "internalType": "int256",
          "name": "collateralDeltaAmount",
          "type": "int256"
        }
      ],
      "name": "emitPositionIncrease",
      "outputs": [],
      "stateMutability": "nonpayable",
      "type": "function"
    },
    {
      "inputs": [
        {
          "internalType": "bytes32",
          "name": "action",
          "type": "bytes32"
        },
        {
          "components": [
            {
              "internalType": "uint256",
              "name": "feeReceiverAmount",
              "type": "uint256"
            },
            {
              "internalType": "uint256",
              "name": "feesForPool",
              "type": "uint256"
            },
            {
              "internalType": "uint256",
              "name": "amountAfterFees",
              "type": "uint256"
            },
            {
              "internalType": "uint256",
              "name": "amountForPool",
              "type": "uint256"
            }
          ],
          "internalType": "struct SwapPricingUtils.SwapFees",
          "name": "fees",
          "type": "tuple"
        }
      ],
      "name": "emitSwapFeesCollected",
      "outputs": [],
      "stateMutability": "nonpayable",
      "type": "function"
    },
    {
      "inputs": [
        {
          "internalType": "address",
          "name": "market",
          "type": "address"
        },
        {
          "internalType": "address",
          "name": "token",
          "type": "address"
        },
        {
          "internalType": "int256",
          "name": "delta",
          "type": "int256"
        },
        {
          "internalType": "uint256",
          "name": "nextValue",
          "type": "uint256"
        }
      ],
      "name": "emitSwapImpactPoolAmountUpdated",
      "outputs": [],
      "stateMutability": "nonpayable",
      "type": "function"
    },
    {
      "inputs": [
        {
          "internalType": "bytes32",
          "name": "key",
          "type": "bytes32"
        }
      ],
      "name": "emitWithdrawalCancelled",
      "outputs": [],
      "stateMutability": "nonpayable",
      "type": "function"
    },
    {
      "inputs": [
        {
          "internalType": "bytes32",
          "name": "key",
          "type": "bytes32"
        },
        {
          "components": [
            {
              "internalType": "address",
              "name": "account",
              "type": "address"
            },
            {
              "internalType": "address",
              "name": "receiver",
              "type": "address"
            },
            {
              "internalType": "address",
              "name": "callbackContract",
              "type": "address"
            },
            {
              "internalType": "address",
              "name": "market",
              "type": "address"
            },
            {
              "internalType": "uint256",
              "name": "marketTokensLongAmount",
              "type": "uint256"
            },
            {
              "internalType": "uint256",
              "name": "marketTokensShortAmount",
              "type": "uint256"
            },
            {
              "internalType": "uint256",
              "name": "minLongTokenAmount",
              "type": "uint256"
            },
            {
              "internalType": "uint256",
              "name": "minShortTokenAmount",
              "type": "uint256"
            },
            {
              "internalType": "uint256",
              "name": "updatedAtBlock",
              "type": "uint256"
            },
            {
              "internalType": "bool",
              "name": "shouldConvertETH",
              "type": "bool"
            },
            {
              "internalType": "uint256",
              "name": "executionFee",
              "type": "uint256"
            },
            {
              "internalType": "uint256",
              "name": "callbackGasLimit",
              "type": "uint256"
            },
            {
              "internalType": "bytes",
              "name": "data",
              "type": "bytes"
            }
          ],
          "internalType": "struct Withdrawal.Props",
          "name": "withdrawal",
          "type": "tuple"
        }
      ],
      "name": "emitWithdrawalCreated",
      "outputs": [],
      "stateMutability": "nonpayable",
      "type": "function"
    },
    {
      "inputs": [
        {
          "internalType": "bytes32",
          "name": "key",
          "type": "bytes32"
        }
      ],
      "name": "emitWithdrawalExecuted",
      "outputs": [],
      "stateMutability": "nonpayable",
      "type": "function"
    },
    {
      "inputs": [],
      "name": "gov",
      "outputs": [
        {
          "internalType": "address",
          "name": "",
          "type": "address"
        }
      ],
      "stateMutability": "view",
      "type": "function"
    },
    {
      "inputs": [
        {
          "internalType": "bytes32",
          "name": "topic1",
          "type": "bytes32"
        },
        {
          "internalType": "bytes",
          "name": "data",
          "type": "bytes"
        }
      ],
      "name": "log1",
      "outputs": [],
      "stateMutability": "nonpayable",
      "type": "function"
    },
    {
      "inputs": [
        {
          "internalType": "bytes32",
          "name": "topic1",
          "type": "bytes32"
        },
        {
          "internalType": "bytes32",
          "name": "topic2",
          "type": "bytes32"
        },
        {
          "internalType": "bytes",
          "name": "data",
          "type": "bytes"
        }
      ],
      "name": "log2",
      "outputs": [],
      "stateMutability": "nonpayable",
      "type": "function"
    },
    {
      "inputs": [
        {
          "internalType": "bytes32",
          "name": "topic1",
          "type": "bytes32"
        },
        {
          "internalType": "bytes32",
          "name": "topic2",
          "type": "bytes32"
        },
        {
          "internalType": "bytes32",
          "name": "topic3",
          "type": "bytes32"
        },
        {
          "internalType": "bytes",
          "name": "data",
          "type": "bytes"
        }
      ],
      "name": "log3",
      "outputs": [],
      "stateMutability": "nonpayable",
      "type": "function"
    },
    {
      "inputs": [
        {
          "internalType": "bytes32",
          "name": "topic1",
          "type": "bytes32"
        },
        {
          "internalType": "bytes32",
          "name": "topic2",
          "type": "bytes32"
        },
        {
          "internalType": "bytes32",
          "name": "topic3",
          "type": "bytes32"
        },
        {
          "internalType": "bytes32",
          "name": "topic4",
          "type": "bytes32"
        },
        {
          "internalType": "bytes",
          "name": "data",
          "type": "bytes"
        }
      ],
      "name": "log4",
      "outputs": [],
      "stateMutability": "nonpayable",
      "type": "function"
    },
    {
      "inputs": [
        {
          "internalType": "address",
          "name": "_gov",
          "type": "address"
        }
      ],
      "name": "setGov",
      "outputs": [],
      "stateMutability": "nonpayable",
      "type": "function"
    }
  ],
  "transactionHash": "0xbffb2db9f49209bafdb6ac1d46eb2b27220b5ef7d114c1ba942b3d3c7d1ef0ca",
  "args": [
    "0x5FbDB2315678afecb367f032d93F642f64180aa3"
  ],
  "numDeployments": 1,
  "solcInputHash": "5a19200e07267844d5f5ac65da21599c",
  "bytecode": "0x60a06040523480156200001157600080fd5b506040516200201f3803806200201f8339810160408190526200003491620000b4565b80620000403362000053565b6001600160a01b031660805250620000e6565b600080546001600160a01b038381166001600160a01b031983168117909355604080519190921680825260208201939093527f53351836099c03ffc3b1727d8abd4b0222afa87d4ed76ae3102d51369ef7f785910160405180910390a15050565b600060208284031215620000c757600080fd5b81516001600160a01b0381168114620000df57600080fd5b9392505050565b608051611f1d620001026000396000610f0f0152611f1d6000f3fe608060405234801561001057600080fd5b506004361061013e5760003560e01c80630380fb791461014357806309c6043c146101585780630d880f601461016b5780631069eb211461017e57806312d43a51146101915780631d2742b3146101c057806323373713146101d3578063441ae894146101e65780634f19a220146101f9578063633ee8791461020c578063683bf79a1461021f57806384eb4a601461023257806387b3745a1461024557806390070aca14610258578063929b46e81461026b5780639876ed2a1461027e5780639db8629314610291578063a0240c7f146102a4578063a201e90c146102b7578063b1676821146102ca578063c2b7f0e3146102dd578063c9ad3521146102f0578063cfad57a214610303578063eb59c7c114610316578063f670c91e14610329578063f79a52b71461033c575b600080fd5b610156610151366004611001565b61034f565b005b61015661016636600461128f565b6103c0565b61015661017936600461143d565b610437565b61015661018c366004611558565b6104a2565b6000546101a4906001600160a01b031681565b6040516001600160a01b03909116815260200160405180910390f35b6101566101ce3660046115b4565b6104ec565b6101566101e1366004611001565b61053a565b6101566101f4366004611001565b6105a4565b610156610207366004611617565b61060e565b61015661021a366004611692565b6106b9565b61015661022d3660046116d4565b610777565b61015661024036600461172d565b6107c3565b610156610253366004611001565b610833565b61015661026636600461172d565b61089d565b61015661027936600461174f565b61090d565b61015661028c366004611793565b6109a0565b61015661029f3660046117bd565b610a32565b6101566102b23660046117ef565b610ab1565b6101566102c53660046118df565b610b1c565b6101566102d8366004611001565b610ba9565b6101566102eb36600461192c565b610c13565b6101566102fe366004611989565b610cae565b610156610311366004611a21565b610d73565b610156610324366004611a43565b610dcd565b610156610337366004611a70565b610e3c565b61015661034a366004611a43565b610e84565b610389600080516020611ec88339815191526040518060400160405280600a81526020016921a7a72a2927a62622a960b11b815250610ef3565b6040518181527fa37adc857daa838329f1fb3194fe25210138201eef54e4f21a3275a0beccf649906020015b60405180910390a150565b6103fa600080516020611ec88339815191526040518060400160405280600a81526020016921a7a72a2927a62622a960b11b815250610ef3565b7fcb331b0052d99b7d2a045c0afaacb304d5571921d666c5440d1589c4b5a7100f828260405161042b929190611b87565b60405180910390a15050565b610471600080516020611ec88339815191526040518060400160405280600a81526020016921a7a72a2927a62622a960b11b815250610ef3565b7f273eca54f2809e6591f3b03280aca08fc76ec50965ad20c74e31c3f4ac7778c6828260405161042b929190611c96565b6104dc600080516020611ec88339815191526040518060400160405280600a81526020016921a7a72a2927a62622a960b11b815250610ef3565b805182848260208501a250505050565b610526600080516020611ec88339815191526040518060400160405280600a81526020016921a7a72a2927a62622a960b11b815250610ef3565b8051828486888460208701a4505050505050565b610574600080516020611ec88339815191526040518060400160405280600a81526020016921a7a72a2927a62622a960b11b815250610ef3565b6040518181527fc0688adab4193f84179a2fda51c33be35f0be04eda978b688bb1a41ce2c7e846906020016103b5565b6105de600080516020611ec88339815191526040518060400160405280600a81526020016921a7a72a2927a62622a960b11b815250610ef3565b6040518181527f2c3f6464ee7dbe9f7d807f41160b09edb0dfc340865796a3b9d03c9fe1b1b028906020016103b5565b610648600080516020611ec88339815191526040518060400160405280600a81526020016921a7a72a2927a62622a960b11b815250610ef3565b604080518981526001600160a01b03878116602083015286151582840152606082018690526080820185905260a082018490529151888316928a16917f3363093fcbd929b3334b687c013b2e3c091f042cda7ae08621b9e570fdaba029919081900360c00190a35050505050505050565b6106f3600080516020611ec88339815191526040518060400160405280600a81526020016921a7a72a2927a62622a960b11b815250610ef3565b7fd95fbd3b0bbe5d6b41dbf9391686b1806d4c4eef8c0cfff9ddcbc787b31cca55828260405161042b929190600061010082019050831515825282356020830152602083013560408301526040830135606083015260608301356080830152608083013560a083015260a083013560c083015260c083013560e08301529392505050565b6107b1600080516020611ec88339815191526040518060400160405280600a81526020016921a7a72a2927a62622a960b11b815250610ef3565b80518284868360208601a35050505050565b6107fd600080516020611ec88339815191526040518060400160405280600a81526020016921a7a72a2927a62622a960b11b815250610ef3565b60408051838152602081018390527f0b751d7bc7e902e8c7f5ae3b5a5cfaf6469fadd348681b2cdf779031fb629adc910161042b565b61086d600080516020611ec88339815191526040518060400160405280600a81526020016921a7a72a2927a62622a960b11b815250610ef3565b6040518181527fadea0c965ba84f4b536e6f3d044976d6d981f954c31750b32667420a68c6d40f906020016103b5565b6108d7600080516020611ec88339815191526040518060400160405280600a81526020016921a7a72a2927a62622a960b11b815250610ef3565b60408051838152602081018390527f49e9bb2bac1dd7e82b4e8da489186c931d02604bb7589ad805ce531d413b26de910161042b565b610947600080516020611ec88339815191526040518060400160405280600a81526020016921a7a72a2927a62622a960b11b815250610ef3565b604080516001600160a01b03861681528415156020820152908101839052606081018290527fce76c5b477abca17dbd9df0c116c5c47c0a16c63759a9982ebcfa959d607200e906080015b60405180910390a150505050565b6109da600080516020611ec88339815191526040518060400160405280600a81526020016921a7a72a2927a62622a960b11b815250610ef3565b604080518381528235602080830191909152830135818301529082013560608083019190915282013560808201527fc2a32b7a2a0c94366ddc3e241916070f8af45c6a0372e6a296d50a5092cf36169060a00161042b565b610a6c600080516020611ec88339815191526040518060400160405280600a81526020016921a7a72a2927a62622a960b11b815250610ef3565b6040805185815260208101859052908101839052606081018290527f16ab78d19252bd9d1684c88e2e80678860bdc60a1608af951e4dc39448dc39ab90608001610992565b610aeb600080516020611ec88339815191526040518060400160405280600a81526020016921a7a72a2927a62622a960b11b815250610ef3565b7f25ac13c65050be1a719c72eb85adf18fd88fd676aee3daf6be66ed258f09c408828260405161042b929190611d82565b610b56600080516020611ec88339815191526040518060400160405280600a81526020016921a7a72a2927a62622a960b11b815250610ef3565b604080516001600160a01b0380871682528516602082015283151591810191909152606081018290527f3bcea68f1e3f05e22212790dc8fa1b2d740ad57f93d3dd7c039a645bc62c270d90608001610992565b610be3600080516020611ec88339815191526040518060400160405280600a81526020016921a7a72a2927a62622a960b11b815250610ef3565b6040518181527fe62bf00505a94450f807975aa95e190b09784a61d64cf3b07d27da679ff02065906020016103b5565b610c4d600080516020611ec88339815191526040518060400160405280600a81526020016921a7a72a2927a62622a960b11b815250610ef3565b604080516001600160a01b038716815260208101869052908101849052821515606082015281151560808201527fcd65b6b5b3133b97f770846c6e15bd5394b249d8b2f9733c982093af8681ef159060a00160405180910390a15050505050565b610ce8600080516020611ec88339815191526040518060400160405280600a81526020016921a7a72a2927a62622a960b11b815250610ef3565b604080518c81526001600160a01b038a8116602083015289151582840152606082018990526080820188905260a0820187905260c0820186905260e08201859052610100820184905291518b8316928d16917fcaa5b572d4f19966a3c5491defb7fa6c96dcff2a6246e0e5d6f13ab0db04fc1691908190036101200190a35050505050505050505050565b6000546001600160a01b03163314610dc1576040805163a35b150b60e01b81523360048201526024810191909152600360448201526223a7ab60e91b60648201526084015b60405180910390fd5b610dca81610fa7565b50565b610e07600080516020611ec88339815191526040518060400160405280600a81526020016921a7a72a2927a62622a960b11b815250610ef3565b7fe0cebb2c1e80b5fe6ba4d326f6287b299694b0fd742320b07eed21b53ab8c3cf848484846040516109929493929190611e55565b610e76600080516020611ec88339815191526040518060400160405280600a81526020016921a7a72a2927a62622a960b11b815250610ef3565b8051828160208401a1505050565b610ebe600080516020611ec88339815191526040518060400160405280600a81526020016921a7a72a2927a62622a960b11b815250610ef3565b7f2c4a66296d0749e56ae853c8d48af1e0a2381d6ab6a81822337b4ad909aa8463848484846040516109929493929190611e55565b60405163ac4ab3fb60e01b8152336004820152602481018390527f00000000000000000000000000000000000000000000000000000000000000006001600160a01b03169063ac4ab3fb90604401602060405180830381865afa158015610f5e573d6000803e3d6000fd5b505050506040513d601f19601f82011682018060405250810190610f829190611e7e565b610fa357338160405163a35b150b60e01b8152600401610db8929190611e9b565b5050565b600080546001600160a01b038381166001600160a01b031983168117909355604080519190921680825260208201939093527f53351836099c03ffc3b1727d8abd4b0222afa87d4ed76ae3102d51369ef7f785910161042b565b60006020828403121561101357600080fd5b5035919050565b634e487b7160e01b600052604160045260246000fd5b604051608081016001600160401b03811182821017156110525761105261101a565b60405290565b60405160c081016001600160401b03811182821017156110525761105261101a565b6040516101a081016001600160401b03811182821017156110525761105261101a565b60405161018081016001600160401b03811182821017156110525761105261101a565b604051601f8201601f191681016001600160401b03811182821017156110e8576110e861101a565b604052919050565b80356001600160a01b038116811461110757600080fd5b919050565b600061010080838503121561112057600080fd5b604051908101906001600160401b03821181831017156111425761114261101a565b81604052809250833581526020840135602082015260408401356040820152606084013560608201526080840135608082015260a084013560a082015260c084013560c082015260e084013560e0820152505092915050565b8015158114610dca57600080fd5b80356111078161119b565b6000608082840312156111c657600080fd5b6111ce611030565b90508135600881106111df57600080fd5b815260208201356111ef8161119b565b602082015260408201356112028161119b565b604082015260608201356112158161119b565b606082015292915050565b600082601f83011261123157600080fd5b81356001600160401b0381111561124a5761124a61101a565b61125d601f8201601f19166020016110c0565b81815284602083860101111561127257600080fd5b816020850160208301376000918101602001919091529392505050565b600080604083850312156112a257600080fd5b823591506020808401356001600160401b03808211156112c157600080fd5b908501906101c082880312156112d657600080fd5b6112de611030565b8235828111156112ed57600080fd5b830160c0818a0312156112ff57600080fd5b611307611058565b611310826110f0565b815261131d8683016110f0565b8682015261132d604083016110f0565b604082015261133e606083016110f0565b606082015261134f608083016110f0565b608082015260a08201358481111561136657600080fd5b80830192505089601f83011261137b57600080fd5b81358481111561138d5761138d61101a565b8060051b61139c8882016110c0565b918252838101880191888101908d8411156113b657600080fd5b948901945b838610156113db576113cc866110f0565b825294890194908901906113bb565b60a08501525050508252506113f28884860161110c565b848201526114048861012085016111b4565b60408201526101a083013593508184111561141e57600080fd5b61142a88858501611220565b6060820152809450505050509250929050565b6000806040838503121561145057600080fd5b8235915060208301356001600160401b038082111561146e57600080fd5b908401906101a0828703121561148357600080fd5b61148b61107a565b611494836110f0565b81526114a2602084016110f0565b60208201526114b3604084016110f0565b60408201526114c4606084016110f0565b60608201526080830135608082015260a083013560a082015260c083013560c082015260e083013560e082015261010080840135818301525061012061150b8185016111a9565b9082015261014083810135908201526101608084013590820152610180808401358381111561153957600080fd5b61154589828701611220565b8284015250508093505050509250929050565b60008060006060848603121561156d57600080fd5b833592506020840135915060408401356001600160401b0381111561159157600080fd5b61159d86828701611220565b9150509250925092565b6001600160a01b03169052565b600080600080600060a086880312156115cc57600080fd5b8535945060208601359350604086013592506060860135915060808601356001600160401b038111156115fe57600080fd5b61160a88828901611220565b9150509295509295909350565b600080600080600080600080610100898b03121561163457600080fd5b8835975061164460208a016110f0565b965061165260408a016110f0565b955061166060608a016110f0565b945060808901356116708161119b565b979a969950949793969560a0850135955060c08501359460e001359350915050565b6000808284036101008112156116a757600080fd5b83356116b28161119b565b925060e0601f19820112156116c657600080fd5b506020830190509250929050565b600080600080608085870312156116ea57600080fd5b84359350602085013592506040850135915060608501356001600160401b0381111561171557600080fd5b61172187828801611220565b91505092959194509250565b6000806040838503121561174057600080fd5b50508035926020909101359150565b6000806000806080858703121561176557600080fd5b61176e856110f0565b9350602085013561177e8161119b565b93969395505050506040820135916060013590565b60008082840360a08112156117a757600080fd5b833592506080601f19820112156116c657600080fd5b600080600080608085870312156117d357600080fd5b5050823594602084013594506040840135936060013592509050565b6000806040838503121561180257600080fd5b8235915060208301356001600160401b038082111561182057600080fd5b90840190610180828703121561183557600080fd5b61183d61109d565b611846836110f0565b8152611854602084016110f0565b6020820152611865604084016110f0565b6040820152611876606084016110f0565b60608201526080830135608082015260a083013560a082015260c083013560c082015260e083013560e08201526101006118b18185016111a9565b9082015261012083810135908201526101408084013590820152610160808401358381111561153957600080fd5b600080600080608085870312156118f557600080fd5b6118fe856110f0565b935061190c602086016110f0565b9250604085013561191c8161119b565b9396929550929360600135925050565b600080600080600060a0868803121561194457600080fd5b61194d866110f0565b94506020860135935060408601359250606086013561196b8161119b565b9150608086013561197b8161119b565b809150509295509295909350565b60008060008060008060008060008060006101608c8e0312156119ab57600080fd5b8b359a506119bb60208d016110f0565b99506119c960408d016110f0565b98506119d760608d016110f0565b975060808c01356119e78161119b565b9a9d999c50979a96999860a0880135985060c08801359760e081013597506101008101359650610120810135955061014001359350915050565b600060208284031215611a3357600080fd5b611a3c826110f0565b9392505050565b60008060008060808587031215611a5957600080fd5b611a62856110f0565b935061177e602086016110f0565b60008060408385031215611a8357600080fd5b8235915060208301356001600160401b03811115611aa057600080fd5b611aac85828601611220565b9150509250929050565b600081518084526020808501945080840160005b83811015611aef5781516001600160a01b031687529582019590820190600101611aca565b509495945050505050565b805160088110611b1a57634e487b7160e01b600052602160045260246000fd5b82526020818101511515908301526040808201511515908301526060908101511515910152565b6000815180845260005b81811015611b6757602081850181015186830182015201611b4b565b506000602082860101526020601f19601f83011685010191505092915050565b8281526040602080830182905283516101c08385015280516001600160a01b039081166102008601529181015182166102208501529182015181166102408401526060820151811661026084015260808201511661028083015260a0015160c06102a0830152600090611bfe6102c0840182611ab6565b90506020840151611c5b6060850182805182526020810151602083015260408101516040830152606081015160608301526080810151608083015260a081015160a083015260c081015160c083015260e081015160e08301525050565b506040840151611c6f610160850182611afa565b506060840151838203603f19016101e0850152611c8c8282611b41565b9695505050505050565b82815260406020820152611cae6040820183516115a7565b60006020830151611cc260608401826115a7565b506040830151611cd560808401826115a7565b506060830151611ce860a08401826115a7565b50608083015160c083015260a083015160e083015260c0830151610100818185015260e0850151915061012082818601528186015192506101409150828286015280860151925050610160611d408186018415159052565b9085015161018085810191909152908501516101a080860191909152908501516101c08501919091529050611d796101e0840182611b41565b95945050505050565b82815260406020820152611d9a6040820183516115a7565b60006020830151611dae60608401826115a7565b506040830151611dc160808401826115a7565b506060830151611dd460a08401826115a7565b50608083015160c083015260a083015160e083015260c0830151610100818185015260e0850151915061012082818601528186015192506101409150611e1d8286018415159052565b850151610160858101919091529085015161018080860191909152908501516101a08501919091529050611d796101c0840182611b41565b6001600160a01b0394851681529290931660208301526040820152606081019190915260800190565b600060208284031215611e9057600080fd5b8151611a3c8161119b565b6001600160a01b0383168152604060208201819052600090611ebf90830184611b41565b94935050505056fe70546d1c92f8c2132ae23a23f5177aa8526356051c7510df99f50e012d221529a2646970667358221220800c539aa621e6fce2310aae1e3235fe825eabea1fe9956a59bc6f7c058e6df164736f6c63430008100033",
  "devdoc": {
    "kind": "dev",
    "methods": {},
    "version": 1
  },
  "userdoc": {
    "kind": "user",
    "methods": {},
    "version": 1
  },
  "storageLayout": {
    "storage": [
      {
        "astId": 10641,
        "contract": "contracts/events/EventEmitter.sol:EventEmitter",
        "label": "gov",
        "offset": 0,
        "slot": "0",
        "type": "t_address"
      }
    ],
    "types": {
      "t_address": {
        "encoding": "inplace",
        "label": "address",
        "numberOfBytes": "20"
      }
    }
  }
}