{
  "address": "0x322813Fd9A801c5507c9de605d63CEA4f2CE6c44",
  "abi": [
    {
      "anonymous": false,
      "inputs": [
        {
          "indexed": false,
          "internalType": "bytes32",
          "name": "key",
          "type": "bytes32"
        },
        {
          "indexed": false,
          "internalType": "address",
          "name": "token",
          "type": "address"
        },
        {
          "indexed": false,
          "internalType": "uint256",
          "name": "amount",
          "type": "uint256"
        }
      ],
      "name": "FeeReceived",
      "type": "event"
    },
    {
      "inputs": [
        {
          "internalType": "bytes32",
          "name": "key",
          "type": "bytes32"
        },
        {
          "internalType": "address",
          "name": "token",
          "type": "address"
        },
        {
          "internalType": "uint256",
          "name": "amount",
          "type": "uint256"
        }
      ],
      "name": "notifyFeeReceived",
      "outputs": [],
      "stateMutability": "nonpayable",
      "type": "function"
    }
  ],
  "transactionHash": "0x112288148b15260e5f7ec3d33100ac26537eb60df18436a043557d2e675060a9",
  "args": [],
  "numDeployments": 1,
  "solcInputHash": "94248a78e23524a8af5dba653b641a0b",
  "bytecode": "0x608060405234801561001057600080fd5b50610104806100206000396000f3fe6080604052348015600f57600080fd5b506004361060285760003560e01c806310015f9814602d575b600080fd5b603c6038366004608c565b603e565b005b604080518481526001600160a01b03841660208201529081018290527fc7191f96ab050b47f8820c0915947f2c6e86096b509d5cd8b414b458ea86cb199060600160405180910390a1505050565b60008060006060848603121560a057600080fd5b8335925060208401356001600160a01b038116811460bd57600080fd5b92959294505050604091909101359056fea26469706673582212209b403929cb5d06bb40bf4253cec95836f9d352b4cb10e61a809ea2465f11bcc564736f6c63430008100033",
  "devdoc": {
    "kind": "dev",
    "methods": {},
    "version": 1
  },
  "userdoc": {
    "kind": "user",
    "methods": {},
    "version": 1
  },
  "storageLayout": {
    "storage": [],
    "types": null
  }
}