{
  "address": "0x2279B7A0a67DB372996a5FaB50D91eAA73d2eBe6",
  "abi": [
    {
      "inputs": [
        {
          "internalType": "contract RoleStore",
          "name": "_roleStore",
          "type": "address"
        },
        {
          "internalType": "contract OracleStore",
          "name": "_oracleStore",
          "type": "address"
        }
      ],
      "stateMutability": "nonpayable",
      "type": "constructor"
    },
    {
      "inputs": [
        {
          "internalType": "uint256",
          "name": "oracleBlockNumber",
          "type": "uint256"
        },
        {
          "internalType": "uint256",
          "name": "prevOracleBlockNumber",
          "type": "uint256"
        }
      ],
      "name": "BlockNumbersNotSorted",
      "type": "error"
    },
    {
      "inputs": [
        {
          "internalType": "uint256",
          "name": "signerIndex",
          "type": "uint256"
        }
      ],
      "name": "DuplicateSigner",
      "type": "error"
    },
    {
      "inputs": [],
      "name": "EmptyBlockNumber",
      "type": "error"
    },
    {
      "inputs": [
        {
          "internalType": "address",
          "name": "token",
          "type": "address"
        }
      ],
      "name": "EmptyCustomPrice",
      "type": "error"
    },
    {
      "inputs": [
        {
          "internalType": "address",
          "name": "token",
          "type": "address"
        }
      ],
      "name": "EmptyFeedPrecision",
      "type": "error"
    },
    {
      "inputs": [
        {
          "internalType": "address",
          "name": "token",
          "type": "address"
        }
      ],
      "name": "EmptyFeedPrice",
      "type": "error"
    },
    {
      "inputs": [
        {
          "internalType": "address",
          "name": "token",
          "type": "address"
        }
      ],
      "name": "EmptyLatestPrice",
      "type": "error"
    },
    {
      "inputs": [
        {
          "internalType": "address",
          "name": "token",
          "type": "address"
        }
      ],
      "name": "EmptyPrecision",
      "type": "error"
    },
    {
      "inputs": [
        {
          "internalType": "address",
          "name": "token",
          "type": "address"
        }
      ],
      "name": "EmptyPrice",
      "type": "error"
    },
    {
      "inputs": [],
      "name": "EmptyPrice",
      "type": "error"
    },
    {
      "inputs": [
        {
          "internalType": "address",
          "name": "token",
          "type": "address"
        }
      ],
      "name": "EmptyPrimaryPrice",
      "type": "error"
    },
    {
      "inputs": [
        {
          "internalType": "address",
          "name": "token",
          "type": "address"
        }
      ],
      "name": "EmptySecondaryPrice",
      "type": "error"
    },
    {
      "inputs": [],
      "name": "EmptyTokens",
      "type": "error"
    },
    {
      "inputs": [
        {
          "internalType": "uint256",
          "name": "blockNumber",
          "type": "uint256"
        }
      ],
      "name": "InvalidBlockNumber",
      "type": "error"
    },
    {
      "inputs": [
        {
          "internalType": "address",
          "name": "recoveredSigner",
          "type": "address"
        },
        {
          "internalType": "address",
          "name": "expectedSigner",
          "type": "address"
        }
      ],
      "name": "InvalidSignature",
      "type": "error"
    },
    {
      "inputs": [
        {
          "internalType": "uint256",
          "name": "blockNumber",
          "type": "uint256"
        }
      ],
      "name": "MaxBlockAgeExceeded",
      "type": "error"
    },
    {
      "inputs": [
        {
          "internalType": "uint256",
          "name": "oracleSigners",
          "type": "uint256"
        },
        {
          "internalType": "uint256",
          "name": "maxOracleSigners",
          "type": "uint256"
        }
      ],
      "name": "MaxOracleSigners",
      "type": "error"
    },
    {
      "inputs": [
        {
          "internalType": "address",
          "name": "token",
          "type": "address"
        },
        {
          "internalType": "uint256",
          "name": "price",
          "type": "uint256"
        },
        {
          "internalType": "uint256",
          "name": "prevPrice",
          "type": "uint256"
        }
      ],
      "name": "MaxPricesNotSorted",
      "type": "error"
    },
    {
      "inputs": [
        {
          "internalType": "uint256",
          "name": "signerIndex",
          "type": "uint256"
        },
        {
          "internalType": "uint256",
          "name": "maxSignerIndex",
          "type": "uint256"
        }
      ],
      "name": "MaxSignerIndex",
      "type": "error"
    },
    {
      "inputs": [
        {
          "internalType": "uint256",
          "name": "oracleSigners",
          "type": "uint256"
        },
        {
          "internalType": "uint256",
          "name": "minOracleSigners",
          "type": "uint256"
        }
      ],
      "name": "MinOracleSigners",
      "type": "error"
    },
    {
      "inputs": [
        {
          "internalType": "address",
          "name": "token",
          "type": "address"
        },
        {
          "internalType": "uint256",
          "name": "price",
          "type": "uint256"
        },
        {
          "internalType": "uint256",
          "name": "prevPrice",
          "type": "uint256"
        }
      ],
      "name": "MinPricesNotSorted",
      "type": "error"
    },
    {
      "inputs": [
        {
          "internalType": "address",
          "name": "msgSender",
          "type": "address"
        },
        {
          "internalType": "string",
          "name": "role",
          "type": "string"
        }
      ],
      "name": "Unauthorized",
      "type": "error"
    },
    {
      "anonymous": false,
      "inputs": [
        {
          "indexed": false,
          "internalType": "address",
          "name": "prevGov",
          "type": "address"
        },
        {
          "indexed": false,
          "internalType": "address",
          "name": "nextGov",
          "type": "address"
        }
      ],
      "name": "SetGov",
      "type": "event"
    },
    {
      "inputs": [],
      "name": "MAX_SIGNERS",
      "outputs": [
        {
          "internalType": "uint256",
          "name": "",
          "type": "uint256"
        }
      ],
      "stateMutability": "view",
      "type": "function"
    },
    {
      "inputs": [],
      "name": "MAX_SIGNER_INDEX",
      "outputs": [
        {
          "internalType": "uint256",
          "name": "",
          "type": "uint256"
        }
      ],
      "stateMutability": "view",
      "type": "function"
    },
    {
      "inputs": [],
      "name": "SALT",
      "outputs": [
        {
          "internalType": "bytes32",
          "name": "",
          "type": "bytes32"
        }
      ],
      "stateMutability": "view",
      "type": "function"
    },
    {
      "inputs": [],
      "name": "SIGNER_INDEX_LENGTH",
      "outputs": [
        {
          "internalType": "uint256",
          "name": "",
          "type": "uint256"
        }
      ],
      "stateMutability": "view",
      "type": "function"
    },
    {
      "inputs": [],
      "name": "clearTempPrices",
      "outputs": [],
      "stateMutability": "nonpayable",
      "type": "function"
    },
    {
      "inputs": [
        {
          "internalType": "address",
          "name": "",
          "type": "address"
        }
      ],
      "name": "customPrices",
      "outputs": [
        {
          "internalType": "uint256",
          "name": "min",
          "type": "uint256"
        },
        {
          "internalType": "uint256",
          "name": "max",
          "type": "uint256"
        }
      ],
      "stateMutability": "view",
      "type": "function"
    },
    {
      "inputs": [
        {
          "internalType": "address",
          "name": "token",
          "type": "address"
        }
      ],
      "name": "getCustomPrice",
      "outputs": [
        {
          "components": [
            {
              "internalType": "uint256",
              "name": "min",
              "type": "uint256"
            },
            {
              "internalType": "uint256",
              "name": "max",
              "type": "uint256"
            }
          ],
          "internalType": "struct Price.Props",
          "name": "",
          "type": "tuple"
        }
      ],
      "stateMutability": "view",
      "type": "function"
    },
    {
      "inputs": [
        {
          "internalType": "address",
          "name": "token",
          "type": "address"
        }
      ],
      "name": "getLatestPrice",
      "outputs": [
        {
          "components": [
            {
              "internalType": "uint256",
              "name": "min",
              "type": "uint256"
            },
            {
              "internalType": "uint256",
              "name": "max",
              "type": "uint256"
            }
          ],
          "internalType": "struct Price.Props",
          "name": "",
          "type": "tuple"
        }
      ],
      "stateMutability": "view",
      "type": "function"
    },
    {
      "inputs": [
        {
          "internalType": "contract DataStore",
          "name": "dataStore",
          "type": "address"
        },
        {
          "internalType": "address",
          "name": "token",
          "type": "address"
        }
      ],
      "name": "getPrecision",
      "outputs": [
        {
          "internalType": "uint256",
          "name": "",
          "type": "uint256"
        }
      ],
      "stateMutability": "view",
      "type": "function"
    },
    {
      "inputs": [
        {
          "internalType": "address",
          "name": "token",
          "type": "address"
        }
      ],
      "name": "getPrimaryPrice",
      "outputs": [
        {
          "components": [
            {
              "internalType": "uint256",
              "name": "min",
              "type": "uint256"
            },
            {
              "internalType": "uint256",
              "name": "max",
              "type": "uint256"
            }
          ],
          "internalType": "struct Price.Props",
          "name": "",
          "type": "tuple"
        }
      ],
      "stateMutability": "view",
      "type": "function"
    },
    {
      "inputs": [
        {
          "internalType": "address",
          "name": "token",
          "type": "address"
        }
      ],
      "name": "getSecondaryPrice",
      "outputs": [
        {
          "components": [
            {
              "internalType": "uint256",
              "name": "min",
              "type": "uint256"
            },
            {
              "internalType": "uint256",
              "name": "max",
              "type": "uint256"
            }
          ],
          "internalType": "struct Price.Props",
          "name": "",
          "type": "tuple"
        }
      ],
      "stateMutability": "view",
      "type": "function"
    },
    {
      "inputs": [
        {
          "internalType": "uint256",
          "name": "start",
          "type": "uint256"
        },
        {
          "internalType": "uint256",
          "name": "end",
          "type": "uint256"
        }
      ],
      "name": "getTempTokens",
      "outputs": [
        {
          "internalType": "address[]",
          "name": "",
          "type": "address[]"
        }
      ],
      "stateMutability": "view",
      "type": "function"
    },
    {
      "inputs": [],
      "name": "getTempTokensCount",
      "outputs": [
        {
          "internalType": "uint256",
          "name": "",
          "type": "uint256"
        }
      ],
      "stateMutability": "view",
      "type": "function"
    },
    {
      "inputs": [],
      "name": "gov",
      "outputs": [
        {
          "internalType": "address",
          "name": "",
          "type": "address"
        }
      ],
      "stateMutability": "view",
      "type": "function"
    },
    {
      "inputs": [],
      "name": "oracleStore",
      "outputs": [
        {
          "internalType": "contract OracleStore",
          "name": "",
          "type": "address"
        }
      ],
      "stateMutability": "view",
      "type": "function"
    },
    {
      "inputs": [
        {
          "internalType": "address",
          "name": "",
          "type": "address"
        }
      ],
      "name": "primaryPrices",
      "outputs": [
        {
          "internalType": "uint256",
          "name": "min",
          "type": "uint256"
        },
        {
          "internalType": "uint256",
          "name": "max",
          "type": "uint256"
        }
      ],
      "stateMutability": "view",
      "type": "function"
    },
    {
      "inputs": [
        {
          "internalType": "address",
          "name": "",
          "type": "address"
        }
      ],
      "name": "secondaryPrices",
      "outputs": [
        {
          "internalType": "uint256",
          "name": "min",
          "type": "uint256"
        },
        {
          "internalType": "uint256",
          "name": "max",
          "type": "uint256"
        }
      ],
      "stateMutability": "view",
      "type": "function"
    },
    {
      "inputs": [
        {
          "internalType": "address",
          "name": "token",
          "type": "address"
        },
        {
          "components": [
            {
              "internalType": "uint256",
              "name": "min",
              "type": "uint256"
            },
            {
              "internalType": "uint256",
              "name": "max",
              "type": "uint256"
            }
          ],
          "internalType": "struct Price.Props",
          "name": "price",
          "type": "tuple"
        }
      ],
      "name": "setCustomPrice",
      "outputs": [],
      "stateMutability": "nonpayable",
      "type": "function"
    },
    {
      "inputs": [
        {
          "internalType": "address",
          "name": "_gov",
          "type": "address"
        }
      ],
      "name": "setGov",
      "outputs": [],
      "stateMutability": "nonpayable",
      "type": "function"
    },
    {
      "inputs": [
        {
          "internalType": "contract DataStore",
          "name": "dataStore",
          "type": "address"
        },
        {
          "internalType": "contract EventEmitter",
          "name": "eventEmitter",
          "type": "address"
        },
        {
          "components": [
            {
              "internalType": "uint256",
              "name": "signerInfo",
              "type": "uint256"
            },
            {
              "internalType": "address[]",
              "name": "tokens",
              "type": "address[]"
            },
            {
              "internalType": "uint256[]",
              "name": "compactedOracleBlockNumbers",
              "type": "uint256[]"
            },
            {
              "internalType": "uint256[]",
              "name": "compactedMinPrices",
              "type": "uint256[]"
            },
            {
              "internalType": "uint256[]",
              "name": "compactedMinPricesIndexes",
              "type": "uint256[]"
            },
            {
              "internalType": "uint256[]",
              "name": "compactedMaxPrices",
              "type": "uint256[]"
            },
            {
              "internalType": "uint256[]",
              "name": "compactedMaxPricesIndexes",
              "type": "uint256[]"
            },
            {
              "internalType": "bytes[]",
              "name": "signatures",
              "type": "bytes[]"
            },
            {
              "internalType": "address[]",
              "name": "priceFeedTokens",
              "type": "address[]"
            }
          ],
          "internalType": "struct OracleUtils.SetPricesParams",
          "name": "params",
          "type": "tuple"
        }
      ],
      "name": "setPrices",
      "outputs": [],
      "stateMutability": "nonpayable",
      "type": "function"
    },
    {
      "inputs": [
        {
          "internalType": "address",
          "name": "token",
          "type": "address"
        },
        {
          "components": [
            {
              "internalType": "uint256",
              "name": "min",
              "type": "uint256"
            },
            {
              "internalType": "uint256",
              "name": "max",
              "type": "uint256"
            }
          ],
          "internalType": "struct Price.Props",
          "name": "price",
          "type": "tuple"
        }
      ],
      "name": "setSecondaryPrice",
      "outputs": [],
      "stateMutability": "nonpayable",
      "type": "function"
    }
  ],
  "transactionHash": "0xfb9d77233a34b679edc9d6b568eb98c8a9e1848ef65b6a9952749eddc8ed3b35",
  "args": [
    "0x5FbDB2315678afecb367f032d93F642f64180aa3",
    "0xCf7Ed3AccA5a467e9e704C703E8D87F634fB0Fc9"
  ],
  "numDeployments": 1,
  "solcInputHash": "5a19200e07267844d5f5ac65da21599c",
  "bytecode": "0x60c06040523480156200001157600080fd5b5060405162002e3338038062002e33833981016040819052620000349162000141565b816200004033620000c7565b6001600160a01b03908116608052600180549183166001600160a01b0319909216919091179055604051620000a3904690602001908152604060208201819052600e908201526d786765742d6f7261636c652d763160901b606082015260800190565b60408051601f19818403018152919052805160209091012060a05250620001809050565b600080546001600160a01b038381166001600160a01b031983168117909355604080519190921680825260208201939093527f53351836099c03ffc3b1727d8abd4b0222afa87d4ed76ae3102d51369ef7f785910160405180910390a15050565b6001600160a01b03811681146200013e57600080fd5b50565b600080604083850312156200015557600080fd5b8251620001628162000128565b6020840151909250620001758162000128565b809150509250929050565b60805160a051612c86620001ad600039600081816102c90152611c7201526000610ba60152612c866000f3fe608060405234801561001057600080fd5b50600436106101075760003560e01c806312d43a511461010c57806316345f18146101355780631a48897f146101635780632986cc4314610179578063392bf7f61461018e5780633b9f9bd2146101a157806359ecd657146101a95780635dcf7194146101b157806363c9d056146101c45780636a22ad2b146101f957806383a2aae21461020c57806389fd4d3d1461021f578063914687f114610232578063968270ce14610245578063a2bbd6041461026c578063ad3be44d14610293578063b26c9d791461029b578063b74da61d146102bb578063ba9a91a5146102c4578063cfad57a2146102eb578063e3458b79146102fe575b600080fd5b60005461011f906001600160a01b031681565b60405161012c9190612407565b60405180910390f35b610148610143366004612430565b610311565b6040805182518152602092830151928101929092520161012c565b61016b6103b4565b60405190815260200161012c565b61018c6101873660046124bc565b6103c5565b005b60015461011f906001600160a01b031681565b61016b601081565b61016b61042a565b6101486101bf366004612430565b610446565b6101eb6101d2366004612430565b6005602052600090815260409020805460019091015482565b60405161012c929190612530565b61016b61020736600461253e565b6104ad565b61014861021a366004612430565b610553565b61014861022d366004612430565b6105b4565b61018c61024036600461274c565b610615565b6101eb610253366004612430565b6006602052600090815260409020805460019091015482565b6101eb61027a366004612430565b6004602052600090815260409020805460019091015482565b61018c6109dc565b6102ae6102a93660046128e8565b610aa3565b60405161012c919061290a565b61016b61010081565b61016b7f000000000000000000000000000000000000000000000000000000000000000081565b61018c6102f9366004612430565b610ab1565b61018c61030c3660046124bc565b610b06565b6103196123ed565b6001600160a01b03821660008181526004602090815260408083208151808301835281548152600191820154818501529484526005835292819020815180830190925280548252909201549082015261037181610b6b565b61037c579392505050565b61038582610b6b565b610390575092915050565b836040516305346b4b60e41b81526004016103ab9190612407565b60405180910390fd5b60006103c06002610b80565b905090565b6103ff600080516020612c118339815191526040518060400160405280600a81526020016921a7a72a2927a62622a960b11b815250610b8a565b6001600160a01b03909116600090815260056020908152604090912082518155910151600190910155565b60016104396010610100612983565b6104439190612997565b81565b61044e6123ed565b6001600160a01b038216600090815260046020908152604091829020825180840190935280548352600101549082015261048781610b6b565b156104a7578260405163cd64a02560e01b81526004016103ab9190612407565b92915050565b600080836001600160a01b031663bd02d0f56104c885610c3a565b6040518263ffffffff1660e01b81526004016104e691815260200190565b602060405180830381865afa158015610503573d6000803e3d6000fd5b505050506040513d601f19601f8201168201806040525081019061052791906129aa565b90508060000361054c5782604051630c3e1a9560e41b81526004016103ab9190612407565b9392505050565b61055b6123ed565b6001600160a01b038216600090815260056020908152604091829020825180840190935280548352600101549082015261059481610b6b565b156104a7578260405163158a924160e01b81526004016103ab9190612407565b6105bc6123ed565b6001600160a01b03821660009081526006602090815260409182902082518084019093528054835260010154908201526105f581610b6b565b156104a75782604051634bf444af60e11b81526004016103ab9190612407565b61064f600080516020612c118339815191526040518060400160405280600a81526020016921a7a72a2927a62622a960b11b815250610b8a565b6106596002610b80565b156106a65760405162461bcd60e51b815260206004820152601e60248201527f4f7261636c653a2074656d70546f6b656e73206e6f7420636c6561726564000060448201526064016103ab565b8060200151516000036106cc57604051631335351b60e31b815260040160405180910390fd5b805160009061ffff166001600160401b038111156106ec576106ec61244d565b604051908082528060200260200182016040528015610715578160200160208202803683370190505b5060405163bd02d0f560e01b8152600080516020612c3183398151915260048201529091506001600160a01b0385169063bd02d0f590602401602060405180830381865afa15801561076b573d6000803e3d6000fd5b505050506040513d601f19601f8201168201806040525081019061078f91906129aa565b8151101561082a57805160405163bd02d0f560e01b8152600080516020612c3183398151915260048201526001600160a01b0386169063bd02d0f590602401602060405180830381865afa1580156107eb573d6000803e3d6000fd5b505050506040513d601f19601f8201168201806040525081019061080f91906129aa565b6040516354f3110960e11b81526004016103ab929190612530565b60016108396010610100612983565b6108439190612997565b81511115610881578051600161085c6010610100612983565b6108669190612997565b60405163345da1b360e01b81526004016103ab929190612530565b6000805b82518110156109b857600061ffff61089e8360106129c3565b6108a99060106129e2565b8651901c16905061010081106108d85780610100604051633444aeaf60e21b81526004016103ab929190612530565b6001811b8381161561090057604051639f4f72e160e01b8152600481018390526024016103ab565b600154604051631fff7f2760e11b815260048101849052948217946001600160a01b0390911690633ffefe4e90602401602060405180830381865afa15801561094d573d6000803e3d6000fd5b505050506040513d601f19601f8201168201806040525081019061097191906129f5565b85848151811061098357610983612a12565b60200260200101906001600160a01b031690816001600160a01b031681525050505080806109b090612a28565b915050610885565b506109c585858486610c94565b6109d585858561010001516115a8565b5050505050565b610a16600080516020612c118339815191526040518060400160405280600a81526020016921a7a72a2927a62622a960b11b815250610b8a565b6000610a226002610b80565b905060005b81811015610a9f576000610a3c60028261195d565b6001600160a01b038116600090815260046020908152604080832083815560019081018490556005835281842084815581018490556006909252822082815501559050610a8a600282611969565b50508080610a9790612a28565b915050610a27565b5050565b606061054c6002848461197e565b6000546001600160a01b03163314610afa576040805163a35b150b60e01b81523360048201526024810191909152600360448201526223a7ab60e91b60648201526084016103ab565b610b0381611a4b565b50565b610b40600080516020612c118339815191526040518060400160405280600a81526020016921a7a72a2927a62622a960b11b815250610b8a565b6001600160a01b03909116600090815260066020908152604090912082518155910151600190910155565b805160009015806104a7575050602001511590565b60006104a7825490565b60405163ac4ab3fb60e01b8152336004820152602481018390527f00000000000000000000000000000000000000000000000000000000000000006001600160a01b03169063ac4ab3fb90604401602060405180830381865afa158015610bf5573d6000803e3d6000fd5b505050506040513d601f19601f82011682018060405250810190610c199190612a41565b610a9f57338160405163a35b150b60e01b81526004016103ab929190612aa9565b60006040518060400160405280601081526020016f27a920a1a622afa82922a1a4a9a4a7a760811b81525082604051602001610c77929190612acd565b604051602081830303815290604052805190602001209050919050565b610cf96040518061014001604052806000815260200160008152602001600081526020016000801916815260200160006001600160a01b0316815260200160008019168152602001600081526020016000815260200160608152602001606081525090565b60405163bd02d0f560e01b81527fc5f146385442601b83dc692a2045a6a51c328c57eb744cd7fe9db21ece2732ea60048201526001600160a01b0386169063bd02d0f590602401602060405180830381865afa158015610d5d573d6000803e3d6000fd5b505050506040513d601f19601f82011682018060405250810190610d8191906129aa565b815260405163bd02d0f560e01b81527ff29e6bd77bed61b07ec6a7881427e90c9600db7bb81d2d475f1b744dcdd852ef60048201526001600160a01b0386169063bd02d0f590602401602060405180830381865afa158015610de7573d6000803e3d6000fd5b505050506040513d601f19601f82011682018060405250810190610e0b91906129aa565b60e082015260005b8260200151518110156115a057610e2e836040015182611aaa565b6040830152610e3b611ae4565b82604001511115610e67578160400151604051634fa557df60e11b81526004016103ab91815260200190565b610e6f611ae4565b8260e001518360400151610e8391906129e2565b1015610eaa57816040015160405163403b4b8f60e11b81526004016103ab91815260200190565b816020015182604001511015610edf57816040015182602001516040516311aeaf6b60e01b81526004016103ab929190612530565b60408201516020830181905260006060840152825190610efd611ae4565b610f079190612997565b11610f1f57610f198260400151611b65565b60608301525b82602001518181518110610f3557610f35612a12565b60209081029190910101516001600160a01b0390811660808401819052908716906354f6127f90610f6590611be4565b6040518263ffffffff1660e01b8152600401610f8391815260200190565b602060405180830381865afa158015610fa0573d6000803e3d6000fd5b505050506040513d601f19601f82011682018060405250810190610fc491906129aa565b60a083015283516001600160401b03811115610fe257610fe261244d565b60405190808252806020026020018201604052801561100b578160200160208202803683370190505b5061010083015283516001600160401b0381111561102b5761102b61244d565b604051908082528060200260200182016040528015611054578160200160208202803683370190505b5061012083015260005b845181101561125e5761107984606001518460c00151611c1c565b836101000151828151811061109057611090612a12565b6020026020010181815250506110ae8460a001518460c00151611c1c565b83610120015182815181106110c5576110c5612a12565b6020908102919091010152801561124c5782610100015181815181106110ed576110ed612a12565b60200260200101518361010001516001836111089190612997565b8151811061111857611118612a12565b60200260200101511115611191578260800151836101000151828151811061114257611142612a12565b602002602001015184610100015160018461115d9190612997565b8151811061116d5761116d612a12565b60200260200101516040516312e64acd60e21b81526004016103ab93929190612af7565b82610120015181815181106111a8576111a8612a12565b60200260200101518361012001516001836111c39190612997565b815181106111d3576111d3612a12565b6020026020010151111561124c57826080015183610120015182815181106111fd576111fd612a12565b60200260200101518461012001516001846112189190612997565b8151811061122857611228612a12565b6020026020010151604051633d4156e560e21b81526004016103ab93929190612af7565b8061125681612a28565b91505061105e565b5060005b845181101561135f578085518361127991906129c3565b61128391906129e2565b60c08401819052608085015160009161129c9190611c53565b905060006112b28660c001518660c00151611c53565b905061134a8560400151866060015187608001518860a0015189610100015187815181106112e2576112e2612a12565b60200260200101518a6101200151878151811061130157611301612a12565b60200260200101518c60e001518c60c001518151811061132357611323612a12565b60200260200101518e8b8151811061133d5761133d612a12565b6020026020010151611c6c565b5050808061135790612a28565b915050611262565b5060006113708784608001516104ad565b61137e846101000151611d3f565b61138891906129c3565b9050600061139a8885608001516104ad565b6113a8856101200151611d3f565b6113b291906129c3565b90508115806113bf575080155b156113e35783608001516040516303a4d96160e51b81526004016103ab9190612407565b60808401516001600160a01b0316600090815260046020908152604091829020825180840190935280548352600101549082015261142090610b6b565b156114d257608084015160405163c2b7f0e360e01b81526001600160a01b0389169163c2b7f0e39161145f919086908690600190600090600401612b18565b600060405180830381600087803b15801561147957600080fd5b505af115801561148d573d6000803e3d6000fd5b5050604080518082018252858152602080820186815260808a01516001600160a01b031660009081526004909252929020905181559051600190910155506115799050565b608084015160405163c2b7f0e360e01b81526001600160a01b0389169163c2b7f0e39161150b9190869086906000908190600401612b18565b600060405180830381600087803b15801561152557600080fd5b505af1158015611539573d6000803e3d6000fd5b5050604080518082018252858152602080820186815260808a01516001600160a01b03166000908152600590925292902090518155905160019091015550505b608084015161158a90600290611df4565b505050808061159890612a28565b915050610e13565b505050505050565b60005b81518110156119575760008282815181106115c8576115c8612a12565b6020026020010151905061161e60046000836001600160a01b03166001600160a01b0316815260200190815260200160002060405180604001604052908160008201548152602001600182015481525050610b6b565b6116665760405162461bcd60e51b815260206004820152601960248201527813dc9858db194e881c1c9a58d948185b1c9958591e481cd95d603a1b60448201526064016103ab565b6000856001600160a01b03166321f8a72161168084611e09565b6040518263ffffffff1660e01b815260040161169e91815260200190565b602060405180830381865afa1580156116bb573d6000803e3d6000fd5b505050506040513d601f19601f820116820180604052508101906116df91906129f5565b90506001600160a01b0381166117345760405162461bcd60e51b815260206004820152601a60248201527913dc9858db194e881a5b9d985b1a59081c1c9a58d9481999595960321b60448201526064016103ab565b60008190506000816001600160a01b031663feaf968c6040518163ffffffff1660e01b815260040160a060405180830381865afa158015611779573d6000803e3d6000fd5b505050506040513d601f19601f8201168201806040525081019061179d9190612b66565b50505091505060006117ae82611e40565b90506000896001600160a01b031663bd02d0f56117ca88611e96565b6040518263ffffffff1660e01b81526004016117e891815260200190565b602060405180830381865afa158015611805573d6000803e3d6000fd5b505050506040513d601f19601f8201168201806040525081019061182991906129aa565b90508060000361184e57856040516304e3431b60e01b81526004016103ab9190612407565b68327cb2734119d3b7a9601e1b61186582846129c3565b61186f9190612983565b9150816000036118945785604051631407006f60e01b81526004016103ab9190612407565b60408051808201825283815260208082018581526001600160a01b038a16600090815260049092529290209051815590516001909101556118d6600287611df4565b5060405163c2b7f0e360e01b81526001600160a01b038a169063c2b7f0e39061190c908990869081906001908190600401612b18565b600060405180830381600087803b15801561192657600080fd5b505af115801561193a573d6000803e3d6000fd5b50505050505050505050808061194f90612a28565b9150506115ab565b50505050565b600061054c8383611ed7565b600061054c836001600160a01b038416611f01565b6060600061198b85610b80565b905080831115611999578092505b60006119a58585612997565b6001600160401b038111156119bc576119bc61244d565b6040519080825280602002602001820160405280156119e5578160200160208202803683370190505b509050845b84811015611a41576119fc878261195d565b82611a078884612997565b81518110611a1757611a17612a12565b6001600160a01b039092166020928302919091019091015280611a3981612a28565b9150506119ea565b5095945050505050565b600080546001600160a01b038381166001600160a01b03198316179092556040519116907f53351836099c03ffc3b1727d8abd4b0222afa87d4ed76ae3102d51369ef7f78590611a9e9083908590612bb6565b60405180910390a15050565b600080611ac1848460406001600160401b03611ff4565b90508060000361054c576040516329d56bcd60e21b815260040160405180910390fd5b600061a4b1461480611af8575062066eeb46145b15611b605760646001600160a01b031663a3b1b31d6040518163ffffffff1660e01b8152600401602060405180830381865afa158015611b3c573d6000803e3d6000fd5b505050506040513d601f19601f820116820180604052508101906103c091906129aa565b504390565b600061a4b1461480611b79575062066eeb46145b15611bdf576040516315a03d4160e11b815260048101839052606490632b407a8290602401602060405180830381865afa158015611bbb573d6000803e3d6000fd5b505050506040513d601f19601f820116820180604052508101906104a791906129aa565b504090565b60006040518060400160405280600b81526020016a4f5241434c455f5459504560a81b81525082604051602001610c77929190612acd565b600080611c308484602063ffffffff611ff4565b90508060000361054c57604051632c3be8db60e21b815260040160405180910390fd5b600080611c648484600860ff611ff4565b949350505050565b604080517f00000000000000000000000000000000000000000000000000000000000000006020820152908101899052606081018890526001600160a01b038716608082015260a0810186905260c0810185905260e08101849052600090611ced906101000160405160208183030381529060405280519060200120612067565b90506000611cfb82856120a1565b9050826001600160a01b0316816001600160a01b031614611d335780836040516310b5d43760e21b81526004016103ab929190612bb6565b50505050505050505050565b600060028251611d4f9190612bd0565b600103611d84578160028351611d659190612983565b81518110611d7557611d75612a12565b60200260200101519050919050565b600282600160028551611d979190612983565b611da19190612997565b81518110611db157611db1612a12565b60200260200101518360028551611dc89190612983565b81518110611dd857611dd8612a12565b6020026020010151611dea91906129e2565b6104a79190612983565b600061054c836001600160a01b0384166120c5565b60006040518060400160405280600a81526020016914149250d157d191515160b21b81525082604051602001610c77929190612acd565b600080821215611e925760405162461bcd60e51b815260206004820181905260248201527f53616665436173743a2076616c7565206d75737420626520706f73697469766560448201526064016103ab565b5090565b600060405180604001604052806014815260200173282924a1a2afa322a2a22fa82922a1a4a9a4a7a760611b81525082604051602001610c77929190612acd565b6000826000018281548110611eee57611eee612a12565b9060005260206000200154905092915050565b60008181526001830160205260408120548015611fea576000611f25600183612997565b8554909150600090611f3990600190612997565b9050818114611f9e576000866000018281548110611f5957611f59612a12565b9060005260206000200154905080876000018481548110611f7c57611f7c612a12565b6000918252602080832090910192909255918252600188019052604090208390555b8554869080611faf57611faf612be4565b6001900381819060005260206000200160009055905585600101600086815260200190815260200160002060009055600193505050506104a7565b60009150506104a7565b60008061200384610100612983565b905060006120118287612983565b9050600087828151811061202757612027612a12565b60200260200101519050600086848461204091906129c3565b61204a908a612997565b61205491906129c3565b9190911c85169350505050949350505050565b6040517b0ca2ba3432b932bab69029b4b3b732b21026b2b9b9b0b3b29d05199960211b6020820152603c8101829052600090605c01610c77565b60008060006120b08585612114565b915091506120bd81612159565b509392505050565b600081815260018301602052604081205461210c575081546001818101845560008481526020808220909301849055845484825282860190935260409020919091556104a7565b5060006104a7565b600080825160410361214a5760208301516040840151606085015160001a61213e8782858561230a565b94509450505050612152565b506000905060025b9250929050565b600081600481111561216d5761216d612bfa565b036121755750565b600181600481111561218957612189612bfa565b036121d15760405162461bcd60e51b815260206004820152601860248201527745434453413a20696e76616c6964207369676e617475726560401b60448201526064016103ab565b60028160048111156121e5576121e5612bfa565b036122325760405162461bcd60e51b815260206004820152601f60248201527f45434453413a20696e76616c6964207369676e6174757265206c656e6774680060448201526064016103ab565b600381600481111561224657612246612bfa565b0361229e5760405162461bcd60e51b815260206004820152602260248201527f45434453413a20696e76616c6964207369676e6174757265202773272076616c604482015261756560f01b60648201526084016103ab565b60048160048111156122b2576122b2612bfa565b03610b035760405162461bcd60e51b815260206004820152602260248201527f45434453413a20696e76616c6964207369676e6174757265202776272076616c604482015261756560f01b60648201526084016103ab565b6000806fa2a8918ca85bafe22016d0b997e4df60600160ff1b0383111561233757506000905060036123e4565b8460ff16601b1415801561234f57508460ff16601c14155b1561236057506000905060046123e4565b6040805160008082526020820180845289905260ff881692820192909252606081018690526080810185905260019060a0016020604051602081039080840390855afa1580156123b4573d6000803e3d6000fd5b5050604051601f1901519150506001600160a01b0381166123dd576000600192509250506123e4565b9150600090505b94509492505050565b604051806040016040528060008152602001600081525090565b6001600160a01b0391909116815260200190565b6001600160a01b0381168114610b0357600080fd5b60006020828403121561244257600080fd5b813561054c8161241b565b634e487b7160e01b600052604160045260246000fd5b60405161012081016001600160401b03811182821017156124865761248661244d565b60405290565b604051601f8201601f191681016001600160401b03811182821017156124b4576124b461244d565b604052919050565b60008082840360608112156124d057600080fd5b83356124db8161241b565b92506040601f19820112156124ef57600080fd5b50604080519081016001600160401b03811182821017156125125761251261244d565b60409081526020858101358352940135938101939093525092909150565b918252602082015260400190565b6000806040838503121561255157600080fd5b823561255c8161241b565b9150602083013561256c8161241b565b809150509250929050565b60006001600160401b038211156125905761259061244d565b5060051b60200190565b600082601f8301126125ab57600080fd5b813560206125c06125bb83612577565b61248c565b82815260059290921b840181019181810190868411156125df57600080fd5b8286015b848110156126035780356125f68161241b565b83529183019183016125e3565b509695505050505050565b600082601f83011261261f57600080fd5b8135602061262f6125bb83612577565b82815260059290921b8401810191818101908684111561264e57600080fd5b8286015b848110156126035780358352918301918301612652565b6000601f838184011261267b57600080fd5b8235602061268b6125bb83612577565b82815260059290921b850181019181810190878411156126aa57600080fd5b8287015b848110156127405780356001600160401b03808211156126ce5760008081fd5b818a0191508a603f8301126126e35760008081fd5b858201356040828211156126f9576126f961244d565b61270a828b01601f1916890161248c565b92508183528c818386010111156127215760008081fd5b81818501898501375060009082018701528452509183019183016126ae565b50979650505050505050565b60008060006060848603121561276157600080fd5b833561276c8161241b565b9250602084013561277c8161241b565b915060408401356001600160401b038082111561279857600080fd5b9085019061012082880312156127ad57600080fd5b6127b5612463565b823581526020830135828111156127cb57600080fd5b6127d78982860161259a565b6020830152506040830135828111156127ef57600080fd5b6127fb8982860161260e565b60408301525060608301358281111561281357600080fd5b61281f8982860161260e565b60608301525060808301358281111561283757600080fd5b6128438982860161260e565b60808301525060a08301358281111561285b57600080fd5b6128678982860161260e565b60a08301525060c08301358281111561287f57600080fd5b61288b8982860161260e565b60c08301525060e0830135828111156128a357600080fd5b6128af89828601612669565b60e08301525061010080840135838111156128c957600080fd5b6128d58a82870161259a565b8284015250508093505050509250925092565b600080604083850312156128fb57600080fd5b50508035926020909101359150565b6020808252825182820181905260009190848201906040850190845b8181101561294b5783516001600160a01b031683529284019291840191600101612926565b50909695505050505050565b634e487b7160e01b600052601260045260246000fd5b634e487b7160e01b600052601160045260246000fd5b60008261299257612992612957565b500490565b818103818111156104a7576104a761296d565b6000602082840312156129bc57600080fd5b5051919050565b60008160001904831182151516156129dd576129dd61296d565b500290565b808201808211156104a7576104a761296d565b600060208284031215612a0757600080fd5b815161054c8161241b565b634e487b7160e01b600052603260045260246000fd5b600060018201612a3a57612a3a61296d565b5060010190565b600060208284031215612a5357600080fd5b8151801515811461054c57600080fd5b6000815180845260005b81811015612a8957602081850181015186830182015201612a6d565b506000602082860101526020601f19601f83011685010191505092915050565b6001600160a01b0383168152604060208201819052600090611c6490830184612a63565b604081526000612ae06040830185612a63565b905060018060a01b03831660208301529392505050565b6001600160a01b039390931683526020830191909152604082015260600190565b6001600160a01b0395909516855260208501939093526040840191909152151560608301521515608082015260a00190565b80516001600160501b0381168114612b6157600080fd5b919050565b600080600080600060a08688031215612b7e57600080fd5b612b8786612b4a565b9450602086015193506040860151925060608601519150612baa60808701612b4a565b90509295509295909350565b6001600160a01b0392831681529116602082015260400190565b600082612bdf57612bdf612957565b500690565b634e487b7160e01b600052603160045260246000fd5b634e487b7160e01b600052602160045260246000fdfe70546d1c92f8c2132ae23a23f5177aa8526356051c7510df99f50e012d2215293068f19c1b3fe1cfef45b175668db422de7f776d9c40328ad069d583f75f55caa26469706673582212206f1b0bec859022e76b4200f33d9089d90cdc3fdabeb00904cf71dce00f0501d364736f6c63430008100033",
  "devdoc": {
    "kind": "dev",
    "methods": {},
    "version": 1
  },
  "userdoc": {
    "kind": "user",
    "methods": {},
    "version": 1
  },
  "storageLayout": {
    "storage": [
      {
        "astId": 10641,
        "contract": "contracts/oracle/Oracle.sol:Oracle",
        "label": "gov",
        "offset": 0,
        "slot": "0",
        "type": "t_address"
      },
      {
        "astId": 13304,
        "contract": "contracts/oracle/Oracle.sol:Oracle",
        "label": "oracleStore",
        "offset": 0,
        "slot": "1",
        "type": "t_contract(OracleStore)14703"
      },
      {
        "astId": 13307,
        "contract": "contracts/oracle/Oracle.sol:Oracle",
        "label": "tempTokens",
        "offset": 0,
        "slot": "2",
        "type": "t_struct(AddressSet)4299_storage"
      },
      {
        "astId": 13312,
        "contract": "contracts/oracle/Oracle.sol:Oracle",
        "label": "primaryPrices",
        "offset": 0,
        "slot": "4",
        "type": "t_mapping(t_address,t_struct(Props)20059_storage)"
      },
      {
        "astId": 13317,
        "contract": "contracts/oracle/Oracle.sol:Oracle",
        "label": "secondaryPrices",
        "offset": 0,
        "slot": "5",
        "type": "t_mapping(t_address,t_struct(Props)20059_storage)"
      },
      {
        "astId": 13322,
        "contract": "contracts/oracle/Oracle.sol:Oracle",
        "label": "customPrices",
        "offset": 0,
        "slot": "6",
        "type": "t_mapping(t_address,t_struct(Props)20059_storage)"
      }
    ],
    "types": {
      "t_address": {
        "encoding": "inplace",
        "label": "address",
        "numberOfBytes": "20"
      },
      "t_array(t_bytes32)dyn_storage": {
        "base": "t_bytes32",
        "encoding": "dynamic_array",
        "label": "bytes32[]",
        "numberOfBytes": "32"
      },
      "t_bytes32": {
        "encoding": "inplace",
        "label": "bytes32",
        "numberOfBytes": "32"
      },
      "t_contract(OracleStore)14703": {
        "encoding": "inplace",
        "label": "contract OracleStore",
        "numberOfBytes": "20"
      },
      "t_mapping(t_address,t_struct(Props)20059_storage)": {
        "encoding": "mapping",
        "key": "t_address",
        "label": "mapping(address => struct Price.Props)",
        "numberOfBytes": "32",
        "value": "t_struct(Props)20059_storage"
      },
      "t_mapping(t_bytes32,t_uint256)": {
        "encoding": "mapping",
        "key": "t_bytes32",
        "label": "mapping(bytes32 => uint256)",
        "numberOfBytes": "32",
        "value": "t_uint256"
      },
      "t_struct(AddressSet)4299_storage": {
        "encoding": "inplace",
        "label": "struct EnumerableSet.AddressSet",
        "members": [
          {
            "astId": 4298,
            "contract": "contracts/oracle/Oracle.sol:Oracle",
            "label": "_inner",
            "offset": 0,
            "slot": "0",
            "type": "t_struct(Set)3998_storage"
          }
        ],
        "numberOfBytes": "64"
      },
      "t_struct(Props)20059_storage": {
        "encoding": "inplace",
        "label": "struct Price.Props",
        "members": [
          {
            "astId": 20056,
            "contract": "contracts/oracle/Oracle.sol:Oracle",
            "label": "min",
            "offset": 0,
            "slot": "0",
            "type": "t_uint256"
          },
          {
            "astId": 20058,
            "contract": "contracts/oracle/Oracle.sol:Oracle",
            "label": "max",
            "offset": 0,
            "slot": "1",
            "type": "t_uint256"
          }
        ],
        "numberOfBytes": "64"
      },
      "t_struct(Set)3998_storage": {
        "encoding": "inplace",
        "label": "struct EnumerableSet.Set",
        "members": [
          {
            "astId": 3993,
            "contract": "contracts/oracle/Oracle.sol:Oracle",
            "label": "_values",
            "offset": 0,
            "slot": "0",
            "type": "t_array(t_bytes32)dyn_storage"
          },
          {
            "astId": 3997,
            "contract": "contracts/oracle/Oracle.sol:Oracle",
            "label": "_indexes",
            "offset": 0,
            "slot": "1",
            "type": "t_mapping(t_bytes32,t_uint256)"
          }
        ],
        "numberOfBytes": "64"
      },
      "t_uint256": {
        "encoding": "inplace",
        "label": "uint256",
        "numberOfBytes": "32"
      }
    }
  }
}