{
  "address": "0xCf7Ed3AccA5a467e9e704C703E8D87F634fB0Fc9",
  "abi": [
    {
      "inputs": [
        {
          "internalType": "contract RoleStore",
          "name": "_roleStore",
          "type": "address"
        }
      ],
      "stateMutability": "nonpayable",
      "type": "constructor"
    },
    {
      "inputs": [
        {
          "internalType": "address",
          "name": "msgSender",
          "type": "address"
        },
        {
          "internalType": "string",
          "name": "role",
          "type": "string"
        }
      ],
      "name": "Unauthorized",
      "type": "error"
    },
    {
      "anonymous": false,
      "inputs": [
        {
          "indexed": false,
          "internalType": "address",
          "name": "prevGov",
          "type": "address"
        },
        {
          "indexed": false,
          "internalType": "address",
          "name": "nextGov",
          "type": "address"
        }
      ],
      "name": "SetGov",
      "type": "event"
    },
    {
      "inputs": [
        {
          "internalType": "address",
          "name": "account",
          "type": "address"
        }
      ],
      "name": "addSigner",
      "outputs": [],
      "stateMutability": "nonpayable",
      "type": "function"
    },
    {
      "inputs": [
        {
          "internalType": "uint256",
          "name": "index",
          "type": "uint256"
        }
      ],
      "name": "getSigner",
      "outputs": [
        {
          "internalType": "address",
          "name": "",
          "type": "address"
        }
      ],
      "stateMutability": "view",
      "type": "function"
    },
    {
      "inputs": [],
      "name": "getSignerCount",
      "outputs": [
        {
          "internalType": "uint256",
          "name": "",
          "type": "uint256"
        }
      ],
      "stateMutability": "view",
      "type": "function"
    },
    {
      "inputs": [
        {
          "internalType": "uint256",
          "name": "start",
          "type": "uint256"
        },
        {
          "internalType": "uint256",
          "name": "end",
          "type": "uint256"
        }
      ],
      "name": "getSigners",
      "outputs": [
        {
          "internalType": "address[]",
          "name": "",
          "type": "address[]"
        }
      ],
      "stateMutability": "view",
      "type": "function"
    },
    {
      "inputs": [],
      "name": "gov",
      "outputs": [
        {
          "internalType": "address",
          "name": "",
          "type": "address"
        }
      ],
      "stateMutability": "view",
      "type": "function"
    },
    {
      "inputs": [
        {
          "internalType": "address",
          "name": "account",
          "type": "address"
        }
      ],
      "name": "removeSigner",
      "outputs": [],
      "stateMutability": "nonpayable",
      "type": "function"
    },
    {
      "inputs": [
        {
          "internalType": "address",
          "name": "_gov",
          "type": "address"
        }
      ],
      "name": "setGov",
      "outputs": [],
      "stateMutability": "nonpayable",
      "type": "function"
    }
  ],
  "transactionHash": "0x20bd03df91707b8035c8321aea0a4d688a9fa572be352a1885e2fff37391131b",
  "args": [
    "0x5FbDB2315678afecb367f032d93F642f64180aa3"
  ],
  "numDeployments": 1,
  "solcInputHash": "94248a78e23524a8af5dba653b641a0b",
  "bytecode": "0x60a060405234801561001057600080fd5b506040516108d33803806108d383398101604081905261002f916100ac565b806100393361004b565b6001600160a01b0316608052506100dc565b600080546001600160a01b038381166001600160a01b031983168117909355604080519190921680825260208201939093527f53351836099c03ffc3b1727d8abd4b0222afa87d4ed76ae3102d51369ef7f785910160405180910390a15050565b6000602082840312156100be57600080fd5b81516001600160a01b03811681146100d557600080fd5b9392505050565b6080516107dc6100f7600039600061026301526107dc6000f3fe608060405234801561001057600080fd5b506004361061006d5760003560e01c80630e316ab71461007257806312d43a51146100875780633ffefe4e146100b7578063b715be81146100ca578063cfad57a2146100e0578063daf6faa6146100f3578063eb12d61e14610113575b600080fd5b6100856100803660046105d1565b610126565b005b60005461009a906001600160a01b031681565b6040516001600160a01b0390911681526020015b60405180910390f35b61009a6100c53660046105fa565b61016f565b6100d2610182565b6040519081526020016100ae565b6100856100ee3660046105d1565b610193565b610106610101366004610613565b6101ed565b6040516100ae9190610635565b6100856101213660046105d1565b610202565b6101606000805160206107878339815191526040518060400160405280600a81526020016921a7a72a2927a62622a960b11b815250610247565b61016b6001826102f7565b5050565b600061017c60018361030c565b92915050565b600061018e6001610318565b905090565b6000546001600160a01b031633146101e1576040805163a35b150b60e01b81523360048201526024810191909152600360448201526223a7ab60e91b60648201526084015b60405180910390fd5b6101ea81610322565b50565b60606101fb60018484610383565b9392505050565b61023c6000805160206107878339815191526040518060400160405280600a81526020016921a7a72a2927a62622a960b11b815250610247565b61016b600182610450565b60405163ac4ab3fb60e01b8152336004820152602481018390527f00000000000000000000000000000000000000000000000000000000000000006001600160a01b03169063ac4ab3fb90604401602060405180830381865afa1580156102b2573d6000803e3d6000fd5b505050506040513d601f19601f820116820180604052508101906102d69190610682565b61016b57338160405163a35b150b60e01b81526004016101d89291906106a4565b60006101fb836001600160a01b038416610465565b60006101fb8383610558565b600061017c825490565b600080546001600160a01b038381166001600160a01b031983168117909355604080519190921680825260208201939093527f53351836099c03ffc3b1727d8abd4b0222afa87d4ed76ae3102d51369ef7f785910160405180910390a15050565b6060600061039085610318565b90508083111561039e578092505b60006103aa8585610718565b6001600160401b038111156103c1576103c161072b565b6040519080825280602002602001820160405280156103ea578160200160208202803683370190505b509050845b8481101561044657610401878261030c565b8261040c8884610718565b8151811061041c5761041c610741565b6001600160a01b03909216602092830291909101909101528061043e81610757565b9150506103ef565b5095945050505050565b60006101fb836001600160a01b038416610582565b6000818152600183016020526040812054801561054e576000610489600183610718565b855490915060009061049d90600190610718565b90508181146105025760008660000182815481106104bd576104bd610741565b90600052602060002001549050808760000184815481106104e0576104e0610741565b6000918252602080832090910192909255918252600188019052604090208390555b855486908061051357610513610770565b60019003818190600052602060002001600090559055856001016000868152602001908152602001600020600090556001935050505061017c565b600091505061017c565b600082600001828154811061056f5761056f610741565b9060005260206000200154905092915050565b60008181526001830160205260408120546105c95750815460018181018455600084815260208082209093018490558454848252828601909352604090209190915561017c565b50600061017c565b6000602082840312156105e357600080fd5b81356001600160a01b03811681146101fb57600080fd5b60006020828403121561060c57600080fd5b5035919050565b6000806040838503121561062657600080fd5b50508035926020909101359150565b6020808252825182820181905260009190848201906040850190845b818110156106765783516001600160a01b031683529284019291840191600101610651565b50909695505050505050565b60006020828403121561069457600080fd5b815180151581146101fb57600080fd5b60018060a01b038316815260006020604081840152835180604085015260005b818110156106e0578581018301518582016060015282016106c4565b506000606082860101526060601f19601f830116850101925050509392505050565b634e487b7160e01b600052601160045260246000fd5b8181038181111561017c5761017c610702565b634e487b7160e01b600052604160045260246000fd5b634e487b7160e01b600052603260045260246000fd5b60006001820161076957610769610702565b5060010190565b634e487b7160e01b600052603160045260246000fdfe70546d1c92f8c2132ae23a23f5177aa8526356051c7510df99f50e012d221529a26469706673582212203f6f3e283e18c5c56846ae45c513e85a6864fb30ee9cac6e93be77b3ff05632e64736f6c63430008100033",
  "devdoc": {
    "kind": "dev",
    "methods": {},
    "version": 1
  },
  "userdoc": {
    "kind": "user",
    "methods": {},
    "version": 1
  },
  "storageLayout": {
    "storage": [
      {
        "astId": 10508,
        "contract": "contracts/oracle/OracleStore.sol:OracleStore",
        "label": "gov",
        "offset": 0,
        "slot": "0",
        "type": "t_address"
      },
      {
        "astId": 14327,
        "contract": "contracts/oracle/OracleStore.sol:OracleStore",
        "label": "signers",
        "offset": 0,
        "slot": "1",
        "type": "t_struct(AddressSet)4299_storage"
      }
    ],
    "types": {
      "t_address": {
        "encoding": "inplace",
        "label": "address",
        "numberOfBytes": "20"
      },
      "t_array(t_bytes32)dyn_storage": {
        "base": "t_bytes32",
        "encoding": "dynamic_array",
        "label": "bytes32[]",
        "numberOfBytes": "32"
      },
      "t_bytes32": {
        "encoding": "inplace",
        "label": "bytes32",
        "numberOfBytes": "32"
      },
      "t_mapping(t_bytes32,t_uint256)": {
        "encoding": "mapping",
        "key": "t_bytes32",
        "label": "mapping(bytes32 => uint256)",
        "numberOfBytes": "32",
        "value": "t_uint256"
      },
      "t_struct(AddressSet)4299_storage": {
        "encoding": "inplace",
        "label": "struct EnumerableSet.AddressSet",
        "members": [
          {
            "astId": 4298,
            "contract": "contracts/oracle/OracleStore.sol:OracleStore",
            "label": "_inner",
            "offset": 0,
            "slot": "0",
            "type": "t_struct(Set)3998_storage"
          }
        ],
        "numberOfBytes": "64"
      },
      "t_struct(Set)3998_storage": {
        "encoding": "inplace",
        "label": "struct EnumerableSet.Set",
        "members": [
          {
            "astId": 3993,
            "contract": "contracts/oracle/OracleStore.sol:OracleStore",
            "label": "_values",
            "offset": 0,
            "slot": "0",
            "type": "t_array(t_bytes32)dyn_storage"
          },
          {
            "astId": 3997,
            "contract": "contracts/oracle/OracleStore.sol:OracleStore",
            "label": "_indexes",
            "offset": 0,
            "slot": "1",
            "type": "t_mapping(t_bytes32,t_uint256)"
          }
        ],
        "numberOfBytes": "64"
      },
      "t_uint256": {
        "encoding": "inplace",
        "label": "uint256",
        "numberOfBytes": "32"
      }
    }
  }
}