{
  "address": "0x1613beB3B2C4f22Ee086B2b38C1476A3cE7f78E8",
  "abi": [
    {
      "inputs": [
        {
          "internalType": "contract RoleStore",
          "name": "_roleStore",
          "type": "address"
        },
        {
          "internalType": "contract DataStore",
          "name": "_dataStore",
          "type": "address"
        },
        {
          "internalType": "contract EventEmitter",
          "name": "_eventEmitter",
          "type": "address"
        },
        {
          "internalType": "contract MarketStore",
          "name": "_marketStore",
          "type": "address"
        },
        {
          "internalType": "contract OrderStore",
          "name": "_orderStore",
          "type": "address"
        },
        {
          "internalType": "contract PositionStore",
          "name": "_positionStore",
          "type": "address"
        },
        {
          "internalType": "contract Oracle",
          "name": "_oracle",
          "type": "address"
        },
        {
          "internalType": "contract FeeReceiver",
          "name": "_feeReceiver",
          "type": "address"
        }
      ],
      "stateMutability": "nonpayable",
      "type": "constructor"
    },
    {
      "inputs": [
        {
          "internalType": "bytes32",
          "name": "key",
          "type": "bytes32"
        }
      ],
      "name": "BlockedFeature",
      "type": "error"
    },
    {
      "inputs": [],
      "name": "EmptyBlockNumber",
      "type": "error"
    },
    {
      "inputs": [],
      "name": "EmptyMarket",
      "type": "error"
    },
    {
      "inputs": [],
      "name": "EmptyOrder",
      "type": "error"
    },
    {
      "inputs": [
        {
          "internalType": "uint256",
          "name": "minExecutionFee",
          "type": "uint256"
        },
        {
          "internalType": "uint256",
          "name": "executionFee",
          "type": "uint256"
        }
      ],
      "name": "InsufficientExecutionFee",
      "type": "error"
    },
    {
      "inputs": [
        {
          "internalType": "address",
          "name": "msgSender",
          "type": "address"
        },
        {
          "internalType": "string",
          "name": "role",
          "type": "string"
        }
      ],
      "name": "Unauthorized",
      "type": "error"
    },
    {
      "inputs": [],
      "name": "UnsupportedOrderType",
      "type": "error"
    },
    {
      "anonymous": false,
      "inputs": [
        {
          "indexed": false,
          "internalType": "string",
          "name": "reason",
          "type": "string"
        }
      ],
      "name": "OracleError",
      "type": "event"
    },
    {
      "anonymous": false,
      "inputs": [
        {
          "indexed": false,
          "internalType": "address",
          "name": "prevGov",
          "type": "address"
        },
        {
          "indexed": false,
          "internalType": "address",
          "name": "nextGov",
          "type": "address"
        }
      ],
      "name": "SetGov",
      "type": "event"
    },
    {
      "inputs": [
        {
          "internalType": "bytes32",
          "name": "key",
          "type": "bytes32"
        },
        {
          "components": [
            {
              "internalType": "uint256",
              "name": "signerInfo",
              "type": "uint256"
            },
            {
              "internalType": "address[]",
              "name": "tokens",
              "type": "address[]"
            },
            {
              "internalType": "uint256[]",
              "name": "compactedOracleBlockNumbers",
              "type": "uint256[]"
            },
            {
              "internalType": "uint256[]",
              "name": "compactedMinPrices",
              "type": "uint256[]"
            },
            {
              "internalType": "uint256[]",
              "name": "compactedMinPricesIndexes",
              "type": "uint256[]"
            },
            {
              "internalType": "uint256[]",
              "name": "compactedMaxPrices",
              "type": "uint256[]"
            },
            {
              "internalType": "uint256[]",
              "name": "compactedMaxPricesIndexes",
              "type": "uint256[]"
            },
            {
              "internalType": "bytes[]",
              "name": "signatures",
              "type": "bytes[]"
            },
            {
              "internalType": "address[]",
              "name": "priceFeedTokens",
              "type": "address[]"
            }
          ],
          "internalType": "struct OracleUtils.SetPricesParams",
          "name": "oracleParams",
          "type": "tuple"
        },
        {
          "internalType": "address",
          "name": "keeper",
          "type": "address"
        },
        {
          "internalType": "uint256",
          "name": "startingGas",
          "type": "uint256"
        }
      ],
      "name": "_executeOrder",
      "outputs": [],
      "stateMutability": "nonpayable",
      "type": "function"
    },
    {
      "inputs": [
        {
          "internalType": "bytes32",
          "name": "key",
          "type": "bytes32"
        }
      ],
      "name": "cancelOrder",
      "outputs": [],
      "stateMutability": "nonpayable",
      "type": "function"
    },
    {
      "inputs": [
        {
          "internalType": "address",
          "name": "account",
          "type": "address"
        },
        {
          "components": [
            {
              "internalType": "address",
              "name": "receiver",
              "type": "address"
            },
            {
              "internalType": "address",
              "name": "callbackContract",
              "type": "address"
            },
            {
              "internalType": "address",
              "name": "market",
              "type": "address"
            },
            {
              "internalType": "address",
              "name": "initialCollateralToken",
              "type": "address"
            },
            {
              "internalType": "address[]",
              "name": "swapPath",
              "type": "address[]"
            },
            {
              "internalType": "uint256",
              "name": "sizeDeltaUsd",
              "type": "uint256"
            },
            {
              "internalType": "uint256",
              "name": "acceptablePrice",
              "type": "uint256"
            },
            {
              "internalType": "int256",
              "name": "acceptablePriceImpactUsd",
              "type": "int256"
            },
            {
              "internalType": "uint256",
              "name": "executionFee",
              "type": "uint256"
            },
            {
              "internalType": "uint256",
              "name": "callbackGasLimit",
              "type": "uint256"
            },
            {
              "internalType": "uint256",
              "name": "minOutputAmount",
              "type": "uint256"
            },
            {
              "internalType": "enum Order.OrderType",
              "name": "orderType",
              "type": "uint8"
            },
            {
              "internalType": "bool",
              "name": "isLong",
              "type": "bool"
            },
            {
              "internalType": "bool",
              "name": "shouldConvertETH",
              "type": "bool"
            }
          ],
          "internalType": "struct OrderBaseUtils.CreateOrderParams",
          "name": "params",
          "type": "tuple"
        }
      ],
      "name": "createOrder",
      "outputs": [
        {
          "internalType": "bytes32",
          "name": "",
          "type": "bytes32"
        }
      ],
      "stateMutability": "nonpayable",
      "type": "function"
    },
    {
      "inputs": [
        {
          "internalType": "address",
          "name": "account",
          "type": "address"
        },
        {
          "internalType": "address",
          "name": "market",
          "type": "address"
        },
        {
          "internalType": "address",
          "name": "collateralToken",
          "type": "address"
        },
        {
          "internalType": "bool",
          "name": "isLong",
          "type": "bool"
        },
        {
          "components": [
            {
              "internalType": "uint256",
              "name": "signerInfo",
              "type": "uint256"
            },
            {
              "internalType": "address[]",
              "name": "tokens",
              "type": "address[]"
            },
            {
              "internalType": "uint256[]",
              "name": "compactedOracleBlockNumbers",
              "type": "uint256[]"
            },
            {
              "internalType": "uint256[]",
              "name": "compactedMinPrices",
              "type": "uint256[]"
            },
            {
              "internalType": "uint256[]",
              "name": "compactedMinPricesIndexes",
              "type": "uint256[]"
            },
            {
              "internalType": "uint256[]",
              "name": "compactedMaxPrices",
              "type": "uint256[]"
            },
            {
              "internalType": "uint256[]",
              "name": "compactedMaxPricesIndexes",
              "type": "uint256[]"
            },
            {
              "internalType": "bytes[]",
              "name": "signatures",
              "type": "bytes[]"
            },
            {
              "internalType": "address[]",
              "name": "priceFeedTokens",
              "type": "address[]"
            }
          ],
          "internalType": "struct OracleUtils.SetPricesParams",
          "name": "oracleParams",
          "type": "tuple"
        }
      ],
      "name": "executeLiquidation",
      "outputs": [],
      "stateMutability": "nonpayable",
      "type": "function"
    },
    {
      "inputs": [
        {
          "internalType": "bytes32",
          "name": "key",
          "type": "bytes32"
        },
        {
          "components": [
            {
              "internalType": "uint256",
              "name": "signerInfo",
              "type": "uint256"
            },
            {
              "internalType": "address[]",
              "name": "tokens",
              "type": "address[]"
            },
            {
              "internalType": "uint256[]",
              "name": "compactedOracleBlockNumbers",
              "type": "uint256[]"
            },
            {
              "internalType": "uint256[]",
              "name": "compactedMinPrices",
              "type": "uint256[]"
            },
            {
              "internalType": "uint256[]",
              "name": "compactedMinPricesIndexes",
              "type": "uint256[]"
            },
            {
              "internalType": "uint256[]",
              "name": "compactedMaxPrices",
              "type": "uint256[]"
            },
            {
              "internalType": "uint256[]",
              "name": "compactedMaxPricesIndexes",
              "type": "uint256[]"
            },
            {
              "internalType": "bytes[]",
              "name": "signatures",
              "type": "bytes[]"
            },
            {
              "internalType": "address[]",
              "name": "priceFeedTokens",
              "type": "address[]"
            }
          ],
          "internalType": "struct OracleUtils.SetPricesParams",
          "name": "oracleParams",
          "type": "tuple"
        }
      ],
      "name": "executeOrder",
      "outputs": [],
      "stateMutability": "nonpayable",
      "type": "function"
    },
    {
      "inputs": [],
      "name": "gov",
      "outputs": [
        {
          "internalType": "address",
          "name": "",
          "type": "address"
        }
      ],
      "stateMutability": "view",
      "type": "function"
    },
    {
      "inputs": [
        {
          "internalType": "bytes[]",
          "name": "data",
          "type": "bytes[]"
        }
      ],
      "name": "multicall",
      "outputs": [
        {
          "internalType": "bytes[]",
          "name": "results",
          "type": "bytes[]"
        }
      ],
      "stateMutability": "nonpayable",
      "type": "function"
    },
    {
      "inputs": [
        {
          "internalType": "address",
          "name": "_gov",
          "type": "address"
        }
      ],
      "name": "setGov",
      "outputs": [],
      "stateMutability": "nonpayable",
      "type": "function"
    },
    {
      "inputs": [
        {
          "internalType": "bytes32",
          "name": "key",
          "type": "bytes32"
        },
        {
          "internalType": "uint256",
          "name": "sizeDeltaUsd",
          "type": "uint256"
        },
        {
          "internalType": "uint256",
          "name": "acceptablePrice",
          "type": "uint256"
        },
        {
          "internalType": "int256",
          "name": "acceptablePriceImpactUsd",
          "type": "int256"
        }
      ],
      "name": "updateOrder",
      "outputs": [],
      "stateMutability": "payable",
      "type": "function"
    },
    {
      "stateMutability": "payable",
      "type": "receive"
    }
  ],
  "transactionHash": "0x63d9e9698c209c2e1208baceeca09c8d755560b5faaecf9f9378b9cf8ad30920",
  "args": [
    "0x5FbDB2315678afecb367f032d93F642f64180aa3",
    "0x610178dA211FEF7D417bC0e6FeD39F05609AD788",
    "0xc6e7DF5E7b4f2A278906862b61205850344D4e7d",
    "0x4ed7c70F96B99c776995fB64377f0d4aB3B0e1C1",
    "0x84eA74d481Ee0A5332c457a4d796187F6Ba67fEB",
    "0x9E545E3C0baAB3E08CdfD552C960A1050f373042",
    "0xCf7Ed3AccA5a467e9e704C703E8D87F634fB0Fc9",
    "0x322813Fd9A801c5507c9de605d63CEA4f2CE6c44"
  ],
  "numDeployments": 1,
  "solcInputHash": "5a19200e07267844d5f5ac65da21599c",
  "bytecode": "0x6101806040523480156200001257600080fd5b5060405162005bce38038062005bce8339810160408190526200003591620000ff565b600160005587620000463362000085565b6001600160a01b0390811660805296871660a0529486166101405292851660c05290841660e052831661010052821661012052166101605250620001c0565b600180546001600160a01b038381166001600160a01b031983168117909355604080519190921680825260208201939093527f53351836099c03ffc3b1727d8abd4b0222afa87d4ed76ae3102d51369ef7f785910160405180910390a15050565b6001600160a01b0381168114620000fc57600080fd5b50565b600080600080600080600080610100898b0312156200011d57600080fd5b88516200012a81620000e6565b60208a01519098506200013d81620000e6565b60408a01519097506200015081620000e6565b60608a01519096506200016381620000e6565b60808a01519095506200017681620000e6565b60a08a01519094506200018981620000e6565b60c08a01519093506200019c81620000e6565b60e08a0151909250620001af81620000e6565b809150509295985092959890939650565b60805160a05160c05160e051610100516101205161014051610160516158b36200031b600039600061166b0152600081816102940152818161051a0152818161076501528181610973015281816110bf015281816115cb0152818161237801526123ec015260008181610252015281816104d8015261164301526000818161125b015261161b015260008181610786015281816108240152818161099401528181610e2301528181611440015281816114e2015281816115f3015281816122c001528181612399015261240d0152600081816107a70152818161156b01526116c4015260008181610273015281816104f9015281816106f401528181610744015281816108a70152818161095201528181610ea401528181610f7701528181610fcd01528181610ff901528181611402015281816115a30152818161235701526123cb01526000818161114b015261198c01526158b36000f3fe60806040526004361061007a5760003560e01c806312d43a51146100865780634e9dbd41146100bc578063578c879c146100de57806359c3ac93146100fe5780637489ec231461012c578063ac9650d81461014c578063c3e4bd4314610179578063cfad57a214610199578063ed0ec942146101b957600080fd5b3661008157005b600080fd5b34801561009257600080fd5b506001546100a6906001600160a01b031681565b6040516100b39190613e36565b60405180910390f35b3480156100c857600080fd5b506100dc6100d7366004613ea1565b6101cc565b005b3480156100ea57600080fd5b506100dc6100f936600461439e565b610492565b34801561010a57600080fd5b5061011e6101193660046143fe565b61067a565b6040519081526020016100b3565b34801561013857600080fd5b506100dc610147366004614455565b6107e1565b34801561015857600080fd5b5061016c61016736600461446e565b6109f9565b6040516100b39190614587565b34801561018557600080fd5b506100dc61019436600461459a565b610aee565b3480156101a557600080fd5b506100dc6101b43660046145e0565b610d8f565b6100dc6101c73660046145fd565b610de4565b6002600054036101f75760405162461bcd60e51b81526004016101ee9061462f565b60405180910390fd5b60026000556040805180820190915260128152712624a8aaa4a220aa24a7a72fa5a2a2a822a960711b6020820152610250907f2c11776c13335e251fb4c29ae2ac14f63bf507cc888d5779d33993c7714ee34a90611134565b7f00000000000000000000000000000000000000000000000000000000000000007f00000000000000000000000000000000000000000000000000000000000000007f00000000000000000000000000000000000000000000000000000000000000006102bc84614666565b60405163914687f160e01b81526001600160a01b0385169063914687f1906102ec908690869086906004016146e6565b600060405180830381600087803b15801561030657600080fd5b505af1925050508015610317575060015b6103bf576103236147f8565b806308c379a0036103b35750610337614814565b8061034257506103b5565b7f9966b250e13ade3123b5af1743515baa8eaaf09f1e4081aa5e7e66ddd2b1415a81604051610371919061489d565b60405180910390a1604080518082018252600c81526b27a920a1a622afa2a92927a960a11b6020820152905162461bcd60e51b81526101ee919060040161489d565b505b3d6000803e3d6000fd5b60005a905060006103d28b8b8b8b6111e8565b905060006103ea826103e38a614666565b33866114b9565b9050610423816060015161041e306104088560200151604001515190565b6007811115610419576104196148b0565b611788565b6117dd565b61042c81611808565b505050836001600160a01b031663ad3be44d6040518163ffffffff1660e01b8152600401600060405180830381600087803b15801561046a57600080fd5b505af115801561047e573d6000803e3d6000fd5b505060016000555050505050505050505050565b3330146104d6576040805163a35b150b60e01b815233600480830191909152602482019290925260448101919091526329a2a62360e11b60648201526084016101ee565b7f00000000000000000000000000000000000000000000000000000000000000007f00000000000000000000000000000000000000000000000000000000000000007f000000000000000000000000000000000000000000000000000000000000000085836001600160a01b031663914687f18484846040518463ffffffff1660e01b815260040161056a939291906146e6565b600060405180830381600087803b15801561058457600080fd5b505af1925050508015610595575060015b6105a1576103236147f8565b60006105af898989896114b9565b90506105c48160200151604001516060015190565b806105e9575060016020820151604001515160078111156105e7576105e76148b0565b145b156105f7576105f787611975565b610613816060015161041e306104088560200151604001515190565b61061c81611808565b50836001600160a01b031663ad3be44d6040518163ffffffff1660e01b8152600401600060405180830381600087803b15801561065857600080fd5b505af115801561066c573d6000803e3d6000fd5b505050505050505050505050565b600060026000540361069e5760405162461bcd60e51b81526004016101ee9061462f565b600260005560408051808201909152600a81526921a7a72a2927a62622a960b11b60208201526106ef907f70546d1c92f8c2132ae23a23f5177aa8526356051c7510df99f50e012d22152990611134565b61073f7f000000000000000000000000000000000000000000000000000000000000000061041e30610729610180870161016088016148de565b600781111561073a5761073a6148b0565b611a6d565b6107d57f00000000000000000000000000000000000000000000000000000000000000007f00000000000000000000000000000000000000000000000000000000000000007f00000000000000000000000000000000000000000000000000000000000000007f0000000000000000000000000000000000000000000000000000000000000000876107d0886148fb565b611aa4565b60016000559392505050565b6002600054036108035760405162461bcd60e51b81526004016101ee9061462f565b600260009081555a60405163023aa9ab60e61b8152600481018490529091507f0000000000000000000000000000000000000000000000000000000000000000906000906001600160a01b03831690638eaa6ac090602401600060405180830381865afa158015610878573d6000803e3d6000fd5b505050506040513d6000823e601f3d908101601f191682016040526108a09190810190614bd8565b90506108ec7f000000000000000000000000000000000000000000000000000000000000000061041e306108d685604001515190565b60078111156108e7576108e76148b0565b611f07565b336108f682515190565b6001600160a01b03161461091c5760405162461bcd60e51b81526004016101ee90614d1a565b61093061092b82604001515190565b611f3e565b1561094d5760405162461bcd60e51b81526004016101ee90614d4b565b6109ee7f00000000000000000000000000000000000000000000000000000000000000007f00000000000000000000000000000000000000000000000000000000000000007f00000000000000000000000000000000000000000000000000000000000000008733886040516020016109d39066212cafaaa9a2a960c91b815260070190565b60405160208183030381529060405280519060200120611faf565b505060016000555050565b6060816001600160401b03811115610a1357610a13613f28565b604051908082528060200260200182016040528015610a4657816020015b6060815260200190600190039081610a315790505b50905060005b82811015610ae657610ab630858584818110610a6a57610a6a614d82565b9050602002810190610a7c9190614d98565b8080601f01602080910402602001604051908101604052809392919081815260200183838082843760009201919091525061227b92505050565b828281518110610ac857610ac8614d82565b60200260200101819052508080610ade90614dfb565b915050610a4c565b505b92915050565b600260005403610b105760405162461bcd60e51b81526004016101ee9061462f565b600260005560408051808201909152600c81526b27a92222a92fa5a2a2a822a960a11b6020820152610b63907f0be09b8b74e7d3c385e6563f3cba4102535281ebac3d93a9b80af207a0d586d090611134565b60005a6040516315e321e760e21b8152909150309063578c879c90610b92908690869033908790600401614f79565b600060405180830381600087803b158015610bac57600080fd5b505af1925050508015610bbd575060015b610d8557610bc96147f8565b806308c379a003610d3f5750610bdd614814565b80610be85750610d41565b600081604051602001610bfb919061489d565b60408051601f1981840301815282825280516020918201208383018352600c84526b27a920a1a622afa2a92927a960a11b848301529151919350610c4092910161489d565b60405160208183030381529060405280519060200120811480610cb2575060405180604001604052806012815260200171232927ad22a72fa7a92222a92fa2a92927a960711b815250604051602001610c99919061489d565b6040516020818303038152906040528051906020012081145b80610d0e57506040518060400160405280601481526020017322a6a82a2cafa827a9a4aa24a7a72fa2a92927a960611b815250604051602001610cf5919061489d565b6040516020818303038152906040528051906020012081145b15610d2d578160405162461bcd60e51b81526004016101ee919061489d565b610d388584836122a7565b5050610d85565b505b3d808015610d6b576040519150601f19603f3d011682016040523d82523d6000602084013e610d70565b606091505b50610d83848383805190602001206122a7565b505b5050600160005550565b6001546001600160a01b03163314610dd8576040805163a35b150b60e01b81523360048201526024810191909152600360448201526223a7ab60e91b60648201526084016101ee565b610de181612435565b50565b600260005403610e065760405162461bcd60e51b81526004016101ee9061462f565b6002600090815560405163023aa9ab60e61b8152600481018690527f000000000000000000000000000000000000000000000000000000000000000091906001600160a01b03831690638eaa6ac090602401600060405180830381865afa158015610e75573d6000803e3d6000fd5b505050506040513d6000823e601f3d908101601f19168201604052610e9d9190810190614bd8565b9050610ee97f000000000000000000000000000000000000000000000000000000000000000061041e30610ed385604001515190565b6007811115610ee457610ee46148b0565b612496565b33610ef382515190565b6001600160a01b031614610f195760405162461bcd60e51b81526004016101ee90614d1a565b610f2861092b82604001515190565b15610f455760405162461bcd60e51b81526004016101ee90614d4b565b602081015185905260208101516040018490526020810151606001839052604081015160006060909101526000610f9c7f0000000000000000000000000000000000000000000000000000000000000000846124cd565b9050610fc681610fb184602001516080015190565b610fbb91906150f1565b602084015160800152565b6000610ff27f00000000000000000000000000000000000000000000000000000000000000008461255f565b905061102d7f00000000000000000000000000000000000000000000000000000000000000008261102886602001516080015190565b6125cf565b61103683612616565b604051632b7885f760e01b81526001600160a01b03851690632b7885f790611064908b908790600401615199565b600060405180830381600087803b15801561107e57600080fd5b505af1158015611092573d6000803e3d6000fd5b5050604051639db8629360e01b8152600481018b9052602481018a905260448101899052606481018890527f00000000000000000000000000000000000000000000000000000000000000006001600160a01b03169250639db862939150608401600060405180830381600087803b15801561110d57600080fd5b505af1158015611121573d6000803e3d6000fd5b5050600160005550505050505050505050565b60405163ac4ab3fb60e01b81526001600160a01b037f0000000000000000000000000000000000000000000000000000000000000000169063ac4ab3fb906111829033908690600401615255565b602060405180830381865afa15801561119f573d6000803e3d6000fd5b505050506040513d601f19601f820116820180604052508101906111c3919061526e565b6111e457338160405163a35b150b60e01b81526004016101ee92919061528b565b5050565b604080516001600160a01b038087166020808401919091528187168385015290851660608301528315156080808401919091528351808403909101815260a09092019092528051910120600090819060405163023aa9ab60e61b8152600481018290529091506000906001600160a01b037f00000000000000000000000000000000000000000000000000000000000000001690638eaa6ac090602401600060405180830381865afa1580156112a2573d6000803e3d6000fd5b505050506040513d6000823e601f3d908101601f191682016040526112ca91908101906152af565b6040805160c0810182526001600160a01b03808b16808352602083015260008284018190528a82166060840152928401511660808201529192509060a0810182604051908082528060200260200182016040528015611333578160200160208202803683370190505b5081525090506000604051806101000160405280846080015181526020016000815260200184606001516113695760001961136c565b60005b8152602001600160ff1b815260200160008152602001600081526020016000815260200161139861262c565b9052604080516080808201835260078252606080880151151560208085019190915260018486015260008285018190528551938401865288845283820187905283860185905285519182019095529384528101929092529192506113fb81612616565b60006114267f00000000000000000000000000000000000000000000000000000000000000006126b2565b604051632b7885f760e01b81529091506001600160a01b037f00000000000000000000000000000000000000000000000000000000000000001690632b7885f7906114779084908690600401615199565b600060405180830381600087803b15801561149157600080fd5b505af11580156114a5573d6000803e3d6000fd5b50929e9d5050505050505050505050505050565b6114c1613cbe565b6114c9613cbe565b85815260405163023aa9ab60e61b8152600481018790527f00000000000000000000000000000000000000000000000000000000000000006001600160a01b031690638eaa6ac090602401600060405180830381865afa158015611531573d6000803e3d6000fd5b505050506040513d6000823e601f3d908101601f191682016040526115599190810190614bd8565b602082018190525160a00151611590907f0000000000000000000000000000000000000000000000000000000000000000906126f5565b6040808301919091526001600160a01b037f0000000000000000000000000000000000000000000000000000000000000000811660608401527f0000000000000000000000000000000000000000000000000000000000000000811660808401527f0000000000000000000000000000000000000000000000000000000000000000811660a08401527f0000000000000000000000000000000000000000000000000000000000000000811660c08401527f0000000000000000000000000000000000000000000000000000000000000000811660e08401527f0000000000000000000000000000000000000000000000000000000000000000166101008301528501516020860151516116a4919061282b565b610120820152602081015151606001516001600160a01b031615611769577f00000000000000000000000000000000000000000000000000000000000000006001600160a01b031663c2bc2efc6117018360200151516060015190565b6040518263ffffffff1660e01b815260040161171d9190613e36565b600060405180830381865afa15801561173a573d6000803e3d6000fd5b505050506040513d6000823e601f3d908101601f1916820160405261176291908101906153b0565b6101408201525b6001600160a01b03939093166101608401525061018082015292915050565b60007fe7152cce7a1763435f081f2a93d631500646db28c752bccbe23708ec12d44a9483836040516020016117bf9392919061546c565b60405160208183030381529060405280519060200120905092915050565b6117e782826128b7565b156111e457604051630827f79760e41b8152600481018290526024016101ee565b6118158160200151612923565b6118548160e00151826101400151602001516118378460200151604001515190565b602080860151015160400151602080870151604001510151612955565b61185d81612dfd565b60808101518151604051632337371360e01b81526001600160a01b03909216916323373713916118939160040190815260200190565b600060405180830381600087803b1580156118ad57600080fd5b505af11580156118c1573d6000803e3d6000fd5b505050506118d781600001518260200151612ef2565b73a85233C63b9Ee964Add6F2cffe00Fd84eb32338f635a3911ca82606001518360a0015161190e8560200151602001516080015190565b610180860151610160870151602088015151516040518763ffffffff1660e01b81526004016119429695949392919061548b565b60006040518083038186803b15801561195a57600080fd5b505af415801561196e573d6000803e3d6000fd5b5050505050565b60405163ac4ab3fb60e01b81526001600160a01b037f0000000000000000000000000000000000000000000000000000000000000000169063ac4ab3fb906119e39084907fa91e38781e58de0cfa744a97de7c4ac1ffa4f7ee954e9d7e637e0e3d37764cb690600401615255565b602060405180830381865afa158015611a00573d6000803e3d6000fd5b505050506040513d601f19601f82011682018060405250810190611a24919061526e565b60405180604001604052806012815260200171232927ad22a72fa7a92222a92fa2a92927a960711b815250906111e45760405162461bcd60e51b81526004016101ee919061489d565b60007f3cd37f0e4ec4979ca09236e1db75c5db02dc6df261ab1c65762ef676eb1c873583836040516020016117bf9392919061546c565b6000806000611ab289612f85565b9050806001600160a01b031684606001516001600160a01b03161480611aee575060008461016001516007811115611aec57611aec6148b0565b145b80611b0f575060018461016001516007811115611b0d57611b0d6148b0565b145b80611b30575060028461016001516007811115611b2e57611b2e6148b0565b145b80611b51575060038461016001516007811115611b4f57611b4f6148b0565b145b15611bcc57606084015160405163352f9aed60e01b81526001600160a01b0389169163352f9aed91611b869190600401613e36565b6020604051808303816000875af1158015611ba5573d6000803e3d6000fd5b505050506040513d601f19601f82011682018060405250810190611bc991906154c5565b91505b806001600160a01b031684606001516001600160a01b031603611c5557836101000151821015611c3e5760405162461bcd60e51b815260206004820181905260248201527f4f726465725574696c733a20696e76616c696420657865637574696f6e46656560448201526064016101ee565b610100840151611c4e90836154de565b9150611d1f565b60405163352f9aed60e01b81526000906001600160a01b0389169063352f9aed90611c84908590600401613e36565b6020604051808303816000875af1158015611ca3573d6000803e3d6000fd5b505050506040513d601f19601f82011682018060405250810190611cc791906154c5565b90508461010001518114611d1d5760405162461bcd60e51b815260206004820152601e60248201527f4f726465725574696c733a20696e76616c69642077657468416d6f756e74000060448201526064016101ee565b505b611d2d8685608001516126f5565b50611d36613d3b565b80516001600160a01b0387169052845181516001600160a01b03909116602090910152602085015181516001600160a01b03909116604090910152604085015181516001600160a01b03909116606090910152606085015181516001600160a01b039091166080909101526080850151815160a0015260a08501516020820151526020808201510183905260c085015160208201516040015260e0850151602082015160600152610100850151602082015160800152610120850151602082015160a00152610140850151602082015160c00152610160850151611e1b908290613010565b61018085015160408201519015156020909101526101a08501516040808301519115159101526000611e4d8b8361255f565b9050611e638b8261102885602001516080015190565b6000611e6e8c6126b2565b9050611e7983612616565b604051632b7885f760e01b81526001600160a01b038b1690632b7885f790611ea79084908790600401615199565b600060405180830381600087803b158015611ec157600080fd5b505af1158015611ed5573d6000803e3d6000fd5b5050604051630271810f60e21b81526001600160a01b038e1692506309c6043c91506114779084908790600401615199565b60007f83149e8aa36e682c6ab4934284cd7dc614e2e635da89a131a9b1f6eda779f70f83836040516020016117bf9392919061546c565b600080826007811115611f5357611f536148b0565b1480611f7057506002826007811115611f6e57611f6e6148b0565b145b80611f8d575060045b826007811115611f8b57611f8b6148b0565b145b80610ae8575060075b826007811115611fa857611fa86148b0565b1492915050565b60405163023aa9ab60e61b8152600481018590526000906001600160a01b03871690638eaa6ac090602401600060405180830381865afa158015611ff7573d6000803e3d6000fd5b505050506040513d6000823e601f3d908101601f1916820160405261201f9190810190614bd8565b905061202a81612923565b61203e61203982604001515190565b613041565b80612058575061205861205382604001515190565b613065565b156121155760208181015101511561211557856001600160a01b031663f94989386120828a612f85565b8351608001516020808601510151855151604080880151015160405160e087901b6001600160e01b03191681526001600160a01b039586166004820152938516602485015260448401929092529092166064820152901515608482015260a401600060405180830381600087803b1580156120fc57600080fd5b505af1158015612110573d6000803e3d6000fd5b505050505b856001600160a01b0316632874528e8661212e84515190565b6040516001600160e01b031960e085901b16815260048101929092526001600160a01b03166024820152604401600060405180830381600087803b15801561217557600080fd5b505af1158015612189573d6000803e3d6000fd5b50506040516304275a5360e51b815260048101889052602481018590526001600160a01b038a1692506384eb4a609150604401600060405180830381600087803b1580156121d657600080fd5b505af11580156121ea573d6000803e3d6000fd5b505050506121f88582613088565b73a85233C63b9Ee964Add6F2cffe00Fd84eb32338f635a3911ca898861222385602001516080015190565b878961222e88515190565b6040518763ffffffff1660e01b815260040161224f9695949392919061548b565b60006040518083038186803b15801561226757600080fd5b505af415801561066c573d6000803e3d6000fd5b60606122a08383604051806060016040528060278152602001615857602791396130c2565b9392505050565b60405163023aa9ab60e61b8152600481018490526000907f00000000000000000000000000000000000000000000000000000000000000006001600160a01b031690638eaa6ac090602401600060405180830381865afa15801561230f573d6000803e3d6000fd5b505050506040513d6000823e601f3d908101601f191682016040526123379190810190614bd8565b9050600061234a61092b83604001515190565b905080156123c6576123c17f00000000000000000000000000000000000000000000000000000000000000007f00000000000000000000000000000000000000000000000000000000000000007f000000000000000000000000000000000000000000000000000000000000000088338989611faf565b61196e565b61196e7f00000000000000000000000000000000000000000000000000000000000000007f00000000000000000000000000000000000000000000000000000000000000007f00000000000000000000000000000000000000000000000000000000000000008833898961319d565b600180546001600160a01b038381166001600160a01b031983168117909355604080519190921680825260208201939093527f53351836099c03ffc3b1727d8abd4b0222afa87d4ed76ae3102d51369ef7f785910160405180910390a15050565b60007f1a9c6697d7b50d6d797c61a11c89666f99ec32f15bebca23a4e3c308cbb579a983836040516020016117bf9392919061546c565b6000346000036124df57506000610ae8565b60006124ea84612f85565b9050806001600160a01b031663d0e30db0346040518263ffffffff1660e01b81526004016000604051808303818588803b15801561252757600080fd5b505af115801561253b573d6000803e3d6000fd5b50612556935050506001600160a01b0383169050843461338f565b50349392505050565b600061257061203983604001515190565b156125865761257f83836133ea565b9050610ae8565b61259a61259583604001515190565b613517565b156125a95761257f8383613557565b6125b861205383604001515190565b156125c75761257f8383613609565b610ae86136bb565b60006125db84846136d4565b905060006125e93a836154f1565b90508083101561196e57604051635dac504d60e01b815260048101829052602481018490526044016101ee565b610de161262161262c565b602083015160e00152565b600061a4b1461480612640575062066eeb46145b156126ad5760646001600160a01b031663a3b1b31d6040518163ffffffff1660e01b8152600401602060405180830381865afa158015612684573d6000803e3d6000fd5b505050506040513d601f19601f820116820180604052508101906126a891906154c5565b905090565b504390565b6000806126be83613807565b90506000816040516020016126d591815260200190565b60408051601f198184030181529190528051602090910120949350505050565b6060600082516001600160401b0381111561271257612712613f28565b60405190808252806020026020018201604052801561274b57816020015b612738613df9565b8152602001906001900390816127305790505b50905060005b8351811015612823576000856001600160a01b031663c2bc2efc86848151811061277d5761277d614d82565b60200260200101516040518263ffffffff1660e01b81526004016127a19190613e36565b600060405180830381865afa1580156127be573d6000803e3d6000fd5b505050506040513d6000823e601f3d908101601f191682016040526127e691908101906153b0565b90506127f18161389b565b8083838151811061280457612804614d82565b602002602001018190525050808061281b90614dfb565b915050612751565b509392505050565b60606000826001600160401b0381111561284757612847613f28565b604051908082528060200260200182016040528015612870578160200160208202803683370190505b50905060005b838110156128235761288885826138c3565b82828151811061289a5761289a614d82565b6020908102919091010152806128af81614dfb565b915050612876565b604051633d70e7e560e11b8152600481018290526000906001600160a01b03841690637ae1cfca90602401602060405180830381865afa1580156128ff573d6000803e3d6000fd5b505050506040513d601f19601f820116820180604052508101906122a0919061526e565b600061292e82515190565b6001600160a01b031603610de157604051631630779760e01b815260040160405180910390fd5b61295e83613065565b61196e57600061296d84613041565b905060008161297d57821561297f565b825b90506002856007811115612995576129956148b0565b14806129b2575060048560078111156129b0576129b06148b0565b145b806129ce575060078560078111156129cc576129cc6148b0565b145b15612b3c57604051631773dc6560e21b81526000906001600160a01b03891690635dcf719490612a02908a90600401613e36565b6040805180830381865afa158015612a1e573d6000803e3d6000fd5b505050506040513d601f19601f82011682018060405250810190612a429190615510565b604051632986cc4360e01b81529091506001600160a01b03891690632986cc4390612a73908a90859060040161555e565b600060405180830381600087803b158015612a8d57600080fd5b505af1158015612aa1573d6000803e3d6000fd5b50505050876001600160a01b031663e3458b79886040518060400160405280612ad387876138fd90919063ffffffff16565b8152602001612ae286886138fd565b8152506040518363ffffffff1660e01b8152600401612b0292919061555e565b600060405180830381600087803b158015612b1c57600080fd5b505af1158015612b30573d6000803e3d6000fd5b5050505050505061196e565b6003856007811115612b5057612b506148b0565b1480612b6d57506005856007811115612b6b57612b6b6148b0565b145b80612b8957506006856007811115612b8757612b876148b0565b145b15612dec576000612c0682896001600160a01b0316635dcf71948a6040518263ffffffff1660e01b8152600401612bc09190613e36565b6040805180830381865afa158015612bdc573d6000803e3d6000fd5b505050506040513d601f19601f82011682018060405250810190612c009190615510565b906138fd565b90506000612c3a838a6001600160a01b03166383a2aae28b6040518263ffffffff1660e01b8152600401612bc09190613e36565b9050600084612c495785612c4c565b85155b90508015612d1d576000878411158015612c665750828811155b905080612ca757604080518082018252600c81526b27a920a1a622afa2a92927a960a11b6020820152905162461bcd60e51b81526101ee919060040161489d565b60408051808201825289815260208101859052905163e3458b7960e01b81526001600160a01b038d169163e3458b7991612ce5918e9160040161555e565b600060405180830381600087803b158015612cff57600080fd5b505af1158015612d13573d6000803e3d6000fd5b5050505050612de2565b6000878410158015612d2f5750828810155b905080612d7057604080518082018252600c81526b27a920a1a622afa2a92927a960a11b6020820152905162461bcd60e51b81526101ee919060040161489d565b604080518082018252848152602081018a9052905163e3458b7960e01b81526001600160a01b038d169163e3458b7991612dae918e9160040161555e565b600060405180830381600087803b158015612dc857600080fd5b505af1158015612ddc573d6000803e3d6000fd5b50505050505b505050505061196e565b612df46136bb565b50505050505050565b612e106120398260200151604001515190565b15612e4c57604051634e5db51360e11b81527309635F643e140090A9A8Dcd712eD6285858ceBef90639cbb6a26906119429084906004016156c6565b612e5f6125958260200151604001515190565b15612e9b57604051634e5db51360e11b8152733Aa5ebB10DC797CAC828524e59A333d0A371443c90639cbb6a26906119429084906004016156c6565b612eae6120538260200151604001515190565b15612eea57604051634e5db51360e11b815273a82fF9aFd8f496c3d6ac40E2a0F282E47488CFc990639cbb6a26906119429084906004016156c6565b610de16136bb565b612f06612f0182516040015190565b613914565b612f0e575050565b8051604001516001600160a01b031663ba70933f612f31836020015160a0015190565b84846040518463ffffffff1660e01b8152600401612f50929190615199565b600060405180830381600088803b158015612f6a57600080fd5b5087f193505050508015612f7c575060015b156111e4575050565b6040516321f8a72160e01b81527f0f8a193ff464434486c0daf7db2a895884365d2bc84ba47a68fcf89c1b14b5b860048201526000906001600160a01b038316906321f8a72190602401602060405180830381865afa158015612fec573d6000803e3d6000fd5b505050506040513d601f19601f82011682018060405250810190610ae891906157fb565b6040820151816007811115613027576130276148b0565b9081600781111561303a5761303a6148b0565b9052505050565b60006002826007811115613057576130576148b0565b1480610ae857506003611f96565b60008082600781111561307a5761307a6148b0565b1480610ae857506001611f96565b613097612f0182516040015190565b61309f575050565b8051604001516001600160a01b0316636e42fbeb612f31836020015160a0015190565b60606130cd84613952565b6131285760405162461bcd60e51b815260206004820152602660248201527f416464726573733a2064656c65676174652063616c6c20746f206e6f6e2d636f6044820152651b9d1c9858dd60d21b60648201526084016101ee565b600080856001600160a01b0316856040516131439190615818565b600060405180830381855af49150503d806000811461317e576040519150601f19603f3d011682016040523d82523d6000602084013e613183565b606091505b5091509150613193828286613961565b9695505050505050565b60405163023aa9ab60e61b8152600481018590526000906001600160a01b03871690638eaa6ac090602401600060405180830381865afa1580156131e5573d6000803e3d6000fd5b505050506040513d6000823e601f3d908101601f1916820160405261320d9190810190614bd8565b905061321881612923565b600061322982602001516080015190565b905061323d82600060209091015160800152565b60408201516001606090910152604051632b7885f760e01b81526001600160a01b03881690632b7885f7906132789089908690600401615199565b600060405180830381600087803b15801561329257600080fd5b505af11580156132a6573d6000803e3d6000fd5b5050505073a85233C63b9Ee964Add6F2cffe00Fd84eb32338f635a3911ca8a8984888a6132d289515190565b6040518763ffffffff1660e01b81526004016132f39695949392919061548b565b60006040518083038186803b15801561330b57600080fd5b505af415801561331f573d6000803e3d6000fd5b5050604051634803856560e11b815260048101899052602481018690526001600160a01b038b1692506390070aca9150604401600060405180830381600087803b15801561336c57600080fd5b505af1158015613380573d6000803e3d6000fd5b50505050505050505050505050565b6133e58363a9059cbb60e01b84846040516024016133ae929190615255565b60408051601f198184030181529190526020810180516001600160e01b03166001600160e01b03199093169290921790915261399a565b505050565b600080836001600160a01b031663bd02d0f5613404613a6c565b6040518263ffffffff1660e01b815260040161342291815260200190565b602060405180830381865afa15801561343f573d6000803e3d6000fd5b505050506040513d601f19601f8201168201806040525081019061346391906154c5565b9050613474836020015160a0015190565b835160a001515161348590836154f1565b856001600160a01b031663bd02d0f561349c613ab6565b6040518263ffffffff1660e01b81526004016134ba91815260200190565b602060405180830381865afa1580156134d7573d6000803e3d6000fd5b505050506040513d601f19601f820116820180604052508101906134fb91906154c5565b61350591906150f1565b61350f91906150f1565b949350505050565b6000600482600781111561352d5761352d6148b0565b148061354a57506005826007811115613548576135486148b0565b145b80611f8d57506006611f79565b600080836001600160a01b031663bd02d0f5613571613a6c565b6040518263ffffffff1660e01b815260040161358f91815260200190565b602060405180830381865afa1580156135ac573d6000803e3d6000fd5b505050506040513d601f19601f820116820180604052508101906135d091906154c5565b90506135e1836020015160a0015190565b835160a00151516135f290836154f1565b856001600160a01b031663bd02d0f561349c613ae9565b600080836001600160a01b031663bd02d0f5613623613a6c565b6040518263ffffffff1660e01b815260040161364191815260200190565b602060405180830381865afa15801561365e573d6000803e3d6000fd5b505050506040513d601f19601f8201168201806040525081019061368291906154c5565b9050613693836020015160a0015190565b835160a00151516136a490836154f1565b856001600160a01b031663bd02d0f561349c613b1c565b60405163c1c0083160e01b815260040160405180910390fd5b60405163bd02d0f560e01b81527f9ec3b24b50c1b3fda988484ddc8460c9cb55c8129a3b7605a66aded808959417600482015260009081906001600160a01b0385169063bd02d0f590602401602060405180830381865afa15801561373d573d6000803e3d6000fd5b505050506040513d601f19601f8201168201806040525081019061376191906154c5565b60405163bd02d0f560e01b81527fea2abdea3c7f612c8be2e7be5cab70e9eac1810245363558aaa478d87c06ab1a60048201529091506000906001600160a01b0386169063bd02d0f590602401602060405180830381865afa1580156137cb573d6000803e3d6000fd5b505050506040513d601f19601f820116820180604052508101906137ef91906154c5565b905060006137fd8583613b4f565b61319390846150f1565b60405163340dbab360e01b81527f26aa63e2502e7427f5d2c686b0e47f4afee1ea92e517e54538f4e4c9928cbc086004820152600160248201526000906001600160a01b0383169063340dbab3906044016020604051808303816000875af1158015613877573d6000803e3d6000fd5b505050506040513d601f19601f82011682018060405250810190610ae891906154c5565b80516001600160a01b0316610de1576040516302fde0d760e11b815260040160405180910390fd5b6000806138da848460406001600160401b03613b72565b9050806000036122a0576040516329d56bcd60e21b815260040160405180910390fd5b60008161390b5782516122a0565b50506020015190565b60006001600160a01b03821661392c57506000919050565b61393e826001600160a01b0316613952565b61394a57506000919050565b506001919050565b6001600160a01b03163b151590565b606083156139705750816122a0565b8251156139805782518084602001fd5b8160405162461bcd60e51b81526004016101ee919061489d565b60006139ef826040518060400160405280602081526020017f5361666545524332303a206c6f772d6c6576656c2063616c6c206661696c6564815250856001600160a01b0316613be59092919063ffffffff16565b8051909150156133e55780806020019051810190613a0d919061526e565b6133e55760405162461bcd60e51b815260206004820152602a60248201527f5361666545524332303a204552433230206f7065726174696f6e20646964206e6044820152691bdd081cdd58d8d9595960b21b60648201526084016101ee565b604080517fd638db0b793aad68bd5749a0957e4e2d8139912eaf2399596f6a52616dcdd7716020820152600091015b60405160208183030381529060405280519060200120905090565b604080517f430e6f46d2d516cb53dc80105c6e80dda889b6be6e934e5df021ee925839f254602082015260009101613a9b565b604080517f63ec9f1690458a7d5cd85a825f4cdc9b8bf362214fd18170a3afae44bc5a2cda602082015260009101613a9b565b604080517f208b50e56a0c2096967045d9a06b7f658bd760dd00828d1ed6a4a62df7f72f20602082015260009101613a9b565b600068327cb2734119d3b7a9601e1b613b6883856154f1565b6122a09190615834565b600080613b8184610100615834565b90506000613b8f8287615834565b90506000878281518110613ba557613ba5614d82565b602002602001015190506000868484613bbe91906154f1565b613bc8908a6154de565b613bd291906154f1565b9190911c85169350505050949350505050565b606061350f848460008585613bf985613952565b613c455760405162461bcd60e51b815260206004820152601d60248201527f416464726573733a2063616c6c20746f206e6f6e2d636f6e747261637400000060448201526064016101ee565b600080866001600160a01b03168587604051613c619190615818565b60006040518083038185875af1925050503d8060008114613c9e576040519150601f19603f3d011682016040523d82523d6000602084013e613ca3565b606091505b5091509150613cb3828286613961565b979650505050505050565b604080516101c081019091526000815260208101613cda613d3b565b81526060602082018190526000604083018190528183018190526080830181905260a0830181905260c0830181905260e083015261010082015261012001613d20613df9565b81526000602082018190526040820181905260609091015290565b60408051610140810190915260006080820181815260a0830182905260c0830182905260e08301829052610100830191909152606061012083015281908152602001613dc560405180610100016040528060008152602001600081526020016000815260200160008152602001600081526020016000815260200160008152602001600081525090565b8152604080516080810182526000808252602082810182905292820181905260608201529101908152602001606081525090565b6040805160a081018252600080825260208201819052918101829052606080820192909252608081019190915290565b6001600160a01b03169052565b6001600160a01b0391909116815260200190565b6001600160a01b0381168114610de157600080fd5b8035613e6a81613e4a565b919050565b8015158114610de157600080fd5b8035613e6a81613e6f565b60006101208284031215613e9b57600080fd5b50919050565b600080600080600060a08688031215613eb957600080fd5b8535613ec481613e4a565b94506020860135613ed481613e4a565b93506040860135613ee481613e4a565b92506060860135613ef481613e6f565b915060808601356001600160401b03811115613f0f57600080fd5b613f1b88828901613e88565b9150509295509295909350565b634e487b7160e01b600052604160045260246000fd5b608081016001600160401b0381118282101715613f5d57613f5d613f28565b60405250565b60c081016001600160401b0381118282101715613f5d57613f5d613f28565b60a081016001600160401b0381118282101715613f5d57613f5d613f28565b601f8201601f191681016001600160401b0381118282101715613fc657613fc6613f28565b6040525050565b60405161012081016001600160401b0381118282101715613ff057613ff0613f28565b60405290565b6040516101c081016001600160401b0381118282101715613ff057613ff0613f28565b60405161018081016001600160401b0381118282101715613ff057613ff0613f28565b60006001600160401b0382111561405557614055613f28565b5060051b60200190565b600082601f83011261407057600080fd5b8135602061407d8261403c565b60405161408a8282613fa1565b83815260059390931b85018201928281019150868411156140aa57600080fd5b8286015b848110156140ce5780356140c181613e4a565b83529183019183016140ae565b509695505050505050565b600082601f8301126140ea57600080fd5b813560206140f78261403c565b6040516141048282613fa1565b83815260059390931b850182019282810191508684111561412457600080fd5b8286015b848110156140ce5780358352918301918301614128565b60006001600160401b0382111561415857614158613f28565b50601f01601f191660200190565b600082601f83011261417757600080fd5b813560206141848261403c565b604080516141928382613fa1565b84815260059490941b86018301938381019250878511156141b257600080fd5b8387015b858110156142395780356001600160401b038111156141d55760008081fd5b8801603f81018a136141e75760008081fd5b858101356141f48161413f565b85516142008282613fa1565b8281528c8784860101111561421757600091508182fd5b828785018a8301376000928101890192909252508552509284019284016141b6565b50979650505050505050565b6000610120828403121561425857600080fd5b614260613fcd565b82358152905060208201356001600160401b038082111561428057600080fd5b61428c8583860161405f565b602084015260408401359150808211156142a557600080fd5b6142b1858386016140d9565b604084015260608401359150808211156142ca57600080fd5b6142d6858386016140d9565b606084015260808401359150808211156142ef57600080fd5b6142fb858386016140d9565b608084015260a084013591508082111561431457600080fd5b614320858386016140d9565b60a084015260c084013591508082111561433957600080fd5b614345858386016140d9565b60c084015260e084013591508082111561435e57600080fd5b61436a85838601614166565b60e08401526101009150818401358181111561438557600080fd5b6143918682870161405f565b8385015250505092915050565b600080600080608085870312156143b457600080fd5b8435935060208501356001600160401b038111156143d157600080fd5b6143dd87828801614245565b93505060408501356143ee81613e4a565b9396929550929360600135925050565b6000806040838503121561441157600080fd5b823561441c81613e4a565b915060208301356001600160401b0381111561443757600080fd5b83016101c0818603121561444a57600080fd5b809150509250929050565b60006020828403121561446757600080fd5b5035919050565b6000806020838503121561448157600080fd5b82356001600160401b038082111561449857600080fd5b818501915085601f8301126144ac57600080fd5b8135818111156144bb57600080fd5b8660208260051b85010111156144d057600080fd5b60209290920196919550909350505050565b60005b838110156144fd5781810151838201526020016144e5565b50506000910152565b6000815180845261451e8160208601602086016144e2565b601f01601f19169290920160200192915050565b600081518084526020808501808196508360051b8101915082860160005b8581101561457a578284038952614568848351614506565b98850198935090840190600101614550565b5091979650505050505050565b6020815260006122a06020830184614532565b600080604083850312156145ad57600080fd5b8235915060208301356001600160401b038111156145ca57600080fd5b6145d685828601613e88565b9150509250929050565b6000602082840312156145f257600080fd5b81356122a081613e4a565b6000806000806080858703121561461357600080fd5b5050823594602084013594506040840135936060013592509050565b6020808252601f908201527f5265656e7472616e637947756172643a207265656e7472616e742063616c6c00604082015260600190565b6000610ae83683614245565b600081518084526020808501945080840160005b838110156146ab5781516001600160a01b031687529582019590820190600101614686565b509495945050505050565b600081518084526020808501945080840160005b838110156146ab578151875295820195908201906001016146ca565b600060018060a01b03808616835280851660208401525060606040830152825160608301526020830151610120806080850152614727610180850183614672565b91506040850151605f19808685030160a087015261474584836146b6565b935060608701519150808685030160c087015261476284836146b6565b935060808701519150808685030160e087015261477f84836146b6565b935060a0870151915061010081878603018188015261479e85846146b6565b945060c088015192508187860301848801526147ba85846146b6565b945060e0880151935081878603016101408801526147d88585614532565b94508088015193505080868503016101608701525050613cb38282614672565b600060033d11156148115760046000803e5060005160e01c5b90565b600060443d10156148225790565b6040516003193d81016004833e81513d6001600160401b03808311602484018310171561485157505050505090565b82850191508151818111156148695750505050505090565b843d87010160208285010111156148835750505050505090565b61489260208286010187613fa1565b509095945050505050565b6020815260006122a06020830184614506565b634e487b7160e01b600052602160045260246000fd5b60088110610de157600080fd5b8035613e6a816148c6565b6000602082840312156148f057600080fd5b81356122a0816148c6565b60006101c0823603121561490e57600080fd5b614916613ff6565b61491f83613e5f565b815261492d60208401613e5f565b602082015261493e60408401613e5f565b604082015261494f60608401613e5f565b606082015260808301356001600160401b0381111561496d57600080fd5b6149793682860161405f565b60808301525060a083013560a082015260c083013560c082015260e083013560e08201526101008084013581830152506101208084013581830152506101408084013581830152506101606149cf8185016148d3565b908201526101806149e1848201613e7d565b908201526101a06149f3848201613e7d565b9082015292915050565b8051613e6a81613e4a565b600082601f830112614a1957600080fd5b81516020614a268261403c565b604051614a338282613fa1565b83815260059390931b8501820192828101915086841115614a5357600080fd5b8286015b848110156140ce578051614a6a81613e4a565b8352918301918301614a57565b6000610100808385031215614a8b57600080fd5b604051908101906001600160401b0382118183101715614aad57614aad613f28565b81604052809250835181526020840151602082015260408401516040820152606084015160608201526080840151608082015260a084015160a082015260c084015160c082015260e084015160e0820152505092915050565b8051613e6a81613e6f565b600060808284031215614b2357600080fd5b604051614b2f81613f3e565b8091508251614b3d816148c6565b81526020830151614b4d81613e6f565b60208201526040830151614b6081613e6f565b60408201526060830151614b7381613e6f565b6060919091015292915050565b600082601f830112614b9157600080fd5b8151614b9c8161413f565b604051614ba98282613fa1565b828152856020848701011115614bbe57600080fd5b614bcf8360208301602088016144e2565b95945050505050565b600060208284031215614bea57600080fd5b81516001600160401b0380821115614c0157600080fd5b908301906101c08286031215614c1657600080fd5b604051614c2281613f3e565b825182811115614c3157600080fd5b830160c08188031215614c4357600080fd5b604051614c4f81613f63565b8151614c5a81613e4a565b8152614c68602083016149fd565b6020820152614c79604083016149fd565b6040820152614c8a606083016149fd565b6060820152614c9b608083016149fd565b608082015260a082015184811115614cb257600080fd5b614cbe89828501614a08565b60a083015250825250614cd48660208501614a77565b6020820152614ce7866101208501614b11565b60408201526101a083015182811115614cff57600080fd5b614d0b87828601614b80565b60608301525095945050505050565b60208082526017908201527627b93232b92430b7323632b91d103337b93134b23232b760491b604082015260600190565b6020808252601f908201527f4f7264657248616e646c65723a20696e76616c6964206f726465725479706500604082015260600190565b634e487b7160e01b600052603260045260246000fd5b6000808335601e19843603018112614daf57600080fd5b8301803591506001600160401b03821115614dc957600080fd5b602001915036819003821315614dde57600080fd5b9250929050565b634e487b7160e01b600052601160045260246000fd5b600060018201614e0d57614e0d614de5565b5060010190565b6000808335601e19843603018112614e2b57600080fd5b83016020810192503590506001600160401b03811115614e4a57600080fd5b8060051b3603821315614dde57600080fd5b8183526000602080850194508260005b858110156146ab578135614e7f81613e4a565b6001600160a01b031687529582019590820190600101614e6c565b81835260006001600160fb1b03831115614eb357600080fd5b8260051b80836020870137939093016020019392505050565b81835281816020850137506000828201602090810191909152601f909101601f19169091010190565b81835260006020808501808196508560051b810191508460005b8781101561457a5782840389528135601e19883603018112614f3057600080fd5b870185810190356001600160401b03811115614f4b57600080fd5b803603821315614f5a57600080fd5b614f65868284614ecc565b9a87019a9550505090840190600101614f0f565b84815260806020820152833560808201526000614f996020860186614e14565b6101208060a0860152614fb16101a086018385614e5c565b9250614fc06040890189614e14565b9250607f19808786030160c0880152614fda858584614e9a565b9450614fe960608b018b614e14565b94509150808786030160e0880152615002858584614e9a565b945061501160808b018b614e14565b9450915061010081888703018189015261502c868685614e9a565b955061503b60a08c018c614e14565b95509250818887030184890152615053868685614e9a565b955061506260c08c018c614e14565b95509350818887030161014089015261507c868686614e9a565b955061508b60e08c018c614e14565b9550935081888703016101608901526150a5868686614ef5565b95506150b3818c018c614e14565b9550935050808786030161018088015250506150d0838383614e5c565b93505050506150e26040830185613e29565b82606083015295945050505050565b80820180821115610ae857610ae8614de5565b805182526020810151602083015260408101516040830152606081015160608301526080810151608083015260a081015160a083015260c081015160c083015260e081015160e08301525050565b80516008811061517257634e487b7160e01b600052602160045260246000fd5b82526020818101511515908301526040808201511515908301526060908101511515910152565b8281526040602080830182905283516101c08385015280516001600160a01b039081166102008601529181015182166102208501529182015181166102408401526060820151811661026084015260808201511661028083015260a0015160c06102a08301526000906152106102c0840182614672565b905060208401516152246060850182615104565b506040840151615238610160850182615152565b506060840151838203603f19016101e08501526131938282614506565b6001600160a01b03929092168252602082015260400190565b60006020828403121561528057600080fd5b81516122a081613e6f565b6001600160a01b038316815260406020820181905260009061350f90830184614506565b6000602082840312156152c157600080fd5b81516001600160401b03808211156152d857600080fd5b9083019061018082860312156152ed57600080fd5b6152f5614019565b6152fe836149fd565b815261530c602084016149fd565b602082015261531d604084016149fd565b604082015261532e60608401614b06565b60608201526080830151608082015260a083015160a082015260c083015160c082015260e083015160e0820152610100808401518183015250610120808401518183015250610140808401518183015250610160808401518381111561539357600080fd5b61539f88828701614b80565b918301919091525095945050505050565b6000602082840312156153c257600080fd5b81516001600160401b03808211156153d957600080fd5b9083019060a082860312156153ed57600080fd5b6040516153f981613f82565b825161540481613e4a565b8152602083015161541481613e4a565b6020820152604083015161542781613e4a565b6040820152606083015161543a81613e4a565b606082015260808301518281111561545157600080fd5b61545d87828601614b80565b60808301525095945050505050565b9283526001600160a01b03919091166020830152604082015260600190565b6001600160a01b0396871681529486166020860152604085019390935260608401919091528316608083015290911660a082015260c00190565b6000602082840312156154d757600080fd5b5051919050565b81810381811115610ae857610ae8614de5565b600081600019048311821515161561550b5761550b614de5565b500290565b60006040828403121561552257600080fd5b604080519081016001600160401b038111828210171561554457615544613f28565b604052825181526020928301519281019290925250919050565b6001600160a01b0392909216825280516020808401919091520151604082015260600190565b80516101c080845281516001600160a01b0390811691850191909152602082015181166101e0850152604082015181166102008501526060820151811661022085015260808201511661024084015260a0015160c06102608401526000906155f0610280850182614672565b905060208301516156046020860182615104565b506040830151615618610120860182615152565b5060608301518482036101a0860152614bcf8282614506565b600060018060a01b0380835116845280602084015116602085015280604084015116604085015280606084015116606085015250608082015160a0608085015261350f60a0850182614506565b600081518084526020808501808196508360051b8101915082860160005b8581101561457a5782840389526156b4848351615631565b9885019893509084019060010161569c565b6020815281516020820152600060208301516101c08060408501526156ef6101e0850183615584565b91506040850151601f198086850301606087015261570d848361567e565b9350606087015191506157236080870183613e29565b6080870151915061573760a0870183613e29565b60a0870151915061574b60c0870183613e29565b60c0870151915061575f60e0870183613e29565b60e0870151915061010061577581880184613e29565b870151915061012061578987820184613e29565b808801519250506101408187860301818801526157a685846146b6565b9450808801519250506101608187860301818801526157c58584615631565b945080880151925050506101806157de81870183613e29565b8601516101a0868101919091529095015193019290925250919050565b60006020828403121561580d57600080fd5b81516122a081613e4a565b6000825161582a8184602087016144e2565b9190910192915050565b60008261585157634e487b7160e01b600052601260045260246000fd5b50049056fe416464726573733a206c6f772d6c6576656c2064656c65676174652063616c6c206661696c6564a26469706673582212200fddcb4d20928152c1f44a8830de96444c51dbb4ae86a366c58fda28d1c973e364736f6c63430008100033",
  "deployedBytecode": "0x60806040526004361061007a5760003560e01c806312d43a51146100865780634e9dbd41146100bc578063578c879c146100de57806359c3ac93146100fe5780637489ec231461012c578063ac9650d81461014c578063c3e4bd4314610179578063cfad57a214610199578063ed0ec942146101b957600080fd5b3661008157005b600080fd5b34801561009257600080fd5b506001546100a6906001600160a01b031681565b6040516100b39190613e36565b60405180910390f35b3480156100c857600080fd5b506100dc6100d7366004613ea1565b6101cc565b005b3480156100ea57600080fd5b506100dc6100f936600461439e565b610492565b34801561010a57600080fd5b5061011e6101193660046143fe565b61067a565b6040519081526020016100b3565b34801561013857600080fd5b506100dc610147366004614455565b6107e1565b34801561015857600080fd5b5061016c61016736600461446e565b6109f9565b6040516100b39190614587565b34801561018557600080fd5b506100dc61019436600461459a565b610aee565b3480156101a557600080fd5b506100dc6101b43660046145e0565b610d8f565b6100dc6101c73660046145fd565b610de4565b6002600054036101f75760405162461bcd60e51b81526004016101ee9061462f565b60405180910390fd5b60026000556040805180820190915260128152712624a8aaa4a220aa24a7a72fa5a2a2a822a960711b6020820152610250907f2c11776c13335e251fb4c29ae2ac14f63bf507cc888d5779d33993c7714ee34a90611134565b7f00000000000000000000000000000000000000000000000000000000000000007f00000000000000000000000000000000000000000000000000000000000000007f00000000000000000000000000000000000000000000000000000000000000006102bc84614666565b60405163914687f160e01b81526001600160a01b0385169063914687f1906102ec908690869086906004016146e6565b600060405180830381600087803b15801561030657600080fd5b505af1925050508015610317575060015b6103bf576103236147f8565b806308c379a0036103b35750610337614814565b8061034257506103b5565b7f9966b250e13ade3123b5af1743515baa8eaaf09f1e4081aa5e7e66ddd2b1415a81604051610371919061489d565b60405180910390a1604080518082018252600c81526b27a920a1a622afa2a92927a960a11b6020820152905162461bcd60e51b81526101ee919060040161489d565b505b3d6000803e3d6000fd5b60005a905060006103d28b8b8b8b6111e8565b905060006103ea826103e38a614666565b33866114b9565b9050610423816060015161041e306104088560200151604001515190565b6007811115610419576104196148b0565b611788565b6117dd565b61042c81611808565b505050836001600160a01b031663ad3be44d6040518163ffffffff1660e01b8152600401600060405180830381600087803b15801561046a57600080fd5b505af115801561047e573d6000803e3d6000fd5b505060016000555050505050505050505050565b3330146104d6576040805163a35b150b60e01b815233600480830191909152602482019290925260448101919091526329a2a62360e11b60648201526084016101ee565b7f00000000000000000000000000000000000000000000000000000000000000007f00000000000000000000000000000000000000000000000000000000000000007f000000000000000000000000000000000000000000000000000000000000000085836001600160a01b031663914687f18484846040518463ffffffff1660e01b815260040161056a939291906146e6565b600060405180830381600087803b15801561058457600080fd5b505af1925050508015610595575060015b6105a1576103236147f8565b60006105af898989896114b9565b90506105c48160200151604001516060015190565b806105e9575060016020820151604001515160078111156105e7576105e76148b0565b145b156105f7576105f787611975565b610613816060015161041e306104088560200151604001515190565b61061c81611808565b50836001600160a01b031663ad3be44d6040518163ffffffff1660e01b8152600401600060405180830381600087803b15801561065857600080fd5b505af115801561066c573d6000803e3d6000fd5b505050505050505050505050565b600060026000540361069e5760405162461bcd60e51b81526004016101ee9061462f565b600260005560408051808201909152600a81526921a7a72a2927a62622a960b11b60208201526106ef907f70546d1c92f8c2132ae23a23f5177aa8526356051c7510df99f50e012d22152990611134565b61073f7f000000000000000000000000000000000000000000000000000000000000000061041e30610729610180870161016088016148de565b600781111561073a5761073a6148b0565b611a6d565b6107d57f00000000000000000000000000000000000000000000000000000000000000007f00000000000000000000000000000000000000000000000000000000000000007f00000000000000000000000000000000000000000000000000000000000000007f0000000000000000000000000000000000000000000000000000000000000000876107d0886148fb565b611aa4565b60016000559392505050565b6002600054036108035760405162461bcd60e51b81526004016101ee9061462f565b600260009081555a60405163023aa9ab60e61b8152600481018490529091507f0000000000000000000000000000000000000000000000000000000000000000906000906001600160a01b03831690638eaa6ac090602401600060405180830381865afa158015610878573d6000803e3d6000fd5b505050506040513d6000823e601f3d908101601f191682016040526108a09190810190614bd8565b90506108ec7f000000000000000000000000000000000000000000000000000000000000000061041e306108d685604001515190565b60078111156108e7576108e76148b0565b611f07565b336108f682515190565b6001600160a01b03161461091c5760405162461bcd60e51b81526004016101ee90614d1a565b61093061092b82604001515190565b611f3e565b1561094d5760405162461bcd60e51b81526004016101ee90614d4b565b6109ee7f00000000000000000000000000000000000000000000000000000000000000007f00000000000000000000000000000000000000000000000000000000000000007f00000000000000000000000000000000000000000000000000000000000000008733886040516020016109d39066212cafaaa9a2a960c91b815260070190565b60405160208183030381529060405280519060200120611faf565b505060016000555050565b6060816001600160401b03811115610a1357610a13613f28565b604051908082528060200260200182016040528015610a4657816020015b6060815260200190600190039081610a315790505b50905060005b82811015610ae657610ab630858584818110610a6a57610a6a614d82565b9050602002810190610a7c9190614d98565b8080601f01602080910402602001604051908101604052809392919081815260200183838082843760009201919091525061227b92505050565b828281518110610ac857610ac8614d82565b60200260200101819052508080610ade90614dfb565b915050610a4c565b505b92915050565b600260005403610b105760405162461bcd60e51b81526004016101ee9061462f565b600260005560408051808201909152600c81526b27a92222a92fa5a2a2a822a960a11b6020820152610b63907f0be09b8b74e7d3c385e6563f3cba4102535281ebac3d93a9b80af207a0d586d090611134565b60005a6040516315e321e760e21b8152909150309063578c879c90610b92908690869033908790600401614f79565b600060405180830381600087803b158015610bac57600080fd5b505af1925050508015610bbd575060015b610d8557610bc96147f8565b806308c379a003610d3f5750610bdd614814565b80610be85750610d41565b600081604051602001610bfb919061489d565b60408051601f1981840301815282825280516020918201208383018352600c84526b27a920a1a622afa2a92927a960a11b848301529151919350610c4092910161489d565b60405160208183030381529060405280519060200120811480610cb2575060405180604001604052806012815260200171232927ad22a72fa7a92222a92fa2a92927a960711b815250604051602001610c99919061489d565b6040516020818303038152906040528051906020012081145b80610d0e57506040518060400160405280601481526020017322a6a82a2cafa827a9a4aa24a7a72fa2a92927a960611b815250604051602001610cf5919061489d565b6040516020818303038152906040528051906020012081145b15610d2d578160405162461bcd60e51b81526004016101ee919061489d565b610d388584836122a7565b5050610d85565b505b3d808015610d6b576040519150601f19603f3d011682016040523d82523d6000602084013e610d70565b606091505b50610d83848383805190602001206122a7565b505b5050600160005550565b6001546001600160a01b03163314610dd8576040805163a35b150b60e01b81523360048201526024810191909152600360448201526223a7ab60e91b60648201526084016101ee565b610de181612435565b50565b600260005403610e065760405162461bcd60e51b81526004016101ee9061462f565b6002600090815560405163023aa9ab60e61b8152600481018690527f000000000000000000000000000000000000000000000000000000000000000091906001600160a01b03831690638eaa6ac090602401600060405180830381865afa158015610e75573d6000803e3d6000fd5b505050506040513d6000823e601f3d908101601f19168201604052610e9d9190810190614bd8565b9050610ee97f000000000000000000000000000000000000000000000000000000000000000061041e30610ed385604001515190565b6007811115610ee457610ee46148b0565b612496565b33610ef382515190565b6001600160a01b031614610f195760405162461bcd60e51b81526004016101ee90614d1a565b610f2861092b82604001515190565b15610f455760405162461bcd60e51b81526004016101ee90614d4b565b602081015185905260208101516040018490526020810151606001839052604081015160006060909101526000610f9c7f0000000000000000000000000000000000000000000000000000000000000000846124cd565b9050610fc681610fb184602001516080015190565b610fbb91906150f1565b602084015160800152565b6000610ff27f00000000000000000000000000000000000000000000000000000000000000008461255f565b905061102d7f00000000000000000000000000000000000000000000000000000000000000008261102886602001516080015190565b6125cf565b61103683612616565b604051632b7885f760e01b81526001600160a01b03851690632b7885f790611064908b908790600401615199565b600060405180830381600087803b15801561107e57600080fd5b505af1158015611092573d6000803e3d6000fd5b5050604051639db8629360e01b8152600481018b9052602481018a905260448101899052606481018890527f00000000000000000000000000000000000000000000000000000000000000006001600160a01b03169250639db862939150608401600060405180830381600087803b15801561110d57600080fd5b505af1158015611121573d6000803e3d6000fd5b5050600160005550505050505050505050565b60405163ac4ab3fb60e01b81526001600160a01b037f0000000000000000000000000000000000000000000000000000000000000000169063ac4ab3fb906111829033908690600401615255565b602060405180830381865afa15801561119f573d6000803e3d6000fd5b505050506040513d601f19601f820116820180604052508101906111c3919061526e565b6111e457338160405163a35b150b60e01b81526004016101ee92919061528b565b5050565b604080516001600160a01b038087166020808401919091528187168385015290851660608301528315156080808401919091528351808403909101815260a09092019092528051910120600090819060405163023aa9ab60e61b8152600481018290529091506000906001600160a01b037f00000000000000000000000000000000000000000000000000000000000000001690638eaa6ac090602401600060405180830381865afa1580156112a2573d6000803e3d6000fd5b505050506040513d6000823e601f3d908101601f191682016040526112ca91908101906152af565b6040805160c0810182526001600160a01b03808b16808352602083015260008284018190528a82166060840152928401511660808201529192509060a0810182604051908082528060200260200182016040528015611333578160200160208202803683370190505b5081525090506000604051806101000160405280846080015181526020016000815260200184606001516113695760001961136c565b60005b8152602001600160ff1b815260200160008152602001600081526020016000815260200161139861262c565b9052604080516080808201835260078252606080880151151560208085019190915260018486015260008285018190528551938401865288845283820187905283860185905285519182019095529384528101929092529192506113fb81612616565b60006114267f00000000000000000000000000000000000000000000000000000000000000006126b2565b604051632b7885f760e01b81529091506001600160a01b037f00000000000000000000000000000000000000000000000000000000000000001690632b7885f7906114779084908690600401615199565b600060405180830381600087803b15801561149157600080fd5b505af11580156114a5573d6000803e3d6000fd5b50929e9d5050505050505050505050505050565b6114c1613cbe565b6114c9613cbe565b85815260405163023aa9ab60e61b8152600481018790527f00000000000000000000000000000000000000000000000000000000000000006001600160a01b031690638eaa6ac090602401600060405180830381865afa158015611531573d6000803e3d6000fd5b505050506040513d6000823e601f3d908101601f191682016040526115599190810190614bd8565b602082018190525160a00151611590907f0000000000000000000000000000000000000000000000000000000000000000906126f5565b6040808301919091526001600160a01b037f0000000000000000000000000000000000000000000000000000000000000000811660608401527f0000000000000000000000000000000000000000000000000000000000000000811660808401527f0000000000000000000000000000000000000000000000000000000000000000811660a08401527f0000000000000000000000000000000000000000000000000000000000000000811660c08401527f0000000000000000000000000000000000000000000000000000000000000000811660e08401527f0000000000000000000000000000000000000000000000000000000000000000166101008301528501516020860151516116a4919061282b565b610120820152602081015151606001516001600160a01b031615611769577f00000000000000000000000000000000000000000000000000000000000000006001600160a01b031663c2bc2efc6117018360200151516060015190565b6040518263ffffffff1660e01b815260040161171d9190613e36565b600060405180830381865afa15801561173a573d6000803e3d6000fd5b505050506040513d6000823e601f3d908101601f1916820160405261176291908101906153b0565b6101408201525b6001600160a01b03939093166101608401525061018082015292915050565b60007fe7152cce7a1763435f081f2a93d631500646db28c752bccbe23708ec12d44a9483836040516020016117bf9392919061546c565b60405160208183030381529060405280519060200120905092915050565b6117e782826128b7565b156111e457604051630827f79760e41b8152600481018290526024016101ee565b6118158160200151612923565b6118548160e00151826101400151602001516118378460200151604001515190565b602080860151015160400151602080870151604001510151612955565b61185d81612dfd565b60808101518151604051632337371360e01b81526001600160a01b03909216916323373713916118939160040190815260200190565b600060405180830381600087803b1580156118ad57600080fd5b505af11580156118c1573d6000803e3d6000fd5b505050506118d781600001518260200151612ef2565b73__$60bb1dd4670b1e26e5010aaaf2f65694d3$__635a3911ca82606001518360a0015161190e8560200151602001516080015190565b610180860151610160870151602088015151516040518763ffffffff1660e01b81526004016119429695949392919061548b565b60006040518083038186803b15801561195a57600080fd5b505af415801561196e573d6000803e3d6000fd5b5050505050565b60405163ac4ab3fb60e01b81526001600160a01b037f0000000000000000000000000000000000000000000000000000000000000000169063ac4ab3fb906119e39084907fa91e38781e58de0cfa744a97de7c4ac1ffa4f7ee954e9d7e637e0e3d37764cb690600401615255565b602060405180830381865afa158015611a00573d6000803e3d6000fd5b505050506040513d601f19601f82011682018060405250810190611a24919061526e565b60405180604001604052806012815260200171232927ad22a72fa7a92222a92fa2a92927a960711b815250906111e45760405162461bcd60e51b81526004016101ee919061489d565b60007f3cd37f0e4ec4979ca09236e1db75c5db02dc6df261ab1c65762ef676eb1c873583836040516020016117bf9392919061546c565b6000806000611ab289612f85565b9050806001600160a01b031684606001516001600160a01b03161480611aee575060008461016001516007811115611aec57611aec6148b0565b145b80611b0f575060018461016001516007811115611b0d57611b0d6148b0565b145b80611b30575060028461016001516007811115611b2e57611b2e6148b0565b145b80611b51575060038461016001516007811115611b4f57611b4f6148b0565b145b15611bcc57606084015160405163352f9aed60e01b81526001600160a01b0389169163352f9aed91611b869190600401613e36565b6020604051808303816000875af1158015611ba5573d6000803e3d6000fd5b505050506040513d601f19601f82011682018060405250810190611bc991906154c5565b91505b806001600160a01b031684606001516001600160a01b031603611c5557836101000151821015611c3e5760405162461bcd60e51b815260206004820181905260248201527f4f726465725574696c733a20696e76616c696420657865637574696f6e46656560448201526064016101ee565b610100840151611c4e90836154de565b9150611d1f565b60405163352f9aed60e01b81526000906001600160a01b0389169063352f9aed90611c84908590600401613e36565b6020604051808303816000875af1158015611ca3573d6000803e3d6000fd5b505050506040513d601f19601f82011682018060405250810190611cc791906154c5565b90508461010001518114611d1d5760405162461bcd60e51b815260206004820152601e60248201527f4f726465725574696c733a20696e76616c69642077657468416d6f756e74000060448201526064016101ee565b505b611d2d8685608001516126f5565b50611d36613d3b565b80516001600160a01b0387169052845181516001600160a01b03909116602090910152602085015181516001600160a01b03909116604090910152604085015181516001600160a01b03909116606090910152606085015181516001600160a01b039091166080909101526080850151815160a0015260a08501516020820151526020808201510183905260c085015160208201516040015260e0850151602082015160600152610100850151602082015160800152610120850151602082015160a00152610140850151602082015160c00152610160850151611e1b908290613010565b61018085015160408201519015156020909101526101a08501516040808301519115159101526000611e4d8b8361255f565b9050611e638b8261102885602001516080015190565b6000611e6e8c6126b2565b9050611e7983612616565b604051632b7885f760e01b81526001600160a01b038b1690632b7885f790611ea79084908790600401615199565b600060405180830381600087803b158015611ec157600080fd5b505af1158015611ed5573d6000803e3d6000fd5b5050604051630271810f60e21b81526001600160a01b038e1692506309c6043c91506114779084908790600401615199565b60007f83149e8aa36e682c6ab4934284cd7dc614e2e635da89a131a9b1f6eda779f70f83836040516020016117bf9392919061546c565b600080826007811115611f5357611f536148b0565b1480611f7057506002826007811115611f6e57611f6e6148b0565b145b80611f8d575060045b826007811115611f8b57611f8b6148b0565b145b80610ae8575060075b826007811115611fa857611fa86148b0565b1492915050565b60405163023aa9ab60e61b8152600481018590526000906001600160a01b03871690638eaa6ac090602401600060405180830381865afa158015611ff7573d6000803e3d6000fd5b505050506040513d6000823e601f3d908101601f1916820160405261201f9190810190614bd8565b905061202a81612923565b61203e61203982604001515190565b613041565b80612058575061205861205382604001515190565b613065565b156121155760208181015101511561211557856001600160a01b031663f94989386120828a612f85565b8351608001516020808601510151855151604080880151015160405160e087901b6001600160e01b03191681526001600160a01b039586166004820152938516602485015260448401929092529092166064820152901515608482015260a401600060405180830381600087803b1580156120fc57600080fd5b505af1158015612110573d6000803e3d6000fd5b505050505b856001600160a01b0316632874528e8661212e84515190565b6040516001600160e01b031960e085901b16815260048101929092526001600160a01b03166024820152604401600060405180830381600087803b15801561217557600080fd5b505af1158015612189573d6000803e3d6000fd5b50506040516304275a5360e51b815260048101889052602481018590526001600160a01b038a1692506384eb4a609150604401600060405180830381600087803b1580156121d657600080fd5b505af11580156121ea573d6000803e3d6000fd5b505050506121f88582613088565b73__$60bb1dd4670b1e26e5010aaaf2f65694d3$__635a3911ca898861222385602001516080015190565b878961222e88515190565b6040518763ffffffff1660e01b815260040161224f9695949392919061548b565b60006040518083038186803b15801561226757600080fd5b505af415801561066c573d6000803e3d6000fd5b60606122a08383604051806060016040528060278152602001615857602791396130c2565b9392505050565b60405163023aa9ab60e61b8152600481018490526000907f00000000000000000000000000000000000000000000000000000000000000006001600160a01b031690638eaa6ac090602401600060405180830381865afa15801561230f573d6000803e3d6000fd5b505050506040513d6000823e601f3d908101601f191682016040526123379190810190614bd8565b9050600061234a61092b83604001515190565b905080156123c6576123c17f00000000000000000000000000000000000000000000000000000000000000007f00000000000000000000000000000000000000000000000000000000000000007f000000000000000000000000000000000000000000000000000000000000000088338989611faf565b61196e565b61196e7f00000000000000000000000000000000000000000000000000000000000000007f00000000000000000000000000000000000000000000000000000000000000007f00000000000000000000000000000000000000000000000000000000000000008833898961319d565b600180546001600160a01b038381166001600160a01b031983168117909355604080519190921680825260208201939093527f53351836099c03ffc3b1727d8abd4b0222afa87d4ed76ae3102d51369ef7f785910160405180910390a15050565b60007f1a9c6697d7b50d6d797c61a11c89666f99ec32f15bebca23a4e3c308cbb579a983836040516020016117bf9392919061546c565b6000346000036124df57506000610ae8565b60006124ea84612f85565b9050806001600160a01b031663d0e30db0346040518263ffffffff1660e01b81526004016000604051808303818588803b15801561252757600080fd5b505af115801561253b573d6000803e3d6000fd5b50612556935050506001600160a01b0383169050843461338f565b50349392505050565b600061257061203983604001515190565b156125865761257f83836133ea565b9050610ae8565b61259a61259583604001515190565b613517565b156125a95761257f8383613557565b6125b861205383604001515190565b156125c75761257f8383613609565b610ae86136bb565b60006125db84846136d4565b905060006125e93a836154f1565b90508083101561196e57604051635dac504d60e01b815260048101829052602481018490526044016101ee565b610de161262161262c565b602083015160e00152565b600061a4b1461480612640575062066eeb46145b156126ad5760646001600160a01b031663a3b1b31d6040518163ffffffff1660e01b8152600401602060405180830381865afa158015612684573d6000803e3d6000fd5b505050506040513d601f19601f820116820180604052508101906126a891906154c5565b905090565b504390565b6000806126be83613807565b90506000816040516020016126d591815260200190565b60408051601f198184030181529190528051602090910120949350505050565b6060600082516001600160401b0381111561271257612712613f28565b60405190808252806020026020018201604052801561274b57816020015b612738613df9565b8152602001906001900390816127305790505b50905060005b8351811015612823576000856001600160a01b031663c2bc2efc86848151811061277d5761277d614d82565b60200260200101516040518263ffffffff1660e01b81526004016127a19190613e36565b600060405180830381865afa1580156127be573d6000803e3d6000fd5b505050506040513d6000823e601f3d908101601f191682016040526127e691908101906153b0565b90506127f18161389b565b8083838151811061280457612804614d82565b602002602001018190525050808061281b90614dfb565b915050612751565b509392505050565b60606000826001600160401b0381111561284757612847613f28565b604051908082528060200260200182016040528015612870578160200160208202803683370190505b50905060005b838110156128235761288885826138c3565b82828151811061289a5761289a614d82565b6020908102919091010152806128af81614dfb565b915050612876565b604051633d70e7e560e11b8152600481018290526000906001600160a01b03841690637ae1cfca90602401602060405180830381865afa1580156128ff573d6000803e3d6000fd5b505050506040513d601f19601f820116820180604052508101906122a0919061526e565b600061292e82515190565b6001600160a01b031603610de157604051631630779760e01b815260040160405180910390fd5b61295e83613065565b61196e57600061296d84613041565b905060008161297d57821561297f565b825b90506002856007811115612995576129956148b0565b14806129b2575060048560078111156129b0576129b06148b0565b145b806129ce575060078560078111156129cc576129cc6148b0565b145b15612b3c57604051631773dc6560e21b81526000906001600160a01b03891690635dcf719490612a02908a90600401613e36565b6040805180830381865afa158015612a1e573d6000803e3d6000fd5b505050506040513d601f19601f82011682018060405250810190612a429190615510565b604051632986cc4360e01b81529091506001600160a01b03891690632986cc4390612a73908a90859060040161555e565b600060405180830381600087803b158015612a8d57600080fd5b505af1158015612aa1573d6000803e3d6000fd5b50505050876001600160a01b031663e3458b79886040518060400160405280612ad387876138fd90919063ffffffff16565b8152602001612ae286886138fd565b8152506040518363ffffffff1660e01b8152600401612b0292919061555e565b600060405180830381600087803b158015612b1c57600080fd5b505af1158015612b30573d6000803e3d6000fd5b5050505050505061196e565b6003856007811115612b5057612b506148b0565b1480612b6d57506005856007811115612b6b57612b6b6148b0565b145b80612b8957506006856007811115612b8757612b876148b0565b145b15612dec576000612c0682896001600160a01b0316635dcf71948a6040518263ffffffff1660e01b8152600401612bc09190613e36565b6040805180830381865afa158015612bdc573d6000803e3d6000fd5b505050506040513d601f19601f82011682018060405250810190612c009190615510565b906138fd565b90506000612c3a838a6001600160a01b03166383a2aae28b6040518263ffffffff1660e01b8152600401612bc09190613e36565b9050600084612c495785612c4c565b85155b90508015612d1d576000878411158015612c665750828811155b905080612ca757604080518082018252600c81526b27a920a1a622afa2a92927a960a11b6020820152905162461bcd60e51b81526101ee919060040161489d565b60408051808201825289815260208101859052905163e3458b7960e01b81526001600160a01b038d169163e3458b7991612ce5918e9160040161555e565b600060405180830381600087803b158015612cff57600080fd5b505af1158015612d13573d6000803e3d6000fd5b5050505050612de2565b6000878410158015612d2f5750828810155b905080612d7057604080518082018252600c81526b27a920a1a622afa2a92927a960a11b6020820152905162461bcd60e51b81526101ee919060040161489d565b604080518082018252848152602081018a9052905163e3458b7960e01b81526001600160a01b038d169163e3458b7991612dae918e9160040161555e565b600060405180830381600087803b158015612dc857600080fd5b505af1158015612ddc573d6000803e3d6000fd5b50505050505b505050505061196e565b612df46136bb565b50505050505050565b612e106120398260200151604001515190565b15612e4c57604051634e5db51360e11b815273__$c6faf7926f63ae4546ac001ef150f0e4c5$__90639cbb6a26906119429084906004016156c6565b612e5f6125958260200151604001515190565b15612e9b57604051634e5db51360e11b815273__$3bfd12bb494e637808b268e99aeb4c464f$__90639cbb6a26906119429084906004016156c6565b612eae6120538260200151604001515190565b15612eea57604051634e5db51360e11b815273__$3d12e610ede510c74c5293f97a836d4d0d$__90639cbb6a26906119429084906004016156c6565b610de16136bb565b612f06612f0182516040015190565b613914565b612f0e575050565b8051604001516001600160a01b031663ba70933f612f31836020015160a0015190565b84846040518463ffffffff1660e01b8152600401612f50929190615199565b600060405180830381600088803b158015612f6a57600080fd5b5087f193505050508015612f7c575060015b156111e4575050565b6040516321f8a72160e01b81527f0f8a193ff464434486c0daf7db2a895884365d2bc84ba47a68fcf89c1b14b5b860048201526000906001600160a01b038316906321f8a72190602401602060405180830381865afa158015612fec573d6000803e3d6000fd5b505050506040513d601f19601f82011682018060405250810190610ae891906157fb565b6040820151816007811115613027576130276148b0565b9081600781111561303a5761303a6148b0565b9052505050565b60006002826007811115613057576130576148b0565b1480610ae857506003611f96565b60008082600781111561307a5761307a6148b0565b1480610ae857506001611f96565b613097612f0182516040015190565b61309f575050565b8051604001516001600160a01b0316636e42fbeb612f31836020015160a0015190565b60606130cd84613952565b6131285760405162461bcd60e51b815260206004820152602660248201527f416464726573733a2064656c65676174652063616c6c20746f206e6f6e2d636f6044820152651b9d1c9858dd60d21b60648201526084016101ee565b600080856001600160a01b0316856040516131439190615818565b600060405180830381855af49150503d806000811461317e576040519150601f19603f3d011682016040523d82523d6000602084013e613183565b606091505b5091509150613193828286613961565b9695505050505050565b60405163023aa9ab60e61b8152600481018590526000906001600160a01b03871690638eaa6ac090602401600060405180830381865afa1580156131e5573d6000803e3d6000fd5b505050506040513d6000823e601f3d908101601f1916820160405261320d9190810190614bd8565b905061321881612923565b600061322982602001516080015190565b905061323d82600060209091015160800152565b60408201516001606090910152604051632b7885f760e01b81526001600160a01b03881690632b7885f7906132789089908690600401615199565b600060405180830381600087803b15801561329257600080fd5b505af11580156132a6573d6000803e3d6000fd5b5050505073__$60bb1dd4670b1e26e5010aaaf2f65694d3$__635a3911ca8a8984888a6132d289515190565b6040518763ffffffff1660e01b81526004016132f39695949392919061548b565b60006040518083038186803b15801561330b57600080fd5b505af415801561331f573d6000803e3d6000fd5b5050604051634803856560e11b815260048101899052602481018690526001600160a01b038b1692506390070aca9150604401600060405180830381600087803b15801561336c57600080fd5b505af1158015613380573d6000803e3d6000fd5b50505050505050505050505050565b6133e58363a9059cbb60e01b84846040516024016133ae929190615255565b60408051601f198184030181529190526020810180516001600160e01b03166001600160e01b03199093169290921790915261399a565b505050565b600080836001600160a01b031663bd02d0f5613404613a6c565b6040518263ffffffff1660e01b815260040161342291815260200190565b602060405180830381865afa15801561343f573d6000803e3d6000fd5b505050506040513d601f19601f8201168201806040525081019061346391906154c5565b9050613474836020015160a0015190565b835160a001515161348590836154f1565b856001600160a01b031663bd02d0f561349c613ab6565b6040518263ffffffff1660e01b81526004016134ba91815260200190565b602060405180830381865afa1580156134d7573d6000803e3d6000fd5b505050506040513d601f19601f820116820180604052508101906134fb91906154c5565b61350591906150f1565b61350f91906150f1565b949350505050565b6000600482600781111561352d5761352d6148b0565b148061354a57506005826007811115613548576135486148b0565b145b80611f8d57506006611f79565b600080836001600160a01b031663bd02d0f5613571613a6c565b6040518263ffffffff1660e01b815260040161358f91815260200190565b602060405180830381865afa1580156135ac573d6000803e3d6000fd5b505050506040513d601f19601f820116820180604052508101906135d091906154c5565b90506135e1836020015160a0015190565b835160a00151516135f290836154f1565b856001600160a01b031663bd02d0f561349c613ae9565b600080836001600160a01b031663bd02d0f5613623613a6c565b6040518263ffffffff1660e01b815260040161364191815260200190565b602060405180830381865afa15801561365e573d6000803e3d6000fd5b505050506040513d601f19601f8201168201806040525081019061368291906154c5565b9050613693836020015160a0015190565b835160a00151516136a490836154f1565b856001600160a01b031663bd02d0f561349c613b1c565b60405163c1c0083160e01b815260040160405180910390fd5b60405163bd02d0f560e01b81527f9ec3b24b50c1b3fda988484ddc8460c9cb55c8129a3b7605a66aded808959417600482015260009081906001600160a01b0385169063bd02d0f590602401602060405180830381865afa15801561373d573d6000803e3d6000fd5b505050506040513d601f19601f8201168201806040525081019061376191906154c5565b60405163bd02d0f560e01b81527fea2abdea3c7f612c8be2e7be5cab70e9eac1810245363558aaa478d87c06ab1a60048201529091506000906001600160a01b0386169063bd02d0f590602401602060405180830381865afa1580156137cb573d6000803e3d6000fd5b505050506040513d601f19601f820116820180604052508101906137ef91906154c5565b905060006137fd8583613b4f565b61319390846150f1565b60405163340dbab360e01b81527f26aa63e2502e7427f5d2c686b0e47f4afee1ea92e517e54538f4e4c9928cbc086004820152600160248201526000906001600160a01b0383169063340dbab3906044016020604051808303816000875af1158015613877573d6000803e3d6000fd5b505050506040513d601f19601f82011682018060405250810190610ae891906154c5565b80516001600160a01b0316610de1576040516302fde0d760e11b815260040160405180910390fd5b6000806138da848460406001600160401b03613b72565b9050806000036122a0576040516329d56bcd60e21b815260040160405180910390fd5b60008161390b5782516122a0565b50506020015190565b60006001600160a01b03821661392c57506000919050565b61393e826001600160a01b0316613952565b61394a57506000919050565b506001919050565b6001600160a01b03163b151590565b606083156139705750816122a0565b8251156139805782518084602001fd5b8160405162461bcd60e51b81526004016101ee919061489d565b60006139ef826040518060400160405280602081526020017f5361666545524332303a206c6f772d6c6576656c2063616c6c206661696c6564815250856001600160a01b0316613be59092919063ffffffff16565b8051909150156133e55780806020019051810190613a0d919061526e565b6133e55760405162461bcd60e51b815260206004820152602a60248201527f5361666545524332303a204552433230206f7065726174696f6e20646964206e6044820152691bdd081cdd58d8d9595960b21b60648201526084016101ee565b604080517fd638db0b793aad68bd5749a0957e4e2d8139912eaf2399596f6a52616dcdd7716020820152600091015b60405160208183030381529060405280519060200120905090565b604080517f430e6f46d2d516cb53dc80105c6e80dda889b6be6e934e5df021ee925839f254602082015260009101613a9b565b604080517f63ec9f1690458a7d5cd85a825f4cdc9b8bf362214fd18170a3afae44bc5a2cda602082015260009101613a9b565b604080517f208b50e56a0c2096967045d9a06b7f658bd760dd00828d1ed6a4a62df7f72f20602082015260009101613a9b565b600068327cb2734119d3b7a9601e1b613b6883856154f1565b6122a09190615834565b600080613b8184610100615834565b90506000613b8f8287615834565b90506000878281518110613ba557613ba5614d82565b602002602001015190506000868484613bbe91906154f1565b613bc8908a6154de565b613bd291906154f1565b9190911c85169350505050949350505050565b606061350f848460008585613bf985613952565b613c455760405162461bcd60e51b815260206004820152601d60248201527f416464726573733a2063616c6c20746f206e6f6e2d636f6e747261637400000060448201526064016101ee565b600080866001600160a01b03168587604051613c619190615818565b60006040518083038185875af1925050503d8060008114613c9e576040519150601f19603f3d011682016040523d82523d6000602084013e613ca3565b606091505b5091509150613cb3828286613961565b979650505050505050565b604080516101c081019091526000815260208101613cda613d3b565b81526060602082018190526000604083018190528183018190526080830181905260a0830181905260c0830181905260e083015261010082015261012001613d20613df9565b81526000602082018190526040820181905260609091015290565b60408051610140810190915260006080820181815260a0830182905260c0830182905260e08301829052610100830191909152606061012083015281908152602001613dc560405180610100016040528060008152602001600081526020016000815260200160008152602001600081526020016000815260200160008152602001600081525090565b8152604080516080810182526000808252602082810182905292820181905260608201529101908152602001606081525090565b6040805160a081018252600080825260208201819052918101829052606080820192909252608081019190915290565b6001600160a01b03169052565b6001600160a01b0391909116815260200190565b6001600160a01b0381168114610de157600080fd5b8035613e6a81613e4a565b919050565b8015158114610de157600080fd5b8035613e6a81613e6f565b60006101208284031215613e9b57600080fd5b50919050565b600080600080600060a08688031215613eb957600080fd5b8535613ec481613e4a565b94506020860135613ed481613e4a565b93506040860135613ee481613e4a565b92506060860135613ef481613e6f565b915060808601356001600160401b03811115613f0f57600080fd5b613f1b88828901613e88565b9150509295509295909350565b634e487b7160e01b600052604160045260246000fd5b608081016001600160401b0381118282101715613f5d57613f5d613f28565b60405250565b60c081016001600160401b0381118282101715613f5d57613f5d613f28565b60a081016001600160401b0381118282101715613f5d57613f5d613f28565b601f8201601f191681016001600160401b0381118282101715613fc657613fc6613f28565b6040525050565b60405161012081016001600160401b0381118282101715613ff057613ff0613f28565b60405290565b6040516101c081016001600160401b0381118282101715613ff057613ff0613f28565b60405161018081016001600160401b0381118282101715613ff057613ff0613f28565b60006001600160401b0382111561405557614055613f28565b5060051b60200190565b600082601f83011261407057600080fd5b8135602061407d8261403c565b60405161408a8282613fa1565b83815260059390931b85018201928281019150868411156140aa57600080fd5b8286015b848110156140ce5780356140c181613e4a565b83529183019183016140ae565b509695505050505050565b600082601f8301126140ea57600080fd5b813560206140f78261403c565b6040516141048282613fa1565b83815260059390931b850182019282810191508684111561412457600080fd5b8286015b848110156140ce5780358352918301918301614128565b60006001600160401b0382111561415857614158613f28565b50601f01601f191660200190565b600082601f83011261417757600080fd5b813560206141848261403c565b604080516141928382613fa1565b84815260059490941b86018301938381019250878511156141b257600080fd5b8387015b858110156142395780356001600160401b038111156141d55760008081fd5b8801603f81018a136141e75760008081fd5b858101356141f48161413f565b85516142008282613fa1565b8281528c8784860101111561421757600091508182fd5b828785018a8301376000928101890192909252508552509284019284016141b6565b50979650505050505050565b6000610120828403121561425857600080fd5b614260613fcd565b82358152905060208201356001600160401b038082111561428057600080fd5b61428c8583860161405f565b602084015260408401359150808211156142a557600080fd5b6142b1858386016140d9565b604084015260608401359150808211156142ca57600080fd5b6142d6858386016140d9565b606084015260808401359150808211156142ef57600080fd5b6142fb858386016140d9565b608084015260a084013591508082111561431457600080fd5b614320858386016140d9565b60a084015260c084013591508082111561433957600080fd5b614345858386016140d9565b60c084015260e084013591508082111561435e57600080fd5b61436a85838601614166565b60e08401526101009150818401358181111561438557600080fd5b6143918682870161405f565b8385015250505092915050565b600080600080608085870312156143b457600080fd5b8435935060208501356001600160401b038111156143d157600080fd5b6143dd87828801614245565b93505060408501356143ee81613e4a565b9396929550929360600135925050565b6000806040838503121561441157600080fd5b823561441c81613e4a565b915060208301356001600160401b0381111561443757600080fd5b83016101c0818603121561444a57600080fd5b809150509250929050565b60006020828403121561446757600080fd5b5035919050565b6000806020838503121561448157600080fd5b82356001600160401b038082111561449857600080fd5b818501915085601f8301126144ac57600080fd5b8135818111156144bb57600080fd5b8660208260051b85010111156144d057600080fd5b60209290920196919550909350505050565b60005b838110156144fd5781810151838201526020016144e5565b50506000910152565b6000815180845261451e8160208601602086016144e2565b601f01601f19169290920160200192915050565b600081518084526020808501808196508360051b8101915082860160005b8581101561457a578284038952614568848351614506565b98850198935090840190600101614550565b5091979650505050505050565b6020815260006122a06020830184614532565b600080604083850312156145ad57600080fd5b8235915060208301356001600160401b038111156145ca57600080fd5b6145d685828601613e88565b9150509250929050565b6000602082840312156145f257600080fd5b81356122a081613e4a565b6000806000806080858703121561461357600080fd5b5050823594602084013594506040840135936060013592509050565b6020808252601f908201527f5265656e7472616e637947756172643a207265656e7472616e742063616c6c00604082015260600190565b6000610ae83683614245565b600081518084526020808501945080840160005b838110156146ab5781516001600160a01b031687529582019590820190600101614686565b509495945050505050565b600081518084526020808501945080840160005b838110156146ab578151875295820195908201906001016146ca565b600060018060a01b03808616835280851660208401525060606040830152825160608301526020830151610120806080850152614727610180850183614672565b91506040850151605f19808685030160a087015261474584836146b6565b935060608701519150808685030160c087015261476284836146b6565b935060808701519150808685030160e087015261477f84836146b6565b935060a0870151915061010081878603018188015261479e85846146b6565b945060c088015192508187860301848801526147ba85846146b6565b945060e0880151935081878603016101408801526147d88585614532565b94508088015193505080868503016101608701525050613cb38282614672565b600060033d11156148115760046000803e5060005160e01c5b90565b600060443d10156148225790565b6040516003193d81016004833e81513d6001600160401b03808311602484018310171561485157505050505090565b82850191508151818111156148695750505050505090565b843d87010160208285010111156148835750505050505090565b61489260208286010187613fa1565b509095945050505050565b6020815260006122a06020830184614506565b634e487b7160e01b600052602160045260246000fd5b60088110610de157600080fd5b8035613e6a816148c6565b6000602082840312156148f057600080fd5b81356122a0816148c6565b60006101c0823603121561490e57600080fd5b614916613ff6565b61491f83613e5f565b815261492d60208401613e5f565b602082015261493e60408401613e5f565b604082015261494f60608401613e5f565b606082015260808301356001600160401b0381111561496d57600080fd5b6149793682860161405f565b60808301525060a083013560a082015260c083013560c082015260e083013560e08201526101008084013581830152506101208084013581830152506101408084013581830152506101606149cf8185016148d3565b908201526101806149e1848201613e7d565b908201526101a06149f3848201613e7d565b9082015292915050565b8051613e6a81613e4a565b600082601f830112614a1957600080fd5b81516020614a268261403c565b604051614a338282613fa1565b83815260059390931b8501820192828101915086841115614a5357600080fd5b8286015b848110156140ce578051614a6a81613e4a565b8352918301918301614a57565b6000610100808385031215614a8b57600080fd5b604051908101906001600160401b0382118183101715614aad57614aad613f28565b81604052809250835181526020840151602082015260408401516040820152606084015160608201526080840151608082015260a084015160a082015260c084015160c082015260e084015160e0820152505092915050565b8051613e6a81613e6f565b600060808284031215614b2357600080fd5b604051614b2f81613f3e565b8091508251614b3d816148c6565b81526020830151614b4d81613e6f565b60208201526040830151614b6081613e6f565b60408201526060830151614b7381613e6f565b6060919091015292915050565b600082601f830112614b9157600080fd5b8151614b9c8161413f565b604051614ba98282613fa1565b828152856020848701011115614bbe57600080fd5b614bcf8360208301602088016144e2565b95945050505050565b600060208284031215614bea57600080fd5b81516001600160401b0380821115614c0157600080fd5b908301906101c08286031215614c1657600080fd5b604051614c2281613f3e565b825182811115614c3157600080fd5b830160c08188031215614c4357600080fd5b604051614c4f81613f63565b8151614c5a81613e4a565b8152614c68602083016149fd565b6020820152614c79604083016149fd565b6040820152614c8a606083016149fd565b6060820152614c9b608083016149fd565b608082015260a082015184811115614cb257600080fd5b614cbe89828501614a08565b60a083015250825250614cd48660208501614a77565b6020820152614ce7866101208501614b11565b60408201526101a083015182811115614cff57600080fd5b614d0b87828601614b80565b60608301525095945050505050565b60208082526017908201527627b93232b92430b7323632b91d103337b93134b23232b760491b604082015260600190565b6020808252601f908201527f4f7264657248616e646c65723a20696e76616c6964206f726465725479706500604082015260600190565b634e487b7160e01b600052603260045260246000fd5b6000808335601e19843603018112614daf57600080fd5b8301803591506001600160401b03821115614dc957600080fd5b602001915036819003821315614dde57600080fd5b9250929050565b634e487b7160e01b600052601160045260246000fd5b600060018201614e0d57614e0d614de5565b5060010190565b6000808335601e19843603018112614e2b57600080fd5b83016020810192503590506001600160401b03811115614e4a57600080fd5b8060051b3603821315614dde57600080fd5b8183526000602080850194508260005b858110156146ab578135614e7f81613e4a565b6001600160a01b031687529582019590820190600101614e6c565b81835260006001600160fb1b03831115614eb357600080fd5b8260051b80836020870137939093016020019392505050565b81835281816020850137506000828201602090810191909152601f909101601f19169091010190565b81835260006020808501808196508560051b810191508460005b8781101561457a5782840389528135601e19883603018112614f3057600080fd5b870185810190356001600160401b03811115614f4b57600080fd5b803603821315614f5a57600080fd5b614f65868284614ecc565b9a87019a9550505090840190600101614f0f565b84815260806020820152833560808201526000614f996020860186614e14565b6101208060a0860152614fb16101a086018385614e5c565b9250614fc06040890189614e14565b9250607f19808786030160c0880152614fda858584614e9a565b9450614fe960608b018b614e14565b94509150808786030160e0880152615002858584614e9a565b945061501160808b018b614e14565b9450915061010081888703018189015261502c868685614e9a565b955061503b60a08c018c614e14565b95509250818887030184890152615053868685614e9a565b955061506260c08c018c614e14565b95509350818887030161014089015261507c868686614e9a565b955061508b60e08c018c614e14565b9550935081888703016101608901526150a5868686614ef5565b95506150b3818c018c614e14565b9550935050808786030161018088015250506150d0838383614e5c565b93505050506150e26040830185613e29565b82606083015295945050505050565b80820180821115610ae857610ae8614de5565b805182526020810151602083015260408101516040830152606081015160608301526080810151608083015260a081015160a083015260c081015160c083015260e081015160e08301525050565b80516008811061517257634e487b7160e01b600052602160045260246000fd5b82526020818101511515908301526040808201511515908301526060908101511515910152565b8281526040602080830182905283516101c08385015280516001600160a01b039081166102008601529181015182166102208501529182015181166102408401526060820151811661026084015260808201511661028083015260a0015160c06102a08301526000906152106102c0840182614672565b905060208401516152246060850182615104565b506040840151615238610160850182615152565b506060840151838203603f19016101e08501526131938282614506565b6001600160a01b03929092168252602082015260400190565b60006020828403121561528057600080fd5b81516122a081613e6f565b6001600160a01b038316815260406020820181905260009061350f90830184614506565b6000602082840312156152c157600080fd5b81516001600160401b03808211156152d857600080fd5b9083019061018082860312156152ed57600080fd5b6152f5614019565b6152fe836149fd565b815261530c602084016149fd565b602082015261531d604084016149fd565b604082015261532e60608401614b06565b60608201526080830151608082015260a083015160a082015260c083015160c082015260e083015160e0820152610100808401518183015250610120808401518183015250610140808401518183015250610160808401518381111561539357600080fd5b61539f88828701614b80565b918301919091525095945050505050565b6000602082840312156153c257600080fd5b81516001600160401b03808211156153d957600080fd5b9083019060a082860312156153ed57600080fd5b6040516153f981613f82565b825161540481613e4a565b8152602083015161541481613e4a565b6020820152604083015161542781613e4a565b6040820152606083015161543a81613e4a565b606082015260808301518281111561545157600080fd5b61545d87828601614b80565b60808301525095945050505050565b9283526001600160a01b03919091166020830152604082015260600190565b6001600160a01b0396871681529486166020860152604085019390935260608401919091528316608083015290911660a082015260c00190565b6000602082840312156154d757600080fd5b5051919050565b81810381811115610ae857610ae8614de5565b600081600019048311821515161561550b5761550b614de5565b500290565b60006040828403121561552257600080fd5b604080519081016001600160401b038111828210171561554457615544613f28565b604052825181526020928301519281019290925250919050565b6001600160a01b0392909216825280516020808401919091520151604082015260600190565b80516101c080845281516001600160a01b0390811691850191909152602082015181166101e0850152604082015181166102008501526060820151811661022085015260808201511661024084015260a0015160c06102608401526000906155f0610280850182614672565b905060208301516156046020860182615104565b506040830151615618610120860182615152565b5060608301518482036101a0860152614bcf8282614506565b600060018060a01b0380835116845280602084015116602085015280604084015116604085015280606084015116606085015250608082015160a0608085015261350f60a0850182614506565b600081518084526020808501808196508360051b8101915082860160005b8581101561457a5782840389526156b4848351615631565b9885019893509084019060010161569c565b6020815281516020820152600060208301516101c08060408501526156ef6101e0850183615584565b91506040850151601f198086850301606087015261570d848361567e565b9350606087015191506157236080870183613e29565b6080870151915061573760a0870183613e29565b60a0870151915061574b60c0870183613e29565b60c0870151915061575f60e0870183613e29565b60e0870151915061010061577581880184613e29565b870151915061012061578987820184613e29565b808801519250506101408187860301818801526157a685846146b6565b9450808801519250506101608187860301818801526157c58584615631565b945080880151925050506101806157de81870183613e29565b8601516101a0868101919091529095015193019290925250919050565b60006020828403121561580d57600080fd5b81516122a081613e4a565b6000825161582a8184602087016144e2565b9190910192915050565b60008261585157634e487b7160e01b600052601260045260246000fd5b50049056fe416464726573733a206c6f772d6c6576656c2064656c65676174652063616c6c206661696c6564a26469706673582212200fddcb4d20928152c1f44a8830de96444c51dbb4ae86a366c58fda28d1c973e364736f6c63430008100033",
  "libraries": {
    "GasUtils": "0xa85233C63b9Ee964Add6F2cffe00Fd84eb32338f",
    "IncreaseOrderUtils": "0x09635F643e140090A9A8Dcd712eD6285858ceBef",
    "DecreaseOrderUtils": "0x3Aa5ebB10DC797CAC828524e59A333d0A371443c",
    "SwapOrderUtils": "0xa82fF9aFd8f496c3d6ac40E2a0F282E47488CFc9"
  },
  "devdoc": {
    "kind": "dev",
    "methods": {
      "multicall(bytes[])": {
        "details": "Receives and executes a batch of function calls on this contract."
      }
    },
    "version": 1
  },
  "userdoc": {
    "kind": "user",
    "methods": {},
    "version": 1
  },
  "storageLayout": {
    "storage": [
      {
        "astId": 10,
        "contract": "contracts/exchange/OrderHandler.sol:OrderHandler",
        "label": "_status",
        "offset": 0,
        "slot": "0",
        "type": "t_uint256"
      },
      {
        "astId": 10641,
        "contract": "contracts/exchange/OrderHandler.sol:OrderHandler",
        "label": "gov",
        "offset": 0,
        "slot": "1",
        "type": "t_address"
      }
    ],
    "types": {
      "t_address": {
        "encoding": "inplace",
        "label": "address",
        "numberOfBytes": "20"
      },
      "t_uint256": {
        "encoding": "inplace",
        "label": "uint256",
        "numberOfBytes": "32"
      }
    }
  }
}