{
  "address": "0x84eA74d481Ee0A5332c457a4d796187F6Ba67fEB",
  "abi": [
    {
      "inputs": [
        {
          "internalType": "contract RoleStore",
          "name": "_roleStore",
          "type": "address"
        }
      ],
      "stateMutability": "nonpayable",
      "type": "constructor"
    },
    {
      "inputs": [
        {
          "internalType": "address",
          "name": "msgSender",
          "type": "address"
        },
        {
          "internalType": "string",
          "name": "role",
          "type": "string"
        }
      ],
      "name": "Unauthorized",
      "type": "error"
    },
    {
      "anonymous": false,
      "inputs": [
        {
          "indexed": false,
          "internalType": "address",
          "name": "prevGov",
          "type": "address"
        },
        {
          "indexed": false,
          "internalType": "address",
          "name": "nextGov",
          "type": "address"
        }
      ],
      "name": "SetGov",
      "type": "event"
    },
    {
      "inputs": [
        {
          "internalType": "bytes32",
          "name": "key",
          "type": "bytes32"
        }
      ],
      "name": "get",
      "outputs": [
        {
          "components": [
            {
              "components": [
                {
                  "internalType": "address",
                  "name": "account",
                  "type": "address"
                },
                {
                  "internalType": "address",
                  "name": "receiver",
                  "type": "address"
                },
                {
                  "internalType": "address",
                  "name": "callbackContract",
                  "type": "address"
                },
                {
                  "internalType": "address",
                  "name": "market",
                  "type": "address"
                },
                {
                  "internalType": "address",
                  "name": "initialCollateralToken",
                  "type": "address"
                },
                {
                  "internalType": "address[]",
                  "name": "swapPath",
                  "type": "address[]"
                }
              ],
              "internalType": "struct Order.Addresses",
              "name": "addresses",
              "type": "tuple"
            },
            {
              "components": [
                {
                  "internalType": "uint256",
                  "name": "sizeDeltaUsd",
                  "type": "uint256"
                },
                {
                  "internalType": "uint256",
                  "name": "initialCollateralDeltaAmount",
                  "type": "uint256"
                },
                {
                  "internalType": "uint256",
                  "name": "acceptablePrice",
                  "type": "uint256"
                },
                {
                  "internalType": "int256",
                  "name": "acceptablePriceImpactUsd",
                  "type": "int256"
                },
                {
                  "internalType": "uint256",
                  "name": "executionFee",
                  "type": "uint256"
                },
                {
                  "internalType": "uint256",
                  "name": "callbackGasLimit",
                  "type": "uint256"
                },
                {
                  "internalType": "uint256",
                  "name": "minOutputAmount",
                  "type": "uint256"
                },
                {
                  "internalType": "uint256",
                  "name": "updatedAtBlock",
                  "type": "uint256"
                }
              ],
              "internalType": "struct Order.Numbers",
              "name": "numbers",
              "type": "tuple"
            },
            {
              "components": [
                {
                  "internalType": "enum Order.OrderType",
                  "name": "orderType",
                  "type": "uint8"
                },
                {
                  "internalType": "bool",
                  "name": "isLong",
                  "type": "bool"
                },
                {
                  "internalType": "bool",
                  "name": "shouldConvertETH",
                  "type": "bool"
                },
                {
                  "internalType": "bool",
                  "name": "isFrozen",
                  "type": "bool"
                }
              ],
              "internalType": "struct Order.Flags",
              "name": "flags",
              "type": "tuple"
            },
            {
              "internalType": "bytes",
              "name": "data",
              "type": "bytes"
            }
          ],
          "internalType": "struct Order.Props",
          "name": "",
          "type": "tuple"
        }
      ],
      "stateMutability": "view",
      "type": "function"
    },
    {
      "inputs": [
        {
          "internalType": "address",
          "name": "account",
          "type": "address"
        }
      ],
      "name": "getAccountOrderCount",
      "outputs": [
        {
          "internalType": "uint256",
          "name": "",
          "type": "uint256"
        }
      ],
      "stateMutability": "view",
      "type": "function"
    },
    {
      "inputs": [
        {
          "internalType": "address",
          "name": "account",
          "type": "address"
        },
        {
          "internalType": "uint256",
          "name": "start",
          "type": "uint256"
        },
        {
          "internalType": "uint256",
          "name": "end",
          "type": "uint256"
        }
      ],
      "name": "getAccountOrderKeys",
      "outputs": [
        {
          "internalType": "bytes32[]",
          "name": "",
          "type": "bytes32[]"
        }
      ],
      "stateMutability": "view",
      "type": "function"
    },
    {
      "inputs": [],
      "name": "getOrderCount",
      "outputs": [
        {
          "internalType": "uint256",
          "name": "",
          "type": "uint256"
        }
      ],
      "stateMutability": "view",
      "type": "function"
    },
    {
      "inputs": [
        {
          "internalType": "uint256",
          "name": "start",
          "type": "uint256"
        },
        {
          "internalType": "uint256",
          "name": "end",
          "type": "uint256"
        }
      ],
      "name": "getOrderKeys",
      "outputs": [
        {
          "internalType": "bytes32[]",
          "name": "",
          "type": "bytes32[]"
        }
      ],
      "stateMutability": "view",
      "type": "function"
    },
    {
      "inputs": [],
      "name": "gov",
      "outputs": [
        {
          "internalType": "address",
          "name": "",
          "type": "address"
        }
      ],
      "stateMutability": "view",
      "type": "function"
    },
    {
      "inputs": [
        {
          "internalType": "bytes32",
          "name": "",
          "type": "bytes32"
        }
      ],
      "name": "orders",
      "outputs": [
        {
          "components": [
            {
              "internalType": "address",
              "name": "account",
              "type": "address"
            },
            {
              "internalType": "address",
              "name": "receiver",
              "type": "address"
            },
            {
              "internalType": "address",
              "name": "callbackContract",
              "type": "address"
            },
            {
              "internalType": "address",
              "name": "market",
              "type": "address"
            },
            {
              "internalType": "address",
              "name": "initialCollateralToken",
              "type": "address"
            },
            {
              "internalType": "address[]",
              "name": "swapPath",
              "type": "address[]"
            }
          ],
          "internalType": "struct Order.Addresses",
          "name": "addresses",
          "type": "tuple"
        },
        {
          "components": [
            {
              "internalType": "uint256",
              "name": "sizeDeltaUsd",
              "type": "uint256"
            },
            {
              "internalType": "uint256",
              "name": "initialCollateralDeltaAmount",
              "type": "uint256"
            },
            {
              "internalType": "uint256",
              "name": "acceptablePrice",
              "type": "uint256"
            },
            {
              "internalType": "int256",
              "name": "acceptablePriceImpactUsd",
              "type": "int256"
            },
            {
              "internalType": "uint256",
              "name": "executionFee",
              "type": "uint256"
            },
            {
              "internalType": "uint256",
              "name": "callbackGasLimit",
              "type": "uint256"
            },
            {
              "internalType": "uint256",
              "name": "minOutputAmount",
              "type": "uint256"
            },
            {
              "internalType": "uint256",
              "name": "updatedAtBlock",
              "type": "uint256"
            }
          ],
          "internalType": "struct Order.Numbers",
          "name": "numbers",
          "type": "tuple"
        },
        {
          "components": [
            {
              "internalType": "enum Order.OrderType",
              "name": "orderType",
              "type": "uint8"
            },
            {
              "internalType": "bool",
              "name": "isLong",
              "type": "bool"
            },
            {
              "internalType": "bool",
              "name": "shouldConvertETH",
              "type": "bool"
            },
            {
              "internalType": "bool",
              "name": "isFrozen",
              "type": "bool"
            }
          ],
          "internalType": "struct Order.Flags",
          "name": "flags",
          "type": "tuple"
        },
        {
          "internalType": "bytes",
          "name": "data",
          "type": "bytes"
        }
      ],
      "stateMutability": "view",
      "type": "function"
    },
    {
      "inputs": [
        {
          "internalType": "address",
          "name": "token",
          "type": "address"
        }
      ],
      "name": "recordTransferIn",
      "outputs": [
        {
          "internalType": "uint256",
          "name": "",
          "type": "uint256"
        }
      ],
      "stateMutability": "nonpayable",
      "type": "function"
    },
    {
      "inputs": [
        {
          "internalType": "address payable",
          "name": "receiver",
          "type": "address"
        },
        {
          "internalType": "uint256",
          "name": "amount",
          "type": "uint256"
        }
      ],
      "name": "recoverETH",
      "outputs": [],
      "stateMutability": "nonpayable",
      "type": "function"
    },
    {
      "inputs": [
        {
          "internalType": "bytes32",
          "name": "key",
          "type": "bytes32"
        },
        {
          "internalType": "address",
          "name": "account",
          "type": "address"
        }
      ],
      "name": "remove",
      "outputs": [],
      "stateMutability": "nonpayable",
      "type": "function"
    },
    {
      "inputs": [
        {
          "internalType": "bytes32",
          "name": "key",
          "type": "bytes32"
        },
        {
          "components": [
            {
              "components": [
                {
                  "internalType": "address",
                  "name": "account",
                  "type": "address"
                },
                {
                  "internalType": "address",
                  "name": "receiver",
                  "type": "address"
                },
                {
                  "internalType": "address",
                  "name": "callbackContract",
                  "type": "address"
                },
                {
                  "internalType": "address",
                  "name": "market",
                  "type": "address"
                },
                {
                  "internalType": "address",
                  "name": "initialCollateralToken",
                  "type": "address"
                },
                {
                  "internalType": "address[]",
                  "name": "swapPath",
                  "type": "address[]"
                }
              ],
              "internalType": "struct Order.Addresses",
              "name": "addresses",
              "type": "tuple"
            },
            {
              "components": [
                {
                  "internalType": "uint256",
                  "name": "sizeDeltaUsd",
                  "type": "uint256"
                },
                {
                  "internalType": "uint256",
                  "name": "initialCollateralDeltaAmount",
                  "type": "uint256"
                },
                {
                  "internalType": "uint256",
                  "name": "acceptablePrice",
                  "type": "uint256"
                },
                {
                  "internalType": "int256",
                  "name": "acceptablePriceImpactUsd",
                  "type": "int256"
                },
                {
                  "internalType": "uint256",
                  "name": "executionFee",
                  "type": "uint256"
                },
                {
                  "internalType": "uint256",
                  "name": "callbackGasLimit",
                  "type": "uint256"
                },
                {
                  "internalType": "uint256",
                  "name": "minOutputAmount",
                  "type": "uint256"
                },
                {
                  "internalType": "uint256",
                  "name": "updatedAtBlock",
                  "type": "uint256"
                }
              ],
              "internalType": "struct Order.Numbers",
              "name": "numbers",
              "type": "tuple"
            },
            {
              "components": [
                {
                  "internalType": "enum Order.OrderType",
                  "name": "orderType",
                  "type": "uint8"
                },
                {
                  "internalType": "bool",
                  "name": "isLong",
                  "type": "bool"
                },
                {
                  "internalType": "bool",
                  "name": "shouldConvertETH",
                  "type": "bool"
                },
                {
                  "internalType": "bool",
                  "name": "isFrozen",
                  "type": "bool"
                }
              ],
              "internalType": "struct Order.Flags",
              "name": "flags",
              "type": "tuple"
            },
            {
              "internalType": "bytes",
              "name": "data",
              "type": "bytes"
            }
          ],
          "internalType": "struct Order.Props",
          "name": "order",
          "type": "tuple"
        }
      ],
      "name": "set",
      "outputs": [],
      "stateMutability": "nonpayable",
      "type": "function"
    },
    {
      "inputs": [
        {
          "internalType": "address",
          "name": "_gov",
          "type": "address"
        }
      ],
      "name": "setGov",
      "outputs": [],
      "stateMutability": "nonpayable",
      "type": "function"
    },
    {
      "inputs": [
        {
          "internalType": "address",
          "name": "",
          "type": "address"
        }
      ],
      "name": "tokenBalances",
      "outputs": [
        {
          "internalType": "uint256",
          "name": "",
          "type": "uint256"
        }
      ],
      "stateMutability": "view",
      "type": "function"
    },
    {
      "inputs": [
        {
          "internalType": "address",
          "name": "token",
          "type": "address"
        },
        {
          "internalType": "uint256",
          "name": "amount",
          "type": "uint256"
        },
        {
          "internalType": "address",
          "name": "receiver",
          "type": "address"
        }
      ],
      "name": "transferOut",
      "outputs": [],
      "stateMutability": "nonpayable",
      "type": "function"
    },
    {
      "inputs": [
        {
          "internalType": "address",
          "name": "weth",
          "type": "address"
        },
        {
          "internalType": "address",
          "name": "token",
          "type": "address"
        },
        {
          "internalType": "uint256",
          "name": "amount",
          "type": "uint256"
        },
        {
          "internalType": "address",
          "name": "receiver",
          "type": "address"
        },
        {
          "internalType": "bool",
          "name": "shouldConvertETH",
          "type": "bool"
        }
      ],
      "name": "transferOut",
      "outputs": [],
      "stateMutability": "nonpayable",
      "type": "function"
    },
    {
      "stateMutability": "payable",
      "type": "receive"
    }
  ],
  "transactionHash": "0xfa86b461dbc9f21c7fc332d388a6d41a46c5c4a8fad66d12e3de6384b14a7de5",
  "args": [
    "0x5FbDB2315678afecb367f032d93F642f64180aa3"
  ],
  "numDeployments": 1,
  "solcInputHash": "074655bab3ff31f499c0f683e0548539",
  "bytecode": "0x60a06040523480156200001157600080fd5b5060405162002270380380620022708339810160408190526200003491620000bb565b8080808062000043336200005a565b6001600160a01b031660805250620000ed92505050565b600080546001600160a01b038381166001600160a01b031983168117909355604080519190921680825260208201939093527f53351836099c03ffc3b1727d8abd4b0222afa87d4ed76ae3102d51369ef7f785910160405180910390a15050565b600060208284031215620000ce57600080fd5b81516001600160a01b0381168114620000e657600080fd5b9392505050565b608051612167620001096000396000610d0d01526121676000f3fe6080604052600436106100bc5760003560e01c806312d43a51146100c85780632874528e146100fe5780632b7885f7146101205780632d891fba14610140578063352f9aed146101605780633e0c06291461018e578063523fba7f146101ae5780636e343b2f146101db5780638d0a5fbb146102085780638eaa6ac01461021d5780639227bac41461024a5780639c3f1e901461026a578063c5d9eb481461029a578063cfad57a2146102ba578063f9498938146102da57600080fd5b366100c357005b600080fd5b3480156100d457600080fd5b506000546100e8906001600160a01b031681565b6040516100f59190611672565b60405180910390f35b34801561010a57600080fd5b5061011e6101193660046116a6565b6102fa565b005b34801561012c57600080fd5b5061011e61013b36600461195b565b61041b565b34801561014c57600080fd5b5061011e61015b366004611aa5565b61062c565b34801561016c57600080fd5b5061018061017b366004611ae7565b610671565b6040519081526020016100f5565b34801561019a57600080fd5b5061011e6101a9366004611b04565b6106be565b3480156101ba57600080fd5b506101806101c9366004611ae7565b60016020526000908152604090205481565b3480156101e757600080fd5b506101fb6101f6366004611b30565b61072e565b6040516100f59190611b65565b34801561021457600080fd5b5061018061075e565b34801561022957600080fd5b5061023d610238366004611ba9565b61076f565b6040516100f59190611d50565b34801561025657600080fd5b506101fb610265366004611dbc565b6109c7565b34801561027657600080fd5b5061028a610285366004611ba9565b6109de565b6040516100f59493929190611dde565b3480156102a657600080fd5b506101806102b5366004611ae7565b610bfc565b3480156102c657600080fd5b5061011e6102d5366004611ae7565b610c1d565b3480156102e657600080fd5b5061011e6102f5366004611e22565b610c77565b6103346000805160206121128339815191526040518060400160405280600a81526020016921a7a72a2927a62622a960b11b815250610cf6565b6000828152600260208190526040822080546001600160a01b03199081168255600182018054821690559181018054831690556003810180548316905560048101805490921690915590818161038d60058301826114e2565b5050600060068301819055600783018190556008830181905560098301819055600a8301819055600b8301819055600c8301819055600d8301819055600e8301805463ffffffff191690556103e690600f840190611500565b50506001600160a01b038116600090815260056020526040902061040a9083610daa565b50610416600383610daa565b505050565b6104556000805160206121128339815191526040518060400160405280600a81526020016921a7a72a2927a62622a960b11b815250610cf6565b6000828152600260208181526040928390208451805182546001600160a01b03199081166001600160a01b0392831617845582850151600185018054831691841691909117905595820151948301805487169582169590951790945560608101516003830180548716918616919091179055608081015160048301805490961694169390931790935560a082015180518594939284926104fe926005850192919091019061153a565b50505060208281015180516006840155908101516007808401919091556040808301516008850155606083015160098501556080830151600a85015560a0830151600b85015560c0830151600c85015560e090920151600d840155908301518051600e8401805492939092839160ff1990911690600190849081111561058657610586611ca3565b0217905550602082015181546040840151606094850151151563010000000263ff00000019911515620100000262ff000019941515610100029490941662ffff0019909316929092179290921791909116179055820151600f8201906105ec9082611f12565b50905050610620826005600061060185515190565b6001600160a01b03168152602081019190915260400160002090610db6565b50610416600383610db6565b6106666000805160206121128339815191526040518060400160405280600a81526020016921a7a72a2927a62622a960b11b815250610cf6565b610416838383610dc2565b60006106ad6000805160206121128339815191526040518060400160405280600a81526020016921a7a72a2927a62622a960b11b815250610cf6565b6106b682610e07565b90505b919050565b6106f86000805160206121128339815191526040518060400160405280600a81526020016921a7a72a2927a62622a960b11b815250610cf6565b6040516001600160a01b0383169082156108fc029083906000818181858888f19350505050158015610416573d6000803e3d6000fd5b6001600160a01b0383166000908152600560205260409020606090610754908484610eb8565b90505b9392505050565b600061076a6003610f78565b905090565b61077761159f565b60008281526002602081815260409283902083516101408101855281546001600160a01b03908116608083019081526001840154821660a084015294830154811660c08301526003830154811660e083015260048301541661010082015260058201805486518186028101860190975280875291959294869490938693610120870193919283018282801561083557602002820191906000526020600020905b81546001600160a01b03168152600190910190602001808311610817575b50505050508152505081526020016006820160405180610100016040529081600082015481526020016001820154815260200160028201548152602001600382015481526020016004820154815260200160058201548152602001600682015481526020016007820154815250508152602001600e82016040518060800160405290816000820160009054906101000a900460ff1660078111156108db576108db611ca3565b60078111156108ec576108ec611ca3565b8152905460ff6101008204811615156020808501919091526201000083048216151560408501526301000000909204161515606090920191909152908252600f83018054929091019161093e90611e8a565b80601f016020809104026020016040519081016040528092919081815260200182805461096a90611e8a565b80156109b75780601f1061098c576101008083540402835291602001916109b7565b820191906000526020600020905b81548152906001019060200180831161099a57829003601f168201915b5050505050815250509050919050565b60606109d560038484610eb8565b90505b92915050565b600260208181526000928352604092839020835160c08101855281546001600160a01b039081168252600183015481168285015293820154841681860152600382015484166060820152600482015490931660808401526005810180548551818502810185019096528086529194859360a086019391929190830182828015610a9057602002820191906000526020600020905b81546001600160a01b03168152600190910190602001808311610a72575b505050919092525050604080516101008101825260068501548152600780860154602083015260088601548284015260098601546060830152600a860154608080840191909152600b87015460a0840152600c87015460c0840152600d87015460e08401528351908101909352600e860180549596929592945091839160ff90911690811115610b2257610b22611ca3565b6007811115610b3357610b33611ca3565b8152905460ff61010082048116151560208401526201000082048116151560408401526301000000909104161515606090910152600f82018054919291610b7990611e8a565b80601f0160208091040260200160405190810160405280929190818152602001828054610ba590611e8a565b8015610bf25780601f10610bc757610100808354040283529160200191610bf2565b820191906000526020600020905b815481529060010190602001808311610bd557829003601f168201915b5050505050905084565b6001600160a01b03811660009081526005602052604081206106b690610f78565b6000546001600160a01b03163314610c6b576040805163a35b150b60e01b81523360048201526024810191909152600360448201526223a7ab60e91b60648201526084015b60405180910390fd5b610c7481610f82565b50565b610cb16000805160206121128339815191526040518060400160405280600a81526020016921a7a72a2927a62622a960b11b815250610cf6565b846001600160a01b0316846001600160a01b0316148015610ccf5750805b15610ce457610cdf848484610fe3565b610cef565b610cef848484610dc2565b5050505050565b60405163ac4ab3fb60e01b81526001600160a01b037f0000000000000000000000000000000000000000000000000000000000000000169063ac4ab3fb90610d449033908690600401611fd1565b602060405180830381865afa158015610d61573d6000803e3d6000fd5b505050506040513d601f19601f82011682018060405250810190610d859190611fea565b610da657338160405163a35b150b60e01b8152600401610c62929190612007565b5050565b60006109d583836110a5565b60006109d58383611198565b306001600160a01b03821603610dea5760405162461bcd60e51b8152600401610c629061202b565b610dfe6001600160a01b03841682846111e7565b6104168361123d565b6001600160a01b0381166000818152600160205260408082205490516370a0823160e01b8152919290918391906370a0823190610e48903090600401611672565b602060405180830381865afa158015610e65573d6000803e3d6000fd5b505050506040513d601f19601f82011682018060405250810190610e89919061205b565b6001600160a01b03851660009081526001602052604090208190559050610eb0828261208a565b949350505050565b60606000610ec585610f78565b905080831115610ed3578092505b6000610edf858561208a565b6001600160401b03811115610ef657610ef66116d6565b604051908082528060200260200182016040528015610f1f578160200160208202803683370190505b509050845b84811015610f6e57610f3687826112c6565b82610f41888461208a565b81518110610f5157610f5161209d565b602090810291909101015280610f66816120b3565b915050610f24565b5095945050505050565b60006106b6825490565b600080546001600160a01b038381166001600160a01b031983168117909355604080519190921680825260208201939093527f53351836099c03ffc3b1727d8abd4b0222afa87d4ed76ae3102d51369ef7f785910160405180910390a15050565b306001600160a01b0382160361100b5760405162461bcd60e51b8152600401610c629061202b565b604051632e1a7d4d60e01b8152600481018390526001600160a01b03841690632e1a7d4d90602401600060405180830381600087803b15801561104d57600080fd5b505af1158015611061573d6000803e3d6000fd5b50506040516001600160a01b038416925084156108fc02915084906000818181858888f1935050505015801561109b573d6000803e3d6000fd5b506104168361123d565b6000818152600183016020526040812054801561118e5760006110c960018361208a565b85549091506000906110dd9060019061208a565b90508181146111425760008660000182815481106110fd576110fd61209d565b90600052602060002001549050808760000184815481106111205761112061209d565b6000918252602080832090910192909255918252600188019052604090208390555b8554869080611153576111536120cc565b6001900381819060005260206000200160009055905585600101600086815260200190815260200160002060009055600193505050506109d8565b60009150506109d8565b60008181526001830160205260408120546111df575081546001818101845560008481526020808220909301849055845484825282860190935260409020919091556109d8565b5060006109d8565b6104168363a9059cbb60e01b8484604051602401611206929190611fd1565b60408051601f198184030181529190526020810180516001600160e01b03166001600160e01b0319909316929092179091526112d2565b6040516370a0823160e01b81526001600160a01b038216906370a0823190611269903090600401611672565b602060405180830381865afa158015611286573d6000803e3d6000fd5b505050506040513d601f19601f820116820180604052508101906112aa919061205b565b6001600160a01b03909116600090815260016020526040902055565b60006109d583836113a4565b6000611327826040518060400160405280602081526020017f5361666545524332303a206c6f772d6c6576656c2063616c6c206661696c6564815250856001600160a01b03166113ce9092919063ffffffff16565b80519091501561041657808060200190518101906113459190611fea565b6104165760405162461bcd60e51b815260206004820152602a60248201527f5361666545524332303a204552433230206f7065726174696f6e20646964206e6044820152691bdd081cdd58d8d9595960b21b6064820152608401610c62565b60008260000182815481106113bb576113bb61209d565b9060005260206000200154905092915050565b60606107548484600085856001600160a01b0385163b6114305760405162461bcd60e51b815260206004820152601d60248201527f416464726573733a2063616c6c20746f206e6f6e2d636f6e74726163740000006044820152606401610c62565b600080866001600160a01b0316858760405161144c91906120e2565b60006040518083038185875af1925050503d8060008114611489576040519150601f19603f3d011682016040523d82523d6000602084013e61148e565b606091505b509150915061149e8282866114a9565b979650505050505050565b606083156114b8575081610757565b8251156114c85782518084602001fd5b8160405162461bcd60e51b8152600401610c6291906120fe565b5080546000825590600052602060002090810190610c74919061165d565b50805461150c90611e8a565b6000825580601f1061151c575050565b601f016020900490600052602060002090810190610c74919061165d565b82805482825590600052602060002090810192821561158f579160200282015b8281111561158f57825182546001600160a01b0319166001600160a01b0390911617825560209092019160019091019061155a565b5061159b92915061165d565b5090565b60408051610140810190915260006080820181815260a0830182905260c0830182905260e0830182905261010083019190915260606101208301528190815260200161162960405180610100016040528060008152602001600081526020016000815260200160008152602001600081526020016000815260200160008152602001600081525090565b8152604080516080810182526000808252602082810182905292820181905260608201529101908152602001606081525090565b5b8082111561159b576000815560010161165e565b6001600160a01b0391909116815260200190565b6001600160a01b0381168114610c7457600080fd5b80356106b981611686565b600080604083850312156116b957600080fd5b8235915060208301356116cb81611686565b809150509250929050565b634e487b7160e01b600052604160045260246000fd5b604051608081016001600160401b038111828210171561170e5761170e6116d6565b60405290565b60405160c081016001600160401b038111828210171561170e5761170e6116d6565b604051601f8201601f191681016001600160401b038111828210171561175e5761175e6116d6565b604052919050565b600082601f83011261177757600080fd5b813560206001600160401b03821115611792576117926116d6565b8160051b6117a1828201611736565b92835284810182019282810190878511156117bb57600080fd5b83870192505b8483101561149e5782356117d481611686565b825291830191908301906117c1565b60006101008083850312156117f757600080fd5b604051908101906001600160401b0382118183101715611819576118196116d6565b81604052809250833581526020840135602082015260408401356040820152606084013560608201526080840135608082015260a084013560a082015260c084013560c082015260e084013560e0820152505092915050565b8015158114610c7457600080fd5b60006080828403121561189257600080fd5b61189a6116ec565b90508135600881106118ab57600080fd5b815260208201356118bb81611872565b602082015260408201356118ce81611872565b604082015260608201356118e181611872565b606082015292915050565b600082601f8301126118fd57600080fd5b81356001600160401b03811115611916576119166116d6565b611929601f8201601f1916602001611736565b81815284602083860101111561193e57600080fd5b816020850160208301376000918101602001919091529392505050565b6000806040838503121561196e57600080fd5b8235915060208301356001600160401b038082111561198c57600080fd5b908401906101c082870312156119a157600080fd5b6119a96116ec565b8235828111156119b857600080fd5b830160c081890312156119ca57600080fd5b6119d2611714565b81356119dd81611686565b815260208201356119ed81611686565b60208201526040820135611a0081611686565b6040820152611a116060830161169b565b6060820152611a226080830161169b565b608082015260a082013584811115611a3957600080fd5b611a458a828501611766565b60a083015250825250611a5b87602085016117e3565b6020820152611a6e876101208501611880565b60408201526101a083013582811115611a8657600080fd5b611a92888286016118ec565b6060830152508093505050509250929050565b600080600060608486031215611aba57600080fd5b8335611ac581611686565b9250602084013591506040840135611adc81611686565b809150509250925092565b600060208284031215611af957600080fd5b813561075781611686565b60008060408385031215611b1757600080fd5b8235611b2281611686565b946020939093013593505050565b600080600060608486031215611b4557600080fd5b8335611b5081611686565b95602085013595506040909401359392505050565b6020808252825182820181905260009190848201906040850190845b81811015611b9d57835183529284019291840191600101611b81565b50909695505050505050565b600060208284031215611bbb57600080fd5b5035919050565b600060c0830160018060a01b0380845116855260208181860151168187015281604086015116604087015281606086015116606087015281608086015116608087015260a085015160c060a088015283815180865260e0890191508383019550600092505b80831015611c4957855185168252948301946001929092019190830190611c27565b50979650505050505050565b805182526020810151602083015260408101516040830152606081015160608301526080810151608083015260a081015160a083015260c081015160c083015260e081015160e08301525050565b634e487b7160e01b600052602160045260246000fd5b805160088110611cd957634e487b7160e01b600052602160045260246000fd5b82526020818101511515908301526040808201511515908301526060908101511515910152565b60005b83811015611d1b578181015183820152602001611d03565b50506000910152565b60008151808452611d3c816020860160208601611d00565b601f01601f19169290920160200192915050565b60208152600082516101c0806020850152611d6f6101e0850183611bc2565b91506020850151611d836040860182611c55565b506040850151611d97610140860182611cb9565b506060850151848303601f190182860152611db28382611d24565b9695505050505050565b60008060408385031215611dcf57600080fd5b50508035926020909101359150565b60006101c0808352611df281840188611bc2565b9050611e016020840187611c55565b611e0f610120840186611cb9565b8281036101a084015261149e8185611d24565b600080600080600060a08688031215611e3a57600080fd5b8535611e4581611686565b94506020860135611e5581611686565b9350604086013592506060860135611e6c81611686565b91506080860135611e7c81611872565b809150509295509295909350565b600181811c90821680611e9e57607f821691505b602082108103611ebe57634e487b7160e01b600052602260045260246000fd5b50919050565b601f82111561041657600081815260208120601f850160051c81016020861015611eeb5750805b601f850160051c820191505b81811015611f0a57828155600101611ef7565b505050505050565b81516001600160401b03811115611f2b57611f2b6116d6565b611f3f81611f398454611e8a565b84611ec4565b602080601f831160018114611f745760008415611f5c5750858301515b600019600386901b1c1916600185901b178555611f0a565b600085815260208120601f198616915b82811015611fa357888601518255948401946001909101908401611f84565b5085821015611fc15787850151600019600388901b60f8161c191681555b5050505050600190811b01905550565b6001600160a01b03929092168252602082015260400190565b600060208284031215611ffc57600080fd5b815161075781611872565b6001600160a01b038316815260406020820181905260009061075490830184611d24565b6020808252601690820152752130b7359d1034b73b30b634b2103932b1b2b4bb32b960511b604082015260600190565b60006020828403121561206d57600080fd5b5051919050565b634e487b7160e01b600052601160045260246000fd5b818103818111156109d8576109d8612074565b634e487b7160e01b600052603260045260246000fd5b6000600182016120c5576120c5612074565b5060010190565b634e487b7160e01b600052603160045260246000fd5b600082516120f4818460208701611d00565b9190910192915050565b6020815260006109d56020830184611d2456fe70546d1c92f8c2132ae23a23f5177aa8526356051c7510df99f50e012d221529a2646970667358221220a0748977be465d0a6136f31ff0645ac063d9202cbff1182ce6bce6ae693d795264736f6c63430008100033",
  "devdoc": {
    "kind": "dev",
    "methods": {},
    "version": 1
  },
  "userdoc": {
    "kind": "user",
    "methods": {},
    "version": 1
  },
  "storageLayout": {
    "storage": [
      {
        "astId": 10641,
        "contract": "contracts/order/OrderStore.sol:OrderStore",
        "label": "gov",
        "offset": 0,
        "slot": "0",
        "type": "t_address"
      },
      {
        "astId": 4792,
        "contract": "contracts/order/OrderStore.sol:OrderStore",
        "label": "tokenBalances",
        "offset": 0,
        "slot": "1",
        "type": "t_mapping(t_address,t_uint256)"
      },
      {
        "astId": 16528,
        "contract": "contracts/order/OrderStore.sol:OrderStore",
        "label": "orders",
        "offset": 0,
        "slot": "2",
        "type": "t_mapping(t_bytes32,t_struct(Props)15530_storage)"
      },
      {
        "astId": 16531,
        "contract": "contracts/order/OrderStore.sol:OrderStore",
        "label": "orderKeys",
        "offset": 0,
        "slot": "3",
        "type": "t_struct(Bytes32Set)4192_storage"
      },
      {
        "astId": 16536,
        "contract": "contracts/order/OrderStore.sol:OrderStore",
        "label": "accountOrderKeys",
        "offset": 0,
        "slot": "5",
        "type": "t_mapping(t_address,t_struct(Bytes32Set)4192_storage)"
      }
    ],
    "types": {
      "t_address": {
        "encoding": "inplace",
        "label": "address",
        "numberOfBytes": "20"
      },
      "t_array(t_address)dyn_storage": {
        "base": "t_address",
        "encoding": "dynamic_array",
        "label": "address[]",
        "numberOfBytes": "32"
      },
      "t_array(t_bytes32)dyn_storage": {
        "base": "t_bytes32",
        "encoding": "dynamic_array",
        "label": "bytes32[]",
        "numberOfBytes": "32"
      },
      "t_bool": {
        "encoding": "inplace",
        "label": "bool",
        "numberOfBytes": "1"
      },
      "t_bytes32": {
        "encoding": "inplace",
        "label": "bytes32",
        "numberOfBytes": "32"
      },
      "t_bytes_storage": {
        "encoding": "bytes",
        "label": "bytes",
        "numberOfBytes": "32"
      },
      "t_enum(OrderType)15477": {
        "encoding": "inplace",
        "label": "enum Order.OrderType",
        "numberOfBytes": "1"
      },
      "t_int256": {
        "encoding": "inplace",
        "label": "int256",
        "numberOfBytes": "32"
      },
      "t_mapping(t_address,t_struct(Bytes32Set)4192_storage)": {
        "encoding": "mapping",
        "key": "t_address",
        "label": "mapping(address => struct EnumerableSet.Bytes32Set)",
        "numberOfBytes": "32",
        "value": "t_struct(Bytes32Set)4192_storage"
      },
      "t_mapping(t_address,t_uint256)": {
        "encoding": "mapping",
        "key": "t_address",
        "label": "mapping(address => uint256)",
        "numberOfBytes": "32",
        "value": "t_uint256"
      },
      "t_mapping(t_bytes32,t_struct(Props)15530_storage)": {
        "encoding": "mapping",
        "key": "t_bytes32",
        "label": "mapping(bytes32 => struct Order.Props)",
        "numberOfBytes": "32",
        "value": "t_struct(Props)15530_storage"
      },
      "t_mapping(t_bytes32,t_uint256)": {
        "encoding": "mapping",
        "key": "t_bytes32",
        "label": "mapping(bytes32 => uint256)",
        "numberOfBytes": "32",
        "value": "t_uint256"
      },
      "t_struct(Addresses)15491_storage": {
        "encoding": "inplace",
        "label": "struct Order.Addresses",
        "members": [
          {
            "astId": 15479,
            "contract": "contracts/order/OrderStore.sol:OrderStore",
            "label": "account",
            "offset": 0,
            "slot": "0",
            "type": "t_address"
          },
          {
            "astId": 15481,
            "contract": "contracts/order/OrderStore.sol:OrderStore",
            "label": "receiver",
            "offset": 0,
            "slot": "1",
            "type": "t_address"
          },
          {
            "astId": 15483,
            "contract": "contracts/order/OrderStore.sol:OrderStore",
            "label": "callbackContract",
            "offset": 0,
            "slot": "2",
            "type": "t_address"
          },
          {
            "astId": 15485,
            "contract": "contracts/order/OrderStore.sol:OrderStore",
            "label": "market",
            "offset": 0,
            "slot": "3",
            "type": "t_address"
          },
          {
            "astId": 15487,
            "contract": "contracts/order/OrderStore.sol:OrderStore",
            "label": "initialCollateralToken",
            "offset": 0,
            "slot": "4",
            "type": "t_address"
          },
          {
            "astId": 15490,
            "contract": "contracts/order/OrderStore.sol:OrderStore",
            "label": "swapPath",
            "offset": 0,
            "slot": "5",
            "type": "t_array(t_address)dyn_storage"
          }
        ],
        "numberOfBytes": "192"
      },
      "t_struct(Bytes32Set)4192_storage": {
        "encoding": "inplace",
        "label": "struct EnumerableSet.Bytes32Set",
        "members": [
          {
            "astId": 4191,
            "contract": "contracts/order/OrderStore.sol:OrderStore",
            "label": "_inner",
            "offset": 0,
            "slot": "0",
            "type": "t_struct(Set)3998_storage"
          }
        ],
        "numberOfBytes": "64"
      },
      "t_struct(Flags)15518_storage": {
        "encoding": "inplace",
        "label": "struct Order.Flags",
        "members": [
          {
            "astId": 15511,
            "contract": "contracts/order/OrderStore.sol:OrderStore",
            "label": "orderType",
            "offset": 0,
            "slot": "0",
            "type": "t_enum(OrderType)15477"
          },
          {
            "astId": 15513,
            "contract": "contracts/order/OrderStore.sol:OrderStore",
            "label": "isLong",
            "offset": 1,
            "slot": "0",
            "type": "t_bool"
          },
          {
            "astId": 15515,
            "contract": "contracts/order/OrderStore.sol:OrderStore",
            "label": "shouldConvertETH",
            "offset": 2,
            "slot": "0",
            "type": "t_bool"
          },
          {
            "astId": 15517,
            "contract": "contracts/order/OrderStore.sol:OrderStore",
            "label": "isFrozen",
            "offset": 3,
            "slot": "0",
            "type": "t_bool"
          }
        ],
        "numberOfBytes": "32"
      },
      "t_struct(Numbers)15508_storage": {
        "encoding": "inplace",
        "label": "struct Order.Numbers",
        "members": [
          {
            "astId": 15493,
            "contract": "contracts/order/OrderStore.sol:OrderStore",
            "label": "sizeDeltaUsd",
            "offset": 0,
            "slot": "0",
            "type": "t_uint256"
          },
          {
            "astId": 15495,
            "contract": "contracts/order/OrderStore.sol:OrderStore",
            "label": "initialCollateralDeltaAmount",
            "offset": 0,
            "slot": "1",
            "type": "t_uint256"
          },
          {
            "astId": 15497,
            "contract": "contracts/order/OrderStore.sol:OrderStore",
            "label": "acceptablePrice",
            "offset": 0,
            "slot": "2",
            "type": "t_uint256"
          },
          {
            "astId": 15499,
            "contract": "contracts/order/OrderStore.sol:OrderStore",
            "label": "acceptablePriceImpactUsd",
            "offset": 0,
            "slot": "3",
            "type": "t_int256"
          },
          {
            "astId": 15501,
            "contract": "contracts/order/OrderStore.sol:OrderStore",
            "label": "executionFee",
            "offset": 0,
            "slot": "4",
            "type": "t_uint256"
          },
          {
            "astId": 15503,
            "contract": "contracts/order/OrderStore.sol:OrderStore",
            "label": "callbackGasLimit",
            "offset": 0,
            "slot": "5",
            "type": "t_uint256"
          },
          {
            "astId": 15505,
            "contract": "contracts/order/OrderStore.sol:OrderStore",
            "label": "minOutputAmount",
            "offset": 0,
            "slot": "6",
            "type": "t_uint256"
          },
          {
            "astId": 15507,
            "contract": "contracts/order/OrderStore.sol:OrderStore",
            "label": "updatedAtBlock",
            "offset": 0,
            "slot": "7",
            "type": "t_uint256"
          }
        ],
        "numberOfBytes": "256"
      },
      "t_struct(Props)15530_storage": {
        "encoding": "inplace",
        "label": "struct Order.Props",
        "members": [
          {
            "astId": 15521,
            "contract": "contracts/order/OrderStore.sol:OrderStore",
            "label": "addresses",
            "offset": 0,
            "slot": "0",
            "type": "t_struct(Addresses)15491_storage"
          },
          {
            "astId": 15524,
            "contract": "contracts/order/OrderStore.sol:OrderStore",
            "label": "numbers",
            "offset": 0,
            "slot": "6",
            "type": "t_struct(Numbers)15508_storage"
          },
          {
            "astId": 15527,
            "contract": "contracts/order/OrderStore.sol:OrderStore",
            "label": "flags",
            "offset": 0,
            "slot": "14",
            "type": "t_struct(Flags)15518_storage"
          },
          {
            "astId": 15529,
            "contract": "contracts/order/OrderStore.sol:OrderStore",
            "label": "data",
            "offset": 0,
            "slot": "15",
            "type": "t_bytes_storage"
          }
        ],
        "numberOfBytes": "512"
      },
      "t_struct(Set)3998_storage": {
        "encoding": "inplace",
        "label": "struct EnumerableSet.Set",
        "members": [
          {
            "astId": 3993,
            "contract": "contracts/order/OrderStore.sol:OrderStore",
            "label": "_values",
            "offset": 0,
            "slot": "0",
            "type": "t_array(t_bytes32)dyn_storage"
          },
          {
            "astId": 3997,
            "contract": "contracts/order/OrderStore.sol:OrderStore",
            "label": "_indexes",
            "offset": 0,
            "slot": "1",
            "type": "t_mapping(t_bytes32,t_uint256)"
          }
        ],
        "numberOfBytes": "64"
      },
      "t_uint256": {
        "encoding": "inplace",
        "label": "uint256",
        "numberOfBytes": "32"
      }
    }
  }
}