{
  "address": "0x0E801D84Fa97b50751Dbf25036d067dCf18858bF",
  "abi": [
    {
      "inputs": [
        {
          "internalType": "contract RoleStore",
          "name": "_roleStore",
          "type": "address"
        }
      ],
      "stateMutability": "nonpayable",
      "type": "constructor"
    },
    {
      "inputs": [
        {
          "internalType": "address",
          "name": "msgSender",
          "type": "address"
        },
        {
          "internalType": "string",
          "name": "role",
          "type": "string"
        }
      ],
      "name": "Unauthorized",
      "type": "error"
    },
    {
      "anonymous": false,
      "inputs": [
        {
          "indexed": false,
          "internalType": "address",
          "name": "prevGov",
          "type": "address"
        },
        {
          "indexed": false,
          "internalType": "address",
          "name": "nextGov",
          "type": "address"
        }
      ],
      "name": "SetGov",
      "type": "event"
    },
    {
      "inputs": [
        {
          "internalType": "bytes32",
          "name": "key",
          "type": "bytes32"
        }
      ],
      "name": "get",
      "outputs": [
        {
          "components": [
            {
              "internalType": "address",
              "name": "account",
              "type": "address"
            },
            {
              "internalType": "address",
              "name": "receiver",
              "type": "address"
            },
            {
              "internalType": "address",
              "name": "callbackContract",
              "type": "address"
            },
            {
              "internalType": "address",
              "name": "market",
              "type": "address"
            },
            {
              "internalType": "uint256",
              "name": "marketTokensLongAmount",
              "type": "uint256"
            },
            {
              "internalType": "uint256",
              "name": "marketTokensShortAmount",
              "type": "uint256"
            },
            {
              "internalType": "uint256",
              "name": "minLongTokenAmount",
              "type": "uint256"
            },
            {
              "internalType": "uint256",
              "name": "minShortTokenAmount",
              "type": "uint256"
            },
            {
              "internalType": "uint256",
              "name": "updatedAtBlock",
              "type": "uint256"
            },
            {
              "internalType": "bool",
              "name": "shouldConvertETH",
              "type": "bool"
            },
            {
              "internalType": "uint256",
              "name": "executionFee",
              "type": "uint256"
            },
            {
              "internalType": "uint256",
              "name": "callbackGasLimit",
              "type": "uint256"
            },
            {
              "internalType": "bytes",
              "name": "data",
              "type": "bytes"
            }
          ],
          "internalType": "struct Withdrawal.Props",
          "name": "",
          "type": "tuple"
        }
      ],
      "stateMutability": "view",
      "type": "function"
    },
    {
      "inputs": [],
      "name": "getWithdrawalCount",
      "outputs": [
        {
          "internalType": "uint256",
          "name": "",
          "type": "uint256"
        }
      ],
      "stateMutability": "view",
      "type": "function"
    },
    {
      "inputs": [
        {
          "internalType": "uint256",
          "name": "start",
          "type": "uint256"
        },
        {
          "internalType": "uint256",
          "name": "end",
          "type": "uint256"
        }
      ],
      "name": "getWithdrawalKeys",
      "outputs": [
        {
          "internalType": "bytes32[]",
          "name": "",
          "type": "bytes32[]"
        }
      ],
      "stateMutability": "view",
      "type": "function"
    },
    {
      "inputs": [],
      "name": "gov",
      "outputs": [
        {
          "internalType": "address",
          "name": "",
          "type": "address"
        }
      ],
      "stateMutability": "view",
      "type": "function"
    },
    {
      "inputs": [
        {
          "internalType": "address",
          "name": "token",
          "type": "address"
        }
      ],
      "name": "recordTransferIn",
      "outputs": [
        {
          "internalType": "uint256",
          "name": "",
          "type": "uint256"
        }
      ],
      "stateMutability": "nonpayable",
      "type": "function"
    },
    {
      "inputs": [
        {
          "internalType": "address payable",
          "name": "receiver",
          "type": "address"
        },
        {
          "internalType": "uint256",
          "name": "amount",
          "type": "uint256"
        }
      ],
      "name": "recoverETH",
      "outputs": [],
      "stateMutability": "nonpayable",
      "type": "function"
    },
    {
      "inputs": [
        {
          "internalType": "bytes32",
          "name": "key",
          "type": "bytes32"
        }
      ],
      "name": "remove",
      "outputs": [],
      "stateMutability": "nonpayable",
      "type": "function"
    },
    {
      "inputs": [
        {
          "internalType": "bytes32",
          "name": "key",
          "type": "bytes32"
        },
        {
          "components": [
            {
              "internalType": "address",
              "name": "account",
              "type": "address"
            },
            {
              "internalType": "address",
              "name": "receiver",
              "type": "address"
            },
            {
              "internalType": "address",
              "name": "callbackContract",
              "type": "address"
            },
            {
              "internalType": "address",
              "name": "market",
              "type": "address"
            },
            {
              "internalType": "uint256",
              "name": "marketTokensLongAmount",
              "type": "uint256"
            },
            {
              "internalType": "uint256",
              "name": "marketTokensShortAmount",
              "type": "uint256"
            },
            {
              "internalType": "uint256",
              "name": "minLongTokenAmount",
              "type": "uint256"
            },
            {
              "internalType": "uint256",
              "name": "minShortTokenAmount",
              "type": "uint256"
            },
            {
              "internalType": "uint256",
              "name": "updatedAtBlock",
              "type": "uint256"
            },
            {
              "internalType": "bool",
              "name": "shouldConvertETH",
              "type": "bool"
            },
            {
              "internalType": "uint256",
              "name": "executionFee",
              "type": "uint256"
            },
            {
              "internalType": "uint256",
              "name": "callbackGasLimit",
              "type": "uint256"
            },
            {
              "internalType": "bytes",
              "name": "data",
              "type": "bytes"
            }
          ],
          "internalType": "struct Withdrawal.Props",
          "name": "withdrawal",
          "type": "tuple"
        }
      ],
      "name": "set",
      "outputs": [],
      "stateMutability": "nonpayable",
      "type": "function"
    },
    {
      "inputs": [
        {
          "internalType": "address",
          "name": "_gov",
          "type": "address"
        }
      ],
      "name": "setGov",
      "outputs": [],
      "stateMutability": "nonpayable",
      "type": "function"
    },
    {
      "inputs": [
        {
          "internalType": "address",
          "name": "",
          "type": "address"
        }
      ],
      "name": "tokenBalances",
      "outputs": [
        {
          "internalType": "uint256",
          "name": "",
          "type": "uint256"
        }
      ],
      "stateMutability": "view",
      "type": "function"
    },
    {
      "inputs": [
        {
          "internalType": "address",
          "name": "token",
          "type": "address"
        },
        {
          "internalType": "uint256",
          "name": "amount",
          "type": "uint256"
        },
        {
          "internalType": "address",
          "name": "receiver",
          "type": "address"
        }
      ],
      "name": "transferOut",
      "outputs": [],
      "stateMutability": "nonpayable",
      "type": "function"
    },
    {
      "inputs": [
        {
          "internalType": "address",
          "name": "weth",
          "type": "address"
        },
        {
          "internalType": "address",
          "name": "token",
          "type": "address"
        },
        {
          "internalType": "uint256",
          "name": "amount",
          "type": "uint256"
        },
        {
          "internalType": "address",
          "name": "receiver",
          "type": "address"
        },
        {
          "internalType": "bool",
          "name": "shouldConvertETH",
          "type": "bool"
        }
      ],
      "name": "transferOut",
      "outputs": [],
      "stateMutability": "nonpayable",
      "type": "function"
    },
    {
      "inputs": [
        {
          "internalType": "bytes32",
          "name": "",
          "type": "bytes32"
        }
      ],
      "name": "withdrawals",
      "outputs": [
        {
          "internalType": "address",
          "name": "account",
          "type": "address"
        },
        {
          "internalType": "address",
          "name": "receiver",
          "type": "address"
        },
        {
          "internalType": "address",
          "name": "callbackContract",
          "type": "address"
        },
        {
          "internalType": "address",
          "name": "market",
          "type": "address"
        },
        {
          "internalType": "uint256",
          "name": "marketTokensLongAmount",
          "type": "uint256"
        },
        {
          "internalType": "uint256",
          "name": "marketTokensShortAmount",
          "type": "uint256"
        },
        {
          "internalType": "uint256",
          "name": "minLongTokenAmount",
          "type": "uint256"
        },
        {
          "internalType": "uint256",
          "name": "minShortTokenAmount",
          "type": "uint256"
        },
        {
          "internalType": "uint256",
          "name": "updatedAtBlock",
          "type": "uint256"
        },
        {
          "internalType": "bool",
          "name": "shouldConvertETH",
          "type": "bool"
        },
        {
          "internalType": "uint256",
          "name": "executionFee",
          "type": "uint256"
        },
        {
          "internalType": "uint256",
          "name": "callbackGasLimit",
          "type": "uint256"
        },
        {
          "internalType": "bytes",
          "name": "data",
          "type": "bytes"
        }
      ],
      "stateMutability": "view",
      "type": "function"
    },
    {
      "stateMutability": "payable",
      "type": "receive"
    }
  ],
  "transactionHash": "0x0270bd21bf3f43599bfdc846bcb5f654ecde35b4aa01f6b876b0fbd5175033e3",
  "args": [
    "0x5FbDB2315678afecb367f032d93F642f64180aa3"
  ],
  "numDeployments": 1,
  "solcInputHash": "94248a78e23524a8af5dba653b641a0b",
  "bytecode": "0x60a060405234801561001057600080fd5b5060405162001b1b38038062001b1b833981016040819052610031916100b5565b8080808061003e33610054565b6001600160a01b0316608052506100e592505050565b600080546001600160a01b038381166001600160a01b031983168117909355604080519190921680825260208201939093527f53351836099c03ffc3b1727d8abd4b0222afa87d4ed76ae3102d51369ef7f785910160405180910390a15050565b6000602082840312156100c757600080fd5b81516001600160a01b03811681146100de57600080fd5b9392505050565b608051611a1a6200010160003960006109ba0152611a1a6000f3fe6080604052600436106100a65760003560e01c806312d43a51146100b25780632d891fba146100e8578063352f9aed1461010a5780633e0c062914610138578063523fba7f14610158578063556c4c44146101855780636b209e33146101b2578063781952a8146101d25780638eaa6ac0146101e757806395bc267314610214578063cfad57a214610234578063efbf64a714610254578063f94989381461028d57600080fd5b366100ad57005b600080fd5b3480156100be57600080fd5b506000546100d2906001600160a01b031681565b6040516100df91906111e8565b60405180910390f35b3480156100f457600080fd5b5061010861010336600461121c565b6102ad565b005b34801561011657600080fd5b5061012a61012536600461125e565b6102f7565b6040519081526020016100df565b34801561014457600080fd5b5061010861015336600461127b565b610344565b34801561016457600080fd5b5061012a61017336600461125e565b60016020526000908152604090205481565b34801561019157600080fd5b506101a56101a03660046112a7565b6103b4565b6040516100df91906112c9565b3480156101be57600080fd5b506101086101cd3660046113f1565b6103cb565b3480156101de57600080fd5b5061012a610500565b3480156101f357600080fd5b5061020761020236600461150c565b610511565b6040516100df9190611575565b34801561022057600080fd5b5061010861022f36600461150c565b6106ed565b34801561024057600080fd5b5061010861024f36600461125e565b6107c3565b34801561026057600080fd5b5061027461026f36600461150c565b61081d565b6040516100df9d9c9b9a99989796959493929190611647565b34801561029957600080fd5b506101086102a83660046116d5565b610924565b6102e76000805160206119c58339815191526040518060400160405280600a81526020016921a7a72a2927a62622a960b11b8152506109a3565b6102f2838383610a53565b505050565b60006103336000805160206119c58339815191526040518060400160405280600a81526020016921a7a72a2927a62622a960b11b8152506109a3565b61033c82610a98565b90505b919050565b61037e6000805160206119c58339815191526040518060400160405280600a81526020016921a7a72a2927a62622a960b11b8152506109a3565b6040516001600160a01b0383169082156108fc029083906000818181858888f193505050501580156102f2573d6000803e3d6000fd5b60606103c260038484610b49565b90505b92915050565b6104056000805160206119c58339815191526040518060400160405280600a81526020016921a7a72a2927a62622a960b11b8152506109a3565b600082815260026020818152604092839020845181546001600160a01b03199081166001600160a01b0392831617835592860151600183018054851691831691909117905593850151928101805483169385169390931790925560608401516003830180549092169316929092179091556080820151600482015560a0820151600582015560c0820151600682015560e08201516007820155610100820151600882015561012082015160098201805460ff1916911515919091179055610140820151600a820155610160820151600b820155610180820151829190600c8201906104f090826117c5565b506102f291506003905083610c0b565b600061050c6003610c17565b905090565b6105a2604051806101a0016040528060006001600160a01b0316815260200160006001600160a01b0316815260200160006001600160a01b0316815260200160006001600160a01b0316815260200160008152602001600081526020016000815260200160008152602001600081526020016000151581526020016000815260200160008152602001606081525090565b60008281526002602081815260409283902083516101a08101855281546001600160a01b039081168252600183015481169382019390935292810154821693830193909352600383015416606082015260048201546080820152600582015460a0820152600682015460c0820152600782015460e08201526008820154610100820152600982015460ff161515610120820152600a820154610140820152600b820154610160820152600c82018054919291610180840191906106649061173d565b80601f01602080910402602001604051908101604052809291908181526020018280546106909061173d565b80156106dd5780601f106106b2576101008083540402835291602001916106dd565b820191906000526020600020905b8154815290600101906020018083116106c057829003601f168201915b5050505050815250509050919050565b6107276000805160206119c58339815191526040518060400160405280600a81526020016921a7a72a2927a62622a960b11b8152506109a3565b6000818152600260208190526040822080546001600160a01b0319908116825560018201805482169055918101805483169055600381018054909216909155600481018290556005810182905560068101829055600781018290556008810182905560098101805460ff19169055600a8101829055600b8101829055906107b1600c83018261118d565b506107bf9050600382610c21565b5050565b6000546001600160a01b03163314610811576040805163a35b150b60e01b81523360048201526024810191909152600360448201526223a7ab60e91b60648201526084015b60405180910390fd5b61081a81610c2d565b50565b600260208190526000918252604090912080546001820154928201546003830154600484015460058501546006860154600787015460088801546009890154600a8a0154600b8b0154600c8c0180546001600160a01b039c8d169e8d169d9b8d169c909a169a9899979896979596949560ff9094169492939192916108a19061173d565b80601f01602080910402602001604051908101604052809291908181526020018280546108cd9061173d565b801561091a5780601f106108ef5761010080835404028352916020019161091a565b820191906000526020600020905b8154815290600101906020018083116108fd57829003601f168201915b505050505090508d565b61095e6000805160206119c58339815191526040518060400160405280600a81526020016921a7a72a2927a62622a960b11b8152506109a3565b846001600160a01b0316846001600160a01b031614801561097c5750805b156109915761098c848484610c8e565b61099c565b61099c848484610a53565b5050505050565b60405163ac4ab3fb60e01b81526001600160a01b037f0000000000000000000000000000000000000000000000000000000000000000169063ac4ab3fb906109f19033908690600401611884565b602060405180830381865afa158015610a0e573d6000803e3d6000fd5b505050506040513d601f19601f82011682018060405250810190610a32919061189d565b6107bf57338160405163a35b150b60e01b81526004016108089291906118ba565b306001600160a01b03821603610a7b5760405162461bcd60e51b8152600401610808906118de565b610a8f6001600160a01b0384168284610d50565b6102f283610da6565b6001600160a01b0381166000818152600160205260408082205490516370a0823160e01b8152919290918391906370a0823190610ad99030906004016111e8565b602060405180830381865afa158015610af6573d6000803e3d6000fd5b505050506040513d601f19601f82011682018060405250810190610b1a919061190e565b6001600160a01b03851660009081526001602052604090208190559050610b41828261193d565b949350505050565b60606000610b5685610c17565b905080831115610b64578092505b6000610b70858561193d565b6001600160401b03811115610b8757610b8761130d565b604051908082528060200260200182016040528015610bb0578160200160208202803683370190505b509050845b84811015610bff57610bc78782610e2f565b82610bd2888461193d565b81518110610be257610be2611950565b602090810291909101015280610bf781611966565b915050610bb5565b509150505b9392505050565b60006103c28383610e3b565b600061033c825490565b60006103c28383610e8a565b600080546001600160a01b038381166001600160a01b031983168117909355604080519190921680825260208201939093527f53351836099c03ffc3b1727d8abd4b0222afa87d4ed76ae3102d51369ef7f785910160405180910390a15050565b306001600160a01b03821603610cb65760405162461bcd60e51b8152600401610808906118de565b604051632e1a7d4d60e01b8152600481018390526001600160a01b03841690632e1a7d4d90602401600060405180830381600087803b158015610cf857600080fd5b505af1158015610d0c573d6000803e3d6000fd5b50506040516001600160a01b038416925084156108fc02915084906000818181858888f19350505050158015610d46573d6000803e3d6000fd5b506102f283610da6565b6102f28363a9059cbb60e01b8484604051602401610d6f929190611884565b60408051601f198184030181529190526020810180516001600160e01b03166001600160e01b031990931692909217909152610f7d565b6040516370a0823160e01b81526001600160a01b038216906370a0823190610dd29030906004016111e8565b602060405180830381865afa158015610def573d6000803e3d6000fd5b505050506040513d601f19601f82011682018060405250810190610e13919061190e565b6001600160a01b03909116600090815260016020526040902055565b60006103c2838361104f565b6000818152600183016020526040812054610e82575081546001818101845560008481526020808220909301849055845484825282860190935260409020919091556103c5565b5060006103c5565b60008181526001830160205260408120548015610f73576000610eae60018361193d565b8554909150600090610ec29060019061193d565b9050818114610f27576000866000018281548110610ee257610ee2611950565b9060005260206000200154905080876000018481548110610f0557610f05611950565b6000918252602080832090910192909255918252600188019052604090208390555b8554869080610f3857610f3861197f565b6001900381819060005260206000200160009055905585600101600086815260200190815260200160002060009055600193505050506103c5565b60009150506103c5565b6000610fd2826040518060400160405280602081526020017f5361666545524332303a206c6f772d6c6576656c2063616c6c206661696c6564815250856001600160a01b03166110799092919063ffffffff16565b8051909150156102f25780806020019051810190610ff0919061189d565b6102f25760405162461bcd60e51b815260206004820152602a60248201527f5361666545524332303a204552433230206f7065726174696f6e20646964206e6044820152691bdd081cdd58d8d9595960b21b6064820152608401610808565b600082600001828154811061106657611066611950565b9060005260206000200154905092915050565b6060610b418484600085856001600160a01b0385163b6110db5760405162461bcd60e51b815260206004820152601d60248201527f416464726573733a2063616c6c20746f206e6f6e2d636f6e74726163740000006044820152606401610808565b600080866001600160a01b031685876040516110f79190611995565b60006040518083038185875af1925050503d8060008114611134576040519150601f19603f3d011682016040523d82523d6000602084013e611139565b606091505b5091509150611149828286611154565b979650505050505050565b60608315611163575081610c04565b8251156111735782518084602001fd5b8160405162461bcd60e51b815260040161080891906119b1565b5080546111999061173d565b6000825580601f106111a9575050565b601f01602090049060005260206000209081019061081a91905b808211156111d757600081556001016111c3565b5090565b6001600160a01b03169052565b6001600160a01b0391909116815260200190565b6001600160a01b038116811461081a57600080fd5b803561033f816111fc565b60008060006060848603121561123157600080fd5b833561123c816111fc565b9250602084013591506040840135611253816111fc565b809150509250925092565b60006020828403121561127057600080fd5b8135610c04816111fc565b6000806040838503121561128e57600080fd5b8235611299816111fc565b946020939093013593505050565b600080604083850312156112ba57600080fd5b50508035926020909101359150565b6020808252825182820181905260009190848201906040850190845b81811015611301578351835292840192918401916001016112e5565b50909695505050505050565b634e487b7160e01b600052604160045260246000fd5b6040516101a081016001600160401b03811182821017156113465761134661130d565b60405290565b801515811461081a57600080fd5b803561033f8161134c565b600082601f83011261137657600080fd5b81356001600160401b03808211156113905761139061130d565b604051601f8301601f19908116603f011681019082821181831017156113b8576113b861130d565b816040528381528660208588010111156113d157600080fd5b836020870160208301376000602085830101528094505050505092915050565b6000806040838503121561140457600080fd5b8235915060208301356001600160401b038082111561142257600080fd5b908401906101a0828703121561143757600080fd5b61143f611323565b61144883611211565b815261145660208401611211565b602082015261146760408401611211565b604082015261147860608401611211565b60608201526080830135608082015260a083013560a082015260c083013560c082015260e083013560e08201526101008084013581830152506101206114bf81850161135a565b908201526101408381013590820152610160808401359082015261018080840135838111156114ed57600080fd5b6114f989828701611365565b8284015250508093505050509250929050565b60006020828403121561151e57600080fd5b5035919050565b60005b83811015611540578181015183820152602001611528565b50506000910152565b60008151808452611561816020860160208601611525565b601f01601f19169290920160200192915050565b602081526115876020820183516111db565b6000602083015161159b60408401826111db565b5060408301516115ae60608401826111db565b5060608301516115c160808401826111db565b50608083015160a083015260a083015160c083015260c083015160e083015260e08301516101008181850152808501519150506101208181850152808501519150506101406116138185018315159052565b84015161016084810191909152840151610180808501919091528401516101a0808501529050610b416101c0840182611549565b6001600160a01b038e811682528d811660208301528c811660408301528b166060820152608081018a905260a0810189905260c0810188905260e081018790526101008101869052841515610120820152610140810184905261016081018390526101a061018082018190526000906116c290830184611549565b9f9e505050505050505050505050505050565b600080600080600060a086880312156116ed57600080fd5b85356116f8816111fc565b94506020860135611708816111fc565b935060408601359250606086013561171f816111fc565b9150608086013561172f8161134c565b809150509295509295909350565b600181811c9082168061175157607f821691505b60208210810361177157634e487b7160e01b600052602260045260246000fd5b50919050565b601f8211156102f257600081815260208120601f850160051c8101602086101561179e5750805b601f850160051c820191505b818110156117bd578281556001016117aa565b505050505050565b81516001600160401b038111156117de576117de61130d565b6117f2816117ec845461173d565b84611777565b602080601f831160018114611827576000841561180f5750858301515b600019600386901b1c1916600185901b1785556117bd565b600085815260208120601f198616915b8281101561185657888601518255948401946001909101908401611837565b50858210156118745787850151600019600388901b60f8161c191681555b5050505050600190811b01905550565b6001600160a01b03929092168252602082015260400190565b6000602082840312156118af57600080fd5b8151610c048161134c565b6001600160a01b0383168152604060208201819052600090610b4190830184611549565b6020808252601690820152752130b7359d1034b73b30b634b2103932b1b2b4bb32b960511b604082015260600190565b60006020828403121561192057600080fd5b5051919050565b634e487b7160e01b600052601160045260246000fd5b818103818111156103c5576103c5611927565b634e487b7160e01b600052603260045260246000fd5b60006001820161197857611978611927565b5060010190565b634e487b7160e01b600052603160045260246000fd5b600082516119a7818460208701611525565b9190910192915050565b6020815260006103c2602083018461154956fe70546d1c92f8c2132ae23a23f5177aa8526356051c7510df99f50e012d221529a2646970667358221220d6150eb5323d7064afc3c7bceebf550bd66ccb85751acd6d11a3361125fcfce264736f6c63430008100033",
  "devdoc": {
    "kind": "dev",
    "methods": {},
    "version": 1
  },
  "userdoc": {
    "kind": "user",
    "methods": {},
    "version": 1
  },
  "storageLayout": {
    "storage": [
      {
        "astId": 10508,
        "contract": "contracts/withdrawal/WithdrawalStore.sol:WithdrawalStore",
        "label": "gov",
        "offset": 0,
        "slot": "0",
        "type": "t_address"
      },
      {
        "astId": 4792,
        "contract": "contracts/withdrawal/WithdrawalStore.sol:WithdrawalStore",
        "label": "tokenBalances",
        "offset": 0,
        "slot": "1",
        "type": "t_mapping(t_address,t_uint256)"
      },
      {
        "astId": 23136,
        "contract": "contracts/withdrawal/WithdrawalStore.sol:WithdrawalStore",
        "label": "withdrawals",
        "offset": 0,
        "slot": "2",
        "type": "t_mapping(t_bytes32,t_struct(Props)23116_storage)"
      },
      {
        "astId": 23139,
        "contract": "contracts/withdrawal/WithdrawalStore.sol:WithdrawalStore",
        "label": "withdrawalKeys",
        "offset": 0,
        "slot": "3",
        "type": "t_struct(Bytes32Set)4192_storage"
      }
    ],
    "types": {
      "t_address": {
        "encoding": "inplace",
        "label": "address",
        "numberOfBytes": "20"
      },
      "t_array(t_bytes32)dyn_storage": {
        "base": "t_bytes32",
        "encoding": "dynamic_array",
        "label": "bytes32[]",
        "numberOfBytes": "32"
      },
      "t_bool": {
        "encoding": "inplace",
        "label": "bool",
        "numberOfBytes": "1"
      },
      "t_bytes32": {
        "encoding": "inplace",
        "label": "bytes32",
        "numberOfBytes": "32"
      },
      "t_bytes_storage": {
        "encoding": "bytes",
        "label": "bytes",
        "numberOfBytes": "32"
      },
      "t_mapping(t_address,t_uint256)": {
        "encoding": "mapping",
        "key": "t_address",
        "label": "mapping(address => uint256)",
        "numberOfBytes": "32",
        "value": "t_uint256"
      },
      "t_mapping(t_bytes32,t_struct(Props)23116_storage)": {
        "encoding": "mapping",
        "key": "t_bytes32",
        "label": "mapping(bytes32 => struct Withdrawal.Props)",
        "numberOfBytes": "32",
        "value": "t_struct(Props)23116_storage"
      },
      "t_mapping(t_bytes32,t_uint256)": {
        "encoding": "mapping",
        "key": "t_bytes32",
        "label": "mapping(bytes32 => uint256)",
        "numberOfBytes": "32",
        "value": "t_uint256"
      },
      "t_struct(Bytes32Set)4192_storage": {
        "encoding": "inplace",
        "label": "struct EnumerableSet.Bytes32Set",
        "members": [
          {
            "astId": 4191,
            "contract": "contracts/withdrawal/WithdrawalStore.sol:WithdrawalStore",
            "label": "_inner",
            "offset": 0,
            "slot": "0",
            "type": "t_struct(Set)3998_storage"
          }
        ],
        "numberOfBytes": "64"
      },
      "t_struct(Props)23116_storage": {
        "encoding": "inplace",
        "label": "struct Withdrawal.Props",
        "members": [
          {
            "astId": 23091,
            "contract": "contracts/withdrawal/WithdrawalStore.sol:WithdrawalStore",
            "label": "account",
            "offset": 0,
            "slot": "0",
            "type": "t_address"
          },
          {
            "astId": 23093,
            "contract": "contracts/withdrawal/WithdrawalStore.sol:WithdrawalStore",
            "label": "receiver",
            "offset": 0,
            "slot": "1",
            "type": "t_address"
          },
          {
            "astId": 23095,
            "contract": "contracts/withdrawal/WithdrawalStore.sol:WithdrawalStore",
            "label": "callbackContract",
            "offset": 0,
            "slot": "2",
            "type": "t_address"
          },
          {
            "astId": 23097,
            "contract": "contracts/withdrawal/WithdrawalStore.sol:WithdrawalStore",
            "label": "market",
            "offset": 0,
            "slot": "3",
            "type": "t_address"
          },
          {
            "astId": 23099,
            "contract": "contracts/withdrawal/WithdrawalStore.sol:WithdrawalStore",
            "label": "marketTokensLongAmount",
            "offset": 0,
            "slot": "4",
            "type": "t_uint256"
          },
          {
            "astId": 23101,
            "contract": "contracts/withdrawal/WithdrawalStore.sol:WithdrawalStore",
            "label": "marketTokensShortAmount",
            "offset": 0,
            "slot": "5",
            "type": "t_uint256"
          },
          {
            "astId": 23103,
            "contract": "contracts/withdrawal/WithdrawalStore.sol:WithdrawalStore",
            "label": "minLongTokenAmount",
            "offset": 0,
            "slot": "6",
            "type": "t_uint256"
          },
          {
            "astId": 23105,
            "contract": "contracts/withdrawal/WithdrawalStore.sol:WithdrawalStore",
            "label": "minShortTokenAmount",
            "offset": 0,
            "slot": "7",
            "type": "t_uint256"
          },
          {
            "astId": 23107,
            "contract": "contracts/withdrawal/WithdrawalStore.sol:WithdrawalStore",
            "label": "updatedAtBlock",
            "offset": 0,
            "slot": "8",
            "type": "t_uint256"
          },
          {
            "astId": 23109,
            "contract": "contracts/withdrawal/WithdrawalStore.sol:WithdrawalStore",
            "label": "shouldConvertETH",
            "offset": 0,
            "slot": "9",
            "type": "t_bool"
          },
          {
            "astId": 23111,
            "contract": "contracts/withdrawal/WithdrawalStore.sol:WithdrawalStore",
            "label": "executionFee",
            "offset": 0,
            "slot": "10",
            "type": "t_uint256"
          },
          {
            "astId": 23113,
            "contract": "contracts/withdrawal/WithdrawalStore.sol:WithdrawalStore",
            "label": "callbackGasLimit",
            "offset": 0,
            "slot": "11",
            "type": "t_uint256"
          },
          {
            "astId": 23115,
            "contract": "contracts/withdrawal/WithdrawalStore.sol:WithdrawalStore",
            "label": "data",
            "offset": 0,
            "slot": "12",
            "type": "t_bytes_storage"
          }
        ],
        "numberOfBytes": "416"
      },
      "t_struct(Set)3998_storage": {
        "encoding": "inplace",
        "label": "struct EnumerableSet.Set",
        "members": [
          {
            "astId": 3993,
            "contract": "contracts/withdrawal/WithdrawalStore.sol:WithdrawalStore",
            "label": "_values",
            "offset": 0,
            "slot": "0",
            "type": "t_array(t_bytes32)dyn_storage"
          },
          {
            "astId": 3997,
            "contract": "contracts/withdrawal/WithdrawalStore.sol:WithdrawalStore",
            "label": "_indexes",
            "offset": 0,
            "slot": "1",
            "type": "t_mapping(t_bytes32,t_uint256)"
          }
        ],
        "numberOfBytes": "64"
      },
      "t_uint256": {
        "encoding": "inplace",
        "label": "uint256",
        "numberOfBytes": "32"
      }
    }
  }
}