{
  "_format": "hh-sol-artifact-1",
  "contractName": "Timelock",
  "sourceName": "contracts/config/Timelock.sol",
  "abi": [
    {
      "inputs": [
        {
          "internalType": "contract RoleStore",
          "name": "_roleStore",
          "type": "address"
        },
        {
          "internalType": "contract DataStore",
          "name": "_dataStore",
          "type": "address"
        },
        {
          "internalType": "contract EventEmitter",
          "name": "_eventEmitter",
          "type": "address"
        },
        {
          "internalType": "contract OracleStore",
          "name": "_oracleStore",
          "type": "address"
        },
        {
          "internalType": "uint256",
          "name": "_timelockDelay",
          "type": "uint256"
        }
      ],
      "stateMutability": "nonpayable",
      "type": "constructor"
    },
    {
      "inputs": [],
      "name": "ActionAlreadySignalled",
      "type": "error"
    },
    {
      "inputs": [],
      "name": "ActionNotSignalled",
      "type": "error"
    },
    {
      "inputs": [
        {
          "internalType": "bytes32",
          "name": "baseKey",
          "type": "bytes32"
        },
        {
          "internalType": "uint256",
          "name": "value",
          "type": "uint256"
        }
      ],
      "name": "ConfigValueExceedsAllowedRange",
      "type": "error"
    },
    {
      "inputs": [
        {
          "internalType": "address",
          "name": "receiver",
          "type": "address"
        }
      ],
      "name": "InvalidFeeReceiver",
      "type": "error"
    },
    {
      "inputs": [
        {
          "internalType": "address",
          "name": "receiver",
          "type": "address"
        }
      ],
      "name": "InvalidOracleSigner",
      "type": "error"
    },
    {
      "inputs": [
        {
          "internalType": "uint256",
          "name": "timelockDelay",
          "type": "uint256"
        }
      ],
      "name": "InvalidTimelockDelay",
      "type": "error"
    },
    {
      "inputs": [
        {
          "internalType": "uint256",
          "name": "timelockDelay",
          "type": "uint256"
        }
      ],
      "name": "MaxTimelockDelayExceeded",
      "type": "error"
    },
    {
      "inputs": [
        {
          "internalType": "uint256",
          "name": "signalTime",
          "type": "uint256"
        }
      ],
      "name": "SignalTimeNotYetPassed",
      "type": "error"
    },
    {
      "inputs": [
        {
          "internalType": "address",
          "name": "msgSender",
          "type": "address"
        },
        {
          "internalType": "string",
          "name": "role",
          "type": "string"
        }
      ],
      "name": "Unauthorized",
      "type": "error"
    },
    {
      "inputs": [],
      "name": "MAX_TIMELOCK_DELAY",
      "outputs": [
        {
          "internalType": "uint256",
          "name": "",
          "type": "uint256"
        }
      ],
      "stateMutability": "view",
      "type": "function"
    },
    {
      "inputs": [
        {
          "internalType": "address",
          "name": "account",
          "type": "address"
        }
      ],
      "name": "addOracleSignerAfterSignal",
      "outputs": [],
      "stateMutability": "nonpayable",
      "type": "function"
    },
    {
      "inputs": [
        {
          "internalType": "bytes32",
          "name": "actionKey",
          "type": "bytes32"
        }
      ],
      "name": "cancelAction",
      "outputs": [],
      "stateMutability": "nonpayable",
      "type": "function"
    },
    {
      "inputs": [],
      "name": "dataStore",
      "outputs": [
        {
          "internalType": "contract DataStore",
          "name": "",
          "type": "address"
        }
      ],
      "stateMutability": "view",
      "type": "function"
    },
    {
      "inputs": [],
      "name": "eventEmitter",
      "outputs": [
        {
          "internalType": "contract EventEmitter",
          "name": "",
          "type": "address"
        }
      ],
      "stateMutability": "view",
      "type": "function"
    },
    {
      "inputs": [
        {
          "internalType": "address",
          "name": "account",
          "type": "address"
        },
        {
          "internalType": "bytes32",
          "name": "roleKey",
          "type": "bytes32"
        }
      ],
      "name": "grantRoleAfterSignal",
      "outputs": [],
      "stateMutability": "nonpayable",
      "type": "function"
    },
    {
      "inputs": [
        {
          "internalType": "uint256",
          "name": "_timelockDelay",
          "type": "uint256"
        }
      ],
      "name": "increaseTimelockDelay",
      "outputs": [],
      "stateMutability": "nonpayable",
      "type": "function"
    },
    {
      "inputs": [
        {
          "internalType": "bytes[]",
          "name": "data",
          "type": "bytes[]"
        }
      ],
      "name": "multicall",
      "outputs": [
        {
          "internalType": "bytes[]",
          "name": "results",
          "type": "bytes[]"
        }
      ],
      "stateMutability": "nonpayable",
      "type": "function"
    },
    {
      "inputs": [],
      "name": "oracleStore",
      "outputs": [
        {
          "internalType": "contract OracleStore",
          "name": "",
          "type": "address"
        }
      ],
      "stateMutability": "view",
      "type": "function"
    },
    {
      "inputs": [
        {
          "internalType": "bytes32",
          "name": "",
          "type": "bytes32"
        }
      ],
      "name": "pendingActions",
      "outputs": [
        {
          "internalType": "uint256",
          "name": "",
          "type": "uint256"
        }
      ],
      "stateMutability": "view",
      "type": "function"
    },
    {
      "inputs": [
        {
          "internalType": "address",
          "name": "account",
          "type": "address"
        }
      ],
      "name": "removeOracleSignerAfterSignal",
      "outputs": [],
      "stateMutability": "nonpayable",
      "type": "function"
    },
    {
      "inputs": [
        {
          "internalType": "address",
          "name": "account",
          "type": "address"
        },
        {
          "internalType": "bytes32",
          "name": "roleKey",
          "type": "bytes32"
        }
      ],
      "name": "revokeRole",
      "outputs": [],
      "stateMutability": "nonpayable",
      "type": "function"
    },
    {
      "inputs": [
        {
          "internalType": "address",
          "name": "account",
          "type": "address"
        },
        {
          "internalType": "bytes32",
          "name": "roleKey",
          "type": "bytes32"
        }
      ],
      "name": "revokeRoleAfterSignal",
      "outputs": [],
      "stateMutability": "nonpayable",
      "type": "function"
    },
    {
      "inputs": [],
      "name": "roleStore",
      "outputs": [
        {
          "internalType": "contract RoleStore",
          "name": "",
          "type": "address"
        }
      ],
      "stateMutability": "view",
      "type": "function"
    },
    {
      "inputs": [
        {
          "internalType": "address",
          "name": "provider",
          "type": "address"
        },
        {
          "internalType": "bool",
          "name": "value",
          "type": "bool"
        }
      ],
      "name": "setAtomicOracleProviderAfterSignal",
      "outputs": [],
      "stateMutability": "nonpayable",
      "type": "function"
    },
    {
      "inputs": [
        {
          "internalType": "address",
          "name": "token",
          "type": "address"
        },
        {
          "internalType": "bytes32",
          "name": "feedId",
          "type": "bytes32"
        },
        {
          "internalType": "uint256",
          "name": "dataStreamMultiplier",
          "type": "uint256"
        },
        {
          "internalType": "uint256",
          "name": "dataStreamSpreadReductionFactor",
          "type": "uint256"
        }
      ],
      "name": "setDataStreamAfterSignal",
      "outputs": [],
      "stateMutability": "nonpayable",
      "type": "function"
    },
    {
      "inputs": [
        {
          "internalType": "address",
          "name": "account",
          "type": "address"
        }
      ],
      "name": "setFeeReceiverAfterSignal",
      "outputs": [],
      "stateMutability": "nonpayable",
      "type": "function"
    },
    {
      "inputs": [
        {
          "internalType": "address",
          "name": "provider",
          "type": "address"
        },
        {
          "internalType": "bool",
          "name": "value",
          "type": "bool"
        }
      ],
      "name": "setOracleProviderEnabled",
      "outputs": [],
      "stateMutability": "nonpayable",
      "type": "function"
    },
    {
      "inputs": [
        {
          "internalType": "address",
          "name": "provider",
          "type": "address"
        },
        {
          "internalType": "bool",
          "name": "value",
          "type": "bool"
        }
      ],
      "name": "setOracleProviderEnabledAfterSignal",
      "outputs": [],
      "stateMutability": "nonpayable",
      "type": "function"
    },
    {
      "inputs": [
        {
          "internalType": "address",
          "name": "token",
          "type": "address"
        },
        {
          "internalType": "address",
          "name": "provider",
          "type": "address"
        }
      ],
      "name": "setOracleProviderForTokenAfterSignal",
      "outputs": [],
      "stateMutability": "nonpayable",
      "type": "function"
    },
    {
      "inputs": [
        {
          "internalType": "address",
          "name": "token",
          "type": "address"
        },
        {
          "internalType": "address",
          "name": "priceFeed",
          "type": "address"
        },
        {
          "internalType": "uint256",
          "name": "priceFeedMultiplier",
          "type": "uint256"
        },
        {
          "internalType": "uint256",
          "name": "priceFeedHeartbeatDuration",
          "type": "uint256"
        },
        {
          "internalType": "uint256",
          "name": "stablePrice",
          "type": "uint256"
        }
      ],
      "name": "setPriceFeedAfterSignal",
      "outputs": [],
      "stateMutability": "nonpayable",
      "type": "function"
    },
    {
      "inputs": [
        {
          "internalType": "address",
          "name": "account",
          "type": "address"
        }
      ],
      "name": "signalAddOracleSigner",
      "outputs": [],
      "stateMutability": "nonpayable",
      "type": "function"
    },
    {
      "inputs": [
        {
          "internalType": "address",
          "name": "account",
          "type": "address"
        },
        {
          "internalType": "bytes32",
          "name": "roleKey",
          "type": "bytes32"
        }
      ],
      "name": "signalGrantRole",
      "outputs": [],
      "stateMutability": "nonpayable",
      "type": "function"
    },
    {
      "inputs": [
        {
          "internalType": "address",
          "name": "account",
          "type": "address"
        }
      ],
      "name": "signalRemoveOracleSigner",
      "outputs": [],
      "stateMutability": "nonpayable",
      "type": "function"
    },
    {
      "inputs": [
        {
          "internalType": "address",
          "name": "account",
          "type": "address"
        },
        {
          "internalType": "bytes32",
          "name": "roleKey",
          "type": "bytes32"
        }
      ],
      "name": "signalRevokeRole",
      "outputs": [],
      "stateMutability": "nonpayable",
      "type": "function"
    },
    {
      "inputs": [
        {
          "internalType": "address",
          "name": "provider",
          "type": "address"
        },
        {
          "internalType": "bool",
          "name": "value",
          "type": "bool"
        }
      ],
      "name": "signalSetAtomicOracleProvider",
      "outputs": [],
      "stateMutability": "nonpayable",
      "type": "function"
    },
    {
      "inputs": [
        {
          "internalType": "address",
          "name": "token",
          "type": "address"
        },
        {
          "internalType": "bytes32",
          "name": "feedId",
          "type": "bytes32"
        },
        {
          "internalType": "uint256",
          "name": "dataStreamMultiplier",
          "type": "uint256"
        },
        {
          "internalType": "uint256",
          "name": "dataStreamSpreadReductionFactor",
          "type": "uint256"
        }
      ],
      "name": "signalSetDataStream",
      "outputs": [],
      "stateMutability": "nonpayable",
      "type": "function"
    },
    {
      "inputs": [
        {
          "internalType": "address",
          "name": "account",
          "type": "address"
        }
      ],
      "name": "signalSetFeeReceiver",
      "outputs": [],
      "stateMutability": "nonpayable",
      "type": "function"
    },
    {
      "inputs": [
        {
          "internalType": "address",
          "name": "provider",
          "type": "address"
        },
        {
          "internalType": "bool",
          "name": "value",
          "type": "bool"
        }
      ],
      "name": "signalSetOracleProviderEnabled",
      "outputs": [],
      "stateMutability": "nonpayable",
      "type": "function"
    },
    {
      "inputs": [
        {
          "internalType": "address",
          "name": "token",
          "type": "address"
        },
        {
          "internalType": "address",
          "name": "provider",
          "type": "address"
        }
      ],
      "name": "signalSetOracleProviderForToken",
      "outputs": [],
      "stateMutability": "nonpayable",
      "type": "function"
    },
    {
      "inputs": [
        {
          "internalType": "address",
          "name": "token",
          "type": "address"
        },
        {
          "internalType": "address",
          "name": "priceFeed",
          "type": "address"
        },
        {
          "internalType": "uint256",
          "name": "priceFeedMultiplier",
          "type": "uint256"
        },
        {
          "internalType": "uint256",
          "name": "priceFeedHeartbeatDuration",
          "type": "uint256"
        },
        {
          "internalType": "uint256",
          "name": "stablePrice",
          "type": "uint256"
        }
      ],
      "name": "signalSetPriceFeed",
      "outputs": [],
      "stateMutability": "nonpayable",
      "type": "function"
    },
    {
      "inputs": [],
      "name": "timelockDelay",
      "outputs": [
        {
          "internalType": "uint256",
          "name": "",
          "type": "uint256"
        }
      ],
      "stateMutability": "view",
      "type": "function"
    }
  ],
  "bytecode": "0x6101006040523480156200001257600080fd5b5060405162005452380380620054528339810160408190526200003591620000c5565b600160008190556001600160a01b0380871660805285811660a05284811660c052831660e0528190556200006862000073565b505050505062000139565b620697806001541115620000aa57600154604051633ebd9bc360e21b8152600401620000a191815260200190565b60405180910390fd5b565b6001600160a01b0381168114620000c257600080fd5b50565b600080600080600060a08688031215620000de57600080fd5b8551620000eb81620000ac565b6020870151909550620000fe81620000ac565b60408701519094506200011181620000ac565b60608701519093506200012481620000ac565b80925050608086015190509295509295909350565b60805160a05160c05160e0516151b2620002a06000396000818161021b01528181611047015261240701526000818161034801528181610583015281816107be015281816109a601528181610d7301528181610f6601528181611107015281816112930152818161143c01528181611601015281816117130152818161183701528181611c9901528181611dfc0152818161200c0152818161212f0152818161235e015281816124c7015281816125eb015281816127a70152818161294b01528181612b1e01528181612c1001528181612d7b0152818161300601526137130152600081816102af01528181610a7a01528181610b1401528181610bae0152818161115a0152818161131f015281816114c8015281816118c901528181611963015281816119fd01528181611a970152818161267901526129e5015260008181610262015281816108a401528181610e64015281816128490152612dc701526151b26000f3fe608060405234801561001057600080fd5b50600436106101805760003560e01c80630f43905d146101855780630fe29bbc1461019a5780630ffc3cf6146101ad5780631cce0ecf146101c0578063208dd1ff146101d35780632a083ca3146101e65780632d6b4cc614610203578063392bf7f61461021657806349c73bca1461024a5780634a4a7b041461025d5780635077e242146102845780635bb70a2014610297578063660d0d67146102aa57806369bc0f3b146102d1578063728ca574146102e457806375fa1913146102f7578063781cc3d31461030a5780637c326db61461031d578063809c7c7e146103305780639ff78c3014610343578063a9765cae1461036a578063ac9650d81461037d578063b6b9b02f1461039d578063bcb151e4146103b0578063c15ab4ec146103c3578063c4fe486c146103d6578063d59ba7e4146103e9578063d5b0083b146103fc578063e30569e51461040f578063eef09bad1461042f578063f03278d414610438578063f2ee93771461044b575b600080fd5b610198610193366004613ca0565b61045e565b005b6101986101a8366004613cbd565b6105fb565b6101986101bb366004613d0e565b61083a565b6101986101ce366004613d3a565b610a1f565b6101986101e1366004613d0e565b610dee565b6101f06206978081565b6040519081526020015b60405180910390f35b610198610211366004613ca0565b610fd8565b61023d7f000000000000000000000000000000000000000000000000000000000000000081565b6040516101fa9190613d75565b610198610258366004613d97565b61113e565b61023d7f000000000000000000000000000000000000000000000000000000000000000081565b610198610292366004613dd0565b6112c8565b6101986102a5366004613d97565b611471565b61023d7f000000000000000000000000000000000000000000000000000000000000000081565b6101986102df366004613ca0565b611636565b6101986102f2366004613d0e565b61174a565b610198610305366004613cbd565b61186e565b610198610318366004613dfe565b611cd0565b61019861032b366004613dd0565b611d22565b61019861033e366004613d3a565b611e31565b61023d7f000000000000000000000000000000000000000000000000000000000000000081565b610198610378366004613d0e565b612043565b61039061038b366004613e17565b612166565b6040516101fa9190613f30565b6101986103ab366004613ca0565b612285565b6101986103be366004613ca0565b612395565b6101986103d1366004613d97565b6124fe565b6101986103e4366004613ca0565b612620565b6101986103f7366004613d0e565b6127de565b61019861040a366004613d97565b612982565b6101f061041d366004613dfe565b60026020526000908152604090205481565b6101f060015481565b610198610446366004613dfe565b612b53565b610198610459366004613d97565b612c82565b6104b260405160200161047090613f43565b604051602081830303815290604052805190602001206040518060400160405280600e81526020016d2a24a6a2a627a1a5afa0a226a4a760911b815250612db0565b6104ba612e60565b6001600160a01b0381166104ec578060405163c1b14c9160e01b81526004016104e39190613d75565b60405180910390fd5b60006104f782612eb9565b905061052a816040518060400160405280600f81526020016e30b23227b930b1b632a9b4b3b732b960891b815250612f0c565b610532613b9a565b805161053f906001613074565b6040805180820190915260078152661858d8dbdd5b9d60ca1b6020820152815161056c91600090866130d9565b604051630937807960e21b81526001600160a01b037f000000000000000000000000000000000000000000000000000000000000000016906324de01e4906105ba908590859060040161482e565b600060405180830381600087803b1580156105d457600080fd5b505af11580156105e8573d6000803e3d6000fd5b5050505050506105f86001600055565b50565b61060d60405160200161047090613f43565b610615612e60565b60006106248686868686613136565b9050610654816040518060400160405280600c81526020016b1cd95d141c9a58d95199595960a21b815250612f0c565b61065c613b9a565b8051610669906002613074565b6040805180820190915260058152643a37b5b2b760d91b60208201528151610694916000908a6130d9565b6040805180820190915260098152681c1c9a58d95199595960ba1b602082015281516106c391600190896130d9565b60208101516106d3906003613074565b61071a600060405180604001604052806013815260200172383934b1b2a332b2b226bab63a34b83634b2b960691b8152508784602001516131ab909392919063ffffffff16565b61076860016040518060400160405280601a815260200179383934b1b2a332b2b22432b0b93a3132b0ba223ab930ba34b7b760311b8152508684602001516131ab909392919063ffffffff16565b6107a760026040518060400160405280600b81526020016a737461626c65507269636560a81b8152508584602001516131ab909392919063ffffffff16565b604051630937807960e21b81526001600160a01b037f000000000000000000000000000000000000000000000000000000000000000016906324de01e4906107f5908590859060040161487b565b600060405180830381600087803b15801561080f57600080fd5b505af1158015610823573d6000803e3d6000fd5b5050505050506108336001600055565b5050505050565b61084c60405160200161047090613f43565b610854612e60565b600061086083836131fe565b905061088d81604051806040016040528060098152602001686772616e74526f6c6560b81b815250613253565b604051632ac9d0b760e21b81526001600160a01b037f0000000000000000000000000000000000000000000000000000000000000000169063ab2742dc906108db90869086906004016148bd565b600060405180830381600087803b1580156108f557600080fd5b505af1158015610909573d6000803e3d6000fd5b50505050610915613b9a565b8051610922906001613074565b6040805180820190915260078152661858d8dbdd5b9d60ca1b6020820152815161094f91600090876130d9565b608081015161095f906001613074565b604080518082019091526007815266726f6c654b657960c81b6020820152608082015161098f91600090866131ab565b604051630937807960e21b81526001600160a01b037f000000000000000000000000000000000000000000000000000000000000000016906324de01e4906109dd90859085906004016148d6565b600060405180830381600087803b1580156109f757600080fd5b505af1158015610a0b573d6000803e3d6000fd5b505050505050610a1b6001600055565b5050565b610a3160405160200161047090613f43565b610a39612e60565b6000610a4785858585613266565b9050610a78816040518060400160405280600d81526020016c7365744461746153747265616d60981b815250613253565b7f00000000000000000000000000000000000000000000000000000000000000006001600160a01b0316634e91db08610ab0876132ce565b866040518363ffffffff1660e01b8152600401610ace92919061490f565b6020604051808303816000875af1158015610aed573d6000803e3d6000fd5b505050506040513d601f19601f82011682018060405250810190610b11919061491d565b507f00000000000000000000000000000000000000000000000000000000000000006001600160a01b031663e2a4853a610b4a8761332a565b856040518363ffffffff1660e01b8152600401610b6892919061490f565b6020604051808303816000875af1158015610b87573d6000803e3d6000fd5b505050506040513d601f19601f82011682018060405250810190610bab919061491d565b507f00000000000000000000000000000000000000000000000000000000000000006001600160a01b031663e2a4853a610be487613366565b846040518363ffffffff1660e01b8152600401610c0292919061490f565b6020604051808303816000875af1158015610c21573d6000803e3d6000fd5b505050506040513d601f19601f82011682018060405250810190610c45919061491d565b50610c4e613b9a565b8051610c5b906001613074565b6040805180820190915260058152643a37b5b2b760d91b60208201528151610c8691600090896130d9565b6080810151610c96906001613074565b60408051808201909152600681526519995959125960d21b60208201526080820151610cc591600090886131ab565b6020810151610cd5906002613074565b610d1d6000604051806040016040528060148152602001733230ba30a9ba3932b0b6a6bab63a34b83634b2b960611b8152508684602001516131ab909392919063ffffffff16565b610d5c60016040518060400160405280601f815260200160008051602061515d8339815191528152508584602001516131ab909392919063ffffffff16565b604051630937807960e21b81526001600160a01b037f000000000000000000000000000000000000000000000000000000000000000016906324de01e490610daa9085908590600401614936565b600060405180830381600087803b158015610dc457600080fd5b505af1158015610dd8573d6000803e3d6000fd5b505050505050610de86001600055565b50505050565b610e45604051602001610e0090614973565b604051602081830303815290604052805190602001206040518060400160405280601181526020017054494d454c4f434b5f4d554c544953494760781b815250612db0565b610e4d612e60565b60405163208dd1ff60e01b81526001600160a01b037f0000000000000000000000000000000000000000000000000000000000000000169063208dd1ff90610e9b90859085906004016148bd565b600060405180830381600087803b158015610eb557600080fd5b505af1158015610ec9573d6000803e3d6000fd5b50505050610ed5613b9a565b8051610ee2906001613074565b6040805180820190915260078152661858d8dbdd5b9d60ca1b60208201528151610f0f91600090866130d9565b6080810151610f1f906001613074565b604080518082019091526007815266726f6c654b657960c81b60208201526080820151610f4f91600090856131ab565b60405163483624fb60e11b81526001600160a01b037f0000000000000000000000000000000000000000000000000000000000000000169063906c49f690610f9b9084906004016149bb565b600060405180830381600087803b158015610fb557600080fd5b505af1158015610fc9573d6000803e3d6000fd5b5050505050610a1b6001600055565b610fea60405160200161047090613f43565b610ff2612e60565b6000610ffd82612eb9565b9050611030816040518060400160405280600f81526020016e30b23227b930b1b632a9b4b3b732b960891b815250613253565b6040516375896b0f60e11b81526001600160a01b037f0000000000000000000000000000000000000000000000000000000000000000169063eb12d61e9061107c908590600401613d75565b600060405180830381600087803b15801561109657600080fd5b505af11580156110aa573d6000803e3d6000fd5b505050506110b6613b9a565b80516110c3906001613074565b6040805180820190915260078152661858d8dbdd5b9d60ca1b602082015281516110f091600090866130d9565b604051630937807960e21b81526001600160a01b037f000000000000000000000000000000000000000000000000000000000000000016906324de01e4906105ba90859085906004016149df565b611150604051602001610e0090614973565b611158612e60565b7f00000000000000000000000000000000000000000000000000000000000000006001600160a01b031663abfdcced61119084613377565b6040516001600160e01b031960e084901b168152600481019190915283151560248201526044016020604051808303816000875af11580156111d6573d6000803e3d6000fd5b505050506040513d601f19601f820116820180604052508101906111fa9190614a1e565b50611203613b9a565b8051611210906001613074565b604080518082019091526008815267383937bb34b232b960c11b6020820152815161123e91600090866130d9565b606081015161124e906001613074565b60408051808201909152600581526476616c756560d81b6020820152606082015161127c91600090856133b7565b60405163483624fb60e11b81526001600160a01b037f0000000000000000000000000000000000000000000000000000000000000000169063906c49f690610f9b908490600401614a3b565b6112da60405160200161047090613f43565b6112e2612e60565b60006112ee838361340c565b905061131d8160405180604001604052806019815260200160008051602061511d833981519152815250613253565b7f00000000000000000000000000000000000000000000000000000000000000006001600160a01b031663ca446dd96113558561344c565b846040518363ffffffff1660e01b8152600401611373929190614a7d565b6020604051808303816000875af1158015611392573d6000803e3d6000fd5b505050506040513d601f19601f820116820180604052508101906113b69190614a94565b506113bf613b9a565b80516113cc906002613074565b6040805180820190915260058152643a37b5b2b760d91b602082015281516113f791600090876130d9565b604080518082019091526008815267383937bb34b232b960c11b6020820152815161142591600190866130d9565b60405163483624fb60e11b81526001600160a01b037f0000000000000000000000000000000000000000000000000000000000000000169063906c49f6906109dd908490600401614ab1565b61148360405160200161047090613f43565b61148b612e60565b6000611497838361348b565b90506114c68160405180604001604052806018815260200160008051602061513d833981519152815250613253565b7f00000000000000000000000000000000000000000000000000000000000000006001600160a01b031663abfdcced6114fe85613377565b6040516001600160e01b031960e084901b168152600481019190915284151560248201526044016020604051808303816000875af1158015611544573d6000803e3d6000fd5b505050506040513d601f19601f820116820180604052508101906115689190614a1e565b50611571613b9a565b805161157e906001613074565b604080518082019091526008815267383937bb34b232b960c11b602082015281516115ac91600090876130d9565b60608101516115bc906001613074565b60408051808201909152600581526476616c756560d81b602082015260608201516115ea91600090866133b7565b60405163483624fb60e11b81526001600160a01b037f0000000000000000000000000000000000000000000000000000000000000000169063906c49f6906109dd908490600401614a3b565b61164860405160200161047090613f43565b611650612e60565b6001600160a01b038116611679578060405163c1b14c9160e01b81526004016104e39190613d75565b6000611684826134cc565b90506116ba81604051806040016040528060128152602001713932b6b7bb32a7b930b1b632a9b4b3b732b960711b815250612f0c565b6116c2613b9a565b80516116cf906001613074565b6040805180820190915260078152661858d8dbdd5b9d60ca1b602082015281516116fc91600090866130d9565b604051630937807960e21b81526001600160a01b037f000000000000000000000000000000000000000000000000000000000000000016906324de01e4906105ba9085908590600401614af4565b61175c60405160200161047090613f43565b611764612e60565b60006117708383613509565b905061179e816040518060400160405280600a8152602001697265766f6b65526f6c6560b01b815250612f0c565b6117a6613b9a565b80516117b3906001613074565b6040805180820190915260078152661858d8dbdd5b9d60ca1b602082015281516117e091600090876130d9565b60808101516117f0906001613074565b604080518082019091526007815266726f6c654b657960c81b6020820152608082015161182091600090866131ab565b604051630937807960e21b81526001600160a01b037f000000000000000000000000000000000000000000000000000000000000000016906324de01e4906109dd9085908590600401614b3c565b61188060405160200161047090613f43565b611888612e60565b60006118978686868686613136565b90506118c7816040518060400160405280600c81526020016b1cd95d141c9a58d95199595960a21b815250613253565b7f00000000000000000000000000000000000000000000000000000000000000006001600160a01b031663ca446dd96118ff88613545565b876040518363ffffffff1660e01b815260040161191d929190614a7d565b6020604051808303816000875af115801561193c573d6000803e3d6000fd5b505050506040513d601f19601f820116820180604052508101906119609190614a94565b507f00000000000000000000000000000000000000000000000000000000000000006001600160a01b031663e2a4853a61199988613575565b866040518363ffffffff1660e01b81526004016119b792919061490f565b6020604051808303816000875af11580156119d6573d6000803e3d6000fd5b505050506040513d601f19601f820116820180604052508101906119fa919061491d565b507f00000000000000000000000000000000000000000000000000000000000000006001600160a01b031663e2a4853a611a33886135b0565b856040518363ffffffff1660e01b8152600401611a5192919061490f565b6020604051808303816000875af1158015611a70573d6000803e3d6000fd5b505050506040513d601f19601f82011682018060405250810190611a94919061491d565b507f00000000000000000000000000000000000000000000000000000000000000006001600160a01b031663e2a4853a611acd886135f3565b846040518363ffffffff1660e01b8152600401611aeb92919061490f565b6020604051808303816000875af1158015611b0a573d6000803e3d6000fd5b505050506040513d601f19601f82011682018060405250810190611b2e919061491d565b50611b37613b9a565b8051611b44906002613074565b6040805180820190915260058152643a37b5b2b760d91b60208201528151611b6f916000908a6130d9565b6040805180820190915260098152681c1c9a58d95199595960ba1b60208201528151611b9e91600190896130d9565b6020810151611bae906003613074565b611bf5600060405180604001604052806013815260200172383934b1b2a332b2b226bab63a34b83634b2b960691b8152508784602001516131ab909392919063ffffffff16565b611c4360016040518060400160405280601a815260200179383934b1b2a332b2b22432b0b93a3132b0ba223ab930ba34b7b760311b8152508684602001516131ab909392919063ffffffff16565b611c8260026040518060400160405280600b81526020016a737461626c65507269636560a81b8152508584602001516131ab909392919063ffffffff16565b604051630937807960e21b81526001600160a01b037f000000000000000000000000000000000000000000000000000000000000000016906324de01e4906107f59085908590600401614b7c565b611ce260405160200161047090613f43565b611cea612e60565b611d18816040518060400160405280600c81526020016b31b0b731b2b620b1ba34b7b760a11b815250613625565b6105f86001600055565b611d3460405160200161047090613f43565b611d3c612e60565b6000611d48838361340c565b9050611d778160405180604001604052806019815260200160008051602061511d833981519152815250612f0c565b611d7f613b9a565b8051611d8c906002613074565b6040805180820190915260058152643a37b5b2b760d91b60208201528151611db791600090876130d9565b604080518082019091526008815267383937bb34b232b960c11b60208201528151611de591600190866130d9565b60405163483624fb60e11b81526001600160a01b037f0000000000000000000000000000000000000000000000000000000000000000169063906c49f6906109dd908490600401614bb8565b611e4360405160200161047090613f43565b611e4b612e60565b68327cb2734119d3b7a9601e1b811115611ea057604051602001611e6e90614bff565b6040516020818303038152906040528051906020012081604051635ebb87c960e01b81526004016104e392919061490f565b6000611eae85858585613266565b9050611edf816040518060400160405280600d81526020016c7365744461746153747265616d60981b815250612f0c565b611ee7613b9a565b8051611ef4906001613074565b6040805180820190915260058152643a37b5b2b760d91b60208201528151611f1f91600090896130d9565b6080810151611f2f906001613074565b60408051808201909152600681526519995959125960d21b60208201526080820151611f5e91600090886131ab565b6020810151611f6e906002613074565b611fb66000604051806040016040528060148152602001733230ba30a9ba3932b0b6a6bab63a34b83634b2b960611b8152508684602001516131ab909392919063ffffffff16565b611ff560016040518060400160405280601f815260200160008051602061515d8339815191528152508584602001516131ab909392919063ffffffff16565b604051630937807960e21b81526001600160a01b037f000000000000000000000000000000000000000000000000000000000000000016906324de01e490610daa9085908590600401614c42565b61205560405160200161047090613f43565b61205d612e60565b600061206983836131fe565b905061209681604051806040016040528060098152602001686772616e74526f6c6560b81b815250612f0c565b61209e613b9a565b80516120ab906001613074565b6040805180820190915260078152661858d8dbdd5b9d60ca1b602082015281516120d891600090876130d9565b60808101516120e8906001613074565b604080518082019091526007815266726f6c654b657960c81b6020820152608082015161211891600090866131ab565b604051630937807960e21b81526001600160a01b037f000000000000000000000000000000000000000000000000000000000000000016906324de01e4906109dd9085908590600401614c85565b6060816001600160401b0381111561218057612180614cc4565b6040519080825280602002602001820160405280156121b357816020015b606081526020019060019003908161219e5790505b50905060005b8281101561227d57600080308686858181106121d7576121d7614cda565b90506020028101906121e99190614cf0565b6040516121f7929190614d3d565b600060405180830381855af49150503d8060008114612232576040519150601f19603f3d011682016040523d82523d6000602084013e612237565b606091505b50915091508161224a5761224a8161374a565b8084848151811061225d5761225d614cda565b60200260200101819052505050808061227590614d63565b9150506121b9565b505b92915050565b61229760405160200161047090613f43565b61229f612e60565b6001600160a01b0381166122c8578060405163cb9339d560e01b81526004016104e39190613d75565b60006122d382613788565b9050612305816040518060400160405280600e81526020016d39b2ba2332b2a932b1b2b4bb32b960911b815250612f0c565b61230d613b9a565b805161231a906001613074565b6040805180820190915260078152661858d8dbdd5b9d60ca1b6020820152815161234791600090866130d9565b604051630937807960e21b81526001600160a01b037f000000000000000000000000000000000000000000000000000000000000000016906324de01e4906105ba9085908590600401614d7c565b6123a760405160200161047090613f43565b6123af612e60565b60006123ba826134cc565b90506123f081604051806040016040528060128152602001713932b6b7bb32a7b930b1b632a9b4b3b732b960711b815250613253565b604051630e316ab760e01b81526001600160a01b037f00000000000000000000000000000000000000000000000000000000000000001690630e316ab79061243c908590600401613d75565b600060405180830381600087803b15801561245657600080fd5b505af115801561246a573d6000803e3d6000fd5b50505050612476613b9a565b8051612483906001613074565b6040805180820190915260078152661858d8dbdd5b9d60ca1b602082015281516124b091600090866130d9565b604051630937807960e21b81526001600160a01b037f000000000000000000000000000000000000000000000000000000000000000016906324de01e4906105ba9085908590600401614dc0565b61251060405160200161047090613f43565b612518612e60565b6000612524838361348b565b90506125538160405180604001604052806018815260200160008051602061513d833981519152815250612f0c565b61255b613b9a565b8051612568906001613074565b604080518082019091526008815267383937bb34b232b960c11b6020820152815161259691600090876130d9565b60608101516125a6906001613074565b60408051808201909152600581526476616c756560d81b602082015260608201516125d491600090866133b7565b60405163483624fb60e11b81526001600160a01b037f0000000000000000000000000000000000000000000000000000000000000000169063906c49f6906109dd908490600401614e02565b61263260405160200161047090613f43565b61263a612e60565b600061264582613788565b9050612677816040518060400160405280600e81526020016d39b2ba2332b2a932b1b2b4bb32b960911b815250613253565b7f00000000000000000000000000000000000000000000000000000000000000006001600160a01b031663ca446dd96040516020016126d6906020808252600c908201526b2322a2afa922a1a2a4ab22a960a11b604082015260600190565b60405160208183030381529060405280519060200120846040518363ffffffff1660e01b815260040161270a929190614a7d565b6020604051808303816000875af1158015612729573d6000803e3d6000fd5b505050506040513d601f19601f8201168201806040525081019061274d9190614a94565b50612756613b9a565b8051612763906001613074565b6040805180820190915260078152661858d8dbdd5b9d60ca1b6020820152815161279091600090866130d9565b604051630937807960e21b81526001600160a01b037f000000000000000000000000000000000000000000000000000000000000000016906324de01e4906105ba9085908590600401614e49565b6127f060405160200161047090613f43565b6127f8612e60565b60006128048383613509565b9050612832816040518060400160405280600a8152602001697265766f6b65526f6c6560b01b815250613253565b60405163208dd1ff60e01b81526001600160a01b037f0000000000000000000000000000000000000000000000000000000000000000169063208dd1ff9061288090869086906004016148bd565b600060405180830381600087803b15801561289a57600080fd5b505af11580156128ae573d6000803e3d6000fd5b505050506128ba613b9a565b80516128c7906001613074565b6040805180820190915260078152661858d8dbdd5b9d60ca1b602082015281516128f491600090876130d9565b6080810151612904906001613074565b604080518082019091526007815266726f6c654b657960c81b6020820152608082015161293491600090866131ab565b604051630937807960e21b81526001600160a01b037f000000000000000000000000000000000000000000000000000000000000000016906324de01e4906109dd9085908590600401614e87565b61299460405160200161047090613f43565b61299c612e60565b60006129a883836137c1565b90506129e3816040518060400160405280601781526020017639b2ba20ba37b6b4b1a7b930b1b632a83937bb34b232b960491b815250613253565b7f00000000000000000000000000000000000000000000000000000000000000006001600160a01b031663abfdcced612a1b8561380e565b6040516001600160e01b031960e084901b168152600481019190915284151560248201526044016020604051808303816000875af1158015612a61573d6000803e3d6000fd5b505050506040513d601f19601f82011682018060405250810190612a859190614a1e565b50612a8e613b9a565b8051612a9b906001613074565b604080518082019091526008815267383937bb34b232b960c11b60208201528151612ac991600090876130d9565b6060810151612ad9906001613074565b60408051808201909152600581526476616c756560d81b60208201526060820151612b0791600090866133b7565b60405163483624fb60e11b81526001600160a01b037f0000000000000000000000000000000000000000000000000000000000000000169063906c49f6906109dd908490600401614eb1565b612b6560405160200161047090613f43565b612b6d612e60565b6001548111612b92576040516373586edb60e11b8152600481018290526024016104e3565b6001819055612b9f61384d565b612ba7613b9a565b6020810151612bb7906001613074565b612bf960006040518060400160405280600e81526020016d5f74696d656c6f636b44656c617960901b8152508484602001516131ab909392919063ffffffff16565b60405163483624fb60e11b81526001600160a01b037f0000000000000000000000000000000000000000000000000000000000000000169063906c49f690612c45908490600401614ef2565b600060405180830381600087803b158015612c5f57600080fd5b505af1158015612c73573d6000803e3d6000fd5b50505050506105f86001600055565b612c9460405160200161047090613f43565b612c9c612e60565b6000612ca883836137c1565b9050612ce3816040518060400160405280601781526020017639b2ba20ba37b6b4b1a7b930b1b632a83937bb34b232b960491b815250612f0c565b612ceb613b9a565b8051612cf8906001613074565b604080518082019091526008815267383937bb34b232b960c11b60208201528151612d2691600090876130d9565b6060810151612d36906001613074565b60408051808201909152600581526476616c756560d81b60208201526060820151612d6491600090866133b7565b60405163483624fb60e11b81526001600160a01b037f0000000000000000000000000000000000000000000000000000000000000000169063906c49f6906109dd908490600401614f31565b60405163ac4ab3fb60e01b81526001600160a01b037f0000000000000000000000000000000000000000000000000000000000000000169063ac4ab3fb90612dfe90339086906004016148bd565b602060405180830381865afa158015612e1b573d6000803e3d6000fd5b505050506040513d601f19601f82011682018060405250810190612e3f9190614a1e565b610a1b57338160405163a35b150b60e01b81526004016104e3929190614f78565b600260005403612eb25760405162461bcd60e51b815260206004820152601f60248201527f5265656e7472616e637947756172643a207265656e7472616e742063616c6c0060448201526064016104e3565b6002600055565b6040516e30b23227b930b1b632a9b4b3b732b960891b60208201526001600160601b0319606083901b16602f8201526000906043015b604051602081830303815290604052805190602001209050919050565b60008281526002602052604090205415612f395760405163b244a10760e01b815260040160405180910390fd5b600154612f469042614f9c565b600083815260026020526040902055612f6060038361387b565b50612f69613b9a565b6080810151612f79906001613074565b604080518082019091526009815268616374696f6e4b657960b81b60208201526080820151612fab91600090866131ab565b60c0810151612fbb90600161388e565b60408051808201909152600b81526a1858dd1a5bdb931858995b60aa1b602082015260c0820151612fef91600090856138f0565b604051630937807960e21b81526001600160a01b037f000000000000000000000000000000000000000000000000000000000000000016906324de01e49061303d9086908590600401614faf565b600060405180830381600087803b15801561305757600080fd5b505af115801561306b573d6000803e3d6000fd5b50505050505050565b806001600160401b0381111561308c5761308c614cc4565b6040519080825280602002602001820160405280156130d257816020015b6040805180820190915260608152600060208201528152602001906001900390816130aa5790505b5090915250565b81846000015184815181106130f0576130f0614cda565b602002602001015160000181905250808460000151848151811061311657613116614cda565b6020908102919091018101516001600160a01b0390921691015250505050565b604080516b1cd95d141c9a58d95199595960a21b60208201526001600160601b0319606088811b8216602c84015287901b169181019190915260548101849052607481018390526094810182905260009060b40160405160208183030381529060405280519060200120905095945050505050565b81846000015184815181106131c2576131c2614cda565b60200260200101516000018190525080846000015184815181106131e8576131e8614cda565b6020026020010151602001818152505050505050565b604051686772616e74526f6c6560b81b60208201526001600160601b0319606084901b166029820152603d8101829052600090605d015b60405160208183030381529060405280519060200120905092915050565b61325c82613942565b610a1b8282613625565b6040516c7365744461746153747265616d60981b60208201526001600160601b0319606086901b16602d82015260418101849052606181018390526081810182905260009060a101604051602081830303815290604052805190602001209050949350505050565b6000604051602001613302906020808252600e908201526d1110551057d4d51491505357d25160921b604082015260600190565b6040516020818303038152906040528051906020012082604051602001612eef929190614a7d565b6000604051602001613302906020808252601690820152752220aa20afa9aa2922a0a6afa6aaa62a24a82624a2a960511b604082015260600190565b600060405160200161330290614bff565b6000604051602001613302906020808252601a90820152791254d7d3d49050d31157d41493d59251115497d153905093115160321b604082015260600190565b81846000015184815181106133ce576133ce614cda565b60200260200101516000018190525080846000015184815181106133f4576133f4614cda565b60209081029190910181015191151591015250505050565b60405160008051602061511d83398151915260208201526001600160601b0319606084811b8216603984015283901b16604d820152600090606101613235565b60006040516020016133029060208082526019908201527827a920a1a622afa82927ab24a222a92fa327a92faa27a5a2a760391b604082015260600190565b60405160008051602061513d83398151915260208201526001600160601b0319606084901b16603882015281151560f81b604c820152600090604d01613235565b604051713932b6b7bb32a7b930b1b632a9b4b3b732b960711b60208201526001600160601b0319606083901b166032820152600090604601612eef565b604051697265766f6b65526f6c6560b01b60208201526001600160601b0319606084901b16602a820152603e8101829052600090605e01613235565b6000604051602001613302906020808252600a908201526914149250d157d191515160b21b604082015260600190565b600060405160200161330290602080825260159082015274282924a1a2afa322a2a22fa6aaa62a24a82624a2a960591b604082015260600190565b6000604051602001613302906020808252601d908201527f50524943455f464545445f4845415254424541545f4455524154494f4e000000604082015260600190565b6000604051602001613302906020808252600c908201526b535441424c455f505249434560a01b604082015260600190565b600082815260026020526040812054900361365357604051634a7ed75160e11b815260040160405180910390fd5b60008281526002602052604081205561366d6003836139b3565b50613676613b9a565b6080810151613686906001613074565b604080518082019091526009815268616374696f6e4b657960b81b602082015260808201516136b891600090866131ab565b60c08101516136c890600161388e565b60408051808201909152600b81526a1858dd1a5bdb931858995b60aa1b602082015260c08201516136fc91600090856138f0565b604051630937807960e21b81526001600160a01b037f000000000000000000000000000000000000000000000000000000000000000016906324de01e49061303d9086908590600401614ff2565b600080613756836139bf565b91509150801561377a578160405162461bcd60e51b81526004016104e39190615034565b61378383613a4f565b505050565b6040516d39b2ba2332b2a932b1b2b4bb32b960911b60208201526001600160601b0319606083901b16602e820152600090604201612eef565b6040517639b2ba20ba37b6b4b1a7b930b1b632a83937bb34b232b960491b60208201526001600160601b0319606084901b16603782015281151560f81b604b820152600090604c01613235565b60006040516020016133029060208082526019908201527824a9afa0aa27a6a4a1afa7a920a1a622afa82927ab24a222a960391b604082015260600190565b62069780600154111561387957600154604051633ebd9bc360e21b81526004016104e391815260200190565b565b60006138878383613a58565b9392505050565b806001600160401b038111156138a6576138a6614cc4565b6040519080825280602002602001820160405280156130d257816020015b60408051808201909152606080825260208201528152602001906001900390816138c457505090915250565b818460000151848151811061390757613907614cda565b602002602001015160000181905250808460000151848151811061392d5761392d614cda565b60200260200101516020018190525050505050565b600081815260026020526040812054900361397057604051634a7ed75160e11b815260040160405180910390fd5b4260008281526002602052604090205411156105f8576000818152600260205260409081902054905163082c8d6160e21b815260048101919091526024016104e3565b60006138878383613aa7565b606060006044835110156139e6575050604080516020810190915260008082529092909150565b60006139f3846020015190565b90506307b9e43360e51b6001600160e01b0319821601613a325760048401935083806020019051810190613a279190615047565b946001945092505050565b600060405180602001604052806000815250909250925050915091565b80518060208301fd5b6000818152600183016020526040812054613a9f5750815460018181018455600084815260208082209093018490558454848252828601909352604090209190915561227f565b50600061227f565b60008181526001830160205260408120548015613b90576000613acb6001836150f3565b8554909150600090613adf906001906150f3565b9050818114613b44576000866000018281548110613aff57613aff614cda565b9060005260206000200154905080876000018481548110613b2257613b22614cda565b6000918252602080832090910192909255918252600188019052604090208390555b8554869080613b5557613b55615106565b60019003818190600052602060002001600090559055856001016000868152602001908152602001600020600090556001935050505061227f565b600091505061227f565b604080516101208101909152606060e0820181815261010083019190915281908152602001613bdc604051806040016040528060608152602001606081525090565b8152602001613bfe604051806040016040528060608152602001606081525090565b8152602001613c20604051806040016040528060608152602001606081525090565b8152602001613c42604051806040016040528060608152602001606081525090565b8152602001613c64604051806040016040528060608152602001606081525090565b8152602001613c86604051806040016040528060608152602001606081525090565b905290565b6001600160a01b03811681146105f857600080fd5b600060208284031215613cb257600080fd5b813561388781613c8b565b600080600080600060a08688031215613cd557600080fd5b8535613ce081613c8b565b94506020860135613cf081613c8b565b94979496505050506040830135926060810135926080909101359150565b60008060408385031215613d2157600080fd5b8235613d2c81613c8b565b946020939093013593505050565b60008060008060808587031215613d5057600080fd5b8435613d5b81613c8b565b966020860135965060408601359560600135945092505050565b6001600160a01b0391909116815260200190565b80151581146105f857600080fd5b60008060408385031215613daa57600080fd5b8235613db581613c8b565b91506020830135613dc581613d89565b809150509250929050565b60008060408385031215613de357600080fd5b8235613dee81613c8b565b91506020830135613dc581613c8b565b600060208284031215613e1057600080fd5b5035919050565b60008060208385031215613e2a57600080fd5b82356001600160401b0380821115613e4157600080fd5b818501915085601f830112613e5557600080fd5b813581811115613e6457600080fd5b8660208260051b8501011115613e7957600080fd5b60209290920196919550909350505050565b60005b83811015613ea6578181015183820152602001613e8e565b50506000910152565b60008151808452613ec7816020860160208601613e8b565b601f01601f19169290920160200192915050565b600081518084526020808501808196508360051b8101915082860160005b85811015613f23578284038952613f11848351613eaf565b98850198935090840190600101613ef9565b5091979650505050505050565b6020815260006138876020830184613edb565b6020808252600e908201526d2a24a6a2a627a1a5afa0a226a4a760911b604082015260600190565b600081518084526020808501808196508360051b810191508286016000805b86811015614006578385038a52825160408151818852613fac82890182613eaf565b92890151888403898b01528051808552908a01938693508a0191505b80831015613ff15783516001600160a01b03168252928901926001929092019190890190613fc8565b509b88019b9650505091850191600101613f8a565b509298975050505050505050565b60006040808401835182865281815180845260608801915060608160051b89010193506020808401935060005b8281101561408b57898603605f190184528451805188885261406589890182613eaf565b918401516001600160a01b03169784019790975295509381019392810192600101614041565b50808801519550888503818a0152505050506140a78183613f6b565b95945050505050565b600081518084526020808501808196508360051b810191508286016000805b86811015614006578385038a528251604081518188526140f182890182613eaf565b92890151888403898b01528051808552908a01938693508a0191505b8083101561412d578351825292890192600192909201919089019061410d565b509b88019b96505050918501916001016140cf565b60006040808401835182865281815180845260608801915060608160051b89010193506020808401935060005b828110156141b057898603605f190184528451805188885261419389890182613eaf565b91840151978401979097529550938101939281019260010161416f565b50808801519550888503818a0152505050506140a781836140b0565b600081518084526020808501808196508360051b810191508286016000805b86811015614006578385038a5282516040815181885261420d82890182613eaf565b92890151888403898b01528051808552908a01938693508a0191505b808310156142495783518252928901926001929092019190890190614229565b509b88019b96505050918501916001016141eb565b60006040808401835182865281815180845260608801915060608160051b89010193506020808401935060005b828110156142cc57898603605f19018452845180518888526142af89890182613eaf565b91840151978401979097529550938101939281019260010161428b565b50808801519550888503818a0152505050506140a781836141cc565b600081518084526020808501808196508360051b810191508286016000805b86811015614006578385038a5282516040815181885261432982890182613eaf565b92890151888403898b01528051808552908a01938693508a0191505b8083101561436757835115158252928901926001929092019190890190614345565b509b88019b9650505091850191600101614307565b60006040808401835182865281815180845260608801915060608160051b89010193506020808401935060005b828110156143ec57898603605f19018452845180518888526143cd89890182613eaf565b91840151151597840197909752955093810193928101926001016143a9565b50808801519550888503818a0152505050506140a781836142e8565b600081518084526020808501808196508360051b810191508286016000805b86811015614006578385038a5282516040815181885261444982890182613eaf565b92890151888403898b01528051808552908a01938693508a0191505b808310156144855783518252928901926001929092019190890190614465565b509b88019b9650505091850191600101614427565b60006040808401835182865281815180845260608801915060608160051b89010193506020808401935060005b8281101561450857898603605f19018452845180518888526144eb89890182613eaf565b9184015197840197909752955093810193928101926001016144c7565b50808801519550888503818a0152505050506140a78183614408565b600081518084526020808501808196508360051b8101915082860160005b85811015613f2357828403895281516040815181875261456482880182613eaf565b9150508682015191508581038787015261457e8183613edb565b9a87019a9550505090840190600101614542565b60006040808401835182865281815180845260608801915060608160051b89010193506020808401935060005b8281101561460f57898603605f19018452845180518888526145e389890182613eaf565b91840151888303898601529190506145fb8183613eaf565b9750505093810193928101926001016145bf565b50808801519550888503818a0152505050506140a78183614524565b600081518084526020808501808196506005915083821b81018387016000805b878110156146d6578484038b5282516040815181875261466d82880182613eaf565b928a0151878403888c01528051808552908b019392508a83019150808a1b83018b01865b828110156146bf57601f198583030184526146ad828751613eaf565b958d0195938d01939150600101614691565b509e8b019e9750505093880193505060010161464b565b50919998505050505050505050565b60006040808401835182865281815180845260608801915060608160051b89010193506020808401935060005b8281101561476257898603605f190184528451805188885261473689890182613eaf565b918401518883038986015291905061474e8183613eaf565b975050509381019392810192600101614712565b50808801519550888503818a0152505050506140a7818361462b565b6000815160e0845261479360e0850182614014565b9050602083015184820360208601526147ac8282614142565b915050604083015184820360408601526147c6828261425e565b915050606083015184820360608601526147e0828261437c565b915050608083015184820360808601526147fa828261449a565b91505060a083015184820360a08601526148148282614592565b91505060c083015184820360c08601526140a782826146e5565b60608152601560608201527429b4b3b730b620b23227b930b1b632a9b4b3b732b960591b608082015282602082015260a06040820152600061487360a083018461477e565b949350505050565b60608152601260608201527114da59db985b14d95d141c9a58d95199595960721b608082015282602082015260a06040820152600061487360a083018461477e565b6001600160a01b03929092168252602082015260400190565b6060815260096060820152684772616e74526f6c6560b81b608082015282602082015260a06040820152600061487360a083018461477e565b918252602082015260400190565b60006020828403121561492f57600080fd5b5051919050565b60608152600d60608201526c5365744461746153747265616d60981b608082015282602082015260a06040820152600061487360a083018461477e565b60208082526011908201527054494d454c4f434b5f4d554c544953494760781b604082015260600190565b600a8152695265766f6b65526f6c6560b01b602082015260400190565b6040815260006149cd6040830161499e565b8281036020840152614873818561477e565b60608152600f60608201526e20b23227b930b1b632a9b4b3b732b960891b608082015282602082015260a06040820152600061487360a083018461477e565b600060208284031215614a3057600080fd5b815161388781613d89565b60408152601860408201527714d95d13dc9858db19541c9bdd9a59195c915b98589b195960421b6060820152608060208201526000613887608083018461477e565b9182526001600160a01b0316602082015260400190565b600060208284031215614aa657600080fd5b815161388781613c8b565b60408152601960408201527829b2ba27b930b1b632a83937bb34b232b92337b92a37b5b2b760391b6060820152608060208201526000613887608083018461477e565b60608152601860608201527729b4b3b730b62932b6b7bb32a7b930b1b632a9b4b3b732b960411b608082015282602082015260a06040820152600061487360a083018461477e565b60608152601060608201526f5369676e616c5265766f6b65526f6c6560801b608082015282602082015260a06040820152600061487360a083018461477e565b60608152600c60608201526b14d95d141c9a58d95199595960a21b608082015282602082015260a06040820152600061487360a083018461477e565b60408152601f60408201527f5369676e616c5365744f7261636c6550726f7669646572466f72546f6b656e006060820152608060208201526000613887608083018461477e565b60208082526023908201527f444154415f53545245414d5f5350524541445f524544554354494f4e5f4641436040820152622a27a960e91b606082015260800190565b6060815260136060820152725369676e616c5365744461746153747265616d60681b608082015282602082015260a06040820152600061487360a083018461477e565b60608152600f60608201526e5369676e616c4772616e74526f6c6560881b608082015282602082015260a06040820152600061487360a083018461477e565b634e487b7160e01b600052604160045260246000fd5b634e487b7160e01b600052603260045260246000fd5b6000808335601e19843603018112614d0757600080fd5b8301803591506001600160401b03821115614d2157600080fd5b602001915036819003821315614d3657600080fd5b9250929050565b8183823760009101908152919050565b634e487b7160e01b600052601160045260246000fd5b600060018201614d7557614d75614d4d565b5060010190565b60608152601460608201527329b4b3b730b629b2ba2332b2a932b1b2b4bb32b960611b608082015282602082015260a06040820152600061487360a083018461477e565b6060815260126060820152712932b6b7bb32a7b930b1b632a9b4b3b732b960711b608082015282602082015260a06040820152600061487360a083018461477e565b60408152601e60408201527f5369676e616c5365744f7261636c6550726f7669646572456e61626c656400006060820152608060208201526000613887608083018461477e565b60608152600e60608201526d29b2ba2332b2a932b1b2b4bb32b960911b608082015282602082015260a06040820152600061487360a083018461477e565b606081526000614e996060830161499e565b84602084015282810360408401526140a7818561477e565b60408152601760408201527629b2ba20ba37b6b4b1a7b930b1b632a83937bb34b232b960491b6060820152608060208201526000613887608083018461477e565b604081526015604082015274496e63726561736554696d656c6f636b44656c617960581b6060820152608060208201526000613887608083018461477e565b60408152601d60408201527f5369676e616c53657441746f6d69634f7261636c6550726f76696465720000006060820152608060208201526000613887608083018461477e565b6001600160a01b038316815260406020820181905260009061487390830184613eaf565b8082018082111561227f5761227f614d4d565b60608152601360608201527229b4b3b730b62832b73234b733a0b1ba34b7b760691b608082015282602082015260a06040820152600061487360a083018461477e565b60608152601260608201527121b632b0b92832b73234b733a0b1ba34b7b760711b608082015282602082015260a06040820152600061487360a083018461477e565b6020815260006138876020830184613eaf565b60006020828403121561505957600080fd5b81516001600160401b038082111561507057600080fd5b818401915084601f83011261508457600080fd5b81518181111561509657615096614cc4565b604051601f8201601f19908116603f011681019083821181831017156150be576150be614cc4565b816040528281528760208487010111156150d757600080fd5b6150e8836020830160208801613e8b565b979650505050505050565b8181038181111561227f5761227f614d4d565b634e487b7160e01b600052603160045260246000fdfe7365744f7261636c6550726f7669646572466f72546f6b656e000000000000007365744f7261636c6550726f7669646572456e61626c656400000000000000006461746153747265616d537072656164526564756374696f6e466163746f7200a2646970667358221220f8ddab768001bd119f38f1142c260523bb09fc73ea6018ea5c2162a6a376de2464736f6c63430008120033",
  "linkReferences": {},
  "deployedLinkReferences": {}
}