{
  "address": "0xa68992f355d397Dc7f0e403Df622C27de3DFDA77",
  "abi": [
    {
      "inputs": [
        {
          "internalType": "contract RoleStore",
          "name": "_roleStore",
          "type": "address"
        },
        {
          "internalType": "contract DataStore",
          "name": "_dataStore",
          "type": "address"
        },
        {
          "internalType": "contract EventEmitter",
          "name": "_eventEmitter",
          "type": "address"
        }
      ],
      "stateMutability": "nonpayable",
      "type": "constructor"
    },
    {
      "inputs": [
        {
          "internalType": "address",
          "name": "msgSender",
          "type": "address"
        },
        {
          "internalType": "string",
          "name": "role",
          "type": "string"
        }
      ],
      "name": "Unauthorized",
      "type": "error"
    },
    {
      "inputs": [],
      "name": "dataStore",
      "outputs": [
        {
          "internalType": "contract DataStore",
          "name": "",
          "type": "address"
        }
      ],
      "stateMutability": "view",
      "type": "function"
    },
    {
      "inputs": [],
      "name": "eventEmitter",
      "outputs": [
        {
          "internalType": "contract EventEmitter",
          "name": "",
          "type": "address"
        }
      ],
      "stateMutability": "view",
      "type": "function"
    },
    {
      "inputs": [
        {
          "internalType": "bytes[]",
          "name": "data",
          "type": "bytes[]"
        }
      ],
      "name": "multicall",
      "outputs": [
        {
          "internalType": "bytes[]",
          "name": "results",
          "type": "bytes[]"
        }
      ],
      "stateMutability": "nonpayable",
      "type": "function"
    },
    {
      "inputs": [],
      "name": "roleStore",
      "outputs": [
        {
          "internalType": "contract RoleStore",
          "name": "",
          "type": "address"
        }
      ],
      "stateMutability": "view",
      "type": "function"
    },
    {
      "inputs": [
        {
          "internalType": "address",
          "name": "account",
          "type": "address"
        },
        {
          "internalType": "uint256",
          "name": "start",
          "type": "uint256"
        },
        {
          "internalType": "uint256",
          "name": "end",
          "type": "uint256"
        }
      ],
      "name": "syncAutoCancelOrderListForAccount",
      "outputs": [],
      "stateMutability": "nonpayable",
      "type": "function"
    },
    {
      "inputs": [
        {
          "internalType": "address",
          "name": "account",
          "type": "address"
        },
        {
          "internalType": "bytes32",
          "name": "positionKey",
          "type": "bytes32"
        }
      ],
      "name": "syncAutoCancelOrderListForPosition",
      "outputs": [],
      "stateMutability": "nonpayable",
      "type": "function"
    }
  ],
  "transactionHash": "0x32d243f13e7da6a1d370368dcac7a683bb36ee0768f22f774ccc664939fe8e19",
  "args": [
    "0x19a8085537078e7847a332A76ABaDD5b02B1e736",
    "0xEA1BFb4Ea9A412dCCd63454AbC127431eBB0F0d4",
    "0xc67D98AC5803aFD776958622CeEE332A0B2CabB9"
  ],
  "numDeployments": 6,
  "solcInputHash": "2a28f96a124d5988e6c0ef3d29c54a03",
  "bytecode": "0x60e060405234801561001057600080fd5b50604051611dd2380380611dd283398101604081905261002f91610069565b60016000556001600160a01b0392831660805290821660a0521660c0526100b6565b6001600160a01b038116811461006657600080fd5b50565b60008060006060848603121561007e57600080fd5b835161008981610051565b602085015190935061009a81610051565b60408501519092506100ab81610051565b809150509250925092565b60805160a05160c051611cc661010c6000396000818160ec015261071a01526000818160b0015281816101a30152818161050701528181610576015261063b015260008181606c01526103700152611cc66000f3fe608060405234801561001057600080fd5b50600436106100625760003560e01c80634a4a7b0414610067578063660d0d67146100ab57806376422d57146100d25780639ff78c30146100e7578063ac9650d81461010e578063e5e1bfb01461012e575b600080fd5b61008e7f000000000000000000000000000000000000000000000000000000000000000081565b6040516001600160a01b0390911681526020015b60405180910390f35b61008e7f000000000000000000000000000000000000000000000000000000000000000081565b6100e56100e0366004610d3f565b610141565b005b61008e7f000000000000000000000000000000000000000000000000000000000000000081565b61012161011c366004610d74565b610214565b6040516100a29190610e39565b6100e561013c366004610e9e565b610327565b61019460405160200161015390610eca565b604051602081830303815290604052805190602001206040518060400160405280600d81526020016c21a7a72324a3afa5a2a2a822a960991b815250610359565b61019c610412565b60006101ca7f000000000000000000000000000000000000000000000000000000000000000085858561046b565b905060005b8151811015610203576101fb858383815181106101ee576101ee610ef1565b6020026020010151610500565b6001016101cf565b505061020f6001600055565b505050565b6060816001600160401b0381111561022e5761022e610f07565b60405190808252806020026020018201604052801561026157816020015b606081526020019060019003908161024c5790505b50905060005b82811015610320576000803086868581811061028557610285610ef1565b90506020028101906102979190610f1d565b6040516102a5929190610f6a565b600060405180830381855af49150503d80600081146102e0576040519150601f19603f3d011682016040523d82523d6000602084013e6102e5565b606091505b5091509150816102f8576102f8816107b9565b8084848151811061030b5761030b610ef1565b60209081029190910101525050600101610267565b5092915050565b61033960405160200161015390610eca565b610341610412565b61034b8282610500565b6103556001600055565b5050565b60405163ac4ab3fb60e01b81526001600160a01b037f0000000000000000000000000000000000000000000000000000000000000000169063ac4ab3fb906103a79033908690600401610f7a565b602060405180830381865afa1580156103c4573d6000803e3d6000fd5b505050506040513d601f19601f820116820180604052508101906103e89190610fa8565b61035557338160405163a35b150b60e01b8152600401610409929190610fca565b60405180910390fd5b6002600054036104645760405162461bcd60e51b815260206004820152601f60248201527f5265656e7472616e637947756172643a207265656e7472616e742063616c6c006044820152606401610409565b6002600055565b6060846001600160a01b031663f069052a610485866107f2565b6040516001600160e01b031960e084901b16815260048101919091526024810186905260448101859052606401600060405180830381865afa1580156104cf573d6000803e3d6000fd5b505050506040513d6000823e601f3d908101601f191682016040526104f79190810190611124565b95945050505050565b600061052c7f000000000000000000000000000000000000000000000000000000000000000083610878565b905060005b81518110156107b357600082828151811061054e5761054e610ef1565b60200260200101519050600073FDa67670C08149e76F6C038446F3674bf137aBd863fdfc26f37f0000000000000000000000000000000000000000000000000000000000000000846040518363ffffffff1660e01b81526004016105b3929190610f7a565b600060405180830381865af41580156105d0573d6000803e3d6000fd5b505050506040513d6000823e601f3d908101601f191682016040526105f891908101906112f1565b9050600061060582515190565b6001600160a01b0316148061063157506020810151604001511580156106315750602081015160600151155b156107a9576106617f000000000000000000000000000000000000000000000000000000000000000086846108e8565b610669610c36565b805161067690600161095d565b6040805180820190915260078152661858d8dbdd5b9d60ca1b602082015281516106a3916000908a6109c2565b60808101516106b390600261095d565b60408051808201909152600b81526a706f736974696f6e4b657960a81b602082015260808201516106e79160009089610a1f565b6040805180820190915260088152676f726465724b657960c01b602082015260808201516107189160019086610a1f565b7f00000000000000000000000000000000000000000000000000000000000000006001600160a01b03166324de01e4610757896001600160a01b031690565b836040518363ffffffff1660e01b8152600401610775929190611ac1565b600060405180830381600087803b15801561078f57600080fd5b505af11580156107a3573d6000803e3d6000fd5b50505050505b5050600101610531565b50505050565b6000806107c583610a72565b9150915080156107e9578160405162461bcd60e51b81526004016104099190611bd9565b61020f83610b02565b600060405160200161082d906020808252601590820152741050d0d3d5539517d413d4d2551253d397d31254d5605a1b604082015260600190565b60408051601f198184030181528282528051602091820120908301526001600160a01b038416908201526060015b604051602081830303815290604052805190602001209050919050565b6060600061088583610b0b565b9050600061089285610b70565b604051637834829560e11b81526004810184905260006024820152604481018290529091506001600160a01b0386169063f069052a90606401600060405180830381865afa1580156104cf573d6000803e3d6000fd5b60006108f383610b0b565b60405163264870f360e21b815260048101829052602481018490529091506001600160a01b03851690639921c3cc90604401600060405180830381600087803b15801561093f57600080fd5b505af1158015610953573d6000803e3d6000fd5b5050505050505050565b806001600160401b0381111561097557610975610f07565b6040519080825280602002602001820160405280156109bb57816020015b6040805180820190915260608152600060208201528152602001906001900390816109935790505b5090915250565b81846000015184815181106109d9576109d9610ef1565b60200260200101516000018190525080846000015184815181106109ff576109ff610ef1565b6020908102919091018101516001600160a01b0390921691015250505050565b8184600001518481518110610a3657610a36610ef1565b6020026020010151600001819052508084600001518481518110610a5c57610a5c610ef1565b6020026020010151602001818152505050505050565b60606000604483511015610a99575050604080516020810190915260008082529092909150565b6000610aa6846020015190565b90506307b9e43360e51b6001600160e01b0319821601610ae55760048401935083806020019051810190610ada9190611bec565b946001945092505050565b600060405180602001604052806000815250909250925050915091565b80518060208301fd5b6000604051602001610b479060208082526016908201527510555513d7d0d05390d15317d3d491115497d31254d560521b604082015260600190565b60408051601f19818403018152828252805160209182012090830152810183905260600161085b565b6000816001600160a01b031663bd02d0f5604051602001610bbb906020808252601690820152754d41585f4155544f5f43414e43454c5f4f524445525360501b604082015260600190565b604051602081830303815290604052805190602001206040518263ffffffff1660e01b8152600401610bef91815260200190565b602060405180830381865afa158015610c0c573d6000803e3d6000fd5b505050506040513d601f19601f82011682018060405250810190610c309190611c77565b92915050565b604080516101208101909152606060e0820181815261010083019190915281908152602001610c78604051806040016040528060608152602001606081525090565b8152602001610c9a604051806040016040528060608152602001606081525090565b8152602001610cbc604051806040016040528060608152602001606081525090565b8152602001610cde604051806040016040528060608152602001606081525090565b8152602001610d00604051806040016040528060608152602001606081525090565b8152602001610d22604051806040016040528060608152602001606081525090565b905290565b6001600160a01b0381168114610d3c57600080fd5b50565b600080600060608486031215610d5457600080fd5b8335610d5f81610d27565b95602085013595506040909401359392505050565b60008060208385031215610d8757600080fd5b82356001600160401b03811115610d9d57600080fd5b8301601f81018513610dae57600080fd5b80356001600160401b03811115610dc457600080fd5b8560208260051b8401011115610dd957600080fd5b6020919091019590945092505050565b60005b83811015610e04578181015183820152602001610dec565b50506000910152565b60008151808452610e25816020860160208601610de9565b601f01601f19169290920160200192915050565b6000602082016020835280845180835260408501915060408160051b86010192506020860160005b82811015610e9257603f19878603018452610e7d858351610e0d565b94506020938401939190910190600101610e61565b50929695505050505050565b60008060408385031215610eb157600080fd5b8235610ebc81610d27565b946020939093013593505050565b6020808252600d908201526c21a7a72324a3afa5a2a2a822a960991b604082015260600190565b634e487b7160e01b600052603260045260246000fd5b634e487b7160e01b600052604160045260246000fd5b6000808335601e19843603018112610f3457600080fd5b8301803591506001600160401b03821115610f4e57600080fd5b602001915036819003821315610f6357600080fd5b9250929050565b8183823760009101908152919050565b6001600160a01b03929092168252602082015260400190565b80518015158114610fa357600080fd5b919050565b600060208284031215610fba57600080fd5b610fc382610f93565b9392505050565b6001600160a01b0383168152604060208201819052600090610fee90830184610e0d565b949350505050565b60405161018081016001600160401b038111828210171561101957611019610f07565b60405290565b604051608081016001600160401b038111828210171561101957611019610f07565b60405161010081016001600160401b038111828210171561101957611019610f07565b604051601f8201601f191681016001600160401b038111828210171561108c5761108c610f07565b604052919050565b60006001600160401b038211156110ad576110ad610f07565b5060051b60200190565b600082601f8301126110c857600080fd5b81516110db6110d682611094565b611064565b8082825260208201915060208360051b8601019250858311156110fd57600080fd5b602085015b8381101561111a578051835260209283019201611102565b5095945050505050565b60006020828403121561113657600080fd5b81516001600160401b0381111561114c57600080fd5b610fee848285016110b7565b8051610fa381610d27565b600082601f83011261117457600080fd5b81516111826110d682611094565b8082825260208201915060208360051b8601019250858311156111a457600080fd5b602085015b8381101561111a5780516111bc81610d27565b8352602092830192016111a9565b805160098110610fa357600080fd5b805160038110610fa357600080fd5b600061018082840312156111fb57600080fd5b611203610ff6565b905061120e826111ca565b815261121c602083016111d9565b602082015260408281015190820152606080830151908201526080808301519082015260a0808301519082015260c0808301519082015260e080830151908201526101008083015190820152610120808301519082015261014080830151908201526101609182015191810191909152919050565b6000608082840312156112a357600080fd5b6112ab61101f565b90506112b682610f93565b81526112c460208301610f93565b60208201526112d560408301610f93565b60408201526112e660608301610f93565b606082015292915050565b60006020828403121561130357600080fd5b81516001600160401b0381111561131957600080fd5b8201610240818503121561132c57600080fd5b61133461101f565b81516001600160401b0381111561134a57600080fd5b8201610100818703121561135d57600080fd5b611365611041565b61136e82611158565b815261137c60208301611158565b602082015261138d60408301611158565b604082015261139e60608301611158565b60608201526113af60808301611158565b60808201526113c060a08301611158565b60a08201526113d160c08301611158565b60c082015260e08201516001600160401b038111156113ef57600080fd5b6113fb88828501611163565b60e08301525082525061141185602084016111e8565b6020820152611424856101a08401611291565b60408201526102208201516001600160401b0381111561144357600080fd5b61144f868285016110b7565b606083015250949350505050565b600082825180855260208501945060208160051b8301016020850160005b8381101561150457601f1985840301885281518051604085526114a16040860182610e0d565b6020928301518682038785015280518083529084019360009350909101905b808310156114eb5783516001600160a01b0316825260209384019360019390930192909101906114c0565b5060209a8b019a9095509390930192505060010161147b565b50909695505050505050565b60006040830182516040855281815180845260608701915060608160051b880101935060208301925060005b8181101561158a57605f1988860301835283518051604087526115626040880182610e0d565b6020928301516001600160a01b0316978301979097525093840193929092019160010161153c565b50505050602083015184820360208601526104f7828261145d565b600082825180855260208501945060208160051b8301016020850160005b8381101561150457601f1985840301885281518051604085526115e96040860182610e0d565b6020928301518682038785015280518083529084019360009350909101905b8083101561162b5783518252602082019150602084019350600183019250611608565b5060209a8b019a909550939093019250506001016115c3565b60006040830182516040855281815180845260608701915060608160051b880101935060208301925060005b818110156116b557605f1988860301835283518051604087526116966040880182610e0d565b6020928301519783019790975250938401939290920191600101611670565b50505050602083015184820360208601526104f782826115a5565b60006040830182516040855281815180845260608701915060608160051b880101935060208301925060005b818110156116b557605f1988860301835283518051604087526117226040880182610e0d565b60209283015197830197909752509384019392909201916001016116fc565b600082825180855260208501945060208160051b8301016020850160005b8381101561150457601f1985840301885281518051604085526117856040860182610e0d565b6020928301518682038785015280518083529084019360009350909101905b808310156117c9578351151582526020820191506020840193506001830192506117a4565b5060209a8b019a9095509390930192505060010161175f565b60006040830182516040855281815180845260608701915060608160051b880101935060208301925060005b8181101561185557605f1988860301835283518051604087526118346040880182610e0d565b6020928301511515978301979097525093840193929092019160010161180e565b50505050602083015184820360208601526104f78282611741565b60006040830182516040855281815180845260608701915060608160051b880101935060208301925060005b818110156116b557605f1988860301835283518051604087526118c26040880182610e0d565b602092830151978301979097525093840193929092019160010161189c565b600082825180855260208501945060208160051b8301016020850160005b8381101561150457601f1985840301885281518051604085526119256040860182610e0d565b6020928301518682038785015280518083529084019391925081830191600582901b84010160005b8281101561197e57601f19858303018452611969828751610e0d565b6020968701969490940193915060010161194d565b5080975050505050506020820191506020880197506001810190506118ff565b60006040830182516040855281815180845260608701915060608160051b880101935060208301925060005b81811015611a2257605f1988860301835283518051604087526119f06040880182610e0d565b9050602082015191508681036020880152611a0b8183610e0d565b9650505060209384019392909201916001016119ca565b50505050602083015184820360208601526104f782826118e1565b60006040830182516040855281815180845260608701915060608160051b880101935060208301925060005b81811015611a2257605f198886030183528351805160408752611a8f6040880182610e0d565b9050602082015191508681036020880152611aaa8183610e0d565b965050506020938401939290920191600101611a69565b60608152601d60608201527f436f6e66696753796e634175746f43616e63656c4f726465724c697374000000608082015282602082015260a060408201526000825160e060a0840152611b18610180840182611510565b90506020840151609f198483030160c0850152611b358282611644565b9150506040840151609f198483030160e0850152611b5382826116d0565b9150506060840151609f1984830301610100850152611b7282826117e2565b9150506080840151609f1984830301610120850152611b918282611870565b91505060a0840151609f1984830301610140850152611bb0828261199e565b91505060c0840151609f1984830301610160850152611bcf8282611a3d565b9695505050505050565b602081526000610fc36020830184610e0d565b600060208284031215611bfe57600080fd5b81516001600160401b03811115611c1457600080fd5b8201601f81018413611c2557600080fd5b80516001600160401b03811115611c3e57611c3e610f07565b611c51601f8201601f1916602001611064565b818152856020838501011115611c6657600080fd5b6104f7826020830160208601610de9565b600060208284031215611c8957600080fd5b505191905056fea2646970667358221220e91843b04fd95843470478382609c793b9c763b2b446c554224baa0666101a8664736f6c634300081d0033",
  "deployedBytecode": "0x608060405234801561001057600080fd5b50600436106100625760003560e01c80634a4a7b0414610067578063660d0d67146100ab57806376422d57146100d25780639ff78c30146100e7578063ac9650d81461010e578063e5e1bfb01461012e575b600080fd5b61008e7f000000000000000000000000000000000000000000000000000000000000000081565b6040516001600160a01b0390911681526020015b60405180910390f35b61008e7f000000000000000000000000000000000000000000000000000000000000000081565b6100e56100e0366004610d3f565b610141565b005b61008e7f000000000000000000000000000000000000000000000000000000000000000081565b61012161011c366004610d74565b610214565b6040516100a29190610e39565b6100e561013c366004610e9e565b610327565b61019460405160200161015390610eca565b604051602081830303815290604052805190602001206040518060400160405280600d81526020016c21a7a72324a3afa5a2a2a822a960991b815250610359565b61019c610412565b60006101ca7f000000000000000000000000000000000000000000000000000000000000000085858561046b565b905060005b8151811015610203576101fb858383815181106101ee576101ee610ef1565b6020026020010151610500565b6001016101cf565b505061020f6001600055565b505050565b6060816001600160401b0381111561022e5761022e610f07565b60405190808252806020026020018201604052801561026157816020015b606081526020019060019003908161024c5790505b50905060005b82811015610320576000803086868581811061028557610285610ef1565b90506020028101906102979190610f1d565b6040516102a5929190610f6a565b600060405180830381855af49150503d80600081146102e0576040519150601f19603f3d011682016040523d82523d6000602084013e6102e5565b606091505b5091509150816102f8576102f8816107b9565b8084848151811061030b5761030b610ef1565b60209081029190910101525050600101610267565b5092915050565b61033960405160200161015390610eca565b610341610412565b61034b8282610500565b6103556001600055565b5050565b60405163ac4ab3fb60e01b81526001600160a01b037f0000000000000000000000000000000000000000000000000000000000000000169063ac4ab3fb906103a79033908690600401610f7a565b602060405180830381865afa1580156103c4573d6000803e3d6000fd5b505050506040513d601f19601f820116820180604052508101906103e89190610fa8565b61035557338160405163a35b150b60e01b8152600401610409929190610fca565b60405180910390fd5b6002600054036104645760405162461bcd60e51b815260206004820152601f60248201527f5265656e7472616e637947756172643a207265656e7472616e742063616c6c006044820152606401610409565b6002600055565b6060846001600160a01b031663f069052a610485866107f2565b6040516001600160e01b031960e084901b16815260048101919091526024810186905260448101859052606401600060405180830381865afa1580156104cf573d6000803e3d6000fd5b505050506040513d6000823e601f3d908101601f191682016040526104f79190810190611124565b95945050505050565b600061052c7f000000000000000000000000000000000000000000000000000000000000000083610878565b905060005b81518110156107b357600082828151811061054e5761054e610ef1565b60200260200101519050600073__$9dcb75ef0bb6c4288f2ccffe7dc492c4eb$__63fdfc26f37f0000000000000000000000000000000000000000000000000000000000000000846040518363ffffffff1660e01b81526004016105b3929190610f7a565b600060405180830381865af41580156105d0573d6000803e3d6000fd5b505050506040513d6000823e601f3d908101601f191682016040526105f891908101906112f1565b9050600061060582515190565b6001600160a01b0316148061063157506020810151604001511580156106315750602081015160600151155b156107a9576106617f000000000000000000000000000000000000000000000000000000000000000086846108e8565b610669610c36565b805161067690600161095d565b6040805180820190915260078152661858d8dbdd5b9d60ca1b602082015281516106a3916000908a6109c2565b60808101516106b390600261095d565b60408051808201909152600b81526a706f736974696f6e4b657960a81b602082015260808201516106e79160009089610a1f565b6040805180820190915260088152676f726465724b657960c01b602082015260808201516107189160019086610a1f565b7f00000000000000000000000000000000000000000000000000000000000000006001600160a01b03166324de01e4610757896001600160a01b031690565b836040518363ffffffff1660e01b8152600401610775929190611ac1565b600060405180830381600087803b15801561078f57600080fd5b505af11580156107a3573d6000803e3d6000fd5b50505050505b5050600101610531565b50505050565b6000806107c583610a72565b9150915080156107e9578160405162461bcd60e51b81526004016104099190611bd9565b61020f83610b02565b600060405160200161082d906020808252601590820152741050d0d3d5539517d413d4d2551253d397d31254d5605a1b604082015260600190565b60408051601f198184030181528282528051602091820120908301526001600160a01b038416908201526060015b604051602081830303815290604052805190602001209050919050565b6060600061088583610b0b565b9050600061089285610b70565b604051637834829560e11b81526004810184905260006024820152604481018290529091506001600160a01b0386169063f069052a90606401600060405180830381865afa1580156104cf573d6000803e3d6000fd5b60006108f383610b0b565b60405163264870f360e21b815260048101829052602481018490529091506001600160a01b03851690639921c3cc90604401600060405180830381600087803b15801561093f57600080fd5b505af1158015610953573d6000803e3d6000fd5b5050505050505050565b806001600160401b0381111561097557610975610f07565b6040519080825280602002602001820160405280156109bb57816020015b6040805180820190915260608152600060208201528152602001906001900390816109935790505b5090915250565b81846000015184815181106109d9576109d9610ef1565b60200260200101516000018190525080846000015184815181106109ff576109ff610ef1565b6020908102919091018101516001600160a01b0390921691015250505050565b8184600001518481518110610a3657610a36610ef1565b6020026020010151600001819052508084600001518481518110610a5c57610a5c610ef1565b6020026020010151602001818152505050505050565b60606000604483511015610a99575050604080516020810190915260008082529092909150565b6000610aa6846020015190565b90506307b9e43360e51b6001600160e01b0319821601610ae55760048401935083806020019051810190610ada9190611bec565b946001945092505050565b600060405180602001604052806000815250909250925050915091565b80518060208301fd5b6000604051602001610b479060208082526016908201527510555513d7d0d05390d15317d3d491115497d31254d560521b604082015260600190565b60408051601f19818403018152828252805160209182012090830152810183905260600161085b565b6000816001600160a01b031663bd02d0f5604051602001610bbb906020808252601690820152754d41585f4155544f5f43414e43454c5f4f524445525360501b604082015260600190565b604051602081830303815290604052805190602001206040518263ffffffff1660e01b8152600401610bef91815260200190565b602060405180830381865afa158015610c0c573d6000803e3d6000fd5b505050506040513d601f19601f82011682018060405250810190610c309190611c77565b92915050565b604080516101208101909152606060e0820181815261010083019190915281908152602001610c78604051806040016040528060608152602001606081525090565b8152602001610c9a604051806040016040528060608152602001606081525090565b8152602001610cbc604051806040016040528060608152602001606081525090565b8152602001610cde604051806040016040528060608152602001606081525090565b8152602001610d00604051806040016040528060608152602001606081525090565b8152602001610d22604051806040016040528060608152602001606081525090565b905290565b6001600160a01b0381168114610d3c57600080fd5b50565b600080600060608486031215610d5457600080fd5b8335610d5f81610d27565b95602085013595506040909401359392505050565b60008060208385031215610d8757600080fd5b82356001600160401b03811115610d9d57600080fd5b8301601f81018513610dae57600080fd5b80356001600160401b03811115610dc457600080fd5b8560208260051b8401011115610dd957600080fd5b6020919091019590945092505050565b60005b83811015610e04578181015183820152602001610dec565b50506000910152565b60008151808452610e25816020860160208601610de9565b601f01601f19169290920160200192915050565b6000602082016020835280845180835260408501915060408160051b86010192506020860160005b82811015610e9257603f19878603018452610e7d858351610e0d565b94506020938401939190910190600101610e61565b50929695505050505050565b60008060408385031215610eb157600080fd5b8235610ebc81610d27565b946020939093013593505050565b6020808252600d908201526c21a7a72324a3afa5a2a2a822a960991b604082015260600190565b634e487b7160e01b600052603260045260246000fd5b634e487b7160e01b600052604160045260246000fd5b6000808335601e19843603018112610f3457600080fd5b8301803591506001600160401b03821115610f4e57600080fd5b602001915036819003821315610f6357600080fd5b9250929050565b8183823760009101908152919050565b6001600160a01b03929092168252602082015260400190565b80518015158114610fa357600080fd5b919050565b600060208284031215610fba57600080fd5b610fc382610f93565b9392505050565b6001600160a01b0383168152604060208201819052600090610fee90830184610e0d565b949350505050565b60405161018081016001600160401b038111828210171561101957611019610f07565b60405290565b604051608081016001600160401b038111828210171561101957611019610f07565b60405161010081016001600160401b038111828210171561101957611019610f07565b604051601f8201601f191681016001600160401b038111828210171561108c5761108c610f07565b604052919050565b60006001600160401b038211156110ad576110ad610f07565b5060051b60200190565b600082601f8301126110c857600080fd5b81516110db6110d682611094565b611064565b8082825260208201915060208360051b8601019250858311156110fd57600080fd5b602085015b8381101561111a578051835260209283019201611102565b5095945050505050565b60006020828403121561113657600080fd5b81516001600160401b0381111561114c57600080fd5b610fee848285016110b7565b8051610fa381610d27565b600082601f83011261117457600080fd5b81516111826110d682611094565b8082825260208201915060208360051b8601019250858311156111a457600080fd5b602085015b8381101561111a5780516111bc81610d27565b8352602092830192016111a9565b805160098110610fa357600080fd5b805160038110610fa357600080fd5b600061018082840312156111fb57600080fd5b611203610ff6565b905061120e826111ca565b815261121c602083016111d9565b602082015260408281015190820152606080830151908201526080808301519082015260a0808301519082015260c0808301519082015260e080830151908201526101008083015190820152610120808301519082015261014080830151908201526101609182015191810191909152919050565b6000608082840312156112a357600080fd5b6112ab61101f565b90506112b682610f93565b81526112c460208301610f93565b60208201526112d560408301610f93565b60408201526112e660608301610f93565b606082015292915050565b60006020828403121561130357600080fd5b81516001600160401b0381111561131957600080fd5b8201610240818503121561132c57600080fd5b61133461101f565b81516001600160401b0381111561134a57600080fd5b8201610100818703121561135d57600080fd5b611365611041565b61136e82611158565b815261137c60208301611158565b602082015261138d60408301611158565b604082015261139e60608301611158565b60608201526113af60808301611158565b60808201526113c060a08301611158565b60a08201526113d160c08301611158565b60c082015260e08201516001600160401b038111156113ef57600080fd5b6113fb88828501611163565b60e08301525082525061141185602084016111e8565b6020820152611424856101a08401611291565b60408201526102208201516001600160401b0381111561144357600080fd5b61144f868285016110b7565b606083015250949350505050565b600082825180855260208501945060208160051b8301016020850160005b8381101561150457601f1985840301885281518051604085526114a16040860182610e0d565b6020928301518682038785015280518083529084019360009350909101905b808310156114eb5783516001600160a01b0316825260209384019360019390930192909101906114c0565b5060209a8b019a9095509390930192505060010161147b565b50909695505050505050565b60006040830182516040855281815180845260608701915060608160051b880101935060208301925060005b8181101561158a57605f1988860301835283518051604087526115626040880182610e0d565b6020928301516001600160a01b0316978301979097525093840193929092019160010161153c565b50505050602083015184820360208601526104f7828261145d565b600082825180855260208501945060208160051b8301016020850160005b8381101561150457601f1985840301885281518051604085526115e96040860182610e0d565b6020928301518682038785015280518083529084019360009350909101905b8083101561162b5783518252602082019150602084019350600183019250611608565b5060209a8b019a909550939093019250506001016115c3565b60006040830182516040855281815180845260608701915060608160051b880101935060208301925060005b818110156116b557605f1988860301835283518051604087526116966040880182610e0d565b6020928301519783019790975250938401939290920191600101611670565b50505050602083015184820360208601526104f782826115a5565b60006040830182516040855281815180845260608701915060608160051b880101935060208301925060005b818110156116b557605f1988860301835283518051604087526117226040880182610e0d565b60209283015197830197909752509384019392909201916001016116fc565b600082825180855260208501945060208160051b8301016020850160005b8381101561150457601f1985840301885281518051604085526117856040860182610e0d565b6020928301518682038785015280518083529084019360009350909101905b808310156117c9578351151582526020820191506020840193506001830192506117a4565b5060209a8b019a9095509390930192505060010161175f565b60006040830182516040855281815180845260608701915060608160051b880101935060208301925060005b8181101561185557605f1988860301835283518051604087526118346040880182610e0d565b6020928301511515978301979097525093840193929092019160010161180e565b50505050602083015184820360208601526104f78282611741565b60006040830182516040855281815180845260608701915060608160051b880101935060208301925060005b818110156116b557605f1988860301835283518051604087526118c26040880182610e0d565b602092830151978301979097525093840193929092019160010161189c565b600082825180855260208501945060208160051b8301016020850160005b8381101561150457601f1985840301885281518051604085526119256040860182610e0d565b6020928301518682038785015280518083529084019391925081830191600582901b84010160005b8281101561197e57601f19858303018452611969828751610e0d565b6020968701969490940193915060010161194d565b5080975050505050506020820191506020880197506001810190506118ff565b60006040830182516040855281815180845260608701915060608160051b880101935060208301925060005b81811015611a2257605f1988860301835283518051604087526119f06040880182610e0d565b9050602082015191508681036020880152611a0b8183610e0d565b9650505060209384019392909201916001016119ca565b50505050602083015184820360208601526104f782826118e1565b60006040830182516040855281815180845260608701915060608160051b880101935060208301925060005b81811015611a2257605f198886030183528351805160408752611a8f6040880182610e0d565b9050602082015191508681036020880152611aaa8183610e0d565b965050506020938401939290920191600101611a69565b60608152601d60608201527f436f6e66696753796e634175746f43616e63656c4f726465724c697374000000608082015282602082015260a060408201526000825160e060a0840152611b18610180840182611510565b90506020840151609f198483030160c0850152611b358282611644565b9150506040840151609f198483030160e0850152611b5382826116d0565b9150506060840151609f1984830301610100850152611b7282826117e2565b9150506080840151609f1984830301610120850152611b918282611870565b91505060a0840151609f1984830301610140850152611bb0828261199e565b91505060c0840151609f1984830301610160850152611bcf8282611a3d565b9695505050505050565b602081526000610fc36020830184610e0d565b600060208284031215611bfe57600080fd5b81516001600160401b03811115611c1457600080fd5b8201601f81018413611c2557600080fd5b80516001600160401b03811115611c3e57611c3e610f07565b611c51601f8201601f1916602001611064565b818152856020838501011115611c6657600080fd5b6104f7826020830160208601610de9565b600060208284031215611c8957600080fd5b505191905056fea2646970667358221220e91843b04fd95843470478382609c793b9c763b2b446c554224baa0666101a8664736f6c634300081d0033",
  "libraries": {
    "OrderStoreUtils": "0xFDa67670C08149e76F6C038446F3674bf137aBd8"
  },
  "devdoc": {
    "kind": "dev",
    "methods": {
      "multicall(bytes[])": {
        "details": "Receives and executes a batch of function calls on this contract."
      }
    },
    "version": 1
  },
  "userdoc": {
    "kind": "user",
    "methods": {},
    "version": 1
  },
  "storageLayout": {
    "storage": [
      {
        "astId": 8244,
        "contract": "contracts/config/AutoCancelSyncer.sol:AutoCancelSyncer",
        "label": "_status",
        "offset": 0,
        "slot": "0",
        "type": "t_uint256"
      }
    ],
    "types": {
      "t_uint256": {
        "encoding": "inplace",
        "label": "uint256",
        "numberOfBytes": "32"
      }
    }
  }
}