{
  "address": "0xCcBd6f42249ac768e3b2b96d31F5be3a4B51Bd0B",
  "abi": [
    {
      "inputs": [
        {
          "internalType": "contract RoleStore",
          "name": "_roleStore",
          "type": "address"
        }
      ],
      "stateMutability": "nonpayable",
      "type": "constructor"
    },
    {
      "inputs": [
        {
          "internalType": "address",
          "name": "msgSender",
          "type": "address"
        },
        {
          "internalType": "string",
          "name": "role",
          "type": "string"
        }
      ],
      "name": "Unauthorized",
      "type": "error"
    },
    {
      "inputs": [
        {
          "internalType": "bytes32",
          "name": "setKey",
          "type": "bytes32"
        },
        {
          "internalType": "address",
          "name": "value",
          "type": "address"
        }
      ],
      "name": "addAddress",
      "outputs": [],
      "stateMutability": "nonpayable",
      "type": "function"
    },
    {
      "inputs": [
        {
          "internalType": "bytes32",
          "name": "setKey",
          "type": "bytes32"
        },
        {
          "internalType": "bytes32",
          "name": "value",
          "type": "bytes32"
        }
      ],
      "name": "addBytes32",
      "outputs": [],
      "stateMutability": "nonpayable",
      "type": "function"
    },
    {
      "inputs": [
        {
          "internalType": "bytes32",
          "name": "setKey",
          "type": "bytes32"
        },
        {
          "internalType": "uint256",
          "name": "value",
          "type": "uint256"
        }
      ],
      "name": "addUint",
      "outputs": [],
      "stateMutability": "nonpayable",
      "type": "function"
    },
    {
      "inputs": [
        {
          "internalType": "bytes32",
          "name": "",
          "type": "bytes32"
        },
        {
          "internalType": "uint256",
          "name": "",
          "type": "uint256"
        }
      ],
      "name": "addressArrayValues",
      "outputs": [
        {
          "internalType": "address",
          "name": "",
          "type": "address"
        }
      ],
      "stateMutability": "view",
      "type": "function"
    },
    {
      "inputs": [
        {
          "internalType": "bytes32",
          "name": "",
          "type": "bytes32"
        }
      ],
      "name": "addressValues",
      "outputs": [
        {
          "internalType": "address",
          "name": "",
          "type": "address"
        }
      ],
      "stateMutability": "view",
      "type": "function"
    },
    {
      "inputs": [
        {
          "internalType": "bytes32",
          "name": "key",
          "type": "bytes32"
        },
        {
          "internalType": "int256",
          "name": "value",
          "type": "int256"
        }
      ],
      "name": "applyBoundedDeltaToUint",
      "outputs": [
        {
          "internalType": "uint256",
          "name": "",
          "type": "uint256"
        }
      ],
      "stateMutability": "nonpayable",
      "type": "function"
    },
    {
      "inputs": [
        {
          "internalType": "bytes32",
          "name": "key",
          "type": "bytes32"
        },
        {
          "internalType": "int256",
          "name": "value",
          "type": "int256"
        }
      ],
      "name": "applyDeltaToInt",
      "outputs": [
        {
          "internalType": "int256",
          "name": "",
          "type": "int256"
        }
      ],
      "stateMutability": "nonpayable",
      "type": "function"
    },
    {
      "inputs": [
        {
          "internalType": "bytes32",
          "name": "key",
          "type": "bytes32"
        },
        {
          "internalType": "int256",
          "name": "value",
          "type": "int256"
        },
        {
          "internalType": "string",
          "name": "errorMessage",
          "type": "string"
        }
      ],
      "name": "applyDeltaToUint",
      "outputs": [
        {
          "internalType": "uint256",
          "name": "",
          "type": "uint256"
        }
      ],
      "stateMutability": "nonpayable",
      "type": "function"
    },
    {
      "inputs": [
        {
          "internalType": "bytes32",
          "name": "",
          "type": "bytes32"
        },
        {
          "internalType": "uint256",
          "name": "",
          "type": "uint256"
        }
      ],
      "name": "boolArrayValues",
      "outputs": [
        {
          "internalType": "bool",
          "name": "",
          "type": "bool"
        }
      ],
      "stateMutability": "view",
      "type": "function"
    },
    {
      "inputs": [
        {
          "internalType": "bytes32",
          "name": "",
          "type": "bytes32"
        }
      ],
      "name": "boolValues",
      "outputs": [
        {
          "internalType": "bool",
          "name": "",
          "type": "bool"
        }
      ],
      "stateMutability": "view",
      "type": "function"
    },
    {
      "inputs": [
        {
          "internalType": "bytes32",
          "name": "",
          "type": "bytes32"
        },
        {
          "internalType": "uint256",
          "name": "",
          "type": "uint256"
        }
      ],
      "name": "bytes32ArrayValues",
      "outputs": [
        {
          "internalType": "bytes32",
          "name": "",
          "type": "bytes32"
        }
      ],
      "stateMutability": "view",
      "type": "function"
    },
    {
      "inputs": [
        {
          "internalType": "bytes32",
          "name": "",
          "type": "bytes32"
        }
      ],
      "name": "bytes32Values",
      "outputs": [
        {
          "internalType": "bytes32",
          "name": "",
          "type": "bytes32"
        }
      ],
      "stateMutability": "view",
      "type": "function"
    },
    {
      "inputs": [
        {
          "internalType": "bytes32",
          "name": "setKey",
          "type": "bytes32"
        },
        {
          "internalType": "address",
          "name": "value",
          "type": "address"
        }
      ],
      "name": "containsAddress",
      "outputs": [
        {
          "internalType": "bool",
          "name": "",
          "type": "bool"
        }
      ],
      "stateMutability": "view",
      "type": "function"
    },
    {
      "inputs": [
        {
          "internalType": "bytes32",
          "name": "setKey",
          "type": "bytes32"
        },
        {
          "internalType": "bytes32",
          "name": "value",
          "type": "bytes32"
        }
      ],
      "name": "containsBytes32",
      "outputs": [
        {
          "internalType": "bool",
          "name": "",
          "type": "bool"
        }
      ],
      "stateMutability": "view",
      "type": "function"
    },
    {
      "inputs": [
        {
          "internalType": "bytes32",
          "name": "setKey",
          "type": "bytes32"
        },
        {
          "internalType": "uint256",
          "name": "value",
          "type": "uint256"
        }
      ],
      "name": "containsUint",
      "outputs": [
        {
          "internalType": "bool",
          "name": "",
          "type": "bool"
        }
      ],
      "stateMutability": "view",
      "type": "function"
    },
    {
      "inputs": [
        {
          "internalType": "bytes32",
          "name": "key",
          "type": "bytes32"
        },
        {
          "internalType": "int256",
          "name": "value",
          "type": "int256"
        }
      ],
      "name": "decrementInt",
      "outputs": [
        {
          "internalType": "int256",
          "name": "",
          "type": "int256"
        }
      ],
      "stateMutability": "nonpayable",
      "type": "function"
    },
    {
      "inputs": [
        {
          "internalType": "bytes32",
          "name": "key",
          "type": "bytes32"
        },
        {
          "internalType": "uint256",
          "name": "value",
          "type": "uint256"
        }
      ],
      "name": "decrementUint",
      "outputs": [
        {
          "internalType": "uint256",
          "name": "",
          "type": "uint256"
        }
      ],
      "stateMutability": "nonpayable",
      "type": "function"
    },
    {
      "inputs": [
        {
          "internalType": "bytes32",
          "name": "key",
          "type": "bytes32"
        }
      ],
      "name": "getAddress",
      "outputs": [
        {
          "internalType": "address",
          "name": "",
          "type": "address"
        }
      ],
      "stateMutability": "view",
      "type": "function"
    },
    {
      "inputs": [
        {
          "internalType": "bytes32",
          "name": "key",
          "type": "bytes32"
        }
      ],
      "name": "getAddressArray",
      "outputs": [
        {
          "internalType": "address[]",
          "name": "",
          "type": "address[]"
        }
      ],
      "stateMutability": "view",
      "type": "function"
    },
    {
      "inputs": [
        {
          "internalType": "bytes32",
          "name": "setKey",
          "type": "bytes32"
        }
      ],
      "name": "getAddressCount",
      "outputs": [
        {
          "internalType": "uint256",
          "name": "",
          "type": "uint256"
        }
      ],
      "stateMutability": "view",
      "type": "function"
    },
    {
      "inputs": [
        {
          "internalType": "bytes32",
          "name": "setKey",
          "type": "bytes32"
        },
        {
          "internalType": "uint256",
          "name": "start",
          "type": "uint256"
        },
        {
          "internalType": "uint256",
          "name": "end",
          "type": "uint256"
        }
      ],
      "name": "getAddressValuesAt",
      "outputs": [
        {
          "internalType": "address[]",
          "name": "",
          "type": "address[]"
        }
      ],
      "stateMutability": "view",
      "type": "function"
    },
    {
      "inputs": [
        {
          "internalType": "bytes32",
          "name": "key",
          "type": "bytes32"
        }
      ],
      "name": "getBool",
      "outputs": [
        {
          "internalType": "bool",
          "name": "",
          "type": "bool"
        }
      ],
      "stateMutability": "view",
      "type": "function"
    },
    {
      "inputs": [
        {
          "internalType": "bytes32",
          "name": "key",
          "type": "bytes32"
        }
      ],
      "name": "getBoolArray",
      "outputs": [
        {
          "internalType": "bool[]",
          "name": "",
          "type": "bool[]"
        }
      ],
      "stateMutability": "view",
      "type": "function"
    },
    {
      "inputs": [
        {
          "internalType": "bytes32",
          "name": "key",
          "type": "bytes32"
        }
      ],
      "name": "getBytes32",
      "outputs": [
        {
          "internalType": "bytes32",
          "name": "",
          "type": "bytes32"
        }
      ],
      "stateMutability": "view",
      "type": "function"
    },
    {
      "inputs": [
        {
          "internalType": "bytes32",
          "name": "key",
          "type": "bytes32"
        }
      ],
      "name": "getBytes32Array",
      "outputs": [
        {
          "internalType": "bytes32[]",
          "name": "",
          "type": "bytes32[]"
        }
      ],
      "stateMutability": "view",
      "type": "function"
    },
    {
      "inputs": [
        {
          "internalType": "bytes32",
          "name": "setKey",
          "type": "bytes32"
        }
      ],
      "name": "getBytes32Count",
      "outputs": [
        {
          "internalType": "uint256",
          "name": "",
          "type": "uint256"
        }
      ],
      "stateMutability": "view",
      "type": "function"
    },
    {
      "inputs": [
        {
          "internalType": "bytes32",
          "name": "setKey",
          "type": "bytes32"
        },
        {
          "internalType": "uint256",
          "name": "start",
          "type": "uint256"
        },
        {
          "internalType": "uint256",
          "name": "end",
          "type": "uint256"
        }
      ],
      "name": "getBytes32ValuesAt",
      "outputs": [
        {
          "internalType": "bytes32[]",
          "name": "",
          "type": "bytes32[]"
        }
      ],
      "stateMutability": "view",
      "type": "function"
    },
    {
      "inputs": [
        {
          "internalType": "bytes32",
          "name": "key",
          "type": "bytes32"
        }
      ],
      "name": "getInt",
      "outputs": [
        {
          "internalType": "int256",
          "name": "",
          "type": "int256"
        }
      ],
      "stateMutability": "view",
      "type": "function"
    },
    {
      "inputs": [
        {
          "internalType": "bytes32",
          "name": "key",
          "type": "bytes32"
        }
      ],
      "name": "getIntArray",
      "outputs": [
        {
          "internalType": "int256[]",
          "name": "",
          "type": "int256[]"
        }
      ],
      "stateMutability": "view",
      "type": "function"
    },
    {
      "inputs": [
        {
          "internalType": "bytes32",
          "name": "key",
          "type": "bytes32"
        }
      ],
      "name": "getString",
      "outputs": [
        {
          "internalType": "string",
          "name": "",
          "type": "string"
        }
      ],
      "stateMutability": "view",
      "type": "function"
    },
    {
      "inputs": [
        {
          "internalType": "bytes32",
          "name": "key",
          "type": "bytes32"
        }
      ],
      "name": "getStringArray",
      "outputs": [
        {
          "internalType": "string[]",
          "name": "",
          "type": "string[]"
        }
      ],
      "stateMutability": "view",
      "type": "function"
    },
    {
      "inputs": [
        {
          "internalType": "bytes32",
          "name": "key",
          "type": "bytes32"
        }
      ],
      "name": "getUint",
      "outputs": [
        {
          "internalType": "uint256",
          "name": "",
          "type": "uint256"
        }
      ],
      "stateMutability": "view",
      "type": "function"
    },
    {
      "inputs": [
        {
          "internalType": "bytes32",
          "name": "key",
          "type": "bytes32"
        }
      ],
      "name": "getUintArray",
      "outputs": [
        {
          "internalType": "uint256[]",
          "name": "",
          "type": "uint256[]"
        }
      ],
      "stateMutability": "view",
      "type": "function"
    },
    {
      "inputs": [
        {
          "internalType": "bytes32",
          "name": "setKey",
          "type": "bytes32"
        }
      ],
      "name": "getUintCount",
      "outputs": [
        {
          "internalType": "uint256",
          "name": "",
          "type": "uint256"
        }
      ],
      "stateMutability": "view",
      "type": "function"
    },
    {
      "inputs": [
        {
          "internalType": "bytes32",
          "name": "setKey",
          "type": "bytes32"
        },
        {
          "internalType": "uint256",
          "name": "start",
          "type": "uint256"
        },
        {
          "internalType": "uint256",
          "name": "end",
          "type": "uint256"
        }
      ],
      "name": "getUintValuesAt",
      "outputs": [
        {
          "internalType": "uint256[]",
          "name": "",
          "type": "uint256[]"
        }
      ],
      "stateMutability": "view",
      "type": "function"
    },
    {
      "inputs": [
        {
          "internalType": "bytes32",
          "name": "key",
          "type": "bytes32"
        },
        {
          "internalType": "int256",
          "name": "value",
          "type": "int256"
        }
      ],
      "name": "incrementInt",
      "outputs": [
        {
          "internalType": "int256",
          "name": "",
          "type": "int256"
        }
      ],
      "stateMutability": "nonpayable",
      "type": "function"
    },
    {
      "inputs": [
        {
          "internalType": "bytes32",
          "name": "key",
          "type": "bytes32"
        },
        {
          "internalType": "uint256",
          "name": "value",
          "type": "uint256"
        }
      ],
      "name": "incrementUint",
      "outputs": [
        {
          "internalType": "uint256",
          "name": "",
          "type": "uint256"
        }
      ],
      "stateMutability": "nonpayable",
      "type": "function"
    },
    {
      "inputs": [
        {
          "internalType": "bytes32",
          "name": "",
          "type": "bytes32"
        },
        {
          "internalType": "uint256",
          "name": "",
          "type": "uint256"
        }
      ],
      "name": "intArrayValues",
      "outputs": [
        {
          "internalType": "int256",
          "name": "",
          "type": "int256"
        }
      ],
      "stateMutability": "view",
      "type": "function"
    },
    {
      "inputs": [
        {
          "internalType": "bytes32",
          "name": "",
          "type": "bytes32"
        }
      ],
      "name": "intValues",
      "outputs": [
        {
          "internalType": "int256",
          "name": "",
          "type": "int256"
        }
      ],
      "stateMutability": "view",
      "type": "function"
    },
    {
      "inputs": [
        {
          "internalType": "bytes32",
          "name": "setKey",
          "type": "bytes32"
        },
        {
          "internalType": "address",
          "name": "value",
          "type": "address"
        }
      ],
      "name": "removeAddress",
      "outputs": [],
      "stateMutability": "nonpayable",
      "type": "function"
    },
    {
      "inputs": [
        {
          "internalType": "bytes32",
          "name": "key",
          "type": "bytes32"
        }
      ],
      "name": "removeAddress",
      "outputs": [],
      "stateMutability": "nonpayable",
      "type": "function"
    },
    {
      "inputs": [
        {
          "internalType": "bytes32",
          "name": "key",
          "type": "bytes32"
        }
      ],
      "name": "removeAddressArray",
      "outputs": [],
      "stateMutability": "nonpayable",
      "type": "function"
    },
    {
      "inputs": [
        {
          "internalType": "bytes32",
          "name": "key",
          "type": "bytes32"
        }
      ],
      "name": "removeBool",
      "outputs": [],
      "stateMutability": "nonpayable",
      "type": "function"
    },
    {
      "inputs": [
        {
          "internalType": "bytes32",
          "name": "key",
          "type": "bytes32"
        }
      ],
      "name": "removeBoolArray",
      "outputs": [],
      "stateMutability": "nonpayable",
      "type": "function"
    },
    {
      "inputs": [
        {
          "internalType": "bytes32",
          "name": "setKey",
          "type": "bytes32"
        },
        {
          "internalType": "bytes32",
          "name": "value",
          "type": "bytes32"
        }
      ],
      "name": "removeBytes32",
      "outputs": [],
      "stateMutability": "nonpayable",
      "type": "function"
    },
    {
      "inputs": [
        {
          "internalType": "bytes32",
          "name": "key",
          "type": "bytes32"
        }
      ],
      "name": "removeBytes32",
      "outputs": [],
      "stateMutability": "nonpayable",
      "type": "function"
    },
    {
      "inputs": [
        {
          "internalType": "bytes32",
          "name": "key",
          "type": "bytes32"
        }
      ],
      "name": "removeBytes32Array",
      "outputs": [],
      "stateMutability": "nonpayable",
      "type": "function"
    },
    {
      "inputs": [
        {
          "internalType": "bytes32",
          "name": "key",
          "type": "bytes32"
        }
      ],
      "name": "removeInt",
      "outputs": [],
      "stateMutability": "nonpayable",
      "type": "function"
    },
    {
      "inputs": [
        {
          "internalType": "bytes32",
          "name": "key",
          "type": "bytes32"
        }
      ],
      "name": "removeIntArray",
      "outputs": [],
      "stateMutability": "nonpayable",
      "type": "function"
    },
    {
      "inputs": [
        {
          "internalType": "bytes32",
          "name": "key",
          "type": "bytes32"
        }
      ],
      "name": "removeString",
      "outputs": [],
      "stateMutability": "nonpayable",
      "type": "function"
    },
    {
      "inputs": [
        {
          "internalType": "bytes32",
          "name": "key",
          "type": "bytes32"
        }
      ],
      "name": "removeStringArray",
      "outputs": [],
      "stateMutability": "nonpayable",
      "type": "function"
    },
    {
      "inputs": [
        {
          "internalType": "bytes32",
          "name": "key",
          "type": "bytes32"
        }
      ],
      "name": "removeUint",
      "outputs": [],
      "stateMutability": "nonpayable",
      "type": "function"
    },
    {
      "inputs": [
        {
          "internalType": "bytes32",
          "name": "setKey",
          "type": "bytes32"
        },
        {
          "internalType": "uint256",
          "name": "value",
          "type": "uint256"
        }
      ],
      "name": "removeUint",
      "outputs": [],
      "stateMutability": "nonpayable",
      "type": "function"
    },
    {
      "inputs": [
        {
          "internalType": "bytes32",
          "name": "key",
          "type": "bytes32"
        }
      ],
      "name": "removeUintArray",
      "outputs": [],
      "stateMutability": "nonpayable",
      "type": "function"
    },
    {
      "inputs": [],
      "name": "roleStore",
      "outputs": [
        {
          "internalType": "contract RoleStore",
          "name": "",
          "type": "address"
        }
      ],
      "stateMutability": "view",
      "type": "function"
    },
    {
      "inputs": [
        {
          "internalType": "bytes32",
          "name": "key",
          "type": "bytes32"
        },
        {
          "internalType": "address",
          "name": "value",
          "type": "address"
        }
      ],
      "name": "setAddress",
      "outputs": [
        {
          "internalType": "address",
          "name": "",
          "type": "address"
        }
      ],
      "stateMutability": "nonpayable",
      "type": "function"
    },
    {
      "inputs": [
        {
          "internalType": "bytes32",
          "name": "key",
          "type": "bytes32"
        },
        {
          "internalType": "address[]",
          "name": "value",
          "type": "address[]"
        }
      ],
      "name": "setAddressArray",
      "outputs": [],
      "stateMutability": "nonpayable",
      "type": "function"
    },
    {
      "inputs": [
        {
          "internalType": "bytes32",
          "name": "key",
          "type": "bytes32"
        },
        {
          "internalType": "bool",
          "name": "value",
          "type": "bool"
        }
      ],
      "name": "setBool",
      "outputs": [
        {
          "internalType": "bool",
          "name": "",
          "type": "bool"
        }
      ],
      "stateMutability": "nonpayable",
      "type": "function"
    },
    {
      "inputs": [
        {
          "internalType": "bytes32",
          "name": "key",
          "type": "bytes32"
        },
        {
          "internalType": "bool[]",
          "name": "value",
          "type": "bool[]"
        }
      ],
      "name": "setBoolArray",
      "outputs": [],
      "stateMutability": "nonpayable",
      "type": "function"
    },
    {
      "inputs": [
        {
          "internalType": "bytes32",
          "name": "key",
          "type": "bytes32"
        },
        {
          "internalType": "bytes32",
          "name": "value",
          "type": "bytes32"
        }
      ],
      "name": "setBytes32",
      "outputs": [
        {
          "internalType": "bytes32",
          "name": "",
          "type": "bytes32"
        }
      ],
      "stateMutability": "nonpayable",
      "type": "function"
    },
    {
      "inputs": [
        {
          "internalType": "bytes32",
          "name": "key",
          "type": "bytes32"
        },
        {
          "internalType": "bytes32[]",
          "name": "value",
          "type": "bytes32[]"
        }
      ],
      "name": "setBytes32Array",
      "outputs": [],
      "stateMutability": "nonpayable",
      "type": "function"
    },
    {
      "inputs": [
        {
          "internalType": "bytes32",
          "name": "key",
          "type": "bytes32"
        },
        {
          "internalType": "int256",
          "name": "value",
          "type": "int256"
        }
      ],
      "name": "setInt",
      "outputs": [
        {
          "internalType": "int256",
          "name": "",
          "type": "int256"
        }
      ],
      "stateMutability": "nonpayable",
      "type": "function"
    },
    {
      "inputs": [
        {
          "internalType": "bytes32",
          "name": "key",
          "type": "bytes32"
        },
        {
          "internalType": "int256[]",
          "name": "value",
          "type": "int256[]"
        }
      ],
      "name": "setIntArray",
      "outputs": [],
      "stateMutability": "nonpayable",
      "type": "function"
    },
    {
      "inputs": [
        {
          "internalType": "bytes32",
          "name": "key",
          "type": "bytes32"
        },
        {
          "internalType": "string",
          "name": "value",
          "type": "string"
        }
      ],
      "name": "setString",
      "outputs": [
        {
          "internalType": "string",
          "name": "",
          "type": "string"
        }
      ],
      "stateMutability": "nonpayable",
      "type": "function"
    },
    {
      "inputs": [
        {
          "internalType": "bytes32",
          "name": "key",
          "type": "bytes32"
        },
        {
          "internalType": "string[]",
          "name": "value",
          "type": "string[]"
        }
      ],
      "name": "setStringArray",
      "outputs": [],
      "stateMutability": "nonpayable",
      "type": "function"
    },
    {
      "inputs": [
        {
          "internalType": "bytes32",
          "name": "key",
          "type": "bytes32"
        },
        {
          "internalType": "uint256",
          "name": "value",
          "type": "uint256"
        }
      ],
      "name": "setUint",
      "outputs": [
        {
          "internalType": "uint256",
          "name": "",
          "type": "uint256"
        }
      ],
      "stateMutability": "nonpayable",
      "type": "function"
    },
    {
      "inputs": [
        {
          "internalType": "bytes32",
          "name": "key",
          "type": "bytes32"
        },
        {
          "internalType": "uint256[]",
          "name": "value",
          "type": "uint256[]"
        }
      ],
      "name": "setUintArray",
      "outputs": [],
      "stateMutability": "nonpayable",
      "type": "function"
    },
    {
      "inputs": [
        {
          "internalType": "bytes32",
          "name": "",
          "type": "bytes32"
        },
        {
          "internalType": "uint256",
          "name": "",
          "type": "uint256"
        }
      ],
      "name": "stringArrayValues",
      "outputs": [
        {
          "internalType": "string",
          "name": "",
          "type": "string"
        }
      ],
      "stateMutability": "view",
      "type": "function"
    },
    {
      "inputs": [
        {
          "internalType": "bytes32",
          "name": "",
          "type": "bytes32"
        }
      ],
      "name": "stringValues",
      "outputs": [
        {
          "internalType": "string",
          "name": "",
          "type": "string"
        }
      ],
      "stateMutability": "view",
      "type": "function"
    },
    {
      "inputs": [
        {
          "internalType": "bytes32",
          "name": "",
          "type": "bytes32"
        },
        {
          "internalType": "uint256",
          "name": "",
          "type": "uint256"
        }
      ],
      "name": "uintArrayValues",
      "outputs": [
        {
          "internalType": "uint256",
          "name": "",
          "type": "uint256"
        }
      ],
      "stateMutability": "view",
      "type": "function"
    },
    {
      "inputs": [
        {
          "internalType": "bytes32",
          "name": "",
          "type": "bytes32"
        }
      ],
      "name": "uintValues",
      "outputs": [
        {
          "internalType": "uint256",
          "name": "",
          "type": "uint256"
        }
      ],
      "stateMutability": "view",
      "type": "function"
    }
  ],
  "transactionHash": "0x75747445e949db6bc332961387356871b2264934bbd4d7035b959ffafb61953f",
  "args": [
    "0x4C5Ef06b33b9EAB7581423A8D079225B78De0784"
  ],
  "numDeployments": 8,
  "solcInputHash": "bfcff1dcb3466d4762643d92a17aef63",
  "bytecode": "0x60a06040523480156200001157600080fd5b506040516200291a3803806200291a833981016040819052620000349162000046565b6001600160a01b031660805262000078565b6000602082840312156200005957600080fd5b81516001600160a01b03811681146200007157600080fd5b9392505050565b60805161287f6200009b6000396000818161052e0152611774015261287f6000f3fe608060405234801561001057600080fd5b506004361061033d5760003560e01c80639921c3cc116101bb5780639921c3cc146106ca5780639faf6fb6146106dd5780639fe7ac12146106f0578063a6ed563e14610703578063a9fcf76b14610723578063abfdcced14610736578063adb353dc14610749578063b348e6391461075c578063b8320a081461076f578063bd02d0f514610782578063be43caa3146107a2578063bf498dd3146107b5578063bf7f035a146107c8578063c1dc9182146107db578063c4f00fde146107ee578063c769d1a114610801578063c80f4c6214610814578063ca446dd914610827578063cbb093dd1461083a578063cc50eadd1461084d578063cf6a872214610860578063d38eebc714610873578063d52852af14610893578063dc97d962146108b3578063dd031997146108d3578063e208a70d146108e6578063e2a4853a146108f9578063e4e36c4e1461083a578063e62461ce1461090c578063e7e4148e1461091f578063e98aabc114610932578063ec672cf614610945578063f069052a14610958578063f15caeac1461096b578063f3903b9f1461097e578063f51fc0d91461099157600080fd5b806301677da214610342578063065f21a71461036b578063116bb9291461038c57806321f8a721146103ac57806322538dae146103ed57806322f874641461041657806326004846146104295780632d2899b61461043e578063310b88821461045e57806332f85bbf14610481578063340dbab31461049457806335d4d407146104a757806335ea8059146104ba5780633e49bed0146104cd57806342c3bd96146104e057806344a242b1146104f3578063499ea50e146105165780634a4a7b04146105295780634e91db08146105505780635948f733146105635780635eb07dbd146105835780636339734d1461059657806369721d41146105a95780636e899550146105bc5780636fae54f0146105dc5780637026d42c146105ef578063743df325146106025780637ae1cfca1461062257806380aacdcd1461064557806386ac6bdf1461065857806388021a721461066b5780638ca498b01461067e57806391d4403c1461069157806393266f9a146106a4578063986e791a146106b7575b600080fd5b610355610350366004611f5d565b6109a4565b6040516103629190611fbc565b60405180910390f35b61037e610379366004611f5d565b610a90565b604051908152602001610362565b61039f61039a366004611f5d565b610aad565b604051610362919061201e565b6103d56103ba366004611f5d565b6000908152600260205260409020546001600160a01b031690565b6040516001600160a01b039091168152602001610362565b6103d56103fb366004611f5d565b6002602052600090815260409020546001600160a01b031681565b6103d5610424366004612064565b610b2f565b61043c6104373660046120ef565b610b67565b005b61045161044c366004611f5d565b610bdb565b6040516103629190612190565b61047161046c366004612064565b610c3c565b6040519015158152602001610362565b61037e61048f366004612237565b610c5b565b61037e6104a2366004612064565b610cec565b61043c6104b5366004612294565b610d34565b61037e6104c8366004611f5d565b610d65565b61037e6104db366004612064565b610d7c565b61043c6104ee366004611f5d565b610da6565b610471610501366004611f5d565b60036020526000908152604090205460ff1681565b61043c610524366004611f5d565b610dc9565b6103d57f000000000000000000000000000000000000000000000000000000000000000081565b61037e61055e366004612064565b610df5565b610576610571366004611f5d565b610e1f565b604051610362919061232a565b61043c6105913660046120ef565b610e8a565b61037e6105a4366004612064565b610ebb565b61043c6105b7366004612387565b610eec565b6105cf6105ca3660046123b3565b610f16565b60405161036291906123f9565b61037e6105ea366004612064565b610f4a565b6104516105fd36600461240c565b610f92565b61037e610610366004611f5d565b60016020526000908152604090205481565b610471610630366004611f5d565b60009081526003602052604090205460ff1690565b610471610653366004612064565b610fb6565b610451610666366004611f5d565b610ff9565b61043c610679366004612438565b611059565b61037e61068c366004612064565b61108a565b61047161069f366004612064565b61110a565b61043c6106b2366004612064565b611122565b6105cf6106c5366004611f5d565b61114c565b61043c6106d8366004612064565b6111e4565b61043c6106eb366004611f5d565b61120e565b61043c6106fe366004611f5d565b61123e565b61037e610711366004611f5d565b60009081526005602052604090205490565b61043c6107313660046120ef565b611268565b6104716107443660046124f4565b611299565b61043c610757366004612064565b6112cc565b61043c61076a366004612387565b6112f6565b6105cf61077d366004612064565b611320565b61037e610790366004611f5d565b60009081526020819052604090205490565b61043c6107b0366004611f5d565b6113d9565b61037e6107c3366004612064565b611402565b61043c6107d6366004611f5d565b61141e565b61043c6107e9366004611f5d565b611447565b61037e6107fc366004612064565b611470565b61047161080f366004612387565b61148c565b61043c610822366004612064565b6114a4565b6103d5610835366004612387565b6114ce565b61037e610848366004612064565b61150e565b61043c61085b366004611f5d565b61153c565b61043c61086e366004611f5d565b611565565b61037e610881366004611f5d565b60006020819052908152604090205481565b61037e6108a1366004611f5d565b60056020526000908152604090205481565b61037e6108c1366004611f5d565b60009081526001602052604090205490565b6104516108e1366004611f5d565b611588565b61043c6108f4366004611f5d565b6115e8565b61037e610907366004612064565b611611565b61043c61091a366004611f5d565b61163b565b61057661092d36600461240c565b61165e565b61037e610940366004612064565b61167a565b61043c610953366004612524565b6116a8565b61045161096636600461240c565b6116d9565b6105cf610979366004611f5d565b6116f5565b61037e61098c366004611f5d565b61170e565b61043c61099f366004611f5d565b611725565b6060600a6000838152602001908152602001600020805480602002602001604051908101604052809291908181526020016000905b82821015610a855783829060005260206000200180546109f8906125b8565b80601f0160208091040260200160405190810160405280929190818152602001828054610a24906125b8565b8015610a715780601f10610a4657610100808354040283529160200191610a71565b820191906000526020600020905b815481529060010190602001808311610a5457829003601f168201915b5050505050815260200190600101906109d9565b505050509050919050565b6000818152600e60205260408120610aa79061174e565b92915050565b600081815260096020908152604091829020805483518184028101840190945280845260609392830182828015610b2357602002820191906000526020600020906000905b825461010083900a900460ff161515815260206001928301818104948501949093039092029101808411610af25790505b50505050509050919050565b60086020528160005260406000208181548110610b4b57600080fd5b6000918252602090912001546001600160a01b03169150829050565b610bb7604051602001610b79906125f2565b604051602081830303815290604052805190602001206040518060400160405280600a81526020016921a7a72a2927a62622a960b11b815250611758565b6000828152600b602090815260409091208251610bd692840190611d06565b505050565b600081815260076020908152604091829020805483518184028101840190945280845260609392830182828015610b2357602002820191906000526020600020905b815481526020019060010190808311610c1d5750505050509050919050565b6000828152600e60205260408120610c54908361180c565b9392505050565b6000610c6f604051602001610b79906125f2565b6000848152602081905260408120549084128015610c9c575080610c9a610c958661262c565b611818565b115b15610cc4578260405162461bcd60e51b8152600401610cbb91906123f9565b60405180910390fd5b6000610cd0828661186e565b6000878152602081905260409020819055925050509392505050565b6000610d00604051602001610b79906125f2565b600083815260208190526040812054610d1a908490612648565b600085815260208190526040902081905591505092915050565b610d46604051602001610b79906125f2565b60008281526009602090815260409091208251610bd692840190611d4d565b6000818152600d60205260408120610aa79061174e565b6000610d90604051602001610b79906125f2565b5060009182526001602052604090912081905590565b610db8604051602001610b79906125f2565b600090815260208190526040812055565b610ddb604051602001610b79906125f2565b6000818152600760205260408120610df291611ded565b50565b6000610e09604051602001610b79906125f2565b5060009182526005602052604090912081905590565b600081815260086020908152604091829020805483518184028101840190945280845260609392830182828015610b2357602002820191906000526020600020905b81546001600160a01b03168152600190910190602001808311610e615750505050509050919050565b610e9c604051602001610b79906125f2565b60008281526006602090815260409091208251610bd692840190611d06565b60076020528160005260406000208181548110610ed757600080fd5b90600052602060002001600091509150505481565b610efe604051602001610b79906125f2565b6000828152600d60205260409020610bd690826118a5565b6060610f2a604051602001610b79906125f2565b6000838152600460205260409020610f4283826126a9565b509092915050565b6000610f5e604051602001610b79906125f2565b600083815260016020526040812054610f78908490612768565b600085815260016020526040902081905591505092915050565b6000838152600e60205260409020606090610fae9084846118ba565b949350505050565b60096020528160005260406000208181548110610fd257600080fd5b9060005260206000209060209182820401919006915091509054906101000a900460ff1681565b600081815260066020908152604091829020805483518184028101840190945280845260609392830182828015610b235760200282019190600052602060002090815481526020019060010190808311610c1d5750505050509050919050565b61106b604051602001610b79906125f2565b6000828152600a602090815260409091208251610bd692840190611e0b565b600061109e604051602001610b79906125f2565b60008381526020819052604081205490831280156110c65750806110c4610c958561262c565b115b156110e35750506000828152602081905260408120819055610aa7565b60006110ef828561186e565b60008681526020819052604090208190559250505092915050565b6000828152600c60205260408120610c54908361180c565b611134604051602001610b79906125f2565b6000828152600e60205260409020610bd6908261199e565b6000818152600460205260409020805460609190611169906125b8565b80601f0160208091040260200160405190810160405280929190818152602001828054611195906125b8565b8015610b235780601f106111b757610100808354040283529160200191610b23565b820191906000526020600020905b8154815290600101906020018083116111c55750939695505050505050565b6111f6604051602001610b79906125f2565b6000828152600c60205260409020610bd6908261199e565b611220604051602001610b79906125f2565b600090815260026020526040902080546001600160a01b0319169055565b611250604051602001610b79906125f2565b6000908152600360205260409020805460ff19169055565b61127a604051602001610b79906125f2565b60008281526007602090815260409091208251610bd692840190611d06565b60006112ad604051602001610b79906125f2565b50600091825260036020526040909120805460ff191682151517905590565b6112de604051602001610b79906125f2565b6000828152600e60205260409020610bd690826119aa565b611308604051602001610b79906125f2565b6000828152600d60205260409020610bd690826119b6565b600a602052816000526040600020818154811061133c57600080fd5b90600052602060002001600091509150508054611358906125b8565b80601f0160208091040260200160405190810160405280929190818152602001828054611384906125b8565b80156113d15780601f106113a6576101008083540402835291602001916113d1565b820191906000526020600020905b8154815290600101906020018083116113b457829003601f168201915b505050505081565b6113eb604051602001610b79906125f2565b6000818152600660205260408120610df291611ded565b600b6020528160005260406000208181548110610ed757600080fd5b611430604051602001610b79906125f2565b6000818152600b60205260408120610df291611ded565b611459604051602001610b79906125f2565b6000818152600860205260408120610df291611ded565b60066020528160005260406000208181548110610ed757600080fd5b6000828152600d60205260408120610c5490836119cb565b6114b6604051602001610b79906125f2565b6000828152600c60205260409020610bd690826119aa565b60006114e2604051602001610b79906125f2565b5060009182526002602052604090912080546001600160a01b0319166001600160a01b03831617905590565b6000611522604051602001610b79906125f2565b600083815260016020526040812054610f78908490612788565b61154e604051602001610b79906125f2565b6000818152600460205260408120610df291611e5d565b611577604051602001610b79906125f2565b600090815260056020526040812055565b6000818152600b6020908152604091829020805483518184028101840190945280845260609392830182828015610b235760200282019190600052602060002090815481526020019060010190808311610c1d5750505050509050919050565b6115fa604051602001610b79906125f2565b6000818152600a60205260408120610df291611e97565b6000611625604051602001610b79906125f2565b5060009182526020829052604090912081905590565b61164d604051602001610b79906125f2565b600090815260016020526040812055565b6000838152600d60205260409020606090610fae9084846119e0565b600061168e604051602001610b79906125f2565b600083815260208190526040812054610d1a9084906127b0565b6116ba604051602001610b79906125f2565b60008281526008602090815260409091208251610bd692840190611eb5565b6000838152600c60205260409020606090610fae908484611aa3565b60046020526000908152604090208054611358906125b8565b6000818152600c60205260408120610aa79061174e565b611737604051602001610b79906125f2565b6000818152600960205260408120610df291611f0a565b6000610aa7825490565b60405163ac4ab3fb60e01b8152336004820152602481018390527f00000000000000000000000000000000000000000000000000000000000000006001600160a01b03169063ac4ab3fb90604401602060405180830381865afa1580156117c3573d6000803e3d6000fd5b505050506040513d601f19601f820116820180604052508101906117e791906127c3565b61180857338160405163a35b150b60e01b8152600401610cbb9291906127e0565b5050565b6000610c548383611b59565b60008082121561186a5760405162461bcd60e51b815260206004820181905260248201527f53616665436173743a2076616c7565206d75737420626520706f7369746976656044820152606401610cbb565b5090565b6000808213156118925761188182611b71565b61188b9084612648565b9050610aa7565b61189b82611b71565b610c5490846127b0565b6000610c54836001600160a01b038416611b84565b60606118c58461174e565b83106118e05750604080516000815260208101909152610c54565b60006118eb8561174e565b9050808311156118f9578092505b600061190585856127b0565b6001600160401b0381111561191c5761191c612086565b604051908082528060200260200182016040528015611945578160200160208202803683370190505b509050845b848110156119945761195c8782611c7e565b8261196788846127b0565b8151811061197757611977612804565b60209081029190910101528061198c8161281a565b91505061194a565b5095945050505050565b6000610c548383611b84565b6000610c548383611c8a565b6000610c54836001600160a01b038416611c8a565b6000610c54836001600160a01b038416611b59565b606060006119ed8561174e565b9050808311156119fb578092505b6000611a0785856127b0565b6001600160401b03811115611a1e57611a1e612086565b604051908082528060200260200182016040528015611a47578160200160208202803683370190505b509050845b8481101561199457611a5e8782611c7e565b82611a6988846127b0565b81518110611a7957611a79612804565b6001600160a01b039092166020928302919091019091015280611a9b8161281a565b915050611a4c565b60606000611ab08561174e565b905080831115611abe578092505b6000611aca85856127b0565b6001600160401b03811115611ae157611ae1612086565b604051908082528060200260200182016040528015611b0a578160200160208202803683370190505b509050845b8481101561199457611b218782611cd4565b82611b2c88846127b0565b81518110611b3c57611b3c612804565b602090810291909101015280611b518161281a565b915050611b0f565b60009081526001919091016020526040902054151590565b60008082121561186a5781600003610aa7565b60008181526001830160205260408120548015611c6d576000611ba86001836127b0565b8554909150600090611bbc906001906127b0565b9050818114611c21576000866000018281548110611bdc57611bdc612804565b9060005260206000200154905080876000018481548110611bff57611bff612804565b6000918252602080832090910192909255918252600188019052604090208390555b8554869080611c3257611c32612833565b600190038181906000526020600020016000905590558560010160008681526020019081526020016000206000905560019350505050610aa7565b6000915050610aa7565b5092915050565b6000610c548383611cdc565b6000611c968383611b59565b611ccc57508154600181810184556000848152602080822090930184905584548482528286019093526040902091909155610aa7565b506000610aa7565b6000610c5483835b6000826000018281548110611cf357611cf3612804565b9060005260206000200154905092915050565b828054828255906000526020600020908101928215611d41579160200282015b82811115611d41578251825591602001919060010190611d26565b5061186a929150611f2b565b82805482825590600052602060002090601f01602090048101928215611d415791602002820160005b83821115611db357835183826101000a81548160ff0219169083151502179055509260200192600101602081600001049283019260010302611d76565b8015611de05782816101000a81549060ff0219169055600101602081600001049283019260010302611db3565b505061186a929150611f2b565b5080546000825590600052602060002090810190610df29190611f2b565b828054828255906000526020600020908101928215611e51579160200282015b82811115611e515782518290611e4190826126a9565b5091602001919060010190611e2b565b5061186a929150611f40565b508054611e69906125b8565b6000825580601f10611e79575050565b601f016020900490600052602060002090810190610df29190611f2b565b5080546000825590600052602060002090810190610df29190611f40565b828054828255906000526020600020908101928215611d41579160200282015b82811115611d4157825182546001600160a01b0319166001600160a01b03909116178255602090920191600190910190611ed5565b50805460008255601f016020900490600052602060002090810190610df291905b5b8082111561186a5760008155600101611f2c565b8082111561186a576000611f548282611e5d565b50600101611f40565b600060208284031215611f6f57600080fd5b5035919050565b6000815180845260005b81811015611f9c57602081850181015186830182015201611f80565b506000602082860101526020601f19601f83011685010191505092915050565b6000602080830181845280855180835260408601915060408160051b870101925083870160005b8281101561201157603f19888603018452611fff858351611f76565b94509285019290850190600101611fe3565b5092979650505050505050565b6020808252825182820181905260009190848201906040850190845b8181101561205857835115158352928401929184019160010161203a565b50909695505050505050565b6000806040838503121561207757600080fd5b50508035926020909101359150565b634e487b7160e01b600052604160045260246000fd5b604051601f8201601f191681016001600160401b03811182821017156120c4576120c4612086565b604052919050565b60006001600160401b038211156120e5576120e5612086565b5060051b60200190565b6000806040838503121561210257600080fd5b823591506020808401356001600160401b0381111561212057600080fd5b8401601f8101861361213157600080fd5b803561214461213f826120cc565b61209c565b81815260059190911b8201830190838101908883111561216357600080fd5b928401925b8284101561218157833582529284019290840190612168565b80955050505050509250929050565b6020808252825182820181905260009190848201906040850190845b81811015612058578351835292840192918401916001016121ac565b600082601f8301126121d957600080fd5b81356001600160401b038111156121f2576121f2612086565b612205601f8201601f191660200161209c565b81815284602083860101111561221a57600080fd5b816020850160208301376000918101602001919091529392505050565b60008060006060848603121561224c57600080fd5b833592506020840135915060408401356001600160401b0381111561227057600080fd5b61227c868287016121c8565b9150509250925092565b8015158114610df257600080fd5b600080604083850312156122a757600080fd5b823591506020808401356001600160401b038111156122c557600080fd5b8401601f810186136122d657600080fd5b80356122e461213f826120cc565b81815260059190911b8201830190838101908883111561230357600080fd5b928401925b8284101561218157833561231b81612286565b82529284019290840190612308565b6020808252825182820181905260009190848201906040850190845b818110156120585783516001600160a01b031683529284019291840191600101612346565b80356001600160a01b038116811461238257600080fd5b919050565b6000806040838503121561239a57600080fd5b823591506123aa6020840161236b565b90509250929050565b600080604083850312156123c657600080fd5b8235915060208301356001600160401b038111156123e357600080fd5b6123ef858286016121c8565b9150509250929050565b602081526000610c546020830184611f76565b60008060006060848603121561242157600080fd5b505081359360208301359350604090920135919050565b6000806040838503121561244b57600080fd5b823591506020808401356001600160401b038082111561246a57600080fd5b818601915086601f83011261247e57600080fd5b813561248c61213f826120cc565b81815260059190911b830184019084810190898311156124ab57600080fd5b8585015b838110156124e3578035858111156124c75760008081fd5b6124d58c89838a01016121c8565b8452509186019186016124af565b508096505050505050509250929050565b6000806040838503121561250757600080fd5b82359150602083013561251981612286565b809150509250929050565b6000806040838503121561253757600080fd5b823591506020808401356001600160401b0381111561255557600080fd5b8401601f8101861361256657600080fd5b803561257461213f826120cc565b81815260059190911b8201830190838101908883111561259357600080fd5b928401925b82841015612181576125a98461236b565b82529284019290840190612598565b600181811c908216806125cc57607f821691505b6020821081036125ec57634e487b7160e01b600052602260045260246000fd5b50919050565b6020808252600a908201526921a7a72a2927a62622a960b11b604082015260600190565b634e487b7160e01b600052601160045260246000fd5b6000600160ff1b820161264157612641612616565b5060000390565b80820180821115610aa757610aa7612616565b601f821115610bd657600081815260208120601f850160051c810160208610156126825750805b601f850160051c820191505b818110156126a15782815560010161268e565b505050505050565b81516001600160401b038111156126c2576126c2612086565b6126d6816126d084546125b8565b8461265b565b602080601f83116001811461270b57600084156126f35750858301515b600019600386901b1c1916600185901b1785556126a1565b600085815260208120601f198616915b8281101561273a5788860151825594840194600190910190840161271b565b50858210156127585787850151600019600388901b60f8161c191681555b5050505050600190811b01905550565b8181036000831280158383131683831282161715611c7757611c77612616565b80820182811260008312801582168215821617156127a8576127a8612616565b505092915050565b81810381811115610aa757610aa7612616565b6000602082840312156127d557600080fd5b8151610c5481612286565b6001600160a01b0383168152604060208201819052600090610fae90830184611f76565b634e487b7160e01b600052603260045260246000fd5b60006001820161282c5761282c612616565b5060010190565b634e487b7160e01b600052603160045260246000fdfea26469706673582212203eb9c1570327c1b68032afdeeb4e611dfe64d70b0f7fea5351af3c71b7daf7f364736f6c63430008100033",
  "libraries": {
    "GasUtils": "0x84C37db023a469097985721649B723602620a57B",
    "OrderUtils": "0x0E6FBc17033e3E3fF4C6f51Ed3f17Be2113CEA0d",
    "AdlUtils": "0xbCCd72740827744ac70Ec2AA5fC57171Ff959572",
    "PositionStoreUtils": "0x1EA350B038E7Ab38298cD8462886C28c7cc0D257",
    "OrderStoreUtils": "0x846EF0399Ab606800a06BbdF304E2835A96222FE"
  },
  "devdoc": {
    "kind": "dev",
    "methods": {},
    "version": 1
  },
  "userdoc": {
    "kind": "user",
    "methods": {},
    "version": 1
  },
  "storageLayout": {
    "storage": [
      {
        "astId": 8218,
        "contract": "contracts/data/DataStore.sol:DataStore",
        "label": "uintValues",
        "offset": 0,
        "slot": "0",
        "type": "t_mapping(t_bytes32,t_uint256)"
      },
      {
        "astId": 8222,
        "contract": "contracts/data/DataStore.sol:DataStore",
        "label": "intValues",
        "offset": 0,
        "slot": "1",
        "type": "t_mapping(t_bytes32,t_int256)"
      },
      {
        "astId": 8226,
        "contract": "contracts/data/DataStore.sol:DataStore",
        "label": "addressValues",
        "offset": 0,
        "slot": "2",
        "type": "t_mapping(t_bytes32,t_address)"
      },
      {
        "astId": 8230,
        "contract": "contracts/data/DataStore.sol:DataStore",
        "label": "boolValues",
        "offset": 0,
        "slot": "3",
        "type": "t_mapping(t_bytes32,t_bool)"
      },
      {
        "astId": 8234,
        "contract": "contracts/data/DataStore.sol:DataStore",
        "label": "stringValues",
        "offset": 0,
        "slot": "4",
        "type": "t_mapping(t_bytes32,t_string_storage)"
      },
      {
        "astId": 8238,
        "contract": "contracts/data/DataStore.sol:DataStore",
        "label": "bytes32Values",
        "offset": 0,
        "slot": "5",
        "type": "t_mapping(t_bytes32,t_bytes32)"
      },
      {
        "astId": 8243,
        "contract": "contracts/data/DataStore.sol:DataStore",
        "label": "uintArrayValues",
        "offset": 0,
        "slot": "6",
        "type": "t_mapping(t_bytes32,t_array(t_uint256)dyn_storage)"
      },
      {
        "astId": 8248,
        "contract": "contracts/data/DataStore.sol:DataStore",
        "label": "intArrayValues",
        "offset": 0,
        "slot": "7",
        "type": "t_mapping(t_bytes32,t_array(t_int256)dyn_storage)"
      },
      {
        "astId": 8253,
        "contract": "contracts/data/DataStore.sol:DataStore",
        "label": "addressArrayValues",
        "offset": 0,
        "slot": "8",
        "type": "t_mapping(t_bytes32,t_array(t_address)dyn_storage)"
      },
      {
        "astId": 8258,
        "contract": "contracts/data/DataStore.sol:DataStore",
        "label": "boolArrayValues",
        "offset": 0,
        "slot": "9",
        "type": "t_mapping(t_bytes32,t_array(t_bool)dyn_storage)"
      },
      {
        "astId": 8263,
        "contract": "contracts/data/DataStore.sol:DataStore",
        "label": "stringArrayValues",
        "offset": 0,
        "slot": "10",
        "type": "t_mapping(t_bytes32,t_array(t_string_storage)dyn_storage)"
      },
      {
        "astId": 8268,
        "contract": "contracts/data/DataStore.sol:DataStore",
        "label": "bytes32ArrayValues",
        "offset": 0,
        "slot": "11",
        "type": "t_mapping(t_bytes32,t_array(t_bytes32)dyn_storage)"
      },
      {
        "astId": 8273,
        "contract": "contracts/data/DataStore.sol:DataStore",
        "label": "bytes32Sets",
        "offset": 0,
        "slot": "12",
        "type": "t_mapping(t_bytes32,t_struct(Bytes32Set)4137_storage)"
      },
      {
        "astId": 8278,
        "contract": "contracts/data/DataStore.sol:DataStore",
        "label": "addressSets",
        "offset": 0,
        "slot": "13",
        "type": "t_mapping(t_bytes32,t_struct(AddressSet)4244_storage)"
      },
      {
        "astId": 8283,
        "contract": "contracts/data/DataStore.sol:DataStore",
        "label": "uintSets",
        "offset": 0,
        "slot": "14",
        "type": "t_mapping(t_bytes32,t_struct(UintSet)4401_storage)"
      }
    ],
    "types": {
      "t_address": {
        "encoding": "inplace",
        "label": "address",
        "numberOfBytes": "20"
      },
      "t_array(t_address)dyn_storage": {
        "base": "t_address",
        "encoding": "dynamic_array",
        "label": "address[]",
        "numberOfBytes": "32"
      },
      "t_array(t_bool)dyn_storage": {
        "base": "t_bool",
        "encoding": "dynamic_array",
        "label": "bool[]",
        "numberOfBytes": "32"
      },
      "t_array(t_bytes32)dyn_storage": {
        "base": "t_bytes32",
        "encoding": "dynamic_array",
        "label": "bytes32[]",
        "numberOfBytes": "32"
      },
      "t_array(t_int256)dyn_storage": {
        "base": "t_int256",
        "encoding": "dynamic_array",
        "label": "int256[]",
        "numberOfBytes": "32"
      },
      "t_array(t_string_storage)dyn_storage": {
        "base": "t_string_storage",
        "encoding": "dynamic_array",
        "label": "string[]",
        "numberOfBytes": "32"
      },
      "t_array(t_uint256)dyn_storage": {
        "base": "t_uint256",
        "encoding": "dynamic_array",
        "label": "uint256[]",
        "numberOfBytes": "32"
      },
      "t_bool": {
        "encoding": "inplace",
        "label": "bool",
        "numberOfBytes": "1"
      },
      "t_bytes32": {
        "encoding": "inplace",
        "label": "bytes32",
        "numberOfBytes": "32"
      },
      "t_int256": {
        "encoding": "inplace",
        "label": "int256",
        "numberOfBytes": "32"
      },
      "t_mapping(t_bytes32,t_address)": {
        "encoding": "mapping",
        "key": "t_bytes32",
        "label": "mapping(bytes32 => address)",
        "numberOfBytes": "32",
        "value": "t_address"
      },
      "t_mapping(t_bytes32,t_array(t_address)dyn_storage)": {
        "encoding": "mapping",
        "key": "t_bytes32",
        "label": "mapping(bytes32 => address[])",
        "numberOfBytes": "32",
        "value": "t_array(t_address)dyn_storage"
      },
      "t_mapping(t_bytes32,t_array(t_bool)dyn_storage)": {
        "encoding": "mapping",
        "key": "t_bytes32",
        "label": "mapping(bytes32 => bool[])",
        "numberOfBytes": "32",
        "value": "t_array(t_bool)dyn_storage"
      },
      "t_mapping(t_bytes32,t_array(t_bytes32)dyn_storage)": {
        "encoding": "mapping",
        "key": "t_bytes32",
        "label": "mapping(bytes32 => bytes32[])",
        "numberOfBytes": "32",
        "value": "t_array(t_bytes32)dyn_storage"
      },
      "t_mapping(t_bytes32,t_array(t_int256)dyn_storage)": {
        "encoding": "mapping",
        "key": "t_bytes32",
        "label": "mapping(bytes32 => int256[])",
        "numberOfBytes": "32",
        "value": "t_array(t_int256)dyn_storage"
      },
      "t_mapping(t_bytes32,t_array(t_string_storage)dyn_storage)": {
        "encoding": "mapping",
        "key": "t_bytes32",
        "label": "mapping(bytes32 => string[])",
        "numberOfBytes": "32",
        "value": "t_array(t_string_storage)dyn_storage"
      },
      "t_mapping(t_bytes32,t_array(t_uint256)dyn_storage)": {
        "encoding": "mapping",
        "key": "t_bytes32",
        "label": "mapping(bytes32 => uint256[])",
        "numberOfBytes": "32",
        "value": "t_array(t_uint256)dyn_storage"
      },
      "t_mapping(t_bytes32,t_bool)": {
        "encoding": "mapping",
        "key": "t_bytes32",
        "label": "mapping(bytes32 => bool)",
        "numberOfBytes": "32",
        "value": "t_bool"
      },
      "t_mapping(t_bytes32,t_bytes32)": {
        "encoding": "mapping",
        "key": "t_bytes32",
        "label": "mapping(bytes32 => bytes32)",
        "numberOfBytes": "32",
        "value": "t_bytes32"
      },
      "t_mapping(t_bytes32,t_int256)": {
        "encoding": "mapping",
        "key": "t_bytes32",
        "label": "mapping(bytes32 => int256)",
        "numberOfBytes": "32",
        "value": "t_int256"
      },
      "t_mapping(t_bytes32,t_string_storage)": {
        "encoding": "mapping",
        "key": "t_bytes32",
        "label": "mapping(bytes32 => string)",
        "numberOfBytes": "32",
        "value": "t_string_storage"
      },
      "t_mapping(t_bytes32,t_struct(AddressSet)4244_storage)": {
        "encoding": "mapping",
        "key": "t_bytes32",
        "label": "mapping(bytes32 => struct EnumerableSet.AddressSet)",
        "numberOfBytes": "32",
        "value": "t_struct(AddressSet)4244_storage"
      },
      "t_mapping(t_bytes32,t_struct(Bytes32Set)4137_storage)": {
        "encoding": "mapping",
        "key": "t_bytes32",
        "label": "mapping(bytes32 => struct EnumerableSet.Bytes32Set)",
        "numberOfBytes": "32",
        "value": "t_struct(Bytes32Set)4137_storage"
      },
      "t_mapping(t_bytes32,t_struct(UintSet)4401_storage)": {
        "encoding": "mapping",
        "key": "t_bytes32",
        "label": "mapping(bytes32 => struct EnumerableSet.UintSet)",
        "numberOfBytes": "32",
        "value": "t_struct(UintSet)4401_storage"
      },
      "t_mapping(t_bytes32,t_uint256)": {
        "encoding": "mapping",
        "key": "t_bytes32",
        "label": "mapping(bytes32 => uint256)",
        "numberOfBytes": "32",
        "value": "t_uint256"
      },
      "t_string_storage": {
        "encoding": "bytes",
        "label": "string",
        "numberOfBytes": "32"
      },
      "t_struct(AddressSet)4244_storage": {
        "encoding": "inplace",
        "label": "struct EnumerableSet.AddressSet",
        "members": [
          {
            "astId": 4243,
            "contract": "contracts/data/DataStore.sol:DataStore",
            "label": "_inner",
            "offset": 0,
            "slot": "0",
            "type": "t_struct(Set)3943_storage"
          }
        ],
        "numberOfBytes": "64"
      },
      "t_struct(Bytes32Set)4137_storage": {
        "encoding": "inplace",
        "label": "struct EnumerableSet.Bytes32Set",
        "members": [
          {
            "astId": 4136,
            "contract": "contracts/data/DataStore.sol:DataStore",
            "label": "_inner",
            "offset": 0,
            "slot": "0",
            "type": "t_struct(Set)3943_storage"
          }
        ],
        "numberOfBytes": "64"
      },
      "t_struct(Set)3943_storage": {
        "encoding": "inplace",
        "label": "struct EnumerableSet.Set",
        "members": [
          {
            "astId": 3938,
            "contract": "contracts/data/DataStore.sol:DataStore",
            "label": "_values",
            "offset": 0,
            "slot": "0",
            "type": "t_array(t_bytes32)dyn_storage"
          },
          {
            "astId": 3942,
            "contract": "contracts/data/DataStore.sol:DataStore",
            "label": "_indexes",
            "offset": 0,
            "slot": "1",
            "type": "t_mapping(t_bytes32,t_uint256)"
          }
        ],
        "numberOfBytes": "64"
      },
      "t_struct(UintSet)4401_storage": {
        "encoding": "inplace",
        "label": "struct EnumerableSet.UintSet",
        "members": [
          {
            "astId": 4400,
            "contract": "contracts/data/DataStore.sol:DataStore",
            "label": "_inner",
            "offset": 0,
            "slot": "0",
            "type": "t_struct(Set)3943_storage"
          }
        ],
        "numberOfBytes": "64"
      },
      "t_uint256": {
        "encoding": "inplace",
        "label": "uint256",
        "numberOfBytes": "32"
      }
    }
  }
}