{
  "address": "0x10b4469EA9E46E54D5Cc35833f5fCF46590Fba96",
  "abi": [
    {
      "inputs": [
        {
          "internalType": "bytes32",
          "name": "key",
          "type": "bytes32"
        }
      ],
      "name": "DepositNotFound",
      "type": "error"
    },
    {
      "inputs": [],
      "name": "ACCOUNT",
      "outputs": [
        {
          "internalType": "bytes32",
          "name": "",
          "type": "bytes32"
        }
      ],
      "stateMutability": "view",
      "type": "function"
    },
    {
      "inputs": [],
      "name": "CALLBACK_CONTRACT",
      "outputs": [
        {
          "internalType": "bytes32",
          "name": "",
          "type": "bytes32"
        }
      ],
      "stateMutability": "view",
      "type": "function"
    },
    {
      "inputs": [],
      "name": "CALLBACK_GAS_LIMIT",
      "outputs": [
        {
          "internalType": "bytes32",
          "name": "",
          "type": "bytes32"
        }
      ],
      "stateMutability": "view",
      "type": "function"
    },
    {
      "inputs": [],
      "name": "EXECUTION_FEE",
      "outputs": [
        {
          "internalType": "bytes32",
          "name": "",
          "type": "bytes32"
        }
      ],
      "stateMutability": "view",
      "type": "function"
    },
    {
      "inputs": [],
      "name": "INITIAL_LONG_TOKEN",
      "outputs": [
        {
          "internalType": "bytes32",
          "name": "",
          "type": "bytes32"
        }
      ],
      "stateMutability": "view",
      "type": "function"
    },
    {
      "inputs": [],
      "name": "INITIAL_LONG_TOKEN_AMOUNT",
      "outputs": [
        {
          "internalType": "bytes32",
          "name": "",
          "type": "bytes32"
        }
      ],
      "stateMutability": "view",
      "type": "function"
    },
    {
      "inputs": [],
      "name": "INITIAL_SHORT_TOKEN",
      "outputs": [
        {
          "internalType": "bytes32",
          "name": "",
          "type": "bytes32"
        }
      ],
      "stateMutability": "view",
      "type": "function"
    },
    {
      "inputs": [],
      "name": "INITIAL_SHORT_TOKEN_AMOUNT",
      "outputs": [
        {
          "internalType": "bytes32",
          "name": "",
          "type": "bytes32"
        }
      ],
      "stateMutability": "view",
      "type": "function"
    },
    {
      "inputs": [],
      "name": "LONG_TOKEN_SWAP_PATH",
      "outputs": [
        {
          "internalType": "bytes32",
          "name": "",
          "type": "bytes32"
        }
      ],
      "stateMutability": "view",
      "type": "function"
    },
    {
      "inputs": [],
      "name": "MARKET",
      "outputs": [
        {
          "internalType": "bytes32",
          "name": "",
          "type": "bytes32"
        }
      ],
      "stateMutability": "view",
      "type": "function"
    },
    {
      "inputs": [],
      "name": "MIN_MARKET_TOKENS",
      "outputs": [
        {
          "internalType": "bytes32",
          "name": "",
          "type": "bytes32"
        }
      ],
      "stateMutability": "view",
      "type": "function"
    },
    {
      "inputs": [],
      "name": "RECEIVER",
      "outputs": [
        {
          "internalType": "bytes32",
          "name": "",
          "type": "bytes32"
        }
      ],
      "stateMutability": "view",
      "type": "function"
    },
    {
      "inputs": [],
      "name": "SHORT_TOKEN_SWAP_PATH",
      "outputs": [
        {
          "internalType": "bytes32",
          "name": "",
          "type": "bytes32"
        }
      ],
      "stateMutability": "view",
      "type": "function"
    },
    {
      "inputs": [],
      "name": "SHOULD_UNWRAP_NATIVE_TOKEN",
      "outputs": [
        {
          "internalType": "bytes32",
          "name": "",
          "type": "bytes32"
        }
      ],
      "stateMutability": "view",
      "type": "function"
    },
    {
      "inputs": [],
      "name": "UI_FEE_RECEIVER",
      "outputs": [
        {
          "internalType": "bytes32",
          "name": "",
          "type": "bytes32"
        }
      ],
      "stateMutability": "view",
      "type": "function"
    },
    {
      "inputs": [],
      "name": "UPDATED_AT_BLOCK",
      "outputs": [
        {
          "internalType": "bytes32",
          "name": "",
          "type": "bytes32"
        }
      ],
      "stateMutability": "view",
      "type": "function"
    },
    {
      "inputs": [],
      "name": "UPDATED_AT_TIME",
      "outputs": [
        {
          "internalType": "bytes32",
          "name": "",
          "type": "bytes32"
        }
      ],
      "stateMutability": "view",
      "type": "function"
    },
    {
      "inputs": [
        {
          "internalType": "contract DataStore",
          "name": "dataStore",
          "type": "DataStore"
        },
        {
          "internalType": "bytes32",
          "name": "key",
          "type": "bytes32"
        }
      ],
      "name": "get",
      "outputs": [
        {
          "components": [
            {
              "components": [
                {
                  "internalType": "address",
                  "name": "account",
                  "type": "address"
                },
                {
                  "internalType": "address",
                  "name": "receiver",
                  "type": "address"
                },
                {
                  "internalType": "address",
                  "name": "callbackContract",
                  "type": "address"
                },
                {
                  "internalType": "address",
                  "name": "uiFeeReceiver",
                  "type": "address"
                },
                {
                  "internalType": "address",
                  "name": "market",
                  "type": "address"
                },
                {
                  "internalType": "address",
                  "name": "initialLongToken",
                  "type": "address"
                },
                {
                  "internalType": "address",
                  "name": "initialShortToken",
                  "type": "address"
                },
                {
                  "internalType": "address[]",
                  "name": "longTokenSwapPath",
                  "type": "address[]"
                },
                {
                  "internalType": "address[]",
                  "name": "shortTokenSwapPath",
                  "type": "address[]"
                }
              ],
              "internalType": "struct Deposit.Addresses",
              "name": "addresses",
              "type": "tuple"
            },
            {
              "components": [
                {
                  "internalType": "uint256",
                  "name": "initialLongTokenAmount",
                  "type": "uint256"
                },
                {
                  "internalType": "uint256",
                  "name": "initialShortTokenAmount",
                  "type": "uint256"
                },
                {
                  "internalType": "uint256",
                  "name": "minMarketTokens",
                  "type": "uint256"
                },
                {
                  "internalType": "uint256",
                  "name": "updatedAtBlock",
                  "type": "uint256"
                },
                {
                  "internalType": "uint256",
                  "name": "updatedAtTime",
                  "type": "uint256"
                },
                {
                  "internalType": "uint256",
                  "name": "executionFee",
                  "type": "uint256"
                },
                {
                  "internalType": "uint256",
                  "name": "callbackGasLimit",
                  "type": "uint256"
                }
              ],
              "internalType": "struct Deposit.Numbers",
              "name": "numbers",
              "type": "tuple"
            },
            {
              "components": [
                {
                  "internalType": "bool",
                  "name": "shouldUnwrapNativeToken",
                  "type": "bool"
                }
              ],
              "internalType": "struct Deposit.Flags",
              "name": "flags",
              "type": "tuple"
            }
          ],
          "internalType": "struct Deposit.Props",
          "name": "",
          "type": "tuple"
        }
      ],
      "stateMutability": "view",
      "type": "function"
    }
  ],
  "transactionHash": "0xf1c5bc06aee3e839d57c5aaf16196830bd91f4e36981b448e3c16569b844acf2",
  "args": [],
  "numDeployments": 20,
  "solcInputHash": "1c2199576d19a85f33e26ba11434e9b4",
  "bytecode": "0x61384261003a600b82828239805160001a60731461002d57634e487b7160e01b600052600060045260246000fd5b30600052607381538281f3fe73000000000000000000000000000000000000000030146080604052600436106101065760003560e01c806304a36e201461010b5780632a3459161461012657806333d608f1146101485780634675e8eb146101505780634e39e5411461015857806352341d2614610160578063566a6e66146101685780636ec816771461017057806374b6fe13146101785780638f7f2048146101985780639a41866b146101a0578063ad7430cc146101a8578063b451e534146101b0578063c76eb23b146101b8578063d165556f146101c0578063db854fb7146101c8578063e90524f2146101d0578063f145e54a146101d8578063f46f16c2146101e0578063fdfc26f3146101e8575b600080fd5b610113610208565b6040519081526020015b60405180910390f35b81801561013257600080fd5b5061014661014136600461302a565b610230565b005b610113611077565b610113611086565b610113611095565b6101136110a4565b6101136110b3565b6101136110c2565b81801561018457600080fd5b506101466101933660046131a6565b6110d1565b610113611de5565b610113611df4565b610113611e03565b610113611e12565b610113611e21565b610113611e30565b610113611e3f565b610113611e4e565b610113611e5d565b610113611e6c565b6101fb6101f63660046131e8565b611e7b565b60405161011d9190613265565b604051602001610217906133a5565b6040516020818303038152906040528051906020012081565b826001600160a01b031663c80f4c6260405160200161024e906133d9565b60405160208183030381529060405280519060200120846040518363ffffffff1660e01b81526004016102829291906133ff565b600060405180830381600087803b15801561029c57600080fd5b505af11580156102b0573d6000803e3d6000fd5b50505050826001600160a01b031663c80f4c626102d46102cf84515190565b612ccd565b846040518363ffffffff1660e01b81526004016102f29291906133ff565b600060405180830381600087803b15801561030c57600080fd5b505af1158015610320573d6000803e3d6000fd5b50505050826001600160a01b031663ca446dd9836040516020016103439061340d565b6040516020818303038152906040528051906020012060405160200161036a9291906133ff565b6040516020818303038152906040528051906020012061038984515190565b6040518363ffffffff1660e01b81526004016103a692919061342e565b6020604051808303816000875af11580156103c5573d6000803e3d6000fd5b505050506040513d601f19601f820116820180604052508101906103e99190613445565b50826001600160a01b031663ca446dd98360405160200161040990613462565b604051602081830303815290604052805190602001206040516020016104309291906133ff565b6040516020818303038152906040528051906020012061045284516020015190565b6040518363ffffffff1660e01b815260040161046f92919061342e565b6020604051808303816000875af115801561048e573d6000803e3d6000fd5b505050506040513d601f19601f820116820180604052508101906104b29190613445565b50826001600160a01b031663ca446dd9836040516020016104d290613484565b604051602081830303815290604052805190602001206040516020016104f99291906133ff565b6040516020818303038152906040528051906020012061051b84516040015190565b6040518363ffffffff1660e01b815260040161053892919061342e565b6020604051808303816000875af1158015610557573d6000803e3d6000fd5b505050506040513d601f19601f8201168201806040525081019061057b9190613445565b50826001600160a01b031663ca446dd98360405160200161059b906134af565b604051602081830303815290604052805190602001206040516020016105c29291906133ff565b604051602081830303815290604052805190602001206105e484516060015190565b6040518363ffffffff1660e01b815260040161060192919061342e565b6020604051808303816000875af1158015610620573d6000803e3d6000fd5b505050506040513d601f19601f820116820180604052508101906106449190613445565b50826001600160a01b031663ca446dd983604051602001610664906134d8565b6040516020818303038152906040528051906020012060405160200161068b9291906133ff565b604051602081830303815290604052805190602001206106ad84516080015190565b6040518363ffffffff1660e01b81526004016106ca92919061342e565b6020604051808303816000875af11580156106e9573d6000803e3d6000fd5b505050506040513d601f19601f8201168201806040525081019061070d9190613445565b50826001600160a01b031663ca446dd98360405160200161072d906134f8565b604051602081830303815290604052805190602001206040516020016107549291906133ff565b60405160208183030381529060405280519060200120610776845160a0015190565b6040518363ffffffff1660e01b815260040161079392919061342e565b6020604051808303816000875af11580156107b2573d6000803e3d6000fd5b505050506040513d601f19601f820116820180604052508101906107d69190613445565b50826001600160a01b031663ca446dd9836040516020016107f690613524565b6040516020818303038152906040528051906020012060405160200161081d9291906133ff565b6040516020818303038152906040528051906020012061083f845160c0015190565b6040518363ffffffff1660e01b815260040161085c92919061342e565b6020604051808303816000875af115801561087b573d6000803e3d6000fd5b505050506040513d601f19601f8201168201806040525081019061089f9190613445565b50826001600160a01b031663ec672cf6836040516020016108bf90613551565b604051602081830303815290604052805190602001206040516020016108e69291906133ff565b60405160208183030381529060405280519060200120610908845160e0015190565b6040518363ffffffff1660e01b815260040161092592919061357f565b600060405180830381600087803b15801561093f57600080fd5b505af1158015610953573d6000803e3d6000fd5b50505050826001600160a01b031663ec672cf683604051602001610976906135d6565b6040516020818303038152906040528051906020012060405160200161099d9291906133ff565b604051602081830303815290604052805190602001206109c08451610100015190565b6040518363ffffffff1660e01b81526004016109dd92919061357f565b600060405180830381600087803b1580156109f757600080fd5b505af1158015610a0b573d6000803e3d6000fd5b50505050826001600160a01b031663e2a4853a83604051602001610a2e90613605565b60405160208183030381529060405280519060200120604051602001610a559291906133ff565b60405160208183030381529060405280519060200120610a7784602001515190565b6040518363ffffffff1660e01b8152600401610a949291906133ff565b6020604051808303816000875af1158015610ab3573d6000803e3d6000fd5b505050506040513d601f19601f82011682018060405250810190610ad79190613638565b50826001600160a01b031663e2a4853a83604051602001610af790613651565b60405160208183030381529060405280519060200120604051602001610b1e9291906133ff565b60405160208183030381529060405280519060200120610b4384602090810151015190565b6040518363ffffffff1660e01b8152600401610b609291906133ff565b6020604051808303816000875af1158015610b7f573d6000803e3d6000fd5b505050506040513d601f19601f82011682018060405250810190610ba39190613638565b50826001600160a01b031663e2a4853a83604051602001610bc390613685565b60405160208183030381529060405280519060200120604051602001610bea9291906133ff565b60405160208183030381529060405280519060200120610c0f84602001516040015190565b6040518363ffffffff1660e01b8152600401610c2c9291906133ff565b6020604051808303816000875af1158015610c4b573d6000803e3d6000fd5b505050506040513d601f19601f82011682018060405250810190610c6f9190613638565b50826001600160a01b031663e2a4853a83604051602001610c8f906136b0565b60405160208183030381529060405280519060200120604051602001610cb69291906133ff565b60405160208183030381529060405280519060200120610cdb84602001516060015190565b6040518363ffffffff1660e01b8152600401610cf89291906133ff565b6020604051808303816000875af1158015610d17573d6000803e3d6000fd5b505050506040513d601f19601f82011682018060405250810190610d3b9190613638565b50826001600160a01b031663e2a4853a83604051602001610d5b906136da565b60405160208183030381529060405280519060200120604051602001610d829291906133ff565b60405160208183030381529060405280519060200120610da784602001516080015190565b6040518363ffffffff1660e01b8152600401610dc49291906133ff565b6020604051808303816000875af1158015610de3573d6000803e3d6000fd5b505050506040513d601f19601f82011682018060405250810190610e079190613638565b50826001600160a01b031663e2a4853a83604051602001610e2790613703565b60405160208183030381529060405280519060200120604051602001610e4e9291906133ff565b60405160208183030381529060405280519060200120610e73846020015160a0015190565b6040518363ffffffff1660e01b8152600401610e909291906133ff565b6020604051808303816000875af1158015610eaf573d6000803e3d6000fd5b505050506040513d601f19601f82011682018060405250810190610ed39190613638565b50826001600160a01b031663e2a4853a83604051602001610ef39061372a565b60405160208183030381529060405280519060200120604051602001610f1a9291906133ff565b60405160208183030381529060405280519060200120610f3f846020015160c0015190565b6040518363ffffffff1660e01b8152600401610f5c9291906133ff565b6020604051808303816000875af1158015610f7b573d6000803e3d6000fd5b505050506040513d601f19601f82011682018060405250810190610f9f9190613638565b50826001600160a01b031663abfdcced83604051602001610fbf906133a5565b60405160208183030381529060405280519060200120604051602001610fe69291906133ff565b6040516020818303038152906040528051906020012061100884604001515190565b6040516001600160e01b031960e085901b1681526004810192909252151560248201526044016020604051808303816000875af115801561104d573d6000803e3d6000fd5b505050506040513d601f19601f820116820180604052508101906110719190613756565b50505050565b6040516020016102179061372a565b60405160200161021790613703565b60405160200161021790613685565b604051602001610217906134f8565b604051602001610217906134af565b604051602001610217906136da565b826001600160a01b03166391d4403c6040516020016110ef906133d9565b60405160208183030381529060405280519060200120846040518363ffffffff1660e01b81526004016111239291906133ff565b602060405180830381865afa158015611140573d6000803e3d6000fd5b505050506040513d601f19601f820116820180604052508101906111649190613756565b6111885760405163087c619560e31b81526004810183905260240160405180910390fd5b826001600160a01b0316639921c3cc6040516020016111a6906133d9565b60405160208183030381529060405280519060200120846040518363ffffffff1660e01b81526004016111da9291906133ff565b600060405180830381600087803b1580156111f457600080fd5b505af1158015611208573d6000803e3d6000fd5b50505050826001600160a01b0316639921c3cc61122483612ccd565b846040518363ffffffff1660e01b81526004016112429291906133ff565b600060405180830381600087803b15801561125c57600080fd5b505af1158015611270573d6000803e3d6000fd5b50505050826001600160a01b0316639faf6fb6836040516020016112939061340d565b604051602081830303815290604052805190602001206040516020016112ba9291906133ff565b604051602081830303815290604052805190602001206040518263ffffffff1660e01b81526004016112ee91815260200190565b600060405180830381600087803b15801561130857600080fd5b505af115801561131c573d6000803e3d6000fd5b50505050826001600160a01b0316639faf6fb68360405160200161133f90613462565b604051602081830303815290604052805190602001206040516020016113669291906133ff565b604051602081830303815290604052805190602001206040518263ffffffff1660e01b815260040161139a91815260200190565b600060405180830381600087803b1580156113b457600080fd5b505af11580156113c8573d6000803e3d6000fd5b50505050826001600160a01b0316639faf6fb6836040516020016113eb90613484565b604051602081830303815290604052805190602001206040516020016114129291906133ff565b604051602081830303815290604052805190602001206040518263ffffffff1660e01b815260040161144691815260200190565b600060405180830381600087803b15801561146057600080fd5b505af1158015611474573d6000803e3d6000fd5b50505050826001600160a01b0316639faf6fb683604051602001611497906134af565b604051602081830303815290604052805190602001206040516020016114be9291906133ff565b604051602081830303815290604052805190602001206040518263ffffffff1660e01b81526004016114f291815260200190565b600060405180830381600087803b15801561150c57600080fd5b505af1158015611520573d6000803e3d6000fd5b50505050826001600160a01b0316639faf6fb683604051602001611543906134d8565b6040516020818303038152906040528051906020012060405160200161156a9291906133ff565b604051602081830303815290604052805190602001206040518263ffffffff1660e01b815260040161159e91815260200190565b600060405180830381600087803b1580156115b857600080fd5b505af11580156115cc573d6000803e3d6000fd5b50505050826001600160a01b0316639faf6fb6836040516020016115ef906134f8565b604051602081830303815290604052805190602001206040516020016116169291906133ff565b604051602081830303815290604052805190602001206040518263ffffffff1660e01b815260040161164a91815260200190565b600060405180830381600087803b15801561166457600080fd5b505af1158015611678573d6000803e3d6000fd5b50505050826001600160a01b0316639faf6fb68360405160200161169b90613524565b604051602081830303815290604052805190602001206040516020016116c29291906133ff565b604051602081830303815290604052805190602001206040518263ffffffff1660e01b81526004016116f691815260200190565b600060405180830381600087803b15801561171057600080fd5b505af1158015611724573d6000803e3d6000fd5b50505050826001600160a01b031663c1dc91828360405160200161174790613551565b6040516020818303038152906040528051906020012060405160200161176e9291906133ff565b604051602081830303815290604052805190602001206040518263ffffffff1660e01b81526004016117a291815260200190565b600060405180830381600087803b1580156117bc57600080fd5b505af11580156117d0573d6000803e3d6000fd5b50505050826001600160a01b031663c1dc9182836040516020016117f3906135d6565b6040516020818303038152906040528051906020012060405160200161181a9291906133ff565b604051602081830303815290604052805190602001206040518263ffffffff1660e01b815260040161184e91815260200190565b600060405180830381600087803b15801561186857600080fd5b505af115801561187c573d6000803e3d6000fd5b50505050826001600160a01b03166342c3bd968360405160200161189f90613605565b604051602081830303815290604052805190602001206040516020016118c69291906133ff565b604051602081830303815290604052805190602001206040518263ffffffff1660e01b81526004016118fa91815260200190565b600060405180830381600087803b15801561191457600080fd5b505af1158015611928573d6000803e3d6000fd5b50505050826001600160a01b03166342c3bd968360405160200161194b90613651565b604051602081830303815290604052805190602001206040516020016119729291906133ff565b604051602081830303815290604052805190602001206040518263ffffffff1660e01b81526004016119a691815260200190565b600060405180830381600087803b1580156119c057600080fd5b505af11580156119d4573d6000803e3d6000fd5b50505050826001600160a01b03166342c3bd96836040516020016119f790613685565b60405160208183030381529060405280519060200120604051602001611a1e9291906133ff565b604051602081830303815290604052805190602001206040518263ffffffff1660e01b8152600401611a5291815260200190565b600060405180830381600087803b158015611a6c57600080fd5b505af1158015611a80573d6000803e3d6000fd5b50505050826001600160a01b03166342c3bd9683604051602001611aa3906136b0565b60405160208183030381529060405280519060200120604051602001611aca9291906133ff565b604051602081830303815290604052805190602001206040518263ffffffff1660e01b8152600401611afe91815260200190565b600060405180830381600087803b158015611b1857600080fd5b505af1158015611b2c573d6000803e3d6000fd5b50505050826001600160a01b03166342c3bd9683604051602001611b4f906136da565b60405160208183030381529060405280519060200120604051602001611b769291906133ff565b604051602081830303815290604052805190602001206040518263ffffffff1660e01b8152600401611baa91815260200190565b600060405180830381600087803b158015611bc457600080fd5b505af1158015611bd8573d6000803e3d6000fd5b50505050826001600160a01b03166342c3bd9683604051602001611bfb90613703565b60405160208183030381529060405280519060200120604051602001611c229291906133ff565b604051602081830303815290604052805190602001206040518263ffffffff1660e01b8152600401611c5691815260200190565b600060405180830381600087803b158015611c7057600080fd5b505af1158015611c84573d6000803e3d6000fd5b50505050826001600160a01b03166342c3bd9683604051602001611ca79061372a565b60405160208183030381529060405280519060200120604051602001611cce9291906133ff565b604051602081830303815290604052805190602001206040518263ffffffff1660e01b8152600401611d0291815260200190565b600060405180830381600087803b158015611d1c57600080fd5b505af1158015611d30573d6000803e3d6000fd5b50505050826001600160a01b0316639fe7ac1283604051602001611d53906133a5565b60405160208183030381529060405280519060200120604051602001611d7a9291906133ff565b604051602081830303815290604052805190602001206040518263ffffffff1660e01b8152600401611dae91815260200190565b600060405180830381600087803b158015611dc857600080fd5b505af1158015611ddc573d6000803e3d6000fd5b50505050505050565b60405160200161021790613484565b60405160200161021790613651565b60405160200161021790613462565b60405160200161021790613551565b60405160200161021790613524565b60405160200161021790613605565b604051602001610217906135d6565b6040516020016102179061340d565b604051602001610217906136b0565b604051602001610217906134d8565b611e83612d4c565b611e8b612d4c565b836001600160a01b03166391d4403c604051602001611ea9906133d9565b60405160208183030381529060405280519060200120856040518363ffffffff1660e01b8152600401611edd9291906133ff565b602060405180830381865afa158015611efa573d6000803e3d6000fd5b505050506040513d601f19601f82011682018060405250810190611f1e9190613756565b611f29579050612cc7565b611ff8846001600160a01b03166321f8a72185604051602001611f4b9061340d565b60405160208183030381529060405280519060200120604051602001611f729291906133ff565b604051602081830303815290604052805190602001206040518263ffffffff1660e01b8152600401611fa691815260200190565b602060405180830381865afa158015611fc3573d6000803e3d6000fd5b505050506040513d601f19601f82011682018060405250810190611fe79190613445565b82516001600160a01b039091169052565b6120cb846001600160a01b03166321f8a7218560405160200161201a90613462565b604051602081830303815290604052805190602001206040516020016120419291906133ff565b604051602081830303815290604052805190602001206040518263ffffffff1660e01b815260040161207591815260200190565b602060405180830381865afa158015612092573d6000803e3d6000fd5b505050506040513d601f19601f820116820180604052508101906120b69190613445565b82516001600160a01b03909116602090910152565b61219e846001600160a01b03166321f8a721856040516020016120ed90613484565b604051602081830303815290604052805190602001206040516020016121149291906133ff565b604051602081830303815290604052805190602001206040518263ffffffff1660e01b815260040161214891815260200190565b602060405180830381865afa158015612165573d6000803e3d6000fd5b505050506040513d601f19601f820116820180604052508101906121899190613445565b82516001600160a01b03909116604090910152565b612271846001600160a01b03166321f8a721856040516020016121c0906134af565b604051602081830303815290604052805190602001206040516020016121e79291906133ff565b604051602081830303815290604052805190602001206040518263ffffffff1660e01b815260040161221b91815260200190565b602060405180830381865afa158015612238573d6000803e3d6000fd5b505050506040513d601f19601f8201168201806040525081019061225c9190613445565b82516001600160a01b03909116606090910152565b612344846001600160a01b03166321f8a72185604051602001612293906134d8565b604051602081830303815290604052805190602001206040516020016122ba9291906133ff565b604051602081830303815290604052805190602001206040518263ffffffff1660e01b81526004016122ee91815260200190565b602060405180830381865afa15801561230b573d6000803e3d6000fd5b505050506040513d601f19601f8201168201806040525081019061232f9190613445565b82516001600160a01b03909116608090910152565b612417846001600160a01b03166321f8a72185604051602001612366906134f8565b6040516020818303038152906040528051906020012060405160200161238d9291906133ff565b604051602081830303815290604052805190602001206040518263ffffffff1660e01b81526004016123c191815260200190565b602060405180830381865afa1580156123de573d6000803e3d6000fd5b505050506040513d601f19601f820116820180604052508101906124029190613445565b82516001600160a01b0390911660a090910152565b6124ea846001600160a01b03166321f8a7218560405160200161243990613524565b604051602081830303815290604052805190602001206040516020016124609291906133ff565b604051602081830303815290604052805190602001206040518263ffffffff1660e01b815260040161249491815260200190565b602060405180830381865afa1580156124b1573d6000803e3d6000fd5b505050506040513d601f19601f820116820180604052508101906124d59190613445565b82516001600160a01b0390911660c090910152565b6125b4846001600160a01b0316635948f7338560405160200161250c90613551565b604051602081830303815290604052805190602001206040516020016125339291906133ff565b604051602081830303815290604052805190602001206040518263ffffffff1660e01b815260040161256791815260200190565b600060405180830381865afa158015612584573d6000803e3d6000fd5b505050506040513d6000823e601f3d908101601f191682016040526125ac9190810190613773565b825160e00152565b61267f846001600160a01b0316635948f733856040516020016125d6906135d6565b604051602081830303815290604052805190602001206040516020016125fd9291906133ff565b604051602081830303815290604052805190602001206040518263ffffffff1660e01b815260040161263191815260200190565b600060405180830381865afa15801561264e573d6000803e3d6000fd5b505050506040513d6000823e601f3d908101601f191682016040526126769190810190613773565b82516101000152565b612745846001600160a01b031663bd02d0f5856040516020016126a190613605565b604051602081830303815290604052805190602001206040516020016126c89291906133ff565b604051602081830303815290604052805190602001206040518263ffffffff1660e01b81526004016126fc91815260200190565b602060405180830381865afa158015612719573d6000803e3d6000fd5b505050506040513d601f19601f8201168201806040525081019061273d9190613638565b602083015152565b61280d846001600160a01b031663bd02d0f58560405160200161276790613651565b6040516020818303038152906040528051906020012060405160200161278e9291906133ff565b604051602081830303815290604052805190602001206040518263ffffffff1660e01b81526004016127c291815260200190565b602060405180830381865afa1580156127df573d6000803e3d6000fd5b505050506040513d601f19601f820116820180604052508101906128039190613638565b6020808401510152565b6128d6846001600160a01b031663bd02d0f58560405160200161282f90613685565b604051602081830303815290604052805190602001206040516020016128569291906133ff565b604051602081830303815290604052805190602001206040518263ffffffff1660e01b815260040161288a91815260200190565b602060405180830381865afa1580156128a7573d6000803e3d6000fd5b505050506040513d601f19601f820116820180604052508101906128cb9190613638565b602083015160400152565b61299f846001600160a01b031663bd02d0f5856040516020016128f8906136b0565b6040516020818303038152906040528051906020012060405160200161291f9291906133ff565b604051602081830303815290604052805190602001206040518263ffffffff1660e01b815260040161295391815260200190565b602060405180830381865afa158015612970573d6000803e3d6000fd5b505050506040513d601f19601f820116820180604052508101906129949190613638565b602083015160600152565b612a68846001600160a01b031663bd02d0f5856040516020016129c1906136da565b604051602081830303815290604052805190602001206040516020016129e89291906133ff565b604051602081830303815290604052805190602001206040518263ffffffff1660e01b8152600401612a1c91815260200190565b602060405180830381865afa158015612a39573d6000803e3d6000fd5b505050506040513d601f19601f82011682018060405250810190612a5d9190613638565b602083015160800152565b612b31846001600160a01b031663bd02d0f585604051602001612a8a90613703565b60405160208183030381529060405280519060200120604051602001612ab19291906133ff565b604051602081830303815290604052805190602001206040518263ffffffff1660e01b8152600401612ae591815260200190565b602060405180830381865afa158015612b02573d6000803e3d6000fd5b505050506040513d601f19601f82011682018060405250810190612b269190613638565b602083015160a00152565b612bfa846001600160a01b031663bd02d0f585604051602001612b539061372a565b60405160208183030381529060405280519060200120604051602001612b7a9291906133ff565b604051602081830303815290604052805190602001206040518263ffffffff1660e01b8152600401612bae91815260200190565b602060405180830381865afa158015612bcb573d6000803e3d6000fd5b505050506040513d601f19601f82011682018060405250810190612bef9190613638565b602083015160c00152565b612cc4846001600160a01b0316637ae1cfca85604051602001612c1c906133a5565b60405160208183030381529060405280519060200120604051602001612c439291906133ff565b604051602081830303815290604052805190602001206040518263ffffffff1660e01b8152600401612c7791815260200190565b602060405180830381865afa158015612c94573d6000803e3d6000fd5b505050506040513d601f19601f82011682018060405250810190612cb89190613756565b60408301519015159052565b90505b92915050565b6000604051602001612d07906020808252601490820152731050d0d3d5539517d1115413d4d25517d31254d560621b604082015260600190565b6040516020818303038152906040528051906020012082604051602001612d2f92919061342e565b604051602081830303815290604052805190602001209050919050565b604080516101808101909152600060608083018281526080840183905260a0840183905260c0840183905260e084018390526101008401839052610120840192909252610140830181905261016083015281908152602001612de46040518060e00160405280600081526020016000815260200160008152602001600081526020016000815260200160008152602001600081525090565b81526040805160208181019092526000815291015290565b6001600160a01b0381168114612e1157600080fd5b50565b634e487b7160e01b600052604160045260246000fd5b604051606081016001600160401b0381118282101715612e4c57612e4c612e14565b60405290565b60405161012081016001600160401b0381118282101715612e4c57612e4c612e14565b604051601f8201601f191681016001600160401b0381118282101715612e9d57612e9d612e14565b604052919050565b8035612eb081612dfc565b919050565b60006001600160401b03821115612ece57612ece612e14565b5060051b60200190565b600082601f830112612ee957600080fd5b81356020612efe612ef983612eb5565b612e75565b82815260059290921b84018101918181019086841115612f1d57600080fd5b8286015b84811015612f41578035612f3481612dfc565b8352918301918301612f21565b509695505050505050565b600060e08284031215612f5e57600080fd5b60405160e081016001600160401b0381118282101715612f8057612f80612e14565b8060405250809150823581526020830135602082015260408301356040820152606083013560608201526080830135608082015260a083013560a082015260c083013560c08201525092915050565b8015158114612e1157600080fd5b600060208284031215612fef57600080fd5b604051602081016001600160401b038111828210171561301157613011612e14565b604052905080823561302281612fcf565b905292915050565b60008060006060848603121561303f57600080fd5b833561304a81612dfc565b92506020840135915060408401356001600160401b038082111561306d57600080fd5b818601915061012080838903121561308457600080fd5b61308c612e2a565b83358381111561309b57600080fd5b8401808a038313156130ac57600080fd5b6130b4612e52565b92506130bf81612ea5565b83526130cd60208201612ea5565b60208401526130de60408201612ea5565b60408401526130ef60608201612ea5565b606084015261310060808201612ea5565b608084015261311160a08201612ea5565b60a084015261312260c08201612ea5565b60c084015260e08101358481111561313957600080fd5b6131458b828401612ed8565b60e085015250610100808201358581111561315f57600080fd5b61316b8c828501612ed8565b82860152508383526131808b60208801612f4c565b60208401526131918b828801612fdd565b60408401525050809450505050509250925092565b6000806000606084860312156131bb57600080fd5b83356131c681612dfc565b92506020840135915060408401356131dd81612dfc565b809150509250925092565b600080604083850312156131fb57600080fd5b823561320681612dfc565b946020939093013593505050565b6001600160a01b03169052565b600081518084526020808501945080840160005b8381101561325a5781516001600160a01b031687529582019590820190600101613235565b509495945050505050565b602081526000825161012080602085015261328561014085018351613214565b6020820151613298610160860182613214565b5060408201516132ac610180860182613214565b5060608201516132c06101a0860182613214565b5060808201516132d46101c0860182613214565b5060a08201516132e86101e0860182613214565b5060c08201516132fc610200860182613214565b5060e082015181610220860152613317610260860182613221565b9050610100830151925061013f19858203016102408601526133398184613221565b925050602085015161338d6040860182805182526020810151602083015260408101516040830152606081015160608301526080810151608083015260a081015160a083015260c081015160c08301525050565b50604085015180511515858301525090949350505050565b6020808252601a908201527929a427aaa6222faaa72ba920a82fa720aa24ab22afaa27a5a2a760311b604082015260600190565b6020808252600c908201526b11115413d4d25517d31254d560a21b604082015260600190565b918252602082015260400190565b6020808252600790820152661050d0d3d5539560ca1b604082015260600190565b9182526001600160a01b0316602082015260400190565b60006020828403121561345757600080fd5b8151612cc481612dfc565b6020808252600890820152672922a1a2a4ab22a960c11b604082015260600190565b60208082526011908201527010d05313109050d2d7d0d3d395149050d5607a1b604082015260600190565b6020808252600f908201526e2aa4afa322a2afa922a1a2a4ab22a960891b604082015260600190565b60208082526006908201526513505492d15560d21b604082015260600190565b60208082526012908201527124a724aa24a0a62fa627a723afaa27a5a2a760711b604082015260600190565b60208082526013908201527224a724aa24a0a62fa9a427a92a2faa27a5a2a760691b604082015260600190565b6020808252601490820152730989e9c8ebea89e968a9cbea6ae82a0bea082a8960631b604082015260600190565b6000604082018483526020604081850152818551808452606086019150828701935060005b818110156135c95784516001600160a01b0316835293830193918301916001016135a4565b5090979650505050505050565b6020808252601590820152740a6909ea4a8bea89e968a9cbea6ae82a0bea082a89605b1b604082015260600190565b6020808252601990820152781253925512505317d313d391d7d513d2d15397d05353d55395603a1b604082015260600190565b60006020828403121561364a57600080fd5b5051919050565b6020808252601a90820152791253925512505317d4d213d49517d513d2d15397d05353d5539560321b604082015260600190565b6020808252601190820152704d494e5f4d41524b45545f544f4b454e5360781b604082015260600190565b60208082526010908201526f555044415445445f41545f424c4f434b60801b604082015260600190565b6020808252600f908201526e555044415445445f41545f54494d4560881b604082015260600190565b6020808252600d908201526c455845435554494f4e5f46454560981b604082015260600190565b60208082526012908201527110d05313109050d2d7d1d054d7d31253525560721b604082015260600190565b60006020828403121561376857600080fd5b8151612cc481612fcf565b6000602080838503121561378657600080fd5b82516001600160401b0381111561379c57600080fd5b8301601f810185136137ad57600080fd5b80516137bb612ef982612eb5565b81815260059190911b820183019083810190878311156137da57600080fd5b928401925b828410156138015783516137f281612dfc565b825292840192908401906137df565b97965050505050505056fea2646970667358221220d15b793dd361e1f597eb54ac06912969df2e4d4883da2f30b6508a54fee4d15364736f6c63430008120033",
  "libraries": {},
  "devdoc": {
    "details": "Library for deposit storage functions",
    "kind": "dev",
    "methods": {},
    "title": "DepositStoreUtils",
    "version": 1
  },
  "userdoc": {
    "kind": "user",
    "methods": {},
    "version": 1
  },
  "storageLayout": {
    "storage": [],
    "types": null
  }
}