{
  "address": "0xf40B316bd0FC2f8A50d9898de972c38d2C0FB588",
  "abi": [
    {
      "inputs": [
        {
          "internalType": "contract RoleStore",
          "name": "_roleStore",
          "type": "address"
        }
      ],
      "stateMutability": "nonpayable",
      "type": "constructor"
    },
    {
      "inputs": [
        {
          "internalType": "address",
          "name": "msgSender",
          "type": "address"
        },
        {
          "internalType": "string",
          "name": "role",
          "type": "string"
        }
      ],
      "name": "Unauthorized",
      "type": "error"
    },
    {
      "anonymous": false,
      "inputs": [
        {
          "indexed": false,
          "internalType": "address",
          "name": "prevGov",
          "type": "address"
        },
        {
          "indexed": false,
          "internalType": "address",
          "name": "nextGov",
          "type": "address"
        }
      ],
      "name": "SetGov",
      "type": "event"
    },
    {
      "inputs": [
        {
          "internalType": "bytes32",
          "name": "key",
          "type": "bytes32"
        }
      ],
      "name": "get",
      "outputs": [
        {
          "components": [
            {
              "internalType": "address",
              "name": "account",
              "type": "address"
            },
            {
              "internalType": "address",
              "name": "receiver",
              "type": "address"
            },
            {
              "internalType": "address",
              "name": "callbackContract",
              "type": "address"
            },
            {
              "internalType": "address",
              "name": "market",
              "type": "address"
            },
            {
              "internalType": "uint256",
              "name": "longTokenAmount",
              "type": "uint256"
            },
            {
              "internalType": "uint256",
              "name": "shortTokenAmount",
              "type": "uint256"
            },
            {
              "internalType": "uint256",
              "name": "minMarketTokens",
              "type": "uint256"
            },
            {
              "internalType": "uint256",
              "name": "updatedAtBlock",
              "type": "uint256"
            },
            {
              "internalType": "bool",
              "name": "shouldUnwrapNativeToken",
              "type": "bool"
            },
            {
              "internalType": "uint256",
              "name": "executionFee",
              "type": "uint256"
            },
            {
              "internalType": "uint256",
              "name": "callbackGasLimit",
              "type": "uint256"
            },
            {
              "internalType": "bytes",
              "name": "data",
              "type": "bytes"
            }
          ],
          "internalType": "struct Deposit.Props",
          "name": "",
          "type": "tuple"
        }
      ],
      "stateMutability": "view",
      "type": "function"
    },
    {
      "inputs": [],
      "name": "getDepositCount",
      "outputs": [
        {
          "internalType": "uint256",
          "name": "",
          "type": "uint256"
        }
      ],
      "stateMutability": "view",
      "type": "function"
    },
    {
      "inputs": [
        {
          "internalType": "uint256",
          "name": "start",
          "type": "uint256"
        },
        {
          "internalType": "uint256",
          "name": "end",
          "type": "uint256"
        }
      ],
      "name": "getDepositKeys",
      "outputs": [
        {
          "internalType": "bytes32[]",
          "name": "",
          "type": "bytes32[]"
        }
      ],
      "stateMutability": "view",
      "type": "function"
    },
    {
      "inputs": [],
      "name": "gov",
      "outputs": [
        {
          "internalType": "address",
          "name": "",
          "type": "address"
        }
      ],
      "stateMutability": "view",
      "type": "function"
    },
    {
      "inputs": [
        {
          "internalType": "address",
          "name": "token",
          "type": "address"
        }
      ],
      "name": "recordTransferIn",
      "outputs": [
        {
          "internalType": "uint256",
          "name": "",
          "type": "uint256"
        }
      ],
      "stateMutability": "nonpayable",
      "type": "function"
    },
    {
      "inputs": [
        {
          "internalType": "address payable",
          "name": "receiver",
          "type": "address"
        },
        {
          "internalType": "uint256",
          "name": "amount",
          "type": "uint256"
        }
      ],
      "name": "recoverWnt",
      "outputs": [],
      "stateMutability": "nonpayable",
      "type": "function"
    },
    {
      "inputs": [
        {
          "internalType": "bytes32",
          "name": "key",
          "type": "bytes32"
        }
      ],
      "name": "remove",
      "outputs": [],
      "stateMutability": "nonpayable",
      "type": "function"
    },
    {
      "inputs": [],
      "name": "roleStore",
      "outputs": [
        {
          "internalType": "contract RoleStore",
          "name": "",
          "type": "address"
        }
      ],
      "stateMutability": "view",
      "type": "function"
    },
    {
      "inputs": [
        {
          "internalType": "bytes32",
          "name": "key",
          "type": "bytes32"
        },
        {
          "components": [
            {
              "internalType": "address",
              "name": "account",
              "type": "address"
            },
            {
              "internalType": "address",
              "name": "receiver",
              "type": "address"
            },
            {
              "internalType": "address",
              "name": "callbackContract",
              "type": "address"
            },
            {
              "internalType": "address",
              "name": "market",
              "type": "address"
            },
            {
              "internalType": "uint256",
              "name": "longTokenAmount",
              "type": "uint256"
            },
            {
              "internalType": "uint256",
              "name": "shortTokenAmount",
              "type": "uint256"
            },
            {
              "internalType": "uint256",
              "name": "minMarketTokens",
              "type": "uint256"
            },
            {
              "internalType": "uint256",
              "name": "updatedAtBlock",
              "type": "uint256"
            },
            {
              "internalType": "bool",
              "name": "shouldUnwrapNativeToken",
              "type": "bool"
            },
            {
              "internalType": "uint256",
              "name": "executionFee",
              "type": "uint256"
            },
            {
              "internalType": "uint256",
              "name": "callbackGasLimit",
              "type": "uint256"
            },
            {
              "internalType": "bytes",
              "name": "data",
              "type": "bytes"
            }
          ],
          "internalType": "struct Deposit.Props",
          "name": "deposit",
          "type": "tuple"
        }
      ],
      "name": "set",
      "outputs": [],
      "stateMutability": "nonpayable",
      "type": "function"
    },
    {
      "inputs": [
        {
          "internalType": "address",
          "name": "_gov",
          "type": "address"
        }
      ],
      "name": "setGov",
      "outputs": [],
      "stateMutability": "nonpayable",
      "type": "function"
    },
    {
      "inputs": [
        {
          "internalType": "address",
          "name": "",
          "type": "address"
        }
      ],
      "name": "tokenBalances",
      "outputs": [
        {
          "internalType": "uint256",
          "name": "",
          "type": "uint256"
        }
      ],
      "stateMutability": "view",
      "type": "function"
    },
    {
      "inputs": [
        {
          "internalType": "address",
          "name": "token",
          "type": "address"
        },
        {
          "internalType": "uint256",
          "name": "amount",
          "type": "uint256"
        },
        {
          "internalType": "address",
          "name": "receiver",
          "type": "address"
        }
      ],
      "name": "transferOut",
      "outputs": [],
      "stateMutability": "nonpayable",
      "type": "function"
    },
    {
      "inputs": [
        {
          "internalType": "address",
          "name": "wnt",
          "type": "address"
        },
        {
          "internalType": "address",
          "name": "token",
          "type": "address"
        },
        {
          "internalType": "uint256",
          "name": "amount",
          "type": "uint256"
        },
        {
          "internalType": "address",
          "name": "receiver",
          "type": "address"
        },
        {
          "internalType": "bool",
          "name": "shouldUnwrapNativeToken",
          "type": "bool"
        }
      ],
      "name": "transferOut",
      "outputs": [],
      "stateMutability": "nonpayable",
      "type": "function"
    },
    {
      "stateMutability": "payable",
      "type": "receive"
    }
  ],
  "transactionHash": "0xc808a19601e117698e04e2e1070b5ce531c9994adc1df93467bb3c6ad73d58e1",
  "args": [
    "0xFc371E380262536c819D12B9569106bf032cC41c"
  ],
  "numDeployments": 1,
  "solcInputHash": "635dda53de9b7a48407bbc874989be1e",
  "bytecode": "0x60a060405234801561001057600080fd5b5060405161189838038061189883398101604081905261002f916100b3565b8080808061003c33610052565b6001600160a01b0316608052506100e392505050565b600080546001600160a01b038381166001600160a01b031983168117909355604080519190921680825260208201939093527f53351836099c03ffc3b1727d8abd4b0222afa87d4ed76ae3102d51369ef7f785910160405180910390a15050565b6000602082840312156100c557600080fd5b81516001600160a01b03811681146100dc57600080fd5b9392505050565b6080516117936101056000396000818161014a01526107d801526117936000f3fe6080604052600436106100a65760003560e01c806312d43a51146100b25780632d891fba146100e8578063352f9aed1461010a5780634a4a7b0414610138578063523fba7f1461016c5780638eaa6ac0146101995780639363a141146101c657806393a97118146101db57806395bc267314610208578063cfad57a214610228578063f5f3ac5d14610248578063f949893814610268578063fabd2ba31461028857600080fd5b366100ad57005b600080fd5b3480156100be57600080fd5b506000546100d2906001600160a01b031681565b6040516100df9190611006565b60405180910390f35b3480156100f457600080fd5b5061010861010336600461103a565b6102a8565b005b34801561011657600080fd5b5061012a61012536600461107c565b610308565b6040519081526020016100df565b34801561014457600080fd5b506100d27f000000000000000000000000000000000000000000000000000000000000000081565b34801561017857600080fd5b5061012a61018736600461107c565b60016020526000908152604090205481565b3480156101a557600080fd5b506101b96101b4366004611099565b61032d565b6040516100df9190611102565b3480156101d257600080fd5b5061012a6104f7565b3480156101e757600080fd5b506101fb6101f63660046111c5565b610508565b6040516100df91906111e7565b34801561021457600080fd5b50610108610223366004611099565b61051f565b34801561023457600080fd5b5061010861024336600461107c565b6105c6565b34801561025457600080fd5b5061010861026336600461122b565b610620565b34801561027457600080fd5b50610108610283366004611270565b610668565b34801561029457600080fd5b506101086102a33660046113a3565b6106bf565b6102f86040516020016102ba906114b2565b604051602081830303815290604052805190602001206040518060400160405280600a81526020016921a7a72a2927a62622a960b11b8152506107c1565b610303838383610871565b505050565b600061031c6040516020016102ba906114b2565b610325826108b6565b90505b919050565b6103b760405180610180016040528060006001600160a01b0316815260200160006001600160a01b0316815260200160006001600160a01b0316815260200160006001600160a01b03168152602001600081526020016000815260200160008152602001600081526020016000151581526020016000815260200160008152602001606081525090565b60008281526002602081815260409283902083516101808101855281546001600160a01b039081168252600183015481169382019390935292810154821693830193909352600383015416606082015260048201546080820152600582015460a0820152600682015460c0820152600782015460e0820152600882015460ff1615156101008201526009820154610120820152600a820154610140820152600b820180549192916101608401919061046e906114d6565b80601f016020809104026020016040519081016040528092919081815260200182805461049a906114d6565b80156104e75780601f106104bc576101008083540402835291602001916104e7565b820191906000526020600020905b8154815290600101906020018083116104ca57829003601f168201915b5050505050815250509050919050565b60006105036003610967565b905090565b606061051660038484610971565b90505b92915050565b6105316040516020016102ba906114b2565b6000818152600260208190526040822080546001600160a01b03199081168255600182018054821690559181018054831690556003810180549092169091556004810182905560058101829055600681018290556007810182905560088101805460ff1916905560098101829055600a8101829055906105b4600b830182610fab565b506105c29050600382610a33565b5050565b6000546001600160a01b03163314610614576040805163a35b150b60e01b81523360048201526024810191909152600360448201526223a7ab60e91b60648201526084015b60405180910390fd5b61061d81610a3f565b50565b6106326040516020016102ba906114b2565b6040516001600160a01b0383169082156108fc029083906000818181858888f19350505050158015610303573d6000803e3d6000fd5b61067a6040516020016102ba906114b2565b846001600160a01b0316846001600160a01b03161480156106985750805b156106ad576106a8848484610aa0565b6106b8565b6106b8848484610871565b5050505050565b6106d16040516020016102ba906114b2565b600082815260026020818152604092839020845181546001600160a01b03199081166001600160a01b0392831617835592860151600183018054851691831691909117905593850151928101805483169385169390931790925560608401516003830180549092169316929092179091556080820151600482015560a0820151600582015560c0820151600682015560e0820151600782015561010082015160088201805460ff19169115159190911790556101208201516009820155610140820151600a820155610160820151829190600b8201906107b1908261155e565b5061030391506003905083610b62565b60405163ac4ab3fb60e01b81526001600160a01b037f0000000000000000000000000000000000000000000000000000000000000000169063ac4ab3fb9061080f903390869060040161161d565b602060405180830381865afa15801561082c573d6000803e3d6000fd5b505050506040513d601f19601f820116820180604052508101906108509190611636565b6105c257338160405163a35b150b60e01b815260040161060b929190611653565b306001600160a01b038216036108995760405162461bcd60e51b815260040161060b90611677565b6108ad6001600160a01b0384168284610b6e565b61030383610bc4565b6001600160a01b0381166000818152600160205260408082205490516370a0823160e01b8152919290918391906370a08231906108f7903090600401611006565b602060405180830381865afa158015610914573d6000803e3d6000fd5b505050506040513d601f19601f8201168201806040525081019061093891906116a7565b6001600160a01b0385166000908152600160205260409020819055905061095f82826116d6565b949350505050565b6000610325825490565b6060600061097e85610967565b90508083111561098c578092505b600061099885856116d6565b6001600160401b038111156109af576109af6112d8565b6040519080825280602002602001820160405280156109d8578160200160208202803683370190505b509050845b84811015610a27576109ef8782610c4d565b826109fa88846116d6565b81518110610a0a57610a0a6116e9565b602090810291909101015280610a1f816116ff565b9150506109dd565b509150505b9392505050565b60006105168383610c59565b600080546001600160a01b038381166001600160a01b031983168117909355604080519190921680825260208201939093527f53351836099c03ffc3b1727d8abd4b0222afa87d4ed76ae3102d51369ef7f785910160405180910390a15050565b306001600160a01b03821603610ac85760405162461bcd60e51b815260040161060b90611677565b604051632e1a7d4d60e01b8152600481018390526001600160a01b03841690632e1a7d4d90602401600060405180830381600087803b158015610b0a57600080fd5b505af1158015610b1e573d6000803e3d6000fd5b50506040516001600160a01b038416925084156108fc02915084906000818181858888f19350505050158015610b58573d6000803e3d6000fd5b5061030383610bc4565b60006105168383610d4c565b6103038363a9059cbb60e01b8484604051602401610b8d92919061161d565b60408051601f198184030181529190526020810180516001600160e01b03166001600160e01b031990931692909217909152610d9b565b6040516370a0823160e01b81526001600160a01b038216906370a0823190610bf0903090600401611006565b602060405180830381865afa158015610c0d573d6000803e3d6000fd5b505050506040513d601f19601f82011682018060405250810190610c3191906116a7565b6001600160a01b03909116600090815260016020526040902055565b60006105168383610e6d565b60008181526001830160205260408120548015610d42576000610c7d6001836116d6565b8554909150600090610c91906001906116d6565b9050818114610cf6576000866000018281548110610cb157610cb16116e9565b9060005260206000200154905080876000018481548110610cd457610cd46116e9565b6000918252602080832090910192909255918252600188019052604090208390555b8554869080610d0757610d07611718565b600190038181906000526020600020016000905590558560010160008681526020019081526020016000206000905560019350505050610519565b6000915050610519565b6000818152600183016020526040812054610d9357508154600181810184556000848152602080822090930184905584548482528286019093526040902091909155610519565b506000610519565b6000610df0826040518060400160405280602081526020017f5361666545524332303a206c6f772d6c6576656c2063616c6c206661696c6564815250856001600160a01b0316610e979092919063ffffffff16565b8051909150156103035780806020019051810190610e0e9190611636565b6103035760405162461bcd60e51b815260206004820152602a60248201527f5361666545524332303a204552433230206f7065726174696f6e20646964206e6044820152691bdd081cdd58d8d9595960b21b606482015260840161060b565b6000826000018281548110610e8457610e846116e9565b9060005260206000200154905092915050565b606061095f8484600085856001600160a01b0385163b610ef95760405162461bcd60e51b815260206004820152601d60248201527f416464726573733a2063616c6c20746f206e6f6e2d636f6e7472616374000000604482015260640161060b565b600080866001600160a01b03168587604051610f15919061172e565b60006040518083038185875af1925050503d8060008114610f52576040519150601f19603f3d011682016040523d82523d6000602084013e610f57565b606091505b5091509150610f67828286610f72565b979650505050505050565b60608315610f81575081610a2c565b825115610f915782518084602001fd5b8160405162461bcd60e51b815260040161060b919061174a565b508054610fb7906114d6565b6000825580601f10610fc7575050565b601f01602090049060005260206000209081019061061d91905b80821115610ff55760008155600101610fe1565b5090565b6001600160a01b03169052565b6001600160a01b0391909116815260200190565b6001600160a01b038116811461061d57600080fd5b80356103288161101a565b60008060006060848603121561104f57600080fd5b833561105a8161101a565b92506020840135915060408401356110718161101a565b809150509250925092565b60006020828403121561108e57600080fd5b8135610a2c8161101a565b6000602082840312156110ab57600080fd5b5035919050565b60005b838110156110cd5781810151838201526020016110b5565b50506000910152565b600081518084526110ee8160208601602086016110b2565b601f01601f19169290920160200192915050565b60208152611114602082018351610ff9565b600060208301516111286040840182610ff9565b50604083015161113b6060840182610ff9565b50606083015161114e6080840182610ff9565b50608083015160a083015260a083015160c083015260c083015160e083015260e08301516101008181850152808501519150506101206111918185018315159052565b840151610140848101919091528401516101608085019190915284015161018080850152905061095f6101a08401826110d6565b600080604083850312156111d857600080fd5b50508035926020909101359150565b6020808252825182820181905260009190848201906040850190845b8181101561121f57835183529284019291840191600101611203565b50909695505050505050565b6000806040838503121561123e57600080fd5b82356112498161101a565b946020939093013593505050565b801515811461061d57600080fd5b803561032881611257565b600080600080600060a0868803121561128857600080fd5b85356112938161101a565b945060208601356112a38161101a565b93506040860135925060608601356112ba8161101a565b915060808601356112ca81611257565b809150509295509295909350565b634e487b7160e01b600052604160045260246000fd5b60405161018081016001600160401b0381118282101715611311576113116112d8565b60405290565b600082601f83011261132857600080fd5b81356001600160401b0380821115611342576113426112d8565b604051601f8301601f19908116603f0116810190828211818310171561136a5761136a6112d8565b8160405283815286602085880101111561138357600080fd5b836020870160208301376000602085830101528094505050505092915050565b600080604083850312156113b657600080fd5b8235915060208301356001600160401b03808211156113d457600080fd5b9084019061018082870312156113e957600080fd5b6113f16112ee565b6113fa8361102f565b81526114086020840161102f565b60208201526114196040840161102f565b604082015261142a6060840161102f565b60608201526080830135608082015260a083013560a082015260c083013560c082015260e083013560e0820152610100611465818501611265565b9082015261012083810135908201526101408084013590820152610160808401358381111561149357600080fd5b61149f89828701611317565b8284015250508093505050509250929050565b6020808252600a908201526921a7a72a2927a62622a960b11b604082015260600190565b600181811c908216806114ea57607f821691505b60208210810361150a57634e487b7160e01b600052602260045260246000fd5b50919050565b601f82111561030357600081815260208120601f850160051c810160208610156115375750805b601f850160051c820191505b8181101561155657828155600101611543565b505050505050565b81516001600160401b03811115611577576115776112d8565b61158b8161158584546114d6565b84611510565b602080601f8311600181146115c057600084156115a85750858301515b600019600386901b1c1916600185901b178555611556565b600085815260208120601f198616915b828110156115ef578886015182559484019460019091019084016115d0565b508582101561160d5787850151600019600388901b60f8161c191681555b5050505050600190811b01905550565b6001600160a01b03929092168252602082015260400190565b60006020828403121561164857600080fd5b8151610a2c81611257565b6001600160a01b038316815260406020820181905260009061095f908301846110d6565b6020808252601690820152752130b7359d1034b73b30b634b2103932b1b2b4bb32b960511b604082015260600190565b6000602082840312156116b957600080fd5b5051919050565b634e487b7160e01b600052601160045260246000fd5b81810381811115610519576105196116c0565b634e487b7160e01b600052603260045260246000fd5b600060018201611711576117116116c0565b5060010190565b634e487b7160e01b600052603160045260246000fd5b600082516117408184602087016110b2565b9190910192915050565b60208152600061051660208301846110d656fea264697066735822122052e7c06435f7c8fe824b73ed8296d1c18b3a1fa6d469d3f37ad86d91fa2ef6eb64736f6c63430008100033",
  "devdoc": {
    "kind": "dev",
    "methods": {},
    "version": 1
  },
  "userdoc": {
    "kind": "user",
    "methods": {},
    "version": 1
  },
  "storageLayout": {
    "storage": [
      {
        "astId": 12130,
        "contract": "contracts/deposit/DepositStore.sol:DepositStore",
        "label": "gov",
        "offset": 0,
        "slot": "0",
        "type": "t_address"
      },
      {
        "astId": 5254,
        "contract": "contracts/deposit/DepositStore.sol:DepositStore",
        "label": "tokenBalances",
        "offset": 0,
        "slot": "1",
        "type": "t_mapping(t_address,t_uint256)"
      },
      {
        "astId": 7771,
        "contract": "contracts/deposit/DepositStore.sol:DepositStore",
        "label": "deposits",
        "offset": 0,
        "slot": "2",
        "type": "t_mapping(t_bytes32,t_struct(Props)7751_storage)"
      },
      {
        "astId": 7774,
        "contract": "contracts/deposit/DepositStore.sol:DepositStore",
        "label": "depositKeys",
        "offset": 0,
        "slot": "3",
        "type": "t_struct(Bytes32Set)4192_storage"
      }
    ],
    "types": {
      "t_address": {
        "encoding": "inplace",
        "label": "address",
        "numberOfBytes": "20"
      },
      "t_array(t_bytes32)dyn_storage": {
        "base": "t_bytes32",
        "encoding": "dynamic_array",
        "label": "bytes32[]",
        "numberOfBytes": "32"
      },
      "t_bool": {
        "encoding": "inplace",
        "label": "bool",
        "numberOfBytes": "1"
      },
      "t_bytes32": {
        "encoding": "inplace",
        "label": "bytes32",
        "numberOfBytes": "32"
      },
      "t_bytes_storage": {
        "encoding": "bytes",
        "label": "bytes",
        "numberOfBytes": "32"
      },
      "t_mapping(t_address,t_uint256)": {
        "encoding": "mapping",
        "key": "t_address",
        "label": "mapping(address => uint256)",
        "numberOfBytes": "32",
        "value": "t_uint256"
      },
      "t_mapping(t_bytes32,t_struct(Props)7751_storage)": {
        "encoding": "mapping",
        "key": "t_bytes32",
        "label": "mapping(bytes32 => struct Deposit.Props)",
        "numberOfBytes": "32",
        "value": "t_struct(Props)7751_storage"
      },
      "t_mapping(t_bytes32,t_uint256)": {
        "encoding": "mapping",
        "key": "t_bytes32",
        "label": "mapping(bytes32 => uint256)",
        "numberOfBytes": "32",
        "value": "t_uint256"
      },
      "t_struct(Bytes32Set)4192_storage": {
        "encoding": "inplace",
        "label": "struct EnumerableSet.Bytes32Set",
        "members": [
          {
            "astId": 4191,
            "contract": "contracts/deposit/DepositStore.sol:DepositStore",
            "label": "_inner",
            "offset": 0,
            "slot": "0",
            "type": "t_struct(Set)3998_storage"
          }
        ],
        "numberOfBytes": "64"
      },
      "t_struct(Props)7751_storage": {
        "encoding": "inplace",
        "label": "struct Deposit.Props",
        "members": [
          {
            "astId": 7728,
            "contract": "contracts/deposit/DepositStore.sol:DepositStore",
            "label": "account",
            "offset": 0,
            "slot": "0",
            "type": "t_address"
          },
          {
            "astId": 7730,
            "contract": "contracts/deposit/DepositStore.sol:DepositStore",
            "label": "receiver",
            "offset": 0,
            "slot": "1",
            "type": "t_address"
          },
          {
            "astId": 7732,
            "contract": "contracts/deposit/DepositStore.sol:DepositStore",
            "label": "callbackContract",
            "offset": 0,
            "slot": "2",
            "type": "t_address"
          },
          {
            "astId": 7734,
            "contract": "contracts/deposit/DepositStore.sol:DepositStore",
            "label": "market",
            "offset": 0,
            "slot": "3",
            "type": "t_address"
          },
          {
            "astId": 7736,
            "contract": "contracts/deposit/DepositStore.sol:DepositStore",
            "label": "longTokenAmount",
            "offset": 0,
            "slot": "4",
            "type": "t_uint256"
          },
          {
            "astId": 7738,
            "contract": "contracts/deposit/DepositStore.sol:DepositStore",
            "label": "shortTokenAmount",
            "offset": 0,
            "slot": "5",
            "type": "t_uint256"
          },
          {
            "astId": 7740,
            "contract": "contracts/deposit/DepositStore.sol:DepositStore",
            "label": "minMarketTokens",
            "offset": 0,
            "slot": "6",
            "type": "t_uint256"
          },
          {
            "astId": 7742,
            "contract": "contracts/deposit/DepositStore.sol:DepositStore",
            "label": "updatedAtBlock",
            "offset": 0,
            "slot": "7",
            "type": "t_uint256"
          },
          {
            "astId": 7744,
            "contract": "contracts/deposit/DepositStore.sol:DepositStore",
            "label": "shouldUnwrapNativeToken",
            "offset": 0,
            "slot": "8",
            "type": "t_bool"
          },
          {
            "astId": 7746,
            "contract": "contracts/deposit/DepositStore.sol:DepositStore",
            "label": "executionFee",
            "offset": 0,
            "slot": "9",
            "type": "t_uint256"
          },
          {
            "astId": 7748,
            "contract": "contracts/deposit/DepositStore.sol:DepositStore",
            "label": "callbackGasLimit",
            "offset": 0,
            "slot": "10",
            "type": "t_uint256"
          },
          {
            "astId": 7750,
            "contract": "contracts/deposit/DepositStore.sol:DepositStore",
            "label": "data",
            "offset": 0,
            "slot": "11",
            "type": "t_bytes_storage"
          }
        ],
        "numberOfBytes": "384"
      },
      "t_struct(Set)3998_storage": {
        "encoding": "inplace",
        "label": "struct EnumerableSet.Set",
        "members": [
          {
            "astId": 3993,
            "contract": "contracts/deposit/DepositStore.sol:DepositStore",
            "label": "_values",
            "offset": 0,
            "slot": "0",
            "type": "t_array(t_bytes32)dyn_storage"
          },
          {
            "astId": 3997,
            "contract": "contracts/deposit/DepositStore.sol:DepositStore",
            "label": "_indexes",
            "offset": 0,
            "slot": "1",
            "type": "t_mapping(t_bytes32,t_uint256)"
          }
        ],
        "numberOfBytes": "64"
      },
      "t_uint256": {
        "encoding": "inplace",
        "label": "uint256",
        "numberOfBytes": "32"
      }
    }
  }
}