{
  "address": "0x1eAdE01fE3d0Dada9F63801EAd16C72b23641bdf",
  "abi": [
    {
      "inputs": [
        {
          "internalType": "contract RoleStore",
          "name": "_roleStore",
          "type": "address"
        },
        {
          "internalType": "contract DataStore",
          "name": "_dataStore",
          "type": "address"
        },
        {
          "internalType": "contract EventEmitter",
          "name": "_eventEmitter",
          "type": "address"
        },
        {
          "internalType": "contract DepositStore",
          "name": "_depositStore",
          "type": "address"
        },
        {
          "internalType": "contract MarketStore",
          "name": "_marketStore",
          "type": "address"
        },
        {
          "internalType": "contract Oracle",
          "name": "_oracle",
          "type": "address"
        },
        {
          "internalType": "contract FeeReceiver",
          "name": "_feeReceiver",
          "type": "address"
        }
      ],
      "stateMutability": "nonpayable",
      "type": "constructor"
    },
    {
      "inputs": [
        {
          "internalType": "bytes32",
          "name": "key",
          "type": "bytes32"
        }
      ],
      "name": "BlockedFeature",
      "type": "error"
    },
    {
      "inputs": [
        {
          "internalType": "uint256",
          "name": "index",
          "type": "uint256"
        }
      ],
      "name": "EmptyCompactedBlockNumber",
      "type": "error"
    },
    {
      "inputs": [],
      "name": "EmptyMarket",
      "type": "error"
    },
    {
      "inputs": [
        {
          "internalType": "uint256",
          "name": "minExecutionFee",
          "type": "uint256"
        },
        {
          "internalType": "uint256",
          "name": "executionFee",
          "type": "uint256"
        }
      ],
      "name": "InsufficientExecutionFee",
      "type": "error"
    },
    {
      "inputs": [
        {
          "internalType": "uint256",
          "name": "received",
          "type": "uint256"
        },
        {
          "internalType": "uint256",
          "name": "expected",
          "type": "uint256"
        }
      ],
      "name": "MinMarketTokens",
      "type": "error"
    },
    {
      "inputs": [
        {
          "internalType": "address",
          "name": "receiver",
          "type": "address"
        },
        {
          "internalType": "uint256",
          "name": "amount",
          "type": "uint256"
        }
      ],
      "name": "NativeTokenTransferError",
      "type": "error"
    },
    {
      "inputs": [
        {
          "internalType": "uint256[]",
          "name": "oracleBlockNumbers",
          "type": "uint256[]"
        },
        {
          "internalType": "uint256",
          "name": "expectedBlockNumber",
          "type": "uint256"
        }
      ],
      "name": "OracleBlockNumbersAreNotEqual",
      "type": "error"
    },
    {
      "inputs": [
        {
          "internalType": "uint256",
          "name": "x",
          "type": "uint256"
        }
      ],
      "name": "PRBMathUD60x18__Exp2InputTooBig",
      "type": "error"
    },
    {
      "inputs": [
        {
          "internalType": "uint256",
          "name": "x",
          "type": "uint256"
        }
      ],
      "name": "PRBMathUD60x18__LogInputTooSmall",
      "type": "error"
    },
    {
      "inputs": [
        {
          "internalType": "uint256",
          "name": "prod1",
          "type": "uint256"
        }
      ],
      "name": "PRBMath__MulDivFixedPointOverflow",
      "type": "error"
    },
    {
      "inputs": [
        {
          "internalType": "address",
          "name": "msgSender",
          "type": "address"
        },
        {
          "internalType": "string",
          "name": "role",
          "type": "string"
        }
      ],
      "name": "Unauthorized",
      "type": "error"
    },
    {
      "anonymous": false,
      "inputs": [
        {
          "indexed": false,
          "internalType": "string",
          "name": "reason",
          "type": "string"
        }
      ],
      "name": "OracleError",
      "type": "event"
    },
    {
      "anonymous": false,
      "inputs": [
        {
          "indexed": false,
          "internalType": "address",
          "name": "prevGov",
          "type": "address"
        },
        {
          "indexed": false,
          "internalType": "address",
          "name": "nextGov",
          "type": "address"
        }
      ],
      "name": "SetGov",
      "type": "event"
    },
    {
      "inputs": [
        {
          "internalType": "bytes32",
          "name": "key",
          "type": "bytes32"
        },
        {
          "components": [
            {
              "internalType": "uint256",
              "name": "signerInfo",
              "type": "uint256"
            },
            {
              "internalType": "address[]",
              "name": "tokens",
              "type": "address[]"
            },
            {
              "internalType": "uint256[]",
              "name": "compactedOracleBlockNumbers",
              "type": "uint256[]"
            },
            {
              "internalType": "uint256[]",
              "name": "compactedOracleTimestamps",
              "type": "uint256[]"
            },
            {
              "internalType": "uint256[]",
              "name": "compactedDecimals",
              "type": "uint256[]"
            },
            {
              "internalType": "uint256[]",
              "name": "compactedMinPrices",
              "type": "uint256[]"
            },
            {
              "internalType": "uint256[]",
              "name": "compactedMinPricesIndexes",
              "type": "uint256[]"
            },
            {
              "internalType": "uint256[]",
              "name": "compactedMaxPrices",
              "type": "uint256[]"
            },
            {
              "internalType": "uint256[]",
              "name": "compactedMaxPricesIndexes",
              "type": "uint256[]"
            },
            {
              "internalType": "bytes[]",
              "name": "signatures",
              "type": "bytes[]"
            },
            {
              "internalType": "address[]",
              "name": "priceFeedTokens",
              "type": "address[]"
            }
          ],
          "internalType": "struct OracleUtils.SetPricesParams",
          "name": "oracleParams",
          "type": "tuple"
        },
        {
          "internalType": "address",
          "name": "keeper",
          "type": "address"
        },
        {
          "internalType": "uint256",
          "name": "startingGas",
          "type": "uint256"
        }
      ],
      "name": "_executeDeposit",
      "outputs": [],
      "stateMutability": "nonpayable",
      "type": "function"
    },
    {
      "inputs": [
        {
          "internalType": "address",
          "name": "account",
          "type": "address"
        },
        {
          "components": [
            {
              "internalType": "address",
              "name": "receiver",
              "type": "address"
            },
            {
              "internalType": "address",
              "name": "callbackContract",
              "type": "address"
            },
            {
              "internalType": "address",
              "name": "market",
              "type": "address"
            },
            {
              "internalType": "uint256",
              "name": "minMarketTokens",
              "type": "uint256"
            },
            {
              "internalType": "bool",
              "name": "shouldUnwrapNativeToken",
              "type": "bool"
            },
            {
              "internalType": "uint256",
              "name": "executionFee",
              "type": "uint256"
            },
            {
              "internalType": "uint256",
              "name": "callbackGasLimit",
              "type": "uint256"
            }
          ],
          "internalType": "struct DepositUtils.CreateDepositParams",
          "name": "params",
          "type": "tuple"
        }
      ],
      "name": "createDeposit",
      "outputs": [
        {
          "internalType": "bytes32",
          "name": "",
          "type": "bytes32"
        }
      ],
      "stateMutability": "nonpayable",
      "type": "function"
    },
    {
      "inputs": [],
      "name": "dataStore",
      "outputs": [
        {
          "internalType": "contract DataStore",
          "name": "",
          "type": "address"
        }
      ],
      "stateMutability": "view",
      "type": "function"
    },
    {
      "inputs": [],
      "name": "depositStore",
      "outputs": [
        {
          "internalType": "contract DepositStore",
          "name": "",
          "type": "address"
        }
      ],
      "stateMutability": "view",
      "type": "function"
    },
    {
      "inputs": [],
      "name": "eventEmitter",
      "outputs": [
        {
          "internalType": "contract EventEmitter",
          "name": "",
          "type": "address"
        }
      ],
      "stateMutability": "view",
      "type": "function"
    },
    {
      "inputs": [
        {
          "internalType": "bytes32",
          "name": "key",
          "type": "bytes32"
        },
        {
          "components": [
            {
              "internalType": "uint256",
              "name": "signerInfo",
              "type": "uint256"
            },
            {
              "internalType": "address[]",
              "name": "tokens",
              "type": "address[]"
            },
            {
              "internalType": "uint256[]",
              "name": "compactedOracleBlockNumbers",
              "type": "uint256[]"
            },
            {
              "internalType": "uint256[]",
              "name": "compactedOracleTimestamps",
              "type": "uint256[]"
            },
            {
              "internalType": "uint256[]",
              "name": "compactedDecimals",
              "type": "uint256[]"
            },
            {
              "internalType": "uint256[]",
              "name": "compactedMinPrices",
              "type": "uint256[]"
            },
            {
              "internalType": "uint256[]",
              "name": "compactedMinPricesIndexes",
              "type": "uint256[]"
            },
            {
              "internalType": "uint256[]",
              "name": "compactedMaxPrices",
              "type": "uint256[]"
            },
            {
              "internalType": "uint256[]",
              "name": "compactedMaxPricesIndexes",
              "type": "uint256[]"
            },
            {
              "internalType": "bytes[]",
              "name": "signatures",
              "type": "bytes[]"
            },
            {
              "internalType": "address[]",
              "name": "priceFeedTokens",
              "type": "address[]"
            }
          ],
          "internalType": "struct OracleUtils.SetPricesParams",
          "name": "oracleParams",
          "type": "tuple"
        }
      ],
      "name": "executeDeposit",
      "outputs": [],
      "stateMutability": "nonpayable",
      "type": "function"
    },
    {
      "inputs": [],
      "name": "feeReceiver",
      "outputs": [
        {
          "internalType": "contract FeeReceiver",
          "name": "",
          "type": "address"
        }
      ],
      "stateMutability": "view",
      "type": "function"
    },
    {
      "inputs": [],
      "name": "gov",
      "outputs": [
        {
          "internalType": "address",
          "name": "",
          "type": "address"
        }
      ],
      "stateMutability": "view",
      "type": "function"
    },
    {
      "inputs": [],
      "name": "marketStore",
      "outputs": [
        {
          "internalType": "contract MarketStore",
          "name": "",
          "type": "address"
        }
      ],
      "stateMutability": "view",
      "type": "function"
    },
    {
      "inputs": [],
      "name": "oracle",
      "outputs": [
        {
          "internalType": "contract Oracle",
          "name": "",
          "type": "address"
        }
      ],
      "stateMutability": "view",
      "type": "function"
    },
    {
      "inputs": [
        {
          "internalType": "address payable",
          "name": "receiver",
          "type": "address"
        },
        {
          "internalType": "uint256",
          "name": "amount",
          "type": "uint256"
        }
      ],
      "name": "recoverNativeToken",
      "outputs": [],
      "stateMutability": "nonpayable",
      "type": "function"
    },
    {
      "inputs": [],
      "name": "roleStore",
      "outputs": [
        {
          "internalType": "contract RoleStore",
          "name": "",
          "type": "address"
        }
      ],
      "stateMutability": "view",
      "type": "function"
    },
    {
      "inputs": [
        {
          "internalType": "address",
          "name": "_gov",
          "type": "address"
        }
      ],
      "name": "setGov",
      "outputs": [],
      "stateMutability": "nonpayable",
      "type": "function"
    },
    {
      "stateMutability": "payable",
      "type": "receive"
    }
  ],
  "transactionHash": "0xcb377587522dbfdc669c5fdc9fcc97f443622bdd416077dc288f34a582ad7860",
  "args": [
    "0xdF83f183CCB84bC1d506b8Df372e9Ca3b0a887Ef",
    "0x9e246820c923ba257Ca692DC2E6e7ac6B8593027",
    "0xBA43a3958e5f49993888a1dd79733E219D4c491F",
    "0x973E8EcdE70a727AcB1d0E7A3d699B77E7998AbE",
    "0x9c7654625B7Da078636c53475E7dfF5ac217fBA3",
    "0x4F5027Bf32b3EA1466a25123C54D7cDb32b8A1Cb",
    "0x1Cdba8714362c7EE3308ccA2bFc014fbaD49b15c"
  ],
  "numDeployments": 3,
  "solcInputHash": "9131db804ccad546fe9ad8de3266575d",
  "bytecode": "0x6101606040523480156200001257600080fd5b5060405162005fa938038062005fa98339810160408190526200003591620000fe565b6001600055868681620000483362000084565b6001600160a01b0390811660805290811660a05295861660c0525092841660e05290831661010052821661012052166101405250620001a99050565b600180546001600160a01b038381166001600160a01b031983168117909355604080519190921680825260208201939093527f53351836099c03ffc3b1727d8abd4b0222afa87d4ed76ae3102d51369ef7f785910160405180910390a15050565b6001600160a01b0381168114620000fb57600080fd5b50565b600080600080600080600060e0888a0312156200011a57600080fd5b87516200012781620000e5565b60208901519097506200013a81620000e5565b60408901519096506200014d81620000e5565b60608901519095506200016081620000e5565b60808901519094506200017381620000e5565b60a08901519093506200018681620000e5565b60c08901519092506200019981620000e5565b8091505092959891949750929550565b60805160a05160c05160e051610100516101205161014051615cf6620002b36000396000818161026e01526105570152600081816101a40152818161034f01526105280152600081816102a2015281816104f90152818161075c015281816109790152610a4101526000818161023a015281816104ca0152818161073b015281816109580152610a20015260008181610206015281816103910152818161049b0152818161071a0152818161093701526109ff01526000818161015001528181610370015281816104180152818161046c01528181610661015281816106cc015281816106f90152818161091601526109de01526000818161011c01526113b10152615cf66000f3fe6080604052600436106100a65760003560e01c806312d43a51146100b257806345528d69146100e85780634a4a7b041461010a578063660d0d671461013e5780636bd3d451146101725780637dc0d1d01461019257806396340f4e146101c65780639ff78c30146101f4578063a25dfba714610228578063b3f006741461025c578063b8d2c69314610290578063cfad57a2146102c4578063e46db7d1146102e457600080fd5b366100ad57005b600080fd5b3480156100be57600080fd5b506001546100d2906001600160a01b031681565b6040516100df919061482b565b60405180910390f35b3480156100f457600080fd5b50610108610103366004614b17565b610304565b005b34801561011657600080fd5b506100d27f000000000000000000000000000000000000000000000000000000000000000081565b34801561014a57600080fd5b506100d27f000000000000000000000000000000000000000000000000000000000000000081565b34801561017e57600080fd5b5061010861018d366004614cfc565b61060c565b34801561019e57600080fd5b506100d27f000000000000000000000000000000000000000000000000000000000000000081565b3480156101d257600080fd5b506101e66101e1366004614d28565b61068b565b6040519081526020016100df565b34801561020057600080fd5b506100d27f000000000000000000000000000000000000000000000000000000000000000081565b34801561023457600080fd5b506100d27f000000000000000000000000000000000000000000000000000000000000000081565b34801561026857600080fd5b506100d27f000000000000000000000000000000000000000000000000000000000000000081565b34801561029c57600080fd5b506100d27f000000000000000000000000000000000000000000000000000000000000000081565b3480156102d057600080fd5b506101086102df366004614d6a565b61079c565b3480156102f057600080fd5b506101086102ff366004614d87565b6107f1565b33301461034d576040805163a35b150b60e01b815233600480830191909152602482019290925260448101919091526329a2a62360e11b60648201526084015b60405180910390fd5b7f00000000000000000000000000000000000000000000000000000000000000007f00000000000000000000000000000000000000000000000000000000000000007f000000000000000000000000000000000000000000000000000000000000000085836001600160a01b0316633608d9e08484846040518463ffffffff1660e01b81526004016103e193929190614eee565b600060405180830381600087803b1580156103fb57600080fd5b505af115801561040f573d6000803e3d6000fd5b505050506104457f000000000000000000000000000000000000000000000000000000000000000061044030610a73565b610afb565b600061045a8860400151896020015151610b26565b905060006040518061014001604052807f00000000000000000000000000000000000000000000000000000000000000006001600160a01b031681526020017f00000000000000000000000000000000000000000000000000000000000000006001600160a01b031681526020017f00000000000000000000000000000000000000000000000000000000000000006001600160a01b031681526020017f00000000000000000000000000000000000000000000000000000000000000006001600160a01b031681526020017f00000000000000000000000000000000000000000000000000000000000000006001600160a01b031681526020017f00000000000000000000000000000000000000000000000000000000000000006001600160a01b031681526020018b8152602001838152602001896001600160a01b031681526020018881525090506105ae81610bbc565b5050836001600160a01b031662ccf1556040518163ffffffff1660e01b8152600401600060405180830381600087803b1580156105ea57600080fd5b505af11580156105fe573d6000803e3d6000fd5b505050505050505050505050565b61065c60405160200161061e9061503e565b604051602081830303815290604052805190602001206040518060400160405280600a81526020016921a7a72a2927a62622a960b11b81525061139a565b6106877f0000000000000000000000000000000000000000000000000000000000000000838361144a565b5050565b60006002600054036106af5760405162461bcd60e51b815260040161034490615062565b60026000556040516106c79061061e9060200161503e565b6106f47f000000000000000000000000000000000000000000000000000000000000000061044030611601565b6107907f00000000000000000000000000000000000000000000000000000000000000007f00000000000000000000000000000000000000000000000000000000000000007f00000000000000000000000000000000000000000000000000000000000000007f00000000000000000000000000000000000000000000000000000000000000008761078b368990038901896150b2565b61163d565b60016000559392505050565b6001546001600160a01b031633146107e5576040805163a35b150b60e01b81523360048201526024810191909152600360448201526223a7ab60e91b6064820152608401610344565b6107ee81611a4f565b50565b6002600054036108135760405162461bcd60e51b815260040161034490615062565b600260005560405161088c9061084c906020016020808252600c908201526b27a92222a92fa5a2a2a822a960a11b604082015260600190565b604051602081830303815290604052805190602001206040518060400160405280600c81526020016b27a92222a92fa5a2a2a822a960a11b81525061139a565b60005a6040516345528d6960e01b815290915030906345528d69906108bb9086908690339087906004016152bf565b600060405180830381600087803b1580156108d557600080fd5b505af19250505080156108e6575060015b610a69576108f2615493565b806308c379a0036109a757506109066154af565b8061091157506109a9565b6109a17f00000000000000000000000000000000000000000000000000000000000000007f00000000000000000000000000000000000000000000000000000000000000007f00000000000000000000000000000000000000000000000000000000000000007f000000000000000000000000000000000000000000000000000000000000000088338888611ab0565b50610a69565b505b3d8080156109d3576040519150601f19603f3d011682016040523d82523d6000602084013e6109d8565b606091505b506109a17f00000000000000000000000000000000000000000000000000000000000000007f00000000000000000000000000000000000000000000000000000000000000007f00000000000000000000000000000000000000000000000000000000000000007f000000000000000000000000000000000000000000000000000000000000000088338888611ab0565b5050600160005550565b6000604051602001610ab090602080825260179082015276455845435554455f4445504f5349545f4645415455524560481b604082015260600190565b60408051601f198184030181528282528051602091820120908301526001600160a01b038416908201526060015b604051602081830303815290604052805190602001209050919050565b610b058282611ddd565b1561068757604051630827f79760e41b815260048101829052602401610344565b60606000826001600160401b03811115610b4257610b4261483f565b604051908082528060200260200182016040528015610b6b578160200160208202803683370190505b50905060005b83811015610bb257610b838582611e50565b828281518110610b9557610b95615538565b602090810291909101015280610baa81615564565b915050610b71565b5090505b92915050565b600081604001516001600160a01b0316638eaa6ac08360c001516040518263ffffffff1660e01b8152600401610bf491815260200190565b600060405180830381865afa158015610c11573d6000803e3d6000fd5b505050506040513d6000823e601f3d908101601f19168201604052610c399190810190615694565b90506000610c4682515190565b6001600160a01b031603610c6c5760405162461bcd60e51b815260040161034490615799565b610c89610c7e82602001516060015190565b60e084015190611e8d565b610ca957610ca98260e00151610ca483602001516060015190565b611ee0565b610cb78260c0015182611efd565b600082606001516001600160a01b031663c2bc2efc610cd884516060015190565b6040518263ffffffff1660e01b8152600401610cf4919061482b565b600060405180830381865afa158015610d11573d6000803e3d6000fd5b505050506040513d6000823e601f3d908101601f19168201604052610d3991908101906157ce565b9050600083608001516001600160a01b0316635dcf719483604001516040518263ffffffff1660e01b8152600401610d71919061482b565b6040805180830381865afa158015610d8d573d6000803e3d6000fd5b505050506040513d601f19601f82011682018060405250810190610db1919061588a565b9050600084608001516001600160a01b0316635dcf719484606001516040518263ffffffff1660e01b8152600401610de9919061482b565b6040805180830381865afa158015610e05573d6000803e3d6000fd5b505050506040513d601f19601f82011682018060405250810190610e29919061588a565b90506000610e3683611f9c565b602086015151610e4691906158d8565b90506000610e5383611f9c565b6020808801510151610e6591906158d8565b9050600080610f286040518061010001604052808b600001516001600160a01b0316815260200189600001516001600160a01b0316815260200189604001516001600160a01b0316815260200189606001516001600160a01b03168152602001610ece89611f9c565b8152602001610edc88611f9c565b8152602001610f03610eed8a611f9c565b60208d0151515b610efe91906158d8565b611fbe565b8152602001610f21610f1489611f9c565b6020808e01510151610ef4565b905261202c565b90506000610f3889602001515190565b11156110875788604001516001600160a01b0316632d891fba8860400151610f628b602001515190565b8a516040516001600160e01b031960e086901b168152610f87939291906004016158f7565b600060405180830381600087803b158015610fa157600080fd5b505af1158015610fb5573d6000803e3d6000fd5b505050506000604051806101200160405280898152602001610fd68b515190565b6001600160a01b03168152602001610ff08b516020015190565b6001600160a01b0316815260200189604001516001600160a01b0316815260200189606001516001600160a01b0316815260200188815260200187815260200161103c8b602001515190565b815260200161104e610efe878961591a565b61105788611fbe565b611061908661592d565b61106b91906159c8565b905290506110798a82612057565b611083908461591a565b9250505b6020888101510151156111e35788604001516001600160a01b0316632d891fba88606001516110bb8b602090810151015190565b8a516040516001600160e01b031960e086901b1681526110e0939291906004016158f7565b600060405180830381600087803b1580156110fa57600080fd5b505af115801561110e573d6000803e3d6000fd5b50505050600060405180610120016040528089815260200161112f8b515190565b6001600160a01b031681526020016111498b516020015190565b6001600160a01b0316815260200189606001516001600160a01b0316815260200189604001516001600160a01b031681526020018781526020018881526020016111988b602090810151015190565b81526020016111aa610efe878961591a565b6111b387611fbe565b6111bd908661592d565b6111c791906159c8565b905290506111d58a82612057565b6111df908461591a565b9250505b60208801516040015182101561121e578161120389602001516040015190565b60405163036711a360e51b81526004016103449291906159f6565b88604001516001600160a01b03166395bc26738a60c001516040518263ffffffff1660e01b815260040161125491815260200190565b600060405180830381600087803b15801561126e57600080fd5b505af1158015611282573d6000803e3d6000fd5b5050505088602001516001600160a01b0316630380fb798a60c001516040518263ffffffff1660e01b81526004016112bc91815260200190565b600060405180830381600087803b1580156112d657600080fd5b505af11580156112ea573d6000803e3d6000fd5b505050506112fc8960c00151896121f6565b7338F024Ab4ea7bC35fce81A470cdF0BE0B905088C635a3911ca8a600001518b6040015161132f8c602001516080015190565b6101208e01516101008f01518e51516040518763ffffffff1660e01b815260040161135f96959493929190615a04565b60006040518083038186803b15801561137757600080fd5b505af415801561138b573d6000803e3d6000fd5b50505050505050505050505050565b60405163ac4ab3fb60e01b81526001600160a01b037f0000000000000000000000000000000000000000000000000000000000000000169063ac4ab3fb906113e89033908690600401615a3e565b602060405180830381865afa158015611405573d6000803e3d6000fd5b505050506040513d601f19601f820116820180604052508101906114299190615a57565b61068757338160405163a35b150b60e01b8152600401610344929190615a74565b8060000361145757505050565b6000836001600160a01b031663bd02d0f56040516020016114a9906020808252601f908201527f4e41544956455f544f4b454e5f5452414e534645525f4741535f4c494d495400604082015260600190565b604051602081830303815290604052805190602001206040518263ffffffff1660e01b81526004016114dd91815260200190565b602060405180830381865afa1580156114fa573d6000803e3d6000fd5b505050506040513d601f19601f8201168201806040525081019061151e9190615a98565b9050600080846001600160a01b0316848490604051600060405180830381858888f193505050503d8060008114611571576040519150601f19603f3d011682016040523d82523d6000602084013e611576565b606091505b5091509150811561158957505050505050565b60008160405160200161159c9190615ab1565b60405160208183030381529060405290507f6c4e9d88878940a822d239187b8b00d62a80dce222d53bc5f1fb072d9c34b681816040516115dc9190615ab1565b60405180910390a18585604051633828654560e11b8152600401610344929190615a3e565b6000604051602001610ab0906020808252601690820152754352454154455f4445504f5349545f4645415455524560501b604082015260600190565b60008061164e858460400151612232565b90506000866001600160a01b031663352f9aed83604001516040518263ffffffff1660e01b8152600401611682919061482b565b6020604051808303816000875af11580156116a1573d6000803e3d6000fd5b505050506040513d601f19601f820116820180604052508101906116c59190615a98565b90506000876001600160a01b031663352f9aed84606001516040518263ffffffff1660e01b81526004016116f9919061482b565b6020604051808303816000875af1158015611718573d6000803e3d6000fd5b505050506040513d601f19601f8201168201806040525081019061173c9190615a98565b905060006117498b6122d9565b9050806001600160a01b031684604001516001600160a01b03160361177e5760a08601516117779084615ac4565b925061187a565b806001600160a01b031684606001516001600160a01b0316036117b15760a08601516117aa9083615ac4565b915061187a565b60405163352f9aed60e01b81526000906001600160a01b038b169063352f9aed906117e090859060040161482b565b6020604051808303816000875af11580156117ff573d6000803e3d6000fd5b505050506040513d601f19601f820116820180604052508101906118239190615a98565b90508660a0015181146118785760405162461bcd60e51b815260206004820152601f60248201527f4465706f7369745574696c733a20696e76616c696420776e74416d6f756e74006044820152606401610344565b505b6000604051806080016040528060405180608001604052808b6001600160a01b031681526020018a600001516001600160a01b031681526020018a602001516001600160a01b0316815260200188600001516001600160a01b031681525081526020016040518060c001604052808781526020018681526020018a606001518152602001611906612386565b81526020018a60a0015181526020018a60c00151815250815260200160405180602001604052808a6080015115158152508152602001604051806020016040528060008152508152509050600061195d8d8361240c565b905061196e8d828a60a0015161254d565b60006119798e612595565b60405163ba76abf360e01b81529091506001600160a01b038d169063ba76abf3906119aa9084908790600401615ad7565b600060405180830381600087803b1580156119c457600080fd5b505af11580156119d8573d6000803e3d6000fd5b505050508c6001600160a01b031663be3121bc82856040518363ffffffff1660e01b8152600401611a0a929190615ad7565b600060405180830381600087803b158015611a2457600080fd5b505af1158015611a38573d6000803e3d6000fd5b509299505050505050505050509695505050505050565b600180546001600160a01b038381166001600160a01b031983168117909355604080519190921680825260208201939093527f53351836099c03ffc3b1727d8abd4b0222afa87d4ed76ae3102d51369ef7f785910160405180910390a15050565b60405163023aa9ab60e61b8152600481018590526000906001600160a01b03881690638eaa6ac090602401600060405180830381865afa158015611af8573d6000803e3d6000fd5b505050506040513d6000823e601f3d908101601f19168201604052611b209190810190615694565b90506000611b2d82515190565b6001600160a01b031603611b535760405162461bcd60e51b815260040161034490615799565b6000611b6a87611b6584516060015190565b612232565b90506000611b7a83602001515190565b1115611bfb57876001600160a01b03166388d44f418260400151611ba085602001515190565b8551516040870151516040518563ffffffff1660e01b8152600401611bc89493929190615b96565b600060405180830381600087803b158015611be257600080fd5b505af1158015611bf6573d6000803e3d6000fd5b505050505b602082810151015115611c8657876001600160a01b03166388d44f418260600151611c2b85602090810151015190565b8551516040870151516040518563ffffffff1660e01b8152600401611c539493929190615b96565b600060405180830381600087803b158015611c6d57600080fd5b505af1158015611c81573d6000803e3d6000fd5b505050505b6040516395bc267360e01b8152600481018790526001600160a01b038916906395bc267390602401600060405180830381600087803b158015611cc857600080fd5b505af1158015611cdc573d6000803e3d6000fd5b505060405163368c4b6360e11b81526001600160a01b038c169250636d1896c69150611d0e9089908790600401615bc0565b600060405180830381600087803b158015611d2857600080fd5b505af1158015611d3c573d6000803e3d6000fd5b50505050611d4a86836125d8565b7338F024Ab4ea7bC35fce81A470cdF0BE0B905088C635a3911ca8b8a611d7586602001516080015190565b888a611d8089515190565b6040518763ffffffff1660e01b8152600401611da196959493929190615a04565b60006040518083038186803b158015611db957600080fd5b505af4158015611dcd573d6000803e3d6000fd5b5050505050505050505050505050565b604051633d70e7e560e11b8152600481018290526000906001600160a01b03841690637ae1cfca90602401602060405180830381865afa158015611e25573d6000803e3d6000fd5b505050506040513d601f19601f82011682018060405250810190611e499190615a57565b9392505050565b600080611e67848460406001600160401b03612614565b905080600003611e495760405163349f5fdd60e11b815260048101849052602401610344565b6000805b8351811015611ed65782848281518110611ead57611ead615538565b602002602001015114611ec4576000915050610bb6565b80611ece81615564565b915050611e91565b5060019392505050565b8181604051630951907360e31b8152600401610344929190615bd9565b611f11611f0c82516040015190565b612687565b611f19575050565b8051604001516001600160a01b031663f992bf1d6002611f3e846020015160a0015190565b611f489190615bfb565b84846040518463ffffffff1660e01b8152600401611f67929190615ad7565b600060405180830381600088803b158015611f8157600080fd5b5087f193505050508015611f93575060015b15610687575050565b6000600282600001518360200151611fb4919061591a565b610bb69190615bfb565b60006001600160ff1b038211156120285760405162461bcd60e51b815260206004820152602860248201527f53616665436173743a2076616c756520646f65736e27742066697420696e2061604482015267371034b73a191a9b60c11b6064820152608401610344565b5090565b600080612038836126be565b9050600061204f8460000151856020015184612793565b949350505050565b6000806120ca84600001518460000151600001518560e001516040516020016120af906020808252601b908201527a2322a2afa922a1a2a4ab22a92fa222a827a9a4aa2fa320a1aa27a960291b604082015260600190565b604051602081830303815290604052805190602001206129fb565b60a08501518451516060860151835160405194955061212a9461210f906020016020808252600b908201526a4445504f5349545f46454560a81b604082015260600190565b60405160208183030381529060405280519060200120612b3b565b83602001516001600160a01b03166347a3b4936040516020016121689060208082526007908201526619195c1bdcda5d60ca1b604082015260600190565b60408051601f1981840301815282825280516020918201206001600160e01b031960e086901b16845260048401528551602484015285015160448301528401516064820152608401600060405180830381600087803b1580156121ca57600080fd5b505af11580156121de573d6000803e3d6000fd5b5050505061204f848483604001518460200151612c13565b612205611f0c82516040015190565b61220d575050565b8051604001516001600160a01b03166338981ab76002611f3e846020015160a0015190565b6040805160a0810182526000808252602082018190528183018190526060808301829052608083015291516330af0bbf60e21b81529091906001600160a01b0385169063c2bc2efc9061228990869060040161482b565b600060405180830381865afa1580156122a6573d6000803e3d6000fd5b505050506040513d6000823e601f3d908101601f191682016040526122ce91908101906157ce565b9050611e4981612eb1565b6000816001600160a01b03166321f8a7216040516020016123119060208082526003908201526215d39560ea1b604082015260600190565b604051602081830303815290604052805190602001206040518263ffffffff1660e01b815260040161234591815260200190565b602060405180830381865afa158015612362573d6000803e3d6000fd5b505050506040513d601f19601f82011682018060405250810190610bb69190615c0f565b600061a4b146148061239a575062066eeb46145b156124075760646001600160a01b031663a3b1b31d6040518163ffffffff1660e01b8152600401602060405180830381865afa1580156123de573d6000803e3d6000fd5b505050506040513d601f19601f820116820180604052508101906124029190615a98565b905090565b504390565b600061241a82602001515190565b158061242b57506020808301510151155b156124c257602082015160a00151836001600160a01b031663bd02d0f56124526001612ed9565b6040518263ffffffff1660e01b815260040161247091815260200190565b602060405180830381865afa15801561248d573d6000803e3d6000fd5b505050506040513d601f19601f820116820180604052508101906124b19190615a98565b6124bb919061591a565b9050610bb6565b602082015160a00151836001600160a01b031663bd02d0f56124e46000612ed9565b6040518263ffffffff1660e01b815260040161250291815260200190565b602060405180830381865afa15801561251f573d6000803e3d6000fd5b505050506040513d601f19601f820116820180604052508101906125439190615a98565b611e49919061591a565b60006125598484612f3b565b905060006125673a836158d8565b90508083101561258e578083604051635dac504d60e01b81526004016103449291906159f6565b5050505050565b6000806125a1836130ed565b90506000816040516020016125b891815260200190565b60408051601f198184030181529190528051602090910120949350505050565b6125e7611f0c82516040015190565b6125ef575050565b8051604001516001600160a01b03166320c955bc6002611f3e846020015160a0015190565b60008061262384610100615bfb565b905060006126318287615bfb565b9050600087828151811061264757612647615538565b60200260200101519050600086848461266091906158d8565b61266a908a615ac4565b61267491906158d8565b9190911c85169350505050949350505050565b60006001600160a01b03821661269f57506000919050565b6001600160a01b0382163b6126b657506000919050565b506001919050565b6126e96040518060800160405280600081526020016000815260200160008152602001600081525090565b600061270283600001518460200151856040015161319f565b9050600061271d84600001518560200151866060015161319f565b9050600084608001518361273191906158d8565b905060008560a001518361274591906158d8565b90506000612757838860c00151613219565b90506000612769838960e00151613219565b60408051608081018252958652602086019490945292840191909152506060820152949350505050565b6000806127a883600001518460200151613249565b905060006127be84604001518560600151613249565b6060850151604086015160208701518751939450909211159111151460006001600160a01b03881663bd02d0f56127f48961326b565b6040518263ffffffff1660e01b815260040161281291815260200190565b602060405180830381865afa15801561282f573d6000803e3d6000fd5b505050506040513d601f19601f820116820180604052508101906128539190615a98565b905081156128f45783831060006001600160a01b038a1663bd02d0f56128798b856132ac565b6040518263ffffffff1660e01b815260040161289791815260200190565b602060405180830381865afa1580156128b4573d6000803e3d6000fd5b505050506040513d601f19601f820116820180604052508101906128d89190615a98565b90506128e78686848487613338565b9650505050505050611e49565b6000886001600160a01b031663bd02d0f56129108a60016132ac565b6040518263ffffffff1660e01b815260040161292e91815260200190565b602060405180830381865afa15801561294b573d6000803e3d6000fd5b505050506040513d601f19601f8201168201806040525081019061296f9190615a98565b90506000896001600160a01b031663bd02d0f561298d8b60006132ac565b6040518263ffffffff1660e01b81526004016129ab91815260200190565b602060405180830381865afa1580156129c8573d6000803e3d6000fd5b505050506040513d601f19601f820116820180604052508101906129ec9190615a98565b90506128e78686848487613373565b612a0361480a565b612a0b61480a565b6000866001600160a01b031663bd02d0f5612a25886133bc565b6040518263ffffffff1660e01b8152600401612a4391815260200190565b602060405180830381865afa158015612a60573d6000803e3d6000fd5b505050506040513d601f19601f82011682018060405250810190612a849190615a98565b60405163bd02d0f560e01b8152600481018690529091506000906001600160a01b0389169063bd02d0f590602401602060405180830381865afa158015612acf573d6000803e3d6000fd5b505050506040513d601f19601f82011682018060405250810190612af39190615a98565b90506000612b0187846133f1565b9050612b0d81836133f1565b808552612b1a9082615ac4565b6020850152612b298188615ac4565b60408501525091979650505050505050565b811561258e576040516316c48fdd60e11b81526001600160a01b03851690632d891fba90612b7190869086908a906004016158f7565b600060405180830381600087803b158015612b8b57600080fd5b505af1158015612b9f573d6000803e3d6000fd5b50506040516302002bf360e31b8152600481018490526001600160a01b03868116602483015260448201869052881692506310015f989150606401600060405180830381600087803b158015612bf457600080fd5b505af1158015612c08573d6000803e3d6000fd5b505050505050505050565b835183516040810151606086015160009384938493612d00936001600160a01b03908116911614612c48578860c00151612c4e565b8860a001515b8960000151606001516001600160a01b03168a606001516001600160a01b031614612c7d578960c00151612c83565b8960a001515b60808c01518b5160200151604051631773dc6560e21b81526001600160a01b0390921691635dcf719491612cb99160040161482b565b6040805180830381865afa158015612cd5573d6000803e3d6000fd5b505050506040513d601f19601f82011682018060405250810190612cf9919061588a565b6001613414565b865151909150600090612d129061353a565b905060008761010001511315612da3576000612d4f89600001518a602001518a60000151600001518b608001518c60c001518d610100015161357a565b9050612d778860c0015160000151612d66836135f9565b612d7091906158d8565b848461364b565b612d81908561591a565b895160208b01518a515160808c0151939750612d9d9385613682565b50612df1565b6000612dd089600001518a602001518a60000151600001518b606001518c60a001518d610100015161357a565b9050612de3612dde82615c2c565b6135f9565b612ded9088615ac4565b9650505b60a087015151612e0c90612e0590886158d8565b838361364b565b612e16908461591a565b885160208a015189515160608b0151939650612e3e93612e39610efe8b8d61591a565b613682565b86515160408089015190516340c10f1960e01b81526001600160a01b03909216916340c10f1991612e73918790600401615a3e565b600060405180830381600087803b158015612e8d57600080fd5b505af1158015612ea1573d6000803e3d6000fd5b50949a9950505050505050505050565b80516001600160a01b03166107ee576040516302fde0d760e11b815260040160405180910390fd5b6000604051602001612f109060208082526011908201527011115413d4d25517d1d054d7d312535255607a1b604082015260600190565b60408051601f1981840301815282825280516020918201209083015283151590820152606001610ade565b600080836001600160a01b031663bd02d0f5604051602001612f8d906020808252601c908201527b1154d512535055115117d1915157d09054d157d1d054d7d31253525560221b604082015260600190565b604051602081830303815290604052805190602001206040518263ffffffff1660e01b8152600401612fc191815260200190565b602060405180830381865afa158015612fde573d6000803e3d6000fd5b505050506040513d601f19601f820116820180604052508101906130029190615a98565b90506000846001600160a01b031663bd02d0f5604051602001613056906020808252601f908201527f455354494d415445445f4645455f4d554c5449504c4945525f464143544f5200604082015260600190565b604051602081830303815290604052805190602001206040518263ffffffff1660e01b815260040161308a91815260200190565b602060405180830381865afa1580156130a7573d6000803e3d6000fd5b505050506040513d601f19601f820116820180604052508101906130cb9190615a98565b905060006130d985836133f1565b6130e3908461591a565b9695505050505050565b6000816001600160a01b031663340dbab3604051602001613127906020808252600590820152644e4f4e434560d81b604082015260600190565b6040516020818303038152906040528051906020012060016040518363ffffffff1660e01b815260040161315c9291906159f6565b6020604051808303816000875af115801561317b573d6000803e3d6000fd5b505050506040513d601f19601f82011682018060405250810190610bb69190615a98565b6000836001600160a01b031663bd02d0f56131ba858561376d565b6040518263ffffffff1660e01b81526004016131d891815260200190565b602060405180830381865afa1580156131f5573d6000803e3d6000fd5b505050506040513d601f19601f8201168201806040525081019061204f9190615a98565b6000808213156132365761322c826137db565b6124bb908461591a565b61323f826137db565b611e499084615ac4565b60008183116132615761325c8383615ac4565b611e49565b611e498284615ac4565b6000604051602001610ab0906020808252601b908201527a29aba0a82fa4a6a820a1aa2fa2ac2827a722a72a2fa320a1aa27a960291b604082015260600190565b60006040516020016132e49060208082526012908201527129aba0a82fa4a6a820a1aa2fa320a1aa27a960711b604082015260600190565b60408051601f198184030181528282528051602091820120908301526001600160a01b0385169082015282151560608201526080015b60405160208183030381529060405280519060200120905092915050565b6000806133596133498886866137ee565b6133548887876137ee565b613249565b905060006133678287613854565b98975050505050505050565b6000806133818786856137ee565b905060006133908786866137ee565b9050600061339e8383613249565b905060006133ae82848611613854565b9a9950505050505050505050565b6000604051602001610ab0906020808252600f908201526e29aba0a82fa322a2afa320a1aa27a960891b604082015260600190565b600068327cb2734119d3b7a9601e1b61340a83856158d8565b611e499190615bfb565b60008061342a888860000151896040015161319f565b905060006134418989600001518a6060015161319f565b9050600061344f8886613877565b61345990846158d8565b90506134658786613877565b61346f90836158d8565b613479908261591a565b90506134958a8a600001518b604001518c60600151600161388e565b61349f908261591a565b90506134bb8a8a600001518b604001518c60600151600061388e565b6134c5908261591a565b905060006134d78b8b600001516138e0565b90506134e38787613877565b6134ed90826158d8565b6134f7908361591a565b915060006135168c8c600001518d604001518e606001518c8c15613959565b905061352a8361352583615c2c565b613219565b9c9b505050505050505050505050565b6000816001600160a01b03166318160ddd6040518163ffffffff1660e01b8152600401602060405180830381865afa15801561317b573d6000803e3d6000fd5b6000806000831361358c578351613592565b83602001515b90506000808413156135d7576135a782611fbe565b6135b190856159c8565b905060006135c3610efe8b8a8a61398c565b9050808213156135d1578091505b506135e4565b6135e184836139a7565b90505b613367898989896135f486615c2c565b613a14565b6000808212156120285760405162461bcd60e51b815260206004820181905260248201527f53616665436173743a2076616c7565206d75737420626520706f7369746976656044820152606401610344565b6000811580613658575082155b1561366d5761366684613ac5565b9050611e49565b8261367885846158d8565b61204f9190615bfb565b6000856001600160a01b0316639deed1c861369d868661376d565b846040518363ffffffff1660e01b81526004016136bb9291906159f6565b6020604051808303816000875af11580156136da573d6000803e3d6000fd5b505050506040513d601f19601f820116820180604052508101906136fe9190615a98565b60405163f79a52b760e01b81529091506001600160a01b0386169063f79a52b790613733908790879087908790600401615c48565b600060405180830381600087803b15801561374d57600080fd5b505af1158015613761573d6000803e3d6000fd5b50505050505050505050565b600060405160200161379e906020808252600b908201526a1413d3d317d05353d5539560aa1b604082015260600190565b60408051601f198184030181528282528051602091820120908301526001600160a01b03808616918301919091528316606082015260800161331a565b6000808212156120285781600003610bb6565b600068327cb2734119d3b7a9601e1b84101561380c57506000611e49565b600061382861381a86613ac5565b61382385613ac5565b613ad6565b905061383381613b16565b9050600261384182866133f1565b61384b9190615bfb565b95945050505050565b60008115613865576124bb83611fbe565b61386e83611fbe565b6124bb90615c2c565b600081613885578251611e49565b50506020015190565b60008061389e8787878787613b27565b905060006138ad888886613b52565b905060006138bc898987613b6d565b9050806138c983856158d8565b6138d39190615ac4565b9998505050505050505050565b6000826001600160a01b031663bd02d0f56138fa84613b88565b6040518263ffffffff1660e01b815260040161391891815260200190565b602060405180830381865afa158015613935573d6000803e3d6000fd5b505050506040513d601f19601f82011682018060405250810190611e499190615a98565b60008061396c8888888888600189613bc9565b90506000613980898989898960008a613bc9565b90506138d38183615c71565b6000836001600160a01b031663bd02d0f56131ba8585613c5d565b6000808312156139e2576139ba82611fbe565b6139c383611fbe565b6139cd9085615c99565b6139d8906001615c71565b6124bb91906159c8565b6139eb82611fbe565b60016139f684611fbe565b613a009086615c71565b613a0a9190615c99565b611e4991906159c8565b6000856001600160a01b0316639deed1c8613a2f8686613c5d565b846040518363ffffffff1660e01b8152600401613a4d9291906159f6565b6020604051808303816000875af1158015613a6c573d6000803e3d6000fd5b505050506040513d601f19601f82011682018060405250810190613a909190615a98565b60405163eb59c7c160e01b81529091506001600160a01b0386169063eb59c7c190613733908790879087908790600401615c48565b6000610bb664e8d4a5100083615bfb565b600082600003613afc578115613aed5760006124bb565b50670de0b6b3a7640000610bb6565b611e49613b11613b0b85613c9a565b84613d50565b613d5c565b6000610bb664e8d4a51000836158d8565b600080613b3687878786613da2565b90506000613b4688888787613da2565b9050613367818361591a565b6000836001600160a01b031663bd02d0f56131ba8585613e1d565b6000836001600160a01b031663bd02d0f56131ba8585613e5e565b6000604051602001610ab0906020808252601b908201527a1413d4d2551253d397d253541050d517d413d3d317d05353d55395602a1b604082015260600190565b600080613bdc610efe8a8a8a8a89613b27565b90506000613bed8a8a8a8a89613e93565b9050811580613bfa575080155b15613c0a57600092505050613c52565b6000613c17878787613eb2565b90506000613c28610efe83856158d8565b9050600087613c4057613c3b8286615c99565b613c4a565b613c4a8583615c99565b955050505050505b979650505050505050565b600060405160200161379e9060208082526017908201527614d5d05417d253541050d517d413d3d317d05353d55395604a1b604082015260600190565b6000670de0b6b3a7640000821015613cc857604051633621413760e21b815260048101839052602401610344565b6000613cdd670de0b6b3a76400008404613ee9565b670de0b6b3a764000081029250905082811c670de0b6b3a763ffff198101613d06575050919050565b6706f05b59d3b200005b8015613d4857670de0b6b3a7640000828002049150671bc16d674ec800008210613d40579283019260019190911c905b60011c613d10565b505050919050565b6000611e498383613fcc565b6000680a688906bd8b0000008210613d8a57604051634a4f26f160e01b815260048101839052602401610344565b670de0b6b3a7640000604083901b04611e4981614092565b6000846001600160a01b031663bd02d0f5613dbe868686614724565b6040518263ffffffff1660e01b8152600401613ddc91815260200190565b602060405180830381865afa158015613df9573d6000803e3d6000fd5b505050506040513d601f19601f8201168201806040525081019061384b9190615a98565b60006040516020016132e4906020808252601b908201527a21aaa6aaa620aa24ab22afa127a92927aba4a723afa320a1aa27a960291b604082015260600190565b60006040516020016132e4906020808252600f908201526e544f54414c5f424f52524f57494e4760881b604082015260600190565b600080613ea2878787866147b6565b90506000613b46888887876147b6565b60008215613ed15781613ec6578351613666565b506020830151611e49565b81613ee057836020015161204f565b50509051919050565b6000600160801b8210613f0957608091821c91613f06908261591a565b90505b600160401b8210613f2757604091821c91613f24908261591a565b90505b600160201b8210613f4557602091821c91613f42908261591a565b90505b620100008210613f6257601091821c91613f5f908261591a565b90505b6101008210613f7e57600891821c91613f7b908261591a565b90505b60108210613f9957600491821c91613f96908261591a565b90505b60048210613fb457600291821c91613fb1908261591a565b90505b60028210613fc757610bb660018261591a565b919050565b60008080600019848609848602925082811083820303915050670de0b6b3a764000081106140105760405163698d9a0160e11b815260048101829052602401610344565b600080670de0b6b3a764000086880991506706f05b59d3b1ffff821190508260000361404e5780670de0b6b3a7640000850401945050505050610bb6565b620400008285030493909111909103600160ee1b02919091177faccb18165bd6fe31ae1cf318dc5b51eee0e1ba569b88cd74c1773b91fac106690201905092915050565b600160bf1b6001603f1b8216156140b25768016a09e667f3bcc9090260401c5b6001603e1b8216156140cd576801306fe0a31b7152df0260401c5b6001603d1b8216156140e8576801172b83c7d517adce0260401c5b6001603c1b8216156141035768010b5586cf9890f62a0260401c5b6001603b1b82161561411e576801059b0d31585743ae0260401c5b6001603a1b82161561413957680102c9a3e778060ee70260401c5b600160391b8216156141545768010163da9fb33356d80260401c5b600160381b82161561416f57680100b1afa5abcbed610260401c5b600160371b82161561418a5768010058c86da1c09ea20260401c5b600160361b8216156141a5576801002c605e2e8cec500260401c5b600160351b8216156141c057680100162f3904051fa10260401c5b600160341b8216156141db576801000b175effdc76ba0260401c5b600160331b8216156141f657680100058ba01fb9f96d0260401c5b600160321b8216156142115768010002c5cc37da94920260401c5b600160311b82161561422c576801000162e525ee05470260401c5b600160301b8216156142475768010000b17255775c040260401c5b6001602f1b821615614262576801000058b91b5bc9ae0260401c5b6001602e1b82161561427d57680100002c5c89d5ec6d0260401c5b6001602d1b8216156142985768010000162e43f4f8310260401c5b6001602c1b8216156142b357680100000b1721bcfc9a0260401c5b6001602b1b8216156142ce5768010000058b90cf1e6e0260401c5b6001602a1b8216156142e9576801000002c5c863b73f0260401c5b600160291b82161561430457680100000162e430e5a20260401c5b600160281b82161561431f576801000000b1721835510260401c5b600160271b82161561433a57680100000058b90c0b490260401c5b600160261b8216156143555768010000002c5c8601cc0260401c5b600160251b821615614370576801000000162e42fff00260401c5b600160241b82161561438b5768010000000b17217fbb0260401c5b600160231b8216156143a6576801000000058b90bfce0260401c5b600160221b8216156143c157680100000002c5c85fe30260401c5b600160211b8216156143dc5768010000000162e42ff10260401c5b600160201b8216156143f757680100000000b17217f80260401c5b63800000008216156144125768010000000058b90bfc0260401c5b634000000082161561442d576801000000002c5c85fe0260401c5b632000000082161561444857680100000000162e42ff0260401c5b6310000000821615614463576801000000000b17217f0260401c5b630800000082161561447e57680100000000058b90c00260401c5b63040000008216156144995768010000000002c5c8600260401c5b63020000008216156144b4576801000000000162e4300260401c5b63010000008216156144cf5768010000000000b172180260401c5b628000008216156144e9576801000000000058b90c0260401c5b6240000082161561450357680100000000002c5c860260401c5b6220000082161561451d5768010000000000162e430260401c5b6210000082161561453757680100000000000b17210260401c5b620800008216156145515768010000000000058b910260401c5b6204000082161561456b576801000000000002c5c80260401c5b6202000082161561458557680100000000000162e40260401c5b6201000082161561459e5761b172600160401b010260401c5b6180008216156145b6576158b9600160401b010260401c5b6140008216156145ce57612c5d600160401b010260401c5b6120008216156145e65761162e600160401b010260401c5b6110008216156145fe57610b17600160401b010260401c5b6108008216156146165761058c600160401b010260401c5b61040082161561462e576102c6600160401b010260401c5b61020082161561464657610163600160401b010260401c5b61010082161561465d5760b1600160401b010260401c5b6080821615614673576059600160401b010260401c5b604082161561468957602c600160401b010260401c5b602082161561469f576016600160401b010260401c5b60108216156146b557600b600160401b010260401c5b60088216156146cb576006600160401b010260401c5b60048216156146e1576003600160401b010260401c5b60028216156146f7576001600160401b010260401c5b600182161561470d576001600160401b010260401c5b670de0b6b3a76400000260409190911c60bf031c90565b6000604051602001614757906020808252600d908201526c13d4115397d2539511549154d5609a1b604082015260600190565b60408051601f198184030181528282528051602091820120908301526001600160a01b038087169183019190915284166060820152821515608082015260a0016040516020818303038152906040528051906020012090509392505050565b6000846001600160a01b031663bd02d0f5613dbe8686866000604051602001614757906020808252601790820152764f50454e5f494e5445524553545f494e5f544f4b454e5360481b604082015260600190565b60405180606001604052806000815260200160008152602001600081525090565b6001600160a01b0391909116815260200190565b634e487b7160e01b600052604160045260246000fd5b608081016001600160401b03811182821017156148745761487461483f565b60405250565b60a081016001600160401b03811182821017156148745761487461483f565b601f8201601f191681016001600160401b03811182821017156148be576148be61483f565b6040525050565b60405161016081016001600160401b03811182821017156148e8576148e861483f565b60405290565b60006001600160401b038211156149075761490761483f565b5060051b60200190565b6001600160a01b03811681146107ee57600080fd5b8035613fc781614911565b600082601f83011261494257600080fd5b8135602061494f826148ee565b60405161495c8282614899565b83815260059390931b850182019282810191508684111561497c57600080fd5b8286015b848110156149a057803561499381614911565b8352918301918301614980565b509695505050505050565b600082601f8301126149bc57600080fd5b813560206149c9826148ee565b6040516149d68282614899565b83815260059390931b85018201928281019150868411156149f657600080fd5b8286015b848110156149a057803583529183019183016149fa565b60006001600160401b03821115614a2a57614a2a61483f565b50601f01601f191660200190565b600082601f830112614a4957600080fd5b81356020614a56826148ee565b60408051614a648382614899565b84815260059490941b8601830193838101925087851115614a8457600080fd5b8387015b85811015614b0b5780356001600160401b03811115614aa75760008081fd5b8801603f81018a13614ab95760008081fd5b85810135614ac681614a11565b8551614ad28282614899565b8281528c87848601011115614ae957600091508182fd5b828785018a830137600092810189019290925250855250928401928401614a88565b50979650505050505050565b60008060008060808587031215614b2d57600080fd5b8435935060208501356001600160401b0380821115614b4b57600080fd5b908601906101608289031215614b6057600080fd5b614b686148c5565b82358152602083013582811115614b7e57600080fd5b614b8a8a828601614931565b602083015250604083013582811115614ba257600080fd5b614bae8a8286016149ab565b604083015250606083013582811115614bc657600080fd5b614bd28a8286016149ab565b606083015250608083013582811115614bea57600080fd5b614bf68a8286016149ab565b60808301525060a083013582811115614c0e57600080fd5b614c1a8a8286016149ab565b60a08301525060c083013582811115614c3257600080fd5b614c3e8a8286016149ab565b60c08301525060e083013582811115614c5657600080fd5b614c628a8286016149ab565b60e0830152506101008084013583811115614c7c57600080fd5b614c888b8287016149ab565b8284015250506101208084013583811115614ca257600080fd5b614cae8b828701614a38565b8284015250506101408084013583811115614cc857600080fd5b614cd48b828701614931565b828401525050809550505050614cec60408601614926565b9396929550929360600135925050565b60008060408385031215614d0f57600080fd5b8235614d1a81614911565b946020939093013593505050565b600080828403610100811215614d3d57600080fd5b8335614d4881614911565b925060e0601f1982011215614d5c57600080fd5b506020830190509250929050565b600060208284031215614d7c57600080fd5b8135611e4981614911565b60008060408385031215614d9a57600080fd5b8235915060208301356001600160401b03811115614db757600080fd5b83016101608186031215614dca57600080fd5b809150509250929050565b600081518084526020808501945080840160005b83811015614e0e5781516001600160a01b031687529582019590820190600101614de9565b509495945050505050565b600081518084526020808501945080840160005b83811015614e0e57815187529582019590820190600101614e2d565b60005b83811015614e64578181015183820152602001614e4c565b50506000910152565b60008151808452614e85816020860160208601614e49565b601f01601f19169290920160200192915050565b600081518084526020808501808196508360051b8101915082860160005b85811015614ee1578284038952614ecf848351614e6d565b98850198935090840190600101614eb7565b5091979650505050505050565b600060018060a01b03808616835280851660208401525060606040830152825160608301526020830151610160806080850152614f2f6101c0850183614dd5565b91506040850151605f19808685030160a0870152614f4d8483614e19565b935060608701519150808685030160c0870152614f6a8483614e19565b935060808701519150808685030160e0870152614f878483614e19565b935060a08701519150610100818786030181880152614fa68584614e19565b945060c08801519250610120828887030181890152614fc58685614e19565b955060e089015193506101408389880301818a0152614fe48786614e19565b9650828a015194508389880301868a0152614fff8786614e19565b9650818a0151955083898803016101808a015261501c8787614e99565b9650808a0151955050505080868503016101a08701525050613c528282614dd5565b6020808252600a908201526921a7a72a2927a62622a960b11b604082015260600190565b6020808252601f908201527f5265656e7472616e637947756172643a207265656e7472616e742063616c6c00604082015260600190565b80151581146107ee57600080fd5b8035613fc781615099565b600060e082840312156150c457600080fd5b60405160e081016001600160401b03811182821017156150e6576150e661483f565b60405282356150f481614911565b8152602083013561510481614911565b602082015261511560408401614926565b604082015260608301356060820152615130608084016150a7565b608082015260a083013560a082015260c083013560c08201528091505092915050565b6000808335601e1984360301811261516a57600080fd5b83016020810192503590506001600160401b0381111561518957600080fd5b8060051b360382131561519b57600080fd5b9250929050565b8183526000602080850194508260005b85811015614e0e5781356151c581614911565b6001600160a01b0316875295820195908201906001016151b2565b81835260006001600160fb1b038311156151f957600080fd5b8260051b80836020870137939093016020019392505050565b81835281816020850137506000828201602090810191909152601f909101601f19169091010190565b81835260006020808501808196508560051b810191508460005b87811015614ee15782840389528135601e1988360301811261527657600080fd5b870185810190356001600160401b0381111561529157600080fd5b8036038213156152a057600080fd5b6152ab868284615212565b9a87019a9550505090840190600101615255565b848152608060208201528335608082015260006152df6020860186615153565b6101608060a08601526152f76101e0860183856151a2565b92506153066040890189615153565b9250607f19808786030160c08801526153208585846151e0565b945061532f60608b018b615153565b94509150808786030160e08801526153488585846151e0565b945061535760808b018b615153565b945091506101008188870301818901526153728686856151e0565b955061538160a08c018c615153565b955092506101208289880301818a015261539c8787866151e0565b96506153ab60c08d018d615153565b96509350610140838a890301818b01526153c68888876151e0565b97506153d560e08e018e615153565b97509450838a890301868b01526153ed8888876151e0565b97506153fb838e018e615153565b97509550838a8903016101808b01526154158888886151e0565b9750615423828e018e615153565b97509550838a8903016101a08b015261543d88888861523b565b975061544b818e018e615153565b9750955050505080878603016101c0880152505061546a8383836151a2565b935050505061548460408301856001600160a01b03169052565b82606083015295945050505050565b600060033d11156154ac5760046000803e5060005160e01c5b90565b600060443d10156154bd5790565b6040516003193d81016004833e81513d6001600160401b0380831160248401831017156154ec57505050505090565b82850191508151818111156155045750505050505090565b843d870101602082850101111561551e5750505050505090565b61552d60208286010187614899565b509095945050505050565b634e487b7160e01b600052603260045260246000fd5b634e487b7160e01b600052601160045260246000fd5b6000600182016155765761557661554e565b5060010190565b600060c0828403121561558f57600080fd5b60405160c081016001600160401b03811182821017156155b1576155b161483f565b8060405250809150825181526020830151602082015260408301516040820152606083015160608201526080830151608082015260a083015160a08201525092915050565b60006020828403121561560857600080fd5b604051602081016001600160401b038111828210171561562a5761562a61483f565b8060405250809150825161563d81615099565b905292915050565b600082601f83011261565657600080fd5b815161566181614a11565b60405161566e8282614899565b82815285602084870101111561568357600080fd5b61384b836020830160208801614e49565b6000602082840312156156a657600080fd5b81516001600160401b03808211156156bd57600080fd5b908301908185036101808112156156d357600080fd5b6040516156df81614855565b60808212156156ed57600080fd5b60405191506156fb82614855565b835161570681614911565b8252602084015161571681614911565b6020830152604084015161572981614911565b6040830152606084015161573c81614911565b6060830152818152615751876080860161557d565b60208201526157648761014086016155f6565b604082015261016084015191508282111561577e57600080fd5b61578a87838601615645565b60608201529695505050505050565b6020808252601b908201527a11195c1bdcda5d155d1a5b1cce88195b5c1d1e4819195c1bdcda5d602a1b604082015260600190565b6000602082840312156157e057600080fd5b81516001600160401b03808211156157f757600080fd5b9083019060a0828603121561580b57600080fd5b6040516158178161487a565b825161582281614911565b8152602083015161583281614911565b6020820152604083015161584581614911565b6040820152606083015161585881614911565b606082015260808301518281111561586f57600080fd5b61587b87828601615645565b60808301525095945050505050565b60006040828403121561589c57600080fd5b604080519081016001600160401b03811182821017156158be576158be61483f565b604052825181526020928301519281019290925250919050565b60008160001904831182151516156158f2576158f261554e565b500290565b6001600160a01b0393841681526020810192909252909116604082015260600190565b80820180821115610bb657610bb661554e565b60006001600160ff1b03818413828413808216868404861116156159535761595361554e565b600160ff1b60008712828116878305891216156159725761597261554e565b6000871292508782058712848416161561598e5761598e61554e565b878505871281841616156159a4576159a461554e565b505050929093029392505050565b634e487b7160e01b600052601260045260246000fd5b6000826159d7576159d76159b2565b600160ff1b8214600019841416156159f1576159f161554e565b500590565b918252602082015260400190565b6001600160a01b0396871681529486166020860152604085019390935260608401919091528316608083015290911660a082015260c00190565b6001600160a01b03929092168252602082015260400190565b600060208284031215615a6957600080fd5b8151611e4981615099565b6001600160a01b038316815260406020820181905260009061204f90830184614e6d565b600060208284031215615aaa57600080fd5b5051919050565b602081526000611e496020830184614e6d565b81810381811115610bb657610bb661554e565b828152604060208201526000825160018060a01b038082511660408501528060208301511660608501528060408301511660808501528060608301511660a085015250506020830151615b6260c0840182805182526020810151602083015260408101516040830152606081015160608301526080810151608083015260a081015160a08301525050565b506040830151610180615b79818501835115159052565b60608501519150806101a08501525061384b6101c0840182614e6d565b6001600160a01b039485168152602081019390935292166040820152901515606082015260800190565b82815260406020820152600061204f6040830184614e6d565b604081526000615bec6040830185614e19565b90508260208301529392505050565b600082615c0a57615c0a6159b2565b500490565b600060208284031215615c2157600080fd5b8151611e4981614911565b6000600160ff1b8201615c4157615c4161554e565b5060000390565b6001600160a01b0394851681529290931660208301526040820152606081019190915260800190565b8082018281126000831280158216821582161715615c9157615c9161554e565b505092915050565b8181036000831280158383131683831282161715615cb957615cb961554e565b509291505056fea264697066735822122054db6425c1edd5d713f27fc025dad445725e2fd54b43655737fcd3ff41edbf6d64736f6c63430008100033",
  "deployedBytecode": "0x6080604052600436106100a65760003560e01c806312d43a51146100b257806345528d69146100e85780634a4a7b041461010a578063660d0d671461013e5780636bd3d451146101725780637dc0d1d01461019257806396340f4e146101c65780639ff78c30146101f4578063a25dfba714610228578063b3f006741461025c578063b8d2c69314610290578063cfad57a2146102c4578063e46db7d1146102e457600080fd5b366100ad57005b600080fd5b3480156100be57600080fd5b506001546100d2906001600160a01b031681565b6040516100df919061482b565b60405180910390f35b3480156100f457600080fd5b50610108610103366004614b17565b610304565b005b34801561011657600080fd5b506100d27f000000000000000000000000000000000000000000000000000000000000000081565b34801561014a57600080fd5b506100d27f000000000000000000000000000000000000000000000000000000000000000081565b34801561017e57600080fd5b5061010861018d366004614cfc565b61060c565b34801561019e57600080fd5b506100d27f000000000000000000000000000000000000000000000000000000000000000081565b3480156101d257600080fd5b506101e66101e1366004614d28565b61068b565b6040519081526020016100df565b34801561020057600080fd5b506100d27f000000000000000000000000000000000000000000000000000000000000000081565b34801561023457600080fd5b506100d27f000000000000000000000000000000000000000000000000000000000000000081565b34801561026857600080fd5b506100d27f000000000000000000000000000000000000000000000000000000000000000081565b34801561029c57600080fd5b506100d27f000000000000000000000000000000000000000000000000000000000000000081565b3480156102d057600080fd5b506101086102df366004614d6a565b61079c565b3480156102f057600080fd5b506101086102ff366004614d87565b6107f1565b33301461034d576040805163a35b150b60e01b815233600480830191909152602482019290925260448101919091526329a2a62360e11b60648201526084015b60405180910390fd5b7f00000000000000000000000000000000000000000000000000000000000000007f00000000000000000000000000000000000000000000000000000000000000007f000000000000000000000000000000000000000000000000000000000000000085836001600160a01b0316633608d9e08484846040518463ffffffff1660e01b81526004016103e193929190614eee565b600060405180830381600087803b1580156103fb57600080fd5b505af115801561040f573d6000803e3d6000fd5b505050506104457f000000000000000000000000000000000000000000000000000000000000000061044030610a73565b610afb565b600061045a8860400151896020015151610b26565b905060006040518061014001604052807f00000000000000000000000000000000000000000000000000000000000000006001600160a01b031681526020017f00000000000000000000000000000000000000000000000000000000000000006001600160a01b031681526020017f00000000000000000000000000000000000000000000000000000000000000006001600160a01b031681526020017f00000000000000000000000000000000000000000000000000000000000000006001600160a01b031681526020017f00000000000000000000000000000000000000000000000000000000000000006001600160a01b031681526020017f00000000000000000000000000000000000000000000000000000000000000006001600160a01b031681526020018b8152602001838152602001896001600160a01b031681526020018881525090506105ae81610bbc565b5050836001600160a01b031662ccf1556040518163ffffffff1660e01b8152600401600060405180830381600087803b1580156105ea57600080fd5b505af11580156105fe573d6000803e3d6000fd5b505050505050505050505050565b61065c60405160200161061e9061503e565b604051602081830303815290604052805190602001206040518060400160405280600a81526020016921a7a72a2927a62622a960b11b81525061139a565b6106877f0000000000000000000000000000000000000000000000000000000000000000838361144a565b5050565b60006002600054036106af5760405162461bcd60e51b815260040161034490615062565b60026000556040516106c79061061e9060200161503e565b6106f47f000000000000000000000000000000000000000000000000000000000000000061044030611601565b6107907f00000000000000000000000000000000000000000000000000000000000000007f00000000000000000000000000000000000000000000000000000000000000007f00000000000000000000000000000000000000000000000000000000000000007f00000000000000000000000000000000000000000000000000000000000000008761078b368990038901896150b2565b61163d565b60016000559392505050565b6001546001600160a01b031633146107e5576040805163a35b150b60e01b81523360048201526024810191909152600360448201526223a7ab60e91b6064820152608401610344565b6107ee81611a4f565b50565b6002600054036108135760405162461bcd60e51b815260040161034490615062565b600260005560405161088c9061084c906020016020808252600c908201526b27a92222a92fa5a2a2a822a960a11b604082015260600190565b604051602081830303815290604052805190602001206040518060400160405280600c81526020016b27a92222a92fa5a2a2a822a960a11b81525061139a565b60005a6040516345528d6960e01b815290915030906345528d69906108bb9086908690339087906004016152bf565b600060405180830381600087803b1580156108d557600080fd5b505af19250505080156108e6575060015b610a69576108f2615493565b806308c379a0036109a757506109066154af565b8061091157506109a9565b6109a17f00000000000000000000000000000000000000000000000000000000000000007f00000000000000000000000000000000000000000000000000000000000000007f00000000000000000000000000000000000000000000000000000000000000007f000000000000000000000000000000000000000000000000000000000000000088338888611ab0565b50610a69565b505b3d8080156109d3576040519150601f19603f3d011682016040523d82523d6000602084013e6109d8565b606091505b506109a17f00000000000000000000000000000000000000000000000000000000000000007f00000000000000000000000000000000000000000000000000000000000000007f00000000000000000000000000000000000000000000000000000000000000007f000000000000000000000000000000000000000000000000000000000000000088338888611ab0565b5050600160005550565b6000604051602001610ab090602080825260179082015276455845435554455f4445504f5349545f4645415455524560481b604082015260600190565b60408051601f198184030181528282528051602091820120908301526001600160a01b038416908201526060015b604051602081830303815290604052805190602001209050919050565b610b058282611ddd565b1561068757604051630827f79760e41b815260048101829052602401610344565b60606000826001600160401b03811115610b4257610b4261483f565b604051908082528060200260200182016040528015610b6b578160200160208202803683370190505b50905060005b83811015610bb257610b838582611e50565b828281518110610b9557610b95615538565b602090810291909101015280610baa81615564565b915050610b71565b5090505b92915050565b600081604001516001600160a01b0316638eaa6ac08360c001516040518263ffffffff1660e01b8152600401610bf491815260200190565b600060405180830381865afa158015610c11573d6000803e3d6000fd5b505050506040513d6000823e601f3d908101601f19168201604052610c399190810190615694565b90506000610c4682515190565b6001600160a01b031603610c6c5760405162461bcd60e51b815260040161034490615799565b610c89610c7e82602001516060015190565b60e084015190611e8d565b610ca957610ca98260e00151610ca483602001516060015190565b611ee0565b610cb78260c0015182611efd565b600082606001516001600160a01b031663c2bc2efc610cd884516060015190565b6040518263ffffffff1660e01b8152600401610cf4919061482b565b600060405180830381865afa158015610d11573d6000803e3d6000fd5b505050506040513d6000823e601f3d908101601f19168201604052610d3991908101906157ce565b9050600083608001516001600160a01b0316635dcf719483604001516040518263ffffffff1660e01b8152600401610d71919061482b565b6040805180830381865afa158015610d8d573d6000803e3d6000fd5b505050506040513d601f19601f82011682018060405250810190610db1919061588a565b9050600084608001516001600160a01b0316635dcf719484606001516040518263ffffffff1660e01b8152600401610de9919061482b565b6040805180830381865afa158015610e05573d6000803e3d6000fd5b505050506040513d601f19601f82011682018060405250810190610e29919061588a565b90506000610e3683611f9c565b602086015151610e4691906158d8565b90506000610e5383611f9c565b6020808801510151610e6591906158d8565b9050600080610f286040518061010001604052808b600001516001600160a01b0316815260200189600001516001600160a01b0316815260200189604001516001600160a01b0316815260200189606001516001600160a01b03168152602001610ece89611f9c565b8152602001610edc88611f9c565b8152602001610f03610eed8a611f9c565b60208d0151515b610efe91906158d8565b611fbe565b8152602001610f21610f1489611f9c565b6020808e01510151610ef4565b905261202c565b90506000610f3889602001515190565b11156110875788604001516001600160a01b0316632d891fba8860400151610f628b602001515190565b8a516040516001600160e01b031960e086901b168152610f87939291906004016158f7565b600060405180830381600087803b158015610fa157600080fd5b505af1158015610fb5573d6000803e3d6000fd5b505050506000604051806101200160405280898152602001610fd68b515190565b6001600160a01b03168152602001610ff08b516020015190565b6001600160a01b0316815260200189604001516001600160a01b0316815260200189606001516001600160a01b0316815260200188815260200187815260200161103c8b602001515190565b815260200161104e610efe878961591a565b61105788611fbe565b611061908661592d565b61106b91906159c8565b905290506110798a82612057565b611083908461591a565b9250505b6020888101510151156111e35788604001516001600160a01b0316632d891fba88606001516110bb8b602090810151015190565b8a516040516001600160e01b031960e086901b1681526110e0939291906004016158f7565b600060405180830381600087803b1580156110fa57600080fd5b505af115801561110e573d6000803e3d6000fd5b50505050600060405180610120016040528089815260200161112f8b515190565b6001600160a01b031681526020016111498b516020015190565b6001600160a01b0316815260200189606001516001600160a01b0316815260200189604001516001600160a01b031681526020018781526020018881526020016111988b602090810151015190565b81526020016111aa610efe878961591a565b6111b387611fbe565b6111bd908661592d565b6111c791906159c8565b905290506111d58a82612057565b6111df908461591a565b9250505b60208801516040015182101561121e578161120389602001516040015190565b60405163036711a360e51b81526004016103449291906159f6565b88604001516001600160a01b03166395bc26738a60c001516040518263ffffffff1660e01b815260040161125491815260200190565b600060405180830381600087803b15801561126e57600080fd5b505af1158015611282573d6000803e3d6000fd5b5050505088602001516001600160a01b0316630380fb798a60c001516040518263ffffffff1660e01b81526004016112bc91815260200190565b600060405180830381600087803b1580156112d657600080fd5b505af11580156112ea573d6000803e3d6000fd5b505050506112fc8960c00151896121f6565b73__$60bb1dd4670b1e26e5010aaaf2f65694d3$__635a3911ca8a600001518b6040015161132f8c602001516080015190565b6101208e01516101008f01518e51516040518763ffffffff1660e01b815260040161135f96959493929190615a04565b60006040518083038186803b15801561137757600080fd5b505af415801561138b573d6000803e3d6000fd5b50505050505050505050505050565b60405163ac4ab3fb60e01b81526001600160a01b037f0000000000000000000000000000000000000000000000000000000000000000169063ac4ab3fb906113e89033908690600401615a3e565b602060405180830381865afa158015611405573d6000803e3d6000fd5b505050506040513d601f19601f820116820180604052508101906114299190615a57565b61068757338160405163a35b150b60e01b8152600401610344929190615a74565b8060000361145757505050565b6000836001600160a01b031663bd02d0f56040516020016114a9906020808252601f908201527f4e41544956455f544f4b454e5f5452414e534645525f4741535f4c494d495400604082015260600190565b604051602081830303815290604052805190602001206040518263ffffffff1660e01b81526004016114dd91815260200190565b602060405180830381865afa1580156114fa573d6000803e3d6000fd5b505050506040513d601f19601f8201168201806040525081019061151e9190615a98565b9050600080846001600160a01b0316848490604051600060405180830381858888f193505050503d8060008114611571576040519150601f19603f3d011682016040523d82523d6000602084013e611576565b606091505b5091509150811561158957505050505050565b60008160405160200161159c9190615ab1565b60405160208183030381529060405290507f6c4e9d88878940a822d239187b8b00d62a80dce222d53bc5f1fb072d9c34b681816040516115dc9190615ab1565b60405180910390a18585604051633828654560e11b8152600401610344929190615a3e565b6000604051602001610ab0906020808252601690820152754352454154455f4445504f5349545f4645415455524560501b604082015260600190565b60008061164e858460400151612232565b90506000866001600160a01b031663352f9aed83604001516040518263ffffffff1660e01b8152600401611682919061482b565b6020604051808303816000875af11580156116a1573d6000803e3d6000fd5b505050506040513d601f19601f820116820180604052508101906116c59190615a98565b90506000876001600160a01b031663352f9aed84606001516040518263ffffffff1660e01b81526004016116f9919061482b565b6020604051808303816000875af1158015611718573d6000803e3d6000fd5b505050506040513d601f19601f8201168201806040525081019061173c9190615a98565b905060006117498b6122d9565b9050806001600160a01b031684604001516001600160a01b03160361177e5760a08601516117779084615ac4565b925061187a565b806001600160a01b031684606001516001600160a01b0316036117b15760a08601516117aa9083615ac4565b915061187a565b60405163352f9aed60e01b81526000906001600160a01b038b169063352f9aed906117e090859060040161482b565b6020604051808303816000875af11580156117ff573d6000803e3d6000fd5b505050506040513d601f19601f820116820180604052508101906118239190615a98565b90508660a0015181146118785760405162461bcd60e51b815260206004820152601f60248201527f4465706f7369745574696c733a20696e76616c696420776e74416d6f756e74006044820152606401610344565b505b6000604051806080016040528060405180608001604052808b6001600160a01b031681526020018a600001516001600160a01b031681526020018a602001516001600160a01b0316815260200188600001516001600160a01b031681525081526020016040518060c001604052808781526020018681526020018a606001518152602001611906612386565b81526020018a60a0015181526020018a60c00151815250815260200160405180602001604052808a6080015115158152508152602001604051806020016040528060008152508152509050600061195d8d8361240c565b905061196e8d828a60a0015161254d565b60006119798e612595565b60405163ba76abf360e01b81529091506001600160a01b038d169063ba76abf3906119aa9084908790600401615ad7565b600060405180830381600087803b1580156119c457600080fd5b505af11580156119d8573d6000803e3d6000fd5b505050508c6001600160a01b031663be3121bc82856040518363ffffffff1660e01b8152600401611a0a929190615ad7565b600060405180830381600087803b158015611a2457600080fd5b505af1158015611a38573d6000803e3d6000fd5b509299505050505050505050509695505050505050565b600180546001600160a01b038381166001600160a01b031983168117909355604080519190921680825260208201939093527f53351836099c03ffc3b1727d8abd4b0222afa87d4ed76ae3102d51369ef7f785910160405180910390a15050565b60405163023aa9ab60e61b8152600481018590526000906001600160a01b03881690638eaa6ac090602401600060405180830381865afa158015611af8573d6000803e3d6000fd5b505050506040513d6000823e601f3d908101601f19168201604052611b209190810190615694565b90506000611b2d82515190565b6001600160a01b031603611b535760405162461bcd60e51b815260040161034490615799565b6000611b6a87611b6584516060015190565b612232565b90506000611b7a83602001515190565b1115611bfb57876001600160a01b03166388d44f418260400151611ba085602001515190565b8551516040870151516040518563ffffffff1660e01b8152600401611bc89493929190615b96565b600060405180830381600087803b158015611be257600080fd5b505af1158015611bf6573d6000803e3d6000fd5b505050505b602082810151015115611c8657876001600160a01b03166388d44f418260600151611c2b85602090810151015190565b8551516040870151516040518563ffffffff1660e01b8152600401611c539493929190615b96565b600060405180830381600087803b158015611c6d57600080fd5b505af1158015611c81573d6000803e3d6000fd5b505050505b6040516395bc267360e01b8152600481018790526001600160a01b038916906395bc267390602401600060405180830381600087803b158015611cc857600080fd5b505af1158015611cdc573d6000803e3d6000fd5b505060405163368c4b6360e11b81526001600160a01b038c169250636d1896c69150611d0e9089908790600401615bc0565b600060405180830381600087803b158015611d2857600080fd5b505af1158015611d3c573d6000803e3d6000fd5b50505050611d4a86836125d8565b73__$60bb1dd4670b1e26e5010aaaf2f65694d3$__635a3911ca8b8a611d7586602001516080015190565b888a611d8089515190565b6040518763ffffffff1660e01b8152600401611da196959493929190615a04565b60006040518083038186803b158015611db957600080fd5b505af4158015611dcd573d6000803e3d6000fd5b5050505050505050505050505050565b604051633d70e7e560e11b8152600481018290526000906001600160a01b03841690637ae1cfca90602401602060405180830381865afa158015611e25573d6000803e3d6000fd5b505050506040513d601f19601f82011682018060405250810190611e499190615a57565b9392505050565b600080611e67848460406001600160401b03612614565b905080600003611e495760405163349f5fdd60e11b815260048101849052602401610344565b6000805b8351811015611ed65782848281518110611ead57611ead615538565b602002602001015114611ec4576000915050610bb6565b80611ece81615564565b915050611e91565b5060019392505050565b8181604051630951907360e31b8152600401610344929190615bd9565b611f11611f0c82516040015190565b612687565b611f19575050565b8051604001516001600160a01b031663f992bf1d6002611f3e846020015160a0015190565b611f489190615bfb565b84846040518463ffffffff1660e01b8152600401611f67929190615ad7565b600060405180830381600088803b158015611f8157600080fd5b5087f193505050508015611f93575060015b15610687575050565b6000600282600001518360200151611fb4919061591a565b610bb69190615bfb565b60006001600160ff1b038211156120285760405162461bcd60e51b815260206004820152602860248201527f53616665436173743a2076616c756520646f65736e27742066697420696e2061604482015267371034b73a191a9b60c11b6064820152608401610344565b5090565b600080612038836126be565b9050600061204f8460000151856020015184612793565b949350505050565b6000806120ca84600001518460000151600001518560e001516040516020016120af906020808252601b908201527a2322a2afa922a1a2a4ab22a92fa222a827a9a4aa2fa320a1aa27a960291b604082015260600190565b604051602081830303815290604052805190602001206129fb565b60a08501518451516060860151835160405194955061212a9461210f906020016020808252600b908201526a4445504f5349545f46454560a81b604082015260600190565b60405160208183030381529060405280519060200120612b3b565b83602001516001600160a01b03166347a3b4936040516020016121689060208082526007908201526619195c1bdcda5d60ca1b604082015260600190565b60408051601f1981840301815282825280516020918201206001600160e01b031960e086901b16845260048401528551602484015285015160448301528401516064820152608401600060405180830381600087803b1580156121ca57600080fd5b505af11580156121de573d6000803e3d6000fd5b5050505061204f848483604001518460200151612c13565b612205611f0c82516040015190565b61220d575050565b8051604001516001600160a01b03166338981ab76002611f3e846020015160a0015190565b6040805160a0810182526000808252602082018190528183018190526060808301829052608083015291516330af0bbf60e21b81529091906001600160a01b0385169063c2bc2efc9061228990869060040161482b565b600060405180830381865afa1580156122a6573d6000803e3d6000fd5b505050506040513d6000823e601f3d908101601f191682016040526122ce91908101906157ce565b9050611e4981612eb1565b6000816001600160a01b03166321f8a7216040516020016123119060208082526003908201526215d39560ea1b604082015260600190565b604051602081830303815290604052805190602001206040518263ffffffff1660e01b815260040161234591815260200190565b602060405180830381865afa158015612362573d6000803e3d6000fd5b505050506040513d601f19601f82011682018060405250810190610bb69190615c0f565b600061a4b146148061239a575062066eeb46145b156124075760646001600160a01b031663a3b1b31d6040518163ffffffff1660e01b8152600401602060405180830381865afa1580156123de573d6000803e3d6000fd5b505050506040513d601f19601f820116820180604052508101906124029190615a98565b905090565b504390565b600061241a82602001515190565b158061242b57506020808301510151155b156124c257602082015160a00151836001600160a01b031663bd02d0f56124526001612ed9565b6040518263ffffffff1660e01b815260040161247091815260200190565b602060405180830381865afa15801561248d573d6000803e3d6000fd5b505050506040513d601f19601f820116820180604052508101906124b19190615a98565b6124bb919061591a565b9050610bb6565b602082015160a00151836001600160a01b031663bd02d0f56124e46000612ed9565b6040518263ffffffff1660e01b815260040161250291815260200190565b602060405180830381865afa15801561251f573d6000803e3d6000fd5b505050506040513d601f19601f820116820180604052508101906125439190615a98565b611e49919061591a565b60006125598484612f3b565b905060006125673a836158d8565b90508083101561258e578083604051635dac504d60e01b81526004016103449291906159f6565b5050505050565b6000806125a1836130ed565b90506000816040516020016125b891815260200190565b60408051601f198184030181529190528051602090910120949350505050565b6125e7611f0c82516040015190565b6125ef575050565b8051604001516001600160a01b03166320c955bc6002611f3e846020015160a0015190565b60008061262384610100615bfb565b905060006126318287615bfb565b9050600087828151811061264757612647615538565b60200260200101519050600086848461266091906158d8565b61266a908a615ac4565b61267491906158d8565b9190911c85169350505050949350505050565b60006001600160a01b03821661269f57506000919050565b6001600160a01b0382163b6126b657506000919050565b506001919050565b6126e96040518060800160405280600081526020016000815260200160008152602001600081525090565b600061270283600001518460200151856040015161319f565b9050600061271d84600001518560200151866060015161319f565b9050600084608001518361273191906158d8565b905060008560a001518361274591906158d8565b90506000612757838860c00151613219565b90506000612769838960e00151613219565b60408051608081018252958652602086019490945292840191909152506060820152949350505050565b6000806127a883600001518460200151613249565b905060006127be84604001518560600151613249565b6060850151604086015160208701518751939450909211159111151460006001600160a01b03881663bd02d0f56127f48961326b565b6040518263ffffffff1660e01b815260040161281291815260200190565b602060405180830381865afa15801561282f573d6000803e3d6000fd5b505050506040513d601f19601f820116820180604052508101906128539190615a98565b905081156128f45783831060006001600160a01b038a1663bd02d0f56128798b856132ac565b6040518263ffffffff1660e01b815260040161289791815260200190565b602060405180830381865afa1580156128b4573d6000803e3d6000fd5b505050506040513d601f19601f820116820180604052508101906128d89190615a98565b90506128e78686848487613338565b9650505050505050611e49565b6000886001600160a01b031663bd02d0f56129108a60016132ac565b6040518263ffffffff1660e01b815260040161292e91815260200190565b602060405180830381865afa15801561294b573d6000803e3d6000fd5b505050506040513d601f19601f8201168201806040525081019061296f9190615a98565b90506000896001600160a01b031663bd02d0f561298d8b60006132ac565b6040518263ffffffff1660e01b81526004016129ab91815260200190565b602060405180830381865afa1580156129c8573d6000803e3d6000fd5b505050506040513d601f19601f820116820180604052508101906129ec9190615a98565b90506128e78686848487613373565b612a0361480a565b612a0b61480a565b6000866001600160a01b031663bd02d0f5612a25886133bc565b6040518263ffffffff1660e01b8152600401612a4391815260200190565b602060405180830381865afa158015612a60573d6000803e3d6000fd5b505050506040513d601f19601f82011682018060405250810190612a849190615a98565b60405163bd02d0f560e01b8152600481018690529091506000906001600160a01b0389169063bd02d0f590602401602060405180830381865afa158015612acf573d6000803e3d6000fd5b505050506040513d601f19601f82011682018060405250810190612af39190615a98565b90506000612b0187846133f1565b9050612b0d81836133f1565b808552612b1a9082615ac4565b6020850152612b298188615ac4565b60408501525091979650505050505050565b811561258e576040516316c48fdd60e11b81526001600160a01b03851690632d891fba90612b7190869086908a906004016158f7565b600060405180830381600087803b158015612b8b57600080fd5b505af1158015612b9f573d6000803e3d6000fd5b50506040516302002bf360e31b8152600481018490526001600160a01b03868116602483015260448201869052881692506310015f989150606401600060405180830381600087803b158015612bf457600080fd5b505af1158015612c08573d6000803e3d6000fd5b505050505050505050565b835183516040810151606086015160009384938493612d00936001600160a01b03908116911614612c48578860c00151612c4e565b8860a001515b8960000151606001516001600160a01b03168a606001516001600160a01b031614612c7d578960c00151612c83565b8960a001515b60808c01518b5160200151604051631773dc6560e21b81526001600160a01b0390921691635dcf719491612cb99160040161482b565b6040805180830381865afa158015612cd5573d6000803e3d6000fd5b505050506040513d601f19601f82011682018060405250810190612cf9919061588a565b6001613414565b865151909150600090612d129061353a565b905060008761010001511315612da3576000612d4f89600001518a602001518a60000151600001518b608001518c60c001518d610100015161357a565b9050612d778860c0015160000151612d66836135f9565b612d7091906158d8565b848461364b565b612d81908561591a565b895160208b01518a515160808c0151939750612d9d9385613682565b50612df1565b6000612dd089600001518a602001518a60000151600001518b606001518c60a001518d610100015161357a565b9050612de3612dde82615c2c565b6135f9565b612ded9088615ac4565b9650505b60a087015151612e0c90612e0590886158d8565b838361364b565b612e16908461591a565b885160208a015189515160608b0151939650612e3e93612e39610efe8b8d61591a565b613682565b86515160408089015190516340c10f1960e01b81526001600160a01b03909216916340c10f1991612e73918790600401615a3e565b600060405180830381600087803b158015612e8d57600080fd5b505af1158015612ea1573d6000803e3d6000fd5b50949a9950505050505050505050565b80516001600160a01b03166107ee576040516302fde0d760e11b815260040160405180910390fd5b6000604051602001612f109060208082526011908201527011115413d4d25517d1d054d7d312535255607a1b604082015260600190565b60408051601f1981840301815282825280516020918201209083015283151590820152606001610ade565b600080836001600160a01b031663bd02d0f5604051602001612f8d906020808252601c908201527b1154d512535055115117d1915157d09054d157d1d054d7d31253525560221b604082015260600190565b604051602081830303815290604052805190602001206040518263ffffffff1660e01b8152600401612fc191815260200190565b602060405180830381865afa158015612fde573d6000803e3d6000fd5b505050506040513d601f19601f820116820180604052508101906130029190615a98565b90506000846001600160a01b031663bd02d0f5604051602001613056906020808252601f908201527f455354494d415445445f4645455f4d554c5449504c4945525f464143544f5200604082015260600190565b604051602081830303815290604052805190602001206040518263ffffffff1660e01b815260040161308a91815260200190565b602060405180830381865afa1580156130a7573d6000803e3d6000fd5b505050506040513d601f19601f820116820180604052508101906130cb9190615a98565b905060006130d985836133f1565b6130e3908461591a565b9695505050505050565b6000816001600160a01b031663340dbab3604051602001613127906020808252600590820152644e4f4e434560d81b604082015260600190565b6040516020818303038152906040528051906020012060016040518363ffffffff1660e01b815260040161315c9291906159f6565b6020604051808303816000875af115801561317b573d6000803e3d6000fd5b505050506040513d601f19601f82011682018060405250810190610bb69190615a98565b6000836001600160a01b031663bd02d0f56131ba858561376d565b6040518263ffffffff1660e01b81526004016131d891815260200190565b602060405180830381865afa1580156131f5573d6000803e3d6000fd5b505050506040513d601f19601f8201168201806040525081019061204f9190615a98565b6000808213156132365761322c826137db565b6124bb908461591a565b61323f826137db565b611e499084615ac4565b60008183116132615761325c8383615ac4565b611e49565b611e498284615ac4565b6000604051602001610ab0906020808252601b908201527a29aba0a82fa4a6a820a1aa2fa2ac2827a722a72a2fa320a1aa27a960291b604082015260600190565b60006040516020016132e49060208082526012908201527129aba0a82fa4a6a820a1aa2fa320a1aa27a960711b604082015260600190565b60408051601f198184030181528282528051602091820120908301526001600160a01b0385169082015282151560608201526080015b60405160208183030381529060405280519060200120905092915050565b6000806133596133498886866137ee565b6133548887876137ee565b613249565b905060006133678287613854565b98975050505050505050565b6000806133818786856137ee565b905060006133908786866137ee565b9050600061339e8383613249565b905060006133ae82848611613854565b9a9950505050505050505050565b6000604051602001610ab0906020808252600f908201526e29aba0a82fa322a2afa320a1aa27a960891b604082015260600190565b600068327cb2734119d3b7a9601e1b61340a83856158d8565b611e499190615bfb565b60008061342a888860000151896040015161319f565b905060006134418989600001518a6060015161319f565b9050600061344f8886613877565b61345990846158d8565b90506134658786613877565b61346f90836158d8565b613479908261591a565b90506134958a8a600001518b604001518c60600151600161388e565b61349f908261591a565b90506134bb8a8a600001518b604001518c60600151600061388e565b6134c5908261591a565b905060006134d78b8b600001516138e0565b90506134e38787613877565b6134ed90826158d8565b6134f7908361591a565b915060006135168c8c600001518d604001518e606001518c8c15613959565b905061352a8361352583615c2c565b613219565b9c9b505050505050505050505050565b6000816001600160a01b03166318160ddd6040518163ffffffff1660e01b8152600401602060405180830381865afa15801561317b573d6000803e3d6000fd5b6000806000831361358c578351613592565b83602001515b90506000808413156135d7576135a782611fbe565b6135b190856159c8565b905060006135c3610efe8b8a8a61398c565b9050808213156135d1578091505b506135e4565b6135e184836139a7565b90505b613367898989896135f486615c2c565b613a14565b6000808212156120285760405162461bcd60e51b815260206004820181905260248201527f53616665436173743a2076616c7565206d75737420626520706f7369746976656044820152606401610344565b6000811580613658575082155b1561366d5761366684613ac5565b9050611e49565b8261367885846158d8565b61204f9190615bfb565b6000856001600160a01b0316639deed1c861369d868661376d565b846040518363ffffffff1660e01b81526004016136bb9291906159f6565b6020604051808303816000875af11580156136da573d6000803e3d6000fd5b505050506040513d601f19601f820116820180604052508101906136fe9190615a98565b60405163f79a52b760e01b81529091506001600160a01b0386169063f79a52b790613733908790879087908790600401615c48565b600060405180830381600087803b15801561374d57600080fd5b505af1158015613761573d6000803e3d6000fd5b50505050505050505050565b600060405160200161379e906020808252600b908201526a1413d3d317d05353d5539560aa1b604082015260600190565b60408051601f198184030181528282528051602091820120908301526001600160a01b03808616918301919091528316606082015260800161331a565b6000808212156120285781600003610bb6565b600068327cb2734119d3b7a9601e1b84101561380c57506000611e49565b600061382861381a86613ac5565b61382385613ac5565b613ad6565b905061383381613b16565b9050600261384182866133f1565b61384b9190615bfb565b95945050505050565b60008115613865576124bb83611fbe565b61386e83611fbe565b6124bb90615c2c565b600081613885578251611e49565b50506020015190565b60008061389e8787878787613b27565b905060006138ad888886613b52565b905060006138bc898987613b6d565b9050806138c983856158d8565b6138d39190615ac4565b9998505050505050505050565b6000826001600160a01b031663bd02d0f56138fa84613b88565b6040518263ffffffff1660e01b815260040161391891815260200190565b602060405180830381865afa158015613935573d6000803e3d6000fd5b505050506040513d601f19601f82011682018060405250810190611e499190615a98565b60008061396c8888888888600189613bc9565b90506000613980898989898960008a613bc9565b90506138d38183615c71565b6000836001600160a01b031663bd02d0f56131ba8585613c5d565b6000808312156139e2576139ba82611fbe565b6139c383611fbe565b6139cd9085615c99565b6139d8906001615c71565b6124bb91906159c8565b6139eb82611fbe565b60016139f684611fbe565b613a009086615c71565b613a0a9190615c99565b611e4991906159c8565b6000856001600160a01b0316639deed1c8613a2f8686613c5d565b846040518363ffffffff1660e01b8152600401613a4d9291906159f6565b6020604051808303816000875af1158015613a6c573d6000803e3d6000fd5b505050506040513d601f19601f82011682018060405250810190613a909190615a98565b60405163eb59c7c160e01b81529091506001600160a01b0386169063eb59c7c190613733908790879087908790600401615c48565b6000610bb664e8d4a5100083615bfb565b600082600003613afc578115613aed5760006124bb565b50670de0b6b3a7640000610bb6565b611e49613b11613b0b85613c9a565b84613d50565b613d5c565b6000610bb664e8d4a51000836158d8565b600080613b3687878786613da2565b90506000613b4688888787613da2565b9050613367818361591a565b6000836001600160a01b031663bd02d0f56131ba8585613e1d565b6000836001600160a01b031663bd02d0f56131ba8585613e5e565b6000604051602001610ab0906020808252601b908201527a1413d4d2551253d397d253541050d517d413d3d317d05353d55395602a1b604082015260600190565b600080613bdc610efe8a8a8a8a89613b27565b90506000613bed8a8a8a8a89613e93565b9050811580613bfa575080155b15613c0a57600092505050613c52565b6000613c17878787613eb2565b90506000613c28610efe83856158d8565b9050600087613c4057613c3b8286615c99565b613c4a565b613c4a8583615c99565b955050505050505b979650505050505050565b600060405160200161379e9060208082526017908201527614d5d05417d253541050d517d413d3d317d05353d55395604a1b604082015260600190565b6000670de0b6b3a7640000821015613cc857604051633621413760e21b815260048101839052602401610344565b6000613cdd670de0b6b3a76400008404613ee9565b670de0b6b3a764000081029250905082811c670de0b6b3a763ffff198101613d06575050919050565b6706f05b59d3b200005b8015613d4857670de0b6b3a7640000828002049150671bc16d674ec800008210613d40579283019260019190911c905b60011c613d10565b505050919050565b6000611e498383613fcc565b6000680a688906bd8b0000008210613d8a57604051634a4f26f160e01b815260048101839052602401610344565b670de0b6b3a7640000604083901b04611e4981614092565b6000846001600160a01b031663bd02d0f5613dbe868686614724565b6040518263ffffffff1660e01b8152600401613ddc91815260200190565b602060405180830381865afa158015613df9573d6000803e3d6000fd5b505050506040513d601f19601f8201168201806040525081019061384b9190615a98565b60006040516020016132e4906020808252601b908201527a21aaa6aaa620aa24ab22afa127a92927aba4a723afa320a1aa27a960291b604082015260600190565b60006040516020016132e4906020808252600f908201526e544f54414c5f424f52524f57494e4760881b604082015260600190565b600080613ea2878787866147b6565b90506000613b46888887876147b6565b60008215613ed15781613ec6578351613666565b506020830151611e49565b81613ee057836020015161204f565b50509051919050565b6000600160801b8210613f0957608091821c91613f06908261591a565b90505b600160401b8210613f2757604091821c91613f24908261591a565b90505b600160201b8210613f4557602091821c91613f42908261591a565b90505b620100008210613f6257601091821c91613f5f908261591a565b90505b6101008210613f7e57600891821c91613f7b908261591a565b90505b60108210613f9957600491821c91613f96908261591a565b90505b60048210613fb457600291821c91613fb1908261591a565b90505b60028210613fc757610bb660018261591a565b919050565b60008080600019848609848602925082811083820303915050670de0b6b3a764000081106140105760405163698d9a0160e11b815260048101829052602401610344565b600080670de0b6b3a764000086880991506706f05b59d3b1ffff821190508260000361404e5780670de0b6b3a7640000850401945050505050610bb6565b620400008285030493909111909103600160ee1b02919091177faccb18165bd6fe31ae1cf318dc5b51eee0e1ba569b88cd74c1773b91fac106690201905092915050565b600160bf1b6001603f1b8216156140b25768016a09e667f3bcc9090260401c5b6001603e1b8216156140cd576801306fe0a31b7152df0260401c5b6001603d1b8216156140e8576801172b83c7d517adce0260401c5b6001603c1b8216156141035768010b5586cf9890f62a0260401c5b6001603b1b82161561411e576801059b0d31585743ae0260401c5b6001603a1b82161561413957680102c9a3e778060ee70260401c5b600160391b8216156141545768010163da9fb33356d80260401c5b600160381b82161561416f57680100b1afa5abcbed610260401c5b600160371b82161561418a5768010058c86da1c09ea20260401c5b600160361b8216156141a5576801002c605e2e8cec500260401c5b600160351b8216156141c057680100162f3904051fa10260401c5b600160341b8216156141db576801000b175effdc76ba0260401c5b600160331b8216156141f657680100058ba01fb9f96d0260401c5b600160321b8216156142115768010002c5cc37da94920260401c5b600160311b82161561422c576801000162e525ee05470260401c5b600160301b8216156142475768010000b17255775c040260401c5b6001602f1b821615614262576801000058b91b5bc9ae0260401c5b6001602e1b82161561427d57680100002c5c89d5ec6d0260401c5b6001602d1b8216156142985768010000162e43f4f8310260401c5b6001602c1b8216156142b357680100000b1721bcfc9a0260401c5b6001602b1b8216156142ce5768010000058b90cf1e6e0260401c5b6001602a1b8216156142e9576801000002c5c863b73f0260401c5b600160291b82161561430457680100000162e430e5a20260401c5b600160281b82161561431f576801000000b1721835510260401c5b600160271b82161561433a57680100000058b90c0b490260401c5b600160261b8216156143555768010000002c5c8601cc0260401c5b600160251b821615614370576801000000162e42fff00260401c5b600160241b82161561438b5768010000000b17217fbb0260401c5b600160231b8216156143a6576801000000058b90bfce0260401c5b600160221b8216156143c157680100000002c5c85fe30260401c5b600160211b8216156143dc5768010000000162e42ff10260401c5b600160201b8216156143f757680100000000b17217f80260401c5b63800000008216156144125768010000000058b90bfc0260401c5b634000000082161561442d576801000000002c5c85fe0260401c5b632000000082161561444857680100000000162e42ff0260401c5b6310000000821615614463576801000000000b17217f0260401c5b630800000082161561447e57680100000000058b90c00260401c5b63040000008216156144995768010000000002c5c8600260401c5b63020000008216156144b4576801000000000162e4300260401c5b63010000008216156144cf5768010000000000b172180260401c5b628000008216156144e9576801000000000058b90c0260401c5b6240000082161561450357680100000000002c5c860260401c5b6220000082161561451d5768010000000000162e430260401c5b6210000082161561453757680100000000000b17210260401c5b620800008216156145515768010000000000058b910260401c5b6204000082161561456b576801000000000002c5c80260401c5b6202000082161561458557680100000000000162e40260401c5b6201000082161561459e5761b172600160401b010260401c5b6180008216156145b6576158b9600160401b010260401c5b6140008216156145ce57612c5d600160401b010260401c5b6120008216156145e65761162e600160401b010260401c5b6110008216156145fe57610b17600160401b010260401c5b6108008216156146165761058c600160401b010260401c5b61040082161561462e576102c6600160401b010260401c5b61020082161561464657610163600160401b010260401c5b61010082161561465d5760b1600160401b010260401c5b6080821615614673576059600160401b010260401c5b604082161561468957602c600160401b010260401c5b602082161561469f576016600160401b010260401c5b60108216156146b557600b600160401b010260401c5b60088216156146cb576006600160401b010260401c5b60048216156146e1576003600160401b010260401c5b60028216156146f7576001600160401b010260401c5b600182161561470d576001600160401b010260401c5b670de0b6b3a76400000260409190911c60bf031c90565b6000604051602001614757906020808252600d908201526c13d4115397d2539511549154d5609a1b604082015260600190565b60408051601f198184030181528282528051602091820120908301526001600160a01b038087169183019190915284166060820152821515608082015260a0016040516020818303038152906040528051906020012090509392505050565b6000846001600160a01b031663bd02d0f5613dbe8686866000604051602001614757906020808252601790820152764f50454e5f494e5445524553545f494e5f544f4b454e5360481b604082015260600190565b60405180606001604052806000815260200160008152602001600081525090565b6001600160a01b0391909116815260200190565b634e487b7160e01b600052604160045260246000fd5b608081016001600160401b03811182821017156148745761487461483f565b60405250565b60a081016001600160401b03811182821017156148745761487461483f565b601f8201601f191681016001600160401b03811182821017156148be576148be61483f565b6040525050565b60405161016081016001600160401b03811182821017156148e8576148e861483f565b60405290565b60006001600160401b038211156149075761490761483f565b5060051b60200190565b6001600160a01b03811681146107ee57600080fd5b8035613fc781614911565b600082601f83011261494257600080fd5b8135602061494f826148ee565b60405161495c8282614899565b83815260059390931b850182019282810191508684111561497c57600080fd5b8286015b848110156149a057803561499381614911565b8352918301918301614980565b509695505050505050565b600082601f8301126149bc57600080fd5b813560206149c9826148ee565b6040516149d68282614899565b83815260059390931b85018201928281019150868411156149f657600080fd5b8286015b848110156149a057803583529183019183016149fa565b60006001600160401b03821115614a2a57614a2a61483f565b50601f01601f191660200190565b600082601f830112614a4957600080fd5b81356020614a56826148ee565b60408051614a648382614899565b84815260059490941b8601830193838101925087851115614a8457600080fd5b8387015b85811015614b0b5780356001600160401b03811115614aa75760008081fd5b8801603f81018a13614ab95760008081fd5b85810135614ac681614a11565b8551614ad28282614899565b8281528c87848601011115614ae957600091508182fd5b828785018a830137600092810189019290925250855250928401928401614a88565b50979650505050505050565b60008060008060808587031215614b2d57600080fd5b8435935060208501356001600160401b0380821115614b4b57600080fd5b908601906101608289031215614b6057600080fd5b614b686148c5565b82358152602083013582811115614b7e57600080fd5b614b8a8a828601614931565b602083015250604083013582811115614ba257600080fd5b614bae8a8286016149ab565b604083015250606083013582811115614bc657600080fd5b614bd28a8286016149ab565b606083015250608083013582811115614bea57600080fd5b614bf68a8286016149ab565b60808301525060a083013582811115614c0e57600080fd5b614c1a8a8286016149ab565b60a08301525060c083013582811115614c3257600080fd5b614c3e8a8286016149ab565b60c08301525060e083013582811115614c5657600080fd5b614c628a8286016149ab565b60e0830152506101008084013583811115614c7c57600080fd5b614c888b8287016149ab565b8284015250506101208084013583811115614ca257600080fd5b614cae8b828701614a38565b8284015250506101408084013583811115614cc857600080fd5b614cd48b828701614931565b828401525050809550505050614cec60408601614926565b9396929550929360600135925050565b60008060408385031215614d0f57600080fd5b8235614d1a81614911565b946020939093013593505050565b600080828403610100811215614d3d57600080fd5b8335614d4881614911565b925060e0601f1982011215614d5c57600080fd5b506020830190509250929050565b600060208284031215614d7c57600080fd5b8135611e4981614911565b60008060408385031215614d9a57600080fd5b8235915060208301356001600160401b03811115614db757600080fd5b83016101608186031215614dca57600080fd5b809150509250929050565b600081518084526020808501945080840160005b83811015614e0e5781516001600160a01b031687529582019590820190600101614de9565b509495945050505050565b600081518084526020808501945080840160005b83811015614e0e57815187529582019590820190600101614e2d565b60005b83811015614e64578181015183820152602001614e4c565b50506000910152565b60008151808452614e85816020860160208601614e49565b601f01601f19169290920160200192915050565b600081518084526020808501808196508360051b8101915082860160005b85811015614ee1578284038952614ecf848351614e6d565b98850198935090840190600101614eb7565b5091979650505050505050565b600060018060a01b03808616835280851660208401525060606040830152825160608301526020830151610160806080850152614f2f6101c0850183614dd5565b91506040850151605f19808685030160a0870152614f4d8483614e19565b935060608701519150808685030160c0870152614f6a8483614e19565b935060808701519150808685030160e0870152614f878483614e19565b935060a08701519150610100818786030181880152614fa68584614e19565b945060c08801519250610120828887030181890152614fc58685614e19565b955060e089015193506101408389880301818a0152614fe48786614e19565b9650828a015194508389880301868a0152614fff8786614e19565b9650818a0151955083898803016101808a015261501c8787614e99565b9650808a0151955050505080868503016101a08701525050613c528282614dd5565b6020808252600a908201526921a7a72a2927a62622a960b11b604082015260600190565b6020808252601f908201527f5265656e7472616e637947756172643a207265656e7472616e742063616c6c00604082015260600190565b80151581146107ee57600080fd5b8035613fc781615099565b600060e082840312156150c457600080fd5b60405160e081016001600160401b03811182821017156150e6576150e661483f565b60405282356150f481614911565b8152602083013561510481614911565b602082015261511560408401614926565b604082015260608301356060820152615130608084016150a7565b608082015260a083013560a082015260c083013560c08201528091505092915050565b6000808335601e1984360301811261516a57600080fd5b83016020810192503590506001600160401b0381111561518957600080fd5b8060051b360382131561519b57600080fd5b9250929050565b8183526000602080850194508260005b85811015614e0e5781356151c581614911565b6001600160a01b0316875295820195908201906001016151b2565b81835260006001600160fb1b038311156151f957600080fd5b8260051b80836020870137939093016020019392505050565b81835281816020850137506000828201602090810191909152601f909101601f19169091010190565b81835260006020808501808196508560051b810191508460005b87811015614ee15782840389528135601e1988360301811261527657600080fd5b870185810190356001600160401b0381111561529157600080fd5b8036038213156152a057600080fd5b6152ab868284615212565b9a87019a9550505090840190600101615255565b848152608060208201528335608082015260006152df6020860186615153565b6101608060a08601526152f76101e0860183856151a2565b92506153066040890189615153565b9250607f19808786030160c08801526153208585846151e0565b945061532f60608b018b615153565b94509150808786030160e08801526153488585846151e0565b945061535760808b018b615153565b945091506101008188870301818901526153728686856151e0565b955061538160a08c018c615153565b955092506101208289880301818a015261539c8787866151e0565b96506153ab60c08d018d615153565b96509350610140838a890301818b01526153c68888876151e0565b97506153d560e08e018e615153565b97509450838a890301868b01526153ed8888876151e0565b97506153fb838e018e615153565b97509550838a8903016101808b01526154158888886151e0565b9750615423828e018e615153565b97509550838a8903016101a08b015261543d88888861523b565b975061544b818e018e615153565b9750955050505080878603016101c0880152505061546a8383836151a2565b935050505061548460408301856001600160a01b03169052565b82606083015295945050505050565b600060033d11156154ac5760046000803e5060005160e01c5b90565b600060443d10156154bd5790565b6040516003193d81016004833e81513d6001600160401b0380831160248401831017156154ec57505050505090565b82850191508151818111156155045750505050505090565b843d870101602082850101111561551e5750505050505090565b61552d60208286010187614899565b509095945050505050565b634e487b7160e01b600052603260045260246000fd5b634e487b7160e01b600052601160045260246000fd5b6000600182016155765761557661554e565b5060010190565b600060c0828403121561558f57600080fd5b60405160c081016001600160401b03811182821017156155b1576155b161483f565b8060405250809150825181526020830151602082015260408301516040820152606083015160608201526080830151608082015260a083015160a08201525092915050565b60006020828403121561560857600080fd5b604051602081016001600160401b038111828210171561562a5761562a61483f565b8060405250809150825161563d81615099565b905292915050565b600082601f83011261565657600080fd5b815161566181614a11565b60405161566e8282614899565b82815285602084870101111561568357600080fd5b61384b836020830160208801614e49565b6000602082840312156156a657600080fd5b81516001600160401b03808211156156bd57600080fd5b908301908185036101808112156156d357600080fd5b6040516156df81614855565b60808212156156ed57600080fd5b60405191506156fb82614855565b835161570681614911565b8252602084015161571681614911565b6020830152604084015161572981614911565b6040830152606084015161573c81614911565b6060830152818152615751876080860161557d565b60208201526157648761014086016155f6565b604082015261016084015191508282111561577e57600080fd5b61578a87838601615645565b60608201529695505050505050565b6020808252601b908201527a11195c1bdcda5d155d1a5b1cce88195b5c1d1e4819195c1bdcda5d602a1b604082015260600190565b6000602082840312156157e057600080fd5b81516001600160401b03808211156157f757600080fd5b9083019060a0828603121561580b57600080fd5b6040516158178161487a565b825161582281614911565b8152602083015161583281614911565b6020820152604083015161584581614911565b6040820152606083015161585881614911565b606082015260808301518281111561586f57600080fd5b61587b87828601615645565b60808301525095945050505050565b60006040828403121561589c57600080fd5b604080519081016001600160401b03811182821017156158be576158be61483f565b604052825181526020928301519281019290925250919050565b60008160001904831182151516156158f2576158f261554e565b500290565b6001600160a01b0393841681526020810192909252909116604082015260600190565b80820180821115610bb657610bb661554e565b60006001600160ff1b03818413828413808216868404861116156159535761595361554e565b600160ff1b60008712828116878305891216156159725761597261554e565b6000871292508782058712848416161561598e5761598e61554e565b878505871281841616156159a4576159a461554e565b505050929093029392505050565b634e487b7160e01b600052601260045260246000fd5b6000826159d7576159d76159b2565b600160ff1b8214600019841416156159f1576159f161554e565b500590565b918252602082015260400190565b6001600160a01b0396871681529486166020860152604085019390935260608401919091528316608083015290911660a082015260c00190565b6001600160a01b03929092168252602082015260400190565b600060208284031215615a6957600080fd5b8151611e4981615099565b6001600160a01b038316815260406020820181905260009061204f90830184614e6d565b600060208284031215615aaa57600080fd5b5051919050565b602081526000611e496020830184614e6d565b81810381811115610bb657610bb661554e565b828152604060208201526000825160018060a01b038082511660408501528060208301511660608501528060408301511660808501528060608301511660a085015250506020830151615b6260c0840182805182526020810151602083015260408101516040830152606081015160608301526080810151608083015260a081015160a08301525050565b506040830151610180615b79818501835115159052565b60608501519150806101a08501525061384b6101c0840182614e6d565b6001600160a01b039485168152602081019390935292166040820152901515606082015260800190565b82815260406020820152600061204f6040830184614e6d565b604081526000615bec6040830185614e19565b90508260208301529392505050565b600082615c0a57615c0a6159b2565b500490565b600060208284031215615c2157600080fd5b8151611e4981614911565b6000600160ff1b8201615c4157615c4161554e565b5060000390565b6001600160a01b0394851681529290931660208301526040820152606081019190915260800190565b8082018281126000831280158216821582161715615c9157615c9161554e565b505092915050565b8181036000831280158383131683831282161715615cb957615cb961554e565b509291505056fea264697066735822122054db6425c1edd5d713f27fc025dad445725e2fd54b43655737fcd3ff41edbf6d64736f6c63430008100033",
  "libraries": {
    "GasUtils": "0x38F024Ab4ea7bC35fce81A470cdF0BE0B905088C"
  },
  "devdoc": {
    "kind": "dev",
    "methods": {},
    "version": 1
  },
  "userdoc": {
    "errors": {
      "PRBMathUD60x18__Exp2InputTooBig(uint256)": [
        {
          "notice": "Emitted when the input is greater than 192."
        }
      ],
      "PRBMathUD60x18__LogInputTooSmall(uint256)": [
        {
          "notice": "Emitted when the input is less than 1."
        }
      ],
      "PRBMath__MulDivFixedPointOverflow(uint256)": [
        {
          "notice": "Emitted when the result overflows uint256."
        }
      ]
    },
    "kind": "user",
    "methods": {},
    "version": 1
  },
  "storageLayout": {
    "storage": [
      {
        "astId": 10,
        "contract": "contracts/exchange/DepositHandler.sol:DepositHandler",
        "label": "_status",
        "offset": 0,
        "slot": "0",
        "type": "t_uint256"
      },
      {
        "astId": 12410,
        "contract": "contracts/exchange/DepositHandler.sol:DepositHandler",
        "label": "gov",
        "offset": 0,
        "slot": "1",
        "type": "t_address"
      }
    ],
    "types": {
      "t_address": {
        "encoding": "inplace",
        "label": "address",
        "numberOfBytes": "20"
      },
      "t_uint256": {
        "encoding": "inplace",
        "label": "uint256",
        "numberOfBytes": "32"
      }
    }
  }
}