{
  "address": "0xcD0766A88504B0C8F4BDf75Dc932DfdcA209F5e8",
  "abi": [
    {
      "inputs": [
        {
          "internalType": "contract RoleStore",
          "name": "_roleStore",
          "type": "address"
        },
        {
          "internalType": "contract DataStore",
          "name": "_dataStore",
          "type": "address"
        },
        {
          "internalType": "contract EventEmitter",
          "name": "_eventEmitter",
          "type": "address"
        }
      ],
      "stateMutability": "nonpayable",
      "type": "constructor"
    },
    {
      "inputs": [
        {
          "internalType": "bytes32",
          "name": "salt",
          "type": "bytes32"
        },
        {
          "internalType": "address",
          "name": "glv",
          "type": "address"
        }
      ],
      "name": "GlvAlreadyExists",
      "type": "error"
    },
    {
      "inputs": [],
      "name": "GlvNameTooLong",
      "type": "error"
    },
    {
      "inputs": [],
      "name": "GlvSymbolTooLong",
      "type": "error"
    },
    {
      "inputs": [
        {
          "internalType": "address",
          "name": "msgSender",
          "type": "address"
        },
        {
          "internalType": "string",
          "name": "role",
          "type": "string"
        }
      ],
      "name": "Unauthorized",
      "type": "error"
    },
    {
      "inputs": [
        {
          "internalType": "address",
          "name": "longToken",
          "type": "address"
        },
        {
          "internalType": "address",
          "name": "shortToken",
          "type": "address"
        },
        {
          "internalType": "bytes32",
          "name": "glvType",
          "type": "bytes32"
        },
        {
          "internalType": "string",
          "name": "name",
          "type": "string"
        },
        {
          "internalType": "string",
          "name": "symbol",
          "type": "string"
        }
      ],
      "name": "createGlv",
      "outputs": [
        {
          "components": [
            {
              "internalType": "address",
              "name": "glvToken",
              "type": "address"
            },
            {
              "internalType": "address",
              "name": "longToken",
              "type": "address"
            },
            {
              "internalType": "address",
              "name": "shortToken",
              "type": "address"
            }
          ],
          "internalType": "struct Glv.Props",
          "name": "",
          "type": "tuple"
        }
      ],
      "stateMutability": "nonpayable",
      "type": "function"
    },
    {
      "inputs": [],
      "name": "dataStore",
      "outputs": [
        {
          "internalType": "contract DataStore",
          "name": "",
          "type": "address"
        }
      ],
      "stateMutability": "view",
      "type": "function"
    },
    {
      "inputs": [],
      "name": "eventEmitter",
      "outputs": [
        {
          "internalType": "contract EventEmitter",
          "name": "",
          "type": "address"
        }
      ],
      "stateMutability": "view",
      "type": "function"
    },
    {
      "inputs": [],
      "name": "roleStore",
      "outputs": [
        {
          "internalType": "contract RoleStore",
          "name": "",
          "type": "address"
        }
      ],
      "stateMutability": "view",
      "type": "function"
    }
  ],
  "transactionHash": "0x0723ac9bcb1b63a7c4004944869b1999002ef6a0f77838915f7ad85e3bbf3aa9",
  "args": [
    "0x19a8085537078e7847a332A76ABaDD5b02B1e736",
    "0xEA1BFb4Ea9A412dCCd63454AbC127431eBB0F0d4",
    "0xc67D98AC5803aFD776958622CeEE332A0B2CabB9"
  ],
  "numDeployments": 2,
  "solcInputHash": "074b00e10d035f7f8f9e9a80754f45a1",
  "bytecode": "0x60e06040523480156200001157600080fd5b50604051620036e0380380620036e083398101604081905262000034916200006b565b6001600160a01b0392831660805290821660a0521660c052620000bf565b6001600160a01b03811681146200006857600080fd5b50565b6000806000606084860312156200008157600080fd5b83516200008e8162000052565b6020850151909350620000a18162000052565b6040850151909250620000b48162000052565b809150509250925092565b60805160a05160c0516135ca620001166000396000818160ca01526106da01526000818160a201528181610255015281816103580152610410015260008181605d0152818161033701526104ab01526135ca6000f3fe60806040523480156200001157600080fd5b5060043610620000525760003560e01c80634a4a7b041462000057578063660d0d67146200009c5780639ff78c3014620000c4578063a44e523114620000ec575b600080fd5b6200007f7f000000000000000000000000000000000000000000000000000000000000000081565b6040516001600160a01b0390911681526020015b60405180910390f35b6200007f7f000000000000000000000000000000000000000000000000000000000000000081565b6200007f7f000000000000000000000000000000000000000000000000000000000000000081565b62000103620000fd36600462000a62565b62000112565b60405162000093919062000b26565b6040805160608101825260008082526020820181905291810191909152620001a760405160200162000165906020808252600d908201526c26a0a925a2aa2fa5a2a2a822a960991b604082015260600190565b604051602081830303815290604052805190602001206040518060400160405280600d81526020016c26a0a925a2aa2fa5a2a2a822a960991b8152506200048f565b601e82511115620001cb57604051639cb4f5c560e01b815260040160405180910390fd5b606483511115620001ef5760405163155712e160e01b815260040160405180910390fd5b60408051608060208201819052600760a08301526623a6ac2fa3a62b60c91b60c08301526001600160a01b03808a1693830193909352918716606082015290810185905260009060e00160405160208183030381529060405280519060200120905060007f00000000000000000000000000000000000000000000000000000000000000006001600160a01b03166321f8a7216200028d8462000549565b6040518263ffffffff1660e01b8152600401620002ac91815260200190565b602060405180830381865afa158015620002ca573d6000803e3d6000fd5b505050506040513d601f19601f82011682018060405250810190620002f0919062000b3c565b90506001600160a01b038116156200033257604051630e44992d60e41b8152600481018790526001600160a01b03821660248201526044015b60405180910390fd5b6000827f00000000000000000000000000000000000000000000000000000000000000007f0000000000000000000000000000000000000000000000000000000000000000888860405162000387906200089a565b62000396949392919062000bab565b8190604051809103906000f5905080158015620003b7573d6000803e3d6000fd5b50604080516060810182526001600160a01b0380841682528c811660208301528b168183015290516315da82c960e21b81529192509073fF57EcD97CF2773f84d999f094108695989542169063576a0b24906200043f907f00000000000000000000000000000000000000000000000000000000000000009086908990879060040162000bf8565b60006040518083038186803b1580156200045857600080fd5b505af41580156200046d573d6000803e3d6000fd5b505050506200048082858c8c8c620005b9565b93505050505b95945050505050565b60405163ac4ab3fb60e01b8152336004820152602481018390527f00000000000000000000000000000000000000000000000000000000000000006001600160a01b03169063ac4ab3fb90604401602060405180830381865afa158015620004fb573d6000803e3d6000fd5b505050506040513d601f19601f8201168201806040525081019062000521919062000c26565b6200054557338160405163a35b150b60e01b81526004016200032992919062000c4a565b5050565b6000604051602001620005789060208082526008908201526711d31597d4d0531560c21b604082015260600190565b60408051601f198184030181528282528051602091820120908301528101839052606001604051602081830303815290604052805190602001209050919050565b620005c3620008a8565b8051620005d290600362000774565b60408051808201909152600881526733b63b2a37b5b2b760c11b60208201528151620006029160009089620007de565b6040805180820190915260098152683637b733aa37b5b2b760b91b60208201528151620006339160019087620007de565b60408051808201909152600a81526939b437b93a2a37b5b2b760b11b60208201528151620006659160029086620007de565b60808101516200067790600262000774565b6040805180820190915260048152631cd85b1d60e21b60208201526080820151620006a6916000908862000841565b604080518082019091526007815266676c765479706560c81b60208201526080820151620006d8916001908562000841565b7f00000000000000000000000000000000000000000000000000000000000000006001600160a01b03166324de01e462000718886001600160a01b031690565b836040518363ffffffff1660e01b8152600401620007389291906200151b565b600060405180830381600087803b1580156200075357600080fd5b505af115801562000768573d6000803e3d6000fd5b50505050505050505050565b806001600160401b038111156200078f576200078f620009b8565b604051908082528060200260200182016040528015620007d757816020015b604080518082019091526060815260006020820152815260200190600190039081620007ae5790505b5090915250565b8184600001518481518110620007f857620007f86200162b565b60200260200101516000018190525080846000015184815181106200082157620008216200162b565b6020908102919091018101516001600160a01b0390921691015250505050565b81846000015184815181106200085b576200085b6200162b565b60200260200101516000018190525080846000015184815181106200088457620008846200162b565b6020026020010151602001818152505050505050565b611f53806200164283390190565b604080516101208101909152606060e0820181815261010083019190915281908152602001620008eb604051806040016040528060608152602001606081525090565b81526020016200090e604051806040016040528060608152602001606081525090565b815260200162000931604051806040016040528060608152602001606081525090565b815260200162000954604051806040016040528060608152602001606081525090565b815260200162000977604051806040016040528060608152602001606081525090565b81526020016200099a604051806040016040528060608152602001606081525090565b905290565b6001600160a01b0381168114620009b557600080fd5b50565b634e487b7160e01b600052604160045260246000fd5b600082601f830112620009e057600080fd5b81356001600160401b0380821115620009fd57620009fd620009b8565b604051601f8301601f19908116603f0116810190828211818310171562000a285762000a28620009b8565b8160405283815286602085880101111562000a4257600080fd5b836020870160208301376000602085830101528094505050505092915050565b600080600080600060a0868803121562000a7b57600080fd5b853562000a88816200099f565b9450602086013562000a9a816200099f565b93506040860135925060608601356001600160401b038082111562000abe57600080fd5b62000acc89838a01620009ce565b9350608088013591508082111562000ae357600080fd5b5062000af288828901620009ce565b9150509295509295909350565b80516001600160a01b03908116835260208083015182169084015260409182015116910152565b6060810162000b36828462000aff565b92915050565b60006020828403121562000b4f57600080fd5b815162000b5c816200099f565b9392505050565b6000815180845260005b8181101562000b8b5760208185018101518683018201520162000b6d565b506000602082860101526020601f19601f83011685010191505092915050565b6001600160a01b0385811682528416602082015260806040820181905260009062000bd99083018562000b63565b828103606084015262000bed818562000b63565b979650505050505050565b6001600160a01b038581168252841660208201526040810183905260c0810162000486606083018462000aff565b60006020828403121562000c3957600080fd5b8151801515811462000b5c57600080fd5b6001600160a01b038316815260406020820181905260009062000c709083018462000b63565b949350505050565b600081518084526020808501808196508360051b810191508286016000805b8681101562000d19578385038a5282516040815181885262000cbc8289018262000b63565b92890151888403898b01528051808552908a01938693508a0191505b8083101562000d035783516001600160a01b0316825292890192600192909201919089019062000cd8565b509b88019b965050509185019160010162000c97565b509298975050505050505050565b60006040808401835182865281815180845260608801915060608160051b89010193506020808401935060005b8281101562000da257898603605f190184528451805188885262000d7b8989018262000b63565b918401516001600160a01b0316978401979097529550938101939281019260010162000d54565b50808801519550888503818a01525050505062000486818362000c78565b600081518084526020808501808196508360051b810191508286016000805b8681101562000d19578385038a5282516040815181885262000e048289018262000b63565b92890151888403898b01528051808552908a01938693508a0191505b8083101562000e42578351825292890192600192909201919089019062000e20565b509b88019b965050509185019160010162000ddf565b60006040808401835182865281815180845260608801915060608160051b89010193506020808401935060005b8281101562000eca57898603605f190184528451805188885262000eac8989018262000b63565b91840151978401979097529550938101939281019260010162000e85565b50808801519550888503818a01525050505062000486818362000dc0565b600081518084526020808501808196508360051b810191508286016000805b8681101562000d19578385038a5282516040815181885262000f2c8289018262000b63565b92890151888403898b01528051808552908a01938693508a0191505b8083101562000f6a578351825292890192600192909201919089019062000f48565b509b88019b965050509185019160010162000f07565b60006040808401835182865281815180845260608801915060608160051b89010193506020808401935060005b8281101562000ff257898603605f190184528451805188885262000fd48989018262000b63565b91840151978401979097529550938101939281019260010162000fad565b50808801519550888503818a01525050505062000486818362000ee8565b600081518084526020808501808196508360051b810191508286016000805b8681101562000d19578385038a52825160408151818852620010548289018262000b63565b92890151888403898b01528051808552908a01938693508a0191505b80831015620010945783511515825292890192600192909201919089019062001070565b509b88019b96505050918501916001016200102f565b60006040808401835182865281815180845260608801915060608160051b89010193506020808401935060005b828110156200111e57898603605f1901845284518051888852620010fe8989018262000b63565b9184015115159784019790975295509381019392810192600101620010d7565b50808801519550888503818a01525050505062000486818362001010565b600081518084526020808501808196508360051b810191508286016000805b8681101562000d19578385038a52825160408151818852620011808289018262000b63565b92890151888403898b01528051808552908a01938693508a0191505b80831015620011be57835182529289019260019290920191908901906200119c565b509b88019b96505050918501916001016200115b565b60006040808401835182865281815180845260608801915060608160051b89010193506020808401935060005b828110156200124657898603605f1901845284518051888852620012288989018262000b63565b91840151978401979097529550938101939281019260010162001201565b50808801519550888503818a0152505050506200048681836200113c565b600081518084526020808501808196506005915083821b81018387016000805b8781101562001317578484038b52825160408151818752620012a98288018262000b63565b928a0151878403888c01528051808552908b019392508a83019150808a1b83018b01865b82811015620012ff57601f19858303018452620012ec82875162000b63565b958d0195938d01939150600101620012cd565b509e8b019e9750505093880193505060010162001284565b50919998505050505050505050565b60006040808401835182865281815180845260608801915060608160051b89010193506020808401935060005b82811015620013a957898603605f19018452845180518888526200137a8989018262000b63565b918401518883038986015291905062001394818362000b63565b97505050938101939281019260010162001353565b50808801519550888503818a01525050505062000486818362001264565b600081518084526020808501808196506005915083821b81018387016000805b8781101562001317578484038b528251604081518187526200140c8288018262000b63565b928a0151878403888c01528051808552908b019392508a83019150808a1b83018b01865b828110156200146257601f198583030184526200144f82875162000b63565b958d0195938d0193915060010162001430565b509e8b019e97505050938801935050600101620013e7565b60006040808401835182865281815180845260608801915060608160051b89010193506020808401935060005b82811015620014fd57898603605f1901845284518051888852620014ce8989018262000b63565b9184015188830389860152919050620014e8818362000b63565b975050509381019392810192600101620014a7565b50808801519550888503818a015250505050620004868183620013c7565b60608152600a60608201526911db1d90dc99585d195960b21b608082015282602082015260a060408201526000825160e060a08401526200156161018084018262000d27565b90506020840151609f19808584030160c086015262001581838362000e58565b925060408601519150808584030160e0860152620015a0838362000f80565b9250606086015191508085840301610100860152620015c08383620010aa565b9250608086015191508085840301610120860152620015e08383620011d4565b925060a08601519150808584030161014086015262001600838362001326565b925060c086015191508085840301610160860152506200162182826200147a565b9695505050505050565b634e487b7160e01b600052603260045260246000fdfe60c06040523480156200001157600080fd5b5060405162001f5338038062001f53833981016040819052620000349162000159565b8383818181868660036200004983826200027d565b5060046200005882826200027d565b5050506001600160a01b039081166080521660a052506200034995505050505050565b6001600160a01b03811681146200009157600080fd5b50565b634e487b7160e01b600052604160045260246000fd5b600082601f830112620000bc57600080fd5b81516001600160401b0380821115620000d957620000d962000094565b604051601f8301601f19908116603f0116810190828211818310171562000104576200010462000094565b816040528381526020925086838588010111156200012157600080fd5b600091505b8382101562000145578582018301518183018401529082019062000126565b600093810190920192909252949350505050565b600080600080608085870312156200017057600080fd5b84516200017d816200007b565b602086015190945062000190816200007b565b60408601519093506001600160401b0380821115620001ae57600080fd5b620001bc88838901620000aa565b93506060870151915080821115620001d357600080fd5b50620001e287828801620000aa565b91505092959194509250565b600181811c908216806200020357607f821691505b6020821081036200022457634e487b7160e01b600052602260045260246000fd5b50919050565b601f8211156200027857600081815260208120601f850160051c81016020861015620002535750805b601f850160051c820191505b8181101562000274578281556001016200025f565b5050505b505050565b81516001600160401b0381111562000299576200029962000094565b620002b181620002aa8454620001ee565b846200022a565b602080601f831160018114620002e95760008415620002d05750858301515b600019600386901b1c1916600185901b17855562000274565b600085815260208120601f198616915b828110156200031a57888601518255948401946001909101908401620002f9565b5085821015620003395787850151600019600388901b60f8161c191681555b5050505050600190811b01905550565b60805160a051611bba620003996000396000818161010a0152818161034101528181610668015281816107ff015281816109e20152610d720152600081816102d301526109190152611bba6000f3fe6080604052600436106100fe5760003560e01c806306fdde031461016b578063078d3b7914610196578063095ea7b3146101b657806318160ddd146101e657806323b872dd146102055780632fb1260514610225578063313ce56714610245578063352f9aed14610261578063395093511461028157806340c10f19146102a15780634a4a7b04146102c1578063523fba7f14610302578063660d0d671461032f57806370a082311461036357806395d89b41146103995780639dc29fac146103ae578063a457c2d7146103ce578063a9059cbb146103ee578063d443ca941461040e578063dd62ed3e1461042e578063eb40133f1461044e57600080fd5b3661016657600061012e7f000000000000000000000000000000000000000000000000000000000000000061046e565b9050336001600160a01b03821614610164573360405163738d28df60e11b815260040161015b9190611777565b60405180910390fd5b005b600080fd5b34801561017757600080fd5b50610180610521565b60405161018d91906117db565b60405180910390f35b3480156101a257600080fd5b506101646101b136600461180a565b6105b3565b3480156101c257600080fd5b506101d66101d136600461184b565b610613565b604051901515815260200161018d565b3480156101f257600080fd5b506002545b60405190815260200161018d565b34801561021157600080fd5b506101d661022036600461180a565b61062b565b34801561023157600080fd5b50610164610240366004611885565b61064f565b34801561025157600080fd5b506040516012815260200161018d565b34801561026d57600080fd5b506101f761027c3660046118d8565b6106d3565b34801561028d57600080fd5b506101d661029c36600461184b565b6106f0565b3480156102ad57600080fd5b506101646102bc36600461184b565b610712565b3480156102cd57600080fd5b506102f57f000000000000000000000000000000000000000000000000000000000000000081565b60405161018d9190611777565b34801561030e57600080fd5b506101f761031d3660046118d8565b60056020526000908152604090205481565b34801561033b57600080fd5b506102f57f000000000000000000000000000000000000000000000000000000000000000081565b34801561036f57600080fd5b506101f761037e3660046118d8565b6001600160a01b031660009081526020819052604090205490565b3480156103a557600080fd5b50610180610732565b3480156103ba57600080fd5b506101646103c936600461184b565b610741565b3480156103da57600080fd5b506101d66103e936600461184b565b61075d565b3480156103fa57600080fd5b506101d661040936600461184b565b6107d8565b34801561041a57600080fd5b5061016461042936600461184b565b6107e6565b34801561043a57600080fd5b506101f76104493660046118f5565b610830565b34801561045a57600080fd5b506101f76104693660046118d8565b61085b565b6000816001600160a01b03166321f8a7216040516020016104a69060208082526003908201526215d39560ea1b604082015260600190565b604051602081830303815290604052805190602001206040518263ffffffff1660e01b81526004016104da91815260200190565b602060405180830381865afa1580156104f7573d6000803e3d6000fd5b505050506040513d601f19601f8201168201806040525081019061051b919061192e565b92915050565b6060600380546105309061194b565b80601f016020809104026020016040519081016040528092919081815260200182805461055c9061194b565b80156105a95780601f1061057e576101008083540402835291602001916105a9565b820191906000526020600020905b81548152906001019060200180831161058c57829003601f168201915b5050505050905090565b6106036040516020016105c590611985565b604051602081830303815290604052805190602001206040518060400160405280600a81526020016921a7a72a2927a62622a960b11b815250610902565b61060e8383836109b2565b505050565b600033610621818585610a12565b5060019392505050565b600033610639858285610b36565b610644858585610bb0565b506001949350505050565b6106616040516020016105c590611985565b600061068c7f000000000000000000000000000000000000000000000000000000000000000061046e565b9050806001600160a01b0316856001600160a01b03161480156106ac5750815b156106c1576106bc858585610d42565b6106cc565b6106cc8585856109b2565b5050505050565b60006106e76040516020016105c590611985565b61051b82610d99565b6000336106218185856107038383610830565b61070d91906119bf565b610a12565b6107246040516020016105c590611985565b61072e8282610e4a565b5050565b6060600480546105309061194b565b6107536040516020016105c590611985565b61072e8282610ef7565b6000338161076b8286610830565b9050838110156107cb5760405162461bcd60e51b815260206004820152602560248201527f45524332303a2064656372656173656420616c6c6f77616e63652062656c6f77604482015264207a65726f60d81b606482015260840161015b565b6106448286868403610a12565b600033610621818585610bb0565b6107f86040516020016105c590611985565b60006108237f000000000000000000000000000000000000000000000000000000000000000061046e565b905061060e818484610d42565b6001600160a01b03918216600090815260016020908152604080832093909416825291909152205490565b600061086f6040516020016105c590611985565b6040516370a0823160e01b81526000906001600160a01b038416906370a082319061089e903090600401611777565b602060405180830381865afa1580156108bb573d6000803e3d6000fd5b505050506040513d601f19601f820116820180604052508101906108df91906119d2565b6001600160a01b0384166000908152600560205260409020819055915050919050565b60405163ac4ab3fb60e01b81526001600160a01b037f0000000000000000000000000000000000000000000000000000000000000000169063ac4ab3fb9061095090339086906004016119eb565b602060405180830381865afa15801561096d573d6000803e3d6000fd5b505050506040513d601f19601f820116820180604052508101906109919190611a04565b61072e57338160405163a35b150b60e01b815260040161015b929190611a21565b306001600160a01b038316036109dd5781604051637387c8a960e11b815260040161015b9190611777565b610a097f0000000000000000000000000000000000000000000000000000000000000000848484611017565b61060e83611261565b6001600160a01b038316610a745760405162461bcd60e51b8152602060048201526024808201527f45524332303a20617070726f76652066726f6d20746865207a65726f206164646044820152637265737360e01b606482015260840161015b565b6001600160a01b038216610ad55760405162461bcd60e51b815260206004820152602260248201527f45524332303a20617070726f766520746f20746865207a65726f206164647265604482015261737360f01b606482015260840161015b565b6001600160a01b0383811660008181526001602090815260408083209487168084529482529182902085905590518481527f8c5be1e5ebec7d5bd14f71427d1e84f3dd0314c0f7b2291e5b200ac8c7c3b925910160405180910390a3505050565b6000610b428484610830565b90506000198114610baa5781811015610b9d5760405162461bcd60e51b815260206004820152601d60248201527f45524332303a20696e73756666696369656e7420616c6c6f77616e6365000000604482015260640161015b565b610baa8484848403610a12565b50505050565b6001600160a01b038316610c145760405162461bcd60e51b815260206004820152602560248201527f45524332303a207472616e736665722066726f6d20746865207a65726f206164604482015264647265737360d81b606482015260840161015b565b6001600160a01b038216610c765760405162461bcd60e51b815260206004820152602360248201527f45524332303a207472616e7366657220746f20746865207a65726f206164647260448201526265737360e81b606482015260840161015b565b6001600160a01b03831660009081526020819052604090205481811015610cee5760405162461bcd60e51b815260206004820152602660248201527f45524332303a207472616e7366657220616d6f756e7420657863656564732062604482015265616c616e636560d01b606482015260840161015b565b6001600160a01b0384811660008181526020818152604080832087870390559387168083529184902080548701905592518581529092600080516020611b65833981519152910160405180910390a3610baa565b306001600160a01b03831603610d6d5781604051637387c8a960e11b815260040161015b9190611777565b610a097f00000000000000000000000000000000000000000000000000000000000000008484846112ea565b6001600160a01b0381166000818152600560205260408082205490516370a0823160e01b8152919290918391906370a0823190610dda903090600401611777565b602060405180830381865afa158015610df7573d6000803e3d6000fd5b505050506040513d601f19601f82011682018060405250810190610e1b91906119d2565b6001600160a01b03851660009081526005602052604090208190559050610e428282611a45565b949350505050565b6001600160a01b038216610ea05760405162461bcd60e51b815260206004820152601f60248201527f45524332303a206d696e7420746f20746865207a65726f206164647265737300604482015260640161015b565b8060026000828254610eb291906119bf565b90915550506001600160a01b03821660008181526020818152604080832080548601905551848152600080516020611b65833981519152910160405180910390a35050565b6001600160a01b038216610f575760405162461bcd60e51b815260206004820152602160248201527f45524332303a206275726e2066726f6d20746865207a65726f206164647265736044820152607360f81b606482015260840161015b565b6001600160a01b03821660009081526020819052604090205481811015610fcb5760405162461bcd60e51b815260206004820152602260248201527f45524332303a206275726e20616d6f756e7420657863656564732062616c616e604482015261636560f01b606482015260840161015b565b6001600160a01b038316600081815260208181526040808320868603905560028054879003905551858152919291600080516020611b65833981519152910160405180910390a3505050565b8015610baa576110268261144a565b6000846001600160a01b031663bd02d0f561104086611474565b6040518263ffffffff1660e01b815260040161105e91815260200190565b602060405180830381865afa15801561107b573d6000803e3d6000fd5b505050506040513d601f19601f8201168201806040525081019061109f91906119d2565b9050806000036110c45783604051634fe14bfd60e11b815260040161015b9190611777565b60006110d2858585856114fc565b50905080156110e2575050610baa565b6000866001600160a01b03166321f8a721604051602001611126906020808252600f908201526e484f4c44494e475f4144445245535360881b604082015260600190565b604051602081830303815290604052805190602001206040518263ffffffff1660e01b815260040161115a91815260200190565b602060405180830381865afa158015611177573d6000803e3d6000fd5b505050506040513d601f19601f8201168201806040525081019061119b919061192e565b90506001600160a01b0381166111c457604051633a6de2f560e21b815260040160405180910390fd5b6000806111d3888488886114fc565b9150915081156111e7575050505050610baa565b60006111f282611664565b5090507fc9f14d9a0a9b46470c7c0b6c508f8283abaab7f795f153953c58cd4250824dae8183604051611226929190611a58565b60405180910390a160405163012f3b8f60e71b81526001600160a01b03808b166004830152891660248201526044810188905260640161015b565b6040516370a0823160e01b81526001600160a01b038216906370a082319061128d903090600401611777565b602060405180830381865afa1580156112aa573d6000803e3d6000fd5b505050506040513d601f19601f820116820180604052508101906112ce91906119d2565b6001600160a01b03909116600090815260056020526040902055565b8015610baa576112f98261144a565b604051632e1a7d4d60e01b8152600481018290526001600160a01b03841690632e1a7d4d90602401600060405180830381600087803b15801561133b57600080fd5b505af115801561134f573d6000803e3d6000fd5b505050506000846001600160a01b031663bd02d0f56040516020016113a5906020808252601f908201527f4e41544956455f544f4b454e5f5452414e534645525f4741535f4c494d495400604082015260600190565b604051602081830303815290604052805190602001206040518263ffffffff1660e01b81526004016113d991815260200190565b602060405180830381865afa1580156113f6573d6000803e3d6000fd5b505050506040513d601f19601f8201168201806040525081019061141a91906119d2565b90506000806000806000868887f190508015611437575050610baa565b6114428685856116f4565b505050505050565b6001600160a01b0381166114715760405163d551823d60e01b815260040160405180910390fd5b50565b60006040516020016114b2906020808252601890820152771513d2d15397d514905394d1915497d1d054d7d31253525560421b604082015260600190565b60408051601f198184030181528282528051602091820120908301526001600160a01b03841690820152606001604051602081830303815290604052805190602001209050919050565b60006060600063a9059cbb60e01b868660405160240161151d9291906119eb565b604051602081830303815290604052906001600160e01b0319166020820180516001600160e01b0383818316178352505050509050600080886001600160a01b0316868460405161156e9190611a86565b60006040518083038160008787f1925050503d80600081146115ac576040519150601f19603f3d011682016040523d82523d6000602084013e6115b1565b606091505b5091509150811561165257805160000361160f576001600160a01b0389163b61160f5760006040518060400160405280601481526020017310d85b1b081d1bc81b9bdb8b58dbdb9d1c9858dd60621b8152509450945050505061165b565b6000815111801561163157508080602001905181019061162f9190611a04565b155b156116445760009450925061165b915050565b60019450925061165b915050565b60009450925050505b94509492505050565b6060600060448351101561168b575050604080516020810190915260008082529092909150565b6000611698846020015190565b90506307b9e43360e51b6001600160e01b03198216016116d757600484019350838060200190518101906116cc9190611ab8565b946001945092505050565b600060405180602001604052806000815250909250925050915091565b8060000361170157505050565b61170a8261144a565b60006117158461046e565b9050806001600160a01b031663d0e30db0836040518263ffffffff1660e01b81526004016000604051808303818588803b15801561175257600080fd5b505af1158015611766573d6000803e3d6000fd5b5050505050610baa84828585611017565b6001600160a01b0391909116815260200190565b60005b838110156117a657818101518382015260200161178e565b50506000910152565b600081518084526117c781602086016020860161178b565b601f01601f19169290920160200192915050565b6020815260006117ee60208301846117af565b9392505050565b6001600160a01b038116811461147157600080fd5b60008060006060848603121561181f57600080fd5b833561182a816117f5565b9250602084013561183a816117f5565b929592945050506040919091013590565b6000806040838503121561185e57600080fd5b8235611869816117f5565b946020939093013593505050565b801515811461147157600080fd5b6000806000806080858703121561189b57600080fd5b84356118a6816117f5565b935060208501356118b6816117f5565b92506040850135915060608501356118cd81611877565b939692955090935050565b6000602082840312156118ea57600080fd5b81356117ee816117f5565b6000806040838503121561190857600080fd5b8235611913816117f5565b91506020830135611923816117f5565b809150509250929050565b60006020828403121561194057600080fd5b81516117ee816117f5565b600181811c9082168061195f57607f821691505b60208210810361197f57634e487b7160e01b600052602260045260246000fd5b50919050565b6020808252600a908201526921a7a72a2927a62622a960b11b604082015260600190565b634e487b7160e01b600052601160045260246000fd5b8082018082111561051b5761051b6119a9565b6000602082840312156119e457600080fd5b5051919050565b6001600160a01b03929092168252602082015260400190565b600060208284031215611a1657600080fd5b81516117ee81611877565b6001600160a01b0383168152604060208201819052600090610e42908301846117af565b8181038181111561051b5761051b6119a9565b604081526000611a6b60408301856117af565b8281036020840152611a7d81856117af565b95945050505050565b60008251611a9881846020870161178b565b9190910192915050565b634e487b7160e01b600052604160045260246000fd5b600060208284031215611aca57600080fd5b81516001600160401b0380821115611ae157600080fd5b818401915084601f830112611af557600080fd5b815181811115611b0757611b07611aa2565b604051601f8201601f19908116603f01168101908382118183101715611b2f57611b2f611aa2565b81604052828152876020848701011115611b4857600080fd5b611b5983602083016020880161178b565b97965050505050505056feddf252ad1be2c89b69c2b068fc378daa952ba7f163c4a11628f55a4df523b3efa2646970667358221220fd1bdc5df85c8908de027932d84f7164cfa2fc38c01ed9172da2e3e08460e2a364736f6c63430008120033a26469706673582212204412f56824dae6a0611c5ccd9be929ada0b2bedc690cf5331cbf6d43ea12e0f564736f6c63430008120033",
  "deployedBytecode": "0x60806040523480156200001157600080fd5b5060043610620000525760003560e01c80634a4a7b041462000057578063660d0d67146200009c5780639ff78c3014620000c4578063a44e523114620000ec575b600080fd5b6200007f7f000000000000000000000000000000000000000000000000000000000000000081565b6040516001600160a01b0390911681526020015b60405180910390f35b6200007f7f000000000000000000000000000000000000000000000000000000000000000081565b6200007f7f000000000000000000000000000000000000000000000000000000000000000081565b62000103620000fd36600462000a62565b62000112565b60405162000093919062000b26565b6040805160608101825260008082526020820181905291810191909152620001a760405160200162000165906020808252600d908201526c26a0a925a2aa2fa5a2a2a822a960991b604082015260600190565b604051602081830303815290604052805190602001206040518060400160405280600d81526020016c26a0a925a2aa2fa5a2a2a822a960991b8152506200048f565b601e82511115620001cb57604051639cb4f5c560e01b815260040160405180910390fd5b606483511115620001ef5760405163155712e160e01b815260040160405180910390fd5b60408051608060208201819052600760a08301526623a6ac2fa3a62b60c91b60c08301526001600160a01b03808a1693830193909352918716606082015290810185905260009060e00160405160208183030381529060405280519060200120905060007f00000000000000000000000000000000000000000000000000000000000000006001600160a01b03166321f8a7216200028d8462000549565b6040518263ffffffff1660e01b8152600401620002ac91815260200190565b602060405180830381865afa158015620002ca573d6000803e3d6000fd5b505050506040513d601f19601f82011682018060405250810190620002f0919062000b3c565b90506001600160a01b038116156200033257604051630e44992d60e41b8152600481018790526001600160a01b03821660248201526044015b60405180910390fd5b6000827f00000000000000000000000000000000000000000000000000000000000000007f0000000000000000000000000000000000000000000000000000000000000000888860405162000387906200089a565b62000396949392919062000bab565b8190604051809103906000f5905080158015620003b7573d6000803e3d6000fd5b50604080516060810182526001600160a01b0380841682528c811660208301528b168183015290516315da82c960e21b81529192509073__$c61efa35244e2ed3fbfa63ba28e8d0556c$__9063576a0b24906200043f907f00000000000000000000000000000000000000000000000000000000000000009086908990879060040162000bf8565b60006040518083038186803b1580156200045857600080fd5b505af41580156200046d573d6000803e3d6000fd5b505050506200048082858c8c8c620005b9565b93505050505b95945050505050565b60405163ac4ab3fb60e01b8152336004820152602481018390527f00000000000000000000000000000000000000000000000000000000000000006001600160a01b03169063ac4ab3fb90604401602060405180830381865afa158015620004fb573d6000803e3d6000fd5b505050506040513d601f19601f8201168201806040525081019062000521919062000c26565b6200054557338160405163a35b150b60e01b81526004016200032992919062000c4a565b5050565b6000604051602001620005789060208082526008908201526711d31597d4d0531560c21b604082015260600190565b60408051601f198184030181528282528051602091820120908301528101839052606001604051602081830303815290604052805190602001209050919050565b620005c3620008a8565b8051620005d290600362000774565b60408051808201909152600881526733b63b2a37b5b2b760c11b60208201528151620006029160009089620007de565b6040805180820190915260098152683637b733aa37b5b2b760b91b60208201528151620006339160019087620007de565b60408051808201909152600a81526939b437b93a2a37b5b2b760b11b60208201528151620006659160029086620007de565b60808101516200067790600262000774565b6040805180820190915260048152631cd85b1d60e21b60208201526080820151620006a6916000908862000841565b604080518082019091526007815266676c765479706560c81b60208201526080820151620006d8916001908562000841565b7f00000000000000000000000000000000000000000000000000000000000000006001600160a01b03166324de01e462000718886001600160a01b031690565b836040518363ffffffff1660e01b8152600401620007389291906200151b565b600060405180830381600087803b1580156200075357600080fd5b505af115801562000768573d6000803e3d6000fd5b50505050505050505050565b806001600160401b038111156200078f576200078f620009b8565b604051908082528060200260200182016040528015620007d757816020015b604080518082019091526060815260006020820152815260200190600190039081620007ae5790505b5090915250565b8184600001518481518110620007f857620007f86200162b565b60200260200101516000018190525080846000015184815181106200082157620008216200162b565b6020908102919091018101516001600160a01b0390921691015250505050565b81846000015184815181106200085b576200085b6200162b565b60200260200101516000018190525080846000015184815181106200088457620008846200162b565b6020026020010151602001818152505050505050565b611f53806200164283390190565b604080516101208101909152606060e0820181815261010083019190915281908152602001620008eb604051806040016040528060608152602001606081525090565b81526020016200090e604051806040016040528060608152602001606081525090565b815260200162000931604051806040016040528060608152602001606081525090565b815260200162000954604051806040016040528060608152602001606081525090565b815260200162000977604051806040016040528060608152602001606081525090565b81526020016200099a604051806040016040528060608152602001606081525090565b905290565b6001600160a01b0381168114620009b557600080fd5b50565b634e487b7160e01b600052604160045260246000fd5b600082601f830112620009e057600080fd5b81356001600160401b0380821115620009fd57620009fd620009b8565b604051601f8301601f19908116603f0116810190828211818310171562000a285762000a28620009b8565b8160405283815286602085880101111562000a4257600080fd5b836020870160208301376000602085830101528094505050505092915050565b600080600080600060a0868803121562000a7b57600080fd5b853562000a88816200099f565b9450602086013562000a9a816200099f565b93506040860135925060608601356001600160401b038082111562000abe57600080fd5b62000acc89838a01620009ce565b9350608088013591508082111562000ae357600080fd5b5062000af288828901620009ce565b9150509295509295909350565b80516001600160a01b03908116835260208083015182169084015260409182015116910152565b6060810162000b36828462000aff565b92915050565b60006020828403121562000b4f57600080fd5b815162000b5c816200099f565b9392505050565b6000815180845260005b8181101562000b8b5760208185018101518683018201520162000b6d565b506000602082860101526020601f19601f83011685010191505092915050565b6001600160a01b0385811682528416602082015260806040820181905260009062000bd99083018562000b63565b828103606084015262000bed818562000b63565b979650505050505050565b6001600160a01b038581168252841660208201526040810183905260c0810162000486606083018462000aff565b60006020828403121562000c3957600080fd5b8151801515811462000b5c57600080fd5b6001600160a01b038316815260406020820181905260009062000c709083018462000b63565b949350505050565b600081518084526020808501808196508360051b810191508286016000805b8681101562000d19578385038a5282516040815181885262000cbc8289018262000b63565b92890151888403898b01528051808552908a01938693508a0191505b8083101562000d035783516001600160a01b0316825292890192600192909201919089019062000cd8565b509b88019b965050509185019160010162000c97565b509298975050505050505050565b60006040808401835182865281815180845260608801915060608160051b89010193506020808401935060005b8281101562000da257898603605f190184528451805188885262000d7b8989018262000b63565b918401516001600160a01b0316978401979097529550938101939281019260010162000d54565b50808801519550888503818a01525050505062000486818362000c78565b600081518084526020808501808196508360051b810191508286016000805b8681101562000d19578385038a5282516040815181885262000e048289018262000b63565b92890151888403898b01528051808552908a01938693508a0191505b8083101562000e42578351825292890192600192909201919089019062000e20565b509b88019b965050509185019160010162000ddf565b60006040808401835182865281815180845260608801915060608160051b89010193506020808401935060005b8281101562000eca57898603605f190184528451805188885262000eac8989018262000b63565b91840151978401979097529550938101939281019260010162000e85565b50808801519550888503818a01525050505062000486818362000dc0565b600081518084526020808501808196508360051b810191508286016000805b8681101562000d19578385038a5282516040815181885262000f2c8289018262000b63565b92890151888403898b01528051808552908a01938693508a0191505b8083101562000f6a578351825292890192600192909201919089019062000f48565b509b88019b965050509185019160010162000f07565b60006040808401835182865281815180845260608801915060608160051b89010193506020808401935060005b8281101562000ff257898603605f190184528451805188885262000fd48989018262000b63565b91840151978401979097529550938101939281019260010162000fad565b50808801519550888503818a01525050505062000486818362000ee8565b600081518084526020808501808196508360051b810191508286016000805b8681101562000d19578385038a52825160408151818852620010548289018262000b63565b92890151888403898b01528051808552908a01938693508a0191505b80831015620010945783511515825292890192600192909201919089019062001070565b509b88019b96505050918501916001016200102f565b60006040808401835182865281815180845260608801915060608160051b89010193506020808401935060005b828110156200111e57898603605f1901845284518051888852620010fe8989018262000b63565b9184015115159784019790975295509381019392810192600101620010d7565b50808801519550888503818a01525050505062000486818362001010565b600081518084526020808501808196508360051b810191508286016000805b8681101562000d19578385038a52825160408151818852620011808289018262000b63565b92890151888403898b01528051808552908a01938693508a0191505b80831015620011be57835182529289019260019290920191908901906200119c565b509b88019b96505050918501916001016200115b565b60006040808401835182865281815180845260608801915060608160051b89010193506020808401935060005b828110156200124657898603605f1901845284518051888852620012288989018262000b63565b91840151978401979097529550938101939281019260010162001201565b50808801519550888503818a0152505050506200048681836200113c565b600081518084526020808501808196506005915083821b81018387016000805b8781101562001317578484038b52825160408151818752620012a98288018262000b63565b928a0151878403888c01528051808552908b019392508a83019150808a1b83018b01865b82811015620012ff57601f19858303018452620012ec82875162000b63565b958d0195938d01939150600101620012cd565b509e8b019e9750505093880193505060010162001284565b50919998505050505050505050565b60006040808401835182865281815180845260608801915060608160051b89010193506020808401935060005b82811015620013a957898603605f19018452845180518888526200137a8989018262000b63565b918401518883038986015291905062001394818362000b63565b97505050938101939281019260010162001353565b50808801519550888503818a01525050505062000486818362001264565b600081518084526020808501808196506005915083821b81018387016000805b8781101562001317578484038b528251604081518187526200140c8288018262000b63565b928a0151878403888c01528051808552908b019392508a83019150808a1b83018b01865b828110156200146257601f198583030184526200144f82875162000b63565b958d0195938d0193915060010162001430565b509e8b019e97505050938801935050600101620013e7565b60006040808401835182865281815180845260608801915060608160051b89010193506020808401935060005b82811015620014fd57898603605f1901845284518051888852620014ce8989018262000b63565b9184015188830389860152919050620014e8818362000b63565b975050509381019392810192600101620014a7565b50808801519550888503818a015250505050620004868183620013c7565b60608152600a60608201526911db1d90dc99585d195960b21b608082015282602082015260a060408201526000825160e060a08401526200156161018084018262000d27565b90506020840151609f19808584030160c086015262001581838362000e58565b925060408601519150808584030160e0860152620015a0838362000f80565b9250606086015191508085840301610100860152620015c08383620010aa565b9250608086015191508085840301610120860152620015e08383620011d4565b925060a08601519150808584030161014086015262001600838362001326565b925060c086015191508085840301610160860152506200162182826200147a565b9695505050505050565b634e487b7160e01b600052603260045260246000fdfe60c06040523480156200001157600080fd5b5060405162001f5338038062001f53833981016040819052620000349162000159565b8383818181868660036200004983826200027d565b5060046200005882826200027d565b5050506001600160a01b039081166080521660a052506200034995505050505050565b6001600160a01b03811681146200009157600080fd5b50565b634e487b7160e01b600052604160045260246000fd5b600082601f830112620000bc57600080fd5b81516001600160401b0380821115620000d957620000d962000094565b604051601f8301601f19908116603f0116810190828211818310171562000104576200010462000094565b816040528381526020925086838588010111156200012157600080fd5b600091505b8382101562000145578582018301518183018401529082019062000126565b600093810190920192909252949350505050565b600080600080608085870312156200017057600080fd5b84516200017d816200007b565b602086015190945062000190816200007b565b60408601519093506001600160401b0380821115620001ae57600080fd5b620001bc88838901620000aa565b93506060870151915080821115620001d357600080fd5b50620001e287828801620000aa565b91505092959194509250565b600181811c908216806200020357607f821691505b6020821081036200022457634e487b7160e01b600052602260045260246000fd5b50919050565b601f8211156200027857600081815260208120601f850160051c81016020861015620002535750805b601f850160051c820191505b8181101562000274578281556001016200025f565b5050505b505050565b81516001600160401b0381111562000299576200029962000094565b620002b181620002aa8454620001ee565b846200022a565b602080601f831160018114620002e95760008415620002d05750858301515b600019600386901b1c1916600185901b17855562000274565b600085815260208120601f198616915b828110156200031a57888601518255948401946001909101908401620002f9565b5085821015620003395787850151600019600388901b60f8161c191681555b5050505050600190811b01905550565b60805160a051611bba620003996000396000818161010a0152818161034101528181610668015281816107ff015281816109e20152610d720152600081816102d301526109190152611bba6000f3fe6080604052600436106100fe5760003560e01c806306fdde031461016b578063078d3b7914610196578063095ea7b3146101b657806318160ddd146101e657806323b872dd146102055780632fb1260514610225578063313ce56714610245578063352f9aed14610261578063395093511461028157806340c10f19146102a15780634a4a7b04146102c1578063523fba7f14610302578063660d0d671461032f57806370a082311461036357806395d89b41146103995780639dc29fac146103ae578063a457c2d7146103ce578063a9059cbb146103ee578063d443ca941461040e578063dd62ed3e1461042e578063eb40133f1461044e57600080fd5b3661016657600061012e7f000000000000000000000000000000000000000000000000000000000000000061046e565b9050336001600160a01b03821614610164573360405163738d28df60e11b815260040161015b9190611777565b60405180910390fd5b005b600080fd5b34801561017757600080fd5b50610180610521565b60405161018d91906117db565b60405180910390f35b3480156101a257600080fd5b506101646101b136600461180a565b6105b3565b3480156101c257600080fd5b506101d66101d136600461184b565b610613565b604051901515815260200161018d565b3480156101f257600080fd5b506002545b60405190815260200161018d565b34801561021157600080fd5b506101d661022036600461180a565b61062b565b34801561023157600080fd5b50610164610240366004611885565b61064f565b34801561025157600080fd5b506040516012815260200161018d565b34801561026d57600080fd5b506101f761027c3660046118d8565b6106d3565b34801561028d57600080fd5b506101d661029c36600461184b565b6106f0565b3480156102ad57600080fd5b506101646102bc36600461184b565b610712565b3480156102cd57600080fd5b506102f57f000000000000000000000000000000000000000000000000000000000000000081565b60405161018d9190611777565b34801561030e57600080fd5b506101f761031d3660046118d8565b60056020526000908152604090205481565b34801561033b57600080fd5b506102f57f000000000000000000000000000000000000000000000000000000000000000081565b34801561036f57600080fd5b506101f761037e3660046118d8565b6001600160a01b031660009081526020819052604090205490565b3480156103a557600080fd5b50610180610732565b3480156103ba57600080fd5b506101646103c936600461184b565b610741565b3480156103da57600080fd5b506101d66103e936600461184b565b61075d565b3480156103fa57600080fd5b506101d661040936600461184b565b6107d8565b34801561041a57600080fd5b5061016461042936600461184b565b6107e6565b34801561043a57600080fd5b506101f76104493660046118f5565b610830565b34801561045a57600080fd5b506101f76104693660046118d8565b61085b565b6000816001600160a01b03166321f8a7216040516020016104a69060208082526003908201526215d39560ea1b604082015260600190565b604051602081830303815290604052805190602001206040518263ffffffff1660e01b81526004016104da91815260200190565b602060405180830381865afa1580156104f7573d6000803e3d6000fd5b505050506040513d601f19601f8201168201806040525081019061051b919061192e565b92915050565b6060600380546105309061194b565b80601f016020809104026020016040519081016040528092919081815260200182805461055c9061194b565b80156105a95780601f1061057e576101008083540402835291602001916105a9565b820191906000526020600020905b81548152906001019060200180831161058c57829003601f168201915b5050505050905090565b6106036040516020016105c590611985565b604051602081830303815290604052805190602001206040518060400160405280600a81526020016921a7a72a2927a62622a960b11b815250610902565b61060e8383836109b2565b505050565b600033610621818585610a12565b5060019392505050565b600033610639858285610b36565b610644858585610bb0565b506001949350505050565b6106616040516020016105c590611985565b600061068c7f000000000000000000000000000000000000000000000000000000000000000061046e565b9050806001600160a01b0316856001600160a01b03161480156106ac5750815b156106c1576106bc858585610d42565b6106cc565b6106cc8585856109b2565b5050505050565b60006106e76040516020016105c590611985565b61051b82610d99565b6000336106218185856107038383610830565b61070d91906119bf565b610a12565b6107246040516020016105c590611985565b61072e8282610e4a565b5050565b6060600480546105309061194b565b6107536040516020016105c590611985565b61072e8282610ef7565b6000338161076b8286610830565b9050838110156107cb5760405162461bcd60e51b815260206004820152602560248201527f45524332303a2064656372656173656420616c6c6f77616e63652062656c6f77604482015264207a65726f60d81b606482015260840161015b565b6106448286868403610a12565b600033610621818585610bb0565b6107f86040516020016105c590611985565b60006108237f000000000000000000000000000000000000000000000000000000000000000061046e565b905061060e818484610d42565b6001600160a01b03918216600090815260016020908152604080832093909416825291909152205490565b600061086f6040516020016105c590611985565b6040516370a0823160e01b81526000906001600160a01b038416906370a082319061089e903090600401611777565b602060405180830381865afa1580156108bb573d6000803e3d6000fd5b505050506040513d601f19601f820116820180604052508101906108df91906119d2565b6001600160a01b0384166000908152600560205260409020819055915050919050565b60405163ac4ab3fb60e01b81526001600160a01b037f0000000000000000000000000000000000000000000000000000000000000000169063ac4ab3fb9061095090339086906004016119eb565b602060405180830381865afa15801561096d573d6000803e3d6000fd5b505050506040513d601f19601f820116820180604052508101906109919190611a04565b61072e57338160405163a35b150b60e01b815260040161015b929190611a21565b306001600160a01b038316036109dd5781604051637387c8a960e11b815260040161015b9190611777565b610a097f0000000000000000000000000000000000000000000000000000000000000000848484611017565b61060e83611261565b6001600160a01b038316610a745760405162461bcd60e51b8152602060048201526024808201527f45524332303a20617070726f76652066726f6d20746865207a65726f206164646044820152637265737360e01b606482015260840161015b565b6001600160a01b038216610ad55760405162461bcd60e51b815260206004820152602260248201527f45524332303a20617070726f766520746f20746865207a65726f206164647265604482015261737360f01b606482015260840161015b565b6001600160a01b0383811660008181526001602090815260408083209487168084529482529182902085905590518481527f8c5be1e5ebec7d5bd14f71427d1e84f3dd0314c0f7b2291e5b200ac8c7c3b925910160405180910390a3505050565b6000610b428484610830565b90506000198114610baa5781811015610b9d5760405162461bcd60e51b815260206004820152601d60248201527f45524332303a20696e73756666696369656e7420616c6c6f77616e6365000000604482015260640161015b565b610baa8484848403610a12565b50505050565b6001600160a01b038316610c145760405162461bcd60e51b815260206004820152602560248201527f45524332303a207472616e736665722066726f6d20746865207a65726f206164604482015264647265737360d81b606482015260840161015b565b6001600160a01b038216610c765760405162461bcd60e51b815260206004820152602360248201527f45524332303a207472616e7366657220746f20746865207a65726f206164647260448201526265737360e81b606482015260840161015b565b6001600160a01b03831660009081526020819052604090205481811015610cee5760405162461bcd60e51b815260206004820152602660248201527f45524332303a207472616e7366657220616d6f756e7420657863656564732062604482015265616c616e636560d01b606482015260840161015b565b6001600160a01b0384811660008181526020818152604080832087870390559387168083529184902080548701905592518581529092600080516020611b65833981519152910160405180910390a3610baa565b306001600160a01b03831603610d6d5781604051637387c8a960e11b815260040161015b9190611777565b610a097f00000000000000000000000000000000000000000000000000000000000000008484846112ea565b6001600160a01b0381166000818152600560205260408082205490516370a0823160e01b8152919290918391906370a0823190610dda903090600401611777565b602060405180830381865afa158015610df7573d6000803e3d6000fd5b505050506040513d601f19601f82011682018060405250810190610e1b91906119d2565b6001600160a01b03851660009081526005602052604090208190559050610e428282611a45565b949350505050565b6001600160a01b038216610ea05760405162461bcd60e51b815260206004820152601f60248201527f45524332303a206d696e7420746f20746865207a65726f206164647265737300604482015260640161015b565b8060026000828254610eb291906119bf565b90915550506001600160a01b03821660008181526020818152604080832080548601905551848152600080516020611b65833981519152910160405180910390a35050565b6001600160a01b038216610f575760405162461bcd60e51b815260206004820152602160248201527f45524332303a206275726e2066726f6d20746865207a65726f206164647265736044820152607360f81b606482015260840161015b565b6001600160a01b03821660009081526020819052604090205481811015610fcb5760405162461bcd60e51b815260206004820152602260248201527f45524332303a206275726e20616d6f756e7420657863656564732062616c616e604482015261636560f01b606482015260840161015b565b6001600160a01b038316600081815260208181526040808320868603905560028054879003905551858152919291600080516020611b65833981519152910160405180910390a3505050565b8015610baa576110268261144a565b6000846001600160a01b031663bd02d0f561104086611474565b6040518263ffffffff1660e01b815260040161105e91815260200190565b602060405180830381865afa15801561107b573d6000803e3d6000fd5b505050506040513d601f19601f8201168201806040525081019061109f91906119d2565b9050806000036110c45783604051634fe14bfd60e11b815260040161015b9190611777565b60006110d2858585856114fc565b50905080156110e2575050610baa565b6000866001600160a01b03166321f8a721604051602001611126906020808252600f908201526e484f4c44494e475f4144445245535360881b604082015260600190565b604051602081830303815290604052805190602001206040518263ffffffff1660e01b815260040161115a91815260200190565b602060405180830381865afa158015611177573d6000803e3d6000fd5b505050506040513d601f19601f8201168201806040525081019061119b919061192e565b90506001600160a01b0381166111c457604051633a6de2f560e21b815260040160405180910390fd5b6000806111d3888488886114fc565b9150915081156111e7575050505050610baa565b60006111f282611664565b5090507fc9f14d9a0a9b46470c7c0b6c508f8283abaab7f795f153953c58cd4250824dae8183604051611226929190611a58565b60405180910390a160405163012f3b8f60e71b81526001600160a01b03808b166004830152891660248201526044810188905260640161015b565b6040516370a0823160e01b81526001600160a01b038216906370a082319061128d903090600401611777565b602060405180830381865afa1580156112aa573d6000803e3d6000fd5b505050506040513d601f19601f820116820180604052508101906112ce91906119d2565b6001600160a01b03909116600090815260056020526040902055565b8015610baa576112f98261144a565b604051632e1a7d4d60e01b8152600481018290526001600160a01b03841690632e1a7d4d90602401600060405180830381600087803b15801561133b57600080fd5b505af115801561134f573d6000803e3d6000fd5b505050506000846001600160a01b031663bd02d0f56040516020016113a5906020808252601f908201527f4e41544956455f544f4b454e5f5452414e534645525f4741535f4c494d495400604082015260600190565b604051602081830303815290604052805190602001206040518263ffffffff1660e01b81526004016113d991815260200190565b602060405180830381865afa1580156113f6573d6000803e3d6000fd5b505050506040513d601f19601f8201168201806040525081019061141a91906119d2565b90506000806000806000868887f190508015611437575050610baa565b6114428685856116f4565b505050505050565b6001600160a01b0381166114715760405163d551823d60e01b815260040160405180910390fd5b50565b60006040516020016114b2906020808252601890820152771513d2d15397d514905394d1915497d1d054d7d31253525560421b604082015260600190565b60408051601f198184030181528282528051602091820120908301526001600160a01b03841690820152606001604051602081830303815290604052805190602001209050919050565b60006060600063a9059cbb60e01b868660405160240161151d9291906119eb565b604051602081830303815290604052906001600160e01b0319166020820180516001600160e01b0383818316178352505050509050600080886001600160a01b0316868460405161156e9190611a86565b60006040518083038160008787f1925050503d80600081146115ac576040519150601f19603f3d011682016040523d82523d6000602084013e6115b1565b606091505b5091509150811561165257805160000361160f576001600160a01b0389163b61160f5760006040518060400160405280601481526020017310d85b1b081d1bc81b9bdb8b58dbdb9d1c9858dd60621b8152509450945050505061165b565b6000815111801561163157508080602001905181019061162f9190611a04565b155b156116445760009450925061165b915050565b60019450925061165b915050565b60009450925050505b94509492505050565b6060600060448351101561168b575050604080516020810190915260008082529092909150565b6000611698846020015190565b90506307b9e43360e51b6001600160e01b03198216016116d757600484019350838060200190518101906116cc9190611ab8565b946001945092505050565b600060405180602001604052806000815250909250925050915091565b8060000361170157505050565b61170a8261144a565b60006117158461046e565b9050806001600160a01b031663d0e30db0836040518263ffffffff1660e01b81526004016000604051808303818588803b15801561175257600080fd5b505af1158015611766573d6000803e3d6000fd5b5050505050610baa84828585611017565b6001600160a01b0391909116815260200190565b60005b838110156117a657818101518382015260200161178e565b50506000910152565b600081518084526117c781602086016020860161178b565b601f01601f19169290920160200192915050565b6020815260006117ee60208301846117af565b9392505050565b6001600160a01b038116811461147157600080fd5b60008060006060848603121561181f57600080fd5b833561182a816117f5565b9250602084013561183a816117f5565b929592945050506040919091013590565b6000806040838503121561185e57600080fd5b8235611869816117f5565b946020939093013593505050565b801515811461147157600080fd5b6000806000806080858703121561189b57600080fd5b84356118a6816117f5565b935060208501356118b6816117f5565b92506040850135915060608501356118cd81611877565b939692955090935050565b6000602082840312156118ea57600080fd5b81356117ee816117f5565b6000806040838503121561190857600080fd5b8235611913816117f5565b91506020830135611923816117f5565b809150509250929050565b60006020828403121561194057600080fd5b81516117ee816117f5565b600181811c9082168061195f57607f821691505b60208210810361197f57634e487b7160e01b600052602260045260246000fd5b50919050565b6020808252600a908201526921a7a72a2927a62622a960b11b604082015260600190565b634e487b7160e01b600052601160045260246000fd5b8082018082111561051b5761051b6119a9565b6000602082840312156119e457600080fd5b5051919050565b6001600160a01b03929092168252602082015260400190565b600060208284031215611a1657600080fd5b81516117ee81611877565b6001600160a01b0383168152604060208201819052600090610e42908301846117af565b8181038181111561051b5761051b6119a9565b604081526000611a6b60408301856117af565b8281036020840152611a7d81856117af565b95945050505050565b60008251611a9881846020870161178b565b9190910192915050565b634e487b7160e01b600052604160045260246000fd5b600060208284031215611aca57600080fd5b81516001600160401b0380821115611ae157600080fd5b818401915084601f830112611af557600080fd5b815181811115611b0757611b07611aa2565b604051601f8201601f19908116603f01168101908382118183101715611b2f57611b2f611aa2565b81604052828152876020848701011115611b4857600080fd5b611b5983602083016020880161178b565b97965050505050505056feddf252ad1be2c89b69c2b068fc378daa952ba7f163c4a11628f55a4df523b3efa2646970667358221220fd1bdc5df85c8908de027932d84f7164cfa2fc38c01ed9172da2e3e08460e2a364736f6c63430008120033a26469706673582212204412f56824dae6a0611c5ccd9be929ada0b2bedc690cf5331cbf6d43ea12e0f564736f6c63430008120033",
  "libraries": {
    "GlvStoreUtils": "0xfF57EcD97CF2773f84d999f09410869598954216"
  },
  "devdoc": {
    "kind": "dev",
    "methods": {},
    "version": 1
  },
  "userdoc": {
    "kind": "user",
    "methods": {},
    "version": 1
  },
  "storageLayout": {
    "storage": [],
    "types": null
  }
}