{
  "address": "0x89810f23585FDCfAFfB1712e5B76d9b0F722e1d6",
  "abi": [
    {
      "inputs": [
        {
          "internalType": "contract RoleStore",
          "name": "_roleStore",
          "type": "address"
        },
        {
          "internalType": "contract DataStore",
          "name": "_dataStore",
          "type": "address"
        },
        {
          "internalType": "contract EventEmitter",
          "name": "_eventEmitter",
          "type": "address"
        }
      ],
      "stateMutability": "nonpayable",
      "type": "constructor"
    },
    {
      "inputs": [
        {
          "internalType": "bytes32",
          "name": "salt",
          "type": "bytes32"
        },
        {
          "internalType": "address",
          "name": "existingMarketAddress",
          "type": "address"
        }
      ],
      "name": "MarketAlreadyExists",
      "type": "error"
    },
    {
      "inputs": [
        {
          "internalType": "address",
          "name": "msgSender",
          "type": "address"
        },
        {
          "internalType": "string",
          "name": "role",
          "type": "string"
        }
      ],
      "name": "Unauthorized",
      "type": "error"
    },
    {
      "inputs": [
        {
          "internalType": "address",
          "name": "indexToken",
          "type": "address"
        },
        {
          "internalType": "address",
          "name": "longToken",
          "type": "address"
        },
        {
          "internalType": "address",
          "name": "shortToken",
          "type": "address"
        },
        {
          "internalType": "bytes32",
          "name": "marketType",
          "type": "bytes32"
        }
      ],
      "name": "createMarket",
      "outputs": [
        {
          "components": [
            {
              "internalType": "address",
              "name": "marketToken",
              "type": "address"
            },
            {
              "internalType": "address",
              "name": "indexToken",
              "type": "address"
            },
            {
              "internalType": "address",
              "name": "longToken",
              "type": "address"
            },
            {
              "internalType": "address",
              "name": "shortToken",
              "type": "address"
            }
          ],
          "internalType": "struct Market.Props",
          "name": "",
          "type": "tuple"
        }
      ],
      "stateMutability": "nonpayable",
      "type": "function"
    },
    {
      "inputs": [],
      "name": "dataStore",
      "outputs": [
        {
          "internalType": "contract DataStore",
          "name": "",
          "type": "address"
        }
      ],
      "stateMutability": "view",
      "type": "function"
    },
    {
      "inputs": [],
      "name": "eventEmitter",
      "outputs": [
        {
          "internalType": "contract EventEmitter",
          "name": "",
          "type": "address"
        }
      ],
      "stateMutability": "view",
      "type": "function"
    },
    {
      "inputs": [],
      "name": "roleStore",
      "outputs": [
        {
          "internalType": "contract RoleStore",
          "name": "",
          "type": "address"
        }
      ],
      "stateMutability": "view",
      "type": "function"
    }
  ],
  "transactionHash": "0x5187060a0000598363aa0b41bf9baeed673c0281fc2a6a260ea5a564625bf576",
  "args": [
    "0x19a8085537078e7847a332A76ABaDD5b02B1e736",
    "0xEA1BFb4Ea9A412dCCd63454AbC127431eBB0F0d4",
    "0x5973b2B2352AE3E3fa6B86AAc74c26512Ca4c433"
  ],
  "numDeployments": 22,
  "solcInputHash": "b0ade2ea44bd2a65220741dab0f45bf5",
  "bytecode": "0x60e06040523480156200001157600080fd5b50604051620032043803806200320483398101604081905262000034916200006b565b6001600160a01b0392831660805290821660a0521660c052620000bf565b6001600160a01b03811681146200006857600080fd5b50565b6000806000606084860312156200008157600080fd5b83516200008e8162000052565b6020850151909350620000a18162000052565b6040850151909250620000b48162000052565b809150509250925092565b60805160a05160c0516130ee620001166000396000818160ca01526106b601526000818160a2015281816102200152818161032301526103e9015260008181605d01528181610302015261048101526130ee6000f3fe60806040523480156200001157600080fd5b5060043610620000525760003560e01c80634a4a7b041462000057578063660d0d67146200009c5780639ff78c3014620000c4578063a50ff3a614620000ec575b600080fd5b6200007f7f000000000000000000000000000000000000000000000000000000000000000081565b6040516001600160a01b0390911681526020015b60405180910390f35b6200007f7f000000000000000000000000000000000000000000000000000000000000000081565b6200007f7f000000000000000000000000000000000000000000000000000000000000000081565b62000103620000fd36600462000994565b62000112565b60405162000093919062000a1f565b604080516080810182526000808252602082018190529181018290526060810191909152620001ae6040516020016200016c906020808252600d908201526c26a0a925a2aa2fa5a2a2a822a960991b604082015260600190565b604051602081830303815290604052805190602001206040518060400160405280600d81526020016c26a0a925a2aa2fa5a2a2a822a960991b81525062000465565b6040805160a060208201819052600a60c08301526911d35617d3505492d15560b21b60e08301526001600160a01b0380891693830193909352828716606083015291851660808201529081018390526000906101000160405160208183030381529060405280519060200120905060007f00000000000000000000000000000000000000000000000000000000000000006001600160a01b03166321f8a72162000258846200051f565b6040518263ffffffff1660e01b81526004016200027791815260200190565b602060405180830381865afa15801562000295573d6000803e3d6000fd5b505050506040513d601f19601f82011682018060405250810190620002bb919062000a35565b90506001600160a01b03811615620002fd576040516325e34fa160e01b8152600481018390526001600160a01b03821660248201526044015b60405180910390fd5b6000827f00000000000000000000000000000000000000000000000000000000000000007f0000000000000000000000000000000000000000000000000000000000000000604051620003509062000876565b6001600160a01b039283168152911660208201526040018190604051809103906000f590508015801562000388573d6000803e3d6000fd5b50604080516080810182526001600160a01b0380841682528b811660208301528a8116828401528916606082015290516303bc2fb360e51b81529192509073A8Df97A1FbD76a64631Ca8ce27b12749E494043190637785f6609062000418907f00000000000000000000000000000000000000000000000000000000000000009086908990879060040162000a5c565b60006040518083038186803b1580156200043157600080fd5b505af415801562000446573d6000803e3d6000fd5b505050506200045982858b8b8b62000592565b98975050505050505050565b60405163ac4ab3fb60e01b8152336004820152602481018390527f00000000000000000000000000000000000000000000000000000000000000006001600160a01b03169063ac4ab3fb90604401602060405180830381865afa158015620004d1573d6000803e3d6000fd5b505050506040513d601f19601f82011682018060405250810190620004f7919062000a93565b6200051b57338160405163a35b150b60e01b8152600401620002f492919062000aff565b5050565b600060405160200162000551906020808252600b908201526a13505492d15517d4d0531560aa1b604082015260600190565b60408051601f198184030181528282528051602091820120908301528101839052606001604051602081830303815290604052805190602001209050919050565b6200059c62000884565b8051620005ab90600462000750565b60408051808201909152600b81526a36b0b935b2ba2a37b5b2b760a91b60208201528151620005de9160009089620007ba565b60408051808201909152600a81526934b73232bc2a37b5b2b760b11b60208201528151620006109160019087620007ba565b6040805180820190915260098152683637b733aa37b5b2b760b91b60208201528151620006419160029086620007ba565b60408051808201909152600a81526939b437b93a2a37b5b2b760b11b60208201528151620006739160039085620007ba565b60808101516200068590600162000750565b6040805180820190915260048152631cd85b1d60e21b60208201526080820151620006b491600090886200081d565b7f00000000000000000000000000000000000000000000000000000000000000006001600160a01b03166324de01e4620006f4886001600160a01b031690565b836040518363ffffffff1660e01b8152600401620007149291906200131a565b600060405180830381600087803b1580156200072f57600080fd5b505af115801562000744573d6000803e3d6000fd5b50505050505050505050565b806001600160401b038111156200076b576200076b6200142d565b604051908082528060200260200182016040528015620007b357816020015b6040805180820190915260608152600060208201528152602001906001900390816200078a5790505b5090915250565b8184600001518481518110620007d457620007d462001443565b6020026020010151600001819052508084600001518481518110620007fd57620007fd62001443565b6020908102919091018101516001600160a01b0390921691015250505050565b818460000151848151811062000837576200083762001443565b602002602001015160000181905250808460000151848151811062000860576200086062001443565b6020026020010151602001818152505050505050565b611c5f806200145a83390190565b604080516101208101909152606060e0820181815261010083019190915281908152602001620008c7604051806040016040528060608152602001606081525090565b8152602001620008ea604051806040016040528060608152602001606081525090565b81526020016200090d604051806040016040528060608152602001606081525090565b815260200162000930604051806040016040528060608152602001606081525090565b815260200162000953604051806040016040528060608152602001606081525090565b815260200162000976604051806040016040528060608152602001606081525090565b905290565b6001600160a01b03811681146200099157600080fd5b50565b60008060008060808587031215620009ab57600080fd5b8435620009b8816200097b565b93506020850135620009ca816200097b565b92506040850135620009dc816200097b565b9396929550929360600135925050565b80516001600160a01b03908116835260208083015182169084015260408083015182169084015260609182015116910152565b6080810162000a2f8284620009ec565b92915050565b60006020828403121562000a4857600080fd5b815162000a55816200097b565b9392505050565b6001600160a01b038581168252841660208201526040810183905260e0810162000a8a6060830184620009ec565b95945050505050565b60006020828403121562000aa657600080fd5b8151801515811462000a5557600080fd5b6000815180845260005b8181101562000adf5760208185018101518683018201520162000ac1565b506000602082860101526020601f19601f83011685010191505092915050565b6001600160a01b038316815260406020820181905260009062000b259083018462000ab7565b949350505050565b600081518084526020808501808196508360051b810191508286016000805b8681101562000bce578385038a5282516040815181885262000b718289018262000ab7565b92890151888403898b01528051808552908a01938693508a0191505b8083101562000bb85783516001600160a01b0316825292890192600192909201919089019062000b8d565b509b88019b965050509185019160010162000b4c565b509298975050505050505050565b60006040808401835182865281815180845260608801915060608160051b89010193506020808401935060005b8281101562000c5757898603605f190184528451805188885262000c308989018262000ab7565b918401516001600160a01b0316978401979097529550938101939281019260010162000c09565b50808801519550888503818a01525050505062000a8a818362000b2d565b600081518084526020808501808196508360051b810191508286016000805b8681101562000bce578385038a5282516040815181885262000cb98289018262000ab7565b92890151888403898b01528051808552908a01938693508a0191505b8083101562000cf7578351825292890192600192909201919089019062000cd5565b509b88019b965050509185019160010162000c94565b60006040808401835182865281815180845260608801915060608160051b89010193506020808401935060005b8281101562000d7f57898603605f190184528451805188885262000d618989018262000ab7565b91840151978401979097529550938101939281019260010162000d3a565b50808801519550888503818a01525050505062000a8a818362000c75565b60006040808401835182865281815180845260608801915060608160051b89010193506020808401935060005b8281101562000d7f57898603605f190184528451805188885262000df18989018262000ab7565b91840151978401979097529550938101939281019260010162000dca565b600081518084526020808501808196508360051b810191508286016000805b8681101562000bce578385038a5282516040815181885262000e538289018262000ab7565b92890151888403898b01528051808552908a01938693508a0191505b8083101562000e935783511515825292890192600192909201919089019062000e6f565b509b88019b965050509185019160010162000e2e565b60006040808401835182865281815180845260608801915060608160051b89010193506020808401935060005b8281101562000f1d57898603605f190184528451805188885262000efd8989018262000ab7565b918401511515978401979097529550938101939281019260010162000ed6565b50808801519550888503818a01525050505062000a8a818362000e0f565b600081518084526020808501808196508360051b810191508286016000805b8681101562000bce578385038a5282516040815181885262000f7f8289018262000ab7565b92890151888403898b01528051808552908a01938693508a0191505b8083101562000fbd578351825292890192600192909201919089019062000f9b565b509b88019b965050509185019160010162000f5a565b60006040808401835182865281815180845260608801915060608160051b89010193506020808401935060005b828110156200104557898603605f1901845284518051888852620010278989018262000ab7565b91840151978401979097529550938101939281019260010162001000565b50808801519550888503818a01525050505062000a8a818362000f3b565b600081518084526020808501808196506005915083821b81018387016000805b8781101562001116578484038b52825160408151818752620010a88288018262000ab7565b928a0151878403888c01528051808552908b019392508a83019150808a1b83018b01865b82811015620010fe57601f19858303018452620010eb82875162000ab7565b958d0195938d01939150600101620010cc565b509e8b019e9750505093880193505060010162001083565b50919998505050505050505050565b60006040808401835182865281815180845260608801915060608160051b89010193506020808401935060005b82811015620011a857898603605f1901845284518051888852620011798989018262000ab7565b918401518883038986015291905062001193818362000ab7565b97505050938101939281019260010162001152565b50808801519550888503818a01525050505062000a8a818362001063565b600081518084526020808501808196506005915083821b81018387016000805b8781101562001116578484038b528251604081518187526200120b8288018262000ab7565b928a0151878403888c01528051808552908b019392508a83019150808a1b83018b01865b828110156200126157601f198583030184526200124e82875162000ab7565b958d0195938d019391506001016200122f565b509e8b019e97505050938801935050600101620011e6565b60006040808401835182865281815180845260608801915060608160051b89010193506020808401935060005b82811015620012fc57898603605f1901845284518051888852620012cd8989018262000ab7565b9184015188830389860152919050620012e7818362000ab7565b975050509381019392810192600101620012a6565b50808801519550888503818a01525050505062000a8a8183620011c6565b60608152600d60608201526c13585c9ad95d10dc99585d1959609a1b608082015282602082015260a060408201526000825160e060a08401526200136361018084018262000bdc565b90506020840151609f19808584030160c086015262001383838362000d0d565b925060408601519150808584030160e0860152620013a2838362000d9d565b9250606086015191508085840301610100860152620013c2838362000ea9565b9250608086015191508085840301610120860152620013e2838362000fd3565b925060a08601519150808584030161014086015262001402838362001125565b925060c0860151915080858403016101608601525062001423828262001279565b9695505050505050565b634e487b7160e01b600052604160045260246000fd5b634e487b7160e01b600052603260045260246000fdfe60c06040523480156200001157600080fd5b5060405162001c5f38038062001c5f8339810160408190526200003491620000cd565b8181816040518060400160405280600a81526020016911d3560813585c9ad95d60b21b81525060405180604001604052806002815260200161474d60f01b8152508160039081620000869190620001b1565b506004620000958282620001b1565b5050506001600160a01b039081166080521660a052506200027d915050565b6001600160a01b0381168114620000ca57600080fd5b50565b60008060408385031215620000e157600080fd5b8251620000ee81620000b4565b60208401519092506200010181620000b4565b809150509250929050565b634e487b7160e01b600052604160045260246000fd5b600181811c908216806200013757607f821691505b6020821081036200015857634e487b7160e01b600052602260045260246000fd5b50919050565b601f821115620001ac57600081815260208120601f850160051c81016020861015620001875750805b601f850160051c820191505b81811015620001a85782815560010162000193565b5050505b505050565b81516001600160401b03811115620001cd57620001cd6200010c565b620001e581620001de845462000122565b846200015e565b602080601f8311600181146200021d5760008415620002045750858301515b600019600386901b1c1916600185901b178555620001a8565b600085815260208120601f198616915b828110156200024e578886015182559484019460019091019084016200022d565b50858210156200026d5787850151600019600388901b60f8161c191681555b5050505050600190811b01905550565b60805160a051611993620002cc6000396000818160e9015281816102d3015281816105da01528181610754015281816108900152610c4101526000818161029201526107c701526119936000f3fe6080604052600436106100dd5760003560e01c806306fdde031461014a578063078d3b7914610175578063095ea7b31461019557806318160ddd146101c557806323b872dd146101e45780632fb1260514610204578063313ce56714610224578063395093511461024057806340c10f19146102605780634a4a7b0414610280578063660d0d67146102c157806370a08231146102f557806395d89b411461032b5780639dc29fac14610340578063a457c2d714610360578063a9059cbb14610380578063d443ca94146103a0578063dd62ed3e146103c057600080fd5b3661014557600061010d7f00000000000000000000000000000000000000000000000000000000000000006103e0565b9050336001600160a01b03821614610143573360405163738d28df60e11b815260040161013a9190611548565b60405180910390fd5b005b600080fd5b34801561015657600080fd5b5061015f610493565b60405161016c91906115ac565b60405180910390f35b34801561018157600080fd5b506101436101903660046115db565b610525565b3480156101a157600080fd5b506101b56101b036600461161c565b610585565b604051901515815260200161016c565b3480156101d157600080fd5b506002545b60405190815260200161016c565b3480156101f057600080fd5b506101b56101ff3660046115db565b61059d565b34801561021057600080fd5b5061014361021f366004611656565b6105c1565b34801561023057600080fd5b506040516012815260200161016c565b34801561024c57600080fd5b506101b561025b36600461161c565b610645565b34801561026c57600080fd5b5061014361027b36600461161c565b610667565b34801561028c57600080fd5b506102b47f000000000000000000000000000000000000000000000000000000000000000081565b60405161016c9190611548565b3480156102cd57600080fd5b506102b47f000000000000000000000000000000000000000000000000000000000000000081565b34801561030157600080fd5b506101d66103103660046116a9565b6001600160a01b031660009081526020819052604090205490565b34801561033757600080fd5b5061015f610687565b34801561034c57600080fd5b5061014361035b36600461161c565b610696565b34801561036c57600080fd5b506101b561037b36600461161c565b6106b2565b34801561038c57600080fd5b506101b561039b36600461161c565b61072d565b3480156103ac57600080fd5b506101436103bb36600461161c565b61073b565b3480156103cc57600080fd5b506101d66103db3660046116c6565b610785565b6000816001600160a01b03166321f8a7216040516020016104189060208082526003908201526215d39560ea1b604082015260600190565b604051602081830303815290604052805190602001206040518263ffffffff1660e01b815260040161044c91815260200190565b602060405180830381865afa158015610469573d6000803e3d6000fd5b505050506040513d601f19601f8201168201806040525081019061048d91906116ff565b92915050565b6060600380546104a29061171c565b80601f01602080910402602001604051908101604052809291908181526020018280546104ce9061171c565b801561051b5780601f106104f05761010080835404028352916020019161051b565b820191906000526020600020905b8154815290600101906020018083116104fe57829003601f168201915b5050505050905090565b61057560405160200161053790611756565b604051602081830303815290604052805190602001206040518060400160405280600a81526020016921a7a72a2927a62622a960b11b8152506107b0565b610580838383610860565b505050565b6000336105938185856108b7565b5060019392505050565b6000336105ab8582856109db565b6105b6858585610a55565b506001949350505050565b6105d360405160200161053790611756565b60006105fe7f00000000000000000000000000000000000000000000000000000000000000006103e0565b9050806001600160a01b0316856001600160a01b031614801561061e5750815b156106335761062e858585610c11565b61063e565b61063e858585610860565b5050505050565b6000336105938185856106588383610785565b6106629190611790565b6108b7565b61067960405160200161053790611756565b6106838282610c68565b5050565b6060600480546104a29061171c565b6106a860405160200161053790611756565b6106838282610d35565b600033816106c08286610785565b9050838110156107205760405162461bcd60e51b815260206004820152602560248201527f45524332303a2064656372656173656420616c6c6f77616e63652062656c6f77604482015264207a65726f60d81b606482015260840161013a565b6105b682868684036108b7565b600033610593818585610a55565b61074d60405160200161053790611756565b60006107787f00000000000000000000000000000000000000000000000000000000000000006103e0565b9050610580818484610c11565b6001600160a01b03918216600090815260016020908152604080832093909416825291909152205490565b60405163ac4ab3fb60e01b81526001600160a01b037f0000000000000000000000000000000000000000000000000000000000000000169063ac4ab3fb906107fe90339086906004016117a3565b602060405180830381865afa15801561081b573d6000803e3d6000fd5b505050506040513d601f19601f8201168201806040525081019061083f91906117bc565b61068357338160405163a35b150b60e01b815260040161013a9291906117d9565b306001600160a01b0383160361088b5781604051637387c8a960e11b815260040161013a9190611548565b6105807f0000000000000000000000000000000000000000000000000000000000000000848484610e71565b6001600160a01b0383166109195760405162461bcd60e51b8152602060048201526024808201527f45524332303a20617070726f76652066726f6d20746865207a65726f206164646044820152637265737360e01b606482015260840161013a565b6001600160a01b03821661097a5760405162461bcd60e51b815260206004820152602260248201527f45524332303a20617070726f766520746f20746865207a65726f206164647265604482015261737360f01b606482015260840161013a565b6001600160a01b0383811660008181526001602090815260408083209487168084529482529182902085905590518481527f8c5be1e5ebec7d5bd14f71427d1e84f3dd0314c0f7b2291e5b200ac8c7c3b925910160405180910390a3505050565b60006109e78484610785565b90506000198114610a4f5781811015610a425760405162461bcd60e51b815260206004820152601d60248201527f45524332303a20696e73756666696369656e7420616c6c6f77616e6365000000604482015260640161013a565b610a4f84848484036108b7565b50505050565b6001600160a01b038316610ab95760405162461bcd60e51b815260206004820152602560248201527f45524332303a207472616e736665722066726f6d20746865207a65726f206164604482015264647265737360d81b606482015260840161013a565b6001600160a01b038216610b1b5760405162461bcd60e51b815260206004820152602360248201527f45524332303a207472616e7366657220746f20746865207a65726f206164647260448201526265737360e81b606482015260840161013a565b6001600160a01b03831660009081526020819052604090205481811015610b935760405162461bcd60e51b815260206004820152602660248201527f45524332303a207472616e7366657220616d6f756e7420657863656564732062604482015265616c616e636560d01b606482015260840161013a565b6001600160a01b03808516600090815260208190526040808220858503905591851681529081208054849290610bca908490611790565b92505081905550826001600160a01b0316846001600160a01b031660008051602061193e83398151915284604051610c0491815260200190565b60405180910390a3610a4f565b306001600160a01b03831603610c3c5781604051637387c8a960e11b815260040161013a9190611548565b6105807f00000000000000000000000000000000000000000000000000000000000000008484846110be565b6001600160a01b038216610cbe5760405162461bcd60e51b815260206004820152601f60248201527f45524332303a206d696e7420746f20746865207a65726f206164647265737300604482015260640161013a565b8060026000828254610cd09190611790565b90915550506001600160a01b03821660009081526020819052604081208054839290610cfd908490611790565b90915550506040518181526001600160a01b0383169060009060008051602061193e8339815191529060200160405180910390a35050565b6001600160a01b038216610d955760405162461bcd60e51b815260206004820152602160248201527f45524332303a206275726e2066726f6d20746865207a65726f206164647265736044820152607360f81b606482015260840161013a565b6001600160a01b03821660009081526020819052604090205481811015610e095760405162461bcd60e51b815260206004820152602260248201527f45524332303a206275726e20616d6f756e7420657863656564732062616c616e604482015261636560f01b606482015260840161013a565b6001600160a01b0383166000908152602081905260408120838303905560028054849290610e38908490611805565b90915550506040518281526000906001600160a01b0385169060008051602061193e8339815191529060200160405180910390a3505050565b8015610a4f57610e808261121e565b6000846001600160a01b031663bd02d0f5610e9a86611245565b6040518263ffffffff1660e01b8152600401610eb891815260200190565b602060405180830381865afa158015610ed5573d6000803e3d6000fd5b505050506040513d601f19601f82011682018060405250810190610ef99190611818565b905080600003610f1e5783604051634fe14bfd60e11b815260040161013a9190611548565b6000610f2c858585856112cd565b5090508015610f3c575050610a4f565b6000866001600160a01b03166321f8a721604051602001610f80906020808252600f908201526e484f4c44494e475f4144445245535360881b604082015260600190565b604051602081830303815290604052805190602001206040518263ffffffff1660e01b8152600401610fb491815260200190565b602060405180830381865afa158015610fd1573d6000803e3d6000fd5b505050506040513d601f19601f82011682018060405250810190610ff591906116ff565b90506001600160a01b03811661101e57604051633a6de2f560e21b815260040160405180910390fd5b60008061102d888488886112cd565b915091508115611041575050505050610a4f565b600061104c82611435565b5090507fc9f14d9a0a9b46470c7c0b6c508f8283abaab7f795f153953c58cd4250824dae8183604051611080929190611831565b60405180910390a160405163012f3b8f60e71b81526001600160a01b03808b166004830152891660248201526044810188905260640161013a565b50565b8015610a4f576110cd8261121e565b604051632e1a7d4d60e01b8152600481018290526001600160a01b03841690632e1a7d4d90602401600060405180830381600087803b15801561110f57600080fd5b505af1158015611123573d6000803e3d6000fd5b505050506000846001600160a01b031663bd02d0f5604051602001611179906020808252601f908201527f4e41544956455f544f4b454e5f5452414e534645525f4741535f4c494d495400604082015260600190565b604051602081830303815290604052805190602001206040518263ffffffff1660e01b81526004016111ad91815260200190565b602060405180830381865afa1580156111ca573d6000803e3d6000fd5b505050506040513d601f19601f820116820180604052508101906111ee9190611818565b90506000806000806000868887f19050801561120b575050610a4f565b6112168685856114c5565b505050505050565b6001600160a01b0381166110bb5760405163d551823d60e01b815260040160405180910390fd5b6000604051602001611283906020808252601890820152771513d2d15397d514905394d1915497d1d054d7d31253525560421b604082015260600190565b60408051601f198184030181528282528051602091820120908301526001600160a01b03841690820152606001604051602081830303815290604052805190602001209050919050565b60006060600063a9059cbb60e01b86866040516024016112ee9291906117a3565b604051602081830303815290604052906001600160e01b0319166020820180516001600160e01b0383818316178352505050509050600080886001600160a01b0316868460405161133f919061185f565b60006040518083038160008787f1925050503d806000811461137d576040519150601f19603f3d011682016040523d82523d6000602084013e611382565b606091505b509150915081156114235780516000036113e0576001600160a01b0389163b6113e05760006040518060400160405280601481526020017310d85b1b081d1bc81b9bdb8b58dbdb9d1c9858dd60621b8152509450945050505061142c565b6000815111801561140257508080602001905181019061140091906117bc565b155b156114155760009450925061142c915050565b60019450925061142c915050565b60009450925050505b94509492505050565b6060600060448351101561145c575050604080516020810190915260008082529092909150565b6000611469846020015190565b90506307b9e43360e51b6001600160e01b03198216016114a8576004840193508380602001905181019061149d9190611891565b946001945092505050565b600060405180602001604052806000815250909250925050915091565b806000036114d257505050565b6114db8261121e565b60006114e6846103e0565b9050806001600160a01b031663d0e30db0836040518263ffffffff1660e01b81526004016000604051808303818588803b15801561152357600080fd5b505af1158015611537573d6000803e3d6000fd5b5050505050610a4f84828585610e71565b6001600160a01b0391909116815260200190565b60005b8381101561157757818101518382015260200161155f565b50506000910152565b6000815180845261159881602086016020860161155c565b601f01601f19169290920160200192915050565b6020815260006115bf6020830184611580565b9392505050565b6001600160a01b03811681146110bb57600080fd5b6000806000606084860312156115f057600080fd5b83356115fb816115c6565b9250602084013561160b816115c6565b929592945050506040919091013590565b6000806040838503121561162f57600080fd5b823561163a816115c6565b946020939093013593505050565b80151581146110bb57600080fd5b6000806000806080858703121561166c57600080fd5b8435611677816115c6565b93506020850135611687816115c6565b925060408501359150606085013561169e81611648565b939692955090935050565b6000602082840312156116bb57600080fd5b81356115bf816115c6565b600080604083850312156116d957600080fd5b82356116e4816115c6565b915060208301356116f4816115c6565b809150509250929050565b60006020828403121561171157600080fd5b81516115bf816115c6565b600181811c9082168061173057607f821691505b60208210810361175057634e487b7160e01b600052602260045260246000fd5b50919050565b6020808252600a908201526921a7a72a2927a62622a960b11b604082015260600190565b634e487b7160e01b600052601160045260246000fd5b8082018082111561048d5761048d61177a565b6001600160a01b03929092168252602082015260400190565b6000602082840312156117ce57600080fd5b81516115bf81611648565b6001600160a01b03831681526040602082018190526000906117fd90830184611580565b949350505050565b8181038181111561048d5761048d61177a565b60006020828403121561182a57600080fd5b5051919050565b6040815260006118446040830185611580565b82810360208401526118568185611580565b95945050505050565b6000825161187181846020870161155c565b9190910192915050565b634e487b7160e01b600052604160045260246000fd5b6000602082840312156118a357600080fd5b81516001600160401b03808211156118ba57600080fd5b818401915084601f8301126118ce57600080fd5b8151818111156118e0576118e061187b565b604051601f8201601f19908116603f011681019083821181831017156119085761190861187b565b8160405282815287602084870101111561192157600080fd5b61193283602083016020880161155c565b97965050505050505056feddf252ad1be2c89b69c2b068fc378daa952ba7f163c4a11628f55a4df523b3efa26469706673582212207b2f416ddd5d27b6c312cfc055588cfd2b0570bc8e2c994d6c633785b8a4710f64736f6c63430008120033a264697066735822122086179255c34f04d4828df9f8907b0b2e860d6e6d576ec809efc8ae6d454fc50264736f6c63430008120033",
  "deployedBytecode": "0x60806040523480156200001157600080fd5b5060043610620000525760003560e01c80634a4a7b041462000057578063660d0d67146200009c5780639ff78c3014620000c4578063a50ff3a614620000ec575b600080fd5b6200007f7f000000000000000000000000000000000000000000000000000000000000000081565b6040516001600160a01b0390911681526020015b60405180910390f35b6200007f7f000000000000000000000000000000000000000000000000000000000000000081565b6200007f7f000000000000000000000000000000000000000000000000000000000000000081565b62000103620000fd36600462000994565b62000112565b60405162000093919062000a1f565b604080516080810182526000808252602082018190529181018290526060810191909152620001ae6040516020016200016c906020808252600d908201526c26a0a925a2aa2fa5a2a2a822a960991b604082015260600190565b604051602081830303815290604052805190602001206040518060400160405280600d81526020016c26a0a925a2aa2fa5a2a2a822a960991b81525062000465565b6040805160a060208201819052600a60c08301526911d35617d3505492d15560b21b60e08301526001600160a01b0380891693830193909352828716606083015291851660808201529081018390526000906101000160405160208183030381529060405280519060200120905060007f00000000000000000000000000000000000000000000000000000000000000006001600160a01b03166321f8a72162000258846200051f565b6040518263ffffffff1660e01b81526004016200027791815260200190565b602060405180830381865afa15801562000295573d6000803e3d6000fd5b505050506040513d601f19601f82011682018060405250810190620002bb919062000a35565b90506001600160a01b03811615620002fd576040516325e34fa160e01b8152600481018390526001600160a01b03821660248201526044015b60405180910390fd5b6000827f00000000000000000000000000000000000000000000000000000000000000007f0000000000000000000000000000000000000000000000000000000000000000604051620003509062000876565b6001600160a01b039283168152911660208201526040018190604051809103906000f590508015801562000388573d6000803e3d6000fd5b50604080516080810182526001600160a01b0380841682528b811660208301528a8116828401528916606082015290516303bc2fb360e51b81529192509073__$ff439aa65a80c9eec648f15db20b189505$__90637785f6609062000418907f00000000000000000000000000000000000000000000000000000000000000009086908990879060040162000a5c565b60006040518083038186803b1580156200043157600080fd5b505af415801562000446573d6000803e3d6000fd5b505050506200045982858b8b8b62000592565b98975050505050505050565b60405163ac4ab3fb60e01b8152336004820152602481018390527f00000000000000000000000000000000000000000000000000000000000000006001600160a01b03169063ac4ab3fb90604401602060405180830381865afa158015620004d1573d6000803e3d6000fd5b505050506040513d601f19601f82011682018060405250810190620004f7919062000a93565b6200051b57338160405163a35b150b60e01b8152600401620002f492919062000aff565b5050565b600060405160200162000551906020808252600b908201526a13505492d15517d4d0531560aa1b604082015260600190565b60408051601f198184030181528282528051602091820120908301528101839052606001604051602081830303815290604052805190602001209050919050565b6200059c62000884565b8051620005ab90600462000750565b60408051808201909152600b81526a36b0b935b2ba2a37b5b2b760a91b60208201528151620005de9160009089620007ba565b60408051808201909152600a81526934b73232bc2a37b5b2b760b11b60208201528151620006109160019087620007ba565b6040805180820190915260098152683637b733aa37b5b2b760b91b60208201528151620006419160029086620007ba565b60408051808201909152600a81526939b437b93a2a37b5b2b760b11b60208201528151620006739160039085620007ba565b60808101516200068590600162000750565b6040805180820190915260048152631cd85b1d60e21b60208201526080820151620006b491600090886200081d565b7f00000000000000000000000000000000000000000000000000000000000000006001600160a01b03166324de01e4620006f4886001600160a01b031690565b836040518363ffffffff1660e01b8152600401620007149291906200131a565b600060405180830381600087803b1580156200072f57600080fd5b505af115801562000744573d6000803e3d6000fd5b50505050505050505050565b806001600160401b038111156200076b576200076b6200142d565b604051908082528060200260200182016040528015620007b357816020015b6040805180820190915260608152600060208201528152602001906001900390816200078a5790505b5090915250565b8184600001518481518110620007d457620007d462001443565b6020026020010151600001819052508084600001518481518110620007fd57620007fd62001443565b6020908102919091018101516001600160a01b0390921691015250505050565b818460000151848151811062000837576200083762001443565b602002602001015160000181905250808460000151848151811062000860576200086062001443565b6020026020010151602001818152505050505050565b611c5f806200145a83390190565b604080516101208101909152606060e0820181815261010083019190915281908152602001620008c7604051806040016040528060608152602001606081525090565b8152602001620008ea604051806040016040528060608152602001606081525090565b81526020016200090d604051806040016040528060608152602001606081525090565b815260200162000930604051806040016040528060608152602001606081525090565b815260200162000953604051806040016040528060608152602001606081525090565b815260200162000976604051806040016040528060608152602001606081525090565b905290565b6001600160a01b03811681146200099157600080fd5b50565b60008060008060808587031215620009ab57600080fd5b8435620009b8816200097b565b93506020850135620009ca816200097b565b92506040850135620009dc816200097b565b9396929550929360600135925050565b80516001600160a01b03908116835260208083015182169084015260408083015182169084015260609182015116910152565b6080810162000a2f8284620009ec565b92915050565b60006020828403121562000a4857600080fd5b815162000a55816200097b565b9392505050565b6001600160a01b038581168252841660208201526040810183905260e0810162000a8a6060830184620009ec565b95945050505050565b60006020828403121562000aa657600080fd5b8151801515811462000a5557600080fd5b6000815180845260005b8181101562000adf5760208185018101518683018201520162000ac1565b506000602082860101526020601f19601f83011685010191505092915050565b6001600160a01b038316815260406020820181905260009062000b259083018462000ab7565b949350505050565b600081518084526020808501808196508360051b810191508286016000805b8681101562000bce578385038a5282516040815181885262000b718289018262000ab7565b92890151888403898b01528051808552908a01938693508a0191505b8083101562000bb85783516001600160a01b0316825292890192600192909201919089019062000b8d565b509b88019b965050509185019160010162000b4c565b509298975050505050505050565b60006040808401835182865281815180845260608801915060608160051b89010193506020808401935060005b8281101562000c5757898603605f190184528451805188885262000c308989018262000ab7565b918401516001600160a01b0316978401979097529550938101939281019260010162000c09565b50808801519550888503818a01525050505062000a8a818362000b2d565b600081518084526020808501808196508360051b810191508286016000805b8681101562000bce578385038a5282516040815181885262000cb98289018262000ab7565b92890151888403898b01528051808552908a01938693508a0191505b8083101562000cf7578351825292890192600192909201919089019062000cd5565b509b88019b965050509185019160010162000c94565b60006040808401835182865281815180845260608801915060608160051b89010193506020808401935060005b8281101562000d7f57898603605f190184528451805188885262000d618989018262000ab7565b91840151978401979097529550938101939281019260010162000d3a565b50808801519550888503818a01525050505062000a8a818362000c75565b60006040808401835182865281815180845260608801915060608160051b89010193506020808401935060005b8281101562000d7f57898603605f190184528451805188885262000df18989018262000ab7565b91840151978401979097529550938101939281019260010162000dca565b600081518084526020808501808196508360051b810191508286016000805b8681101562000bce578385038a5282516040815181885262000e538289018262000ab7565b92890151888403898b01528051808552908a01938693508a0191505b8083101562000e935783511515825292890192600192909201919089019062000e6f565b509b88019b965050509185019160010162000e2e565b60006040808401835182865281815180845260608801915060608160051b89010193506020808401935060005b8281101562000f1d57898603605f190184528451805188885262000efd8989018262000ab7565b918401511515978401979097529550938101939281019260010162000ed6565b50808801519550888503818a01525050505062000a8a818362000e0f565b600081518084526020808501808196508360051b810191508286016000805b8681101562000bce578385038a5282516040815181885262000f7f8289018262000ab7565b92890151888403898b01528051808552908a01938693508a0191505b8083101562000fbd578351825292890192600192909201919089019062000f9b565b509b88019b965050509185019160010162000f5a565b60006040808401835182865281815180845260608801915060608160051b89010193506020808401935060005b828110156200104557898603605f1901845284518051888852620010278989018262000ab7565b91840151978401979097529550938101939281019260010162001000565b50808801519550888503818a01525050505062000a8a818362000f3b565b600081518084526020808501808196506005915083821b81018387016000805b8781101562001116578484038b52825160408151818752620010a88288018262000ab7565b928a0151878403888c01528051808552908b019392508a83019150808a1b83018b01865b82811015620010fe57601f19858303018452620010eb82875162000ab7565b958d0195938d01939150600101620010cc565b509e8b019e9750505093880193505060010162001083565b50919998505050505050505050565b60006040808401835182865281815180845260608801915060608160051b89010193506020808401935060005b82811015620011a857898603605f1901845284518051888852620011798989018262000ab7565b918401518883038986015291905062001193818362000ab7565b97505050938101939281019260010162001152565b50808801519550888503818a01525050505062000a8a818362001063565b600081518084526020808501808196506005915083821b81018387016000805b8781101562001116578484038b528251604081518187526200120b8288018262000ab7565b928a0151878403888c01528051808552908b019392508a83019150808a1b83018b01865b828110156200126157601f198583030184526200124e82875162000ab7565b958d0195938d019391506001016200122f565b509e8b019e97505050938801935050600101620011e6565b60006040808401835182865281815180845260608801915060608160051b89010193506020808401935060005b82811015620012fc57898603605f1901845284518051888852620012cd8989018262000ab7565b9184015188830389860152919050620012e7818362000ab7565b975050509381019392810192600101620012a6565b50808801519550888503818a01525050505062000a8a8183620011c6565b60608152600d60608201526c13585c9ad95d10dc99585d1959609a1b608082015282602082015260a060408201526000825160e060a08401526200136361018084018262000bdc565b90506020840151609f19808584030160c086015262001383838362000d0d565b925060408601519150808584030160e0860152620013a2838362000d9d565b9250606086015191508085840301610100860152620013c2838362000ea9565b9250608086015191508085840301610120860152620013e2838362000fd3565b925060a08601519150808584030161014086015262001402838362001125565b925060c0860151915080858403016101608601525062001423828262001279565b9695505050505050565b634e487b7160e01b600052604160045260246000fd5b634e487b7160e01b600052603260045260246000fdfe60c06040523480156200001157600080fd5b5060405162001c5f38038062001c5f8339810160408190526200003491620000cd565b8181816040518060400160405280600a81526020016911d3560813585c9ad95d60b21b81525060405180604001604052806002815260200161474d60f01b8152508160039081620000869190620001b1565b506004620000958282620001b1565b5050506001600160a01b039081166080521660a052506200027d915050565b6001600160a01b0381168114620000ca57600080fd5b50565b60008060408385031215620000e157600080fd5b8251620000ee81620000b4565b60208401519092506200010181620000b4565b809150509250929050565b634e487b7160e01b600052604160045260246000fd5b600181811c908216806200013757607f821691505b6020821081036200015857634e487b7160e01b600052602260045260246000fd5b50919050565b601f821115620001ac57600081815260208120601f850160051c81016020861015620001875750805b601f850160051c820191505b81811015620001a85782815560010162000193565b5050505b505050565b81516001600160401b03811115620001cd57620001cd6200010c565b620001e581620001de845462000122565b846200015e565b602080601f8311600181146200021d5760008415620002045750858301515b600019600386901b1c1916600185901b178555620001a8565b600085815260208120601f198616915b828110156200024e578886015182559484019460019091019084016200022d565b50858210156200026d5787850151600019600388901b60f8161c191681555b5050505050600190811b01905550565b60805160a051611993620002cc6000396000818160e9015281816102d3015281816105da01528181610754015281816108900152610c4101526000818161029201526107c701526119936000f3fe6080604052600436106100dd5760003560e01c806306fdde031461014a578063078d3b7914610175578063095ea7b31461019557806318160ddd146101c557806323b872dd146101e45780632fb1260514610204578063313ce56714610224578063395093511461024057806340c10f19146102605780634a4a7b0414610280578063660d0d67146102c157806370a08231146102f557806395d89b411461032b5780639dc29fac14610340578063a457c2d714610360578063a9059cbb14610380578063d443ca94146103a0578063dd62ed3e146103c057600080fd5b3661014557600061010d7f00000000000000000000000000000000000000000000000000000000000000006103e0565b9050336001600160a01b03821614610143573360405163738d28df60e11b815260040161013a9190611548565b60405180910390fd5b005b600080fd5b34801561015657600080fd5b5061015f610493565b60405161016c91906115ac565b60405180910390f35b34801561018157600080fd5b506101436101903660046115db565b610525565b3480156101a157600080fd5b506101b56101b036600461161c565b610585565b604051901515815260200161016c565b3480156101d157600080fd5b506002545b60405190815260200161016c565b3480156101f057600080fd5b506101b56101ff3660046115db565b61059d565b34801561021057600080fd5b5061014361021f366004611656565b6105c1565b34801561023057600080fd5b506040516012815260200161016c565b34801561024c57600080fd5b506101b561025b36600461161c565b610645565b34801561026c57600080fd5b5061014361027b36600461161c565b610667565b34801561028c57600080fd5b506102b47f000000000000000000000000000000000000000000000000000000000000000081565b60405161016c9190611548565b3480156102cd57600080fd5b506102b47f000000000000000000000000000000000000000000000000000000000000000081565b34801561030157600080fd5b506101d66103103660046116a9565b6001600160a01b031660009081526020819052604090205490565b34801561033757600080fd5b5061015f610687565b34801561034c57600080fd5b5061014361035b36600461161c565b610696565b34801561036c57600080fd5b506101b561037b36600461161c565b6106b2565b34801561038c57600080fd5b506101b561039b36600461161c565b61072d565b3480156103ac57600080fd5b506101436103bb36600461161c565b61073b565b3480156103cc57600080fd5b506101d66103db3660046116c6565b610785565b6000816001600160a01b03166321f8a7216040516020016104189060208082526003908201526215d39560ea1b604082015260600190565b604051602081830303815290604052805190602001206040518263ffffffff1660e01b815260040161044c91815260200190565b602060405180830381865afa158015610469573d6000803e3d6000fd5b505050506040513d601f19601f8201168201806040525081019061048d91906116ff565b92915050565b6060600380546104a29061171c565b80601f01602080910402602001604051908101604052809291908181526020018280546104ce9061171c565b801561051b5780601f106104f05761010080835404028352916020019161051b565b820191906000526020600020905b8154815290600101906020018083116104fe57829003601f168201915b5050505050905090565b61057560405160200161053790611756565b604051602081830303815290604052805190602001206040518060400160405280600a81526020016921a7a72a2927a62622a960b11b8152506107b0565b610580838383610860565b505050565b6000336105938185856108b7565b5060019392505050565b6000336105ab8582856109db565b6105b6858585610a55565b506001949350505050565b6105d360405160200161053790611756565b60006105fe7f00000000000000000000000000000000000000000000000000000000000000006103e0565b9050806001600160a01b0316856001600160a01b031614801561061e5750815b156106335761062e858585610c11565b61063e565b61063e858585610860565b5050505050565b6000336105938185856106588383610785565b6106629190611790565b6108b7565b61067960405160200161053790611756565b6106838282610c68565b5050565b6060600480546104a29061171c565b6106a860405160200161053790611756565b6106838282610d35565b600033816106c08286610785565b9050838110156107205760405162461bcd60e51b815260206004820152602560248201527f45524332303a2064656372656173656420616c6c6f77616e63652062656c6f77604482015264207a65726f60d81b606482015260840161013a565b6105b682868684036108b7565b600033610593818585610a55565b61074d60405160200161053790611756565b60006107787f00000000000000000000000000000000000000000000000000000000000000006103e0565b9050610580818484610c11565b6001600160a01b03918216600090815260016020908152604080832093909416825291909152205490565b60405163ac4ab3fb60e01b81526001600160a01b037f0000000000000000000000000000000000000000000000000000000000000000169063ac4ab3fb906107fe90339086906004016117a3565b602060405180830381865afa15801561081b573d6000803e3d6000fd5b505050506040513d601f19601f8201168201806040525081019061083f91906117bc565b61068357338160405163a35b150b60e01b815260040161013a9291906117d9565b306001600160a01b0383160361088b5781604051637387c8a960e11b815260040161013a9190611548565b6105807f0000000000000000000000000000000000000000000000000000000000000000848484610e71565b6001600160a01b0383166109195760405162461bcd60e51b8152602060048201526024808201527f45524332303a20617070726f76652066726f6d20746865207a65726f206164646044820152637265737360e01b606482015260840161013a565b6001600160a01b03821661097a5760405162461bcd60e51b815260206004820152602260248201527f45524332303a20617070726f766520746f20746865207a65726f206164647265604482015261737360f01b606482015260840161013a565b6001600160a01b0383811660008181526001602090815260408083209487168084529482529182902085905590518481527f8c5be1e5ebec7d5bd14f71427d1e84f3dd0314c0f7b2291e5b200ac8c7c3b925910160405180910390a3505050565b60006109e78484610785565b90506000198114610a4f5781811015610a425760405162461bcd60e51b815260206004820152601d60248201527f45524332303a20696e73756666696369656e7420616c6c6f77616e6365000000604482015260640161013a565b610a4f84848484036108b7565b50505050565b6001600160a01b038316610ab95760405162461bcd60e51b815260206004820152602560248201527f45524332303a207472616e736665722066726f6d20746865207a65726f206164604482015264647265737360d81b606482015260840161013a565b6001600160a01b038216610b1b5760405162461bcd60e51b815260206004820152602360248201527f45524332303a207472616e7366657220746f20746865207a65726f206164647260448201526265737360e81b606482015260840161013a565b6001600160a01b03831660009081526020819052604090205481811015610b935760405162461bcd60e51b815260206004820152602660248201527f45524332303a207472616e7366657220616d6f756e7420657863656564732062604482015265616c616e636560d01b606482015260840161013a565b6001600160a01b03808516600090815260208190526040808220858503905591851681529081208054849290610bca908490611790565b92505081905550826001600160a01b0316846001600160a01b031660008051602061193e83398151915284604051610c0491815260200190565b60405180910390a3610a4f565b306001600160a01b03831603610c3c5781604051637387c8a960e11b815260040161013a9190611548565b6105807f00000000000000000000000000000000000000000000000000000000000000008484846110be565b6001600160a01b038216610cbe5760405162461bcd60e51b815260206004820152601f60248201527f45524332303a206d696e7420746f20746865207a65726f206164647265737300604482015260640161013a565b8060026000828254610cd09190611790565b90915550506001600160a01b03821660009081526020819052604081208054839290610cfd908490611790565b90915550506040518181526001600160a01b0383169060009060008051602061193e8339815191529060200160405180910390a35050565b6001600160a01b038216610d955760405162461bcd60e51b815260206004820152602160248201527f45524332303a206275726e2066726f6d20746865207a65726f206164647265736044820152607360f81b606482015260840161013a565b6001600160a01b03821660009081526020819052604090205481811015610e095760405162461bcd60e51b815260206004820152602260248201527f45524332303a206275726e20616d6f756e7420657863656564732062616c616e604482015261636560f01b606482015260840161013a565b6001600160a01b0383166000908152602081905260408120838303905560028054849290610e38908490611805565b90915550506040518281526000906001600160a01b0385169060008051602061193e8339815191529060200160405180910390a3505050565b8015610a4f57610e808261121e565b6000846001600160a01b031663bd02d0f5610e9a86611245565b6040518263ffffffff1660e01b8152600401610eb891815260200190565b602060405180830381865afa158015610ed5573d6000803e3d6000fd5b505050506040513d601f19601f82011682018060405250810190610ef99190611818565b905080600003610f1e5783604051634fe14bfd60e11b815260040161013a9190611548565b6000610f2c858585856112cd565b5090508015610f3c575050610a4f565b6000866001600160a01b03166321f8a721604051602001610f80906020808252600f908201526e484f4c44494e475f4144445245535360881b604082015260600190565b604051602081830303815290604052805190602001206040518263ffffffff1660e01b8152600401610fb491815260200190565b602060405180830381865afa158015610fd1573d6000803e3d6000fd5b505050506040513d601f19601f82011682018060405250810190610ff591906116ff565b90506001600160a01b03811661101e57604051633a6de2f560e21b815260040160405180910390fd5b60008061102d888488886112cd565b915091508115611041575050505050610a4f565b600061104c82611435565b5090507fc9f14d9a0a9b46470c7c0b6c508f8283abaab7f795f153953c58cd4250824dae8183604051611080929190611831565b60405180910390a160405163012f3b8f60e71b81526001600160a01b03808b166004830152891660248201526044810188905260640161013a565b50565b8015610a4f576110cd8261121e565b604051632e1a7d4d60e01b8152600481018290526001600160a01b03841690632e1a7d4d90602401600060405180830381600087803b15801561110f57600080fd5b505af1158015611123573d6000803e3d6000fd5b505050506000846001600160a01b031663bd02d0f5604051602001611179906020808252601f908201527f4e41544956455f544f4b454e5f5452414e534645525f4741535f4c494d495400604082015260600190565b604051602081830303815290604052805190602001206040518263ffffffff1660e01b81526004016111ad91815260200190565b602060405180830381865afa1580156111ca573d6000803e3d6000fd5b505050506040513d601f19601f820116820180604052508101906111ee9190611818565b90506000806000806000868887f19050801561120b575050610a4f565b6112168685856114c5565b505050505050565b6001600160a01b0381166110bb5760405163d551823d60e01b815260040160405180910390fd5b6000604051602001611283906020808252601890820152771513d2d15397d514905394d1915497d1d054d7d31253525560421b604082015260600190565b60408051601f198184030181528282528051602091820120908301526001600160a01b03841690820152606001604051602081830303815290604052805190602001209050919050565b60006060600063a9059cbb60e01b86866040516024016112ee9291906117a3565b604051602081830303815290604052906001600160e01b0319166020820180516001600160e01b0383818316178352505050509050600080886001600160a01b0316868460405161133f919061185f565b60006040518083038160008787f1925050503d806000811461137d576040519150601f19603f3d011682016040523d82523d6000602084013e611382565b606091505b509150915081156114235780516000036113e0576001600160a01b0389163b6113e05760006040518060400160405280601481526020017310d85b1b081d1bc81b9bdb8b58dbdb9d1c9858dd60621b8152509450945050505061142c565b6000815111801561140257508080602001905181019061140091906117bc565b155b156114155760009450925061142c915050565b60019450925061142c915050565b60009450925050505b94509492505050565b6060600060448351101561145c575050604080516020810190915260008082529092909150565b6000611469846020015190565b90506307b9e43360e51b6001600160e01b03198216016114a8576004840193508380602001905181019061149d9190611891565b946001945092505050565b600060405180602001604052806000815250909250925050915091565b806000036114d257505050565b6114db8261121e565b60006114e6846103e0565b9050806001600160a01b031663d0e30db0836040518263ffffffff1660e01b81526004016000604051808303818588803b15801561152357600080fd5b505af1158015611537573d6000803e3d6000fd5b5050505050610a4f84828585610e71565b6001600160a01b0391909116815260200190565b60005b8381101561157757818101518382015260200161155f565b50506000910152565b6000815180845261159881602086016020860161155c565b601f01601f19169290920160200192915050565b6020815260006115bf6020830184611580565b9392505050565b6001600160a01b03811681146110bb57600080fd5b6000806000606084860312156115f057600080fd5b83356115fb816115c6565b9250602084013561160b816115c6565b929592945050506040919091013590565b6000806040838503121561162f57600080fd5b823561163a816115c6565b946020939093013593505050565b80151581146110bb57600080fd5b6000806000806080858703121561166c57600080fd5b8435611677816115c6565b93506020850135611687816115c6565b925060408501359150606085013561169e81611648565b939692955090935050565b6000602082840312156116bb57600080fd5b81356115bf816115c6565b600080604083850312156116d957600080fd5b82356116e4816115c6565b915060208301356116f4816115c6565b809150509250929050565b60006020828403121561171157600080fd5b81516115bf816115c6565b600181811c9082168061173057607f821691505b60208210810361175057634e487b7160e01b600052602260045260246000fd5b50919050565b6020808252600a908201526921a7a72a2927a62622a960b11b604082015260600190565b634e487b7160e01b600052601160045260246000fd5b8082018082111561048d5761048d61177a565b6001600160a01b03929092168252602082015260400190565b6000602082840312156117ce57600080fd5b81516115bf81611648565b6001600160a01b03831681526040602082018190526000906117fd90830184611580565b949350505050565b8181038181111561048d5761048d61177a565b60006020828403121561182a57600080fd5b5051919050565b6040815260006118446040830185611580565b82810360208401526118568185611580565b95945050505050565b6000825161187181846020870161155c565b9190910192915050565b634e487b7160e01b600052604160045260246000fd5b6000602082840312156118a357600080fd5b81516001600160401b03808211156118ba57600080fd5b818401915084601f8301126118ce57600080fd5b8151818111156118e0576118e061187b565b604051601f8201601f19908116603f011681019083821181831017156119085761190861187b565b8160405282815287602084870101111561192157600080fd5b61193283602083016020880161155c565b97965050505050505056feddf252ad1be2c89b69c2b068fc378daa952ba7f163c4a11628f55a4df523b3efa26469706673582212207b2f416ddd5d27b6c312cfc055588cfd2b0570bc8e2c994d6c633785b8a4710f64736f6c63430008120033a264697066735822122086179255c34f04d4828df9f8907b0b2e860d6e6d576ec809efc8ae6d454fc50264736f6c63430008120033",
  "libraries": {
    "MarketStoreUtils": "0xA8Df97A1FbD76a64631Ca8ce27b12749E4940431"
  },
  "devdoc": {
    "kind": "dev",
    "methods": {},
    "version": 1
  },
  "userdoc": {
    "kind": "user",
    "methods": {},
    "version": 1
  },
  "storageLayout": {
    "storage": [],
    "types": null
  }
}