{
  "address": "0xE14f26972Faf06e4942893Bb2d2a41c47b4114a0",
  "abi": [
    {
      "inputs": [
        {
          "internalType": "contract RoleStore",
          "name": "_roleStore",
          "type": "address"
        }
      ],
      "stateMutability": "nonpayable",
      "type": "constructor"
    },
    {
      "inputs": [
        {
          "internalType": "address",
          "name": "msgSender",
          "type": "address"
        },
        {
          "internalType": "string",
          "name": "role",
          "type": "string"
        }
      ],
      "name": "Unauthorized",
      "type": "error"
    },
    {
      "anonymous": false,
      "inputs": [
        {
          "indexed": false,
          "internalType": "address",
          "name": "prevGov",
          "type": "address"
        },
        {
          "indexed": false,
          "internalType": "address",
          "name": "nextGov",
          "type": "address"
        }
      ],
      "name": "SetGov",
      "type": "event"
    },
    {
      "inputs": [
        {
          "internalType": "address",
          "name": "account",
          "type": "address"
        }
      ],
      "name": "addSigner",
      "outputs": [],
      "stateMutability": "nonpayable",
      "type": "function"
    },
    {
      "inputs": [
        {
          "internalType": "uint256",
          "name": "index",
          "type": "uint256"
        }
      ],
      "name": "getSigner",
      "outputs": [
        {
          "internalType": "address",
          "name": "",
          "type": "address"
        }
      ],
      "stateMutability": "view",
      "type": "function"
    },
    {
      "inputs": [],
      "name": "getSignerCount",
      "outputs": [
        {
          "internalType": "uint256",
          "name": "",
          "type": "uint256"
        }
      ],
      "stateMutability": "view",
      "type": "function"
    },
    {
      "inputs": [
        {
          "internalType": "uint256",
          "name": "start",
          "type": "uint256"
        },
        {
          "internalType": "uint256",
          "name": "end",
          "type": "uint256"
        }
      ],
      "name": "getSigners",
      "outputs": [
        {
          "internalType": "address[]",
          "name": "",
          "type": "address[]"
        }
      ],
      "stateMutability": "view",
      "type": "function"
    },
    {
      "inputs": [],
      "name": "gov",
      "outputs": [
        {
          "internalType": "address",
          "name": "",
          "type": "address"
        }
      ],
      "stateMutability": "view",
      "type": "function"
    },
    {
      "inputs": [
        {
          "internalType": "address",
          "name": "account",
          "type": "address"
        }
      ],
      "name": "removeSigner",
      "outputs": [],
      "stateMutability": "nonpayable",
      "type": "function"
    },
    {
      "inputs": [],
      "name": "roleStore",
      "outputs": [
        {
          "internalType": "contract RoleStore",
          "name": "",
          "type": "address"
        }
      ],
      "stateMutability": "view",
      "type": "function"
    },
    {
      "inputs": [
        {
          "internalType": "address",
          "name": "_gov",
          "type": "address"
        }
      ],
      "name": "setGov",
      "outputs": [],
      "stateMutability": "nonpayable",
      "type": "function"
    }
  ],
  "transactionHash": "0xbfbd5fa7705963b285b56e1c578a1a256c2271f2279e9f461efca8f3df887f16",
  "args": [
    "0xFc371E380262536c819D12B9569106bf032cC41c"
  ],
  "numDeployments": 1,
  "solcInputHash": "635dda53de9b7a48407bbc874989be1e",
  "bytecode": "0x60a060405234801561001057600080fd5b506040516108fd3803806108fd83398101604081905261002f916100ac565b806100393361004b565b6001600160a01b0316608052506100dc565b600080546001600160a01b038381166001600160a01b031983168117909355604080519190921680825260208201939093527f53351836099c03ffc3b1727d8abd4b0222afa87d4ed76ae3102d51369ef7f785910160405180910390a15050565b6000602082840312156100be57600080fd5b81516001600160a01b03811681146100d557600080fd5b9392505050565b6080516108006100fd6000396000818160da015261028301526108006000f3fe608060405234801561001057600080fd5b50600436106100785760003560e01c80630e316ab71461007d57806312d43a51146100925780633ffefe4e146100c25780634a4a7b04146100d5578063b715be81146100fc578063cfad57a214610112578063daf6faa614610125578063eb12d61e14610145575b600080fd5b61009061008b3660046105f1565b610158565b005b6000546100a5906001600160a01b031681565b6040516001600160a01b0390911681526020015b60405180910390f35b6100a56100d036600461061a565b6101b7565b6100a57f000000000000000000000000000000000000000000000000000000000000000081565b6101046101ca565b6040519081526020016100b9565b6100906101203660046105f1565b6101db565b610138610133366004610633565b610235565b6040516100b99190610655565b6100906101533660046105f1565b61024a565b6101a860405160200161016a906106a2565b604051602081830303815290604052805190602001206040518060400160405280600a81526020016921a7a72a2927a62622a960b11b815250610267565b6101b3600182610317565b5050565b60006101c460018361032c565b92915050565b60006101d66001610338565b905090565b6000546001600160a01b03163314610229576040805163a35b150b60e01b81523360048201526024810191909152600360448201526223a7ab60e91b60648201526084015b60405180910390fd5b61023281610342565b50565b6060610243600184846103a3565b9392505050565b61025c60405160200161016a906106a2565b6101b3600182610470565b60405163ac4ab3fb60e01b8152336004820152602481018390527f00000000000000000000000000000000000000000000000000000000000000006001600160a01b03169063ac4ab3fb90604401602060405180830381865afa1580156102d2573d6000803e3d6000fd5b505050506040513d601f19601f820116820180604052508101906102f691906106c6565b6101b357338160405163a35b150b60e01b81526004016102209291906106e8565b6000610243836001600160a01b038416610485565b60006102438383610578565b60006101c4825490565b600080546001600160a01b038381166001600160a01b031983168117909355604080519190921680825260208201939093527f53351836099c03ffc3b1727d8abd4b0222afa87d4ed76ae3102d51369ef7f785910160405180910390a15050565b606060006103b085610338565b9050808311156103be578092505b60006103ca858561075c565b6001600160401b038111156103e1576103e161076f565b60405190808252806020026020018201604052801561040a578160200160208202803683370190505b509050845b8481101561046657610421878261032c565b8261042c888461075c565b8151811061043c5761043c610785565b6001600160a01b03909216602092830291909101909101528061045e8161079b565b91505061040f565b5095945050505050565b6000610243836001600160a01b0384166105a2565b6000818152600183016020526040812054801561056e5760006104a960018361075c565b85549091506000906104bd9060019061075c565b90508181146105225760008660000182815481106104dd576104dd610785565b906000526020600020015490508087600001848154811061050057610500610785565b6000918252602080832090910192909255918252600188019052604090208390555b8554869080610533576105336107b4565b6001900381819060005260206000200160009055905585600101600086815260200190815260200160002060009055600193505050506101c4565b60009150506101c4565b600082600001828154811061058f5761058f610785565b9060005260206000200154905092915050565b60008181526001830160205260408120546105e9575081546001818101845560008481526020808220909301849055845484825282860190935260409020919091556101c4565b5060006101c4565b60006020828403121561060357600080fd5b81356001600160a01b038116811461024357600080fd5b60006020828403121561062c57600080fd5b5035919050565b6000806040838503121561064657600080fd5b50508035926020909101359150565b6020808252825182820181905260009190848201906040850190845b818110156106965783516001600160a01b031683529284019291840191600101610671565b50909695505050505050565b6020808252600a908201526921a7a72a2927a62622a960b11b604082015260600190565b6000602082840312156106d857600080fd5b8151801515811461024357600080fd5b60018060a01b038316815260006020604081840152835180604085015260005b8181101561072457858101830151858201606001528201610708565b506000606082860101526060601f19601f830116850101925050509392505050565b634e487b7160e01b600052601160045260246000fd5b818103818111156101c4576101c4610746565b634e487b7160e01b600052604160045260246000fd5b634e487b7160e01b600052603260045260246000fd5b6000600182016107ad576107ad610746565b5060010190565b634e487b7160e01b600052603160045260246000fdfea26469706673582212206625bc26e5c2c442929cfe3324e73f2358d2f28ead11d51427d084083665df1364736f6c63430008100033",
  "devdoc": {
    "kind": "dev",
    "methods": {},
    "version": 1
  },
  "userdoc": {
    "kind": "user",
    "methods": {},
    "version": 1
  },
  "storageLayout": {
    "storage": [
      {
        "astId": 12130,
        "contract": "contracts/oracle/OracleStore.sol:OracleStore",
        "label": "gov",
        "offset": 0,
        "slot": "0",
        "type": "t_address"
      },
      {
        "astId": 17801,
        "contract": "contracts/oracle/OracleStore.sol:OracleStore",
        "label": "signers",
        "offset": 0,
        "slot": "1",
        "type": "t_struct(AddressSet)4299_storage"
      }
    ],
    "types": {
      "t_address": {
        "encoding": "inplace",
        "label": "address",
        "numberOfBytes": "20"
      },
      "t_array(t_bytes32)dyn_storage": {
        "base": "t_bytes32",
        "encoding": "dynamic_array",
        "label": "bytes32[]",
        "numberOfBytes": "32"
      },
      "t_bytes32": {
        "encoding": "inplace",
        "label": "bytes32",
        "numberOfBytes": "32"
      },
      "t_mapping(t_bytes32,t_uint256)": {
        "encoding": "mapping",
        "key": "t_bytes32",
        "label": "mapping(bytes32 => uint256)",
        "numberOfBytes": "32",
        "value": "t_uint256"
      },
      "t_struct(AddressSet)4299_storage": {
        "encoding": "inplace",
        "label": "struct EnumerableSet.AddressSet",
        "members": [
          {
            "astId": 4298,
            "contract": "contracts/oracle/OracleStore.sol:OracleStore",
            "label": "_inner",
            "offset": 0,
            "slot": "0",
            "type": "t_struct(Set)3998_storage"
          }
        ],
        "numberOfBytes": "64"
      },
      "t_struct(Set)3998_storage": {
        "encoding": "inplace",
        "label": "struct EnumerableSet.Set",
        "members": [
          {
            "astId": 3993,
            "contract": "contracts/oracle/OracleStore.sol:OracleStore",
            "label": "_values",
            "offset": 0,
            "slot": "0",
            "type": "t_array(t_bytes32)dyn_storage"
          },
          {
            "astId": 3997,
            "contract": "contracts/oracle/OracleStore.sol:OracleStore",
            "label": "_indexes",
            "offset": 0,
            "slot": "1",
            "type": "t_mapping(t_bytes32,t_uint256)"
          }
        ],
        "numberOfBytes": "64"
      },
      "t_uint256": {
        "encoding": "inplace",
        "label": "uint256",
        "numberOfBytes": "32"
      }
    }
  }
}