{
  "address": "0x2671b2A247A038Ea8934D6Deb13c819Ef47A7ED1",
  "abi": [
    {
      "inputs": [
        {
          "internalType": "contract RoleStore",
          "name": "_roleStore",
          "type": "address"
        },
        {
          "internalType": "contract DataStore",
          "name": "_dataStore",
          "type": "address"
        },
        {
          "internalType": "contract EventEmitter",
          "name": "_eventEmitter",
          "type": "address"
        },
        {
          "internalType": "contract MarketStore",
          "name": "_marketStore",
          "type": "address"
        },
        {
          "internalType": "contract OrderStore",
          "name": "_orderStore",
          "type": "address"
        },
        {
          "internalType": "contract PositionStore",
          "name": "_positionStore",
          "type": "address"
        },
        {
          "internalType": "contract Oracle",
          "name": "_oracle",
          "type": "address"
        },
        {
          "internalType": "contract SwapHandler",
          "name": "_swapHandler",
          "type": "address"
        },
        {
          "internalType": "contract FeeReceiver",
          "name": "_feeReceiver",
          "type": "address"
        },
        {
          "internalType": "contract IReferralStorage",
          "name": "_referralStorage",
          "type": "address"
        }
      ],
      "stateMutability": "nonpayable",
      "type": "constructor"
    },
    {
      "inputs": [
        {
          "internalType": "bytes32",
          "name": "key",
          "type": "bytes32"
        }
      ],
      "name": "BlockedFeature",
      "type": "error"
    },
    {
      "inputs": [
        {
          "internalType": "uint256",
          "name": "index",
          "type": "uint256"
        }
      ],
      "name": "EmptyCompactedBlockNumber",
      "type": "error"
    },
    {
      "inputs": [],
      "name": "EmptyMarket",
      "type": "error"
    },
    {
      "inputs": [],
      "name": "EmptyOrder",
      "type": "error"
    },
    {
      "inputs": [
        {
          "internalType": "address",
          "name": "receiver",
          "type": "address"
        },
        {
          "internalType": "uint256",
          "name": "amount",
          "type": "uint256"
        }
      ],
      "name": "NativeTokenTransferError",
      "type": "error"
    },
    {
      "inputs": [
        {
          "internalType": "address",
          "name": "msgSender",
          "type": "address"
        },
        {
          "internalType": "string",
          "name": "role",
          "type": "string"
        }
      ],
      "name": "Unauthorized",
      "type": "error"
    },
    {
      "inputs": [],
      "name": "UnsupportedOrderType",
      "type": "error"
    },
    {
      "anonymous": false,
      "inputs": [
        {
          "indexed": false,
          "internalType": "string",
          "name": "reason",
          "type": "string"
        }
      ],
      "name": "OracleError",
      "type": "event"
    },
    {
      "anonymous": false,
      "inputs": [
        {
          "indexed": false,
          "internalType": "address",
          "name": "prevGov",
          "type": "address"
        },
        {
          "indexed": false,
          "internalType": "address",
          "name": "nextGov",
          "type": "address"
        }
      ],
      "name": "SetGov",
      "type": "event"
    },
    {
      "inputs": [
        {
          "internalType": "bytes32",
          "name": "key",
          "type": "bytes32"
        },
        {
          "components": [
            {
              "internalType": "uint256",
              "name": "signerInfo",
              "type": "uint256"
            },
            {
              "internalType": "address[]",
              "name": "tokens",
              "type": "address[]"
            },
            {
              "internalType": "uint256[]",
              "name": "compactedOracleBlockNumbers",
              "type": "uint256[]"
            },
            {
              "internalType": "uint256[]",
              "name": "compactedOracleTimestamps",
              "type": "uint256[]"
            },
            {
              "internalType": "uint256[]",
              "name": "compactedDecimals",
              "type": "uint256[]"
            },
            {
              "internalType": "uint256[]",
              "name": "compactedMinPrices",
              "type": "uint256[]"
            },
            {
              "internalType": "uint256[]",
              "name": "compactedMinPricesIndexes",
              "type": "uint256[]"
            },
            {
              "internalType": "uint256[]",
              "name": "compactedMaxPrices",
              "type": "uint256[]"
            },
            {
              "internalType": "uint256[]",
              "name": "compactedMaxPricesIndexes",
              "type": "uint256[]"
            },
            {
              "internalType": "bytes[]",
              "name": "signatures",
              "type": "bytes[]"
            },
            {
              "internalType": "address[]",
              "name": "priceFeedTokens",
              "type": "address[]"
            }
          ],
          "internalType": "struct OracleUtils.SetPricesParams",
          "name": "oracleParams",
          "type": "tuple"
        },
        {
          "internalType": "address",
          "name": "keeper",
          "type": "address"
        },
        {
          "internalType": "uint256",
          "name": "startingGas",
          "type": "uint256"
        }
      ],
      "name": "_executeOrder",
      "outputs": [],
      "stateMutability": "nonpayable",
      "type": "function"
    },
    {
      "inputs": [
        {
          "internalType": "address",
          "name": "account",
          "type": "address"
        },
        {
          "components": [
            {
              "internalType": "address",
              "name": "receiver",
              "type": "address"
            },
            {
              "internalType": "address",
              "name": "callbackContract",
              "type": "address"
            },
            {
              "internalType": "address",
              "name": "market",
              "type": "address"
            },
            {
              "internalType": "address",
              "name": "initialCollateralToken",
              "type": "address"
            },
            {
              "internalType": "address[]",
              "name": "swapPath",
              "type": "address[]"
            },
            {
              "internalType": "uint256",
              "name": "sizeDeltaUsd",
              "type": "uint256"
            },
            {
              "internalType": "uint256",
              "name": "triggerPrice",
              "type": "uint256"
            },
            {
              "internalType": "uint256",
              "name": "acceptablePrice",
              "type": "uint256"
            },
            {
              "internalType": "uint256",
              "name": "executionFee",
              "type": "uint256"
            },
            {
              "internalType": "uint256",
              "name": "callbackGasLimit",
              "type": "uint256"
            },
            {
              "internalType": "uint256",
              "name": "minOutputAmount",
              "type": "uint256"
            },
            {
              "internalType": "enum Order.OrderType",
              "name": "orderType",
              "type": "uint8"
            },
            {
              "internalType": "bool",
              "name": "isLong",
              "type": "bool"
            },
            {
              "internalType": "bool",
              "name": "shouldUnwrapNativeToken",
              "type": "bool"
            }
          ],
          "internalType": "struct OrderBaseUtils.CreateOrderParams",
          "name": "params",
          "type": "tuple"
        }
      ],
      "name": "createOrder",
      "outputs": [
        {
          "internalType": "bytes32",
          "name": "",
          "type": "bytes32"
        }
      ],
      "stateMutability": "nonpayable",
      "type": "function"
    },
    {
      "inputs": [],
      "name": "dataStore",
      "outputs": [
        {
          "internalType": "contract DataStore",
          "name": "",
          "type": "address"
        }
      ],
      "stateMutability": "view",
      "type": "function"
    },
    {
      "inputs": [],
      "name": "eventEmitter",
      "outputs": [
        {
          "internalType": "contract EventEmitter",
          "name": "",
          "type": "address"
        }
      ],
      "stateMutability": "view",
      "type": "function"
    },
    {
      "inputs": [
        {
          "internalType": "address",
          "name": "account",
          "type": "address"
        },
        {
          "internalType": "address",
          "name": "market",
          "type": "address"
        },
        {
          "internalType": "address",
          "name": "collateralToken",
          "type": "address"
        },
        {
          "internalType": "bool",
          "name": "isLong",
          "type": "bool"
        },
        {
          "internalType": "uint256",
          "name": "sizeDeltaUsd",
          "type": "uint256"
        },
        {
          "components": [
            {
              "internalType": "uint256",
              "name": "signerInfo",
              "type": "uint256"
            },
            {
              "internalType": "address[]",
              "name": "tokens",
              "type": "address[]"
            },
            {
              "internalType": "uint256[]",
              "name": "compactedOracleBlockNumbers",
              "type": "uint256[]"
            },
            {
              "internalType": "uint256[]",
              "name": "compactedOracleTimestamps",
              "type": "uint256[]"
            },
            {
              "internalType": "uint256[]",
              "name": "compactedDecimals",
              "type": "uint256[]"
            },
            {
              "internalType": "uint256[]",
              "name": "compactedMinPrices",
              "type": "uint256[]"
            },
            {
              "internalType": "uint256[]",
              "name": "compactedMinPricesIndexes",
              "type": "uint256[]"
            },
            {
              "internalType": "uint256[]",
              "name": "compactedMaxPrices",
              "type": "uint256[]"
            },
            {
              "internalType": "uint256[]",
              "name": "compactedMaxPricesIndexes",
              "type": "uint256[]"
            },
            {
              "internalType": "bytes[]",
              "name": "signatures",
              "type": "bytes[]"
            },
            {
              "internalType": "address[]",
              "name": "priceFeedTokens",
              "type": "address[]"
            }
          ],
          "internalType": "struct OracleUtils.SetPricesParams",
          "name": "oracleParams",
          "type": "tuple"
        }
      ],
      "name": "executeAdl",
      "outputs": [],
      "stateMutability": "nonpayable",
      "type": "function"
    },
    {
      "inputs": [
        {
          "internalType": "address",
          "name": "account",
          "type": "address"
        },
        {
          "internalType": "address",
          "name": "market",
          "type": "address"
        },
        {
          "internalType": "address",
          "name": "collateralToken",
          "type": "address"
        },
        {
          "internalType": "bool",
          "name": "isLong",
          "type": "bool"
        },
        {
          "components": [
            {
              "internalType": "uint256",
              "name": "signerInfo",
              "type": "uint256"
            },
            {
              "internalType": "address[]",
              "name": "tokens",
              "type": "address[]"
            },
            {
              "internalType": "uint256[]",
              "name": "compactedOracleBlockNumbers",
              "type": "uint256[]"
            },
            {
              "internalType": "uint256[]",
              "name": "compactedOracleTimestamps",
              "type": "uint256[]"
            },
            {
              "internalType": "uint256[]",
              "name": "compactedDecimals",
              "type": "uint256[]"
            },
            {
              "internalType": "uint256[]",
              "name": "compactedMinPrices",
              "type": "uint256[]"
            },
            {
              "internalType": "uint256[]",
              "name": "compactedMinPricesIndexes",
              "type": "uint256[]"
            },
            {
              "internalType": "uint256[]",
              "name": "compactedMaxPrices",
              "type": "uint256[]"
            },
            {
              "internalType": "uint256[]",
              "name": "compactedMaxPricesIndexes",
              "type": "uint256[]"
            },
            {
              "internalType": "bytes[]",
              "name": "signatures",
              "type": "bytes[]"
            },
            {
              "internalType": "address[]",
              "name": "priceFeedTokens",
              "type": "address[]"
            }
          ],
          "internalType": "struct OracleUtils.SetPricesParams",
          "name": "oracleParams",
          "type": "tuple"
        }
      ],
      "name": "executeLiquidation",
      "outputs": [],
      "stateMutability": "nonpayable",
      "type": "function"
    },
    {
      "inputs": [
        {
          "internalType": "bytes32",
          "name": "key",
          "type": "bytes32"
        },
        {
          "components": [
            {
              "internalType": "uint256",
              "name": "signerInfo",
              "type": "uint256"
            },
            {
              "internalType": "address[]",
              "name": "tokens",
              "type": "address[]"
            },
            {
              "internalType": "uint256[]",
              "name": "compactedOracleBlockNumbers",
              "type": "uint256[]"
            },
            {
              "internalType": "uint256[]",
              "name": "compactedOracleTimestamps",
              "type": "uint256[]"
            },
            {
              "internalType": "uint256[]",
              "name": "compactedDecimals",
              "type": "uint256[]"
            },
            {
              "internalType": "uint256[]",
              "name": "compactedMinPrices",
              "type": "uint256[]"
            },
            {
              "internalType": "uint256[]",
              "name": "compactedMinPricesIndexes",
              "type": "uint256[]"
            },
            {
              "internalType": "uint256[]",
              "name": "compactedMaxPrices",
              "type": "uint256[]"
            },
            {
              "internalType": "uint256[]",
              "name": "compactedMaxPricesIndexes",
              "type": "uint256[]"
            },
            {
              "internalType": "bytes[]",
              "name": "signatures",
              "type": "bytes[]"
            },
            {
              "internalType": "address[]",
              "name": "priceFeedTokens",
              "type": "address[]"
            }
          ],
          "internalType": "struct OracleUtils.SetPricesParams",
          "name": "oracleParams",
          "type": "tuple"
        }
      ],
      "name": "executeOrder",
      "outputs": [],
      "stateMutability": "nonpayable",
      "type": "function"
    },
    {
      "inputs": [],
      "name": "feeReceiver",
      "outputs": [
        {
          "internalType": "contract FeeReceiver",
          "name": "",
          "type": "address"
        }
      ],
      "stateMutability": "view",
      "type": "function"
    },
    {
      "inputs": [],
      "name": "gov",
      "outputs": [
        {
          "internalType": "address",
          "name": "",
          "type": "address"
        }
      ],
      "stateMutability": "view",
      "type": "function"
    },
    {
      "inputs": [],
      "name": "marketStore",
      "outputs": [
        {
          "internalType": "contract MarketStore",
          "name": "",
          "type": "address"
        }
      ],
      "stateMutability": "view",
      "type": "function"
    },
    {
      "inputs": [],
      "name": "oracle",
      "outputs": [
        {
          "internalType": "contract Oracle",
          "name": "",
          "type": "address"
        }
      ],
      "stateMutability": "view",
      "type": "function"
    },
    {
      "inputs": [],
      "name": "orderStore",
      "outputs": [
        {
          "internalType": "contract OrderStore",
          "name": "",
          "type": "address"
        }
      ],
      "stateMutability": "view",
      "type": "function"
    },
    {
      "inputs": [],
      "name": "positionStore",
      "outputs": [
        {
          "internalType": "contract PositionStore",
          "name": "",
          "type": "address"
        }
      ],
      "stateMutability": "view",
      "type": "function"
    },
    {
      "inputs": [
        {
          "internalType": "address payable",
          "name": "receiver",
          "type": "address"
        },
        {
          "internalType": "uint256",
          "name": "amount",
          "type": "uint256"
        }
      ],
      "name": "recoverNativeToken",
      "outputs": [],
      "stateMutability": "nonpayable",
      "type": "function"
    },
    {
      "inputs": [],
      "name": "referralStorage",
      "outputs": [
        {
          "internalType": "contract IReferralStorage",
          "name": "",
          "type": "address"
        }
      ],
      "stateMutability": "view",
      "type": "function"
    },
    {
      "inputs": [],
      "name": "roleStore",
      "outputs": [
        {
          "internalType": "contract RoleStore",
          "name": "",
          "type": "address"
        }
      ],
      "stateMutability": "view",
      "type": "function"
    },
    {
      "inputs": [
        {
          "internalType": "address",
          "name": "_gov",
          "type": "address"
        }
      ],
      "name": "setGov",
      "outputs": [],
      "stateMutability": "nonpayable",
      "type": "function"
    },
    {
      "inputs": [],
      "name": "swapHandler",
      "outputs": [
        {
          "internalType": "contract SwapHandler",
          "name": "",
          "type": "address"
        }
      ],
      "stateMutability": "view",
      "type": "function"
    },
    {
      "inputs": [
        {
          "internalType": "address",
          "name": "market",
          "type": "address"
        },
        {
          "internalType": "bool",
          "name": "isLong",
          "type": "bool"
        },
        {
          "components": [
            {
              "internalType": "uint256",
              "name": "signerInfo",
              "type": "uint256"
            },
            {
              "internalType": "address[]",
              "name": "tokens",
              "type": "address[]"
            },
            {
              "internalType": "uint256[]",
              "name": "compactedOracleBlockNumbers",
              "type": "uint256[]"
            },
            {
              "internalType": "uint256[]",
              "name": "compactedOracleTimestamps",
              "type": "uint256[]"
            },
            {
              "internalType": "uint256[]",
              "name": "compactedDecimals",
              "type": "uint256[]"
            },
            {
              "internalType": "uint256[]",
              "name": "compactedMinPrices",
              "type": "uint256[]"
            },
            {
              "internalType": "uint256[]",
              "name": "compactedMinPricesIndexes",
              "type": "uint256[]"
            },
            {
              "internalType": "uint256[]",
              "name": "compactedMaxPrices",
              "type": "uint256[]"
            },
            {
              "internalType": "uint256[]",
              "name": "compactedMaxPricesIndexes",
              "type": "uint256[]"
            },
            {
              "internalType": "bytes[]",
              "name": "signatures",
              "type": "bytes[]"
            },
            {
              "internalType": "address[]",
              "name": "priceFeedTokens",
              "type": "address[]"
            }
          ],
          "internalType": "struct OracleUtils.SetPricesParams",
          "name": "oracleParams",
          "type": "tuple"
        }
      ],
      "name": "updateAdlState",
      "outputs": [],
      "stateMutability": "nonpayable",
      "type": "function"
    },
    {
      "stateMutability": "payable",
      "type": "receive"
    }
  ],
  "transactionHash": "0x8579bc89635254067c8ca6970f144bccc55a5aa61f10537f848c29a59e047623",
  "args": [
    "0xdF83f183CCB84bC1d506b8Df372e9Ca3b0a887Ef",
    "0xaC5C6D103DD3714fE9453F2F93fF66fce0fE9d6F",
    "0x05E5a185bE26b0D5c3DA2d783AcC0A1b4457ae4b",
    "0x38139cB3f2158514236383ca48decAD1fC78283b",
    "0x45478f3E1e151C13b58e752c2440B8c0f3b7e631",
    "0x861d5f5d60170d42231119a01bAE662f1c0B7Cf2",
    "0xCd4dA6e54d9D45ca2E2ddC1E356192213dF75878",
    "0xf9D3c7B9Bc6411ED65e3BeBc59D4fF28938ce658",
    "0x1D8eaAaBD7BFb82e29d1459B100d2BB11671ee0D",
    "0x2138a6a72f8C5AEe7BA0B0905aA0e6c1467aC8b7"
  ],
  "numDeployments": 2,
  "solcInputHash": "3a2ad2f76d49af012eff08ed5468f1c9",
  "bytecode": "0x6101c06040523480156200001257600080fd5b5060405162005e0538038062005e05833981016040819052620000359162000111565b6001600055898981620000483362000097565b6001600160a01b0390811660805290811660a052988916610160525095871660c05293861660e05291851661010052841661014052831661012052821661018052166101a05250620001ff9050565b600180546001600160a01b038381166001600160a01b031983168117909355604080519190921680825260208201939093527f53351836099c03ffc3b1727d8abd4b0222afa87d4ed76ae3102d51369ef7f785910160405180910390a15050565b6001600160a01b03811681146200010e57600080fd5b50565b6000806000806000806000806000806101408b8d0312156200013257600080fd5b8a516200013f81620000f8565b60208c0151909a506200015281620000f8565b60408c01519099506200016581620000f8565b60608c01519098506200017881620000f8565b60808c01519097506200018b81620000f8565b60a08c01519096506200019e81620000f8565b60c08c0151909550620001b181620000f8565b60e08c0151909450620001c481620000f8565b6101008c0151909350620001d881620000f8565b6101208c0151909250620001ec81620000f8565b809150509295989b9194979a5092959850565b60805160a05160c05160e05161010051610120516101405161016051610180516101a051615a0262000403600039600081816101050152611df401526000818161031d0152611dcb0152600081816102e90152818161050601528181610cf201528181611023015281816111180152818161160b0152818161175001528181611d0201528181612562015261264d015260008181610281015281816104c40152818161079f01528181610a2e01528181610cb001528181610fe10152818161115c0152818161170e0152611d7a0152600081816102b50152611da20152600081816101a30152818161089e01528181610deb0152611d5201526000818161016f0152818161086f01528181610dc30152818161162d01528181611c1901528181611d2a015281816124a501528181612583015261266e0152600081816103510152818161077e01528181610a0d0152818161113a0152818161164f01528181611ca20152611e4d01526000818161022d015281816104e5015281816106fc0152818161075d01528181610840015281816109ec01528181610aa201528181610bdd01528181610cd101528181610d9b01528181611002015281816110f60152818161156f015281816115e90152818161172f01528181611cda01528181612541015261262c0152600081816101f9015281816118c601526126da0152615a026000f3fe6080604052600436106100e75760003560e01c80626cc35e146100f357806312d43a511461013d5780632ac38dbd1461015d5780633157d39d146101915780633c11f370146101c55780634a4a7b04146101e7578063660d0d671461021b5780636bd3d4511461024f5780637dc0d1d01461026f5780638a53aaac146102a35780639ff78c30146102d7578063b3f006741461030b578063b8d2c6931461033f578063c6b25d6b14610373578063cfad57a214610393578063d6fc5cce146103b3578063d7c5467d146103d3578063e7683e65146103f3578063fb8c95491461042157600080fd5b366100ee57005b600080fd5b3480156100ff57600080fd5b506101277f000000000000000000000000000000000000000000000000000000000000000081565b6040516101349190613d84565b60405180910390f35b34801561014957600080fd5b50600154610127906001600160a01b031681565b34801561016957600080fd5b506101277f000000000000000000000000000000000000000000000000000000000000000081565b34801561019d57600080fd5b506101277f000000000000000000000000000000000000000000000000000000000000000081565b3480156101d157600080fd5b506101e56101e0366004613def565b610441565b005b3480156101f357600080fd5b506101277f000000000000000000000000000000000000000000000000000000000000000081565b34801561022757600080fd5b506101277f000000000000000000000000000000000000000000000000000000000000000081565b34801561025b57600080fd5b506101e561026a366004613e7e565b610b88565b34801561027b57600080fd5b506101277f000000000000000000000000000000000000000000000000000000000000000081565b3480156102af57600080fd5b506101277f000000000000000000000000000000000000000000000000000000000000000081565b3480156102e357600080fd5b506101277f000000000000000000000000000000000000000000000000000000000000000081565b34801561031757600080fd5b506101277f000000000000000000000000000000000000000000000000000000000000000081565b34801561034b57600080fd5b506101277f000000000000000000000000000000000000000000000000000000000000000081565b34801561037f57600080fd5b506101e561038e366004613eaa565b610c07565b34801561039f57600080fd5b506101e56103ae366004613f31565b610f50565b3480156103bf57600080fd5b506101e56103ce366004613f4e565b610fa5565b3480156103df57600080fd5b506101e56103ee366004613faf565b61121b565b3480156103ff57600080fd5b5061041361040e366004613ff5565b61152e565b604051908152602001610134565b34801561042d57600080fd5b506101e561043c3660046144ca565b6116c8565b60026000540361046c5760405162461bcd60e51b81526004016104639061452a565b60405180910390fd5b60026000556040516104c29061048490602001614561565b604051602081830303815290604052805190602001206040518060400160405280600a81526020016920a2262fa5a2a2a822a960b11b8152506118af565b7f00000000000000000000000000000000000000000000000000000000000000007f00000000000000000000000000000000000000000000000000000000000000007f000000000000000000000000000000000000000000000000000000000000000061052e84614585565b6040516301b046cf60e51b81526001600160a01b03851690633608d9e09061055e908690869086906004016146aa565b600060405180830381600087803b15801561057857600080fd5b505af1925050508015610589575060015b610631576105956147fa565b806308c379a00361062557506105a9614816565b806105b45750610627565b7f9966b250e13ade3123b5af1743515baa8eaaf09f1e4081aa5e7e66ddd2b1415a816040516105e3919061489f565b60405180910390a1604080518082018252600c81526b27a920a1a622afa2a92927a960a11b6020820152905162461bcd60e51b8152610463919060040161489f565b505b3d6000803e3d6000fd5b61066d6040518060c001604052806000815260200160608152602001600080191681526020016000815260200160008152602001600081525090565b5a81526106c661068060408801886148b2565b808060200260200160405190810160405280939291908181526020018383602002808284376000920191909152506106bf9250505060208901896148b2565b905061195f565b602082018190526040516385671ac560e01b8152739d9c59920CF1c8f2e5435C707f9CE9c41DE76abC916385671ac591610728917f0000000000000000000000000000000000000000000000000000000000000000918f918e91600401614902565b60006040518083038186803b15801561074057600080fd5b505af4158015610754573d6000803e3d6000fd5b505050506107c77f00000000000000000000000000000000000000000000000000000000000000007f00000000000000000000000000000000000000000000000000000000000000007f00000000000000000000000000000000000000000000000000000000000000008d8c60016119f5565b60608201819052600013156108185760405162461bcd60e51b815260206004820152601760248201527624b73b30b634b2103837362a37a837b7b62330b1ba37b960491b6044820152606401610463565b739d9c59920CF1c8f2e5435C707f9CE9c41DE76abC63dbadc9b96040518061012001604052807f00000000000000000000000000000000000000000000000000000000000000006001600160a01b031681526020017f00000000000000000000000000000000000000000000000000000000000000006001600160a01b031681526020017f00000000000000000000000000000000000000000000000000000000000000006001600160a01b031681526020018e6001600160a01b031681526020018d6001600160a01b031681526020018c6001600160a01b031681526020018b151581526020018a8152602001846020015160008151811061091d5761091d614940565b60200260200101518152506040518263ffffffff1660e01b81526004016109449190614956565b602060405180830381865af4158015610961573d6000803e3d6000fd5b505050506040513d601f19601f8201168201806040525081019061098591906149f8565b604082018190526000906109a59061099c89614585565b84513390611bf0565b90506109de81606001516109d9306109c38560200151604001515190565b60078111156109d4576109d4614a11565b611f11565b611f9d565b6109e781611fc8565b610a567f00000000000000000000000000000000000000000000000000000000000000007f00000000000000000000000000000000000000000000000000000000000000007f00000000000000000000000000000000000000000000000000000000000000008e8d60016119f5565b60808301819052606083015113610a9d5760405162461bcd60e51b815260206004820152600b60248201526a125b9d985b1a590818591b60aa1b6044820152606401610463565b610ac87f00000000000000000000000000000000000000000000000000000000000000008c8b612147565b60a08301819052610ad8906121cb565b82608001511215610b235760405162461bcd60e51b8152602060048201526015602482015274141b9b081dd85cc81bdd995c98dbdc9c9958dd1959605a1b6044820152606401610463565b5050836001600160a01b031662ccf1556040518163ffffffff1660e01b8152600401600060405180830381600087803b158015610b5f57600080fd5b505af1158015610b73573d6000803e3d6000fd5b50506001600055505050505050505050505050565b610bd8604051602001610b9a90614a27565b604051602081830303815290604052805190602001206040518060400160405280600a81526020016921a7a72a2927a62622a960b11b8152506118af565b610c037f00000000000000000000000000000000000000000000000000000000000000008383612239565b5050565b600260005403610c295760405162461bcd60e51b81526004016104639061452a565b6002600055604051610cae90610c68906020016020808252601290820152712624a8aaa4a220aa24a7a72fa5a2a2a822a960711b604082015260600190565b60405160208183030381529060405280519060200120604051806040016040528060128152602001712624a8aaa4a220aa24a7a72fa5a2a2a822a960711b8152506118af565b7f00000000000000000000000000000000000000000000000000000000000000007f00000000000000000000000000000000000000000000000000000000000000007f0000000000000000000000000000000000000000000000000000000000000000610d1a84614585565b6040516301b046cf60e51b81526001600160a01b03851690633608d9e090610d4a908690869086906004016146aa565b600060405180830381600087803b158015610d6457600080fd5b505af1925050508015610d75575060015b610d81576105956147fa565b60005a6040516319b3f4f960e31b81526001600160a01b037f0000000000000000000000000000000000000000000000000000000000000000811660048301527f0000000000000000000000000000000000000000000000000000000000000000811660248301527f000000000000000000000000000000000000000000000000000000000000000081166044830152808d166064830152808c1660848301528a1660a482015288151560c4820152909150600090737b4946f6AD3CbEAA6BD541773A5EBB3E734ce0349063cd9fa7c89060e401602060405180830381865af4158015610e72573d6000803e3d6000fd5b505050506040513d601f19601f82011682018060405250810190610e9691906149f8565b90506000610eae82610ea78a614585565b3386611bf0565b9050610ee281606001516109d930610ecc8560200151604001515190565b6007811115610edd57610edd614a11565b6123f0565b610eeb81611fc8565b505050836001600160a01b031662ccf1556040518163ffffffff1660e01b8152600401600060405180830381600087803b158015610f2857600080fd5b505af1158015610f3c573d6000803e3d6000fd5b505060016000555050505050505050505050565b6001546001600160a01b03163314610f99576040805163a35b150b60e01b81523360048201526024810191909152600360448201526223a7ab60e91b6064820152608401610463565b610fa28161242b565b50565b600260005403610fc75760405162461bcd60e51b81526004016104639061452a565b6002600055604051610fdf9061048490602001614561565b7f00000000000000000000000000000000000000000000000000000000000000007f00000000000000000000000000000000000000000000000000000000000000007f000000000000000000000000000000000000000000000000000000000000000061104b84614585565b6040516301b046cf60e51b81526001600160a01b03851690633608d9e09061107b908690869086906004016146aa565b600060405180830381600087803b15801561109557600080fd5b505af19250505080156110a6575060015b6110b2576105956147fa565b60006110c461068060408801886148b2565b60405163662aac5160e11b8152909150739d9c59920CF1c8f2e5435C707f9CE9c41DE76abC9063cc5558a29061118a907f0000000000000000000000000000000000000000000000000000000000000000907f0000000000000000000000000000000000000000000000000000000000000000907f0000000000000000000000000000000000000000000000000000000000000000907f0000000000000000000000000000000000000000000000000000000000000000908f908f908a90600401614a4b565b60006040518083038186803b1580156111a257600080fd5b505af41580156111b6573d6000803e3d6000fd5b5050505050836001600160a01b031662ccf1556040518163ffffffff1660e01b8152600401600060405180830381600087803b1580156111f557600080fd5b505af1158015611209573d6000803e3d6000fd5b50506001600055505050505050505050565b60026000540361123d5760405162461bcd60e51b81526004016104639061452a565b60026000556040516112b690611276906020016020808252600c908201526b27a92222a92fa5a2a2a822a960a11b604082015260600190565b604051602081830303815290604052805190602001206040518060400160405280600c81526020016b27a92222a92fa5a2a2a822a960a11b8152506118af565b60005a60405163fb8c954960e01b8152909150309063fb8c9549906112e5908690869033908790600401614bfc565b600060405180830381600087803b1580156112ff57600080fd5b505af1925050508015611310575060015b6115245761131c6147fa565b806308c379a0036114935750611330614816565b8061133b5750611495565b60008160405160200161134e919061489f565b60408051601f1981840301815282825280516020918201208383018352600c84526b27a920a1a622afa2a92927a960a11b84830152915191935061139392910161489f565b60405160208183030381529060405280519060200120811480611405575060405180604001604052806012815260200171232927ad22a72fa7a92222a92fa2a92927a960711b8152506040516020016113ec919061489f565b6040516020818303038152906040528051906020012081145b8061146157506040518060400160405280601481526020017322a6a82a2cafa827a9a4aa24a7a72fa2a92927a960611b815250604051602001611448919061489f565b6040516020818303038152906040528051906020012081145b15611480578160405162461bcd60e51b8152600401610463919061489f565b61148c8584848461248c565b5050611524565b505b3d8080156114bf576040519150601f19603f3d011682016040523d82523d6000602084013e6114c4565b606091505b506000816040516020016114d8919061489f565b60405160208183030381529060405290506000826040516020016114fc919061489f565b6040516020818303038152906040528051906020012090506115208685848461248c565b5050505b5050600160005550565b60006002600054036115525760405162461bcd60e51b81526004016104639061452a565b600260005560405161156a90610b9a90602001614a27565b6115ba7f00000000000000000000000000000000000000000000000000000000000000006109d9306115a461018087016101608801614de0565b60078111156115b5576115b5614a11565b61269e565b60405163700c99a760e11b8152733cea2Dccd5E321b61C16656faDD0d8d0076FB49F9063e019334e9061167b907f0000000000000000000000000000000000000000000000000000000000000000907f0000000000000000000000000000000000000000000000000000000000000000907f0000000000000000000000000000000000000000000000000000000000000000907f0000000000000000000000000000000000000000000000000000000000000000908a908a90600401614e1f565b602060405180830381865af4158015611698573d6000803e3d6000fd5b505050506040513d601f19601f820116820180604052508101906116bc91906149f8565b60016000559392505050565b33301461170c576040805163a35b150b60e01b815233600480830191909152602482019290925260448101919091526329a2a62360e11b6064820152608401610463565b7f00000000000000000000000000000000000000000000000000000000000000007f00000000000000000000000000000000000000000000000000000000000000007f000000000000000000000000000000000000000000000000000000000000000085836001600160a01b0316633608d9e08484846040518463ffffffff1660e01b81526004016117a0939291906146aa565b600060405180830381600087803b1580156117ba57600080fd5b505af19250505080156117cb575060015b6117d7576105956147fa565b60006117e589898989611bf0565b90506117fa8160200151604001516060015190565b8061181f5750600160208201516040015151600781111561181d5761181d614a11565b145b1561182d5761182d876126d8565b61184981606001516109d930610ecc8560200151604001515190565b61185281611fc8565b50836001600160a01b031662ccf1556040518163ffffffff1660e01b8152600401600060405180830381600087803b15801561188d57600080fd5b505af11580156118a1573d6000803e3d6000fd5b505050505050505050505050565b60405163ac4ab3fb60e01b81526001600160a01b037f0000000000000000000000000000000000000000000000000000000000000000169063ac4ab3fb906118fd9033908690600401614f8a565b602060405180830381865afa15801561191a573d6000803e3d6000fd5b505050506040513d601f19601f8201168201806040525081019061193e9190614fa3565b610c0357338160405163a35b150b60e01b8152600401610463929190614fc0565b60606000826001600160401b0381111561197b5761197b61404c565b6040519080825280602002602001820160405280156119a4578160200160208202803683370190505b50905060005b838110156119eb576119bc85826127fc565b8282815181106119ce576119ce614940565b6020908102919091010152806119e381614ffa565b9150506119aa565b5090505b92915050565b600080866001600160a01b031663c2bc2efc866040518263ffffffff1660e01b8152600401611a249190613d84565b600060405180830381865afa158015611a41573d6000803e3d6000fd5b505050506040513d6000823e601f3d908101601f19168201604052611a69919081019061506d565b905060006040518060600160405280886001600160a01b0316635dcf719485602001516040518263ffffffff1660e01b8152600401611aa89190613d84565b6040805180830381865afa158015611ac4573d6000803e3d6000fd5b505050506040513d601f19601f82011682018060405250810190611ae89190615129565b8152602001886001600160a01b0316635dcf719485604001516040518263ffffffff1660e01b8152600401611b1d9190613d84565b6040805180830381865afa158015611b39573d6000803e3d6000fd5b505050506040513d601f19601f82011682018060405250810190611b5d9190615129565b8152602001886001600160a01b0316635dcf719485606001516040518263ffffffff1660e01b8152600401611b929190613d84565b6040805180830381865afa158015611bae573d6000803e3d6000fd5b505050506040513d601f19601f82011682018060405250810190611bd29190615129565b90529050611be38983838888612839565b9998505050505050505050565b611bf8613bfc565b611c00613bfc565b85815260405163023aa9ab60e61b8152600481018790527f00000000000000000000000000000000000000000000000000000000000000006001600160a01b031690638eaa6ac090602401600060405180830381865afa158015611c68573d6000803e3d6000fd5b505050506040513d6000823e601f3d908101601f19168201604052611c9091908101906152e4565b602082018190525160a00151611cc7907f0000000000000000000000000000000000000000000000000000000000000000906128ab565b6040808301919091526001600160a01b037f0000000000000000000000000000000000000000000000000000000000000000811660608401527f0000000000000000000000000000000000000000000000000000000000000000811660808401527f0000000000000000000000000000000000000000000000000000000000000000811660a08401527f0000000000000000000000000000000000000000000000000000000000000000811660c08401527f0000000000000000000000000000000000000000000000000000000000000000811660e08401527f000000000000000000000000000000000000000000000000000000000000000081166101008401527f000000000000000000000000000000000000000000000000000000000000000081166101208401527f000000000000000000000000000000000000000000000000000000000000000016610140830152850151602086015151611e2d919061195f565b610160820152602081015151606001516001600160a01b031615611ef2577f00000000000000000000000000000000000000000000000000000000000000006001600160a01b031663c2bc2efc611e8a8360200151516060015190565b6040518263ffffffff1660e01b8152600401611ea69190613d84565b600060405180830381865afa158015611ec3573d6000803e3d6000fd5b505050506040513d6000823e601f3d908101601f19168201604052611eeb919081019061506d565b6101808201525b6001600160a01b03939093166101a0840152506101c082015292915050565b6000604051602001611f4a90602080825260139082015272455845435554455f41444c5f4645415455524560681b604082015260600190565b60408051601f198184030181528282528051602091820120908301526001600160a01b03851690820152606081018390526080015b60405160208183030381529060405280519060200120905092915050565b611fa78282612a29565b15610c0357604051630827f79760e41b815260048101829052602401610463565b611fd58160200151612a95565b6120148160e0015182610180015160200151611ff78460200151604001515190565b602080860151015160400151602080870151604001510151612ac7565b61202681600001518260200151612f0e565b61202f81612fad565b60808101518151604051632337371360e01b81526001600160a01b03909216916323373713916120659160040190815260200190565b600060405180830381600087803b15801561207f57600080fd5b505af1158015612093573d6000803e3d6000fd5b505050506120a9816000015182602001516130b1565b73f07d407B7f9E7dfe8aab1165962B850E64b54E80635a3911ca82606001518360a001516120e08560200151602001516080015190565b6101c08601516101a0870151602088015151516040518763ffffffff1660e01b815260040161211496959493929190615426565b60006040518083038186803b15801561212c57600080fd5b505af4158015612140573d6000803e3d6000fd5b5050505050565b6000836001600160a01b031663bd02d0f561216285856130ed565b6040518263ffffffff1660e01b815260040161218091815260200190565b602060405180830381865afa15801561219d573d6000803e3d6000fd5b505050506040513d601f19601f820116820180604052508101906121c191906149f8565b90505b9392505050565b60006001600160ff1b038211156122355760405162461bcd60e51b815260206004820152602860248201527f53616665436173743a2076616c756520646f65736e27742066697420696e2061604482015267371034b73a191a9b60c11b6064820152608401610463565b5090565b8060000361224657505050565b6000836001600160a01b031663bd02d0f5604051602001612298906020808252601f908201527f4e41544956455f544f4b454e5f5452414e534645525f4741535f4c494d495400604082015260600190565b604051602081830303815290604052805190602001206040518263ffffffff1660e01b81526004016122cc91815260200190565b602060405180830381865afa1580156122e9573d6000803e3d6000fd5b505050506040513d601f19601f8201168201806040525081019061230d91906149f8565b9050600080846001600160a01b0316848490604051600060405180830381858888f193505050503d8060008114612360576040519150601f19603f3d011682016040523d82523d6000602084013e612365565b606091505b5091509150811561237857505050505050565b60008160405160200161238b919061489f565b60405160208183030381529060405290507f6c4e9d88878940a822d239187b8b00d62a80dce222d53bc5f1fb072d9c34b681816040516123cb919061489f565b60405180910390a18585604051633828654560e11b8152600401610463929190614f8a565b6000604051602001611f4a90602080825260159082015274455845435554455f4f524445525f4645415455524560581b604082015260600190565b600180546001600160a01b038381166001600160a01b031983168117909355604080519190921680825260208201939093527f53351836099c03ffc3b1727d8abd4b0222afa87d4ed76ae3102d51369ef7f785910160405180910390a15050565b60405163023aa9ab60e61b8152600481018590526000907f00000000000000000000000000000000000000000000000000000000000000006001600160a01b031690638eaa6ac090602401600060405180830381865afa1580156124f4573d6000803e3d6000fd5b505050506040513d6000823e601f3d908101601f1916820160405261251c91908101906152e4565b9050600061253461252f83604001515190565b61316a565b905080156125b0576125ab7f00000000000000000000000000000000000000000000000000000000000000007f00000000000000000000000000000000000000000000000000000000000000007f000000000000000000000000000000000000000000000000000000000000000089338a8a6131db565b612696565b604051806040016040528060188152602001772aa720a1a1a2a82a20a12622afa82924a1a2afa2a92927a960411b8152506040516020016125f1919061489f565b604051602081830303815290604052805190602001208303612627578360405162461bcd60e51b8152600401610463919061489f565b6126967f00000000000000000000000000000000000000000000000000000000000000007f00000000000000000000000000000000000000000000000000000000000000007f000000000000000000000000000000000000000000000000000000000000000089338a8a61349a565b505050505050565b6000604051602001611f4a906020808252601490820152734352454154455f4f524445525f4645415455524560601b604082015260600190565b7f00000000000000000000000000000000000000000000000000000000000000006001600160a01b031663ac4ab3fb8260405160200161273f90602080825260139082015272232927ad22a72fa7a92222a92fa5a2a2a822a960691b604082015260600190565b604051602081830303815290604052805190602001206040518363ffffffff1660e01b8152600401612772929190614f8a565b602060405180830381865afa15801561278f573d6000803e3d6000fd5b505050506040513d601f19601f820116820180604052508101906127b39190614fa3565b60405180604001604052806012815260200171232927ad22a72fa7a92222a92fa2a92927a960711b81525090610c035760405162461bcd60e51b8152600401610463919061489f565b600080612813848460406001600160401b03613695565b9050806000036121c45760405163349f5fdd60e11b815260048101849052602401610463565b60008061284887878787613708565b9050600061286b88886000015189604001518a606001518a600001518a8a61375a565b9050612876826121cb565b61288b68327cb2734119d3b7a9601e1b6121cb565b6128959083615460565b61289f91906154fb565b98975050505050505050565b6060600082516001600160401b038111156128c8576128c861404c565b60405190808252806020026020018201604052801561290157816020015b6128ee613c89565b8152602001906001900390816128e65790505b50905060005b83518110156119eb57600084828151811061292457612924614940565b6020026020010151905060016001600160a01b0316816001600160a01b0316148061295857506001600160a01b0381166002145b8061296c57506001600160a01b0381166003145b156129775750612a17565b6040516330af0bbf60e21b81526000906001600160a01b0388169063c2bc2efc906129a6908590600401613d84565b600060405180830381865afa1580156129c3573d6000803e3d6000fd5b505050506040513d6000823e601f3d908101601f191682016040526129eb919081019061506d565b90506129f6816137f3565b80848481518110612a0957612a09614940565b602002602001018190525050505b80612a2181614ffa565b915050612907565b604051633d70e7e560e11b8152600481018290526000906001600160a01b03841690637ae1cfca90602401602060405180830381865afa158015612a71573d6000803e3d6000fd5b505050506040513d601f19601f820116820180604052508101906121c49190614fa3565b6000612aa082515190565b6001600160a01b031603610fa257604051631630779760e01b815260040160405180910390fd5b612ad08361381b565b612140576000612adf8461383e565b9050600081612aef578215612af1565b825b90506002856007811115612b0757612b07614a11565b1480612b2457506004856007811115612b2257612b22614a11565b145b80612b4057506007856007811115612b3e57612b3e614a11565b145b15612c4d57604051631773dc6560e21b81526000906001600160a01b03891690635dcf719490612b74908a90600401613d84565b6040805180830381865afa158015612b90573d6000803e3d6000fd5b505050506040513d601f19601f82011682018060405250810190612bb49190615129565b9050876001600160a01b031663e3458b79886040518060400160405280612be4878761386290919063ffffffff16565b8152602001612bf38688613862565b8152506040518363ffffffff1660e01b8152600401612c13929190615529565b600060405180830381600087803b158015612c2d57600080fd5b505af1158015612c41573d6000803e3d6000fd5b50505050505050612140565b6003856007811115612c6157612c61614a11565b1480612c7e57506005856007811115612c7c57612c7c614a11565b145b80612c9a57506006856007811115612c9857612c98614a11565b145b15612efd576000612d1782896001600160a01b0316635dcf71948a6040518263ffffffff1660e01b8152600401612cd19190613d84565b6040805180830381865afa158015612ced573d6000803e3d6000fd5b505050506040513d601f19601f82011682018060405250810190612d119190615129565b90613862565b90506000612d4b838a6001600160a01b03166383a2aae28b6040518263ffffffff1660e01b8152600401612cd19190613d84565b9050600084612d5a5785612d5d565b85155b90508015612e2e576000878411158015612d775750828811155b905080612db857604080518082018252600c81526b27a920a1a622afa2a92927a960a11b6020820152905162461bcd60e51b8152610463919060040161489f565b60408051808201825289815260208101859052905163e3458b7960e01b81526001600160a01b038d169163e3458b7991612df6918e91600401615529565b600060405180830381600087803b158015612e1057600080fd5b505af1158015612e24573d6000803e3d6000fd5b5050505050612ef3565b6000878410158015612e405750828810155b905080612e8157604080518082018252600c81526b27a920a1a622afa2a92927a960a11b6020820152905162461bcd60e51b8152610463919060040161489f565b604080518082018252848152602081018a9052905163e3458b7960e01b81526001600160a01b038d169163e3458b7991612ebf918e91600401615529565b600060405180830381600087803b158015612ed957600080fd5b505af1158015612eed573d6000803e3d6000fd5b50505050505b5050505050612140565b612f05613879565b50505050505050565b612f22612f1d82516040015190565b613892565b612f2a575050565b8051604001516001600160a01b031663a0afa3956002612f4f846020015160a0015190565b612f59919061554f565b84846040518463ffffffff1660e01b8152600401612f789291906155e4565b600060405180830381600088803b158015612f9257600080fd5b5087f193505050508015612fa4575060015b15610c03575050565b612fc5612fc08260200151604001515190565b61383e565b1561300157604051634e5db51360e11b8152732B170ED1524CA9f05A16A0Cff5554aAB3649Ad6990639cbb6a26906121149084906004016157ea565b6130196130148260200151604001515190565b6138c9565b1561305557604051634e5db51360e11b815273DFe8FDF6806d5abF9B5a719BD52fE77E42c85E1590639cbb6a26906121149084906004016157ea565b61306d6130688260200151604001515190565b61381b565b156130a957604051634e5db51360e11b8152732cCa908A2EC12c5Fd70c73a57caC395Da95d9c6e90639cbb6a26906121149084906004016157ea565b610fa2613879565b6130c0612f1d82516040015190565b6130c8575050565b8051604001516001600160a01b0316638b9525e46002612f4f846020015160a0015190565b6000604051602001613130906020808252601e908201527f4d41585f504e4c5f464143544f525f464f525f5749544844524157414c530000604082015260600190565b60408051601f198184030181528282528051602091820120908301526001600160a01b038516908201528215156060820152608001611f7f565b60008082600781111561317f5761317f614a11565b148061319c5750600282600781111561319a5761319a614a11565b145b806131b9575060045b8260078111156131b7576131b7614a11565b145b806119ef575060075b8260078111156131d4576131d4614a11565b1492915050565b60405163023aa9ab60e61b8152600481018590526000906001600160a01b03871690638eaa6ac090602401600060405180830381865afa158015613223573d6000803e3d6000fd5b505050506040513d6000823e601f3d908101601f1916820160405261324b91908101906152e4565b905061325681612a95565b613265612fc082604001515190565b8061327a575061327a61306882604001515190565b156133355760208181015101511561333557856001600160a01b031663f9498938896132a884516080015190565b6020808601510151855151604080880151015160405160e087901b6001600160e01b03191681526001600160a01b039586166004820152938516602485015260448401929092529092166064820152901515608482015260a401600060405180830381600087803b15801561331c57600080fd5b505af1158015613330573d6000803e3d6000fd5b505050505b856001600160a01b0316632874528e8661334e84515190565b6040516001600160e01b031960e085901b16815260048101929092526001600160a01b03166024820152604401600060405180830381600087803b15801561339557600080fd5b505af11580156133a9573d6000803e3d6000fd5b50506040516314a4df2d60e01b81526001600160a01b038a1692506314a4df2d91506133db9088908690600401615947565b600060405180830381600087803b1580156133f557600080fd5b505af1158015613409573d6000803e3d6000fd5b505050506134178582613909565b73f07d407B7f9E7dfe8aab1165962B850E64b54E80635a3911ca898861344285602001516080015190565b878961344d88515190565b6040518763ffffffff1660e01b815260040161346e96959493929190615426565b60006040518083038186803b15801561348657600080fd5b505af41580156118a1573d6000803e3d6000fd5b60405163023aa9ab60e61b8152600481018590526000906001600160a01b03871690638eaa6ac090602401600060405180830381865afa1580156134e2573d6000803e3d6000fd5b505050506040513d6000823e601f3d908101601f1916820160405261350a91908101906152e4565b905061351581612a95565b600061352682602001516080015190565b905061353a82600060209091015160800152565b6040820151600160609091015260405163e04b68ad60e01b81526001600160a01b0388169063e04b68ad9061357590899086906004016155e4565b600060405180830381600087803b15801561358f57600080fd5b505af11580156135a3573d6000803e3d6000fd5b5050505073f07d407B7f9E7dfe8aab1165962B850E64b54E80635a3911ca8a8984888a6135cf89515190565b6040518763ffffffff1660e01b81526004016135f096959493929190615426565b60006040518083038186803b15801561360857600080fd5b505af415801561361c573d6000803e3d6000fd5b5050604051631987ea4560e21b81526001600160a01b038b16925063661fa914915061364e9089908790600401615947565b600060405180830381600087803b15801561366857600080fd5b505af115801561367c573d6000803e3d6000fd5b5050505061368a8683613945565b505050505050505050565b6000806136a48461010061554f565b905060006136b2828761554f565b905060008782815181106136c8576136c8614940565b6020026020010151905060008684846136e19190615960565b6136eb908a61597f565b6136f59190615960565b9190911c85169350505050949350505050565b6000808261371a578460600151613720565b84604001515b9050600061373387876000015184613981565b90506000846137475760408601515161374e565b6020860151515b905061289f8183615960565b60008061377261376d8a8a8a8a8961399c565b6121cb565b905060006137838a8a8a8a896139c7565b9050811580613790575080155b156137a0576000925050506137e8565b60006137ad8787876139e6565b905060006137be61376d8385615960565b90506000876137d6576137d18286615992565b6137e0565b6137e08583615992565b955050505050505b979650505050505050565b80516001600160a01b0316610fa2576040516302fde0d760e11b815260040160405180910390fd5b60008082600781111561383057613830614a11565b14806119ef575060016131c2565b6000600282600781111561385457613854614a11565b14806119ef575060036131c2565b6000816138705782516121c4565b50506020015190565b60405163c1c0083160e01b815260040160405180910390fd5b60006001600160a01b0382166138aa57506000919050565b6001600160a01b0382163b6138c157506000919050565b506001919050565b600060048260078111156138df576138df614a11565b14806138fc575060058260078111156138fa576138fa614a11565b145b806131b9575060066131a5565b613918612f1d82516040015190565b613920575050565b8051604001516001600160a01b031663d19db5266002612f4f846020015160a0015190565b613954612f1d82516040015190565b61395c575050565b8051604001516001600160a01b031663e175a77f6002612f4f846020015160a0015190565b6000836001600160a01b031663bd02d0f56121628585613a1f565b6000806139ab87878786613a8d565b905060006139bb88888787613a8d565b905061289f81836159b9565b6000806139d687878786613b11565b905060006139bb88888787613b11565b60008215613a0757816139fa578351613a00565b83602001515b90506121c4565b81613a165783602001516121c1565b50509051919050565b6000604051602001613a50906020808252600b908201526a1413d3d317d05353d5539560aa1b604082015260600190565b60408051601f198184030181528282528051602091820120908301526001600160a01b038086169183019190915283166060820152608001611f7f565b6000846001600160a01b031663bd02d0f5613aa9868686613b2d565b6040518263ffffffff1660e01b8152600401613ac791815260200190565b602060405180830381865afa158015613ae4573d6000803e3d6000fd5b505050506040513d601f19601f82011682018060405250810190613b0891906149f8565b95945050505050565b6000846001600160a01b031663bd02d0f5613aa9868686613bbf565b6000604051602001613b60906020808252600d908201526c13d4115397d2539511549154d5609a1b604082015260600190565b60408051601f198184030181528282528051602091820120908301526001600160a01b038087169183019190915284166060820152821515608082015260a0016040516020818303038152906040528051906020012090509392505050565b6000604051602001613b60906020808252601790820152764f50454e5f494e5445524553545f494e5f544f4b454e5360481b604082015260600190565b6040805161020081019091526000815260208101613c18613cb9565b81526060602082018190526000604083018190528183018190526080830181905260a0830181905260c0830181905260e08301819052610100830181905261012083015261014082015261016001613c6e613c89565b81526000602082018190526040820181905260609091015290565b6040805160a081018252600080825260208201819052918101829052606080820192909252608081019190915290565b60408051610140810190915260006080820181815260a0830182905260c0830182905260e08301829052610100830191909152606061012083015281908152602001613d4360405180610100016040528060008152602001600081526020016000815260200160008152602001600081526020016000815260200160008152602001600081525090565b8152604080516080810182526000808252602082810182905292820181905260608201529101908152602001606081525090565b6001600160a01b03169052565b6001600160a01b0391909116815260200190565b6001600160a01b0381168114610fa257600080fd5b8035613db881613d98565b919050565b8015158114610fa257600080fd5b8035613db881613dbd565b60006101608284031215613de957600080fd5b50919050565b60008060008060008060c08789031215613e0857600080fd5b8635613e1381613d98565b95506020870135613e2381613d98565b94506040870135613e3381613d98565b93506060870135613e4381613dbd565b92506080870135915060a08701356001600160401b03811115613e6557600080fd5b613e7189828a01613dd6565b9150509295509295509295565b60008060408385031215613e9157600080fd5b8235613e9c81613d98565b946020939093013593505050565b600080600080600060a08688031215613ec257600080fd5b8535613ecd81613d98565b94506020860135613edd81613d98565b93506040860135613eed81613d98565b92506060860135613efd81613dbd565b915060808601356001600160401b03811115613f1857600080fd5b613f2488828901613dd6565b9150509295509295909350565b600060208284031215613f4357600080fd5b81356121c481613d98565b600080600060608486031215613f6357600080fd5b8335613f6e81613d98565b92506020840135613f7e81613dbd565b915060408401356001600160401b03811115613f9957600080fd5b613fa586828701613dd6565b9150509250925092565b60008060408385031215613fc257600080fd5b8235915060208301356001600160401b03811115613fdf57600080fd5b613feb85828601613dd6565b9150509250929050565b6000806040838503121561400857600080fd5b823561401381613d98565b915060208301356001600160401b0381111561402e57600080fd5b83016101c0818603121561404157600080fd5b809150509250929050565b634e487b7160e01b600052604160045260246000fd5b60a081016001600160401b03811182821017156140815761408161404c565b60405250565b608081016001600160401b03811182821017156140815761408161404c565b60c081016001600160401b03811182821017156140815761408161404c565b601f8201601f191681016001600160401b03811182821017156140ea576140ea61404c565b6040525050565b60405161016081016001600160401b03811182821017156141145761411461404c565b60405290565b60006001600160401b038211156141335761413361404c565b5060051b60200190565b600082601f83011261414e57600080fd5b8135602061415b8261411a565b60405161416882826140c5565b83815260059390931b850182019282810191508684111561418857600080fd5b8286015b848110156141ac57803561419f81613d98565b835291830191830161418c565b509695505050505050565b600082601f8301126141c857600080fd5b813560206141d58261411a565b6040516141e282826140c5565b83815260059390931b850182019282810191508684111561420257600080fd5b8286015b848110156141ac5780358352918301918301614206565b60006001600160401b038211156142365761423661404c565b50601f01601f191660200190565b600082601f83011261425557600080fd5b813560206142628261411a565b6040805161427083826140c5565b84815260059490941b860183019383810192508785111561429057600080fd5b8387015b858110156143175780356001600160401b038111156142b35760008081fd5b8801603f81018a136142c55760008081fd5b858101356142d28161421d565b85516142de82826140c5565b8281528c878486010111156142f557600091508182fd5b828785018a830137600092810189019290925250855250928401928401614294565b50979650505050505050565b6000610160828403121561433657600080fd5b61433e6140f1565b82358152905060208201356001600160401b038082111561435e57600080fd5b61436a8583860161413d565b6020840152604084013591508082111561438357600080fd5b61438f858386016141b7565b604084015260608401359150808211156143a857600080fd5b6143b4858386016141b7565b606084015260808401359150808211156143cd57600080fd5b6143d9858386016141b7565b608084015260a08401359150808211156143f257600080fd5b6143fe858386016141b7565b60a084015260c084013591508082111561441757600080fd5b614423858386016141b7565b60c084015260e084013591508082111561443c57600080fd5b614448858386016141b7565b60e08401526101009150818401358181111561446357600080fd5b61446f868287016141b7565b83850152506101209150818401358181111561448a57600080fd5b61449686828701614244565b8385015250610140915081840135818111156144b157600080fd5b6144bd8682870161413d565b8385015250505092915050565b600080600080608085870312156144e057600080fd5b8435935060208501356001600160401b038111156144fd57600080fd5b61450987828801614323565b935050604085013561451a81613d98565b9396929550929360600135925050565b6020808252601f908201527f5265656e7472616e637947756172643a207265656e7472616e742063616c6c00604082015260600190565b6020808252600a908201526920a2262fa5a2a2a822a960b11b604082015260600190565b60006119ef3683614323565b600081518084526020808501945080840160005b838110156145ca5781516001600160a01b0316875295820195908201906001016145a5565b509495945050505050565b600081518084526020808501945080840160005b838110156145ca578151875295820195908201906001016145e9565b60005b83811015614620578181015183820152602001614608565b50506000910152565b60008151808452614641816020860160208601614605565b601f01601f19169290920160200192915050565b600081518084526020808501808196508360051b8101915082860160005b8581101561469d57828403895261468b848351614629565b98850198935090840190600101614673565b5091979650505050505050565b600060018060a01b038086168352808516602084015250606060408301528251606083015260208301516101608060808501526146eb6101c0850183614591565b91506040850151605f19808685030160a087015261470984836145d5565b935060608701519150808685030160c087015261472684836145d5565b935060808701519150808685030160e087015261474384836145d5565b935060a0870151915061010081878603018188015261476285846145d5565b945060c0880151925061012082888703018189015261478186856145d5565b955060e089015193506101408389880301818a01526147a087866145d5565b9650828a015194508389880301868a01526147bb87866145d5565b9650818a0151955083898803016101808a01526147d88787614655565b9650808a0151955050505080868503016101a087015250506137e88282614591565b600060033d11156148135760046000803e5060005160e01c5b90565b600060443d10156148245790565b6040516003193d81016004833e81513d6001600160401b03808311602484018310171561485357505050505090565b828501915081518181111561486b5750505050505090565b843d87010160208285010111156148855750505050505090565b614894602082860101876140c5565b509095945050505050565b6020815260006121c46020830184614629565b6000808335601e198436030181126148c957600080fd5b8301803591506001600160401b038211156148e357600080fd5b6020019150600581901b36038213156148fb57600080fd5b9250929050565b6001600160a01b038581168252841660208201528215156040820152608060608201819052600090614936908301846145d5565b9695505050505050565b634e487b7160e01b600052603260045260246000fd5b81516001600160a01b0316815260208083015161012083019161497b90840182613d77565b50604083015161498e6040840182613d77565b5060608301516149a16060840182613d77565b5060808301516149b46080840182613d77565b5060a08301516149c760a0840182613d77565b5060c08301516149db60c084018215159052565b5060e083015160e083015261010080840151818401525092915050565b600060208284031215614a0a57600080fd5b5051919050565b634e487b7160e01b600052602160045260246000fd5b6020808252600a908201526921a7a72a2927a62622a960b11b604082015260600190565b6001600160a01b0388811682528781166020830152868116604083015285811660608301528416608082015282151560a082015260e060c08201819052600090611be3908301846145d5565b6000808335601e19843603018112614aae57600080fd5b83016020810192503590506001600160401b03811115614acd57600080fd5b8060051b36038213156148fb57600080fd5b8183526000602080850194508260005b858110156145ca578135614b0281613d98565b6001600160a01b031687529582019590820190600101614aef565b81835260006001600160fb1b03831115614b3657600080fd5b8260051b80836020870137939093016020019392505050565b81835281816020850137506000828201602090810191909152601f909101601f19169091010190565b81835260006020808501808196508560051b810191508460005b8781101561469d5782840389528135601e19883603018112614bb357600080fd5b870185810190356001600160401b03811115614bce57600080fd5b803603821315614bdd57600080fd5b614be8868284614b4f565b9a87019a9550505090840190600101614b92565b84815260806020820152833560808201526000614c1c6020860186614a97565b6101608060a0860152614c346101e086018385614adf565b9250614c436040890189614a97565b9250607f19808786030160c0880152614c5d858584614b1d565b9450614c6c60608b018b614a97565b94509150808786030160e0880152614c85858584614b1d565b9450614c9460808b018b614a97565b94509150610100818887030181890152614caf868685614b1d565b9550614cbe60a08c018c614a97565b955092506101208289880301818a0152614cd9878786614b1d565b9650614ce860c08d018d614a97565b96509350610140838a890301818b0152614d03888887614b1d565b9750614d1260e08e018e614a97565b97509450838a890301868b0152614d2a888887614b1d565b9750614d38838e018e614a97565b97509550838a8903016101808b0152614d52888888614b1d565b9750614d60828e018e614a97565b97509550838a8903016101a08b0152614d7a888888614b78565b9750614d88818e018e614a97565b9750955050505080878603016101c08801525050614da7838383614adf565b9350505050614db96040830185613d77565b82606083015295945050505050565b60088110610fa257600080fd5b8035613db881614dc8565b600060208284031215614df257600080fd5b81356121c481614dc8565b60088110614e1b57634e487b7160e01b600052602160045260246000fd5b9052565b6001600160a01b0387811682528681166020830152858116604083015284811660608301528316608082015260c060a08201819052600090614e6b908301614e6685613dad565b613d77565b614e7760208401613dad565b614e8460e0840182613d77565b50614e9160408401613dad565b610100614ea081850183613d77565b614eac60608601613dad565b9150610120614ebd81860184613d77565b614eca6080870187614a97565b93506101c06101408181890152614ee661028089018785614adf565b9550610160925060a08901358389015261018060c08a0135818a01526101a060e08b0135818b0152868b0135848b0152858b01356101e08b0152828b01356102008b0152614f35858c01614dd5565b9650614f456102208b0188614dfd565b614f50828c01613dcb565b8015156102408c01529650614f66818c01613dcb565b9650505050505050614f7d61026085018215159052565b5098975050505050505050565b6001600160a01b03929092168252602082015260400190565b600060208284031215614fb557600080fd5b81516121c481613dbd565b6001600160a01b03831681526040602082018190526000906121c190830184614629565b634e487b7160e01b600052601160045260246000fd5b60006001820161500c5761500c614fe4565b5060010190565b8051613db881613d98565b600082601f83011261502f57600080fd5b815161503a8161421d565b60405161504782826140c5565b82815285602084870101111561505c57600080fd5b613b08836020830160208801614605565b60006020828403121561507f57600080fd5b81516001600160401b038082111561509657600080fd5b9083019060a082860312156150aa57600080fd5b6040516150b681614062565b82516150c181613d98565b815260208301516150d181613d98565b602082015260408301516150e481613d98565b604082015260608301516150f781613d98565b606082015260808301518281111561510e57600080fd5b61511a8782860161501e565b60808301525095945050505050565b60006040828403121561513b57600080fd5b604080519081016001600160401b038111828210171561515d5761515d61404c565b604052825181526020928301519281019290925250919050565b600082601f83011261518857600080fd5b815160206151958261411a565b6040516151a282826140c5565b83815260059390931b85018201928281019150868411156151c257600080fd5b8286015b848110156141ac5780516151d981613d98565b83529183019183016151c6565b60006101008083850312156151fa57600080fd5b604051908101906001600160401b038211818310171561521c5761521c61404c565b81604052809250835181526020840151602082015260408401516040820152606084015160608201526080840151608082015260a084015160a082015260c084015160c082015260e084015160e0820152505092915050565b60006080828403121561528757600080fd5b60405161529381614087565b80915082516152a181614dc8565b815260208301516152b181613dbd565b602082015260408301516152c481613dbd565b604082015260608301516152d781613dbd565b6060919091015292915050565b6000602082840312156152f657600080fd5b81516001600160401b038082111561530d57600080fd5b908301906101c0828603121561532257600080fd5b60405161532e81614087565b82518281111561533d57600080fd5b830160c0818803121561534f57600080fd5b60405161535b816140a6565b815161536681613d98565b815261537460208301615013565b602082015261538560408301615013565b604082015261539660608301615013565b60608201526153a760808301615013565b608082015260a0820151848111156153be57600080fd5b6153ca89828501615177565b60a0830152508252506153e086602085016151e6565b60208201526153f3866101208501615275565b60408201526101a08301518281111561540b57600080fd5b6154178782860161501e565b60608301525095945050505050565b6001600160a01b0396871681529486166020860152604085019390935260608401919091528316608083015290911660a082015260c00190565b60006001600160ff1b038184138284138082168684048611161561548657615486614fe4565b600160ff1b60008712828116878305891216156154a5576154a5614fe4565b600087129250878205871284841616156154c1576154c1614fe4565b878505871281841616156154d7576154d7614fe4565b505050929093029392505050565b634e487b7160e01b600052601260045260246000fd5b60008261550a5761550a6154e5565b600160ff1b82146000198414161561552457615524614fe4565b500590565b6001600160a01b0392909216825280516020808401919091520151604082015260600190565b60008261555e5761555e6154e5565b500490565b805182526020810151602083015260408101516040830152606081015160608301526080810151608083015260a081015160a083015260c081015160c083015260e081015160e08301525050565b6155bc828251614dfd565b6020810151151560208301526040810151151560408301526060810151151560608301525050565b8281526040602080830182905283516101c08385015280516001600160a01b039081166102008601529181015182166102208501529182015181166102408401526060820151811661026084015260808201511661028083015260a0015160c06102a083015260009061565b6102c0840182614591565b9050602084015161566f6060850182615563565b5060408401516156836101608501826155b1565b506060840151838203603f19016101e08501526149368282614629565b80516101c080845281516001600160a01b0390811691850191909152602082015181166101e0850152604082015181166102008501526060820151811661022085015260808201511661024084015260a0015160c061026084015260009061570c610280850182614591565b905060208301516157206020860182615563565b5060408301516157346101208601826155b1565b5060608301518482036101a0860152613b088282614629565b600060018060a01b0380835116845280602084015116602085015280604084015116604085015280606084015116606085015250608082015160a0608085015261579a60a0850182614629565b949350505050565b600081518084526020808501808196508360051b8101915082860160005b8581101561469d5782840389526157d884835161574d565b988501989350908401906001016157c0565b6020815281516020820152600060208301516102008060408501526158136102208501836156a0565b91506040850151601f198086850301606087015261583184836157a2565b9350606087015191506158476080870183613d77565b6080870151915061585b60a0870183613d77565b60a0870151915061586f60c0870183613d77565b60c0870151915061588360e0870183613d77565b60e0870151915061010061589981880184613d77565b87015191506101206158ad87820184613d77565b87015191506101406158c187820184613d77565b87015191506101606158d587820184613d77565b808801519250506101808187860301818801526158f285846145d5565b9450808801519250506101a0818786030181880152615911858461574d565b945080880151925050506101c061592a81870183613d77565b8601516101e0868101919091529095015193019290925250919050565b8281526040602082015260006121c16040830184614629565b600081600019048311821515161561597a5761597a614fe4565b500290565b818103818111156119ef576119ef614fe4565b81810360008312801583831316838312821617156159b2576159b2614fe4565b5092915050565b808201808211156119ef576119ef614fe456fea2646970667358221220feeffee1a8a3d5a5f410e658d567cb564a8bdb4af1ebc4f90fd756e9623f6b7764736f6c63430008100033",
  "deployedBytecode": "0x6080604052600436106100e75760003560e01c80626cc35e146100f357806312d43a511461013d5780632ac38dbd1461015d5780633157d39d146101915780633c11f370146101c55780634a4a7b04146101e7578063660d0d671461021b5780636bd3d4511461024f5780637dc0d1d01461026f5780638a53aaac146102a35780639ff78c30146102d7578063b3f006741461030b578063b8d2c6931461033f578063c6b25d6b14610373578063cfad57a214610393578063d6fc5cce146103b3578063d7c5467d146103d3578063e7683e65146103f3578063fb8c95491461042157600080fd5b366100ee57005b600080fd5b3480156100ff57600080fd5b506101277f000000000000000000000000000000000000000000000000000000000000000081565b6040516101349190613d84565b60405180910390f35b34801561014957600080fd5b50600154610127906001600160a01b031681565b34801561016957600080fd5b506101277f000000000000000000000000000000000000000000000000000000000000000081565b34801561019d57600080fd5b506101277f000000000000000000000000000000000000000000000000000000000000000081565b3480156101d157600080fd5b506101e56101e0366004613def565b610441565b005b3480156101f357600080fd5b506101277f000000000000000000000000000000000000000000000000000000000000000081565b34801561022757600080fd5b506101277f000000000000000000000000000000000000000000000000000000000000000081565b34801561025b57600080fd5b506101e561026a366004613e7e565b610b88565b34801561027b57600080fd5b506101277f000000000000000000000000000000000000000000000000000000000000000081565b3480156102af57600080fd5b506101277f000000000000000000000000000000000000000000000000000000000000000081565b3480156102e357600080fd5b506101277f000000000000000000000000000000000000000000000000000000000000000081565b34801561031757600080fd5b506101277f000000000000000000000000000000000000000000000000000000000000000081565b34801561034b57600080fd5b506101277f000000000000000000000000000000000000000000000000000000000000000081565b34801561037f57600080fd5b506101e561038e366004613eaa565b610c07565b34801561039f57600080fd5b506101e56103ae366004613f31565b610f50565b3480156103bf57600080fd5b506101e56103ce366004613f4e565b610fa5565b3480156103df57600080fd5b506101e56103ee366004613faf565b61121b565b3480156103ff57600080fd5b5061041361040e366004613ff5565b61152e565b604051908152602001610134565b34801561042d57600080fd5b506101e561043c3660046144ca565b6116c8565b60026000540361046c5760405162461bcd60e51b81526004016104639061452a565b60405180910390fd5b60026000556040516104c29061048490602001614561565b604051602081830303815290604052805190602001206040518060400160405280600a81526020016920a2262fa5a2a2a822a960b11b8152506118af565b7f00000000000000000000000000000000000000000000000000000000000000007f00000000000000000000000000000000000000000000000000000000000000007f000000000000000000000000000000000000000000000000000000000000000061052e84614585565b6040516301b046cf60e51b81526001600160a01b03851690633608d9e09061055e908690869086906004016146aa565b600060405180830381600087803b15801561057857600080fd5b505af1925050508015610589575060015b610631576105956147fa565b806308c379a00361062557506105a9614816565b806105b45750610627565b7f9966b250e13ade3123b5af1743515baa8eaaf09f1e4081aa5e7e66ddd2b1415a816040516105e3919061489f565b60405180910390a1604080518082018252600c81526b27a920a1a622afa2a92927a960a11b6020820152905162461bcd60e51b8152610463919060040161489f565b505b3d6000803e3d6000fd5b61066d6040518060c001604052806000815260200160608152602001600080191681526020016000815260200160008152602001600081525090565b5a81526106c661068060408801886148b2565b808060200260200160405190810160405280939291908181526020018383602002808284376000920191909152506106bf9250505060208901896148b2565b905061195f565b602082018190526040516385671ac560e01b815273__$f1c6d6b2bd25207c7e7320f7c6bcfa9419$__916385671ac591610728917f0000000000000000000000000000000000000000000000000000000000000000918f918e91600401614902565b60006040518083038186803b15801561074057600080fd5b505af4158015610754573d6000803e3d6000fd5b505050506107c77f00000000000000000000000000000000000000000000000000000000000000007f00000000000000000000000000000000000000000000000000000000000000007f00000000000000000000000000000000000000000000000000000000000000008d8c60016119f5565b60608201819052600013156108185760405162461bcd60e51b815260206004820152601760248201527624b73b30b634b2103837362a37a837b7b62330b1ba37b960491b6044820152606401610463565b73__$f1c6d6b2bd25207c7e7320f7c6bcfa9419$__63dbadc9b96040518061012001604052807f00000000000000000000000000000000000000000000000000000000000000006001600160a01b031681526020017f00000000000000000000000000000000000000000000000000000000000000006001600160a01b031681526020017f00000000000000000000000000000000000000000000000000000000000000006001600160a01b031681526020018e6001600160a01b031681526020018d6001600160a01b031681526020018c6001600160a01b031681526020018b151581526020018a8152602001846020015160008151811061091d5761091d614940565b60200260200101518152506040518263ffffffff1660e01b81526004016109449190614956565b602060405180830381865af4158015610961573d6000803e3d6000fd5b505050506040513d601f19601f8201168201806040525081019061098591906149f8565b604082018190526000906109a59061099c89614585565b84513390611bf0565b90506109de81606001516109d9306109c38560200151604001515190565b60078111156109d4576109d4614a11565b611f11565b611f9d565b6109e781611fc8565b610a567f00000000000000000000000000000000000000000000000000000000000000007f00000000000000000000000000000000000000000000000000000000000000007f00000000000000000000000000000000000000000000000000000000000000008e8d60016119f5565b60808301819052606083015113610a9d5760405162461bcd60e51b815260206004820152600b60248201526a125b9d985b1a590818591b60aa1b6044820152606401610463565b610ac87f00000000000000000000000000000000000000000000000000000000000000008c8b612147565b60a08301819052610ad8906121cb565b82608001511215610b235760405162461bcd60e51b8152602060048201526015602482015274141b9b081dd85cc81bdd995c98dbdc9c9958dd1959605a1b6044820152606401610463565b5050836001600160a01b031662ccf1556040518163ffffffff1660e01b8152600401600060405180830381600087803b158015610b5f57600080fd5b505af1158015610b73573d6000803e3d6000fd5b50506001600055505050505050505050505050565b610bd8604051602001610b9a90614a27565b604051602081830303815290604052805190602001206040518060400160405280600a81526020016921a7a72a2927a62622a960b11b8152506118af565b610c037f00000000000000000000000000000000000000000000000000000000000000008383612239565b5050565b600260005403610c295760405162461bcd60e51b81526004016104639061452a565b6002600055604051610cae90610c68906020016020808252601290820152712624a8aaa4a220aa24a7a72fa5a2a2a822a960711b604082015260600190565b60405160208183030381529060405280519060200120604051806040016040528060128152602001712624a8aaa4a220aa24a7a72fa5a2a2a822a960711b8152506118af565b7f00000000000000000000000000000000000000000000000000000000000000007f00000000000000000000000000000000000000000000000000000000000000007f0000000000000000000000000000000000000000000000000000000000000000610d1a84614585565b6040516301b046cf60e51b81526001600160a01b03851690633608d9e090610d4a908690869086906004016146aa565b600060405180830381600087803b158015610d6457600080fd5b505af1925050508015610d75575060015b610d81576105956147fa565b60005a6040516319b3f4f960e31b81526001600160a01b037f0000000000000000000000000000000000000000000000000000000000000000811660048301527f0000000000000000000000000000000000000000000000000000000000000000811660248301527f000000000000000000000000000000000000000000000000000000000000000081166044830152808d166064830152808c1660848301528a1660a482015288151560c482015290915060009073__$24ecf20cb15267250766fd478de108983d$__9063cd9fa7c89060e401602060405180830381865af4158015610e72573d6000803e3d6000fd5b505050506040513d601f19601f82011682018060405250810190610e9691906149f8565b90506000610eae82610ea78a614585565b3386611bf0565b9050610ee281606001516109d930610ecc8560200151604001515190565b6007811115610edd57610edd614a11565b6123f0565b610eeb81611fc8565b505050836001600160a01b031662ccf1556040518163ffffffff1660e01b8152600401600060405180830381600087803b158015610f2857600080fd5b505af1158015610f3c573d6000803e3d6000fd5b505060016000555050505050505050505050565b6001546001600160a01b03163314610f99576040805163a35b150b60e01b81523360048201526024810191909152600360448201526223a7ab60e91b6064820152608401610463565b610fa28161242b565b50565b600260005403610fc75760405162461bcd60e51b81526004016104639061452a565b6002600055604051610fdf9061048490602001614561565b7f00000000000000000000000000000000000000000000000000000000000000007f00000000000000000000000000000000000000000000000000000000000000007f000000000000000000000000000000000000000000000000000000000000000061104b84614585565b6040516301b046cf60e51b81526001600160a01b03851690633608d9e09061107b908690869086906004016146aa565b600060405180830381600087803b15801561109557600080fd5b505af19250505080156110a6575060015b6110b2576105956147fa565b60006110c461068060408801886148b2565b60405163662aac5160e11b815290915073__$f1c6d6b2bd25207c7e7320f7c6bcfa9419$__9063cc5558a29061118a907f0000000000000000000000000000000000000000000000000000000000000000907f0000000000000000000000000000000000000000000000000000000000000000907f0000000000000000000000000000000000000000000000000000000000000000907f0000000000000000000000000000000000000000000000000000000000000000908f908f908a90600401614a4b565b60006040518083038186803b1580156111a257600080fd5b505af41580156111b6573d6000803e3d6000fd5b5050505050836001600160a01b031662ccf1556040518163ffffffff1660e01b8152600401600060405180830381600087803b1580156111f557600080fd5b505af1158015611209573d6000803e3d6000fd5b50506001600055505050505050505050565b60026000540361123d5760405162461bcd60e51b81526004016104639061452a565b60026000556040516112b690611276906020016020808252600c908201526b27a92222a92fa5a2a2a822a960a11b604082015260600190565b604051602081830303815290604052805190602001206040518060400160405280600c81526020016b27a92222a92fa5a2a2a822a960a11b8152506118af565b60005a60405163fb8c954960e01b8152909150309063fb8c9549906112e5908690869033908790600401614bfc565b600060405180830381600087803b1580156112ff57600080fd5b505af1925050508015611310575060015b6115245761131c6147fa565b806308c379a0036114935750611330614816565b8061133b5750611495565b60008160405160200161134e919061489f565b60408051601f1981840301815282825280516020918201208383018352600c84526b27a920a1a622afa2a92927a960a11b84830152915191935061139392910161489f565b60405160208183030381529060405280519060200120811480611405575060405180604001604052806012815260200171232927ad22a72fa7a92222a92fa2a92927a960711b8152506040516020016113ec919061489f565b6040516020818303038152906040528051906020012081145b8061146157506040518060400160405280601481526020017322a6a82a2cafa827a9a4aa24a7a72fa2a92927a960611b815250604051602001611448919061489f565b6040516020818303038152906040528051906020012081145b15611480578160405162461bcd60e51b8152600401610463919061489f565b61148c8584848461248c565b5050611524565b505b3d8080156114bf576040519150601f19603f3d011682016040523d82523d6000602084013e6114c4565b606091505b506000816040516020016114d8919061489f565b60405160208183030381529060405290506000826040516020016114fc919061489f565b6040516020818303038152906040528051906020012090506115208685848461248c565b5050505b5050600160005550565b60006002600054036115525760405162461bcd60e51b81526004016104639061452a565b600260005560405161156a90610b9a90602001614a27565b6115ba7f00000000000000000000000000000000000000000000000000000000000000006109d9306115a461018087016101608801614de0565b60078111156115b5576115b5614a11565b61269e565b60405163700c99a760e11b815273__$18943158f75973db0541c3d7c8650b2485$__9063e019334e9061167b907f0000000000000000000000000000000000000000000000000000000000000000907f0000000000000000000000000000000000000000000000000000000000000000907f0000000000000000000000000000000000000000000000000000000000000000907f0000000000000000000000000000000000000000000000000000000000000000908a908a90600401614e1f565b602060405180830381865af4158015611698573d6000803e3d6000fd5b505050506040513d601f19601f820116820180604052508101906116bc91906149f8565b60016000559392505050565b33301461170c576040805163a35b150b60e01b815233600480830191909152602482019290925260448101919091526329a2a62360e11b6064820152608401610463565b7f00000000000000000000000000000000000000000000000000000000000000007f00000000000000000000000000000000000000000000000000000000000000007f000000000000000000000000000000000000000000000000000000000000000085836001600160a01b0316633608d9e08484846040518463ffffffff1660e01b81526004016117a0939291906146aa565b600060405180830381600087803b1580156117ba57600080fd5b505af19250505080156117cb575060015b6117d7576105956147fa565b60006117e589898989611bf0565b90506117fa8160200151604001516060015190565b8061181f5750600160208201516040015151600781111561181d5761181d614a11565b145b1561182d5761182d876126d8565b61184981606001516109d930610ecc8560200151604001515190565b61185281611fc8565b50836001600160a01b031662ccf1556040518163ffffffff1660e01b8152600401600060405180830381600087803b15801561188d57600080fd5b505af11580156118a1573d6000803e3d6000fd5b505050505050505050505050565b60405163ac4ab3fb60e01b81526001600160a01b037f0000000000000000000000000000000000000000000000000000000000000000169063ac4ab3fb906118fd9033908690600401614f8a565b602060405180830381865afa15801561191a573d6000803e3d6000fd5b505050506040513d601f19601f8201168201806040525081019061193e9190614fa3565b610c0357338160405163a35b150b60e01b8152600401610463929190614fc0565b60606000826001600160401b0381111561197b5761197b61404c565b6040519080825280602002602001820160405280156119a4578160200160208202803683370190505b50905060005b838110156119eb576119bc85826127fc565b8282815181106119ce576119ce614940565b6020908102919091010152806119e381614ffa565b9150506119aa565b5090505b92915050565b600080866001600160a01b031663c2bc2efc866040518263ffffffff1660e01b8152600401611a249190613d84565b600060405180830381865afa158015611a41573d6000803e3d6000fd5b505050506040513d6000823e601f3d908101601f19168201604052611a69919081019061506d565b905060006040518060600160405280886001600160a01b0316635dcf719485602001516040518263ffffffff1660e01b8152600401611aa89190613d84565b6040805180830381865afa158015611ac4573d6000803e3d6000fd5b505050506040513d601f19601f82011682018060405250810190611ae89190615129565b8152602001886001600160a01b0316635dcf719485604001516040518263ffffffff1660e01b8152600401611b1d9190613d84565b6040805180830381865afa158015611b39573d6000803e3d6000fd5b505050506040513d601f19601f82011682018060405250810190611b5d9190615129565b8152602001886001600160a01b0316635dcf719485606001516040518263ffffffff1660e01b8152600401611b929190613d84565b6040805180830381865afa158015611bae573d6000803e3d6000fd5b505050506040513d601f19601f82011682018060405250810190611bd29190615129565b90529050611be38983838888612839565b9998505050505050505050565b611bf8613bfc565b611c00613bfc565b85815260405163023aa9ab60e61b8152600481018790527f00000000000000000000000000000000000000000000000000000000000000006001600160a01b031690638eaa6ac090602401600060405180830381865afa158015611c68573d6000803e3d6000fd5b505050506040513d6000823e601f3d908101601f19168201604052611c9091908101906152e4565b602082018190525160a00151611cc7907f0000000000000000000000000000000000000000000000000000000000000000906128ab565b6040808301919091526001600160a01b037f0000000000000000000000000000000000000000000000000000000000000000811660608401527f0000000000000000000000000000000000000000000000000000000000000000811660808401527f0000000000000000000000000000000000000000000000000000000000000000811660a08401527f0000000000000000000000000000000000000000000000000000000000000000811660c08401527f0000000000000000000000000000000000000000000000000000000000000000811660e08401527f000000000000000000000000000000000000000000000000000000000000000081166101008401527f000000000000000000000000000000000000000000000000000000000000000081166101208401527f000000000000000000000000000000000000000000000000000000000000000016610140830152850151602086015151611e2d919061195f565b610160820152602081015151606001516001600160a01b031615611ef2577f00000000000000000000000000000000000000000000000000000000000000006001600160a01b031663c2bc2efc611e8a8360200151516060015190565b6040518263ffffffff1660e01b8152600401611ea69190613d84565b600060405180830381865afa158015611ec3573d6000803e3d6000fd5b505050506040513d6000823e601f3d908101601f19168201604052611eeb919081019061506d565b6101808201525b6001600160a01b03939093166101a0840152506101c082015292915050565b6000604051602001611f4a90602080825260139082015272455845435554455f41444c5f4645415455524560681b604082015260600190565b60408051601f198184030181528282528051602091820120908301526001600160a01b03851690820152606081018390526080015b60405160208183030381529060405280519060200120905092915050565b611fa78282612a29565b15610c0357604051630827f79760e41b815260048101829052602401610463565b611fd58160200151612a95565b6120148160e0015182610180015160200151611ff78460200151604001515190565b602080860151015160400151602080870151604001510151612ac7565b61202681600001518260200151612f0e565b61202f81612fad565b60808101518151604051632337371360e01b81526001600160a01b03909216916323373713916120659160040190815260200190565b600060405180830381600087803b15801561207f57600080fd5b505af1158015612093573d6000803e3d6000fd5b505050506120a9816000015182602001516130b1565b73__$60bb1dd4670b1e26e5010aaaf2f65694d3$__635a3911ca82606001518360a001516120e08560200151602001516080015190565b6101c08601516101a0870151602088015151516040518763ffffffff1660e01b815260040161211496959493929190615426565b60006040518083038186803b15801561212c57600080fd5b505af4158015612140573d6000803e3d6000fd5b5050505050565b6000836001600160a01b031663bd02d0f561216285856130ed565b6040518263ffffffff1660e01b815260040161218091815260200190565b602060405180830381865afa15801561219d573d6000803e3d6000fd5b505050506040513d601f19601f820116820180604052508101906121c191906149f8565b90505b9392505050565b60006001600160ff1b038211156122355760405162461bcd60e51b815260206004820152602860248201527f53616665436173743a2076616c756520646f65736e27742066697420696e2061604482015267371034b73a191a9b60c11b6064820152608401610463565b5090565b8060000361224657505050565b6000836001600160a01b031663bd02d0f5604051602001612298906020808252601f908201527f4e41544956455f544f4b454e5f5452414e534645525f4741535f4c494d495400604082015260600190565b604051602081830303815290604052805190602001206040518263ffffffff1660e01b81526004016122cc91815260200190565b602060405180830381865afa1580156122e9573d6000803e3d6000fd5b505050506040513d601f19601f8201168201806040525081019061230d91906149f8565b9050600080846001600160a01b0316848490604051600060405180830381858888f193505050503d8060008114612360576040519150601f19603f3d011682016040523d82523d6000602084013e612365565b606091505b5091509150811561237857505050505050565b60008160405160200161238b919061489f565b60405160208183030381529060405290507f6c4e9d88878940a822d239187b8b00d62a80dce222d53bc5f1fb072d9c34b681816040516123cb919061489f565b60405180910390a18585604051633828654560e11b8152600401610463929190614f8a565b6000604051602001611f4a90602080825260159082015274455845435554455f4f524445525f4645415455524560581b604082015260600190565b600180546001600160a01b038381166001600160a01b031983168117909355604080519190921680825260208201939093527f53351836099c03ffc3b1727d8abd4b0222afa87d4ed76ae3102d51369ef7f785910160405180910390a15050565b60405163023aa9ab60e61b8152600481018590526000907f00000000000000000000000000000000000000000000000000000000000000006001600160a01b031690638eaa6ac090602401600060405180830381865afa1580156124f4573d6000803e3d6000fd5b505050506040513d6000823e601f3d908101601f1916820160405261251c91908101906152e4565b9050600061253461252f83604001515190565b61316a565b905080156125b0576125ab7f00000000000000000000000000000000000000000000000000000000000000007f00000000000000000000000000000000000000000000000000000000000000007f000000000000000000000000000000000000000000000000000000000000000089338a8a6131db565b612696565b604051806040016040528060188152602001772aa720a1a1a2a82a20a12622afa82924a1a2afa2a92927a960411b8152506040516020016125f1919061489f565b604051602081830303815290604052805190602001208303612627578360405162461bcd60e51b8152600401610463919061489f565b6126967f00000000000000000000000000000000000000000000000000000000000000007f00000000000000000000000000000000000000000000000000000000000000007f000000000000000000000000000000000000000000000000000000000000000089338a8a61349a565b505050505050565b6000604051602001611f4a906020808252601490820152734352454154455f4f524445525f4645415455524560601b604082015260600190565b7f00000000000000000000000000000000000000000000000000000000000000006001600160a01b031663ac4ab3fb8260405160200161273f90602080825260139082015272232927ad22a72fa7a92222a92fa5a2a2a822a960691b604082015260600190565b604051602081830303815290604052805190602001206040518363ffffffff1660e01b8152600401612772929190614f8a565b602060405180830381865afa15801561278f573d6000803e3d6000fd5b505050506040513d601f19601f820116820180604052508101906127b39190614fa3565b60405180604001604052806012815260200171232927ad22a72fa7a92222a92fa2a92927a960711b81525090610c035760405162461bcd60e51b8152600401610463919061489f565b600080612813848460406001600160401b03613695565b9050806000036121c45760405163349f5fdd60e11b815260048101849052602401610463565b60008061284887878787613708565b9050600061286b88886000015189604001518a606001518a600001518a8a61375a565b9050612876826121cb565b61288b68327cb2734119d3b7a9601e1b6121cb565b6128959083615460565b61289f91906154fb565b98975050505050505050565b6060600082516001600160401b038111156128c8576128c861404c565b60405190808252806020026020018201604052801561290157816020015b6128ee613c89565b8152602001906001900390816128e65790505b50905060005b83518110156119eb57600084828151811061292457612924614940565b6020026020010151905060016001600160a01b0316816001600160a01b0316148061295857506001600160a01b0381166002145b8061296c57506001600160a01b0381166003145b156129775750612a17565b6040516330af0bbf60e21b81526000906001600160a01b0388169063c2bc2efc906129a6908590600401613d84565b600060405180830381865afa1580156129c3573d6000803e3d6000fd5b505050506040513d6000823e601f3d908101601f191682016040526129eb919081019061506d565b90506129f6816137f3565b80848481518110612a0957612a09614940565b602002602001018190525050505b80612a2181614ffa565b915050612907565b604051633d70e7e560e11b8152600481018290526000906001600160a01b03841690637ae1cfca90602401602060405180830381865afa158015612a71573d6000803e3d6000fd5b505050506040513d601f19601f820116820180604052508101906121c49190614fa3565b6000612aa082515190565b6001600160a01b031603610fa257604051631630779760e01b815260040160405180910390fd5b612ad08361381b565b612140576000612adf8461383e565b9050600081612aef578215612af1565b825b90506002856007811115612b0757612b07614a11565b1480612b2457506004856007811115612b2257612b22614a11565b145b80612b4057506007856007811115612b3e57612b3e614a11565b145b15612c4d57604051631773dc6560e21b81526000906001600160a01b03891690635dcf719490612b74908a90600401613d84565b6040805180830381865afa158015612b90573d6000803e3d6000fd5b505050506040513d601f19601f82011682018060405250810190612bb49190615129565b9050876001600160a01b031663e3458b79886040518060400160405280612be4878761386290919063ffffffff16565b8152602001612bf38688613862565b8152506040518363ffffffff1660e01b8152600401612c13929190615529565b600060405180830381600087803b158015612c2d57600080fd5b505af1158015612c41573d6000803e3d6000fd5b50505050505050612140565b6003856007811115612c6157612c61614a11565b1480612c7e57506005856007811115612c7c57612c7c614a11565b145b80612c9a57506006856007811115612c9857612c98614a11565b145b15612efd576000612d1782896001600160a01b0316635dcf71948a6040518263ffffffff1660e01b8152600401612cd19190613d84565b6040805180830381865afa158015612ced573d6000803e3d6000fd5b505050506040513d601f19601f82011682018060405250810190612d119190615129565b90613862565b90506000612d4b838a6001600160a01b03166383a2aae28b6040518263ffffffff1660e01b8152600401612cd19190613d84565b9050600084612d5a5785612d5d565b85155b90508015612e2e576000878411158015612d775750828811155b905080612db857604080518082018252600c81526b27a920a1a622afa2a92927a960a11b6020820152905162461bcd60e51b8152610463919060040161489f565b60408051808201825289815260208101859052905163e3458b7960e01b81526001600160a01b038d169163e3458b7991612df6918e91600401615529565b600060405180830381600087803b158015612e1057600080fd5b505af1158015612e24573d6000803e3d6000fd5b5050505050612ef3565b6000878410158015612e405750828810155b905080612e8157604080518082018252600c81526b27a920a1a622afa2a92927a960a11b6020820152905162461bcd60e51b8152610463919060040161489f565b604080518082018252848152602081018a9052905163e3458b7960e01b81526001600160a01b038d169163e3458b7991612ebf918e91600401615529565b600060405180830381600087803b158015612ed957600080fd5b505af1158015612eed573d6000803e3d6000fd5b50505050505b5050505050612140565b612f05613879565b50505050505050565b612f22612f1d82516040015190565b613892565b612f2a575050565b8051604001516001600160a01b031663a0afa3956002612f4f846020015160a0015190565b612f59919061554f565b84846040518463ffffffff1660e01b8152600401612f789291906155e4565b600060405180830381600088803b158015612f9257600080fd5b5087f193505050508015612fa4575060015b15610c03575050565b612fc5612fc08260200151604001515190565b61383e565b1561300157604051634e5db51360e11b815273__$c6faf7926f63ae4546ac001ef150f0e4c5$__90639cbb6a26906121149084906004016157ea565b6130196130148260200151604001515190565b6138c9565b1561305557604051634e5db51360e11b815273__$3bfd12bb494e637808b268e99aeb4c464f$__90639cbb6a26906121149084906004016157ea565b61306d6130688260200151604001515190565b61381b565b156130a957604051634e5db51360e11b815273__$3d12e610ede510c74c5293f97a836d4d0d$__90639cbb6a26906121149084906004016157ea565b610fa2613879565b6130c0612f1d82516040015190565b6130c8575050565b8051604001516001600160a01b0316638b9525e46002612f4f846020015160a0015190565b6000604051602001613130906020808252601e908201527f4d41585f504e4c5f464143544f525f464f525f5749544844524157414c530000604082015260600190565b60408051601f198184030181528282528051602091820120908301526001600160a01b038516908201528215156060820152608001611f7f565b60008082600781111561317f5761317f614a11565b148061319c5750600282600781111561319a5761319a614a11565b145b806131b9575060045b8260078111156131b7576131b7614a11565b145b806119ef575060075b8260078111156131d4576131d4614a11565b1492915050565b60405163023aa9ab60e61b8152600481018590526000906001600160a01b03871690638eaa6ac090602401600060405180830381865afa158015613223573d6000803e3d6000fd5b505050506040513d6000823e601f3d908101601f1916820160405261324b91908101906152e4565b905061325681612a95565b613265612fc082604001515190565b8061327a575061327a61306882604001515190565b156133355760208181015101511561333557856001600160a01b031663f9498938896132a884516080015190565b6020808601510151855151604080880151015160405160e087901b6001600160e01b03191681526001600160a01b039586166004820152938516602485015260448401929092529092166064820152901515608482015260a401600060405180830381600087803b15801561331c57600080fd5b505af1158015613330573d6000803e3d6000fd5b505050505b856001600160a01b0316632874528e8661334e84515190565b6040516001600160e01b031960e085901b16815260048101929092526001600160a01b03166024820152604401600060405180830381600087803b15801561339557600080fd5b505af11580156133a9573d6000803e3d6000fd5b50506040516314a4df2d60e01b81526001600160a01b038a1692506314a4df2d91506133db9088908690600401615947565b600060405180830381600087803b1580156133f557600080fd5b505af1158015613409573d6000803e3d6000fd5b505050506134178582613909565b73__$60bb1dd4670b1e26e5010aaaf2f65694d3$__635a3911ca898861344285602001516080015190565b878961344d88515190565b6040518763ffffffff1660e01b815260040161346e96959493929190615426565b60006040518083038186803b15801561348657600080fd5b505af41580156118a1573d6000803e3d6000fd5b60405163023aa9ab60e61b8152600481018590526000906001600160a01b03871690638eaa6ac090602401600060405180830381865afa1580156134e2573d6000803e3d6000fd5b505050506040513d6000823e601f3d908101601f1916820160405261350a91908101906152e4565b905061351581612a95565b600061352682602001516080015190565b905061353a82600060209091015160800152565b6040820151600160609091015260405163e04b68ad60e01b81526001600160a01b0388169063e04b68ad9061357590899086906004016155e4565b600060405180830381600087803b15801561358f57600080fd5b505af11580156135a3573d6000803e3d6000fd5b5050505073__$60bb1dd4670b1e26e5010aaaf2f65694d3$__635a3911ca8a8984888a6135cf89515190565b6040518763ffffffff1660e01b81526004016135f096959493929190615426565b60006040518083038186803b15801561360857600080fd5b505af415801561361c573d6000803e3d6000fd5b5050604051631987ea4560e21b81526001600160a01b038b16925063661fa914915061364e9089908790600401615947565b600060405180830381600087803b15801561366857600080fd5b505af115801561367c573d6000803e3d6000fd5b5050505061368a8683613945565b505050505050505050565b6000806136a48461010061554f565b905060006136b2828761554f565b905060008782815181106136c8576136c8614940565b6020026020010151905060008684846136e19190615960565b6136eb908a61597f565b6136f59190615960565b9190911c85169350505050949350505050565b6000808261371a578460600151613720565b84604001515b9050600061373387876000015184613981565b90506000846137475760408601515161374e565b6020860151515b905061289f8183615960565b60008061377261376d8a8a8a8a8961399c565b6121cb565b905060006137838a8a8a8a896139c7565b9050811580613790575080155b156137a0576000925050506137e8565b60006137ad8787876139e6565b905060006137be61376d8385615960565b90506000876137d6576137d18286615992565b6137e0565b6137e08583615992565b955050505050505b979650505050505050565b80516001600160a01b0316610fa2576040516302fde0d760e11b815260040160405180910390fd5b60008082600781111561383057613830614a11565b14806119ef575060016131c2565b6000600282600781111561385457613854614a11565b14806119ef575060036131c2565b6000816138705782516121c4565b50506020015190565b60405163c1c0083160e01b815260040160405180910390fd5b60006001600160a01b0382166138aa57506000919050565b6001600160a01b0382163b6138c157506000919050565b506001919050565b600060048260078111156138df576138df614a11565b14806138fc575060058260078111156138fa576138fa614a11565b145b806131b9575060066131a5565b613918612f1d82516040015190565b613920575050565b8051604001516001600160a01b031663d19db5266002612f4f846020015160a0015190565b613954612f1d82516040015190565b61395c575050565b8051604001516001600160a01b031663e175a77f6002612f4f846020015160a0015190565b6000836001600160a01b031663bd02d0f56121628585613a1f565b6000806139ab87878786613a8d565b905060006139bb88888787613a8d565b905061289f81836159b9565b6000806139d687878786613b11565b905060006139bb88888787613b11565b60008215613a0757816139fa578351613a00565b83602001515b90506121c4565b81613a165783602001516121c1565b50509051919050565b6000604051602001613a50906020808252600b908201526a1413d3d317d05353d5539560aa1b604082015260600190565b60408051601f198184030181528282528051602091820120908301526001600160a01b038086169183019190915283166060820152608001611f7f565b6000846001600160a01b031663bd02d0f5613aa9868686613b2d565b6040518263ffffffff1660e01b8152600401613ac791815260200190565b602060405180830381865afa158015613ae4573d6000803e3d6000fd5b505050506040513d601f19601f82011682018060405250810190613b0891906149f8565b95945050505050565b6000846001600160a01b031663bd02d0f5613aa9868686613bbf565b6000604051602001613b60906020808252600d908201526c13d4115397d2539511549154d5609a1b604082015260600190565b60408051601f198184030181528282528051602091820120908301526001600160a01b038087169183019190915284166060820152821515608082015260a0016040516020818303038152906040528051906020012090509392505050565b6000604051602001613b60906020808252601790820152764f50454e5f494e5445524553545f494e5f544f4b454e5360481b604082015260600190565b6040805161020081019091526000815260208101613c18613cb9565b81526060602082018190526000604083018190528183018190526080830181905260a0830181905260c0830181905260e08301819052610100830181905261012083015261014082015261016001613c6e613c89565b81526000602082018190526040820181905260609091015290565b6040805160a081018252600080825260208201819052918101829052606080820192909252608081019190915290565b60408051610140810190915260006080820181815260a0830182905260c0830182905260e08301829052610100830191909152606061012083015281908152602001613d4360405180610100016040528060008152602001600081526020016000815260200160008152602001600081526020016000815260200160008152602001600081525090565b8152604080516080810182526000808252602082810182905292820181905260608201529101908152602001606081525090565b6001600160a01b03169052565b6001600160a01b0391909116815260200190565b6001600160a01b0381168114610fa257600080fd5b8035613db881613d98565b919050565b8015158114610fa257600080fd5b8035613db881613dbd565b60006101608284031215613de957600080fd5b50919050565b60008060008060008060c08789031215613e0857600080fd5b8635613e1381613d98565b95506020870135613e2381613d98565b94506040870135613e3381613d98565b93506060870135613e4381613dbd565b92506080870135915060a08701356001600160401b03811115613e6557600080fd5b613e7189828a01613dd6565b9150509295509295509295565b60008060408385031215613e9157600080fd5b8235613e9c81613d98565b946020939093013593505050565b600080600080600060a08688031215613ec257600080fd5b8535613ecd81613d98565b94506020860135613edd81613d98565b93506040860135613eed81613d98565b92506060860135613efd81613dbd565b915060808601356001600160401b03811115613f1857600080fd5b613f2488828901613dd6565b9150509295509295909350565b600060208284031215613f4357600080fd5b81356121c481613d98565b600080600060608486031215613f6357600080fd5b8335613f6e81613d98565b92506020840135613f7e81613dbd565b915060408401356001600160401b03811115613f9957600080fd5b613fa586828701613dd6565b9150509250925092565b60008060408385031215613fc257600080fd5b8235915060208301356001600160401b03811115613fdf57600080fd5b613feb85828601613dd6565b9150509250929050565b6000806040838503121561400857600080fd5b823561401381613d98565b915060208301356001600160401b0381111561402e57600080fd5b83016101c0818603121561404157600080fd5b809150509250929050565b634e487b7160e01b600052604160045260246000fd5b60a081016001600160401b03811182821017156140815761408161404c565b60405250565b608081016001600160401b03811182821017156140815761408161404c565b60c081016001600160401b03811182821017156140815761408161404c565b601f8201601f191681016001600160401b03811182821017156140ea576140ea61404c565b6040525050565b60405161016081016001600160401b03811182821017156141145761411461404c565b60405290565b60006001600160401b038211156141335761413361404c565b5060051b60200190565b600082601f83011261414e57600080fd5b8135602061415b8261411a565b60405161416882826140c5565b83815260059390931b850182019282810191508684111561418857600080fd5b8286015b848110156141ac57803561419f81613d98565b835291830191830161418c565b509695505050505050565b600082601f8301126141c857600080fd5b813560206141d58261411a565b6040516141e282826140c5565b83815260059390931b850182019282810191508684111561420257600080fd5b8286015b848110156141ac5780358352918301918301614206565b60006001600160401b038211156142365761423661404c565b50601f01601f191660200190565b600082601f83011261425557600080fd5b813560206142628261411a565b6040805161427083826140c5565b84815260059490941b860183019383810192508785111561429057600080fd5b8387015b858110156143175780356001600160401b038111156142b35760008081fd5b8801603f81018a136142c55760008081fd5b858101356142d28161421d565b85516142de82826140c5565b8281528c878486010111156142f557600091508182fd5b828785018a830137600092810189019290925250855250928401928401614294565b50979650505050505050565b6000610160828403121561433657600080fd5b61433e6140f1565b82358152905060208201356001600160401b038082111561435e57600080fd5b61436a8583860161413d565b6020840152604084013591508082111561438357600080fd5b61438f858386016141b7565b604084015260608401359150808211156143a857600080fd5b6143b4858386016141b7565b606084015260808401359150808211156143cd57600080fd5b6143d9858386016141b7565b608084015260a08401359150808211156143f257600080fd5b6143fe858386016141b7565b60a084015260c084013591508082111561441757600080fd5b614423858386016141b7565b60c084015260e084013591508082111561443c57600080fd5b614448858386016141b7565b60e08401526101009150818401358181111561446357600080fd5b61446f868287016141b7565b83850152506101209150818401358181111561448a57600080fd5b61449686828701614244565b8385015250610140915081840135818111156144b157600080fd5b6144bd8682870161413d565b8385015250505092915050565b600080600080608085870312156144e057600080fd5b8435935060208501356001600160401b038111156144fd57600080fd5b61450987828801614323565b935050604085013561451a81613d98565b9396929550929360600135925050565b6020808252601f908201527f5265656e7472616e637947756172643a207265656e7472616e742063616c6c00604082015260600190565b6020808252600a908201526920a2262fa5a2a2a822a960b11b604082015260600190565b60006119ef3683614323565b600081518084526020808501945080840160005b838110156145ca5781516001600160a01b0316875295820195908201906001016145a5565b509495945050505050565b600081518084526020808501945080840160005b838110156145ca578151875295820195908201906001016145e9565b60005b83811015614620578181015183820152602001614608565b50506000910152565b60008151808452614641816020860160208601614605565b601f01601f19169290920160200192915050565b600081518084526020808501808196508360051b8101915082860160005b8581101561469d57828403895261468b848351614629565b98850198935090840190600101614673565b5091979650505050505050565b600060018060a01b038086168352808516602084015250606060408301528251606083015260208301516101608060808501526146eb6101c0850183614591565b91506040850151605f19808685030160a087015261470984836145d5565b935060608701519150808685030160c087015261472684836145d5565b935060808701519150808685030160e087015261474384836145d5565b935060a0870151915061010081878603018188015261476285846145d5565b945060c0880151925061012082888703018189015261478186856145d5565b955060e089015193506101408389880301818a01526147a087866145d5565b9650828a015194508389880301868a01526147bb87866145d5565b9650818a0151955083898803016101808a01526147d88787614655565b9650808a0151955050505080868503016101a087015250506137e88282614591565b600060033d11156148135760046000803e5060005160e01c5b90565b600060443d10156148245790565b6040516003193d81016004833e81513d6001600160401b03808311602484018310171561485357505050505090565b828501915081518181111561486b5750505050505090565b843d87010160208285010111156148855750505050505090565b614894602082860101876140c5565b509095945050505050565b6020815260006121c46020830184614629565b6000808335601e198436030181126148c957600080fd5b8301803591506001600160401b038211156148e357600080fd5b6020019150600581901b36038213156148fb57600080fd5b9250929050565b6001600160a01b038581168252841660208201528215156040820152608060608201819052600090614936908301846145d5565b9695505050505050565b634e487b7160e01b600052603260045260246000fd5b81516001600160a01b0316815260208083015161012083019161497b90840182613d77565b50604083015161498e6040840182613d77565b5060608301516149a16060840182613d77565b5060808301516149b46080840182613d77565b5060a08301516149c760a0840182613d77565b5060c08301516149db60c084018215159052565b5060e083015160e083015261010080840151818401525092915050565b600060208284031215614a0a57600080fd5b5051919050565b634e487b7160e01b600052602160045260246000fd5b6020808252600a908201526921a7a72a2927a62622a960b11b604082015260600190565b6001600160a01b0388811682528781166020830152868116604083015285811660608301528416608082015282151560a082015260e060c08201819052600090611be3908301846145d5565b6000808335601e19843603018112614aae57600080fd5b83016020810192503590506001600160401b03811115614acd57600080fd5b8060051b36038213156148fb57600080fd5b8183526000602080850194508260005b858110156145ca578135614b0281613d98565b6001600160a01b031687529582019590820190600101614aef565b81835260006001600160fb1b03831115614b3657600080fd5b8260051b80836020870137939093016020019392505050565b81835281816020850137506000828201602090810191909152601f909101601f19169091010190565b81835260006020808501808196508560051b810191508460005b8781101561469d5782840389528135601e19883603018112614bb357600080fd5b870185810190356001600160401b03811115614bce57600080fd5b803603821315614bdd57600080fd5b614be8868284614b4f565b9a87019a9550505090840190600101614b92565b84815260806020820152833560808201526000614c1c6020860186614a97565b6101608060a0860152614c346101e086018385614adf565b9250614c436040890189614a97565b9250607f19808786030160c0880152614c5d858584614b1d565b9450614c6c60608b018b614a97565b94509150808786030160e0880152614c85858584614b1d565b9450614c9460808b018b614a97565b94509150610100818887030181890152614caf868685614b1d565b9550614cbe60a08c018c614a97565b955092506101208289880301818a0152614cd9878786614b1d565b9650614ce860c08d018d614a97565b96509350610140838a890301818b0152614d03888887614b1d565b9750614d1260e08e018e614a97565b97509450838a890301868b0152614d2a888887614b1d565b9750614d38838e018e614a97565b97509550838a8903016101808b0152614d52888888614b1d565b9750614d60828e018e614a97565b97509550838a8903016101a08b0152614d7a888888614b78565b9750614d88818e018e614a97565b9750955050505080878603016101c08801525050614da7838383614adf565b9350505050614db96040830185613d77565b82606083015295945050505050565b60088110610fa257600080fd5b8035613db881614dc8565b600060208284031215614df257600080fd5b81356121c481614dc8565b60088110614e1b57634e487b7160e01b600052602160045260246000fd5b9052565b6001600160a01b0387811682528681166020830152858116604083015284811660608301528316608082015260c060a08201819052600090614e6b908301614e6685613dad565b613d77565b614e7760208401613dad565b614e8460e0840182613d77565b50614e9160408401613dad565b610100614ea081850183613d77565b614eac60608601613dad565b9150610120614ebd81860184613d77565b614eca6080870187614a97565b93506101c06101408181890152614ee661028089018785614adf565b9550610160925060a08901358389015261018060c08a0135818a01526101a060e08b0135818b0152868b0135848b0152858b01356101e08b0152828b01356102008b0152614f35858c01614dd5565b9650614f456102208b0188614dfd565b614f50828c01613dcb565b8015156102408c01529650614f66818c01613dcb565b9650505050505050614f7d61026085018215159052565b5098975050505050505050565b6001600160a01b03929092168252602082015260400190565b600060208284031215614fb557600080fd5b81516121c481613dbd565b6001600160a01b03831681526040602082018190526000906121c190830184614629565b634e487b7160e01b600052601160045260246000fd5b60006001820161500c5761500c614fe4565b5060010190565b8051613db881613d98565b600082601f83011261502f57600080fd5b815161503a8161421d565b60405161504782826140c5565b82815285602084870101111561505c57600080fd5b613b08836020830160208801614605565b60006020828403121561507f57600080fd5b81516001600160401b038082111561509657600080fd5b9083019060a082860312156150aa57600080fd5b6040516150b681614062565b82516150c181613d98565b815260208301516150d181613d98565b602082015260408301516150e481613d98565b604082015260608301516150f781613d98565b606082015260808301518281111561510e57600080fd5b61511a8782860161501e565b60808301525095945050505050565b60006040828403121561513b57600080fd5b604080519081016001600160401b038111828210171561515d5761515d61404c565b604052825181526020928301519281019290925250919050565b600082601f83011261518857600080fd5b815160206151958261411a565b6040516151a282826140c5565b83815260059390931b85018201928281019150868411156151c257600080fd5b8286015b848110156141ac5780516151d981613d98565b83529183019183016151c6565b60006101008083850312156151fa57600080fd5b604051908101906001600160401b038211818310171561521c5761521c61404c565b81604052809250835181526020840151602082015260408401516040820152606084015160608201526080840151608082015260a084015160a082015260c084015160c082015260e084015160e0820152505092915050565b60006080828403121561528757600080fd5b60405161529381614087565b80915082516152a181614dc8565b815260208301516152b181613dbd565b602082015260408301516152c481613dbd565b604082015260608301516152d781613dbd565b6060919091015292915050565b6000602082840312156152f657600080fd5b81516001600160401b038082111561530d57600080fd5b908301906101c0828603121561532257600080fd5b60405161532e81614087565b82518281111561533d57600080fd5b830160c0818803121561534f57600080fd5b60405161535b816140a6565b815161536681613d98565b815261537460208301615013565b602082015261538560408301615013565b604082015261539660608301615013565b60608201526153a760808301615013565b608082015260a0820151848111156153be57600080fd5b6153ca89828501615177565b60a0830152508252506153e086602085016151e6565b60208201526153f3866101208501615275565b60408201526101a08301518281111561540b57600080fd5b6154178782860161501e565b60608301525095945050505050565b6001600160a01b0396871681529486166020860152604085019390935260608401919091528316608083015290911660a082015260c00190565b60006001600160ff1b038184138284138082168684048611161561548657615486614fe4565b600160ff1b60008712828116878305891216156154a5576154a5614fe4565b600087129250878205871284841616156154c1576154c1614fe4565b878505871281841616156154d7576154d7614fe4565b505050929093029392505050565b634e487b7160e01b600052601260045260246000fd5b60008261550a5761550a6154e5565b600160ff1b82146000198414161561552457615524614fe4565b500590565b6001600160a01b0392909216825280516020808401919091520151604082015260600190565b60008261555e5761555e6154e5565b500490565b805182526020810151602083015260408101516040830152606081015160608301526080810151608083015260a081015160a083015260c081015160c083015260e081015160e08301525050565b6155bc828251614dfd565b6020810151151560208301526040810151151560408301526060810151151560608301525050565b8281526040602080830182905283516101c08385015280516001600160a01b039081166102008601529181015182166102208501529182015181166102408401526060820151811661026084015260808201511661028083015260a0015160c06102a083015260009061565b6102c0840182614591565b9050602084015161566f6060850182615563565b5060408401516156836101608501826155b1565b506060840151838203603f19016101e08501526149368282614629565b80516101c080845281516001600160a01b0390811691850191909152602082015181166101e0850152604082015181166102008501526060820151811661022085015260808201511661024084015260a0015160c061026084015260009061570c610280850182614591565b905060208301516157206020860182615563565b5060408301516157346101208601826155b1565b5060608301518482036101a0860152613b088282614629565b600060018060a01b0380835116845280602084015116602085015280604084015116604085015280606084015116606085015250608082015160a0608085015261579a60a0850182614629565b949350505050565b600081518084526020808501808196508360051b8101915082860160005b8581101561469d5782840389526157d884835161574d565b988501989350908401906001016157c0565b6020815281516020820152600060208301516102008060408501526158136102208501836156a0565b91506040850151601f198086850301606087015261583184836157a2565b9350606087015191506158476080870183613d77565b6080870151915061585b60a0870183613d77565b60a0870151915061586f60c0870183613d77565b60c0870151915061588360e0870183613d77565b60e0870151915061010061589981880184613d77565b87015191506101206158ad87820184613d77565b87015191506101406158c187820184613d77565b87015191506101606158d587820184613d77565b808801519250506101808187860301818801526158f285846145d5565b9450808801519250506101a0818786030181880152615911858461574d565b945080880151925050506101c061592a81870183613d77565b8601516101e0868101919091529095015193019290925250919050565b8281526040602082015260006121c16040830184614629565b600081600019048311821515161561597a5761597a614fe4565b500290565b818103818111156119ef576119ef614fe4565b81810360008312801583831316838312821617156159b2576159b2614fe4565b5092915050565b808201808211156119ef576119ef614fe456fea2646970667358221220feeffee1a8a3d5a5f410e658d567cb564a8bdb4af1ebc4f90fd756e9623f6b7764736f6c63430008100033",
  "libraries": {
    "GasUtils": "0xf07d407B7f9E7dfe8aab1165962B850E64b54E80",
    "IncreaseOrderUtils": "0x2B170ED1524CA9f05A16A0Cff5554aAB3649Ad69",
    "DecreaseOrderUtils": "0xDFe8FDF6806d5abF9B5a719BD52fE77E42c85E15",
    "SwapOrderUtils": "0x2cCa908A2EC12c5Fd70c73a57caC395Da95d9c6e",
    "OrderUtils": "0x3cea2Dccd5E321b61C16656faDD0d8d0076FB49F",
    "LiquidationUtils": "0x7b4946f6AD3CbEAA6BD541773A5EBB3E734ce034",
    "AdlUtils": "0x9d9c59920CF1c8f2e5435C707f9CE9c41DE76abC"
  },
  "devdoc": {
    "kind": "dev",
    "methods": {},
    "version": 1
  },
  "userdoc": {
    "kind": "user",
    "methods": {},
    "version": 1
  },
  "storageLayout": {
    "storage": [
      {
        "astId": 10,
        "contract": "contracts/exchange/OrderHandler.sol:OrderHandler",
        "label": "_status",
        "offset": 0,
        "slot": "0",
        "type": "t_uint256"
      },
      {
        "astId": 11956,
        "contract": "contracts/exchange/OrderHandler.sol:OrderHandler",
        "label": "gov",
        "offset": 0,
        "slot": "1",
        "type": "t_address"
      }
    ],
    "types": {
      "t_address": {
        "encoding": "inplace",
        "label": "address",
        "numberOfBytes": "20"
      },
      "t_uint256": {
        "encoding": "inplace",
        "label": "uint256",
        "numberOfBytes": "32"
      }
    }
  }
}