{
  "address": "0x846EF0399Ab606800a06BbdF304E2835A96222FE",
  "abi": [
    {
      "inputs": [],
      "name": "ACCEPTABLE_PRICE",
      "outputs": [
        {
          "internalType": "bytes32",
          "name": "",
          "type": "bytes32"
        }
      ],
      "stateMutability": "view",
      "type": "function"
    },
    {
      "inputs": [],
      "name": "ACCOUNT",
      "outputs": [
        {
          "internalType": "bytes32",
          "name": "",
          "type": "bytes32"
        }
      ],
      "stateMutability": "view",
      "type": "function"
    },
    {
      "inputs": [],
      "name": "CALLBACK_CONTRACT",
      "outputs": [
        {
          "internalType": "bytes32",
          "name": "",
          "type": "bytes32"
        }
      ],
      "stateMutability": "view",
      "type": "function"
    },
    {
      "inputs": [],
      "name": "CALLBACK_GAS_LIMIT",
      "outputs": [
        {
          "internalType": "bytes32",
          "name": "",
          "type": "bytes32"
        }
      ],
      "stateMutability": "view",
      "type": "function"
    },
    {
      "inputs": [],
      "name": "DECREASE_POSITION_SWAP_TYPE",
      "outputs": [
        {
          "internalType": "bytes32",
          "name": "",
          "type": "bytes32"
        }
      ],
      "stateMutability": "view",
      "type": "function"
    },
    {
      "inputs": [],
      "name": "EXECUTION_FEE",
      "outputs": [
        {
          "internalType": "bytes32",
          "name": "",
          "type": "bytes32"
        }
      ],
      "stateMutability": "view",
      "type": "function"
    },
    {
      "inputs": [],
      "name": "INITIAL_COLLATERAL_DELTA_AMOUNT",
      "outputs": [
        {
          "internalType": "bytes32",
          "name": "",
          "type": "bytes32"
        }
      ],
      "stateMutability": "view",
      "type": "function"
    },
    {
      "inputs": [],
      "name": "INITIAL_COLLATERAL_TOKEN",
      "outputs": [
        {
          "internalType": "bytes32",
          "name": "",
          "type": "bytes32"
        }
      ],
      "stateMutability": "view",
      "type": "function"
    },
    {
      "inputs": [],
      "name": "IS_FROZEN",
      "outputs": [
        {
          "internalType": "bytes32",
          "name": "",
          "type": "bytes32"
        }
      ],
      "stateMutability": "view",
      "type": "function"
    },
    {
      "inputs": [],
      "name": "IS_LONG",
      "outputs": [
        {
          "internalType": "bytes32",
          "name": "",
          "type": "bytes32"
        }
      ],
      "stateMutability": "view",
      "type": "function"
    },
    {
      "inputs": [],
      "name": "MARKET",
      "outputs": [
        {
          "internalType": "bytes32",
          "name": "",
          "type": "bytes32"
        }
      ],
      "stateMutability": "view",
      "type": "function"
    },
    {
      "inputs": [],
      "name": "MIN_OUTPUT_AMOUNT",
      "outputs": [
        {
          "internalType": "bytes32",
          "name": "",
          "type": "bytes32"
        }
      ],
      "stateMutability": "view",
      "type": "function"
    },
    {
      "inputs": [],
      "name": "ORDER_TYPE",
      "outputs": [
        {
          "internalType": "bytes32",
          "name": "",
          "type": "bytes32"
        }
      ],
      "stateMutability": "view",
      "type": "function"
    },
    {
      "inputs": [],
      "name": "RECEIVER",
      "outputs": [
        {
          "internalType": "bytes32",
          "name": "",
          "type": "bytes32"
        }
      ],
      "stateMutability": "view",
      "type": "function"
    },
    {
      "inputs": [],
      "name": "SHOULD_UNWRAP_NATIVE_TOKEN",
      "outputs": [
        {
          "internalType": "bytes32",
          "name": "",
          "type": "bytes32"
        }
      ],
      "stateMutability": "view",
      "type": "function"
    },
    {
      "inputs": [],
      "name": "SIZE_DELTA_USD",
      "outputs": [
        {
          "internalType": "bytes32",
          "name": "",
          "type": "bytes32"
        }
      ],
      "stateMutability": "view",
      "type": "function"
    },
    {
      "inputs": [],
      "name": "SWAP_PATH",
      "outputs": [
        {
          "internalType": "bytes32",
          "name": "",
          "type": "bytes32"
        }
      ],
      "stateMutability": "view",
      "type": "function"
    },
    {
      "inputs": [],
      "name": "TRIGGER_PRICE",
      "outputs": [
        {
          "internalType": "bytes32",
          "name": "",
          "type": "bytes32"
        }
      ],
      "stateMutability": "view",
      "type": "function"
    },
    {
      "inputs": [],
      "name": "UPDATED_AT_BLOCK",
      "outputs": [
        {
          "internalType": "bytes32",
          "name": "",
          "type": "bytes32"
        }
      ],
      "stateMutability": "view",
      "type": "function"
    },
    {
      "inputs": [
        {
          "internalType": "contract DataStore",
          "name": "dataStore",
          "type": "DataStore"
        },
        {
          "internalType": "bytes32",
          "name": "key",
          "type": "bytes32"
        }
      ],
      "name": "get",
      "outputs": [
        {
          "components": [
            {
              "components": [
                {
                  "internalType": "address",
                  "name": "account",
                  "type": "address"
                },
                {
                  "internalType": "address",
                  "name": "receiver",
                  "type": "address"
                },
                {
                  "internalType": "address",
                  "name": "callbackContract",
                  "type": "address"
                },
                {
                  "internalType": "address",
                  "name": "market",
                  "type": "address"
                },
                {
                  "internalType": "address",
                  "name": "initialCollateralToken",
                  "type": "address"
                },
                {
                  "internalType": "address[]",
                  "name": "swapPath",
                  "type": "address[]"
                }
              ],
              "internalType": "struct Order.Addresses",
              "name": "addresses",
              "type": "tuple"
            },
            {
              "components": [
                {
                  "internalType": "enum Order.OrderType",
                  "name": "orderType",
                  "type": "Order.OrderType"
                },
                {
                  "internalType": "enum Order.DecreasePositionSwapType",
                  "name": "decreasePositionSwapType",
                  "type": "Order.DecreasePositionSwapType"
                },
                {
                  "internalType": "uint256",
                  "name": "sizeDeltaUsd",
                  "type": "uint256"
                },
                {
                  "internalType": "uint256",
                  "name": "initialCollateralDeltaAmount",
                  "type": "uint256"
                },
                {
                  "internalType": "uint256",
                  "name": "triggerPrice",
                  "type": "uint256"
                },
                {
                  "internalType": "uint256",
                  "name": "acceptablePrice",
                  "type": "uint256"
                },
                {
                  "internalType": "uint256",
                  "name": "executionFee",
                  "type": "uint256"
                },
                {
                  "internalType": "uint256",
                  "name": "callbackGasLimit",
                  "type": "uint256"
                },
                {
                  "internalType": "uint256",
                  "name": "minOutputAmount",
                  "type": "uint256"
                },
                {
                  "internalType": "uint256",
                  "name": "updatedAtBlock",
                  "type": "uint256"
                }
              ],
              "internalType": "struct Order.Numbers",
              "name": "numbers",
              "type": "tuple"
            },
            {
              "components": [
                {
                  "internalType": "bool",
                  "name": "isLong",
                  "type": "bool"
                },
                {
                  "internalType": "bool",
                  "name": "shouldUnwrapNativeToken",
                  "type": "bool"
                },
                {
                  "internalType": "bool",
                  "name": "isFrozen",
                  "type": "bool"
                }
              ],
              "internalType": "struct Order.Flags",
              "name": "flags",
              "type": "tuple"
            }
          ],
          "internalType": "struct Order.Props",
          "name": "",
          "type": "tuple"
        }
      ],
      "stateMutability": "view",
      "type": "function"
    }
  ],
  "transactionHash": "0x97b13cfa7b2c33ad4d92680207a8b21dd8e395f783a784456178e8b09f70c8d0",
  "args": [],
  "numDeployments": 1,
  "solcInputHash": "bfcff1dcb3466d4762643d92a17aef63",
  "bytecode": "0x613d9661003a600b82828239805160001a60731461002d57634e487b7160e01b600052600060045260246000fd5b30600052607381538281f3fe730000000000000000000000000000000000000000301460806040526004361061011c5760003560e01c806304a36e20146101215780633332c5be1461013c57806333d608f1146101445780633d59fea51461014c5780634675e8eb1461015457806352bc62571461015c57806360aa7068146101645780636ecd534a1461018657806374b6fe131461018e578063797cb5a2146101ae5780638d5dc584146101b65780638f7f2048146101be57806391cb3e3c146101c6578063a31a6411146101ce578063ad7430cc146101d6578063d1550af3146101de578063d6a3502a146101e6578063e90524f2146101ee578063ea00f333146101f6578063f145e54a146101fe578063f46f16c214610206578063fdfc26f31461020e575b600080fd5b61012961022e565b6040519081526020015b60405180910390f35b610129610256565b610129610265565b610129610274565b610129610283565b610129610292565b81801561017057600080fd5b5061018461017f366004613577565b6102a1565b005b6101296112d0565b81801561019a57600080fd5b506101846101a93660046136ae565b6112df565b610129612094565b6101296120a3565b6101296120b2565b6101296120c1565b6101296120d0565b6101296120df565b6101296120ee565b6101296120fd565b61012961210c565b61012961211b565b61012961212a565b610129612139565b61022161021c3660046136f0565b612148565b6040516101339190613810565b60405160200161023d906138c8565b6040516020818303038152906040528051906020012081565b60405160200161023d906138fc565b60405160200161023d9061391d565b60405160200161023d90613949565b60405160200161023d90613973565b60405160200161023d9061399a565b826001600160a01b031663c80f4c626040516020016102bf906139bd565b60405160208183030381529060405280519060200120846040518363ffffffff1660e01b81526004016102f39291906139e1565b600060405180830381600087803b15801561030d57600080fd5b505af1158015610321573d6000803e3d6000fd5b50505050826001600160a01b031663c80f4c6261034561034084515190565b61313e565b846040518363ffffffff1660e01b81526004016103639291906139e1565b600060405180830381600087803b15801561037d57600080fd5b505af1158015610391573d6000803e3d6000fd5b50505050826001600160a01b031663ca446dd9836040516020016103b4906139ef565b604051602081830303815290604052805190602001206040516020016103db9291906139e1565b604051602081830303815290604052805190602001206103fa84515190565b6040518363ffffffff1660e01b8152600401610417929190613a10565b6020604051808303816000875af1158015610436573d6000803e3d6000fd5b505050506040513d601f19601f8201168201806040525081019061045a9190613a27565b50826001600160a01b031663ca446dd98360405160200161047a90613a44565b604051602081830303815290604052805190602001206040516020016104a19291906139e1565b604051602081830303815290604052805190602001206104c384516020015190565b6040518363ffffffff1660e01b81526004016104e0929190613a10565b6020604051808303816000875af11580156104ff573d6000803e3d6000fd5b505050506040513d601f19601f820116820180604052508101906105239190613a27565b50826001600160a01b031663ca446dd98360405160200161054390613a66565b6040516020818303038152906040528051906020012060405160200161056a9291906139e1565b6040516020818303038152906040528051906020012061058c84516040015190565b6040518363ffffffff1660e01b81526004016105a9929190613a10565b6020604051808303816000875af11580156105c8573d6000803e3d6000fd5b505050506040513d601f19601f820116820180604052508101906105ec9190613a27565b50826001600160a01b031663ca446dd98360405160200161060c90613a91565b604051602081830303815290604052805190602001206040516020016106339291906139e1565b6040516020818303038152906040528051906020012061065584516060015190565b6040518363ffffffff1660e01b8152600401610672929190613a10565b6020604051808303816000875af1158015610691573d6000803e3d6000fd5b505050506040513d601f19601f820116820180604052508101906106b59190613a27565b50826001600160a01b031663ca446dd9836040516020016106d590613ab1565b604051602081830303815290604052805190602001206040516020016106fc9291906139e1565b6040516020818303038152906040528051906020012061071e84516080015190565b6040518363ffffffff1660e01b815260040161073b929190613a10565b6020604051808303816000875af115801561075a573d6000803e3d6000fd5b505050506040513d601f19601f8201168201806040525081019061077e9190613a27565b50826001600160a01b031663ec672cf68360405160200161079e9061399a565b604051602081830303815290604052805190602001206040516020016107c59291906139e1565b604051602081830303815290604052805190602001206107e7845160a0015190565b6040518363ffffffff1660e01b8152600401610804929190613ae3565b600060405180830381600087803b15801561081e57600080fd5b505af1158015610832573d6000803e3d6000fd5b50505050826001600160a01b031663e2a4853a8360405160200161085590613b3a565b6040516020818303038152906040528051906020012060405160200161087c9291906139e1565b6040516020818303038152906040528051906020012061089e84602001515190565b60078111156108af576108af613760565b6040518363ffffffff1660e01b81526004016108cc9291906139e1565b6020604051808303816000875af11580156108eb573d6000803e3d6000fd5b505050506040513d601f19601f8201168201806040525081019061090f9190613b5e565b50826001600160a01b031663e2a4853a8360405160200161092f90613b77565b604051602081830303815290604052805190602001206040516020016109569291906139e1565b6040516020818303038152906040528051906020012061097b84602090810151015190565b600281111561098c5761098c613760565b6040518363ffffffff1660e01b81526004016109a99291906139e1565b6020604051808303816000875af11580156109c8573d6000803e3d6000fd5b505050506040513d601f19601f820116820180604052508101906109ec9190613b5e565b50826001600160a01b031663e2a4853a83604051602001610a0c90613bac565b60405160208183030381529060405280519060200120604051602001610a339291906139e1565b60405160208183030381529060405280519060200120610a5884602001516040015190565b6040518363ffffffff1660e01b8152600401610a759291906139e1565b6020604051808303816000875af1158015610a94573d6000803e3d6000fd5b505050506040513d601f19601f82011682018060405250810190610ab89190613b5e565b50826001600160a01b031663e2a4853a83604051602001610ad890613bd4565b60405160208183030381529060405280519060200120604051602001610aff9291906139e1565b60405160208183030381529060405280519060200120610b2484602001516060015190565b6040518363ffffffff1660e01b8152600401610b419291906139e1565b6020604051808303816000875af1158015610b60573d6000803e3d6000fd5b505050506040513d601f19601f82011682018060405250810190610b849190613b5e565b50826001600160a01b031663e2a4853a83604051602001610ba490613c0b565b60405160208183030381529060405280519060200120604051602001610bcb9291906139e1565b60405160208183030381529060405280519060200120610bf084602001516080015190565b6040518363ffffffff1660e01b8152600401610c0d9291906139e1565b6020604051808303816000875af1158015610c2c573d6000803e3d6000fd5b505050506040513d601f19601f82011682018060405250810190610c509190613b5e565b50826001600160a01b031663e2a4853a83604051602001610c7090613949565b60405160208183030381529060405280519060200120604051602001610c979291906139e1565b60405160208183030381529060405280519060200120610cbc846020015160a0015190565b6040518363ffffffff1660e01b8152600401610cd99291906139e1565b6020604051808303816000875af1158015610cf8573d6000803e3d6000fd5b505050506040513d601f19601f82011682018060405250810190610d1c9190613b5e565b50826001600160a01b031663e2a4853a83604051602001610d3c90613973565b60405160208183030381529060405280519060200120604051602001610d639291906139e1565b60405160208183030381529060405280519060200120610d88846020015160c0015190565b6040518363ffffffff1660e01b8152600401610da59291906139e1565b6020604051808303816000875af1158015610dc4573d6000803e3d6000fd5b505050506040513d601f19601f82011682018060405250810190610de89190613b5e565b50826001600160a01b031663e2a4853a83604051602001610e089061391d565b60405160208183030381529060405280519060200120604051602001610e2f9291906139e1565b60405160208183030381529060405280519060200120610e54846020015160e0015190565b6040518363ffffffff1660e01b8152600401610e719291906139e1565b6020604051808303816000875af1158015610e90573d6000803e3d6000fd5b505050506040513d601f19601f82011682018060405250810190610eb49190613b5e565b50826001600160a01b031663e2a4853a83604051602001610ed490613c32565b60405160208183030381529060405280519060200120604051602001610efb9291906139e1565b60405160208183030381529060405280519060200120610f218460200151610100015190565b6040518363ffffffff1660e01b8152600401610f3e9291906139e1565b6020604051808303816000875af1158015610f5d573d6000803e3d6000fd5b505050506040513d601f19601f82011682018060405250810190610f819190613b5e565b50826001600160a01b031663e2a4853a83604051602001610fa190613c5d565b60405160208183030381529060405280519060200120604051602001610fc89291906139e1565b60405160208183030381529060405280519060200120610fee8460200151610120015190565b6040518363ffffffff1660e01b815260040161100b9291906139e1565b6020604051808303816000875af115801561102a573d6000803e3d6000fd5b505050506040513d601f19601f8201168201806040525081019061104e9190613b5e565b50826001600160a01b031663abfdcced8360405160200161106e906138fc565b604051602081830303815290604052805190602001206040516020016110959291906139e1565b604051602081830303815290604052805190602001206110b784604001515190565b6040516001600160e01b031960e085901b1681526004810192909252151560248201526044016020604051808303816000875af11580156110fc573d6000803e3d6000fd5b505050506040513d601f19601f820116820180604052508101906111209190613c87565b50826001600160a01b031663abfdcced83604051602001611140906138c8565b604051602081830303815290604052805190602001206040516020016111679291906139e1565b6040516020818303038152906040528051906020012061118c84604001516020015190565b6040516001600160e01b031960e085901b1681526004810192909252151560248201526044016020604051808303816000875af11580156111d1573d6000803e3d6000fd5b505050506040513d601f19601f820116820180604052508101906111f59190613c87565b50826001600160a01b031663abfdcced8360405160200161121590613ca4565b6040516020818303038152906040528051906020012060405160200161123c9291906139e1565b6040516020818303038152906040528051906020012061126184604090810151015190565b6040516001600160e01b031960e085901b1681526004810192909252151560248201526044016020604051808303816000875af11580156112a6573d6000803e3d6000fd5b505050506040513d601f19601f820116820180604052508101906112ca9190613c87565b50505050565b60405160200161023d90613bd4565b826001600160a01b0316639921c3cc6040516020016112fd906139bd565b60405160208183030381529060405280519060200120846040518363ffffffff1660e01b81526004016113319291906139e1565b600060405180830381600087803b15801561134b57600080fd5b505af115801561135f573d6000803e3d6000fd5b50505050826001600160a01b0316639921c3cc61137b8361313e565b846040518363ffffffff1660e01b81526004016113999291906139e1565b600060405180830381600087803b1580156113b357600080fd5b505af11580156113c7573d6000803e3d6000fd5b50505050826001600160a01b0316639faf6fb6836040516020016113ea906139ef565b604051602081830303815290604052805190602001206040516020016114119291906139e1565b604051602081830303815290604052805190602001206040518263ffffffff1660e01b815260040161144591815260200190565b600060405180830381600087803b15801561145f57600080fd5b505af1158015611473573d6000803e3d6000fd5b50505050826001600160a01b0316639faf6fb68360405160200161149690613a44565b604051602081830303815290604052805190602001206040516020016114bd9291906139e1565b604051602081830303815290604052805190602001206040518263ffffffff1660e01b81526004016114f191815260200190565b600060405180830381600087803b15801561150b57600080fd5b505af115801561151f573d6000803e3d6000fd5b50505050826001600160a01b0316639faf6fb68360405160200161154290613a66565b604051602081830303815290604052805190602001206040516020016115699291906139e1565b604051602081830303815290604052805190602001206040518263ffffffff1660e01b815260040161159d91815260200190565b600060405180830381600087803b1580156115b757600080fd5b505af11580156115cb573d6000803e3d6000fd5b50505050826001600160a01b0316639faf6fb6836040516020016115ee90613a91565b604051602081830303815290604052805190602001206040516020016116159291906139e1565b604051602081830303815290604052805190602001206040518263ffffffff1660e01b815260040161164991815260200190565b600060405180830381600087803b15801561166357600080fd5b505af1158015611677573d6000803e3d6000fd5b50505050826001600160a01b0316639faf6fb68360405160200161169a90613ab1565b604051602081830303815290604052805190602001206040516020016116c19291906139e1565b604051602081830303815290604052805190602001206040518263ffffffff1660e01b81526004016116f591815260200190565b600060405180830381600087803b15801561170f57600080fd5b505af1158015611723573d6000803e3d6000fd5b50505050826001600160a01b031663c1dc9182836040516020016117469061399a565b6040516020818303038152906040528051906020012060405160200161176d9291906139e1565b604051602081830303815290604052805190602001206040518263ffffffff1660e01b81526004016117a191815260200190565b600060405180830381600087803b1580156117bb57600080fd5b505af11580156117cf573d6000803e3d6000fd5b50505050826001600160a01b03166342c3bd96836040516020016117f290613b3a565b604051602081830303815290604052805190602001206040516020016118199291906139e1565b604051602081830303815290604052805190602001206040518263ffffffff1660e01b815260040161184d91815260200190565b600060405180830381600087803b15801561186757600080fd5b505af115801561187b573d6000803e3d6000fd5b50505050826001600160a01b03166342c3bd968360405160200161189e90613b77565b604051602081830303815290604052805190602001206040516020016118c59291906139e1565b604051602081830303815290604052805190602001206040518263ffffffff1660e01b81526004016118f991815260200190565b600060405180830381600087803b15801561191357600080fd5b505af1158015611927573d6000803e3d6000fd5b50505050826001600160a01b03166342c3bd968360405160200161194a90613bac565b604051602081830303815290604052805190602001206040516020016119719291906139e1565b604051602081830303815290604052805190602001206040518263ffffffff1660e01b81526004016119a591815260200190565b600060405180830381600087803b1580156119bf57600080fd5b505af11580156119d3573d6000803e3d6000fd5b50505050826001600160a01b03166342c3bd96836040516020016119f690613bd4565b60405160208183030381529060405280519060200120604051602001611a1d9291906139e1565b604051602081830303815290604052805190602001206040518263ffffffff1660e01b8152600401611a5191815260200190565b600060405180830381600087803b158015611a6b57600080fd5b505af1158015611a7f573d6000803e3d6000fd5b50505050826001600160a01b03166342c3bd9683604051602001611aa290613c0b565b60405160208183030381529060405280519060200120604051602001611ac99291906139e1565b604051602081830303815290604052805190602001206040518263ffffffff1660e01b8152600401611afd91815260200190565b600060405180830381600087803b158015611b1757600080fd5b505af1158015611b2b573d6000803e3d6000fd5b50505050826001600160a01b03166342c3bd9683604051602001611b4e90613949565b60405160208183030381529060405280519060200120604051602001611b759291906139e1565b604051602081830303815290604052805190602001206040518263ffffffff1660e01b8152600401611ba991815260200190565b600060405180830381600087803b158015611bc357600080fd5b505af1158015611bd7573d6000803e3d6000fd5b50505050826001600160a01b03166342c3bd9683604051602001611bfa90613973565b60405160208183030381529060405280519060200120604051602001611c219291906139e1565b604051602081830303815290604052805190602001206040518263ffffffff1660e01b8152600401611c5591815260200190565b600060405180830381600087803b158015611c6f57600080fd5b505af1158015611c83573d6000803e3d6000fd5b50505050826001600160a01b03166342c3bd9683604051602001611ca69061391d565b60405160208183030381529060405280519060200120604051602001611ccd9291906139e1565b604051602081830303815290604052805190602001206040518263ffffffff1660e01b8152600401611d0191815260200190565b600060405180830381600087803b158015611d1b57600080fd5b505af1158015611d2f573d6000803e3d6000fd5b50505050826001600160a01b03166342c3bd9683604051602001611d5290613c32565b60405160208183030381529060405280519060200120604051602001611d799291906139e1565b604051602081830303815290604052805190602001206040518263ffffffff1660e01b8152600401611dad91815260200190565b600060405180830381600087803b158015611dc757600080fd5b505af1158015611ddb573d6000803e3d6000fd5b50505050826001600160a01b03166342c3bd9683604051602001611dfe90613c5d565b60405160208183030381529060405280519060200120604051602001611e259291906139e1565b604051602081830303815290604052805190602001206040518263ffffffff1660e01b8152600401611e5991815260200190565b600060405180830381600087803b158015611e7357600080fd5b505af1158015611e87573d6000803e3d6000fd5b50505050826001600160a01b0316639fe7ac1283604051602001611eaa906138fc565b60405160208183030381529060405280519060200120604051602001611ed19291906139e1565b604051602081830303815290604052805190602001206040518263ffffffff1660e01b8152600401611f0591815260200190565b600060405180830381600087803b158015611f1f57600080fd5b505af1158015611f33573d6000803e3d6000fd5b50505050826001600160a01b0316639fe7ac1283604051602001611f56906138c8565b60405160208183030381529060405280519060200120604051602001611f7d9291906139e1565b604051602081830303815290604052805190602001206040518263ffffffff1660e01b8152600401611fb191815260200190565b600060405180830381600087803b158015611fcb57600080fd5b505af1158015611fdf573d6000803e3d6000fd5b50505050826001600160a01b0316639fe7ac128360405160200161200290613ca4565b604051602081830303815290604052805190602001206040516020016120299291906139e1565b604051602081830303815290604052805190602001206040518263ffffffff1660e01b815260040161205d91815260200190565b600060405180830381600087803b15801561207757600080fd5b505af115801561208b573d6000803e3d6000fd5b50505050505050565b60405160200161023d90613c32565b60405160200161023d90613ab1565b60405160200161023d90613a66565b60405160200161023d90613ca4565b60405160200161023d90613c0b565b60405160200161023d90613a44565b60405160200161023d90613b77565b60405160200161023d90613bac565b60405160200161023d906139ef565b60405160200161023d90613b3a565b60405160200161023d90613c5d565b60405160200161023d90613a91565b612150613218565b612158613218565b836001600160a01b03166391d4403c604051602001612176906139bd565b60405160208183030381529060405280519060200120856040518363ffffffff1660e01b81526004016121aa9291906139e1565b602060405180830381865afa1580156121c7573d6000803e3d6000fd5b505050506040513d601f19601f820116820180604052508101906121eb9190613c87565b6121f6579050613138565b6122c5846001600160a01b03166321f8a72185604051602001612218906139ef565b6040516020818303038152906040528051906020012060405160200161223f9291906139e1565b604051602081830303815290604052805190602001206040518263ffffffff1660e01b815260040161227391815260200190565b602060405180830381865afa158015612290573d6000803e3d6000fd5b505050506040513d601f19601f820116820180604052508101906122b49190613a27565b82516001600160a01b039091169052565b612398846001600160a01b03166321f8a721856040516020016122e790613a44565b6040516020818303038152906040528051906020012060405160200161230e9291906139e1565b604051602081830303815290604052805190602001206040518263ffffffff1660e01b815260040161234291815260200190565b602060405180830381865afa15801561235f573d6000803e3d6000fd5b505050506040513d601f19601f820116820180604052508101906123839190613a27565b82516001600160a01b03909116602090910152565b61246b846001600160a01b03166321f8a721856040516020016123ba90613a66565b604051602081830303815290604052805190602001206040516020016123e19291906139e1565b604051602081830303815290604052805190602001206040518263ffffffff1660e01b815260040161241591815260200190565b602060405180830381865afa158015612432573d6000803e3d6000fd5b505050506040513d601f19601f820116820180604052508101906124569190613a27565b82516001600160a01b03909116604090910152565b61253e846001600160a01b03166321f8a7218560405160200161248d90613a91565b604051602081830303815290604052805190602001206040516020016124b49291906139e1565b604051602081830303815290604052805190602001206040518263ffffffff1660e01b81526004016124e891815260200190565b602060405180830381865afa158015612505573d6000803e3d6000fd5b505050506040513d601f19601f820116820180604052508101906125299190613a27565b82516001600160a01b03909116606090910152565b612611846001600160a01b03166321f8a7218560405160200161256090613ab1565b604051602081830303815290604052805190602001206040516020016125879291906139e1565b604051602081830303815290604052805190602001206040518263ffffffff1660e01b81526004016125bb91815260200190565b602060405180830381865afa1580156125d8573d6000803e3d6000fd5b505050506040513d601f19601f820116820180604052508101906125fc9190613a27565b82516001600160a01b03909116608090910152565b6126db846001600160a01b0316635948f733856040516020016126339061399a565b6040516020818303038152906040528051906020012060405160200161265a9291906139e1565b604051602081830303815290604052805190602001206040518263ffffffff1660e01b815260040161268e91815260200190565b600060405180830381865afa1580156126ab573d6000803e3d6000fd5b505050506040513d6000823e601f3d908101601f191682016040526126d39190810190613cc7565b825160a00152565b6127b1846001600160a01b031663bd02d0f5856040516020016126fd90613b3a565b604051602081830303815290604052805190602001206040516020016127249291906139e1565b604051602081830303815290604052805190602001206040518263ffffffff1660e01b815260040161275891815260200190565b602060405180830381865afa158015612775573d6000803e3d6000fd5b505050506040513d601f19601f820116820180604052508101906127999190613b5e565b60078111156127aa576127aa613760565b82906131bb565b612887846001600160a01b031663bd02d0f5856040516020016127d390613b77565b604051602081830303815290604052805190602001206040516020016127fa9291906139e1565b604051602081830303815290604052805190602001206040518263ffffffff1660e01b815260040161282e91815260200190565b602060405180830381865afa15801561284b573d6000803e3d6000fd5b505050506040513d601f19601f8201168201806040525081019061286f9190613b5e565b600281111561288057612880613760565b82906131ec565b612950846001600160a01b031663bd02d0f5856040516020016128a990613bac565b604051602081830303815290604052805190602001206040516020016128d09291906139e1565b604051602081830303815290604052805190602001206040518263ffffffff1660e01b815260040161290491815260200190565b602060405180830381865afa158015612921573d6000803e3d6000fd5b505050506040513d601f19601f820116820180604052508101906129459190613b5e565b602083015160400152565b612a19846001600160a01b031663bd02d0f58560405160200161297290613bd4565b604051602081830303815290604052805190602001206040516020016129999291906139e1565b604051602081830303815290604052805190602001206040518263ffffffff1660e01b81526004016129cd91815260200190565b602060405180830381865afa1580156129ea573d6000803e3d6000fd5b505050506040513d601f19601f82011682018060405250810190612a0e9190613b5e565b602083015160600152565b612ae2846001600160a01b031663bd02d0f585604051602001612a3b90613c0b565b60405160208183030381529060405280519060200120604051602001612a629291906139e1565b604051602081830303815290604052805190602001206040518263ffffffff1660e01b8152600401612a9691815260200190565b602060405180830381865afa158015612ab3573d6000803e3d6000fd5b505050506040513d601f19601f82011682018060405250810190612ad79190613b5e565b602083015160800152565b612bab846001600160a01b031663bd02d0f585604051602001612b0490613949565b60405160208183030381529060405280519060200120604051602001612b2b9291906139e1565b604051602081830303815290604052805190602001206040518263ffffffff1660e01b8152600401612b5f91815260200190565b602060405180830381865afa158015612b7c573d6000803e3d6000fd5b505050506040513d601f19601f82011682018060405250810190612ba09190613b5e565b602083015160a00152565b612c74846001600160a01b031663bd02d0f585604051602001612bcd90613973565b60405160208183030381529060405280519060200120604051602001612bf49291906139e1565b604051602081830303815290604052805190602001206040518263ffffffff1660e01b8152600401612c2891815260200190565b602060405180830381865afa158015612c45573d6000803e3d6000fd5b505050506040513d601f19601f82011682018060405250810190612c699190613b5e565b602083015160c00152565b612d3d846001600160a01b031663bd02d0f585604051602001612c969061391d565b60405160208183030381529060405280519060200120604051602001612cbd9291906139e1565b604051602081830303815290604052805190602001206040518263ffffffff1660e01b8152600401612cf191815260200190565b602060405180830381865afa158015612d0e573d6000803e3d6000fd5b505050506040513d601f19601f82011682018060405250810190612d329190613b5e565b602083015160e00152565b612e07846001600160a01b031663bd02d0f585604051602001612d5f90613c32565b60405160208183030381529060405280519060200120604051602001612d869291906139e1565b604051602081830303815290604052805190602001206040518263ffffffff1660e01b8152600401612dba91815260200190565b602060405180830381865afa158015612dd7573d6000803e3d6000fd5b505050506040513d601f19601f82011682018060405250810190612dfb9190613b5e565b60208301516101000152565b612ed1846001600160a01b031663bd02d0f585604051602001612e2990613c5d565b60405160208183030381529060405280519060200120604051602001612e509291906139e1565b604051602081830303815290604052805190602001206040518263ffffffff1660e01b8152600401612e8491815260200190565b602060405180830381865afa158015612ea1573d6000803e3d6000fd5b505050506040513d601f19601f82011682018060405250810190612ec59190613b5e565b60208301516101200152565b612f9b846001600160a01b0316637ae1cfca85604051602001612ef3906138fc565b60405160208183030381529060405280519060200120604051602001612f1a9291906139e1565b604051602081830303815290604052805190602001206040518263ffffffff1660e01b8152600401612f4e91815260200190565b602060405180830381865afa158015612f6b573d6000803e3d6000fd5b505050506040513d601f19601f82011682018060405250810190612f8f9190613c87565b60408301519015159052565b613069846001600160a01b0316637ae1cfca85604051602001612fbd906138c8565b60405160208183030381529060405280519060200120604051602001612fe49291906139e1565b604051602081830303815290604052805190602001206040518263ffffffff1660e01b815260040161301891815260200190565b602060405180830381865afa158015613035573d6000803e3d6000fd5b505050506040513d601f19601f820116820180604052508101906130599190613c87565b6040830151901515602090910152565b613135846001600160a01b0316637ae1cfca8560405160200161308b90613ca4565b604051602081830303815290604052805190602001206040516020016130b29291906139e1565b604051602081830303815290604052805190602001206040518263ffffffff1660e01b81526004016130e691815260200190565b602060405180830381865afa158015613103573d6000803e3d6000fd5b505050506040513d601f19601f820116820180604052508101906131279190613c87565b604080840151911515910152565b90505b92915050565b6000604051602001613176906020808252601290820152711050d0d3d5539517d3d491115497d31254d560721b604082015260600190565b604051602081830303815290604052805190602001208260405160200161319e929190613a10565b604051602081830303815290604052805190602001209050919050565b60208201518160078111156131d2576131d2613760565b908160078111156131e5576131e5613760565b9052505050565b6020808301510181600281111561320557613205613760565b908160028111156131e5576131e5613760565b604080516101208101909152600060608083018281526080840183905260a0840183905260c0840183905260e08401929092526101008301528152602081016132ae60408051610140810190915280600081526020016000815260200160008152602001600081526020016000815260200160008152602001600081526020016000815260200160008152602001600081525090565b815260408051606081018252600080825260208281018290529282015291015290565b6001600160a01b03811681146132e657600080fd5b50565b634e487b7160e01b600052604160045260246000fd5b60405161014081016001600160401b0381118282101715613322576133226132e9565b60405290565b604051606081016001600160401b0381118282101715613322576133226132e9565b60405160c081016001600160401b0381118282101715613322576133226132e9565b604051601f8201601f191681016001600160401b0381118282101715613394576133946132e9565b604052919050565b80356133a7816132d1565b919050565b60006001600160401b038211156133c5576133c56132e9565b5060051b60200190565b600082601f8301126133e057600080fd5b813560206133f56133f0836133ac565b61336c565b82815260059290921b8401810191818101908684111561341457600080fd5b8286015b8481101561343857803561342b816132d1565b8352918301918301613418565b509695505050505050565b8035600881106133a757600080fd5b8035600381106133a757600080fd5b6000610140828403121561347457600080fd5b61347c6132ff565b905061348782613443565b815261349560208301613452565b602082015260408201356040820152606082013560608201526080820135608082015260a082013560a082015260c082013560c082015260e082013560e082015261010080830135818301525061012080830135818301525092915050565b80151581146132e657600080fd5b60006060828403121561351457600080fd5b604051606081016001600160401b0381118282101715613536576135366132e9565b6040529050808235613547816134f4565b81526020830135613557816134f4565b6020820152604083013561356a816134f4565b6040919091015292915050565b60008060006060848603121561358c57600080fd5b8335613597816132d1565b92506020840135915060408401356001600160401b03808211156135ba57600080fd5b908501906101c082880312156135cf57600080fd5b6135d7613328565b8235828111156135e657600080fd5b830160c0818a0312156135f857600080fd5b61360061334a565b813561360b816132d1565b8152602082013561361b816132d1565b6020820152604082013561362e816132d1565b604082015261363f6060830161339c565b60608201526136506080830161339c565b608082015260a08201358481111561366757600080fd5b6136738b8285016133cf565b60a0830152508252506136898860208501613461565b602082015261369c886101608501613502565b60408201528093505050509250925092565b6000806000606084860312156136c357600080fd5b83356136ce816132d1565b92506020840135915060408401356136e5816132d1565b809150509250925092565b6000806040838503121561370357600080fd5b823561370e816132d1565b946020939093013593505050565b600081518084526020808501945080840160005b838110156137555781516001600160a01b031687529582019590820190600101613730565b509495945050505050565b634e487b7160e01b600052602160045260246000fd5b6008811061378657613786613760565b9052565b6003811061378657613786613760565b6137a5828251613776565b60208101516137b7602084018261378a565b5060408101516040830152606081015160608301526080810151608083015260a081015160a083015260c081015160c083015260e081015160e08301526101008082015181840152506101208082015181840152505050565b602080825282516101c08383015280516001600160a01b039081166101e08501529181015182166102008401526040810151821661022084015260608101518216610240840152608081015190911661026083015260a0015160c06102808301526000906138826102a084018261371c565b90506020840151613896604085018261379a565b5060408481015180511515610180860152602081015115156101a08601529081015115156101c0850152509392505050565b6020808252601a908201527929a427aaa6222faaa72ba920a82fa720aa24ab22afaa27a5a2a760311b604082015260600190565b60208082526007908201526649535f4c4f4e4760c81b604082015260600190565b60208082526012908201527110d05313109050d2d7d1d054d7d31253525560721b604082015260600190565b60208082526010908201526f41434345505441424c455f505249434560801b604082015260600190565b6020808252600d908201526c455845435554494f4e5f46454560981b604082015260600190565b6020808252600990820152680a6ae82a0bea082a8960bb1b604082015260600190565b6020808252600a908201526913d491115497d31254d560b21b604082015260600190565b918252602082015260400190565b6020808252600790820152661050d0d3d5539560ca1b604082015260600190565b9182526001600160a01b0316602082015260400190565b600060208284031215613a3957600080fd5b8151613135816132d1565b6020808252600890820152672922a1a2a4ab22a960c11b604082015260600190565b60208082526011908201527010d05313109050d2d7d0d3d395149050d5607a1b604082015260600190565b60208082526006908201526513505492d15560d21b604082015260600190565b60208082526018908201527724a724aa24a0a62fa1a7a62620aa22a920a62faa27a5a2a760411b604082015260600190565b6000604082018483526020604081850152818551808452606086019150828701935060005b81811015613b2d5784516001600160a01b031683529383019391830191600101613b08565b5090979650505050505050565b6020808252600a90820152694f524445525f5459504560b01b604082015260600190565b600060208284031215613b7057600080fd5b5051919050565b6020808252601b908201527a44454352454153455f504f534954494f4e5f535741505f5459504560281b604082015260600190565b6020808252600e908201526d14d2569157d11153151057d554d160921b604082015260600190565b6020808252601f908201527f494e495449414c5f434f4c4c41544552414c5f44454c54415f414d4f554e5400604082015260600190565b6020808252600d908201526c545249474745525f505249434560981b604082015260600190565b60208082526011908201527013525397d3d55514155517d05353d55395607a1b604082015260600190565b60208082526010908201526f555044415445445f41545f424c4f434b60801b604082015260600190565b600060208284031215613c9957600080fd5b8151613135816134f4565b60208082526009908201526824a9afa32927ad22a760b91b604082015260600190565b60006020808385031215613cda57600080fd5b82516001600160401b03811115613cf057600080fd5b8301601f81018513613d0157600080fd5b8051613d0f6133f0826133ac565b81815260059190911b82018301908381019087831115613d2e57600080fd5b928401925b82841015613d55578351613d46816132d1565b82529284019290840190613d33565b97965050505050505056fea264697066735822122050b21851f3ebfc70a6eb9a9269c6b878977b92fa4eadded0a272d1ab0084aa4d64736f6c63430008100033",
  "libraries": {},
  "devdoc": {
    "details": "Library for order storage functions",
    "kind": "dev",
    "methods": {},
    "title": "OrderStoreUtils",
    "version": 1
  },
  "userdoc": {
    "kind": "user",
    "methods": {},
    "version": 1
  },
  "storageLayout": {
    "storage": [],
    "types": null
  }
}