{
  "address": "0x5b63F8b648272600C3F5DED6d7B90529422F33b4",
  "abi": [
    {
      "inputs": [
        {
          "internalType": "contract RoleStore",
          "name": "_roleStore",
          "type": "address"
        }
      ],
      "stateMutability": "nonpayable",
      "type": "constructor"
    },
    {
      "inputs": [
        {
          "internalType": "address",
          "name": "msgSender",
          "type": "address"
        },
        {
          "internalType": "string",
          "name": "role",
          "type": "string"
        }
      ],
      "name": "Unauthorized",
      "type": "error"
    },
    {
      "anonymous": false,
      "inputs": [
        {
          "indexed": false,
          "internalType": "address",
          "name": "prevGov",
          "type": "address"
        },
        {
          "indexed": false,
          "internalType": "address",
          "name": "nextGov",
          "type": "address"
        }
      ],
      "name": "SetGov",
      "type": "event"
    },
    {
      "inputs": [
        {
          "internalType": "bytes32",
          "name": "key",
          "type": "bytes32"
        }
      ],
      "name": "get",
      "outputs": [
        {
          "components": [
            {
              "components": [
                {
                  "internalType": "address",
                  "name": "account",
                  "type": "address"
                },
                {
                  "internalType": "address",
                  "name": "receiver",
                  "type": "address"
                },
                {
                  "internalType": "address",
                  "name": "callbackContract",
                  "type": "address"
                },
                {
                  "internalType": "address",
                  "name": "market",
                  "type": "address"
                },
                {
                  "internalType": "address",
                  "name": "initialCollateralToken",
                  "type": "address"
                },
                {
                  "internalType": "address[]",
                  "name": "swapPath",
                  "type": "address[]"
                }
              ],
              "internalType": "struct Order.Addresses",
              "name": "addresses",
              "type": "tuple"
            },
            {
              "components": [
                {
                  "internalType": "uint256",
                  "name": "sizeDeltaUsd",
                  "type": "uint256"
                },
                {
                  "internalType": "uint256",
                  "name": "initialCollateralDeltaAmount",
                  "type": "uint256"
                },
                {
                  "internalType": "uint256",
                  "name": "triggerPrice",
                  "type": "uint256"
                },
                {
                  "internalType": "uint256",
                  "name": "acceptablePrice",
                  "type": "uint256"
                },
                {
                  "internalType": "uint256",
                  "name": "executionFee",
                  "type": "uint256"
                },
                {
                  "internalType": "uint256",
                  "name": "callbackGasLimit",
                  "type": "uint256"
                },
                {
                  "internalType": "uint256",
                  "name": "minOutputAmount",
                  "type": "uint256"
                },
                {
                  "internalType": "uint256",
                  "name": "updatedAtBlock",
                  "type": "uint256"
                }
              ],
              "internalType": "struct Order.Numbers",
              "name": "numbers",
              "type": "tuple"
            },
            {
              "components": [
                {
                  "internalType": "enum Order.OrderType",
                  "name": "orderType",
                  "type": "uint8"
                },
                {
                  "internalType": "bool",
                  "name": "isLong",
                  "type": "bool"
                },
                {
                  "internalType": "bool",
                  "name": "shouldUnwrapNativeToken",
                  "type": "bool"
                },
                {
                  "internalType": "bool",
                  "name": "isFrozen",
                  "type": "bool"
                }
              ],
              "internalType": "struct Order.Flags",
              "name": "flags",
              "type": "tuple"
            },
            {
              "internalType": "bytes",
              "name": "data",
              "type": "bytes"
            }
          ],
          "internalType": "struct Order.Props",
          "name": "",
          "type": "tuple"
        }
      ],
      "stateMutability": "view",
      "type": "function"
    },
    {
      "inputs": [
        {
          "internalType": "address",
          "name": "account",
          "type": "address"
        }
      ],
      "name": "getAccountOrderCount",
      "outputs": [
        {
          "internalType": "uint256",
          "name": "",
          "type": "uint256"
        }
      ],
      "stateMutability": "view",
      "type": "function"
    },
    {
      "inputs": [
        {
          "internalType": "address",
          "name": "account",
          "type": "address"
        },
        {
          "internalType": "uint256",
          "name": "start",
          "type": "uint256"
        },
        {
          "internalType": "uint256",
          "name": "end",
          "type": "uint256"
        }
      ],
      "name": "getAccountOrderKeys",
      "outputs": [
        {
          "internalType": "bytes32[]",
          "name": "",
          "type": "bytes32[]"
        }
      ],
      "stateMutability": "view",
      "type": "function"
    },
    {
      "inputs": [],
      "name": "getOrderCount",
      "outputs": [
        {
          "internalType": "uint256",
          "name": "",
          "type": "uint256"
        }
      ],
      "stateMutability": "view",
      "type": "function"
    },
    {
      "inputs": [
        {
          "internalType": "uint256",
          "name": "start",
          "type": "uint256"
        },
        {
          "internalType": "uint256",
          "name": "end",
          "type": "uint256"
        }
      ],
      "name": "getOrderKeys",
      "outputs": [
        {
          "internalType": "bytes32[]",
          "name": "",
          "type": "bytes32[]"
        }
      ],
      "stateMutability": "view",
      "type": "function"
    },
    {
      "inputs": [],
      "name": "gov",
      "outputs": [
        {
          "internalType": "address",
          "name": "",
          "type": "address"
        }
      ],
      "stateMutability": "view",
      "type": "function"
    },
    {
      "inputs": [
        {
          "internalType": "bytes32",
          "name": "",
          "type": "bytes32"
        }
      ],
      "name": "orders",
      "outputs": [
        {
          "components": [
            {
              "internalType": "address",
              "name": "account",
              "type": "address"
            },
            {
              "internalType": "address",
              "name": "receiver",
              "type": "address"
            },
            {
              "internalType": "address",
              "name": "callbackContract",
              "type": "address"
            },
            {
              "internalType": "address",
              "name": "market",
              "type": "address"
            },
            {
              "internalType": "address",
              "name": "initialCollateralToken",
              "type": "address"
            },
            {
              "internalType": "address[]",
              "name": "swapPath",
              "type": "address[]"
            }
          ],
          "internalType": "struct Order.Addresses",
          "name": "addresses",
          "type": "tuple"
        },
        {
          "components": [
            {
              "internalType": "uint256",
              "name": "sizeDeltaUsd",
              "type": "uint256"
            },
            {
              "internalType": "uint256",
              "name": "initialCollateralDeltaAmount",
              "type": "uint256"
            },
            {
              "internalType": "uint256",
              "name": "triggerPrice",
              "type": "uint256"
            },
            {
              "internalType": "uint256",
              "name": "acceptablePrice",
              "type": "uint256"
            },
            {
              "internalType": "uint256",
              "name": "executionFee",
              "type": "uint256"
            },
            {
              "internalType": "uint256",
              "name": "callbackGasLimit",
              "type": "uint256"
            },
            {
              "internalType": "uint256",
              "name": "minOutputAmount",
              "type": "uint256"
            },
            {
              "internalType": "uint256",
              "name": "updatedAtBlock",
              "type": "uint256"
            }
          ],
          "internalType": "struct Order.Numbers",
          "name": "numbers",
          "type": "tuple"
        },
        {
          "components": [
            {
              "internalType": "enum Order.OrderType",
              "name": "orderType",
              "type": "uint8"
            },
            {
              "internalType": "bool",
              "name": "isLong",
              "type": "bool"
            },
            {
              "internalType": "bool",
              "name": "shouldUnwrapNativeToken",
              "type": "bool"
            },
            {
              "internalType": "bool",
              "name": "isFrozen",
              "type": "bool"
            }
          ],
          "internalType": "struct Order.Flags",
          "name": "flags",
          "type": "tuple"
        },
        {
          "internalType": "bytes",
          "name": "data",
          "type": "bytes"
        }
      ],
      "stateMutability": "view",
      "type": "function"
    },
    {
      "inputs": [
        {
          "internalType": "address",
          "name": "token",
          "type": "address"
        }
      ],
      "name": "recordTransferIn",
      "outputs": [
        {
          "internalType": "uint256",
          "name": "",
          "type": "uint256"
        }
      ],
      "stateMutability": "nonpayable",
      "type": "function"
    },
    {
      "inputs": [
        {
          "internalType": "address payable",
          "name": "receiver",
          "type": "address"
        },
        {
          "internalType": "uint256",
          "name": "amount",
          "type": "uint256"
        }
      ],
      "name": "recoverWnt",
      "outputs": [],
      "stateMutability": "nonpayable",
      "type": "function"
    },
    {
      "inputs": [
        {
          "internalType": "bytes32",
          "name": "key",
          "type": "bytes32"
        },
        {
          "internalType": "address",
          "name": "account",
          "type": "address"
        }
      ],
      "name": "remove",
      "outputs": [],
      "stateMutability": "nonpayable",
      "type": "function"
    },
    {
      "inputs": [],
      "name": "roleStore",
      "outputs": [
        {
          "internalType": "contract RoleStore",
          "name": "",
          "type": "address"
        }
      ],
      "stateMutability": "view",
      "type": "function"
    },
    {
      "inputs": [
        {
          "internalType": "bytes32",
          "name": "key",
          "type": "bytes32"
        },
        {
          "components": [
            {
              "components": [
                {
                  "internalType": "address",
                  "name": "account",
                  "type": "address"
                },
                {
                  "internalType": "address",
                  "name": "receiver",
                  "type": "address"
                },
                {
                  "internalType": "address",
                  "name": "callbackContract",
                  "type": "address"
                },
                {
                  "internalType": "address",
                  "name": "market",
                  "type": "address"
                },
                {
                  "internalType": "address",
                  "name": "initialCollateralToken",
                  "type": "address"
                },
                {
                  "internalType": "address[]",
                  "name": "swapPath",
                  "type": "address[]"
                }
              ],
              "internalType": "struct Order.Addresses",
              "name": "addresses",
              "type": "tuple"
            },
            {
              "components": [
                {
                  "internalType": "uint256",
                  "name": "sizeDeltaUsd",
                  "type": "uint256"
                },
                {
                  "internalType": "uint256",
                  "name": "initialCollateralDeltaAmount",
                  "type": "uint256"
                },
                {
                  "internalType": "uint256",
                  "name": "triggerPrice",
                  "type": "uint256"
                },
                {
                  "internalType": "uint256",
                  "name": "acceptablePrice",
                  "type": "uint256"
                },
                {
                  "internalType": "uint256",
                  "name": "executionFee",
                  "type": "uint256"
                },
                {
                  "internalType": "uint256",
                  "name": "callbackGasLimit",
                  "type": "uint256"
                },
                {
                  "internalType": "uint256",
                  "name": "minOutputAmount",
                  "type": "uint256"
                },
                {
                  "internalType": "uint256",
                  "name": "updatedAtBlock",
                  "type": "uint256"
                }
              ],
              "internalType": "struct Order.Numbers",
              "name": "numbers",
              "type": "tuple"
            },
            {
              "components": [
                {
                  "internalType": "enum Order.OrderType",
                  "name": "orderType",
                  "type": "uint8"
                },
                {
                  "internalType": "bool",
                  "name": "isLong",
                  "type": "bool"
                },
                {
                  "internalType": "bool",
                  "name": "shouldUnwrapNativeToken",
                  "type": "bool"
                },
                {
                  "internalType": "bool",
                  "name": "isFrozen",
                  "type": "bool"
                }
              ],
              "internalType": "struct Order.Flags",
              "name": "flags",
              "type": "tuple"
            },
            {
              "internalType": "bytes",
              "name": "data",
              "type": "bytes"
            }
          ],
          "internalType": "struct Order.Props",
          "name": "order",
          "type": "tuple"
        }
      ],
      "name": "set",
      "outputs": [],
      "stateMutability": "nonpayable",
      "type": "function"
    },
    {
      "inputs": [
        {
          "internalType": "address",
          "name": "_gov",
          "type": "address"
        }
      ],
      "name": "setGov",
      "outputs": [],
      "stateMutability": "nonpayable",
      "type": "function"
    },
    {
      "inputs": [
        {
          "internalType": "address",
          "name": "",
          "type": "address"
        }
      ],
      "name": "tokenBalances",
      "outputs": [
        {
          "internalType": "uint256",
          "name": "",
          "type": "uint256"
        }
      ],
      "stateMutability": "view",
      "type": "function"
    },
    {
      "inputs": [
        {
          "internalType": "address",
          "name": "token",
          "type": "address"
        },
        {
          "internalType": "uint256",
          "name": "amount",
          "type": "uint256"
        },
        {
          "internalType": "address",
          "name": "receiver",
          "type": "address"
        }
      ],
      "name": "transferOut",
      "outputs": [],
      "stateMutability": "nonpayable",
      "type": "function"
    },
    {
      "inputs": [
        {
          "internalType": "address",
          "name": "wnt",
          "type": "address"
        },
        {
          "internalType": "address",
          "name": "token",
          "type": "address"
        },
        {
          "internalType": "uint256",
          "name": "amount",
          "type": "uint256"
        },
        {
          "internalType": "address",
          "name": "receiver",
          "type": "address"
        },
        {
          "internalType": "bool",
          "name": "shouldUnwrapNativeToken",
          "type": "bool"
        }
      ],
      "name": "transferOut",
      "outputs": [],
      "stateMutability": "nonpayable",
      "type": "function"
    },
    {
      "stateMutability": "payable",
      "type": "receive"
    }
  ],
  "transactionHash": "0x12158a05f53be8d642a8454862f0a0aad64b082f20042df10e1dce57cae37bf4",
  "args": [
    "0xFc371E380262536c819D12B9569106bf032cC41c"
  ],
  "numDeployments": 1,
  "solcInputHash": "635dda53de9b7a48407bbc874989be1e",
  "bytecode": "0x60a06040523480156200001157600080fd5b5060405162002208380380620022088339810160408190526200003491620000bb565b8080808062000043336200005a565b6001600160a01b031660805250620000ed92505050565b600080546001600160a01b038381166001600160a01b031983168117909355604080519190921680825260208201939093527f53351836099c03ffc3b1727d8abd4b0222afa87d4ed76ae3102d51369ef7f785910160405180910390a15050565b600060208284031215620000ce57600080fd5b81516001600160a01b0381168114620000e657600080fd5b9392505050565b6080516120f8620001106000396000818161018b0152610c9a01526120f86000f3fe6080604052600436106100c75760003560e01c806312d43a51146100d35780632874528e146101095780632d891fba1461012b578063352f9aed1461014b5780634a4a7b0414610179578063523fba7f146101ad5780636e343b2f146101da5780638d0a5fbb146102075780638eaa6ac01461021c5780639227bac4146102495780639c3f1e9014610269578063c5d9eb4814610299578063cfad57a2146102b9578063e04b68ad146102d9578063f5f3ac5d146102f9578063f94989381461031957600080fd5b366100ce57005b600080fd5b3480156100df57600080fd5b506000546100f3906001600160a01b031681565b60405161010091906115ff565b60405180910390f35b34801561011557600080fd5b50610129610124366004611633565b610339565b005b34801561013757600080fd5b50610129610146366004611663565b610470565b34801561015757600080fd5b5061016b6101663660046116a5565b61048d565b604051908152602001610100565b34801561018557600080fd5b506100f37f000000000000000000000000000000000000000000000000000000000000000081565b3480156101b957600080fd5b5061016b6101c83660046116a5565b60016020526000908152604090205481565b3480156101e657600080fd5b506101fa6101f53660046116c2565b6104b2565b60405161010091906116f7565b34801561021357600080fd5b5061016b6104e2565b34801561022857600080fd5b5061023c61023736600461173b565b6104f3565b60405161010091906118e2565b34801561025557600080fd5b506101fa61026436600461194e565b61074b565b34801561027557600080fd5b5061028961028436600461173b565b610762565b6040516101009493929190611970565b3480156102a557600080fd5b5061016b6102b43660046116a5565b610980565b3480156102c557600080fd5b506101296102d43660046116a5565b6109a1565b3480156102e557600080fd5b506101296102f4366004611c39565b6109fb565b34801561030557600080fd5b50610129610314366004611d83565b610be4565b34801561032557600080fd5b50610129610334366004611daf565b610c2c565b61038960405160200161034b90611e17565b604051602081830303815290604052805190602001206040518060400160405280600a81526020016921a7a72a2927a62622a960b11b815250610c83565b6000828152600260208190526040822080546001600160a01b0319908116825560018201805482169055918101805483169055600381018054831690556004810180549092169091559081816103e2600583018261146f565b5050600060068301819055600783018190556008830181905560098301819055600a8301819055600b8301819055600c8301819055600d8301819055600e8301805463ffffffff1916905561043b90600f84019061148d565b50506001600160a01b038116600090815260056020526040902061045f9083610d37565b5061046b600383610d37565b505050565b61048260405160200161034b90611e17565b61046b838383610d43565b60006104a160405160200161034b90611e17565b6104aa82610d88565b90505b919050565b6001600160a01b03831660009081526005602052604090206060906104d8908484610e39565b90505b9392505050565b60006104ee6003610ef9565b905090565b6104fb6114c7565b60008281526002602081815260409283902083516101408101855281546001600160a01b03908116608083019081526001840154821660a084015294830154811660c08301526003830154811660e08301526004830154166101008201526005820180548651818602810186019097528087529195929486949093869361012087019391928301828280156105b957602002820191906000526020600020905b81546001600160a01b0316815260019091019060200180831161059b575b50505050508152505081526020016006820160405180610100016040529081600082015481526020016001820154815260200160028201548152602001600382015481526020016004820154815260200160058201548152602001600682015481526020016007820154815250508152602001600e82016040518060800160405290816000820160009054906101000a900460ff16600781111561065f5761065f611835565b600781111561067057610670611835565b8152905460ff6101008204811615156020808501919091526201000083048216151560408501526301000000909204161515606090920191909152908252600f8301805492909101916106c290611e3b565b80601f01602080910402602001604051908101604052809291908181526020018280546106ee90611e3b565b801561073b5780601f106107105761010080835404028352916020019161073b565b820191906000526020600020905b81548152906001019060200180831161071e57829003601f168201915b5050505050815250509050919050565b606061075960038484610e39565b90505b92915050565b600260208181526000928352604092839020835160c08101855281546001600160a01b039081168252600183015481168285015293820154841681860152600382015484166060820152600482015490931660808401526005810180548551818502810185019096528086529194859360a08601939192919083018282801561081457602002820191906000526020600020905b81546001600160a01b031681526001909101906020018083116107f6575b505050919092525050604080516101008101825260068501548152600780860154602083015260088601548284015260098601546060830152600a860154608080840191909152600b87015460a0840152600c87015460c0840152600d87015460e08401528351908101909352600e860180549596929592945091839160ff909116908111156108a6576108a6611835565b60078111156108b7576108b7611835565b8152905460ff61010082048116151560208401526201000082048116151560408401526301000000909104161515606090910152600f820180549192916108fd90611e3b565b80601f016020809104026020016040519081016040528092919081815260200182805461092990611e3b565b80156109765780601f1061094b57610100808354040283529160200191610976565b820191906000526020600020905b81548152906001019060200180831161095957829003601f168201915b5050505050905084565b6001600160a01b03811660009081526005602052604081206104aa90610ef9565b6000546001600160a01b031633146109ef576040805163a35b150b60e01b81523360048201526024810191909152600360448201526223a7ab60e91b60648201526084015b60405180910390fd5b6109f881610f03565b50565b610a0d60405160200161034b90611e17565b6000828152600260208181526040928390208451805182546001600160a01b03199081166001600160a01b0392831617845582850151600185018054831691841691909117905595820151948301805487169582169590951790945560608101516003830180548716918616919091179055608081015160048301805490961694169390931790935560a08201518051859493928492610ab69260058501929190910190611585565b50505060208281015180516006840155908101516007808401919091556040808301516008850155606083015160098501556080830151600a85015560a0830151600b85015560c0830151600c85015560e090920151600d840155908301518051600e8401805492939092839160ff19909116906001908490811115610b3e57610b3e611835565b0217905550602082015181546040840151606094850151151563010000000263ff00000019911515620100000262ff000019941515610100029490941662ffff0019909316929092179290921791909116179055820151600f820190610ba49082611ec3565b50905050610bd88260056000610bb985515190565b6001600160a01b03168152602081019190915260400160002090610f64565b5061046b600383610f64565b610bf660405160200161034b90611e17565b6040516001600160a01b0383169082156108fc029083906000818181858888f1935050505015801561046b573d6000803e3d6000fd5b610c3e60405160200161034b90611e17565b846001600160a01b0316846001600160a01b0316148015610c5c5750805b15610c7157610c6c848484610f70565b610c7c565b610c7c848484610d43565b5050505050565b60405163ac4ab3fb60e01b81526001600160a01b037f0000000000000000000000000000000000000000000000000000000000000000169063ac4ab3fb90610cd19033908690600401611f82565b602060405180830381865afa158015610cee573d6000803e3d6000fd5b505050506040513d601f19601f82011682018060405250810190610d129190611f9b565b610d3357338160405163a35b150b60e01b81526004016109e6929190611fb8565b5050565b60006107598383611032565b306001600160a01b03821603610d6b5760405162461bcd60e51b81526004016109e690611fdc565b610d7f6001600160a01b0384168284611125565b61046b8361117b565b6001600160a01b0381166000818152600160205260408082205490516370a0823160e01b8152919290918391906370a0823190610dc99030906004016115ff565b602060405180830381865afa158015610de6573d6000803e3d6000fd5b505050506040513d601f19601f82011682018060405250810190610e0a919061200c565b6001600160a01b03851660009081526001602052604090208190559050610e31828261203b565b949350505050565b60606000610e4685610ef9565b905080831115610e54578092505b6000610e60858561203b565b6001600160401b03811115610e7757610e776119b4565b604051908082528060200260200182016040528015610ea0578160200160208202803683370190505b509050845b84811015610eef57610eb78782611204565b82610ec2888461203b565b81518110610ed257610ed261204e565b602090810291909101015280610ee781612064565b915050610ea5565b5095945050505050565b60006104aa825490565b600080546001600160a01b038381166001600160a01b031983168117909355604080519190921680825260208201939093527f53351836099c03ffc3b1727d8abd4b0222afa87d4ed76ae3102d51369ef7f785910160405180910390a15050565b60006107598383611210565b306001600160a01b03821603610f985760405162461bcd60e51b81526004016109e690611fdc565b604051632e1a7d4d60e01b8152600481018390526001600160a01b03841690632e1a7d4d90602401600060405180830381600087803b158015610fda57600080fd5b505af1158015610fee573d6000803e3d6000fd5b50506040516001600160a01b038416925084156108fc02915084906000818181858888f19350505050158015611028573d6000803e3d6000fd5b5061046b8361117b565b6000818152600183016020526040812054801561111b57600061105660018361203b565b855490915060009061106a9060019061203b565b90508181146110cf57600086600001828154811061108a5761108a61204e565b90600052602060002001549050808760000184815481106110ad576110ad61204e565b6000918252602080832090910192909255918252600188019052604090208390555b85548690806110e0576110e061207d565b60019003818190600052602060002001600090559055856001016000868152602001908152602001600020600090556001935050505061075c565b600091505061075c565b61046b8363a9059cbb60e01b8484604051602401611144929190611f82565b60408051601f198184030181529190526020810180516001600160e01b03166001600160e01b03199093169290921790915261125f565b6040516370a0823160e01b81526001600160a01b038216906370a08231906111a79030906004016115ff565b602060405180830381865afa1580156111c4573d6000803e3d6000fd5b505050506040513d601f19601f820116820180604052508101906111e8919061200c565b6001600160a01b03909116600090815260016020526040902055565b60006107598383611331565b60008181526001830160205260408120546112575750815460018181018455600084815260208082209093018490558454848252828601909352604090209190915561075c565b50600061075c565b60006112b4826040518060400160405280602081526020017f5361666545524332303a206c6f772d6c6576656c2063616c6c206661696c6564815250856001600160a01b031661135b9092919063ffffffff16565b80519091501561046b57808060200190518101906112d29190611f9b565b61046b5760405162461bcd60e51b815260206004820152602a60248201527f5361666545524332303a204552433230206f7065726174696f6e20646964206e6044820152691bdd081cdd58d8d9595960b21b60648201526084016109e6565b60008260000182815481106113485761134861204e565b9060005260206000200154905092915050565b60606104d88484600085856001600160a01b0385163b6113bd5760405162461bcd60e51b815260206004820152601d60248201527f416464726573733a2063616c6c20746f206e6f6e2d636f6e747261637400000060448201526064016109e6565b600080866001600160a01b031685876040516113d99190612093565b60006040518083038185875af1925050503d8060008114611416576040519150601f19603f3d011682016040523d82523d6000602084013e61141b565b606091505b509150915061142b828286611436565b979650505050505050565b606083156114455750816104db565b8251156114555782518084602001fd5b8160405162461bcd60e51b81526004016109e691906120af565b50805460008255906000526020600020908101906109f891906115ea565b50805461149990611e3b565b6000825580601f106114a9575050565b601f0160209004906000526020600020908101906109f891906115ea565b60408051610140810190915260006080820181815260a0830182905260c0830182905260e0830182905261010083019190915260606101208301528190815260200161155160405180610100016040528060008152602001600081526020016000815260200160008152602001600081526020016000815260200160008152602001600081525090565b8152604080516080810182526000808252602082810182905292820181905260608201529101908152602001606081525090565b8280548282559060005260206000209081019282156115da579160200282015b828111156115da57825182546001600160a01b0319166001600160a01b039091161782556020909201916001909101906115a5565b506115e69291506115ea565b5090565b5b808211156115e657600081556001016115eb565b6001600160a01b0391909116815260200190565b6001600160a01b03811681146109f857600080fd5b80356104ad81611613565b6000806040838503121561164657600080fd5b82359150602083013561165881611613565b809150509250929050565b60008060006060848603121561167857600080fd5b833561168381611613565b925060208401359150604084013561169a81611613565b809150509250925092565b6000602082840312156116b757600080fd5b81356104db81611613565b6000806000606084860312156116d757600080fd5b83356116e281611613565b95602085013595506040909401359392505050565b6020808252825182820181905260009190848201906040850190845b8181101561172f57835183529284019291840191600101611713565b50909695505050505050565b60006020828403121561174d57600080fd5b5035919050565b600060c0830160018060a01b0380845116855260208181860151168187015281604086015116604087015281606086015116606087015281608086015116608087015260a085015160c060a088015283815180865260e0890191508383019550600092505b808310156117db578551851682529483019460019290920191908301906117b9565b50979650505050505050565b805182526020810151602083015260408101516040830152606081015160608301526080810151608083015260a081015160a083015260c081015160c083015260e081015160e08301525050565b634e487b7160e01b600052602160045260246000fd5b80516008811061186b57634e487b7160e01b600052602160045260246000fd5b82526020818101511515908301526040808201511515908301526060908101511515910152565b60005b838110156118ad578181015183820152602001611895565b50506000910152565b600081518084526118ce816020860160208601611892565b601f01601f19169290920160200192915050565b60208152600082516101c08060208501526119016101e0850183611754565b9150602085015161191560408601826117e7565b50604085015161192961014086018261184b565b506060850151848303601f19018286015261194483826118b6565b9695505050505050565b6000806040838503121561196157600080fd5b50508035926020909101359150565b60006101c080835261198481840188611754565b905061199360208401876117e7565b6119a161012084018661184b565b8281036101a084015261142b81856118b6565b634e487b7160e01b600052604160045260246000fd5b604051608081016001600160401b03811182821017156119ec576119ec6119b4565b60405290565b60405160c081016001600160401b03811182821017156119ec576119ec6119b4565b604051601f8201601f191681016001600160401b0381118282101715611a3c57611a3c6119b4565b604052919050565b600082601f830112611a5557600080fd5b813560206001600160401b03821115611a7057611a706119b4565b8160051b611a7f828201611a14565b9283528481018201928281019087851115611a9957600080fd5b83870192505b8483101561142b578235611ab281611613565b82529183019190830190611a9f565b6000610100808385031215611ad557600080fd5b604051908101906001600160401b0382118183101715611af757611af76119b4565b81604052809250833581526020840135602082015260408401356040820152606084013560608201526080840135608082015260a084013560a082015260c084013560c082015260e084013560e0820152505092915050565b80151581146109f857600080fd5b600060808284031215611b7057600080fd5b611b786119ca565b9050813560088110611b8957600080fd5b81526020820135611b9981611b50565b60208201526040820135611bac81611b50565b60408201526060820135611bbf81611b50565b606082015292915050565b600082601f830112611bdb57600080fd5b81356001600160401b03811115611bf457611bf46119b4565b611c07601f8201601f1916602001611a14565b818152846020838601011115611c1c57600080fd5b816020850160208301376000918101602001919091529392505050565b60008060408385031215611c4c57600080fd5b8235915060208301356001600160401b0380821115611c6a57600080fd5b908401906101c08287031215611c7f57600080fd5b611c876119ca565b823582811115611c9657600080fd5b830160c08189031215611ca857600080fd5b611cb06119f2565b8135611cbb81611613565b81526020820135611ccb81611613565b60208201526040820135611cde81611613565b6040820152611cef60608301611628565b6060820152611d0060808301611628565b608082015260a082013584811115611d1757600080fd5b611d238a828501611a44565b60a083015250825250611d398760208501611ac1565b6020820152611d4c876101208501611b5e565b60408201526101a083013582811115611d6457600080fd5b611d7088828601611bca565b6060830152508093505050509250929050565b60008060408385031215611d9657600080fd5b8235611da181611613565b946020939093013593505050565b600080600080600060a08688031215611dc757600080fd5b8535611dd281611613565b94506020860135611de281611613565b9350604086013592506060860135611df981611613565b91506080860135611e0981611b50565b809150509295509295909350565b6020808252600a908201526921a7a72a2927a62622a960b11b604082015260600190565b600181811c90821680611e4f57607f821691505b602082108103611e6f57634e487b7160e01b600052602260045260246000fd5b50919050565b601f82111561046b57600081815260208120601f850160051c81016020861015611e9c5750805b601f850160051c820191505b81811015611ebb57828155600101611ea8565b505050505050565b81516001600160401b03811115611edc57611edc6119b4565b611ef081611eea8454611e3b565b84611e75565b602080601f831160018114611f255760008415611f0d5750858301515b600019600386901b1c1916600185901b178555611ebb565b600085815260208120601f198616915b82811015611f5457888601518255948401946001909101908401611f35565b5085821015611f725787850151600019600388901b60f8161c191681555b5050505050600190811b01905550565b6001600160a01b03929092168252602082015260400190565b600060208284031215611fad57600080fd5b81516104db81611b50565b6001600160a01b03831681526040602082018190526000906104d8908301846118b6565b6020808252601690820152752130b7359d1034b73b30b634b2103932b1b2b4bb32b960511b604082015260600190565b60006020828403121561201e57600080fd5b5051919050565b634e487b7160e01b600052601160045260246000fd5b8181038181111561075c5761075c612025565b634e487b7160e01b600052603260045260246000fd5b60006001820161207657612076612025565b5060010190565b634e487b7160e01b600052603160045260246000fd5b600082516120a5818460208701611892565b9190910192915050565b60208152600061075960208301846118b656fea2646970667358221220d48cc03ff318954a087b61bf930d69897c69de7c71a174dbef9736cd9248f81164736f6c63430008100033",
  "devdoc": {
    "kind": "dev",
    "methods": {},
    "version": 1
  },
  "userdoc": {
    "kind": "user",
    "methods": {},
    "version": 1
  },
  "storageLayout": {
    "storage": [
      {
        "astId": 12130,
        "contract": "contracts/order/OrderStore.sol:OrderStore",
        "label": "gov",
        "offset": 0,
        "slot": "0",
        "type": "t_address"
      },
      {
        "astId": 5254,
        "contract": "contracts/order/OrderStore.sol:OrderStore",
        "label": "tokenBalances",
        "offset": 0,
        "slot": "1",
        "type": "t_mapping(t_address,t_uint256)"
      },
      {
        "astId": 20060,
        "contract": "contracts/order/OrderStore.sol:OrderStore",
        "label": "orders",
        "offset": 0,
        "slot": "2",
        "type": "t_mapping(t_bytes32,t_struct(Props)18851_storage)"
      },
      {
        "astId": 20063,
        "contract": "contracts/order/OrderStore.sol:OrderStore",
        "label": "orderKeys",
        "offset": 0,
        "slot": "3",
        "type": "t_struct(Bytes32Set)4192_storage"
      },
      {
        "astId": 20068,
        "contract": "contracts/order/OrderStore.sol:OrderStore",
        "label": "accountOrderKeys",
        "offset": 0,
        "slot": "5",
        "type": "t_mapping(t_address,t_struct(Bytes32Set)4192_storage)"
      }
    ],
    "types": {
      "t_address": {
        "encoding": "inplace",
        "label": "address",
        "numberOfBytes": "20"
      },
      "t_array(t_address)dyn_storage": {
        "base": "t_address",
        "encoding": "dynamic_array",
        "label": "address[]",
        "numberOfBytes": "32"
      },
      "t_array(t_bytes32)dyn_storage": {
        "base": "t_bytes32",
        "encoding": "dynamic_array",
        "label": "bytes32[]",
        "numberOfBytes": "32"
      },
      "t_bool": {
        "encoding": "inplace",
        "label": "bool",
        "numberOfBytes": "1"
      },
      "t_bytes32": {
        "encoding": "inplace",
        "label": "bytes32",
        "numberOfBytes": "32"
      },
      "t_bytes_storage": {
        "encoding": "bytes",
        "label": "bytes",
        "numberOfBytes": "32"
      },
      "t_enum(OrderType)18798": {
        "encoding": "inplace",
        "label": "enum Order.OrderType",
        "numberOfBytes": "1"
      },
      "t_mapping(t_address,t_struct(Bytes32Set)4192_storage)": {
        "encoding": "mapping",
        "key": "t_address",
        "label": "mapping(address => struct EnumerableSet.Bytes32Set)",
        "numberOfBytes": "32",
        "value": "t_struct(Bytes32Set)4192_storage"
      },
      "t_mapping(t_address,t_uint256)": {
        "encoding": "mapping",
        "key": "t_address",
        "label": "mapping(address => uint256)",
        "numberOfBytes": "32",
        "value": "t_uint256"
      },
      "t_mapping(t_bytes32,t_struct(Props)18851_storage)": {
        "encoding": "mapping",
        "key": "t_bytes32",
        "label": "mapping(bytes32 => struct Order.Props)",
        "numberOfBytes": "32",
        "value": "t_struct(Props)18851_storage"
      },
      "t_mapping(t_bytes32,t_uint256)": {
        "encoding": "mapping",
        "key": "t_bytes32",
        "label": "mapping(bytes32 => uint256)",
        "numberOfBytes": "32",
        "value": "t_uint256"
      },
      "t_struct(Addresses)18812_storage": {
        "encoding": "inplace",
        "label": "struct Order.Addresses",
        "members": [
          {
            "astId": 18800,
            "contract": "contracts/order/OrderStore.sol:OrderStore",
            "label": "account",
            "offset": 0,
            "slot": "0",
            "type": "t_address"
          },
          {
            "astId": 18802,
            "contract": "contracts/order/OrderStore.sol:OrderStore",
            "label": "receiver",
            "offset": 0,
            "slot": "1",
            "type": "t_address"
          },
          {
            "astId": 18804,
            "contract": "contracts/order/OrderStore.sol:OrderStore",
            "label": "callbackContract",
            "offset": 0,
            "slot": "2",
            "type": "t_address"
          },
          {
            "astId": 18806,
            "contract": "contracts/order/OrderStore.sol:OrderStore",
            "label": "market",
            "offset": 0,
            "slot": "3",
            "type": "t_address"
          },
          {
            "astId": 18808,
            "contract": "contracts/order/OrderStore.sol:OrderStore",
            "label": "initialCollateralToken",
            "offset": 0,
            "slot": "4",
            "type": "t_address"
          },
          {
            "astId": 18811,
            "contract": "contracts/order/OrderStore.sol:OrderStore",
            "label": "swapPath",
            "offset": 0,
            "slot": "5",
            "type": "t_array(t_address)dyn_storage"
          }
        ],
        "numberOfBytes": "192"
      },
      "t_struct(Bytes32Set)4192_storage": {
        "encoding": "inplace",
        "label": "struct EnumerableSet.Bytes32Set",
        "members": [
          {
            "astId": 4191,
            "contract": "contracts/order/OrderStore.sol:OrderStore",
            "label": "_inner",
            "offset": 0,
            "slot": "0",
            "type": "t_struct(Set)3998_storage"
          }
        ],
        "numberOfBytes": "64"
      },
      "t_struct(Flags)18839_storage": {
        "encoding": "inplace",
        "label": "struct Order.Flags",
        "members": [
          {
            "astId": 18832,
            "contract": "contracts/order/OrderStore.sol:OrderStore",
            "label": "orderType",
            "offset": 0,
            "slot": "0",
            "type": "t_enum(OrderType)18798"
          },
          {
            "astId": 18834,
            "contract": "contracts/order/OrderStore.sol:OrderStore",
            "label": "isLong",
            "offset": 1,
            "slot": "0",
            "type": "t_bool"
          },
          {
            "astId": 18836,
            "contract": "contracts/order/OrderStore.sol:OrderStore",
            "label": "shouldUnwrapNativeToken",
            "offset": 2,
            "slot": "0",
            "type": "t_bool"
          },
          {
            "astId": 18838,
            "contract": "contracts/order/OrderStore.sol:OrderStore",
            "label": "isFrozen",
            "offset": 3,
            "slot": "0",
            "type": "t_bool"
          }
        ],
        "numberOfBytes": "32"
      },
      "t_struct(Numbers)18829_storage": {
        "encoding": "inplace",
        "label": "struct Order.Numbers",
        "members": [
          {
            "astId": 18814,
            "contract": "contracts/order/OrderStore.sol:OrderStore",
            "label": "sizeDeltaUsd",
            "offset": 0,
            "slot": "0",
            "type": "t_uint256"
          },
          {
            "astId": 18816,
            "contract": "contracts/order/OrderStore.sol:OrderStore",
            "label": "initialCollateralDeltaAmount",
            "offset": 0,
            "slot": "1",
            "type": "t_uint256"
          },
          {
            "astId": 18818,
            "contract": "contracts/order/OrderStore.sol:OrderStore",
            "label": "triggerPrice",
            "offset": 0,
            "slot": "2",
            "type": "t_uint256"
          },
          {
            "astId": 18820,
            "contract": "contracts/order/OrderStore.sol:OrderStore",
            "label": "acceptablePrice",
            "offset": 0,
            "slot": "3",
            "type": "t_uint256"
          },
          {
            "astId": 18822,
            "contract": "contracts/order/OrderStore.sol:OrderStore",
            "label": "executionFee",
            "offset": 0,
            "slot": "4",
            "type": "t_uint256"
          },
          {
            "astId": 18824,
            "contract": "contracts/order/OrderStore.sol:OrderStore",
            "label": "callbackGasLimit",
            "offset": 0,
            "slot": "5",
            "type": "t_uint256"
          },
          {
            "astId": 18826,
            "contract": "contracts/order/OrderStore.sol:OrderStore",
            "label": "minOutputAmount",
            "offset": 0,
            "slot": "6",
            "type": "t_uint256"
          },
          {
            "astId": 18828,
            "contract": "contracts/order/OrderStore.sol:OrderStore",
            "label": "updatedAtBlock",
            "offset": 0,
            "slot": "7",
            "type": "t_uint256"
          }
        ],
        "numberOfBytes": "256"
      },
      "t_struct(Props)18851_storage": {
        "encoding": "inplace",
        "label": "struct Order.Props",
        "members": [
          {
            "astId": 18842,
            "contract": "contracts/order/OrderStore.sol:OrderStore",
            "label": "addresses",
            "offset": 0,
            "slot": "0",
            "type": "t_struct(Addresses)18812_storage"
          },
          {
            "astId": 18845,
            "contract": "contracts/order/OrderStore.sol:OrderStore",
            "label": "numbers",
            "offset": 0,
            "slot": "6",
            "type": "t_struct(Numbers)18829_storage"
          },
          {
            "astId": 18848,
            "contract": "contracts/order/OrderStore.sol:OrderStore",
            "label": "flags",
            "offset": 0,
            "slot": "14",
            "type": "t_struct(Flags)18839_storage"
          },
          {
            "astId": 18850,
            "contract": "contracts/order/OrderStore.sol:OrderStore",
            "label": "data",
            "offset": 0,
            "slot": "15",
            "type": "t_bytes_storage"
          }
        ],
        "numberOfBytes": "512"
      },
      "t_struct(Set)3998_storage": {
        "encoding": "inplace",
        "label": "struct EnumerableSet.Set",
        "members": [
          {
            "astId": 3993,
            "contract": "contracts/order/OrderStore.sol:OrderStore",
            "label": "_values",
            "offset": 0,
            "slot": "0",
            "type": "t_array(t_bytes32)dyn_storage"
          },
          {
            "astId": 3997,
            "contract": "contracts/order/OrderStore.sol:OrderStore",
            "label": "_indexes",
            "offset": 0,
            "slot": "1",
            "type": "t_mapping(t_bytes32,t_uint256)"
          }
        ],
        "numberOfBytes": "64"
      },
      "t_uint256": {
        "encoding": "inplace",
        "label": "uint256",
        "numberOfBytes": "32"
      }
    }
  }
}