{
  "address": "0x3eF9e4C9b5E6ebEB797CDec32f437938b5D6abF7",
  "abi": [
    {
      "inputs": [
        {
          "internalType": "contract RoleStore",
          "name": "_roleStore",
          "type": "address"
        }
      ],
      "stateMutability": "nonpayable",
      "type": "constructor"
    },
    {
      "inputs": [
        {
          "internalType": "address",
          "name": "msgSender",
          "type": "address"
        },
        {
          "internalType": "string",
          "name": "role",
          "type": "string"
        }
      ],
      "name": "Unauthorized",
      "type": "error"
    },
    {
      "anonymous": false,
      "inputs": [
        {
          "indexed": false,
          "internalType": "address",
          "name": "prevGov",
          "type": "address"
        },
        {
          "indexed": false,
          "internalType": "address",
          "name": "nextGov",
          "type": "address"
        }
      ],
      "name": "SetGov",
      "type": "event"
    },
    {
      "inputs": [
        {
          "internalType": "bytes32",
          "name": "key",
          "type": "bytes32"
        }
      ],
      "name": "contains",
      "outputs": [
        {
          "internalType": "bool",
          "name": "",
          "type": "bool"
        }
      ],
      "stateMutability": "view",
      "type": "function"
    },
    {
      "inputs": [
        {
          "internalType": "bytes32",
          "name": "key",
          "type": "bytes32"
        }
      ],
      "name": "get",
      "outputs": [
        {
          "components": [
            {
              "internalType": "address",
              "name": "account",
              "type": "address"
            },
            {
              "internalType": "address",
              "name": "market",
              "type": "address"
            },
            {
              "internalType": "address",
              "name": "collateralToken",
              "type": "address"
            },
            {
              "internalType": "bool",
              "name": "isLong",
              "type": "bool"
            },
            {
              "internalType": "uint256",
              "name": "sizeInUsd",
              "type": "uint256"
            },
            {
              "internalType": "uint256",
              "name": "sizeInTokens",
              "type": "uint256"
            },
            {
              "internalType": "uint256",
              "name": "collateralAmount",
              "type": "uint256"
            },
            {
              "internalType": "uint256",
              "name": "borrowingFactor",
              "type": "uint256"
            },
            {
              "internalType": "int256",
              "name": "longTokenFundingAmountPerSize",
              "type": "int256"
            },
            {
              "internalType": "int256",
              "name": "shortTokenFundingAmountPerSize",
              "type": "int256"
            },
            {
              "internalType": "uint256",
              "name": "increasedAtBlock",
              "type": "uint256"
            },
            {
              "internalType": "uint256",
              "name": "decreasedAtBlock",
              "type": "uint256"
            },
            {
              "internalType": "bytes",
              "name": "data",
              "type": "bytes"
            }
          ],
          "internalType": "struct Position.Props",
          "name": "",
          "type": "tuple"
        }
      ],
      "stateMutability": "view",
      "type": "function"
    },
    {
      "inputs": [
        {
          "internalType": "address",
          "name": "account",
          "type": "address"
        }
      ],
      "name": "getAccountPositionCount",
      "outputs": [
        {
          "internalType": "uint256",
          "name": "",
          "type": "uint256"
        }
      ],
      "stateMutability": "view",
      "type": "function"
    },
    {
      "inputs": [
        {
          "internalType": "address",
          "name": "account",
          "type": "address"
        },
        {
          "internalType": "uint256",
          "name": "start",
          "type": "uint256"
        },
        {
          "internalType": "uint256",
          "name": "end",
          "type": "uint256"
        }
      ],
      "name": "getAccountPositionKeys",
      "outputs": [
        {
          "internalType": "bytes32[]",
          "name": "",
          "type": "bytes32[]"
        }
      ],
      "stateMutability": "view",
      "type": "function"
    },
    {
      "inputs": [],
      "name": "getPositionCount",
      "outputs": [
        {
          "internalType": "uint256",
          "name": "",
          "type": "uint256"
        }
      ],
      "stateMutability": "view",
      "type": "function"
    },
    {
      "inputs": [
        {
          "internalType": "uint256",
          "name": "start",
          "type": "uint256"
        },
        {
          "internalType": "uint256",
          "name": "end",
          "type": "uint256"
        }
      ],
      "name": "getPositionKeys",
      "outputs": [
        {
          "internalType": "bytes32[]",
          "name": "",
          "type": "bytes32[]"
        }
      ],
      "stateMutability": "view",
      "type": "function"
    },
    {
      "inputs": [],
      "name": "gov",
      "outputs": [
        {
          "internalType": "address",
          "name": "",
          "type": "address"
        }
      ],
      "stateMutability": "view",
      "type": "function"
    },
    {
      "inputs": [
        {
          "internalType": "bytes32",
          "name": "key",
          "type": "bytes32"
        },
        {
          "internalType": "address",
          "name": "account",
          "type": "address"
        }
      ],
      "name": "remove",
      "outputs": [],
      "stateMutability": "nonpayable",
      "type": "function"
    },
    {
      "inputs": [],
      "name": "roleStore",
      "outputs": [
        {
          "internalType": "contract RoleStore",
          "name": "",
          "type": "address"
        }
      ],
      "stateMutability": "view",
      "type": "function"
    },
    {
      "inputs": [
        {
          "internalType": "bytes32",
          "name": "key",
          "type": "bytes32"
        },
        {
          "internalType": "address",
          "name": "account",
          "type": "address"
        },
        {
          "components": [
            {
              "internalType": "address",
              "name": "account",
              "type": "address"
            },
            {
              "internalType": "address",
              "name": "market",
              "type": "address"
            },
            {
              "internalType": "address",
              "name": "collateralToken",
              "type": "address"
            },
            {
              "internalType": "bool",
              "name": "isLong",
              "type": "bool"
            },
            {
              "internalType": "uint256",
              "name": "sizeInUsd",
              "type": "uint256"
            },
            {
              "internalType": "uint256",
              "name": "sizeInTokens",
              "type": "uint256"
            },
            {
              "internalType": "uint256",
              "name": "collateralAmount",
              "type": "uint256"
            },
            {
              "internalType": "uint256",
              "name": "borrowingFactor",
              "type": "uint256"
            },
            {
              "internalType": "int256",
              "name": "longTokenFundingAmountPerSize",
              "type": "int256"
            },
            {
              "internalType": "int256",
              "name": "shortTokenFundingAmountPerSize",
              "type": "int256"
            },
            {
              "internalType": "uint256",
              "name": "increasedAtBlock",
              "type": "uint256"
            },
            {
              "internalType": "uint256",
              "name": "decreasedAtBlock",
              "type": "uint256"
            },
            {
              "internalType": "bytes",
              "name": "data",
              "type": "bytes"
            }
          ],
          "internalType": "struct Position.Props",
          "name": "position",
          "type": "tuple"
        }
      ],
      "name": "set",
      "outputs": [],
      "stateMutability": "nonpayable",
      "type": "function"
    },
    {
      "inputs": [
        {
          "internalType": "address",
          "name": "_gov",
          "type": "address"
        }
      ],
      "name": "setGov",
      "outputs": [],
      "stateMutability": "nonpayable",
      "type": "function"
    }
  ],
  "transactionHash": "0x9510b220aa6a4f25b3dc00f45ec8908cdf98485e495a892308b99afdb05a7413",
  "args": [
    "0xFc371E380262536c819D12B9569106bf032cC41c"
  ],
  "numDeployments": 1,
  "solcInputHash": "635dda53de9b7a48407bbc874989be1e",
  "bytecode": "0x60a060405234801561001057600080fd5b5060405161122038038061122083398101604081905261002f916100ac565b806100393361004b565b6001600160a01b0316608052506100dc565b600080546001600160a01b038381166001600160a01b031983168117909355604080519190921680825260208201939093527f53351836099c03ffc3b1727d8abd4b0222afa87d4ed76ae3102d51369ef7f785910160405180910390a15050565b6000602082840312156100be57600080fd5b81516001600160a01b03811681146100d557600080fd5b9392505050565b6080516111226100fe6000396000818161010b01526106e401526111226000f3fe608060405234801561001057600080fd5b50600436106100995760003560e01c806312d43a511461009e5780631d1a696d146100ce5780632874528e146100f15780634a4a7b04146101065780637f497d971461012d578063816834761461014d5780638c5ea9b8146101635780638eaa6ac014610176578063c63582cc14610196578063cfad57a2146101a9578063e5276445146101bc575b600080fd5b6000546100b1906001600160a01b031681565b6040516001600160a01b0390911681526020015b60405180910390f35b6100e16100dc366004610aa5565b6101cf565b60405190151581526020016100c5565b6101046100ff366004610ada565b6101e2565b005b6100b17f000000000000000000000000000000000000000000000000000000000000000081565b61014061013b366004610b06565b6102ea565b6040516100c59190610b28565b6101556102ff565b6040519081526020016100c5565b610140610171366004610b6c565b610310565b610189610184366004610aa5565b61033e565b6040516100c59190610be5565b6101046101a4366004610d90565b610514565b6101046101b7366004610eb7565b610641565b6101556101ca366004610eb7565b61069b565b60006101dc6002836106bc565b92915050565b6102326040516020016101f490610ed2565b604051602081830303815290604052805190602001206040518060400160405280600a81526020016921a7a72a2927a62622a960b11b8152506106c8565b6000828152600160208190526040822080546001600160a01b0319908116825591810180549092169091556002810180546001600160a81b031916905560038101829055600481018290556005810182905560068101829055600781018290556008810182905560098101829055600a8101829055906102b5600b830182610a4a565b50506001600160a01b03811660009081526004602052604090206102d9908361077c565b506102e560028361077c565b505050565b60606102f860028484610788565b9392505050565b600061030b6002610848565b905090565b6001600160a01b0383166000908152600460205260409020606090610336908484610788565b949350505050565b6103c6604051806101a0016040528060006001600160a01b0316815260200160006001600160a01b0316815260200160006001600160a01b031681526020016000151581526020016000815260200160008152602001600081526020016000815260200160008152602001600081526020016000815260200160008152602001606081525090565b60008281526001602081815260409283902083516101a08101855281546001600160a01b03908116825293820154841692810192909252600281015492831693820193909352600160a01b90910460ff161515606082015260038201546080820152600482015460a0820152600582015460c0820152600682015460e0820152600782015461010082015260088201546101208201526009820154610140820152600a820154610160820152600b820180549192916101808401919061048b90610ef6565b80601f01602080910402602001604051908101604052809291908181526020018280546104b790610ef6565b80156105045780601f106104d957610100808354040283529160200191610504565b820191906000526020600020905b8154815290600101906020018083116104e757829003601f168201915b5050505050815250509050919050565b6105266040516020016101f490610ed2565b600083815260016020818152604092839020845181546001600160a01b039182166001600160a01b031991821617835592860151938201805494821694909316939093179091559183015160028301805460608601511515600160a01b026001600160a81b031990911692909316919091179190911790556080820151600382015560a0820151600482015560c0820151600582015560e08201516006820155610100820151600782015561012082015160088201556101408201516009820155610160820151600a820155610180820151829190600b82019061060a9082610f7e565b5050506001600160a01b038216600090815260046020526040902061062f9084610852565b5061063b600284610852565b50505050565b6000546001600160a01b0316331461068f576040805163a35b150b60e01b81523360048201526024810191909152600360448201526223a7ab60e91b60648201526084015b60405180910390fd5b6106988161085e565b50565b6001600160a01b03811660009081526004602052604081206101dc90610848565b60006102f883836108bf565b60405163ac4ab3fb60e01b8152336004820152602481018390527f00000000000000000000000000000000000000000000000000000000000000006001600160a01b03169063ac4ab3fb90604401602060405180830381865afa158015610733573d6000803e3d6000fd5b505050506040513d601f19601f82011682018060405250810190610757919061103d565b61077857338160405163a35b150b60e01b815260040161068692919061105a565b5050565b60006102f883836108d7565b6060600061079585610848565b9050808311156107a3578092505b60006107af8585611094565b6001600160401b038111156107c6576107c6610cac565b6040519080825280602002602001820160405280156107ef578160200160208202803683370190505b509050845b8481101561083e5761080687826109ca565b826108118884611094565b81518110610821576108216110a7565b602090810291909101015280610836816110bd565b9150506107f4565b5095945050505050565b60006101dc825490565b60006102f883836109d6565b600080546001600160a01b038381166001600160a01b031983168117909355604080519190921680825260208201939093527f53351836099c03ffc3b1727d8abd4b0222afa87d4ed76ae3102d51369ef7f785910160405180910390a15050565b60009081526001919091016020526040902054151590565b600081815260018301602052604081205480156109c05760006108fb600183611094565b855490915060009061090f90600190611094565b905081811461097457600086600001828154811061092f5761092f6110a7565b9060005260206000200154905080876000018481548110610952576109526110a7565b6000918252602080832090910192909255918252600188019052604090208390555b8554869080610985576109856110d6565b6001900381819060005260206000200160009055905585600101600086815260200190815260200160002060009055600193505050506101dc565b60009150506101dc565b60006102f88383610a20565b60006109e283836108bf565b610a18575081546001818101845560008481526020808220909301849055845484825282860190935260409020919091556101dc565b5060006101dc565b6000826000018281548110610a3757610a376110a7565b9060005260206000200154905092915050565b508054610a5690610ef6565b6000825580601f10610a66575050565b601f01602090049060005260206000209081019061069891905b80821115610a945760008155600101610a80565b5090565b6001600160a01b03169052565b600060208284031215610ab757600080fd5b5035919050565b80356001600160a01b0381168114610ad557600080fd5b919050565b60008060408385031215610aed57600080fd5b82359150610afd60208401610abe565b90509250929050565b60008060408385031215610b1957600080fd5b50508035926020909101359150565b6020808252825182820181905260009190848201906040850190845b81811015610b6057835183529284019291840191600101610b44565b50909695505050505050565b600080600060608486031215610b8157600080fd5b610b8a84610abe565b95602085013595506040909401359392505050565b6000815180845260005b81811015610bc557602081850181015186830182015201610ba9565b506000602082860101526020601f19601f83011685010191505092915050565b60208152610bf7602082018351610a98565b60006020830151610c0b6040840182610a98565b506040830151610c1e6060840182610a98565b506060830151801515608084015250608083015160a08381019190915283015160c08084019190915283015160e08084019190915283015161010080840191909152830151610120808401919091528301516101408084019190915283015161016080840191909152830151610180808401919091528301516101a0808401526103366101c0840182610b9f565b634e487b7160e01b600052604160045260246000fd5b6040516101a081016001600160401b0381118282101715610ce557610ce5610cac565b60405290565b801515811461069857600080fd5b8035610ad581610ceb565b600082601f830112610d1557600080fd5b81356001600160401b0380821115610d2f57610d2f610cac565b604051601f8301601f19908116603f01168101908282118183101715610d5757610d57610cac565b81604052838152866020858801011115610d7057600080fd5b836020870160208301376000602085830101528094505050505092915050565b600080600060608486031215610da557600080fd5b83359250610db560208501610abe565b915060408401356001600160401b0380821115610dd157600080fd5b908501906101a08288031215610de657600080fd5b610dee610cc2565b610df783610abe565b8152610e0560208401610abe565b6020820152610e1660408401610abe565b6040820152610e2760608401610cf9565b60608201526080830135608082015260a083013560a082015260c083013560c082015260e083013560e08201526101008084013581830152506101208084013581830152506101408084013581830152506101608084013581830152506101808084013583811115610e9857600080fd5b610ea48a828701610d04565b8284015250508093505050509250925092565b600060208284031215610ec957600080fd5b6102f882610abe565b6020808252600a908201526921a7a72a2927a62622a960b11b604082015260600190565b600181811c90821680610f0a57607f821691505b602082108103610f2a57634e487b7160e01b600052602260045260246000fd5b50919050565b601f8211156102e557600081815260208120601f850160051c81016020861015610f575750805b601f850160051c820191505b81811015610f7657828155600101610f63565b505050505050565b81516001600160401b03811115610f9757610f97610cac565b610fab81610fa58454610ef6565b84610f30565b602080601f831160018114610fe05760008415610fc85750858301515b600019600386901b1c1916600185901b178555610f76565b600085815260208120601f198616915b8281101561100f57888601518255948401946001909101908401610ff0565b508582101561102d5787850151600019600388901b60f8161c191681555b5050505050600190811b01905550565b60006020828403121561104f57600080fd5b81516102f881610ceb565b6001600160a01b038316815260406020820181905260009061033690830184610b9f565b634e487b7160e01b600052601160045260246000fd5b818103818111156101dc576101dc61107e565b634e487b7160e01b600052603260045260246000fd5b6000600182016110cf576110cf61107e565b5060010190565b634e487b7160e01b600052603160045260246000fdfea26469706673582212201cdf8de083f893ca478f0c6cc4867eb844efe6662b5c52bab0ab67ab7dd9eefc64736f6c63430008100033",
  "devdoc": {
    "kind": "dev",
    "methods": {},
    "version": 1
  },
  "userdoc": {
    "kind": "user",
    "methods": {},
    "version": 1
  },
  "storageLayout": {
    "storage": [
      {
        "astId": 12130,
        "contract": "contracts/position/PositionStore.sol:PositionStore",
        "label": "gov",
        "offset": 0,
        "slot": "0",
        "type": "t_address"
      },
      {
        "astId": 23050,
        "contract": "contracts/position/PositionStore.sol:PositionStore",
        "label": "positions",
        "offset": 0,
        "slot": "1",
        "type": "t_mapping(t_bytes32,t_struct(Props)23030_storage)"
      },
      {
        "astId": 23053,
        "contract": "contracts/position/PositionStore.sol:PositionStore",
        "label": "positionKeys",
        "offset": 0,
        "slot": "2",
        "type": "t_struct(Bytes32Set)4192_storage"
      },
      {
        "astId": 23058,
        "contract": "contracts/position/PositionStore.sol:PositionStore",
        "label": "accountPositionKeys",
        "offset": 0,
        "slot": "4",
        "type": "t_mapping(t_address,t_struct(Bytes32Set)4192_storage)"
      }
    ],
    "types": {
      "t_address": {
        "encoding": "inplace",
        "label": "address",
        "numberOfBytes": "20"
      },
      "t_array(t_bytes32)dyn_storage": {
        "base": "t_bytes32",
        "encoding": "dynamic_array",
        "label": "bytes32[]",
        "numberOfBytes": "32"
      },
      "t_bool": {
        "encoding": "inplace",
        "label": "bool",
        "numberOfBytes": "1"
      },
      "t_bytes32": {
        "encoding": "inplace",
        "label": "bytes32",
        "numberOfBytes": "32"
      },
      "t_bytes_storage": {
        "encoding": "bytes",
        "label": "bytes",
        "numberOfBytes": "32"
      },
      "t_int256": {
        "encoding": "inplace",
        "label": "int256",
        "numberOfBytes": "32"
      },
      "t_mapping(t_address,t_struct(Bytes32Set)4192_storage)": {
        "encoding": "mapping",
        "key": "t_address",
        "label": "mapping(address => struct EnumerableSet.Bytes32Set)",
        "numberOfBytes": "32",
        "value": "t_struct(Bytes32Set)4192_storage"
      },
      "t_mapping(t_bytes32,t_struct(Props)23030_storage)": {
        "encoding": "mapping",
        "key": "t_bytes32",
        "label": "mapping(bytes32 => struct Position.Props)",
        "numberOfBytes": "32",
        "value": "t_struct(Props)23030_storage"
      },
      "t_mapping(t_bytes32,t_uint256)": {
        "encoding": "mapping",
        "key": "t_bytes32",
        "label": "mapping(bytes32 => uint256)",
        "numberOfBytes": "32",
        "value": "t_uint256"
      },
      "t_struct(Bytes32Set)4192_storage": {
        "encoding": "inplace",
        "label": "struct EnumerableSet.Bytes32Set",
        "members": [
          {
            "astId": 4191,
            "contract": "contracts/position/PositionStore.sol:PositionStore",
            "label": "_inner",
            "offset": 0,
            "slot": "0",
            "type": "t_struct(Set)3998_storage"
          }
        ],
        "numberOfBytes": "64"
      },
      "t_struct(Props)23030_storage": {
        "encoding": "inplace",
        "label": "struct Position.Props",
        "members": [
          {
            "astId": 23005,
            "contract": "contracts/position/PositionStore.sol:PositionStore",
            "label": "account",
            "offset": 0,
            "slot": "0",
            "type": "t_address"
          },
          {
            "astId": 23007,
            "contract": "contracts/position/PositionStore.sol:PositionStore",
            "label": "market",
            "offset": 0,
            "slot": "1",
            "type": "t_address"
          },
          {
            "astId": 23009,
            "contract": "contracts/position/PositionStore.sol:PositionStore",
            "label": "collateralToken",
            "offset": 0,
            "slot": "2",
            "type": "t_address"
          },
          {
            "astId": 23011,
            "contract": "contracts/position/PositionStore.sol:PositionStore",
            "label": "isLong",
            "offset": 20,
            "slot": "2",
            "type": "t_bool"
          },
          {
            "astId": 23013,
            "contract": "contracts/position/PositionStore.sol:PositionStore",
            "label": "sizeInUsd",
            "offset": 0,
            "slot": "3",
            "type": "t_uint256"
          },
          {
            "astId": 23015,
            "contract": "contracts/position/PositionStore.sol:PositionStore",
            "label": "sizeInTokens",
            "offset": 0,
            "slot": "4",
            "type": "t_uint256"
          },
          {
            "astId": 23017,
            "contract": "contracts/position/PositionStore.sol:PositionStore",
            "label": "collateralAmount",
            "offset": 0,
            "slot": "5",
            "type": "t_uint256"
          },
          {
            "astId": 23019,
            "contract": "contracts/position/PositionStore.sol:PositionStore",
            "label": "borrowingFactor",
            "offset": 0,
            "slot": "6",
            "type": "t_uint256"
          },
          {
            "astId": 23021,
            "contract": "contracts/position/PositionStore.sol:PositionStore",
            "label": "longTokenFundingAmountPerSize",
            "offset": 0,
            "slot": "7",
            "type": "t_int256"
          },
          {
            "astId": 23023,
            "contract": "contracts/position/PositionStore.sol:PositionStore",
            "label": "shortTokenFundingAmountPerSize",
            "offset": 0,
            "slot": "8",
            "type": "t_int256"
          },
          {
            "astId": 23025,
            "contract": "contracts/position/PositionStore.sol:PositionStore",
            "label": "increasedAtBlock",
            "offset": 0,
            "slot": "9",
            "type": "t_uint256"
          },
          {
            "astId": 23027,
            "contract": "contracts/position/PositionStore.sol:PositionStore",
            "label": "decreasedAtBlock",
            "offset": 0,
            "slot": "10",
            "type": "t_uint256"
          },
          {
            "astId": 23029,
            "contract": "contracts/position/PositionStore.sol:PositionStore",
            "label": "data",
            "offset": 0,
            "slot": "11",
            "type": "t_bytes_storage"
          }
        ],
        "numberOfBytes": "384"
      },
      "t_struct(Set)3998_storage": {
        "encoding": "inplace",
        "label": "struct EnumerableSet.Set",
        "members": [
          {
            "astId": 3993,
            "contract": "contracts/position/PositionStore.sol:PositionStore",
            "label": "_values",
            "offset": 0,
            "slot": "0",
            "type": "t_array(t_bytes32)dyn_storage"
          },
          {
            "astId": 3997,
            "contract": "contracts/position/PositionStore.sol:PositionStore",
            "label": "_indexes",
            "offset": 0,
            "slot": "1",
            "type": "t_mapping(t_bytes32,t_uint256)"
          }
        ],
        "numberOfBytes": "64"
      },
      "t_uint256": {
        "encoding": "inplace",
        "label": "uint256",
        "numberOfBytes": "32"
      }
    }
  }
}