{
  "address": "0x861d5f5d60170d42231119a01bAE662f1c0B7Cf2",
  "abi": [
    {
      "inputs": [
        {
          "internalType": "contract RoleStore",
          "name": "_roleStore",
          "type": "address"
        },
        {
          "internalType": "contract DataStore",
          "name": "_dataStore",
          "type": "address"
        }
      ],
      "stateMutability": "nonpayable",
      "type": "constructor"
    },
    {
      "inputs": [
        {
          "internalType": "address",
          "name": "receiver",
          "type": "address"
        },
        {
          "internalType": "uint256",
          "name": "amount",
          "type": "uint256"
        }
      ],
      "name": "NativeTokenTransferError",
      "type": "error"
    },
    {
      "inputs": [
        {
          "internalType": "address",
          "name": "token",
          "type": "address"
        },
        {
          "internalType": "address",
          "name": "receiver",
          "type": "address"
        },
        {
          "internalType": "uint256",
          "name": "amount",
          "type": "uint256"
        }
      ],
      "name": "TokenTransferError",
      "type": "error"
    },
    {
      "inputs": [
        {
          "internalType": "address",
          "name": "msgSender",
          "type": "address"
        },
        {
          "internalType": "string",
          "name": "role",
          "type": "string"
        }
      ],
      "name": "Unauthorized",
      "type": "error"
    },
    {
      "anonymous": false,
      "inputs": [
        {
          "indexed": false,
          "internalType": "address",
          "name": "prevGov",
          "type": "address"
        },
        {
          "indexed": false,
          "internalType": "address",
          "name": "nextGov",
          "type": "address"
        }
      ],
      "name": "SetGov",
      "type": "event"
    },
    {
      "inputs": [
        {
          "internalType": "bytes32",
          "name": "key",
          "type": "bytes32"
        }
      ],
      "name": "contains",
      "outputs": [
        {
          "internalType": "bool",
          "name": "",
          "type": "bool"
        }
      ],
      "stateMutability": "view",
      "type": "function"
    },
    {
      "inputs": [],
      "name": "dataStore",
      "outputs": [
        {
          "internalType": "contract DataStore",
          "name": "",
          "type": "address"
        }
      ],
      "stateMutability": "view",
      "type": "function"
    },
    {
      "inputs": [
        {
          "internalType": "bytes32",
          "name": "key",
          "type": "bytes32"
        }
      ],
      "name": "get",
      "outputs": [
        {
          "components": [
            {
              "internalType": "address",
              "name": "account",
              "type": "address"
            },
            {
              "internalType": "address",
              "name": "market",
              "type": "address"
            },
            {
              "internalType": "address",
              "name": "collateralToken",
              "type": "address"
            },
            {
              "internalType": "bool",
              "name": "isLong",
              "type": "bool"
            },
            {
              "internalType": "uint256",
              "name": "sizeInUsd",
              "type": "uint256"
            },
            {
              "internalType": "uint256",
              "name": "sizeInTokens",
              "type": "uint256"
            },
            {
              "internalType": "uint256",
              "name": "collateralAmount",
              "type": "uint256"
            },
            {
              "internalType": "uint256",
              "name": "borrowingFactor",
              "type": "uint256"
            },
            {
              "internalType": "int256",
              "name": "longTokenFundingAmountPerSize",
              "type": "int256"
            },
            {
              "internalType": "int256",
              "name": "shortTokenFundingAmountPerSize",
              "type": "int256"
            },
            {
              "internalType": "uint256",
              "name": "increasedAtBlock",
              "type": "uint256"
            },
            {
              "internalType": "uint256",
              "name": "decreasedAtBlock",
              "type": "uint256"
            },
            {
              "internalType": "bytes",
              "name": "data",
              "type": "bytes"
            }
          ],
          "internalType": "struct Position.Props",
          "name": "",
          "type": "tuple"
        }
      ],
      "stateMutability": "view",
      "type": "function"
    },
    {
      "inputs": [
        {
          "internalType": "address",
          "name": "account",
          "type": "address"
        }
      ],
      "name": "getAccountPositionCount",
      "outputs": [
        {
          "internalType": "uint256",
          "name": "",
          "type": "uint256"
        }
      ],
      "stateMutability": "view",
      "type": "function"
    },
    {
      "inputs": [
        {
          "internalType": "address",
          "name": "account",
          "type": "address"
        },
        {
          "internalType": "uint256",
          "name": "start",
          "type": "uint256"
        },
        {
          "internalType": "uint256",
          "name": "end",
          "type": "uint256"
        }
      ],
      "name": "getAccountPositionKeys",
      "outputs": [
        {
          "internalType": "bytes32[]",
          "name": "",
          "type": "bytes32[]"
        }
      ],
      "stateMutability": "view",
      "type": "function"
    },
    {
      "inputs": [],
      "name": "getPositionCount",
      "outputs": [
        {
          "internalType": "uint256",
          "name": "",
          "type": "uint256"
        }
      ],
      "stateMutability": "view",
      "type": "function"
    },
    {
      "inputs": [
        {
          "internalType": "uint256",
          "name": "start",
          "type": "uint256"
        },
        {
          "internalType": "uint256",
          "name": "end",
          "type": "uint256"
        }
      ],
      "name": "getPositionKeys",
      "outputs": [
        {
          "internalType": "bytes32[]",
          "name": "",
          "type": "bytes32[]"
        }
      ],
      "stateMutability": "view",
      "type": "function"
    },
    {
      "inputs": [],
      "name": "gov",
      "outputs": [
        {
          "internalType": "address",
          "name": "",
          "type": "address"
        }
      ],
      "stateMutability": "view",
      "type": "function"
    },
    {
      "inputs": [
        {
          "internalType": "address",
          "name": "token",
          "type": "address"
        }
      ],
      "name": "recordTransferIn",
      "outputs": [
        {
          "internalType": "uint256",
          "name": "",
          "type": "uint256"
        }
      ],
      "stateMutability": "nonpayable",
      "type": "function"
    },
    {
      "inputs": [
        {
          "internalType": "address payable",
          "name": "receiver",
          "type": "address"
        },
        {
          "internalType": "uint256",
          "name": "amount",
          "type": "uint256"
        }
      ],
      "name": "recoverNativeToken",
      "outputs": [],
      "stateMutability": "nonpayable",
      "type": "function"
    },
    {
      "inputs": [
        {
          "internalType": "bytes32",
          "name": "key",
          "type": "bytes32"
        },
        {
          "internalType": "address",
          "name": "account",
          "type": "address"
        }
      ],
      "name": "remove",
      "outputs": [],
      "stateMutability": "nonpayable",
      "type": "function"
    },
    {
      "inputs": [],
      "name": "roleStore",
      "outputs": [
        {
          "internalType": "contract RoleStore",
          "name": "",
          "type": "address"
        }
      ],
      "stateMutability": "view",
      "type": "function"
    },
    {
      "inputs": [
        {
          "internalType": "bytes32",
          "name": "key",
          "type": "bytes32"
        },
        {
          "internalType": "address",
          "name": "account",
          "type": "address"
        },
        {
          "components": [
            {
              "internalType": "address",
              "name": "account",
              "type": "address"
            },
            {
              "internalType": "address",
              "name": "market",
              "type": "address"
            },
            {
              "internalType": "address",
              "name": "collateralToken",
              "type": "address"
            },
            {
              "internalType": "bool",
              "name": "isLong",
              "type": "bool"
            },
            {
              "internalType": "uint256",
              "name": "sizeInUsd",
              "type": "uint256"
            },
            {
              "internalType": "uint256",
              "name": "sizeInTokens",
              "type": "uint256"
            },
            {
              "internalType": "uint256",
              "name": "collateralAmount",
              "type": "uint256"
            },
            {
              "internalType": "uint256",
              "name": "borrowingFactor",
              "type": "uint256"
            },
            {
              "internalType": "int256",
              "name": "longTokenFundingAmountPerSize",
              "type": "int256"
            },
            {
              "internalType": "int256",
              "name": "shortTokenFundingAmountPerSize",
              "type": "int256"
            },
            {
              "internalType": "uint256",
              "name": "increasedAtBlock",
              "type": "uint256"
            },
            {
              "internalType": "uint256",
              "name": "decreasedAtBlock",
              "type": "uint256"
            },
            {
              "internalType": "bytes",
              "name": "data",
              "type": "bytes"
            }
          ],
          "internalType": "struct Position.Props",
          "name": "position",
          "type": "tuple"
        }
      ],
      "name": "set",
      "outputs": [],
      "stateMutability": "nonpayable",
      "type": "function"
    },
    {
      "inputs": [
        {
          "internalType": "address",
          "name": "_gov",
          "type": "address"
        }
      ],
      "name": "setGov",
      "outputs": [],
      "stateMutability": "nonpayable",
      "type": "function"
    },
    {
      "inputs": [
        {
          "internalType": "address",
          "name": "",
          "type": "address"
        }
      ],
      "name": "tokenBalances",
      "outputs": [
        {
          "internalType": "uint256",
          "name": "",
          "type": "uint256"
        }
      ],
      "stateMutability": "view",
      "type": "function"
    },
    {
      "inputs": [
        {
          "internalType": "contract DataStore",
          "name": "dataStore",
          "type": "address"
        },
        {
          "internalType": "address",
          "name": "token",
          "type": "address"
        },
        {
          "internalType": "uint256",
          "name": "amount",
          "type": "uint256"
        },
        {
          "internalType": "address",
          "name": "receiver",
          "type": "address"
        }
      ],
      "name": "transferOut",
      "outputs": [],
      "stateMutability": "nonpayable",
      "type": "function"
    },
    {
      "inputs": [
        {
          "internalType": "contract DataStore",
          "name": "dataStore",
          "type": "address"
        },
        {
          "internalType": "address",
          "name": "token",
          "type": "address"
        },
        {
          "internalType": "uint256",
          "name": "amount",
          "type": "uint256"
        },
        {
          "internalType": "address",
          "name": "receiver",
          "type": "address"
        },
        {
          "internalType": "bool",
          "name": "shouldUnwrapNativeToken",
          "type": "bool"
        }
      ],
      "name": "transferOut",
      "outputs": [],
      "stateMutability": "nonpayable",
      "type": "function"
    },
    {
      "stateMutability": "payable",
      "type": "receive"
    }
  ],
  "transactionHash": "0x8eb5db4e449ba2fc9ffd387ad330bd201d4944689028a23d2ff85547a782ad43",
  "args": [
    "0xdF83f183CCB84bC1d506b8Df372e9Ca3b0a887Ef",
    "0xaC5C6D103DD3714fE9453F2F93fF66fce0fE9d6F"
  ],
  "numDeployments": 2,
  "solcInputHash": "3a2ad2f76d49af012eff08ed5468f1c9",
  "bytecode": "0x60c06040523480156200001157600080fd5b5060405162001e4538038062001e458339810160408190526200003491620000e0565b81818181818181620000463362000066565b6001600160a01b039081166080521660a052506200011f95505050505050565b600080546001600160a01b038381166001600160a01b031983168117909355604080519190921680825260208201939093527f53351836099c03ffc3b1727d8abd4b0222afa87d4ed76ae3102d51369ef7f785910160405180910390a15050565b6001600160a01b0381168114620000dd57600080fd5b50565b60008060408385031215620000f457600080fd5b82516200010181620000c7565b60208401519092506200011481620000c7565b809150509250929050565b60805160a051611cf2620001536000396000818161022701526104ef0152600081816101a601526109680152611cf26000f3fe6080604052600436106100d25760003560e01c806312d43a51146100de5780631d1a696d146101145780632874528e14610144578063352f9aed146101665780634a4a7b0414610194578063523fba7f146101c85780635789eee7146101f5578063660d0d67146102155780636bd3d451146102495780637f497d971461026957806381683476146102965780638c5ea9b8146102ab5780638eaa6ac0146102cb578063c63582cc146102f8578063cfad57a214610318578063e527644514610338578063f94989381461035857600080fd5b366100d957005b600080fd5b3480156100ea57600080fd5b506000546100fe906001600160a01b031681565b60405161010b91906114bc565b60405180910390f35b34801561012057600080fd5b5061013461012f3660046114d0565b610378565b604051901515815260200161010b565b34801561015057600080fd5b5061016461015f366004611509565b61038b565b005b34801561017257600080fd5b50610186610181366004611539565b610492565b60405190815260200161010b565b3480156101a057600080fd5b506100fe7f000000000000000000000000000000000000000000000000000000000000000081565b3480156101d457600080fd5b506101866101e3366004611539565b60016020526000908152604090205481565b34801561020157600080fd5b50610164610210366004611556565b6104b4565b34801561022157600080fd5b506100fe7f000000000000000000000000000000000000000000000000000000000000000081565b34801561025557600080fd5b506101646102643660046115a9565b6104d8565b34801561027557600080fd5b506102896102843660046115d5565b610519565b60405161010b91906115f7565b3480156102a257600080fd5b5061018661052e565b3480156102b757600080fd5b506102896102c636600461163b565b61053f565b3480156102d757600080fd5b506102eb6102e63660046114d0565b61056d565b60405161010b91906116c0565b34801561030457600080fd5b5061016461031336600461186b565b610742565b34801561032457600080fd5b50610164610333366004611539565b610863565b34801561034457600080fd5b50610186610353366004611539565b6108bd565b34801561036457600080fd5b50610164610373366004611994565b6108de565b6000610385600383610945565b92915050565b6103db60405160200161039d906119fc565b604051602081830303815290604052805190602001206040518060400160405280600a81526020016921a7a72a2927a62622a960b11b815250610951565b6000828152600260208190526040822080546001600160a01b03199081168255600182018054909116905590810180546001600160a81b031916905560038101829055600481018290556005810182905560068101829055600781018290556008810182905560098101829055600a81018290559061045d600b830182611461565b50506001600160a01b03811660009081526005602052604090206104819083610a01565b5061048d600383610a01565b505050565b60006104a660405160200161039d906119fc565b61038582610a0d565b919050565b6104c660405160200161039d906119fc565b6104d284848484610ab6565b50505050565b6104ea60405160200161039d906119fc565b6105157f00000000000000000000000000000000000000000000000000000000000000008383610af3565b5050565b606061052760038484610caa565b9392505050565b600061053a6003610d6a565b905090565b6001600160a01b0383166000908152600560205260409020606090610565908484610caa565b949350505050565b6105f5604051806101a0016040528060006001600160a01b0316815260200160006001600160a01b0316815260200160006001600160a01b031681526020016000151581526020016000815260200160008152602001600081526020016000815260200160008152602001600081526020016000815260200160008152602001606081525090565b60008281526002602081815260409283902083516101a08101855281546001600160a01b03908116825260018301548116938201939093529281015491821693830193909352600160a01b900460ff161515606082015260038201546080820152600482015460a0820152600582015460c0820152600682015460e0820152600782015461010082015260088201546101208201526009820154610140820152600a820154610160820152600b82018054919291610180840191906106b990611a20565b80601f01602080910402602001604051908101604052809291908181526020018280546106e590611a20565b80156107325780601f1061070757610100808354040283529160200191610732565b820191906000526020600020905b81548152906001019060200180831161071557829003601f168201915b5050505050815250509050919050565b61075460405160200161039d906119fc565b600083815260026020818152604092839020845181546001600160a01b039182166001600160a01b031991821617835592860151600183018054918316919094161790925592840151918301805460608601511515600160a01b026001600160a81b031990911693909216929092171790556080820151600382015560a0820151600482015560c0820151600582015560e08201516006820155610100820151600782015561012082015160088201556101408201516009820155610160820151600a820155610180820151829190600b8201906108329082611aa0565b5050506001600160a01b03821660009081526005602052604090206108579084610d74565b506104d2600384610d74565b6000546001600160a01b031633146108b1576040805163a35b150b60e01b81523360048201526024810191909152600360448201526223a7ab60e91b60648201526084015b60405180910390fd5b6108ba81610d80565b50565b6001600160a01b038116600090815260056020526040812061038590610d6a565b6108f060405160200161039d906119fc565b60006108fb86610de1565b9050806001600160a01b0316856001600160a01b031614801561091b5750815b156109315761092c86868686610e8e565b61093d565b61093d86868686610ab6565b505050505050565b60006105278383610ec2565b60405163ac4ab3fb60e01b81526001600160a01b037f0000000000000000000000000000000000000000000000000000000000000000169063ac4ab3fb9061099f9033908690600401611b5f565b602060405180830381865afa1580156109bc573d6000803e3d6000fd5b505050506040513d601f19601f820116820180604052508101906109e09190611b78565b61051557338160405163a35b150b60e01b81526004016108a8929190611b95565b60006105278383610eda565b6001600160a01b0381166000818152600160205260408082205490516370a0823160e01b8152919290918391906370a0823190610a4e9030906004016114bc565b602060405180830381865afa158015610a6b573d6000803e3d6000fd5b505050506040513d601f19601f82011682018060405250810190610a8f9190611bb9565b6001600160a01b038516600090815260016020526040902081905590506105658282611be8565b306001600160a01b03821603610ade5760405162461bcd60e51b81526004016108a890611bfb565b610aea84848385610fcd565b6104d2836110fd565b80600003610b0057505050565b6000836001600160a01b031663bd02d0f5604051602001610b52906020808252601f908201527f4e41544956455f544f4b454e5f5452414e534645525f4741535f4c494d495400604082015260600190565b604051602081830303815290604052805190602001206040518263ffffffff1660e01b8152600401610b8691815260200190565b602060405180830381865afa158015610ba3573d6000803e3d6000fd5b505050506040513d601f19601f82011682018060405250810190610bc79190611bb9565b9050600080846001600160a01b0316848490604051600060405180830381858888f193505050503d8060008114610c1a576040519150601f19603f3d011682016040523d82523d6000602084013e610c1f565b606091505b50915091508115610c3257505050505050565b600081604051602001610c459190611c2b565b60405160208183030381529060405290507f6c4e9d88878940a822d239187b8b00d62a80dce222d53bc5f1fb072d9c34b68181604051610c859190611c2b565b60405180910390a18585604051633828654560e11b81526004016108a8929190611b5f565b60606000610cb785610d6a565b905080831115610cc5578092505b6000610cd18585611be8565b6001600160401b03811115610ce857610ce8611787565b604051908082528060200260200182016040528015610d11578160200160208202803683370190505b509050845b84811015610d6057610d288782611186565b82610d338884611be8565b81518110610d4357610d43611c3e565b602090810291909101015280610d5881611c54565b915050610d16565b5095945050505050565b6000610385825490565b60006105278383611192565b600080546001600160a01b038381166001600160a01b031983168117909355604080519190921680825260208201939093527f53351836099c03ffc3b1727d8abd4b0222afa87d4ed76ae3102d51369ef7f785910160405180910390a15050565b6000816001600160a01b03166321f8a721604051602001610e199060208082526003908201526215d39560ea1b604082015260600190565b604051602081830303815290604052805190602001206040518263ffffffff1660e01b8152600401610e4d91815260200190565b602060405180830381865afa158015610e6a573d6000803e3d6000fd5b505050506040513d601f19601f820116820180604052508101906103859190611c6d565b306001600160a01b03821603610eb65760405162461bcd60e51b81526004016108a890611bfb565b610aea848483856111dc565b60009081526001919091016020526040902054151590565b60008181526001830160205260408120548015610fc3576000610efe600183611be8565b8554909150600090610f1290600190611be8565b9050818114610f77576000866000018281548110610f3257610f32611c3e565b9060005260206000200154905080876000018481548110610f5557610f55611c3e565b6000918252602080832090910192909255918252600188019052604090208390555b8554869080610f8857610f88611c8a565b600190038181906000526020600020016000905590558560010160008681526020019081526020016000206000905560019350505050610385565b6000915050610385565b80156104d2576000846001600160a01b031663bd02d0f5610fed86611247565b6040518263ffffffff1660e01b815260040161100b91815260200190565b602060405180830381865afa158015611028573d6000803e3d6000fd5b505050506040513d601f19601f8201168201806040525081019061104c9190611bb9565b905060008061105d868686866112cf565b91509150811561106f575050506104d2565b6000816040516020016110829190611c2b565b60405160208183030381529060405290507f9db60cdf21cde7f760995e23662841725e6aa63be48799796db12b7b2e6b17e2816040516110c29190611c2b565b60405180910390a160405163012f3b8f60e71b81526001600160a01b03808916600483015287166024820152604481018690526064016108a8565b6040516370a0823160e01b81526001600160a01b038216906370a08231906111299030906004016114bc565b602060405180830381865afa158015611146573d6000803e3d6000fd5b505050506040513d601f19601f8201168201806040525081019061116a9190611bb9565b6001600160a01b03909116600090815260016020526040902055565b60006105278383611437565b600061119e8383610ec2565b6111d457508154600181810184556000848152602080822090930184905584548482528286019093526040902091909155610385565b506000610385565b80156104d257604051632e1a7d4d60e01b8152600481018290526001600160a01b03841690632e1a7d4d90602401600060405180830381600087803b15801561122457600080fd5b505af1158015611238573d6000803e3d6000fd5b505050506104d2848383610af3565b6000604051602001611285906020808252601890820152771513d2d15397d514905394d1915497d1d054d7d31253525560421b604082015260600190565b60408051601f198184030181528282528051602091820120908301526001600160a01b03841690820152606001604051602081830303815290604052805190602001209050919050565b60006060600063a9059cbb60e01b86866040516024016112f0929190611b5f565b604051602081830303815290604052906001600160e01b0319166020820180516001600160e01b0383818316178352505050509050600080886001600160a01b031686846040516113419190611ca0565b60006040518083038160008787f1925050503d806000811461137f576040519150601f19603f3d011682016040523d82523d6000602084013e611384565b606091505b509150915081156114255780516000036113e2576001600160a01b0389163b6113e25760006040518060400160405280601481526020017310d85b1b081d1bc81b9bdb8b58dbdb9d1c9858dd60621b8152509450945050505061142e565b600081511180156114045750808060200190518101906114029190611b78565b155b156114175760009450925061142e915050565b60019450925061142e915050565b60009450925050505b94509492505050565b600082600001828154811061144e5761144e611c3e565b9060005260206000200154905092915050565b50805461146d90611a20565b6000825580601f1061147d575050565b601f0160209004906000526020600020908101906108ba91905b808211156114ab5760008155600101611497565b5090565b6001600160a01b03169052565b6001600160a01b0391909116815260200190565b6000602082840312156114e257600080fd5b5035919050565b6001600160a01b03811681146108ba57600080fd5b80356104af816114e9565b6000806040838503121561151c57600080fd5b82359150602083013561152e816114e9565b809150509250929050565b60006020828403121561154b57600080fd5b8135610527816114e9565b6000806000806080858703121561156c57600080fd5b8435611577816114e9565b93506020850135611587816114e9565b925060408501359150606085013561159e816114e9565b939692955090935050565b600080604083850312156115bc57600080fd5b82356115c7816114e9565b946020939093013593505050565b600080604083850312156115e857600080fd5b50508035926020909101359150565b6020808252825182820181905260009190848201906040850190845b8181101561162f57835183529284019291840191600101611613565b50909695505050505050565b60008060006060848603121561165057600080fd5b833561165b816114e9565b95602085013595506040909401359392505050565b60005b8381101561168b578181015183820152602001611673565b50506000910152565b600081518084526116ac816020860160208601611670565b601f01601f19169290920160200192915050565b602081526116d26020820183516114af565b600060208301516116e660408401826114af565b5060408301516116f960608401826114af565b506060830151801515608084015250608083015160a08381019190915283015160c08084019190915283015160e08084019190915283015161010080840191909152830151610120808401919091528301516101408084019190915283015161016080840191909152830151610180808401919091528301516101a0808401526105656101c0840182611694565b634e487b7160e01b600052604160045260246000fd5b6040516101a081016001600160401b03811182821017156117c0576117c0611787565b60405290565b80151581146108ba57600080fd5b80356104af816117c6565b600082601f8301126117f057600080fd5b81356001600160401b038082111561180a5761180a611787565b604051601f8301601f19908116603f0116810190828211818310171561183257611832611787565b8160405283815286602085880101111561184b57600080fd5b836020870160208301376000602085830101528094505050505092915050565b60008060006060848603121561188057600080fd5b833592506020840135611892816114e9565b915060408401356001600160401b03808211156118ae57600080fd5b908501906101a082880312156118c357600080fd5b6118cb61179d565b6118d4836114fe565b81526118e2602084016114fe565b60208201526118f3604084016114fe565b6040820152611904606084016117d4565b60608201526080830135608082015260a083013560a082015260c083013560c082015260e083013560e0820152610100808401358183015250610120808401358183015250610140808401358183015250610160808401358183015250610180808401358381111561197557600080fd5b6119818a8287016117df565b8284015250508093505050509250925092565b600080600080600060a086880312156119ac57600080fd5b85356119b7816114e9565b945060208601356119c7816114e9565b93506040860135925060608601356119de816114e9565b915060808601356119ee816117c6565b809150509295509295909350565b6020808252600a908201526921a7a72a2927a62622a960b11b604082015260600190565b600181811c90821680611a3457607f821691505b602082108103611a5457634e487b7160e01b600052602260045260246000fd5b50919050565b601f82111561048d57600081815260208120601f850160051c81016020861015611a815750805b601f850160051c820191505b8181101561093d57828155600101611a8d565b81516001600160401b03811115611ab957611ab9611787565b611acd81611ac78454611a20565b84611a5a565b602080601f831160018114611b025760008415611aea5750858301515b600019600386901b1c1916600185901b17855561093d565b600085815260208120601f198616915b82811015611b3157888601518255948401946001909101908401611b12565b5085821015611b4f5787850151600019600388901b60f8161c191681555b5050505050600190811b01905550565b6001600160a01b03929092168252602082015260400190565b600060208284031215611b8a57600080fd5b8151610527816117c6565b6001600160a01b038316815260406020820181905260009061056590830184611694565b600060208284031215611bcb57600080fd5b5051919050565b634e487b7160e01b600052601160045260246000fd5b8181038181111561038557610385611bd2565b6020808252601690820152752130b7359d1034b73b30b634b2103932b1b2b4bb32b960511b604082015260600190565b6020815260006105276020830184611694565b634e487b7160e01b600052603260045260246000fd5b600060018201611c6657611c66611bd2565b5060010190565b600060208284031215611c7f57600080fd5b8151610527816114e9565b634e487b7160e01b600052603160045260246000fd5b60008251611cb2818460208701611670565b919091019291505056fea2646970667358221220a0ff18a30b74f13cadcf85dc778942e608a628965c1665f7d7db7212adef59d664736f6c63430008100033",
  "devdoc": {
    "kind": "dev",
    "methods": {},
    "version": 1
  },
  "userdoc": {
    "kind": "user",
    "methods": {},
    "version": 1
  },
  "storageLayout": {
    "storage": [
      {
        "astId": 11956,
        "contract": "contracts/position/PositionStore.sol:PositionStore",
        "label": "gov",
        "offset": 0,
        "slot": "0",
        "type": "t_address"
      },
      {
        "astId": 5231,
        "contract": "contracts/position/PositionStore.sol:PositionStore",
        "label": "tokenBalances",
        "offset": 0,
        "slot": "1",
        "type": "t_mapping(t_address,t_uint256)"
      },
      {
        "astId": 23664,
        "contract": "contracts/position/PositionStore.sol:PositionStore",
        "label": "positions",
        "offset": 0,
        "slot": "2",
        "type": "t_mapping(t_bytes32,t_struct(Props)23644_storage)"
      },
      {
        "astId": 23667,
        "contract": "contracts/position/PositionStore.sol:PositionStore",
        "label": "positionKeys",
        "offset": 0,
        "slot": "3",
        "type": "t_struct(Bytes32Set)4137_storage"
      },
      {
        "astId": 23672,
        "contract": "contracts/position/PositionStore.sol:PositionStore",
        "label": "accountPositionKeys",
        "offset": 0,
        "slot": "5",
        "type": "t_mapping(t_address,t_struct(Bytes32Set)4137_storage)"
      }
    ],
    "types": {
      "t_address": {
        "encoding": "inplace",
        "label": "address",
        "numberOfBytes": "20"
      },
      "t_array(t_bytes32)dyn_storage": {
        "base": "t_bytes32",
        "encoding": "dynamic_array",
        "label": "bytes32[]",
        "numberOfBytes": "32"
      },
      "t_bool": {
        "encoding": "inplace",
        "label": "bool",
        "numberOfBytes": "1"
      },
      "t_bytes32": {
        "encoding": "inplace",
        "label": "bytes32",
        "numberOfBytes": "32"
      },
      "t_bytes_storage": {
        "encoding": "bytes",
        "label": "bytes",
        "numberOfBytes": "32"
      },
      "t_int256": {
        "encoding": "inplace",
        "label": "int256",
        "numberOfBytes": "32"
      },
      "t_mapping(t_address,t_struct(Bytes32Set)4137_storage)": {
        "encoding": "mapping",
        "key": "t_address",
        "label": "mapping(address => struct EnumerableSet.Bytes32Set)",
        "numberOfBytes": "32",
        "value": "t_struct(Bytes32Set)4137_storage"
      },
      "t_mapping(t_address,t_uint256)": {
        "encoding": "mapping",
        "key": "t_address",
        "label": "mapping(address => uint256)",
        "numberOfBytes": "32",
        "value": "t_uint256"
      },
      "t_mapping(t_bytes32,t_struct(Props)23644_storage)": {
        "encoding": "mapping",
        "key": "t_bytes32",
        "label": "mapping(bytes32 => struct Position.Props)",
        "numberOfBytes": "32",
        "value": "t_struct(Props)23644_storage"
      },
      "t_mapping(t_bytes32,t_uint256)": {
        "encoding": "mapping",
        "key": "t_bytes32",
        "label": "mapping(bytes32 => uint256)",
        "numberOfBytes": "32",
        "value": "t_uint256"
      },
      "t_struct(Bytes32Set)4137_storage": {
        "encoding": "inplace",
        "label": "struct EnumerableSet.Bytes32Set",
        "members": [
          {
            "astId": 4136,
            "contract": "contracts/position/PositionStore.sol:PositionStore",
            "label": "_inner",
            "offset": 0,
            "slot": "0",
            "type": "t_struct(Set)3943_storage"
          }
        ],
        "numberOfBytes": "64"
      },
      "t_struct(Props)23644_storage": {
        "encoding": "inplace",
        "label": "struct Position.Props",
        "members": [
          {
            "astId": 23619,
            "contract": "contracts/position/PositionStore.sol:PositionStore",
            "label": "account",
            "offset": 0,
            "slot": "0",
            "type": "t_address"
          },
          {
            "astId": 23621,
            "contract": "contracts/position/PositionStore.sol:PositionStore",
            "label": "market",
            "offset": 0,
            "slot": "1",
            "type": "t_address"
          },
          {
            "astId": 23623,
            "contract": "contracts/position/PositionStore.sol:PositionStore",
            "label": "collateralToken",
            "offset": 0,
            "slot": "2",
            "type": "t_address"
          },
          {
            "astId": 23625,
            "contract": "contracts/position/PositionStore.sol:PositionStore",
            "label": "isLong",
            "offset": 20,
            "slot": "2",
            "type": "t_bool"
          },
          {
            "astId": 23627,
            "contract": "contracts/position/PositionStore.sol:PositionStore",
            "label": "sizeInUsd",
            "offset": 0,
            "slot": "3",
            "type": "t_uint256"
          },
          {
            "astId": 23629,
            "contract": "contracts/position/PositionStore.sol:PositionStore",
            "label": "sizeInTokens",
            "offset": 0,
            "slot": "4",
            "type": "t_uint256"
          },
          {
            "astId": 23631,
            "contract": "contracts/position/PositionStore.sol:PositionStore",
            "label": "collateralAmount",
            "offset": 0,
            "slot": "5",
            "type": "t_uint256"
          },
          {
            "astId": 23633,
            "contract": "contracts/position/PositionStore.sol:PositionStore",
            "label": "borrowingFactor",
            "offset": 0,
            "slot": "6",
            "type": "t_uint256"
          },
          {
            "astId": 23635,
            "contract": "contracts/position/PositionStore.sol:PositionStore",
            "label": "longTokenFundingAmountPerSize",
            "offset": 0,
            "slot": "7",
            "type": "t_int256"
          },
          {
            "astId": 23637,
            "contract": "contracts/position/PositionStore.sol:PositionStore",
            "label": "shortTokenFundingAmountPerSize",
            "offset": 0,
            "slot": "8",
            "type": "t_int256"
          },
          {
            "astId": 23639,
            "contract": "contracts/position/PositionStore.sol:PositionStore",
            "label": "increasedAtBlock",
            "offset": 0,
            "slot": "9",
            "type": "t_uint256"
          },
          {
            "astId": 23641,
            "contract": "contracts/position/PositionStore.sol:PositionStore",
            "label": "decreasedAtBlock",
            "offset": 0,
            "slot": "10",
            "type": "t_uint256"
          },
          {
            "astId": 23643,
            "contract": "contracts/position/PositionStore.sol:PositionStore",
            "label": "data",
            "offset": 0,
            "slot": "11",
            "type": "t_bytes_storage"
          }
        ],
        "numberOfBytes": "384"
      },
      "t_struct(Set)3943_storage": {
        "encoding": "inplace",
        "label": "struct EnumerableSet.Set",
        "members": [
          {
            "astId": 3938,
            "contract": "contracts/position/PositionStore.sol:PositionStore",
            "label": "_values",
            "offset": 0,
            "slot": "0",
            "type": "t_array(t_bytes32)dyn_storage"
          },
          {
            "astId": 3942,
            "contract": "contracts/position/PositionStore.sol:PositionStore",
            "label": "_indexes",
            "offset": 0,
            "slot": "1",
            "type": "t_mapping(t_bytes32,t_uint256)"
          }
        ],
        "numberOfBytes": "64"
      },
      "t_uint256": {
        "encoding": "inplace",
        "label": "uint256",
        "numberOfBytes": "32"
      }
    }
  }
}