{
  "address": "0x1EA350B038E7Ab38298cD8462886C28c7cc0D257",
  "abi": [
    {
      "inputs": [],
      "name": "ACCOUNT",
      "outputs": [
        {
          "internalType": "bytes32",
          "name": "",
          "type": "bytes32"
        }
      ],
      "stateMutability": "view",
      "type": "function"
    },
    {
      "inputs": [],
      "name": "BORROWING_FACTOR",
      "outputs": [
        {
          "internalType": "bytes32",
          "name": "",
          "type": "bytes32"
        }
      ],
      "stateMutability": "view",
      "type": "function"
    },
    {
      "inputs": [],
      "name": "COLLATERAL_AMOUNT",
      "outputs": [
        {
          "internalType": "bytes32",
          "name": "",
          "type": "bytes32"
        }
      ],
      "stateMutability": "view",
      "type": "function"
    },
    {
      "inputs": [],
      "name": "COLLATERAL_TOKEN",
      "outputs": [
        {
          "internalType": "bytes32",
          "name": "",
          "type": "bytes32"
        }
      ],
      "stateMutability": "view",
      "type": "function"
    },
    {
      "inputs": [],
      "name": "DECREASED_AT_BLOCK",
      "outputs": [
        {
          "internalType": "bytes32",
          "name": "",
          "type": "bytes32"
        }
      ],
      "stateMutability": "view",
      "type": "function"
    },
    {
      "inputs": [],
      "name": "INCREASED_AT_BLOCK",
      "outputs": [
        {
          "internalType": "bytes32",
          "name": "",
          "type": "bytes32"
        }
      ],
      "stateMutability": "view",
      "type": "function"
    },
    {
      "inputs": [],
      "name": "IS_LONG",
      "outputs": [
        {
          "internalType": "bytes32",
          "name": "",
          "type": "bytes32"
        }
      ],
      "stateMutability": "view",
      "type": "function"
    },
    {
      "inputs": [],
      "name": "LONG_TOKEN_FUNDING_AMOUNT_PER_SIZE",
      "outputs": [
        {
          "internalType": "bytes32",
          "name": "",
          "type": "bytes32"
        }
      ],
      "stateMutability": "view",
      "type": "function"
    },
    {
      "inputs": [],
      "name": "MARKET",
      "outputs": [
        {
          "internalType": "bytes32",
          "name": "",
          "type": "bytes32"
        }
      ],
      "stateMutability": "view",
      "type": "function"
    },
    {
      "inputs": [],
      "name": "SHORT_TOKEN_FUNDING_AMOUNT_PER_SIZE",
      "outputs": [
        {
          "internalType": "bytes32",
          "name": "",
          "type": "bytes32"
        }
      ],
      "stateMutability": "view",
      "type": "function"
    },
    {
      "inputs": [],
      "name": "SIZE_IN_TOKENS",
      "outputs": [
        {
          "internalType": "bytes32",
          "name": "",
          "type": "bytes32"
        }
      ],
      "stateMutability": "view",
      "type": "function"
    },
    {
      "inputs": [],
      "name": "SIZE_IN_USD",
      "outputs": [
        {
          "internalType": "bytes32",
          "name": "",
          "type": "bytes32"
        }
      ],
      "stateMutability": "view",
      "type": "function"
    },
    {
      "inputs": [
        {
          "internalType": "contract DataStore",
          "name": "dataStore",
          "type": "DataStore"
        },
        {
          "internalType": "bytes32",
          "name": "key",
          "type": "bytes32"
        }
      ],
      "name": "get",
      "outputs": [
        {
          "components": [
            {
              "components": [
                {
                  "internalType": "address",
                  "name": "account",
                  "type": "address"
                },
                {
                  "internalType": "address",
                  "name": "market",
                  "type": "address"
                },
                {
                  "internalType": "address",
                  "name": "collateralToken",
                  "type": "address"
                }
              ],
              "internalType": "struct Position.Addresses",
              "name": "addresses",
              "type": "tuple"
            },
            {
              "components": [
                {
                  "internalType": "uint256",
                  "name": "sizeInUsd",
                  "type": "uint256"
                },
                {
                  "internalType": "uint256",
                  "name": "sizeInTokens",
                  "type": "uint256"
                },
                {
                  "internalType": "uint256",
                  "name": "collateralAmount",
                  "type": "uint256"
                },
                {
                  "internalType": "uint256",
                  "name": "borrowingFactor",
                  "type": "uint256"
                },
                {
                  "internalType": "int256",
                  "name": "longTokenFundingAmountPerSize",
                  "type": "int256"
                },
                {
                  "internalType": "int256",
                  "name": "shortTokenFundingAmountPerSize",
                  "type": "int256"
                },
                {
                  "internalType": "uint256",
                  "name": "increasedAtBlock",
                  "type": "uint256"
                },
                {
                  "internalType": "uint256",
                  "name": "decreasedAtBlock",
                  "type": "uint256"
                }
              ],
              "internalType": "struct Position.Numbers",
              "name": "numbers",
              "type": "tuple"
            },
            {
              "components": [
                {
                  "internalType": "bool",
                  "name": "isLong",
                  "type": "bool"
                }
              ],
              "internalType": "struct Position.Flags",
              "name": "flags",
              "type": "tuple"
            }
          ],
          "internalType": "struct Position.Props",
          "name": "",
          "type": "tuple"
        }
      ],
      "stateMutability": "view",
      "type": "function"
    }
  ],
  "transactionHash": "0x56069256b7ad1eb66ac7e4da6f63a777f2493df997713ded4fe2ad4a10965498",
  "args": [],
  "numDeployments": 1,
  "solcInputHash": "bfcff1dcb3466d4762643d92a17aef63",
  "bytecode": "0x61274161003a600b82828239805160001a60731461002d57634e487b7160e01b600052600060045260246000fd5b30600052607381538281f3fe73000000000000000000000000000000000000000030146080604052600436106100ce5760003560e01c8062821f41146100d357806318ed19e1146100ee57806321cd56bf146101105780633332c5be1461011857806355179790146101205780635ea9cebf1461012857806372374d971461013057806374b6fe1314610138578063a5ec727514610158578063d276322c14610160578063e90524f214610168578063ed955e2014610170578063f46f16c214610178578063f5f1f1a714610180578063fdfc26f314610188575b600080fd5b6100db6101a8565b6040519081526020015b60405180910390f35b8180156100fa57600080fd5b5061010e610109366004612222565b6101d0565b005b6100db610c50565b6100db610c5f565b6100db610c6e565b6100db610c7d565b6100db610c8c565b81801561014457600080fd5b5061010e61015336600461234f565b610c9b565b6100db61159c565b6100db6115ab565b6100db6115ba565b6100db6115c9565b6100db6115d8565b6100db6115e7565b61019b610196366004612391565b6115f6565b6040516100e591906123bd565b6040516020016101b790612461565b6040516020818303038152906040528051906020012081565b826001600160a01b031663c80f4c626040516020016101ee906124a4565b60405160208183030381529060405280519060200120846040518363ffffffff1660e01b81526004016102229291906124cb565b600060405180830381600087803b15801561023c57600080fd5b505af1158015610250573d6000803e3d6000fd5b50505050826001600160a01b031663c80f4c6261027461026f84515190565b612030565b846040518363ffffffff1660e01b81526004016102929291906124cb565b600060405180830381600087803b1580156102ac57600080fd5b505af11580156102c0573d6000803e3d6000fd5b50505050826001600160a01b031663ca446dd9836040516020016102e3906124d9565b6040516020818303038152906040528051906020012060405160200161030a9291906124cb565b6040516020818303038152906040528051906020012061032984515190565b6040518363ffffffff1660e01b81526004016103469291906124fa565b6020604051808303816000875af1158015610365573d6000803e3d6000fd5b505050506040513d601f19601f820116820180604052508101906103899190612511565b50826001600160a01b031663ca446dd9836040516020016103a99061252e565b604051602081830303815290604052805190602001206040516020016103d09291906124cb565b604051602081830303815290604052805190602001206103f284516020015190565b6040518363ffffffff1660e01b815260040161040f9291906124fa565b6020604051808303816000875af115801561042e573d6000803e3d6000fd5b505050506040513d601f19601f820116820180604052508101906104529190612511565b50826001600160a01b031663ca446dd9836040516020016104729061254e565b604051602081830303815290604052805190602001206040516020016104999291906124cb565b604051602081830303815290604052805190602001206104bb84516040015190565b6040518363ffffffff1660e01b81526004016104d89291906124fa565b6020604051808303816000875af11580156104f7573d6000803e3d6000fd5b505050506040513d601f19601f8201168201806040525081019061051b9190612511565b50826001600160a01b031663e2a4853a8360405160200161053b90612578565b604051602081830303815290604052805190602001206040516020016105629291906124cb565b6040516020818303038152906040528051906020012061058484602001515190565b6040518363ffffffff1660e01b81526004016105a19291906124cb565b6020604051808303816000875af11580156105c0573d6000803e3d6000fd5b505050506040513d601f19601f820116820180604052508101906105e4919061259d565b50826001600160a01b031663e2a4853a83604051602001610604906125b6565b6040516020818303038152906040528051906020012060405160200161062b9291906124cb565b6040516020818303038152906040528051906020012061065084602090810151015190565b6040518363ffffffff1660e01b815260040161066d9291906124cb565b6020604051808303816000875af115801561068c573d6000803e3d6000fd5b505050506040513d601f19601f820116820180604052508101906106b0919061259d565b50826001600160a01b031663e2a4853a836040516020016106d0906125de565b604051602081830303815290604052805190602001206040516020016106f79291906124cb565b6040516020818303038152906040528051906020012061071c84602001516040015190565b6040518363ffffffff1660e01b81526004016107399291906124cb565b6020604051808303816000875af1158015610758573d6000803e3d6000fd5b505050506040513d601f19601f8201168201806040525081019061077c919061259d565b50826001600160a01b031663e2a4853a8360405160200161079c90612609565b604051602081830303815290604052805190602001206040516020016107c39291906124cb565b604051602081830303815290604052805190602001206107e884602001516060015190565b6040518363ffffffff1660e01b81526004016108059291906124cb565b6020604051808303816000875af1158015610824573d6000803e3d6000fd5b505050506040513d601f19601f82011682018060405250810190610848919061259d565b50826001600160a01b0316633e49bed08360405160200161086890612633565b6040516020818303038152906040528051906020012060405160200161088f9291906124cb565b604051602081830303815290604052805190602001206108b484602001516080015190565b6040518363ffffffff1660e01b81526004016108d19291906124cb565b6020604051808303816000875af11580156108f0573d6000803e3d6000fd5b505050506040513d601f19601f82011682018060405250810190610914919061259d565b50826001600160a01b0316633e49bed08360405160200161093490612461565b6040516020818303038152906040528051906020012060405160200161095b9291906124cb565b60405160208183030381529060405280519060200120610980846020015160a0015190565b6040518363ffffffff1660e01b815260040161099d9291906124cb565b6020604051808303816000875af11580156109bc573d6000803e3d6000fd5b505050506040513d601f19601f820116820180604052508101906109e0919061259d565b50826001600160a01b031663e2a4853a83604051602001610a0090612675565b60405160208183030381529060405280519060200120604051602001610a279291906124cb565b60405160208183030381529060405280519060200120610a4c846020015160c0015190565b6040518363ffffffff1660e01b8152600401610a699291906124cb565b6020604051808303816000875af1158015610a88573d6000803e3d6000fd5b505050506040513d601f19601f82011682018060405250810190610aac919061259d565b50826001600160a01b031663e2a4853a83604051602001610acc906126a1565b60405160208183030381529060405280519060200120604051602001610af39291906124cb565b60405160208183030381529060405280519060200120610b18846020015160e0015190565b6040518363ffffffff1660e01b8152600401610b359291906124cb565b6020604051808303816000875af1158015610b54573d6000803e3d6000fd5b505050506040513d601f19601f82011682018060405250810190610b78919061259d565b50826001600160a01b031663abfdcced83604051602001610b98906126cd565b60405160208183030381529060405280519060200120604051602001610bbf9291906124cb565b60405160208183030381529060405280519060200120610be184604001515190565b6040516001600160e01b031960e085901b1681526004810192909252151560248201526044016020604051808303816000875af1158015610c26573d6000803e3d6000fd5b505050506040513d601f19601f82011682018060405250810190610c4a91906126ee565b50505050565b6040516020016101b7906125b6565b6040516020016101b7906126cd565b6040516020016101b790612609565b6040516020016101b790612633565b6040516020016101b7906126a1565b826001600160a01b0316639921c3cc604051602001610cb9906124a4565b60405160208183030381529060405280519060200120846040518363ffffffff1660e01b8152600401610ced9291906124cb565b600060405180830381600087803b158015610d0757600080fd5b505af1158015610d1b573d6000803e3d6000fd5b50505050826001600160a01b0316639921c3cc610d3783612030565b846040518363ffffffff1660e01b8152600401610d559291906124cb565b600060405180830381600087803b158015610d6f57600080fd5b505af1158015610d83573d6000803e3d6000fd5b50505050826001600160a01b0316639faf6fb683604051602001610da6906124d9565b60405160208183030381529060405280519060200120604051602001610dcd9291906124cb565b604051602081830303815290604052805190602001206040518263ffffffff1660e01b8152600401610e0191815260200190565b600060405180830381600087803b158015610e1b57600080fd5b505af1158015610e2f573d6000803e3d6000fd5b50505050826001600160a01b0316639faf6fb683604051602001610e529061252e565b60405160208183030381529060405280519060200120604051602001610e799291906124cb565b604051602081830303815290604052805190602001206040518263ffffffff1660e01b8152600401610ead91815260200190565b600060405180830381600087803b158015610ec757600080fd5b505af1158015610edb573d6000803e3d6000fd5b50505050826001600160a01b0316639faf6fb683604051602001610efe9061254e565b60405160208183030381529060405280519060200120604051602001610f259291906124cb565b604051602081830303815290604052805190602001206040518263ffffffff1660e01b8152600401610f5991815260200190565b600060405180830381600087803b158015610f7357600080fd5b505af1158015610f87573d6000803e3d6000fd5b50505050826001600160a01b03166342c3bd9683604051602001610faa90612578565b60405160208183030381529060405280519060200120604051602001610fd19291906124cb565b604051602081830303815290604052805190602001206040518263ffffffff1660e01b815260040161100591815260200190565b600060405180830381600087803b15801561101f57600080fd5b505af1158015611033573d6000803e3d6000fd5b50505050826001600160a01b03166342c3bd9683604051602001611056906125b6565b6040516020818303038152906040528051906020012060405160200161107d9291906124cb565b604051602081830303815290604052805190602001206040518263ffffffff1660e01b81526004016110b191815260200190565b600060405180830381600087803b1580156110cb57600080fd5b505af11580156110df573d6000803e3d6000fd5b50505050826001600160a01b03166342c3bd9683604051602001611102906125de565b604051602081830303815290604052805190602001206040516020016111299291906124cb565b604051602081830303815290604052805190602001206040518263ffffffff1660e01b815260040161115d91815260200190565b600060405180830381600087803b15801561117757600080fd5b505af115801561118b573d6000803e3d6000fd5b50505050826001600160a01b03166342c3bd96836040516020016111ae90612609565b604051602081830303815290604052805190602001206040516020016111d59291906124cb565b604051602081830303815290604052805190602001206040518263ffffffff1660e01b815260040161120991815260200190565b600060405180830381600087803b15801561122357600080fd5b505af1158015611237573d6000803e3d6000fd5b50505050826001600160a01b031663e62461ce8360405160200161125a90612633565b604051602081830303815290604052805190602001206040516020016112819291906124cb565b604051602081830303815290604052805190602001206040518263ffffffff1660e01b81526004016112b591815260200190565b600060405180830381600087803b1580156112cf57600080fd5b505af11580156112e3573d6000803e3d6000fd5b50505050826001600160a01b031663e62461ce8360405160200161130690612461565b6040516020818303038152906040528051906020012060405160200161132d9291906124cb565b604051602081830303815290604052805190602001206040518263ffffffff1660e01b815260040161136191815260200190565b600060405180830381600087803b15801561137b57600080fd5b505af115801561138f573d6000803e3d6000fd5b50505050826001600160a01b03166342c3bd96836040516020016113b290612675565b604051602081830303815290604052805190602001206040516020016113d99291906124cb565b604051602081830303815290604052805190602001206040518263ffffffff1660e01b815260040161140d91815260200190565b600060405180830381600087803b15801561142757600080fd5b505af115801561143b573d6000803e3d6000fd5b50505050826001600160a01b03166342c3bd968360405160200161145e906126a1565b604051602081830303815290604052805190602001206040516020016114859291906124cb565b604051602081830303815290604052805190602001206040518263ffffffff1660e01b81526004016114b991815260200190565b600060405180830381600087803b1580156114d357600080fd5b505af11580156114e7573d6000803e3d6000fd5b50505050826001600160a01b0316639fe7ac128360405160200161150a906126cd565b604051602081830303815290604052805190602001206040516020016115319291906124cb565b604051602081830303815290604052805190602001206040518263ffffffff1660e01b815260040161156591815260200190565b600060405180830381600087803b15801561157f57600080fd5b505af1158015611593573d6000803e3d6000fd5b50505050505050565b6040516020016101b790612675565b6040516020016101b7906125de565b6040516020016101b7906124d9565b6040516020016101b790612578565b6040516020016101b79061252e565b6040516020016101b79061254e565b6115fe6120b0565b6116066120b0565b836001600160a01b03166391d4403c604051602001611624906124a4565b60405160208183030381529060405280519060200120856040518363ffffffff1660e01b81526004016116589291906124cb565b602060405180830381865afa158015611675573d6000803e3d6000fd5b505050506040513d601f19601f8201168201806040525081019061169991906126ee565b6116a457905061202a565b611773846001600160a01b03166321f8a721856040516020016116c6906124d9565b604051602081830303815290604052805190602001206040516020016116ed9291906124cb565b604051602081830303815290604052805190602001206040518263ffffffff1660e01b815260040161172191815260200190565b602060405180830381865afa15801561173e573d6000803e3d6000fd5b505050506040513d601f19601f820116820180604052508101906117629190612511565b82516001600160a01b039091169052565b611846846001600160a01b03166321f8a721856040516020016117959061252e565b604051602081830303815290604052805190602001206040516020016117bc9291906124cb565b604051602081830303815290604052805190602001206040518263ffffffff1660e01b81526004016117f091815260200190565b602060405180830381865afa15801561180d573d6000803e3d6000fd5b505050506040513d601f19601f820116820180604052508101906118319190612511565b82516001600160a01b03909116602090910152565b611919846001600160a01b03166321f8a721856040516020016118689061254e565b6040516020818303038152906040528051906020012060405160200161188f9291906124cb565b604051602081830303815290604052805190602001206040518263ffffffff1660e01b81526004016118c391815260200190565b602060405180830381865afa1580156118e0573d6000803e3d6000fd5b505050506040513d601f19601f820116820180604052508101906119049190612511565b82516001600160a01b03909116604090910152565b6119df846001600160a01b031663bd02d0f58560405160200161193b90612578565b604051602081830303815290604052805190602001206040516020016119629291906124cb565b604051602081830303815290604052805190602001206040518263ffffffff1660e01b815260040161199691815260200190565b602060405180830381865afa1580156119b3573d6000803e3d6000fd5b505050506040513d601f19601f820116820180604052508101906119d7919061259d565b602083015152565b611aa7846001600160a01b031663bd02d0f585604051602001611a01906125b6565b60405160208183030381529060405280519060200120604051602001611a289291906124cb565b604051602081830303815290604052805190602001206040518263ffffffff1660e01b8152600401611a5c91815260200190565b602060405180830381865afa158015611a79573d6000803e3d6000fd5b505050506040513d601f19601f82011682018060405250810190611a9d919061259d565b6020808401510152565b611b70846001600160a01b031663bd02d0f585604051602001611ac9906125de565b60405160208183030381529060405280519060200120604051602001611af09291906124cb565b604051602081830303815290604052805190602001206040518263ffffffff1660e01b8152600401611b2491815260200190565b602060405180830381865afa158015611b41573d6000803e3d6000fd5b505050506040513d601f19601f82011682018060405250810190611b65919061259d565b602083015160400152565b611c39846001600160a01b031663bd02d0f585604051602001611b9290612609565b60405160208183030381529060405280519060200120604051602001611bb99291906124cb565b604051602081830303815290604052805190602001206040518263ffffffff1660e01b8152600401611bed91815260200190565b602060405180830381865afa158015611c0a573d6000803e3d6000fd5b505050506040513d601f19601f82011682018060405250810190611c2e919061259d565b602083015160600152565b611d02846001600160a01b031663dc97d96285604051602001611c5b90612633565b60405160208183030381529060405280519060200120604051602001611c829291906124cb565b604051602081830303815290604052805190602001206040518263ffffffff1660e01b8152600401611cb691815260200190565b602060405180830381865afa158015611cd3573d6000803e3d6000fd5b505050506040513d601f19601f82011682018060405250810190611cf7919061259d565b602083015160800152565b611dcb846001600160a01b031663dc97d96285604051602001611d2490612461565b60405160208183030381529060405280519060200120604051602001611d4b9291906124cb565b604051602081830303815290604052805190602001206040518263ffffffff1660e01b8152600401611d7f91815260200190565b602060405180830381865afa158015611d9c573d6000803e3d6000fd5b505050506040513d601f19601f82011682018060405250810190611dc0919061259d565b602083015160a00152565b611e94846001600160a01b031663bd02d0f585604051602001611ded90612675565b60405160208183030381529060405280519060200120604051602001611e149291906124cb565b604051602081830303815290604052805190602001206040518263ffffffff1660e01b8152600401611e4891815260200190565b602060405180830381865afa158015611e65573d6000803e3d6000fd5b505050506040513d601f19601f82011682018060405250810190611e89919061259d565b602083015160c00152565b611f5d846001600160a01b031663bd02d0f585604051602001611eb6906126a1565b60405160208183030381529060405280519060200120604051602001611edd9291906124cb565b604051602081830303815290604052805190602001206040518263ffffffff1660e01b8152600401611f1191815260200190565b602060405180830381865afa158015611f2e573d6000803e3d6000fd5b505050506040513d601f19601f82011682018060405250810190611f52919061259d565b602083015160e00152565b612027846001600160a01b0316637ae1cfca85604051602001611f7f906126cd565b60405160208183030381529060405280519060200120604051602001611fa69291906124cb565b604051602081830303815290604052805190602001206040518263ffffffff1660e01b8152600401611fda91815260200190565b602060405180830381865afa158015611ff7573d6000803e3d6000fd5b505050506040513d601f19601f8201168201806040525081019061201b91906126ee565b60408301519015159052565b90505b92915050565b600060405160200161206b906020808252601590820152741050d0d3d5539517d413d4d2551253d397d31254d5605a1b604082015260600190565b60405160208183030381529060405280519060200120826040516020016120939291906124fa565b604051602081830303815290604052805190602001209050919050565b6040805160c081019091526000606082018181526080830182905260a08301919091528190815260200161212260405180610100016040528060008152602001600081526020016000815260200160008152602001600081526020016000815260200160008152602001600081525090565b81526040805160208181019092526000815291015290565b6001600160a01b038116811461214f57600080fd5b50565b604051606081016001600160401b038111828210171561218257634e487b7160e01b600052604160045260246000fd5b60405290565b60405161010081016001600160401b038111828210171561218257634e487b7160e01b600052604160045260246000fd5b801515811461214f57600080fd5b6000602082840312156121d957600080fd5b604051602081016001600160401b038111828210171561220957634e487b7160e01b600052604160045260246000fd5b604052905080823561221a816121b9565b905292915050565b60008060008385036101c081121561223957600080fd5b84356122448161213a565b935060208501359250603f1981016101808082121561226257600080fd5b61226a612152565b606083121561227857600080fd5b612280612152565b925060408801356122908161213a565b835260608801356122a08161213a565b602084015260808801356122b38161213a565b604084015291825261010091609f1984018313156122d057600080fd5b6122d8612188565b935060a0880135845260c0880135602085015260e08801356040850152828801356060850152610120880135608085015261014088013560a085015261016088013560c08501528188013560e085015283602082015261233c896101a08a016121c7565b6040820152809450505050509250925092565b60008060006060848603121561236457600080fd5b833561236f8161213a565b92506020840135915060408401356123868161213a565b809150509250925092565b600080604083850312156123a457600080fd5b82356123af8161213a565b946020939093013593505050565b600061018082019050825160018060a01b03808251168452806020830151166020850152806040830151166040850152505060208301518051606084015260208101516080840152604081015160a0840152606081015160c0840152608081015160e084015260a081015161010084015260c081015161012084015260e081015161014084015250604083015161245a6101608401825115159052565b5092915050565b60208082526023908201527f53484f52545f544f4b454e5f46554e44494e475f414d4f554e545f5045525f53604082015262495a4560e81b606082015260800190565b6020808252600d908201526c1413d4d2551253d397d31254d5609a1b604082015260600190565b918252602082015260400190565b6020808252600790820152661050d0d3d5539560ca1b604082015260600190565b9182526001600160a01b0316602082015260400190565b60006020828403121561252357600080fd5b81516120278161213a565b60208082526006908201526513505492d15560d21b604082015260600190565b60208082526010908201526f21a7a62620aa22a920a62faa27a5a2a760811b604082015260600190565b6020808252600b908201526a14d2569157d25397d554d160aa1b604082015260600190565b6000602082840312156125af57600080fd5b5051919050565b6020808252600e908201526d53495a455f494e5f544f4b454e5360901b604082015260600190565b60208082526011908201527010d3d31310551154905317d05353d55395607a1b604082015260600190565b60208082526010908201526f2127a92927aba4a723afa320a1aa27a960811b604082015260600190565b60208082526022908201527f4c4f4e475f544f4b454e5f46554e44494e475f414d4f554e545f5045525f53496040820152615a4560f01b606082015260800190565b602080825260129082015271494e435245415345445f41545f424c4f434b60701b604082015260600190565b6020808252601290820152714445435245415345445f41545f424c4f434b60701b604082015260600190565b60208082526007908201526649535f4c4f4e4760c81b604082015260600190565b60006020828403121561270057600080fd5b8151612027816121b956fea26469706673582212202ae0ced152c293a182ad911469f029b9d622a2ab5620ac049c753689eb7088da64736f6c63430008100033",
  "libraries": {},
  "devdoc": {
    "details": "Library for position storage functions",
    "kind": "dev",
    "methods": {},
    "title": "PositionStoreUtils",
    "version": 1
  },
  "userdoc": {
    "kind": "user",
    "methods": {},
    "version": 1
  },
  "storageLayout": {
    "storage": [],
    "types": null
  }
}