{
  "address": "0xCcF73F4Dcbbb573296BFA656b754Fe94BB957d62",
  "abi": [
    {
      "inputs": [
        {
          "internalType": "address",
          "name": "msgSender",
          "type": "address"
        },
        {
          "internalType": "string",
          "name": "role",
          "type": "string"
        }
      ],
      "name": "Unauthorized",
      "type": "error"
    },
    {
      "anonymous": false,
      "inputs": [
        {
          "indexed": false,
          "internalType": "bytes32",
          "name": "code",
          "type": "bytes32"
        },
        {
          "indexed": false,
          "internalType": "address",
          "name": "newAccount",
          "type": "address"
        }
      ],
      "name": "GovSetCodeOwner",
      "type": "event"
    },
    {
      "anonymous": false,
      "inputs": [
        {
          "indexed": false,
          "internalType": "address",
          "name": "account",
          "type": "address"
        },
        {
          "indexed": false,
          "internalType": "bytes32",
          "name": "code",
          "type": "bytes32"
        }
      ],
      "name": "RegisterCode",
      "type": "event"
    },
    {
      "anonymous": false,
      "inputs": [
        {
          "indexed": false,
          "internalType": "address",
          "name": "account",
          "type": "address"
        },
        {
          "indexed": false,
          "internalType": "address",
          "name": "newAccount",
          "type": "address"
        },
        {
          "indexed": false,
          "internalType": "bytes32",
          "name": "code",
          "type": "bytes32"
        }
      ],
      "name": "SetCodeOwner",
      "type": "event"
    },
    {
      "anonymous": false,
      "inputs": [
        {
          "indexed": false,
          "internalType": "address",
          "name": "prevGov",
          "type": "address"
        },
        {
          "indexed": false,
          "internalType": "address",
          "name": "nextGov",
          "type": "address"
        }
      ],
      "name": "SetGov",
      "type": "event"
    },
    {
      "anonymous": false,
      "inputs": [
        {
          "indexed": false,
          "internalType": "address",
          "name": "handler",
          "type": "address"
        },
        {
          "indexed": false,
          "internalType": "bool",
          "name": "isActive",
          "type": "bool"
        }
      ],
      "name": "SetHandler",
      "type": "event"
    },
    {
      "anonymous": false,
      "inputs": [
        {
          "indexed": false,
          "internalType": "address",
          "name": "referrer",
          "type": "address"
        },
        {
          "indexed": false,
          "internalType": "uint256",
          "name": "discountShare",
          "type": "uint256"
        }
      ],
      "name": "SetReferrerDiscountShare",
      "type": "event"
    },
    {
      "anonymous": false,
      "inputs": [
        {
          "indexed": false,
          "internalType": "address",
          "name": "referrer",
          "type": "address"
        },
        {
          "indexed": false,
          "internalType": "uint256",
          "name": "tierId",
          "type": "uint256"
        }
      ],
      "name": "SetReferrerTier",
      "type": "event"
    },
    {
      "anonymous": false,
      "inputs": [
        {
          "indexed": false,
          "internalType": "uint256",
          "name": "tierId",
          "type": "uint256"
        },
        {
          "indexed": false,
          "internalType": "uint256",
          "name": "totalRebate",
          "type": "uint256"
        },
        {
          "indexed": false,
          "internalType": "uint256",
          "name": "discountShare",
          "type": "uint256"
        }
      ],
      "name": "SetTier",
      "type": "event"
    },
    {
      "anonymous": false,
      "inputs": [
        {
          "indexed": false,
          "internalType": "address",
          "name": "account",
          "type": "address"
        },
        {
          "indexed": false,
          "internalType": "bytes32",
          "name": "code",
          "type": "bytes32"
        }
      ],
      "name": "SetTraderReferralCode",
      "type": "event"
    },
    {
      "inputs": [],
      "name": "BASIS_POINTS",
      "outputs": [
        {
          "internalType": "uint256",
          "name": "",
          "type": "uint256"
        }
      ],
      "stateMutability": "view",
      "type": "function"
    },
    {
      "inputs": [
        {
          "internalType": "bytes32",
          "name": "",
          "type": "bytes32"
        }
      ],
      "name": "codeOwners",
      "outputs": [
        {
          "internalType": "address",
          "name": "",
          "type": "address"
        }
      ],
      "stateMutability": "view",
      "type": "function"
    },
    {
      "inputs": [
        {
          "internalType": "address",
          "name": "_account",
          "type": "address"
        }
      ],
      "name": "getTraderReferralInfo",
      "outputs": [
        {
          "internalType": "bytes32",
          "name": "",
          "type": "bytes32"
        },
        {
          "internalType": "address",
          "name": "",
          "type": "address"
        }
      ],
      "stateMutability": "view",
      "type": "function"
    },
    {
      "inputs": [],
      "name": "gov",
      "outputs": [
        {
          "internalType": "address",
          "name": "",
          "type": "address"
        }
      ],
      "stateMutability": "view",
      "type": "function"
    },
    {
      "inputs": [
        {
          "internalType": "bytes32",
          "name": "_code",
          "type": "bytes32"
        },
        {
          "internalType": "address",
          "name": "_newAccount",
          "type": "address"
        }
      ],
      "name": "govSetCodeOwner",
      "outputs": [],
      "stateMutability": "nonpayable",
      "type": "function"
    },
    {
      "inputs": [
        {
          "internalType": "address",
          "name": "",
          "type": "address"
        }
      ],
      "name": "isHandler",
      "outputs": [
        {
          "internalType": "bool",
          "name": "",
          "type": "bool"
        }
      ],
      "stateMutability": "view",
      "type": "function"
    },
    {
      "inputs": [
        {
          "internalType": "address",
          "name": "",
          "type": "address"
        }
      ],
      "name": "referrerDiscountShares",
      "outputs": [
        {
          "internalType": "uint256",
          "name": "",
          "type": "uint256"
        }
      ],
      "stateMutability": "view",
      "type": "function"
    },
    {
      "inputs": [
        {
          "internalType": "address",
          "name": "",
          "type": "address"
        }
      ],
      "name": "referrerTiers",
      "outputs": [
        {
          "internalType": "uint256",
          "name": "",
          "type": "uint256"
        }
      ],
      "stateMutability": "view",
      "type": "function"
    },
    {
      "inputs": [
        {
          "internalType": "bytes32",
          "name": "_code",
          "type": "bytes32"
        }
      ],
      "name": "registerCode",
      "outputs": [],
      "stateMutability": "nonpayable",
      "type": "function"
    },
    {
      "inputs": [
        {
          "internalType": "bytes32",
          "name": "_code",
          "type": "bytes32"
        },
        {
          "internalType": "address",
          "name": "_newAccount",
          "type": "address"
        }
      ],
      "name": "setCodeOwner",
      "outputs": [],
      "stateMutability": "nonpayable",
      "type": "function"
    },
    {
      "inputs": [
        {
          "internalType": "address",
          "name": "_gov",
          "type": "address"
        }
      ],
      "name": "setGov",
      "outputs": [],
      "stateMutability": "nonpayable",
      "type": "function"
    },
    {
      "inputs": [
        {
          "internalType": "address",
          "name": "_handler",
          "type": "address"
        },
        {
          "internalType": "bool",
          "name": "_isActive",
          "type": "bool"
        }
      ],
      "name": "setHandler",
      "outputs": [],
      "stateMutability": "nonpayable",
      "type": "function"
    },
    {
      "inputs": [
        {
          "internalType": "uint256",
          "name": "_discountShare",
          "type": "uint256"
        }
      ],
      "name": "setReferrerDiscountShare",
      "outputs": [],
      "stateMutability": "nonpayable",
      "type": "function"
    },
    {
      "inputs": [
        {
          "internalType": "address",
          "name": "_referrer",
          "type": "address"
        },
        {
          "internalType": "uint256",
          "name": "_tierId",
          "type": "uint256"
        }
      ],
      "name": "setReferrerTier",
      "outputs": [],
      "stateMutability": "nonpayable",
      "type": "function"
    },
    {
      "inputs": [
        {
          "internalType": "uint256",
          "name": "_tierId",
          "type": "uint256"
        },
        {
          "internalType": "uint256",
          "name": "_totalRebate",
          "type": "uint256"
        },
        {
          "internalType": "uint256",
          "name": "_discountShare",
          "type": "uint256"
        }
      ],
      "name": "setTier",
      "outputs": [],
      "stateMutability": "nonpayable",
      "type": "function"
    },
    {
      "inputs": [
        {
          "internalType": "address",
          "name": "_account",
          "type": "address"
        },
        {
          "internalType": "bytes32",
          "name": "_code",
          "type": "bytes32"
        }
      ],
      "name": "setTraderReferralCode",
      "outputs": [],
      "stateMutability": "nonpayable",
      "type": "function"
    },
    {
      "inputs": [
        {
          "internalType": "bytes32",
          "name": "_code",
          "type": "bytes32"
        }
      ],
      "name": "setTraderReferralCodeByUser",
      "outputs": [],
      "stateMutability": "nonpayable",
      "type": "function"
    },
    {
      "inputs": [
        {
          "internalType": "uint256",
          "name": "",
          "type": "uint256"
        }
      ],
      "name": "tiers",
      "outputs": [
        {
          "internalType": "uint256",
          "name": "totalRebate",
          "type": "uint256"
        },
        {
          "internalType": "uint256",
          "name": "discountShare",
          "type": "uint256"
        }
      ],
      "stateMutability": "view",
      "type": "function"
    },
    {
      "inputs": [
        {
          "internalType": "address",
          "name": "",
          "type": "address"
        }
      ],
      "name": "traderReferralCodes",
      "outputs": [
        {
          "internalType": "bytes32",
          "name": "",
          "type": "bytes32"
        }
      ],
      "stateMutability": "view",
      "type": "function"
    }
  ],
  "transactionHash": "0x3940589282b3032afa5041da51c3aa7513bfe3be9f819fbf33ba308763ad235d",
  "args": [],
  "numDeployments": 1,
  "solcInputHash": "635dda53de9b7a48407bbc874989be1e",
  "bytecode": "0x608060405234801561001057600080fd5b5061001a3361001f565b610080565b600080546001600160a01b038381166001600160a01b031983168117909355604080519190921680825260208201939093527f53351836099c03ffc3b1727d8abd4b0222afa87d4ed76ae3102d51369ef7f785910160405180910390a15050565b610bd48061008f6000396000f3fe608060405234801561001057600080fd5b50600436106100f15760003560e01c8063039af9eb146100f657806312d43a51146101375780631582a0181461016257806336def2c8146101905780633fb8b323146101a557806346ea87af146101b8578063534ef883146101eb57806356b4b2ad1461020c57806371a6a7901461021f578063836a01871461023f57806385725b58146102525780639c8e2de9146102725780639cb7de4b14610285578063c8b3c46014610298578063cfad57a2146102c1578063dfcfa250146102d4578063e1e01bf3146102e7578063e1f1c4a7146102fa578063ed84313414610303575b600080fd5b61011d610104366004610979565b6003602052600090815260409020805460019091015482565b604080519283526020830191909152015b60405180910390f35b60005461014a906001600160a01b031681565b6040516001600160a01b03909116815260200161012e565b6101826101703660046109ae565b60026020526000908152604090205481565b60405190815260200161012e565b6101a361019e366004610979565b610316565b005b6101a36101b33660046109d0565b61040a565b6101db6101c63660046109ae565b60046020526000908152604090205460ff1681565b604051901515815260200161012e565b6101fe6101f93660046109ae565b610490565b60405161012e9291906109fa565b6101a361021a3660046109d0565b6104d6565b61018261022d3660046109ae565b60016020526000908152604090205481565b6101a361024d366004610a11565b610513565b6101826102603660046109ae565b60066020526000908152604090205481565b6101a3610280366004610979565b61063c565b6101a3610293366004610a3d565b6106a0565b61014a6102a6366004610979565b6005602052600090815260409020546001600160a01b031681565b6101a36102cf3660046109ae565b610729565b6101a36102e2366004610a79565b610762565b6101a36102f5366004610979565b610805565b61018261271081565b6101a3610311366004610a79565b61080f565b8061033c5760405162461bcd60e51b815260040161033390610aa5565b60405180910390fd5b6000818152600560205260409020546001600160a01b0316156103ad5760405162461bcd60e51b8152602060048201526024808201527f526566657272616c53746f726167653a20636f646520616c72656164792065786044820152636973747360e01b6064820152608401610333565b6000818152600560205260409081902080546001600160a01b0319163390811790915590517f04f82286a2a3b2ee5c8555de8304dfe2ea70991613213184b73a9e408d2d8029916103ff918490610adc565b60405180910390a150565b6000546001600160a01b03163314610437573360405163a35b150b60e01b81526004016103339190610af5565b6001600160a01b03821660009081526002602052604090819020829055517f7696855cdbb94bb5a44cb0a95caff6f29173aa1cbfba193834b12b90827ce2bc906104849084908490610adc565b60405180910390a15050565b6001600160a01b03811660009081526006602052604081205481908181156104cc57506000818152600560205260409020546001600160a01b03165b9094909350915050565b3360009081526004602052604090205460ff166105055760405162461bcd60e51b815260040161033390610b24565b61050f82826108d2565b5050565b6000546001600160a01b03163314610540573360405163a35b150b60e01b81526004016103339190610af5565b61271082111561059e5760405162461bcd60e51b8152602060048201526024808201527f526566657272616c53746f726167653a20696e76616c696420746f74616c52656044820152636261746560e01b6064820152608401610333565b6127108111156105c05760405162461bcd60e51b815260040161033390610b58565b600083815260036020818152604080842081518083018352878152808401878152958990529383528351815593516001909401939093558251868152908101859052918201839052907f4ebd23a492b2bd79586cb57cae40d7793408265f20320f68b478b971e696f4c79060600160405180910390a150505050565b61271081111561065e5760405162461bcd60e51b815260040161033390610b58565b3360008181526001602052604090819020839055517fbd224f3917462b0fa80805fe3ec29be3a37f664955aad6224e5ece036224c429916103ff918490610adc565b6000546001600160a01b031633146106cd573360405163a35b150b60e01b81526004016103339190610af5565b6001600160a01b038216600081815260046020908152604091829020805460ff19168515159081179091558251938452908301527fd373464a39404e5f98fdb4b152b8ba9a094561e97e5c4b4ea11eb18cd9e6695e9101610484565b6000546001600160a01b03163314610756573360405163a35b150b60e01b81526004016103339190610af5565b61075f8161091f565b50565b6000546001600160a01b0316331461078f573360405163a35b150b60e01b81526004016103339190610af5565b816107ac5760405162461bcd60e51b815260040161033390610aa5565b6000828152600560205260409081902080546001600160a01b0319166001600160a01b038416179055517f6431f88c655dd0e2b8d09b6405c007c515c66d67f2998e69c902873a8c8f3e979061048490849084906109fa565b61075f33826108d2565b8161082c5760405162461bcd60e51b815260040161033390610aa5565b6000828152600560205260409020546001600160a01b03163381146108635760405162461bcd60e51b815260040161033390610b24565b60008381526005602090815260409182902080546001600160a01b0319166001600160a01b0386169081179091558251338152918201529081018490527f5640856798d41ce9ca0a109b54c20a06eb99ba9c36ab4547115dafb8473cf3979060600160405180910390a1505050565b6001600160a01b03821660009081526006602052604090819020829055517f43825f14567dda057e821be2e51a5aa79aa51f3907a647e3ed2bd486a01050f1906104849084908490610adc565b600080546001600160a01b038381166001600160a01b031983168117909355604080519190921680825260208201939093527f53351836099c03ffc3b1727d8abd4b0222afa87d4ed76ae3102d51369ef7f7859101610484565b60006020828403121561098b57600080fd5b5035919050565b80356001600160a01b03811681146109a957600080fd5b919050565b6000602082840312156109c057600080fd5b6109c982610992565b9392505050565b600080604083850312156109e357600080fd5b6109ec83610992565b946020939093013593505050565b9182526001600160a01b0316602082015260400190565b600080600060608486031215610a2657600080fd5b505081359360208301359350604090920135919050565b60008060408385031215610a5057600080fd5b610a5983610992565b915060208301358015158114610a6e57600080fd5b809150509250929050565b60008060408385031215610a8c57600080fd5b82359150610a9c60208401610992565b90509250929050565b6020808252601e908201527f526566657272616c53746f726167653a20696e76616c6964205f636f64650000604082015260600190565b6001600160a01b03929092168252602082015260400190565b6001600160a01b039190911681526040602082018190526003908201526223a7ab60e91b606082015260800190565b6020808252601a90820152792932b332b93930b629ba37b930b3b29d103337b93134b23232b760311b604082015260600190565b60208082526026908201527f526566657272616c53746f726167653a20696e76616c696420646973636f756e60408201526574536861726560d01b60608201526080019056fea26469706673582212206e5127986fca32508614e2de500ef188b72e06d54fb9fe1728fa0f04389ad0c464736f6c63430008100033",
  "libraries": {},
  "devdoc": {
    "kind": "dev",
    "methods": {},
    "version": 1
  },
  "userdoc": {
    "kind": "user",
    "methods": {},
    "version": 1
  },
  "storageLayout": {
    "storage": [
      {
        "astId": 12130,
        "contract": "contracts/mock/ReferralStorage.sol:ReferralStorage",
        "label": "gov",
        "offset": 0,
        "slot": "0",
        "type": "t_address"
      },
      {
        "astId": 15732,
        "contract": "contracts/mock/ReferralStorage.sol:ReferralStorage",
        "label": "referrerDiscountShares",
        "offset": 0,
        "slot": "1",
        "type": "t_mapping(t_address,t_uint256)"
      },
      {
        "astId": 15737,
        "contract": "contracts/mock/ReferralStorage.sol:ReferralStorage",
        "label": "referrerTiers",
        "offset": 0,
        "slot": "2",
        "type": "t_mapping(t_address,t_uint256)"
      },
      {
        "astId": 15743,
        "contract": "contracts/mock/ReferralStorage.sol:ReferralStorage",
        "label": "tiers",
        "offset": 0,
        "slot": "3",
        "type": "t_mapping(t_uint256,t_struct(Props)25276_storage)"
      },
      {
        "astId": 15747,
        "contract": "contracts/mock/ReferralStorage.sol:ReferralStorage",
        "label": "isHandler",
        "offset": 0,
        "slot": "4",
        "type": "t_mapping(t_address,t_bool)"
      },
      {
        "astId": 15752,
        "contract": "contracts/mock/ReferralStorage.sol:ReferralStorage",
        "label": "codeOwners",
        "offset": 0,
        "slot": "5",
        "type": "t_mapping(t_bytes32,t_address)"
      },
      {
        "astId": 15757,
        "contract": "contracts/mock/ReferralStorage.sol:ReferralStorage",
        "label": "traderReferralCodes",
        "offset": 0,
        "slot": "6",
        "type": "t_mapping(t_address,t_bytes32)"
      }
    ],
    "types": {
      "t_address": {
        "encoding": "inplace",
        "label": "address",
        "numberOfBytes": "20"
      },
      "t_bool": {
        "encoding": "inplace",
        "label": "bool",
        "numberOfBytes": "1"
      },
      "t_bytes32": {
        "encoding": "inplace",
        "label": "bytes32",
        "numberOfBytes": "32"
      },
      "t_mapping(t_address,t_bool)": {
        "encoding": "mapping",
        "key": "t_address",
        "label": "mapping(address => bool)",
        "numberOfBytes": "32",
        "value": "t_bool"
      },
      "t_mapping(t_address,t_bytes32)": {
        "encoding": "mapping",
        "key": "t_address",
        "label": "mapping(address => bytes32)",
        "numberOfBytes": "32",
        "value": "t_bytes32"
      },
      "t_mapping(t_address,t_uint256)": {
        "encoding": "mapping",
        "key": "t_address",
        "label": "mapping(address => uint256)",
        "numberOfBytes": "32",
        "value": "t_uint256"
      },
      "t_mapping(t_bytes32,t_address)": {
        "encoding": "mapping",
        "key": "t_bytes32",
        "label": "mapping(bytes32 => address)",
        "numberOfBytes": "32",
        "value": "t_address"
      },
      "t_mapping(t_uint256,t_struct(Props)25276_storage)": {
        "encoding": "mapping",
        "key": "t_uint256",
        "label": "mapping(uint256 => struct ReferralTier.Props)",
        "numberOfBytes": "32",
        "value": "t_struct(Props)25276_storage"
      },
      "t_struct(Props)25276_storage": {
        "encoding": "inplace",
        "label": "struct ReferralTier.Props",
        "members": [
          {
            "astId": 25273,
            "contract": "contracts/mock/ReferralStorage.sol:ReferralStorage",
            "label": "totalRebate",
            "offset": 0,
            "slot": "0",
            "type": "t_uint256"
          },
          {
            "astId": 25275,
            "contract": "contracts/mock/ReferralStorage.sol:ReferralStorage",
            "label": "discountShare",
            "offset": 0,
            "slot": "1",
            "type": "t_uint256"
          }
        ],
        "numberOfBytes": "64"
      },
      "t_uint256": {
        "encoding": "inplace",
        "label": "uint256",
        "numberOfBytes": "32"
      }
    }
  }
}