{
  "address": "0x4C5Ef06b33b9EAB7581423A8D079225B78De0784",
  "abi": [
    {
      "inputs": [],
      "stateMutability": "nonpayable",
      "type": "constructor"
    },
    {
      "inputs": [
        {
          "internalType": "address",
          "name": "msgSender",
          "type": "address"
        },
        {
          "internalType": "string",
          "name": "role",
          "type": "string"
        }
      ],
      "name": "Unauthorized",
      "type": "error"
    },
    {
      "inputs": [],
      "name": "getRoleCount",
      "outputs": [
        {
          "internalType": "uint256",
          "name": "",
          "type": "uint256"
        }
      ],
      "stateMutability": "view",
      "type": "function"
    },
    {
      "inputs": [
        {
          "internalType": "bytes32",
          "name": "key",
          "type": "bytes32"
        }
      ],
      "name": "getRoleMemberCount",
      "outputs": [
        {
          "internalType": "uint256",
          "name": "",
          "type": "uint256"
        }
      ],
      "stateMutability": "view",
      "type": "function"
    },
    {
      "inputs": [
        {
          "internalType": "bytes32",
          "name": "key",
          "type": "bytes32"
        },
        {
          "internalType": "uint256",
          "name": "start",
          "type": "uint256"
        },
        {
          "internalType": "uint256",
          "name": "end",
          "type": "uint256"
        }
      ],
      "name": "getRoleMembers",
      "outputs": [
        {
          "internalType": "address[]",
          "name": "",
          "type": "address[]"
        }
      ],
      "stateMutability": "view",
      "type": "function"
    },
    {
      "inputs": [
        {
          "internalType": "uint256",
          "name": "start",
          "type": "uint256"
        },
        {
          "internalType": "uint256",
          "name": "end",
          "type": "uint256"
        }
      ],
      "name": "getRoles",
      "outputs": [
        {
          "internalType": "bytes32[]",
          "name": "",
          "type": "bytes32[]"
        }
      ],
      "stateMutability": "view",
      "type": "function"
    },
    {
      "inputs": [
        {
          "internalType": "address",
          "name": "account",
          "type": "address"
        },
        {
          "internalType": "bytes32",
          "name": "key",
          "type": "bytes32"
        }
      ],
      "name": "grantRole",
      "outputs": [],
      "stateMutability": "nonpayable",
      "type": "function"
    },
    {
      "inputs": [
        {
          "internalType": "address",
          "name": "account",
          "type": "address"
        },
        {
          "internalType": "bytes32",
          "name": "key",
          "type": "bytes32"
        }
      ],
      "name": "hasRole",
      "outputs": [
        {
          "internalType": "bool",
          "name": "",
          "type": "bool"
        }
      ],
      "stateMutability": "view",
      "type": "function"
    },
    {
      "inputs": [
        {
          "internalType": "address",
          "name": "account",
          "type": "address"
        },
        {
          "internalType": "bytes32",
          "name": "key",
          "type": "bytes32"
        }
      ],
      "name": "revokeRole",
      "outputs": [],
      "stateMutability": "nonpayable",
      "type": "function"
    }
  ],
  "transactionHash": "0x60e6e9408fdc6e166ed5499c66d6068ab26c29e317c2f39835fabb6893dccf1f",
  "args": [],
  "numDeployments": 2,
  "solcInputHash": "bfcff1dcb3466d4762643d92a17aef63",
  "bytecode": "0x608060405234801561001057600080fd5b5061006433604051602001610043906020808252600a90820152692927a622afa0a226a4a760b11b604082015260600190565b6040516020818303038152906040528051906020012061006960201b60201c565b61014c565b6100818160006100d760201b61025d1790919060201c565b5060008181526002602090815260409091206100a69184906102696100ec821b17901c565b506001600160a01b03909116600090815260036020908152604080832093835292905220805460ff19166001179055565b60006100e383836100fd565b90505b92915050565b60006100e3836001600160a01b0384165b6000818152600183016020526040812054610144575081546001818101845560008481526020808220909301849055845484825282860190935260409020919091556100e6565b5060006100e6565b6109018061015b6000396000f3fe608060405234801561001057600080fd5b506004361061006d5760003560e01c8063208dd1ff146100725780632a861f5714610087578063821c1898146100b057806383d33319146100d0578063ab2742dc146100e6578063ac4ab3fb146100f9578063ca15c8731461011c575b600080fd5b6100856100803660046106d1565b61012f565b005b61009a610095366004610709565b610193565b6040516100a79190610735565b60405180910390f35b6100c36100be366004610782565b6101b7565b6040516100a791906107a4565b6100d86101ce565b6040519081526020016100a7565b6100856100f43660046106d1565b6101df565b61010c6101073660046106d1565b61021b565b60405190151581526020016100a7565b6100d861012a3660046107dc565b610246565b61015d3360405160200161014290610812565b6040516020818303038152906040528051906020012061021b565b610185573360405163a35b150b60e01b815260040161017c9190610824565b60405180910390fd5b61018f828261027e565b5050565b60008381526002602052604090206060906101af908484610362565b949350505050565b60606101c56000848461042f565b90505b92915050565b60006101da60006104e5565b905090565b6101f23360405160200161014290610812565b610211573360405163a35b150b60e01b815260040161017c9190610824565b61018f82826104ef565b6001600160a01b03919091166000908152600360209081526040808320938352929052205460ff1690565b60008181526002602052604081206101c8906104e5565b60006101c58383610544565b60006101c5836001600160a01b038416610544565b60008181526002602052604090206102969083610593565b506001600160a01b0382166000908152600360209081526040808320848452825291829020805460ff1916905590516102cf9101610812565b604051602081830303815290604052805190602001208114801561030757506000818152600260205260409020610305906104e5565b155b1561018f5760405162461bcd60e51b815260206004820152602560248201527f5468657265206d757374206265206174206c65617374206f6e6520726f6c652060448201526430b236b4b760d91b606482015260840161017c565b6060600061036f856104e5565b90508083111561037d578092505b6000610389858561085d565b6001600160401b038111156103a0576103a0610870565b6040519080825280602002602001820160405280156103c9578160200160208202803683370190505b509050845b84811015610425576103e087826105a8565b826103eb888461085d565b815181106103fb576103fb610886565b6001600160a01b03909216602092830291909101909101528061041d8161089c565b9150506103ce565b5095945050505050565b6060600061043c856104e5565b90508083111561044a578092505b6000610456858561085d565b6001600160401b0381111561046d5761046d610870565b604051908082528060200260200182016040528015610496578160200160208202803683370190505b509050845b84811015610425576104ad87826105a8565b826104b8888461085d565b815181106104c8576104c8610886565b6020908102919091010152806104dd8161089c565b91505061049b565b60006101c8825490565b6104fa60008261025d565b5060008181526002602052604090206105139083610269565b506001600160a01b03909116600090815260036020908152604080832093835292905220805460ff19166001179055565b600081815260018301602052604081205461058b575081546001818101845560008481526020808220909301849055845484825282860190935260409020919091556101c8565b5060006101c8565b60006101c5836001600160a01b0384166105b4565b60006101c583836106a7565b6000818152600183016020526040812054801561069d5760006105d860018361085d565b85549091506000906105ec9060019061085d565b905081811461065157600086600001828154811061060c5761060c610886565b906000526020600020015490508087600001848154811061062f5761062f610886565b6000918252602080832090910192909255918252600188019052604090208390555b8554869080610662576106626108b5565b6001900381819060005260206000200160009055905585600101600086815260200190815260200160002060009055600193505050506101c8565b60009150506101c8565b60008260000182815481106106be576106be610886565b9060005260206000200154905092915050565b600080604083850312156106e457600080fd5b82356001600160a01b03811681146106fb57600080fd5b946020939093013593505050565b60008060006060848603121561071e57600080fd5b505081359360208301359350604090920135919050565b6020808252825182820181905260009190848201906040850190845b818110156107765783516001600160a01b031683529284019291840191600101610751565b50909695505050505050565b6000806040838503121561079557600080fd5b50508035926020909101359150565b6020808252825182820181905260009190848201906040850190845b81811015610776578351835292840192918401916001016107c0565b6000602082840312156107ee57600080fd5b5035919050565b600a8152692927a622afa0a226a4a760b11b602082015260400190565b6020815260006101c8602083016107f5565b6001600160a01b03821681526040602082018190526000906101c59083016107f5565b634e487b7160e01b600052601160045260246000fd5b818103818111156101c8576101c8610847565b634e487b7160e01b600052604160045260246000fd5b634e487b7160e01b600052603260045260246000fd5b6000600182016108ae576108ae610847565b5060010190565b634e487b7160e01b600052603160045260246000fdfea264697066735822122024b5a634f1cf37469a6196c92717c1a5545e256167990bfaa0cb5235445cab1a64736f6c63430008100033",
  "libraries": {},
  "devdoc": {
    "details": "Stores roles and their members.",
    "kind": "dev",
    "methods": {
      "getRoleCount()": {
        "details": "Returns the number of roles stored in the contract.",
        "returns": {
          "_0": "The number of roles."
        }
      },
      "getRoleMemberCount(bytes32)": {
        "details": "Returns the number of members of the specified role.",
        "params": {
          "key": "The key of the role."
        },
        "returns": {
          "_0": "The number of members of the role."
        }
      },
      "getRoleMembers(bytes32,uint256,uint256)": {
        "details": "Returns the members of the specified role.",
        "params": {
          "end": "the end index, the value for this index will not be included.",
          "key": "The key of the role.",
          "start": "the start index, the value for this index will be included."
        },
        "returns": {
          "_0": "The members of the role."
        }
      },
      "getRoles(uint256,uint256)": {
        "details": "Returns the keys of the roles stored in the contract.",
        "params": {
          "end": "The ending index of the range of roles to return.",
          "start": "The starting index of the range of roles to return."
        },
        "returns": {
          "_0": "The keys of the roles."
        }
      },
      "grantRole(address,bytes32)": {
        "details": "Grants the specified role to the given account.",
        "params": {
          "account": "The address of the account.",
          "key": "The key of the role to grant."
        }
      },
      "hasRole(address,bytes32)": {
        "details": "Returns true if the given account has the specified role.",
        "params": {
          "account": "The address of the account.",
          "key": "The key of the role."
        },
        "returns": {
          "_0": "True if the account has the role, false otherwise."
        }
      },
      "revokeRole(address,bytes32)": {
        "details": "Revokes the specified role from the given account.",
        "params": {
          "account": "The address of the account.",
          "key": "The key of the role to revoke."
        }
      }
    },
    "title": "RoleStore",
    "version": 1
  },
  "userdoc": {
    "kind": "user",
    "methods": {},
    "version": 1
  },
  "storageLayout": {
    "storage": [
      {
        "astId": 44852,
        "contract": "contracts/role/RoleStore.sol:RoleStore",
        "label": "roles",
        "offset": 0,
        "slot": "0",
        "type": "t_struct(Bytes32Set)4137_storage"
      },
      {
        "astId": 44857,
        "contract": "contracts/role/RoleStore.sol:RoleStore",
        "label": "roleMembers",
        "offset": 0,
        "slot": "2",
        "type": "t_mapping(t_bytes32,t_struct(AddressSet)4244_storage)"
      },
      {
        "astId": 44863,
        "contract": "contracts/role/RoleStore.sol:RoleStore",
        "label": "roleCache",
        "offset": 0,
        "slot": "3",
        "type": "t_mapping(t_address,t_mapping(t_bytes32,t_bool))"
      }
    ],
    "types": {
      "t_address": {
        "encoding": "inplace",
        "label": "address",
        "numberOfBytes": "20"
      },
      "t_array(t_bytes32)dyn_storage": {
        "base": "t_bytes32",
        "encoding": "dynamic_array",
        "label": "bytes32[]",
        "numberOfBytes": "32"
      },
      "t_bool": {
        "encoding": "inplace",
        "label": "bool",
        "numberOfBytes": "1"
      },
      "t_bytes32": {
        "encoding": "inplace",
        "label": "bytes32",
        "numberOfBytes": "32"
      },
      "t_mapping(t_address,t_mapping(t_bytes32,t_bool))": {
        "encoding": "mapping",
        "key": "t_address",
        "label": "mapping(address => mapping(bytes32 => bool))",
        "numberOfBytes": "32",
        "value": "t_mapping(t_bytes32,t_bool)"
      },
      "t_mapping(t_bytes32,t_bool)": {
        "encoding": "mapping",
        "key": "t_bytes32",
        "label": "mapping(bytes32 => bool)",
        "numberOfBytes": "32",
        "value": "t_bool"
      },
      "t_mapping(t_bytes32,t_struct(AddressSet)4244_storage)": {
        "encoding": "mapping",
        "key": "t_bytes32",
        "label": "mapping(bytes32 => struct EnumerableSet.AddressSet)",
        "numberOfBytes": "32",
        "value": "t_struct(AddressSet)4244_storage"
      },
      "t_mapping(t_bytes32,t_uint256)": {
        "encoding": "mapping",
        "key": "t_bytes32",
        "label": "mapping(bytes32 => uint256)",
        "numberOfBytes": "32",
        "value": "t_uint256"
      },
      "t_struct(AddressSet)4244_storage": {
        "encoding": "inplace",
        "label": "struct EnumerableSet.AddressSet",
        "members": [
          {
            "astId": 4243,
            "contract": "contracts/role/RoleStore.sol:RoleStore",
            "label": "_inner",
            "offset": 0,
            "slot": "0",
            "type": "t_struct(Set)3943_storage"
          }
        ],
        "numberOfBytes": "64"
      },
      "t_struct(Bytes32Set)4137_storage": {
        "encoding": "inplace",
        "label": "struct EnumerableSet.Bytes32Set",
        "members": [
          {
            "astId": 4136,
            "contract": "contracts/role/RoleStore.sol:RoleStore",
            "label": "_inner",
            "offset": 0,
            "slot": "0",
            "type": "t_struct(Set)3943_storage"
          }
        ],
        "numberOfBytes": "64"
      },
      "t_struct(Set)3943_storage": {
        "encoding": "inplace",
        "label": "struct EnumerableSet.Set",
        "members": [
          {
            "astId": 3938,
            "contract": "contracts/role/RoleStore.sol:RoleStore",
            "label": "_values",
            "offset": 0,
            "slot": "0",
            "type": "t_array(t_bytes32)dyn_storage"
          },
          {
            "astId": 3942,
            "contract": "contracts/role/RoleStore.sol:RoleStore",
            "label": "_indexes",
            "offset": 0,
            "slot": "1",
            "type": "t_mapping(t_bytes32,t_uint256)"
          }
        ],
        "numberOfBytes": "64"
      },
      "t_uint256": {
        "encoding": "inplace",
        "label": "uint256",
        "numberOfBytes": "32"
      }
    }
  }
}