{
  "address": "0x499E500d983b5e5Ba523e902B8C7887fE93911F5",
  "abi": [
    {
      "inputs": [
        {
          "internalType": "contract RoleStore",
          "name": "_roleStore",
          "type": "address"
        }
      ],
      "stateMutability": "nonpayable",
      "type": "constructor"
    },
    {
      "inputs": [
        {
          "internalType": "address",
          "name": "msgSender",
          "type": "address"
        },
        {
          "internalType": "string",
          "name": "role",
          "type": "string"
        }
      ],
      "name": "Unauthorized",
      "type": "error"
    },
    {
      "anonymous": false,
      "inputs": [
        {
          "indexed": false,
          "internalType": "address",
          "name": "prevGov",
          "type": "address"
        },
        {
          "indexed": false,
          "internalType": "address",
          "name": "nextGov",
          "type": "address"
        }
      ],
      "name": "SetGov",
      "type": "event"
    },
    {
      "inputs": [],
      "name": "gov",
      "outputs": [
        {
          "internalType": "address",
          "name": "",
          "type": "address"
        }
      ],
      "stateMutability": "view",
      "type": "function"
    },
    {
      "inputs": [
        {
          "internalType": "address",
          "name": "token",
          "type": "address"
        },
        {
          "internalType": "address",
          "name": "account",
          "type": "address"
        },
        {
          "internalType": "address",
          "name": "receiver",
          "type": "address"
        },
        {
          "internalType": "uint256",
          "name": "amount",
          "type": "uint256"
        }
      ],
      "name": "pluginTransfer",
      "outputs": [],
      "stateMutability": "nonpayable",
      "type": "function"
    },
    {
      "inputs": [],
      "name": "roleStore",
      "outputs": [
        {
          "internalType": "contract RoleStore",
          "name": "",
          "type": "address"
        }
      ],
      "stateMutability": "view",
      "type": "function"
    },
    {
      "inputs": [
        {
          "internalType": "address",
          "name": "_gov",
          "type": "address"
        }
      ],
      "name": "setGov",
      "outputs": [],
      "stateMutability": "nonpayable",
      "type": "function"
    }
  ],
  "transactionHash": "0x4be7d78eecd265deb5609784a188417f46d992353b3de49764e41523ff70fa67",
  "args": [
    "0x8104B593e5C1C85A4eAfCac1D52490999422A6bA"
  ],
  "numDeployments": 4,
  "solcInputHash": "b420999f64204580e810139beaa34cd4",
  "bytecode": "0x60a060405234801561001057600080fd5b506040516107fc3803806107fc83398101604081905261002f916100ac565b806100393361004b565b6001600160a01b0316608052506100dc565b600080546001600160a01b038381166001600160a01b031983168117909355604080519190921680825260208201939093527f53351836099c03ffc3b1727d8abd4b0222afa87d4ed76ae3102d51369ef7f785910160405180910390a15050565b6000602082840312156100be57600080fd5b81516001600160a01b03811681146100d557600080fd5b9392505050565b6080516106ff6100fd60003960008181609a01526101d501526106ff6000f3fe608060405234801561001057600080fd5b506004361061004c5760003560e01c806312d43a51146100515780631b827878146100805780634a4a7b0414610095578063cfad57a2146100bc575b600080fd5b600054610064906001600160a01b031681565b6040516001600160a01b03909116815260200160405180910390f35b61009361008e36600461059e565b6100cf565b005b6100647f000000000000000000000000000000000000000000000000000000000000000081565b6100936100ca3660046105e9565b61015f565b610144604051602001610103906020808252600d908201526c2927aaaa22a92fa8262aa3a4a760991b604082015260600190565b604051602081830303815290604052805190602001206040518060400160405280600d81526020016c2927aaaa22a92fa8262aa3a4a760991b8152506101b9565b6101596001600160a01b03851684848461026d565b50505050565b6000546001600160a01b031633146101ad576040805163a35b150b60e01b81523360048201526024810191909152600360448201526223a7ab60e91b60648201526084015b60405180910390fd5b6101b6816102c7565b50565b60405163ac4ab3fb60e01b8152336004820152602481018390527f00000000000000000000000000000000000000000000000000000000000000006001600160a01b03169063ac4ab3fb90604401602060405180830381865afa158015610224573d6000803e3d6000fd5b505050506040513d601f19601f820116820180604052508101906102489190610604565b61026957338160405163a35b150b60e01b81526004016101a4929190610676565b5050565b604080516001600160a01b0385811660248301528416604482015260648082018490528251808303909101815260849091019091526020810180516001600160e01b03166323b872dd60e01b179052610159908590610328565b600080546001600160a01b038381166001600160a01b031983168117909355604080519190921680825260208201939093527f53351836099c03ffc3b1727d8abd4b0222afa87d4ed76ae3102d51369ef7f785910160405180910390a15050565b600061037d826040518060400160405280602081526020017f5361666545524332303a206c6f772d6c6576656c2063616c6c206661696c6564815250856001600160a01b03166103ff9092919063ffffffff16565b8051909150156103fa578080602001905181019061039b9190610604565b6103fa5760405162461bcd60e51b815260206004820152602a60248201527f5361666545524332303a204552433230206f7065726174696f6e20646964206e6044820152691bdd081cdd58d8d9595960b21b60648201526084016101a4565b505050565b606061040e8484600085610418565b90505b9392505050565b6060824710156104795760405162461bcd60e51b815260206004820152602660248201527f416464726573733a20696e73756666696369656e742062616c616e636520666f6044820152651c8818d85b1b60d21b60648201526084016101a4565b6001600160a01b0385163b6104d05760405162461bcd60e51b815260206004820152601d60248201527f416464726573733a2063616c6c20746f206e6f6e2d636f6e747261637400000060448201526064016101a4565b600080866001600160a01b031685876040516104ec919061069a565b60006040518083038185875af1925050503d8060008114610529576040519150601f19603f3d011682016040523d82523d6000602084013e61052e565b606091505b509150915061053e828286610549565b979650505050505050565b60608315610558575081610411565b8251156105685782518084602001fd5b8160405162461bcd60e51b81526004016101a491906106b6565b80356001600160a01b038116811461059957600080fd5b919050565b600080600080608085870312156105b457600080fd5b6105bd85610582565b93506105cb60208601610582565b92506105d960408601610582565b9396929550929360600135925050565b6000602082840312156105fb57600080fd5b61041182610582565b60006020828403121561061657600080fd5b8151801515811461041157600080fd5b60005b83811015610641578181015183820152602001610629565b50506000910152565b60008151808452610662816020860160208601610626565b601f01601f19169290920160200192915050565b6001600160a01b038316815260406020820181905260009061040e9083018461064a565b600082516106ac818460208701610626565b9190910192915050565b602081526000610411602083018461064a56fea2646970667358221220060047ddff59bb7c633d5d75c4875179c9747cbd2179c11ee9d96a92cc9b100e64736f6c63430008100033",
  "devdoc": {
    "details": "Users will approve this router for token spenditures",
    "kind": "dev",
    "methods": {
      "pluginTransfer(address,address,address,uint256)": {
        "details": "transfer the specified amount of tokens from the account to the receiver",
        "params": {
          "account": "the account to transfer from",
          "amount": "the amount of tokens to transfer",
          "receiver": "the account to transfer to",
          "token": "the token to transfer"
        }
      }
    },
    "title": "Router",
    "version": 1
  },
  "userdoc": {
    "kind": "user",
    "methods": {},
    "version": 1
  },
  "storageLayout": {
    "storage": [
      {
        "astId": 13988,
        "contract": "contracts/router/Router.sol:Router",
        "label": "gov",
        "offset": 0,
        "slot": "0",
        "type": "t_address"
      }
    ],
    "types": {
      "t_address": {
        "encoding": "inplace",
        "label": "address",
        "numberOfBytes": "20"
      }
    }
  }
}