{
  "address": "0xD5EE3ECAF5754CE5Ff74847d0caf094EBB12ed5e",
  "abi": [
    {
      "inputs": [
        {
          "internalType": "contract Router",
          "name": "_router",
          "type": "address"
        },
        {
          "internalType": "contract RoleStore",
          "name": "_roleStore",
          "type": "address"
        },
        {
          "internalType": "contract DataStore",
          "name": "_dataStore",
          "type": "address"
        },
        {
          "internalType": "contract EventEmitter",
          "name": "_eventEmitter",
          "type": "address"
        },
        {
          "internalType": "contract IOrderHandler",
          "name": "_orderHandler",
          "type": "address"
        },
        {
          "internalType": "contract OrderVault",
          "name": "_orderVault",
          "type": "address"
        }
      ],
      "stateMutability": "nonpayable",
      "type": "constructor"
    },
    {
      "inputs": [
        {
          "internalType": "bytes32",
          "name": "key",
          "type": "bytes32"
        }
      ],
      "name": "DisabledFeature",
      "type": "error"
    },
    {
      "inputs": [],
      "name": "EmptyHoldingAddress",
      "type": "error"
    },
    {
      "inputs": [],
      "name": "EmptyOrder",
      "type": "error"
    },
    {
      "inputs": [],
      "name": "EmptyReceiver",
      "type": "error"
    },
    {
      "inputs": [
        {
          "internalType": "address",
          "name": "token",
          "type": "address"
        }
      ],
      "name": "EmptyTokenTranferGasLimit",
      "type": "error"
    },
    {
      "inputs": [
        {
          "internalType": "address",
          "name": "msgSender",
          "type": "address"
        }
      ],
      "name": "InvalidNativeTokenSender",
      "type": "error"
    },
    {
      "inputs": [
        {
          "internalType": "address",
          "name": "token",
          "type": "address"
        },
        {
          "internalType": "address",
          "name": "receiver",
          "type": "address"
        },
        {
          "internalType": "uint256",
          "name": "amount",
          "type": "uint256"
        }
      ],
      "name": "TokenTransferError",
      "type": "error"
    },
    {
      "anonymous": false,
      "inputs": [
        {
          "indexed": false,
          "internalType": "string",
          "name": "reason",
          "type": "string"
        },
        {
          "indexed": false,
          "internalType": "bytes",
          "name": "returndata",
          "type": "bytes"
        }
      ],
      "name": "TokenTransferReverted",
      "type": "event"
    },
    {
      "inputs": [
        {
          "internalType": "address",
          "name": "subaccount",
          "type": "address"
        }
      ],
      "name": "addSubaccount",
      "outputs": [],
      "stateMutability": "payable",
      "type": "function"
    },
    {
      "inputs": [
        {
          "internalType": "bytes32",
          "name": "key",
          "type": "bytes32"
        }
      ],
      "name": "cancelOrder",
      "outputs": [],
      "stateMutability": "payable",
      "type": "function"
    },
    {
      "inputs": [
        {
          "internalType": "address",
          "name": "account",
          "type": "address"
        },
        {
          "components": [
            {
              "components": [
                {
                  "internalType": "address",
                  "name": "receiver",
                  "type": "address"
                },
                {
                  "internalType": "address",
                  "name": "cancellationReceiver",
                  "type": "address"
                },
                {
                  "internalType": "address",
                  "name": "callbackContract",
                  "type": "address"
                },
                {
                  "internalType": "address",
                  "name": "uiFeeReceiver",
                  "type": "address"
                },
                {
                  "internalType": "address",
                  "name": "market",
                  "type": "address"
                },
                {
                  "internalType": "address",
                  "name": "initialCollateralToken",
                  "type": "address"
                },
                {
                  "internalType": "address[]",
                  "name": "swapPath",
                  "type": "address[]"
                }
              ],
              "internalType": "struct IBaseOrderUtils.CreateOrderParamsAddresses",
              "name": "addresses",
              "type": "tuple"
            },
            {
              "components": [
                {
                  "internalType": "uint256",
                  "name": "sizeDeltaUsd",
                  "type": "uint256"
                },
                {
                  "internalType": "uint256",
                  "name": "initialCollateralDeltaAmount",
                  "type": "uint256"
                },
                {
                  "internalType": "uint256",
                  "name": "triggerPrice",
                  "type": "uint256"
                },
                {
                  "internalType": "uint256",
                  "name": "acceptablePrice",
                  "type": "uint256"
                },
                {
                  "internalType": "uint256",
                  "name": "executionFee",
                  "type": "uint256"
                },
                {
                  "internalType": "uint256",
                  "name": "callbackGasLimit",
                  "type": "uint256"
                },
                {
                  "internalType": "uint256",
                  "name": "minOutputAmount",
                  "type": "uint256"
                },
                {
                  "internalType": "uint256",
                  "name": "validFromTime",
                  "type": "uint256"
                }
              ],
              "internalType": "struct IBaseOrderUtils.CreateOrderParamsNumbers",
              "name": "numbers",
              "type": "tuple"
            },
            {
              "internalType": "enum Order.OrderType",
              "name": "orderType",
              "type": "uint8"
            },
            {
              "internalType": "enum Order.DecreasePositionSwapType",
              "name": "decreasePositionSwapType",
              "type": "uint8"
            },
            {
              "internalType": "bool",
              "name": "isLong",
              "type": "bool"
            },
            {
              "internalType": "bool",
              "name": "shouldUnwrapNativeToken",
              "type": "bool"
            },
            {
              "internalType": "bool",
              "name": "autoCancel",
              "type": "bool"
            },
            {
              "internalType": "bytes32",
              "name": "referralCode",
              "type": "bytes32"
            },
            {
              "internalType": "bytes32[]",
              "name": "dataList",
              "type": "bytes32[]"
            }
          ],
          "internalType": "struct IBaseOrderUtils.CreateOrderParams",
          "name": "params",
          "type": "tuple"
        }
      ],
      "name": "createOrder",
      "outputs": [
        {
          "internalType": "bytes32",
          "name": "",
          "type": "bytes32"
        }
      ],
      "stateMutability": "payable",
      "type": "function"
    },
    {
      "inputs": [],
      "name": "dataStore",
      "outputs": [
        {
          "internalType": "contract DataStore",
          "name": "",
          "type": "address"
        }
      ],
      "stateMutability": "view",
      "type": "function"
    },
    {
      "inputs": [],
      "name": "eventEmitter",
      "outputs": [
        {
          "internalType": "contract EventEmitter",
          "name": "",
          "type": "address"
        }
      ],
      "stateMutability": "view",
      "type": "function"
    },
    {
      "inputs": [
        {
          "internalType": "bytes[]",
          "name": "data",
          "type": "bytes[]"
        }
      ],
      "name": "multicall",
      "outputs": [
        {
          "internalType": "bytes[]",
          "name": "results",
          "type": "bytes[]"
        }
      ],
      "stateMutability": "payable",
      "type": "function"
    },
    {
      "inputs": [],
      "name": "orderHandler",
      "outputs": [
        {
          "internalType": "contract IOrderHandler",
          "name": "",
          "type": "address"
        }
      ],
      "stateMutability": "view",
      "type": "function"
    },
    {
      "inputs": [],
      "name": "orderVault",
      "outputs": [
        {
          "internalType": "contract OrderVault",
          "name": "",
          "type": "address"
        }
      ],
      "stateMutability": "view",
      "type": "function"
    },
    {
      "inputs": [
        {
          "internalType": "address",
          "name": "subaccount",
          "type": "address"
        }
      ],
      "name": "removeSubaccount",
      "outputs": [],
      "stateMutability": "payable",
      "type": "function"
    },
    {
      "inputs": [],
      "name": "roleStore",
      "outputs": [
        {
          "internalType": "contract RoleStore",
          "name": "",
          "type": "address"
        }
      ],
      "stateMutability": "view",
      "type": "function"
    },
    {
      "inputs": [],
      "name": "router",
      "outputs": [
        {
          "internalType": "contract Router",
          "name": "",
          "type": "address"
        }
      ],
      "stateMutability": "view",
      "type": "function"
    },
    {
      "inputs": [
        {
          "internalType": "address",
          "name": "receiver",
          "type": "address"
        },
        {
          "internalType": "uint256",
          "name": "amount",
          "type": "uint256"
        }
      ],
      "name": "sendNativeToken",
      "outputs": [],
      "stateMutability": "payable",
      "type": "function"
    },
    {
      "inputs": [
        {
          "internalType": "address",
          "name": "token",
          "type": "address"
        },
        {
          "internalType": "address",
          "name": "receiver",
          "type": "address"
        },
        {
          "internalType": "uint256",
          "name": "amount",
          "type": "uint256"
        }
      ],
      "name": "sendTokens",
      "outputs": [],
      "stateMutability": "payable",
      "type": "function"
    },
    {
      "inputs": [
        {
          "internalType": "address",
          "name": "receiver",
          "type": "address"
        },
        {
          "internalType": "uint256",
          "name": "amount",
          "type": "uint256"
        }
      ],
      "name": "sendWnt",
      "outputs": [],
      "stateMutability": "payable",
      "type": "function"
    },
    {
      "inputs": [
        {
          "internalType": "address",
          "name": "subaccount",
          "type": "address"
        },
        {
          "internalType": "bytes32",
          "name": "integrationId",
          "type": "bytes32"
        }
      ],
      "name": "setIntegrationId",
      "outputs": [],
      "stateMutability": "payable",
      "type": "function"
    },
    {
      "inputs": [
        {
          "internalType": "address",
          "name": "subaccount",
          "type": "address"
        },
        {
          "internalType": "bytes32",
          "name": "actionType",
          "type": "bytes32"
        },
        {
          "internalType": "uint256",
          "name": "maxAllowedCount",
          "type": "uint256"
        }
      ],
      "name": "setMaxAllowedSubaccountActionCount",
      "outputs": [],
      "stateMutability": "payable",
      "type": "function"
    },
    {
      "inputs": [
        {
          "internalType": "address",
          "name": "subaccount",
          "type": "address"
        },
        {
          "internalType": "uint256",
          "name": "amount",
          "type": "uint256"
        }
      ],
      "name": "setSubaccountAutoTopUpAmount",
      "outputs": [],
      "stateMutability": "payable",
      "type": "function"
    },
    {
      "inputs": [
        {
          "internalType": "address",
          "name": "subaccount",
          "type": "address"
        },
        {
          "internalType": "bytes32",
          "name": "actionType",
          "type": "bytes32"
        },
        {
          "internalType": "uint256",
          "name": "expiresAt",
          "type": "uint256"
        }
      ],
      "name": "setSubaccountExpiresAt",
      "outputs": [],
      "stateMutability": "payable",
      "type": "function"
    },
    {
      "inputs": [
        {
          "internalType": "bytes32",
          "name": "key",
          "type": "bytes32"
        },
        {
          "internalType": "uint256",
          "name": "sizeDeltaUsd",
          "type": "uint256"
        },
        {
          "internalType": "uint256",
          "name": "acceptablePrice",
          "type": "uint256"
        },
        {
          "internalType": "uint256",
          "name": "triggerPrice",
          "type": "uint256"
        },
        {
          "internalType": "uint256",
          "name": "minOutputAmount",
          "type": "uint256"
        },
        {
          "internalType": "uint256",
          "name": "validFromTime",
          "type": "uint256"
        },
        {
          "internalType": "bool",
          "name": "autoCancel",
          "type": "bool"
        }
      ],
      "name": "updateOrder",
      "outputs": [],
      "stateMutability": "payable",
      "type": "function"
    },
    {
      "stateMutability": "payable",
      "type": "receive"
    }
  ],
  "transactionHash": "0x2807bae406daa878ef33e98568bd646663bae658767414019857b605580c7eba",
  "args": [
    "0x5e7d61e4C52123ADF651961e4833aCc349b61491",
    "0x19a8085537078e7847a332A76ABaDD5b02B1e736",
    "0xEA1BFb4Ea9A412dCCd63454AbC127431eBB0F0d4",
    "0xc67D98AC5803aFD776958622CeEE332A0B2CabB9",
    "0xb525036363BC44695d36fD56Bcb86CEF39cd444A",
    "0x25D23e8E655727F2687CC808BB9589525A6F599B"
  ],
  "numDeployments": 9,
  "solcInputHash": "2a28f96a124d5988e6c0ef3d29c54a03",
  "bytecode": "0x61014060405234801561001157600080fd5b50604051613e30380380613e308339810160408190526100309161007c565b60016000556001600160a01b0394851660805294841660a05291831660c052821660e0528116610100521661012052610103565b6001600160a01b038116811461007957600080fd5b50565b60008060008060008060c0878903121561009557600080fd5b86516100a081610064565b60208801519096506100b181610064565b60408801519095506100c281610064565b60608801519094506100d381610064565b60808801519093506100e481610064565b60a08801519092506100f581610064565b809150509295509295509295565b60805160a05160c05160e0516101005161012051613bf86102386000396000818161029e015261081e0152600081816103260152818161088901528181610af20152610f950152600081816102d2015281816104ab01528181610570015281816109b401528181610bd201528181610c5d01528181610e700152818161134f01526117cf01526000818160f4015281816101ea015281816104890152818161054e015281816105f60152818161099201528181610a0b01528181610bb001528181610c3b01528181610cdc01528181610e4e01528181610ec901528181611244015281816112a20152818161132d015281816113de0152818161145f01526116ea015260008181610393015281816107c00152818161107c0152818161152f01526116780152600061018d0152613bf86000f3fe6080604052600436106100e85760003560e01c80633914f217146101555780633e46b365146101685780634a4a7b041461017b57806353ead2d3146101c5578063660d0d67146101d857806369b605c51461020c578063712182eb1461022d5780637489ec231461024057806378a61fa21461025357806379a358a2146102665780637d39aaf11461027957806393845e461461028c5780639ff78c30146102c0578063ac9650d8146102f4578063b584830514610314578063d1bfe05114610348578063dd5baad21461035b578063e6d66ac81461036e578063f887ea401461038157600080fd5b366101505760006101187f00000000000000000000000000000000000000000000000000000000000000006103b5565b9050336001600160a01b0382161461014e573360405163738d28df60e11b81526004016101459190612225565b60405180910390fd5b005b600080fd5b61014e61016336600461225e565b610450565b61014e61017636600461227b565b610515565b34801561018757600080fd5b506101af7f000000000000000000000000000000000000000000000000000000000000000081565b6040516101bc9190612225565b60405180910390f35b61014e6101d33660046122b0565b6105e0565b3480156101e457600080fd5b506101af7f000000000000000000000000000000000000000000000000000000000000000081565b61021f61021a3660046122dc565b61062a565b6040519081526020016101bc565b61014e61023b36600461225e565b610959565b61014e61024e366004612333565b6109e0565b61014e61026136600461227b565b610b77565b61014e6102743660046122b0565b610c02565b61014e6102873660046122b0565b610cc6565b34801561029857600080fd5b506101af7f000000000000000000000000000000000000000000000000000000000000000081565b3480156102cc57600080fd5b506101af7f000000000000000000000000000000000000000000000000000000000000000081565b61030761030236600461234c565b610d02565b6040516101bc9190612411565b34801561032057600080fd5b506101af7f000000000000000000000000000000000000000000000000000000000000000081565b61014e6103563660046122b0565b610e15565b61014e61036936600461248f565b610e9e565b61014e61037c3660046124ef565b611052565b34801561038d57600080fd5b506101af7f000000000000000000000000000000000000000000000000000000000000000081565b6000816001600160a01b03166321f8a7216040516020016103d590612530565b604051602081830303815290604052805190602001206040518263ffffffff1660e01b815260040161040991815260200190565b602060405180830381865afa158015610426573d6000803e3d6000fd5b505050506040513d601f19601f8201168201806040525081019061044a9190612558565b92915050565b6104586110e5565b604051631638cf3360e31b81523390731064c97A941AE1DA341f7C296e8418e9936295949063b1c67998906104d7907f0000000000000000000000000000000000000000000000000000000000000000907f00000000000000000000000000000000000000000000000000000000000000009086908890600401612575565b60006040518083038186803b1580156104ef57600080fd5b505af4158015610503573d6000803e3d6000fd5b50505050506105126001600055565b50565b61051d6110e5565b604051636583220d60e11b81523390731064c97A941AE1DA341f7C296e8418e9936295949063cb06441a906105a0907f0000000000000000000000000000000000000000000000000000000000000000907f00000000000000000000000000000000000000000000000000000000000000009086908a908a908a906004016125a0565b60006040518083038186803b1580156105b857600080fd5b505af41580156105cc573d6000803e3d6000fd5b50505050506105db6001600055565b505050565b6105e86110e5565b6105f18261113e565b61061c7f00000000000000000000000000000000000000000000000000000000000000008383611165565b6106266001600055565b5050565b60006106346110e5565b60005a90506106678460405160200161064c906125da565b6040516020818303038152906040528051906020012061123f565b604051632dfbe7ff60e21b8152731064c97A941AE1DA341f7C296e8418e9936295949063b7ef9ffc906106a09087908790600401612871565b60006040518083038186803b1580156106b857600080fd5b505af41580156106cc573d6000803e3d6000fd5b50600092506106d9915050565b6106eb6101408501610120860161296e565b60088111156106fc576106fc6127ed565b148061072a575060016107176101408501610120860161296e565b6008811115610728576107286127ed565b145b80610757575060026107446101408501610120860161296e565b6008811115610755576107556127ed565b145b80610784575060036107716101408501610120860161296e565b6008811115610782576107826127ed565b145b806107b15750600861079e6101408501610120860161296e565b60088111156107af576107af6127ed565b145b1561087d576001600160a01b037f000000000000000000000000000000000000000000000000000000000000000016631b8278786107ef858061298b565b6108009060c081019060a00161225e565b604080516001600160e01b031960e085901b16815261084a929189917f0000000000000000000000000000000000000000000000000000000000000000918a0135906004016129ab565b600060405180830381600087803b15801561086457600080fd5b505af1158015610878573d6000803e3d6000fd5b505050505b60006001600160a01b037f00000000000000000000000000000000000000000000000000000000000000001663c6561b45868387816108bc828061298b565b6108cd90606081019060400161225e565b6001600160a01b031614156040518563ffffffff1660e01b81526004016108f794939291906129d5565b6020604051808303816000875af1158015610916573d6000803e3d6000fd5b505050506040513d601f19601f8201168201806040525081019061093a9190612adf565b905061094c85338460a08801356113ac565b91505061044a6001600055565b6109616110e5565b6040516331afcdf360e21b81523390731064c97A941AE1DA341f7C296e8418e9936295949063c6bf37cc906104d7907f0000000000000000000000000000000000000000000000000000000000000000907f00000000000000000000000000000000000000000000000000000000000000009086908890600401612575565b6109e86110e5565b60005a9050600073FDa67670C08149e76F6C038446F3674bf137aBd863fdfc26f37f0000000000000000000000000000000000000000000000000000000000000000856040518363ffffffff1660e01b8152600401610a48929190612af8565b600060405180830381865af4158015610a65573d6000803e3d6000fd5b505050506040513d6000823e601f3d908101601f19168201604052610a8d9190810190612de3565b90506000610a9a82515190565b6001600160a01b031603610ac157604051631630779760e01b815260040160405180910390fd5b610adc610acd82515190565b60405160200161064c906125da565b604051637489ec2360e01b8152600481018490527f00000000000000000000000000000000000000000000000000000000000000006001600160a01b031690637489ec2390602401600060405180830381600087803b158015610b3e57600080fd5b505af1158015610b52573d6000803e3d6000fd5b50505050610b6b610b6282515190565b338460006113ac565b50506105126001600055565b610b7f6110e5565b60405163c563c4ed60e01b81523390731064c97A941AE1DA341f7C296e8418e9936295949063c563c4ed906105a0907f0000000000000000000000000000000000000000000000000000000000000000907f00000000000000000000000000000000000000000000000000000000000000009086908a908a908a906004016125a0565b610c0a6110e5565b6040516329493f7960e01b81523390731064c97A941AE1DA341f7C296e8418e993629594906329493f7990610c8b907f0000000000000000000000000000000000000000000000000000000000000000907f000000000000000000000000000000000000000000000000000000000000000090869089908990600401612f4f565b60006040518083038186803b158015610ca357600080fd5b505af4158015610cb7573d6000803e3d6000fd5b50505050506106266001600055565b610cce6110e5565b610cd78261113e565b61061c7f0000000000000000000000000000000000000000000000000000000000000000838361186a565b6060816001600160401b03811115610d1c57610d1c612b11565b604051908082528060200260200182016040528015610d4f57816020015b6060815260200190600190039081610d3a5790505b50905060005b82811015610e0e5760008030868685818110610d7357610d73612f82565b9050602002810190610d859190612f98565b604051610d93929190612fde565b600060405180830381855af49150503d8060008114610dce576040519150601f19603f3d011682016040523d82523d6000602084013e610dd3565b606091505b509150915081610de657610de6816118ed565b80848481518110610df957610df9612f82565b60209081029190910101525050600101610d55565b5092915050565b610e1d6110e5565b604051630c2b894360e01b81523390731064c97A941AE1DA341f7C296e8418e99362959490630c2b894390610c8b907f0000000000000000000000000000000000000000000000000000000000000000907f000000000000000000000000000000000000000000000000000000000000000090869089908990600401612f4f565b610ea66110e5565b60005a9050600073FDa67670C08149e76F6C038446F3674bf137aBd863fdfc26f37f00000000000000000000000000000000000000000000000000000000000000008b6040518363ffffffff1660e01b8152600401610f06929190612af8565b600060405180830381865af4158015610f23573d6000803e3d6000fd5b505050506040513d6000823e601f3d908101601f19168201604052610f4b9190810190612de3565b90506000610f5882515190565b6001600160a01b031603610f7f57604051631630779760e01b815260040160405180910390fd5b610f8b610acd82515190565b6001600160a01b037f00000000000000000000000000000000000000000000000000000000000000001663a9db59a78a8a8a8a8a8a8a896000610fd082516060015190565b6001600160a01b031614156040518a63ffffffff1660e01b8152600401610fff999897969594939291906130e9565b600060405180830381600087803b15801561101957600080fd5b505af115801561102d573d6000803e3d6000fd5b5050505061103d610b6282515190565b50506110496001600055565b50505050505050565b61105a6110e5565b6110638261113e565b6040516303704f0f60e31b815233906001600160a01b037f00000000000000000000000000000000000000000000000000000000000000001690631b827878906110b79087908590889088906004016129ab565b600060405180830381600087803b1580156110d157600080fd5b505af11580156105cc573d6000803e3d6000fd5b6002600054036111375760405162461bcd60e51b815260206004820152601f60248201527f5265656e7472616e637947756172643a207265656e7472616e742063616c6c006044820152606401610145565b6002600055565b6001600160a01b0381166105125760405163d551823d60e01b815260040160405180910390fd5b8060000361117257505050565b61117b8261113e565b6000836001600160a01b031663bd02d0f560405160200161119b90613252565b604051602081830303815290604052805190602001206040518263ffffffff1660e01b81526004016111cf91815260200190565b602060405180830381865afa1580156111ec573d6000803e3d6000fd5b505050506040513d601f19601f820116820180604052508101906112109190612adf565b90506000806000806000868887f19050801561122d575050505050565b61123885858561186a565b5050505050565b6112717f000000000000000000000000000000000000000000000000000000000000000061126c30611926565b6119b1565b60405163f7b4e61960e01b81523390731064c97A941AE1DA341f7C296e8418e9936295949063f7b4e619906112ce907f00000000000000000000000000000000000000000000000000000000000000009087908690600401613289565b60006040518083038186803b1580156112e657600080fd5b505af41580156112fa573d6000803e3d6000fd5b5050604051631bbb493d60e31b8152731064c97A941AE1DA341f7C296e8418e993629594925063ddda49e89150611380907f0000000000000000000000000000000000000000000000000000000000000000907f0000000000000000000000000000000000000000000000000000000000000000908890879089906001906004016125a0565b60006040518083038186803b15801561139857600080fd5b505af4158015611049573d6000803e3d6000fd5b6040516307e9068160e31b8152600090731064c97A941AE1DA341f7C296e8418e99362959490633f4834089061140a907f00000000000000000000000000000000000000000000000000000000000000009089908990600401613289565b602060405180830381865af4158015611427573d6000803e3d6000fd5b505050506040513d601f19601f8201168201806040525081019061144b9190612adf565b90508060000361145b5750611864565b60007f00000000000000000000000000000000000000000000000000000000000000006001600160a01b03166321f8a72160405160200161149b90612530565b604051602081830303815290604052805190602001206040518263ffffffff1660e01b81526004016114cf91815260200190565b602060405180830381865afa1580156114ec573d6000803e3d6000fd5b505050506040513d601f19601f820116820180604052508101906115109190612558565b604051636eb1769f60e11b81526001600160a01b0388811660048301527f000000000000000000000000000000000000000000000000000000000000000081166024830152919250839183169063dd62ed3e90604401602060405180830381865afa158015611583573d6000803e3d6000fd5b505050506040513d601f19601f820116820180604052508101906115a79190612adf565b10156115b4575050611864565b6040516370a0823160e01b815282906001600160a01b038316906370a08231906115e2908a90600401612225565b602060405180830381865afa1580156115ff573d6000803e3d6000fd5b505050506040513d601f19601f820116820180604052508101906116239190612adf565b1015611630575050611864565b6000833a5a61163f90886132c2565b61164991906132d5565b61165391906132ec565b905082811015611661578092505b6040516303704f0f60e31b81526001600160a01b037f00000000000000000000000000000000000000000000000000000000000000001690631b827878906116b39085908b90309089906004016129ab565b600060405180830381600087803b1580156116cd57600080fd5b505af11580156116e1573d6000803e3d6000fd5b505050506117117f00000000000000000000000000000000000000000000000000000000000000008388866119dc565b611719612127565b8051611726906002611b0a565b6040805180820190915260078152661858d8dbdd5b9d60ca1b60208201528151611753916000908b611b6f565b60408051808201909152600a8152691cdd589858d8dbdd5b9d60b21b60208201528151611783916001908a611b6f565b6020810151611793906001611b0a565b6117cd600060405180604001604052806006815260200165185b5bdd5b9d60d21b815250868460200151611bcc909392919063ffffffff16565b7f00000000000000000000000000000000000000000000000000000000000000006001600160a01b03166363d163636118058a611c1f565b61180e8a611c1f565b846040518463ffffffff1660e01b815260040161182d939291906139c5565b600060405180830381600087803b15801561184757600080fd5b505af115801561185b573d6000803e3d6000fd5b50505050505050505b50505050565b8060000361187757505050565b6118808261113e565b600061188b846103b5565b9050806001600160a01b031663d0e30db0836040518263ffffffff1660e01b81526004016000604051808303818588803b1580156118c857600080fd5b505af11580156118dc573d6000803e3d6000fd5b505050505061186484828585611c2b565b6000806118f983611e75565b91509150801561191d578160405162461bcd60e51b81526004016101459190613ad0565b6105db83611f05565b6000604051602001611967906020808252601b908201527a14d5509050d0d3d5539517d191505515549157d11254d050931151602a1b604082015260600190565b60408051601f198184030181528282528051602091820120908301526001600160a01b03841690820152606001604051602081830303815290604052805190602001209050919050565b6119bb8282611f0e565b156106265760405163dd70e0c960e01b815260048101829052602401610145565b8015611864576119eb8261113e565b604051632e1a7d4d60e01b8152600481018290526001600160a01b03841690632e1a7d4d90602401600060405180830381600087803b158015611a2d57600080fd5b505af1158015611a41573d6000803e3d6000fd5b505050506000846001600160a01b031663bd02d0f5604051602001611a6590613252565b604051602081830303815290604052805190602001206040518263ffffffff1660e01b8152600401611a9991815260200190565b602060405180830381865afa158015611ab6573d6000803e3d6000fd5b505050506040513d601f19601f82011682018060405250810190611ada9190612adf565b90506000806000806000868887f190508015611af7575050611864565b611b0286858561186a565b505050505050565b806001600160401b03811115611b2257611b22612b11565b604051908082528060200260200182016040528015611b6857816020015b604080518082019091526060815260006020820152815260200190600190039081611b405790505b5090915250565b8184600001518481518110611b8657611b86612f82565b6020026020010151600001819052508084600001518481518110611bac57611bac612f82565b6020908102919091018101516001600160a01b0390921691015250505050565b8184600001518481518110611be357611be3612f82565b6020026020010151600001819052508084600001518481518110611c0957611c09612f82565b6020026020010151602001818152505050505050565b6001600160a01b031690565b801561186457611c3a8261113e565b6000846001600160a01b031663bd02d0f5611c5486611f81565b6040518263ffffffff1660e01b8152600401611c7291815260200190565b602060405180830381865afa158015611c8f573d6000803e3d6000fd5b505050506040513d601f19601f82011682018060405250810190611cb39190612adf565b905080600003611cd85783604051634fe14bfd60e11b81526004016101459190612225565b6000611ce685858585611fbf565b5090508015611cf6575050611864565b6000866001600160a01b03166321f8a721604051602001611d3a906020808252600f908201526e484f4c44494e475f4144445245535360881b604082015260600190565b604051602081830303815290604052805190602001206040518263ffffffff1660e01b8152600401611d6e91815260200190565b602060405180830381865afa158015611d8b573d6000803e3d6000fd5b505050506040513d601f19601f82011682018060405250810190611daf9190612558565b90506001600160a01b038116611dd857604051633a6de2f560e21b815260040160405180910390fd5b600080611de788848888611fbf565b915091508115611dfb575050505050611864565b6000611e0682611e75565b5090507fc9f14d9a0a9b46470c7c0b6c508f8283abaab7f795f153953c58cd4250824dae8183604051611e3a929190613ae3565b60405180910390a160405163012f3b8f60e71b81526001600160a01b03808b1660048301528916602482015260448101889052606401610145565b60606000604483511015611e9c575050604080516020810190915260008082529092909150565b6000611ea9846020015190565b90506307b9e43360e51b6001600160e01b0319821601611ee85760048401935083806020019051810190611edd9190613b08565b946001945092505050565b600060405180602001604052806000815250909250925050915091565b80518060208301fd5b604051633d70e7e560e11b8152600481018290526000906001600160a01b03841690637ae1cfca90602401602060405180830381865afa158015611f56573d6000803e3d6000fd5b505050506040513d601f19601f82011682018060405250810190611f7a9190613b93565b9392505050565b6000604051602001611967906020808252601890820152771513d2d15397d514905394d1915497d1d054d7d31253525560421b604082015260600190565b60006060600063a9059cbb60e01b8686604051602401611fe0929190612af8565b604051602081830303815290604052906001600160e01b0319166020820180516001600160e01b0383818316178352505050509050600080886001600160a01b031686846040516120319190613bb0565b60006040518083038160008787f1925050503d806000811461206f576040519150601f19603f3d011682016040523d82523d6000602084013e612074565b606091505b509150915081156121155780516000036120d2576001600160a01b0389163b6120d25760006040518060400160405280601481526020017310d85b1b081d1bc81b9bdb8b58dbdb9d1c9858dd60621b8152509450945050505061211e565b600081511180156120f45750808060200190518101906120f29190613b93565b155b156121075760009450925061211e915050565b60019450925061211e915050565b60009450925050505b94509492505050565b604080516101208101909152606060e0820181815261010083019190915281908152602001612169604051806040016040528060608152602001606081525090565b815260200161218b604051806040016040528060608152602001606081525090565b81526020016121ad604051806040016040528060608152602001606081525090565b81526020016121cf604051806040016040528060608152602001606081525090565b81526020016121f1604051806040016040528060608152602001606081525090565b8152602001612213604051806040016040528060608152602001606081525090565b905290565b6001600160a01b03169052565b6001600160a01b0391909116815260200190565b6001600160a01b038116811461051257600080fd5b803561225981612239565b919050565b60006020828403121561227057600080fd5b8135611f7a81612239565b60008060006060848603121561229057600080fd5b833561229b81612239565b95602085013595506040909401359392505050565b600080604083850312156122c357600080fd5b82356122ce81612239565b946020939093013593505050565b600080604083850312156122ef57600080fd5b82356122fa81612239565b915060208301356001600160401b0381111561231557600080fd5b8301610200818603121561232857600080fd5b809150509250929050565b60006020828403121561234557600080fd5b5035919050565b6000806020838503121561235f57600080fd5b82356001600160401b0381111561237557600080fd5b8301601f8101851361238657600080fd5b80356001600160401b0381111561239c57600080fd5b8560208260051b84010111156123b157600080fd5b6020919091019590945092505050565b60005b838110156123dc5781810151838201526020016123c4565b50506000910152565b600081518084526123fd8160208601602086016123c1565b601f01601f19169290920160200192915050565b6000602082016020835280845180835260408501915060408160051b86010192506020860160005b8281101561246a57603f198786030184526124558583516123e5565b94506020938401939190910190600101612439565b50929695505050505050565b801515811461051257600080fd5b803561225981612476565b600080600080600080600060e0888a0312156124aa57600080fd5b873596506020880135955060408801359450606088013593506080880135925060a0880135915060c08801356124df81612476565b8091505092959891949750929550565b60008060006060848603121561250457600080fd5b833561250f81612239565b9250602084013561251f81612239565b929592945050506040919091013590565b60208082526003908201526215d39560ea1b604082015260600190565b805161225981612239565b60006020828403121561256a57600080fd5b8151611f7a81612239565b6001600160a01b03948516815292841660208401529083166040830152909116606082015260800190565b6001600160a01b0396871681529486166020860152928516604085015293166060830152608082019290925260a081019190915260c00190565b60208082526017908201527629aaa120a1a1a7aaa72a2fa7a92222a92fa0a1aa24a7a760491b604082015260600190565b6000823560de1983360301811261262157600080fd5b90910192915050565b6000808335601e1984360301811261264157600080fd5b83016020810192503590506001600160401b0381111561266057600080fd5b8060051b360382131561267257600080fd5b9250929050565b81835260208301925060008160005b848110156126b957813561269b81612239565b6001600160a01b031686526020958601959190910190600101612688565b5093949350505050565b600081356126d081612239565b6001600160a01b0316835260208201356126e981612239565b6001600160a01b031660208401526127036040830161224e565b6127106040850182612218565b5061271d6060830161224e565b61272a6060850182612218565b506127376080830161224e565b6127446080850182612218565b5061275160a0830161224e565b61275e60a0850182612218565b5061276c60c083018361262a565b60e060c086015261278160e086018284612679565b95945050505050565b803582526020808201359083015260408082013590830152606080820135908301526080808201359083015260a0808201359083015260c0808201359083015260e090810135910152565b6009811061051257600080fd5b8035612259816127d5565b634e487b7160e01b600052602160045260246000fd5b60098110612813576128136127ed565b9052565b6003811061051257600080fd5b803561225981612817565b60038110612813576128136127ed565b81835260006001600160fb1b0383111561285857600080fd5b8260051b80836020870137939093016020019392505050565b6001600160a01b0383168152604060208201526000612890838061260b565b61020060408401526128a66102408401826126c3565b90506128b8606084016020860161278a565b6128c561012085016127e2565b6128d3610160850182612803565b506128e16101408501612824565b6128ef61018085018261282f565b506128fd6101608501612484565b15156101a08401526129126101808501612484565b15156101c08401526129276101a08501612484565b8015156101e0850152506101c084013561020084015261294b6101e085018561262a565b848303603f190161022086015261296383828461283f565b979650505050505050565b60006020828403121561298057600080fd5b8135611f7a816127d5565b6000823560de198336030181126129a157600080fd5b9190910192915050565b6001600160a01b039485168152928416602084015292166040820152606081019190915260800190565b6001600160a01b0385168152602081018490526080604082015260006129fb848061260b565b6102006080840152612a116102808401826126c3565b9050612a2360a084016020870161278a565b612a3061012086016127e2565b612a3e6101a0850182612803565b50612a4c6101408601612824565b612a5a6101c085018261282f565b50612a686101608601612484565b15156101e0840152612a7d6101808601612484565b1515610200840152612a926101a08601612484565b15156102208401526101c0850135610240840152612ab46101e086018661262a565b848303607f1901610260860152612acc83828461283f565b9350505050612781606083018415159052565b600060208284031215612af157600080fd5b5051919050565b6001600160a01b03929092168252602082015260400190565b634e487b7160e01b600052604160045260246000fd5b60405161018081016001600160401b0381118282101715612b4a57612b4a612b11565b60405290565b604051608081016001600160401b0381118282101715612b4a57612b4a612b11565b60405161010081016001600160401b0381118282101715612b4a57612b4a612b11565b604051601f8201601f191681016001600160401b0381118282101715612bbd57612bbd612b11565b604052919050565b60006001600160401b03821115612bde57612bde612b11565b5060051b60200190565b600082601f830112612bf957600080fd5b8151612c0c612c0782612bc5565b612b95565b8082825260208201915060208360051b860101925085831115612c2e57600080fd5b602085015b83811015612c54578051612c4681612239565b835260209283019201612c33565b5095945050505050565b8051612259816127d5565b805161225981612817565b60006101808284031215612c8757600080fd5b612c8f612b27565b9050612c9a82612c5e565b8152612ca860208301612c69565b602082015260408281015190820152606080830151908201526080808301519082015260a0808301519082015260c0808301519082015260e080830151908201526101008083015190820152610120808301519082015261014080830151908201526101609182015191810191909152919050565b600060808284031215612d2f57600080fd5b612d37612b50565b90508151612d4481612476565b81526020820151612d5481612476565b60208201526040820151612d6781612476565b60408201526060820151612d7a81612476565b606082015292915050565b600082601f830112612d9657600080fd5b8151612da4612c0782612bc5565b8082825260208201915060208360051b860101925085831115612dc657600080fd5b602085015b83811015612c54578051835260209283019201612dcb565b600060208284031215612df557600080fd5b81516001600160401b03811115612e0b57600080fd5b82016102408185031215612e1e57600080fd5b612e26612b50565b81516001600160401b03811115612e3c57600080fd5b82016101008187031215612e4f57600080fd5b612e57612b72565b612e608261254d565b8152612e6e6020830161254d565b6020820152612e7f6040830161254d565b6040820152612e906060830161254d565b6060820152612ea16080830161254d565b6080820152612eb260a0830161254d565b60a0820152612ec360c0830161254d565b60c082015260e08201516001600160401b03811115612ee157600080fd5b612eed88828501612be8565b60e083015250825250612f038560208401612c74565b6020820152612f16856101a08401612d1d565b60408201526102208201516001600160401b03811115612f3557600080fd5b612f4186828501612d85565b606083015250949350505050565b6001600160a01b039586168152938516602085015291841660408401529092166060820152608081019190915260a00190565b634e487b7160e01b600052603260045260246000fd5b6000808335601e19843603018112612faf57600080fd5b8301803591506001600160401b03821115612fc957600080fd5b60200191503681900382131561267257600080fd5b8183823760009101908152919050565b600081518084526020840193506020830160005b828110156126b95781516001600160a01b0316865260209586019590910190600101613002565b613034828251612803565b6020810151613046602084018261282f565b5060408101516040830152606081015160608301526080810151608083015260a081015160a083015260c081015160c083015260e081015160e08301526101008101516101008301526101208101516101208301526101408101516101408301526101608101516101608301525050565b600081518084526020840193506020830160005b828110156126b95781518652602095860195909101906001016130cb565b8981528860208201528760408201528660608201528560808201528460a082015283151560c082015261012060e08201526000835161024061012084015260018060a01b0381511661036084015260018060a01b03602082015116610380840152604081015161315d6103a0850182612218565b5060608101516131716103c0850182612218565b5060808101516131856103e0850182612218565b5060a0810151613199610400850182612218565b5060c08101516131ad610420850182612218565b5060e001516101006104408401526131c9610460840182612fee565b905060208501516131de610140850182613029565b50604085810151805115156102c0860152602081015115156102e0860152908101511515610300850152606090810151151561032085015285015161011f198483030161034085015261323182826130b7565b9250505061324461010083018415159052565b9a9950505050505050505050565b6020808252601f908201527f4e41544956455f544f4b454e5f5452414e534645525f4741535f4c494d495400604082015260600190565b6001600160a01b0393841681529183166020830152909116604082015260600190565b634e487b7160e01b600052601160045260246000fd5b8181038181111561044a5761044a6132ac565b808202811582820484141761044a5761044a6132ac565b8082018082111561044a5761044a6132ac565b600082825180855260208501945060208160051b8301016020850160005b8381101561337657601f19858403018852815180516040855261334360408601826123e5565b905060208201519150848103602086015261335e8183612fee565b60209a8b019a9095509390930192505060010161331d565b50909695505050505050565b60006040830182516040855281815180845260608701915060608160051b880101935060208301925060005b818110156133fc57605f1988860301835283518051604087526133d460408801826123e5565b6020928301516001600160a01b031697830197909752509384019392909201916001016133ae565b505050506020830151848203602086015261278182826132ff565b600082825180855260208501945060208160051b8301016020850160005b8381101561337657601f19858403018852815180516040855261345b60408601826123e5565b6020928301518682038785015280518083529084019360009350909101905b8083101561349d578351825260208201915060208401935060018301925061347a565b5060209a8b019a90955093909301925050600101613435565b60006040830182516040855281815180845260608701915060608160051b880101935060208301925060005b8181101561352757605f19888603018352835180516040875261350860408801826123e5565b60209283015197830197909752509384019392909201916001016134e2565b50505050602083015184820360208601526127818282613417565b60006040830182516040855281815180845260608701915060608160051b880101935060208301925060005b8181101561352757605f19888603018352835180516040875261359460408801826123e5565b602092830151978301979097525093840193929092019160010161356e565b600082825180855260208501945060208160051b8301016020850160005b8381101561337657601f1985840301885281518051604085526135f760408601826123e5565b6020928301518682038785015280518083529084019360009350909101905b8083101561363b57835115158252602082019150602084019350600183019250613616565b5060209a8b019a909550939093019250506001016135d1565b60006040830182516040855281815180845260608701915060608160051b880101935060208301925060005b818110156136c757605f1988860301835283518051604087526136a660408801826123e5565b60209283015115159783019790975250938401939290920191600101613680565b505050506020830151848203602086015261278182826135b3565b600082825180855260208501945060208160051b8301016020850160005b8381101561337657601f19858403018852815180516040855261372660408601826123e5565b905060208201519150848103602086015261374181836130b7565b60209a8b019a90955093909301925050600101613700565b60006040830182516040855281815180845260608701915060608160051b880101935060208301925060005b818110156137ca57605f1988860301835283518051604087526137ab60408801826123e5565b6020928301519783019790975250938401939290920191600101613785565b505050506020830151848203602086015261278182826136e2565b600082825180855260208501945060208160051b8301016020850160005b8381101561337657601f19858403018852815180516040855261382960408601826123e5565b6020928301518682038785015280518083529084019391925081830191600582901b84010160005b8281101561388257601f1985830301845261386d8287516123e5565b60209687019694909401939150600101613851565b508097505050505050602082019150602088019750600181019050613803565b60006040830182516040855281815180845260608701915060608160051b880101935060208301925060005b8181101561392657605f1988860301835283518051604087526138f460408801826123e5565b905060208201519150868103602088015261390f81836123e5565b9650505060209384019392909201916001016138ce565b505050506020830151848203602086015261278182826137e5565b60006040830182516040855281815180845260608701915060608160051b880101935060208301925060005b8181101561392657605f19888603018352835180516040875261399360408801826123e5565b90506020820151915086810360208801526139ae81836123e5565b96505050602093840193929092019160010161396d565b60808152601360808201527205375626163636f756e744175746f546f70557606c1b60a082015283602082015282604082015260c060608201526000825160e060c0840152613a186101a0840182613382565b9050602084015160bf198483030160e0850152613a3582826134b6565b915050604084015160bf1984830301610100850152613a548282613542565b915050606084015160bf1984830301610120850152613a738282613654565b915050608084015160bf1984830301610140850152613a928282613759565b91505060a084015160bf1984830301610160850152613ab182826138a2565b91505060c084015160bf19848303016101808501526129638282613941565b602081526000611f7a60208301846123e5565b604081526000613af660408301856123e5565b828103602084015261278181856123e5565b600060208284031215613b1a57600080fd5b81516001600160401b03811115613b3057600080fd5b8201601f81018413613b4157600080fd5b80516001600160401b03811115613b5a57613b5a612b11565b613b6d601f8201601f1916602001612b95565b818152856020838501011115613b8257600080fd5b6127818260208301602086016123c1565b600060208284031215613ba557600080fd5b8151611f7a81612476565b600082516129a18184602087016123c156fea26469706673582212208103a8fb43bdeef4c2fe42143fc9d6f5dda5feb5db7e3808626b95a138263f6b64736f6c634300081d0033",
  "deployedBytecode": "0x6080604052600436106100e85760003560e01c80633914f217146101555780633e46b365146101685780634a4a7b041461017b57806353ead2d3146101c5578063660d0d67146101d857806369b605c51461020c578063712182eb1461022d5780637489ec231461024057806378a61fa21461025357806379a358a2146102665780637d39aaf11461027957806393845e461461028c5780639ff78c30146102c0578063ac9650d8146102f4578063b584830514610314578063d1bfe05114610348578063dd5baad21461035b578063e6d66ac81461036e578063f887ea401461038157600080fd5b366101505760006101187f00000000000000000000000000000000000000000000000000000000000000006103b5565b9050336001600160a01b0382161461014e573360405163738d28df60e11b81526004016101459190612225565b60405180910390fd5b005b600080fd5b61014e61016336600461225e565b610450565b61014e61017636600461227b565b610515565b34801561018757600080fd5b506101af7f000000000000000000000000000000000000000000000000000000000000000081565b6040516101bc9190612225565b60405180910390f35b61014e6101d33660046122b0565b6105e0565b3480156101e457600080fd5b506101af7f000000000000000000000000000000000000000000000000000000000000000081565b61021f61021a3660046122dc565b61062a565b6040519081526020016101bc565b61014e61023b36600461225e565b610959565b61014e61024e366004612333565b6109e0565b61014e61026136600461227b565b610b77565b61014e6102743660046122b0565b610c02565b61014e6102873660046122b0565b610cc6565b34801561029857600080fd5b506101af7f000000000000000000000000000000000000000000000000000000000000000081565b3480156102cc57600080fd5b506101af7f000000000000000000000000000000000000000000000000000000000000000081565b61030761030236600461234c565b610d02565b6040516101bc9190612411565b34801561032057600080fd5b506101af7f000000000000000000000000000000000000000000000000000000000000000081565b61014e6103563660046122b0565b610e15565b61014e61036936600461248f565b610e9e565b61014e61037c3660046124ef565b611052565b34801561038d57600080fd5b506101af7f000000000000000000000000000000000000000000000000000000000000000081565b6000816001600160a01b03166321f8a7216040516020016103d590612530565b604051602081830303815290604052805190602001206040518263ffffffff1660e01b815260040161040991815260200190565b602060405180830381865afa158015610426573d6000803e3d6000fd5b505050506040513d601f19601f8201168201806040525081019061044a9190612558565b92915050565b6104586110e5565b604051631638cf3360e31b8152339073__$cd9cbb3e1d35f471855f1a1916300c2072$__9063b1c67998906104d7907f0000000000000000000000000000000000000000000000000000000000000000907f00000000000000000000000000000000000000000000000000000000000000009086908890600401612575565b60006040518083038186803b1580156104ef57600080fd5b505af4158015610503573d6000803e3d6000fd5b50505050506105126001600055565b50565b61051d6110e5565b604051636583220d60e11b8152339073__$cd9cbb3e1d35f471855f1a1916300c2072$__9063cb06441a906105a0907f0000000000000000000000000000000000000000000000000000000000000000907f00000000000000000000000000000000000000000000000000000000000000009086908a908a908a906004016125a0565b60006040518083038186803b1580156105b857600080fd5b505af41580156105cc573d6000803e3d6000fd5b50505050506105db6001600055565b505050565b6105e86110e5565b6105f18261113e565b61061c7f00000000000000000000000000000000000000000000000000000000000000008383611165565b6106266001600055565b5050565b60006106346110e5565b60005a90506106678460405160200161064c906125da565b6040516020818303038152906040528051906020012061123f565b604051632dfbe7ff60e21b815273__$cd9cbb3e1d35f471855f1a1916300c2072$__9063b7ef9ffc906106a09087908790600401612871565b60006040518083038186803b1580156106b857600080fd5b505af41580156106cc573d6000803e3d6000fd5b50600092506106d9915050565b6106eb6101408501610120860161296e565b60088111156106fc576106fc6127ed565b148061072a575060016107176101408501610120860161296e565b6008811115610728576107286127ed565b145b80610757575060026107446101408501610120860161296e565b6008811115610755576107556127ed565b145b80610784575060036107716101408501610120860161296e565b6008811115610782576107826127ed565b145b806107b15750600861079e6101408501610120860161296e565b60088111156107af576107af6127ed565b145b1561087d576001600160a01b037f000000000000000000000000000000000000000000000000000000000000000016631b8278786107ef858061298b565b6108009060c081019060a00161225e565b604080516001600160e01b031960e085901b16815261084a929189917f0000000000000000000000000000000000000000000000000000000000000000918a0135906004016129ab565b600060405180830381600087803b15801561086457600080fd5b505af1158015610878573d6000803e3d6000fd5b505050505b60006001600160a01b037f00000000000000000000000000000000000000000000000000000000000000001663c6561b45868387816108bc828061298b565b6108cd90606081019060400161225e565b6001600160a01b031614156040518563ffffffff1660e01b81526004016108f794939291906129d5565b6020604051808303816000875af1158015610916573d6000803e3d6000fd5b505050506040513d601f19601f8201168201806040525081019061093a9190612adf565b905061094c85338460a08801356113ac565b91505061044a6001600055565b6109616110e5565b6040516331afcdf360e21b8152339073__$cd9cbb3e1d35f471855f1a1916300c2072$__9063c6bf37cc906104d7907f0000000000000000000000000000000000000000000000000000000000000000907f00000000000000000000000000000000000000000000000000000000000000009086908890600401612575565b6109e86110e5565b60005a9050600073__$9dcb75ef0bb6c4288f2ccffe7dc492c4eb$__63fdfc26f37f0000000000000000000000000000000000000000000000000000000000000000856040518363ffffffff1660e01b8152600401610a48929190612af8565b600060405180830381865af4158015610a65573d6000803e3d6000fd5b505050506040513d6000823e601f3d908101601f19168201604052610a8d9190810190612de3565b90506000610a9a82515190565b6001600160a01b031603610ac157604051631630779760e01b815260040160405180910390fd5b610adc610acd82515190565b60405160200161064c906125da565b604051637489ec2360e01b8152600481018490527f00000000000000000000000000000000000000000000000000000000000000006001600160a01b031690637489ec2390602401600060405180830381600087803b158015610b3e57600080fd5b505af1158015610b52573d6000803e3d6000fd5b50505050610b6b610b6282515190565b338460006113ac565b50506105126001600055565b610b7f6110e5565b60405163c563c4ed60e01b8152339073__$cd9cbb3e1d35f471855f1a1916300c2072$__9063c563c4ed906105a0907f0000000000000000000000000000000000000000000000000000000000000000907f00000000000000000000000000000000000000000000000000000000000000009086908a908a908a906004016125a0565b610c0a6110e5565b6040516329493f7960e01b8152339073__$cd9cbb3e1d35f471855f1a1916300c2072$__906329493f7990610c8b907f0000000000000000000000000000000000000000000000000000000000000000907f000000000000000000000000000000000000000000000000000000000000000090869089908990600401612f4f565b60006040518083038186803b158015610ca357600080fd5b505af4158015610cb7573d6000803e3d6000fd5b50505050506106266001600055565b610cce6110e5565b610cd78261113e565b61061c7f0000000000000000000000000000000000000000000000000000000000000000838361186a565b6060816001600160401b03811115610d1c57610d1c612b11565b604051908082528060200260200182016040528015610d4f57816020015b6060815260200190600190039081610d3a5790505b50905060005b82811015610e0e5760008030868685818110610d7357610d73612f82565b9050602002810190610d859190612f98565b604051610d93929190612fde565b600060405180830381855af49150503d8060008114610dce576040519150601f19603f3d011682016040523d82523d6000602084013e610dd3565b606091505b509150915081610de657610de6816118ed565b80848481518110610df957610df9612f82565b60209081029190910101525050600101610d55565b5092915050565b610e1d6110e5565b604051630c2b894360e01b8152339073__$cd9cbb3e1d35f471855f1a1916300c2072$__90630c2b894390610c8b907f0000000000000000000000000000000000000000000000000000000000000000907f000000000000000000000000000000000000000000000000000000000000000090869089908990600401612f4f565b610ea66110e5565b60005a9050600073__$9dcb75ef0bb6c4288f2ccffe7dc492c4eb$__63fdfc26f37f00000000000000000000000000000000000000000000000000000000000000008b6040518363ffffffff1660e01b8152600401610f06929190612af8565b600060405180830381865af4158015610f23573d6000803e3d6000fd5b505050506040513d6000823e601f3d908101601f19168201604052610f4b9190810190612de3565b90506000610f5882515190565b6001600160a01b031603610f7f57604051631630779760e01b815260040160405180910390fd5b610f8b610acd82515190565b6001600160a01b037f00000000000000000000000000000000000000000000000000000000000000001663a9db59a78a8a8a8a8a8a8a896000610fd082516060015190565b6001600160a01b031614156040518a63ffffffff1660e01b8152600401610fff999897969594939291906130e9565b600060405180830381600087803b15801561101957600080fd5b505af115801561102d573d6000803e3d6000fd5b5050505061103d610b6282515190565b50506110496001600055565b50505050505050565b61105a6110e5565b6110638261113e565b6040516303704f0f60e31b815233906001600160a01b037f00000000000000000000000000000000000000000000000000000000000000001690631b827878906110b79087908590889088906004016129ab565b600060405180830381600087803b1580156110d157600080fd5b505af11580156105cc573d6000803e3d6000fd5b6002600054036111375760405162461bcd60e51b815260206004820152601f60248201527f5265656e7472616e637947756172643a207265656e7472616e742063616c6c006044820152606401610145565b6002600055565b6001600160a01b0381166105125760405163d551823d60e01b815260040160405180910390fd5b8060000361117257505050565b61117b8261113e565b6000836001600160a01b031663bd02d0f560405160200161119b90613252565b604051602081830303815290604052805190602001206040518263ffffffff1660e01b81526004016111cf91815260200190565b602060405180830381865afa1580156111ec573d6000803e3d6000fd5b505050506040513d601f19601f820116820180604052508101906112109190612adf565b90506000806000806000868887f19050801561122d575050505050565b61123885858561186a565b5050505050565b6112717f000000000000000000000000000000000000000000000000000000000000000061126c30611926565b6119b1565b60405163f7b4e61960e01b8152339073__$cd9cbb3e1d35f471855f1a1916300c2072$__9063f7b4e619906112ce907f00000000000000000000000000000000000000000000000000000000000000009087908690600401613289565b60006040518083038186803b1580156112e657600080fd5b505af41580156112fa573d6000803e3d6000fd5b5050604051631bbb493d60e31b815273__$cd9cbb3e1d35f471855f1a1916300c2072$__925063ddda49e89150611380907f0000000000000000000000000000000000000000000000000000000000000000907f0000000000000000000000000000000000000000000000000000000000000000908890879089906001906004016125a0565b60006040518083038186803b15801561139857600080fd5b505af4158015611049573d6000803e3d6000fd5b6040516307e9068160e31b815260009073__$cd9cbb3e1d35f471855f1a1916300c2072$__90633f4834089061140a907f00000000000000000000000000000000000000000000000000000000000000009089908990600401613289565b602060405180830381865af4158015611427573d6000803e3d6000fd5b505050506040513d601f19601f8201168201806040525081019061144b9190612adf565b90508060000361145b5750611864565b60007f00000000000000000000000000000000000000000000000000000000000000006001600160a01b03166321f8a72160405160200161149b90612530565b604051602081830303815290604052805190602001206040518263ffffffff1660e01b81526004016114cf91815260200190565b602060405180830381865afa1580156114ec573d6000803e3d6000fd5b505050506040513d601f19601f820116820180604052508101906115109190612558565b604051636eb1769f60e11b81526001600160a01b0388811660048301527f000000000000000000000000000000000000000000000000000000000000000081166024830152919250839183169063dd62ed3e90604401602060405180830381865afa158015611583573d6000803e3d6000fd5b505050506040513d601f19601f820116820180604052508101906115a79190612adf565b10156115b4575050611864565b6040516370a0823160e01b815282906001600160a01b038316906370a08231906115e2908a90600401612225565b602060405180830381865afa1580156115ff573d6000803e3d6000fd5b505050506040513d601f19601f820116820180604052508101906116239190612adf565b1015611630575050611864565b6000833a5a61163f90886132c2565b61164991906132d5565b61165391906132ec565b905082811015611661578092505b6040516303704f0f60e31b81526001600160a01b037f00000000000000000000000000000000000000000000000000000000000000001690631b827878906116b39085908b90309089906004016129ab565b600060405180830381600087803b1580156116cd57600080fd5b505af11580156116e1573d6000803e3d6000fd5b505050506117117f00000000000000000000000000000000000000000000000000000000000000008388866119dc565b611719612127565b8051611726906002611b0a565b6040805180820190915260078152661858d8dbdd5b9d60ca1b60208201528151611753916000908b611b6f565b60408051808201909152600a8152691cdd589858d8dbdd5b9d60b21b60208201528151611783916001908a611b6f565b6020810151611793906001611b0a565b6117cd600060405180604001604052806006815260200165185b5bdd5b9d60d21b815250868460200151611bcc909392919063ffffffff16565b7f00000000000000000000000000000000000000000000000000000000000000006001600160a01b03166363d163636118058a611c1f565b61180e8a611c1f565b846040518463ffffffff1660e01b815260040161182d939291906139c5565b600060405180830381600087803b15801561184757600080fd5b505af115801561185b573d6000803e3d6000fd5b50505050505050505b50505050565b8060000361187757505050565b6118808261113e565b600061188b846103b5565b9050806001600160a01b031663d0e30db0836040518263ffffffff1660e01b81526004016000604051808303818588803b1580156118c857600080fd5b505af11580156118dc573d6000803e3d6000fd5b505050505061186484828585611c2b565b6000806118f983611e75565b91509150801561191d578160405162461bcd60e51b81526004016101459190613ad0565b6105db83611f05565b6000604051602001611967906020808252601b908201527a14d5509050d0d3d5539517d191505515549157d11254d050931151602a1b604082015260600190565b60408051601f198184030181528282528051602091820120908301526001600160a01b03841690820152606001604051602081830303815290604052805190602001209050919050565b6119bb8282611f0e565b156106265760405163dd70e0c960e01b815260048101829052602401610145565b8015611864576119eb8261113e565b604051632e1a7d4d60e01b8152600481018290526001600160a01b03841690632e1a7d4d90602401600060405180830381600087803b158015611a2d57600080fd5b505af1158015611a41573d6000803e3d6000fd5b505050506000846001600160a01b031663bd02d0f5604051602001611a6590613252565b604051602081830303815290604052805190602001206040518263ffffffff1660e01b8152600401611a9991815260200190565b602060405180830381865afa158015611ab6573d6000803e3d6000fd5b505050506040513d601f19601f82011682018060405250810190611ada9190612adf565b90506000806000806000868887f190508015611af7575050611864565b611b0286858561186a565b505050505050565b806001600160401b03811115611b2257611b22612b11565b604051908082528060200260200182016040528015611b6857816020015b604080518082019091526060815260006020820152815260200190600190039081611b405790505b5090915250565b8184600001518481518110611b8657611b86612f82565b6020026020010151600001819052508084600001518481518110611bac57611bac612f82565b6020908102919091018101516001600160a01b0390921691015250505050565b8184600001518481518110611be357611be3612f82565b6020026020010151600001819052508084600001518481518110611c0957611c09612f82565b6020026020010151602001818152505050505050565b6001600160a01b031690565b801561186457611c3a8261113e565b6000846001600160a01b031663bd02d0f5611c5486611f81565b6040518263ffffffff1660e01b8152600401611c7291815260200190565b602060405180830381865afa158015611c8f573d6000803e3d6000fd5b505050506040513d601f19601f82011682018060405250810190611cb39190612adf565b905080600003611cd85783604051634fe14bfd60e11b81526004016101459190612225565b6000611ce685858585611fbf565b5090508015611cf6575050611864565b6000866001600160a01b03166321f8a721604051602001611d3a906020808252600f908201526e484f4c44494e475f4144445245535360881b604082015260600190565b604051602081830303815290604052805190602001206040518263ffffffff1660e01b8152600401611d6e91815260200190565b602060405180830381865afa158015611d8b573d6000803e3d6000fd5b505050506040513d601f19601f82011682018060405250810190611daf9190612558565b90506001600160a01b038116611dd857604051633a6de2f560e21b815260040160405180910390fd5b600080611de788848888611fbf565b915091508115611dfb575050505050611864565b6000611e0682611e75565b5090507fc9f14d9a0a9b46470c7c0b6c508f8283abaab7f795f153953c58cd4250824dae8183604051611e3a929190613ae3565b60405180910390a160405163012f3b8f60e71b81526001600160a01b03808b1660048301528916602482015260448101889052606401610145565b60606000604483511015611e9c575050604080516020810190915260008082529092909150565b6000611ea9846020015190565b90506307b9e43360e51b6001600160e01b0319821601611ee85760048401935083806020019051810190611edd9190613b08565b946001945092505050565b600060405180602001604052806000815250909250925050915091565b80518060208301fd5b604051633d70e7e560e11b8152600481018290526000906001600160a01b03841690637ae1cfca90602401602060405180830381865afa158015611f56573d6000803e3d6000fd5b505050506040513d601f19601f82011682018060405250810190611f7a9190613b93565b9392505050565b6000604051602001611967906020808252601890820152771513d2d15397d514905394d1915497d1d054d7d31253525560421b604082015260600190565b60006060600063a9059cbb60e01b8686604051602401611fe0929190612af8565b604051602081830303815290604052906001600160e01b0319166020820180516001600160e01b0383818316178352505050509050600080886001600160a01b031686846040516120319190613bb0565b60006040518083038160008787f1925050503d806000811461206f576040519150601f19603f3d011682016040523d82523d6000602084013e612074565b606091505b509150915081156121155780516000036120d2576001600160a01b0389163b6120d25760006040518060400160405280601481526020017310d85b1b081d1bc81b9bdb8b58dbdb9d1c9858dd60621b8152509450945050505061211e565b600081511180156120f45750808060200190518101906120f29190613b93565b155b156121075760009450925061211e915050565b60019450925061211e915050565b60009450925050505b94509492505050565b604080516101208101909152606060e0820181815261010083019190915281908152602001612169604051806040016040528060608152602001606081525090565b815260200161218b604051806040016040528060608152602001606081525090565b81526020016121ad604051806040016040528060608152602001606081525090565b81526020016121cf604051806040016040528060608152602001606081525090565b81526020016121f1604051806040016040528060608152602001606081525090565b8152602001612213604051806040016040528060608152602001606081525090565b905290565b6001600160a01b03169052565b6001600160a01b0391909116815260200190565b6001600160a01b038116811461051257600080fd5b803561225981612239565b919050565b60006020828403121561227057600080fd5b8135611f7a81612239565b60008060006060848603121561229057600080fd5b833561229b81612239565b95602085013595506040909401359392505050565b600080604083850312156122c357600080fd5b82356122ce81612239565b946020939093013593505050565b600080604083850312156122ef57600080fd5b82356122fa81612239565b915060208301356001600160401b0381111561231557600080fd5b8301610200818603121561232857600080fd5b809150509250929050565b60006020828403121561234557600080fd5b5035919050565b6000806020838503121561235f57600080fd5b82356001600160401b0381111561237557600080fd5b8301601f8101851361238657600080fd5b80356001600160401b0381111561239c57600080fd5b8560208260051b84010111156123b157600080fd5b6020919091019590945092505050565b60005b838110156123dc5781810151838201526020016123c4565b50506000910152565b600081518084526123fd8160208601602086016123c1565b601f01601f19169290920160200192915050565b6000602082016020835280845180835260408501915060408160051b86010192506020860160005b8281101561246a57603f198786030184526124558583516123e5565b94506020938401939190910190600101612439565b50929695505050505050565b801515811461051257600080fd5b803561225981612476565b600080600080600080600060e0888a0312156124aa57600080fd5b873596506020880135955060408801359450606088013593506080880135925060a0880135915060c08801356124df81612476565b8091505092959891949750929550565b60008060006060848603121561250457600080fd5b833561250f81612239565b9250602084013561251f81612239565b929592945050506040919091013590565b60208082526003908201526215d39560ea1b604082015260600190565b805161225981612239565b60006020828403121561256a57600080fd5b8151611f7a81612239565b6001600160a01b03948516815292841660208401529083166040830152909116606082015260800190565b6001600160a01b0396871681529486166020860152928516604085015293166060830152608082019290925260a081019190915260c00190565b60208082526017908201527629aaa120a1a1a7aaa72a2fa7a92222a92fa0a1aa24a7a760491b604082015260600190565b6000823560de1983360301811261262157600080fd5b90910192915050565b6000808335601e1984360301811261264157600080fd5b83016020810192503590506001600160401b0381111561266057600080fd5b8060051b360382131561267257600080fd5b9250929050565b81835260208301925060008160005b848110156126b957813561269b81612239565b6001600160a01b031686526020958601959190910190600101612688565b5093949350505050565b600081356126d081612239565b6001600160a01b0316835260208201356126e981612239565b6001600160a01b031660208401526127036040830161224e565b6127106040850182612218565b5061271d6060830161224e565b61272a6060850182612218565b506127376080830161224e565b6127446080850182612218565b5061275160a0830161224e565b61275e60a0850182612218565b5061276c60c083018361262a565b60e060c086015261278160e086018284612679565b95945050505050565b803582526020808201359083015260408082013590830152606080820135908301526080808201359083015260a0808201359083015260c0808201359083015260e090810135910152565b6009811061051257600080fd5b8035612259816127d5565b634e487b7160e01b600052602160045260246000fd5b60098110612813576128136127ed565b9052565b6003811061051257600080fd5b803561225981612817565b60038110612813576128136127ed565b81835260006001600160fb1b0383111561285857600080fd5b8260051b80836020870137939093016020019392505050565b6001600160a01b0383168152604060208201526000612890838061260b565b61020060408401526128a66102408401826126c3565b90506128b8606084016020860161278a565b6128c561012085016127e2565b6128d3610160850182612803565b506128e16101408501612824565b6128ef61018085018261282f565b506128fd6101608501612484565b15156101a08401526129126101808501612484565b15156101c08401526129276101a08501612484565b8015156101e0850152506101c084013561020084015261294b6101e085018561262a565b848303603f190161022086015261296383828461283f565b979650505050505050565b60006020828403121561298057600080fd5b8135611f7a816127d5565b6000823560de198336030181126129a157600080fd5b9190910192915050565b6001600160a01b039485168152928416602084015292166040820152606081019190915260800190565b6001600160a01b0385168152602081018490526080604082015260006129fb848061260b565b6102006080840152612a116102808401826126c3565b9050612a2360a084016020870161278a565b612a3061012086016127e2565b612a3e6101a0850182612803565b50612a4c6101408601612824565b612a5a6101c085018261282f565b50612a686101608601612484565b15156101e0840152612a7d6101808601612484565b1515610200840152612a926101a08601612484565b15156102208401526101c0850135610240840152612ab46101e086018661262a565b848303607f1901610260860152612acc83828461283f565b9350505050612781606083018415159052565b600060208284031215612af157600080fd5b5051919050565b6001600160a01b03929092168252602082015260400190565b634e487b7160e01b600052604160045260246000fd5b60405161018081016001600160401b0381118282101715612b4a57612b4a612b11565b60405290565b604051608081016001600160401b0381118282101715612b4a57612b4a612b11565b60405161010081016001600160401b0381118282101715612b4a57612b4a612b11565b604051601f8201601f191681016001600160401b0381118282101715612bbd57612bbd612b11565b604052919050565b60006001600160401b03821115612bde57612bde612b11565b5060051b60200190565b600082601f830112612bf957600080fd5b8151612c0c612c0782612bc5565b612b95565b8082825260208201915060208360051b860101925085831115612c2e57600080fd5b602085015b83811015612c54578051612c4681612239565b835260209283019201612c33565b5095945050505050565b8051612259816127d5565b805161225981612817565b60006101808284031215612c8757600080fd5b612c8f612b27565b9050612c9a82612c5e565b8152612ca860208301612c69565b602082015260408281015190820152606080830151908201526080808301519082015260a0808301519082015260c0808301519082015260e080830151908201526101008083015190820152610120808301519082015261014080830151908201526101609182015191810191909152919050565b600060808284031215612d2f57600080fd5b612d37612b50565b90508151612d4481612476565b81526020820151612d5481612476565b60208201526040820151612d6781612476565b60408201526060820151612d7a81612476565b606082015292915050565b600082601f830112612d9657600080fd5b8151612da4612c0782612bc5565b8082825260208201915060208360051b860101925085831115612dc657600080fd5b602085015b83811015612c54578051835260209283019201612dcb565b600060208284031215612df557600080fd5b81516001600160401b03811115612e0b57600080fd5b82016102408185031215612e1e57600080fd5b612e26612b50565b81516001600160401b03811115612e3c57600080fd5b82016101008187031215612e4f57600080fd5b612e57612b72565b612e608261254d565b8152612e6e6020830161254d565b6020820152612e7f6040830161254d565b6040820152612e906060830161254d565b6060820152612ea16080830161254d565b6080820152612eb260a0830161254d565b60a0820152612ec360c0830161254d565b60c082015260e08201516001600160401b03811115612ee157600080fd5b612eed88828501612be8565b60e083015250825250612f038560208401612c74565b6020820152612f16856101a08401612d1d565b60408201526102208201516001600160401b03811115612f3557600080fd5b612f4186828501612d85565b606083015250949350505050565b6001600160a01b039586168152938516602085015291841660408401529092166060820152608081019190915260a00190565b634e487b7160e01b600052603260045260246000fd5b6000808335601e19843603018112612faf57600080fd5b8301803591506001600160401b03821115612fc957600080fd5b60200191503681900382131561267257600080fd5b8183823760009101908152919050565b600081518084526020840193506020830160005b828110156126b95781516001600160a01b0316865260209586019590910190600101613002565b613034828251612803565b6020810151613046602084018261282f565b5060408101516040830152606081015160608301526080810151608083015260a081015160a083015260c081015160c083015260e081015160e08301526101008101516101008301526101208101516101208301526101408101516101408301526101608101516101608301525050565b600081518084526020840193506020830160005b828110156126b95781518652602095860195909101906001016130cb565b8981528860208201528760408201528660608201528560808201528460a082015283151560c082015261012060e08201526000835161024061012084015260018060a01b0381511661036084015260018060a01b03602082015116610380840152604081015161315d6103a0850182612218565b5060608101516131716103c0850182612218565b5060808101516131856103e0850182612218565b5060a0810151613199610400850182612218565b5060c08101516131ad610420850182612218565b5060e001516101006104408401526131c9610460840182612fee565b905060208501516131de610140850182613029565b50604085810151805115156102c0860152602081015115156102e0860152908101511515610300850152606090810151151561032085015285015161011f198483030161034085015261323182826130b7565b9250505061324461010083018415159052565b9a9950505050505050505050565b6020808252601f908201527f4e41544956455f544f4b454e5f5452414e534645525f4741535f4c494d495400604082015260600190565b6001600160a01b0393841681529183166020830152909116604082015260600190565b634e487b7160e01b600052601160045260246000fd5b8181038181111561044a5761044a6132ac565b808202811582820484141761044a5761044a6132ac565b8082018082111561044a5761044a6132ac565b600082825180855260208501945060208160051b8301016020850160005b8381101561337657601f19858403018852815180516040855261334360408601826123e5565b905060208201519150848103602086015261335e8183612fee565b60209a8b019a9095509390930192505060010161331d565b50909695505050505050565b60006040830182516040855281815180845260608701915060608160051b880101935060208301925060005b818110156133fc57605f1988860301835283518051604087526133d460408801826123e5565b6020928301516001600160a01b031697830197909752509384019392909201916001016133ae565b505050506020830151848203602086015261278182826132ff565b600082825180855260208501945060208160051b8301016020850160005b8381101561337657601f19858403018852815180516040855261345b60408601826123e5565b6020928301518682038785015280518083529084019360009350909101905b8083101561349d578351825260208201915060208401935060018301925061347a565b5060209a8b019a90955093909301925050600101613435565b60006040830182516040855281815180845260608701915060608160051b880101935060208301925060005b8181101561352757605f19888603018352835180516040875261350860408801826123e5565b60209283015197830197909752509384019392909201916001016134e2565b50505050602083015184820360208601526127818282613417565b60006040830182516040855281815180845260608701915060608160051b880101935060208301925060005b8181101561352757605f19888603018352835180516040875261359460408801826123e5565b602092830151978301979097525093840193929092019160010161356e565b600082825180855260208501945060208160051b8301016020850160005b8381101561337657601f1985840301885281518051604085526135f760408601826123e5565b6020928301518682038785015280518083529084019360009350909101905b8083101561363b57835115158252602082019150602084019350600183019250613616565b5060209a8b019a909550939093019250506001016135d1565b60006040830182516040855281815180845260608701915060608160051b880101935060208301925060005b818110156136c757605f1988860301835283518051604087526136a660408801826123e5565b60209283015115159783019790975250938401939290920191600101613680565b505050506020830151848203602086015261278182826135b3565b600082825180855260208501945060208160051b8301016020850160005b8381101561337657601f19858403018852815180516040855261372660408601826123e5565b905060208201519150848103602086015261374181836130b7565b60209a8b019a90955093909301925050600101613700565b60006040830182516040855281815180845260608701915060608160051b880101935060208301925060005b818110156137ca57605f1988860301835283518051604087526137ab60408801826123e5565b6020928301519783019790975250938401939290920191600101613785565b505050506020830151848203602086015261278182826136e2565b600082825180855260208501945060208160051b8301016020850160005b8381101561337657601f19858403018852815180516040855261382960408601826123e5565b6020928301518682038785015280518083529084019391925081830191600582901b84010160005b8281101561388257601f1985830301845261386d8287516123e5565b60209687019694909401939150600101613851565b508097505050505050602082019150602088019750600181019050613803565b60006040830182516040855281815180845260608701915060608160051b880101935060208301925060005b8181101561392657605f1988860301835283518051604087526138f460408801826123e5565b905060208201519150868103602088015261390f81836123e5565b9650505060209384019392909201916001016138ce565b505050506020830151848203602086015261278182826137e5565b60006040830182516040855281815180845260608701915060608160051b880101935060208301925060005b8181101561392657605f19888603018352835180516040875261399360408801826123e5565b90506020820151915086810360208801526139ae81836123e5565b96505050602093840193929092019160010161396d565b60808152601360808201527205375626163636f756e744175746f546f70557606c1b60a082015283602082015282604082015260c060608201526000825160e060c0840152613a186101a0840182613382565b9050602084015160bf198483030160e0850152613a3582826134b6565b915050604084015160bf1984830301610100850152613a548282613542565b915050606084015160bf1984830301610120850152613a738282613654565b915050608084015160bf1984830301610140850152613a928282613759565b91505060a084015160bf1984830301610160850152613ab182826138a2565b91505060c084015160bf19848303016101808501526129638282613941565b602081526000611f7a60208301846123e5565b604081526000613af660408301856123e5565b828103602084015261278181856123e5565b600060208284031215613b1a57600080fd5b81516001600160401b03811115613b3057600080fd5b8201601f81018413613b4157600080fd5b80516001600160401b03811115613b5a57613b5a612b11565b613b6d601f8201601f1916602001612b95565b818152856020838501011115613b8257600080fd5b6127818260208301602086016123c1565b600060208284031215613ba557600080fd5b8151611f7a81612476565b600082516129a18184602087016123c156fea26469706673582212208103a8fb43bdeef4c2fe42143fc9d6f5dda5feb5db7e3808626b95a138263f6b64736f6c634300081d0033",
  "libraries": {
    "OrderStoreUtils": "0xFDa67670C08149e76F6C038446F3674bf137aBd8",
    "SubaccountUtils": "0x1064c97A941AE1DA341f7C296e8418e993629594"
  },
  "devdoc": {
    "kind": "dev",
    "methods": {
      "multicall(bytes[])": {
        "details": "Receives and executes a batch of function calls on this contract."
      }
    },
    "version": 1
  },
  "userdoc": {
    "kind": "user",
    "methods": {},
    "version": 1
  },
  "storageLayout": {
    "storage": [
      {
        "astId": 8244,
        "contract": "contracts/router/SubaccountRouter.sol:SubaccountRouter",
        "label": "_status",
        "offset": 0,
        "slot": "0",
        "type": "t_uint256"
      }
    ],
    "types": {
      "t_uint256": {
        "encoding": "inplace",
        "label": "uint256",
        "numberOfBytes": "32"
      }
    }
  }
}