{
  "address": "0x1F573C9C630E35f626c6841Be4b92327e3B723da",
  "abi": [
    {
      "inputs": [
        {
          "internalType": "contract RoleStore",
          "name": "_roleStore",
          "type": "address"
        }
      ],
      "stateMutability": "nonpayable",
      "type": "constructor"
    },
    {
      "inputs": [
        {
          "internalType": "address",
          "name": "msgSender",
          "type": "address"
        },
        {
          "internalType": "string",
          "name": "role",
          "type": "string"
        }
      ],
      "name": "Unauthorized",
      "type": "error"
    },
    {
      "inputs": [],
      "name": "roleStore",
      "outputs": [
        {
          "internalType": "contract RoleStore",
          "name": "",
          "type": "address"
        }
      ],
      "stateMutability": "view",
      "type": "function"
    },
    {
      "inputs": [
        {
          "components": [
            {
              "internalType": "contract DataStore",
              "name": "dataStore",
              "type": "address"
            },
            {
              "internalType": "contract EventEmitter",
              "name": "eventEmitter",
              "type": "address"
            },
            {
              "internalType": "contract Oracle",
              "name": "oracle",
              "type": "address"
            },
            {
              "internalType": "contract Bank",
              "name": "bank",
              "type": "address"
            },
            {
              "internalType": "address",
              "name": "tokenIn",
              "type": "address"
            },
            {
              "internalType": "uint256",
              "name": "amountIn",
              "type": "uint256"
            },
            {
              "components": [
                {
                  "internalType": "address",
                  "name": "marketToken",
                  "type": "address"
                },
                {
                  "internalType": "address",
                  "name": "indexToken",
                  "type": "address"
                },
                {
                  "internalType": "address",
                  "name": "longToken",
                  "type": "address"
                },
                {
                  "internalType": "address",
                  "name": "shortToken",
                  "type": "address"
                }
              ],
              "internalType": "struct Market.Props[]",
              "name": "swapPathMarkets",
              "type": "tuple[]"
            },
            {
              "internalType": "uint256",
              "name": "minOutputAmount",
              "type": "uint256"
            },
            {
              "internalType": "address",
              "name": "receiver",
              "type": "address"
            },
            {
              "internalType": "bool",
              "name": "shouldUnwrapNativeToken",
              "type": "bool"
            }
          ],
          "internalType": "struct SwapUtils.SwapParams",
          "name": "params",
          "type": "tuple"
        }
      ],
      "name": "swap",
      "outputs": [
        {
          "internalType": "address",
          "name": "",
          "type": "address"
        },
        {
          "internalType": "uint256",
          "name": "",
          "type": "uint256"
        }
      ],
      "stateMutability": "nonpayable",
      "type": "function"
    }
  ],
  "transactionHash": "0x2bcf35be02c315d46b084a25c1aea0c6df1d2f8b8e9471edb83d5c938cca2164",
  "args": [
    "0x4C5Ef06b33b9EAB7581423A8D079225B78De0784"
  ],
  "numDeployments": 8,
  "solcInputHash": "bfcff1dcb3466d4762643d92a17aef63",
  "bytecode": "0x60a060405234801561001057600080fd5b5060405161082338038061082383398101604081905261002f91610045565b60016000556001600160a01b0316608052610075565b60006020828403121561005757600080fd5b81516001600160a01b038116811461006e57600080fd5b9392505050565b60805161078d61009660003960008181606a0152610210015261078d6000f3fe608060405234801561001057600080fd5b50600436106100365760003560e01c80630d51d86a1461003b5780634a4a7b0414610065575b600080fd5b61004e61004936600461045a565b6100a4565b60405161005c929190610567565b60405180910390f35b61008c7f000000000000000000000000000000000000000000000000000000000000000081565b6040516001600160a01b03909116815260200161005c565b6000806002600054036100fe5760405162461bcd60e51b815260206004820152601f60248201527f5265656e7472616e637947756172643a207265656e7472616e742063616c6c0060448201526064015b60405180910390fd5b600260005560405161017390610135906020016020808252600a908201526921a7a72a2927a62622a960b11b604082015260600190565b604051602081830303815290604052805190602001206040518060400160405280600a81526020016921a7a72a2927a62622a960b11b8152506101f9565b604051632b836e2360e11b81527330D84b17614714100A8c4bB94EC83c194A47c2a490635706dc46906101aa9086906004016105eb565b6040805180830381865af41580156101c6573d6000803e3d6000fd5b505050506040513d601f19601f820116820180604052508101906101ea91906106a7565b60016000559094909350915050565b60405163ac4ab3fb60e01b81526001600160a01b037f0000000000000000000000000000000000000000000000000000000000000000169063ac4ab3fb906102479033908690600401610567565b602060405180830381865afa158015610264573d6000803e3d6000fd5b505050506040513d601f19601f8201168201806040525081019061028891906106d5565b6102a957338160405163a35b150b60e01b81526004016100f59291906106f9565b5050565b634e487b7160e01b600052604160045260246000fd5b604051608081016001600160401b03811182821017156102e5576102e56102ad565b60405290565b60405161014081016001600160401b03811182821017156102e5576102e56102ad565b604051601f8201601f191681016001600160401b0381118282101715610336576103366102ad565b604052919050565b6001600160a01b038116811461035357600080fd5b50565b80356103618161033e565b919050565b600082601f83011261037757600080fd5b813560206001600160401b03821115610392576103926102ad565b6103a0818360051b0161030e565b82815260079290921b840181019181810190868411156103bf57600080fd5b8286015b8481101561043657608081890312156103dc5760008081fd5b6103e46102c3565b81356103ef8161033e565b8152818501356103fe8161033e565b818601526040828101356104118161033e565b908201526060828101356104248161033e565b908201528352918301916080016103c3565b509695505050505050565b801515811461035357600080fd5b803561036181610441565b60006020828403121561046c57600080fd5b81356001600160401b038082111561048357600080fd5b90830190610140828603121561049857600080fd5b6104a06102eb565b6104a983610356565b81526104b760208401610356565b60208201526104c860408401610356565b60408201526104d960608401610356565b60608201526104ea60808401610356565b608082015260a083013560a082015260c08301358281111561050b57600080fd5b61051787828601610366565b60c08301525060e083013560e08201526101009150610537828401610356565b82820152610120915061054b82840161044f565b91810191909152949350505050565b6001600160a01b03169052565b6001600160a01b03929092168252602082015260400190565b600081518084526020808501945080840160005b838110156105e057815180516001600160a01b039081168952848201518116858a01526040808301518216908a0152606091820151169088015260809096019590820190600101610594565b509495945050505050565b602081526105fd60208201835161055a565b60006020830151610611604084018261055a565b506040830151610624606084018261055a565b506060830151610637608084018261055a565b50608083015161064a60a084018261055a565b5060a083015160c083015260c08301516101408060e0850152610671610160850183610580565b60e0860151610100868101919091528601519092506101206106958187018361055a565b90950151151593019290925250919050565b600080604083850312156106ba57600080fd5b82516106c58161033e565b6020939093015192949293505050565b6000602082840312156106e757600080fd5b81516106f281610441565b9392505050565b60018060a01b038316815260006020604081840152835180604085015260005b8181101561073557858101830151858201606001528201610719565b506000606082860101526060601f19601f83011685010192505050939250505056fea26469706673582212200611b9535263376d83f5eb1790705df2ed0d9cd4ff4c534b313a30968d8100d264736f6c63430008100033",
  "deployedBytecode": "0x608060405234801561001057600080fd5b50600436106100365760003560e01c80630d51d86a1461003b5780634a4a7b0414610065575b600080fd5b61004e61004936600461045a565b6100a4565b60405161005c929190610567565b60405180910390f35b61008c7f000000000000000000000000000000000000000000000000000000000000000081565b6040516001600160a01b03909116815260200161005c565b6000806002600054036100fe5760405162461bcd60e51b815260206004820152601f60248201527f5265656e7472616e637947756172643a207265656e7472616e742063616c6c0060448201526064015b60405180910390fd5b600260005560405161017390610135906020016020808252600a908201526921a7a72a2927a62622a960b11b604082015260600190565b604051602081830303815290604052805190602001206040518060400160405280600a81526020016921a7a72a2927a62622a960b11b8152506101f9565b604051632b836e2360e11b815273__$2ebd8d293950cf319742e0db402ead4961$__90635706dc46906101aa9086906004016105eb565b6040805180830381865af41580156101c6573d6000803e3d6000fd5b505050506040513d601f19601f820116820180604052508101906101ea91906106a7565b60016000559094909350915050565b60405163ac4ab3fb60e01b81526001600160a01b037f0000000000000000000000000000000000000000000000000000000000000000169063ac4ab3fb906102479033908690600401610567565b602060405180830381865afa158015610264573d6000803e3d6000fd5b505050506040513d601f19601f8201168201806040525081019061028891906106d5565b6102a957338160405163a35b150b60e01b81526004016100f59291906106f9565b5050565b634e487b7160e01b600052604160045260246000fd5b604051608081016001600160401b03811182821017156102e5576102e56102ad565b60405290565b60405161014081016001600160401b03811182821017156102e5576102e56102ad565b604051601f8201601f191681016001600160401b0381118282101715610336576103366102ad565b604052919050565b6001600160a01b038116811461035357600080fd5b50565b80356103618161033e565b919050565b600082601f83011261037757600080fd5b813560206001600160401b03821115610392576103926102ad565b6103a0818360051b0161030e565b82815260079290921b840181019181810190868411156103bf57600080fd5b8286015b8481101561043657608081890312156103dc5760008081fd5b6103e46102c3565b81356103ef8161033e565b8152818501356103fe8161033e565b818601526040828101356104118161033e565b908201526060828101356104248161033e565b908201528352918301916080016103c3565b509695505050505050565b801515811461035357600080fd5b803561036181610441565b60006020828403121561046c57600080fd5b81356001600160401b038082111561048357600080fd5b90830190610140828603121561049857600080fd5b6104a06102eb565b6104a983610356565b81526104b760208401610356565b60208201526104c860408401610356565b60408201526104d960608401610356565b60608201526104ea60808401610356565b608082015260a083013560a082015260c08301358281111561050b57600080fd5b61051787828601610366565b60c08301525060e083013560e08201526101009150610537828401610356565b82820152610120915061054b82840161044f565b91810191909152949350505050565b6001600160a01b03169052565b6001600160a01b03929092168252602082015260400190565b600081518084526020808501945080840160005b838110156105e057815180516001600160a01b039081168952848201518116858a01526040808301518216908a0152606091820151169088015260809096019590820190600101610594565b509495945050505050565b602081526105fd60208201835161055a565b60006020830151610611604084018261055a565b506040830151610624606084018261055a565b506060830151610637608084018261055a565b50608083015161064a60a084018261055a565b5060a083015160c083015260c08301516101408060e0850152610671610160850183610580565b60e0860151610100868101919091528601519092506101206106958187018361055a565b90950151151593019290925250919050565b600080604083850312156106ba57600080fd5b82516106c58161033e565b6020939093015192949293505050565b6000602082840312156106e757600080fd5b81516106f281610441565b9392505050565b60018060a01b038316815260006020604081840152835180604085015260005b8181101561073557858101830151858201606001528201610719565b506000606082860101526060601f19601f83011685010192505050939250505056fea26469706673582212200611b9535263376d83f5eb1790705df2ed0d9cd4ff4c534b313a30968d8100d264736f6c63430008100033",
  "libraries": {
    "SwapUtils": "0x30D84b17614714100A8c4bB94EC83c194A47c2a4"
  },
  "devdoc": {
    "details": "A contract to help with swap functions",
    "kind": "dev",
    "methods": {
      "swap((address,address,address,address,address,uint256,(address,address,address,address)[],uint256,address,bool))": {
        "details": "perform a swap based on the given params",
        "params": {
          "params": "SwapUtils.SwapParams"
        },
        "returns": {
          "_0": "(outputToken, outputAmount)"
        }
      }
    },
    "title": "SwapHandler",
    "version": 1
  },
  "userdoc": {
    "kind": "user",
    "methods": {},
    "version": 1
  },
  "storageLayout": {
    "storage": [
      {
        "astId": 10,
        "contract": "contracts/swap/SwapHandler.sol:SwapHandler",
        "label": "_status",
        "offset": 0,
        "slot": "0",
        "type": "t_uint256"
      }
    ],
    "types": {
      "t_uint256": {
        "encoding": "inplace",
        "label": "uint256",
        "numberOfBytes": "32"
      }
    }
  }
}