{
  "address": "0x2356FbD1D951EEdA3E8F531c39C00e8CE56866e0",
  "abi": [
    {
      "inputs": [
        {
          "internalType": "contract RoleStore",
          "name": "_roleStore",
          "type": "address"
        },
        {
          "internalType": "contract DataStore",
          "name": "_dataStore",
          "type": "address"
        },
        {
          "internalType": "contract EventEmitter",
          "name": "_eventEmitter",
          "type": "address"
        }
      ],
      "stateMutability": "nonpayable",
      "type": "constructor"
    },
    {
      "inputs": [
        {
          "internalType": "address",
          "name": "msgSender",
          "type": "address"
        },
        {
          "internalType": "string",
          "name": "role",
          "type": "string"
        }
      ],
      "name": "Unauthorized",
      "type": "error"
    },
    {
      "inputs": [],
      "name": "dataStore",
      "outputs": [
        {
          "internalType": "contract DataStore",
          "name": "",
          "type": "address"
        }
      ],
      "stateMutability": "view",
      "type": "function"
    },
    {
      "inputs": [],
      "name": "eventEmitter",
      "outputs": [
        {
          "internalType": "contract EventEmitter",
          "name": "",
          "type": "address"
        }
      ],
      "stateMutability": "view",
      "type": "function"
    },
    {
      "inputs": [
        {
          "internalType": "uint256",
          "name": "start",
          "type": "uint256"
        },
        {
          "internalType": "uint256",
          "name": "end",
          "type": "uint256"
        }
      ],
      "name": "initializeOrderTimestamps",
      "outputs": [],
      "stateMutability": "nonpayable",
      "type": "function"
    },
    {
      "inputs": [
        {
          "internalType": "uint256",
          "name": "start",
          "type": "uint256"
        },
        {
          "internalType": "uint256",
          "name": "end",
          "type": "uint256"
        }
      ],
      "name": "initializePositionTimestamps",
      "outputs": [],
      "stateMutability": "nonpayable",
      "type": "function"
    },
    {
      "inputs": [],
      "name": "roleStore",
      "outputs": [
        {
          "internalType": "contract RoleStore",
          "name": "",
          "type": "address"
        }
      ],
      "stateMutability": "view",
      "type": "function"
    }
  ],
  "transactionHash": "0x3dd7b383444cff8208991d331d246e5757fe329faca6ab6e1781ea7824bca065",
  "args": [
    "0x19a8085537078e7847a332A76ABaDD5b02B1e736",
    "0xEA1BFb4Ea9A412dCCd63454AbC127431eBB0F0d4",
    "0xc67D98AC5803aFD776958622CeEE332A0B2CabB9"
  ],
  "numDeployments": 4,
  "solcInputHash": "1c2199576d19a85f33e26ba11434e9b4",
  "bytecode": "0x60e06040523480156200001157600080fd5b5060405162001c1338038062001c1383398101604081905262000034916200006b565b6001600160a01b0392831660805290821660a0521660c052620000bf565b6001600160a01b03811681146200006857600080fd5b50565b6000806000606084860312156200008157600080fd5b83516200008e8162000052565b6020850151909350620000a18162000052565b6040850151909250620000b48162000052565b809150509250925092565b60805160a05160c051611ad3620001406000396000818160cb015281816104ef015281816107cb0152610be501526000818160a40152818161016c01528181610280015281816103650152818161055c0152818161064101528181610867015281816109780152610a5d01526000818160610152610c7f0152611ad36000f3fe608060405234801561001057600080fd5b50600436106100575760003560e01c80634a4a7b041461005c578063660d0d671461009f5780639ff78c30146100c6578063de35ea77146100ed578063fbbabf8614610102575b600080fd5b6100837f000000000000000000000000000000000000000000000000000000000000000081565b6040516001600160a01b03909116815260200160405180910390f35b6100837f000000000000000000000000000000000000000000000000000000000000000081565b6100837f000000000000000000000000000000000000000000000000000000000000000081565b6101006100fb366004610ec9565b610115565b005b610100610110366004610ec9565b610851565b61016860405160200161012790610eeb565b604051602081830303815290604052805190602001206040518060400160405280600d81526020016c21a7a72324a3afa5a2a2a822a960991b815250610c63565b60007f00000000000000000000000000000000000000000000000000000000000000006001600160a01b031663f069052a6040516020016101ca906020808252600d908201526c1413d4d2551253d397d31254d5609a1b604082015260600190565b60408051601f198184030181529082905280516020909101206001600160e01b031960e084901b16825260048201526024810186905260448101859052606401600060405180830381865afa158015610227573d6000803e3d6000fd5b505050506040513d6000823e601f3d908101601f1916820160405261024f9190810190610f28565b90504260005b825181101561084a57600083828151811061027257610272610fe5565b6020026020010151905060007f00000000000000000000000000000000000000000000000000000000000000006001600160a01b031663bd02d0f5836040516020016102bd90610ffb565b604051602081830303815290604052805190602001206040516020016102e4929190611026565b604051602081830303815290604052805190602001206040518263ffffffff1660e01b815260040161031891815260200190565b602060405180830381865afa158015610335573d6000803e3d6000fd5b505050506040513d601f19601f820116820180604052508101906103599190611034565b905080600003610558577f00000000000000000000000000000000000000000000000000000000000000006001600160a01b031663e2a4853a836040516020016103a290610ffb565b604051602081830303815290604052805190602001206040516020016103c9929190611026565b60405160208183030381529060405280519060200120866040518363ffffffff1660e01b81526004016103fd929190611026565b6020604051808303816000875af115801561041c573d6000803e3d6000fd5b505050506040513d601f19601f820116820180604052508101906104409190611034565b50610449610dd8565b6080810151610459906001610d20565b6040805180820190915260038152626b657960e81b602082015260808201516104859160009086610d85565b6020810151610495906001610d20565b6104d860006040518060400160405280600f81526020016e696e63726561736564417454696d6560881b815250878460200151610d85909392919063ffffffff16565b60405163483624fb60e11b81526001600160a01b037f0000000000000000000000000000000000000000000000000000000000000000169063906c49f6906105249084906004016118e5565b600060405180830381600087803b15801561053e57600080fd5b505af1158015610552573d6000803e3d6000fd5b50505050505b60007f00000000000000000000000000000000000000000000000000000000000000006001600160a01b031663bd02d0f5846040516020016105999061193d565b604051602081830303815290604052805190602001206040516020016105c0929190611026565b604051602081830303815290604052805190602001206040518263ffffffff1660e01b81526004016105f491815260200190565b602060405180830381865afa158015610611573d6000803e3d6000fd5b505050506040513d601f19601f820116820180604052508101906106359190611034565b905080600003610834577f00000000000000000000000000000000000000000000000000000000000000006001600160a01b031663e2a4853a8460405160200161067e9061193d565b604051602081830303815290604052805190602001206040516020016106a5929190611026565b60405160208183030381529060405280519060200120876040518363ffffffff1660e01b81526004016106d9929190611026565b6020604051808303816000875af11580156106f8573d6000803e3d6000fd5b505050506040513d601f19601f8201168201806040525081019061071c9190611034565b50610725610dd8565b6080810151610735906001610d20565b6040805180820190915260038152626b657960e81b602082015260808201516107619160009087610d85565b6020810151610771906001610d20565b6107b460006040518060400160405280600f81526020016e646563726561736564417454696d6560881b815250888460200151610d85909392919063ffffffff16565b60405163483624fb60e11b81526001600160a01b037f0000000000000000000000000000000000000000000000000000000000000000169063906c49f690610800908490600401611968565b600060405180830381600087803b15801561081a57600080fd5b505af115801561082e573d6000803e3d6000fd5b50505050505b5050508080610842906119b9565b915050610255565b5050505050565b61086360405160200161012790610eeb565b60007f00000000000000000000000000000000000000000000000000000000000000006001600160a01b031663f069052a6040516020016108c2906020808252600a908201526913d491115497d31254d560b21b604082015260600190565b60408051601f198184030181529082905280516020909101206001600160e01b031960e084901b16825260048201526024810186905260448101859052606401600060405180830381865afa15801561091f573d6000803e3d6000fd5b505050506040513d6000823e601f3d908101601f191682016040526109479190810190610f28565b90504260005b825181101561084a57600083828151811061096a5761096a610fe5565b6020026020010151905060007f00000000000000000000000000000000000000000000000000000000000000006001600160a01b031663bd02d0f5836040516020016109b5906119e0565b604051602081830303815290604052805190602001206040516020016109dc929190611026565b604051602081830303815290604052805190602001206040518263ffffffff1660e01b8152600401610a1091815260200190565b602060405180830381865afa158015610a2d573d6000803e3d6000fd5b505050506040513d601f19601f82011682018060405250810190610a519190611034565b905080600003610c4e577f00000000000000000000000000000000000000000000000000000000000000006001600160a01b031663e2a4853a83604051602001610a9a906119e0565b60405160208183030381529060405280519060200120604051602001610ac1929190611026565b60405160208183030381529060405280519060200120866040518363ffffffff1660e01b8152600401610af5929190611026565b6020604051808303816000875af1158015610b14573d6000803e3d6000fd5b505050506040513d601f19601f82011682018060405250810190610b389190611034565b50610b41610dd8565b6080810151610b51906001610d20565b6040805180820190915260038152626b657960e81b60208201526080820151610b7d9160009086610d85565b6020810151610b8d906001610d20565b610bce60006040518060400160405280600d81526020016c75706461746564417454696d6560981b815250878460200151610d85909392919063ffffffff16565b60405163483624fb60e11b81526001600160a01b037f0000000000000000000000000000000000000000000000000000000000000000169063906c49f690610c1a908490600401611a09565b600060405180830381600087803b158015610c3457600080fd5b505af1158015610c48573d6000803e3d6000fd5b50505050505b50508080610c5b906119b9565b91505061094d565b60405163ac4ab3fb60e01b8152336004820152602481018390527f00000000000000000000000000000000000000000000000000000000000000006001600160a01b03169063ac4ab3fb90604401602060405180830381865afa158015610cce573d6000803e3d6000fd5b505050506040513d601f19601f82011682018060405250810190610cf29190611a4f565b610d1c57338160405163a35b150b60e01b8152600401610d13929190611a71565b60405180910390fd5b5050565b806001600160401b03811115610d3857610d38610f12565b604051908082528060200260200182016040528015610d7e57816020015b604080518082019091526060815260006020820152815260200190600190039081610d565790505b5090915250565b8184600001518481518110610d9c57610d9c610fe5565b6020026020010151600001819052508084600001518481518110610dc257610dc2610fe5565b6020026020010151602001818152505050505050565b604080516101208101909152606060e0820181815261010083019190915281908152602001610e1a604051806040016040528060608152602001606081525090565b8152602001610e3c604051806040016040528060608152602001606081525090565b8152602001610e5e604051806040016040528060608152602001606081525090565b8152602001610e80604051806040016040528060608152602001606081525090565b8152602001610ea2604051806040016040528060608152602001606081525090565b8152602001610ec4604051806040016040528060608152602001606081525090565b905290565b60008060408385031215610edc57600080fd5b50508035926020909101359150565b6020808252600d908201526c21a7a72324a3afa5a2a2a822a960991b604082015260600190565b634e487b7160e01b600052604160045260246000fd5b60006020808385031215610f3b57600080fd5b82516001600160401b0380821115610f5257600080fd5b818501915085601f830112610f6657600080fd5b815181811115610f7857610f78610f12565b8060051b604051601f19603f83011681018181108582111715610f9d57610f9d610f12565b604052918252848201925083810185019188831115610fbb57600080fd5b938501935b82851015610fd957845184529385019392850192610fc0565b98975050505050505050565b634e487b7160e01b600052603260045260246000fd5b602080825260119082015270494e435245415345445f41545f54494d4560781b604082015260600190565b918252602082015260400190565b60006020828403121561104657600080fd5b5051919050565b6000815180845260005b8181101561107357602081850181015186830182015201611057565b506000602082860101526020601f19601f83011685010191505092915050565b600081518084526020808501808196508360051b810191508286016000805b8681101561112e578385038a528251604081518188526110d48289018261104d565b92890151888403898b01528051808552908a01938693508a0191505b808310156111195783516001600160a01b031682529289019260019290920191908901906110f0565b509b88019b96505050918501916001016110b2565b509298975050505050505050565b60006040808401835182865281815180845260608801915060608160051b89010193506020808401935060005b828110156111b357898603605f190184528451805188885261118d8989018261104d565b918401516001600160a01b03169784019790975295509381019392810192600101611169565b50808801519550888503818a0152505050506111cf8183611093565b95945050505050565b600081518084526020808501808196508360051b810191508286016000805b8681101561112e578385038a528251604081518188526112198289018261104d565b92890151888403898b01528051808552908a01938693508a0191505b808310156112555783518252928901926001929092019190890190611235565b509b88019b96505050918501916001016111f7565b60006040808401835182865281815180845260608801915060608160051b89010193506020808401935060005b828110156112d857898603605f19018452845180518888526112bb8989018261104d565b918401519784019790975295509381019392810192600101611297565b50808801519550888503818a0152505050506111cf81836111d8565b600081518084526020808501808196508360051b810191508286016000805b8681101561112e578385038a528251604081518188526113358289018261104d565b92890151888403898b01528051808552908a01938693508a0191505b808310156113715783518252928901926001929092019190890190611351565b509b88019b9650505091850191600101611313565b60006040808401835182865281815180845260608801915060608160051b89010193506020808401935060005b828110156113f457898603605f19018452845180518888526113d78989018261104d565b9184015197840197909752955093810193928101926001016113b3565b50808801519550888503818a0152505050506111cf81836112f4565b600081518084526020808501808196508360051b810191508286016000805b8681101561112e578385038a528251604081518188526114518289018261104d565b92890151888403898b01528051808552908a01938693508a0191505b8083101561148f5783511515825292890192600192909201919089019061146d565b509b88019b965050509185019160010161142f565b60006040808401835182865281815180845260608801915060608160051b89010193506020808401935060005b8281101561151457898603605f19018452845180518888526114f58989018261104d565b91840151151597840197909752955093810193928101926001016114d1565b50808801519550888503818a0152505050506111cf8183611410565b60006040808401835182865281815180845260608801915060608160051b89010193506020808401935060005b828110156113f457898603605f19018452845180518888526115818989018261104d565b91840151978401979097529550938101939281019260010161155d565b600081518084526020808501808196506005915083821b81018387016000805b87811015611649578484038b528251604081518187526115e08288018261104d565b928a0151878403888c01528051808552908b019392508a83019150808a1b83018b01865b8281101561163257601f1985830301845261162082875161104d565b958d0195938d01939150600101611604565b509e8b019e975050509388019350506001016115be565b50919998505050505050505050565b60006040808401835182865281815180845260608801915060608160051b89010193506020808401935060005b828110156116d557898603605f19018452845180518888526116a98989018261104d565b91840151888303898601529190506116c1818361104d565b975050509381019392810192600101611685565b50808801519550888503818a0152505050506111cf818361159e565b600081518084526020808501808196506005915083821b81018387016000805b87811015611649578484038b528251604081518187526117338288018261104d565b928a0151878403888c01528051808552908b019392508a83019150808a1b83018b01865b8281101561178557601f1985830301845261177382875161104d565b958d0195938d01939150600101611757565b509e8b019e97505050938801935050600101611711565b60006040808401835182865281815180845260608801915060608160051b89010193506020808401935060005b8281101561181957898603605f19018452845180518888526117ed8989018261104d565b9184015188830389860152919050611805818361104d565b9750505093810193928101926001016117c9565b50808801519550888503818a0152505050506111cf81836116f1565b6000815160e0845261184a60e085018261113c565b905060208301518482036020860152611863828261126a565b9150506040830151848203604086015261187d8282611386565b9150506060830151848203606086015261189782826114a4565b915050608083015184820360808601526118b18282611530565b91505060a083015184820360a08601526118cb8282611658565b91505060c083015184820360c08601526111cf828261179c565b60408152602160408201527f496e697469616c697a65506f736974696f6e496e63726561736564417454696d6060820152606560f81b608082015260a06020820152600061193660a0830184611835565b9392505050565b6020808252601190820152704445435245415345445f41545f54494d4560781b604082015260600190565b60408152602160408201527f496e697469616c697a65506f736974696f6e446563726561736564417454696d6060820152606560f81b608082015260a06020820152600061193660a0830184611835565b6000600182016119d957634e487b7160e01b600052601160045260246000fd5b5060010190565b6020808252600f908201526e555044415445445f41545f54494d4560881b604082015260600190565b60408152601c60408201527b496e697469616c697a654f7264657255706461746564417454696d6560201b60608201526080602082015260006119366080830184611835565b600060208284031215611a6157600080fd5b8151801515811461193657600080fd5b6001600160a01b0383168152604060208201819052600090611a959083018461104d565b94935050505056fea26469706673582212207b6b9e23a5af86c778a4c58e82472e72179f6b98d7fed00732cf7d56a444e75b64736f6c63430008120033",
  "libraries": {},
  "devdoc": {
    "kind": "dev",
    "methods": {},
    "version": 1
  },
  "userdoc": {
    "kind": "user",
    "methods": {},
    "version": 1
  },
  "storageLayout": {
    "storage": [],
    "types": null
  }
}