{
  "address": "0x06CCf5c9D31b65028a304cB72Dd5E99a32fd7E3D",
  "abi": [
    {
      "inputs": [
        {
          "internalType": "contract RoleStore",
          "name": "_roleStore",
          "type": "address"
        },
        {
          "internalType": "contract DataStore",
          "name": "_dataStore",
          "type": "address"
        },
        {
          "internalType": "contract EventEmitter",
          "name": "_eventEmitter",
          "type": "address"
        },
        {
          "internalType": "contract OracleStore",
          "name": "_oracleStore",
          "type": "address"
        },
        {
          "internalType": "uint256",
          "name": "_timelockDelay",
          "type": "uint256"
        }
      ],
      "stateMutability": "nonpayable",
      "type": "constructor"
    },
    {
      "inputs": [],
      "name": "ActionAlreadySignalled",
      "type": "error"
    },
    {
      "inputs": [],
      "name": "ActionNotSignalled",
      "type": "error"
    },
    {
      "inputs": [
        {
          "internalType": "address",
          "name": "receiver",
          "type": "address"
        }
      ],
      "name": "InvalidFeeReceiver",
      "type": "error"
    },
    {
      "inputs": [
        {
          "internalType": "address",
          "name": "receiver",
          "type": "address"
        }
      ],
      "name": "InvalidOracleSigner",
      "type": "error"
    },
    {
      "inputs": [
        {
          "internalType": "uint256",
          "name": "timelockDelay",
          "type": "uint256"
        }
      ],
      "name": "InvalidTimelockDelay",
      "type": "error"
    },
    {
      "inputs": [
        {
          "internalType": "uint256",
          "name": "timelockDelay",
          "type": "uint256"
        }
      ],
      "name": "MaxTimelockDelayExceeded",
      "type": "error"
    },
    {
      "inputs": [
        {
          "internalType": "uint256",
          "name": "signalTime",
          "type": "uint256"
        }
      ],
      "name": "SignalTimeNotYetPassed",
      "type": "error"
    },
    {
      "inputs": [
        {
          "internalType": "address",
          "name": "msgSender",
          "type": "address"
        },
        {
          "internalType": "string",
          "name": "role",
          "type": "string"
        }
      ],
      "name": "Unauthorized",
      "type": "error"
    },
    {
      "inputs": [],
      "name": "MAX_TIMELOCK_DELAY",
      "outputs": [
        {
          "internalType": "uint256",
          "name": "",
          "type": "uint256"
        }
      ],
      "stateMutability": "view",
      "type": "function"
    },
    {
      "inputs": [
        {
          "internalType": "address",
          "name": "account",
          "type": "address"
        }
      ],
      "name": "addOracleSignerAfterSignal",
      "outputs": [],
      "stateMutability": "nonpayable",
      "type": "function"
    },
    {
      "inputs": [
        {
          "internalType": "bytes32",
          "name": "actionKey",
          "type": "bytes32"
        }
      ],
      "name": "cancelAction",
      "outputs": [],
      "stateMutability": "nonpayable",
      "type": "function"
    },
    {
      "inputs": [],
      "name": "dataStore",
      "outputs": [
        {
          "internalType": "contract DataStore",
          "name": "",
          "type": "address"
        }
      ],
      "stateMutability": "view",
      "type": "function"
    },
    {
      "inputs": [],
      "name": "eventEmitter",
      "outputs": [
        {
          "internalType": "contract EventEmitter",
          "name": "",
          "type": "address"
        }
      ],
      "stateMutability": "view",
      "type": "function"
    },
    {
      "inputs": [
        {
          "internalType": "address",
          "name": "account",
          "type": "address"
        },
        {
          "internalType": "bytes32",
          "name": "roleKey",
          "type": "bytes32"
        }
      ],
      "name": "grantRoleAfterSignal",
      "outputs": [],
      "stateMutability": "nonpayable",
      "type": "function"
    },
    {
      "inputs": [
        {
          "internalType": "uint256",
          "name": "_timelockDelay",
          "type": "uint256"
        }
      ],
      "name": "increaseTimelockDelay",
      "outputs": [],
      "stateMutability": "nonpayable",
      "type": "function"
    },
    {
      "inputs": [
        {
          "internalType": "bytes[]",
          "name": "data",
          "type": "bytes[]"
        }
      ],
      "name": "multicall",
      "outputs": [
        {
          "internalType": "bytes[]",
          "name": "results",
          "type": "bytes[]"
        }
      ],
      "stateMutability": "nonpayable",
      "type": "function"
    },
    {
      "inputs": [],
      "name": "oracleStore",
      "outputs": [
        {
          "internalType": "contract OracleStore",
          "name": "",
          "type": "address"
        }
      ],
      "stateMutability": "view",
      "type": "function"
    },
    {
      "inputs": [
        {
          "internalType": "bytes32",
          "name": "",
          "type": "bytes32"
        }
      ],
      "name": "pendingActions",
      "outputs": [
        {
          "internalType": "uint256",
          "name": "",
          "type": "uint256"
        }
      ],
      "stateMutability": "view",
      "type": "function"
    },
    {
      "inputs": [
        {
          "internalType": "address",
          "name": "account",
          "type": "address"
        }
      ],
      "name": "removeOracleSignerAfterSignal",
      "outputs": [],
      "stateMutability": "nonpayable",
      "type": "function"
    },
    {
      "inputs": [
        {
          "internalType": "address",
          "name": "account",
          "type": "address"
        },
        {
          "internalType": "bytes32",
          "name": "roleKey",
          "type": "bytes32"
        }
      ],
      "name": "revokeRole",
      "outputs": [],
      "stateMutability": "nonpayable",
      "type": "function"
    },
    {
      "inputs": [
        {
          "internalType": "address",
          "name": "account",
          "type": "address"
        },
        {
          "internalType": "bytes32",
          "name": "roleKey",
          "type": "bytes32"
        }
      ],
      "name": "revokeRoleAfterSignal",
      "outputs": [],
      "stateMutability": "nonpayable",
      "type": "function"
    },
    {
      "inputs": [],
      "name": "roleStore",
      "outputs": [
        {
          "internalType": "contract RoleStore",
          "name": "",
          "type": "address"
        }
      ],
      "stateMutability": "view",
      "type": "function"
    },
    {
      "inputs": [
        {
          "internalType": "address",
          "name": "provider",
          "type": "address"
        },
        {
          "internalType": "bool",
          "name": "value",
          "type": "bool"
        }
      ],
      "name": "setAtomicOracleProviderAfterSignal",
      "outputs": [],
      "stateMutability": "nonpayable",
      "type": "function"
    },
    {
      "inputs": [
        {
          "internalType": "address",
          "name": "token",
          "type": "address"
        },
        {
          "internalType": "bytes32",
          "name": "feedId",
          "type": "bytes32"
        },
        {
          "internalType": "uint256",
          "name": "dataStreamMultiplier",
          "type": "uint256"
        }
      ],
      "name": "setDataStreamAfterSignal",
      "outputs": [],
      "stateMutability": "nonpayable",
      "type": "function"
    },
    {
      "inputs": [
        {
          "internalType": "address",
          "name": "account",
          "type": "address"
        }
      ],
      "name": "setFeeReceiverAfterSignal",
      "outputs": [],
      "stateMutability": "nonpayable",
      "type": "function"
    },
    {
      "inputs": [
        {
          "internalType": "address",
          "name": "provider",
          "type": "address"
        },
        {
          "internalType": "bool",
          "name": "value",
          "type": "bool"
        }
      ],
      "name": "setOracleProviderEnabled",
      "outputs": [],
      "stateMutability": "nonpayable",
      "type": "function"
    },
    {
      "inputs": [
        {
          "internalType": "address",
          "name": "provider",
          "type": "address"
        },
        {
          "internalType": "bool",
          "name": "value",
          "type": "bool"
        }
      ],
      "name": "setOracleProviderEnabledAfterSignal",
      "outputs": [],
      "stateMutability": "nonpayable",
      "type": "function"
    },
    {
      "inputs": [
        {
          "internalType": "address",
          "name": "token",
          "type": "address"
        },
        {
          "internalType": "address",
          "name": "priceFeed",
          "type": "address"
        },
        {
          "internalType": "uint256",
          "name": "priceFeedMultiplier",
          "type": "uint256"
        },
        {
          "internalType": "uint256",
          "name": "priceFeedHeartbeatDuration",
          "type": "uint256"
        },
        {
          "internalType": "uint256",
          "name": "stablePrice",
          "type": "uint256"
        }
      ],
      "name": "setPriceFeedAfterSignal",
      "outputs": [],
      "stateMutability": "nonpayable",
      "type": "function"
    },
    {
      "inputs": [
        {
          "internalType": "address",
          "name": "account",
          "type": "address"
        }
      ],
      "name": "signalAddOracleSigner",
      "outputs": [],
      "stateMutability": "nonpayable",
      "type": "function"
    },
    {
      "inputs": [
        {
          "internalType": "address",
          "name": "account",
          "type": "address"
        },
        {
          "internalType": "bytes32",
          "name": "roleKey",
          "type": "bytes32"
        }
      ],
      "name": "signalGrantRole",
      "outputs": [],
      "stateMutability": "nonpayable",
      "type": "function"
    },
    {
      "inputs": [
        {
          "internalType": "address",
          "name": "account",
          "type": "address"
        }
      ],
      "name": "signalRemoveOracleSigner",
      "outputs": [],
      "stateMutability": "nonpayable",
      "type": "function"
    },
    {
      "inputs": [
        {
          "internalType": "address",
          "name": "account",
          "type": "address"
        },
        {
          "internalType": "bytes32",
          "name": "roleKey",
          "type": "bytes32"
        }
      ],
      "name": "signalRevokeRole",
      "outputs": [],
      "stateMutability": "nonpayable",
      "type": "function"
    },
    {
      "inputs": [
        {
          "internalType": "address",
          "name": "provider",
          "type": "address"
        },
        {
          "internalType": "bool",
          "name": "value",
          "type": "bool"
        }
      ],
      "name": "signalSetAtomicOracleProvider",
      "outputs": [],
      "stateMutability": "nonpayable",
      "type": "function"
    },
    {
      "inputs": [
        {
          "internalType": "address",
          "name": "token",
          "type": "address"
        },
        {
          "internalType": "bytes32",
          "name": "feedId",
          "type": "bytes32"
        },
        {
          "internalType": "uint256",
          "name": "dataStreamMultiplier",
          "type": "uint256"
        }
      ],
      "name": "signalSetDataStream",
      "outputs": [],
      "stateMutability": "nonpayable",
      "type": "function"
    },
    {
      "inputs": [
        {
          "internalType": "address",
          "name": "account",
          "type": "address"
        }
      ],
      "name": "signalSetFeeReceiver",
      "outputs": [],
      "stateMutability": "nonpayable",
      "type": "function"
    },
    {
      "inputs": [
        {
          "internalType": "address",
          "name": "provider",
          "type": "address"
        },
        {
          "internalType": "bool",
          "name": "value",
          "type": "bool"
        }
      ],
      "name": "signalSetOracleProviderEnabled",
      "outputs": [],
      "stateMutability": "nonpayable",
      "type": "function"
    },
    {
      "inputs": [
        {
          "internalType": "address",
          "name": "token",
          "type": "address"
        },
        {
          "internalType": "address",
          "name": "priceFeed",
          "type": "address"
        },
        {
          "internalType": "uint256",
          "name": "priceFeedMultiplier",
          "type": "uint256"
        },
        {
          "internalType": "uint256",
          "name": "priceFeedHeartbeatDuration",
          "type": "uint256"
        },
        {
          "internalType": "uint256",
          "name": "stablePrice",
          "type": "uint256"
        }
      ],
      "name": "signalSetPriceFeed",
      "outputs": [],
      "stateMutability": "nonpayable",
      "type": "function"
    },
    {
      "inputs": [],
      "name": "timelockDelay",
      "outputs": [
        {
          "internalType": "uint256",
          "name": "",
          "type": "uint256"
        }
      ],
      "stateMutability": "view",
      "type": "function"
    }
  ],
  "transactionHash": "0x9f7099b2688d80796163a8287d25c8b9df57c4dfd7b57c52d2313f7e5f21248a",
  "args": [
    "0x19a8085537078e7847a332A76ABaDD5b02B1e736",
    "0xEA1BFb4Ea9A412dCCd63454AbC127431eBB0F0d4",
    "0xc67D98AC5803aFD776958622CeEE332A0B2CabB9",
    "0x5Ac59Abd712EAAbd46A3441881af34449E2dE1d4",
    86400
  ],
  "numDeployments": 22,
  "solcInputHash": "1c2199576d19a85f33e26ba11434e9b4",
  "bytecode": "0x6101006040523480156200001257600080fd5b5060405162004d4138038062004d418339810160408190526200003591620000c5565b600160008190556001600160a01b0380871660805285811660a05284811660c052831660e0528190556200006862000073565b505050505062000139565b620697806001541115620000aa57600154604051633ebd9bc360e21b8152600401620000a191815260200190565b60405180910390fd5b565b6001600160a01b0381168114620000c257600080fd5b50565b600080600080600060a08688031215620000de57600080fd5b8551620000eb81620000ac565b6020870151909550620000fe81620000ac565b60408701519094506200011181620000ac565b60608701519093506200012481620000ac565b80925050608086015190509295509295909350565b60805160a05160c05160e051614abd620002846000396000818161020501528181610f300152611e260152600081816102f9015281816106de0152818161083b01528181610a7601528181610c5e01528181610e4f01528181610ff00152818161117c015281816113410152818161145301528181611577015281816119d901528181611b4e01528181611d7d01528181611ee60152818161200a015281816121c601528181612343015281816124e7015281816126ba015281816127ac0152818161291701528181612dc6015261321b015260008181610286015281816104be01528181610558015281816110430152818161120801528181611609015281816116a30152818161173d015281816117d701528181612098015261258101526000818161024c01528181610b5c01528181610d4d015281816123e501526129630152614abd6000f3fe608060405234801561001057600080fd5b506004361061016a5760003560e01c80630eaf7fc41461016f5780630f43905d146101845780630fe29bbc146101975780630ffc3cf6146101aa578063208dd1ff146101bd5780632a083ca3146101d05780632d6b4cc6146101ed578063392bf7f61461020057806349c73bca146102345780634a4a7b04146102475780635bb70a201461026e578063660d0d671461028157806369bc0f3b146102a8578063728ca574146102bb57806375fa1913146102ce578063781cc3d3146102e15780639ff78c30146102f4578063a9765cae1461031b578063ac9650d81461032e578063b6b9b02f1461034e578063bcb151e414610361578063c15ab4ec14610374578063c4fe486c14610387578063ccdd6bb01461039a578063d59ba7e4146103ad578063d5b0083b146103c0578063e30569e5146103d3578063eef09bad146103f3578063f03278d4146103fc578063f2ee93771461040f575b600080fd5b61018261017d3660046137a3565b610422565b005b6101826101923660046137d8565b610758565b6101826101a53660046137f5565b6108b3565b6101826101b8366004613846565b610af2565b6101826101cb366004613846565b610cd7565b6101da6206978081565b6040519081526020015b60405180910390f35b6101826101fb3660046137d8565b610ec1565b6102277f000000000000000000000000000000000000000000000000000000000000000081565b6040516101e49190613872565b610182610242366004613894565b611027565b6102277f000000000000000000000000000000000000000000000000000000000000000081565b61018261027c366004613894565b6111b1565b6102277f000000000000000000000000000000000000000000000000000000000000000081565b6101826102b63660046137d8565b611376565b6101826102c9366004613846565b61148a565b6101826102dc3660046137f5565b6115ae565b6101826102ef3660046138cd565b611a10565b6102277f000000000000000000000000000000000000000000000000000000000000000081565b610182610329366004613846565b611a62565b61034161033c3660046138e6565b611b85565b6040516101e49190613a02565b61018261035c3660046137d8565b611ca4565b61018261036f3660046137d8565b611db4565b610182610382366004613894565b611f1d565b6101826103953660046137d8565b61203f565b6101826103a83660046137a3565b6121fd565b6101826103bb366004613846565b61237a565b6101826103ce366004613894565b61251e565b6101da6103e13660046138cd565b60026020526000908152604090205481565b6101da60015481565b61018261040a3660046138cd565b6126ef565b61018261041d366004613894565b61281e565b61047660405160200161043490613a15565b604051602081830303815290604052805190602001206040518060400160405280600e81526020016d2a24a6a2a627a1a5afa0a226a4a760911b81525061294c565b61047e6129fc565b600061048b848484612a55565b90506104bc816040518060400160405280600d81526020016c7365744461746153747265616d60981b815250612ab5565b7f00000000000000000000000000000000000000000000000000000000000000006001600160a01b0316634e91db086104f486612ac8565b856040518363ffffffff1660e01b8152600401610512929190613a3d565b6020604051808303816000875af1158015610531573d6000803e3d6000fd5b505050506040513d601f19601f820116820180604052508101906105559190613a4b565b507f00000000000000000000000000000000000000000000000000000000000000006001600160a01b031663e2a4853a61058e86612b41565b846040518363ffffffff1660e01b81526004016105ac929190613a3d565b6020604051808303816000875af11580156105cb573d6000803e3d6000fd5b505050506040513d601f19601f820116820180604052508101906105ef9190613a4b565b506105f861369d565b8051610605906001612b7d565b6040805180820190915260058152643a37b5b2b760d91b602082015281516106309160009088612be2565b6080810151610640906001612b7d565b60408051808201909152600681526519995959125960d21b6020820152608082015161066f9160009087612c3f565b602081015161067f906001612b7d565b6106c76000604051806040016040528060148152602001733230ba30a9ba3932b0b6a6bab63a34b83634b2b960611b815250858460200151612c3f909392919063ffffffff16565b604051630937807960e21b81526001600160a01b037f000000000000000000000000000000000000000000000000000000000000000016906324de01e490610715908590859060040161426d565b600060405180830381600087803b15801561072f57600080fd5b505af1158015610743573d6000803e3d6000fd5b5050505050506107536001600055565b505050565b61076a60405160200161043490613a15565b6107726129fc565b6001600160a01b0381166107a4578060405163c1b14c9160e01b815260040161079b9190613872565b60405180910390fd5b60006107af82612c92565b90506107e2816040518060400160405280600f81526020016e30b23227b930b1b632a9b4b3b732b960891b815250612ccc565b6107ea61369d565b80516107f7906001612b7d565b6040805180820190915260078152661858d8dbdd5b9d60ca1b602082015281516108249160009086612be2565b604051630937807960e21b81526001600160a01b037f000000000000000000000000000000000000000000000000000000000000000016906324de01e49061087290859085906004016142b2565b600060405180830381600087803b15801561088c57600080fd5b505af11580156108a0573d6000803e3d6000fd5b5050505050506108b06001600055565b50565b6108c560405160200161043490613a15565b6108cd6129fc565b60006108dc8686868686612e34565b905061090c816040518060400160405280600c81526020016b1cd95d141c9a58d95199595960a21b815250612ccc565b61091461369d565b8051610921906002612b7d565b6040805180820190915260058152643a37b5b2b760d91b6020820152815161094c916000908a612be2565b6040805180820190915260098152681c1c9a58d95199595960ba1b6020820152815161097b9160019089612be2565b602081015161098b906003612b7d565b6109d2600060405180604001604052806013815260200172383934b1b2a332b2b226bab63a34b83634b2b960691b815250878460200151612c3f909392919063ffffffff16565b610a2060016040518060400160405280601a815260200179383934b1b2a332b2b22432b0b93a3132b0ba223ab930ba34b7b760311b815250868460200151612c3f909392919063ffffffff16565b610a5f60026040518060400160405280600b81526020016a737461626c65507269636560a81b815250858460200151612c3f909392919063ffffffff16565b604051630937807960e21b81526001600160a01b037f000000000000000000000000000000000000000000000000000000000000000016906324de01e490610aad90859085906004016142f7565b600060405180830381600087803b158015610ac757600080fd5b505af1158015610adb573d6000803e3d6000fd5b505050505050610aeb6001600055565b5050505050565b610b0460405160200161043490613a15565b610b0c6129fc565b6000610b188383612ea9565b9050610b4581604051806040016040528060098152602001686772616e74526f6c6560b81b815250612ab5565b604051632ac9d0b760e21b81526001600160a01b037f0000000000000000000000000000000000000000000000000000000000000000169063ab2742dc90610b939086908690600401614339565b600060405180830381600087803b158015610bad57600080fd5b505af1158015610bc1573d6000803e3d6000fd5b50505050610bcd61369d565b8051610bda906001612b7d565b6040805180820190915260078152661858d8dbdd5b9d60ca1b60208201528151610c079160009087612be2565b6080810151610c17906001612b7d565b604080518082019091526007815266726f6c654b657960c81b60208201526080820151610c479160009086612c3f565b604051630937807960e21b81526001600160a01b037f000000000000000000000000000000000000000000000000000000000000000016906324de01e490610c959085908590600401614352565b600060405180830381600087803b158015610caf57600080fd5b505af1158015610cc3573d6000803e3d6000fd5b505050505050610cd36001600055565b5050565b610d2e604051602001610ce99061438b565b604051602081830303815290604052805190602001206040518060400160405280601181526020017054494d454c4f434b5f4d554c544953494760781b81525061294c565b610d366129fc565b60405163208dd1ff60e01b81526001600160a01b037f0000000000000000000000000000000000000000000000000000000000000000169063208dd1ff90610d849085908590600401614339565b600060405180830381600087803b158015610d9e57600080fd5b505af1158015610db2573d6000803e3d6000fd5b50505050610dbe61369d565b8051610dcb906001612b7d565b6040805180820190915260078152661858d8dbdd5b9d60ca1b60208201528151610df89160009086612be2565b6080810151610e08906001612b7d565b604080518082019091526007815266726f6c654b657960c81b60208201526080820151610e389160009085612c3f565b60405163483624fb60e11b81526001600160a01b037f0000000000000000000000000000000000000000000000000000000000000000169063906c49f690610e849084906004016143d3565b600060405180830381600087803b158015610e9e57600080fd5b505af1158015610eb2573d6000803e3d6000fd5b5050505050610cd36001600055565b610ed360405160200161043490613a15565b610edb6129fc565b6000610ee682612c92565b9050610f19816040518060400160405280600f81526020016e30b23227b930b1b632a9b4b3b732b960891b815250612ab5565b6040516375896b0f60e11b81526001600160a01b037f0000000000000000000000000000000000000000000000000000000000000000169063eb12d61e90610f65908590600401613872565b600060405180830381600087803b158015610f7f57600080fd5b505af1158015610f93573d6000803e3d6000fd5b50505050610f9f61369d565b8051610fac906001612b7d565b6040805180820190915260078152661858d8dbdd5b9d60ca1b60208201528151610fd99160009086612be2565b604051630937807960e21b81526001600160a01b037f000000000000000000000000000000000000000000000000000000000000000016906324de01e49061087290859085906004016143f7565b611039604051602001610ce99061438b565b6110416129fc565b7f00000000000000000000000000000000000000000000000000000000000000006001600160a01b031663abfdcced61107984612efe565b6040516001600160e01b031960e084901b168152600481019190915283151560248201526044016020604051808303816000875af11580156110bf573d6000803e3d6000fd5b505050506040513d601f19601f820116820180604052508101906110e39190614436565b506110ec61369d565b80516110f9906001612b7d565b604080518082019091526008815267383937bb34b232b960c11b602082015281516111279160009086612be2565b6060810151611137906001612b7d565b60408051808201909152600581526476616c756560d81b602082015260608201516111659160009085612f3e565b60405163483624fb60e11b81526001600160a01b037f0000000000000000000000000000000000000000000000000000000000000000169063906c49f690610e84908490600401614453565b6111c360405160200161043490613a15565b6111cb6129fc565b60006111d78383612f93565b905061120681604051806040016040528060188152602001600080516020614a68833981519152815250612ab5565b7f00000000000000000000000000000000000000000000000000000000000000006001600160a01b031663abfdcced61123e85612efe565b6040516001600160e01b031960e084901b168152600481019190915284151560248201526044016020604051808303816000875af1158015611284573d6000803e3d6000fd5b505050506040513d601f19601f820116820180604052508101906112a89190614436565b506112b161369d565b80516112be906001612b7d565b604080518082019091526008815267383937bb34b232b960c11b602082015281516112ec9160009087612be2565b60608101516112fc906001612b7d565b60408051808201909152600581526476616c756560d81b6020820152606082015161132a9160009086612f3e565b60405163483624fb60e11b81526001600160a01b037f0000000000000000000000000000000000000000000000000000000000000000169063906c49f690610c95908490600401614453565b61138860405160200161043490613a15565b6113906129fc565b6001600160a01b0381166113b9578060405163c1b14c9160e01b815260040161079b9190613872565b60006113c482612fd4565b90506113fa81604051806040016040528060128152602001713932b6b7bb32a7b930b1b632a9b4b3b732b960711b815250612ccc565b61140261369d565b805161140f906001612b7d565b6040805180820190915260078152661858d8dbdd5b9d60ca1b6020820152815161143c9160009086612be2565b604051630937807960e21b81526001600160a01b037f000000000000000000000000000000000000000000000000000000000000000016906324de01e4906108729085908590600401614495565b61149c60405160200161043490613a15565b6114a46129fc565b60006114b08383613011565b90506114de816040518060400160405280600a8152602001697265766f6b65526f6c6560b01b815250612ccc565b6114e661369d565b80516114f3906001612b7d565b6040805180820190915260078152661858d8dbdd5b9d60ca1b602082015281516115209160009087612be2565b6080810151611530906001612b7d565b604080518082019091526007815266726f6c654b657960c81b602082015260808201516115609160009086612c3f565b604051630937807960e21b81526001600160a01b037f000000000000000000000000000000000000000000000000000000000000000016906324de01e490610c9590859085906004016144dd565b6115c060405160200161043490613a15565b6115c86129fc565b60006115d78686868686612e34565b9050611607816040518060400160405280600c81526020016b1cd95d141c9a58d95199595960a21b815250612ab5565b7f00000000000000000000000000000000000000000000000000000000000000006001600160a01b031663ca446dd961163f8861304d565b876040518363ffffffff1660e01b815260040161165d92919061451d565b6020604051808303816000875af115801561167c573d6000803e3d6000fd5b505050506040513d601f19601f820116820180604052508101906116a09190614534565b507f00000000000000000000000000000000000000000000000000000000000000006001600160a01b031663e2a4853a6116d98861307d565b866040518363ffffffff1660e01b81526004016116f7929190613a3d565b6020604051808303816000875af1158015611716573d6000803e3d6000fd5b505050506040513d601f19601f8201168201806040525081019061173a9190613a4b565b507f00000000000000000000000000000000000000000000000000000000000000006001600160a01b031663e2a4853a611773886130b8565b856040518363ffffffff1660e01b8152600401611791929190613a3d565b6020604051808303816000875af11580156117b0573d6000803e3d6000fd5b505050506040513d601f19601f820116820180604052508101906117d49190613a4b565b507f00000000000000000000000000000000000000000000000000000000000000006001600160a01b031663e2a4853a61180d886130fb565b846040518363ffffffff1660e01b815260040161182b929190613a3d565b6020604051808303816000875af115801561184a573d6000803e3d6000fd5b505050506040513d601f19601f8201168201806040525081019061186e9190613a4b565b5061187761369d565b8051611884906002612b7d565b6040805180820190915260058152643a37b5b2b760d91b602082015281516118af916000908a612be2565b6040805180820190915260098152681c1c9a58d95199595960ba1b602082015281516118de9160019089612be2565b60208101516118ee906003612b7d565b611935600060405180604001604052806013815260200172383934b1b2a332b2b226bab63a34b83634b2b960691b815250878460200151612c3f909392919063ffffffff16565b61198360016040518060400160405280601a815260200179383934b1b2a332b2b22432b0b93a3132b0ba223ab930ba34b7b760311b815250868460200151612c3f909392919063ffffffff16565b6119c260026040518060400160405280600b81526020016a737461626c65507269636560a81b815250858460200151612c3f909392919063ffffffff16565b604051630937807960e21b81526001600160a01b037f000000000000000000000000000000000000000000000000000000000000000016906324de01e490610aad9085908590600401614551565b611a2260405160200161043490613a15565b611a2a6129fc565b611a58816040518060400160405280600c81526020016b31b0b731b2b620b1ba34b7b760a11b81525061312d565b6108b06001600055565b611a7460405160200161043490613a15565b611a7c6129fc565b6000611a888383612ea9565b9050611ab581604051806040016040528060098152602001686772616e74526f6c6560b81b815250612ccc565b611abd61369d565b8051611aca906001612b7d565b6040805180820190915260078152661858d8dbdd5b9d60ca1b60208201528151611af79160009087612be2565b6080810151611b07906001612b7d565b604080518082019091526007815266726f6c654b657960c81b60208201526080820151611b379160009086612c3f565b604051630937807960e21b81526001600160a01b037f000000000000000000000000000000000000000000000000000000000000000016906324de01e490610c95908590859060040161458d565b6060816001600160401b03811115611b9f57611b9f6145cc565b604051908082528060200260200182016040528015611bd257816020015b6060815260200190600190039081611bbd5790505b50905060005b82811015611c9c5760008030868685818110611bf657611bf66145e2565b9050602002810190611c0891906145f8565b604051611c16929190614645565b600060405180830381855af49150503d8060008114611c51576040519150601f19603f3d011682016040523d82523d6000602084013e611c56565b606091505b509150915081611c6957611c6981613252565b80848481518110611c7c57611c7c6145e2565b602002602001018190525050508080611c949061466b565b915050611bd8565b505b92915050565b611cb660405160200161043490613a15565b611cbe6129fc565b6001600160a01b038116611ce7578060405163cb9339d560e01b815260040161079b9190613872565b6000611cf28261328b565b9050611d24816040518060400160405280600e81526020016d39b2ba2332b2a932b1b2b4bb32b960911b815250612ccc565b611d2c61369d565b8051611d39906001612b7d565b6040805180820190915260078152661858d8dbdd5b9d60ca1b60208201528151611d669160009086612be2565b604051630937807960e21b81526001600160a01b037f000000000000000000000000000000000000000000000000000000000000000016906324de01e4906108729085908590600401614684565b611dc660405160200161043490613a15565b611dce6129fc565b6000611dd982612fd4565b9050611e0f81604051806040016040528060128152602001713932b6b7bb32a7b930b1b632a9b4b3b732b960711b815250612ab5565b604051630e316ab760e01b81526001600160a01b037f00000000000000000000000000000000000000000000000000000000000000001690630e316ab790611e5b908590600401613872565b600060405180830381600087803b158015611e7557600080fd5b505af1158015611e89573d6000803e3d6000fd5b50505050611e9561369d565b8051611ea2906001612b7d565b6040805180820190915260078152661858d8dbdd5b9d60ca1b60208201528151611ecf9160009086612be2565b604051630937807960e21b81526001600160a01b037f000000000000000000000000000000000000000000000000000000000000000016906324de01e49061087290859085906004016146c8565b611f2f60405160200161043490613a15565b611f376129fc565b6000611f438383612f93565b9050611f7281604051806040016040528060188152602001600080516020614a68833981519152815250612ccc565b611f7a61369d565b8051611f87906001612b7d565b604080518082019091526008815267383937bb34b232b960c11b60208201528151611fb59160009087612be2565b6060810151611fc5906001612b7d565b60408051808201909152600581526476616c756560d81b60208201526060820151611ff39160009086612f3e565b60405163483624fb60e11b81526001600160a01b037f0000000000000000000000000000000000000000000000000000000000000000169063906c49f690610c9590849060040161470a565b61205160405160200161043490613a15565b6120596129fc565b60006120648261328b565b9050612096816040518060400160405280600e81526020016d39b2ba2332b2a932b1b2b4bb32b960911b815250612ab5565b7f00000000000000000000000000000000000000000000000000000000000000006001600160a01b031663ca446dd96040516020016120f5906020808252600c908201526b2322a2afa922a1a2a4ab22a960a11b604082015260600190565b60405160208183030381529060405280519060200120846040518363ffffffff1660e01b815260040161212992919061451d565b6020604051808303816000875af1158015612148573d6000803e3d6000fd5b505050506040513d601f19601f8201168201806040525081019061216c9190614534565b5061217561369d565b8051612182906001612b7d565b6040805180820190915260078152661858d8dbdd5b9d60ca1b602082015281516121af9160009086612be2565b604051630937807960e21b81526001600160a01b037f000000000000000000000000000000000000000000000000000000000000000016906324de01e4906108729085908590600401614751565b61220f60405160200161043490613a15565b6122176129fc565b6000612224848484612a55565b9050612255816040518060400160405280600d81526020016c7365744461746153747265616d60981b815250612ccc565b61225d61369d565b805161226a906001612b7d565b6040805180820190915260058152643a37b5b2b760d91b602082015281516122959160009088612be2565b60808101516122a5906001612b7d565b60408051808201909152600681526519995959125960d21b602082015260808201516122d49160009087612c3f565b60208101516122e4906001612b7d565b61232c6000604051806040016040528060148152602001733230ba30a9ba3932b0b6a6bab63a34b83634b2b960611b815250858460200151612c3f909392919063ffffffff16565b604051630937807960e21b81526001600160a01b037f000000000000000000000000000000000000000000000000000000000000000016906324de01e490610715908590859060040161478f565b61238c60405160200161043490613a15565b6123946129fc565b60006123a08383613011565b90506123ce816040518060400160405280600a8152602001697265766f6b65526f6c6560b01b815250612ab5565b60405163208dd1ff60e01b81526001600160a01b037f0000000000000000000000000000000000000000000000000000000000000000169063208dd1ff9061241c9086908690600401614339565b600060405180830381600087803b15801561243657600080fd5b505af115801561244a573d6000803e3d6000fd5b5050505061245661369d565b8051612463906001612b7d565b6040805180820190915260078152661858d8dbdd5b9d60ca1b602082015281516124909160009087612be2565b60808101516124a0906001612b7d565b604080518082019091526007815266726f6c654b657960c81b602082015260808201516124d09160009086612c3f565b604051630937807960e21b81526001600160a01b037f000000000000000000000000000000000000000000000000000000000000000016906324de01e490610c9590859085906004016147d2565b61253060405160200161043490613a15565b6125386129fc565b600061254483836132c4565b905061257f816040518060400160405280601781526020017639b2ba20ba37b6b4b1a7b930b1b632a83937bb34b232b960491b815250612ab5565b7f00000000000000000000000000000000000000000000000000000000000000006001600160a01b031663abfdcced6125b785613311565b6040516001600160e01b031960e084901b168152600481019190915284151560248201526044016020604051808303816000875af11580156125fd573d6000803e3d6000fd5b505050506040513d601f19601f820116820180604052508101906126219190614436565b5061262a61369d565b8051612637906001612b7d565b604080518082019091526008815267383937bb34b232b960c11b602082015281516126659160009087612be2565b6060810151612675906001612b7d565b60408051808201909152600581526476616c756560d81b602082015260608201516126a39160009086612f3e565b60405163483624fb60e11b81526001600160a01b037f0000000000000000000000000000000000000000000000000000000000000000169063906c49f690610c959084906004016147fc565b61270160405160200161043490613a15565b6127096129fc565b600154811161272e576040516373586edb60e11b81526004810182905260240161079b565b600181905561273b613350565b61274361369d565b6020810151612753906001612b7d565b61279560006040518060400160405280600e81526020016d5f74696d656c6f636b44656c617960901b815250848460200151612c3f909392919063ffffffff16565b60405163483624fb60e11b81526001600160a01b037f0000000000000000000000000000000000000000000000000000000000000000169063906c49f6906127e190849060040161483d565b600060405180830381600087803b1580156127fb57600080fd5b505af115801561280f573d6000803e3d6000fd5b50505050506108b06001600055565b61283060405160200161043490613a15565b6128386129fc565b600061284483836132c4565b905061287f816040518060400160405280601781526020017639b2ba20ba37b6b4b1a7b930b1b632a83937bb34b232b960491b815250612ccc565b61288761369d565b8051612894906001612b7d565b604080518082019091526008815267383937bb34b232b960c11b602082015281516128c29160009087612be2565b60608101516128d2906001612b7d565b60408051808201909152600581526476616c756560d81b602082015260608201516129009160009086612f3e565b60405163483624fb60e11b81526001600160a01b037f0000000000000000000000000000000000000000000000000000000000000000169063906c49f690610c9590849060040161487c565b60405163ac4ab3fb60e01b81526001600160a01b037f0000000000000000000000000000000000000000000000000000000000000000169063ac4ab3fb9061299a9033908690600401614339565b602060405180830381865afa1580156129b7573d6000803e3d6000fd5b505050506040513d601f19601f820116820180604052508101906129db9190614436565b610cd357338160405163a35b150b60e01b815260040161079b9291906148c3565b600260005403612a4e5760405162461bcd60e51b815260206004820152601f60248201527f5265656e7472616e637947756172643a207265656e7472616e742063616c6c00604482015260640161079b565b6002600055565b6040516c7365744461746153747265616d60981b60208201526001600160601b0319606085901b16602d82015260418101839052606181018290526000906081016040516020818303038152906040528051906020012090509392505050565b612abe8261337e565b610cd3828261312d565b6000604051602001612afc906020808252600e908201526d1110551057d4d51491505357d25160921b604082015260600190565b6040516020818303038152906040528051906020012082604051602001612b2492919061451d565b604051602081830303815290604052805190602001209050919050565b6000604051602001612afc906020808252601690820152752220aa20afa9aa2922a0a6afa6aaa62a24a82624a2a960511b604082015260600190565b806001600160401b03811115612b9557612b956145cc565b604051908082528060200260200182016040528015612bdb57816020015b604080518082019091526060815260006020820152815260200190600190039081612bb35790505b5090915250565b8184600001518481518110612bf957612bf96145e2565b6020026020010151600001819052508084600001518481518110612c1f57612c1f6145e2565b6020908102919091018101516001600160a01b0390921691015250505050565b8184600001518481518110612c5657612c566145e2565b6020026020010151600001819052508084600001518481518110612c7c57612c7c6145e2565b6020026020010151602001818152505050505050565b6040516e30b23227b930b1b632a9b4b3b732b960891b60208201526001600160601b0319606083901b16602f820152600090604301612b24565b60008281526002602052604090205415612cf95760405163b244a10760e01b815260040160405180910390fd5b600154612d0690426148e7565b600083815260026020526040902055612d206003836133ef565b50612d2961369d565b6080810151612d39906001612b7d565b604080518082019091526009815268616374696f6e4b657960b81b60208201526080820151612d6b9160009086612c3f565b60c0810151612d7b906001613402565b60408051808201909152600b81526a1858dd1a5bdb931858995b60aa1b602082015260c0820151612daf9160009085613464565b604051630937807960e21b81526001600160a01b037f000000000000000000000000000000000000000000000000000000000000000016906324de01e490612dfd90869085906004016148fa565b600060405180830381600087803b158015612e1757600080fd5b505af1158015612e2b573d6000803e3d6000fd5b50505050505050565b604080516b1cd95d141c9a58d95199595960a21b60208201526001600160601b0319606088811b8216602c84015287901b169181019190915260548101849052607481018390526094810182905260009060b40160405160208183030381529060405280519060200120905095945050505050565b604051686772616e74526f6c6560b81b60208201526001600160601b0319606084901b166029820152603d8101829052600090605d015b60405160208183030381529060405280519060200120905092915050565b6000604051602001612afc906020808252601a90820152791254d7d3d49050d31157d41493d59251115497d153905093115160321b604082015260600190565b8184600001518481518110612f5557612f556145e2565b6020026020010151600001819052508084600001518481518110612f7b57612f7b6145e2565b60209081029190910181015191151591015250505050565b604051600080516020614a6883398151915260208201526001600160601b0319606084901b16603882015281151560f81b604c820152600090604d01612ee0565b604051713932b6b7bb32a7b930b1b632a9b4b3b732b960711b60208201526001600160601b0319606083901b166032820152600090604601612b24565b604051697265766f6b65526f6c6560b01b60208201526001600160601b0319606084901b16602a820152603e8101829052600090605e01612ee0565b6000604051602001612afc906020808252600a908201526914149250d157d191515160b21b604082015260600190565b6000604051602001612afc90602080825260159082015274282924a1a2afa322a2a22fa6aaa62a24a82624a2a960591b604082015260600190565b6000604051602001612afc906020808252601d908201527f50524943455f464545445f4845415254424541545f4455524154494f4e000000604082015260600190565b6000604051602001612afc906020808252600c908201526b535441424c455f505249434560a01b604082015260600190565b600082815260026020526040812054900361315b57604051634a7ed75160e11b815260040160405180910390fd5b6000828152600260205260408120556131756003836134b6565b5061317e61369d565b608081015161318e906001612b7d565b604080518082019091526009815268616374696f6e4b657960b81b602082015260808201516131c09160009086612c3f565b60c08101516131d0906001613402565b60408051808201909152600b81526a1858dd1a5bdb931858995b60aa1b602082015260c08201516132049160009085613464565b604051630937807960e21b81526001600160a01b037f000000000000000000000000000000000000000000000000000000000000000016906324de01e490612dfd908690859060040161493d565b60008061325e836134c2565b915091508015613282578160405162461bcd60e51b815260040161079b919061497f565b61075383613552565b6040516d39b2ba2332b2a932b1b2b4bb32b960911b60208201526001600160601b0319606083901b16602e820152600090604201612b24565b6040517639b2ba20ba37b6b4b1a7b930b1b632a83937bb34b232b960491b60208201526001600160601b0319606084901b16603782015281151560f81b604b820152600090604c01612ee0565b6000604051602001612afc9060208082526019908201527824a9afa0aa27a6a4a1afa7a920a1a622afa82927ab24a222a960391b604082015260600190565b62069780600154111561337c57600154604051633ebd9bc360e21b815260040161079b91815260200190565b565b60008181526002602052604081205490036133ac57604051634a7ed75160e11b815260040160405180910390fd5b4260008281526002602052604090205411156108b0576000818152600260205260409081902054905163082c8d6160e21b8152600481019190915260240161079b565b60006133fb838361355b565b9392505050565b806001600160401b0381111561341a5761341a6145cc565b604051908082528060200260200182016040528015612bdb57816020015b604080518082019091526060808252602082015281526020019060019003908161343857505090915250565b818460000151848151811061347b5761347b6145e2565b60200260200101516000018190525080846000015184815181106134a1576134a16145e2565b60200260200101516020018190525050505050565b60006133fb83836135aa565b606060006044835110156134e9575050604080516020810190915260008082529092909150565b60006134f6846020015190565b90506307b9e43360e51b6001600160e01b0319821601613535576004840193508380602001905181019061352a9190614992565b946001945092505050565b600060405180602001604052806000815250909250925050915091565b80518060208301fd5b60008181526001830160205260408120546135a257508154600181810184556000848152602080822090930184905584548482528286019093526040902091909155611c9e565b506000611c9e565b600081815260018301602052604081205480156136935760006135ce600183614a3e565b85549091506000906135e290600190614a3e565b9050818114613647576000866000018281548110613602576136026145e2565b9060005260206000200154905080876000018481548110613625576136256145e2565b6000918252602080832090910192909255918252600188019052604090208390555b855486908061365857613658614a51565b600190038181906000526020600020016000905590558560010160008681526020019081526020016000206000905560019350505050611c9e565b6000915050611c9e565b604080516101208101909152606060e08201818152610100830191909152819081526020016136df604051806040016040528060608152602001606081525090565b8152602001613701604051806040016040528060608152602001606081525090565b8152602001613723604051806040016040528060608152602001606081525090565b8152602001613745604051806040016040528060608152602001606081525090565b8152602001613767604051806040016040528060608152602001606081525090565b8152602001613789604051806040016040528060608152602001606081525090565b905290565b6001600160a01b03811681146108b057600080fd5b6000806000606084860312156137b857600080fd5b83356137c38161378e565b95602085013595506040909401359392505050565b6000602082840312156137ea57600080fd5b81356133fb8161378e565b600080600080600060a0868803121561380d57600080fd5b85356138188161378e565b945060208601356138288161378e565b94979496505050506040830135926060810135926080909101359150565b6000806040838503121561385957600080fd5b82356138648161378e565b946020939093013593505050565b6001600160a01b0391909116815260200190565b80151581146108b057600080fd5b600080604083850312156138a757600080fd5b82356138b28161378e565b915060208301356138c281613886565b809150509250929050565b6000602082840312156138df57600080fd5b5035919050565b600080602083850312156138f957600080fd5b82356001600160401b038082111561391057600080fd5b818501915085601f83011261392457600080fd5b81358181111561393357600080fd5b8660208260051b850101111561394857600080fd5b60209290920196919550909350505050565b60005b8381101561397557818101518382015260200161395d565b50506000910152565b6000815180845261399681602086016020860161395a565b601f01601f19169290920160200192915050565b600082825180855260208086019550808260051b84010181860160005b848110156139f557601f198684030189526139e383835161397e565b988401989250908301906001016139c7565b5090979650505050505050565b6020815260006133fb60208301846139aa565b6020808252600e908201526d2a24a6a2a627a1a5afa0a226a4a760911b604082015260600190565b918252602082015260400190565b600060208284031215613a5d57600080fd5b5051919050565b6000815180845260208085019450848260051b86018286016000805b86811015613afc578484038a52825160408151818752613aa28288018261397e565b92890151878403888b01528051808552908a01938693508a0191505b80831015613ae75783516001600160a01b03168252928901926001929092019190890190613abe565b509b88019b9550505091850191600101613a80565b509198975050505050505050565b60006040808401835182865281815180845260608801915060608160051b89010193506020808401935060005b82811015613b8157898603605f1901845284518051888852613b5b8989018261397e565b918401516001600160a01b03169784019790975295509381019392810192600101613b37565b50808801519550888503818a015250505050613b9d8183613a64565b95945050505050565b6000815180845260208085019450848260051b86018286016000805b86811015613afc578484038a52825160408151818752613be48288018261397e565b92890151878403888b01528051808552908a01938693508a0191505b80831015613c205783518252928901926001929092019190890190613c00565b509b88019b9550505091850191600101613bc2565b60006040808401835182865281815180845260608801915060608160051b89010193506020808401935060005b82811015613ca357898603605f1901845284518051888852613c868989018261397e565b918401519784019790975295509381019392810192600101613c62565b50808801519550888503818a015250505050613b9d8183613ba6565b6000815180845260208085019450848260051b86018286016000805b86811015613afc578484038a52825160408151818752613cfd8288018261397e565b92890151878403888b01528051808552908a01938693508a0191505b80831015613d395783518252928901926001929092019190890190613d19565b509b88019b9550505091850191600101613cdb565b60006040808401835182865281815180845260608801915060608160051b89010193506020808401935060005b82811015613dbc57898603605f1901845284518051888852613d9f8989018261397e565b918401519784019790975295509381019392810192600101613d7b565b50808801519550888503818a015250505050613b9d8183613cbf565b600082825180855260208086019550808260051b8401018186016000805b85811015613afc57601f19878503018a52825160408151818752613e1c8288018261397e565b92880151878403888a0152805180855290890193869350890191505b80831015613e5a57835115158252928801926001929092019190880190613e38565b509b87019b9550505091840191600101613df6565b60006040808401835182865281815180845260608801915060608160051b89010193506020808401935060005b82811015613edf57898603605f1901845284518051888852613ec08989018261397e565b9184015115159784019790975295509381019392810192600101613e9c565b50808801519550888503818a015250505050613b9d8183613dd8565b60006040808401835182865281815180845260608801915060608160051b89010193506020808401935060005b82811015613ca357898603605f1901845284518051888852613f4c8989018261397e565b918401519784019790975295509381019392810192600101613f28565b6000815180845260208085019450848260051b860182860160005b858110156139f5578383038952815160408151818652613fa68287018261397e565b91505086820151915084810387860152613fc081836139aa565b9a87019a9450505090840190600101613f84565b60006040808401835182865281815180845260608801915060608160051b89010193506020808401935060005b8281101561405157898603605f19018452845180518888526140258989018261397e565b918401518883038986015291905061403d818361397e565b975050509381019392810192600101614001565b50808801519550888503818a015250505050613b9d8183613f69565b600081518084526020808501945084600583811b87018387016000805b87811015614115578584038b528251604081518187526140ac8288018261397e565b928a0151878403888c01528051808552908b019392508a8301915080891b83018b01865b828110156140fe57601f198583030184526140ec82875161397e565b958d0195938d019391506001016140d0565b509e8b019e9750505093880193505060010161408a565b50919998505050505050505050565b60006040808401835182865281815180845260608801915060608160051b89010193506020808401935060005b828110156141a157898603605f19018452845180518888526141758989018261397e565b918401518883038986015291905061418d818361397e565b975050509381019392810192600101614151565b50808801519550888503818a015250505050613b9d818361406d565b6000815160e084526141d260e0850182613b0a565b9050602083015184820360208601526141eb8282613c35565b915050604083015184820360408601526142058282613d4e565b9150506060830151848203606086015261421f8282613e6f565b915050608083015184820360808601526142398282613efb565b91505060a083015184820360a08601526142538282613fd4565b91505060c083015184820360c0860152613b9d8282614124565b60608152600d60608201526c5365744461746153747265616d60981b608082015282602082015260a0604082015260006142aa60a08301846141bd565b949350505050565b60608152601560608201527429b4b3b730b620b23227b930b1b632a9b4b3b732b960591b608082015282602082015260a0604082015260006142aa60a08301846141bd565b60608152601260608201527114da59db985b14d95d141c9a58d95199595960721b608082015282602082015260a0604082015260006142aa60a08301846141bd565b6001600160a01b03929092168252602082015260400190565b6060815260096060820152684772616e74526f6c6560b81b608082015282602082015260a0604082015260006142aa60a08301846141bd565b60208082526011908201527054494d454c4f434b5f4d554c544953494760781b604082015260600190565b600a8152695265766f6b65526f6c6560b01b602082015260400190565b6040815260006143e5604083016143b6565b82810360208401526142aa81856141bd565b60608152600f60608201526e20b23227b930b1b632a9b4b3b732b960891b608082015282602082015260a0604082015260006142aa60a08301846141bd565b60006020828403121561444857600080fd5b81516133fb81613886565b60408152601860408201527714d95d13dc9858db19541c9bdd9a59195c915b98589b195960421b60608201526080602082015260006133fb60808301846141bd565b60608152601860608201527729b4b3b730b62932b6b7bb32a7b930b1b632a9b4b3b732b960411b608082015282602082015260a0604082015260006142aa60a08301846141bd565b60608152601060608201526f5369676e616c5265766f6b65526f6c6560801b608082015282602082015260a0604082015260006142aa60a08301846141bd565b9182526001600160a01b0316602082015260400190565b60006020828403121561454657600080fd5b81516133fb8161378e565b60608152600c60608201526b14d95d141c9a58d95199595960a21b608082015282602082015260a0604082015260006142aa60a08301846141bd565b60608152600f60608201526e5369676e616c4772616e74526f6c6560881b608082015282602082015260a0604082015260006142aa60a08301846141bd565b634e487b7160e01b600052604160045260246000fd5b634e487b7160e01b600052603260045260246000fd5b6000808335601e1984360301811261460f57600080fd5b8301803591506001600160401b0382111561462957600080fd5b60200191503681900382131561463e57600080fd5b9250929050565b8183823760009101908152919050565b634e487b7160e01b600052601160045260246000fd5b60006001820161467d5761467d614655565b5060010190565b60608152601460608201527329b4b3b730b629b2ba2332b2a932b1b2b4bb32b960611b608082015282602082015260a0604082015260006142aa60a08301846141bd565b6060815260126060820152712932b6b7bb32a7b930b1b632a9b4b3b732b960711b608082015282602082015260a0604082015260006142aa60a08301846141bd565b60408152601e60408201527f5369676e616c5365744f7261636c6550726f7669646572456e61626c6564000060608201526080602082015260006133fb60808301846141bd565b60608152600e60608201526d29b2ba2332b2a932b1b2b4bb32b960911b608082015282602082015260a0604082015260006142aa60a08301846141bd565b6060815260136060820152725369676e616c5365744461746153747265616d60681b608082015282602082015260a0604082015260006142aa60a08301846141bd565b6060815260006147e4606083016143b6565b8460208401528281036040840152613b9d81856141bd565b60408152601760408201527629b2ba20ba37b6b4b1a7b930b1b632a83937bb34b232b960491b60608201526080602082015260006133fb60808301846141bd565b604081526015604082015274496e63726561736554696d656c6f636b44656c617960581b60608201526080602082015260006133fb60808301846141bd565b60408152601d60408201527f5369676e616c53657441746f6d69634f7261636c6550726f766964657200000060608201526080602082015260006133fb60808301846141bd565b6001600160a01b03831681526040602082018190526000906142aa9083018461397e565b80820180821115611c9e57611c9e614655565b60608152601360608201527229b4b3b730b62832b73234b733a0b1ba34b7b760691b608082015282602082015260a0604082015260006142aa60a08301846141bd565b60608152601260608201527121b632b0b92832b73234b733a0b1ba34b7b760711b608082015282602082015260a0604082015260006142aa60a08301846141bd565b6020815260006133fb602083018461397e565b6000602082840312156149a457600080fd5b81516001600160401b03808211156149bb57600080fd5b818401915084601f8301126149cf57600080fd5b8151818111156149e1576149e16145cc565b604051601f8201601f19908116603f01168101908382118183101715614a0957614a096145cc565b81604052828152876020848701011115614a2257600080fd5b614a3383602083016020880161395a565b979650505050505050565b81810381811115611c9e57611c9e614655565b634e487b7160e01b600052603160045260246000fdfe7365744f7261636c6550726f7669646572456e61626c65640000000000000000a264697066735822122024e38acddf00a384767a120e8b6b31053f1c8e83e340a20add636c6ba8b2f54b64736f6c63430008120033",
  "libraries": {},
  "devdoc": {
    "kind": "dev",
    "methods": {
      "multicall(bytes[])": {
        "details": "Receives and executes a batch of function calls on this contract."
      }
    },
    "version": 1
  },
  "userdoc": {
    "kind": "user",
    "methods": {},
    "version": 1
  },
  "storageLayout": {
    "storage": [
      {
        "astId": 242,
        "contract": "contracts/config/Timelock.sol:Timelock",
        "label": "_status",
        "offset": 0,
        "slot": "0",
        "type": "t_uint256"
      },
      {
        "astId": 11948,
        "contract": "contracts/config/Timelock.sol:Timelock",
        "label": "timelockDelay",
        "offset": 0,
        "slot": "1",
        "type": "t_uint256"
      },
      {
        "astId": 11952,
        "contract": "contracts/config/Timelock.sol:Timelock",
        "label": "pendingActions",
        "offset": 0,
        "slot": "2",
        "type": "t_mapping(t_bytes32,t_uint256)"
      },
      {
        "astId": 11955,
        "contract": "contracts/config/Timelock.sol:Timelock",
        "label": "pendingActionsList",
        "offset": 0,
        "slot": "3",
        "type": "t_struct(Bytes32Set)6884_storage"
      }
    ],
    "types": {
      "t_array(t_bytes32)dyn_storage": {
        "base": "t_bytes32",
        "encoding": "dynamic_array",
        "label": "bytes32[]",
        "numberOfBytes": "32"
      },
      "t_bytes32": {
        "encoding": "inplace",
        "label": "bytes32",
        "numberOfBytes": "32"
      },
      "t_mapping(t_bytes32,t_uint256)": {
        "encoding": "mapping",
        "key": "t_bytes32",
        "label": "mapping(bytes32 => uint256)",
        "numberOfBytes": "32",
        "value": "t_uint256"
      },
      "t_struct(Bytes32Set)6884_storage": {
        "encoding": "inplace",
        "label": "struct EnumerableSet.Bytes32Set",
        "members": [
          {
            "astId": 6883,
            "contract": "contracts/config/Timelock.sol:Timelock",
            "label": "_inner",
            "offset": 0,
            "slot": "0",
            "type": "t_struct(Set)6690_storage"
          }
        ],
        "numberOfBytes": "64"
      },
      "t_struct(Set)6690_storage": {
        "encoding": "inplace",
        "label": "struct EnumerableSet.Set",
        "members": [
          {
            "astId": 6685,
            "contract": "contracts/config/Timelock.sol:Timelock",
            "label": "_values",
            "offset": 0,
            "slot": "0",
            "type": "t_array(t_bytes32)dyn_storage"
          },
          {
            "astId": 6689,
            "contract": "contracts/config/Timelock.sol:Timelock",
            "label": "_indexes",
            "offset": 0,
            "slot": "1",
            "type": "t_mapping(t_bytes32,t_uint256)"
          }
        ],
        "numberOfBytes": "64"
      },
      "t_uint256": {
        "encoding": "inplace",
        "label": "uint256",
        "numberOfBytes": "32"
      }
    }
  }
}