{
  "address": "0x98fa59dfDdb26951a07BEa985e882d85005F8cb7",
  "abi": [
    {
      "inputs": [
        {
          "internalType": "contract RoleStore",
          "name": "_roleStore",
          "type": "address"
        },
        {
          "internalType": "contract DataStore",
          "name": "_dataStore",
          "type": "address"
        }
      ],
      "stateMutability": "nonpayable",
      "type": "constructor"
    },
    {
      "inputs": [
        {
          "internalType": "address",
          "name": "token",
          "type": "address"
        },
        {
          "internalType": "address",
          "name": "receiver",
          "type": "address"
        },
        {
          "internalType": "uint256",
          "name": "amount",
          "type": "uint256"
        }
      ],
      "name": "TokenTransferError",
      "type": "error"
    },
    {
      "inputs": [
        {
          "internalType": "address",
          "name": "msgSender",
          "type": "address"
        },
        {
          "internalType": "string",
          "name": "role",
          "type": "string"
        }
      ],
      "name": "Unauthorized",
      "type": "error"
    },
    {
      "inputs": [],
      "name": "dataStore",
      "outputs": [
        {
          "internalType": "contract DataStore",
          "name": "",
          "type": "address"
        }
      ],
      "stateMutability": "view",
      "type": "function"
    },
    {
      "inputs": [
        {
          "internalType": "address",
          "name": "token",
          "type": "address"
        }
      ],
      "name": "recordTransferIn",
      "outputs": [
        {
          "internalType": "uint256",
          "name": "",
          "type": "uint256"
        }
      ],
      "stateMutability": "nonpayable",
      "type": "function"
    },
    {
      "inputs": [],
      "name": "roleStore",
      "outputs": [
        {
          "internalType": "contract RoleStore",
          "name": "",
          "type": "address"
        }
      ],
      "stateMutability": "view",
      "type": "function"
    },
    {
      "inputs": [
        {
          "internalType": "address",
          "name": "",
          "type": "address"
        }
      ],
      "name": "tokenBalances",
      "outputs": [
        {
          "internalType": "uint256",
          "name": "",
          "type": "uint256"
        }
      ],
      "stateMutability": "view",
      "type": "function"
    },
    {
      "inputs": [
        {
          "internalType": "address",
          "name": "token",
          "type": "address"
        },
        {
          "internalType": "address",
          "name": "receiver",
          "type": "address"
        },
        {
          "internalType": "uint256",
          "name": "amount",
          "type": "uint256"
        }
      ],
      "name": "transferOut",
      "outputs": [],
      "stateMutability": "nonpayable",
      "type": "function"
    },
    {
      "inputs": [
        {
          "internalType": "address",
          "name": "token",
          "type": "address"
        },
        {
          "internalType": "address",
          "name": "receiver",
          "type": "address"
        },
        {
          "internalType": "uint256",
          "name": "amount",
          "type": "uint256"
        },
        {
          "internalType": "bool",
          "name": "shouldUnwrapNativeToken",
          "type": "bool"
        }
      ],
      "name": "transferOut",
      "outputs": [],
      "stateMutability": "nonpayable",
      "type": "function"
    },
    {
      "inputs": [
        {
          "internalType": "address",
          "name": "receiver",
          "type": "address"
        },
        {
          "internalType": "uint256",
          "name": "amount",
          "type": "uint256"
        }
      ],
      "name": "transferOutNativeToken",
      "outputs": [],
      "stateMutability": "nonpayable",
      "type": "function"
    },
    {
      "stateMutability": "payable",
      "type": "receive"
    }
  ],
  "transactionHash": "0x1b5f8f9f07d5f5f2d43a929f42e0a16e7a374bfce6606e845a4204dce9d2defe",
  "args": [
    "0x4C5Ef06b33b9EAB7581423A8D079225B78De0784",
    "0xCcBd6f42249ac768e3b2b96d31F5be3a4B51Bd0B"
  ],
  "numDeployments": 1,
  "solcInputHash": "bfcff1dcb3466d4762643d92a17aef63",
  "bytecode": "0x60c060405234801561001057600080fd5b5060405161107238038061107283398101604081905261002f9161005e565b6001600160a01b039182166080521660a052610098565b6001600160a01b038116811461005b57600080fd5b50565b6000806040838503121561007157600080fd5b825161007c81610046565b602084015190925061008d81610046565b809150509250929050565b60805160a051610f8c6100e6600039600081816070015281816101f70152818161036501528181610406015281816105180152610575015260008181610189015261044e0152610f8c6000f3fe6080604052600436106100645760003560e01c8063078d3b79146101045780632fb1260514610124578063352f9aed146101445780634a4a7b0414610177578063523fba7f146101b8578063660d0d67146101e5578063d443ca941461021957600080fd5b366100ff5760006100947f0000000000000000000000000000000000000000000000000000000000000000610239565b9050336001600160a01b038216146100fd5760405162461bcd60e51b815260206004820152602160248201527f42616e6b3a20696e76616c6964206e617469766520746f6b656e2073656e64656044820152603960f91b60648201526084015b60405180910390fd5b005b600080fd5b34801561011057600080fd5b506100fd61011f366004610ca2565b6102ec565b34801561013057600080fd5b506100fd61013f366004610cf1565b61034c565b34801561015057600080fd5b5061016461015f366004610d44565b6103d0565b6040519081526020015b60405180910390f35b34801561018357600080fd5b506101ab7f000000000000000000000000000000000000000000000000000000000000000081565b60405161016e9190610d68565b3480156101c457600080fd5b506101646101d3366004610d44565b60006020819052908152604090205481565b3480156101f157600080fd5b506101ab7f000000000000000000000000000000000000000000000000000000000000000081565b34801561022557600080fd5b506100fd610234366004610d7c565b6103ed565b6000816001600160a01b03166321f8a7216040516020016102719060208082526003908201526215d39560ea1b604082015260600190565b604051602081830303815290604052805190602001206040518263ffffffff1660e01b81526004016102a591815260200190565b602060405180830381865afa1580156102c2573d6000803e3d6000fd5b505050506040513d601f19601f820116820180604052508101906102e69190610da8565b92915050565b61033c6040516020016102fe90610dc5565b604051602081830303815290604052805190602001206040518060400160405280600a81526020016921a7a72a2927a62622a960b11b815250610437565b6103478383836104eb565b505050565b61035e6040516020016102fe90610dc5565b60006103897f0000000000000000000000000000000000000000000000000000000000000000610239565b9050806001600160a01b0316856001600160a01b03161480156103a95750815b156103be576103b9858585610548565b6103c9565b6103c98585856104eb565b5050505050565b60006103e46040516020016102fe90610dc5565b6102e68261059c565b6103ff6040516020016102fe90610dc5565b600061042a7f0000000000000000000000000000000000000000000000000000000000000000610239565b9050610347818484610548565b60405163ac4ab3fb60e01b81526001600160a01b037f0000000000000000000000000000000000000000000000000000000000000000169063ac4ab3fb906104859033908690600401610de9565b602060405180830381865afa1580156104a2573d6000803e3d6000fd5b505050506040513d601f19601f820116820180604052508101906104c69190610e02565b6104e757338160405163a35b150b60e01b81526004016100f4929190610e6f565b5050565b306001600160a01b038316036105135760405162461bcd60e51b81526004016100f490610e93565b61053f7f000000000000000000000000000000000000000000000000000000000000000084848461064d565b610347836107a9565b306001600160a01b038316036105705760405162461bcd60e51b81526004016100f490610e93565b61053f7f0000000000000000000000000000000000000000000000000000000000000000848484610832565b6001600160a01b0381166000818152602081905260408082205490516370a0823160e01b8152919290918391906370a08231906105dd903090600401610d68565b602060405180830381865afa1580156105fa573d6000803e3d6000fd5b505050506040513d601f19601f8201168201806040525081019061061e9190610ec3565b6001600160a01b038516600090815260208190526040902081905590506106458282610edc565b949350505050565b80156107a3576001600160a01b0382166106795760405162461bcd60e51b81526004016100f490610efd565b6000846001600160a01b031663bd02d0f5610693866109fa565b6040518263ffffffff1660e01b81526004016106b191815260200190565b602060405180830381865afa1580156106ce573d6000803e3d6000fd5b505050506040513d601f19601f820116820180604052508101906106f29190610ec3565b905060008061070386868686610a82565b915091508115610715575050506107a3565b6000816040516020016107289190610f27565b60405160208183030381529060405290507f9db60cdf21cde7f760995e23662841725e6aa63be48799796db12b7b2e6b17e2816040516107689190610f27565b60405180910390a160405163012f3b8f60e71b81526001600160a01b03808916600483015287166024820152604481018690526064016100f4565b50505050565b6040516370a0823160e01b81526001600160a01b038216906370a08231906107d5903090600401610d68565b602060405180830381865afa1580156107f2573d6000803e3d6000fd5b505050506040513d601f19601f820116820180604052508101906108169190610ec3565b6001600160a01b03909116600090815260208190526040902055565b80156107a3576001600160a01b03821661085e5760405162461bcd60e51b81526004016100f490610efd565b604051632e1a7d4d60e01b8152600481018290526001600160a01b03841690632e1a7d4d90602401600060405180830381600087803b1580156108a057600080fd5b505af11580156108b4573d6000803e3d6000fd5b505050506000846001600160a01b031663bd02d0f560405160200161090a906020808252601f908201527f4e41544956455f544f4b454e5f5452414e534645525f4741535f4c494d495400604082015260600190565b604051602081830303815290604052805190602001206040518263ffffffff1660e01b815260040161093e91815260200190565b602060405180830381865afa15801561095b573d6000803e3d6000fd5b505050506040513d601f19601f8201168201806040525081019061097f9190610ec3565b90506000836001600160a01b0316838390604051600060405180830381858888f193505050503d80600081146109d1576040519150601f19603f3d011682016040523d82523d6000602084013e6109d6565b606091505b5050905080156109e75750506107a3565b6109f2868585610bea565b505050505050565b6000604051602001610a38906020808252601890820152771513d2d15397d514905394d1915497d1d054d7d31253525560421b604082015260600190565b60408051601f198184030181528282528051602091820120908301526001600160a01b03841690820152606001604051602081830303815290604052805190602001209050919050565b60006060600063a9059cbb60e01b8686604051602401610aa3929190610de9565b604051602081830303815290604052906001600160e01b0319166020820180516001600160e01b0383818316178352505050509050600080886001600160a01b03168684604051610af49190610f3a565b60006040518083038160008787f1925050503d8060008114610b32576040519150601f19603f3d011682016040523d82523d6000602084013e610b37565b606091505b50915091508115610bd8578051600003610b95576001600160a01b0389163b610b955760006040518060400160405280601481526020017310d85b1b081d1bc81b9bdb8b58dbdb9d1c9858dd60621b81525094509450505050610be1565b60008151118015610bb7575080806020019051810190610bb59190610e02565b155b15610bca57600094509250610be1915050565b600194509250610be1915050565b60009450925050505b94509492505050565b80600003610bf757505050565b6001600160a01b038216610c1d5760405162461bcd60e51b81526004016100f490610efd565b6000610c2884610239565b9050806001600160a01b031663d0e30db0836040518263ffffffff1660e01b81526004016000604051808303818588803b158015610c6557600080fd5b505af1158015610c79573d6000803e3d6000fd5b50505050506107a38482858561064d565b6001600160a01b0381168114610c9f57600080fd5b50565b600080600060608486031215610cb757600080fd5b8335610cc281610c8a565b92506020840135610cd281610c8a565b929592945050506040919091013590565b8015158114610c9f57600080fd5b60008060008060808587031215610d0757600080fd5b8435610d1281610c8a565b93506020850135610d2281610c8a565b9250604085013591506060850135610d3981610ce3565b939692955090935050565b600060208284031215610d5657600080fd5b8135610d6181610c8a565b9392505050565b6001600160a01b0391909116815260200190565b60008060408385031215610d8f57600080fd5b8235610d9a81610c8a565b946020939093013593505050565b600060208284031215610dba57600080fd5b8151610d6181610c8a565b6020808252600a908201526921a7a72a2927a62622a960b11b604082015260600190565b6001600160a01b03929092168252602082015260400190565b600060208284031215610e1457600080fd5b8151610d6181610ce3565b60005b83811015610e3a578181015183820152602001610e22565b50506000910152565b60008151808452610e5b816020860160208601610e1f565b601f01601f19169290920160200192915050565b6001600160a01b038316815260406020820181905260009061064590830184610e43565b6020808252601690820152752130b7359d1034b73b30b634b2103932b1b2b4bb32b960511b604082015260600190565b600060208284031215610ed557600080fd5b5051919050565b818103818111156102e657634e487b7160e01b600052601160045260246000fd5b60208082526010908201526f24b73b30b634b2103932b1b2b4bb32b960811b604082015260600190565b602081526000610d616020830184610e43565b60008251610f4c818460208701610e1f565b919091019291505056fea26469706673582212205fdc6313bb483adc9f6f0c844687449580a6b8c8a958f0ed5c3f28f6978d598064736f6c63430008100033",
  "libraries": {},
  "devdoc": {
    "kind": "dev",
    "methods": {},
    "version": 1
  },
  "userdoc": {
    "kind": "user",
    "methods": {},
    "version": 1
  },
  "storageLayout": {
    "storage": [
      {
        "astId": 5524,
        "contract": "contracts/withdrawal/WithdrawalVault.sol:WithdrawalVault",
        "label": "tokenBalances",
        "offset": 0,
        "slot": "0",
        "type": "t_mapping(t_address,t_uint256)"
      }
    ],
    "types": {
      "t_address": {
        "encoding": "inplace",
        "label": "address",
        "numberOfBytes": "20"
      },
      "t_mapping(t_address,t_uint256)": {
        "encoding": "mapping",
        "key": "t_address",
        "label": "mapping(address => uint256)",
        "numberOfBytes": "32",
        "value": "t_uint256"
      },
      "t_uint256": {
        "encoding": "inplace",
        "label": "uint256",
        "numberOfBytes": "32"
      }
    }
  }
}