{
  "address": "0xf458c29c65cbE01219D3fCfd43ea69F8AEF53EC8",
  "abi": [
    {
      "inputs": [
        {
          "internalType": "contract RoleStore",
          "name": "_roleStore",
          "type": "address"
        },
        {
          "internalType": "contract DataStore",
          "name": "_dataStore",
          "type": "address"
        },
        {
          "internalType": "contract EventEmitter",
          "name": "_eventEmitter",
          "type": "address"
        },
        {
          "internalType": "contract WithdrawalStore",
          "name": "_withdrawalStore",
          "type": "address"
        },
        {
          "internalType": "contract MarketStore",
          "name": "_marketStore",
          "type": "address"
        },
        {
          "internalType": "contract Oracle",
          "name": "_oracle",
          "type": "address"
        },
        {
          "internalType": "contract FeeReceiver",
          "name": "_feeReceiver",
          "type": "address"
        }
      ],
      "stateMutability": "nonpayable",
      "type": "constructor"
    },
    {
      "inputs": [
        {
          "internalType": "bytes32",
          "name": "key",
          "type": "bytes32"
        }
      ],
      "name": "BlockedFeature",
      "type": "error"
    },
    {
      "inputs": [
        {
          "internalType": "uint256",
          "name": "index",
          "type": "uint256"
        }
      ],
      "name": "EmptyCompactedBlockNumber",
      "type": "error"
    },
    {
      "inputs": [],
      "name": "EmptyMarket",
      "type": "error"
    },
    {
      "inputs": [
        {
          "internalType": "uint256",
          "name": "minExecutionFee",
          "type": "uint256"
        },
        {
          "internalType": "uint256",
          "name": "executionFee",
          "type": "uint256"
        }
      ],
      "name": "InsufficientExecutionFee",
      "type": "error"
    },
    {
      "inputs": [
        {
          "internalType": "uint256",
          "name": "balance",
          "type": "uint256"
        },
        {
          "internalType": "uint256",
          "name": "expected",
          "type": "uint256"
        }
      ],
      "name": "InsufficientMarketTokens",
      "type": "error"
    },
    {
      "inputs": [
        {
          "internalType": "uint256",
          "name": "reservedUsd",
          "type": "uint256"
        },
        {
          "internalType": "uint256",
          "name": "maxReservedUsd",
          "type": "uint256"
        }
      ],
      "name": "InsufficientReserve",
      "type": "error"
    },
    {
      "inputs": [
        {
          "internalType": "uint256",
          "name": "received",
          "type": "uint256"
        },
        {
          "internalType": "uint256",
          "name": "expected",
          "type": "uint256"
        }
      ],
      "name": "MinLongTokens",
      "type": "error"
    },
    {
      "inputs": [
        {
          "internalType": "uint256",
          "name": "received",
          "type": "uint256"
        },
        {
          "internalType": "uint256",
          "name": "expected",
          "type": "uint256"
        }
      ],
      "name": "MinShortTokens",
      "type": "error"
    },
    {
      "inputs": [
        {
          "internalType": "uint256",
          "name": "x",
          "type": "uint256"
        }
      ],
      "name": "PRBMathUD60x18__Exp2InputTooBig",
      "type": "error"
    },
    {
      "inputs": [
        {
          "internalType": "uint256",
          "name": "x",
          "type": "uint256"
        }
      ],
      "name": "PRBMathUD60x18__LogInputTooSmall",
      "type": "error"
    },
    {
      "inputs": [
        {
          "internalType": "uint256",
          "name": "prod1",
          "type": "uint256"
        }
      ],
      "name": "PRBMath__MulDivFixedPointOverflow",
      "type": "error"
    },
    {
      "inputs": [
        {
          "internalType": "address",
          "name": "msgSender",
          "type": "address"
        },
        {
          "internalType": "string",
          "name": "role",
          "type": "string"
        }
      ],
      "name": "Unauthorized",
      "type": "error"
    },
    {
      "anonymous": false,
      "inputs": [
        {
          "indexed": false,
          "internalType": "string",
          "name": "reason",
          "type": "string"
        }
      ],
      "name": "OracleError",
      "type": "event"
    },
    {
      "anonymous": false,
      "inputs": [
        {
          "indexed": false,
          "internalType": "address",
          "name": "prevGov",
          "type": "address"
        },
        {
          "indexed": false,
          "internalType": "address",
          "name": "nextGov",
          "type": "address"
        }
      ],
      "name": "SetGov",
      "type": "event"
    },
    {
      "inputs": [
        {
          "internalType": "bytes32",
          "name": "key",
          "type": "bytes32"
        },
        {
          "components": [
            {
              "internalType": "uint256",
              "name": "signerInfo",
              "type": "uint256"
            },
            {
              "internalType": "address[]",
              "name": "tokens",
              "type": "address[]"
            },
            {
              "internalType": "uint256[]",
              "name": "compactedOracleBlockNumbers",
              "type": "uint256[]"
            },
            {
              "internalType": "uint256[]",
              "name": "compactedDecimals",
              "type": "uint256[]"
            },
            {
              "internalType": "uint256[]",
              "name": "compactedMinPrices",
              "type": "uint256[]"
            },
            {
              "internalType": "uint256[]",
              "name": "compactedMinPricesIndexes",
              "type": "uint256[]"
            },
            {
              "internalType": "uint256[]",
              "name": "compactedMaxPrices",
              "type": "uint256[]"
            },
            {
              "internalType": "uint256[]",
              "name": "compactedMaxPricesIndexes",
              "type": "uint256[]"
            },
            {
              "internalType": "bytes[]",
              "name": "signatures",
              "type": "bytes[]"
            },
            {
              "internalType": "address[]",
              "name": "priceFeedTokens",
              "type": "address[]"
            }
          ],
          "internalType": "struct OracleUtils.SetPricesParams",
          "name": "oracleParams",
          "type": "tuple"
        },
        {
          "internalType": "address",
          "name": "keeper",
          "type": "address"
        },
        {
          "internalType": "uint256",
          "name": "startingGas",
          "type": "uint256"
        }
      ],
      "name": "_executeWithdrawal",
      "outputs": [],
      "stateMutability": "nonpayable",
      "type": "function"
    },
    {
      "inputs": [
        {
          "internalType": "address",
          "name": "account",
          "type": "address"
        },
        {
          "components": [
            {
              "internalType": "address",
              "name": "receiver",
              "type": "address"
            },
            {
              "internalType": "address",
              "name": "callbackContract",
              "type": "address"
            },
            {
              "internalType": "address",
              "name": "market",
              "type": "address"
            },
            {
              "internalType": "uint256",
              "name": "marketTokensLongAmount",
              "type": "uint256"
            },
            {
              "internalType": "uint256",
              "name": "marketTokensShortAmount",
              "type": "uint256"
            },
            {
              "internalType": "uint256",
              "name": "minLongTokenAmount",
              "type": "uint256"
            },
            {
              "internalType": "uint256",
              "name": "minShortTokenAmount",
              "type": "uint256"
            },
            {
              "internalType": "bool",
              "name": "shouldUnwrapNativeToken",
              "type": "bool"
            },
            {
              "internalType": "uint256",
              "name": "executionFee",
              "type": "uint256"
            },
            {
              "internalType": "uint256",
              "name": "callbackGasLimit",
              "type": "uint256"
            }
          ],
          "internalType": "struct WithdrawalUtils.CreateWithdrawalParams",
          "name": "params",
          "type": "tuple"
        }
      ],
      "name": "createWithdrawal",
      "outputs": [
        {
          "internalType": "bytes32",
          "name": "",
          "type": "bytes32"
        }
      ],
      "stateMutability": "nonpayable",
      "type": "function"
    },
    {
      "inputs": [],
      "name": "dataStore",
      "outputs": [
        {
          "internalType": "contract DataStore",
          "name": "",
          "type": "address"
        }
      ],
      "stateMutability": "view",
      "type": "function"
    },
    {
      "inputs": [],
      "name": "eventEmitter",
      "outputs": [
        {
          "internalType": "contract EventEmitter",
          "name": "",
          "type": "address"
        }
      ],
      "stateMutability": "view",
      "type": "function"
    },
    {
      "inputs": [
        {
          "internalType": "bytes32",
          "name": "key",
          "type": "bytes32"
        },
        {
          "components": [
            {
              "internalType": "uint256",
              "name": "signerInfo",
              "type": "uint256"
            },
            {
              "internalType": "address[]",
              "name": "tokens",
              "type": "address[]"
            },
            {
              "internalType": "uint256[]",
              "name": "compactedOracleBlockNumbers",
              "type": "uint256[]"
            },
            {
              "internalType": "uint256[]",
              "name": "compactedDecimals",
              "type": "uint256[]"
            },
            {
              "internalType": "uint256[]",
              "name": "compactedMinPrices",
              "type": "uint256[]"
            },
            {
              "internalType": "uint256[]",
              "name": "compactedMinPricesIndexes",
              "type": "uint256[]"
            },
            {
              "internalType": "uint256[]",
              "name": "compactedMaxPrices",
              "type": "uint256[]"
            },
            {
              "internalType": "uint256[]",
              "name": "compactedMaxPricesIndexes",
              "type": "uint256[]"
            },
            {
              "internalType": "bytes[]",
              "name": "signatures",
              "type": "bytes[]"
            },
            {
              "internalType": "address[]",
              "name": "priceFeedTokens",
              "type": "address[]"
            }
          ],
          "internalType": "struct OracleUtils.SetPricesParams",
          "name": "oracleParams",
          "type": "tuple"
        }
      ],
      "name": "executeWithdrawal",
      "outputs": [],
      "stateMutability": "nonpayable",
      "type": "function"
    },
    {
      "inputs": [],
      "name": "feeReceiver",
      "outputs": [
        {
          "internalType": "contract FeeReceiver",
          "name": "",
          "type": "address"
        }
      ],
      "stateMutability": "view",
      "type": "function"
    },
    {
      "inputs": [],
      "name": "gov",
      "outputs": [
        {
          "internalType": "address",
          "name": "",
          "type": "address"
        }
      ],
      "stateMutability": "view",
      "type": "function"
    },
    {
      "inputs": [],
      "name": "marketStore",
      "outputs": [
        {
          "internalType": "contract MarketStore",
          "name": "",
          "type": "address"
        }
      ],
      "stateMutability": "view",
      "type": "function"
    },
    {
      "inputs": [],
      "name": "oracle",
      "outputs": [
        {
          "internalType": "contract Oracle",
          "name": "",
          "type": "address"
        }
      ],
      "stateMutability": "view",
      "type": "function"
    },
    {
      "inputs": [
        {
          "internalType": "address payable",
          "name": "receiver",
          "type": "address"
        },
        {
          "internalType": "uint256",
          "name": "amount",
          "type": "uint256"
        }
      ],
      "name": "recoverWnt",
      "outputs": [],
      "stateMutability": "nonpayable",
      "type": "function"
    },
    {
      "inputs": [],
      "name": "roleStore",
      "outputs": [
        {
          "internalType": "contract RoleStore",
          "name": "",
          "type": "address"
        }
      ],
      "stateMutability": "view",
      "type": "function"
    },
    {
      "inputs": [
        {
          "internalType": "address",
          "name": "_gov",
          "type": "address"
        }
      ],
      "name": "setGov",
      "outputs": [],
      "stateMutability": "nonpayable",
      "type": "function"
    },
    {
      "inputs": [],
      "name": "withdrawalStore",
      "outputs": [
        {
          "internalType": "contract WithdrawalStore",
          "name": "",
          "type": "address"
        }
      ],
      "stateMutability": "view",
      "type": "function"
    },
    {
      "stateMutability": "payable",
      "type": "receive"
    }
  ],
  "transactionHash": "0xdd5e75c4331ef15d521febd069ea3ea32e5977b908dc07e74a71dfad37f10c9e",
  "args": [
    "0xFc371E380262536c819D12B9569106bf032cC41c",
    "0x261105d1830Ea56729B705B9F3D579dA461dE771",
    "0xdc5199597Cdc183E368c53fd53e44F05077eC804",
    "0xD305864e6F1a857b753528229e84f23cc0f1Ef08",
    "0x2552b5b73064bB4E139657a14039AaC4a82442da",
    "0xD19cF76b80b41AFfEB61E3653cE82e1CA1536cA4",
    "0xBd00b5c1286d4D30BB441e111314828f27466E33"
  ],
  "numDeployments": 1,
  "solcInputHash": "9c1c230ca10d058f26e715a6536b7620",
  "bytecode": "0x6101606040523480156200001257600080fd5b5060405162005c7938038062005c798339810160408190526200003591620000fa565b60016000558680620000473362000080565b6001600160a01b0390811660805296871660a0525093851660c05291841660e052831661010052821661012052166101405250620001a5565b600180546001600160a01b038381166001600160a01b031983168117909355604080519190921680825260208201939093527f53351836099c03ffc3b1727d8abd4b0222afa87d4ed76ae3102d51369ef7f785910160405180910390a15050565b6001600160a01b0381168114620000f757600080fd5b50565b600080600080600080600060e0888a0312156200011657600080fd5b87516200012381620000e1565b60208901519097506200013681620000e1565b60408901519096506200014981620000e1565b60608901519095506200015c81620000e1565b60808901519094506200016f81620000e1565b60a08901519093506200018281620000e1565b60c08901519092506200019581620000e1565b8091505092959891949750929550565b60805160a05160c05160e0516101005161012051610140516159e0620002996000396000818161020c015261089b0152600081816101a4015281816105f2015261086c0152600081816102400152818161083d0152610ab5015260008181610274015281816105050152818161057b0152818161080e0152610a940152600081816101d8015281816104e40152818161055a01528181610634015281816107df0152610a7301526000818161012e015281816104c301528181610539015281816106130152818161075c015281816107b001528181610a250152610a5201526000818160fa0152610b5901526159e06000f3fe6080604052600436106100a65760003560e01c806312d43a51146100b25780634a4a7b04146100e8578063660d0d671461011c57806368f0efcc146101505780636c2515ba146101725780637dc0d1d0146101925780639ff78c30146101c6578063b3f00674146101fa578063b8d2c6931461022e578063c4d74c4214610262578063cfad57a214610296578063f3d6e9f6146102b6578063f5f3ac5d146102e457600080fd5b366100ad57005b600080fd5b3480156100be57600080fd5b506001546100d2906001600160a01b031681565b6040516100df9190614681565b60405180910390f35b3480156100f457600080fd5b506100d27f000000000000000000000000000000000000000000000000000000000000000081565b34801561012857600080fd5b506100d27f000000000000000000000000000000000000000000000000000000000000000081565b34801561015c57600080fd5b5061017061016b3660046146ae565b610304565b005b34801561017e57600080fd5b5061017061018d3660046149d0565b6105ac565b34801561019e57600080fd5b506100d27f000000000000000000000000000000000000000000000000000000000000000081565b3480156101d257600080fd5b506100d27f000000000000000000000000000000000000000000000000000000000000000081565b34801561020657600080fd5b506100d27f000000000000000000000000000000000000000000000000000000000000000081565b34801561023a57600080fd5b506100d27f000000000000000000000000000000000000000000000000000000000000000081565b34801561026e57600080fd5b506100d27f000000000000000000000000000000000000000000000000000000000000000081565b3480156102a257600080fd5b506101706102b1366004614b8f565b610951565b3480156102c257600080fd5b506102d66102d1366004614bac565b6109a6565b6040519081526020016100df565b3480156102f057600080fd5b506101706102ff366004614be3565b610af5565b60026000540361032f5760405162461bcd60e51b815260040161032690614c0f565b60405180910390fd5b60026000556040516103a890610368906020016020808252600c908201526b27a92222a92fa5a2a2a822a960a11b604082015260600190565b604051602081830303815290604052805190602001206040518060400160405280600c81526020016b27a92222a92fa5a2a2a822a960a11b815250610b42565b60005a6040516336128add60e11b81529091503090636c2515ba906103d7908690869033908790600401614dca565b600060405180830381600087803b1580156103f157600080fd5b505af1925050508015610402575060015b6105a25761040e614f6c565b806308c379a0036105325750610422614f88565b8061042d5750610534565b6040518060400160405280600c81526020016b27a920a1a622afa2a92927a960a11b8152506040516020016104629190615061565b60405160208183030381529060405280519060200120816040516020016104899190615061565b60405160208183030381529060405280519060200120036104be578060405162461bcd60e51b81526004016103269190615061565b61052c7f00000000000000000000000000000000000000000000000000000000000000007f00000000000000000000000000000000000000000000000000000000000000007f0000000000000000000000000000000000000000000000000000000000000000873387610bf6565b506105a2565b505b6105a27f00000000000000000000000000000000000000000000000000000000000000007f00000000000000000000000000000000000000000000000000000000000000007f0000000000000000000000000000000000000000000000000000000000000000863386610bf6565b5050600160005550565b3330146105f0576040805163a35b150b60e01b815233600480830191909152602482019290925260448101919091526329a2a62360e11b6064820152608401610326565b7f00000000000000000000000000000000000000000000000000000000000000007f00000000000000000000000000000000000000000000000000000000000000007f000000000000000000000000000000000000000000000000000000000000000085836001600160a01b0316639382a84d8484846040518463ffffffff1660e01b815260040161068493929190615125565b600060405180830381600087803b15801561069e57600080fd5b505af19250505080156106af575060015b610757576106bb614f6c565b806308c379a00361074b57506106cf614f88565b806106da575061074d565b7f9966b250e13ade3123b5af1743515baa8eaaf09f1e4081aa5e7e66ddd2b1415a816040516107099190615061565b60405180910390a1604080518082018252600c81526b27a920a1a622afa2a92927a960a11b6020820152905162461bcd60e51b81526103269190600401615061565b505b3d6000803e3d6000fd5b6107897f000000000000000000000000000000000000000000000000000000000000000061078430610dce565b610e59565b600061079e8860400151896020015151610e84565b905060006040518061014001604052807f00000000000000000000000000000000000000000000000000000000000000006001600160a01b031681526020017f00000000000000000000000000000000000000000000000000000000000000006001600160a01b031681526020017f00000000000000000000000000000000000000000000000000000000000000006001600160a01b031681526020017f00000000000000000000000000000000000000000000000000000000000000006001600160a01b031681526020017f00000000000000000000000000000000000000000000000000000000000000006001600160a01b031681526020017f00000000000000000000000000000000000000000000000000000000000000006001600160a01b031681526020018b8152602001838152602001896001600160a01b031681526020018881525090506108f281610f1a565b5050836001600160a01b031663ad3be44d6040518163ffffffff1660e01b8152600401600060405180830381600087803b15801561092f57600080fd5b505af1158015610943573d6000803e3d6000fd5b505050505050505050505050565b6001546001600160a01b0316331461099a576040805163a35b150b60e01b81523360048201526024810191909152600360448201526223a7ab60e91b6064820152608401610326565b6109a381611697565b50565b60006002600054036109ca5760405162461bcd60e51b815260040161032690614c0f565b6002600055604051610a20906109e290602001615256565b604051602081830303815290604052805190602001206040518060400160405280600a81526020016921a7a72a2927a62622a960b11b815250610b42565b610a4d7f0000000000000000000000000000000000000000000000000000000000000000610784306116f8565b610ae97f00000000000000000000000000000000000000000000000000000000000000007f00000000000000000000000000000000000000000000000000000000000000007f00000000000000000000000000000000000000000000000000000000000000007f000000000000000000000000000000000000000000000000000000000000000087610ae436899003890189615293565b611737565b60016000559392505050565b610b076040516020016109e290615256565b6040516001600160a01b0383169082156108fc029083906000818181858888f19350505050158015610b3d573d6000803e3d6000fd5b505050565b60405163ac4ab3fb60e01b81526001600160a01b037f0000000000000000000000000000000000000000000000000000000000000000169063ac4ab3fb90610b909033908690600401615333565b602060405180830381865afa158015610bad573d6000803e3d6000fd5b505050506040513d601f19601f82011682018060405250810190610bd19190615357565b610bf257338160405163a35b150b60e01b8152600401610326929190615374565b5050565b60405163023aa9ab60e61b8152600481018490526000906001600160a01b03861690638eaa6ac090602401600060405180830381865afa158015610c3e573d6000803e3d6000fd5b505050506040513d6000823e601f3d908101601f19168201604052610c6691908101906153f2565b80519091506001600160a01b0316610c905760405162461bcd60e51b815260040161032690615503565b6040516395bc267360e01b8152600481018590526001600160a01b038616906395bc267390602401600060405180830381600087803b158015610cd257600080fd5b505af1158015610ce6573d6000803e3d6000fd5b5050604051631106ba2560e21b8152600481018790526001600160a01b038916925063441ae8949150602401600060405180830381600087803b158015610d2c57600080fd5b505af1158015610d40573d6000803e3d6000fd5b50505050610d4e8482611a57565b6101408101518151604051632d1c88e560e11b815273F357Db64724a5f79198E693108cB34A99bb2dae692635a3911ca92610d95928c928b92909189918b91600401615544565b60006040518083038186803b158015610dad57600080fd5b505af4158015610dc1573d6000803e3d6000fd5b5050505050505050505050565b6000604051602001610e0e906020808252601a9082015279455845435554455f5749544844524157414c5f4645415455524560301b604082015260600190565b60408051601f198184030181528282528051602091820120908301526001600160a01b038416908201526060015b604051602081830303815290604052805190602001209050919050565b610e638282611ae5565b15610bf257604051630827f79760e41b815260048101829052602401610326565b60606000826001600160401b03811115610ea057610ea06146f4565b604051908082528060200260200182016040528015610ec9578160200160208202803683370190505b50905060005b83811015610f1057610ee18582611b58565b828281518110610ef357610ef361557e565b602090810291909101015280610f08816155aa565b915050610ecf565b5090505b92915050565b600081604001516001600160a01b0316638eaa6ac08360c001516040518263ffffffff1660e01b8152600401610f5291815260200190565b600060405180830381865afa158015610f6f573d6000803e3d6000fd5b505050506040513d6000823e601f3d908101601f19168201604052610f9791908101906153f2565b80519091506001600160a01b0316610fc15760405162461bcd60e51b815260040161032690615503565b61010081015160e0830151610fd591611b95565b61101357604080518082018252600c81526b27a920a1a622afa2a92927a960a11b6020820152905162461bcd60e51b81526103269190600401615061565b6110218260c0015182611be8565b600082606001516001600160a01b031663c2bc2efc83606001516040518263ffffffff1660e01b81526004016110579190614681565b600060405180830381865afa158015611074573d6000803e3d6000fd5b505050506040513d6000823e601f3d908101601f1916820160405261109c91908101906155c3565b9050600083608001516001600160a01b0316635dcf719483604001516040518263ffffffff1660e01b81526004016110d49190614681565b6040805180830381865afa1580156110f0573d6000803e3d6000fd5b505050506040513d601f19601f82011682018060405250810190611114919061567f565b9050600084608001516001600160a01b0316635dcf719484606001516040518263ffffffff1660e01b815260040161114c9190614681565b6040805180830381865afa158015611168573d6000803e3d6000fd5b505050506040513d601f19601f8201168201806040525081019061118c919061567f565b90506111b96040518060800160405280600081526020016000815260200160008152602001600081525090565b61123f86600001518585858a608001516001600160a01b0316635dcf71948a602001516040518263ffffffff1660e01b81526004016111f89190614681565b6040805180830381865afa158015611214573d6000803e3d6000fd5b505050506040513d601f19601f82011682018060405250810190611238919061567f565b6000611c22565b8152835161124c90611d48565b602082018190526080860151825161126392611dac565b604082015260a08501518151602083015161127f929190611dac565b816060018181525050600061133960405180610100016040528089600001516001600160a01b0316815260200187600001516001600160a01b0316815260200187604001516001600160a01b0316815260200187606001516001600160a01b031681526020016112ee87611de3565b81526020016112fc86611de3565b815260200161130e8560400151611e05565b611317906156cd565b81526020016113298560600151611e05565b611332906156cd565b9052611e73565b60808701519091501561145157600060405180610160016040528087815260200188600001516001600160a01b0316815260200188602001516001600160a01b0316815260200187606001516001600160a01b0316815260200187604001516001600160a01b031681526020018581526020018681526020018860800151815260200188610120015115158152602001846040015181526020016113ef856060015186604001516113ea91906156e9565b611e05565b6113fc8660400151611e05565b61140690866156fc565b6114109190615797565b9052905060006114208983611e96565b90508760c0015181101561144e5760c0880151604051633d10b02f60e21b81526103269183916004016157c5565b50505b60a08601511561156157600060405180610160016040528087815260200188600001516001600160a01b0316815260200188602001516001600160a01b0316815260200187604001516001600160a01b0316815260200187606001516001600160a01b031681526020018681526020018581526020018860a00151815260200188610120015115158152602001846060015181526020016114ff856060015186604001516113ea91906156e9565b61150c8660600151611e05565b61151690866156fc565b6115209190615797565b9052905060006115308983611e96565b90508760e0015181101561155e5760e088015160405163b4a196af60e01b81526103269183916004016157c5565b50505b86604001516001600160a01b03166395bc26738860c001516040518263ffffffff1660e01b815260040161159791815260200190565b600060405180830381600087803b1580156115b157600080fd5b505af11580156115c5573d6000803e3d6000fd5b5050505086602001516001600160a01b031663b16768218860c001516040518263ffffffff1660e01b81526004016115ff91815260200190565b600060405180830381600087803b15801561161957600080fd5b505af115801561162d573d6000803e3d6000fd5b5050505061163f8760c001518761241d565b86516040808901516101408901516101208b01516101008c01518b519451632d1c88e560e11b815273F357Db64724a5f79198E693108cB34A99bb2dae696635a3911ca96610d95969195919491939192600401615544565b600180546001600160a01b038381166001600160a01b031983168117909355604080519190921680825260208201939093527f53351836099c03ffc3b1727d8abd4b0222afa87d4ed76ae3102d51369ef7f785910160405180910390a15050565b6000604051602001610e0e906020808252601990820152784352454154455f5749544844524157414c5f4645415455524560381b604082015260600190565b60008061174388612457565b90506000866001600160a01b031663352f9aed836040518263ffffffff1660e01b81526004016117739190614681565b6020604051808303816000875af1158015611792573d6000803e3d6000fd5b505050506040513d601f19601f820116820180604052508101906117b691906157d3565b905083610100015181146118175760405162461bcd60e51b815260206004820152602260248201527f5769746864726177616c5574696c733a20696e76616c696420776e74416d6f756044820152611b9d60f21b6064820152608401610326565b60408085015190516330af0bbf60e21b81526000916001600160a01b0389169163c2bc2efc9161184991600401614681565b600060405180830381865afa158015611866573d6000803e3d6000fd5b505050506040513d6000823e601f3d908101601f1916820160405261188e91908101906155c3565b905061189981612504565b6000604051806101a00160405280886001600160a01b0316815260200187600001516001600160a01b0316815260200187602001516001600160a01b0316815260200183600001516001600160a01b0316815260200187606001518152602001876080015181526020018760a0015181526020018760c00151815260200161191f61252c565b81526020018760e00151151581526020018761010001518152602001876101200151815260200160405180602001604052806000815250815250905060006119678c836125b2565b90506119798c828961010001516126e5565b60006119848d61272d565b604051636b209e3360e01b81529091506001600160a01b038c1690636b209e33906119b590849087906004016157ec565b600060405180830381600087803b1580156119cf57600080fd5b505af11580156119e3573d6000803e3d6000fd5b5050604051626c407b60e51b81526001600160a01b038f169250630d880f609150611a1490849087906004016157ec565b600060405180830381600087803b158015611a2e57600080fd5b505af1158015611a42573d6000803e3d6000fd5b50929f9e505050505050505050505050505050565b611a648160400151612770565b611a6c575050565b80604001516001600160a01b031663076dcf776002836101600151611a9191906158cf565b84846040518463ffffffff1660e01b8152600401611ab09291906157ec565b600060405180830381600088803b158015611aca57600080fd5b5087f193505050508015611adc575060015b15610bf2575050565b604051633d70e7e560e11b8152600481018290526000906001600160a01b03841690637ae1cfca90602401602060405180830381865afa158015611b2d573d6000803e3d6000fd5b505050506040513d601f19601f82011682018060405250810190611b519190615357565b9392505050565b600080611b6f848460406001600160401b036127a7565b905080600003611b515760405163349f5fdd60e11b815260048101849052602401610326565b6000805b8351811015611bde5782848281518110611bb557611bb561557e565b602002602001015114611bcc576000915050610f14565b80611bd6816155aa565b915050611b99565b5060019392505050565b611bf58160400151612770565b611bfd575050565b80604001516001600160a01b031663104759156002836101600151611a9191906158cf565b600080611c38888860000151896040015161281a565b90506000611c4f8989600001518a6060015161281a565b90506000611c5d8886612894565b611c6790846158e3565b9050611c738786612894565b611c7d90836158e3565b611c8790826156e9565b9050611ca38a8a600001518b604001518c6060015160016128ab565b611cad90826156e9565b9050611cc98a8a600001518b604001518c6060015160006128ab565b611cd390826156e9565b90506000611ce58b8b600001516128fd565b9050611cf18787612894565b611cfb90826158e3565b611d0590836156e9565b91506000611d248c8c600001518d604001518e606001518c8c15612976565b9050611d3883611d33836156cd565b6129a9565b9c9b505050505050505050505050565b6000816001600160a01b03166318160ddd6040518163ffffffff1660e01b8152600401602060405180830381865afa158015611d88573d6000803e3d6000fd5b505050506040513d601f19601f82011682018060405250810190610f1491906157d3565b6000811580611db9575082155b15611dc657506000611b51565b81611dd184866158e3565b611ddb91906158cf565b949350505050565b6000600282600001518360200151611dfb91906156e9565b610f1491906158cf565b60006001600160ff1b03821115611e6f5760405162461bcd60e51b815260206004820152602860248201527f53616665436173743a2076616c756520646f65736e27742066697420696e2061604482015267371034b73a191a9b60c11b6064820152608401610326565b5090565b600080611e7f836129d9565b90506000611ddb8460000151856020015184612aae565b6000808260c0015160200151836101200151611eb291906158cf565b90506000611f24856000015185600001516000015184604051602001611f09906020808252601e908201527f4645455f52454345495645525f5749544844524157414c5f464143544f520000604082015260600190565b60405160208183030381529060405280519060200120612d16565b60a086015185515160808701518351604051949550611f8794611f6c906020016020808252600e908201526d5749544844524157414c5f46454560901b604082015260600190565b60405160208183030381529060405280519060200120612e56565b6000816020015183611f999190615902565b90508160400151925060008561014001511315611ffa576000611fdd8760000151886020015188600001516000015189608001518a60c001518b6101400151612f36565b9050611fe881612fc1565b611ff290856156e9565b935050612048565b60006120278760000151886020015188600001516000015189608001518a60c001518b6101400151612f36565b905061203a612035826156cd565b612fc1565b6120449085615902565b9350505b8551602087015186515160808801516120759392919061206786611e05565b612070906156cd565b613013565b8551855160408051606081019182905260808a0151895160200151631773dc6560e21b90935261219494939282916001600160a01b031690635dcf7194906120c09060648501614681565b6040805180830381865afa1580156120dc573d6000803e3d6000fd5b505050506040513d601f19601f82011682018060405250810190612100919061567f565b81526020018960000151604001516001600160a01b03168a606001516001600160a01b031614612134578960c0015161213a565b8960a001515b81526020018960000151606001516001600160a01b03168a606001516001600160a01b03161461216e578960c00151612174565b8960a001515b905288516040015160808a01516001600160a01b039081169116146130fe565b84515160208601516040516370a0823160e01b81526000926001600160a01b0316916370a08231916121c99190600401614681565b602060405180830381865afa1580156121e6573d6000803e3d6000fd5b505050506040513d601f19601f8201168201806040525081019061220a91906157d3565b90508560e001518110156122385760e0860151604051634164414560e11b81526103269183916004016157c5565b855151602087015160e0880151604051632770a7eb60e21b81526001600160a01b0390931692639dc29fac92612272929091600401615333565b600060405180830381600087803b15801561228c57600080fd5b505af11580156122a0573d6000803e3d6000fd5b505087515189516001600160a01b03909116925063f949893891506122c490612457565b60808901516040808b01516101008c015191516001600160e01b031960e087901b1681526001600160a01b0394851660048201529284166024840152604483018a9052929092166064820152901515608482015260a401600060405180830381600087803b15801561233557600080fd5b505af1158015612349573d6000803e3d6000fd5b5050505086602001516001600160a01b0316639876ed2a60405160200161238e906020808252600a90820152691dda5d1a191c985dd85b60b21b604082015260600190565b60408051601f1981840301815282825280516020918201206001600160e01b031960e086901b168452600484015287516024840152870151604483015286015160648201526060860151608482015260a401600060405180830381600087803b1580156123fa57600080fd5b505af115801561240e573d6000803e3d6000fd5b50959998505050505050505050565b61242a8160400151612770565b612432575050565b80604001516001600160a01b0316631181f0af6002836101600151611a9191906158cf565b6000816001600160a01b03166321f8a72160405160200161248f9060208082526003908201526215d39560ea1b604082015260600190565b604051602081830303815290604052805190602001206040518263ffffffff1660e01b81526004016124c391815260200190565b602060405180830381865afa1580156124e0573d6000803e3d6000fd5b505050506040513d601f19601f82011682018060405250810190610f149190615915565b80516001600160a01b03166109a3576040516302fde0d760e11b815260040160405180910390fd5b600061a4b1461480612540575062066eeb46145b156125ad5760646001600160a01b031663a3b1b31d6040518163ffffffff1660e01b8152600401602060405180830381865afa158015612584573d6000803e3d6000fd5b505050506040513d601f19601f820116820180604052508101906125a891906157d3565b905090565b504390565b60008160800151600014806125c9575060a0820151155b1561265d57816101600151836001600160a01b031663bd02d0f56125ed60016131b8565b6040518263ffffffff1660e01b815260040161260b91815260200190565b602060405180830381865afa158015612628573d6000803e3d6000fd5b505050506040513d601f19601f8201168201806040525081019061264c91906157d3565b61265691906156e9565b9050610f14565b816101600151836001600160a01b031663bd02d0f561267c60006131b8565b6040518263ffffffff1660e01b815260040161269a91815260200190565b602060405180830381865afa1580156126b7573d6000803e3d6000fd5b505050506040513d601f19601f820116820180604052508101906126db91906157d3565b611b5191906156e9565b60006126f1848461321d565b905060006126ff3a836158e3565b905080831015612726578083604051635dac504d60e01b81526004016103269291906157c5565b5050505050565b600080612739836133cf565b905060008160405160200161275091815260200190565b60408051601f198184030181529190528051602090910120949350505050565b60006001600160a01b03821661278857506000919050565b6001600160a01b0382163b61279f57506000919050565b506001919050565b6000806127b6846101006158cf565b905060006127c482876158cf565b905060008782815181106127da576127da61557e565b6020026020010151905060008684846127f391906158e3565b6127fd908a615902565b61280791906158e3565b9190911c85169350505050949350505050565b6000836001600160a01b031663bd02d0f5612835858561345d565b6040518263ffffffff1660e01b815260040161285391815260200190565b602060405180830381865afa158015612870573d6000803e3d6000fd5b505050506040513d601f19601f82011682018060405250810190611ddb91906157d3565b6000816128a2578251611b51565b50506020015190565b6000806128bb87878787876134e5565b905060006128ca888886613510565b905060006128d989898761352b565b9050806128e683856158e3565b6128f09190615902565b9998505050505050505050565b6000826001600160a01b031663bd02d0f561291784613546565b6040518263ffffffff1660e01b815260040161293591815260200190565b602060405180830381865afa158015612952573d6000803e3d6000fd5b505050506040513d601f19601f82011682018060405250810190611b5191906157d3565b6000806129898888888888600189613587565b9050600061299d898989898960008a613587565b90506128f08183615932565b6000808213156129c6576129bc8261361b565b61265690846156e9565b6129cf8261361b565b611b519084615902565b612a046040518060800160405280600081526020016000815260200160008152602001600081525090565b6000612a1d83600001518460200151856040015161281a565b90506000612a3884600001518560200151866060015161281a565b90506000846080015183612a4c91906158e3565b905060008560a0015183612a6091906158e3565b90506000612a72838860c001516129a9565b90506000612a84838960e001516129a9565b60408051608081018252958652602086019490945292840191909152506060820152949350505050565b600080612ac38360000151846020015161362e565b90506000612ad98460400151856060015161362e565b6060850151604086015160208701518751939450909211159111151460006001600160a01b03881663bd02d0f5612b0f89613650565b6040518263ffffffff1660e01b8152600401612b2d91815260200190565b602060405180830381865afa158015612b4a573d6000803e3d6000fd5b505050506040513d601f19601f82011682018060405250810190612b6e91906157d3565b90508115612c0f5783831060006001600160a01b038a1663bd02d0f5612b948b85613691565b6040518263ffffffff1660e01b8152600401612bb291815260200190565b602060405180830381865afa158015612bcf573d6000803e3d6000fd5b505050506040513d601f19601f82011682018060405250810190612bf391906157d3565b9050612c028686848487613703565b9650505050505050611b51565b6000886001600160a01b031663bd02d0f5612c2b8a6001613691565b6040518263ffffffff1660e01b8152600401612c4991815260200190565b602060405180830381865afa158015612c66573d6000803e3d6000fd5b505050506040513d601f19601f82011682018060405250810190612c8a91906157d3565b90506000896001600160a01b031663bd02d0f5612ca88b6000613691565b6040518263ffffffff1660e01b8152600401612cc691815260200190565b602060405180830381865afa158015612ce3573d6000803e3d6000fd5b505050506040513d601f19601f82011682018060405250810190612d0791906157d3565b9050612c028686848487613732565b612d1e61464c565b612d2661464c565b6000866001600160a01b031663bd02d0f5612d408861377b565b6040518263ffffffff1660e01b8152600401612d5e91815260200190565b602060405180830381865afa158015612d7b573d6000803e3d6000fd5b505050506040513d601f19601f82011682018060405250810190612d9f91906157d3565b60405163bd02d0f560e01b8152600481018690529091506000906001600160a01b0389169063bd02d0f590602401602060405180830381865afa158015612dea573d6000803e3d6000fd5b505050506040513d601f19601f82011682018060405250810190612e0e91906157d3565b90506000612e1c87846137b0565b9050612e2881836137b0565b808552612e359082615902565b6020850152612e448188615902565b60408501525091979650505050505050565b8115612726576040516316c48fdd60e11b81526001600160a01b038481166004830152602482018490528681166044830152851690632d891fba90606401600060405180830381600087803b158015612eae57600080fd5b505af1158015612ec2573d6000803e3d6000fd5b50506040516302002bf360e31b8152600481018490526001600160a01b03868116602483015260448201869052881692506310015f989150606401600060405180830381600087803b158015612f1757600080fd5b505af1158015612f2b573d6000803e3d6000fd5b505050505050505050565b60008060008313612f48578351612f4e565b83602001515b9050600080841315612f9357612f6382611e05565b612f6d9085615797565b90506000612f7f6113ea8b8a8a6137d3565b905080821315612f8d578091505b50612fa0565b612f9d84836137ee565b90505b612fb589898989612fb0866156cd565b61385b565b98975050505050505050565b600080821215611e6f5760405162461bcd60e51b815260206004820181905260248201527f53616665436173743a2076616c7565206d75737420626520706f7369746976656044820152606401610326565b6000856001600160a01b0316639deed1c861302e868661345d565b846040518363ffffffff1660e01b815260040161304c9291906157c5565b6020604051808303816000875af115801561306b573d6000803e3d6000fd5b505050506040513d601f19601f8201168201806040525081019061308f91906157d3565b60405163f79a52b760e01b81529091506001600160a01b0386169063f79a52b7906130c490879087908790879060040161595a565b600060405180830381600087803b1580156130de57600080fd5b505af11580156130f2573d6000803e3d6000fd5b50505050505050505050565b600061310c8585858561390c565b9050600061311f8686600001518561395e565b9050600061312d83836137b0565b90506000841561316d5760006131528989600001518a604001518b606001518a613979565b87516020015190915061316590826158e3565b915050613189565b61318688886000015189604001518a60600151896134e5565b90505b818111156131ae57808260405163315276c960e01b81526004016103269291906157c5565b5050505050505050565b60006040516020016131f29060208082526014908201527315d2551211149055d05317d1d054d7d31253525560621b604082015260600190565b60408051601f1981840301815282825280516020918201209083015283151590820152606001610e3c565b600080836001600160a01b031663bd02d0f560405160200161326f906020808252601c908201527b1154d512535055115117d1915157d09054d157d1d054d7d31253525560221b604082015260600190565b604051602081830303815290604052805190602001206040518263ffffffff1660e01b81526004016132a391815260200190565b602060405180830381865afa1580156132c0573d6000803e3d6000fd5b505050506040513d601f19601f820116820180604052508101906132e491906157d3565b90506000846001600160a01b031663bd02d0f5604051602001613338906020808252601f908201527f455354494d415445445f4645455f4d554c5449504c4945525f464143544f5200604082015260600190565b604051602081830303815290604052805190602001206040518263ffffffff1660e01b815260040161336c91815260200190565b602060405180830381865afa158015613389573d6000803e3d6000fd5b505050506040513d601f19601f820116820180604052508101906133ad91906157d3565b905060006133bb85836137b0565b6133c590846156e9565b9695505050505050565b6000816001600160a01b031663340dbab3604051602001613409906020808252600590820152644e4f4e434560d81b604082015260600190565b6040516020818303038152906040528051906020012060016040518363ffffffff1660e01b815260040161343e9291906157c5565b6020604051808303816000875af1158015611d88573d6000803e3d6000fd5b600060405160200161348e906020808252600b908201526a1413d3d317d05353d5539560aa1b604082015260600190565b60408051601f198184030181528282528051602091820120908301526001600160a01b0380861691830191909152831660608201526080015b60405160208183030381529060405280519060200120905092915050565b6000806134f487878786613998565b9050600061350488888787613998565b9050612fb581836156e9565b6000836001600160a01b031663bd02d0f56128358585613a1c565b6000836001600160a01b031663bd02d0f56128358585613a5d565b6000604051602001610e0e906020808252601b908201527a1413d4d2551253d397d253541050d517d413d3d317d05353d55395602a1b604082015260600190565b60008061359a6113ea8a8a8a8a896134e5565b905060006135ab8a8a8a8a89613979565b90508115806135b8575080155b156135c857600092505050613610565b60006135d5878787613a92565b905060006135e66113ea83856158e3565b90506000876135fe576135f98286615983565b613608565b6136088583615983565b955050505050505b979650505050505050565b600080821215611e6f5781600003610f14565b6000818311613646576136418383615902565b611b51565b611b518284615902565b6000604051602001610e0e906020808252601b908201527a29aba0a82fa4a6a820a1aa2fa2ac2827a722a72a2fa320a1aa27a960291b604082015260600190565b60006040516020016136c99060208082526012908201527129aba0a82fa4a6a820a1aa2fa320a1aa27a960711b604082015260600190565b60408051601f198184030181528282528051602091820120908301526001600160a01b0385169082015282151560608201526080016134c7565b600080613724613714888686613acb565b61371f888787613acb565b61362e565b90506000612fb58287613b28565b600080613740878685613acb565b9050600061374f878686613acb565b9050600061375d838361362e565b9050600061376d82848611613b28565b9a9950505050505050505050565b6000604051602001610e0e906020808252600f908201526e29aba0a82fa322a2afa320a1aa27a960891b604082015260600190565b600068327cb2734119d3b7a9601e1b6137c983856158e3565b611b5191906158cf565b6000836001600160a01b031663bd02d0f56128358585613b4b565b6000808312156138295761380182611e05565b61380a83611e05565b6138149085615983565b61381f906001615932565b6126569190615797565b61383282611e05565b600161383d84611e05565b6138479086615932565b6138519190615983565b611b519190615797565b6000856001600160a01b0316639deed1c86138768686613b4b565b846040518363ffffffff1660e01b81526004016138949291906157c5565b6020604051808303816000875af11580156138b3573d6000803e3d6000fd5b505050506040513d601f19601f820116820180604052508101906138d791906157d3565b60405163eb59c7c160e01b81529091506001600160a01b0386169063eb59c7c1906130c490879087908790879060040161595a565b6000808261391e578460600151613924565b84604001515b905060006139378787600001518461281a565b905060008461394b57604086015151613952565b6020860151515b9050612fb581836158e3565b6000836001600160a01b031663bd02d0f56128358585613b88565b60008061398887878786613bbc565b9050600061350488888787613bbc565b6000846001600160a01b031663bd02d0f56139b4868686613bd8565b6040518263ffffffff1660e01b81526004016139d291815260200190565b602060405180830381865afa1580156139ef573d6000803e3d6000fd5b505050506040513d601f19601f82011682018060405250810190613a1391906157d3565b95945050505050565b60006040516020016136c9906020808252601b908201527a21aaa6aaa620aa24ab22afa127a92927aba4a723afa320a1aa27a960291b604082015260600190565b60006040516020016136c9906020808252600f908201526e544f54414c5f424f52524f57494e4760881b604082015260600190565b60008215613ab35781613aa6578351613aac565b83602001515b9050611b51565b81613ac2578360200151611ddb565b50509051919050565b600068327cb2734119d3b7a9601e1b841015613ae957506000611b51565b6000613b05613af786613c6a565b613b0085613c6a565b613c7b565b9050613b1081613cbb565b90506002613b1e82866137b0565b613a1391906158cf565b60008115613b395761265683611e05565b613b4283611e05565b612656906156cd565b600060405160200161348e9060208082526017908201527614d5d05417d253541050d517d413d3d317d05353d55395604a1b604082015260600190565b60006040516020016136c9906020808252600e908201526d2922a9a2a92b22afa320a1aa27a960911b604082015260600190565b6000846001600160a01b031663bd02d0f56139b4868686613ccc565b6000604051602001613c0b906020808252600d908201526c13d4115397d2539511549154d5609a1b604082015260600190565b60408051601f198184030181528282528051602091820120908301526001600160a01b038087169183019190915284166060820152821515608082015260a0016040516020818303038152906040528051906020012090509392505050565b6000610f1464e8d4a51000836158cf565b600082600003613ca1578115613c92576000612656565b50670de0b6b3a7640000610f14565b611b51613cb6613cb085613d09565b84613dbf565b613dcb565b6000610f1464e8d4a51000836158e3565b6000604051602001613c0b906020808252601790820152764f50454e5f494e5445524553545f494e5f544f4b454e5360481b604082015260600190565b6000670de0b6b3a7640000821015613d3757604051633621413760e21b815260048101839052602401610326565b6000613d4c670de0b6b3a76400008404613e11565b670de0b6b3a764000081029250905082811c670de0b6b3a763ffff198101613d75575050919050565b6706f05b59d3b200005b8015613db757670de0b6b3a7640000828002049150671bc16d674ec800008210613daf579283019260019190911c905b60011c613d7f565b505050919050565b6000611b518383613ef4565b6000680a688906bd8b0000008210613df957604051634a4f26f160e01b815260048101839052602401610326565b670de0b6b3a7640000604083901b04611b5181613fba565b6000600160801b8210613e3157608091821c91613e2e90826156e9565b90505b600160401b8210613e4f57604091821c91613e4c90826156e9565b90505b600160201b8210613e6d57602091821c91613e6a90826156e9565b90505b620100008210613e8a57601091821c91613e8790826156e9565b90505b6101008210613ea657600891821c91613ea390826156e9565b90505b60108210613ec157600491821c91613ebe90826156e9565b90505b60048210613edc57600291821c91613ed990826156e9565b90505b60028210613eef57610f146001826156e9565b919050565b60008080600019848609848602925082811083820303915050670de0b6b3a76400008110613f385760405163698d9a0160e11b815260048101829052602401610326565b600080670de0b6b3a764000086880991506706f05b59d3b1ffff8211905082600003613f765780670de0b6b3a7640000850401945050505050610f14565b620400008285030493909111909103600160ee1b02919091177faccb18165bd6fe31ae1cf318dc5b51eee0e1ba569b88cd74c1773b91fac106690201905092915050565b600160bf1b6001603f1b821615613fda5768016a09e667f3bcc9090260401c5b6001603e1b821615613ff5576801306fe0a31b7152df0260401c5b6001603d1b821615614010576801172b83c7d517adce0260401c5b6001603c1b82161561402b5768010b5586cf9890f62a0260401c5b6001603b1b821615614046576801059b0d31585743ae0260401c5b6001603a1b82161561406157680102c9a3e778060ee70260401c5b600160391b82161561407c5768010163da9fb33356d80260401c5b600160381b82161561409757680100b1afa5abcbed610260401c5b600160371b8216156140b25768010058c86da1c09ea20260401c5b600160361b8216156140cd576801002c605e2e8cec500260401c5b600160351b8216156140e857680100162f3904051fa10260401c5b600160341b821615614103576801000b175effdc76ba0260401c5b600160331b82161561411e57680100058ba01fb9f96d0260401c5b600160321b8216156141395768010002c5cc37da94920260401c5b600160311b821615614154576801000162e525ee05470260401c5b600160301b82161561416f5768010000b17255775c040260401c5b6001602f1b82161561418a576801000058b91b5bc9ae0260401c5b6001602e1b8216156141a557680100002c5c89d5ec6d0260401c5b6001602d1b8216156141c05768010000162e43f4f8310260401c5b6001602c1b8216156141db57680100000b1721bcfc9a0260401c5b6001602b1b8216156141f65768010000058b90cf1e6e0260401c5b6001602a1b821615614211576801000002c5c863b73f0260401c5b600160291b82161561422c57680100000162e430e5a20260401c5b600160281b821615614247576801000000b1721835510260401c5b600160271b82161561426257680100000058b90c0b490260401c5b600160261b82161561427d5768010000002c5c8601cc0260401c5b600160251b821615614298576801000000162e42fff00260401c5b600160241b8216156142b35768010000000b17217fbb0260401c5b600160231b8216156142ce576801000000058b90bfce0260401c5b600160221b8216156142e957680100000002c5c85fe30260401c5b600160211b8216156143045768010000000162e42ff10260401c5b600160201b82161561431f57680100000000b17217f80260401c5b638000000082161561433a5768010000000058b90bfc0260401c5b6340000000821615614355576801000000002c5c85fe0260401c5b632000000082161561437057680100000000162e42ff0260401c5b631000000082161561438b576801000000000b17217f0260401c5b63080000008216156143a657680100000000058b90c00260401c5b63040000008216156143c15768010000000002c5c8600260401c5b63020000008216156143dc576801000000000162e4300260401c5b63010000008216156143f75768010000000000b172180260401c5b62800000821615614411576801000000000058b90c0260401c5b6240000082161561442b57680100000000002c5c860260401c5b622000008216156144455768010000000000162e430260401c5b6210000082161561445f57680100000000000b17210260401c5b620800008216156144795768010000000000058b910260401c5b62040000821615614493576801000000000002c5c80260401c5b620200008216156144ad57680100000000000162e40260401c5b620100008216156144c65761b172600160401b010260401c5b6180008216156144de576158b9600160401b010260401c5b6140008216156144f657612c5d600160401b010260401c5b61200082161561450e5761162e600160401b010260401c5b61100082161561452657610b17600160401b010260401c5b61080082161561453e5761058c600160401b010260401c5b610400821615614556576102c6600160401b010260401c5b61020082161561456e57610163600160401b010260401c5b6101008216156145855760b1600160401b010260401c5b608082161561459b576059600160401b010260401c5b60408216156145b157602c600160401b010260401c5b60208216156145c7576016600160401b010260401c5b60108216156145dd57600b600160401b010260401c5b60088216156145f3576006600160401b010260401c5b6004821615614609576003600160401b010260401c5b600282161561461f576001600160401b010260401c5b6001821615614635576001600160401b010260401c5b670de0b6b3a76400000260409190911c60bf031c90565b6040518060800160405280600081526020016000815260200160008152602001600081525090565b6001600160a01b03169052565b6001600160a01b0391909116815260200190565b600061014082840312156146a857600080fd5b50919050565b600080604083850312156146c157600080fd5b8235915060208301356001600160401b038111156146de57600080fd5b6146ea85828601614695565b9150509250929050565b634e487b7160e01b600052604160045260246000fd5b60a081016001600160401b0381118282101715614729576147296146f4565b60405250565b601f8201601f191681016001600160401b0381118282101715614754576147546146f4565b6040525050565b60405161014081016001600160401b038111828210171561477e5761477e6146f4565b60405290565b6040516101a081016001600160401b038111828210171561477e5761477e6146f4565b60006001600160401b038211156147c0576147c06146f4565b5060051b60200190565b6001600160a01b03811681146109a357600080fd5b8035613eef816147ca565b600082601f8301126147fb57600080fd5b81356020614808826147a7565b604051614815828261472f565b83815260059390931b850182019282810191508684111561483557600080fd5b8286015b8481101561485957803561484c816147ca565b8352918301918301614839565b509695505050505050565b600082601f83011261487557600080fd5b81356020614882826147a7565b60405161488f828261472f565b83815260059390931b85018201928281019150868411156148af57600080fd5b8286015b8481101561485957803583529183019183016148b3565b60006001600160401b038211156148e3576148e36146f4565b50601f01601f191660200190565b600082601f83011261490257600080fd5b8135602061490f826147a7565b6040805161491d838261472f565b84815260059490941b860183019383810192508785111561493d57600080fd5b8387015b858110156149c45780356001600160401b038111156149605760008081fd5b8801603f81018a136149725760008081fd5b8581013561497f816148ca565b855161498b828261472f565b8281528c878486010111156149a257600091508182fd5b828785018a830137600092810189019290925250855250928401928401614941565b50979650505050505050565b600080600080608085870312156149e657600080fd5b8435935060208501356001600160401b0380821115614a0457600080fd5b908601906101408289031215614a1957600080fd5b614a2161475b565b82358152602083013582811115614a3757600080fd5b614a438a8286016147ea565b602083015250604083013582811115614a5b57600080fd5b614a678a828601614864565b604083015250606083013582811115614a7f57600080fd5b614a8b8a828601614864565b606083015250608083013582811115614aa357600080fd5b614aaf8a828601614864565b60808301525060a083013582811115614ac757600080fd5b614ad38a828601614864565b60a08301525060c083013582811115614aeb57600080fd5b614af78a828601614864565b60c08301525060e083013582811115614b0f57600080fd5b614b1b8a828601614864565b60e0830152506101008084013583811115614b3557600080fd5b614b418b8287016148f1565b8284015250506101208084013583811115614b5b57600080fd5b614b678b8287016147ea565b828401525050809550505050614b7f604086016147df565b9396929550929360600135925050565b600060208284031215614ba157600080fd5b8135611b51816147ca565b6000806101608385031215614bc057600080fd5b8235614bcb816147ca565b9150614bda8460208501614695565b90509250929050565b60008060408385031215614bf657600080fd5b8235614c01816147ca565b946020939093013593505050565b6020808252601f908201527f5265656e7472616e637947756172643a207265656e7472616e742063616c6c00604082015260600190565b6000808335601e19843603018112614c5d57600080fd5b83016020810192503590506001600160401b03811115614c7c57600080fd5b8060051b3603821315614c8e57600080fd5b9250929050565b8183526000602080850194508260005b85811015614cd3578135614cb8816147ca565b6001600160a01b031687529582019590820190600101614ca5565b509495945050505050565b81835260006001600160fb1b03831115614cf757600080fd5b8260051b80836020870137939093016020019392505050565b81835281816020850137506000828201602090810191909152601f909101601f19169091010190565b81835260006020808501808196508560051b810191508460005b87811015614dbd5782840389528135601e19883603018112614d7457600080fd5b870185810190356001600160401b03811115614d8f57600080fd5b803603821315614d9e57600080fd5b614da9868284614d10565b9a87019a9550505090840190600101614d53565b5091979650505050505050565b84815260806020820152833560808201526000614dea6020860186614c46565b6101408060a0860152614e026101c086018385614c95565b9250614e116040890189614c46565b9250607f19808786030160c0880152614e2b858584614cde565b9450614e3a60608b018b614c46565b94509150808786030160e0880152614e53858584614cde565b9450614e6260808b018b614c46565b94509150610100818887030181890152614e7d868685614cde565b9550614e8c60a08c018c614c46565b955092506101208289880301818a0152614ea7878786614cde565b9650614eb660c08d018d614c46565b965093508289880301858a0152614ece878786614cde565b9650614edd60e08d018d614c46565b9650945082898803016101608a0152614ef7878787614cde565b9650614f05828d018d614c46565b9650945082898803016101808a0152614f1f878787614d39565b9650614f2d818d018d614c46565b96509450505080878603016101a08801525050614f4b838383614c95565b9350505050614f5d6040830185614674565b82606083015295945050505050565b600060033d1115614f855760046000803e5060005160e01c5b90565b600060443d1015614f965790565b6040516003193d81016004833e81513d6001600160401b038083116024840183101715614fc557505050505090565b8285019150815181811115614fdd5750505050505090565b843d8701016020828501011115614ff75750505050505090565b6150066020828601018761472f565b509095945050505050565b60005b8381101561502c578181015183820152602001615014565b50506000910152565b6000815180845261504d816020860160208601615011565b601f01601f19169290920160200192915050565b602081526000611b516020830184615035565b600081518084526020808501945080840160005b83811015614cd35781516001600160a01b031687529582019590820190600101615088565b600081518084526020808501945080840160005b83811015614cd3578151875295820195908201906001016150c1565b600081518084526020808501808196508360051b8101915082860160005b85811015614dbd578284038952615113848351615035565b988501989350908401906001016150fb565b600060018060a01b038086168352808516602084015250606060408301528251606083015260208301516101408060808501526151666101a0850183615074565b91506040850151605f19808685030160a087015261518484836150ad565b935060608701519150808685030160c08701526151a184836150ad565b935060808701519150808685030160e08701526151be84836150ad565b935060a087015191506101008187860301818801526151dd85846150ad565b945060c088015192506101208288870301818901526151fc86856150ad565b955060e0890151935082888703018589015261521886856150ad565b9550818901519450828887030161016089015261523586866150dd565b95508089015194505050808685030161018087015250506136108282615074565b6020808252600a908201526921a7a72a2927a62622a960b11b604082015260600190565b80151581146109a357600080fd5b8035613eef8161527a565b600061014082840312156152a657600080fd5b6152ae61475b565b6152b7836147df565b81526152c5602084016147df565b60208201526152d6604084016147df565b6040820152606083013560608201526080830135608082015260a083013560a082015260c083013560c082015261530f60e08401615288565b60e08201526101008381013590820152610120928301359281019290925250919050565b6001600160a01b03929092168252602082015260400190565b8051613eef8161527a565b60006020828403121561536957600080fd5b8151611b518161527a565b6001600160a01b0383168152604060208201819052600090611ddb90830184615035565b8051613eef816147ca565b600082601f8301126153b457600080fd5b81516153bf816148ca565b6040516153cc828261472f565b8281528560208487010111156153e157600080fd5b613a13836020830160208801615011565b60006020828403121561540457600080fd5b81516001600160401b038082111561541b57600080fd5b908301906101a0828603121561543057600080fd5b615438614784565b61544183615398565b815261544f60208401615398565b602082015261546060408401615398565b604082015261547160608401615398565b60608201526080830151608082015260a083015160a082015260c083015160c082015260e083015160e08201526101008084015181830152506101206154b881850161534c565b908201526101408381015190820152610160808401519082015261018080840151838111156154e657600080fd5b6154f2888287016153a3565b918301919091525095945050505050565b60208082526021908201527f5769746864726177616c5574696c733a20656d707479207769746864726177616040820152601b60fa1b606082015260800190565b6001600160a01b0396871681529486166020860152604085019390935260608401919091528316608083015290911660a082015260c00190565b634e487b7160e01b600052603260045260246000fd5b634e487b7160e01b600052601160045260246000fd5b6000600182016155bc576155bc615594565b5060010190565b6000602082840312156155d557600080fd5b81516001600160401b03808211156155ec57600080fd5b9083019060a0828603121561560057600080fd5b60405161560c8161470a565b8251615617816147ca565b81526020830151615627816147ca565b6020820152604083015161563a816147ca565b6040820152606083015161564d816147ca565b606082015260808301518281111561566457600080fd5b615670878286016153a3565b60808301525095945050505050565b60006040828403121561569157600080fd5b604080519081016001600160401b03811182821017156156b3576156b36146f4565b604052825181526020928301519281019290925250919050565b6000600160ff1b82016156e2576156e2615594565b5060000390565b80820180821115610f1457610f14615594565b60006001600160ff1b038184138284138082168684048611161561572257615722615594565b600160ff1b600087128281168783058912161561574157615741615594565b6000871292508782058712848416161561575d5761575d615594565b8785058712818416161561577357615773615594565b505050929093029392505050565b634e487b7160e01b600052601260045260246000fd5b6000826157a6576157a6615781565b600160ff1b8214600019841416156157c0576157c0615594565b500590565b918252602082015260400190565b6000602082840312156157e557600080fd5b5051919050565b82815260406020820152615804604082018351614674565b600060208301516158186060840182614674565b50604083015161582b6080840182614674565b50606083015161583e60a0840182614674565b50608083015160c083015260a083015160e083015260c0830151610100818185015260e08501519150610120828186015281860151925061014091508282860152808601519250506101606158968186018415159052565b9085015161018085810191909152908501516101a080860191909152908501516101c08501919091529050613a136101e0840182615035565b6000826158de576158de615781565b500490565b60008160001904831182151516156158fd576158fd615594565b500290565b81810381811115610f1457610f14615594565b60006020828403121561592757600080fd5b8151611b51816147ca565b808201828112600083128015821682158216171561595257615952615594565b505092915050565b6001600160a01b0394851681529290931660208301526040820152606081019190915260800190565b81810360008312801583831316838312821617156159a3576159a3615594565b509291505056fea26469706673582212206202cbca8f5b2ad497c63813a9b88be024247d111d4cd8b5ad3374c0d06063b864736f6c63430008100033",
  "deployedBytecode": "0x6080604052600436106100a65760003560e01c806312d43a51146100b25780634a4a7b04146100e8578063660d0d671461011c57806368f0efcc146101505780636c2515ba146101725780637dc0d1d0146101925780639ff78c30146101c6578063b3f00674146101fa578063b8d2c6931461022e578063c4d74c4214610262578063cfad57a214610296578063f3d6e9f6146102b6578063f5f3ac5d146102e457600080fd5b366100ad57005b600080fd5b3480156100be57600080fd5b506001546100d2906001600160a01b031681565b6040516100df9190614681565b60405180910390f35b3480156100f457600080fd5b506100d27f000000000000000000000000000000000000000000000000000000000000000081565b34801561012857600080fd5b506100d27f000000000000000000000000000000000000000000000000000000000000000081565b34801561015c57600080fd5b5061017061016b3660046146ae565b610304565b005b34801561017e57600080fd5b5061017061018d3660046149d0565b6105ac565b34801561019e57600080fd5b506100d27f000000000000000000000000000000000000000000000000000000000000000081565b3480156101d257600080fd5b506100d27f000000000000000000000000000000000000000000000000000000000000000081565b34801561020657600080fd5b506100d27f000000000000000000000000000000000000000000000000000000000000000081565b34801561023a57600080fd5b506100d27f000000000000000000000000000000000000000000000000000000000000000081565b34801561026e57600080fd5b506100d27f000000000000000000000000000000000000000000000000000000000000000081565b3480156102a257600080fd5b506101706102b1366004614b8f565b610951565b3480156102c257600080fd5b506102d66102d1366004614bac565b6109a6565b6040519081526020016100df565b3480156102f057600080fd5b506101706102ff366004614be3565b610af5565b60026000540361032f5760405162461bcd60e51b815260040161032690614c0f565b60405180910390fd5b60026000556040516103a890610368906020016020808252600c908201526b27a92222a92fa5a2a2a822a960a11b604082015260600190565b604051602081830303815290604052805190602001206040518060400160405280600c81526020016b27a92222a92fa5a2a2a822a960a11b815250610b42565b60005a6040516336128add60e11b81529091503090636c2515ba906103d7908690869033908790600401614dca565b600060405180830381600087803b1580156103f157600080fd5b505af1925050508015610402575060015b6105a25761040e614f6c565b806308c379a0036105325750610422614f88565b8061042d5750610534565b6040518060400160405280600c81526020016b27a920a1a622afa2a92927a960a11b8152506040516020016104629190615061565b60405160208183030381529060405280519060200120816040516020016104899190615061565b60405160208183030381529060405280519060200120036104be578060405162461bcd60e51b81526004016103269190615061565b61052c7f00000000000000000000000000000000000000000000000000000000000000007f00000000000000000000000000000000000000000000000000000000000000007f0000000000000000000000000000000000000000000000000000000000000000873387610bf6565b506105a2565b505b6105a27f00000000000000000000000000000000000000000000000000000000000000007f00000000000000000000000000000000000000000000000000000000000000007f0000000000000000000000000000000000000000000000000000000000000000863386610bf6565b5050600160005550565b3330146105f0576040805163a35b150b60e01b815233600480830191909152602482019290925260448101919091526329a2a62360e11b6064820152608401610326565b7f00000000000000000000000000000000000000000000000000000000000000007f00000000000000000000000000000000000000000000000000000000000000007f000000000000000000000000000000000000000000000000000000000000000085836001600160a01b0316639382a84d8484846040518463ffffffff1660e01b815260040161068493929190615125565b600060405180830381600087803b15801561069e57600080fd5b505af19250505080156106af575060015b610757576106bb614f6c565b806308c379a00361074b57506106cf614f88565b806106da575061074d565b7f9966b250e13ade3123b5af1743515baa8eaaf09f1e4081aa5e7e66ddd2b1415a816040516107099190615061565b60405180910390a1604080518082018252600c81526b27a920a1a622afa2a92927a960a11b6020820152905162461bcd60e51b81526103269190600401615061565b505b3d6000803e3d6000fd5b6107897f000000000000000000000000000000000000000000000000000000000000000061078430610dce565b610e59565b600061079e8860400151896020015151610e84565b905060006040518061014001604052807f00000000000000000000000000000000000000000000000000000000000000006001600160a01b031681526020017f00000000000000000000000000000000000000000000000000000000000000006001600160a01b031681526020017f00000000000000000000000000000000000000000000000000000000000000006001600160a01b031681526020017f00000000000000000000000000000000000000000000000000000000000000006001600160a01b031681526020017f00000000000000000000000000000000000000000000000000000000000000006001600160a01b031681526020017f00000000000000000000000000000000000000000000000000000000000000006001600160a01b031681526020018b8152602001838152602001896001600160a01b031681526020018881525090506108f281610f1a565b5050836001600160a01b031663ad3be44d6040518163ffffffff1660e01b8152600401600060405180830381600087803b15801561092f57600080fd5b505af1158015610943573d6000803e3d6000fd5b505050505050505050505050565b6001546001600160a01b0316331461099a576040805163a35b150b60e01b81523360048201526024810191909152600360448201526223a7ab60e91b6064820152608401610326565b6109a381611697565b50565b60006002600054036109ca5760405162461bcd60e51b815260040161032690614c0f565b6002600055604051610a20906109e290602001615256565b604051602081830303815290604052805190602001206040518060400160405280600a81526020016921a7a72a2927a62622a960b11b815250610b42565b610a4d7f0000000000000000000000000000000000000000000000000000000000000000610784306116f8565b610ae97f00000000000000000000000000000000000000000000000000000000000000007f00000000000000000000000000000000000000000000000000000000000000007f00000000000000000000000000000000000000000000000000000000000000007f000000000000000000000000000000000000000000000000000000000000000087610ae436899003890189615293565b611737565b60016000559392505050565b610b076040516020016109e290615256565b6040516001600160a01b0383169082156108fc029083906000818181858888f19350505050158015610b3d573d6000803e3d6000fd5b505050565b60405163ac4ab3fb60e01b81526001600160a01b037f0000000000000000000000000000000000000000000000000000000000000000169063ac4ab3fb90610b909033908690600401615333565b602060405180830381865afa158015610bad573d6000803e3d6000fd5b505050506040513d601f19601f82011682018060405250810190610bd19190615357565b610bf257338160405163a35b150b60e01b8152600401610326929190615374565b5050565b60405163023aa9ab60e61b8152600481018490526000906001600160a01b03861690638eaa6ac090602401600060405180830381865afa158015610c3e573d6000803e3d6000fd5b505050506040513d6000823e601f3d908101601f19168201604052610c6691908101906153f2565b80519091506001600160a01b0316610c905760405162461bcd60e51b815260040161032690615503565b6040516395bc267360e01b8152600481018590526001600160a01b038616906395bc267390602401600060405180830381600087803b158015610cd257600080fd5b505af1158015610ce6573d6000803e3d6000fd5b5050604051631106ba2560e21b8152600481018790526001600160a01b038916925063441ae8949150602401600060405180830381600087803b158015610d2c57600080fd5b505af1158015610d40573d6000803e3d6000fd5b50505050610d4e8482611a57565b6101408101518151604051632d1c88e560e11b815273__$60bb1dd4670b1e26e5010aaaf2f65694d3$__92635a3911ca92610d95928c928b92909189918b91600401615544565b60006040518083038186803b158015610dad57600080fd5b505af4158015610dc1573d6000803e3d6000fd5b5050505050505050505050565b6000604051602001610e0e906020808252601a9082015279455845435554455f5749544844524157414c5f4645415455524560301b604082015260600190565b60408051601f198184030181528282528051602091820120908301526001600160a01b038416908201526060015b604051602081830303815290604052805190602001209050919050565b610e638282611ae5565b15610bf257604051630827f79760e41b815260048101829052602401610326565b60606000826001600160401b03811115610ea057610ea06146f4565b604051908082528060200260200182016040528015610ec9578160200160208202803683370190505b50905060005b83811015610f1057610ee18582611b58565b828281518110610ef357610ef361557e565b602090810291909101015280610f08816155aa565b915050610ecf565b5090505b92915050565b600081604001516001600160a01b0316638eaa6ac08360c001516040518263ffffffff1660e01b8152600401610f5291815260200190565b600060405180830381865afa158015610f6f573d6000803e3d6000fd5b505050506040513d6000823e601f3d908101601f19168201604052610f9791908101906153f2565b80519091506001600160a01b0316610fc15760405162461bcd60e51b815260040161032690615503565b61010081015160e0830151610fd591611b95565b61101357604080518082018252600c81526b27a920a1a622afa2a92927a960a11b6020820152905162461bcd60e51b81526103269190600401615061565b6110218260c0015182611be8565b600082606001516001600160a01b031663c2bc2efc83606001516040518263ffffffff1660e01b81526004016110579190614681565b600060405180830381865afa158015611074573d6000803e3d6000fd5b505050506040513d6000823e601f3d908101601f1916820160405261109c91908101906155c3565b9050600083608001516001600160a01b0316635dcf719483604001516040518263ffffffff1660e01b81526004016110d49190614681565b6040805180830381865afa1580156110f0573d6000803e3d6000fd5b505050506040513d601f19601f82011682018060405250810190611114919061567f565b9050600084608001516001600160a01b0316635dcf719484606001516040518263ffffffff1660e01b815260040161114c9190614681565b6040805180830381865afa158015611168573d6000803e3d6000fd5b505050506040513d601f19601f8201168201806040525081019061118c919061567f565b90506111b96040518060800160405280600081526020016000815260200160008152602001600081525090565b61123f86600001518585858a608001516001600160a01b0316635dcf71948a602001516040518263ffffffff1660e01b81526004016111f89190614681565b6040805180830381865afa158015611214573d6000803e3d6000fd5b505050506040513d601f19601f82011682018060405250810190611238919061567f565b6000611c22565b8152835161124c90611d48565b602082018190526080860151825161126392611dac565b604082015260a08501518151602083015161127f929190611dac565b816060018181525050600061133960405180610100016040528089600001516001600160a01b0316815260200187600001516001600160a01b0316815260200187604001516001600160a01b0316815260200187606001516001600160a01b031681526020016112ee87611de3565b81526020016112fc86611de3565b815260200161130e8560400151611e05565b611317906156cd565b81526020016113298560600151611e05565b611332906156cd565b9052611e73565b60808701519091501561145157600060405180610160016040528087815260200188600001516001600160a01b0316815260200188602001516001600160a01b0316815260200187606001516001600160a01b0316815260200187604001516001600160a01b031681526020018581526020018681526020018860800151815260200188610120015115158152602001846040015181526020016113ef856060015186604001516113ea91906156e9565b611e05565b6113fc8660400151611e05565b61140690866156fc565b6114109190615797565b9052905060006114208983611e96565b90508760c0015181101561144e5760c0880151604051633d10b02f60e21b81526103269183916004016157c5565b50505b60a08601511561156157600060405180610160016040528087815260200188600001516001600160a01b0316815260200188602001516001600160a01b0316815260200187604001516001600160a01b0316815260200187606001516001600160a01b031681526020018681526020018581526020018860a00151815260200188610120015115158152602001846060015181526020016114ff856060015186604001516113ea91906156e9565b61150c8660600151611e05565b61151690866156fc565b6115209190615797565b9052905060006115308983611e96565b90508760e0015181101561155e5760e088015160405163b4a196af60e01b81526103269183916004016157c5565b50505b86604001516001600160a01b03166395bc26738860c001516040518263ffffffff1660e01b815260040161159791815260200190565b600060405180830381600087803b1580156115b157600080fd5b505af11580156115c5573d6000803e3d6000fd5b5050505086602001516001600160a01b031663b16768218860c001516040518263ffffffff1660e01b81526004016115ff91815260200190565b600060405180830381600087803b15801561161957600080fd5b505af115801561162d573d6000803e3d6000fd5b5050505061163f8760c001518761241d565b86516040808901516101408901516101208b01516101008c01518b519451632d1c88e560e11b815273__$60bb1dd4670b1e26e5010aaaf2f65694d3$__96635a3911ca96610d95969195919491939192600401615544565b600180546001600160a01b038381166001600160a01b031983168117909355604080519190921680825260208201939093527f53351836099c03ffc3b1727d8abd4b0222afa87d4ed76ae3102d51369ef7f785910160405180910390a15050565b6000604051602001610e0e906020808252601990820152784352454154455f5749544844524157414c5f4645415455524560381b604082015260600190565b60008061174388612457565b90506000866001600160a01b031663352f9aed836040518263ffffffff1660e01b81526004016117739190614681565b6020604051808303816000875af1158015611792573d6000803e3d6000fd5b505050506040513d601f19601f820116820180604052508101906117b691906157d3565b905083610100015181146118175760405162461bcd60e51b815260206004820152602260248201527f5769746864726177616c5574696c733a20696e76616c696420776e74416d6f756044820152611b9d60f21b6064820152608401610326565b60408085015190516330af0bbf60e21b81526000916001600160a01b0389169163c2bc2efc9161184991600401614681565b600060405180830381865afa158015611866573d6000803e3d6000fd5b505050506040513d6000823e601f3d908101601f1916820160405261188e91908101906155c3565b905061189981612504565b6000604051806101a00160405280886001600160a01b0316815260200187600001516001600160a01b0316815260200187602001516001600160a01b0316815260200183600001516001600160a01b0316815260200187606001518152602001876080015181526020018760a0015181526020018760c00151815260200161191f61252c565b81526020018760e00151151581526020018761010001518152602001876101200151815260200160405180602001604052806000815250815250905060006119678c836125b2565b90506119798c828961010001516126e5565b60006119848d61272d565b604051636b209e3360e01b81529091506001600160a01b038c1690636b209e33906119b590849087906004016157ec565b600060405180830381600087803b1580156119cf57600080fd5b505af11580156119e3573d6000803e3d6000fd5b5050604051626c407b60e51b81526001600160a01b038f169250630d880f609150611a1490849087906004016157ec565b600060405180830381600087803b158015611a2e57600080fd5b505af1158015611a42573d6000803e3d6000fd5b50929f9e505050505050505050505050505050565b611a648160400151612770565b611a6c575050565b80604001516001600160a01b031663076dcf776002836101600151611a9191906158cf565b84846040518463ffffffff1660e01b8152600401611ab09291906157ec565b600060405180830381600088803b158015611aca57600080fd5b5087f193505050508015611adc575060015b15610bf2575050565b604051633d70e7e560e11b8152600481018290526000906001600160a01b03841690637ae1cfca90602401602060405180830381865afa158015611b2d573d6000803e3d6000fd5b505050506040513d601f19601f82011682018060405250810190611b519190615357565b9392505050565b600080611b6f848460406001600160401b036127a7565b905080600003611b515760405163349f5fdd60e11b815260048101849052602401610326565b6000805b8351811015611bde5782848281518110611bb557611bb561557e565b602002602001015114611bcc576000915050610f14565b80611bd6816155aa565b915050611b99565b5060019392505050565b611bf58160400151612770565b611bfd575050565b80604001516001600160a01b031663104759156002836101600151611a9191906158cf565b600080611c38888860000151896040015161281a565b90506000611c4f8989600001518a6060015161281a565b90506000611c5d8886612894565b611c6790846158e3565b9050611c738786612894565b611c7d90836158e3565b611c8790826156e9565b9050611ca38a8a600001518b604001518c6060015160016128ab565b611cad90826156e9565b9050611cc98a8a600001518b604001518c6060015160006128ab565b611cd390826156e9565b90506000611ce58b8b600001516128fd565b9050611cf18787612894565b611cfb90826158e3565b611d0590836156e9565b91506000611d248c8c600001518d604001518e606001518c8c15612976565b9050611d3883611d33836156cd565b6129a9565b9c9b505050505050505050505050565b6000816001600160a01b03166318160ddd6040518163ffffffff1660e01b8152600401602060405180830381865afa158015611d88573d6000803e3d6000fd5b505050506040513d601f19601f82011682018060405250810190610f1491906157d3565b6000811580611db9575082155b15611dc657506000611b51565b81611dd184866158e3565b611ddb91906158cf565b949350505050565b6000600282600001518360200151611dfb91906156e9565b610f1491906158cf565b60006001600160ff1b03821115611e6f5760405162461bcd60e51b815260206004820152602860248201527f53616665436173743a2076616c756520646f65736e27742066697420696e2061604482015267371034b73a191a9b60c11b6064820152608401610326565b5090565b600080611e7f836129d9565b90506000611ddb8460000151856020015184612aae565b6000808260c0015160200151836101200151611eb291906158cf565b90506000611f24856000015185600001516000015184604051602001611f09906020808252601e908201527f4645455f52454345495645525f5749544844524157414c5f464143544f520000604082015260600190565b60405160208183030381529060405280519060200120612d16565b60a086015185515160808701518351604051949550611f8794611f6c906020016020808252600e908201526d5749544844524157414c5f46454560901b604082015260600190565b60405160208183030381529060405280519060200120612e56565b6000816020015183611f999190615902565b90508160400151925060008561014001511315611ffa576000611fdd8760000151886020015188600001516000015189608001518a60c001518b6101400151612f36565b9050611fe881612fc1565b611ff290856156e9565b935050612048565b60006120278760000151886020015188600001516000015189608001518a60c001518b6101400151612f36565b905061203a612035826156cd565b612fc1565b6120449085615902565b9350505b8551602087015186515160808801516120759392919061206786611e05565b612070906156cd565b613013565b8551855160408051606081019182905260808a0151895160200151631773dc6560e21b90935261219494939282916001600160a01b031690635dcf7194906120c09060648501614681565b6040805180830381865afa1580156120dc573d6000803e3d6000fd5b505050506040513d601f19601f82011682018060405250810190612100919061567f565b81526020018960000151604001516001600160a01b03168a606001516001600160a01b031614612134578960c0015161213a565b8960a001515b81526020018960000151606001516001600160a01b03168a606001516001600160a01b03161461216e578960c00151612174565b8960a001515b905288516040015160808a01516001600160a01b039081169116146130fe565b84515160208601516040516370a0823160e01b81526000926001600160a01b0316916370a08231916121c99190600401614681565b602060405180830381865afa1580156121e6573d6000803e3d6000fd5b505050506040513d601f19601f8201168201806040525081019061220a91906157d3565b90508560e001518110156122385760e0860151604051634164414560e11b81526103269183916004016157c5565b855151602087015160e0880151604051632770a7eb60e21b81526001600160a01b0390931692639dc29fac92612272929091600401615333565b600060405180830381600087803b15801561228c57600080fd5b505af11580156122a0573d6000803e3d6000fd5b505087515189516001600160a01b03909116925063f949893891506122c490612457565b60808901516040808b01516101008c015191516001600160e01b031960e087901b1681526001600160a01b0394851660048201529284166024840152604483018a9052929092166064820152901515608482015260a401600060405180830381600087803b15801561233557600080fd5b505af1158015612349573d6000803e3d6000fd5b5050505086602001516001600160a01b0316639876ed2a60405160200161238e906020808252600a90820152691dda5d1a191c985dd85b60b21b604082015260600190565b60408051601f1981840301815282825280516020918201206001600160e01b031960e086901b168452600484015287516024840152870151604483015286015160648201526060860151608482015260a401600060405180830381600087803b1580156123fa57600080fd5b505af115801561240e573d6000803e3d6000fd5b50959998505050505050505050565b61242a8160400151612770565b612432575050565b80604001516001600160a01b0316631181f0af6002836101600151611a9191906158cf565b6000816001600160a01b03166321f8a72160405160200161248f9060208082526003908201526215d39560ea1b604082015260600190565b604051602081830303815290604052805190602001206040518263ffffffff1660e01b81526004016124c391815260200190565b602060405180830381865afa1580156124e0573d6000803e3d6000fd5b505050506040513d601f19601f82011682018060405250810190610f149190615915565b80516001600160a01b03166109a3576040516302fde0d760e11b815260040160405180910390fd5b600061a4b1461480612540575062066eeb46145b156125ad5760646001600160a01b031663a3b1b31d6040518163ffffffff1660e01b8152600401602060405180830381865afa158015612584573d6000803e3d6000fd5b505050506040513d601f19601f820116820180604052508101906125a891906157d3565b905090565b504390565b60008160800151600014806125c9575060a0820151155b1561265d57816101600151836001600160a01b031663bd02d0f56125ed60016131b8565b6040518263ffffffff1660e01b815260040161260b91815260200190565b602060405180830381865afa158015612628573d6000803e3d6000fd5b505050506040513d601f19601f8201168201806040525081019061264c91906157d3565b61265691906156e9565b9050610f14565b816101600151836001600160a01b031663bd02d0f561267c60006131b8565b6040518263ffffffff1660e01b815260040161269a91815260200190565b602060405180830381865afa1580156126b7573d6000803e3d6000fd5b505050506040513d601f19601f820116820180604052508101906126db91906157d3565b611b5191906156e9565b60006126f1848461321d565b905060006126ff3a836158e3565b905080831015612726578083604051635dac504d60e01b81526004016103269291906157c5565b5050505050565b600080612739836133cf565b905060008160405160200161275091815260200190565b60408051601f198184030181529190528051602090910120949350505050565b60006001600160a01b03821661278857506000919050565b6001600160a01b0382163b61279f57506000919050565b506001919050565b6000806127b6846101006158cf565b905060006127c482876158cf565b905060008782815181106127da576127da61557e565b6020026020010151905060008684846127f391906158e3565b6127fd908a615902565b61280791906158e3565b9190911c85169350505050949350505050565b6000836001600160a01b031663bd02d0f5612835858561345d565b6040518263ffffffff1660e01b815260040161285391815260200190565b602060405180830381865afa158015612870573d6000803e3d6000fd5b505050506040513d601f19601f82011682018060405250810190611ddb91906157d3565b6000816128a2578251611b51565b50506020015190565b6000806128bb87878787876134e5565b905060006128ca888886613510565b905060006128d989898761352b565b9050806128e683856158e3565b6128f09190615902565b9998505050505050505050565b6000826001600160a01b031663bd02d0f561291784613546565b6040518263ffffffff1660e01b815260040161293591815260200190565b602060405180830381865afa158015612952573d6000803e3d6000fd5b505050506040513d601f19601f82011682018060405250810190611b5191906157d3565b6000806129898888888888600189613587565b9050600061299d898989898960008a613587565b90506128f08183615932565b6000808213156129c6576129bc8261361b565b61265690846156e9565b6129cf8261361b565b611b519084615902565b612a046040518060800160405280600081526020016000815260200160008152602001600081525090565b6000612a1d83600001518460200151856040015161281a565b90506000612a3884600001518560200151866060015161281a565b90506000846080015183612a4c91906158e3565b905060008560a0015183612a6091906158e3565b90506000612a72838860c001516129a9565b90506000612a84838960e001516129a9565b60408051608081018252958652602086019490945292840191909152506060820152949350505050565b600080612ac38360000151846020015161362e565b90506000612ad98460400151856060015161362e565b6060850151604086015160208701518751939450909211159111151460006001600160a01b03881663bd02d0f5612b0f89613650565b6040518263ffffffff1660e01b8152600401612b2d91815260200190565b602060405180830381865afa158015612b4a573d6000803e3d6000fd5b505050506040513d601f19601f82011682018060405250810190612b6e91906157d3565b90508115612c0f5783831060006001600160a01b038a1663bd02d0f5612b948b85613691565b6040518263ffffffff1660e01b8152600401612bb291815260200190565b602060405180830381865afa158015612bcf573d6000803e3d6000fd5b505050506040513d601f19601f82011682018060405250810190612bf391906157d3565b9050612c028686848487613703565b9650505050505050611b51565b6000886001600160a01b031663bd02d0f5612c2b8a6001613691565b6040518263ffffffff1660e01b8152600401612c4991815260200190565b602060405180830381865afa158015612c66573d6000803e3d6000fd5b505050506040513d601f19601f82011682018060405250810190612c8a91906157d3565b90506000896001600160a01b031663bd02d0f5612ca88b6000613691565b6040518263ffffffff1660e01b8152600401612cc691815260200190565b602060405180830381865afa158015612ce3573d6000803e3d6000fd5b505050506040513d601f19601f82011682018060405250810190612d0791906157d3565b9050612c028686848487613732565b612d1e61464c565b612d2661464c565b6000866001600160a01b031663bd02d0f5612d408861377b565b6040518263ffffffff1660e01b8152600401612d5e91815260200190565b602060405180830381865afa158015612d7b573d6000803e3d6000fd5b505050506040513d601f19601f82011682018060405250810190612d9f91906157d3565b60405163bd02d0f560e01b8152600481018690529091506000906001600160a01b0389169063bd02d0f590602401602060405180830381865afa158015612dea573d6000803e3d6000fd5b505050506040513d601f19601f82011682018060405250810190612e0e91906157d3565b90506000612e1c87846137b0565b9050612e2881836137b0565b808552612e359082615902565b6020850152612e448188615902565b60408501525091979650505050505050565b8115612726576040516316c48fdd60e11b81526001600160a01b038481166004830152602482018490528681166044830152851690632d891fba90606401600060405180830381600087803b158015612eae57600080fd5b505af1158015612ec2573d6000803e3d6000fd5b50506040516302002bf360e31b8152600481018490526001600160a01b03868116602483015260448201869052881692506310015f989150606401600060405180830381600087803b158015612f1757600080fd5b505af1158015612f2b573d6000803e3d6000fd5b505050505050505050565b60008060008313612f48578351612f4e565b83602001515b9050600080841315612f9357612f6382611e05565b612f6d9085615797565b90506000612f7f6113ea8b8a8a6137d3565b905080821315612f8d578091505b50612fa0565b612f9d84836137ee565b90505b612fb589898989612fb0866156cd565b61385b565b98975050505050505050565b600080821215611e6f5760405162461bcd60e51b815260206004820181905260248201527f53616665436173743a2076616c7565206d75737420626520706f7369746976656044820152606401610326565b6000856001600160a01b0316639deed1c861302e868661345d565b846040518363ffffffff1660e01b815260040161304c9291906157c5565b6020604051808303816000875af115801561306b573d6000803e3d6000fd5b505050506040513d601f19601f8201168201806040525081019061308f91906157d3565b60405163f79a52b760e01b81529091506001600160a01b0386169063f79a52b7906130c490879087908790879060040161595a565b600060405180830381600087803b1580156130de57600080fd5b505af11580156130f2573d6000803e3d6000fd5b50505050505050505050565b600061310c8585858561390c565b9050600061311f8686600001518561395e565b9050600061312d83836137b0565b90506000841561316d5760006131528989600001518a604001518b606001518a613979565b87516020015190915061316590826158e3565b915050613189565b61318688886000015189604001518a60600151896134e5565b90505b818111156131ae57808260405163315276c960e01b81526004016103269291906157c5565b5050505050505050565b60006040516020016131f29060208082526014908201527315d2551211149055d05317d1d054d7d31253525560621b604082015260600190565b60408051601f1981840301815282825280516020918201209083015283151590820152606001610e3c565b600080836001600160a01b031663bd02d0f560405160200161326f906020808252601c908201527b1154d512535055115117d1915157d09054d157d1d054d7d31253525560221b604082015260600190565b604051602081830303815290604052805190602001206040518263ffffffff1660e01b81526004016132a391815260200190565b602060405180830381865afa1580156132c0573d6000803e3d6000fd5b505050506040513d601f19601f820116820180604052508101906132e491906157d3565b90506000846001600160a01b031663bd02d0f5604051602001613338906020808252601f908201527f455354494d415445445f4645455f4d554c5449504c4945525f464143544f5200604082015260600190565b604051602081830303815290604052805190602001206040518263ffffffff1660e01b815260040161336c91815260200190565b602060405180830381865afa158015613389573d6000803e3d6000fd5b505050506040513d601f19601f820116820180604052508101906133ad91906157d3565b905060006133bb85836137b0565b6133c590846156e9565b9695505050505050565b6000816001600160a01b031663340dbab3604051602001613409906020808252600590820152644e4f4e434560d81b604082015260600190565b6040516020818303038152906040528051906020012060016040518363ffffffff1660e01b815260040161343e9291906157c5565b6020604051808303816000875af1158015611d88573d6000803e3d6000fd5b600060405160200161348e906020808252600b908201526a1413d3d317d05353d5539560aa1b604082015260600190565b60408051601f198184030181528282528051602091820120908301526001600160a01b0380861691830191909152831660608201526080015b60405160208183030381529060405280519060200120905092915050565b6000806134f487878786613998565b9050600061350488888787613998565b9050612fb581836156e9565b6000836001600160a01b031663bd02d0f56128358585613a1c565b6000836001600160a01b031663bd02d0f56128358585613a5d565b6000604051602001610e0e906020808252601b908201527a1413d4d2551253d397d253541050d517d413d3d317d05353d55395602a1b604082015260600190565b60008061359a6113ea8a8a8a8a896134e5565b905060006135ab8a8a8a8a89613979565b90508115806135b8575080155b156135c857600092505050613610565b60006135d5878787613a92565b905060006135e66113ea83856158e3565b90506000876135fe576135f98286615983565b613608565b6136088583615983565b955050505050505b979650505050505050565b600080821215611e6f5781600003610f14565b6000818311613646576136418383615902565b611b51565b611b518284615902565b6000604051602001610e0e906020808252601b908201527a29aba0a82fa4a6a820a1aa2fa2ac2827a722a72a2fa320a1aa27a960291b604082015260600190565b60006040516020016136c99060208082526012908201527129aba0a82fa4a6a820a1aa2fa320a1aa27a960711b604082015260600190565b60408051601f198184030181528282528051602091820120908301526001600160a01b0385169082015282151560608201526080016134c7565b600080613724613714888686613acb565b61371f888787613acb565b61362e565b90506000612fb58287613b28565b600080613740878685613acb565b9050600061374f878686613acb565b9050600061375d838361362e565b9050600061376d82848611613b28565b9a9950505050505050505050565b6000604051602001610e0e906020808252600f908201526e29aba0a82fa322a2afa320a1aa27a960891b604082015260600190565b600068327cb2734119d3b7a9601e1b6137c983856158e3565b611b5191906158cf565b6000836001600160a01b031663bd02d0f56128358585613b4b565b6000808312156138295761380182611e05565b61380a83611e05565b6138149085615983565b61381f906001615932565b6126569190615797565b61383282611e05565b600161383d84611e05565b6138479086615932565b6138519190615983565b611b519190615797565b6000856001600160a01b0316639deed1c86138768686613b4b565b846040518363ffffffff1660e01b81526004016138949291906157c5565b6020604051808303816000875af11580156138b3573d6000803e3d6000fd5b505050506040513d601f19601f820116820180604052508101906138d791906157d3565b60405163eb59c7c160e01b81529091506001600160a01b0386169063eb59c7c1906130c490879087908790879060040161595a565b6000808261391e578460600151613924565b84604001515b905060006139378787600001518461281a565b905060008461394b57604086015151613952565b6020860151515b9050612fb581836158e3565b6000836001600160a01b031663bd02d0f56128358585613b88565b60008061398887878786613bbc565b9050600061350488888787613bbc565b6000846001600160a01b031663bd02d0f56139b4868686613bd8565b6040518263ffffffff1660e01b81526004016139d291815260200190565b602060405180830381865afa1580156139ef573d6000803e3d6000fd5b505050506040513d601f19601f82011682018060405250810190613a1391906157d3565b95945050505050565b60006040516020016136c9906020808252601b908201527a21aaa6aaa620aa24ab22afa127a92927aba4a723afa320a1aa27a960291b604082015260600190565b60006040516020016136c9906020808252600f908201526e544f54414c5f424f52524f57494e4760881b604082015260600190565b60008215613ab35781613aa6578351613aac565b83602001515b9050611b51565b81613ac2578360200151611ddb565b50509051919050565b600068327cb2734119d3b7a9601e1b841015613ae957506000611b51565b6000613b05613af786613c6a565b613b0085613c6a565b613c7b565b9050613b1081613cbb565b90506002613b1e82866137b0565b613a1391906158cf565b60008115613b395761265683611e05565b613b4283611e05565b612656906156cd565b600060405160200161348e9060208082526017908201527614d5d05417d253541050d517d413d3d317d05353d55395604a1b604082015260600190565b60006040516020016136c9906020808252600e908201526d2922a9a2a92b22afa320a1aa27a960911b604082015260600190565b6000846001600160a01b031663bd02d0f56139b4868686613ccc565b6000604051602001613c0b906020808252600d908201526c13d4115397d2539511549154d5609a1b604082015260600190565b60408051601f198184030181528282528051602091820120908301526001600160a01b038087169183019190915284166060820152821515608082015260a0016040516020818303038152906040528051906020012090509392505050565b6000610f1464e8d4a51000836158cf565b600082600003613ca1578115613c92576000612656565b50670de0b6b3a7640000610f14565b611b51613cb6613cb085613d09565b84613dbf565b613dcb565b6000610f1464e8d4a51000836158e3565b6000604051602001613c0b906020808252601790820152764f50454e5f494e5445524553545f494e5f544f4b454e5360481b604082015260600190565b6000670de0b6b3a7640000821015613d3757604051633621413760e21b815260048101839052602401610326565b6000613d4c670de0b6b3a76400008404613e11565b670de0b6b3a764000081029250905082811c670de0b6b3a763ffff198101613d75575050919050565b6706f05b59d3b200005b8015613db757670de0b6b3a7640000828002049150671bc16d674ec800008210613daf579283019260019190911c905b60011c613d7f565b505050919050565b6000611b518383613ef4565b6000680a688906bd8b0000008210613df957604051634a4f26f160e01b815260048101839052602401610326565b670de0b6b3a7640000604083901b04611b5181613fba565b6000600160801b8210613e3157608091821c91613e2e90826156e9565b90505b600160401b8210613e4f57604091821c91613e4c90826156e9565b90505b600160201b8210613e6d57602091821c91613e6a90826156e9565b90505b620100008210613e8a57601091821c91613e8790826156e9565b90505b6101008210613ea657600891821c91613ea390826156e9565b90505b60108210613ec157600491821c91613ebe90826156e9565b90505b60048210613edc57600291821c91613ed990826156e9565b90505b60028210613eef57610f146001826156e9565b919050565b60008080600019848609848602925082811083820303915050670de0b6b3a76400008110613f385760405163698d9a0160e11b815260048101829052602401610326565b600080670de0b6b3a764000086880991506706f05b59d3b1ffff8211905082600003613f765780670de0b6b3a7640000850401945050505050610f14565b620400008285030493909111909103600160ee1b02919091177faccb18165bd6fe31ae1cf318dc5b51eee0e1ba569b88cd74c1773b91fac106690201905092915050565b600160bf1b6001603f1b821615613fda5768016a09e667f3bcc9090260401c5b6001603e1b821615613ff5576801306fe0a31b7152df0260401c5b6001603d1b821615614010576801172b83c7d517adce0260401c5b6001603c1b82161561402b5768010b5586cf9890f62a0260401c5b6001603b1b821615614046576801059b0d31585743ae0260401c5b6001603a1b82161561406157680102c9a3e778060ee70260401c5b600160391b82161561407c5768010163da9fb33356d80260401c5b600160381b82161561409757680100b1afa5abcbed610260401c5b600160371b8216156140b25768010058c86da1c09ea20260401c5b600160361b8216156140cd576801002c605e2e8cec500260401c5b600160351b8216156140e857680100162f3904051fa10260401c5b600160341b821615614103576801000b175effdc76ba0260401c5b600160331b82161561411e57680100058ba01fb9f96d0260401c5b600160321b8216156141395768010002c5cc37da94920260401c5b600160311b821615614154576801000162e525ee05470260401c5b600160301b82161561416f5768010000b17255775c040260401c5b6001602f1b82161561418a576801000058b91b5bc9ae0260401c5b6001602e1b8216156141a557680100002c5c89d5ec6d0260401c5b6001602d1b8216156141c05768010000162e43f4f8310260401c5b6001602c1b8216156141db57680100000b1721bcfc9a0260401c5b6001602b1b8216156141f65768010000058b90cf1e6e0260401c5b6001602a1b821615614211576801000002c5c863b73f0260401c5b600160291b82161561422c57680100000162e430e5a20260401c5b600160281b821615614247576801000000b1721835510260401c5b600160271b82161561426257680100000058b90c0b490260401c5b600160261b82161561427d5768010000002c5c8601cc0260401c5b600160251b821615614298576801000000162e42fff00260401c5b600160241b8216156142b35768010000000b17217fbb0260401c5b600160231b8216156142ce576801000000058b90bfce0260401c5b600160221b8216156142e957680100000002c5c85fe30260401c5b600160211b8216156143045768010000000162e42ff10260401c5b600160201b82161561431f57680100000000b17217f80260401c5b638000000082161561433a5768010000000058b90bfc0260401c5b6340000000821615614355576801000000002c5c85fe0260401c5b632000000082161561437057680100000000162e42ff0260401c5b631000000082161561438b576801000000000b17217f0260401c5b63080000008216156143a657680100000000058b90c00260401c5b63040000008216156143c15768010000000002c5c8600260401c5b63020000008216156143dc576801000000000162e4300260401c5b63010000008216156143f75768010000000000b172180260401c5b62800000821615614411576801000000000058b90c0260401c5b6240000082161561442b57680100000000002c5c860260401c5b622000008216156144455768010000000000162e430260401c5b6210000082161561445f57680100000000000b17210260401c5b620800008216156144795768010000000000058b910260401c5b62040000821615614493576801000000000002c5c80260401c5b620200008216156144ad57680100000000000162e40260401c5b620100008216156144c65761b172600160401b010260401c5b6180008216156144de576158b9600160401b010260401c5b6140008216156144f657612c5d600160401b010260401c5b61200082161561450e5761162e600160401b010260401c5b61100082161561452657610b17600160401b010260401c5b61080082161561453e5761058c600160401b010260401c5b610400821615614556576102c6600160401b010260401c5b61020082161561456e57610163600160401b010260401c5b6101008216156145855760b1600160401b010260401c5b608082161561459b576059600160401b010260401c5b60408216156145b157602c600160401b010260401c5b60208216156145c7576016600160401b010260401c5b60108216156145dd57600b600160401b010260401c5b60088216156145f3576006600160401b010260401c5b6004821615614609576003600160401b010260401c5b600282161561461f576001600160401b010260401c5b6001821615614635576001600160401b010260401c5b670de0b6b3a76400000260409190911c60bf031c90565b6040518060800160405280600081526020016000815260200160008152602001600081525090565b6001600160a01b03169052565b6001600160a01b0391909116815260200190565b600061014082840312156146a857600080fd5b50919050565b600080604083850312156146c157600080fd5b8235915060208301356001600160401b038111156146de57600080fd5b6146ea85828601614695565b9150509250929050565b634e487b7160e01b600052604160045260246000fd5b60a081016001600160401b0381118282101715614729576147296146f4565b60405250565b601f8201601f191681016001600160401b0381118282101715614754576147546146f4565b6040525050565b60405161014081016001600160401b038111828210171561477e5761477e6146f4565b60405290565b6040516101a081016001600160401b038111828210171561477e5761477e6146f4565b60006001600160401b038211156147c0576147c06146f4565b5060051b60200190565b6001600160a01b03811681146109a357600080fd5b8035613eef816147ca565b600082601f8301126147fb57600080fd5b81356020614808826147a7565b604051614815828261472f565b83815260059390931b850182019282810191508684111561483557600080fd5b8286015b8481101561485957803561484c816147ca565b8352918301918301614839565b509695505050505050565b600082601f83011261487557600080fd5b81356020614882826147a7565b60405161488f828261472f565b83815260059390931b85018201928281019150868411156148af57600080fd5b8286015b8481101561485957803583529183019183016148b3565b60006001600160401b038211156148e3576148e36146f4565b50601f01601f191660200190565b600082601f83011261490257600080fd5b8135602061490f826147a7565b6040805161491d838261472f565b84815260059490941b860183019383810192508785111561493d57600080fd5b8387015b858110156149c45780356001600160401b038111156149605760008081fd5b8801603f81018a136149725760008081fd5b8581013561497f816148ca565b855161498b828261472f565b8281528c878486010111156149a257600091508182fd5b828785018a830137600092810189019290925250855250928401928401614941565b50979650505050505050565b600080600080608085870312156149e657600080fd5b8435935060208501356001600160401b0380821115614a0457600080fd5b908601906101408289031215614a1957600080fd5b614a2161475b565b82358152602083013582811115614a3757600080fd5b614a438a8286016147ea565b602083015250604083013582811115614a5b57600080fd5b614a678a828601614864565b604083015250606083013582811115614a7f57600080fd5b614a8b8a828601614864565b606083015250608083013582811115614aa357600080fd5b614aaf8a828601614864565b60808301525060a083013582811115614ac757600080fd5b614ad38a828601614864565b60a08301525060c083013582811115614aeb57600080fd5b614af78a828601614864565b60c08301525060e083013582811115614b0f57600080fd5b614b1b8a828601614864565b60e0830152506101008084013583811115614b3557600080fd5b614b418b8287016148f1565b8284015250506101208084013583811115614b5b57600080fd5b614b678b8287016147ea565b828401525050809550505050614b7f604086016147df565b9396929550929360600135925050565b600060208284031215614ba157600080fd5b8135611b51816147ca565b6000806101608385031215614bc057600080fd5b8235614bcb816147ca565b9150614bda8460208501614695565b90509250929050565b60008060408385031215614bf657600080fd5b8235614c01816147ca565b946020939093013593505050565b6020808252601f908201527f5265656e7472616e637947756172643a207265656e7472616e742063616c6c00604082015260600190565b6000808335601e19843603018112614c5d57600080fd5b83016020810192503590506001600160401b03811115614c7c57600080fd5b8060051b3603821315614c8e57600080fd5b9250929050565b8183526000602080850194508260005b85811015614cd3578135614cb8816147ca565b6001600160a01b031687529582019590820190600101614ca5565b509495945050505050565b81835260006001600160fb1b03831115614cf757600080fd5b8260051b80836020870137939093016020019392505050565b81835281816020850137506000828201602090810191909152601f909101601f19169091010190565b81835260006020808501808196508560051b810191508460005b87811015614dbd5782840389528135601e19883603018112614d7457600080fd5b870185810190356001600160401b03811115614d8f57600080fd5b803603821315614d9e57600080fd5b614da9868284614d10565b9a87019a9550505090840190600101614d53565b5091979650505050505050565b84815260806020820152833560808201526000614dea6020860186614c46565b6101408060a0860152614e026101c086018385614c95565b9250614e116040890189614c46565b9250607f19808786030160c0880152614e2b858584614cde565b9450614e3a60608b018b614c46565b94509150808786030160e0880152614e53858584614cde565b9450614e6260808b018b614c46565b94509150610100818887030181890152614e7d868685614cde565b9550614e8c60a08c018c614c46565b955092506101208289880301818a0152614ea7878786614cde565b9650614eb660c08d018d614c46565b965093508289880301858a0152614ece878786614cde565b9650614edd60e08d018d614c46565b9650945082898803016101608a0152614ef7878787614cde565b9650614f05828d018d614c46565b9650945082898803016101808a0152614f1f878787614d39565b9650614f2d818d018d614c46565b96509450505080878603016101a08801525050614f4b838383614c95565b9350505050614f5d6040830185614674565b82606083015295945050505050565b600060033d1115614f855760046000803e5060005160e01c5b90565b600060443d1015614f965790565b6040516003193d81016004833e81513d6001600160401b038083116024840183101715614fc557505050505090565b8285019150815181811115614fdd5750505050505090565b843d8701016020828501011115614ff75750505050505090565b6150066020828601018761472f565b509095945050505050565b60005b8381101561502c578181015183820152602001615014565b50506000910152565b6000815180845261504d816020860160208601615011565b601f01601f19169290920160200192915050565b602081526000611b516020830184615035565b600081518084526020808501945080840160005b83811015614cd35781516001600160a01b031687529582019590820190600101615088565b600081518084526020808501945080840160005b83811015614cd3578151875295820195908201906001016150c1565b600081518084526020808501808196508360051b8101915082860160005b85811015614dbd578284038952615113848351615035565b988501989350908401906001016150fb565b600060018060a01b038086168352808516602084015250606060408301528251606083015260208301516101408060808501526151666101a0850183615074565b91506040850151605f19808685030160a087015261518484836150ad565b935060608701519150808685030160c08701526151a184836150ad565b935060808701519150808685030160e08701526151be84836150ad565b935060a087015191506101008187860301818801526151dd85846150ad565b945060c088015192506101208288870301818901526151fc86856150ad565b955060e0890151935082888703018589015261521886856150ad565b9550818901519450828887030161016089015261523586866150dd565b95508089015194505050808685030161018087015250506136108282615074565b6020808252600a908201526921a7a72a2927a62622a960b11b604082015260600190565b80151581146109a357600080fd5b8035613eef8161527a565b600061014082840312156152a657600080fd5b6152ae61475b565b6152b7836147df565b81526152c5602084016147df565b60208201526152d6604084016147df565b6040820152606083013560608201526080830135608082015260a083013560a082015260c083013560c082015261530f60e08401615288565b60e08201526101008381013590820152610120928301359281019290925250919050565b6001600160a01b03929092168252602082015260400190565b8051613eef8161527a565b60006020828403121561536957600080fd5b8151611b518161527a565b6001600160a01b0383168152604060208201819052600090611ddb90830184615035565b8051613eef816147ca565b600082601f8301126153b457600080fd5b81516153bf816148ca565b6040516153cc828261472f565b8281528560208487010111156153e157600080fd5b613a13836020830160208801615011565b60006020828403121561540457600080fd5b81516001600160401b038082111561541b57600080fd5b908301906101a0828603121561543057600080fd5b615438614784565b61544183615398565b815261544f60208401615398565b602082015261546060408401615398565b604082015261547160608401615398565b60608201526080830151608082015260a083015160a082015260c083015160c082015260e083015160e08201526101008084015181830152506101206154b881850161534c565b908201526101408381015190820152610160808401519082015261018080840151838111156154e657600080fd5b6154f2888287016153a3565b918301919091525095945050505050565b60208082526021908201527f5769746864726177616c5574696c733a20656d707479207769746864726177616040820152601b60fa1b606082015260800190565b6001600160a01b0396871681529486166020860152604085019390935260608401919091528316608083015290911660a082015260c00190565b634e487b7160e01b600052603260045260246000fd5b634e487b7160e01b600052601160045260246000fd5b6000600182016155bc576155bc615594565b5060010190565b6000602082840312156155d557600080fd5b81516001600160401b03808211156155ec57600080fd5b9083019060a0828603121561560057600080fd5b60405161560c8161470a565b8251615617816147ca565b81526020830151615627816147ca565b6020820152604083015161563a816147ca565b6040820152606083015161564d816147ca565b606082015260808301518281111561566457600080fd5b615670878286016153a3565b60808301525095945050505050565b60006040828403121561569157600080fd5b604080519081016001600160401b03811182821017156156b3576156b36146f4565b604052825181526020928301519281019290925250919050565b6000600160ff1b82016156e2576156e2615594565b5060000390565b80820180821115610f1457610f14615594565b60006001600160ff1b038184138284138082168684048611161561572257615722615594565b600160ff1b600087128281168783058912161561574157615741615594565b6000871292508782058712848416161561575d5761575d615594565b8785058712818416161561577357615773615594565b505050929093029392505050565b634e487b7160e01b600052601260045260246000fd5b6000826157a6576157a6615781565b600160ff1b8214600019841416156157c0576157c0615594565b500590565b918252602082015260400190565b6000602082840312156157e557600080fd5b5051919050565b82815260406020820152615804604082018351614674565b600060208301516158186060840182614674565b50604083015161582b6080840182614674565b50606083015161583e60a0840182614674565b50608083015160c083015260a083015160e083015260c0830151610100818185015260e08501519150610120828186015281860151925061014091508282860152808601519250506101606158968186018415159052565b9085015161018085810191909152908501516101a080860191909152908501516101c08501919091529050613a136101e0840182615035565b6000826158de576158de615781565b500490565b60008160001904831182151516156158fd576158fd615594565b500290565b81810381811115610f1457610f14615594565b60006020828403121561592757600080fd5b8151611b51816147ca565b808201828112600083128015821682158216171561595257615952615594565b505092915050565b6001600160a01b0394851681529290931660208301526040820152606081019190915260800190565b81810360008312801583831316838312821617156159a3576159a3615594565b509291505056fea26469706673582212206202cbca8f5b2ad497c63813a9b88be024247d111d4cd8b5ad3374c0d06063b864736f6c63430008100033",
  "libraries": {
    "GasUtils": "0xF357Db64724a5f79198E693108cB34A99bb2dae6"
  },
  "devdoc": {
    "kind": "dev",
    "methods": {},
    "version": 1
  },
  "userdoc": {
    "errors": {
      "PRBMathUD60x18__Exp2InputTooBig(uint256)": [
        {
          "notice": "Emitted when the input is greater than 192."
        }
      ],
      "PRBMathUD60x18__LogInputTooSmall(uint256)": [
        {
          "notice": "Emitted when the input is less than 1."
        }
      ],
      "PRBMath__MulDivFixedPointOverflow(uint256)": [
        {
          "notice": "Emitted when the result overflows uint256."
        }
      ]
    },
    "kind": "user",
    "methods": {},
    "version": 1
  },
  "storageLayout": {
    "storage": [
      {
        "astId": 10,
        "contract": "contracts/exchange/WithdrawalHandler.sol:WithdrawalHandler",
        "label": "_status",
        "offset": 0,
        "slot": "0",
        "type": "t_uint256"
      },
      {
        "astId": 12130,
        "contract": "contracts/exchange/WithdrawalHandler.sol:WithdrawalHandler",
        "label": "gov",
        "offset": 0,
        "slot": "1",
        "type": "t_address"
      }
    ],
    "types": {
      "t_address": {
        "encoding": "inplace",
        "label": "address",
        "numberOfBytes": "20"
      },
      "t_uint256": {
        "encoding": "inplace",
        "label": "uint256",
        "numberOfBytes": "32"
      }
    }
  }
}