{
  "address": "0x4Dc46DE49D598A07c33B23Ed375642B7FE50416b",
  "abi": [
    {
      "inputs": [
        {
          "internalType": "contract RoleStore",
          "name": "_roleStore",
          "type": "address"
        },
        {
          "internalType": "contract DataStore",
          "name": "_dataStore",
          "type": "address"
        }
      ],
      "stateMutability": "nonpayable",
      "type": "constructor"
    },
    {
      "inputs": [
        {
          "internalType": "address",
          "name": "receiver",
          "type": "address"
        },
        {
          "internalType": "uint256",
          "name": "amount",
          "type": "uint256"
        }
      ],
      "name": "NativeTokenTransferError",
      "type": "error"
    },
    {
      "inputs": [
        {
          "internalType": "address",
          "name": "token",
          "type": "address"
        },
        {
          "internalType": "address",
          "name": "receiver",
          "type": "address"
        },
        {
          "internalType": "uint256",
          "name": "amount",
          "type": "uint256"
        }
      ],
      "name": "TokenTransferError",
      "type": "error"
    },
    {
      "inputs": [
        {
          "internalType": "address",
          "name": "msgSender",
          "type": "address"
        },
        {
          "internalType": "string",
          "name": "role",
          "type": "string"
        }
      ],
      "name": "Unauthorized",
      "type": "error"
    },
    {
      "anonymous": false,
      "inputs": [
        {
          "indexed": false,
          "internalType": "address",
          "name": "prevGov",
          "type": "address"
        },
        {
          "indexed": false,
          "internalType": "address",
          "name": "nextGov",
          "type": "address"
        }
      ],
      "name": "SetGov",
      "type": "event"
    },
    {
      "inputs": [
        {
          "internalType": "bytes32",
          "name": "key",
          "type": "bytes32"
        }
      ],
      "name": "contains",
      "outputs": [
        {
          "internalType": "bool",
          "name": "",
          "type": "bool"
        }
      ],
      "stateMutability": "view",
      "type": "function"
    },
    {
      "inputs": [],
      "name": "dataStore",
      "outputs": [
        {
          "internalType": "contract DataStore",
          "name": "",
          "type": "address"
        }
      ],
      "stateMutability": "view",
      "type": "function"
    },
    {
      "inputs": [
        {
          "internalType": "bytes32",
          "name": "key",
          "type": "bytes32"
        }
      ],
      "name": "get",
      "outputs": [
        {
          "components": [
            {
              "components": [
                {
                  "internalType": "address",
                  "name": "account",
                  "type": "address"
                },
                {
                  "internalType": "address",
                  "name": "receiver",
                  "type": "address"
                },
                {
                  "internalType": "address",
                  "name": "callbackContract",
                  "type": "address"
                },
                {
                  "internalType": "address",
                  "name": "market",
                  "type": "address"
                }
              ],
              "internalType": "struct Withdrawal.Addresses",
              "name": "addresses",
              "type": "tuple"
            },
            {
              "components": [
                {
                  "internalType": "uint256",
                  "name": "marketTokenAmount",
                  "type": "uint256"
                },
                {
                  "internalType": "uint256",
                  "name": "minLongTokenAmount",
                  "type": "uint256"
                },
                {
                  "internalType": "uint256",
                  "name": "minShortTokenAmount",
                  "type": "uint256"
                },
                {
                  "internalType": "uint256",
                  "name": "updatedAtBlock",
                  "type": "uint256"
                },
                {
                  "internalType": "uint256",
                  "name": "executionFee",
                  "type": "uint256"
                },
                {
                  "internalType": "uint256",
                  "name": "callbackGasLimit",
                  "type": "uint256"
                }
              ],
              "internalType": "struct Withdrawal.Numbers",
              "name": "numbers",
              "type": "tuple"
            },
            {
              "components": [
                {
                  "internalType": "bool",
                  "name": "shouldUnwrapNativeToken",
                  "type": "bool"
                }
              ],
              "internalType": "struct Withdrawal.Flags",
              "name": "flags",
              "type": "tuple"
            },
            {
              "internalType": "bytes",
              "name": "data",
              "type": "bytes"
            }
          ],
          "internalType": "struct Withdrawal.Props",
          "name": "",
          "type": "tuple"
        }
      ],
      "stateMutability": "view",
      "type": "function"
    },
    {
      "inputs": [],
      "name": "getWithdrawalCount",
      "outputs": [
        {
          "internalType": "uint256",
          "name": "",
          "type": "uint256"
        }
      ],
      "stateMutability": "view",
      "type": "function"
    },
    {
      "inputs": [
        {
          "internalType": "uint256",
          "name": "start",
          "type": "uint256"
        },
        {
          "internalType": "uint256",
          "name": "end",
          "type": "uint256"
        }
      ],
      "name": "getWithdrawalKeys",
      "outputs": [
        {
          "internalType": "bytes32[]",
          "name": "",
          "type": "bytes32[]"
        }
      ],
      "stateMutability": "view",
      "type": "function"
    },
    {
      "inputs": [],
      "name": "gov",
      "outputs": [
        {
          "internalType": "address",
          "name": "",
          "type": "address"
        }
      ],
      "stateMutability": "view",
      "type": "function"
    },
    {
      "inputs": [
        {
          "internalType": "address",
          "name": "token",
          "type": "address"
        }
      ],
      "name": "recordTransferIn",
      "outputs": [
        {
          "internalType": "uint256",
          "name": "",
          "type": "uint256"
        }
      ],
      "stateMutability": "nonpayable",
      "type": "function"
    },
    {
      "inputs": [
        {
          "internalType": "address payable",
          "name": "receiver",
          "type": "address"
        },
        {
          "internalType": "uint256",
          "name": "amount",
          "type": "uint256"
        }
      ],
      "name": "recoverNativeToken",
      "outputs": [],
      "stateMutability": "nonpayable",
      "type": "function"
    },
    {
      "inputs": [
        {
          "internalType": "bytes32",
          "name": "key",
          "type": "bytes32"
        }
      ],
      "name": "remove",
      "outputs": [],
      "stateMutability": "nonpayable",
      "type": "function"
    },
    {
      "inputs": [],
      "name": "roleStore",
      "outputs": [
        {
          "internalType": "contract RoleStore",
          "name": "",
          "type": "address"
        }
      ],
      "stateMutability": "view",
      "type": "function"
    },
    {
      "inputs": [
        {
          "internalType": "bytes32",
          "name": "key",
          "type": "bytes32"
        },
        {
          "components": [
            {
              "components": [
                {
                  "internalType": "address",
                  "name": "account",
                  "type": "address"
                },
                {
                  "internalType": "address",
                  "name": "receiver",
                  "type": "address"
                },
                {
                  "internalType": "address",
                  "name": "callbackContract",
                  "type": "address"
                },
                {
                  "internalType": "address",
                  "name": "market",
                  "type": "address"
                }
              ],
              "internalType": "struct Withdrawal.Addresses",
              "name": "addresses",
              "type": "tuple"
            },
            {
              "components": [
                {
                  "internalType": "uint256",
                  "name": "marketTokenAmount",
                  "type": "uint256"
                },
                {
                  "internalType": "uint256",
                  "name": "minLongTokenAmount",
                  "type": "uint256"
                },
                {
                  "internalType": "uint256",
                  "name": "minShortTokenAmount",
                  "type": "uint256"
                },
                {
                  "internalType": "uint256",
                  "name": "updatedAtBlock",
                  "type": "uint256"
                },
                {
                  "internalType": "uint256",
                  "name": "executionFee",
                  "type": "uint256"
                },
                {
                  "internalType": "uint256",
                  "name": "callbackGasLimit",
                  "type": "uint256"
                }
              ],
              "internalType": "struct Withdrawal.Numbers",
              "name": "numbers",
              "type": "tuple"
            },
            {
              "components": [
                {
                  "internalType": "bool",
                  "name": "shouldUnwrapNativeToken",
                  "type": "bool"
                }
              ],
              "internalType": "struct Withdrawal.Flags",
              "name": "flags",
              "type": "tuple"
            },
            {
              "internalType": "bytes",
              "name": "data",
              "type": "bytes"
            }
          ],
          "internalType": "struct Withdrawal.Props",
          "name": "withdrawal",
          "type": "tuple"
        }
      ],
      "name": "set",
      "outputs": [],
      "stateMutability": "nonpayable",
      "type": "function"
    },
    {
      "inputs": [
        {
          "internalType": "address",
          "name": "_gov",
          "type": "address"
        }
      ],
      "name": "setGov",
      "outputs": [],
      "stateMutability": "nonpayable",
      "type": "function"
    },
    {
      "inputs": [
        {
          "internalType": "address",
          "name": "",
          "type": "address"
        }
      ],
      "name": "tokenBalances",
      "outputs": [
        {
          "internalType": "uint256",
          "name": "",
          "type": "uint256"
        }
      ],
      "stateMutability": "view",
      "type": "function"
    },
    {
      "inputs": [
        {
          "internalType": "address",
          "name": "token",
          "type": "address"
        },
        {
          "internalType": "address",
          "name": "receiver",
          "type": "address"
        },
        {
          "internalType": "uint256",
          "name": "amount",
          "type": "uint256"
        }
      ],
      "name": "transferOut",
      "outputs": [],
      "stateMutability": "nonpayable",
      "type": "function"
    },
    {
      "inputs": [
        {
          "internalType": "address",
          "name": "token",
          "type": "address"
        },
        {
          "internalType": "address",
          "name": "receiver",
          "type": "address"
        },
        {
          "internalType": "uint256",
          "name": "amount",
          "type": "uint256"
        },
        {
          "internalType": "bool",
          "name": "shouldUnwrapNativeToken",
          "type": "bool"
        }
      ],
      "name": "transferOut",
      "outputs": [],
      "stateMutability": "nonpayable",
      "type": "function"
    },
    {
      "inputs": [
        {
          "internalType": "address",
          "name": "receiver",
          "type": "address"
        },
        {
          "internalType": "uint256",
          "name": "amount",
          "type": "uint256"
        }
      ],
      "name": "transferOutNativeToken",
      "outputs": [],
      "stateMutability": "nonpayable",
      "type": "function"
    },
    {
      "inputs": [
        {
          "internalType": "bytes32",
          "name": "",
          "type": "bytes32"
        }
      ],
      "name": "withdrawals",
      "outputs": [
        {
          "components": [
            {
              "internalType": "address",
              "name": "account",
              "type": "address"
            },
            {
              "internalType": "address",
              "name": "receiver",
              "type": "address"
            },
            {
              "internalType": "address",
              "name": "callbackContract",
              "type": "address"
            },
            {
              "internalType": "address",
              "name": "market",
              "type": "address"
            }
          ],
          "internalType": "struct Withdrawal.Addresses",
          "name": "addresses",
          "type": "tuple"
        },
        {
          "components": [
            {
              "internalType": "uint256",
              "name": "marketTokenAmount",
              "type": "uint256"
            },
            {
              "internalType": "uint256",
              "name": "minLongTokenAmount",
              "type": "uint256"
            },
            {
              "internalType": "uint256",
              "name": "minShortTokenAmount",
              "type": "uint256"
            },
            {
              "internalType": "uint256",
              "name": "updatedAtBlock",
              "type": "uint256"
            },
            {
              "internalType": "uint256",
              "name": "executionFee",
              "type": "uint256"
            },
            {
              "internalType": "uint256",
              "name": "callbackGasLimit",
              "type": "uint256"
            }
          ],
          "internalType": "struct Withdrawal.Numbers",
          "name": "numbers",
          "type": "tuple"
        },
        {
          "components": [
            {
              "internalType": "bool",
              "name": "shouldUnwrapNativeToken",
              "type": "bool"
            }
          ],
          "internalType": "struct Withdrawal.Flags",
          "name": "flags",
          "type": "tuple"
        },
        {
          "internalType": "bytes",
          "name": "data",
          "type": "bytes"
        }
      ],
      "stateMutability": "view",
      "type": "function"
    },
    {
      "stateMutability": "payable",
      "type": "receive"
    }
  ],
  "transactionHash": "0x0aa14aab0408e41f2c0dd76b8606bc8bf088e3f566ea70c745a7c38d11bf44c7",
  "args": [
    "0x8104B593e5C1C85A4eAfCac1D52490999422A6bA",
    "0x5e89630c7c103E01eE1881959a092BD0642325f7"
  ],
  "numDeployments": 7,
  "solcInputHash": "b420999f64204580e810139beaa34cd4",
  "bytecode": "0x60c06040523480156200001157600080fd5b506040516200200e3803806200200e8339810160408190526200003491620000e0565b81818181818181620000463362000066565b6001600160a01b039081166080521660a052506200011f95505050505050565b600080546001600160a01b038381166001600160a01b031983168117909355604080519190921680825260208201939093527f53351836099c03ffc3b1727d8abd4b0222afa87d4ed76ae3102d51369ef7f785910160405180910390a15050565b6001600160a01b0381168114620000dd57600080fd5b50565b60008060408385031215620000f457600080fd5b82516200010181620000c7565b60208401519092506200011481620000c7565b809150509250929050565b60805160a051611e9f6200016f6000396000818161025401528181610414015281816104c80152818161087c01528181610ac30152610bd90152600081816101c601526109fd0152611e9f6000f3fe6080604052600436106100d25760003560e01c8063078d3b79146100de57806312d43a51146101005780631d1a696d146101365780632fb1260514610166578063352f9aed146101865780634a4a7b04146101b4578063523fba7f146101e8578063556c4c4414610215578063660d0d67146102425780636bd3d45114610276578063781952a8146102965780638eaa6ac0146102ab57806395bc2673146102d8578063ba76abf3146102f8578063cfad57a214610318578063d443ca9414610338578063efbf64a71461035857600080fd5b366100d957005b600080fd5b3480156100ea57600080fd5b506100fe6100f936600461163a565b610388565b005b34801561010c57600080fd5b50600054610120906001600160a01b031681565b60405161012d919061167b565b60405180910390f35b34801561014257600080fd5b5061015661015136600461168f565b6103e8565b604051901515815260200161012d565b34801561017257600080fd5b506100fe6101813660046116b6565b6103fb565b34801561019257600080fd5b506101a66101a1366004611709565b61047f565b60405190815260200161012d565b3480156101c057600080fd5b506101207f000000000000000000000000000000000000000000000000000000000000000081565b3480156101f457600080fd5b506101a6610203366004611709565b60016020526000908152604090205481565b34801561022157600080fd5b50610235610230366004611726565b61049c565b60405161012d9190611748565b34801561024e57600080fd5b506101207f000000000000000000000000000000000000000000000000000000000000000081565b34801561028257600080fd5b506100fe61029136600461178c565b6104b1565b3480156102a257600080fd5b506101a66104f2565b3480156102b757600080fd5b506102cb6102c636600461168f565b610503565b60405161012d9190611875565b3480156102e457600080fd5b506100fe6102f336600461168f565b61066b565b34801561030457600080fd5b506100fe610313366004611a54565b61070e565b34801561032457600080fd5b506100fe610333366004611709565b610809565b34801561034457600080fd5b506100fe61035336600461178c565b610863565b34801561036457600080fd5b5061037861037336600461168f565b6108ad565b60405161012d9493929190611b5d565b6103d860405160200161039a90611ba1565b604051602081830303815290604052805190602001206040518060400160405280600a81526020016921a7a72a2927a62622a960b11b8152506109e6565b6103e3838383610a96565b505050565b60006103f5600383610af3565b92915050565b61040d60405160200161039a90611ba1565b60006104387f0000000000000000000000000000000000000000000000000000000000000000610aff565b9050806001600160a01b0316856001600160a01b03161480156104585750815b1561046d57610468858585610bac565b610478565b610478858585610a96565b5050505050565b600061049360405160200161039a90611ba1565b6103f582610c00565b60606104aa60038484610cb1565b9392505050565b6104c360405160200161039a90611ba1565b6104ee7f00000000000000000000000000000000000000000000000000000000000000008383610d71565b5050565b60006104fe6003610f28565b905090565b61050b611550565b60008281526002602081815260409283902083516101008101855281546001600160a01b0390811660808084019182526001850154831660a08086019190915296850154831660c080860191909152600386015490931660e0850152908352865191820187526004840154825260058401548286015260068401548288015260078401546060808401919091526008850154918301919091526009840154958201959095528184015284519283018552600a82015460ff161515835293840191909152600b8101805491928401916105e290611bc5565b80601f016020809104026020016040519081016040528092919081815260200182805461060e90611bc5565b801561065b5780601f106106305761010080835404028352916020019161065b565b820191906000526020600020905b81548152906001019060200180831161063e57829003601f168201915b5050505050815250509050919050565b61067d60405160200161039a90611ba1565b6000818152600260208190526040822080546001600160a01b0319908116825560018201805482169055918101805483169055600381018054909216909155600481018290556005810182905560068101829055600781018290556008810182905560098101829055600a8101805460ff1916905590610700600b8301826115d7565b506104ee9050600382610f32565b61072060405160200161039a90611ba1565b6000828152600260208181526040928390208451805182546001600160a01b03199081166001600160a01b0392831617845582850151600185018054831691841691909117905582870151958401805482169683169690961790955560609182015160038401805490961691161790935584820151805160048301559182015160058201558184015160068201558183015160078201556080820151600882015560a09091015160098201559183015151600a8301805460ff1916911515919091179055820151829190600b8201906107f99082611c4d565b506103e391506003905083610f3e565b6000546001600160a01b03163314610857576040805163a35b150b60e01b81523360048201526024810191909152600360448201526223a7ab60e91b60648201526084015b60405180910390fd5b61086081610f4a565b50565b61087560405160200161039a90611ba1565b60006108a07f0000000000000000000000000000000000000000000000000000000000000000610aff565b90506103e3818484610bac565b60026020818152600092835260409283902083516080808201865282546001600160a01b0390811683526001840154811683860152948301548516828701526003830154909416606080830191909152855160c08101875260048401548152600584015481860152600684015481880152600784015491810191909152600883015494810194909452600982015460a08501528451928301909452600a81015460ff1615158252600b8101805461096390611bc5565b80601f016020809104026020016040519081016040528092919081815260200182805461098f90611bc5565b80156109dc5780601f106109b1576101008083540402835291602001916109dc565b820191906000526020600020905b8154815290600101906020018083116109bf57829003601f168201915b5050505050905084565b60405163ac4ab3fb60e01b81526001600160a01b037f0000000000000000000000000000000000000000000000000000000000000000169063ac4ab3fb90610a349033908690600401611d0c565b602060405180830381865afa158015610a51573d6000803e3d6000fd5b505050506040513d601f19601f82011682018060405250810190610a759190611d25565b6104ee57338160405163a35b150b60e01b815260040161084e929190611d42565b306001600160a01b03831603610abe5760405162461bcd60e51b815260040161084e90611d66565b610aea7f0000000000000000000000000000000000000000000000000000000000000000848484610fab565b6103e3836110e1565b60006104aa838361116a565b6000816001600160a01b03166321f8a721604051602001610b379060208082526003908201526215d39560ea1b604082015260600190565b604051602081830303815290604052805190602001206040518263ffffffff1660e01b8152600401610b6b91815260200190565b602060405180830381865afa158015610b88573d6000803e3d6000fd5b505050506040513d601f19601f820116820180604052508101906103f59190611d96565b306001600160a01b03831603610bd45760405162461bcd60e51b815260040161084e90611d66565b610aea7f0000000000000000000000000000000000000000000000000000000000000000848484611182565b6001600160a01b0381166000818152600160205260408082205490516370a0823160e01b8152919290918391906370a0823190610c4190309060040161167b565b602060405180830381865afa158015610c5e573d6000803e3d6000fd5b505050506040513d601f19601f82011682018060405250810190610c829190611db3565b6001600160a01b03851660009081526001602052604090208190559050610ca98282611de2565b949350505050565b60606000610cbe85610f28565b905080831115610ccc578092505b6000610cd88585611de2565b6001600160401b03811115610cef57610cef6118c4565b604051908082528060200260200182016040528015610d18578160200160208202803683370190505b509050845b84811015610d6757610d2f87826111ed565b82610d3a8884611de2565b81518110610d4a57610d4a611df5565b602090810291909101015280610d5f81611e0b565b915050610d1d565b5095945050505050565b80600003610d7e57505050565b6000836001600160a01b031663bd02d0f5604051602001610dd0906020808252601f908201527f4e41544956455f544f4b454e5f5452414e534645525f4741535f4c494d495400604082015260600190565b604051602081830303815290604052805190602001206040518263ffffffff1660e01b8152600401610e0491815260200190565b602060405180830381865afa158015610e21573d6000803e3d6000fd5b505050506040513d601f19601f82011682018060405250810190610e459190611db3565b9050600080846001600160a01b0316848490604051600060405180830381858888f193505050503d8060008114610e98576040519150601f19603f3d011682016040523d82523d6000602084013e610e9d565b606091505b50915091508115610eb057505050505050565b600081604051602001610ec39190611e24565b60405160208183030381529060405290507f6c4e9d88878940a822d239187b8b00d62a80dce222d53bc5f1fb072d9c34b68181604051610f039190611e24565b60405180910390a18585604051633828654560e11b815260040161084e929190611d0c565b60006103f5825490565b60006104aa83836111f9565b60006104aa83836112ec565b600080546001600160a01b038381166001600160a01b031983168117909355604080519190921680825260208201939093527f53351836099c03ffc3b1727d8abd4b0222afa87d4ed76ae3102d51369ef7f785910160405180910390a15050565b80156110db576000846001600160a01b031663bd02d0f5610fcb86611336565b6040518263ffffffff1660e01b8152600401610fe991815260200190565b602060405180830381865afa158015611006573d6000803e3d6000fd5b505050506040513d601f19601f8201168201806040525081019061102a9190611db3565b905060008061103b868686866113be565b91509150811561104d575050506110db565b6000816040516020016110609190611e24565b60405160208183030381529060405290507f9db60cdf21cde7f760995e23662841725e6aa63be48799796db12b7b2e6b17e2816040516110a09190611e24565b60405180910390a160405163012f3b8f60e71b81526001600160a01b038089166004830152871660248201526044810186905260640161084e565b50505050565b6040516370a0823160e01b81526001600160a01b038216906370a082319061110d90309060040161167b565b602060405180830381865afa15801561112a573d6000803e3d6000fd5b505050506040513d601f19601f8201168201806040525081019061114e9190611db3565b6001600160a01b03909116600090815260016020526040902055565b60009081526001919091016020526040902054151590565b80156110db57604051632e1a7d4d60e01b8152600481018290526001600160a01b03841690632e1a7d4d90602401600060405180830381600087803b1580156111ca57600080fd5b505af11580156111de573d6000803e3d6000fd5b505050506110db848383610d71565b60006104aa8383611526565b600081815260018301602052604081205480156112e257600061121d600183611de2565b855490915060009061123190600190611de2565b905081811461129657600086600001828154811061125157611251611df5565b906000526020600020015490508087600001848154811061127457611274611df5565b6000918252602080832090910192909255918252600188019052604090208390555b85548690806112a7576112a7611e37565b6001900381819060005260206000200160009055905585600101600086815260200190815260200160002060009055600193505050506103f5565b60009150506103f5565b60006112f8838361116a565b61132e575081546001818101845560008481526020808220909301849055845484825282860190935260409020919091556103f5565b5060006103f5565b6000604051602001611374906020808252601890820152771513d2d15397d514905394d1915497d1d054d7d31253525560421b604082015260600190565b60408051601f198184030181528282528051602091820120908301526001600160a01b03841690820152606001604051602081830303815290604052805190602001209050919050565b60006060600063a9059cbb60e01b86866040516024016113df929190611d0c565b604051602081830303815290604052906001600160e01b0319166020820180516001600160e01b0383818316178352505050509050600080886001600160a01b031686846040516114309190611e4d565b60006040518083038160008787f1925050503d806000811461146e576040519150601f19603f3d011682016040523d82523d6000602084013e611473565b606091505b509150915081156115145780516000036114d1576001600160a01b0389163b6114d15760006040518060400160405280601481526020017310d85b1b081d1bc81b9bdb8b58dbdb9d1c9858dd60621b8152509450945050505061151d565b600081511180156114f35750808060200190518101906114f19190611d25565b155b156115065760009450925061151d915050565b60019450925061151d915050565b60009450925050505b94509492505050565b600082600001828154811061153d5761153d611df5565b9060005260206000200154905092915050565b60408051610100810190915260006080820181815260a0830182905260c0830182905260e0830191909152819081526020016115bb6040518060c001604052806000815260200160008152602001600081526020016000815260200160008152602001600081525090565b8152604080516020808201835260008252830152606091015290565b5080546115e390611bc5565b6000825580601f106115f3575050565b601f01602090049060005260206000209081019061086091905b80821115611621576000815560010161160d565b5090565b6001600160a01b038116811461086057600080fd5b60008060006060848603121561164f57600080fd5b833561165a81611625565b9250602084013561166a81611625565b929592945050506040919091013590565b6001600160a01b0391909116815260200190565b6000602082840312156116a157600080fd5b5035919050565b801515811461086057600080fd5b600080600080608085870312156116cc57600080fd5b84356116d781611625565b935060208501356116e781611625565b92506040850135915060608501356116fe816116a8565b939692955090935050565b60006020828403121561171b57600080fd5b81356104aa81611625565b6000806040838503121561173957600080fd5b50508035926020909101359150565b6020808252825182820181905260009190848201906040850190845b8181101561178057835183529284019291840191600101611764565b50909695505050505050565b6000806040838503121561179f57600080fd5b82356117aa81611625565b946020939093013593505050565b80516001600160a01b03908116835260208083015182169084015260408083015182169084015260609182015116910152565b805182526020810151602083015260408101516040830152606081015160608301526080810151608083015260a081015160a08301525050565b60005b83811015611840578181015183820152602001611828565b50506000910152565b60008151808452611861816020860160208601611825565b601f01601f19169290920160200192915050565b602081526118876020820183516117b8565b6000602083015161189b60a08401826117eb565b506040830151511515610160830152606083015161018080840152610ca96101a0840182611849565b634e487b7160e01b600052604160045260246000fd5b604051608081016001600160401b03811182821017156118fc576118fc6118c4565b60405290565b600060c0828403121561191457600080fd5b60405160c081016001600160401b0381118282101715611936576119366118c4565b8060405250809150823581526020830135602082015260408301356040820152606083013560608201526080830135608082015260a083013560a08201525092915050565b60006020828403121561198d57600080fd5b604051602081016001600160401b03811182821017156119af576119af6118c4565b60405290508082356119c0816116a8565b905292915050565b600082601f8301126119d957600080fd5b81356001600160401b03808211156119f3576119f36118c4565b604051601f8301601f19908116603f01168101908282118183101715611a1b57611a1b6118c4565b81604052838152866020858801011115611a3457600080fd5b836020870160208301376000602085830101528094505050505092915050565b60008060408385031215611a6757600080fd5b8235915060208301356001600160401b0380821115611a8557600080fd5b90840190818603610180811215611a9b57600080fd5b611aa36118da565b6080821215611ab157600080fd5b611ab96118da565b91508335611ac681611625565b82526020840135611ad681611625565b60208301526040840135611ae981611625565b60408301526060840135611afc81611625565b6060830152818152611b118860808601611902565b6020820152611b2488610140860161197b565b6040820152610160840135915082821115611b3e57600080fd5b611b4a888386016119c8565b6060820152809450505050509250929050565b6000610180611b6c83886117b8565b611b7960808401876117eb565b8451151561014084015280610160840152611b9681840185611849565b979650505050505050565b6020808252600a908201526921a7a72a2927a62622a960b11b604082015260600190565b600181811c90821680611bd957607f821691505b602082108103611bf957634e487b7160e01b600052602260045260246000fd5b50919050565b601f8211156103e357600081815260208120601f850160051c81016020861015611c265750805b601f850160051c820191505b81811015611c4557828155600101611c32565b505050505050565b81516001600160401b03811115611c6657611c666118c4565b611c7a81611c748454611bc5565b84611bff565b602080601f831160018114611caf5760008415611c975750858301515b600019600386901b1c1916600185901b178555611c45565b600085815260208120601f198616915b82811015611cde57888601518255948401946001909101908401611cbf565b5085821015611cfc5787850151600019600388901b60f8161c191681555b5050505050600190811b01905550565b6001600160a01b03929092168252602082015260400190565b600060208284031215611d3757600080fd5b81516104aa816116a8565b6001600160a01b0383168152604060208201819052600090610ca990830184611849565b6020808252601690820152752130b7359d1034b73b30b634b2103932b1b2b4bb32b960511b604082015260600190565b600060208284031215611da857600080fd5b81516104aa81611625565b600060208284031215611dc557600080fd5b5051919050565b634e487b7160e01b600052601160045260246000fd5b818103818111156103f5576103f5611dcc565b634e487b7160e01b600052603260045260246000fd5b600060018201611e1d57611e1d611dcc565b5060010190565b6020815260006104aa6020830184611849565b634e487b7160e01b600052603160045260246000fd5b60008251611e5f818460208701611825565b919091019291505056fea2646970667358221220001ddcb24a07808e37a345ba09875b4ec238c140ca91e5407f1926dce721055564736f6c63430008100033",
  "devdoc": {
    "kind": "dev",
    "methods": {},
    "version": 1
  },
  "userdoc": {
    "kind": "user",
    "methods": {},
    "version": 1
  },
  "storageLayout": {
    "storage": [
      {
        "astId": 13988,
        "contract": "contracts/withdrawal/WithdrawalStore.sol:WithdrawalStore",
        "label": "gov",
        "offset": 0,
        "slot": "0",
        "type": "t_address"
      },
      {
        "astId": 5470,
        "contract": "contracts/withdrawal/WithdrawalStore.sol:WithdrawalStore",
        "label": "tokenBalances",
        "offset": 0,
        "slot": "1",
        "type": "t_mapping(t_address,t_uint256)"
      },
      {
        "astId": 36329,
        "contract": "contracts/withdrawal/WithdrawalStore.sol:WithdrawalStore",
        "label": "withdrawals",
        "offset": 0,
        "slot": "2",
        "type": "t_mapping(t_bytes32,t_struct(Props)35954_storage)"
      },
      {
        "astId": 36332,
        "contract": "contracts/withdrawal/WithdrawalStore.sol:WithdrawalStore",
        "label": "withdrawalKeys",
        "offset": 0,
        "slot": "3",
        "type": "t_struct(Bytes32Set)4137_storage"
      }
    ],
    "types": {
      "t_address": {
        "encoding": "inplace",
        "label": "address",
        "numberOfBytes": "20"
      },
      "t_array(t_bytes32)dyn_storage": {
        "base": "t_bytes32",
        "encoding": "dynamic_array",
        "label": "bytes32[]",
        "numberOfBytes": "32"
      },
      "t_bool": {
        "encoding": "inplace",
        "label": "bool",
        "numberOfBytes": "1"
      },
      "t_bytes32": {
        "encoding": "inplace",
        "label": "bytes32",
        "numberOfBytes": "32"
      },
      "t_bytes_storage": {
        "encoding": "bytes",
        "label": "bytes",
        "numberOfBytes": "32"
      },
      "t_mapping(t_address,t_uint256)": {
        "encoding": "mapping",
        "key": "t_address",
        "label": "mapping(address => uint256)",
        "numberOfBytes": "32",
        "value": "t_uint256"
      },
      "t_mapping(t_bytes32,t_struct(Props)35954_storage)": {
        "encoding": "mapping",
        "key": "t_bytes32",
        "label": "mapping(bytes32 => struct Withdrawal.Props)",
        "numberOfBytes": "32",
        "value": "t_struct(Props)35954_storage"
      },
      "t_mapping(t_bytes32,t_uint256)": {
        "encoding": "mapping",
        "key": "t_bytes32",
        "label": "mapping(bytes32 => uint256)",
        "numberOfBytes": "32",
        "value": "t_uint256"
      },
      "t_struct(Addresses)35963_storage": {
        "encoding": "inplace",
        "label": "struct Withdrawal.Addresses",
        "members": [
          {
            "astId": 35956,
            "contract": "contracts/withdrawal/WithdrawalStore.sol:WithdrawalStore",
            "label": "account",
            "offset": 0,
            "slot": "0",
            "type": "t_address"
          },
          {
            "astId": 35958,
            "contract": "contracts/withdrawal/WithdrawalStore.sol:WithdrawalStore",
            "label": "receiver",
            "offset": 0,
            "slot": "1",
            "type": "t_address"
          },
          {
            "astId": 35960,
            "contract": "contracts/withdrawal/WithdrawalStore.sol:WithdrawalStore",
            "label": "callbackContract",
            "offset": 0,
            "slot": "2",
            "type": "t_address"
          },
          {
            "astId": 35962,
            "contract": "contracts/withdrawal/WithdrawalStore.sol:WithdrawalStore",
            "label": "market",
            "offset": 0,
            "slot": "3",
            "type": "t_address"
          }
        ],
        "numberOfBytes": "128"
      },
      "t_struct(Bytes32Set)4137_storage": {
        "encoding": "inplace",
        "label": "struct EnumerableSet.Bytes32Set",
        "members": [
          {
            "astId": 4136,
            "contract": "contracts/withdrawal/WithdrawalStore.sol:WithdrawalStore",
            "label": "_inner",
            "offset": 0,
            "slot": "0",
            "type": "t_struct(Set)3943_storage"
          }
        ],
        "numberOfBytes": "64"
      },
      "t_struct(Flags)35979_storage": {
        "encoding": "inplace",
        "label": "struct Withdrawal.Flags",
        "members": [
          {
            "astId": 35978,
            "contract": "contracts/withdrawal/WithdrawalStore.sol:WithdrawalStore",
            "label": "shouldUnwrapNativeToken",
            "offset": 0,
            "slot": "0",
            "type": "t_bool"
          }
        ],
        "numberOfBytes": "32"
      },
      "t_struct(Numbers)35976_storage": {
        "encoding": "inplace",
        "label": "struct Withdrawal.Numbers",
        "members": [
          {
            "astId": 35965,
            "contract": "contracts/withdrawal/WithdrawalStore.sol:WithdrawalStore",
            "label": "marketTokenAmount",
            "offset": 0,
            "slot": "0",
            "type": "t_uint256"
          },
          {
            "astId": 35967,
            "contract": "contracts/withdrawal/WithdrawalStore.sol:WithdrawalStore",
            "label": "minLongTokenAmount",
            "offset": 0,
            "slot": "1",
            "type": "t_uint256"
          },
          {
            "astId": 35969,
            "contract": "contracts/withdrawal/WithdrawalStore.sol:WithdrawalStore",
            "label": "minShortTokenAmount",
            "offset": 0,
            "slot": "2",
            "type": "t_uint256"
          },
          {
            "astId": 35971,
            "contract": "contracts/withdrawal/WithdrawalStore.sol:WithdrawalStore",
            "label": "updatedAtBlock",
            "offset": 0,
            "slot": "3",
            "type": "t_uint256"
          },
          {
            "astId": 35973,
            "contract": "contracts/withdrawal/WithdrawalStore.sol:WithdrawalStore",
            "label": "executionFee",
            "offset": 0,
            "slot": "4",
            "type": "t_uint256"
          },
          {
            "astId": 35975,
            "contract": "contracts/withdrawal/WithdrawalStore.sol:WithdrawalStore",
            "label": "callbackGasLimit",
            "offset": 0,
            "slot": "5",
            "type": "t_uint256"
          }
        ],
        "numberOfBytes": "192"
      },
      "t_struct(Props)35954_storage": {
        "encoding": "inplace",
        "label": "struct Withdrawal.Props",
        "members": [
          {
            "astId": 35945,
            "contract": "contracts/withdrawal/WithdrawalStore.sol:WithdrawalStore",
            "label": "addresses",
            "offset": 0,
            "slot": "0",
            "type": "t_struct(Addresses)35963_storage"
          },
          {
            "astId": 35948,
            "contract": "contracts/withdrawal/WithdrawalStore.sol:WithdrawalStore",
            "label": "numbers",
            "offset": 0,
            "slot": "4",
            "type": "t_struct(Numbers)35976_storage"
          },
          {
            "astId": 35951,
            "contract": "contracts/withdrawal/WithdrawalStore.sol:WithdrawalStore",
            "label": "flags",
            "offset": 0,
            "slot": "10",
            "type": "t_struct(Flags)35979_storage"
          },
          {
            "astId": 35953,
            "contract": "contracts/withdrawal/WithdrawalStore.sol:WithdrawalStore",
            "label": "data",
            "offset": 0,
            "slot": "11",
            "type": "t_bytes_storage"
          }
        ],
        "numberOfBytes": "384"
      },
      "t_struct(Set)3943_storage": {
        "encoding": "inplace",
        "label": "struct EnumerableSet.Set",
        "members": [
          {
            "astId": 3938,
            "contract": "contracts/withdrawal/WithdrawalStore.sol:WithdrawalStore",
            "label": "_values",
            "offset": 0,
            "slot": "0",
            "type": "t_array(t_bytes32)dyn_storage"
          },
          {
            "astId": 3942,
            "contract": "contracts/withdrawal/WithdrawalStore.sol:WithdrawalStore",
            "label": "_indexes",
            "offset": 0,
            "slot": "1",
            "type": "t_mapping(t_bytes32,t_uint256)"
          }
        ],
        "numberOfBytes": "64"
      },
      "t_uint256": {
        "encoding": "inplace",
        "label": "uint256",
        "numberOfBytes": "32"
      }
    }
  }
}