{
  "address": "0xD305864e6F1a857b753528229e84f23cc0f1Ef08",
  "abi": [
    {
      "inputs": [
        {
          "internalType": "contract RoleStore",
          "name": "_roleStore",
          "type": "address"
        }
      ],
      "stateMutability": "nonpayable",
      "type": "constructor"
    },
    {
      "inputs": [
        {
          "internalType": "address",
          "name": "msgSender",
          "type": "address"
        },
        {
          "internalType": "string",
          "name": "role",
          "type": "string"
        }
      ],
      "name": "Unauthorized",
      "type": "error"
    },
    {
      "anonymous": false,
      "inputs": [
        {
          "indexed": false,
          "internalType": "address",
          "name": "prevGov",
          "type": "address"
        },
        {
          "indexed": false,
          "internalType": "address",
          "name": "nextGov",
          "type": "address"
        }
      ],
      "name": "SetGov",
      "type": "event"
    },
    {
      "inputs": [
        {
          "internalType": "bytes32",
          "name": "key",
          "type": "bytes32"
        }
      ],
      "name": "get",
      "outputs": [
        {
          "components": [
            {
              "internalType": "address",
              "name": "account",
              "type": "address"
            },
            {
              "internalType": "address",
              "name": "receiver",
              "type": "address"
            },
            {
              "internalType": "address",
              "name": "callbackContract",
              "type": "address"
            },
            {
              "internalType": "address",
              "name": "market",
              "type": "address"
            },
            {
              "internalType": "uint256",
              "name": "marketTokensLongAmount",
              "type": "uint256"
            },
            {
              "internalType": "uint256",
              "name": "marketTokensShortAmount",
              "type": "uint256"
            },
            {
              "internalType": "uint256",
              "name": "minLongTokenAmount",
              "type": "uint256"
            },
            {
              "internalType": "uint256",
              "name": "minShortTokenAmount",
              "type": "uint256"
            },
            {
              "internalType": "uint256",
              "name": "updatedAtBlock",
              "type": "uint256"
            },
            {
              "internalType": "bool",
              "name": "shouldUnwrapNativeToken",
              "type": "bool"
            },
            {
              "internalType": "uint256",
              "name": "executionFee",
              "type": "uint256"
            },
            {
              "internalType": "uint256",
              "name": "callbackGasLimit",
              "type": "uint256"
            },
            {
              "internalType": "bytes",
              "name": "data",
              "type": "bytes"
            }
          ],
          "internalType": "struct Withdrawal.Props",
          "name": "",
          "type": "tuple"
        }
      ],
      "stateMutability": "view",
      "type": "function"
    },
    {
      "inputs": [],
      "name": "getWithdrawalCount",
      "outputs": [
        {
          "internalType": "uint256",
          "name": "",
          "type": "uint256"
        }
      ],
      "stateMutability": "view",
      "type": "function"
    },
    {
      "inputs": [
        {
          "internalType": "uint256",
          "name": "start",
          "type": "uint256"
        },
        {
          "internalType": "uint256",
          "name": "end",
          "type": "uint256"
        }
      ],
      "name": "getWithdrawalKeys",
      "outputs": [
        {
          "internalType": "bytes32[]",
          "name": "",
          "type": "bytes32[]"
        }
      ],
      "stateMutability": "view",
      "type": "function"
    },
    {
      "inputs": [],
      "name": "gov",
      "outputs": [
        {
          "internalType": "address",
          "name": "",
          "type": "address"
        }
      ],
      "stateMutability": "view",
      "type": "function"
    },
    {
      "inputs": [
        {
          "internalType": "address",
          "name": "token",
          "type": "address"
        }
      ],
      "name": "recordTransferIn",
      "outputs": [
        {
          "internalType": "uint256",
          "name": "",
          "type": "uint256"
        }
      ],
      "stateMutability": "nonpayable",
      "type": "function"
    },
    {
      "inputs": [
        {
          "internalType": "address payable",
          "name": "receiver",
          "type": "address"
        },
        {
          "internalType": "uint256",
          "name": "amount",
          "type": "uint256"
        }
      ],
      "name": "recoverWnt",
      "outputs": [],
      "stateMutability": "nonpayable",
      "type": "function"
    },
    {
      "inputs": [
        {
          "internalType": "bytes32",
          "name": "key",
          "type": "bytes32"
        }
      ],
      "name": "remove",
      "outputs": [],
      "stateMutability": "nonpayable",
      "type": "function"
    },
    {
      "inputs": [],
      "name": "roleStore",
      "outputs": [
        {
          "internalType": "contract RoleStore",
          "name": "",
          "type": "address"
        }
      ],
      "stateMutability": "view",
      "type": "function"
    },
    {
      "inputs": [
        {
          "internalType": "bytes32",
          "name": "key",
          "type": "bytes32"
        },
        {
          "components": [
            {
              "internalType": "address",
              "name": "account",
              "type": "address"
            },
            {
              "internalType": "address",
              "name": "receiver",
              "type": "address"
            },
            {
              "internalType": "address",
              "name": "callbackContract",
              "type": "address"
            },
            {
              "internalType": "address",
              "name": "market",
              "type": "address"
            },
            {
              "internalType": "uint256",
              "name": "marketTokensLongAmount",
              "type": "uint256"
            },
            {
              "internalType": "uint256",
              "name": "marketTokensShortAmount",
              "type": "uint256"
            },
            {
              "internalType": "uint256",
              "name": "minLongTokenAmount",
              "type": "uint256"
            },
            {
              "internalType": "uint256",
              "name": "minShortTokenAmount",
              "type": "uint256"
            },
            {
              "internalType": "uint256",
              "name": "updatedAtBlock",
              "type": "uint256"
            },
            {
              "internalType": "bool",
              "name": "shouldUnwrapNativeToken",
              "type": "bool"
            },
            {
              "internalType": "uint256",
              "name": "executionFee",
              "type": "uint256"
            },
            {
              "internalType": "uint256",
              "name": "callbackGasLimit",
              "type": "uint256"
            },
            {
              "internalType": "bytes",
              "name": "data",
              "type": "bytes"
            }
          ],
          "internalType": "struct Withdrawal.Props",
          "name": "withdrawal",
          "type": "tuple"
        }
      ],
      "name": "set",
      "outputs": [],
      "stateMutability": "nonpayable",
      "type": "function"
    },
    {
      "inputs": [
        {
          "internalType": "address",
          "name": "_gov",
          "type": "address"
        }
      ],
      "name": "setGov",
      "outputs": [],
      "stateMutability": "nonpayable",
      "type": "function"
    },
    {
      "inputs": [
        {
          "internalType": "address",
          "name": "",
          "type": "address"
        }
      ],
      "name": "tokenBalances",
      "outputs": [
        {
          "internalType": "uint256",
          "name": "",
          "type": "uint256"
        }
      ],
      "stateMutability": "view",
      "type": "function"
    },
    {
      "inputs": [
        {
          "internalType": "address",
          "name": "token",
          "type": "address"
        },
        {
          "internalType": "uint256",
          "name": "amount",
          "type": "uint256"
        },
        {
          "internalType": "address",
          "name": "receiver",
          "type": "address"
        }
      ],
      "name": "transferOut",
      "outputs": [],
      "stateMutability": "nonpayable",
      "type": "function"
    },
    {
      "inputs": [
        {
          "internalType": "address",
          "name": "wnt",
          "type": "address"
        },
        {
          "internalType": "address",
          "name": "token",
          "type": "address"
        },
        {
          "internalType": "uint256",
          "name": "amount",
          "type": "uint256"
        },
        {
          "internalType": "address",
          "name": "receiver",
          "type": "address"
        },
        {
          "internalType": "bool",
          "name": "shouldUnwrapNativeToken",
          "type": "bool"
        }
      ],
      "name": "transferOut",
      "outputs": [],
      "stateMutability": "nonpayable",
      "type": "function"
    },
    {
      "inputs": [
        {
          "internalType": "bytes32",
          "name": "",
          "type": "bytes32"
        }
      ],
      "name": "withdrawals",
      "outputs": [
        {
          "internalType": "address",
          "name": "account",
          "type": "address"
        },
        {
          "internalType": "address",
          "name": "receiver",
          "type": "address"
        },
        {
          "internalType": "address",
          "name": "callbackContract",
          "type": "address"
        },
        {
          "internalType": "address",
          "name": "market",
          "type": "address"
        },
        {
          "internalType": "uint256",
          "name": "marketTokensLongAmount",
          "type": "uint256"
        },
        {
          "internalType": "uint256",
          "name": "marketTokensShortAmount",
          "type": "uint256"
        },
        {
          "internalType": "uint256",
          "name": "minLongTokenAmount",
          "type": "uint256"
        },
        {
          "internalType": "uint256",
          "name": "minShortTokenAmount",
          "type": "uint256"
        },
        {
          "internalType": "uint256",
          "name": "updatedAtBlock",
          "type": "uint256"
        },
        {
          "internalType": "bool",
          "name": "shouldUnwrapNativeToken",
          "type": "bool"
        },
        {
          "internalType": "uint256",
          "name": "executionFee",
          "type": "uint256"
        },
        {
          "internalType": "uint256",
          "name": "callbackGasLimit",
          "type": "uint256"
        },
        {
          "internalType": "bytes",
          "name": "data",
          "type": "bytes"
        }
      ],
      "stateMutability": "view",
      "type": "function"
    },
    {
      "stateMutability": "payable",
      "type": "receive"
    }
  ],
  "transactionHash": "0x102012c18c2a5e0be62cb4ea2c2d5bb548d5a2733ce7e3f34cbc75d34e5a21be",
  "args": [
    "0xFc371E380262536c819D12B9569106bf032cC41c"
  ],
  "numDeployments": 1,
  "solcInputHash": "635dda53de9b7a48407bbc874989be1e",
  "bytecode": "0x60a060405234801561001057600080fd5b50604051611ab0380380611ab083398101604081905261002f916100b3565b8080808061003c33610052565b6001600160a01b0316608052506100e392505050565b600080546001600160a01b038381166001600160a01b031983168117909355604080519190921680825260208201939093527f53351836099c03ffc3b1727d8abd4b0222afa87d4ed76ae3102d51369ef7f785910160405180910390a15050565b6000602082840312156100c557600080fd5b81516001600160a01b03811681146100dc57600080fd5b9392505050565b6080516119ab61010560003960008181610155015261094701526119ab6000f3fe6080604052600436106100b15760003560e01c806312d43a51146100bd5780632d891fba146100f3578063352f9aed146101155780634a4a7b0414610143578063523fba7f14610177578063556c4c44146101a45780636b209e33146101d1578063781952a8146101f15780638eaa6ac01461020657806395bc267314610233578063cfad57a214610253578063efbf64a714610273578063f5f3ac5d146102ac578063f9498938146102cc57600080fd5b366100b857005b600080fd5b3480156100c957600080fd5b506000546100dd906001600160a01b031681565b6040516100ea9190611175565b60405180910390f35b3480156100ff57600080fd5b5061011361010e3660046111a9565b6102ec565b005b34801561012157600080fd5b506101356101303660046111eb565b61034c565b6040519081526020016100ea565b34801561014f57600080fd5b506100dd7f000000000000000000000000000000000000000000000000000000000000000081565b34801561018357600080fd5b506101356101923660046111eb565b60016020526000908152604090205481565b3480156101b057600080fd5b506101c46101bf366004611208565b610371565b6040516100ea919061122a565b3480156101dd57600080fd5b506101136101ec366004611352565b610388565b3480156101fd57600080fd5b50610135610495565b34801561021257600080fd5b5061022661022136600461146d565b6104a6565b6040516100ea91906114d6565b34801561023f57600080fd5b5061011361024e36600461146d565b610682565b34801561025f57600080fd5b5061011361026e3660046111eb565b610730565b34801561027f57600080fd5b5061029361028e36600461146d565b61078a565b6040516100ea9d9c9b9a999897969594939291906115a8565b3480156102b857600080fd5b506101136102c7366004611636565b610891565b3480156102d857600080fd5b506101136102e7366004611662565b6108d9565b61033c6040516020016102fe906116ca565b604051602081830303815290604052805190602001206040518060400160405280600a81526020016921a7a72a2927a62622a960b11b815250610930565b6103478383836109e0565b505050565b60006103606040516020016102fe906116ca565b61036982610a25565b90505b919050565b606061037f60038484610ad6565b90505b92915050565b61039a6040516020016102fe906116ca565b600082815260026020818152604092839020845181546001600160a01b03199081166001600160a01b0392831617835592860151600183018054851691831691909117905593850151928101805483169385169390931790925560608401516003830180549092169316929092179091556080820151600482015560a0820151600582015560c0820151600682015560e08201516007820155610100820151600882015561012082015160098201805460ff1916911515919091179055610140820151600a820155610160820151600b820155610180820151829190600c8201906104859082611776565b5061034791506003905083610b98565b60006104a16003610ba4565b905090565b610537604051806101a0016040528060006001600160a01b0316815260200160006001600160a01b0316815260200160006001600160a01b0316815260200160006001600160a01b0316815260200160008152602001600081526020016000815260200160008152602001600081526020016000151581526020016000815260200160008152602001606081525090565b60008281526002602081815260409283902083516101a08101855281546001600160a01b039081168252600183015481169382019390935292810154821693830193909352600383015416606082015260048201546080820152600582015460a0820152600682015460c0820152600782015460e08201526008820154610100820152600982015460ff161515610120820152600a820154610140820152600b820154610160820152600c82018054919291610180840191906105f9906116ee565b80601f0160208091040260200160405190810160405280929190818152602001828054610625906116ee565b80156106725780601f1061064757610100808354040283529160200191610672565b820191906000526020600020905b81548152906001019060200180831161065557829003601f168201915b5050505050815250509050919050565b6106946040516020016102fe906116ca565b6000818152600260208190526040822080546001600160a01b0319908116825560018201805482169055918101805483169055600381018054909216909155600481018290556005810182905560068101829055600781018290556008810182905560098101805460ff19169055600a8101829055600b81018290559061071e600c83018261111a565b5061072c9050600382610bae565b5050565b6000546001600160a01b0316331461077e576040805163a35b150b60e01b81523360048201526024810191909152600360448201526223a7ab60e91b60648201526084015b60405180910390fd5b61078781610bba565b50565b600260208190526000918252604090912080546001820154928201546003830154600484015460058501546006860154600787015460088801546009890154600a8a0154600b8b0154600c8c0180546001600160a01b039c8d169e8d169d9b8d169c909a169a9899979896979596949560ff90941694929391929161080e906116ee565b80601f016020809104026020016040519081016040528092919081815260200182805461083a906116ee565b80156108875780601f1061085c57610100808354040283529160200191610887565b820191906000526020600020905b81548152906001019060200180831161086a57829003601f168201915b505050505090508d565b6108a36040516020016102fe906116ca565b6040516001600160a01b0383169082156108fc029083906000818181858888f19350505050158015610347573d6000803e3d6000fd5b6108eb6040516020016102fe906116ca565b846001600160a01b0316846001600160a01b03161480156109095750805b1561091e57610919848484610c1b565b610929565b6109298484846109e0565b5050505050565b60405163ac4ab3fb60e01b81526001600160a01b037f0000000000000000000000000000000000000000000000000000000000000000169063ac4ab3fb9061097e9033908690600401611835565b602060405180830381865afa15801561099b573d6000803e3d6000fd5b505050506040513d601f19601f820116820180604052508101906109bf919061184e565b61072c57338160405163a35b150b60e01b815260040161077592919061186b565b306001600160a01b03821603610a085760405162461bcd60e51b81526004016107759061188f565b610a1c6001600160a01b0384168284610cdd565b61034783610d33565b6001600160a01b0381166000818152600160205260408082205490516370a0823160e01b8152919290918391906370a0823190610a66903090600401611175565b602060405180830381865afa158015610a83573d6000803e3d6000fd5b505050506040513d601f19601f82011682018060405250810190610aa791906118bf565b6001600160a01b03851660009081526001602052604090208190559050610ace82826118ee565b949350505050565b60606000610ae385610ba4565b905080831115610af1578092505b6000610afd85856118ee565b6001600160401b03811115610b1457610b1461126e565b604051908082528060200260200182016040528015610b3d578160200160208202803683370190505b509050845b84811015610b8c57610b548782610dbc565b82610b5f88846118ee565b81518110610b6f57610b6f611901565b602090810291909101015280610b8481611917565b915050610b42565b509150505b9392505050565b600061037f8383610dc8565b6000610369825490565b600061037f8383610e17565b600080546001600160a01b038381166001600160a01b031983168117909355604080519190921680825260208201939093527f53351836099c03ffc3b1727d8abd4b0222afa87d4ed76ae3102d51369ef7f785910160405180910390a15050565b306001600160a01b03821603610c435760405162461bcd60e51b81526004016107759061188f565b604051632e1a7d4d60e01b8152600481018390526001600160a01b03841690632e1a7d4d90602401600060405180830381600087803b158015610c8557600080fd5b505af1158015610c99573d6000803e3d6000fd5b50506040516001600160a01b038416925084156108fc02915084906000818181858888f19350505050158015610cd3573d6000803e3d6000fd5b5061034783610d33565b6103478363a9059cbb60e01b8484604051602401610cfc929190611835565b60408051601f198184030181529190526020810180516001600160e01b03166001600160e01b031990931692909217909152610f0a565b6040516370a0823160e01b81526001600160a01b038216906370a0823190610d5f903090600401611175565b602060405180830381865afa158015610d7c573d6000803e3d6000fd5b505050506040513d601f19601f82011682018060405250810190610da091906118bf565b6001600160a01b03909116600090815260016020526040902055565b600061037f8383610fdc565b6000818152600183016020526040812054610e0f57508154600181810184556000848152602080822090930184905584548482528286019093526040902091909155610382565b506000610382565b60008181526001830160205260408120548015610f00576000610e3b6001836118ee565b8554909150600090610e4f906001906118ee565b9050818114610eb4576000866000018281548110610e6f57610e6f611901565b9060005260206000200154905080876000018481548110610e9257610e92611901565b6000918252602080832090910192909255918252600188019052604090208390555b8554869080610ec557610ec5611930565b600190038181906000526020600020016000905590558560010160008681526020019081526020016000206000905560019350505050610382565b6000915050610382565b6000610f5f826040518060400160405280602081526020017f5361666545524332303a206c6f772d6c6576656c2063616c6c206661696c6564815250856001600160a01b03166110069092919063ffffffff16565b8051909150156103475780806020019051810190610f7d919061184e565b6103475760405162461bcd60e51b815260206004820152602a60248201527f5361666545524332303a204552433230206f7065726174696f6e20646964206e6044820152691bdd081cdd58d8d9595960b21b6064820152608401610775565b6000826000018281548110610ff357610ff3611901565b9060005260206000200154905092915050565b6060610ace8484600085856001600160a01b0385163b6110685760405162461bcd60e51b815260206004820152601d60248201527f416464726573733a2063616c6c20746f206e6f6e2d636f6e74726163740000006044820152606401610775565b600080866001600160a01b031685876040516110849190611946565b60006040518083038185875af1925050503d80600081146110c1576040519150601f19603f3d011682016040523d82523d6000602084013e6110c6565b606091505b50915091506110d68282866110e1565b979650505050505050565b606083156110f0575081610b91565b8251156111005782518084602001fd5b8160405162461bcd60e51b81526004016107759190611962565b508054611126906116ee565b6000825580601f10611136575050565b601f01602090049060005260206000209081019061078791905b808211156111645760008155600101611150565b5090565b6001600160a01b03169052565b6001600160a01b0391909116815260200190565b6001600160a01b038116811461078757600080fd5b803561036c81611189565b6000806000606084860312156111be57600080fd5b83356111c981611189565b92506020840135915060408401356111e081611189565b809150509250925092565b6000602082840312156111fd57600080fd5b8135610b9181611189565b6000806040838503121561121b57600080fd5b50508035926020909101359150565b6020808252825182820181905260009190848201906040850190845b8181101561126257835183529284019291840191600101611246565b50909695505050505050565b634e487b7160e01b600052604160045260246000fd5b6040516101a081016001600160401b03811182821017156112a7576112a761126e565b60405290565b801515811461078757600080fd5b803561036c816112ad565b600082601f8301126112d757600080fd5b81356001600160401b03808211156112f1576112f161126e565b604051601f8301601f19908116603f011681019082821181831017156113195761131961126e565b8160405283815286602085880101111561133257600080fd5b836020870160208301376000602085830101528094505050505092915050565b6000806040838503121561136557600080fd5b8235915060208301356001600160401b038082111561138357600080fd5b908401906101a0828703121561139857600080fd5b6113a0611284565b6113a98361119e565b81526113b76020840161119e565b60208201526113c86040840161119e565b60408201526113d96060840161119e565b60608201526080830135608082015260a083013560a082015260c083013560c082015260e083013560e08201526101008084013581830152506101206114208185016112bb565b9082015261014083810135908201526101608084013590820152610180808401358381111561144e57600080fd5b61145a898287016112c6565b8284015250508093505050509250929050565b60006020828403121561147f57600080fd5b5035919050565b60005b838110156114a1578181015183820152602001611489565b50506000910152565b600081518084526114c2816020860160208601611486565b601f01601f19169290920160200192915050565b602081526114e8602082018351611168565b600060208301516114fc6040840182611168565b50604083015161150f6060840182611168565b5060608301516115226080840182611168565b50608083015160a083015260a083015160c083015260c083015160e083015260e08301516101008181850152808501519150506101208181850152808501519150506101406115748185018315159052565b84015161016084810191909152840151610180808501919091528401516101a0808501529050610ace6101c08401826114aa565b6001600160a01b038e811682528d811660208301528c811660408301528b166060820152608081018a905260a0810189905260c0810188905260e081018790526101008101869052841515610120820152610140810184905261016081018390526101a06101808201819052600090611623908301846114aa565b9f9e505050505050505050505050505050565b6000806040838503121561164957600080fd5b823561165481611189565b946020939093013593505050565b600080600080600060a0868803121561167a57600080fd5b853561168581611189565b9450602086013561169581611189565b93506040860135925060608601356116ac81611189565b915060808601356116bc816112ad565b809150509295509295909350565b6020808252600a908201526921a7a72a2927a62622a960b11b604082015260600190565b600181811c9082168061170257607f821691505b60208210810361172257634e487b7160e01b600052602260045260246000fd5b50919050565b601f82111561034757600081815260208120601f850160051c8101602086101561174f5750805b601f850160051c820191505b8181101561176e5782815560010161175b565b505050505050565b81516001600160401b0381111561178f5761178f61126e565b6117a38161179d84546116ee565b84611728565b602080601f8311600181146117d857600084156117c05750858301515b600019600386901b1c1916600185901b17855561176e565b600085815260208120601f198616915b82811015611807578886015182559484019460019091019084016117e8565b50858210156118255787850151600019600388901b60f8161c191681555b5050505050600190811b01905550565b6001600160a01b03929092168252602082015260400190565b60006020828403121561186057600080fd5b8151610b91816112ad565b6001600160a01b0383168152604060208201819052600090610ace908301846114aa565b6020808252601690820152752130b7359d1034b73b30b634b2103932b1b2b4bb32b960511b604082015260600190565b6000602082840312156118d157600080fd5b5051919050565b634e487b7160e01b600052601160045260246000fd5b81810381811115610382576103826118d8565b634e487b7160e01b600052603260045260246000fd5b600060018201611929576119296118d8565b5060010190565b634e487b7160e01b600052603160045260246000fd5b60008251611958818460208701611486565b9190910192915050565b60208152600061037f60208301846114aa56fea26469706673582212205193f72c6f7c1cfe67d481f7a3bf91e2578f7dcf596a0d4c7069adeba49aa9fa64736f6c63430008100033",
  "devdoc": {
    "kind": "dev",
    "methods": {},
    "version": 1
  },
  "userdoc": {
    "kind": "user",
    "methods": {},
    "version": 1
  },
  "storageLayout": {
    "storage": [
      {
        "astId": 12130,
        "contract": "contracts/withdrawal/WithdrawalStore.sol:WithdrawalStore",
        "label": "gov",
        "offset": 0,
        "slot": "0",
        "type": "t_address"
      },
      {
        "astId": 5254,
        "contract": "contracts/withdrawal/WithdrawalStore.sol:WithdrawalStore",
        "label": "tokenBalances",
        "offset": 0,
        "slot": "1",
        "type": "t_mapping(t_address,t_uint256)"
      },
      {
        "astId": 28674,
        "contract": "contracts/withdrawal/WithdrawalStore.sol:WithdrawalStore",
        "label": "withdrawals",
        "offset": 0,
        "slot": "2",
        "type": "t_mapping(t_bytes32,t_struct(Props)28654_storage)"
      },
      {
        "astId": 28677,
        "contract": "contracts/withdrawal/WithdrawalStore.sol:WithdrawalStore",
        "label": "withdrawalKeys",
        "offset": 0,
        "slot": "3",
        "type": "t_struct(Bytes32Set)4192_storage"
      }
    ],
    "types": {
      "t_address": {
        "encoding": "inplace",
        "label": "address",
        "numberOfBytes": "20"
      },
      "t_array(t_bytes32)dyn_storage": {
        "base": "t_bytes32",
        "encoding": "dynamic_array",
        "label": "bytes32[]",
        "numberOfBytes": "32"
      },
      "t_bool": {
        "encoding": "inplace",
        "label": "bool",
        "numberOfBytes": "1"
      },
      "t_bytes32": {
        "encoding": "inplace",
        "label": "bytes32",
        "numberOfBytes": "32"
      },
      "t_bytes_storage": {
        "encoding": "bytes",
        "label": "bytes",
        "numberOfBytes": "32"
      },
      "t_mapping(t_address,t_uint256)": {
        "encoding": "mapping",
        "key": "t_address",
        "label": "mapping(address => uint256)",
        "numberOfBytes": "32",
        "value": "t_uint256"
      },
      "t_mapping(t_bytes32,t_struct(Props)28654_storage)": {
        "encoding": "mapping",
        "key": "t_bytes32",
        "label": "mapping(bytes32 => struct Withdrawal.Props)",
        "numberOfBytes": "32",
        "value": "t_struct(Props)28654_storage"
      },
      "t_mapping(t_bytes32,t_uint256)": {
        "encoding": "mapping",
        "key": "t_bytes32",
        "label": "mapping(bytes32 => uint256)",
        "numberOfBytes": "32",
        "value": "t_uint256"
      },
      "t_struct(Bytes32Set)4192_storage": {
        "encoding": "inplace",
        "label": "struct EnumerableSet.Bytes32Set",
        "members": [
          {
            "astId": 4191,
            "contract": "contracts/withdrawal/WithdrawalStore.sol:WithdrawalStore",
            "label": "_inner",
            "offset": 0,
            "slot": "0",
            "type": "t_struct(Set)3998_storage"
          }
        ],
        "numberOfBytes": "64"
      },
      "t_struct(Props)28654_storage": {
        "encoding": "inplace",
        "label": "struct Withdrawal.Props",
        "members": [
          {
            "astId": 28629,
            "contract": "contracts/withdrawal/WithdrawalStore.sol:WithdrawalStore",
            "label": "account",
            "offset": 0,
            "slot": "0",
            "type": "t_address"
          },
          {
            "astId": 28631,
            "contract": "contracts/withdrawal/WithdrawalStore.sol:WithdrawalStore",
            "label": "receiver",
            "offset": 0,
            "slot": "1",
            "type": "t_address"
          },
          {
            "astId": 28633,
            "contract": "contracts/withdrawal/WithdrawalStore.sol:WithdrawalStore",
            "label": "callbackContract",
            "offset": 0,
            "slot": "2",
            "type": "t_address"
          },
          {
            "astId": 28635,
            "contract": "contracts/withdrawal/WithdrawalStore.sol:WithdrawalStore",
            "label": "market",
            "offset": 0,
            "slot": "3",
            "type": "t_address"
          },
          {
            "astId": 28637,
            "contract": "contracts/withdrawal/WithdrawalStore.sol:WithdrawalStore",
            "label": "marketTokensLongAmount",
            "offset": 0,
            "slot": "4",
            "type": "t_uint256"
          },
          {
            "astId": 28639,
            "contract": "contracts/withdrawal/WithdrawalStore.sol:WithdrawalStore",
            "label": "marketTokensShortAmount",
            "offset": 0,
            "slot": "5",
            "type": "t_uint256"
          },
          {
            "astId": 28641,
            "contract": "contracts/withdrawal/WithdrawalStore.sol:WithdrawalStore",
            "label": "minLongTokenAmount",
            "offset": 0,
            "slot": "6",
            "type": "t_uint256"
          },
          {
            "astId": 28643,
            "contract": "contracts/withdrawal/WithdrawalStore.sol:WithdrawalStore",
            "label": "minShortTokenAmount",
            "offset": 0,
            "slot": "7",
            "type": "t_uint256"
          },
          {
            "astId": 28645,
            "contract": "contracts/withdrawal/WithdrawalStore.sol:WithdrawalStore",
            "label": "updatedAtBlock",
            "offset": 0,
            "slot": "8",
            "type": "t_uint256"
          },
          {
            "astId": 28647,
            "contract": "contracts/withdrawal/WithdrawalStore.sol:WithdrawalStore",
            "label": "shouldUnwrapNativeToken",
            "offset": 0,
            "slot": "9",
            "type": "t_bool"
          },
          {
            "astId": 28649,
            "contract": "contracts/withdrawal/WithdrawalStore.sol:WithdrawalStore",
            "label": "executionFee",
            "offset": 0,
            "slot": "10",
            "type": "t_uint256"
          },
          {
            "astId": 28651,
            "contract": "contracts/withdrawal/WithdrawalStore.sol:WithdrawalStore",
            "label": "callbackGasLimit",
            "offset": 0,
            "slot": "11",
            "type": "t_uint256"
          },
          {
            "astId": 28653,
            "contract": "contracts/withdrawal/WithdrawalStore.sol:WithdrawalStore",
            "label": "data",
            "offset": 0,
            "slot": "12",
            "type": "t_bytes_storage"
          }
        ],
        "numberOfBytes": "416"
      },
      "t_struct(Set)3998_storage": {
        "encoding": "inplace",
        "label": "struct EnumerableSet.Set",
        "members": [
          {
            "astId": 3993,
            "contract": "contracts/withdrawal/WithdrawalStore.sol:WithdrawalStore",
            "label": "_values",
            "offset": 0,
            "slot": "0",
            "type": "t_array(t_bytes32)dyn_storage"
          },
          {
            "astId": 3997,
            "contract": "contracts/withdrawal/WithdrawalStore.sol:WithdrawalStore",
            "label": "_indexes",
            "offset": 0,
            "slot": "1",
            "type": "t_mapping(t_bytes32,t_uint256)"
          }
        ],
        "numberOfBytes": "64"
      },
      "t_uint256": {
        "encoding": "inplace",
        "label": "uint256",
        "numberOfBytes": "32"
      }
    }
  }
}