{
  "address": "0x1A5F8e725103837bf4ebfe519A2c276c80B894Ea",
  "abi": [
    {
      "inputs": [
        {
          "internalType": "bytes32",
          "name": "key",
          "type": "bytes32"
        }
      ],
      "name": "WithdrawalNotFound",
      "type": "error"
    },
    {
      "inputs": [],
      "name": "ACCOUNT",
      "outputs": [
        {
          "internalType": "bytes32",
          "name": "",
          "type": "bytes32"
        }
      ],
      "stateMutability": "view",
      "type": "function"
    },
    {
      "inputs": [],
      "name": "CALLBACK_CONTRACT",
      "outputs": [
        {
          "internalType": "bytes32",
          "name": "",
          "type": "bytes32"
        }
      ],
      "stateMutability": "view",
      "type": "function"
    },
    {
      "inputs": [],
      "name": "CALLBACK_GAS_LIMIT",
      "outputs": [
        {
          "internalType": "bytes32",
          "name": "",
          "type": "bytes32"
        }
      ],
      "stateMutability": "view",
      "type": "function"
    },
    {
      "inputs": [],
      "name": "EXECUTION_FEE",
      "outputs": [
        {
          "internalType": "bytes32",
          "name": "",
          "type": "bytes32"
        }
      ],
      "stateMutability": "view",
      "type": "function"
    },
    {
      "inputs": [],
      "name": "LONG_TOKEN_SWAP_PATH",
      "outputs": [
        {
          "internalType": "bytes32",
          "name": "",
          "type": "bytes32"
        }
      ],
      "stateMutability": "view",
      "type": "function"
    },
    {
      "inputs": [],
      "name": "MARKET",
      "outputs": [
        {
          "internalType": "bytes32",
          "name": "",
          "type": "bytes32"
        }
      ],
      "stateMutability": "view",
      "type": "function"
    },
    {
      "inputs": [],
      "name": "MARKET_TOKEN_AMOUNT",
      "outputs": [
        {
          "internalType": "bytes32",
          "name": "",
          "type": "bytes32"
        }
      ],
      "stateMutability": "view",
      "type": "function"
    },
    {
      "inputs": [],
      "name": "MIN_LONG_TOKEN_AMOUNT",
      "outputs": [
        {
          "internalType": "bytes32",
          "name": "",
          "type": "bytes32"
        }
      ],
      "stateMutability": "view",
      "type": "function"
    },
    {
      "inputs": [],
      "name": "MIN_SHORT_TOKEN_AMOUNT",
      "outputs": [
        {
          "internalType": "bytes32",
          "name": "",
          "type": "bytes32"
        }
      ],
      "stateMutability": "view",
      "type": "function"
    },
    {
      "inputs": [],
      "name": "RECEIVER",
      "outputs": [
        {
          "internalType": "bytes32",
          "name": "",
          "type": "bytes32"
        }
      ],
      "stateMutability": "view",
      "type": "function"
    },
    {
      "inputs": [],
      "name": "SHORT_TOKEN_SWAP_PATH",
      "outputs": [
        {
          "internalType": "bytes32",
          "name": "",
          "type": "bytes32"
        }
      ],
      "stateMutability": "view",
      "type": "function"
    },
    {
      "inputs": [],
      "name": "SHOULD_UNWRAP_NATIVE_TOKEN",
      "outputs": [
        {
          "internalType": "bytes32",
          "name": "",
          "type": "bytes32"
        }
      ],
      "stateMutability": "view",
      "type": "function"
    },
    {
      "inputs": [],
      "name": "UI_FEE_RECEIVER",
      "outputs": [
        {
          "internalType": "bytes32",
          "name": "",
          "type": "bytes32"
        }
      ],
      "stateMutability": "view",
      "type": "function"
    },
    {
      "inputs": [],
      "name": "UPDATED_AT_BLOCK",
      "outputs": [
        {
          "internalType": "bytes32",
          "name": "",
          "type": "bytes32"
        }
      ],
      "stateMutability": "view",
      "type": "function"
    },
    {
      "inputs": [],
      "name": "UPDATED_AT_TIME",
      "outputs": [
        {
          "internalType": "bytes32",
          "name": "",
          "type": "bytes32"
        }
      ],
      "stateMutability": "view",
      "type": "function"
    },
    {
      "inputs": [
        {
          "internalType": "contract DataStore",
          "name": "dataStore",
          "type": "DataStore"
        },
        {
          "internalType": "bytes32",
          "name": "key",
          "type": "bytes32"
        }
      ],
      "name": "get",
      "outputs": [
        {
          "components": [
            {
              "components": [
                {
                  "internalType": "address",
                  "name": "account",
                  "type": "address"
                },
                {
                  "internalType": "address",
                  "name": "receiver",
                  "type": "address"
                },
                {
                  "internalType": "address",
                  "name": "callbackContract",
                  "type": "address"
                },
                {
                  "internalType": "address",
                  "name": "uiFeeReceiver",
                  "type": "address"
                },
                {
                  "internalType": "address",
                  "name": "market",
                  "type": "address"
                },
                {
                  "internalType": "address[]",
                  "name": "longTokenSwapPath",
                  "type": "address[]"
                },
                {
                  "internalType": "address[]",
                  "name": "shortTokenSwapPath",
                  "type": "address[]"
                }
              ],
              "internalType": "struct Withdrawal.Addresses",
              "name": "addresses",
              "type": "tuple"
            },
            {
              "components": [
                {
                  "internalType": "uint256",
                  "name": "marketTokenAmount",
                  "type": "uint256"
                },
                {
                  "internalType": "uint256",
                  "name": "minLongTokenAmount",
                  "type": "uint256"
                },
                {
                  "internalType": "uint256",
                  "name": "minShortTokenAmount",
                  "type": "uint256"
                },
                {
                  "internalType": "uint256",
                  "name": "updatedAtBlock",
                  "type": "uint256"
                },
                {
                  "internalType": "uint256",
                  "name": "updatedAtTime",
                  "type": "uint256"
                },
                {
                  "internalType": "uint256",
                  "name": "executionFee",
                  "type": "uint256"
                },
                {
                  "internalType": "uint256",
                  "name": "callbackGasLimit",
                  "type": "uint256"
                }
              ],
              "internalType": "struct Withdrawal.Numbers",
              "name": "numbers",
              "type": "tuple"
            },
            {
              "components": [
                {
                  "internalType": "bool",
                  "name": "shouldUnwrapNativeToken",
                  "type": "bool"
                }
              ],
              "internalType": "struct Withdrawal.Flags",
              "name": "flags",
              "type": "tuple"
            }
          ],
          "internalType": "struct Withdrawal.Props",
          "name": "",
          "type": "tuple"
        }
      ],
      "stateMutability": "view",
      "type": "function"
    }
  ],
  "transactionHash": "0x62ed6fca8fc18925fd9410821d74b124e918befc6dd38c3cfd1e1191dc7d0354",
  "args": [],
  "numDeployments": 20,
  "solcInputHash": "1c2199576d19a85f33e26ba11434e9b4",
  "bytecode": "0x61328761003a600b82828239805160001a60731461002d57634e487b7160e01b600052600060045260246000fd5b30600052607381538281f3fe73000000000000000000000000000000000000000030146080604052600436106100f05760003560e01c806304a36e20146100f5578063284d63ed1461011057806333d608f1146101185780634675e8eb14610120578063566a6e66146101285780636a751bc4146101305780636ec816771461015257806374b6fe131461015a578063856d8f891461017a5780638f7f204814610182578063ad7430cc1461018a578063b451e53414610192578063db854fb71461019a578063e90524f2146101a2578063f145e54a146101aa578063f46f16c2146101b2578063f5b0e5b1146101ba578063fdfc26f3146101c2575b600080fd5b6100fd6101e2565b6040519081526020015b60405180910390f35b6100fd61020a565b6100fd610219565b6100fd610228565b6100fd610237565b81801561013c57600080fd5b5061015061014b366004612b25565b610246565b005b6100fd610efa565b81801561016657600080fd5b50610150610175366004612c7a565b610f09565b6100fd611ac5565b6100fd611ad4565b6100fd611ae3565b6100fd611af2565b6100fd611b01565b6100fd611b10565b6100fd611b1f565b6100fd611b2e565b6100fd611b3d565b6101d56101d0366004612cbc565b611b4c565b6040516101079190612d39565b6040516020016101f190612e46565b6040516020818303038152906040528051906020012081565b6040516020016101f190612e7a565b6040516020016101f190612ea7565b6040516020016101f190612ed3565b6040516020016101f190612efa565b826001600160a01b031663c80f4c6260405160200161026490612f23565b60405160208183030381529060405280519060200120846040518363ffffffff1660e01b8152600401610298929190612f4c565b600060405180830381600087803b1580156102b257600080fd5b505af11580156102c6573d6000803e3d6000fd5b50505050826001600160a01b031663c80f4c626102ea6102e584515190565b6127f7565b846040518363ffffffff1660e01b8152600401610308929190612f4c565b600060405180830381600087803b15801561032257600080fd5b505af1158015610336573d6000803e3d6000fd5b50505050826001600160a01b031663ca446dd98360405160200161035990612f5a565b60405160208183030381529060405280519060200120604051602001610380929190612f4c565b6040516020818303038152906040528051906020012061039f84515190565b6040518363ffffffff1660e01b81526004016103bc929190612f7b565b6020604051808303816000875af11580156103db573d6000803e3d6000fd5b505050506040513d601f19601f820116820180604052508101906103ff9190612f92565b50826001600160a01b031663ca446dd98360405160200161041f90612faf565b60405160208183030381529060405280519060200120604051602001610446929190612f4c565b6040516020818303038152906040528051906020012061046884516020015190565b6040518363ffffffff1660e01b8152600401610485929190612f7b565b6020604051808303816000875af11580156104a4573d6000803e3d6000fd5b505050506040513d601f19601f820116820180604052508101906104c89190612f92565b50826001600160a01b031663ca446dd9836040516020016104e890612fd1565b6040516020818303038152906040528051906020012060405160200161050f929190612f4c565b6040516020818303038152906040528051906020012061053184516040015190565b6040518363ffffffff1660e01b815260040161054e929190612f7b565b6020604051808303816000875af115801561056d573d6000803e3d6000fd5b505050506040513d601f19601f820116820180604052508101906105919190612f92565b50826001600160a01b031663ca446dd9836040516020016105b190612efa565b604051602081830303815290604052805190602001206040516020016105d8929190612f4c565b604051602081830303815290604052805190602001206105fa84516060015190565b6040518363ffffffff1660e01b8152600401610617929190612f7b565b6020604051808303816000875af1158015610636573d6000803e3d6000fd5b505050506040513d601f19601f8201168201806040525081019061065a9190612f92565b50826001600160a01b031663ca446dd98360405160200161067a90612ffc565b604051602081830303815290604052805190602001206040516020016106a1929190612f4c565b604051602081830303815290604052805190602001206106c384516080015190565b6040518363ffffffff1660e01b81526004016106e0929190612f7b565b6020604051808303816000875af11580156106ff573d6000803e3d6000fd5b505050506040513d601f19601f820116820180604052508101906107239190612f92565b50826001600160a01b031663ec672cf6836040516020016107439061301c565b6040516020818303038152906040528051906020012060405160200161076a929190612f4c565b6040516020818303038152906040528051906020012061078c845160a0015190565b6040518363ffffffff1660e01b81526004016107a992919061304a565b600060405180830381600087803b1580156107c357600080fd5b505af11580156107d7573d6000803e3d6000fd5b50505050826001600160a01b031663ec672cf6836040516020016107fa906130a1565b60405160208183030381529060405280519060200120604051602001610821929190612f4c565b60405160208183030381529060405280519060200120610843845160c0015190565b6040518363ffffffff1660e01b815260040161086092919061304a565b600060405180830381600087803b15801561087a57600080fd5b505af115801561088e573d6000803e3d6000fd5b50505050826001600160a01b031663e2a4853a836040516020016108b190612e7a565b604051602081830303815290604052805190602001206040516020016108d8929190612f4c565b604051602081830303815290604052805190602001206108fa84602001515190565b6040518363ffffffff1660e01b8152600401610917929190612f4c565b6020604051808303816000875af1158015610936573d6000803e3d6000fd5b505050506040513d601f19601f8201168201806040525081019061095a91906130d0565b50826001600160a01b031663e2a4853a8360405160200161097a906130e9565b604051602081830303815290604052805190602001206040516020016109a1929190612f4c565b604051602081830303815290604052805190602001206109c684602090810151015190565b6040518363ffffffff1660e01b81526004016109e3929190612f4c565b6020604051808303816000875af1158015610a02573d6000803e3d6000fd5b505050506040513d601f19601f82011682018060405250810190610a2691906130d0565b50826001600160a01b031663e2a4853a83604051602001610a4690613118565b60405160208183030381529060405280519060200120604051602001610a6d929190612f4c565b60405160208183030381529060405280519060200120610a9284602001516040015190565b6040518363ffffffff1660e01b8152600401610aaf929190612f4c565b6020604051808303816000875af1158015610ace573d6000803e3d6000fd5b505050506040513d601f19601f82011682018060405250810190610af291906130d0565b50826001600160a01b031663e2a4853a83604051602001610b1290613148565b60405160208183030381529060405280519060200120604051602001610b39929190612f4c565b60405160208183030381529060405280519060200120610b5e84602001516060015190565b6040518363ffffffff1660e01b8152600401610b7b929190612f4c565b6020604051808303816000875af1158015610b9a573d6000803e3d6000fd5b505050506040513d601f19601f82011682018060405250810190610bbe91906130d0565b50826001600160a01b031663e2a4853a83604051602001610bde90613172565b60405160208183030381529060405280519060200120604051602001610c05929190612f4c565b60405160208183030381529060405280519060200120610c2a84602001516080015190565b6040518363ffffffff1660e01b8152600401610c47929190612f4c565b6020604051808303816000875af1158015610c66573d6000803e3d6000fd5b505050506040513d601f19601f82011682018060405250810190610c8a91906130d0565b50826001600160a01b031663e2a4853a83604051602001610caa90612ed3565b60405160208183030381529060405280519060200120604051602001610cd1929190612f4c565b60405160208183030381529060405280519060200120610cf6846020015160a0015190565b6040518363ffffffff1660e01b8152600401610d13929190612f4c565b6020604051808303816000875af1158015610d32573d6000803e3d6000fd5b505050506040513d601f19601f82011682018060405250810190610d5691906130d0565b50826001600160a01b031663e2a4853a83604051602001610d7690612ea7565b60405160208183030381529060405280519060200120604051602001610d9d929190612f4c565b60405160208183030381529060405280519060200120610dc2846020015160c0015190565b6040518363ffffffff1660e01b8152600401610ddf929190612f4c565b6020604051808303816000875af1158015610dfe573d6000803e3d6000fd5b505050506040513d601f19601f82011682018060405250810190610e2291906130d0565b50826001600160a01b031663abfdcced83604051602001610e4290612e46565b60405160208183030381529060405280519060200120604051602001610e69929190612f4c565b60405160208183030381529060405280519060200120610e8b84604001515190565b6040516001600160e01b031960e085901b1681526004810192909252151560248201526044016020604051808303816000875af1158015610ed0573d6000803e3d6000fd5b505050506040513d601f19601f82011682018060405250810190610ef4919061319b565b50505050565b6040516020016101f190613172565b826001600160a01b03166391d4403c604051602001610f2790612f23565b60405160208183030381529060405280519060200120846040518363ffffffff1660e01b8152600401610f5b929190612f4c565b602060405180830381865afa158015610f78573d6000803e3d6000fd5b505050506040513d601f19601f82011682018060405250810190610f9c919061319b565b610fc057604051630181cdef60e61b81526004810183905260240160405180910390fd5b826001600160a01b0316639921c3cc604051602001610fde90612f23565b60405160208183030381529060405280519060200120846040518363ffffffff1660e01b8152600401611012929190612f4c565b600060405180830381600087803b15801561102c57600080fd5b505af1158015611040573d6000803e3d6000fd5b50505050826001600160a01b0316639921c3cc61105c836127f7565b846040518363ffffffff1660e01b815260040161107a929190612f4c565b600060405180830381600087803b15801561109457600080fd5b505af11580156110a8573d6000803e3d6000fd5b50505050826001600160a01b0316639faf6fb6836040516020016110cb90612f5a565b604051602081830303815290604052805190602001206040516020016110f2929190612f4c565b604051602081830303815290604052805190602001206040518263ffffffff1660e01b815260040161112691815260200190565b600060405180830381600087803b15801561114057600080fd5b505af1158015611154573d6000803e3d6000fd5b50505050826001600160a01b0316639faf6fb68360405160200161117790612faf565b6040516020818303038152906040528051906020012060405160200161119e929190612f4c565b604051602081830303815290604052805190602001206040518263ffffffff1660e01b81526004016111d291815260200190565b600060405180830381600087803b1580156111ec57600080fd5b505af1158015611200573d6000803e3d6000fd5b50505050826001600160a01b0316639faf6fb68360405160200161122390612fd1565b6040516020818303038152906040528051906020012060405160200161124a929190612f4c565b604051602081830303815290604052805190602001206040518263ffffffff1660e01b815260040161127e91815260200190565b600060405180830381600087803b15801561129857600080fd5b505af11580156112ac573d6000803e3d6000fd5b50505050826001600160a01b0316639faf6fb6836040516020016112cf90612efa565b604051602081830303815290604052805190602001206040516020016112f6929190612f4c565b604051602081830303815290604052805190602001206040518263ffffffff1660e01b815260040161132a91815260200190565b600060405180830381600087803b15801561134457600080fd5b505af1158015611358573d6000803e3d6000fd5b50505050826001600160a01b0316639faf6fb68360405160200161137b90612ffc565b604051602081830303815290604052805190602001206040516020016113a2929190612f4c565b604051602081830303815290604052805190602001206040518263ffffffff1660e01b81526004016113d691815260200190565b600060405180830381600087803b1580156113f057600080fd5b505af1158015611404573d6000803e3d6000fd5b50505050826001600160a01b031663c1dc9182836040516020016114279061301c565b6040516020818303038152906040528051906020012060405160200161144e929190612f4c565b604051602081830303815290604052805190602001206040518263ffffffff1660e01b815260040161148291815260200190565b600060405180830381600087803b15801561149c57600080fd5b505af11580156114b0573d6000803e3d6000fd5b50505050826001600160a01b031663c1dc9182836040516020016114d3906130a1565b604051602081830303815290604052805190602001206040516020016114fa929190612f4c565b604051602081830303815290604052805190602001206040518263ffffffff1660e01b815260040161152e91815260200190565b600060405180830381600087803b15801561154857600080fd5b505af115801561155c573d6000803e3d6000fd5b50505050826001600160a01b03166342c3bd968360405160200161157f90612e7a565b604051602081830303815290604052805190602001206040516020016115a6929190612f4c565b604051602081830303815290604052805190602001206040518263ffffffff1660e01b81526004016115da91815260200190565b600060405180830381600087803b1580156115f457600080fd5b505af1158015611608573d6000803e3d6000fd5b50505050826001600160a01b03166342c3bd968360405160200161162b906130e9565b60405160208183030381529060405280519060200120604051602001611652929190612f4c565b604051602081830303815290604052805190602001206040518263ffffffff1660e01b815260040161168691815260200190565b600060405180830381600087803b1580156116a057600080fd5b505af11580156116b4573d6000803e3d6000fd5b50505050826001600160a01b03166342c3bd96836040516020016116d790613118565b604051602081830303815290604052805190602001206040516020016116fe929190612f4c565b604051602081830303815290604052805190602001206040518263ffffffff1660e01b815260040161173291815260200190565b600060405180830381600087803b15801561174c57600080fd5b505af1158015611760573d6000803e3d6000fd5b50505050826001600160a01b03166342c3bd968360405160200161178390613148565b604051602081830303815290604052805190602001206040516020016117aa929190612f4c565b604051602081830303815290604052805190602001206040518263ffffffff1660e01b81526004016117de91815260200190565b600060405180830381600087803b1580156117f857600080fd5b505af115801561180c573d6000803e3d6000fd5b50505050826001600160a01b03166342c3bd968360405160200161182f90613172565b60405160208183030381529060405280519060200120604051602001611856929190612f4c565b604051602081830303815290604052805190602001206040518263ffffffff1660e01b815260040161188a91815260200190565b600060405180830381600087803b1580156118a457600080fd5b505af11580156118b8573d6000803e3d6000fd5b50505050826001600160a01b03166342c3bd96836040516020016118db90612ed3565b60405160208183030381529060405280519060200120604051602001611902929190612f4c565b604051602081830303815290604052805190602001206040518263ffffffff1660e01b815260040161193691815260200190565b600060405180830381600087803b15801561195057600080fd5b505af1158015611964573d6000803e3d6000fd5b50505050826001600160a01b03166342c3bd968360405160200161198790612ea7565b604051602081830303815290604052805190602001206040516020016119ae929190612f4c565b604051602081830303815290604052805190602001206040518263ffffffff1660e01b81526004016119e291815260200190565b600060405180830381600087803b1580156119fc57600080fd5b505af1158015611a10573d6000803e3d6000fd5b50505050826001600160a01b0316639fe7ac1283604051602001611a3390612e46565b60405160208183030381529060405280519060200120604051602001611a5a929190612f4c565b604051602081830303815290604052805190602001206040518263ffffffff1660e01b8152600401611a8e91815260200190565b600060405180830381600087803b158015611aa857600080fd5b505af1158015611abc573d6000803e3d6000fd5b50505050505050565b6040516020016101f190613118565b6040516020016101f190612fd1565b6040516020016101f190612faf565b6040516020016101f19061301c565b6040516020016101f1906130a1565b6040516020016101f190612f5a565b6040516020016101f190613148565b6040516020016101f190612ffc565b6040516020016101f1906130e9565b611b54612879565b611b5c612879565b836001600160a01b03166391d4403c604051602001611b7a90612f23565b60405160208183030381529060405280519060200120856040518363ffffffff1660e01b8152600401611bae929190612f4c565b602060405180830381865afa158015611bcb573d6000803e3d6000fd5b505050506040513d601f19601f82011682018060405250810190611bef919061319b565b611bfa5790506127f1565b611cc9846001600160a01b03166321f8a72185604051602001611c1c90612f5a565b60405160208183030381529060405280519060200120604051602001611c43929190612f4c565b604051602081830303815290604052805190602001206040518263ffffffff1660e01b8152600401611c7791815260200190565b602060405180830381865afa158015611c94573d6000803e3d6000fd5b505050506040513d601f19601f82011682018060405250810190611cb89190612f92565b82516001600160a01b039091169052565b611d9c846001600160a01b03166321f8a72185604051602001611ceb90612faf565b60405160208183030381529060405280519060200120604051602001611d12929190612f4c565b604051602081830303815290604052805190602001206040518263ffffffff1660e01b8152600401611d4691815260200190565b602060405180830381865afa158015611d63573d6000803e3d6000fd5b505050506040513d601f19601f82011682018060405250810190611d879190612f92565b82516001600160a01b03909116602090910152565b611e6f846001600160a01b03166321f8a72185604051602001611dbe90612fd1565b60405160208183030381529060405280519060200120604051602001611de5929190612f4c565b604051602081830303815290604052805190602001206040518263ffffffff1660e01b8152600401611e1991815260200190565b602060405180830381865afa158015611e36573d6000803e3d6000fd5b505050506040513d601f19601f82011682018060405250810190611e5a9190612f92565b82516001600160a01b03909116604090910152565b611f42846001600160a01b03166321f8a72185604051602001611e9190612efa565b60405160208183030381529060405280519060200120604051602001611eb8929190612f4c565b604051602081830303815290604052805190602001206040518263ffffffff1660e01b8152600401611eec91815260200190565b602060405180830381865afa158015611f09573d6000803e3d6000fd5b505050506040513d601f19601f82011682018060405250810190611f2d9190612f92565b82516001600160a01b03909116606090910152565b612015846001600160a01b03166321f8a72185604051602001611f6490612ffc565b60405160208183030381529060405280519060200120604051602001611f8b929190612f4c565b604051602081830303815290604052805190602001206040518263ffffffff1660e01b8152600401611fbf91815260200190565b602060405180830381865afa158015611fdc573d6000803e3d6000fd5b505050506040513d601f19601f820116820180604052508101906120009190612f92565b82516001600160a01b03909116608090910152565b6120df846001600160a01b0316635948f733856040516020016120379061301c565b6040516020818303038152906040528051906020012060405160200161205e929190612f4c565b604051602081830303815290604052805190602001206040518263ffffffff1660e01b815260040161209291815260200190565b600060405180830381865afa1580156120af573d6000803e3d6000fd5b505050506040513d6000823e601f3d908101601f191682016040526120d791908101906131b8565b825160a00152565b6121a9846001600160a01b0316635948f73385604051602001612101906130a1565b60405160208183030381529060405280519060200120604051602001612128929190612f4c565b604051602081830303815290604052805190602001206040518263ffffffff1660e01b815260040161215c91815260200190565b600060405180830381865afa158015612179573d6000803e3d6000fd5b505050506040513d6000823e601f3d908101601f191682016040526121a191908101906131b8565b825160c00152565b61226f846001600160a01b031663bd02d0f5856040516020016121cb90612e7a565b604051602081830303815290604052805190602001206040516020016121f2929190612f4c565b604051602081830303815290604052805190602001206040518263ffffffff1660e01b815260040161222691815260200190565b602060405180830381865afa158015612243573d6000803e3d6000fd5b505050506040513d601f19601f8201168201806040525081019061226791906130d0565b602083015152565b612337846001600160a01b031663bd02d0f585604051602001612291906130e9565b604051602081830303815290604052805190602001206040516020016122b8929190612f4c565b604051602081830303815290604052805190602001206040518263ffffffff1660e01b81526004016122ec91815260200190565b602060405180830381865afa158015612309573d6000803e3d6000fd5b505050506040513d601f19601f8201168201806040525081019061232d91906130d0565b6020808401510152565b612400846001600160a01b031663bd02d0f58560405160200161235990613118565b60405160208183030381529060405280519060200120604051602001612380929190612f4c565b604051602081830303815290604052805190602001206040518263ffffffff1660e01b81526004016123b491815260200190565b602060405180830381865afa1580156123d1573d6000803e3d6000fd5b505050506040513d601f19601f820116820180604052508101906123f591906130d0565b602083015160400152565b6124c9846001600160a01b031663bd02d0f58560405160200161242290613148565b60405160208183030381529060405280519060200120604051602001612449929190612f4c565b604051602081830303815290604052805190602001206040518263ffffffff1660e01b815260040161247d91815260200190565b602060405180830381865afa15801561249a573d6000803e3d6000fd5b505050506040513d601f19601f820116820180604052508101906124be91906130d0565b602083015160600152565b612592846001600160a01b031663bd02d0f5856040516020016124eb90613172565b60405160208183030381529060405280519060200120604051602001612512929190612f4c565b604051602081830303815290604052805190602001206040518263ffffffff1660e01b815260040161254691815260200190565b602060405180830381865afa158015612563573d6000803e3d6000fd5b505050506040513d601f19601f8201168201806040525081019061258791906130d0565b602083015160800152565b61265b846001600160a01b031663bd02d0f5856040516020016125b490612ed3565b604051602081830303815290604052805190602001206040516020016125db929190612f4c565b604051602081830303815290604052805190602001206040518263ffffffff1660e01b815260040161260f91815260200190565b602060405180830381865afa15801561262c573d6000803e3d6000fd5b505050506040513d601f19601f8201168201806040525081019061265091906130d0565b602083015160a00152565b612724846001600160a01b031663bd02d0f58560405160200161267d90612ea7565b604051602081830303815290604052805190602001206040516020016126a4929190612f4c565b604051602081830303815290604052805190602001206040518263ffffffff1660e01b81526004016126d891815260200190565b602060405180830381865afa1580156126f5573d6000803e3d6000fd5b505050506040513d601f19601f8201168201806040525081019061271991906130d0565b602083015160c00152565b6127ee846001600160a01b0316637ae1cfca8560405160200161274690612e46565b6040516020818303038152906040528051906020012060405160200161276d929190612f4c565b604051602081830303815290604052805190602001206040518263ffffffff1660e01b81526004016127a191815260200190565b602060405180830381865afa1580156127be573d6000803e3d6000fd5b505050506040513d601f19601f820116820180604052508101906127e2919061319b565b60408301519015159052565b90505b92915050565b6000604051602001612834906020808252601790820152761050d0d3d5539517d5d2551211149055d05317d31254d5604a1b604082015260600190565b604051602081830303815290604052805190602001208260405160200161285c929190612f7b565b604051602081830303815290604052805190602001209050919050565b604080516101408101909152600060608083018281526080840183905260a0840183905260c0840183905260e08401929092526101008301819052610120830152819081526020016129016040518060e00160405280600081526020016000815260200160008152602001600081526020016000815260200160008152602001600081525090565b81526040805160208181019092526000815291015290565b6001600160a01b038116811461292e57600080fd5b50565b634e487b7160e01b600052604160045260246000fd5b60405160e081016001600160401b038111828210171561296957612969612931565b60405290565b604051606081016001600160401b038111828210171561296957612969612931565b604051601f8201601f191681016001600160401b03811182821017156129b9576129b9612931565b604052919050565b80356129cc81612919565b919050565b60006001600160401b038211156129ea576129ea612931565b5060051b60200190565b600082601f830112612a0557600080fd5b81356020612a1a612a15836129d1565b612991565b82815260059290921b84018101918181019086841115612a3957600080fd5b8286015b84811015612a5d578035612a5081612919565b8352918301918301612a3d565b509695505050505050565b600060e08284031215612a7a57600080fd5b612a82612947565b9050813581526020820135602082015260408201356040820152606082013560608201526080820135608082015260a082013560a082015260c082013560c082015292915050565b801515811461292e57600080fd5b600060208284031215612aea57600080fd5b604051602081016001600160401b0381118282101715612b0c57612b0c612931565b6040529050808235612b1d81612aca565b905292915050565b600080600060608486031215612b3a57600080fd5b8335612b4581612919565b92506020840135915060408401356001600160401b0380821115612b6857600080fd5b908501906101208288031215612b7d57600080fd5b612b8561296f565b823582811115612b9457600080fd5b830160e0818a031215612ba657600080fd5b612bae612947565b612bb7826129c1565b8152612bc5602083016129c1565b6020820152612bd6604083016129c1565b6040820152612be7606083016129c1565b6060820152612bf8608083016129c1565b608082015260a082013584811115612c0f57600080fd5b612c1b8b8285016129f4565b60a08301525060c082013584811115612c3357600080fd5b612c3f8b8285016129f4565b60c083015250825250612c558860208501612a68565b6020820152612c68886101008501612ad8565b60408201528093505050509250925092565b600080600060608486031215612c8f57600080fd5b8335612c9a81612919565b9250602084013591506040840135612cb181612919565b809150509250925092565b60008060408385031215612ccf57600080fd5b8235612cda81612919565b946020939093013593505050565b6001600160a01b03169052565b600081518084526020808501945080840160005b83811015612d2e5781516001600160a01b031687529582019590820190600101612d09565b509495945050505050565b602081526000825161012080602085015260018060a01b03808351166101408601528060208401511661016086015280604084015116610180860152506060820151612d896101a0860182612ce8565b506080820151612d9d6101c0860182612ce8565b5060a082015160e06101e0860152612db9610220860182612cf5565b905060c0830151925061013f1985820301610200860152612dda8184612cf5565b9250506020850151612e2e6040860182805182526020810151602083015260408101516040830152606081015160608301526080810151608083015260a081015160a083015260c081015160c08301525050565b50604085015180511515858301525090949350505050565b6020808252601a908201527929a427aaa6222faaa72ba920a82fa720aa24ab22afaa27a5a2a760311b604082015260600190565b60208082526013908201527213505492d15517d513d2d15397d05353d55395606a1b604082015260600190565b60208082526012908201527110d05313109050d2d7d1d054d7d31253525560721b604082015260600190565b6020808252600d908201526c455845435554494f4e5f46454560981b604082015260600190565b6020808252600f908201526e2aa4afa322a2afa922a1a2a4ab22a960891b604082015260600190565b6020808252600f908201526e15d2551211149055d05317d31254d5608a1b604082015260600190565b918252602082015260400190565b6020808252600790820152661050d0d3d5539560ca1b604082015260600190565b9182526001600160a01b0316602082015260400190565b600060208284031215612fa457600080fd5b81516127ee81612919565b6020808252600890820152672922a1a2a4ab22a960c11b604082015260600190565b60208082526011908201527010d05313109050d2d7d0d3d395149050d5607a1b604082015260600190565b60208082526006908201526513505492d15560d21b604082015260600190565b6020808252601490820152730989e9c8ebea89e968a9cbea6ae82a0bea082a8960631b604082015260600190565b6000604082018483526020604081850152818551808452606086019150828701935060005b818110156130945784516001600160a01b03168352938301939183019160010161306f565b5090979650505050505050565b6020808252601590820152740a6909ea4a8bea89e968a9cbea6ae82a0bea082a89605b1b604082015260600190565b6000602082840312156130e257600080fd5b5051919050565b60208082526015908201527413525397d313d391d7d513d2d15397d05353d55395605a1b604082015260600190565b60208082526016908201527513525397d4d213d49517d513d2d15397d05353d5539560521b604082015260600190565b60208082526010908201526f555044415445445f41545f424c4f434b60801b604082015260600190565b6020808252600f908201526e555044415445445f41545f54494d4560881b604082015260600190565b6000602082840312156131ad57600080fd5b81516127ee81612aca565b600060208083850312156131cb57600080fd5b82516001600160401b038111156131e157600080fd5b8301601f810185136131f257600080fd5b8051613200612a15826129d1565b81815260059190911b8201830190838101908783111561321f57600080fd5b928401925b8284101561324657835161323781612919565b82529284019290840190613224565b97965050505050505056fea2646970667358221220ecf5cadf7b6bdd8c9219b320c756000b75e46a2d4cbd970170a37e088333dc3864736f6c63430008120033",
  "libraries": {},
  "devdoc": {
    "details": "Library for withdrawal storage functions",
    "kind": "dev",
    "methods": {},
    "title": "WithdrawalStoreUtils",
    "version": 1
  },
  "userdoc": {
    "kind": "user",
    "methods": {},
    "version": 1
  },
  "storageLayout": {
    "storage": [],
    "types": null
  }
}