{
  "address": "0x9F6a6D96cEA1C6bCD58e074FF2590855EEa02589",
  "abi": [
    {
      "anonymous": false,
      "inputs": [
        {
          "indexed": false,
          "internalType": "uint256",
          "name": "a",
          "type": "uint256"
        },
        {
          "indexed": false,
          "internalType": "uint256",
          "name": "b",
          "type": "uint256"
        }
      ],
      "name": "CurrentTxL1GasFees",
      "type": "event"
    },
    {
      "inputs": [],
      "name": "data",
      "outputs": [
        {
          "internalType": "string",
          "name": "",
          "type": "string"
        }
      ],
      "stateMutability": "view",
      "type": "function"
    },
    {
      "inputs": [
        {
          "internalType": "string",
          "name": "_data",
          "type": "string"
        }
      ],
      "name": "getCurrentTxL1GasFees",
      "outputs": [
        {
          "internalType": "uint256",
          "name": "",
          "type": "uint256"
        },
        {
          "internalType": "uint256",
          "name": "",
          "type": "uint256"
        }
      ],
      "stateMutability": "view",
      "type": "function"
    },
    {
      "inputs": [
        {
          "internalType": "string",
          "name": "_data",
          "type": "string"
        }
      ],
      "name": "test",
      "outputs": [
        {
          "internalType": "uint256",
          "name": "",
          "type": "uint256"
        },
        {
          "internalType": "uint256",
          "name": "",
          "type": "uint256"
        }
      ],
      "stateMutability": "nonpayable",
      "type": "function"
    }
  ],
  "transactionHash": "0x3483525ef77bdd27cbcefba6af307e1a079cb06d4d6fc7550afc5e050d640d6a",
  "args": [],
  "numDeployments": 3,
  "solcInputHash": "b59ab11db62dbd0205880c8c911f4d2b",
  "bytecode": "0x608060405234801561001057600080fd5b506106b4806100206000396000f3fe608060405234801561001057600080fd5b50600436106100415760003560e01c806373d4a13a14610046578063da9027ef14610064578063f9fbd5541461008c575b600080fd5b61004e61009f565b60405161005b919061040b565b60405180910390f35b610077610072366004610459565b61012d565b6040805192835260208301919091520161005b565b61007761009a366004610459565b61027d565b600080546100ac906104ca565b80601f01602080910402602001604051908101604052809291908181526020018280546100d8906104ca565b80156101255780601f106100fa57610100808354040283529160200191610125565b820191906000526020600020905b81548152906001019060200180831161010857829003601f168201915b505050505081565b6000806000606c6001600160a01b031663c6f7de0e6040518163ffffffff1660e01b8152600401602060405180830381865afa158015610171573d6000803e3d6000fd5b505050506040513d601f19601f820116820180604052508101906101959190610504565b905060006040516020016101a89061051d565b6040516020818303038152906040528051906020012086866040516020016101d192919061052c565b604051602081830303815290604052805190602001200361020d5760405162461bcd60e51b81526004016102049061053c565b60405180910390fd5b606c6001600160a01b031663c6f7de0e6040518163ffffffff1660e01b8152600401602060405180830381865afa15801561024c573d6000803e3d6000fd5b505050506040513d601f19601f820116820180604052508101906102709190610504565b9196919550909350505050565b6000806000606c6001600160a01b031663c6f7de0e6040518163ffffffff1660e01b8152600401602060405180830381865afa1580156102c1573d6000803e3d6000fd5b505050506040513d601f19601f820116820180604052508101906102e59190610504565b90506000806102f58688836105be565b506040516020016103059061051d565b60405160208183030381529060405280519060200120868660405160200161032e92919061052c565b60405160208183030381529060405280519060200120036103615760405162461bcd60e51b81526004016102049061053c565b606c6001600160a01b031663c6f7de0e6040518163ffffffff1660e01b8152600401602060405180830381865afa1580156103a0573d6000803e3d6000fd5b505050506040513d601f19601f820116820180604052508101906103c49190610504565b60408051848152602081018390529192507fd404f9b5238ff8b18d7ce4bdd396925661315ffb6a05afd1ab1b38b3ec637e92910160405180910390a1909590945092505050565b600060208083528351808285015260005b818110156104385785810183015185820160400152820161041c565b506000604082860101526040601f19601f8301168501019250505092915050565b6000806020838503121561046c57600080fd5b82356001600160401b038082111561048357600080fd5b818501915085601f83011261049757600080fd5b8135818111156104a657600080fd5b8660208285010111156104b857600080fd5b60209290920196919550909350505050565b600181811c908216806104de57607f821691505b6020821081036104fe57634e487b7160e01b600052602260045260246000fd5b50919050565b60006020828403121561051657600080fd5b5051919050565b62464f4f60e81b815260030190565b8183823760009101908152919050565b602080825260039082015262464f4f60e81b604082015260600190565b634e487b7160e01b600052604160045260246000fd5b601f8211156105b957600081815260208120601f850160051c810160208610156105965750805b601f850160051c820191505b818110156105b5578281556001016105a2565b5050505b505050565b6001600160401b038311156105d5576105d5610559565b6105e9836105e383546104ca565b8361056f565b6000601f84116001811461061d57600085156106055750838201355b600019600387901b1c1916600186901b178355610677565b600083815260209020601f19861690835b8281101561064e578685013582556020948501946001909201910161062e565b508682101561066b5760001960f88860031b161c19848701351681555b505060018560011b0183555b505050505056fea2646970667358221220497b87200891be07efab7b077f55c1d167900f9d20093caccff9f40eabef58d964736f6c63430008120033",
  "libraries": {},
  "devdoc": {
    "kind": "dev",
    "methods": {},
    "version": 1
  },
  "userdoc": {
    "kind": "user",
    "methods": {},
    "version": 1
  },
  "storageLayout": {
    "storage": [
      {
        "astId": 12,
        "contract": "contracts/test/ArbGasInfoTest.sol:ArbGasInfoTest",
        "label": "data",
        "offset": 0,
        "slot": "0",
        "type": "t_string_storage"
      }
    ],
    "types": {
      "t_string_storage": {
        "encoding": "bytes",
        "label": "string",
        "numberOfBytes": "32"
      }
    }
  }
}