{
  "address": "0xD73196d1e48b3AED7d740607A1C3319A561bBb73",
  "abi": [
    {
      "inputs": [],
      "name": "arbSys",
      "outputs": [
        {
          "internalType": "contract ArbSys",
          "name": "",
          "type": "address"
        }
      ],
      "stateMutability": "view",
      "type": "function"
    },
    {
      "inputs": [
        {
          "internalType": "uint256",
          "name": "blockNumber",
          "type": "uint256"
        }
      ],
      "name": "getBlockHash",
      "outputs": [
        {
          "internalType": "bytes32",
          "name": "",
          "type": "bytes32"
        }
      ],
      "stateMutability": "view",
      "type": "function"
    },
    {
      "inputs": [],
      "name": "latestBlockHash",
      "outputs": [
        {
          "internalType": "bytes32",
          "name": "",
          "type": "bytes32"
        }
      ],
      "stateMutability": "view",
      "type": "function"
    },
    {
      "inputs": [
        {
          "internalType": "uint256",
          "name": "blockNumber",
          "type": "uint256"
        }
      ],
      "name": "updateLatestBlockHash",
      "outputs": [],
      "stateMutability": "nonpayable",
      "type": "function"
    }
  ],
  "transactionHash": "0xd3f820ba44e53b6b1b8a5ce00b4b0b132b2fc2c8c6f2b282b489e1646a1a1a13",
  "args": [],
  "numDeployments": 3,
  "solcInputHash": "11048e56550245085525ef29af9592f5",
  "bytecode": "0x608060405234801561001057600080fd5b506101e0806100206000396000f3fe608060405234801561001057600080fd5b506004361061004c5760003560e01c80631057d40f1461005157806316ceb92b146100765780636c4f6ba91461008b578063ee82ac5e146100a2575b600080fd5b610059606481565b6040516001600160a01b0390911681526020015b60405180910390f35b610089610084366004610178565b6100b5565b005b61009460005481565b60405190815260200161006d565b6100946100b0366004610178565b61010e565b60006100c08261010e565b9050806101085760405162461bcd60e51b8152602060048201526012602482015271626c6f636b4861736820697320656d70747960701b604482015260640160405180910390fd5b60005550565b6040516315a03d4160e11b815260048101829052600090606490632b407a8290602401602060405180830381865afa15801561014e573d6000803e3d6000fd5b505050506040513d601f19601f820116820180604052508101906101729190610191565b92915050565b60006020828403121561018a57600080fd5b5035919050565b6000602082840312156101a357600080fd5b505191905056fea264697066735822122087a0793e464b93585f51a56ac3029252e082c7ebb7be7006d8cf5ec17902d7b464736f6c63430008120033",
  "libraries": {},
  "devdoc": {
    "kind": "dev",
    "methods": {},
    "version": 1
  },
  "userdoc": {
    "kind": "user",
    "methods": {},
    "version": 1
  },
  "storageLayout": {
    "storage": [
      {
        "astId": 25,
        "contract": "contracts/chain/ChainReader.sol:ChainReader",
        "label": "latestBlockHash",
        "offset": 0,
        "slot": "0",
        "type": "t_bytes32"
      }
    ],
    "types": {
      "t_bytes32": {
        "encoding": "inplace",
        "label": "bytes32",
        "numberOfBytes": "32"
      }
    }
  }
}