{
  "address": "0xBe71871DF024a5284fdD4c4D7797EF52b0Ba7c81",
  "abi": [
    {
      "inputs": [],
      "name": "arbSys",
      "outputs": [
        {
          "internalType": "contract ArbSys",
          "name": "",
          "type": "address"
        }
      ],
      "stateMutability": "view",
      "type": "function"
    },
    {
      "inputs": [
        {
          "internalType": "uint256",
          "name": "blockNumber",
          "type": "uint256"
        }
      ],
      "name": "getBlockHash",
      "outputs": [
        {
          "internalType": "bytes32",
          "name": "",
          "type": "bytes32"
        }
      ],
      "stateMutability": "view",
      "type": "function"
    },
    {
      "inputs": [],
      "name": "latestBlockHash",
      "outputs": [
        {
          "internalType": "bytes32",
          "name": "",
          "type": "bytes32"
        }
      ],
      "stateMutability": "view",
      "type": "function"
    },
    {
      "inputs": [
        {
          "internalType": "uint256",
          "name": "blockNumber",
          "type": "uint256"
        }
      ],
      "name": "updateLatestBlockHash",
      "outputs": [],
      "stateMutability": "nonpayable",
      "type": "function"
    }
  ],
  "transactionHash": "0x0710fb1bf2899696894ebb908317982277608772d43a1dd98b4228efc9024fbd",
  "args": [],
  "numDeployments": 2,
  "solcInputHash": "b819bf922ff5f2bdf54193b3ff034bba",
  "bytecode": "0x608060405234801561001057600080fd5b50610199806100206000396000f3fe608060405234801561001057600080fd5b506004361061004c5760003560e01c80631057d40f1461005157806316ceb92b146100765780636c4f6ba91461008b578063ee82ac5e146100a2575b600080fd5b610059606481565b6040516001600160a01b0390911681526020015b60405180910390f35b610089610084366004610131565b6100b5565b005b61009460005481565b60405190815260200161006d565b6100946100b0366004610131565b6100c7565b60006100c0826100c7565b6000555050565b6040516315a03d4160e11b815260048101829052600090606490632b407a8290602401602060405180830381865afa158015610107573d6000803e3d6000fd5b505050506040513d601f19601f8201168201806040525081019061012b919061014a565b92915050565b60006020828403121561014357600080fd5b5035919050565b60006020828403121561015c57600080fd5b505191905056fea2646970667358221220689438bb78374a7cf028257480ff5271c106c8396e99a424c888d0f7a05e15f164736f6c63430008120033",
  "libraries": {},
  "devdoc": {
    "kind": "dev",
    "methods": {},
    "version": 1
  },
  "userdoc": {
    "kind": "user",
    "methods": {},
    "version": 1
  },
  "storageLayout": {
    "storage": [
      {
        "astId": 25,
        "contract": "contracts/chain/ChainReader.sol:ChainReader",
        "label": "latestBlockHash",
        "offset": 0,
        "slot": "0",
        "type": "t_bytes32"
      }
    ],
    "types": {
      "t_bytes32": {
        "encoding": "inplace",
        "label": "bytes32",
        "numberOfBytes": "32"
      }
    }
  }
}