{
  "address": "0x389CEf541397e872dC04421f166B5Bc2E0b374a5",
  "abi": [
    {
      "inputs": [
        {
          "internalType": "bytes",
          "name": "data",
          "type": "bytes"
        }
      ],
      "name": "ExternalCallFailed",
      "type": "error"
    },
    {
      "inputs": [
        {
          "internalType": "uint256",
          "name": "targetsLength",
          "type": "uint256"
        },
        {
          "internalType": "uint256",
          "name": "dataListLength",
          "type": "uint256"
        }
      ],
      "name": "InvalidExternalCallInput",
      "type": "error"
    },
    {
      "inputs": [
        {
          "internalType": "address",
          "name": "target",
          "type": "address"
        }
      ],
      "name": "InvalidExternalCallTarget",
      "type": "error"
    },
    {
      "inputs": [
        {
          "internalType": "uint256",
          "name": "refundTokensLength",
          "type": "uint256"
        },
        {
          "internalType": "uint256",
          "name": "refundReceiversLength",
          "type": "uint256"
        }
      ],
      "name": "InvalidExternalReceiversInput",
      "type": "error"
    },
    {
      "inputs": [
        {
          "internalType": "address[]",
          "name": "targets",
          "type": "address[]"
        },
        {
          "internalType": "bytes[]",
          "name": "dataList",
          "type": "bytes[]"
        },
        {
          "internalType": "address[]",
          "name": "refundTokens",
          "type": "address[]"
        },
        {
          "internalType": "address[]",
          "name": "refundReceivers",
          "type": "address[]"
        }
      ],
      "name": "makeExternalCalls",
      "outputs": [],
      "stateMutability": "nonpayable",
      "type": "function"
    }
  ],
  "transactionHash": "0x8eb4c2384c643d8429eba8eb5943f6ab532cfd2f42312e09313720da94c7680c",
  "args": [],
  "numDeployments": 1,
  "solcInputHash": "08fd7b3b3b0672729265c12ab3493614",
  "bytecode": "0x608060405234801561001057600080fd5b50600160005561097d806100256000396000f3fe608060405234801561001057600080fd5b506004361061002b5760003560e01c8063d59922b014610030575b600080fd5b61004361003e3660046106c8565b610045565b005b61004d610209565b8251845114610081578351835160405163831e9f1160e01b8152600481019290925260248201526044015b60405180910390fd5b80518251146100b0578151815160405163e15f270160e01b815260048101929092526024820152604401610078565b60005b845181101561010a576100f88582815181106100d1576100d1610835565b60200260200101518583815181106100eb576100eb610835565b6020026020010151610262565b806101028161084b565b9150506100b3565b5060005b82518110156101f857600083828151811061012b5761012b610835565b602002602001015190506000816001600160a01b03166370a08231306040518263ffffffff1660e01b81526004016101639190610872565b602060405180830381865afa158015610180573d6000803e3d6000fd5b505050506040513d601f19601f820116820180604052508101906101a49190610886565b905080156101e3576101e38484815181106101c1576101c1610835565b602002602001015182846001600160a01b03166103159092919063ffffffff16565b505080806101f09061084b565b91505061010e565b506102036001600055565b50505050565b60026000540361025b5760405162461bcd60e51b815260206004820152601f60248201527f5265656e7472616e637947756172643a207265656e7472616e742063616c6c006044820152606401610078565b6002600055565b610274826001600160a01b031661036c565b610293578160405163be55c89560e01b81526004016100789190610872565b600080836001600160a01b0316836040516102ae91906108c3565b6000604051808303816000865af19150503d80600081146102eb576040519150601f19603f3d011682016040523d82523d6000602084013e6102f0565b606091505b5091509150816102035780604051632cd7eb6360e11b8152600401610078919061090b565b604080516001600160a01b038416602482015260448082018490528251808303909101815260649091019091526020810180516001600160e01b031663a9059cbb60e01b17905261036790849061037b565b505050565b6001600160a01b03163b151590565b60006103d0826040518060400160405280602081526020017f5361666545524332303a206c6f772d6c6576656c2063616c6c206661696c6564815250856001600160a01b03166104509092919063ffffffff16565b90508051600014806103f15750808060200190518101906103f19190610925565b6103675760405162461bcd60e51b815260206004820152602a60248201527f5361666545524332303a204552433230206f7065726174696f6e20646964206e6044820152691bdd081cdd58d8d9595960b21b6064820152608401610078565b606061045f8484600085610467565b949350505050565b6060824710156104c85760405162461bcd60e51b815260206004820152602660248201527f416464726573733a20696e73756666696369656e742062616c616e636520666f6044820152651c8818d85b1b60d21b6064820152608401610078565b600080866001600160a01b031685876040516104e491906108c3565b60006040518083038185875af1925050503d8060008114610521576040519150601f19603f3d011682016040523d82523d6000602084013e610526565b606091505b509150915061053787838387610542565b979650505050505050565b606083156105af5782516000036105a85761055c8561036c565b6105a85760405162461bcd60e51b815260206004820152601d60248201527f416464726573733a2063616c6c20746f206e6f6e2d636f6e74726163740000006044820152606401610078565b508161045f565b61045f83838151156105c45781518083602001fd5b8060405162461bcd60e51b8152600401610078919061090b565b634e487b7160e01b600052604160045260246000fd5b604051601f8201601f191681016001600160401b038111828210171561061c5761061c6105de565b604052919050565b60006001600160401b0382111561063d5761063d6105de565b5060051b60200190565b600082601f83011261065857600080fd5b8135602061066d61066883610624565b6105f4565b82815260059290921b8401810191818101908684111561068c57600080fd5b8286015b848110156106bd5780356001600160a01b03811681146106b05760008081fd5b8352918301918301610690565b509695505050505050565b600080600080608085870312156106de57600080fd5b84356001600160401b03808211156106f557600080fd5b61070188838901610647565b955060209150818701358181111561071857600080fd5b8701601f8101891361072957600080fd5b803561073761066882610624565b81815260059190911b8201840190848101908b83111561075657600080fd5b8584015b838110156107e05780358681111561077157600080fd5b8501603f81018e1361078257600080fd5b8781013587811115610796576107966105de565b6107a8601f8201601f19168a016105f4565b8181528f60408385010111156107be5760008081fd5b81604084018b83013760009181018a019190915284525091860191860161075a565b50975050505060408701359150808211156107fa57600080fd5b61080688838901610647565b9350606087013591508082111561081c57600080fd5b5061082987828801610647565b91505092959194509250565b634e487b7160e01b600052603260045260246000fd5b60006001820161086b57634e487b7160e01b600052601160045260246000fd5b5060010190565b6001600160a01b0391909116815260200190565b60006020828403121561089857600080fd5b5051919050565b60005b838110156108ba5781810151838201526020016108a2565b50506000910152565b600082516108d581846020870161089f565b9190910192915050565b600081518084526108f781602086016020860161089f565b601f01601f19169290920160200192915050565b60208152600061091e60208301846108df565b9392505050565b60006020828403121561093757600080fd5b8151801515811461091e57600080fdfea26469706673582212207dbb5606da5007992621791d3e46408b1ea95ca46effe68eb18b909618ba6aad64736f6c63430008120033",
  "libraries": {},
  "devdoc": {
    "kind": "dev",
    "methods": {},
    "version": 1
  },
  "userdoc": {
    "kind": "user",
    "methods": {},
    "version": 1
  },
  "storageLayout": {
    "storage": [
      {
        "astId": 242,
        "contract": "contracts/external/ExternalHandler.sol:ExternalHandler",
        "label": "_status",
        "offset": 0,
        "slot": "0",
        "type": "t_uint256"
      }
    ],
    "types": {
      "t_uint256": {
        "encoding": "inplace",
        "label": "uint256",
        "numberOfBytes": "32"
      }
    }
  }
}