{
  "address": "0x5A44a3b026d50EC039582fDb3aFDD88e2092E211",
  "abi": [
    {
      "inputs": [
        {
          "internalType": "contract RoleStore",
          "name": "_roleStore",
          "type": "address"
        },
        {
          "internalType": "contract FeeDistributorVault",
          "name": "_feeDistributorVault",
          "type": "address"
        },
        {
          "internalType": "contract FeeHandler",
          "name": "_feeHandler",
          "type": "address"
        },
        {
          "internalType": "contract DataStore",
          "name": "_dataStore",
          "type": "address"
        },
        {
          "internalType": "contract EventEmitter",
          "name": "_eventEmitter",
          "type": "address"
        },
        {
          "internalType": "contract MultichainReader",
          "name": "_multichainReader",
          "type": "address"
        },
        {
          "internalType": "address",
          "name": "_claimVault",
          "type": "address"
        },
        {
          "internalType": "address",
          "name": "_gmx",
          "type": "address"
        },
        {
          "internalType": "address",
          "name": "_esGmx",
          "type": "address"
        },
        {
          "internalType": "address",
          "name": "_wnt",
          "type": "address"
        }
      ],
      "stateMutability": "nonpayable",
      "type": "constructor"
    },
    {
      "inputs": [
        {
          "internalType": "uint256",
          "name": "minRequiredFeeAmount",
          "type": "uint256"
        },
        {
          "internalType": "uint256",
          "name": "feeAmountCurrentChain",
          "type": "uint256"
        },
        {
          "internalType": "uint256",
          "name": "amountToBridgeOut",
          "type": "uint256"
        }
      ],
      "name": "AttemptedBridgeAmountTooHigh",
      "type": "error"
    },
    {
      "inputs": [
        {
          "internalType": "uint256",
          "name": "minRequiredFeeAmount",
          "type": "uint256"
        },
        {
          "internalType": "uint256",
          "name": "currentChainFeeAmount",
          "type": "uint256"
        }
      ],
      "name": "BridgedAmountNotSufficient",
      "type": "error"
    },
    {
      "inputs": [
        {
          "internalType": "address",
          "name": "token",
          "type": "address"
        },
        {
          "internalType": "uint256",
          "name": "timestamp",
          "type": "uint256"
        },
        {
          "internalType": "uint256",
          "name": "heartbeatDuration",
          "type": "uint256"
        }
      ],
      "name": "ChainlinkPriceFeedNotUpdated",
      "type": "error"
    },
    {
      "inputs": [
        {
          "internalType": "address",
          "name": "token",
          "type": "address"
        }
      ],
      "name": "EmptyChainlinkPriceFeed",
      "type": "error"
    },
    {
      "inputs": [
        {
          "internalType": "address",
          "name": "token",
          "type": "address"
        }
      ],
      "name": "EmptyChainlinkPriceFeedMultiplier",
      "type": "error"
    },
    {
      "inputs": [
        {
          "internalType": "uint256",
          "name": "lastDistributionTime",
          "type": "uint256"
        },
        {
          "internalType": "uint256",
          "name": "startOfCurrentWeek",
          "type": "uint256"
        }
      ],
      "name": "FeeDistributionAlreadyCompleted",
      "type": "error"
    },
    {
      "inputs": [
        {
          "internalType": "address",
          "name": "token",
          "type": "address"
        }
      ],
      "name": "InsufficientFunds",
      "type": "error"
    },
    {
      "inputs": [
        {
          "internalType": "uint256",
          "name": "distributionStateUint",
          "type": "uint256"
        }
      ],
      "name": "InvalidDistributionState",
      "type": "error"
    },
    {
      "inputs": [
        {
          "internalType": "address",
          "name": "receiver",
          "type": "address"
        }
      ],
      "name": "InvalidFeeReceiver",
      "type": "error"
    },
    {
      "inputs": [
        {
          "internalType": "address",
          "name": "token",
          "type": "address"
        },
        {
          "internalType": "int256",
          "name": "price",
          "type": "int256"
        }
      ],
      "name": "InvalidFeedPrice",
      "type": "error"
    },
    {
      "inputs": [
        {
          "internalType": "address",
          "name": "token",
          "type": "address"
        }
      ],
      "name": "InvalidReferralRewardToken",
      "type": "error"
    },
    {
      "inputs": [
        {
          "internalType": "uint256",
          "name": "wntForKeepers",
          "type": "uint256"
        },
        {
          "internalType": "uint256",
          "name": "wntToKeepers",
          "type": "uint256"
        }
      ],
      "name": "KeeperAmountMismatch",
      "type": "error"
    },
    {
      "inputs": [
        {
          "internalType": "uint256",
          "name": "tokensForReferralRewards",
          "type": "uint256"
        },
        {
          "internalType": "uint256",
          "name": "maxEsGmxReferralRewards",
          "type": "uint256"
        }
      ],
      "name": "MaxEsGmxReferralRewardsAmountExceeded",
      "type": "error"
    },
    {
      "inputs": [
        {
          "internalType": "address",
          "name": "token",
          "type": "address"
        },
        {
          "internalType": "uint256",
          "name": "cumulativeTransferAmount",
          "type": "uint256"
        },
        {
          "internalType": "uint256",
          "name": "tokensForReferralRewards",
          "type": "uint256"
        }
      ],
      "name": "MaxReferralRewardsExceeded",
      "type": "error"
    },
    {
      "inputs": [
        {
          "internalType": "uint256",
          "name": "maxWntFromTreasury",
          "type": "uint256"
        },
        {
          "internalType": "uint256",
          "name": "additionalWntFromTreasury",
          "type": "uint256"
        }
      ],
      "name": "MaxWntFromTreasuryExceeded",
      "type": "error"
    },
    {
      "inputs": [
        {
          "internalType": "uint256",
          "name": "wntReferralRewardsInUsd",
          "type": "uint256"
        },
        {
          "internalType": "uint256",
          "name": "maxWntReferralRewardsInUsdAmount",
          "type": "uint256"
        }
      ],
      "name": "MaxWntReferralRewardsInUsdAmountExceeded",
      "type": "error"
    },
    {
      "inputs": [
        {
          "internalType": "uint256",
          "name": "wntReferralRewardsInUsd",
          "type": "uint256"
        },
        {
          "internalType": "uint256",
          "name": "maxWntReferralRewardsInUsd",
          "type": "uint256"
        }
      ],
      "name": "MaxWntReferralRewardsInUsdExceeded",
      "type": "error"
    },
    {
      "inputs": [
        {
          "internalType": "uint256",
          "name": "timestamp",
          "type": "uint256"
        }
      ],
      "name": "OutdatedReadResponse",
      "type": "error"
    },
    {
      "inputs": [
        {
          "internalType": "address",
          "name": "msgSender",
          "type": "address"
        },
        {
          "internalType": "string",
          "name": "role",
          "type": "string"
        }
      ],
      "name": "Unauthorized",
      "type": "error"
    },
    {
      "inputs": [],
      "name": "ZeroTreasuryAddress",
      "type": "error"
    },
    {
      "inputs": [],
      "name": "bridgedGmxReceived",
      "outputs": [],
      "stateMutability": "nonpayable",
      "type": "function"
    },
    {
      "inputs": [
        {
          "internalType": "address",
          "name": "token",
          "type": "address"
        },
        {
          "internalType": "uint256",
          "name": "distributionId",
          "type": "uint256"
        },
        {
          "components": [
            {
              "internalType": "address",
              "name": "account",
              "type": "address"
            },
            {
              "internalType": "uint256",
              "name": "amount",
              "type": "uint256"
            }
          ],
          "internalType": "struct ClaimUtils.DepositParam[]",
          "name": "params",
          "type": "tuple[]"
        }
      ],
      "name": "depositReferralRewards",
      "outputs": [],
      "stateMutability": "nonpayable",
      "type": "function"
    },
    {
      "inputs": [
        {
          "internalType": "uint256",
          "name": "wntReferralRewardsInUsd",
          "type": "uint256"
        },
        {
          "internalType": "uint256",
          "name": "esGmxForReferralRewards",
          "type": "uint256"
        },
        {
          "internalType": "uint256",
          "name": "feesV1Usd",
          "type": "uint256"
        },
        {
          "internalType": "uint256",
          "name": "feesV2Usd",
          "type": "uint256"
        }
      ],
      "name": "distribute",
      "outputs": [],
      "stateMutability": "nonpayable",
      "type": "function"
    },
    {
      "inputs": [],
      "name": "initiateDistribute",
      "outputs": [],
      "stateMutability": "nonpayable",
      "type": "function"
    },
    {
      "inputs": [
        {
          "internalType": "bytes32",
          "name": "",
          "type": "bytes32"
        },
        {
          "components": [
            {
              "internalType": "uint256",
              "name": "timestamp",
              "type": "uint256"
            },
            {
              "internalType": "bytes",
              "name": "readData",
              "type": "bytes"
            }
          ],
          "internalType": "struct MultichainReaderUtils.ReceivedData",
          "name": "receivedData",
          "type": "tuple"
        }
      ],
      "name": "processLzReceive",
      "outputs": [],
      "stateMutability": "nonpayable",
      "type": "function"
    },
    {
      "inputs": [],
      "name": "roleStore",
      "outputs": [
        {
          "internalType": "contract RoleStore",
          "name": "",
          "type": "address"
        }
      ],
      "stateMutability": "view",
      "type": "function"
    },
    {
      "inputs": [
        {
          "internalType": "address",
          "name": "receiver",
          "type": "address"
        },
        {
          "internalType": "uint256",
          "name": "amount",
          "type": "uint256"
        }
      ],
      "name": "withdrawNativeToken",
      "outputs": [],
      "stateMutability": "nonpayable",
      "type": "function"
    },
    {
      "inputs": [
        {
          "internalType": "address",
          "name": "token",
          "type": "address"
        },
        {
          "internalType": "address",
          "name": "receiver",
          "type": "address"
        },
        {
          "internalType": "uint256",
          "name": "amount",
          "type": "uint256"
        }
      ],
      "name": "withdrawToken",
      "outputs": [],
      "stateMutability": "nonpayable",
      "type": "function"
    },
    {
      "stateMutability": "payable",
      "type": "receive"
    }
  ],
  "transactionHash": "0x6cc85500a0402b15d5928dbb12a458baebe6322b22a40b27c6392261c44a24a5",
  "args": [
    "0x3c3d99FD298f679DBC2CEcd132b4eC4d0F5e6e72",
    "0x133bA19c1B679DDb847d05E5b4C9546dAf955ae0",
    "0x7EB417637a3E6d1C19E6d69158c47610b7a5d9B3",
    "0xFD70de6b91282D8017aA4E741e9Ae325CAb992d8",
    "0xC8ee91A54287DB53897056e12D9819156D3822Fb",
    "0x823b558B4bC0a2C4974a0d8D7885AA1102D15dEC",
    "0x6a5771a57445400c00a8656C34ECC309996657e4",
    "0xfc5A1A6EB076a2C7aD06eD22C90d7E710E35ad0a",
    "0xf42Ae1D54fd613C9bb14810b0588FaAa09a426cA",
    "0x82aF49447D8a07e3bd95BD0d56f35241523fBab1"
  ],
  "numDeployments": 1,
  "solcInputHash": "49c229b5584dbb8d6ff79778d3108f1f",
  "bytecode": "0x6101c060405234801561001157600080fd5b50604051615da7380380615da7833981016040819052610030916100a6565b60016000556001600160a01b03998a1660805297891660a05295881660c05293871660e05291861661010052851661012052841661014052831661016052821661018052166101a05261017a565b6001600160a01b038116811461009357600080fd5b50565b80516100a18161007e565b919050565b6000806000806000806000806000806101408b8d0312156100c657600080fd5b8a516100d18161007e565b60208c0151909a506100e28161007e565b60408c01519099506100f38161007e565b60608c01519098506101048161007e565b60808c01519097506101158161007e565b60a08c01519096506101268161007e565b60c08c01519095506101378161007e565b60e08c01519094506101488161007e565b6101008c015190935061015a8161007e565b91506101696101208c01610096565b90509295989b9194979a5092959850565b60805160a05160c05160e05161010051610120516101405161016051610180516101a051615a8d61031a60003960008181610475015281816105160152818161083f01528181611bcd015281816121f8015281816129f7015281816132a90152818161365d01526136b70152600081816105480152818161087201526117fe015260008181610a0f01528181610a3b0152818161105d0152818161168c015281816129a10152818161378001528181613b880152613c2c015260008181611cec0152611dd2015260008181610d890152610e1c015260008181611b2801528181611c7301526125b00152600081816101fc015281816102cd015281816108c8015281816110e901528181611c5101528181611d1301528181611db001528181611fed0152818161223d015281816123ba0152818161262c015281816133b701528181613472015261396a01526000818161044801526110300152600081816107ca015281816118de0152818161272001528181612d4d015281816132ea015281816135af0152613e1b01526000818160af0152611e590152615a8d6000f3fe60806040526004361061006f5760003560e01c806301e336671461007b5780634a4a7b041461009d578063536c6bfa146100e757806361465a3214610107578063707fcf1914610127578063a16f187e1461013c578063b5cb97f61461015c578063c49946841461017157600080fd5b3661007657005b600080fd5b34801561008757600080fd5b5061009b610096366004614478565b610191565b005b3480156100a957600080fd5b506100d17f000000000000000000000000000000000000000000000000000000000000000081565b6040516100de91906144b9565b60405180910390f35b3480156100f357600080fd5b5061009b6101023660046144cd565b61028c565b34801561011357600080fd5b5061009b6101223660046144f9565b61032d565b34801561013357600080fd5b5061009b61077d565b34801561014857600080fd5b5061009b61015736600461452b565b610f88565b34801561016857600080fd5b5061009b6115af565b34801561017d57600080fd5b5061009b61018c366004614578565b6117b8565b6101e56040516020016101a390614605565b604051602081830303815290604052805190602001206040518060400160405280600e81526020016d2a24a6a2a627a1a5afa0a226a4a760911b815250611e42565b604051633121ce9b60e01b81526001600160a01b037f000000000000000000000000000000000000000000000000000000000000000081166004830152808516602483015283166044820152606481018290527305fcA76DeE79743426DacE9A3369e4B9Af7Fe4ea90633121ce9b9060840160006040518083038186803b15801561026f57600080fd5b505af4158015610283573d6000803e3d6000fd5b50505050505050565b61029e6040516020016101a390614605565b604051635220390560e01b81527305fcA76DeE79743426DacE9A3369e4B9Af7Fe4ea906352203905906102f9907f0000000000000000000000000000000000000000000000000000000000000000908690869060040161462d565b60006040518083038186803b15801561031157600080fd5b505af4158015610325573d6000803e3d6000fd5b505050505050565b610335611ef6565b61039260405160200161034790614651565b60405160208183030381529060405280519060200120604051806040016040528060178152602001762322a2afa224a9aa2924a12aaa24a7a72fa5a2a2a822a960491b815250611e42565b60006103c16040516020016103a690614682565b60405160208183030381529060405280519060200120611f4f565b90506001600160a01b0381166103ea576040516351dc806d60e11b815260040160405180910390fd5b6103f46003611f68565b610429610424604051602001610409906146a4565b60405160208183030381529060405280519060200120611fd4565b612061565b6104316120e4565b604051630b27346f60e11b81526001600160a01b037f0000000000000000000000000000000000000000000000000000000000000000169063164e68de9061049d907f0000000000000000000000000000000000000000000000000000000000000000906004016144b9565b600060405180830381600087803b1580156104b757600080fd5b505af11580156104cb573d6000803e3d6000fd5b505050506000806000806104e08988886121eb565b93509350935093506104fb6104f5600161231b565b886123a3565b61050e610508600261231b565b876123a3565b61054061053a7f0000000000000000000000000000000000000000000000000000000000000000612439565b826123a3565b61057261056c7f0000000000000000000000000000000000000000000000000000000000000000612439565b896123a3565b6105a0604051602001610584906146eb565b60405160208183030381529060405280519060200120426123a3565b6105aa60006124ac565b6105b2614353565b60208101516105c29060076124da565b6105f0816000604051806040016040528060098152602001681999595cd58c555cd960ba1b8152508b61253f565b61061e816001604051806040016040528060098152602001681999595cd58c955cd960ba1b8152508a61253f565b6106508160026040518060400160405280600d81526020016c776e74466f724b65657065727360981b8152508861253f565b6106848160036040518060400160405280600f81526020016e776e74466f72436861696e6c696e6b60881b8152508761253f565b6106b78160046040518060400160405280600e81526020016d776e74466f72547265617375727960901b8152508661253f565b6106f181600560405180604001604052806015815260200174776e74466f72526566657272616c5265776172647360581b8152508561253f565b61072d816006604051806040016040528060178152602001766573476d78466f72526566657272616c5265776172647360481b8152508c61253f565b6107678160405180604001604052806018815260200177119959511a5cdd1c9a589d5d1a5bdb90dbdb5c1b195d195960421b815250612550565b5050505050506107776001600055565b50505050565b610785611ef6565b61079760405160200161034790614651565b60006107c66040516020016107ab90614747565b60405160208183030381529060405280519060200120612613565b90507f00000000000000000000000000000000000000000000000000000000000000006001600160a01b0316816001600160a01b031614610825578060405163cb9339d560e01b815260040161081c91906144b9565b60405180910390fd5b61082f6000611f68565b6108376120e4565b61086a6108637f000000000000000000000000000000000000000000000000000000000000000061269f565b60006123a3565b6108966108637f000000000000000000000000000000000000000000000000000000000000000061269f565b6040516357ed18eb60e01b81526000907305fcA76DeE79743426DacE9A3369e4B9Af7Fe4ea906357ed18eb906108f0907f0000000000000000000000000000000000000000000000000000000000000000906004016144b9565b600060405180830381865af415801561090d573d6000803e3d6000fd5b505050506040513d6000823e601f3d908101601f191682016040526109359190810190614820565b805190915060006109476001836148d0565b6109529060036148e3565b6001600160401b038111156109695761096961476d565b6040519080825280602002602001820160405280156109a257816020015b61098f614444565b8152602001906001900390816109875790505b5090506000805b83811015610cd05760008582815181106109c5576109c56148fa565b6020026020010151905060006109ff826040516020016109e490614910565b604051602081830303815290604052805190602001206126e3565b9050468203610afd576000610a337f00000000000000000000000000000000000000000000000000000000000000006126f9565b610a64610a5f7f0000000000000000000000000000000000000000000000000000000000000000612748565b611fd4565b610a6e919061493e565b90506000826001600160a01b03166318160ddd6040518163ffffffff1660e01b8152600401602060405180830381865afa158015610ab0573d6000803e3d6000fd5b505050506040513d601f19601f82011682018060405250810190610ad49190614951565b9050610ae8610ae285612795565b836123a3565b610af461053a856127d8565b50505050610cc8565b6000610b2a836040516020016109e49060208082526003908201526208e9ab60eb1b604082015260600190565b90506000610b3a610a5f85612818565b90506000610b498760036148e3565b9050610bda82610b80876040516020016109e4906020808252600990820152684441544153544f524560b81b604082015260600190565b63bd02d0f560e01b610b9187612748565b604051602401610ba391815260200190565b60408051601f198184030181529190526020810180516001600160e01b03166001600160e01b031990931692909217909152612866565b888281518110610bec57610bec6148fa565b60200260200101819052508080610c029061496a565b915050610c3582846370a0823160e01b610c25896040516020016109e490614747565b604051602401610ba391906144b9565b888281518110610c4757610c476148fa565b60200260200101819052508080610c5d9061496a565b6040805160048152602481019091526020810180516001600160e01b03166318160ddd60e01b179052909250610c97915083908690612866565b888281518110610ca957610ca96148fa565b60200260200101819052508680610cbf9061496a565b97505050505050505b6001016109a9565b506040805160608101825260008082526020820181905291810191909152610d2e6040516020016104099060208082526019908201527811915157d11254d5149250955513d497d1d054d7d312535255603a1b604082015260600190565b6001600160801b03168152610d44600185614983565b610d4f90606061499f565b610d5a9060086149be565b63ffffffff166020820152610d6f60016124ac565b604051632fca305360e21b81526000906001600160a01b037f0000000000000000000000000000000000000000000000000000000000000000169063bf28c14c90610dc09087908690600401614a20565b6040805180830381865afa158015610ddc573d6000803e3d6000fd5b505050506040513d601f19601f82011682018060405250810190610e009190614b15565b805160405163c323228360e01b81529192506001600160a01b037f0000000000000000000000000000000000000000000000000000000000000000169163c32322839190610e549088908790600401614a20565b60806040518083038185885af1158015610e72573d6000803e3d6000fd5b50505050506040513d601f19601f82011682018060405250810190610e979190614b89565b50610ea0614353565b6020810151610eb09060026124da565b610efb8160006040518060400160405280601a8152602001796e756d6265724f66436861696e7352656164526571756573747360301b81525060018a610ef691906148d0565b61253f565b610f3a816001604051806040016040528060168152602001756d6573736167696e674665652e6e617469766546656560501b815250856000015161253f565b610f748160405180604001604052806018815260200177119959511a5cdd1c9a589d5d1a5bdb925b9a5d1a585d195960421b815250612550565b5050505050505050610f866001600055565b565b611005604051602001610fc09060208082526011908201527026aaa62a24a1a420a4a72fa922a0a222a960791b604082015260600190565b604051602081830303815290604052805190602001206040518060400160405280601181526020017026aaa62a24a1a420a4a72fa922a0a222a960791b815250611e42565b61100f6001611f68565b6110198135612061565b604051630b27346f60e11b81526001600160a01b037f0000000000000000000000000000000000000000000000000000000000000000169063164e68de90611085907f0000000000000000000000000000000000000000000000000000000000000000906004016144b9565b600060405180830381600087803b15801561109f57600080fd5b505af11580156110b3573d6000803e3d6000fd5b50506040516357ed18eb60e01b8152600092507305fcA76DeE79743426DacE9A3369e4B9Af7Fe4ea91506357ed18eb90611111907f0000000000000000000000000000000000000000000000000000000000000000906004016144b9565b600060405180830381865af415801561112e573d6000803e3d6000fd5b505050506040513d6000823e601f3d908101601f191682016040526111569190810190614820565b90506000611164825161289c565b90506000611172835161289c565b90506000611182610a5f46612795565b90506000611192610a5f466127d8565b905060008060008060005b89518110156112cf5760008a82815181106111ba576111ba6148fa565b6020026020010151905046810361122957878a83815181106111de576111de6148fa565b602002602001018181525050868983815181106111fd576111fd6148fa565b6020908102919091010152611212888761493e565b955061121e878661493e565b9450819350506112c7565b6000806112458e806020019061123f9190614ba5565b876128e6565b91509150818c858151811061125c5761125c6148fa565b602002602001018181525050808b858151811061127b5761127b6148fa565b6020908102919091010152611290828961493e565b975061129c818861493e565b96506112aa610ae284612795565b6112b661053a846127d8565b846112c08161496a565b9550505050505b60010161119d565b506112fe6040516020016112e290614beb565b60405160208183030381529060405280519060200120856123a3565b61132c60405160200161131090614c2f565b60405160208183030381529060405280519060200120846123a3565b61135e60405160200161133e906146a4565b604051602081830303815290604052805190602001208b600001356123a3565b611366612946565b6000611373858786612a1b565b9050600061137f614353565b602081015161138f9060036124da565b82891061144357828911156113fc576113ac8c888c898f8a612a30565b915060006113ba838b6148d0565b9050808411156113ee576040516397a3eeff60e01b815260048101859052602481018b90526044810184905260640161081c565b6113fa61053a46612795565b505b6003611407816124ac565b61143d82600060405180604001604052806011815260200170646973747269627574696f6e537461746560781b8152508461253f565b50611486565b600261144e816124ac565b61148482600060405180604001604052806011815260200170646973747269627574696f6e537461746560781b8152508461253f565b505b6114c3816001604051806040016040528060188152602001773332b2a0b6b7bab73a23b6bc21bab93932b73a21b430b4b760411b8152508c61253f565b6114fa816002604051806040016040528060128152602001711d1bdd185b11db5e109c9a5919d95913dd5d60721b8152508561253f565b60a081015161150a906001612c0b565b61156260006040518060400160405280600c81526020016b72656365697665644461746160a01b8152508f6040516020016115459190614c64565b60408051601f1981840301815291905260a0850151929190612c6d565b61159f816040518060400160405280601b81526020017a119959511a5cdd1c9a589d5d1a5bdb91185d18549958d95a5d9959602a1b815250612550565b5050505050505050505050505050565b6115b7611ef6565b6115c960405160200161034790614651565b6115d36002611f68565b6115e8610424604051602001610409906146a4565b6115f06120e4565b600061160460405160200161040990614beb565b90506000611614610a5f466127d8565b9050600061162a60405160200161040990614c2f565b90506000611639848484612a1b565b90506000611649610a5f46612795565b9050600061165782846148d0565b90506000611667610a5f46612cbf565b905060006116758383612d11565b90506000611683828661493e565b905060006116b07f00000000000000000000000000000000000000000000000000000000000000006126f9565b9050818110156116d75781816040516352891c0160e11b815260040161081c929190614ce6565b6116e361053a46612795565b6116ed60036124ac565b60006116f987836148d0565b9050611703614353565b60208101516117139060026124da565b6117438160006040518060400160405280600b81526020016a19db5e149958d95a5d995960aa1b8152508561253f565b611780816001604051806040016040528060188152602001773332b2a0b6b7bab73a23b6bc21bab93932b73a21b430b4b760411b8152508661253f565b6117a2816040518060600160405280602181526020016159f760219139612550565b505050505050505050505050610f866001600055565b6117c0611ef6565b6117d260405160200161034790614651565b6117dc6000611f68565b60006117ea610a5f86612439565b905060006117fa610a5f8761269f565b90507f00000000000000000000000000000000000000000000000000000000000000006001600160a01b0316866001600160a01b031603611bcb576000611883604051602001610409906020808252603190820152600080516020615a1883398151915260408201527010549114d7d154d1d35617d05353d55395607a1b606082015260800190565b9050808311156118aa578281604051635cb6b1b960e11b815260040161081c929190614ce6565b60006118b5886126f9565b905060006118c384866148d0565b905081811115611957576001600160a01b0389166340c10f197f000000000000000000000000000000000000000000000000000000000000000061190785856148d0565b6040518363ffffffff1660e01b8152600401611924929190614cf4565b600060405180830381600087803b15801561193e57600080fd5b505af1158015611952573d6000803e3d6000fd5b505050505b60005b86811015611bc2576000888883818110611976576119766148fa565b90506040020180360381019061198c9190614d0d565b905060006119c36040516020016103a6906020808252600c908201526b22a9a3a6ac2fab22a9aa22a960a11b604082015260600190565b6020830151835160405163a2545fa560e01b81529293506000926001600160a01b0385169163a2545fa5916119fb91906004016144b9565b602060405180830381865afa158015611a18573d6000803e3d6000fd5b505050506040513d601f19601f82011682018060405250810190611a3c9190614951565b611a46919061493e565b835160405163107c89c960e21b81529192506001600160a01b038416916341f2272491611a77918590600401614cf4565b600060405180830381600087803b158015611a9157600080fd5b505af1158015611aa5573d6000803e3d6000fd5b50505050611ab1614353565b6020810151611ac19060026124da565b611af081600060405180604001604052806006815260200165185b5bdd5b9d60d21b815250876020015161253f565b611b2681600160405180604001604052806011815260200170746f74616c4573476d785265776172647360781b8152508561253f565b7f00000000000000000000000000000000000000000000000000000000000000006001600160a01b03166324de01e4611b628660000151612d2a565b836040518363ffffffff1660e01b8152600401611b809291906153ec565b600060405180830381600087803b158015611b9a57600080fd5b505af1158015611bae573d6000803e3d6000fd5b50506001909601955061195a945050505050565b50505050611c1f565b7f00000000000000000000000000000000000000000000000000000000000000006001600160a01b0316866001600160a01b031614611c1f57856040516317f6121160e31b815260040161081c91906144b9565b604051635fa278ad60e11b81526000907340Fe9EA67c9D29e77661837E986Ef20A78C5E9Ce9063bf44f15a90611ca3907f0000000000000000000000000000000000000000000000000000000000000000907f0000000000000000000000000000000000000000000000000000000000000000908c908c908c908c90600401615436565b602060405180830381865af4158015611cc0573d6000803e3d6000fd5b505050506040513d601f19601f82011682018060405250810190611ce49190614951565b9050611d11877f000000000000000000000000000000000000000000000000000000000000000083612d36565b7f00000000000000000000000000000000000000000000000000000000000000006001600160a01b031663340dbab3611d4989612db4565b836040518363ffffffff1660e01b8152600401611d67929190614ce6565b6020604051808303816000875af1158015611d86573d6000803e3d6000fd5b505050506040513d601f19601f82011682018060405250810190611daa9190614951565b50611df67f0000000000000000000000000000000000000000000000000000000000000000887f0000000000000000000000000000000000000000000000000000000000000000612df6565b611e00818361493e565b915082821115611e295786828460405163c1fa684360e01b815260040161081c939291906154b8565b611e35610ae28861269f565b5050506107776001600055565b60405163ac4ab3fb60e01b81526001600160a01b037f0000000000000000000000000000000000000000000000000000000000000000169063ac4ab3fb90611e909033908690600401614cf4565b602060405180830381865afa158015611ead573d6000803e3d6000fd5b505050506040513d601f19601f82011682018060405250810190611ed191906154d9565b611ef257338160405163a35b150b60e01b815260040161081c9291906154fb565b5050565b600260005403611f485760405162461bcd60e51b815260206004820152601f60248201527f5265656e7472616e637947756172643a207265656e7472616e742063616c6c00604482015260640161081c565b6002600055565b6000611f62611f5d83612f01565b612613565b92915050565b6000611f7c6040516020016104099061551f565b9050806003811115611f9057611f90614731565b6003811115611fa157611fa1614731565b826003811115611fb357611fb3614731565b14611ef2576040516321a57d1960e21b81526004810182905260240161081c565b60405163bd02d0f560e01b8152600481018290526000907f00000000000000000000000000000000000000000000000000000000000000006001600160a01b03169063bd02d0f5906024015b602060405180830381865afa15801561203d573d6000803e3d6000fd5b505050506040513d601f19601f82011682018060405250810190611f629190614951565b6120b56040516020016104099060208082526027908201527f4645455f4449535452494255544f525f4d41585f524541445f524553504f4e53604082015266455f44454c415960c81b606082015260800190565b6120bf82426148d0565b11156120e15760405163ef84cb9960e01b81526004810182905260240161081c565b50565b600060076120f56201518042615564565b61210090600461493e565b61210a9190615578565b905060006007612152604051602001610409906020808252818101527f4645455f4449535452494255544f525f444953545249425554494f4e5f444159604082015260600190565b61215d84600761493e565b61216791906148d0565b6121719190615578565b905060006121826201518042615578565b61218c90426148d0565b9050600061219d83620151806148e3565b6121a790836148d0565b905060006121bd604051602001610409906146eb565b9050818111156121e45780826040516329e8e56560e11b815260040161081c929190614ce6565b5050505050565b600080600080600061221c7f00000000000000000000000000000000000000000000000000000000000000006126f9565b90506000807305fcA76DeE79743426DacE9A3369e4B9Af7Fe4ea634fb811e97f00000000000000000000000000000000000000000000000000000000000000006040518263ffffffff1660e01b815260040161227891906144b9565b6040805180830381865af4158015612294573d6000803e3d6000fd5b505050506040513d601f19601f820116820180604052508101906122b8919061558c565b909250905060006122c9828461493e565b90506000806122da868d8d87612f43565b9150915060006122ea8e8e613084565b90506122fa8787878686866131c6565b91506123078484846133b3565b929d919c509a509098509650505050505050565b600060405160200161235e906020808252601e908201527f4645455f4449535452494255544f525f4645455f414d4f554e545f5553440000604082015260600190565b6040516020818303038152906040528051906020012082604051602001612386929190614ce6565b604051602081830303815290604052805190602001209050919050565b604051637152429d60e11b81526001600160a01b037f0000000000000000000000000000000000000000000000000000000000000000169063e2a4853a906123f19085908590600401614ce6565b6020604051808303816000875af1158015612410573d6000803e3d6000fd5b505050506040513d601f19601f820116820180604052508101906124349190614951565b505050565b600060405160200161247a906020808252602790820152600080516020615a3883398151915260408201526617d05353d5539560ca1b606082015260800190565b60408051601f198184030181528282528051602091820120908301526001600160a01b03841690820152606001612386565b6120e16040516020016124be9061551f565b60405160208183030381529060405280519060200120826123a3565b806001600160401b038111156124f2576124f261476d565b60405190808252806020026020018201604052801561253857816020015b6040805180820190915260608152600060208201528152602001906001900390816125105790505b5090915250565b602084015161077790848484613872565b60c0820151612560906001612c0b565b60408051808201909152601081526f32bb32b73a2232b9b1b934b83a34b7b760811b602082015260c08301516125999160009084612c6d565b60405163483624fb60e11b81526001600160a01b037f0000000000000000000000000000000000000000000000000000000000000000169063906c49f6906125e59085906004016155b0565b600060405180830381600087803b1580156125ff57600080fd5b505af1158015610325573d6000803e3d6000fd5b6040516321f8a72160e01b8152600481018290526000907f00000000000000000000000000000000000000000000000000000000000000006001600160a01b0316906321f8a72190602401602060405180830381865afa15801561267b573d6000803e3d6000fd5b505050506040513d601f19601f82011682018060405250810190611f6291906155ee565b600060405160200161247a906020808252602a90820152600080516020615a3883398151915260408201526917d1115413d4d255115160b21b606082015260800190565b60006126f2611f5d84846138c5565b9392505050565b6040516370a0823160e01b81526000906001600160a01b038316906370a0823190612020907f0000000000000000000000000000000000000000000000000000000000000000906004016144b9565b600060405160200161247a9060208082526021908201527f574954484452415741424c455f4255594241434b5f544f4b454e5f414d4f554e6040820152601560fa1b606082015260800190565b600060405160200161235e906020808252601e908201527f4645455f4449535452494255544f525f4645455f414d4f554e545f474d580000604082015260600190565b600060405160200161235e906020808252601a908201527908c8a8abe8892a6a8a49284aaa89ea4bea6a882968a88be8e9ab60331b604082015260600190565b600060405160200161235e9060208082526022908201527f4645455f4449535452494255544f525f4c415945525a45524f5f434841494e5f604082015261125160f21b606082015260800190565b61286e614444565b506040805160608101825263ffffffff9490941684526001600160a01b039290921660208401529082015290565b6060816001600160401b038111156128b6576128b661476d565b6040519080825280602002602001820160405280156128df578160200160208202803683370190505b5092915050565b600080806128f58460606148e3565b90506000808088848961290982606061493e565b926129169392919061560b565b8101906129239190615635565b919450925090506000612936838561493e565b9a91995090975050505050505050565b6129ca604051602001612986906020808252601990820152784645455f4449535452494255544f525f474d585f505249434560381b604082015260600190565b604051602081830303815290604052805190602001206129c57f0000000000000000000000000000000000000000000000000000000000000000613960565b6123a3565b610f866040516020016129dc90615661565b604051602081830303815290604052805190602001206129c57f0000000000000000000000000000000000000000000000000000000000000000613960565b6000612a288484846139b3565b949350505050565b855160009081816001600160401b03811115612a4e57612a4e61476d565b604051908082528060200260200182016040528015612a77578160200160208202803683370190505b50905060005b82811015612ace57612aa989898381518110612a9b57612a9b6148fa565b602002602001015189612a1b565b828281518110612abb57612abb6148fa565b6020908102919091010152600101612a7d565b506040516358b4282560e01b81526000907305fcA76DeE79743426DacE9A3369e4B9Af7Fe4ea906358b4282590612b0b90899086906004016156d0565b600060405180830381865af4158015612b28573d6000803e3d6000fd5b505050506040513d6000823e601f3d908101601f19168201604052612b5091908101906156f5565b90506000612b5d8461289c565b905060005b8251811015612bf15786838281518110612b7e57612b7e6148fa565b60200260200101516000015103612be957828181518110612ba157612ba16148fa565b60200260200101516040015182848381518110612bc057612bc06148fa565b60200260200101516020015181518110612bdc57612bdc6148fa565b6020026020010181815250505b600101612b62565b50612bfc8b82613a9d565b9b9a5050505050505050505050565b806001600160401b03811115612c2357612c2361476d565b60405190808252806020026020018201604052801561253857816020015b6040805180820190915260608082526020820152815260200190600190039081612c4157505090915250565b8184600001518481518110612c8457612c846148fa565b6020026020010151600001819052508084600001518481518110612caa57612caa6148fa565b60200260200101516020018190525050505050565b600060405160200161235e9060208082526026908201527f4645455f4449535452494255544f525f4252494447455f534c4950504147455f6040820152652320a1aa27a960d11b606082015260800190565b60006126f2838368327cb2734119d3b7a9601e1b612a1b565b6001600160a01b031690565b60405163078d3b7960e01b81526001600160a01b037f0000000000000000000000000000000000000000000000000000000000000000169063078d3b7990612d869086908690869060040161462d565b600060405180830381600087803b158015612da057600080fd5b505af1158015610283573d6000803e3d6000fd5b600060405160200161247a906020808252601c908201527b1513d5105317d0d31052535050931157d195539114d7d05353d5539560221b604082015260600190565b6000836001600160a01b031663bd02d0f5612e1085612db4565b6040518263ffffffff1660e01b8152600401612e2e91815260200190565b602060405180830381865afa158015612e4b573d6000803e3d6000fd5b505050506040513d601f19601f82011682018060405250810190612e6f9190614951565b6040516370a0823160e01b81529091506001600160a01b038416906370a0823190612e9e9085906004016144b9565b602060405180830381865afa158015612ebb573d6000803e3d6000fd5b505050506040513d601f19601f82011682018060405250810190612edf9190614951565b8111156107775782604051639fc47b7760e01b815260040161081c91906144b9565b600060405160200161235e906020808252601c908201527b4645455f4449535452494255544f525f414444524553535f494e464f60201b604082015260600190565b6000806000612fa086612f9b6040516020016104099060208082526022908201527f4645455f4449535452494255544f525f56315f464545535f574e545f4641435460408201526127a960f11b606082015260800190565b612d11565b90506000612ff786612f9b6040516020016104099060208082526022908201527f4645455f4449535452494255544f525f56325f464545535f574e545f4641435460408201526127a960f11b606082015260800190565b9050600061300f898361300a818761493e565b612a1b565b9050600061305982612f9b604051602001610409906020808252818101527f4645455f4449535452494255544f525f434841494e4c494e4b5f464143544f52604082015260600190565b905060008761306883856148d0565b61307291906148d0565b919b919a509098505050505050505050565b6000806130d5604051602001610409906020808252603390820152600080516020615a1883398151915260408201527210549114d7d5d39517d554d117d05353d55395606a1b606082015260800190565b9050808411156130fc57838160405163e668511560e01b815260040161081c929190614ce6565b600061314c604051602001610409906020808252603390820152600080516020615a1883398151915260408201527220a92229afaba72a2faaa9a22fa320a1aa27a960691b606082015260800190565b9050600061315a8583612d11565b905080861115613181578581604051630c2b825560e21b815260040161081c929190614ce6565b600068327cb2734119d3b7a9601e1b6131a260405160200161040990615661565b6131ac91906148e3565b905060006131ba8883613eb0565b98975050505050505050565b60008083856131d5888b6148d0565b6131df91906148d0565b6131e991906148d0565b905060006131f7848961493e565b90508181111561338a57600061320d83836148d0565b905085811115613377576000613272604051602001610409906020808252602c908201527f4645455f4449535452494255544f525f4d41585f574e545f414d4f554e545f4660408201526b524f4d5f545245415355525960a01b606082015260800190565b9050600061328088846148d0565b9050818111156132a757818160405163226a41e560e21b815260040161081c929190614ce6565b7f00000000000000000000000000000000000000000000000000000000000000006001600160a01b03166323b872dd6132e86040516020016103a690614682565b7f0000000000000000000000000000000000000000000000000000000000000000846040518463ffffffff1660e01b81526004016133289392919061462d565b6020604051808303816000875af1158015613347573d6000803e3d6000fd5b505050506040513d601f19601f8201168201806040525081019061336b91906154d9565b50600097505050613384565b61338181876148d0565b95505b506133a6565b600061339682846148d0565b90506133a2818761493e565b9550505b5092979650505050505050565b60007f00000000000000000000000000000000000000000000000000000000000000006001600160a01b0316635948f7336040516020016133f3906157b0565b604051602081830303815290604052805190602001206040518263ffffffff1660e01b815260040161342791815260200190565b600060405180830381865afa158015613444573d6000803e3d6000fd5b505050506040513d6000823e601f3d908101601f1916820160405261346c91908101906157e6565b905060007f00000000000000000000000000000000000000000000000000000000000000006001600160a01b03166386ac6bdf6040516020016134ae906157b0565b604051602081830303815290604052805190602001206040518263ffffffff1660e01b81526004016134e291815260200190565b600060405180830381865afa1580156134ff573d6000803e3d6000fd5b505050506040513d6000823e601f3d908101601f191682016040526135279190810190614820565b90506000805b835181101561363357600084828151811061354a5761354a6148fa565b602002602001015190506000816001600160a01b03163190506000858481518110613577576135776148fa565b602002602001015190508082101561362857600061359583836148d0565b604051633510f2a560e21b81529091506001600160a01b037f0000000000000000000000000000000000000000000000000000000000000000169063d443ca94906135e69087908590600401614cf4565b600060405180830381600087803b15801561360057600080fd5b505af1158015613614573d6000803e3d6000fd5b505050508086613624919061493e565b9550505b50505060010161352d565b508086146136585785816040516304471bcd60e11b815260040161081c929190614ce6565b6136b27f00000000000000000000000000000000000000000000000000000000000000006136ac6040516020016103a690602080825260099082015268434841494e4c494e4b60b81b604082015260600190565b87612d36565b6136ee7f00000000000000000000000000000000000000000000000000000000000000006136e86040516020016103a690614682565b86612d36565b6000613703466040516020016109e490614910565b90506000613713610a5f46612795565b90506000826001600160a01b031663bfe109286040518163ffffffff1660e01b8152600401602060405180830381865afa158015613755573d6000803e3d6000fd5b505050506040513d601f19601f8201168201806040525081019061377991906155ee565b90506137a67f00000000000000000000000000000000000000000000000000000000000000008484612d36565b806001600160a01b0316633ae6d6eb6040518163ffffffff1660e01b8152600401600060405180830381600087803b1580156137e157600080fd5b505af11580156137f5573d6000803e3d6000fd5b50505050806001600160a01b03166318e20a0362093a80846138179190615564565b6040518263ffffffff1660e01b815260040161383591815260200190565b600060405180830381600087803b15801561384f57600080fd5b505af1158015613863573d6000803e3d6000fd5b50505050505050505050505050565b8184600001518481518110613889576138896148fa565b60200260200101516000018190525080846000015184815181106138af576138af6148fa565b6020026020010151602001818152505050505050565b60006040516020016139179060208082526026908201527f4645455f4449535452494255544f525f414444524553535f494e464f5f464f526040820152652fa1a420a4a760d11b606082015260800190565b60408051601f1981840301815282825280516020918201209083015281018490526060810183905260800160405160208183030381529060405280519060200120905092915050565b600080600061398f7f000000000000000000000000000000000000000000000000000000000000000085613ebe565b91509150816126f25783604051638db88ccf60e01b815260040161081c91906144b9565b60008080600019858709858702925082811083820303915050806000036139ed578382816139e3576139e361554e565b04925050506126f2565b808411613a345760405162461bcd60e51b81526020600482015260156024820152744d6174683a206d756c446976206f766572666c6f7760581b604482015260640161081c565b60008486880960026001871981018816978890046003810283188082028403028082028403028082028403028082028403028082028403029081029092039091026000889003889004909101858311909403939093029303949094049190911702949350505050565b600080613ad46040516020016103a6906020808252600d908201526c131056515496915493d7d3d195609a1b604082015260600190565b90506000816001600160a01b031663963efcaa6040518163ffffffff1660e01b8152600401602060405180830381865afa158015613b16573d6000803e3d6000fd5b505050506040513d601f19601f82011682018060405250810190613b3a9190614951565b90506000805b8651811015613ea6576000868281518110613b5d57613b5d6148fa565b6020026020010151905080600003613b755750613e9e565b6000613b8182866140ed565b9050613bae7f00000000000000000000000000000000000000000000000000000000000000003083612d36565b856001600160a01b0316639f68b9646040518163ffffffff1660e01b8152600401602060405180830381865afa158015613bec573d6000803e3d6000fd5b505050506040513d601f19601f82011682018060405250810190613c1091906154d9565b15613ca85760405163095ea7b360e01b81526001600160a01b037f0000000000000000000000000000000000000000000000000000000000000000169063095ea7b390613c639089908590600401614cf4565b6020604051808303816000875af1158015613c82573d6000803e3d6000fd5b505050506040513d601f19601f82011682018060405250810190613ca691906154d9565b505b6000898481518110613cbc57613cbc6148fa565b602002602001015190506000613cd4610a5f83612818565b90506000613cf3613cee846040516020016109e490614747565b612d2a565b90506000613d10613d0a86612f9b610a5f88612cbf565b8a6140ed565b905060006040518060e001604052808563ffffffff16815260200184815260200187815260200183815260200160405180602001604052806000815250815260200160405180602001604052806000815250815260200160405180602001604052806000815250815250905060008b6001600160a01b0316633b6f743b8360006040518363ffffffff1660e01b8152600401613dad9291906158f0565b6040805180830381865afa158015613dc9573d6000803e3d6000fd5b505050506040513d601f19601f82011682018060405250810190613ded9190614b15565b805160405163c7c7f5b360e01b81529192506001600160a01b038e169163c7c7f5b39190613e4390869086907f000000000000000000000000000000000000000000000000000000000000000090600401615914565b60c06040518083038185885af1158015613e61573d6000803e3d6000fd5b50505050506040513d601f19601f82011682018060405250810190613e869190615953565b50613e939050878b61493e565b995050505050505050505b600101613b40565b5095945050505050565b60006126f283836000614104565b6000806000846001600160a01b03166321f8a721613edb86614153565b6040518263ffffffff1660e01b8152600401613ef991815260200190565b602060405180830381865afa158015613f16573d6000803e3d6000fd5b505050506040513d601f19601f82011682018060405250810190613f3a91906155ee565b90506001600160a01b038116613f575760008092509250506140e6565b6000819050600080826001600160a01b031663feaf968c6040518163ffffffff1660e01b815260040160a060405180830381865afa158015613f9d573d6000803e3d6000fd5b505050506040513d601f19601f82011682018060405250810190613fc191906159a4565b5093505092505060008213613fed578682604051635f328a5b60e11b815260040161081c929190614cf4565b6000886001600160a01b031663bd02d0f56140078a614183565b6040518263ffffffff1660e01b815260040161402591815260200190565b602060405180830381865afa158015614042573d6000803e3d6000fd5b505050506040513d601f19601f820116820180604052508101906140669190614951565b9050814211801561407f57508061407d83426148d0565b115b156140a3578782826040516306b5a95b60e51b815260040161081c939291906154b8565b60006140ae846141c6565b905060006140bc8b8b61421c565b905060006140d7838368327cb2734119d3b7a9601e1b612a1b565b60019a50985050505050505050505b9250929050565b6000816140fa8185615564565b6126f291906148e3565b600083600003614116575060006126f2565b811561413c576141358468327cb2734119d3b7a9601e1b8560016142bb565b90506126f2565b612a288468327cb2734119d3b7a9601e1b856139b3565b600060405160200161247a906020808252600a908201526914149250d157d191515160b21b604082015260600190565b600060405160200161247a906020808252601d908201527f50524943455f464545445f4845415254424541545f4455524154494f4e000000604082015260600190565b6000808212156142185760405162461bcd60e51b815260206004820181905260248201527f53616665436173743a2076616c7565206d75737420626520706f736974697665604482015260640161081c565b5090565b600080836001600160a01b031663bd02d0f561423785614318565b6040518263ffffffff1660e01b815260040161425591815260200190565b602060405180830381865afa158015614272573d6000803e3d6000fd5b505050506040513d601f19601f820116820180604052508101906142969190614951565b9050806000036126f2578260405163b86fffef60e01b815260040161081c91906144b9565b6000806142c98686866139b3565b905060018360028111156142df576142df614731565b1480156142fc5750600084806142f7576142f761554e565b868809115b1561430f5761430c60018261493e565b90505b95945050505050565b600060405160200161247a90602080825260159082015274282924a1a2afa322a2a22fa6aaa62a24a82624a2a960591b604082015260600190565b604080516101208101909152606060e0820181815261010083019190915281908152602001614395604051806040016040528060608152602001606081525090565b81526020016143b7604051806040016040528060608152602001606081525090565b81526020016143d9604051806040016040528060608152602001606081525090565b81526020016143fb604051806040016040528060608152602001606081525090565b815260200161441d604051806040016040528060608152602001606081525090565b815260200161443f604051806040016040528060608152602001606081525090565b905290565b6040805160608082018352600080835260208301529181019190915290565b6001600160a01b03811681146120e157600080fd5b60008060006060848603121561448d57600080fd5b833561449881614463565b925060208401356144a881614463565b929592945050506040919091013590565b6001600160a01b0391909116815260200190565b600080604083850312156144e057600080fd5b82356144eb81614463565b946020939093013593505050565b6000806000806080858703121561450f57600080fd5b5050823594602084013594506040840135936060013592509050565b6000806040838503121561453e57600080fd5b8235915060208301356001600160401b0381111561455b57600080fd5b83016040818603121561456d57600080fd5b809150509250929050565b6000806000806060858703121561458e57600080fd5b843561459981614463565b93506020850135925060408501356001600160401b038111156145bb57600080fd5b8501601f810187136145cc57600080fd5b80356001600160401b038111156145e257600080fd5b8760208260061b84010111156145f757600080fd5b949793965060200194505050565b6020808252600e908201526d2a24a6a2a627a1a5afa0a226a4a760911b604082015260600190565b6001600160a01b039384168152919092166020820152604081019190915260600190565b6020808252601790820152762322a2afa224a9aa2924a12aaa24a7a72fa5a2a2a822a960491b604082015260600190565b602080825260089082015267545245415355525960c01b604082015260600190565b60208082526027908201527f4645455f4449535452494255544f525f524541445f524553504f4e53455f544960408201526604d455354414d560cc1b606082015260800190565b60208082526026908201527f4645455f4449535452494255544f525f444953545249425554494f4e5f54494d6040820152650455354414d560d41b606082015260800190565b634e487b7160e01b600052602160045260246000fd5b6020808252600c908201526b2322a2afa922a1a2a4ab22a960a11b604082015260600190565b634e487b7160e01b600052604160045260246000fd5b604080519081016001600160401b03811182821017156147a5576147a561476d565b60405290565b604051606081016001600160401b03811182821017156147a5576147a561476d565b604051601f8201601f191681016001600160401b03811182821017156147f5576147f561476d565b604052919050565b60006001600160401b038211156148165761481661476d565b5060051b60200190565b60006020828403121561483257600080fd5b81516001600160401b0381111561484857600080fd5b8201601f8101841361485957600080fd5b805161486c614867826147fd565b6147cd565b8082825260208201915060208360051b85010192508683111561488e57600080fd5b6020840193505b828410156148b0578351825260209384019390910190614895565b9695505050505050565b634e487b7160e01b600052601160045260246000fd5b81810381811115611f6257611f626148ba565b8082028115828204841417611f6257611f626148ba565b634e487b7160e01b600052603260045260246000fd5b60208082526014908201527322ac2a22a72222a22fa3a6ac2faa2920a1a5a2a960611b604082015260600190565b80820180821115611f6257611f626148ba565b60006020828403121561496357600080fd5b5051919050565b60006001820161497c5761497c6148ba565b5060010190565b63ffffffff8281168282160390811115611f6257611f626148ba565b63ffffffff81811683821602908116908181146128df576128df6148ba565b63ffffffff8181168382160190811115611f6257611f626148ba565b6000815180845260005b81811015614a00576020818501810151868301820152016149e4565b506000602082860101526020601f19601f83011685010191505092915050565b6000608082016080835280855180835260a08501915060a08160051b86010192506020870160005b82811015614aa957868503609f190184528151805163ffffffff1686526020808201516001600160a01b031690870152604090810151606091870182905290614a93908701826149da565b9550506020938401939190910190600101614a48565b50505050809150506126f2602083018480516001600160801b03908116835260208083015163ffffffff169084015260409182015116910152565b600060408284031215614af657600080fd5b614afe614783565b825181526020928301519281019290925250919050565b600060408284031215614b2757600080fd5b6126f28383614ae4565b600060808284031215614b4357600080fd5b614b4b6147ab565b8251815260208301519091506001600160401b0381168114614b6c57600080fd5b6020820152614b7e8360408401614ae4565b604082015292915050565b600060808284031215614b9b57600080fd5b6126f28383614b31565b6000808335601e19843603018112614bbc57600080fd5b8301803591506001600160401b03821115614bd657600080fd5b6020019150368190038213156140e657600080fd5b60208082526024908201527f4645455f4449535452494255544f525f544f54414c5f4645455f414d4f554e546040820152630be8e9ab60e31b606082015260800190565b6020808252818101527f4645455f4449535452494255544f525f544f54414c5f5354414b45445f474d58604082015260600190565b602080825282358282015260009083013536849003601e19018112614c8857600080fd5b83016020810190356001600160401b03811115614ca457600080fd5b803603821315614cb357600080fd5b604080850152806060850152808260808601376000608082860101526080601f19601f8301168501019250505092915050565b918252602082015260400190565b6001600160a01b03929092168252602082015260400190565b60006040828403128015614d2057600080fd5b50614d29614783565b8235614d3481614463565b81526020928301359281019290925250919050565b600082825180855260208501945060208160051b8301016020850160005b83811015614df057601f198584030188528151805160408552614d8d60408601826149da565b6020928301518682038785015280518083529084019360009350909101905b80831015614dd75783516001600160a01b031682526020938401936001939093019290910190614dac565b5060209a8b019a90955093909301925050600101614d67565b50909695505050505050565b60006040830182516040855281815180845260608701915060608160051b880101935060208301925060005b81811015614e7657605f198886030183528351805160408752614e4e60408801826149da565b6020928301516001600160a01b03169783019790975250938401939290920191600101614e28565b505050506020830151848203602086015261430f8282614d49565b600082825180855260208501945060208160051b8301016020850160005b83811015614df057601f198584030188528151805160408552614ed560408601826149da565b6020928301518682038785015280518083529084019360009350909101905b80831015614f175783518252602082019150602084019350600183019250614ef4565b5060209a8b019a90955093909301925050600101614eaf565b60006040830182516040855281815180845260608701915060608160051b880101935060208301925060005b81811015614fa157605f198886030183528351805160408752614f8260408801826149da565b6020928301519783019790975250938401939290920191600101614f5c565b505050506020830151848203602086015261430f8282614e91565b60006040830182516040855281815180845260608701915060608160051b880101935060208301925060005b81811015614fa157605f19888603018352835180516040875261500e60408801826149da565b6020928301519783019790975250938401939290920191600101614fe8565b600082825180855260208501945060208160051b8301016020850160005b83811015614df057601f19858403018852815180516040855261507160408601826149da565b6020928301518682038785015280518083529084019360009350909101905b808310156150b557835115158252602082019150602084019350600183019250615090565b5060209a8b019a9095509390930192505060010161504b565b60006040830182516040855281815180845260608701915060608160051b880101935060208301925060005b8181101561514157605f19888603018352835180516040875261512060408801826149da565b602092830151151597830197909752509384019392909201916001016150fa565b505050506020830151848203602086015261430f828261502d565b600082825180855260208501945060208160051b8301016020850160005b83811015614df057601f1985840301885281518051604085526151a060408601826149da565b6020928301518682038785015280518083529084019391925081830191600582901b84010160005b828110156151f957601f198583030184526151e48287516149da565b602096870196949094019391506001016151c8565b50809750505050505060208201915060208801975060018101905061517a565b60006040830182516040855281815180845260608701915060608160051b880101935060208301925060005b8181101561529d57605f19888603018352835180516040875261526b60408801826149da565b905060208201519150868103602088015261528681836149da565b965050506020938401939290920191600101615245565b505050506020830151848203602086015261430f828261515c565b60006040830182516040855281815180845260608701915060608160051b880101935060208301925060005b8181101561529d57605f19888603018352835180516040875261530a60408801826149da565b905060208201519150868103602088015261532581836149da565b9650505060209384019392909201916001016152e4565b6000815160e0845261535160e0850182614dfc565b90506020830151848203602086015261536a8282614f30565b915050604083015184820360408601526153848282614fbc565b9150506060830151848203606086015261539e82826150ce565b915050608083015184820360808601526153b88282614f30565b91505060a083015184820360a08601526153d28282615219565b91505060c083015184820360c086015261430f82826152b8565b60608152601a606082015279151bdd185b115cd1db5e14995dd85c991cd25b98dc99585cd95960321b608082015282602082015260a060408201526000612a2860a083018461533c565b6001600160a01b0387811682528681166020830152851660408201526060810184905260a060808201819052810182905260008360c08301825b858110156154aa57823561548381614463565b6001600160a01b031682526020838101359083015260409283019290910190600101615470565b509998505050505050505050565b6001600160a01b039390931683526020830191909152604082015260600190565b6000602082840312156154eb57600080fd5b815180151581146126f257600080fd5b6001600160a01b0383168152604060208201819052600090612a28908301846149da565b6020808252601590820152744645455f4449535452494255544f525f535441544560581b604082015260600190565b634e487b7160e01b600052601260045260246000fd5b6000826155735761557361554e565b500490565b6000826155875761558761554e565b500690565b6000806040838503121561559f57600080fd5b505080516020909101519092909150565b604081526014604082015273119959511a5cdd1c9a589d5d1a5bdb915d995b9d60621b60608201526080602082015260006126f2608083018461533c565b60006020828403121561560057600080fd5b81516126f281614463565b6000808585111561561b57600080fd5b8386111561562857600080fd5b5050820193919092039150565b60008060006060848603121561564a57600080fd5b505081359360208301359350604090920135919050565b6020808252601990820152784645455f4449535452494255544f525f574e545f505249434560381b604082015260600190565b600081518084526020840193506020830160005b828110156156c65781518652602095860195909101906001016156a8565b5093949350505050565b6040815260006156e36040830185615694565b828103602084015261430f8185615694565b60006020828403121561570757600080fd5b81516001600160401b0381111561571d57600080fd5b8201601f8101841361572e57600080fd5b805161573c614867826147fd565b8082825260208201915060206060840285010192508683111561575e57600080fd5b6020840193505b828410156148b0576060848803121561577d57600080fd5b6157856147ab565b8451815260208086015181830152604080870151908301529083526060909401939190910190615765565b6020808252601c908201527b4645455f4449535452494255544f525f4b45455045525f434f53545360201b604082015260600190565b6000602082840312156157f857600080fd5b81516001600160401b0381111561580e57600080fd5b8201601f8101841361581f57600080fd5b805161582d614867826147fd565b8082825260208201915060208360051b85010192508683111561584f57600080fd5b6020840193505b828410156148b057835161586981614463565b825260209384019390910190615856565b63ffffffff81511682526020810151602083015260408101516040830152606081015160608301526000608082015160e060808501526158bd60e08501826149da565b905060a083015184820360a08601526158d682826149da565b91505060c083015184820360c086015261430f82826149da565b604081526000615903604083018561587a565b905082151560208301529392505050565b608081526000615927608083018661587a565b8451602084810191909152909401516040830152506001600160a01b0391909116606090910152919050565b60008060c0838503121561596657600080fd5b6159708484614b31565b915061597f8460808501614ae4565b90509250929050565b80516001600160501b038116811461599f57600080fd5b919050565b600080600080600060a086880312156159bc57600080fd5b6159c586615988565b602087015160408801516060890151929750909550935091506159ea60808701615988565b9050929550929590935056fe466565446973747269627574696f6e42726964676564476d7852656365697665644645455f4449535452494255544f525f4d41585f524546455252414c5f5245574645455f4449535452494255544f525f524546455252414c5f52455741524453a26469706673582212201196b3e239abbcb0ccb8c6dd1762eb12b29300456abc792c261caa0f6b6eaf4864736f6c634300081d0033",
  "deployedBytecode": "0x60806040526004361061006f5760003560e01c806301e336671461007b5780634a4a7b041461009d578063536c6bfa146100e757806361465a3214610107578063707fcf1914610127578063a16f187e1461013c578063b5cb97f61461015c578063c49946841461017157600080fd5b3661007657005b600080fd5b34801561008757600080fd5b5061009b610096366004614478565b610191565b005b3480156100a957600080fd5b506100d17f000000000000000000000000000000000000000000000000000000000000000081565b6040516100de91906144b9565b60405180910390f35b3480156100f357600080fd5b5061009b6101023660046144cd565b61028c565b34801561011357600080fd5b5061009b6101223660046144f9565b61032d565b34801561013357600080fd5b5061009b61077d565b34801561014857600080fd5b5061009b61015736600461452b565b610f88565b34801561016857600080fd5b5061009b6115af565b34801561017d57600080fd5b5061009b61018c366004614578565b6117b8565b6101e56040516020016101a390614605565b604051602081830303815290604052805190602001206040518060400160405280600e81526020016d2a24a6a2a627a1a5afa0a226a4a760911b815250611e42565b604051633121ce9b60e01b81526001600160a01b037f0000000000000000000000000000000000000000000000000000000000000000811660048301528085166024830152831660448201526064810182905273__$26ca41ccf224404dca1800130c325a7716$__90633121ce9b9060840160006040518083038186803b15801561026f57600080fd5b505af4158015610283573d6000803e3d6000fd5b50505050505050565b61029e6040516020016101a390614605565b604051635220390560e01b815273__$26ca41ccf224404dca1800130c325a7716$__906352203905906102f9907f0000000000000000000000000000000000000000000000000000000000000000908690869060040161462d565b60006040518083038186803b15801561031157600080fd5b505af4158015610325573d6000803e3d6000fd5b505050505050565b610335611ef6565b61039260405160200161034790614651565b60405160208183030381529060405280519060200120604051806040016040528060178152602001762322a2afa224a9aa2924a12aaa24a7a72fa5a2a2a822a960491b815250611e42565b60006103c16040516020016103a690614682565b60405160208183030381529060405280519060200120611f4f565b90506001600160a01b0381166103ea576040516351dc806d60e11b815260040160405180910390fd5b6103f46003611f68565b610429610424604051602001610409906146a4565b60405160208183030381529060405280519060200120611fd4565b612061565b6104316120e4565b604051630b27346f60e11b81526001600160a01b037f0000000000000000000000000000000000000000000000000000000000000000169063164e68de9061049d907f0000000000000000000000000000000000000000000000000000000000000000906004016144b9565b600060405180830381600087803b1580156104b757600080fd5b505af11580156104cb573d6000803e3d6000fd5b505050506000806000806104e08988886121eb565b93509350935093506104fb6104f5600161231b565b886123a3565b61050e610508600261231b565b876123a3565b61054061053a7f0000000000000000000000000000000000000000000000000000000000000000612439565b826123a3565b61057261056c7f0000000000000000000000000000000000000000000000000000000000000000612439565b896123a3565b6105a0604051602001610584906146eb565b60405160208183030381529060405280519060200120426123a3565b6105aa60006124ac565b6105b2614353565b60208101516105c29060076124da565b6105f0816000604051806040016040528060098152602001681999595cd58c555cd960ba1b8152508b61253f565b61061e816001604051806040016040528060098152602001681999595cd58c955cd960ba1b8152508a61253f565b6106508160026040518060400160405280600d81526020016c776e74466f724b65657065727360981b8152508861253f565b6106848160036040518060400160405280600f81526020016e776e74466f72436861696e6c696e6b60881b8152508761253f565b6106b78160046040518060400160405280600e81526020016d776e74466f72547265617375727960901b8152508661253f565b6106f181600560405180604001604052806015815260200174776e74466f72526566657272616c5265776172647360581b8152508561253f565b61072d816006604051806040016040528060178152602001766573476d78466f72526566657272616c5265776172647360481b8152508c61253f565b6107678160405180604001604052806018815260200177119959511a5cdd1c9a589d5d1a5bdb90dbdb5c1b195d195960421b815250612550565b5050505050506107776001600055565b50505050565b610785611ef6565b61079760405160200161034790614651565b60006107c66040516020016107ab90614747565b60405160208183030381529060405280519060200120612613565b90507f00000000000000000000000000000000000000000000000000000000000000006001600160a01b0316816001600160a01b031614610825578060405163cb9339d560e01b815260040161081c91906144b9565b60405180910390fd5b61082f6000611f68565b6108376120e4565b61086a6108637f000000000000000000000000000000000000000000000000000000000000000061269f565b60006123a3565b6108966108637f000000000000000000000000000000000000000000000000000000000000000061269f565b6040516357ed18eb60e01b815260009073__$26ca41ccf224404dca1800130c325a7716$__906357ed18eb906108f0907f0000000000000000000000000000000000000000000000000000000000000000906004016144b9565b600060405180830381865af415801561090d573d6000803e3d6000fd5b505050506040513d6000823e601f3d908101601f191682016040526109359190810190614820565b805190915060006109476001836148d0565b6109529060036148e3565b6001600160401b038111156109695761096961476d565b6040519080825280602002602001820160405280156109a257816020015b61098f614444565b8152602001906001900390816109875790505b5090506000805b83811015610cd05760008582815181106109c5576109c56148fa565b6020026020010151905060006109ff826040516020016109e490614910565b604051602081830303815290604052805190602001206126e3565b9050468203610afd576000610a337f00000000000000000000000000000000000000000000000000000000000000006126f9565b610a64610a5f7f0000000000000000000000000000000000000000000000000000000000000000612748565b611fd4565b610a6e919061493e565b90506000826001600160a01b03166318160ddd6040518163ffffffff1660e01b8152600401602060405180830381865afa158015610ab0573d6000803e3d6000fd5b505050506040513d601f19601f82011682018060405250810190610ad49190614951565b9050610ae8610ae285612795565b836123a3565b610af461053a856127d8565b50505050610cc8565b6000610b2a836040516020016109e49060208082526003908201526208e9ab60eb1b604082015260600190565b90506000610b3a610a5f85612818565b90506000610b498760036148e3565b9050610bda82610b80876040516020016109e4906020808252600990820152684441544153544f524560b81b604082015260600190565b63bd02d0f560e01b610b9187612748565b604051602401610ba391815260200190565b60408051601f198184030181529190526020810180516001600160e01b03166001600160e01b031990931692909217909152612866565b888281518110610bec57610bec6148fa565b60200260200101819052508080610c029061496a565b915050610c3582846370a0823160e01b610c25896040516020016109e490614747565b604051602401610ba391906144b9565b888281518110610c4757610c476148fa565b60200260200101819052508080610c5d9061496a565b6040805160048152602481019091526020810180516001600160e01b03166318160ddd60e01b179052909250610c97915083908690612866565b888281518110610ca957610ca96148fa565b60200260200101819052508680610cbf9061496a565b97505050505050505b6001016109a9565b506040805160608101825260008082526020820181905291810191909152610d2e6040516020016104099060208082526019908201527811915157d11254d5149250955513d497d1d054d7d312535255603a1b604082015260600190565b6001600160801b03168152610d44600185614983565b610d4f90606061499f565b610d5a9060086149be565b63ffffffff166020820152610d6f60016124ac565b604051632fca305360e21b81526000906001600160a01b037f0000000000000000000000000000000000000000000000000000000000000000169063bf28c14c90610dc09087908690600401614a20565b6040805180830381865afa158015610ddc573d6000803e3d6000fd5b505050506040513d601f19601f82011682018060405250810190610e009190614b15565b805160405163c323228360e01b81529192506001600160a01b037f0000000000000000000000000000000000000000000000000000000000000000169163c32322839190610e549088908790600401614a20565b60806040518083038185885af1158015610e72573d6000803e3d6000fd5b50505050506040513d601f19601f82011682018060405250810190610e979190614b89565b50610ea0614353565b6020810151610eb09060026124da565b610efb8160006040518060400160405280601a8152602001796e756d6265724f66436861696e7352656164526571756573747360301b81525060018a610ef691906148d0565b61253f565b610f3a816001604051806040016040528060168152602001756d6573736167696e674665652e6e617469766546656560501b815250856000015161253f565b610f748160405180604001604052806018815260200177119959511a5cdd1c9a589d5d1a5bdb925b9a5d1a585d195960421b815250612550565b5050505050505050610f866001600055565b565b611005604051602001610fc09060208082526011908201527026aaa62a24a1a420a4a72fa922a0a222a960791b604082015260600190565b604051602081830303815290604052805190602001206040518060400160405280601181526020017026aaa62a24a1a420a4a72fa922a0a222a960791b815250611e42565b61100f6001611f68565b6110198135612061565b604051630b27346f60e11b81526001600160a01b037f0000000000000000000000000000000000000000000000000000000000000000169063164e68de90611085907f0000000000000000000000000000000000000000000000000000000000000000906004016144b9565b600060405180830381600087803b15801561109f57600080fd5b505af11580156110b3573d6000803e3d6000fd5b50506040516357ed18eb60e01b81526000925073__$26ca41ccf224404dca1800130c325a7716$__91506357ed18eb90611111907f0000000000000000000000000000000000000000000000000000000000000000906004016144b9565b600060405180830381865af415801561112e573d6000803e3d6000fd5b505050506040513d6000823e601f3d908101601f191682016040526111569190810190614820565b90506000611164825161289c565b90506000611172835161289c565b90506000611182610a5f46612795565b90506000611192610a5f466127d8565b905060008060008060005b89518110156112cf5760008a82815181106111ba576111ba6148fa565b6020026020010151905046810361122957878a83815181106111de576111de6148fa565b602002602001018181525050868983815181106111fd576111fd6148fa565b6020908102919091010152611212888761493e565b955061121e878661493e565b9450819350506112c7565b6000806112458e806020019061123f9190614ba5565b876128e6565b91509150818c858151811061125c5761125c6148fa565b602002602001018181525050808b858151811061127b5761127b6148fa565b6020908102919091010152611290828961493e565b975061129c818861493e565b96506112aa610ae284612795565b6112b661053a846127d8565b846112c08161496a565b9550505050505b60010161119d565b506112fe6040516020016112e290614beb565b60405160208183030381529060405280519060200120856123a3565b61132c60405160200161131090614c2f565b60405160208183030381529060405280519060200120846123a3565b61135e60405160200161133e906146a4565b604051602081830303815290604052805190602001208b600001356123a3565b611366612946565b6000611373858786612a1b565b9050600061137f614353565b602081015161138f9060036124da565b82891061144357828911156113fc576113ac8c888c898f8a612a30565b915060006113ba838b6148d0565b9050808411156113ee576040516397a3eeff60e01b815260048101859052602481018b90526044810184905260640161081c565b6113fa61053a46612795565b505b6003611407816124ac565b61143d82600060405180604001604052806011815260200170646973747269627574696f6e537461746560781b8152508461253f565b50611486565b600261144e816124ac565b61148482600060405180604001604052806011815260200170646973747269627574696f6e537461746560781b8152508461253f565b505b6114c3816001604051806040016040528060188152602001773332b2a0b6b7bab73a23b6bc21bab93932b73a21b430b4b760411b8152508c61253f565b6114fa816002604051806040016040528060128152602001711d1bdd185b11db5e109c9a5919d95913dd5d60721b8152508561253f565b60a081015161150a906001612c0b565b61156260006040518060400160405280600c81526020016b72656365697665644461746160a01b8152508f6040516020016115459190614c64565b60408051601f1981840301815291905260a0850151929190612c6d565b61159f816040518060400160405280601b81526020017a119959511a5cdd1c9a589d5d1a5bdb91185d18549958d95a5d9959602a1b815250612550565b5050505050505050505050505050565b6115b7611ef6565b6115c960405160200161034790614651565b6115d36002611f68565b6115e8610424604051602001610409906146a4565b6115f06120e4565b600061160460405160200161040990614beb565b90506000611614610a5f466127d8565b9050600061162a60405160200161040990614c2f565b90506000611639848484612a1b565b90506000611649610a5f46612795565b9050600061165782846148d0565b90506000611667610a5f46612cbf565b905060006116758383612d11565b90506000611683828661493e565b905060006116b07f00000000000000000000000000000000000000000000000000000000000000006126f9565b9050818110156116d75781816040516352891c0160e11b815260040161081c929190614ce6565b6116e361053a46612795565b6116ed60036124ac565b60006116f987836148d0565b9050611703614353565b60208101516117139060026124da565b6117438160006040518060400160405280600b81526020016a19db5e149958d95a5d995960aa1b8152508561253f565b611780816001604051806040016040528060188152602001773332b2a0b6b7bab73a23b6bc21bab93932b73a21b430b4b760411b8152508661253f565b6117a2816040518060600160405280602181526020016159f760219139612550565b505050505050505050505050610f866001600055565b6117c0611ef6565b6117d260405160200161034790614651565b6117dc6000611f68565b60006117ea610a5f86612439565b905060006117fa610a5f8761269f565b90507f00000000000000000000000000000000000000000000000000000000000000006001600160a01b0316866001600160a01b031603611bcb576000611883604051602001610409906020808252603190820152600080516020615a1883398151915260408201527010549114d7d154d1d35617d05353d55395607a1b606082015260800190565b9050808311156118aa578281604051635cb6b1b960e11b815260040161081c929190614ce6565b60006118b5886126f9565b905060006118c384866148d0565b905081811115611957576001600160a01b0389166340c10f197f000000000000000000000000000000000000000000000000000000000000000061190785856148d0565b6040518363ffffffff1660e01b8152600401611924929190614cf4565b600060405180830381600087803b15801561193e57600080fd5b505af1158015611952573d6000803e3d6000fd5b505050505b60005b86811015611bc2576000888883818110611976576119766148fa565b90506040020180360381019061198c9190614d0d565b905060006119c36040516020016103a6906020808252600c908201526b22a9a3a6ac2fab22a9aa22a960a11b604082015260600190565b6020830151835160405163a2545fa560e01b81529293506000926001600160a01b0385169163a2545fa5916119fb91906004016144b9565b602060405180830381865afa158015611a18573d6000803e3d6000fd5b505050506040513d601f19601f82011682018060405250810190611a3c9190614951565b611a46919061493e565b835160405163107c89c960e21b81529192506001600160a01b038416916341f2272491611a77918590600401614cf4565b600060405180830381600087803b158015611a9157600080fd5b505af1158015611aa5573d6000803e3d6000fd5b50505050611ab1614353565b6020810151611ac19060026124da565b611af081600060405180604001604052806006815260200165185b5bdd5b9d60d21b815250876020015161253f565b611b2681600160405180604001604052806011815260200170746f74616c4573476d785265776172647360781b8152508561253f565b7f00000000000000000000000000000000000000000000000000000000000000006001600160a01b03166324de01e4611b628660000151612d2a565b836040518363ffffffff1660e01b8152600401611b809291906153ec565b600060405180830381600087803b158015611b9a57600080fd5b505af1158015611bae573d6000803e3d6000fd5b50506001909601955061195a945050505050565b50505050611c1f565b7f00000000000000000000000000000000000000000000000000000000000000006001600160a01b0316866001600160a01b031614611c1f57856040516317f6121160e31b815260040161081c91906144b9565b604051635fa278ad60e11b815260009073__$a05ee47aaf2bebb5836367119e343f1fd0$__9063bf44f15a90611ca3907f0000000000000000000000000000000000000000000000000000000000000000907f0000000000000000000000000000000000000000000000000000000000000000908c908c908c908c90600401615436565b602060405180830381865af4158015611cc0573d6000803e3d6000fd5b505050506040513d601f19601f82011682018060405250810190611ce49190614951565b9050611d11877f000000000000000000000000000000000000000000000000000000000000000083612d36565b7f00000000000000000000000000000000000000000000000000000000000000006001600160a01b031663340dbab3611d4989612db4565b836040518363ffffffff1660e01b8152600401611d67929190614ce6565b6020604051808303816000875af1158015611d86573d6000803e3d6000fd5b505050506040513d601f19601f82011682018060405250810190611daa9190614951565b50611df67f0000000000000000000000000000000000000000000000000000000000000000887f0000000000000000000000000000000000000000000000000000000000000000612df6565b611e00818361493e565b915082821115611e295786828460405163c1fa684360e01b815260040161081c939291906154b8565b611e35610ae28861269f565b5050506107776001600055565b60405163ac4ab3fb60e01b81526001600160a01b037f0000000000000000000000000000000000000000000000000000000000000000169063ac4ab3fb90611e909033908690600401614cf4565b602060405180830381865afa158015611ead573d6000803e3d6000fd5b505050506040513d601f19601f82011682018060405250810190611ed191906154d9565b611ef257338160405163a35b150b60e01b815260040161081c9291906154fb565b5050565b600260005403611f485760405162461bcd60e51b815260206004820152601f60248201527f5265656e7472616e637947756172643a207265656e7472616e742063616c6c00604482015260640161081c565b6002600055565b6000611f62611f5d83612f01565b612613565b92915050565b6000611f7c6040516020016104099061551f565b9050806003811115611f9057611f90614731565b6003811115611fa157611fa1614731565b826003811115611fb357611fb3614731565b14611ef2576040516321a57d1960e21b81526004810182905260240161081c565b60405163bd02d0f560e01b8152600481018290526000907f00000000000000000000000000000000000000000000000000000000000000006001600160a01b03169063bd02d0f5906024015b602060405180830381865afa15801561203d573d6000803e3d6000fd5b505050506040513d601f19601f82011682018060405250810190611f629190614951565b6120b56040516020016104099060208082526027908201527f4645455f4449535452494255544f525f4d41585f524541445f524553504f4e53604082015266455f44454c415960c81b606082015260800190565b6120bf82426148d0565b11156120e15760405163ef84cb9960e01b81526004810182905260240161081c565b50565b600060076120f56201518042615564565b61210090600461493e565b61210a9190615578565b905060006007612152604051602001610409906020808252818101527f4645455f4449535452494255544f525f444953545249425554494f4e5f444159604082015260600190565b61215d84600761493e565b61216791906148d0565b6121719190615578565b905060006121826201518042615578565b61218c90426148d0565b9050600061219d83620151806148e3565b6121a790836148d0565b905060006121bd604051602001610409906146eb565b9050818111156121e45780826040516329e8e56560e11b815260040161081c929190614ce6565b5050505050565b600080600080600061221c7f00000000000000000000000000000000000000000000000000000000000000006126f9565b905060008073__$26ca41ccf224404dca1800130c325a7716$__634fb811e97f00000000000000000000000000000000000000000000000000000000000000006040518263ffffffff1660e01b815260040161227891906144b9565b6040805180830381865af4158015612294573d6000803e3d6000fd5b505050506040513d601f19601f820116820180604052508101906122b8919061558c565b909250905060006122c9828461493e565b90506000806122da868d8d87612f43565b9150915060006122ea8e8e613084565b90506122fa8787878686866131c6565b91506123078484846133b3565b929d919c509a509098509650505050505050565b600060405160200161235e906020808252601e908201527f4645455f4449535452494255544f525f4645455f414d4f554e545f5553440000604082015260600190565b6040516020818303038152906040528051906020012082604051602001612386929190614ce6565b604051602081830303815290604052805190602001209050919050565b604051637152429d60e11b81526001600160a01b037f0000000000000000000000000000000000000000000000000000000000000000169063e2a4853a906123f19085908590600401614ce6565b6020604051808303816000875af1158015612410573d6000803e3d6000fd5b505050506040513d601f19601f820116820180604052508101906124349190614951565b505050565b600060405160200161247a906020808252602790820152600080516020615a3883398151915260408201526617d05353d5539560ca1b606082015260800190565b60408051601f198184030181528282528051602091820120908301526001600160a01b03841690820152606001612386565b6120e16040516020016124be9061551f565b60405160208183030381529060405280519060200120826123a3565b806001600160401b038111156124f2576124f261476d565b60405190808252806020026020018201604052801561253857816020015b6040805180820190915260608152600060208201528152602001906001900390816125105790505b5090915250565b602084015161077790848484613872565b60c0820151612560906001612c0b565b60408051808201909152601081526f32bb32b73a2232b9b1b934b83a34b7b760811b602082015260c08301516125999160009084612c6d565b60405163483624fb60e11b81526001600160a01b037f0000000000000000000000000000000000000000000000000000000000000000169063906c49f6906125e59085906004016155b0565b600060405180830381600087803b1580156125ff57600080fd5b505af1158015610325573d6000803e3d6000fd5b6040516321f8a72160e01b8152600481018290526000907f00000000000000000000000000000000000000000000000000000000000000006001600160a01b0316906321f8a72190602401602060405180830381865afa15801561267b573d6000803e3d6000fd5b505050506040513d601f19601f82011682018060405250810190611f6291906155ee565b600060405160200161247a906020808252602a90820152600080516020615a3883398151915260408201526917d1115413d4d255115160b21b606082015260800190565b60006126f2611f5d84846138c5565b9392505050565b6040516370a0823160e01b81526000906001600160a01b038316906370a0823190612020907f0000000000000000000000000000000000000000000000000000000000000000906004016144b9565b600060405160200161247a9060208082526021908201527f574954484452415741424c455f4255594241434b5f544f4b454e5f414d4f554e6040820152601560fa1b606082015260800190565b600060405160200161235e906020808252601e908201527f4645455f4449535452494255544f525f4645455f414d4f554e545f474d580000604082015260600190565b600060405160200161235e906020808252601a908201527908c8a8abe8892a6a8a49284aaa89ea4bea6a882968a88be8e9ab60331b604082015260600190565b600060405160200161235e9060208082526022908201527f4645455f4449535452494255544f525f4c415945525a45524f5f434841494e5f604082015261125160f21b606082015260800190565b61286e614444565b506040805160608101825263ffffffff9490941684526001600160a01b039290921660208401529082015290565b6060816001600160401b038111156128b6576128b661476d565b6040519080825280602002602001820160405280156128df578160200160208202803683370190505b5092915050565b600080806128f58460606148e3565b90506000808088848961290982606061493e565b926129169392919061560b565b8101906129239190615635565b919450925090506000612936838561493e565b9a91995090975050505050505050565b6129ca604051602001612986906020808252601990820152784645455f4449535452494255544f525f474d585f505249434560381b604082015260600190565b604051602081830303815290604052805190602001206129c57f0000000000000000000000000000000000000000000000000000000000000000613960565b6123a3565b610f866040516020016129dc90615661565b604051602081830303815290604052805190602001206129c57f0000000000000000000000000000000000000000000000000000000000000000613960565b6000612a288484846139b3565b949350505050565b855160009081816001600160401b03811115612a4e57612a4e61476d565b604051908082528060200260200182016040528015612a77578160200160208202803683370190505b50905060005b82811015612ace57612aa989898381518110612a9b57612a9b6148fa565b602002602001015189612a1b565b828281518110612abb57612abb6148fa565b6020908102919091010152600101612a7d565b506040516358b4282560e01b815260009073__$26ca41ccf224404dca1800130c325a7716$__906358b4282590612b0b90899086906004016156d0565b600060405180830381865af4158015612b28573d6000803e3d6000fd5b505050506040513d6000823e601f3d908101601f19168201604052612b5091908101906156f5565b90506000612b5d8461289c565b905060005b8251811015612bf15786838281518110612b7e57612b7e6148fa565b60200260200101516000015103612be957828181518110612ba157612ba16148fa565b60200260200101516040015182848381518110612bc057612bc06148fa565b60200260200101516020015181518110612bdc57612bdc6148fa565b6020026020010181815250505b600101612b62565b50612bfc8b82613a9d565b9b9a5050505050505050505050565b806001600160401b03811115612c2357612c2361476d565b60405190808252806020026020018201604052801561253857816020015b6040805180820190915260608082526020820152815260200190600190039081612c4157505090915250565b8184600001518481518110612c8457612c846148fa565b6020026020010151600001819052508084600001518481518110612caa57612caa6148fa565b60200260200101516020018190525050505050565b600060405160200161235e9060208082526026908201527f4645455f4449535452494255544f525f4252494447455f534c4950504147455f6040820152652320a1aa27a960d11b606082015260800190565b60006126f2838368327cb2734119d3b7a9601e1b612a1b565b6001600160a01b031690565b60405163078d3b7960e01b81526001600160a01b037f0000000000000000000000000000000000000000000000000000000000000000169063078d3b7990612d869086908690869060040161462d565b600060405180830381600087803b158015612da057600080fd5b505af1158015610283573d6000803e3d6000fd5b600060405160200161247a906020808252601c908201527b1513d5105317d0d31052535050931157d195539114d7d05353d5539560221b604082015260600190565b6000836001600160a01b031663bd02d0f5612e1085612db4565b6040518263ffffffff1660e01b8152600401612e2e91815260200190565b602060405180830381865afa158015612e4b573d6000803e3d6000fd5b505050506040513d601f19601f82011682018060405250810190612e6f9190614951565b6040516370a0823160e01b81529091506001600160a01b038416906370a0823190612e9e9085906004016144b9565b602060405180830381865afa158015612ebb573d6000803e3d6000fd5b505050506040513d601f19601f82011682018060405250810190612edf9190614951565b8111156107775782604051639fc47b7760e01b815260040161081c91906144b9565b600060405160200161235e906020808252601c908201527b4645455f4449535452494255544f525f414444524553535f494e464f60201b604082015260600190565b6000806000612fa086612f9b6040516020016104099060208082526022908201527f4645455f4449535452494255544f525f56315f464545535f574e545f4641435460408201526127a960f11b606082015260800190565b612d11565b90506000612ff786612f9b6040516020016104099060208082526022908201527f4645455f4449535452494255544f525f56325f464545535f574e545f4641435460408201526127a960f11b606082015260800190565b9050600061300f898361300a818761493e565b612a1b565b9050600061305982612f9b604051602001610409906020808252818101527f4645455f4449535452494255544f525f434841494e4c494e4b5f464143544f52604082015260600190565b905060008761306883856148d0565b61307291906148d0565b919b919a509098505050505050505050565b6000806130d5604051602001610409906020808252603390820152600080516020615a1883398151915260408201527210549114d7d5d39517d554d117d05353d55395606a1b606082015260800190565b9050808411156130fc57838160405163e668511560e01b815260040161081c929190614ce6565b600061314c604051602001610409906020808252603390820152600080516020615a1883398151915260408201527220a92229afaba72a2faaa9a22fa320a1aa27a960691b606082015260800190565b9050600061315a8583612d11565b905080861115613181578581604051630c2b825560e21b815260040161081c929190614ce6565b600068327cb2734119d3b7a9601e1b6131a260405160200161040990615661565b6131ac91906148e3565b905060006131ba8883613eb0565b98975050505050505050565b60008083856131d5888b6148d0565b6131df91906148d0565b6131e991906148d0565b905060006131f7848961493e565b90508181111561338a57600061320d83836148d0565b905085811115613377576000613272604051602001610409906020808252602c908201527f4645455f4449535452494255544f525f4d41585f574e545f414d4f554e545f4660408201526b524f4d5f545245415355525960a01b606082015260800190565b9050600061328088846148d0565b9050818111156132a757818160405163226a41e560e21b815260040161081c929190614ce6565b7f00000000000000000000000000000000000000000000000000000000000000006001600160a01b03166323b872dd6132e86040516020016103a690614682565b7f0000000000000000000000000000000000000000000000000000000000000000846040518463ffffffff1660e01b81526004016133289392919061462d565b6020604051808303816000875af1158015613347573d6000803e3d6000fd5b505050506040513d601f19601f8201168201806040525081019061336b91906154d9565b50600097505050613384565b61338181876148d0565b95505b506133a6565b600061339682846148d0565b90506133a2818761493e565b9550505b5092979650505050505050565b60007f00000000000000000000000000000000000000000000000000000000000000006001600160a01b0316635948f7336040516020016133f3906157b0565b604051602081830303815290604052805190602001206040518263ffffffff1660e01b815260040161342791815260200190565b600060405180830381865afa158015613444573d6000803e3d6000fd5b505050506040513d6000823e601f3d908101601f1916820160405261346c91908101906157e6565b905060007f00000000000000000000000000000000000000000000000000000000000000006001600160a01b03166386ac6bdf6040516020016134ae906157b0565b604051602081830303815290604052805190602001206040518263ffffffff1660e01b81526004016134e291815260200190565b600060405180830381865afa1580156134ff573d6000803e3d6000fd5b505050506040513d6000823e601f3d908101601f191682016040526135279190810190614820565b90506000805b835181101561363357600084828151811061354a5761354a6148fa565b602002602001015190506000816001600160a01b03163190506000858481518110613577576135776148fa565b602002602001015190508082101561362857600061359583836148d0565b604051633510f2a560e21b81529091506001600160a01b037f0000000000000000000000000000000000000000000000000000000000000000169063d443ca94906135e69087908590600401614cf4565b600060405180830381600087803b15801561360057600080fd5b505af1158015613614573d6000803e3d6000fd5b505050508086613624919061493e565b9550505b50505060010161352d565b508086146136585785816040516304471bcd60e11b815260040161081c929190614ce6565b6136b27f00000000000000000000000000000000000000000000000000000000000000006136ac6040516020016103a690602080825260099082015268434841494e4c494e4b60b81b604082015260600190565b87612d36565b6136ee7f00000000000000000000000000000000000000000000000000000000000000006136e86040516020016103a690614682565b86612d36565b6000613703466040516020016109e490614910565b90506000613713610a5f46612795565b90506000826001600160a01b031663bfe109286040518163ffffffff1660e01b8152600401602060405180830381865afa158015613755573d6000803e3d6000fd5b505050506040513d601f19601f8201168201806040525081019061377991906155ee565b90506137a67f00000000000000000000000000000000000000000000000000000000000000008484612d36565b806001600160a01b0316633ae6d6eb6040518163ffffffff1660e01b8152600401600060405180830381600087803b1580156137e157600080fd5b505af11580156137f5573d6000803e3d6000fd5b50505050806001600160a01b03166318e20a0362093a80846138179190615564565b6040518263ffffffff1660e01b815260040161383591815260200190565b600060405180830381600087803b15801561384f57600080fd5b505af1158015613863573d6000803e3d6000fd5b50505050505050505050505050565b8184600001518481518110613889576138896148fa565b60200260200101516000018190525080846000015184815181106138af576138af6148fa565b6020026020010151602001818152505050505050565b60006040516020016139179060208082526026908201527f4645455f4449535452494255544f525f414444524553535f494e464f5f464f526040820152652fa1a420a4a760d11b606082015260800190565b60408051601f1981840301815282825280516020918201209083015281018490526060810183905260800160405160208183030381529060405280519060200120905092915050565b600080600061398f7f000000000000000000000000000000000000000000000000000000000000000085613ebe565b91509150816126f25783604051638db88ccf60e01b815260040161081c91906144b9565b60008080600019858709858702925082811083820303915050806000036139ed578382816139e3576139e361554e565b04925050506126f2565b808411613a345760405162461bcd60e51b81526020600482015260156024820152744d6174683a206d756c446976206f766572666c6f7760581b604482015260640161081c565b60008486880960026001871981018816978890046003810283188082028403028082028403028082028403028082028403028082028403029081029092039091026000889003889004909101858311909403939093029303949094049190911702949350505050565b600080613ad46040516020016103a6906020808252600d908201526c131056515496915493d7d3d195609a1b604082015260600190565b90506000816001600160a01b031663963efcaa6040518163ffffffff1660e01b8152600401602060405180830381865afa158015613b16573d6000803e3d6000fd5b505050506040513d601f19601f82011682018060405250810190613b3a9190614951565b90506000805b8651811015613ea6576000868281518110613b5d57613b5d6148fa565b6020026020010151905080600003613b755750613e9e565b6000613b8182866140ed565b9050613bae7f00000000000000000000000000000000000000000000000000000000000000003083612d36565b856001600160a01b0316639f68b9646040518163ffffffff1660e01b8152600401602060405180830381865afa158015613bec573d6000803e3d6000fd5b505050506040513d601f19601f82011682018060405250810190613c1091906154d9565b15613ca85760405163095ea7b360e01b81526001600160a01b037f0000000000000000000000000000000000000000000000000000000000000000169063095ea7b390613c639089908590600401614cf4565b6020604051808303816000875af1158015613c82573d6000803e3d6000fd5b505050506040513d601f19601f82011682018060405250810190613ca691906154d9565b505b6000898481518110613cbc57613cbc6148fa565b602002602001015190506000613cd4610a5f83612818565b90506000613cf3613cee846040516020016109e490614747565b612d2a565b90506000613d10613d0a86612f9b610a5f88612cbf565b8a6140ed565b905060006040518060e001604052808563ffffffff16815260200184815260200187815260200183815260200160405180602001604052806000815250815260200160405180602001604052806000815250815260200160405180602001604052806000815250815250905060008b6001600160a01b0316633b6f743b8360006040518363ffffffff1660e01b8152600401613dad9291906158f0565b6040805180830381865afa158015613dc9573d6000803e3d6000fd5b505050506040513d601f19601f82011682018060405250810190613ded9190614b15565b805160405163c7c7f5b360e01b81529192506001600160a01b038e169163c7c7f5b39190613e4390869086907f000000000000000000000000000000000000000000000000000000000000000090600401615914565b60c06040518083038185885af1158015613e61573d6000803e3d6000fd5b50505050506040513d601f19601f82011682018060405250810190613e869190615953565b50613e939050878b61493e565b995050505050505050505b600101613b40565b5095945050505050565b60006126f283836000614104565b6000806000846001600160a01b03166321f8a721613edb86614153565b6040518263ffffffff1660e01b8152600401613ef991815260200190565b602060405180830381865afa158015613f16573d6000803e3d6000fd5b505050506040513d601f19601f82011682018060405250810190613f3a91906155ee565b90506001600160a01b038116613f575760008092509250506140e6565b6000819050600080826001600160a01b031663feaf968c6040518163ffffffff1660e01b815260040160a060405180830381865afa158015613f9d573d6000803e3d6000fd5b505050506040513d601f19601f82011682018060405250810190613fc191906159a4565b5093505092505060008213613fed578682604051635f328a5b60e11b815260040161081c929190614cf4565b6000886001600160a01b031663bd02d0f56140078a614183565b6040518263ffffffff1660e01b815260040161402591815260200190565b602060405180830381865afa158015614042573d6000803e3d6000fd5b505050506040513d601f19601f820116820180604052508101906140669190614951565b9050814211801561407f57508061407d83426148d0565b115b156140a3578782826040516306b5a95b60e51b815260040161081c939291906154b8565b60006140ae846141c6565b905060006140bc8b8b61421c565b905060006140d7838368327cb2734119d3b7a9601e1b612a1b565b60019a50985050505050505050505b9250929050565b6000816140fa8185615564565b6126f291906148e3565b600083600003614116575060006126f2565b811561413c576141358468327cb2734119d3b7a9601e1b8560016142bb565b90506126f2565b612a288468327cb2734119d3b7a9601e1b856139b3565b600060405160200161247a906020808252600a908201526914149250d157d191515160b21b604082015260600190565b600060405160200161247a906020808252601d908201527f50524943455f464545445f4845415254424541545f4455524154494f4e000000604082015260600190565b6000808212156142185760405162461bcd60e51b815260206004820181905260248201527f53616665436173743a2076616c7565206d75737420626520706f736974697665604482015260640161081c565b5090565b600080836001600160a01b031663bd02d0f561423785614318565b6040518263ffffffff1660e01b815260040161425591815260200190565b602060405180830381865afa158015614272573d6000803e3d6000fd5b505050506040513d601f19601f820116820180604052508101906142969190614951565b9050806000036126f2578260405163b86fffef60e01b815260040161081c91906144b9565b6000806142c98686866139b3565b905060018360028111156142df576142df614731565b1480156142fc5750600084806142f7576142f761554e565b868809115b1561430f5761430c60018261493e565b90505b95945050505050565b600060405160200161247a90602080825260159082015274282924a1a2afa322a2a22fa6aaa62a24a82624a2a960591b604082015260600190565b604080516101208101909152606060e0820181815261010083019190915281908152602001614395604051806040016040528060608152602001606081525090565b81526020016143b7604051806040016040528060608152602001606081525090565b81526020016143d9604051806040016040528060608152602001606081525090565b81526020016143fb604051806040016040528060608152602001606081525090565b815260200161441d604051806040016040528060608152602001606081525090565b815260200161443f604051806040016040528060608152602001606081525090565b905290565b6040805160608082018352600080835260208301529181019190915290565b6001600160a01b03811681146120e157600080fd5b60008060006060848603121561448d57600080fd5b833561449881614463565b925060208401356144a881614463565b929592945050506040919091013590565b6001600160a01b0391909116815260200190565b600080604083850312156144e057600080fd5b82356144eb81614463565b946020939093013593505050565b6000806000806080858703121561450f57600080fd5b5050823594602084013594506040840135936060013592509050565b6000806040838503121561453e57600080fd5b8235915060208301356001600160401b0381111561455b57600080fd5b83016040818603121561456d57600080fd5b809150509250929050565b6000806000806060858703121561458e57600080fd5b843561459981614463565b93506020850135925060408501356001600160401b038111156145bb57600080fd5b8501601f810187136145cc57600080fd5b80356001600160401b038111156145e257600080fd5b8760208260061b84010111156145f757600080fd5b949793965060200194505050565b6020808252600e908201526d2a24a6a2a627a1a5afa0a226a4a760911b604082015260600190565b6001600160a01b039384168152919092166020820152604081019190915260600190565b6020808252601790820152762322a2afa224a9aa2924a12aaa24a7a72fa5a2a2a822a960491b604082015260600190565b602080825260089082015267545245415355525960c01b604082015260600190565b60208082526027908201527f4645455f4449535452494255544f525f524541445f524553504f4e53455f544960408201526604d455354414d560cc1b606082015260800190565b60208082526026908201527f4645455f4449535452494255544f525f444953545249425554494f4e5f54494d6040820152650455354414d560d41b606082015260800190565b634e487b7160e01b600052602160045260246000fd5b6020808252600c908201526b2322a2afa922a1a2a4ab22a960a11b604082015260600190565b634e487b7160e01b600052604160045260246000fd5b604080519081016001600160401b03811182821017156147a5576147a561476d565b60405290565b604051606081016001600160401b03811182821017156147a5576147a561476d565b604051601f8201601f191681016001600160401b03811182821017156147f5576147f561476d565b604052919050565b60006001600160401b038211156148165761481661476d565b5060051b60200190565b60006020828403121561483257600080fd5b81516001600160401b0381111561484857600080fd5b8201601f8101841361485957600080fd5b805161486c614867826147fd565b6147cd565b8082825260208201915060208360051b85010192508683111561488e57600080fd5b6020840193505b828410156148b0578351825260209384019390910190614895565b9695505050505050565b634e487b7160e01b600052601160045260246000fd5b81810381811115611f6257611f626148ba565b8082028115828204841417611f6257611f626148ba565b634e487b7160e01b600052603260045260246000fd5b60208082526014908201527322ac2a22a72222a22fa3a6ac2faa2920a1a5a2a960611b604082015260600190565b80820180821115611f6257611f626148ba565b60006020828403121561496357600080fd5b5051919050565b60006001820161497c5761497c6148ba565b5060010190565b63ffffffff8281168282160390811115611f6257611f626148ba565b63ffffffff81811683821602908116908181146128df576128df6148ba565b63ffffffff8181168382160190811115611f6257611f626148ba565b6000815180845260005b81811015614a00576020818501810151868301820152016149e4565b506000602082860101526020601f19601f83011685010191505092915050565b6000608082016080835280855180835260a08501915060a08160051b86010192506020870160005b82811015614aa957868503609f190184528151805163ffffffff1686526020808201516001600160a01b031690870152604090810151606091870182905290614a93908701826149da565b9550506020938401939190910190600101614a48565b50505050809150506126f2602083018480516001600160801b03908116835260208083015163ffffffff169084015260409182015116910152565b600060408284031215614af657600080fd5b614afe614783565b825181526020928301519281019290925250919050565b600060408284031215614b2757600080fd5b6126f28383614ae4565b600060808284031215614b4357600080fd5b614b4b6147ab565b8251815260208301519091506001600160401b0381168114614b6c57600080fd5b6020820152614b7e8360408401614ae4565b604082015292915050565b600060808284031215614b9b57600080fd5b6126f28383614b31565b6000808335601e19843603018112614bbc57600080fd5b8301803591506001600160401b03821115614bd657600080fd5b6020019150368190038213156140e657600080fd5b60208082526024908201527f4645455f4449535452494255544f525f544f54414c5f4645455f414d4f554e546040820152630be8e9ab60e31b606082015260800190565b6020808252818101527f4645455f4449535452494255544f525f544f54414c5f5354414b45445f474d58604082015260600190565b602080825282358282015260009083013536849003601e19018112614c8857600080fd5b83016020810190356001600160401b03811115614ca457600080fd5b803603821315614cb357600080fd5b604080850152806060850152808260808601376000608082860101526080601f19601f8301168501019250505092915050565b918252602082015260400190565b6001600160a01b03929092168252602082015260400190565b60006040828403128015614d2057600080fd5b50614d29614783565b8235614d3481614463565b81526020928301359281019290925250919050565b600082825180855260208501945060208160051b8301016020850160005b83811015614df057601f198584030188528151805160408552614d8d60408601826149da565b6020928301518682038785015280518083529084019360009350909101905b80831015614dd75783516001600160a01b031682526020938401936001939093019290910190614dac565b5060209a8b019a90955093909301925050600101614d67565b50909695505050505050565b60006040830182516040855281815180845260608701915060608160051b880101935060208301925060005b81811015614e7657605f198886030183528351805160408752614e4e60408801826149da565b6020928301516001600160a01b03169783019790975250938401939290920191600101614e28565b505050506020830151848203602086015261430f8282614d49565b600082825180855260208501945060208160051b8301016020850160005b83811015614df057601f198584030188528151805160408552614ed560408601826149da565b6020928301518682038785015280518083529084019360009350909101905b80831015614f175783518252602082019150602084019350600183019250614ef4565b5060209a8b019a90955093909301925050600101614eaf565b60006040830182516040855281815180845260608701915060608160051b880101935060208301925060005b81811015614fa157605f198886030183528351805160408752614f8260408801826149da565b6020928301519783019790975250938401939290920191600101614f5c565b505050506020830151848203602086015261430f8282614e91565b60006040830182516040855281815180845260608701915060608160051b880101935060208301925060005b81811015614fa157605f19888603018352835180516040875261500e60408801826149da565b6020928301519783019790975250938401939290920191600101614fe8565b600082825180855260208501945060208160051b8301016020850160005b83811015614df057601f19858403018852815180516040855261507160408601826149da565b6020928301518682038785015280518083529084019360009350909101905b808310156150b557835115158252602082019150602084019350600183019250615090565b5060209a8b019a9095509390930192505060010161504b565b60006040830182516040855281815180845260608701915060608160051b880101935060208301925060005b8181101561514157605f19888603018352835180516040875261512060408801826149da565b602092830151151597830197909752509384019392909201916001016150fa565b505050506020830151848203602086015261430f828261502d565b600082825180855260208501945060208160051b8301016020850160005b83811015614df057601f1985840301885281518051604085526151a060408601826149da565b6020928301518682038785015280518083529084019391925081830191600582901b84010160005b828110156151f957601f198583030184526151e48287516149da565b602096870196949094019391506001016151c8565b50809750505050505060208201915060208801975060018101905061517a565b60006040830182516040855281815180845260608701915060608160051b880101935060208301925060005b8181101561529d57605f19888603018352835180516040875261526b60408801826149da565b905060208201519150868103602088015261528681836149da565b965050506020938401939290920191600101615245565b505050506020830151848203602086015261430f828261515c565b60006040830182516040855281815180845260608701915060608160051b880101935060208301925060005b8181101561529d57605f19888603018352835180516040875261530a60408801826149da565b905060208201519150868103602088015261532581836149da565b9650505060209384019392909201916001016152e4565b6000815160e0845261535160e0850182614dfc565b90506020830151848203602086015261536a8282614f30565b915050604083015184820360408601526153848282614fbc565b9150506060830151848203606086015261539e82826150ce565b915050608083015184820360808601526153b88282614f30565b91505060a083015184820360a08601526153d28282615219565b91505060c083015184820360c086015261430f82826152b8565b60608152601a606082015279151bdd185b115cd1db5e14995dd85c991cd25b98dc99585cd95960321b608082015282602082015260a060408201526000612a2860a083018461533c565b6001600160a01b0387811682528681166020830152851660408201526060810184905260a060808201819052810182905260008360c08301825b858110156154aa57823561548381614463565b6001600160a01b031682526020838101359083015260409283019290910190600101615470565b509998505050505050505050565b6001600160a01b039390931683526020830191909152604082015260600190565b6000602082840312156154eb57600080fd5b815180151581146126f257600080fd5b6001600160a01b0383168152604060208201819052600090612a28908301846149da565b6020808252601590820152744645455f4449535452494255544f525f535441544560581b604082015260600190565b634e487b7160e01b600052601260045260246000fd5b6000826155735761557361554e565b500490565b6000826155875761558761554e565b500690565b6000806040838503121561559f57600080fd5b505080516020909101519092909150565b604081526014604082015273119959511a5cdd1c9a589d5d1a5bdb915d995b9d60621b60608201526080602082015260006126f2608083018461533c565b60006020828403121561560057600080fd5b81516126f281614463565b6000808585111561561b57600080fd5b8386111561562857600080fd5b5050820193919092039150565b60008060006060848603121561564a57600080fd5b505081359360208301359350604090920135919050565b6020808252601990820152784645455f4449535452494255544f525f574e545f505249434560381b604082015260600190565b600081518084526020840193506020830160005b828110156156c65781518652602095860195909101906001016156a8565b5093949350505050565b6040815260006156e36040830185615694565b828103602084015261430f8185615694565b60006020828403121561570757600080fd5b81516001600160401b0381111561571d57600080fd5b8201601f8101841361572e57600080fd5b805161573c614867826147fd565b8082825260208201915060206060840285010192508683111561575e57600080fd5b6020840193505b828410156148b0576060848803121561577d57600080fd5b6157856147ab565b8451815260208086015181830152604080870151908301529083526060909401939190910190615765565b6020808252601c908201527b4645455f4449535452494255544f525f4b45455045525f434f53545360201b604082015260600190565b6000602082840312156157f857600080fd5b81516001600160401b0381111561580e57600080fd5b8201601f8101841361581f57600080fd5b805161582d614867826147fd565b8082825260208201915060208360051b85010192508683111561584f57600080fd5b6020840193505b828410156148b057835161586981614463565b825260209384019390910190615856565b63ffffffff81511682526020810151602083015260408101516040830152606081015160608301526000608082015160e060808501526158bd60e08501826149da565b905060a083015184820360a08601526158d682826149da565b91505060c083015184820360c086015261430f82826149da565b604081526000615903604083018561587a565b905082151560208301529392505050565b608081526000615927608083018661587a565b8451602084810191909152909401516040830152506001600160a01b0391909116606090910152919050565b60008060c0838503121561596657600080fd5b6159708484614b31565b915061597f8460808501614ae4565b90509250929050565b80516001600160501b038116811461599f57600080fd5b919050565b600080600080600060a086880312156159bc57600080fd5b6159c586615988565b602087015160408801516060890151929750909550935091506159ea60808701615988565b9050929550929590935056fe466565446973747269627574696f6e42726964676564476d7852656365697665644645455f4449535452494255544f525f4d41585f524546455252414c5f5245574645455f4449535452494255544f525f524546455252414c5f52455741524453a26469706673582212201196b3e239abbcb0ccb8c6dd1762eb12b29300456abc792c261caa0f6b6eaf4864736f6c634300081d0033",
  "libraries": {
    "FeeDistributorUtils": "0x05fcA76DeE79743426DacE9A3369e4B9Af7Fe4ea",
    "ClaimUtils": "0x40Fe9EA67c9D29e77661837E986Ef20A78C5E9Ce"
  },
  "devdoc": {
    "kind": "dev",
    "methods": {},
    "version": 1
  },
  "userdoc": {
    "kind": "user",
    "methods": {},
    "version": 1
  },
  "storageLayout": {
    "storage": [
      {
        "astId": 12544,
        "contract": "contracts/fee/FeeDistributor.sol:FeeDistributor",
        "label": "_status",
        "offset": 0,
        "slot": "0",
        "type": "t_uint256"
      }
    ],
    "types": {
      "t_uint256": {
        "encoding": "inplace",
        "label": "uint256",
        "numberOfBytes": "32"
      }
    }
  }
}