{
  "address": "0xfaa2433563a26Df5A816AE4155155e3b5Ad15839",
  "abi": [
    {
      "anonymous": false,
      "inputs": [
        {
          "indexed": false,
          "internalType": "uint256",
          "name": "a",
          "type": "uint256"
        },
        {
          "indexed": false,
          "internalType": "uint256",
          "name": "b",
          "type": "uint256"
        }
      ],
      "name": "CurrentTxL1GasFees",
      "type": "event"
    },
    {
      "inputs": [],
      "name": "data",
      "outputs": [
        {
          "internalType": "string",
          "name": "",
          "type": "string"
        }
      ],
      "stateMutability": "view",
      "type": "function"
    },
    {
      "inputs": [
        {
          "internalType": "string",
          "name": "_data",
          "type": "string"
        }
      ],
      "name": "getCurrentTxL1GasFees",
      "outputs": [
        {
          "internalType": "uint256",
          "name": "",
          "type": "uint256"
        },
        {
          "internalType": "uint256",
          "name": "",
          "type": "uint256"
        }
      ],
      "stateMutability": "view",
      "type": "function"
    },
    {
      "inputs": [],
      "name": "revertIfTxOriginIsZero",
      "outputs": [
        {
          "internalType": "uint256",
          "name": "",
          "type": "uint256"
        }
      ],
      "stateMutability": "view",
      "type": "function"
    },
    {
      "inputs": [
        {
          "internalType": "string",
          "name": "_data",
          "type": "string"
        }
      ],
      "name": "test",
      "outputs": [
        {
          "internalType": "uint256",
          "name": "",
          "type": "uint256"
        },
        {
          "internalType": "uint256",
          "name": "",
          "type": "uint256"
        }
      ],
      "stateMutability": "nonpayable",
      "type": "function"
    }
  ],
  "transactionHash": "0x48d66e462e3b398633d94eac97ee5dc6e1ff331e1a939e709c4e223d83ef3524",
  "args": [],
  "numDeployments": 1,
  "solcInputHash": "7aeeac09465e9fd5eef0eb65e3b5bf4b",
  "bytecode": "0x608060405234801561001057600080fd5b50610716806100206000396000f3fe608060405234801561001057600080fd5b506004361061004c5760003560e01c806317dac8461461005157806373d4a13a1461006c578063da9027ef14610081578063f9fbd554146100a9575b600080fd5b6100596100bc565b6040519081526020015b60405180910390f35b61007461010a565b604051610063919061046d565b61009461008f3660046104bb565b610198565b60408051928352602083019190915201610063565b6100946100b73660046104bb565b6102df565b6000326101045760405162461bcd60e51b815260206004820152601160248201527054585f4f524947494e5f49535f5a45524f60781b60448201526064015b60405180910390fd5b50600190565b600080546101179061052c565b80601f01602080910402602001604051908101604052809291908181526020018280546101439061052c565b80156101905780601f1061016557610100808354040283529160200191610190565b820191906000526020600020905b81548152906001019060200180831161017357829003601f168201915b505050505081565b6000806000606c6001600160a01b031663c6f7de0e6040518163ffffffff1660e01b8152600401602060405180830381865afa1580156101dc573d6000803e3d6000fd5b505050506040513d601f19601f820116820180604052508101906102009190610566565b905060006040516020016102139061057f565b60405160208183030381529060405280519060200120868660405160200161023c92919061058e565b604051602081830303815290604052805190602001200361026f5760405162461bcd60e51b81526004016100fb9061059e565b606c6001600160a01b031663c6f7de0e6040518163ffffffff1660e01b8152600401602060405180830381865afa1580156102ae573d6000803e3d6000fd5b505050506040513d601f19601f820116820180604052508101906102d29190610566565b9196919550909350505050565b6000806000606c6001600160a01b031663c6f7de0e6040518163ffffffff1660e01b8152600401602060405180830381865afa158015610323573d6000803e3d6000fd5b505050506040513d601f19601f820116820180604052508101906103479190610566565b9050600080610357868883610620565b506040516020016103679061057f565b60405160208183030381529060405280519060200120868660405160200161039092919061058e565b60405160208183030381529060405280519060200120036103c35760405162461bcd60e51b81526004016100fb9061059e565b606c6001600160a01b031663c6f7de0e6040518163ffffffff1660e01b8152600401602060405180830381865afa158015610402573d6000803e3d6000fd5b505050506040513d601f19601f820116820180604052508101906104269190610566565b60408051848152602081018390529192507fd404f9b5238ff8b18d7ce4bdd396925661315ffb6a05afd1ab1b38b3ec637e92910160405180910390a1909590945092505050565b600060208083528351808285015260005b8181101561049a5785810183015185820160400152820161047e565b506000604082860101526040601f19601f8301168501019250505092915050565b600080602083850312156104ce57600080fd5b82356001600160401b03808211156104e557600080fd5b818501915085601f8301126104f957600080fd5b81358181111561050857600080fd5b86602082850101111561051a57600080fd5b60209290920196919550909350505050565b600181811c9082168061054057607f821691505b60208210810361056057634e487b7160e01b600052602260045260246000fd5b50919050565b60006020828403121561057857600080fd5b5051919050565b62464f4f60e81b815260030190565b8183823760009101908152919050565b602080825260039082015262464f4f60e81b604082015260600190565b634e487b7160e01b600052604160045260246000fd5b601f82111561061b57600081815260208120601f850160051c810160208610156105f85750805b601f850160051c820191505b8181101561061757828155600101610604565b5050505b505050565b6001600160401b03831115610637576106376105bb565b61064b83610645835461052c565b836105d1565b6000601f84116001811461067f57600085156106675750838201355b600019600387901b1c1916600186901b1783556106d9565b600083815260209020601f19861690835b828110156106b05786850135825560209485019460019092019101610690565b50868210156106cd5760001960f88860031b161c19848701351681555b505060018560011b0183555b505050505056fea264697066735822122014f3a35651d376794a573ffccb2801c7b9d8d3aab8488e00e578e026e9ced3b764736f6c63430008120033",
  "libraries": {},
  "devdoc": {
    "kind": "dev",
    "methods": {},
    "version": 1
  },
  "userdoc": {
    "kind": "user",
    "methods": {},
    "version": 1
  },
  "storageLayout": {
    "storage": [
      {
        "astId": 107121,
        "contract": "contracts/test/GasTest.sol:GasTest",
        "label": "data",
        "offset": 0,
        "slot": "0",
        "type": "t_string_storage"
      }
    ],
    "types": {
      "t_string_storage": {
        "encoding": "bytes",
        "label": "string",
        "numberOfBytes": "32"
      }
    }
  }
}