{
  "address": "0x1cf1509595844EBFAbc0Af87Cea045D4fA3824Ac",
  "abi": [
    {
      "inputs": [
        {
          "internalType": "contract RoleStore",
          "name": "_roleStore",
          "type": "address"
        },
        {
          "internalType": "contract OracleStore",
          "name": "_oracleStore",
          "type": "address"
        }
      ],
      "stateMutability": "nonpayable",
      "type": "constructor"
    },
    {
      "inputs": [
        {
          "internalType": "bytes[]",
          "name": "values",
          "type": "bytes[]"
        },
        {
          "internalType": "uint256",
          "name": "index",
          "type": "uint256"
        },
        {
          "internalType": "string",
          "name": "label",
          "type": "string"
        }
      ],
      "name": "ArrayOutOfBoundsBytes",
      "type": "error"
    },
    {
      "inputs": [
        {
          "internalType": "uint256[]",
          "name": "values",
          "type": "uint256[]"
        },
        {
          "internalType": "uint256",
          "name": "index",
          "type": "uint256"
        },
        {
          "internalType": "string",
          "name": "label",
          "type": "string"
        }
      ],
      "name": "ArrayOutOfBoundsUint256",
      "type": "error"
    },
    {
      "inputs": [
        {
          "internalType": "uint256",
          "name": "minOracleBlockNumber",
          "type": "uint256"
        },
        {
          "internalType": "uint256",
          "name": "prevMinOracleBlockNumber",
          "type": "uint256"
        }
      ],
      "name": "BlockNumbersNotSorted",
      "type": "error"
    },
    {
      "inputs": [
        {
          "internalType": "uint256[]",
          "name": "compactedValues",
          "type": "uint256[]"
        },
        {
          "internalType": "uint256",
          "name": "index",
          "type": "uint256"
        },
        {
          "internalType": "uint256",
          "name": "slotIndex",
          "type": "uint256"
        },
        {
          "internalType": "string",
          "name": "label",
          "type": "string"
        }
      ],
      "name": "CompactedArrayOutOfBounds",
      "type": "error"
    },
    {
      "inputs": [
        {
          "internalType": "address",
          "name": "token",
          "type": "address"
        }
      ],
      "name": "DuplicateTokenPrice",
      "type": "error"
    },
    {
      "inputs": [
        {
          "internalType": "uint256",
          "name": "index",
          "type": "uint256"
        },
        {
          "internalType": "string",
          "name": "label",
          "type": "string"
        }
      ],
      "name": "DuplicatedIndex",
      "type": "error"
    },
    {
      "inputs": [
        {
          "internalType": "uint256",
          "name": "index",
          "type": "uint256"
        }
      ],
      "name": "EmptyCompactedBlockNumber",
      "type": "error"
    },
    {
      "inputs": [
        {
          "internalType": "uint256",
          "name": "index",
          "type": "uint256"
        }
      ],
      "name": "EmptyCompactedPrice",
      "type": "error"
    },
    {
      "inputs": [
        {
          "internalType": "uint256",
          "name": "index",
          "type": "uint256"
        }
      ],
      "name": "EmptyCompactedTimestamp",
      "type": "error"
    },
    {
      "inputs": [
        {
          "internalType": "address",
          "name": "token",
          "type": "address"
        }
      ],
      "name": "EmptyPriceFeed",
      "type": "error"
    },
    {
      "inputs": [
        {
          "internalType": "address",
          "name": "token",
          "type": "address"
        }
      ],
      "name": "EmptyPriceFeedMultiplier",
      "type": "error"
    },
    {
      "inputs": [
        {
          "internalType": "address",
          "name": "token",
          "type": "address"
        }
      ],
      "name": "EmptyPrimaryPrice",
      "type": "error"
    },
    {
      "inputs": [
        {
          "internalType": "uint256",
          "name": "signerIndex",
          "type": "uint256"
        }
      ],
      "name": "EmptySigner",
      "type": "error"
    },
    {
      "inputs": [
        {
          "internalType": "uint256",
          "name": "minOracleBlockNumber",
          "type": "uint256"
        },
        {
          "internalType": "uint256",
          "name": "currentBlockNumber",
          "type": "uint256"
        }
      ],
      "name": "InvalidBlockNumber",
      "type": "error"
    },
    {
      "inputs": [
        {
          "internalType": "address",
          "name": "token",
          "type": "address"
        },
        {
          "internalType": "int256",
          "name": "price",
          "type": "int256"
        }
      ],
      "name": "InvalidFeedPrice",
      "type": "error"
    },
    {
      "inputs": [
        {
          "internalType": "uint256",
          "name": "minPrice",
          "type": "uint256"
        },
        {
          "internalType": "uint256",
          "name": "maxPrice",
          "type": "uint256"
        }
      ],
      "name": "InvalidMedianMinMaxPrice",
      "type": "error"
    },
    {
      "inputs": [
        {
          "internalType": "uint256",
          "name": "minOracleBlockNumber",
          "type": "uint256"
        },
        {
          "internalType": "uint256",
          "name": "maxOracleBlockNumber",
          "type": "uint256"
        }
      ],
      "name": "InvalidMinMaxBlockNumber",
      "type": "error"
    },
    {
      "inputs": [
        {
          "internalType": "address",
          "name": "token",
          "type": "address"
        }
      ],
      "name": "InvalidOraclePrice",
      "type": "error"
    },
    {
      "inputs": [
        {
          "internalType": "address",
          "name": "recoveredSigner",
          "type": "address"
        },
        {
          "internalType": "address",
          "name": "expectedSigner",
          "type": "address"
        }
      ],
      "name": "InvalidSignature",
      "type": "error"
    },
    {
      "inputs": [
        {
          "internalType": "uint256",
          "name": "minPrice",
          "type": "uint256"
        },
        {
          "internalType": "uint256",
          "name": "maxPrice",
          "type": "uint256"
        }
      ],
      "name": "InvalidSignerMinMaxPrice",
      "type": "error"
    },
    {
      "inputs": [
        {
          "internalType": "uint256",
          "name": "index",
          "type": "uint256"
        },
        {
          "internalType": "string",
          "name": "label",
          "type": "string"
        }
      ],
      "name": "MaskIndexOutOfBounds",
      "type": "error"
    },
    {
      "inputs": [
        {
          "internalType": "uint256",
          "name": "oracleSigners",
          "type": "uint256"
        },
        {
          "internalType": "uint256",
          "name": "maxOracleSigners",
          "type": "uint256"
        }
      ],
      "name": "MaxOracleSigners",
      "type": "error"
    },
    {
      "inputs": [
        {
          "internalType": "uint256",
          "name": "oracleTimestamp",
          "type": "uint256"
        },
        {
          "internalType": "uint256",
          "name": "currentTimestamp",
          "type": "uint256"
        }
      ],
      "name": "MaxPriceAgeExceeded",
      "type": "error"
    },
    {
      "inputs": [
        {
          "internalType": "address",
          "name": "token",
          "type": "address"
        },
        {
          "internalType": "uint256",
          "name": "price",
          "type": "uint256"
        },
        {
          "internalType": "uint256",
          "name": "prevPrice",
          "type": "uint256"
        }
      ],
      "name": "MaxPricesNotSorted",
      "type": "error"
    },
    {
      "inputs": [
        {
          "internalType": "address",
          "name": "token",
          "type": "address"
        },
        {
          "internalType": "uint256",
          "name": "price",
          "type": "uint256"
        },
        {
          "internalType": "uint256",
          "name": "refPrice",
          "type": "uint256"
        },
        {
          "internalType": "uint256",
          "name": "maxRefPriceDeviationFactor",
          "type": "uint256"
        }
      ],
      "name": "MaxRefPriceDeviationExceeded",
      "type": "error"
    },
    {
      "inputs": [
        {
          "internalType": "uint256",
          "name": "signerIndex",
          "type": "uint256"
        },
        {
          "internalType": "uint256",
          "name": "maxSignerIndex",
          "type": "uint256"
        }
      ],
      "name": "MaxSignerIndex",
      "type": "error"
    },
    {
      "inputs": [
        {
          "internalType": "uint256",
          "name": "oracleSigners",
          "type": "uint256"
        },
        {
          "internalType": "uint256",
          "name": "minOracleSigners",
          "type": "uint256"
        }
      ],
      "name": "MinOracleSigners",
      "type": "error"
    },
    {
      "inputs": [
        {
          "internalType": "address",
          "name": "token",
          "type": "address"
        },
        {
          "internalType": "uint256",
          "name": "price",
          "type": "uint256"
        },
        {
          "internalType": "uint256",
          "name": "prevPrice",
          "type": "uint256"
        }
      ],
      "name": "MinPricesNotSorted",
      "type": "error"
    },
    {
      "inputs": [
        {
          "internalType": "uint256",
          "name": "tokensWithPricesLength",
          "type": "uint256"
        }
      ],
      "name": "NonEmptyTokensWithPrices",
      "type": "error"
    },
    {
      "inputs": [
        {
          "internalType": "address",
          "name": "token",
          "type": "address"
        },
        {
          "internalType": "uint256",
          "name": "minPrice",
          "type": "uint256"
        },
        {
          "internalType": "uint256",
          "name": "maxPrice",
          "type": "uint256"
        }
      ],
      "name": "PriceAlreadySet",
      "type": "error"
    },
    {
      "inputs": [
        {
          "internalType": "address",
          "name": "token",
          "type": "address"
        },
        {
          "internalType": "uint256",
          "name": "timestamp",
          "type": "uint256"
        },
        {
          "internalType": "uint256",
          "name": "heartbeatDuration",
          "type": "uint256"
        }
      ],
      "name": "PriceFeedNotUpdated",
      "type": "error"
    },
    {
      "inputs": [
        {
          "internalType": "address",
          "name": "msgSender",
          "type": "address"
        },
        {
          "internalType": "string",
          "name": "role",
          "type": "string"
        }
      ],
      "name": "Unauthorized",
      "type": "error"
    },
    {
      "inputs": [],
      "name": "MAX_SIGNERS",
      "outputs": [
        {
          "internalType": "uint256",
          "name": "",
          "type": "uint256"
        }
      ],
      "stateMutability": "view",
      "type": "function"
    },
    {
      "inputs": [],
      "name": "MAX_SIGNER_INDEX",
      "outputs": [
        {
          "internalType": "uint256",
          "name": "",
          "type": "uint256"
        }
      ],
      "stateMutability": "view",
      "type": "function"
    },
    {
      "inputs": [],
      "name": "SIGNER_INDEX_LENGTH",
      "outputs": [
        {
          "internalType": "uint256",
          "name": "",
          "type": "uint256"
        }
      ],
      "stateMutability": "view",
      "type": "function"
    },
    {
      "inputs": [],
      "name": "clearAllPrices",
      "outputs": [],
      "stateMutability": "nonpayable",
      "type": "function"
    },
    {
      "inputs": [
        {
          "internalType": "contract DataStore",
          "name": "dataStore",
          "type": "address"
        },
        {
          "internalType": "address",
          "name": "token",
          "type": "address"
        }
      ],
      "name": "getPriceFeedMultiplier",
      "outputs": [
        {
          "internalType": "uint256",
          "name": "",
          "type": "uint256"
        }
      ],
      "stateMutability": "view",
      "type": "function"
    },
    {
      "inputs": [
        {
          "internalType": "address",
          "name": "token",
          "type": "address"
        }
      ],
      "name": "getPrimaryPrice",
      "outputs": [
        {
          "components": [
            {
              "internalType": "uint256",
              "name": "min",
              "type": "uint256"
            },
            {
              "internalType": "uint256",
              "name": "max",
              "type": "uint256"
            }
          ],
          "internalType": "struct Price.Props",
          "name": "",
          "type": "tuple"
        }
      ],
      "stateMutability": "view",
      "type": "function"
    },
    {
      "inputs": [
        {
          "internalType": "contract DataStore",
          "name": "dataStore",
          "type": "address"
        },
        {
          "internalType": "address",
          "name": "token",
          "type": "address"
        }
      ],
      "name": "getStablePrice",
      "outputs": [
        {
          "internalType": "uint256",
          "name": "",
          "type": "uint256"
        }
      ],
      "stateMutability": "view",
      "type": "function"
    },
    {
      "inputs": [
        {
          "internalType": "uint256",
          "name": "start",
          "type": "uint256"
        },
        {
          "internalType": "uint256",
          "name": "end",
          "type": "uint256"
        }
      ],
      "name": "getTokensWithPrices",
      "outputs": [
        {
          "internalType": "address[]",
          "name": "",
          "type": "address[]"
        }
      ],
      "stateMutability": "view",
      "type": "function"
    },
    {
      "inputs": [],
      "name": "getTokensWithPricesCount",
      "outputs": [
        {
          "internalType": "uint256",
          "name": "",
          "type": "uint256"
        }
      ],
      "stateMutability": "view",
      "type": "function"
    },
    {
      "inputs": [],
      "name": "oracleStore",
      "outputs": [
        {
          "internalType": "contract OracleStore",
          "name": "",
          "type": "address"
        }
      ],
      "stateMutability": "view",
      "type": "function"
    },
    {
      "inputs": [
        {
          "internalType": "address",
          "name": "",
          "type": "address"
        }
      ],
      "name": "primaryPrices",
      "outputs": [
        {
          "internalType": "uint256",
          "name": "min",
          "type": "uint256"
        },
        {
          "internalType": "uint256",
          "name": "max",
          "type": "uint256"
        }
      ],
      "stateMutability": "view",
      "type": "function"
    },
    {
      "inputs": [],
      "name": "roleStore",
      "outputs": [
        {
          "internalType": "contract RoleStore",
          "name": "",
          "type": "address"
        }
      ],
      "stateMutability": "view",
      "type": "function"
    },
    {
      "inputs": [
        {
          "internalType": "contract DataStore",
          "name": "dataStore",
          "type": "address"
        },
        {
          "internalType": "contract EventEmitter",
          "name": "eventEmitter",
          "type": "address"
        },
        {
          "components": [
            {
              "internalType": "uint256",
              "name": "signerInfo",
              "type": "uint256"
            },
            {
              "internalType": "address[]",
              "name": "tokens",
              "type": "address[]"
            },
            {
              "internalType": "uint256[]",
              "name": "compactedMinOracleBlockNumbers",
              "type": "uint256[]"
            },
            {
              "internalType": "uint256[]",
              "name": "compactedMaxOracleBlockNumbers",
              "type": "uint256[]"
            },
            {
              "internalType": "uint256[]",
              "name": "compactedOracleTimestamps",
              "type": "uint256[]"
            },
            {
              "internalType": "uint256[]",
              "name": "compactedDecimals",
              "type": "uint256[]"
            },
            {
              "internalType": "uint256[]",
              "name": "compactedMinPrices",
              "type": "uint256[]"
            },
            {
              "internalType": "uint256[]",
              "name": "compactedMinPricesIndexes",
              "type": "uint256[]"
            },
            {
              "internalType": "uint256[]",
              "name": "compactedMaxPrices",
              "type": "uint256[]"
            },
            {
              "internalType": "uint256[]",
              "name": "compactedMaxPricesIndexes",
              "type": "uint256[]"
            },
            {
              "internalType": "bytes[]",
              "name": "signatures",
              "type": "bytes[]"
            },
            {
              "internalType": "address[]",
              "name": "priceFeedTokens",
              "type": "address[]"
            }
          ],
          "internalType": "struct OracleUtils.SetPricesParams",
          "name": "params",
          "type": "tuple"
        }
      ],
      "name": "setPrices",
      "outputs": [],
      "stateMutability": "nonpayable",
      "type": "function"
    },
    {
      "inputs": [
        {
          "internalType": "address",
          "name": "token",
          "type": "address"
        },
        {
          "components": [
            {
              "internalType": "uint256",
              "name": "min",
              "type": "uint256"
            },
            {
              "internalType": "uint256",
              "name": "max",
              "type": "uint256"
            }
          ],
          "internalType": "struct Price.Props",
          "name": "price",
          "type": "tuple"
        }
      ],
      "name": "setPrimaryPrice",
      "outputs": [],
      "stateMutability": "nonpayable",
      "type": "function"
    }
  ],
  "transactionHash": "0xd15041905f6c44d553099c380b17dcc477314420d3585fa8f91a886ab583a9e3",
  "args": [
    "0x3c3d99FD298f679DBC2CEcd132b4eC4d0F5e6e72",
    "0xA8AF9B86fC47deAde1bc66B12673706615E2B011"
  ],
  "numDeployments": 1,
  "solcInputHash": "ceaee67c68e8683a89d03d7b32cacd17",
  "bytecode": "0x60a06040523480156200001157600080fd5b50604051620041e4380380620041e4833981016040819052620000349162000076565b6001600160a01b03918216608052600080546001600160a01b03191691909216179055620000b5565b6001600160a01b03811681146200007357600080fd5b50565b600080604083850312156200008a57600080fd5b825162000097816200005d565b6020840151909250620000aa816200005d565b809150509250929050565b60805161410c620000d86000396000818161011f01526108c1015261410c6000f3fe608060405234801561001057600080fd5b50600436106100b95760003560e01c8062ccf155146100be578063392bf7f6146100c85780633b9f9bd2146100f157806347cba33d146101075780634a4a7b041461011a57806351b5107a1461014157806359ecd657146101615780635dcf7194146101695780637901828d14610197578063a2bbd6041461019f578063b74da61d146101d4578063d1358ea9146101dd578063df026811146101f0578063e7b9183414610203575b600080fd5b6100c6610216565b005b6000546100db906001600160a01b031681565b6040516100e89190612cdc565b60405180910390f35b6100f9601081565b6040519081526020016100e8565b6100c6610115366004612d74565b6102ae565b6100db7f000000000000000000000000000000000000000000000000000000000000000081565b61015461014f366004612de8565b6102ca565b6040516100e89190612e0a565b6100f96102e1565b61017c610177366004612e57565b6102fd565b604080518251815260209283015192810192909252016100e8565b6100f961038e565b6101c66101ad366004612e57565b6003602052600090815260409020805460019091015482565b6040516100e8929190612e74565b6100f961010081565b6100f96101eb366004612e82565b61039f565b6100c66101fe366004613090565b610418565b6100f9610211366004612e82565b61080b565b6102666040516020016102289061329e565b604051602081830303815290604052805190602001206040518060400160405280600a81526020016921a7a72a2927a62622a960b11b8152506108aa565b6000610272600161095a565b905060005b818110156102aa57600061028c600182610964565b905061029781610970565b50806102a2816132d8565b915050610277565b5050565b6102c06040516020016102289061329e565b6102aa828261099e565b60606102d8600184846109d1565b90505b92915050565b60016102f06010610100613307565b6102fa919061331b565b81565b610305612ae3565b6001600160a01b03821661032c575050604080518082019091526000808252602082015290565b6001600160a01b038216600090815260036020908152604091829020825180840190935280548352600101549082015261036581610aa0565b156102db578260405163cd64a02560e01b81526004016103859190612cdc565b60405180910390fd5b600061039a600161095a565b905090565b6000826001600160a01b031663bd02d0f56103b984610ab5565b6040518263ffffffff1660e01b81526004016103d791815260200190565b602060405180830381865afa1580156103f4573d6000803e3d6000fd5b505050506040513d601f19601f820116820180604052508101906102d8919061332e565b61042a6040516020016102289061329e565b610434600161095a565b1561045f57610443600161095a565b60405163ef2df9b560e01b815260040161038591815260200190565b61046f8383836101600151610b32565b6020810151511561080657805160009061ffff166001600160401b0381111561049a5761049a612d05565b6040519080825280602002602001820160405280156104c3578160200160208202803683370190505b509050836001600160a01b031663bd02d0f56040516020016104e490613347565b604051602081830303815290604052805190602001206040518263ffffffff1660e01b815260040161051891815260200190565b602060405180830381865afa158015610535573d6000803e3d6000fd5b505050506040513d601f19601f82011682018060405250810190610559919061332e565b81511015610611578051846001600160a01b031663bd02d0f560405160200161058190613347565b604051602081830303815290604052805190602001206040518263ffffffff1660e01b81526004016105b591815260200190565b602060405180830381865afa1580156105d2573d6000803e3d6000fd5b505050506040513d601f19601f820116820180604052508101906105f6919061332e565b6040516354f3110960e11b8152600401610385929190612e74565b60016106206010610100613307565b61062a919061331b565b8151111561066857805160016106436010610100613307565b61064d919061331b565b60405163345da1b360e01b8152600401610385929190612e74565b610670612afd565b60005b82518110156107f657600061ffff61068c836010613373565b61069790601061338a565b8651901c16905061010081106106c65780610100604051633444aeaf60e21b8152600401610385929190612e74565b60408051808201909152600b81526a0e6d2cedccae492dcc8caf60ab1b60208201526106f59084908390610cc3565b600054604051631fff7f2760e11b8152600481018390526001600160a01b0390911690633ffefe4e90602401602060405180830381865afa15801561073e573d6000803e3d6000fd5b505050506040513d601f19601f82011682018060405250810190610762919061339d565b848381518110610774576107746133ba565b60200260200101906001600160a01b031690816001600160a01b03168152505060006001600160a01b03168483815181106107b1576107b16133ba565b60200260200101516001600160a01b0316036107e3576040516348c3705f60e01b815260048101829052602401610385565b50806107ee816132d8565b915050610673565b5061080385858486610d1e565b50505b505050565b600080836001600160a01b031663bd02d0f561082685611840565b6040518263ffffffff1660e01b815260040161084491815260200190565b602060405180830381865afa158015610861573d6000803e3d6000fd5b505050506040513d601f19601f82011682018060405250810190610885919061332e565b9050806000036102d8578260405163cc11188560e01b81526004016103859190612cdc565b60405163ac4ab3fb60e01b81526001600160a01b037f0000000000000000000000000000000000000000000000000000000000000000169063ac4ab3fb906108f890339086906004016133d0565b602060405180830381865afa158015610915573d6000803e3d6000fd5b505050506040513d601f19601f8201168201806040525081019061093991906133e9565b6102aa57338160405163a35b150b60e01b8152600401610385929190613451565b60006102db825490565b60006102d8838361187b565b6001600160a01b03811660009081526003602052604081208181556001908101919091556102aa90826118a5565b6001600160a01b0382166000908152600360209081526040909120825181559082015160019182015561080690836118ba565b606060006109de8561095a565b9050808311156109ec578092505b60006109f8858561331b565b6001600160401b03811115610a0f57610a0f612d05565b604051908082528060200260200182016040528015610a38578160200160208202803683370190505b509050845b84811015610a9457610a4f8782610964565b82610a5a888461331b565b81518110610a6a57610a6a6133ba565b6001600160a01b039092166020928302919091019091015280610a8c816132d8565b915050610a3d565b509150505b9392505050565b805160009015806102db575050602001511590565b6000604051602001610ae7906020808252600c908201526b535441424c455f505249434560a01b604082015260600190565b60408051601f198184030181528282528051602091820120908301526001600160a01b038416908201526060015b604051602081830303815290604052805190602001209050919050565b60005b8151811015610cbd576000828281518110610b5257610b526133ba565b60200260200101519050610ba860036000836001600160a01b03166001600160a01b0316815260200190815260200160002060405180604001604052908160008201548152602001600182015481525050610aa0565b610be9576001600160a01b0381166000908152600360205260409081902080546001909101549151636f684cef60e11b815261038592849291600401613475565b600080610bf687846118cf565b9150915081610c1a57826040516344f234b160e01b81526004016103859190612cdc565b6000610c26888561039f565b9050610c30612ae3565b8115610c6d576040518060400160405280838510610c4e5783610c50565b845b8152602001838510610c625784610c64565b835b90529050610c85565b60405180604001604052808481526020018481525090505b610c8f858261099e565b610ca58886836000015184602001516001611afe565b50505050508080610cb5906132d8565b915050610b35565b50505050565b6101008210610ce9578181604051630a1f10ab60e11b8152600401610385929190613496565b82516001831b90811615610d1457828260405163d406473760e01b8152600401610385929190613496565b8351179092525050565b610d26612b10565b846001600160a01b031663bd02d0f5604051602001610d76906020808252601e908201527f4d494e5f4f5241434c455f424c4f434b5f434f4e4649524d4154494f4e530000604082015260600190565b604051602081830303815290604052805190602001206040518263ffffffff1660e01b8152600401610daa91815260200190565b602060405180830381865afa158015610dc7573d6000803e3d6000fd5b505050506040513d601f19601f82011682018060405250810190610deb919061332e565b816020018181525050846001600160a01b031663bd02d0f5604051602001610e3b906020808252601490820152734d41585f4f5241434c455f50524943455f41474560601b604082015260600190565b604051602081830303815290604052805190602001206040518263ffffffff1660e01b8152600401610e6f91815260200190565b602060405180830381865afa158015610e8c573d6000803e3d6000fd5b505050506040513d601f19601f82011682018060405250810190610eb0919061332e565b816040018181525050846001600160a01b031663bd02d0f5604051602001610f179060208082526025908201527f4d41585f4f5241434c455f5245465f50524943455f444556494154494f4e5f4660408201526420a1aa27a960d91b606082015260800190565b604051602081830303815290604052805190602001206040518263ffffffff1660e01b8152600401610f4b91815260200190565b602060405180830381865afa158015610f68573d6000803e3d6000fd5b505050506040513d601f19601f82011682018060405250810190610f8c919061332e565b606082015260005b82602001515181101561183857610fa9612b45565b610fb1612ba0565b610fbf856040015184611c81565b82526060850151610fd09084611c81565b6020830181905282511115611001578151602083015160405163933ee62360e01b8152610385929190600401612e74565b61100f856080015184611cf3565b604083015261101c611d65565b8251111561104957815161102e611d65565b60405163d5dc642d60e01b8152600401610385929190612e74565b428460400151836040015161105e919061338a565b101561108557604082015142604051632b6e7c3f60e01b8152600401610385929190612e74565b6080840151825110156110b457815160808501516040516311aeaf6b60e01b8152610385929190600401612e74565b81516080850152602080850151908301516110cd611d65565b6110d7919061331b565b116110ef576110e98260200151611ddc565b60608301525b84602001518381518110611105576111056133ba565b6020908102919091018101516001600160a01b031660808401819052600090815260038252604090819020815180830190925280548252600101549181019190915261115090610aa0565b611173578160800151604051632b1889fd60e11b81526004016103859190612cdc565b6111818560a0015184611e51565b61118c90600a613593565b60c083015260808201516001600160a01b0389169063a6ed563e906111b090611e9d565b6040518263ffffffff1660e01b81526004016111ce91815260200190565b602060405180830381865afa1580156111eb573d6000803e3d6000fd5b505050506040513d601f19601f8201168201806040525081019061120f919061332e565b60a083015285516001600160401b0381111561122d5761122d612d05565b604051908082528060200260200182016040528015611256578160200160208202803683370190505b50608082015285516001600160401b0381111561127557611275612d05565b60405190808252806020026020018201604052801561129e578160200160208202803683370190505b5060a082015260005b86518110156114b557808751856112be9190613373565b6112c8919061338a565b80835260c08701516112d991611ece565b826080015182815181106112ef576112ef6133ba565b60200260200101818152505061130e8661010001518360000151611ece565b8260a001518281518110611324576113246133ba565b602090810291909101015280156114a3578160800151818151811061134b5761134b6133ba565b60200260200101518260800151600183611365919061331b565b81518110611375576113756133ba565b602002602001015111156113ec5782608001518260800151828151811061139e5761139e6133ba565b602002602001015183608001516001846113b8919061331b565b815181106113c8576113c86133ba565b60200260200101516040516312e64acd60e21b815260040161038593929190613475565b8160a001518181518110611402576114026133ba565b60200260200101518260a0015160018361141c919061331b565b8151811061142c5761142c6133ba565b602002602001015111156114a35782608001518260a001518281518110611455576114556133ba565b60200260200101518360a0015160018461146f919061331b565b8151811061147f5761147f6133ba565b6020026020010151604051633d4156e560e21b815260040161038593929190613475565b806114ad816132d8565b9150506112a7565b5060005b865181101561171357808751856114d09190613373565b6114da919061338a565b6020830181905260e08701516114ef91611f36565b604083015261012086015160208301516115099190611f36565b606083015261014086015151602083015110611545578561014001518260200151604051631c195f8160e21b81526004016103859291906135f4565b81608001515182604001511061157a5781608001518260400151604051639d18e63b60e01b8152600401610385929190613675565b8160a00151518260600151106115af578160a001518260600151604051639d18e63b60e01b81526004016103859291906136ba565b6115f182604001516040518060400160405280600d81526020016c0dad2dca0e4d2c6ca92dcc8caf609b1b8152508460c00151610cc39092919063ffffffff16565b606082015160408051808201909152600d81526c0dac2f0a0e4d2c6ca92dcc8caf609b1b602082015260e084015161162a929091610cc3565b8160800151826040015181518110611644576116446133ba565b60200260200101518360e00181815250508160a0015182606001518151811061166f5761166f6133ba565b6020908102919091010151610100840181905260e084015111156116b3578260e001518361010001516040516330f7faa560e11b8152600401610385929190612e74565b6117016116be611f7d565b848861014001518560200151815181106116da576116da6133ba565b60200260200101518a85815181106116f4576116f46133ba565b6020026020010151611fd3565b8061170b816132d8565b9150506114b9565b5060008260c0015161172883608001516120d9565b6117329190613373565b905060008360c001516117488460a001516120d9565b6117529190613373565b90506000806117658c87608001516118cf565b91509150811561179757611783866080015185838b6060015161218e565b611797866080015184838b6060015161218e565b8315806117a2575082155b156117c65785608001516040516359bfa36560e01b81526004016103859190612cdc565b828411156117eb57838360405163f4aa5e2160e01b8152600401610385929190612e74565b6117fd8b876080015186866000611afe565b61181f866080015160405180604001604052808781526020018681525061099e565b5050505050508080611830906132d8565b915050610f94565b505050505050565b6000604051602001610ae790602080825260159082015274282924a1a2afa322a2a22fa6aaa62a24a82624a2a960591b604082015260600190565b6000826000018281548110611892576118926133ba565b9060005260206000200154905092915050565b60006102d8836001600160a01b0384166121eb565b60006102d8836001600160a01b0384166122de565b6000806000846001600160a01b03166321f8a7216118ec8661232d565b6040518263ffffffff1660e01b815260040161190a91815260200190565b602060405180830381865afa158015611927573d6000803e3d6000fd5b505050506040513d601f19601f8201168201806040525081019061194b919061339d565b90506001600160a01b038116611968576000809250925050611af7565b6000819050600080826001600160a01b031663feaf968c6040518163ffffffff1660e01b815260040160a060405180830381865afa1580156119ae573d6000803e3d6000fd5b505050506040513d601f19601f820116820180604052508101906119d2919061371b565b50935050925050600082136119fe578682604051635f328a5b60e11b81526004016103859291906133d0565b6000886001600160a01b031663bd02d0f5611a188a61235d565b6040518263ffffffff1660e01b8152600401611a3691815260200190565b602060405180830381865afa158015611a53573d6000803e3d6000fd5b505050506040513d601f19601f82011682018060405250810190611a77919061332e565b90508142118015611a90575080611a8e834261331b565b115b15611ab4578782826040516390ce167360e01b815260040161038593929190613475565b6000611abf846123a0565b90506000611acd8b8b61080b565b90506000611ae8838368327cb2734119d3b7a9601e1b6123f6565b60019a50985050505050505050505b9250929050565b611b06612bf0565b8051611b13906001612403565b6040805180820190915260058152643a37b5b2b760d91b60208201528151611b3e9160009088612468565b6020810151611b4e906002612403565b611b8a6000604051806040016040528060088152602001676d696e507269636560c01b8152508684602001516124c5909392919063ffffffff16565b611bc66001604051806040016040528060088152602001676d6178507269636560c01b8152508584602001516124c5909392919063ffffffff16565b6060810151611bd6906001612403565b60408051808201909152600b81526a1a5cd41c9a58d95199595960aa1b60208201526060820151611c0a9160009085612518565b856001600160a01b03166324de01e4611c29876001600160a01b031690565b836040518363ffffffff1660e01b8152600401611c47929190613f51565b600060405180830381600087803b158015611c6157600080fd5b505af1158015611c75573d6000803e3d6000fd5b50505050505050505050565b600080611ccd8484604060c0600019901c6040518060400160405280601f81526020017f676574556e636f6d7061637465644f7261636c65426c6f636b4e756d6265720081525061256d565b9050806000036102d85760405163349f5fdd60e11b815260048101849052602401610385565b600080611d3f8484604060c0600019901c6040518060400160405280601d81526020017f676574556e636f6d7061637465644f7261636c6554696d657374616d7000000081525061256d565b9050806000036102d857604051639ffb34e960e01b815260048101849052602401610385565b6000611d6f61260a565b15611dd75760646001600160a01b031663a3b1b31d6040518163ffffffff1660e01b8152600401602060405180830381865afa158015611db3573d6000803e3d6000fd5b505050506040513d601f19601f8201168201806040525081019061039a919061332e565b504390565b6000611de661260a565b15611e4c576040516315a03d4160e11b815260048101839052606490632b407a8290602401602060405180830381865afa158015611e28573d6000803e3d6000fd5b505050506040513d601f19601f820116820180604052508101906102db919061332e565b504090565b600080611e958484600860f8600019901c6040518060400160405280601581526020017419d95d155b98dbdb5c1858dd1959111958da5b585b605a1b81525061256d565b949350505050565b6000604051602001610ae7906020808252600b908201526a4f5241434c455f5459504560a81b604082015260600190565b600080611f108484602060e0600019901c60405180604001604052806013815260200172676574556e636f6d706163746564507269636560681b81525061256d565b9050806000036102d857604051630554193160e21b815260048101849052602401610385565b600080611e958484600860f8600019901c604051806040016040528060188152602001770cecae8aadcc6dedae0c2c6e8cac8a0e4d2c6ca92dcc8caf60431b81525061256d565b600046604051602001611fb8918152604060208201819052600e908201526d786765742d6f7261636c652d763160901b606082015260800190565b60405160208183030381529060405280519060200120905090565b600061208485856000015186602001518760400151886060015189608001518a60a001518b60c001518c60e001518d61010001516040516020016120699a99989796959493929190998a5260208a01989098526040890196909652606088019490945260808701929092526001600160a01b031660a086015260c085015260e08401526101008301526101208201526101400190565b60405160208183030381529060405280519060200120612621565b90506000612092828561265b565b9050826001600160a01b0316816001600160a01b031614611838576040516310b5d43760e21b81526001600160a01b03808316600483015284166024820152604401610385565b6000600282516120e9919061405a565b60010361211e5781600283516120ff9190613307565b8151811061210f5761210f6133ba565b60200260200101519050919050565b6002826001600285516121319190613307565b61213b919061331b565b8151811061214b5761214b6133ba565b602002602001015183600285516121629190613307565b81518110612172576121726133ba565b6020026020010151612184919061338a565b6102db9190613307565b600061219a848461267f565b905060006121a882856126a1565b90508281111561183857604051633d1986f760e01b81526001600160a01b0387166004820152602481018690526044810185905260648101849052608401610385565b600081815260018301602052604081205480156122d457600061220f60018361331b565b85549091506000906122239060019061331b565b9050818114612288576000866000018281548110612243576122436133ba565b9060005260206000200154905080876000018481548110612266576122666133ba565b6000918252602080832090910192909255918252600188019052604090208390555b85548690806122995761229961406e565b6001900381819060005260206000200160009055905585600101600086815260200190815260200160002060009055600193505050506102db565b60009150506102db565b6000818152600183016020526040812054612325575081546001818101845560008481526020808220909301849055845484825282860190935260409020919091556102db565b5060006102db565b6000604051602001610ae7906020808252600a908201526914149250d157d191515160b21b604082015260600190565b6000604051602001610ae7906020808252601d908201527f50524943455f464545445f4845415254424541545f4455524154494f4e000000604082015260600190565b6000808212156123f25760405162461bcd60e51b815260206004820181905260248201527f53616665436173743a2076616c7565206d75737420626520706f7369746976656044820152606401610385565b5090565b6000611e958484846126af565b806001600160401b0381111561241b5761241b612d05565b60405190808252806020026020018201604052801561246157816020015b6040805180820190915260608152600060208201528152602001906001900390816124395790505b5090915250565b818460000151848151811061247f5761247f6133ba565b60200260200101516000018190525080846000015184815181106124a5576124a56133ba565b6020908102919091018101516001600160a01b0390921691015250505050565b81846000015184815181106124dc576124dc6133ba565b6020026020010151600001819052508084600001518481518110612502576125026133ba565b6020026020010151602001818152505050505050565b818460000151848151811061252f5761252f6133ba565b6020026020010151600001819052508084600001518481518110612555576125556133ba565b60209081029190910181015191151591015250505050565b60008061257c85610100613307565b9050600061258a8288613307565b9050875181106125b5578787828660405163bdec9c0d60e01b81526004016103859493929190614084565b60008882815181106125c9576125c96133ba565b6020026020010151905060008784846125e29190613373565b6125ec908b61331b565b6125f69190613373565b9190911c8616935050505095945050505050565b600061a4b146148061039a5750504662066eed1490565b6040517b0ca2ba3432b932bab69029b4b3b732b21026b2b9b9b0b3b29d05199960211b6020820152603c8101829052600090605c01610b15565b600080600061266a858561275e565b91509150612677816127a0565b509392505050565b600081831161269757612692838361331b565b6102d8565b6102d8828461331b565b60006102d883836000612954565b60008080600019858709858702925082811083820303915050806000036126e9578382816126df576126df6132f1565b0492505050610a99565b8084116126f557600080fd5b60008486880960026001871981018816978890046003810283188082028403028082028403028082028403028082028403028082028403029081029092039091026000889003889004909101858311909403939093029303949094049190911702949350505050565b60008082516041036127945760208301516040840151606085015160001a612788878285856129a3565b94509450505050611af7565b50600090506002611af7565b60008160048111156127b4576127b46140c0565b036127bc5750565b60018160048111156127d0576127d06140c0565b036128185760405162461bcd60e51b815260206004820152601860248201527745434453413a20696e76616c6964207369676e617475726560401b6044820152606401610385565b600281600481111561282c5761282c6140c0565b036128795760405162461bcd60e51b815260206004820152601f60248201527f45434453413a20696e76616c6964207369676e6174757265206c656e677468006044820152606401610385565b600381600481111561288d5761288d6140c0565b036128e55760405162461bcd60e51b815260206004820152602260248201527f45434453413a20696e76616c6964207369676e6174757265202773272076616c604482015261756560f01b6064820152608401610385565b60048160048111156128f9576128f96140c0565b036129515760405162461bcd60e51b815260206004820152602260248201527f45434453413a20696e76616c6964207369676e6174757265202776272076616c604482015261756560f01b6064820152608401610385565b50565b60008360000361296657506000610a99565b811561298c576129858468327cb2734119d3b7a9601e1b856001612a86565b9050610a99565b611e958468327cb2734119d3b7a9601e1b856126af565b6000806fa2a8918ca85bafe22016d0b997e4df60600160ff1b038311156129d05750600090506003612a7d565b8460ff16601b141580156129e857508460ff16601c14155b156129f95750600090506004612a7d565b6040805160008082526020820180845289905260ff881692820192909252606081018690526080810185905260019060a0016020604051602081039080840390855afa158015612a4d573d6000803e3d6000fd5b5050604051601f1901519150506001600160a01b038116612a7657600060019250925050612a7d565b9150600090505b94509492505050565b600080612a948686866126af565b90506001836002811115612aaa57612aaa6140c0565b148015612ac7575060008480612ac257612ac26132f1565b868809115b15612ada57612ad760018261338a565b90505b95945050505050565b604051806040016040528060008152602001600081525090565b6040518060200160405280600081525090565b6040518060a00160405280612b23612b45565b8152602001600081526020016000815260200160008152602001600081525090565b6040518061012001604052806000815260200160008152602001600081526020016000801916815260200160006001600160a01b03168152602001600080191681526020016000815260200160008152602001600081525090565b604051806101000160405280600081526020016000815260200160008152602001600081526020016060815260200160608152602001612bde612afd565b8152602001612beb612afd565b905290565b604080516101208101909152606060e0820181815261010083019190915281908152602001612c32604051806040016040528060608152602001606081525090565b8152602001612c54604051806040016040528060608152602001606081525090565b8152602001612c76604051806040016040528060608152602001606081525090565b8152602001612c98604051806040016040528060608152602001606081525090565b8152602001612cba604051806040016040528060608152602001606081525090565b8152602001612beb604051806040016040528060608152602001606081525090565b6001600160a01b0391909116815260200190565b6001600160a01b038116811461295157600080fd5b634e487b7160e01b600052604160045260246000fd5b60405161018081016001600160401b0381118282101715612d3e57612d3e612d05565b60405290565b604051601f8201601f191681016001600160401b0381118282101715612d6c57612d6c612d05565b604052919050565b6000808284036060811215612d8857600080fd5b8335612d9381612cf0565b92506040601f1982011215612da757600080fd5b50604080519081016001600160401b0381118282101715612dca57612dca612d05565b60409081526020858101358352940135938101939093525092909150565b60008060408385031215612dfb57600080fd5b50508035926020909101359150565b6020808252825182820181905260009190848201906040850190845b81811015612e4b5783516001600160a01b031683529284019291840191600101612e26565b50909695505050505050565b600060208284031215612e6957600080fd5b81356102d881612cf0565b918252602082015260400190565b60008060408385031215612e9557600080fd5b8235612ea081612cf0565b91506020830135612eb081612cf0565b809150509250929050565b60006001600160401b03821115612ed457612ed4612d05565b5060051b60200190565b600082601f830112612eef57600080fd5b81356020612f04612eff83612ebb565b612d44565b82815260059290921b84018101918181019086841115612f2357600080fd5b8286015b84811015612f47578035612f3a81612cf0565b8352918301918301612f27565b509695505050505050565b600082601f830112612f6357600080fd5b81356020612f73612eff83612ebb565b82815260059290921b84018101918181019086841115612f9257600080fd5b8286015b84811015612f475780358352918301918301612f96565b6000601f8381840112612fbf57600080fd5b82356020612fcf612eff83612ebb565b82815260059290921b85018101918181019087841115612fee57600080fd5b8287015b848110156130845780356001600160401b03808211156130125760008081fd5b818a0191508a603f8301126130275760008081fd5b8582013560408282111561303d5761303d612d05565b61304e828b01601f19168901612d44565b92508183528c818386010111156130655760008081fd5b8181850189850137506000908201870152845250918301918301612ff2565b50979650505050505050565b6000806000606084860312156130a557600080fd5b83356130b081612cf0565b925060208401356130c081612cf0565b915060408401356001600160401b03808211156130dc57600080fd5b9085019061018082880312156130f157600080fd5b6130f9612d1b565b8235815260208301358281111561310f57600080fd5b61311b89828601612ede565b60208301525060408301358281111561313357600080fd5b61313f89828601612f52565b60408301525060608301358281111561315757600080fd5b61316389828601612f52565b60608301525060808301358281111561317b57600080fd5b61318789828601612f52565b60808301525060a08301358281111561319f57600080fd5b6131ab89828601612f52565b60a08301525060c0830135828111156131c357600080fd5b6131cf89828601612f52565b60c08301525060e0830135828111156131e757600080fd5b6131f389828601612f52565b60e083015250610100808401358381111561320d57600080fd5b6132198a828701612f52565b828401525050610120808401358381111561323357600080fd5b61323f8a828701612f52565b828401525050610140808401358381111561325957600080fd5b6132658a828701612fad565b828401525050610160808401358381111561327f57600080fd5b61328b8a828701612ede565b8284015250508093505050509250925092565b6020808252600a908201526921a7a72a2927a62622a960b11b604082015260600190565b634e487b7160e01b600052601160045260246000fd5b6000600182016132ea576132ea6132c2565b5060010190565b634e487b7160e01b600052601260045260246000fd5b600082613316576133166132f1565b500490565b818103818111156102db576102db6132c2565b60006020828403121561334057600080fd5b5051919050565b6020808252601290820152714d494e5f4f5241434c455f5349474e45525360701b604082015260600190565b80820281158282048414176102db576102db6132c2565b808201808211156102db576102db6132c2565b6000602082840312156133af57600080fd5b81516102d881612cf0565b634e487b7160e01b600052603260045260246000fd5b6001600160a01b03929092168252602082015260400190565b6000602082840312156133fb57600080fd5b815180151581146102d857600080fd5b6000815180845260005b8181101561343157602081850181015186830182015201613415565b506000602082860101526020601f19601f83011685010191505092915050565b6001600160a01b0383168152604060208201819052600090611e959083018461340b565b6001600160a01b039390931683526020830191909152604082015260600190565b828152604060208201526000611e95604083018461340b565b600181815b808511156134ea5781600019048211156134d0576134d06132c2565b808516156134dd57918102915b93841c93908002906134b4565b509250929050565b600082613501575060016102db565b8161350e575060006102db565b8160018114613524576002811461352e5761354a565b60019150506102db565b60ff84111561353f5761353f6132c2565b50506001821b6102db565b5060208310610133831016604e8410600b841016171561356d575081810a6102db565b61357783836134af565b806000190482111561358b5761358b6132c2565b029392505050565b60006102d883836134f2565b600081518084526020808501808196508360051b8101915082860160005b858110156135e75782840389526135d584835161340b565b988501989350908401906001016135bd565b5091979650505050505050565b606081526000613607606083018561359f565b8360208401528281036040840152600a8152697369676e61747572657360b01b6020820152604081019150509392505050565b600081518084526020808501945080840160005b8381101561366a5781518752958201959082019060010161364e565b509495945050505050565b606081526000613688606083018561363a565b836020840152828103604084015260098152686d696e50726963657360b81b6020820152604081019150509392505050565b6060815260006136cd606083018561363a565b836020840152828103604084015260098152686d617850726963657360b81b6020820152604081019150509392505050565b80516001600160501b038116811461371657600080fd5b919050565b600080600080600060a0868803121561373357600080fd5b61373c866136ff565b945060208601519350604086015192506060860151915061375f608087016136ff565b90509295509295909350565b600081518084526020808501808196508360051b810191508286016000805b86811015613806578385038a528251604081518188526137ac8289018261340b565b92890151888403898b01528051808552908a01938693508a0191505b808310156137f15783516001600160a01b031682529289019260019290920191908901906137c8565b509b88019b965050509185019160010161378a565b509298975050505050505050565b60006040808401835182865281815180845260608801915060608160051b89010193506020808401935060005b8281101561388b57898603605f19018452845180518888526138658989018261340b565b918401516001600160a01b03169784019790975295509381019392810192600101613841565b50808801519550888503818a015250505050612ada818361376b565b600081518084526020808501808196508360051b8101915082860160005b858110156135e75782840389528151604081518187526138e78288018261340b565b91505086820151915085810387870152613901818361363a565b9a87019a95505050908401906001016138c5565b60006040808401835182865281815180845260608801915060608160051b89010193506020808401935060005b8281101561398357898603605f19018452845180518888526139668989018261340b565b918401519784019790975295509381019392810192600101613942565b50808801519550888503818a015250505050612ada81836138a7565b600081518084526020808501808196508360051b810191508286016000805b86811015613806578385038a528251604081518188526139e08289018261340b565b92890151888403898b01528051808552908a01938693508a0191505b80831015613a1c57835182529289019260019290920191908901906139fc565b509b88019b96505050918501916001016139be565b60006040808401835182865281815180845260608801915060608160051b89010193506020808401935060005b82811015613a9f57898603605f1901845284518051888852613a828989018261340b565b918401519784019790975295509381019392810192600101613a5e565b50808801519550888503818a015250505050612ada818361399f565b600081518084526020808501808196508360051b810191508286016000805b86811015613806578385038a52825160408151818852613afc8289018261340b565b92890151888403898b01528051808552908a01938693508a0191505b80831015613b3a57835115158252928901926001929092019190890190613b18565b509b88019b9650505091850191600101613ada565b60006040808401835182865281815180845260608801915060608160051b89010193506020808401935060005b82811015613bbf57898603605f1901845284518051888852613ba08989018261340b565b9184015115159784019790975295509381019392810192600101613b7c565b50808801519550888503818a015250505050612ada8183613abb565b600081518084526020808501808196508360051b810191508286016000805b86811015613806578385038a52825160408151818852613c1c8289018261340b565b92890151888403898b01528051808552908a01938693508a0191505b80831015613c585783518252928901926001929092019190890190613c38565b509b88019b9650505091850191600101613bfa565b60006040808401835182865281815180845260608801915060608160051b89010193506020808401935060005b82811015613cdb57898603605f1901845284518051888852613cbe8989018261340b565b918401519784019790975295509381019392810192600101613c9a565b50808801519550888503818a015250505050612ada8183613bdb565b600081518084526020808501808196508360051b8101915082860160005b858110156135e7578284038952815160408151818752613d378288018261340b565b91505086820151915085810387870152613d51818361359f565b9a87019a9550505090840190600101613d15565b60006040808401835182865281815180845260608801915060608160051b89010193506020808401935060005b82811015613de257898603605f1901845284518051888852613db68989018261340b565b9184015188830389860152919050613dce818361340b565b975050509381019392810192600101613d92565b50808801519550888503818a015250505050612ada8183613cf7565b600081518084526020808501808196506005915083821b81018387016000805b87811015613ea9578484038b52825160408151818752613e408288018261340b565b928a0151878403888c01528051808552908b019392508a83019150808a1b83018b01865b82811015613e9257601f19858303018452613e8082875161340b565b958d0195938d01939150600101613e64565b509e8b019e97505050938801935050600101613e1e565b50919998505050505050505050565b60006040808401835182865281815180845260608801915060608160051b89010193506020808401935060005b82811015613f3557898603605f1901845284518051888852613f098989018261340b565b9184015188830389860152919050613f21818361340b565b975050509381019392810192600101613ee5565b50808801519550888503818a015250505050612ada8183613dfe565b6060815260116060820152704f7261636c65507269636555706461746560781b608082015282602082015260a060408201526000825160e060a0840152613f9c610180840182613814565b90506020840151609f19808584030160c0860152613fba8383613915565b925060408601519150808584030160e0860152613fd78383613a31565b9250606086015191508085840301610100860152613ff58383613b4f565b92506080860151915080858403016101208601526140138383613c6d565b925060a0860151915080858403016101408601526140318383613d65565b925060c086015191508085840301610160860152506140508282613eb8565b9695505050505050565b600082614069576140696132f1565b500690565b634e487b7160e01b600052603160045260246000fd5b608081526000614097608083018761363a565b85602084015284604084015282810360608401526140b5818561340b565b979650505050505050565b634e487b7160e01b600052602160045260246000fdfea2646970667358221220c13cabc6d020364fe13295699a3dc05706a474758d751c6c4edec125e537302164736f6c63430008120033",
  "libraries": {},
  "devdoc": {
    "kind": "dev",
    "methods": {},
    "version": 1
  },
  "userdoc": {
    "kind": "user",
    "methods": {},
    "version": 1
  },
  "storageLayout": {
    "storage": [
      {
        "astId": 32011,
        "contract": "contracts/oracle/Oracle.sol:Oracle",
        "label": "oracleStore",
        "offset": 0,
        "slot": "0",
        "type": "t_contract(OracleStore)33824"
      },
      {
        "astId": 32014,
        "contract": "contracts/oracle/Oracle.sol:Oracle",
        "label": "tokensWithPrices",
        "offset": 0,
        "slot": "1",
        "type": "t_struct(AddressSet)5060_storage"
      },
      {
        "astId": 32019,
        "contract": "contracts/oracle/Oracle.sol:Oracle",
        "label": "primaryPrices",
        "offset": 0,
        "slot": "3",
        "type": "t_mapping(t_address,t_struct(Props)48343_storage)"
      }
    ],
    "types": {
      "t_address": {
        "encoding": "inplace",
        "label": "address",
        "numberOfBytes": "20"
      },
      "t_array(t_bytes32)dyn_storage": {
        "base": "t_bytes32",
        "encoding": "dynamic_array",
        "label": "bytes32[]",
        "numberOfBytes": "32"
      },
      "t_bytes32": {
        "encoding": "inplace",
        "label": "bytes32",
        "numberOfBytes": "32"
      },
      "t_contract(OracleStore)33824": {
        "encoding": "inplace",
        "label": "contract OracleStore",
        "numberOfBytes": "20"
      },
      "t_mapping(t_address,t_struct(Props)48343_storage)": {
        "encoding": "mapping",
        "key": "t_address",
        "label": "mapping(address => struct Price.Props)",
        "numberOfBytes": "32",
        "value": "t_struct(Props)48343_storage"
      },
      "t_mapping(t_bytes32,t_uint256)": {
        "encoding": "mapping",
        "key": "t_bytes32",
        "label": "mapping(bytes32 => uint256)",
        "numberOfBytes": "32",
        "value": "t_uint256"
      },
      "t_struct(AddressSet)5060_storage": {
        "encoding": "inplace",
        "label": "struct EnumerableSet.AddressSet",
        "members": [
          {
            "astId": 5059,
            "contract": "contracts/oracle/Oracle.sol:Oracle",
            "label": "_inner",
            "offset": 0,
            "slot": "0",
            "type": "t_struct(Set)4759_storage"
          }
        ],
        "numberOfBytes": "64"
      },
      "t_struct(Props)48343_storage": {
        "encoding": "inplace",
        "label": "struct Price.Props",
        "members": [
          {
            "astId": 48340,
            "contract": "contracts/oracle/Oracle.sol:Oracle",
            "label": "min",
            "offset": 0,
            "slot": "0",
            "type": "t_uint256"
          },
          {
            "astId": 48342,
            "contract": "contracts/oracle/Oracle.sol:Oracle",
            "label": "max",
            "offset": 0,
            "slot": "1",
            "type": "t_uint256"
          }
        ],
        "numberOfBytes": "64"
      },
      "t_struct(Set)4759_storage": {
        "encoding": "inplace",
        "label": "struct EnumerableSet.Set",
        "members": [
          {
            "astId": 4754,
            "contract": "contracts/oracle/Oracle.sol:Oracle",
            "label": "_values",
            "offset": 0,
            "slot": "0",
            "type": "t_array(t_bytes32)dyn_storage"
          },
          {
            "astId": 4758,
            "contract": "contracts/oracle/Oracle.sol:Oracle",
            "label": "_indexes",
            "offset": 0,
            "slot": "1",
            "type": "t_mapping(t_bytes32,t_uint256)"
          }
        ],
        "numberOfBytes": "64"
      },
      "t_uint256": {
        "encoding": "inplace",
        "label": "uint256",
        "numberOfBytes": "32"
      }
    }
  }
}