{
  "address": "0xD064a53B5fC178AA6137553F67940EFc1D8a30A6",
  "abi": [
    {
      "inputs": [
        {
          "internalType": "string",
          "name": "str",
          "type": "string"
        }
      ],
      "name": "log",
      "outputs": [],
      "stateMutability": "pure",
      "type": "function"
    }
  ],
  "transactionHash": "0x339ef5b91913bd3d66e0a2382bd5f7ef589ef8625ec1a97a63602a3008156065",
  "args": [],
  "numDeployments": 1,
  "solcInputHash": "6b15bfaff11486a51d31cf6605addec4",
  "bytecode": "0x61020861003a600b82828239805160001a60731461002d57634e487b7160e01b600052600060045260246000fd5b30600052607381538281f3fe73000000000000000000000000000000000000000030146080604052600436106100355760003560e01c806341304fac1461003a575b600080fd5b61004d6100483660046100d4565b61004f565b005b6100588161005b565b50565b6100588160405160240161006f9190610184565b60408051601f198184030181529190526020810180516001600160e01b031663104c13eb60e21b1790526100588160006a636f6e736f6c652e6c6f679050600080835160208501845afa505050565b634e487b7160e01b600052604160045260246000fd5b6000602082840312156100e657600080fd5b81356001600160401b03808211156100fd57600080fd5b818401915084601f83011261011157600080fd5b813581811115610123576101236100be565b604051601f8201601f19908116603f0116810190838211818310171561014b5761014b6100be565b8160405282815287602084870101111561016457600080fd5b826020860160208301376000928101602001929092525095945050505050565b600060208083528351808285015260005b818110156101b157858101830151858201604001528201610195565b506000604082860101526040601f19601f830116850101925050509291505056fea2646970667358221220d881a5a5b9c7f16def7b3f21d3c8eb1cf11cc950bb7fe181c3a1a214310e531764736f6c63430008120033",
  "libraries": {},
  "devdoc": {
    "details": "Library for console functions",
    "kind": "dev",
    "methods": {},
    "title": "Printer",
    "version": 1
  },
  "userdoc": {
    "kind": "user",
    "methods": {},
    "version": 1
  },
  "storageLayout": {
    "storage": [],
    "types": null
  }
}