{
  "address": "0x03e8f708e9C85EDCEaa6AD7Cd06824CeB82A7E68",
  "abi": [
    {
      "inputs": [
        {
          "internalType": "contract IVotes",
          "name": "token_",
          "type": "address"
        },
        {
          "internalType": "contract TimelockController",
          "name": "timelock_",
          "type": "address"
        },
        {
          "internalType": "string",
          "name": "name_",
          "type": "string"
        },
        {
          "internalType": "string",
          "name": "version_",
          "type": "string"
        },
        {
          "internalType": "uint256",
          "name": "votingDelay_",
          "type": "uint256"
        },
        {
          "internalType": "uint256",
          "name": "votingPeriod_",
          "type": "uint256"
        },
        {
          "internalType": "uint256",
          "name": "proposalThreshold_",
          "type": "uint256"
        },
        {
          "internalType": "uint256",
          "name": "quorumNumeratorValue_",
          "type": "uint256"
        }
      ],
      "stateMutability": "nonpayable",
      "type": "constructor"
    },
    {
      "inputs": [],
      "name": "Empty",
      "type": "error"
    },
    {
      "inputs": [],
      "name": "InvalidShortString",
      "type": "error"
    },
    {
      "inputs": [
        {
          "internalType": "string",
          "name": "str",
          "type": "string"
        }
      ],
      "name": "StringTooLong",
      "type": "error"
    },
    {
      "anonymous": false,
      "inputs": [],
      "name": "EIP712DomainChanged",
      "type": "event"
    },
    {
      "anonymous": false,
      "inputs": [
        {
          "indexed": false,
          "internalType": "uint256",
          "name": "proposalId",
          "type": "uint256"
        }
      ],
      "name": "ProposalCanceled",
      "type": "event"
    },
    {
      "anonymous": false,
      "inputs": [
        {
          "indexed": false,
          "internalType": "uint256",
          "name": "proposalId",
          "type": "uint256"
        },
        {
          "indexed": false,
          "internalType": "address",
          "name": "proposer",
          "type": "address"
        },
        {
          "indexed": false,
          "internalType": "address[]",
          "name": "targets",
          "type": "address[]"
        },
        {
          "indexed": false,
          "internalType": "uint256[]",
          "name": "values",
          "type": "uint256[]"
        },
        {
          "indexed": false,
          "internalType": "string[]",
          "name": "signatures",
          "type": "string[]"
        },
        {
          "indexed": false,
          "internalType": "bytes[]",
          "name": "calldatas",
          "type": "bytes[]"
        },
        {
          "indexed": false,
          "internalType": "uint256",
          "name": "voteStart",
          "type": "uint256"
        },
        {
          "indexed": false,
          "internalType": "uint256",
          "name": "voteEnd",
          "type": "uint256"
        },
        {
          "indexed": false,
          "internalType": "string",
          "name": "description",
          "type": "string"
        }
      ],
      "name": "ProposalCreated",
      "type": "event"
    },
    {
      "anonymous": false,
      "inputs": [
        {
          "indexed": false,
          "internalType": "uint256",
          "name": "proposalId",
          "type": "uint256"
        }
      ],
      "name": "ProposalExecuted",
      "type": "event"
    },
    {
      "anonymous": false,
      "inputs": [
        {
          "indexed": false,
          "internalType": "uint256",
          "name": "proposalId",
          "type": "uint256"
        },
        {
          "indexed": false,
          "internalType": "uint256",
          "name": "eta",
          "type": "uint256"
        }
      ],
      "name": "ProposalQueued",
      "type": "event"
    },
    {
      "anonymous": false,
      "inputs": [
        {
          "indexed": false,
          "internalType": "uint256",
          "name": "oldProposalThreshold",
          "type": "uint256"
        },
        {
          "indexed": false,
          "internalType": "uint256",
          "name": "newProposalThreshold",
          "type": "uint256"
        }
      ],
      "name": "ProposalThresholdSet",
      "type": "event"
    },
    {
      "anonymous": false,
      "inputs": [
        {
          "indexed": false,
          "internalType": "uint256",
          "name": "oldQuorumNumerator",
          "type": "uint256"
        },
        {
          "indexed": false,
          "internalType": "uint256",
          "name": "newQuorumNumerator",
          "type": "uint256"
        }
      ],
      "name": "QuorumNumeratorUpdated",
      "type": "event"
    },
    {
      "anonymous": false,
      "inputs": [
        {
          "indexed": false,
          "internalType": "address",
          "name": "oldTimelock",
          "type": "address"
        },
        {
          "indexed": false,
          "internalType": "address",
          "name": "newTimelock",
          "type": "address"
        }
      ],
      "name": "TimelockChange",
      "type": "event"
    },
    {
      "anonymous": false,
      "inputs": [
        {
          "indexed": true,
          "internalType": "address",
          "name": "voter",
          "type": "address"
        },
        {
          "indexed": false,
          "internalType": "uint256",
          "name": "proposalId",
          "type": "uint256"
        },
        {
          "indexed": false,
          "internalType": "uint8",
          "name": "support",
          "type": "uint8"
        },
        {
          "indexed": false,
          "internalType": "uint256",
          "name": "weight",
          "type": "uint256"
        },
        {
          "indexed": false,
          "internalType": "string",
          "name": "reason",
          "type": "string"
        }
      ],
      "name": "VoteCast",
      "type": "event"
    },
    {
      "anonymous": false,
      "inputs": [
        {
          "indexed": true,
          "internalType": "address",
          "name": "voter",
          "type": "address"
        },
        {
          "indexed": false,
          "internalType": "uint256",
          "name": "proposalId",
          "type": "uint256"
        },
        {
          "indexed": false,
          "internalType": "uint8",
          "name": "support",
          "type": "uint8"
        },
        {
          "indexed": false,
          "internalType": "uint256",
          "name": "weight",
          "type": "uint256"
        },
        {
          "indexed": false,
          "internalType": "string",
          "name": "reason",
          "type": "string"
        },
        {
          "indexed": false,
          "internalType": "bytes",
          "name": "params",
          "type": "bytes"
        }
      ],
      "name": "VoteCastWithParams",
      "type": "event"
    },
    {
      "anonymous": false,
      "inputs": [
        {
          "indexed": false,
          "internalType": "uint256",
          "name": "oldVotingDelay",
          "type": "uint256"
        },
        {
          "indexed": false,
          "internalType": "uint256",
          "name": "newVotingDelay",
          "type": "uint256"
        }
      ],
      "name": "VotingDelaySet",
      "type": "event"
    },
    {
      "anonymous": false,
      "inputs": [
        {
          "indexed": false,
          "internalType": "uint256",
          "name": "oldVotingPeriod",
          "type": "uint256"
        },
        {
          "indexed": false,
          "internalType": "uint256",
          "name": "newVotingPeriod",
          "type": "uint256"
        }
      ],
      "name": "VotingPeriodSet",
      "type": "event"
    },
    {
      "inputs": [],
      "name": "BALLOT_TYPEHASH",
      "outputs": [
        {
          "internalType": "bytes32",
          "name": "",
          "type": "bytes32"
        }
      ],
      "stateMutability": "view",
      "type": "function"
    },
    {
      "inputs": [],
      "name": "CLOCK_MODE",
      "outputs": [
        {
          "internalType": "string",
          "name": "",
          "type": "string"
        }
      ],
      "stateMutability": "view",
      "type": "function"
    },
    {
      "inputs": [],
      "name": "COUNTING_MODE",
      "outputs": [
        {
          "internalType": "string",
          "name": "",
          "type": "string"
        }
      ],
      "stateMutability": "pure",
      "type": "function"
    },
    {
      "inputs": [],
      "name": "EXTENDED_BALLOT_TYPEHASH",
      "outputs": [
        {
          "internalType": "bytes32",
          "name": "",
          "type": "bytes32"
        }
      ],
      "stateMutability": "view",
      "type": "function"
    },
    {
      "inputs": [
        {
          "internalType": "uint256",
          "name": "proposalId",
          "type": "uint256"
        }
      ],
      "name": "cancel",
      "outputs": [],
      "stateMutability": "nonpayable",
      "type": "function"
    },
    {
      "inputs": [
        {
          "internalType": "address[]",
          "name": "targets",
          "type": "address[]"
        },
        {
          "internalType": "uint256[]",
          "name": "values",
          "type": "uint256[]"
        },
        {
          "internalType": "bytes[]",
          "name": "calldatas",
          "type": "bytes[]"
        },
        {
          "internalType": "bytes32",
          "name": "descriptionHash",
          "type": "bytes32"
        }
      ],
      "name": "cancel",
      "outputs": [
        {
          "internalType": "uint256",
          "name": "",
          "type": "uint256"
        }
      ],
      "stateMutability": "nonpayable",
      "type": "function"
    },
    {
      "inputs": [
        {
          "internalType": "uint256",
          "name": "proposalId",
          "type": "uint256"
        },
        {
          "internalType": "uint8",
          "name": "support",
          "type": "uint8"
        }
      ],
      "name": "castVote",
      "outputs": [
        {
          "internalType": "uint256",
          "name": "",
          "type": "uint256"
        }
      ],
      "stateMutability": "nonpayable",
      "type": "function"
    },
    {
      "inputs": [
        {
          "internalType": "uint256",
          "name": "proposalId",
          "type": "uint256"
        },
        {
          "internalType": "uint8",
          "name": "support",
          "type": "uint8"
        },
        {
          "internalType": "uint8",
          "name": "v",
          "type": "uint8"
        },
        {
          "internalType": "bytes32",
          "name": "r",
          "type": "bytes32"
        },
        {
          "internalType": "bytes32",
          "name": "s",
          "type": "bytes32"
        }
      ],
      "name": "castVoteBySig",
      "outputs": [
        {
          "internalType": "uint256",
          "name": "",
          "type": "uint256"
        }
      ],
      "stateMutability": "nonpayable",
      "type": "function"
    },
    {
      "inputs": [
        {
          "internalType": "uint256",
          "name": "proposalId",
          "type": "uint256"
        },
        {
          "internalType": "uint8",
          "name": "support",
          "type": "uint8"
        },
        {
          "internalType": "string",
          "name": "reason",
          "type": "string"
        }
      ],
      "name": "castVoteWithReason",
      "outputs": [
        {
          "internalType": "uint256",
          "name": "",
          "type": "uint256"
        }
      ],
      "stateMutability": "nonpayable",
      "type": "function"
    },
    {
      "inputs": [
        {
          "internalType": "uint256",
          "name": "proposalId",
          "type": "uint256"
        },
        {
          "internalType": "uint8",
          "name": "support",
          "type": "uint8"
        },
        {
          "internalType": "string",
          "name": "reason",
          "type": "string"
        },
        {
          "internalType": "bytes",
          "name": "params",
          "type": "bytes"
        }
      ],
      "name": "castVoteWithReasonAndParams",
      "outputs": [
        {
          "internalType": "uint256",
          "name": "",
          "type": "uint256"
        }
      ],
      "stateMutability": "nonpayable",
      "type": "function"
    },
    {
      "inputs": [
        {
          "internalType": "uint256",
          "name": "proposalId",
          "type": "uint256"
        },
        {
          "internalType": "uint8",
          "name": "support",
          "type": "uint8"
        },
        {
          "internalType": "string",
          "name": "reason",
          "type": "string"
        },
        {
          "internalType": "bytes",
          "name": "params",
          "type": "bytes"
        },
        {
          "internalType": "uint8",
          "name": "v",
          "type": "uint8"
        },
        {
          "internalType": "bytes32",
          "name": "r",
          "type": "bytes32"
        },
        {
          "internalType": "bytes32",
          "name": "s",
          "type": "bytes32"
        }
      ],
      "name": "castVoteWithReasonAndParamsBySig",
      "outputs": [
        {
          "internalType": "uint256",
          "name": "",
          "type": "uint256"
        }
      ],
      "stateMutability": "nonpayable",
      "type": "function"
    },
    {
      "inputs": [],
      "name": "clock",
      "outputs": [
        {
          "internalType": "uint48",
          "name": "",
          "type": "uint48"
        }
      ],
      "stateMutability": "view",
      "type": "function"
    },
    {
      "inputs": [],
      "name": "eip712Domain",
      "outputs": [
        {
          "internalType": "bytes1",
          "name": "fields",
          "type": "bytes1"
        },
        {
          "internalType": "string",
          "name": "name",
          "type": "string"
        },
        {
          "internalType": "string",
          "name": "version",
          "type": "string"
        },
        {
          "internalType": "uint256",
          "name": "chainId",
          "type": "uint256"
        },
        {
          "internalType": "address",
          "name": "verifyingContract",
          "type": "address"
        },
        {
          "internalType": "bytes32",
          "name": "salt",
          "type": "bytes32"
        },
        {
          "internalType": "uint256[]",
          "name": "extensions",
          "type": "uint256[]"
        }
      ],
      "stateMutability": "view",
      "type": "function"
    },
    {
      "inputs": [
        {
          "internalType": "address[]",
          "name": "targets",
          "type": "address[]"
        },
        {
          "internalType": "uint256[]",
          "name": "values",
          "type": "uint256[]"
        },
        {
          "internalType": "bytes[]",
          "name": "calldatas",
          "type": "bytes[]"
        },
        {
          "internalType": "bytes32",
          "name": "descriptionHash",
          "type": "bytes32"
        }
      ],
      "name": "execute",
      "outputs": [
        {
          "internalType": "uint256",
          "name": "",
          "type": "uint256"
        }
      ],
      "stateMutability": "payable",
      "type": "function"
    },
    {
      "inputs": [
        {
          "internalType": "uint256",
          "name": "proposalId",
          "type": "uint256"
        }
      ],
      "name": "execute",
      "outputs": [],
      "stateMutability": "payable",
      "type": "function"
    },
    {
      "inputs": [
        {
          "internalType": "uint256",
          "name": "proposalId",
          "type": "uint256"
        }
      ],
      "name": "getActions",
      "outputs": [
        {
          "internalType": "address[]",
          "name": "targets",
          "type": "address[]"
        },
        {
          "internalType": "uint256[]",
          "name": "values",
          "type": "uint256[]"
        },
        {
          "internalType": "string[]",
          "name": "signatures",
          "type": "string[]"
        },
        {
          "internalType": "bytes[]",
          "name": "calldatas",
          "type": "bytes[]"
        }
      ],
      "stateMutability": "view",
      "type": "function"
    },
    {
      "inputs": [
        {
          "internalType": "uint256",
          "name": "proposalId",
          "type": "uint256"
        },
        {
          "internalType": "address",
          "name": "voter",
          "type": "address"
        }
      ],
      "name": "getReceipt",
      "outputs": [
        {
          "components": [
            {
              "internalType": "bool",
              "name": "hasVoted",
              "type": "bool"
            },
            {
              "internalType": "uint8",
              "name": "support",
              "type": "uint8"
            },
            {
              "internalType": "uint96",
              "name": "votes",
              "type": "uint96"
            }
          ],
          "internalType": "struct IGovernorCompatibilityBravo.Receipt",
          "name": "",
          "type": "tuple"
        }
      ],
      "stateMutability": "view",
      "type": "function"
    },
    {
      "inputs": [
        {
          "internalType": "address",
          "name": "account",
          "type": "address"
        },
        {
          "internalType": "uint256",
          "name": "timepoint",
          "type": "uint256"
        }
      ],
      "name": "getVotes",
      "outputs": [
        {
          "internalType": "uint256",
          "name": "",
          "type": "uint256"
        }
      ],
      "stateMutability": "view",
      "type": "function"
    },
    {
      "inputs": [
        {
          "internalType": "address",
          "name": "account",
          "type": "address"
        },
        {
          "internalType": "uint256",
          "name": "timepoint",
          "type": "uint256"
        },
        {
          "internalType": "bytes",
          "name": "params",
          "type": "bytes"
        }
      ],
      "name": "getVotesWithParams",
      "outputs": [
        {
          "internalType": "uint256",
          "name": "",
          "type": "uint256"
        }
      ],
      "stateMutability": "view",
      "type": "function"
    },
    {
      "inputs": [
        {
          "internalType": "uint256",
          "name": "proposalId",
          "type": "uint256"
        },
        {
          "internalType": "address",
          "name": "account",
          "type": "address"
        }
      ],
      "name": "hasVoted",
      "outputs": [
        {
          "internalType": "bool",
          "name": "",
          "type": "bool"
        }
      ],
      "stateMutability": "view",
      "type": "function"
    },
    {
      "inputs": [
        {
          "internalType": "address[]",
          "name": "targets",
          "type": "address[]"
        },
        {
          "internalType": "uint256[]",
          "name": "values",
          "type": "uint256[]"
        },
        {
          "internalType": "bytes[]",
          "name": "calldatas",
          "type": "bytes[]"
        },
        {
          "internalType": "bytes32",
          "name": "descriptionHash",
          "type": "bytes32"
        }
      ],
      "name": "hashProposal",
      "outputs": [
        {
          "internalType": "uint256",
          "name": "",
          "type": "uint256"
        }
      ],
      "stateMutability": "pure",
      "type": "function"
    },
    {
      "inputs": [],
      "name": "name",
      "outputs": [
        {
          "internalType": "string",
          "name": "",
          "type": "string"
        }
      ],
      "stateMutability": "view",
      "type": "function"
    },
    {
      "inputs": [
        {
          "internalType": "address",
          "name": "",
          "type": "address"
        },
        {
          "internalType": "address",
          "name": "",
          "type": "address"
        },
        {
          "internalType": "uint256[]",
          "name": "",
          "type": "uint256[]"
        },
        {
          "internalType": "uint256[]",
          "name": "",
          "type": "uint256[]"
        },
        {
          "internalType": "bytes",
          "name": "",
          "type": "bytes"
        }
      ],
      "name": "onERC1155BatchReceived",
      "outputs": [
        {
          "internalType": "bytes4",
          "name": "",
          "type": "bytes4"
        }
      ],
      "stateMutability": "nonpayable",
      "type": "function"
    },
    {
      "inputs": [
        {
          "internalType": "address",
          "name": "",
          "type": "address"
        },
        {
          "internalType": "address",
          "name": "",
          "type": "address"
        },
        {
          "internalType": "uint256",
          "name": "",
          "type": "uint256"
        },
        {
          "internalType": "uint256",
          "name": "",
          "type": "uint256"
        },
        {
          "internalType": "bytes",
          "name": "",
          "type": "bytes"
        }
      ],
      "name": "onERC1155Received",
      "outputs": [
        {
          "internalType": "bytes4",
          "name": "",
          "type": "bytes4"
        }
      ],
      "stateMutability": "nonpayable",
      "type": "function"
    },
    {
      "inputs": [
        {
          "internalType": "address",
          "name": "",
          "type": "address"
        },
        {
          "internalType": "address",
          "name": "",
          "type": "address"
        },
        {
          "internalType": "uint256",
          "name": "",
          "type": "uint256"
        },
        {
          "internalType": "bytes",
          "name": "",
          "type": "bytes"
        }
      ],
      "name": "onERC721Received",
      "outputs": [
        {
          "internalType": "bytes4",
          "name": "",
          "type": "bytes4"
        }
      ],
      "stateMutability": "nonpayable",
      "type": "function"
    },
    {
      "inputs": [
        {
          "internalType": "uint256",
          "name": "proposalId",
          "type": "uint256"
        }
      ],
      "name": "proposalDeadline",
      "outputs": [
        {
          "internalType": "uint256",
          "name": "",
          "type": "uint256"
        }
      ],
      "stateMutability": "view",
      "type": "function"
    },
    {
      "inputs": [
        {
          "internalType": "uint256",
          "name": "proposalId",
          "type": "uint256"
        }
      ],
      "name": "proposalEta",
      "outputs": [
        {
          "internalType": "uint256",
          "name": "",
          "type": "uint256"
        }
      ],
      "stateMutability": "view",
      "type": "function"
    },
    {
      "inputs": [
        {
          "internalType": "uint256",
          "name": "proposalId",
          "type": "uint256"
        }
      ],
      "name": "proposalProposer",
      "outputs": [
        {
          "internalType": "address",
          "name": "",
          "type": "address"
        }
      ],
      "stateMutability": "view",
      "type": "function"
    },
    {
      "inputs": [
        {
          "internalType": "uint256",
          "name": "proposalId",
          "type": "uint256"
        }
      ],
      "name": "proposalSnapshot",
      "outputs": [
        {
          "internalType": "uint256",
          "name": "",
          "type": "uint256"
        }
      ],
      "stateMutability": "view",
      "type": "function"
    },
    {
      "inputs": [],
      "name": "proposalThreshold",
      "outputs": [
        {
          "internalType": "uint256",
          "name": "",
          "type": "uint256"
        }
      ],
      "stateMutability": "view",
      "type": "function"
    },
    {
      "inputs": [
        {
          "internalType": "uint256",
          "name": "proposalId",
          "type": "uint256"
        }
      ],
      "name": "proposals",
      "outputs": [
        {
          "internalType": "uint256",
          "name": "id",
          "type": "uint256"
        },
        {
          "internalType": "address",
          "name": "proposer",
          "type": "address"
        },
        {
          "internalType": "uint256",
          "name": "eta",
          "type": "uint256"
        },
        {
          "internalType": "uint256",
          "name": "startBlock",
          "type": "uint256"
        },
        {
          "internalType": "uint256",
          "name": "endBlock",
          "type": "uint256"
        },
        {
          "internalType": "uint256",
          "name": "forVotes",
          "type": "uint256"
        },
        {
          "internalType": "uint256",
          "name": "againstVotes",
          "type": "uint256"
        },
        {
          "internalType": "uint256",
          "name": "abstainVotes",
          "type": "uint256"
        },
        {
          "internalType": "bool",
          "name": "canceled",
          "type": "bool"
        },
        {
          "internalType": "bool",
          "name": "executed",
          "type": "bool"
        }
      ],
      "stateMutability": "view",
      "type": "function"
    },
    {
      "inputs": [
        {
          "internalType": "address[]",
          "name": "targets",
          "type": "address[]"
        },
        {
          "internalType": "uint256[]",
          "name": "values",
          "type": "uint256[]"
        },
        {
          "internalType": "bytes[]",
          "name": "calldatas",
          "type": "bytes[]"
        },
        {
          "internalType": "string",
          "name": "description",
          "type": "string"
        }
      ],
      "name": "propose",
      "outputs": [
        {
          "internalType": "uint256",
          "name": "",
          "type": "uint256"
        }
      ],
      "stateMutability": "nonpayable",
      "type": "function"
    },
    {
      "inputs": [
        {
          "internalType": "address[]",
          "name": "targets",
          "type": "address[]"
        },
        {
          "internalType": "uint256[]",
          "name": "values",
          "type": "uint256[]"
        },
        {
          "internalType": "string[]",
          "name": "signatures",
          "type": "string[]"
        },
        {
          "internalType": "bytes[]",
          "name": "calldatas",
          "type": "bytes[]"
        },
        {
          "internalType": "string",
          "name": "description",
          "type": "string"
        }
      ],
      "name": "propose",
      "outputs": [
        {
          "internalType": "uint256",
          "name": "",
          "type": "uint256"
        }
      ],
      "stateMutability": "nonpayable",
      "type": "function"
    },
    {
      "inputs": [
        {
          "internalType": "address[]",
          "name": "targets",
          "type": "address[]"
        },
        {
          "internalType": "uint256[]",
          "name": "values",
          "type": "uint256[]"
        },
        {
          "internalType": "bytes[]",
          "name": "calldatas",
          "type": "bytes[]"
        },
        {
          "internalType": "bytes32",
          "name": "descriptionHash",
          "type": "bytes32"
        }
      ],
      "name": "queue",
      "outputs": [
        {
          "internalType": "uint256",
          "name": "",
          "type": "uint256"
        }
      ],
      "stateMutability": "nonpayable",
      "type": "function"
    },
    {
      "inputs": [
        {
          "internalType": "uint256",
          "name": "proposalId",
          "type": "uint256"
        }
      ],
      "name": "queue",
      "outputs": [],
      "stateMutability": "nonpayable",
      "type": "function"
    },
    {
      "inputs": [
        {
          "internalType": "uint256",
          "name": "timepoint",
          "type": "uint256"
        }
      ],
      "name": "quorum",
      "outputs": [
        {
          "internalType": "uint256",
          "name": "",
          "type": "uint256"
        }
      ],
      "stateMutability": "view",
      "type": "function"
    },
    {
      "inputs": [],
      "name": "quorumDenominator",
      "outputs": [
        {
          "internalType": "uint256",
          "name": "",
          "type": "uint256"
        }
      ],
      "stateMutability": "view",
      "type": "function"
    },
    {
      "inputs": [
        {
          "internalType": "uint256",
          "name": "timepoint",
          "type": "uint256"
        }
      ],
      "name": "quorumNumerator",
      "outputs": [
        {
          "internalType": "uint256",
          "name": "",
          "type": "uint256"
        }
      ],
      "stateMutability": "view",
      "type": "function"
    },
    {
      "inputs": [],
      "name": "quorumNumerator",
      "outputs": [
        {
          "internalType": "uint256",
          "name": "",
          "type": "uint256"
        }
      ],
      "stateMutability": "view",
      "type": "function"
    },
    {
      "inputs": [],
      "name": "quorumVotes",
      "outputs": [
        {
          "internalType": "uint256",
          "name": "",
          "type": "uint256"
        }
      ],
      "stateMutability": "view",
      "type": "function"
    },
    {
      "inputs": [
        {
          "internalType": "address",
          "name": "target",
          "type": "address"
        },
        {
          "internalType": "uint256",
          "name": "value",
          "type": "uint256"
        },
        {
          "internalType": "bytes",
          "name": "data",
          "type": "bytes"
        }
      ],
      "name": "relay",
      "outputs": [],
      "stateMutability": "payable",
      "type": "function"
    },
    {
      "inputs": [
        {
          "internalType": "uint256",
          "name": "newProposalThreshold",
          "type": "uint256"
        }
      ],
      "name": "setProposalThreshold",
      "outputs": [],
      "stateMutability": "nonpayable",
      "type": "function"
    },
    {
      "inputs": [
        {
          "internalType": "uint256",
          "name": "newVotingDelay",
          "type": "uint256"
        }
      ],
      "name": "setVotingDelay",
      "outputs": [],
      "stateMutability": "nonpayable",
      "type": "function"
    },
    {
      "inputs": [
        {
          "internalType": "uint256",
          "name": "newVotingPeriod",
          "type": "uint256"
        }
      ],
      "name": "setVotingPeriod",
      "outputs": [],
      "stateMutability": "nonpayable",
      "type": "function"
    },
    {
      "inputs": [
        {
          "internalType": "uint256",
          "name": "proposalId",
          "type": "uint256"
        }
      ],
      "name": "state",
      "outputs": [
        {
          "internalType": "enum IGovernor.ProposalState",
          "name": "",
          "type": "uint8"
        }
      ],
      "stateMutability": "view",
      "type": "function"
    },
    {
      "inputs": [
        {
          "internalType": "bytes4",
          "name": "interfaceId",
          "type": "bytes4"
        }
      ],
      "name": "supportsInterface",
      "outputs": [
        {
          "internalType": "bool",
          "name": "",
          "type": "bool"
        }
      ],
      "stateMutability": "view",
      "type": "function"
    },
    {
      "inputs": [],
      "name": "timelock",
      "outputs": [
        {
          "internalType": "address",
          "name": "",
          "type": "address"
        }
      ],
      "stateMutability": "view",
      "type": "function"
    },
    {
      "inputs": [],
      "name": "token",
      "outputs": [
        {
          "internalType": "contract IERC5805",
          "name": "",
          "type": "address"
        }
      ],
      "stateMutability": "view",
      "type": "function"
    },
    {
      "inputs": [
        {
          "internalType": "uint256",
          "name": "newQuorumNumerator",
          "type": "uint256"
        }
      ],
      "name": "updateQuorumNumerator",
      "outputs": [],
      "stateMutability": "nonpayable",
      "type": "function"
    },
    {
      "inputs": [
        {
          "internalType": "contract TimelockController",
          "name": "newTimelock",
          "type": "address"
        }
      ],
      "name": "updateTimelock",
      "outputs": [],
      "stateMutability": "nonpayable",
      "type": "function"
    },
    {
      "inputs": [],
      "name": "version",
      "outputs": [
        {
          "internalType": "string",
          "name": "",
          "type": "string"
        }
      ],
      "stateMutability": "view",
      "type": "function"
    },
    {
      "inputs": [],
      "name": "votingDelay",
      "outputs": [
        {
          "internalType": "uint256",
          "name": "",
          "type": "uint256"
        }
      ],
      "stateMutability": "view",
      "type": "function"
    },
    {
      "inputs": [],
      "name": "votingPeriod",
      "outputs": [
        {
          "internalType": "uint256",
          "name": "",
          "type": "uint256"
        }
      ],
      "stateMutability": "view",
      "type": "function"
    },
    {
      "stateMutability": "payable",
      "type": "receive"
    }
  ],
  "transactionHash": "0xb542697756b3522df8cfcc5b5b701deecc015dfc666d0b166729bf8d0ffdb1f2",
  "args": [
    "0x2A29D3a792000750807cc401806d6fd539928481",
    "0x4bd1cdAab4254fC43ef6424653cA2375b4C94C0E",
    "GMX Governor",
    "v2.0",
    86400,
    432000,
    "30000000000000000000000",
    3
  ],
  "numDeployments": 1,
  "solcInputHash": "1e9fbeb59112023ae22ca79b89d0828b",
  "bytecode": "0x6101806040523480156200001257600080fd5b506040516200631438038062006314833981016040819052620000359162000aae565b8681898686868b80620000476200018d565b620000626000836200022760201b62001d081790919060201c565b610120526200007f81600162000227602090811b62001d0817901c565b61014052815160208084019190912060e052815190820120610100524660a0526200010d60e05161010051604080517f8b73c3c69bb8fe3d512ecc4cf759cc79239f7b179b0ffacaa9a75d522b39400f60208201529081019290925260608201524660808201523060a082015260009060c00160405160208183030381529060405280519060200120905090565b60805250503060c052600262000124828262000bf9565b506200013290508362000277565b6200013d82620002b8565b62000148816200035f565b5050506001600160a01b0316610160526200016381620003a0565b506200016f8162000555565b50600e6200017e868262000bf9565b50505050505050505062000d41565b6060600e80546200019e9062000b6a565b80601f0160208091040260200160405190810160405280929190818152602001828054620001cc9062000b6a565b80156200021d5780601f10620001f1576101008083540402835291602001916200021d565b820191906000526020600020905b815481529060010190602001808311620001ff57829003601f168201915b5050505050905090565b600060208351101562000247576200023f83620005be565b905062000271565b826200025e836200060160201b62001d391760201c565b906200026b908262000bf9565b5060ff90505b92915050565b60065460408051918252602082018390527fc565b045403dc03c2eea82b81a0465edad9e2e7fc4d97e11421c209da93d7a93910160405180910390a1600655565b600081116200031e5760405162461bcd60e51b815260206004820152602760248201527f476f7665726e6f7253657474696e67733a20766f74696e6720706572696f6420604482015266746f6f206c6f7760c81b60648201526084015b60405180910390fd5b60075460408051918252602082018390527f7e3f7f0708a84de9203036abaa450dccc85ad5ff52f78c170f3edb55cf5e8828910160405180910390a1600755565b60085460408051918252602082018390527fccb45da8d5717e6c4544694297c4ba5cf151d455c9bb0ed4fc7a38411bc05461910160405180910390a1600855565b6064811115620004255760405162461bcd60e51b815260206004820152604360248201527f476f7665726e6f72566f74657351756f72756d4672616374696f6e3a2071756f60448201527f72756d4e756d657261746f72206f7665722071756f72756d44656e6f6d696e616064820152623a37b960e91b608482015260a40162000315565b60006200043162000604565b90508015801590620004435750600b54155b15620004be57600b6000016040518060400160405280600063ffffffff1681526020016200047c846200063e60201b62001d3c1760201c565b6001600160e01b0390811690915282546001810184556000938452602093849020835194909301519091166401000000000263ffffffff909316929092179101555b62000516620004e9620004d0620006ad565b65ffffffffffff16620006d960201b62001da91760201c565b620004ff846200063e60201b62001d3c1760201c565b600b6200074060201b62001e0e179092919060201c565b505060408051828152602081018490527f0553476bf02ef2726e8ce5ced78d63e26e602e4a2257b1f559418e24b4633997910160405180910390a15050565b600c54604080516001600160a01b03928316815291831660208301527f08f74ea46ef7894f65eabfb5e6e695de773a000b47c529ab559178069b226401910160405180910390a1600c80546001600160a01b0319166001600160a01b0392909216919091179055565b600080829050601f81511115620005ec578260405163305a27a960e01b815260040162000315919062000cc5565b8051620005f98262000cfa565b179392505050565b90565b600b5460009015620006355762000627600b6200075d60201b62001e291760201c565b6001600160e01b0316905090565b600a545b905090565b60006001600160e01b03821115620006a95760405162461bcd60e51b815260206004820152602760248201527f53616665436173743a2076616c756520646f65736e27742066697420696e20326044820152663234206269747360c81b606482015260840162000315565b5090565b600062000639620006c8620007ab60201b62001e671760201c565b620007af60201b62001e6b1760201c565b600063ffffffff821115620006a95760405162461bcd60e51b815260206004820152602660248201527f53616665436173743a2076616c756520646f65736e27742066697420696e203360448201526532206269747360d01b606482015260840162000315565b6000806200075085858562000818565b915091505b935093915050565b80546000908015620007a15762000789836200077b60018462000d1f565b600091825260209091200190565b5464010000000090046001600160e01b0316620007a4565b60005b9392505050565b4290565b600065ffffffffffff821115620006a95760405162461bcd60e51b815260206004820152602660248201527f53616665436173743a2076616c756520646f65736e27742066697420696e203460448201526538206269747360d01b606482015260840162000315565b8254600090819080156200096d5760006200083a876200077b60018562000d1f565b60408051808201909152905463ffffffff8082168084526401000000009092046001600160e01b031660208401529192509087161015620008be5760405162461bcd60e51b815260206004820152601b60248201527f436865636b706f696e743a2064656372656173696e67206b6579730000000000604482015260640162000315565b805163ffffffff8088169116036200090c5784620008e3886200077b60018662000d1f565b80546001600160e01b03929092166401000000000263ffffffff9092169190911790556200095c565b6040805180820190915263ffffffff80881682526001600160e01b0380881660208085019182528b54600181018d5560008d81529190912094519151909216640100000000029216919091179101555b602001519250839150620007559050565b50506040805180820190915263ffffffff80851682526001600160e01b0380851660208085019182528854600181018a5560008a81529182209551925190931664010000000002919093161792019190915590508162000755565b6001600160a01b0381168114620009de57600080fd5b50565b634e487b7160e01b600052604160045260246000fd5b60005b8381101562000a14578181015183820152602001620009fa565b50506000910152565b600082601f83011262000a2f57600080fd5b81516001600160401b038082111562000a4c5762000a4c620009e1565b604051601f8301601f19908116603f0116810190828211818310171562000a775762000a77620009e1565b8160405283815286602085880101111562000a9157600080fd5b62000aa4846020830160208901620009f7565b9695505050505050565b600080600080600080600080610100898b03121562000acc57600080fd5b885162000ad981620009c8565b60208a015190985062000aec81620009c8565b60408a01519097506001600160401b038082111562000b0a57600080fd5b62000b188c838d0162000a1d565b975060608b015191508082111562000b2f57600080fd5b5062000b3e8b828c0162000a1d565b9550506080890151935060a0890151925060c0890151915060e089015190509295985092959890939650565b600181811c9082168062000b7f57607f821691505b60208210810362000ba057634e487b7160e01b600052602260045260246000fd5b50919050565b601f82111562000bf457600081815260208120601f850160051c8101602086101562000bcf5750805b601f850160051c820191505b8181101562000bf05782815560010162000bdb565b5050505b505050565b81516001600160401b0381111562000c155762000c15620009e1565b62000c2d8162000c26845462000b6a565b8462000ba6565b602080601f83116001811462000c65576000841562000c4c5750858301515b600019600386901b1c1916600185901b17855562000bf0565b600085815260208120601f198616915b8281101562000c965788860151825594840194600190910190840162000c75565b508582101562000cb55787850151600019600388901b60f8161c191681555b5050505050600190811b01905550565b602081526000825180602084015262000ce6816040850160208701620009f7565b601f01601f19169190910160400192915050565b8051602080830151919081101562000ba05760001960209190910360031b1b16919050565b818103818111156200027157634e487b7160e01b600052601160045260246000fd5b60805160a05160c05160e0516101005161012051610140516101605161555f62000db560003960008181610ad601528181611c5e0152612a2801526000611724015260006116fa01526000613139015260006131110152600061306c01526000613096015260006130c0015261555f6000f3fe60806040526004361061025e5760003560e01c8063013cf08b146102ce57806301ffc9a71461034957806302a251a314610379578063034201811461039857806306f3f9e6146103b857806306fdde03146103d8578063143489d0146103fa578063150b7a021461044f578063160cbed71461049357806324bc1a64146104b35780632656227d146104c85780632d63f693146104db5780632fe3e261146104fb578063328dd9821461051d5780633932abb11461054d5780633bccf4fd146105625780633e4f49e61461058257806340e58ee5146105af57806343859632146105cf578063452115d6146106195780634bf5d7e91461063957806354fd4d501461064e57806356781388146106635780635f398a141461068357806360c4247f146106a357806370b0f660146106c35780637b3c71d3146106e35780637d5e81e21461070357806384b0196e1461072357806391ddadf41461074b57806397c3d334146107775780639a802a6d1461078b578063a7713a70146107ab578063a890c910146107c0578063ab58fb8e146107e0578063b58131b014610800578063bc197c8114610815578063c01f9e3714610841578063c28bc2fa14610861578063c59057e414610874578063d33219b414610894578063da95691a146108a9578063dd4e2ba5146108c9578063ddf0b0091461090c578063deaaa7cc1461092c578063e23a9a521461094e578063ea0217cf14610a18578063eb9019d414610a38578063ece40cc114610a58578063f23a6e6114610a78578063f8ce560a14610aa4578063fc0c546a14610ac4578063fe0d94c114610af857600080fd5b366102c9573061026c610b0b565b6001600160a01b0316146102c75760405162461bcd60e51b815260206004820152601f60248201527f476f7665726e6f723a206d7573742073656e6420746f206578656375746f720060448201526064015b60405180910390fd5b005b600080fd5b3480156102da57600080fd5b506102ee6102e936600461438a565b610b1a565b604080519a8b526001600160a01b0390991660208b0152978901969096526060880194909452608087019290925260a086015260c085015260e084015215156101008301521515610120820152610140015b60405180910390f35b34801561035557600080fd5b506103696103643660046143a3565b610bc3565b6040519015158152602001610340565b34801561038557600080fd5b506007545b604051908152602001610340565b3480156103a457600080fd5b5061038a6103b33660046144e0565b610bd4565b3480156103c457600080fd5b506102c76103d336600461438a565b610cba565b3480156103e457600080fd5b506103ed610d44565b60405161034091906145d6565b34801561040657600080fd5b5061043761041536600461438a565b600090815260036020526040902054600160401b90046001600160a01b031690565b6040516001600160a01b039091168152602001610340565b34801561045b57600080fd5b5061047a61046a3660046145fe565b630a85bd0160e11b949350505050565b6040516001600160e01b03199091168152602001610340565b34801561049f57600080fd5b5061038a6104ae3660046147da565b610dd6565b3480156104bf57600080fd5b5061038a610fd4565b61038a6104d63660046147da565b610ffa565b3480156104e757600080fd5b5061038a6104f636600461438a565b6110ec565b34801561050757600080fd5b5061038a60008051602061550a83398151915281565b34801561052957600080fd5b5061053d61053836600461438a565b611107565b6040516103409493929190614932565b34801561055957600080fd5b5060065461038a565b34801561056e57600080fd5b5061038a61057d36600461497f565b611398565b34801561058e57600080fd5b506105a261059d36600461438a565b6113fc565b60405161034091906149e3565b3480156105bb57600080fd5b506102c76105ca36600461438a565b611407565b3480156105db57600080fd5b506103696105ea366004614a0b565b60008281526009602090815260408083206001600160a01b038516845260080190915290205460ff1692915050565b34801561062557600080fd5b5061038a6106343660046147da565b611432565b34801561064557600080fd5b506103ed611449565b34801561065a57600080fd5b506103ed6114d2565b34801561066f57600080fd5b5061038a61067e366004614a3b565b6114e1565b34801561068f57600080fd5b5061038a61069e366004614a67565b61150a565b3480156106af57600080fd5b5061038a6106be36600461438a565b611554565b3480156106cf57600080fd5b506102c76106de36600461438a565b611605565b3480156106ef57600080fd5b5061038a6106fe366004614aea565b61168c565b34801561070f57600080fd5b5061038a61071e366004614b43565b6116de565b34801561072f57600080fd5b506107386116ec565b6040516103409796959493929190614be3565b34801561075757600080fd5b50610760611774565b60405165ffffffffffff9091168152602001610340565b34801561078357600080fd5b50606461038a565b34801561079757600080fd5b5061038a6107a6366004614c45565b61177f565b3480156107b757600080fd5b5061038a611796565b3480156107cc57600080fd5b506102c76107db366004614c9d565b6117c0565b3480156107ec57600080fd5b5061038a6107fb36600461438a565b611847565b34801561080c57600080fd5b5061038a6118e1565b34801561082157600080fd5b5061047a610830366004614cba565b63bc197c8160e01b95945050505050565b34801561084d57600080fd5b5061038a61085c36600461438a565b6118ec565b6102c761086f366004614d4d565b61190a565b34801561088057600080fd5b5061038a61088f3660046147da565b611a19565b3480156108a057600080fd5b50610437611a53565b3480156108b557600080fd5b5061038a6108c4366004614e0f565b611a62565b3480156108d557600080fd5b5060408051808201909152601a815279737570706f72743d627261766f2671756f72756d3d627261766f60301b60208201526103ed565b34801561091857600080fd5b506102c761092736600461438a565b611ae9565b34801561093857600080fd5b5061038a6000805160206154ea83398151915281565b34801561095a57600080fd5b506109e8610969366004614a0b565b60408051606081018252600080825260208201819052918101919091525060009182526009602090815260408084206001600160a01b0393909316845260089092018152918190208151606081018352905460ff8082161515835261010082041693820193909352620100009092046001600160601b03169082015290565b6040805182511515815260208084015160ff1690820152918101516001600160601b031690820152606001610340565b348015610a2457600080fd5b506102c7610a3336600461438a565b611b0c565b348015610a4457600080fd5b5061038a610a53366004614eb0565b611b93565b348015610a6457600080fd5b506102c7610a7336600461438a565b611bb4565b348015610a8457600080fd5b5061047a610a93366004614edc565b63f23a6e6160e01b95945050505050565b348015610ab057600080fd5b5061038a610abf36600461438a565b611c3b565b348015610ad057600080fd5b506104377f000000000000000000000000000000000000000000000000000000000000000081565b6102c7610b0636600461438a565b611ce5565b6000610b15611a53565b905090565b8060008080808080808080610b2e8a611847565b9750610b398b6110ec565b9650610b448b6118ec565b60008c815260096020526040812080546005820154600683015460078401546001600160a01b039093169e50949a509850929650919450610b848d6113fc565b90506002816007811115610b9a57610b9a6149cd565b1493506007816007811115610bb157610bb16149cd565b14925050509193959799509193959799565b6000610bce82611ed2565b92915050565b600080610c66610c5e60008051602061550a8339815191528c8c8c8c604051610bfe929190614f44565b60405180910390208b80519060200120604051602001610c43959493929190948552602085019390935260ff9190911660408401526060830152608082015260a00190565b60405160208183030381529060405280519060200120611ef7565b868686611f24565b9050610cac8a828b8b8b8080601f0160208091040260200160405190810160405280939291908181526020018383808284376000920191909152508d9250611f42915050565b9a9950505050505050505050565b610cc2610b0b565b6001600160a01b0316336001600160a01b031614610cf25760405162461bcd60e51b81526004016102be90614f54565b30610cfb610b0b565b6001600160a01b031614610d385760008036604051610d1b929190614f44565b604051809103902090505b80610d316004612097565b03610d2657505b610d41816120fd565b50565b606060028054610d5390614f86565b80601f0160208091040260200160405190810160405280929190818152602001828054610d7f90614f86565b8015610dcc5780601f10610da157610100808354040283529160200191610dcc565b820191906000526020600020905b815481529060010190602001808311610daf57829003601f168201915b5050505050905090565b600080610de586868686611a19565b90506004610df2826113fc565b6007811115610e0357610e036149cd565b14610e205760405162461bcd60e51b81526004016102be90614fc0565b600c546040805163793d064960e11b815290516000926001600160a01b03169163f27a0c929160048083019260209291908290030181865afa158015610e6a573d6000803e3d6000fd5b505050506040513d601f19601f82011682018060405250810190610e8e9190615001565b600c5460405163b1c5f42760e01b81529192506001600160a01b03169063b1c5f42790610ec8908a908a908a906000908b9060040161501a565b602060405180830381865afa158015610ee5573d6000803e3d6000fd5b505050506040513d601f19601f82011682018060405250810190610f099190615001565b6000838152600d602052604080822092909255600c5491516308f2a0bb60e41b81526001600160a01b0390921691638f2a0bb091610f54918b918b918b91908b908990600401615068565b600060405180830381600087803b158015610f6e57600080fd5b505af1158015610f82573d6000803e3d6000fd5b505050507f9a2e42fd6722813d69113e7d0079d3d940171428df7373df9c7f7617cfda2892828242610fb491906150d6565b604051610fc29291906150e9565b60405180910390a15095945050505050565b6000610b156001610fe3611774565b610fed91906150f7565b65ffffffffffff16611c3b565b60008061100986868686611a19565b90506000611016826113fc565b9050600481600781111561102c5761102c6149cd565b148061104957506005816007811115611047576110476149cd565b145b6110655760405162461bcd60e51b81526004016102be90614fc0565b60008281526003602052604090819020600201805460ff19166001179055517f712ae1383f79ac853f8d882153778e0260ef8f03b504e2866e0593e04d2b291f906110b39084815260200190565b60405180910390a16110c8828888888861226b565b6110d5828888888861230b565b6110e28288888888612318565b5095945050505050565b6000908152600360205260409020546001600160401b031690565b6060806060806000600960008781526020019081526020016000209050806001018160020182600301836004018380548060200260200160405190810160405280929190818152602001828054801561118957602002820191906000526020600020905b81546001600160a01b0316815260019091019060200180831161116b575b50505050509350828054806020026020016040519081016040528092919081815260200182805480156111db57602002820191906000526020600020905b8154815260200190600101908083116111c7575b5050505050925081805480602002602001604051908101604052809291908181526020016000905b828210156112af57838290600052602060002001805461122290614f86565b80601f016020809104026020016040519081016040528092919081815260200182805461124e90614f86565b801561129b5780601f106112705761010080835404028352916020019161129b565b820191906000526020600020905b81548152906001019060200180831161127e57829003601f168201915b505050505081526020019060010190611203565b50505050915080805480602002602001604051908101604052809291908181526020016000905b828210156113825783829060005260206000200180546112f590614f86565b80601f016020809104026020016040519081016040528092919081815260200182805461132190614f86565b801561136e5780601f106113435761010080835404028352916020019161136e565b820191906000526020600020905b81548152906001019060200180831161135157829003601f168201915b5050505050815260200190600101906112d6565b5050505090509450945094509450509193509193565b604080516000805160206154ea833981519152602082015290810186905260ff8516606082015260009081906113d490610c5e90608001610c43565b90506113f187828860405180602001604052806000815250612347565b979650505050505050565b6000610bce8261236a565b600080600080611416856124b4565b935093509350935061142a84848484611432565b505050505050565b600061144085858585612744565b95945050505050565b606042611454611774565b65ffffffffffff16146114a95760405162461bcd60e51b815260206004820152601d60248201527f4552433230566f7465733a2062726f6b656e20636c6f636b206d6f646500000060448201526064016102be565b5060408051808201909152600e81526d06d6f64653d74696d657374616d760941b602082015290565b6060600e8054610d5390614f86565b60008033905061150284828560405180602001604052806000815250612347565b949350505050565b6000803390506113f187828888888080601f0160208091040260200160405190810160405280939291908181526020018383808284376000920191909152508a9250611f42915050565b600b5460009080820361156b575050600a54919050565b6000600b61157a60018461511d565b8154811061158a5761158a615130565b60009182526020918290206040805180820190915291015463ffffffff8116808352600160201b9091046001600160e01b031692820192909252915084106115e057602001516001600160e01b03169392505050565b6115f46115ec85611da9565b600b9061280e565b6001600160e01b0316949350505050565b61160d610b0b565b6001600160a01b0316336001600160a01b03161461163d5760405162461bcd60e51b81526004016102be90614f54565b30611646610b0b565b6001600160a01b0316146116835760008036604051611666929190614f44565b604051809103902090505b8061167c6004612097565b0361167157505b610d41816128b3565b6000803390506116d486828787878080601f01602080910402602001604051908101604052809392919081815260200183838082843760009201919091525061234792505050565b9695505050505050565b6000611440858585856128f3565b60006060808280808361171f7f00000000000000000000000000000000000000000000000000000000000000008361295b565b61174a7f0000000000000000000000000000000000000000000000000000000000000000600161295b565b60408051600080825260208201909252600f60f81b9b939a50919850469750309650945092509050565b6000610b1542611e6b565b600061178c8484846129ff565b90505b9392505050565b600b54600090156117b9576117ab600b611e29565b6001600160e01b0316905090565b50600a5490565b6117c8610b0b565b6001600160a01b0316336001600160a01b0316146117f85760405162461bcd60e51b81526004016102be90614f54565b30611801610b0b565b6001600160a01b03161461183e5760008036604051611821929190614f44565b604051809103902090505b806118376004612097565b0361182c57505b610d4181612a95565b600c546000828152600d602052604080822054905163d45c443560e01b81526004810191909152909182916001600160a01b039091169063d45c443590602401602060405180830381865afa1580156118a4573d6000803e3d6000fd5b505050506040513d601f19601f820116820180604052508101906118c89190615001565b9050806001146118d8578061178f565b60009392505050565b6000610b1560085490565b6000908152600360205260409020600101546001600160401b031690565b611912610b0b565b6001600160a01b0316336001600160a01b0316146119425760405162461bcd60e51b81526004016102be90614f54565b3061194b610b0b565b6001600160a01b031614611988576000803660405161196b929190614f44565b604051809103902090505b806119816004612097565b0361197657505b600080856001600160a01b03168585856040516119a6929190614f44565b60006040518083038185875af1925050503d80600081146119e3576040519150601f19603f3d011682016040523d82523d6000602084013e6119e8565b606091505b5091509150611a1082826040518060600160405280602881526020016154c260289139612afe565b50505050505050565b600084848484604051602001611a329493929190615146565b60408051601f19818403018152919052805160209091012095945050505050565b600c546001600160a01b031690565b60008251845114611ac65760405162461bcd60e51b815260206004820152602860248201527f476f7665726e6f72427261766f3a20696e76616c6964207369676e61747572656044820152670e640d8cadccee8d60c31b60648201526084016102be565b611ad4338787878787612b17565b6116d48686611ae38787612bd6565b856116de565b600080600080611af8856124b4565b935093509350935061142a84848484610dd6565b611b14610b0b565b6001600160a01b0316336001600160a01b031614611b445760405162461bcd60e51b81526004016102be90614f54565b30611b4d610b0b565b6001600160a01b031614611b8a5760008036604051611b6d929190614f44565b604051809103902090505b80611b836004612097565b03611b7857505b610d4181612d08565b600061178f8383611baf60408051602081019091526000815290565b6129ff565b611bbc610b0b565b6001600160a01b0316336001600160a01b031614611bec5760405162461bcd60e51b81526004016102be90614f54565b30611bf5610b0b565b6001600160a01b031614611c325760008036604051611c15929190614f44565b604051809103902090505b80611c2b6004612097565b03611c2057505b610d4181612da8565b60006064611c4883611554565b604051632394e7a360e21b8152600481018590527f00000000000000000000000000000000000000000000000000000000000000006001600160a01b031690638e539e8c90602401602060405180830381865afa158015611cad573d6000803e3d6000fd5b505050506040513d601f19601f82011682018060405250810190611cd19190615001565b611cdb9190615191565b610bce91906151be565b600080600080611cf4856124b4565b935093509350935061142a84848484610ffa565b6000602083511015611d2457611d1d83612de8565b9050610bce565b81611d2f848261522b565b5060ff9050610bce565b90565b60006001600160e01b03821115611da55760405162461bcd60e51b815260206004820152602760248201527f53616665436173743a2076616c756520646f65736e27742066697420696e20326044820152663234206269747360c81b60648201526084016102be565b5090565b600063ffffffff821115611da55760405162461bcd60e51b815260206004820152602660248201527f53616665436173743a2076616c756520646f65736e27742066697420696e203360448201526532206269747360d01b60648201526084016102be565b600080611e1c858585612e26565b915091505b935093915050565b805460009080156118d857611e5183611e4360018461511d565b600091825260209091200190565b54600160201b90046001600160e01b031661178f565b4290565b600065ffffffffffff821115611da55760405162461bcd60e51b815260206004820152602660248201527f53616665436173743a2076616c756520646f65736e27742066697420696e203460448201526538206269747360d01b60648201526084016102be565b60006001600160e01b03198216636e665ced60e01b1480610bce5750610bce82612fc3565b6000610bce611f0461305f565b8360405161190160f01b8152600281019290925260228201526042902090565b6000806000611f358787878761318a565b915091506110e281613244565b60008581526003602052604081206001611f5b886113fc565b6007811115611f6c57611f6c6149cd565b14611fc55760405162461bcd60e51b815260206004820152602360248201527f476f7665726e6f723a20766f7465206e6f742063757272656e746c792061637460448201526269766560e81b60648201526084016102be565b8054600090611fdf9088906001600160401b0316866129ff565b9050611fee8888888488613389565b835160000361204357866001600160a01b03167fb8e138887d0aa13bab447e82de9d5c1777041ecd21ca36ba824ff1e6c07ddda48988848960405161203694939291906152ea565b60405180910390a26113f1565b866001600160a01b03167fe2babfbac5889a709b63bb7f598b324e08bc5a4fb9ec647fb3cbc9ec07eb87128988848989604051612084959493929190615312565b60405180910390a2979650505050505050565b60006120a282613521565b156120c057604051631ed9509560e11b815260040160405180910390fd5b508054600f0b6000818152600180840160205260408220805492905583546001600160801b03191692016001600160801b03169190911790915590565b60648111156121805760405162461bcd60e51b815260206004820152604360248201527f476f7665726e6f72566f74657351756f72756d4672616374696f6e3a2071756f60448201527f72756d4e756d657261746f72206f7665722071756f72756d44656e6f6d696e616064820152623a37b960e91b608482015260a4016102be565b600061218a611796565b9050801580159061219b5750600b54155b156121ff576040805180820190915260008152600b90602081016121be84611d3c565b6001600160e01b039081169091528254600181018455600093845260209384902083519490930151909116600160201b0263ffffffff909316929092179101555b61222c61221a61220d611774565b65ffffffffffff16611da9565b61222384611d3c565b600b9190611e0e565b50507f0553476bf02ef2726e8ce5ced78d63e26e602e4a2257b1f559418e24b4633997818360405161225f9291906150e9565b60405180910390a15050565b30612274610b0b565b6001600160a01b0316146123045760005b845181101561142a57306001600160a01b03168582815181106122aa576122aa615130565b60200260200101516001600160a01b0316036122f4576122f48382815181106122d5576122d5615130565b602002602001015180519060200120600461353690919063ffffffff16565b6122fd81615358565b9050612285565b5050505050565b6123048585858585613572565b30612321610b0b565b6001600160a01b031614612304576123396004613521565b612304576000600455612304565b60006114408585858561236560408051602081019091526000815290565b611f42565b600080612376836135e6565b9050600481600781111561238c5761238c6149cd565b146123975792915050565b6000838152600d6020526040902054806123b2575092915050565b600c54604051632ab0f52960e01b8152600481018390526001600160a01b0390911690632ab0f52990602401602060405180830381865afa1580156123fb573d6000803e3d6000fd5b505050506040513d601f19601f8201168201806040525081019061241f9190615371565b1561242e575060079392505050565b600c54604051632c258a9f60e11b8152600481018390526001600160a01b039091169063584b153e90602401602060405180830381865afa158015612477573d6000803e3d6000fd5b505050506040513d601f19601f8201168201806040525081019061249b9190615371565b156124aa575060059392505050565b5060029392505050565b6060806060600080600960008781526020019081526020016000209050806001018160020161268583600301805480602002602001604051908101604052809291908181526020016000905b828210156125ac57838290600052602060002001805461251f90614f86565b80601f016020809104026020016040519081016040528092919081815260200182805461254b90614f86565b80156125985780601f1061256d57610100808354040283529160200191612598565b820191906000526020600020905b81548152906001019060200180831161257b57829003601f168201915b505050505081526020019060010190612500565b50505060048601805460408051602080840282018101909252828152935060009084015b8282101561267c5783829060005260206000200180546125ef90614f86565b80601f016020809104026020016040519081016040528092919081815260200182805461261b90614f86565b80156126685780601f1061263d57610100808354040283529160200191612668565b820191906000526020600020905b81548152906001019060200180831161264b57829003601f168201915b5050505050815260200190600101906125d0565b50505050612bd6565b60098401548354604080516020808402820181019092528281529186918301828280156126db57602002820191906000526020600020905b81546001600160a01b031681526001909101906020018083116126bd575b505050505093508280548060200260200160405190810160405280929190818152602001828054801561272d57602002820191906000526020600020905b815481526020019060010190808311612719575b505050505092509450945094509450509193509193565b60008061275386868686611a19565b6000818152600960205260409020549091506001600160a01b0316338114806127a6575061277f6118e1565b6127a482600161278d611774565b61279791906150f7565b65ffffffffffff16611b93565b105b6128025760405162461bcd60e51b815260206004820152602760248201527f476f7665726e6f72427261766f3a2070726f706f7365722061626f76652074686044820152661c995cda1bdb1960ca1b60648201526084016102be565b6113f187878787613710565b81546000908181600581111561286b5760006128298461371e565b612833908561511d565b60008881526020902090915081015463ffffffff908116908716101561285b57809150612869565b6128668160016150d6565b92505b505b600061287987878585613806565b905080156128a65761289087611e4360018461511d565b54600160201b90046001600160e01b03166113f1565b6000979650505050505050565b7fc565b045403dc03c2eea82b81a0465edad9e2e7fc4d97e11421c209da93d7a93600654826040516128e69291906150e9565b60405180910390a1600655565b600061294f33868686516001600160401b038111156129145761291461442b565b60405190808252806020026020018201604052801561294757816020015b60608152602001906001900390816129325790505b508787612b17565b6114408585858561385c565b606060ff831461296e57611d1d83613c32565b81805461297a90614f86565b80601f01602080910402602001604051908101604052809291908181526020018280546129a690614f86565b80156129f35780601f106129c8576101008083540402835291602001916129f3565b820191906000526020600020905b8154815290600101906020018083116129d657829003601f168201915b50505050509050610bce565b604051630748d63560e31b81526001600160a01b038481166004830152602482018490526000917f000000000000000000000000000000000000000000000000000000000000000090911690633a46b1a890604401602060405180830381865afa158015612a71573d6000803e3d6000fd5b505050506040513d601f19601f8201168201806040525081019061178c9190615001565b600c54604080516001600160a01b03928316815291831660208301527f08f74ea46ef7894f65eabfb5e6e695de773a000b47c529ab559178069b226401910160405180910390a1600c80546001600160a01b0319166001600160a01b0392909216919091179055565b60608315612b0d57508161178f565b61178f8383613c71565b805160208201206000612b358787612b2f8888612bd6565b85611a19565b60008181526009602081905260409091209081015491925090612bcb5780546001600160a01b0319166001600160a01b038a161781558751612b8090600183019060208b01906141c1565b508651612b9690600283019060208a0190614222565b508551612bac906003830190602089019061425d565b508451612bc290600483019060208801906142af565b50600981018390555b505050505050505050565b6060600082516001600160401b03811115612bf357612bf361442b565b604051908082528060200260200182016040528015612c2657816020015b6060815260200190600190039081612c115790505b50905060005b8151811015612d0057848181518110612c4757612c47615130565b602002602001015151600014612cb757848181518110612c6957612c69615130565b602002602001015180519060200120848281518110612c8a57612c8a615130565b6020026020010151604051602001612ca3929190615393565b604051602081830303815290604052612cd2565b838181518110612cc957612cc9615130565b60200260200101515b828281518110612ce457612ce4615130565b602002602001018190525080612cf990615358565b9050612c2c565b509392505050565b60008111612d685760405162461bcd60e51b815260206004820152602760248201527f476f7665726e6f7253657474696e67733a20766f74696e6720706572696f6420604482015266746f6f206c6f7760c81b60648201526084016102be565b7f7e3f7f0708a84de9203036abaa450dccc85ad5ff52f78c170f3edb55cf5e882860075482604051612d9b9291906150e9565b60405180910390a1600755565b7fccb45da8d5717e6c4544694297c4ba5cf151d455c9bb0ed4fc7a38411bc0546160085482604051612ddb9291906150e9565b60405180910390a1600855565b600080829050601f81511115612e13578260405163305a27a960e01b81526004016102be91906145d6565b8051612e1e826153c4565b179392505050565b825460009081908015612f6a576000612e4487611e4360018561511d565b60408051808201909152905463ffffffff808216808452600160201b9092046001600160e01b031660208401529192509087161015612ec35760405162461bcd60e51b815260206004820152601b60248201527a436865636b706f696e743a2064656372656173696e67206b65797360281b60448201526064016102be565b805163ffffffff808816911603612f0b5784612ee488611e4360018661511d565b80546001600160e01b0392909216600160201b0263ffffffff909216919091179055612f5a565b6040805180820190915263ffffffff80881682526001600160e01b0380881660208085019182528b54600181018d5560008d81529190912094519151909216600160201b029216919091179101555b602001519250839150611e219050565b50506040805180820190915263ffffffff80851682526001600160e01b0380851660208085019182528854600181018a5560008a815291822095519251909316600160201b029190931617920191909155905081611e21565b600063288ace0360e11b6318df743f60e31b63bf26d89760e01b6379dd796f60e01b6001600160e01b0319861682148061300957506001600160e01b0319868116908216145b8061302057506001600160e01b0319868116908516145b8061303b57506001600160e01b03198616630271189760e51b145b806116d457506301ffc9a760e01b6001600160e01b03198716149695505050505050565b6000306001600160a01b037f0000000000000000000000000000000000000000000000000000000000000000161480156130b857507f000000000000000000000000000000000000000000000000000000000000000046145b156130e257507f000000000000000000000000000000000000000000000000000000000000000090565b610b15604080517f8b73c3c69bb8fe3d512ecc4cf759cc79239f7b179b0ffacaa9a75d522b39400f60208201527f0000000000000000000000000000000000000000000000000000000000000000918101919091527f000000000000000000000000000000000000000000000000000000000000000060608201524660808201523060a082015260009060c00160405160208183030381529060405280519060200120905090565b6000806fa2a8918ca85bafe22016d0b997e4df60600160ff1b038311156131b7575060009050600361323b565b6040805160008082526020820180845289905260ff881692820192909252606081018690526080810185905260019060a0016020604051602081039080840390855afa15801561320b573d6000803e3d6000fd5b5050604051601f1901519150506001600160a01b0381166132345760006001925092505061323b565b9150600090505b94509492505050565b6000816004811115613258576132586149cd565b036132605750565b6001816004811115613274576132746149cd565b036132bc5760405162461bcd60e51b815260206004820152601860248201527745434453413a20696e76616c6964207369676e617475726560401b60448201526064016102be565b60028160048111156132d0576132d06149cd565b0361331d5760405162461bcd60e51b815260206004820152601f60248201527f45434453413a20696e76616c6964207369676e6174757265206c656e6774680060448201526064016102be565b6003816004811115613331576133316149cd565b03610d415760405162461bcd60e51b815260206004820152602260248201527f45434453413a20696e76616c6964207369676e6174757265202773272076616c604482015261756560f01b60648201526084016102be565b60008581526009602090815260408083206001600160a01b038816845260088101909252909120805460ff16156134185760405162461bcd60e51b815260206004820152602d60248201527f476f7665726e6f72436f6d7061746962696c697479427261766f3a20766f746560448201526c08185b1c9958591e4818d85cdd609a1b60648201526084016102be565b805460ff86166101000261ffff1990911617600117815561343884613c9b565b81546001600160601b0391909116620100000262010000600160701b031990911617815560ff8516613483578382600601600082825461347891906150d6565b90915550611a109050565b60001960ff8616016134a3578382600501600082825461347891906150d6565b60011960ff8616016134c3578382600701600082825461347891906150d6565b60405162461bcd60e51b815260206004820152602d60248201527f476f7665726e6f72436f6d7061746962696c697479427261766f3a20696e766160448201526c6c696420766f7465207479706560981b60648201526084016102be565b54600f81810b600160801b909204900b131590565b8154600160801b90819004600f0b6000818152600180860160205260409091209390935583546001600160801b03908116939091011602179055565b600c5460405163e38335e560e01b81526001600160a01b039091169063e38335e59034906135ad90889088908890600090899060040161501a565b6000604051808303818588803b1580156135c657600080fd5b505af11580156135da573d6000803e3d6000fd5b50505050505050505050565b6000818152600360205260408120600281015460ff161561360a5750600792915050565b6002810154610100900460ff16156136255750600292915050565b6000613630846110ec565b9050806000036136825760405162461bcd60e51b815260206004820152601d60248201527f476f7665726e6f723a20756e6b6e6f776e2070726f706f73616c20696400000060448201526064016102be565b600061368c611774565b65ffffffffffff1690508082106136a857506000949350505050565b60006136b3866118ec565b90508181106136c85750600195945050505050565b6136d186613d03565b80156136f3575060008681526009602052604090206006810154600590910154115b156137045750600495945050505050565b50600395945050505050565b600061144085858585613d2b565b60008160000361373057506000919050565b6000600161373d84613ddd565b901c6001901b90506001818481613756576137566151a8565b048201901c9050600181848161376e5761376e6151a8565b048201901c90506001818481613786576137866151a8565b048201901c9050600181848161379e5761379e6151a8565b048201901c905060018184816137b6576137b66151a8565b048201901c905060018184816137ce576137ce6151a8565b048201901c905060018184816137e6576137e66151a8565b048201901c905061178f81828581613800576138006151a8565b04613e71565b60005b81831015612d0057600061381d8484613e87565b60008781526020902090915063ffffffff86169082015463ffffffff16111561384857809250613856565b6138538160016150d6565b93505b50613809565b6000336138698184613ea2565b6138b55760405162461bcd60e51b815260206004820152601d60248201527f476f7665726e6f723a2070726f706f736572207265737472696374656400000060448201526064016102be565b60006138bf611774565b65ffffffffffff1690506138d16118e1565b6138e083610a5360018561511d565b10156139485760405162461bcd60e51b815260206004820152603160248201527f476f7665726e6f723a2070726f706f73657220766f7465732062656c6f7720706044820152701c9bdc1bdcd85b081d1a1c995cda1bdb19607a1b60648201526084016102be565b600061395d8888888880519060200120611a19565b905086518851146139805760405162461bcd60e51b81526004016102be906153e8565b85518851146139a15760405162461bcd60e51b81526004016102be906153e8565b60008851116139ed5760405162461bcd60e51b815260206004820152601860248201527711dbdd995c9b9bdc8e88195b5c1d1e481c1c9bdc1bdcd85b60421b60448201526064016102be565b6000818152600360205260409020546001600160401b031615613a5c5760405162461bcd60e51b815260206004820152602160248201527f476f7665726e6f723a2070726f706f73616c20616c72656164792065786973746044820152607360f81b60648201526084016102be565b6000613a6760065490565b613a7190846150d6565b90506000613a7e60075490565b613a8890836150d6565b90506040518060e00160405280613a9e84613f93565b6001600160401b031681526001600160a01b038716602082015260006040820152606001613acb83613f93565b6001600160401b039081168252600060208084018290526040808501839052606094850183905288835260038252918290208551815492870151878501519186166001600160e01b031990941693909317600160401b6001600160a01b039094168402176001600160e01b0316600160e01b60e09290921c91909102178155938501516080860151908416921c0217600183015560a08301516002909201805460c09094015161ffff1990941692151561ff00191692909217610100931515939093029290921790558a517f7d84a6263ae0d98d3329bd7b46bb4e8d6f98cd35a7adb45c274c8b7fd5ebd5e091859188918e918e91811115613bcf57613bcf61442b565b604051908082528060200260200182016040528015613c0257816020015b6060815260200190600190039081613bed5790505b508d88888f604051613c1c99989796959493929190615429565b60405180910390a1509098975050505050505050565b60606000613c3f83613ffb565b604080516020808252818301909252919250600091906020820181803683375050509182525060208101929092525090565b815115613c815781518083602001fd5b8060405162461bcd60e51b81526004016102be91906145d6565b60006001600160601b03821115611da55760405162461bcd60e51b815260206004820152602660248201527f53616665436173743a2076616c756520646f65736e27742066697420696e203960448201526536206269747360d01b60648201526084016102be565b60008181526009602052604081206005810154613d22610abf856110ec565b11159392505050565b600080613d3a86868686614023565b6000818152600d60205260409020549091501561144057600c546000828152600d60205260409081902054905163c4d252f560e01b81526001600160a01b039092169163c4d252f591613d939160040190815260200190565b600060405180830381600087803b158015613dad57600080fd5b505af1158015613dc1573d6000803e3d6000fd5b5050506000828152600d60205260408120555095945050505050565b600080608083901c15613df257608092831c92015b604083901c15613e0457604092831c92015b602083901c15613e1657602092831c92015b601083901c15613e2857601092831c92015b600883901c15613e3a57600892831c92015b600483901c15613e4c57600492831c92015b600283901c15613e5e57600292831c92015b600183901c15610bce5760010192915050565b6000818310613e80578161178f565b5090919050565b6000613e9660028484186151be565b61178f908484166150d6565b80516000906034811015613eba576001915050610bce565b82810160131901516001600160a01b031981166b046e0e4dee0dee6cae47a60f60a31b14613eed57600192505050610bce565b600080613efb60288561511d565b90505b83811015613f7257600080613f32888481518110613f1e57613f1e615130565b01602001516001600160f81b03191661412f565b9150915081613f4a5760019650505050505050610bce565b8060ff166004856001600160a01b0316901b179350505080613f6b90615358565b9050613efe565b50856001600160a01b0316816001600160a01b031614935050505092915050565b60006001600160401b03821115611da55760405162461bcd60e51b815260206004820152602660248201527f53616665436173743a2076616c756520646f65736e27742066697420696e203660448201526534206269747360d01b60648201526084016102be565b600060ff8216601f811115610bce57604051632cd44ac360e21b815260040160405180910390fd5b60008061403286868686611a19565b9050600061403f826113fc565b90506002816007811115614055576140556149cd565b1415801561407557506006816007811115614072576140726149cd565b14155b801561409357506007816007811115614090576140906149cd565b14155b6140df5760405162461bcd60e51b815260206004820152601d60248201527f476f7665726e6f723a2070726f706f73616c206e6f742061637469766500000060448201526064016102be565b60008281526003602052604090819020600201805461ff001916610100179055517f789cf55be980739dad1d0699b93b58e806b51c9d96619bfa8fe0a28abaa7b30c90610fc29084815260200190565b60008060f883901c602f8111801561414a5750603a8160ff16105b1561415f57600194602f199091019350915050565b8060ff166040108015614175575060478160ff16105b1561418a576001946036199091019350915050565b8060ff1660601080156141a0575060678160ff16105b156141b5576001946056199091019350915050565b50600093849350915050565b828054828255906000526020600020908101928215614216579160200282015b8281111561421657825182546001600160a01b0319166001600160a01b039091161782556020909201916001909101906141e1565b50611da5929150614301565b828054828255906000526020600020908101928215614216579160200282015b82811115614216578251825591602001919060010190614242565b8280548282559060005260206000209081019282156142a3579160200282015b828111156142a35782518290614293908261522b565b509160200191906001019061427d565b50611da5929150614316565b8280548282559060005260206000209081019282156142f5579160200282015b828111156142f557825182906142e5908261522b565b50916020019190600101906142cf565b50611da5929150614333565b5b80821115611da55760008155600101614302565b80821115611da557600061432a8282614350565b50600101614316565b80821115611da55760006143478282614350565b50600101614333565b50805461435c90614f86565b6000825580601f1061436c575050565b601f016020900490600052602060002090810190610d419190614301565b60006020828403121561439c57600080fd5b5035919050565b6000602082840312156143b557600080fd5b81356001600160e01b03198116811461178f57600080fd5b803560ff811681146143de57600080fd5b919050565b60008083601f8401126143f557600080fd5b5081356001600160401b0381111561440c57600080fd5b60208301915083602082850101111561442457600080fd5b9250929050565b634e487b7160e01b600052604160045260246000fd5b604051601f8201601f191681016001600160401b03811182821017156144695761446961442b565b604052919050565b600082601f83011261448257600080fd5b81356001600160401b0381111561449b5761449b61442b565b6144ae601f8201601f1916602001614441565b8181528460208386010111156144c357600080fd5b816020850160208301376000918101602001919091529392505050565b60008060008060008060008060e0898b0312156144fc57600080fd5b8835975061450c60208a016143cd565b965060408901356001600160401b038082111561452857600080fd5b6145348c838d016143e3565b909850965060608b013591508082111561454d57600080fd5b5061455a8b828c01614471565b94505061456960808a016143cd565b925060a0890135915060c089013590509295985092959890939650565b60005b838110156145a1578181015183820152602001614589565b50506000910152565b600081518084526145c2816020860160208601614586565b601f01601f19169290920160200192915050565b60208152600061178f60208301846145aa565b6001600160a01b0381168114610d4157600080fd5b6000806000806080858703121561461457600080fd5b843561461f816145e9565b9350602085013561462f816145e9565b92506040850135915060608501356001600160401b0381111561465157600080fd5b61465d87828801614471565b91505092959194509250565b60006001600160401b038211156146825761468261442b565b5060051b60200190565b600082601f83011261469d57600080fd5b813560206146b26146ad83614669565b614441565b82815260059290921b840181019181810190868411156146d157600080fd5b8286015b848110156146f55780356146e8816145e9565b83529183019183016146d5565b509695505050505050565b600082601f83011261471157600080fd5b813560206147216146ad83614669565b82815260059290921b8401810191818101908684111561474057600080fd5b8286015b848110156146f55780358352918301918301614744565b600082601f83011261476c57600080fd5b8135602061477c6146ad83614669565b82815260059290921b8401810191818101908684111561479b57600080fd5b8286015b848110156146f55780356001600160401b038111156147be5760008081fd5b6147cc8986838b0101614471565b84525091830191830161479f565b600080600080608085870312156147f057600080fd5b84356001600160401b038082111561480757600080fd5b6148138883890161468c565b9550602087013591508082111561482957600080fd5b61483588838901614700565b9450604087013591508082111561484b57600080fd5b506148588782880161475b565b949793965093946060013593505050565b600081518084526020808501945080840160005b838110156148a25781516001600160a01b03168752958201959082019060010161487d565b509495945050505050565b600081518084526020808501945080840160005b838110156148a2578151875295820195908201906001016148c1565b600081518084526020808501808196508360051b8101915082860160005b858110156149255782840389526149138483516145aa565b988501989350908401906001016148fb565b5091979650505050505050565b6080815260006149456080830187614869565b828103602084015261495781876148ad565b9050828103604084015261496b81866148dd565b905082810360608401526113f181856148dd565b600080600080600060a0868803121561499757600080fd5b853594506149a7602087016143cd565b93506149b5604087016143cd565b94979396509394606081013594506080013592915050565b634e487b7160e01b600052602160045260246000fd5b6020810160088310614a0557634e487b7160e01b600052602160045260246000fd5b91905290565b60008060408385031215614a1e57600080fd5b823591506020830135614a30816145e9565b809150509250929050565b60008060408385031215614a4e57600080fd5b82359150614a5e602084016143cd565b90509250929050565b600080600080600060808688031215614a7f57600080fd5b85359450614a8f602087016143cd565b935060408601356001600160401b0380821115614aab57600080fd5b614ab789838a016143e3565b90955093506060880135915080821115614ad057600080fd5b50614add88828901614471565b9150509295509295909350565b60008060008060608587031215614b0057600080fd5b84359350614b10602086016143cd565b925060408501356001600160401b03811115614b2b57600080fd5b614b37878288016143e3565b95989497509550505050565b60008060008060808587031215614b5957600080fd5b84356001600160401b0380821115614b7057600080fd5b614b7c8883890161468c565b95506020870135915080821115614b9257600080fd5b614b9e88838901614700565b94506040870135915080821115614bb457600080fd5b614bc08883890161475b565b93506060870135915080821115614bd657600080fd5b5061465d87828801614471565b60ff60f81b8816815260e060208201526000614c0260e08301896145aa565b8281036040840152614c1481896145aa565b606084018890526001600160a01b038716608085015260a0840186905283810360c08501529050610cac81856148ad565b600080600060608486031215614c5a57600080fd5b8335614c65816145e9565b92506020840135915060408401356001600160401b03811115614c8757600080fd5b614c9386828701614471565b9150509250925092565b600060208284031215614caf57600080fd5b813561178f816145e9565b600080600080600060a08688031215614cd257600080fd5b8535614cdd816145e9565b94506020860135614ced816145e9565b935060408601356001600160401b0380821115614d0957600080fd5b614d1589838a01614700565b94506060880135915080821115614d2b57600080fd5b614d3789838a01614700565b93506080880135915080821115614ad057600080fd5b60008060008060608587031215614d6357600080fd5b8435614d6e816145e9565b93506020850135925060408501356001600160401b03811115614b2b57600080fd5b600082601f830112614da157600080fd5b81356020614db16146ad83614669565b82815260059290921b84018101918181019086841115614dd057600080fd5b8286015b848110156146f55780356001600160401b03811115614df35760008081fd5b614e018986838b0101614471565b845250918301918301614dd4565b600080600080600060a08688031215614e2757600080fd5b85356001600160401b0380821115614e3e57600080fd5b614e4a89838a0161468c565b96506020880135915080821115614e6057600080fd5b614e6c89838a01614700565b95506040880135915080821115614e8257600080fd5b614e8e89838a01614d90565b94506060880135915080821115614ea457600080fd5b614d3789838a0161475b565b60008060408385031215614ec357600080fd5b8235614ece816145e9565b946020939093013593505050565b600080600080600060a08688031215614ef457600080fd5b8535614eff816145e9565b94506020860135614f0f816145e9565b9350604086013592506060860135915060808601356001600160401b03811115614f3857600080fd5b614add88828901614471565b8183823760009101908152919050565b602080825260189082015277476f7665726e6f723a206f6e6c79476f7665726e616e636560401b604082015260600190565b600181811c90821680614f9a57607f821691505b602082108103614fba57634e487b7160e01b600052602260045260246000fd5b50919050565b60208082526021908201527f476f7665726e6f723a2070726f706f73616c206e6f74207375636365737366756040820152601b60fa1b606082015260800190565b60006020828403121561501357600080fd5b5051919050565b60a08152600061502d60a0830188614869565b828103602084015261503f81886148ad565b9050828103604084015261505381876148dd565b60608401959095525050608001529392505050565b60c08152600061507b60c0830189614869565b828103602084015261508d81896148ad565b905082810360408401526150a181886148dd565b60608401969096525050608081019290925260a0909101529392505050565b634e487b7160e01b600052601160045260246000fd5b80820180821115610bce57610bce6150c0565b918252602082015260400190565b65ffffffffffff828116828216039080821115615116576151166150c0565b5092915050565b81810381811115610bce57610bce6150c0565b634e487b7160e01b600052603260045260246000fd5b6080815260006151596080830187614869565b828103602084015261516b81876148ad565b9050828103604084015261517f81866148dd565b91505082606083015295945050505050565b8082028115828204841417610bce57610bce6150c0565b634e487b7160e01b600052601260045260246000fd5b6000826151db57634e487b7160e01b600052601260045260246000fd5b500490565b601f82111561522657600081815260208120601f850160051c810160208610156152075750805b601f850160051c820191505b8181101561142a57828155600101615213565b505050565b81516001600160401b038111156152445761524461442b565b615258816152528454614f86565b846151e0565b602080601f83116001811461528d57600084156152755750858301515b600019600386901b1c1916600185901b17855561142a565b600085815260208120601f198616915b828110156152bc5788860151825594840194600190910190840161529d565b50858210156152da5787850151600019600388901b60f8161c191681555b5050505050600190811b01905550565b84815260ff841660208201528260408201526080606082015260006116d460808301846145aa565b85815260ff8516602082015283604082015260a06060820152600061533a60a08301856145aa565b828103608084015261534c81856145aa565b98975050505050505050565b60006001820161536a5761536a6150c0565b5060010190565b60006020828403121561538357600080fd5b8151801515811461178f57600080fd5b6001600160e01b03198316815281516000906153b6816004850160208701614586565b919091016004019392505050565b80516020808301519190811015614fba5760001960209190910360031b1b16919050565b60208082526021908201527f476f7665726e6f723a20696e76616c69642070726f706f73616c206c656e67746040820152600d60fb1b606082015260800190565b8981526001600160a01b0389166020820152610120604082018190526000906154548382018b614869565b90508281036060840152615468818a6148ad565b9050828103608084015261547c81896148dd565b905082810360a084015261549081886148dd565b90508560c08401528460e08401528281036101008401526154b181856145aa565b9c9b50505050505050505050505056fe476f7665726e6f723a2072656c617920726576657274656420776974686f7574206d657373616765150214d74d59b7d1e90c73fc22ef3d991dd0a76b046543d4d80ab92d2a50328fb3b3f3b703cd84ce352197dcff232b1b5d3cfb2025ce47cf04742d0651f1af88a2646970667358221220a10eada66e2952b108f943d961d1d52baf4723472adda1ebe75169a812c9a71364736f6c63430008120033",
  "libraries": {},
  "devdoc": {
    "errors": {
      "Empty()": [
        {
          "details": "An operation (e.g. {front}) couldn't be completed due to the queue being empty."
        }
      ]
    },
    "events": {
      "EIP712DomainChanged()": {
        "details": "MAY be emitted to signal that the domain could have changed."
      },
      "ProposalCanceled(uint256)": {
        "details": "Emitted when a proposal is canceled."
      },
      "ProposalCreated(uint256,address,address[],uint256[],string[],bytes[],uint256,uint256,string)": {
        "details": "Emitted when a proposal is created."
      },
      "ProposalExecuted(uint256)": {
        "details": "Emitted when a proposal is executed."
      },
      "TimelockChange(address,address)": {
        "details": "Emitted when the timelock controller used for proposal execution is modified."
      },
      "VoteCast(address,uint256,uint8,uint256,string)": {
        "details": "Emitted when a vote is cast without params. Note: `support` values should be seen as buckets. Their interpretation depends on the voting module used."
      },
      "VoteCastWithParams(address,uint256,uint8,uint256,string,bytes)": {
        "details": "Emitted when a vote is cast with params. Note: `support` values should be seen as buckets. Their interpretation depends on the voting module used. `params` are additional encoded parameters. Their interpepretation also depends on the voting module used."
      }
    },
    "kind": "dev",
    "methods": {
      "COUNTING_MODE()": {
        "details": "A description of the possible `support` values for {castVote} and the way these votes are counted, meant to be consumed by UIs to show correct vote options and interpret the results. The string is a URL-encoded sequence of key-value pairs that each describe one aspect, for example `support=bravo&quorum=for,abstain`. There are 2 standard keys: `support` and `quorum`. - `support=bravo` refers to the vote options 0 = Against, 1 = For, 2 = Abstain, as in `GovernorBravo`. - `quorum=bravo` means that only For votes are counted towards quorum. - `quorum=for,abstain` means that both For and Abstain votes are counted towards quorum. If a counting module makes use of encoded `params`, it should  include this under a `params` key with a unique name that describes the behavior. For example: - `params=fractional` might refer to a scheme where votes are divided fractionally between for/against/abstain. - `params=erc721` might refer to a scheme where specific NFTs are delegated to vote. NOTE: The string can be decoded by the standard https://developer.mozilla.org/en-US/docs/Web/API/URLSearchParams[`URLSearchParams`] JavaScript class."
      },
      "cancel(uint256)": {
        "details": "Cancel a proposal with GovernorBravo logic."
      },
      "castVote(uint256,uint8)": {
        "details": "See {IGovernor-castVote}."
      },
      "castVoteBySig(uint256,uint8,uint8,bytes32,bytes32)": {
        "details": "See {IGovernor-castVoteBySig}."
      },
      "castVoteWithReason(uint256,uint8,string)": {
        "details": "See {IGovernor-castVoteWithReason}."
      },
      "castVoteWithReasonAndParams(uint256,uint8,string,bytes)": {
        "details": "See {IGovernor-castVoteWithReasonAndParams}."
      },
      "castVoteWithReasonAndParamsBySig(uint256,uint8,string,bytes,uint8,bytes32,bytes32)": {
        "details": "See {IGovernor-castVoteWithReasonAndParamsBySig}."
      },
      "eip712Domain()": {
        "details": "See {EIP-5267}. _Available since v4.9._"
      },
      "execute(address[],uint256[],bytes[],bytes32)": {
        "details": "See {IGovernor-execute}."
      },
      "execute(uint256)": {
        "details": "See {IGovernorCompatibilityBravo-execute}."
      },
      "getActions(uint256)": {
        "details": "See {IGovernorCompatibilityBravo-getActions}."
      },
      "getReceipt(uint256,address)": {
        "details": "See {IGovernorCompatibilityBravo-getReceipt}."
      },
      "getVotes(address,uint256)": {
        "details": "See {IGovernor-getVotes}."
      },
      "getVotesWithParams(address,uint256,bytes)": {
        "details": "See {IGovernor-getVotesWithParams}."
      },
      "hasVoted(uint256,address)": {
        "details": "See {IGovernor-hasVoted}."
      },
      "hashProposal(address[],uint256[],bytes[],bytes32)": {
        "details": "See {IGovernor-hashProposal}. The proposal id is produced by hashing the ABI encoded `targets` array, the `values` array, the `calldatas` array and the descriptionHash (bytes32 which itself is the keccak256 hash of the description string). This proposal id can be produced from the proposal data which is part of the {ProposalCreated} event. It can even be computed in advance, before the proposal is submitted. Note that the chainId and the governor address are not part of the proposal id computation. Consequently, the same proposal (with same operation and same description) will have the same id if submitted on multiple governors across multiple networks. This also means that in order to execute the same operation twice (on the same governor) the proposer will have to change the description in order to avoid proposal id conflicts."
      },
      "name()": {
        "details": "See {IGovernor-name}."
      },
      "onERC1155BatchReceived(address,address,uint256[],uint256[],bytes)": {
        "details": "See {IERC1155Receiver-onERC1155BatchReceived}."
      },
      "onERC1155Received(address,address,uint256,uint256,bytes)": {
        "details": "See {IERC1155Receiver-onERC1155Received}."
      },
      "onERC721Received(address,address,uint256,bytes)": {
        "details": "See {IERC721Receiver-onERC721Received}."
      },
      "proposalDeadline(uint256)": {
        "details": "See {IGovernor-proposalDeadline}."
      },
      "proposalEta(uint256)": {
        "details": "Public accessor to check the eta of a queued proposal"
      },
      "proposalProposer(uint256)": {
        "details": "Returns the account that created a given proposal."
      },
      "proposalSnapshot(uint256)": {
        "details": "See {IGovernor-proposalSnapshot}."
      },
      "proposals(uint256)": {
        "details": "See {IGovernorCompatibilityBravo-proposals}."
      },
      "propose(address[],uint256[],string[],bytes[],string)": {
        "details": "See {IGovernorCompatibilityBravo-propose}."
      },
      "queue(address[],uint256[],bytes[],bytes32)": {
        "details": "Function to queue a proposal to the timelock."
      },
      "queue(uint256)": {
        "details": "See {IGovernorCompatibilityBravo-queue}."
      },
      "quorum(uint256)": {
        "details": "Returns the quorum for a timepoint, in terms of number of votes: `supply * numerator / denominator`."
      },
      "quorumDenominator()": {
        "details": "Returns the quorum denominator. Defaults to 100, but may be overridden."
      },
      "quorumNumerator()": {
        "details": "Returns the current quorum numerator. See {quorumDenominator}."
      },
      "quorumNumerator(uint256)": {
        "details": "Returns the quorum numerator at a specific timepoint. See {quorumDenominator}."
      },
      "quorumVotes()": {
        "details": "See {IGovernorCompatibilityBravo-quorumVotes}."
      },
      "relay(address,uint256,bytes)": {
        "details": "Relays a transaction or function call to an arbitrary target. In cases where the governance executor is some contract other than the governor itself, like when using a timelock, this function can be invoked in a governance proposal to recover tokens or Ether that was sent to the governor contract by mistake. Note that if the executor is simply the governor itself, use of `relay` is redundant."
      },
      "setProposalThreshold(uint256)": {
        "details": "Update the proposal threshold. This operation can only be performed through a governance proposal. Emits a {ProposalThresholdSet} event."
      },
      "setVotingDelay(uint256)": {
        "details": "Update the voting delay. This operation can only be performed through a governance proposal. Emits a {VotingDelaySet} event."
      },
      "setVotingPeriod(uint256)": {
        "details": "Update the voting period. This operation can only be performed through a governance proposal. Emits a {VotingPeriodSet} event."
      },
      "timelock()": {
        "details": "Public accessor to check the address of the timelock"
      },
      "updateQuorumNumerator(uint256)": {
        "details": "Changes the quorum numerator. Emits a {QuorumNumeratorUpdated} event. Requirements: - Must be called through a governance proposal. - New numerator must be smaller or equal to the denominator."
      },
      "updateTimelock(address)": {
        "details": "Public endpoint to update the underlying timelock instance. Restricted to the timelock itself, so updates must be proposed, scheduled, and executed through governance proposals. CAUTION: It is not recommended to change the timelock while there are other queued governance proposals."
      },
      "votingDelay()": {
        "details": "See {IGovernor-votingDelay}."
      },
      "votingPeriod()": {
        "details": "See {IGovernor-votingPeriod}."
      }
    },
    "version": 1
  },
  "userdoc": {
    "kind": "user",
    "methods": {
      "COUNTING_MODE()": {
        "notice": "module:voting"
      }
    },
    "version": 1
  },
  "storageLayout": {
    "storage": [
      {
        "astId": 10368,
        "contract": "contracts/gov/ProtocolGovernor.sol:ProtocolGovernor",
        "label": "_nameFallback",
        "offset": 0,
        "slot": "0",
        "type": "t_string_storage"
      },
      {
        "astId": 10370,
        "contract": "contracts/gov/ProtocolGovernor.sol:ProtocolGovernor",
        "label": "_versionFallback",
        "offset": 0,
        "slot": "1",
        "type": "t_string_storage"
      },
      {
        "astId": 444,
        "contract": "contracts/gov/ProtocolGovernor.sol:ProtocolGovernor",
        "label": "_name",
        "offset": 0,
        "slot": "2",
        "type": "t_string_storage"
      },
      {
        "astId": 450,
        "contract": "contracts/gov/ProtocolGovernor.sol:ProtocolGovernor",
        "label": "_proposals",
        "offset": 0,
        "slot": "3",
        "type": "t_mapping(t_uint256,t_struct(ProposalCore)442_storage)"
      },
      {
        "astId": 453,
        "contract": "contracts/gov/ProtocolGovernor.sol:ProtocolGovernor",
        "label": "_governanceCall",
        "offset": 0,
        "slot": "4",
        "type": "t_struct(Bytes32Deque)13418_storage"
      },
      {
        "astId": 4285,
        "contract": "contracts/gov/ProtocolGovernor.sol:ProtocolGovernor",
        "label": "_votingDelay",
        "offset": 0,
        "slot": "6",
        "type": "t_uint256"
      },
      {
        "astId": 4287,
        "contract": "contracts/gov/ProtocolGovernor.sol:ProtocolGovernor",
        "label": "_votingPeriod",
        "offset": 0,
        "slot": "7",
        "type": "t_uint256"
      },
      {
        "astId": 4289,
        "contract": "contracts/gov/ProtocolGovernor.sol:ProtocolGovernor",
        "label": "_proposalThreshold",
        "offset": 0,
        "slot": "8",
        "type": "t_uint256"
      },
      {
        "astId": 3305,
        "contract": "contracts/gov/ProtocolGovernor.sol:ProtocolGovernor",
        "label": "_proposalDetails",
        "offset": 0,
        "slot": "9",
        "type": "t_mapping(t_uint256,t_struct(ProposalDetails)3300_storage)"
      },
      {
        "astId": 4943,
        "contract": "contracts/gov/ProtocolGovernor.sol:ProtocolGovernor",
        "label": "_quorumNumerator",
        "offset": 0,
        "slot": "10",
        "type": "t_uint256"
      },
      {
        "astId": 4947,
        "contract": "contracts/gov/ProtocolGovernor.sol:ProtocolGovernor",
        "label": "_quorumNumeratorHistory",
        "offset": 0,
        "slot": "11",
        "type": "t_struct(Trace224)8318_storage"
      },
      {
        "astId": 4468,
        "contract": "contracts/gov/ProtocolGovernor.sol:ProtocolGovernor",
        "label": "_timelock",
        "offset": 0,
        "slot": "12",
        "type": "t_contract(TimelockController)3255"
      },
      {
        "astId": 4472,
        "contract": "contracts/gov/ProtocolGovernor.sol:ProtocolGovernor",
        "label": "_timelockIds",
        "offset": 0,
        "slot": "13",
        "type": "t_mapping(t_uint256,t_bytes32)"
      },
      {
        "astId": 36109,
        "contract": "contracts/gov/ProtocolGovernor.sol:ProtocolGovernor",
        "label": "_version",
        "offset": 0,
        "slot": "14",
        "type": "t_string_storage"
      }
    ],
    "types": {
      "t_address": {
        "encoding": "inplace",
        "label": "address",
        "numberOfBytes": "20"
      },
      "t_array(t_address)dyn_storage": {
        "base": "t_address",
        "encoding": "dynamic_array",
        "label": "address[]",
        "numberOfBytes": "32"
      },
      "t_array(t_bytes_storage)dyn_storage": {
        "base": "t_bytes_storage",
        "encoding": "dynamic_array",
        "label": "bytes[]",
        "numberOfBytes": "32"
      },
      "t_array(t_string_storage)dyn_storage": {
        "base": "t_string_storage",
        "encoding": "dynamic_array",
        "label": "string[]",
        "numberOfBytes": "32"
      },
      "t_array(t_struct(Checkpoint224)8323_storage)dyn_storage": {
        "base": "t_struct(Checkpoint224)8323_storage",
        "encoding": "dynamic_array",
        "label": "struct Checkpoints.Checkpoint224[]",
        "numberOfBytes": "32"
      },
      "t_array(t_uint256)dyn_storage": {
        "base": "t_uint256",
        "encoding": "dynamic_array",
        "label": "uint256[]",
        "numberOfBytes": "32"
      },
      "t_bool": {
        "encoding": "inplace",
        "label": "bool",
        "numberOfBytes": "1"
      },
      "t_bytes24": {
        "encoding": "inplace",
        "label": "bytes24",
        "numberOfBytes": "24"
      },
      "t_bytes32": {
        "encoding": "inplace",
        "label": "bytes32",
        "numberOfBytes": "32"
      },
      "t_bytes4": {
        "encoding": "inplace",
        "label": "bytes4",
        "numberOfBytes": "4"
      },
      "t_bytes_storage": {
        "encoding": "bytes",
        "label": "bytes",
        "numberOfBytes": "32"
      },
      "t_contract(TimelockController)3255": {
        "encoding": "inplace",
        "label": "contract TimelockController",
        "numberOfBytes": "20"
      },
      "t_int128": {
        "encoding": "inplace",
        "label": "int128",
        "numberOfBytes": "16"
      },
      "t_mapping(t_address,t_struct(Receipt)4177_storage)": {
        "encoding": "mapping",
        "key": "t_address",
        "label": "mapping(address => struct IGovernorCompatibilityBravo.Receipt)",
        "numberOfBytes": "32",
        "value": "t_struct(Receipt)4177_storage"
      },
      "t_mapping(t_int128,t_bytes32)": {
        "encoding": "mapping",
        "key": "t_int128",
        "label": "mapping(int128 => bytes32)",
        "numberOfBytes": "32",
        "value": "t_bytes32"
      },
      "t_mapping(t_uint256,t_bytes32)": {
        "encoding": "mapping",
        "key": "t_uint256",
        "label": "mapping(uint256 => bytes32)",
        "numberOfBytes": "32",
        "value": "t_bytes32"
      },
      "t_mapping(t_uint256,t_struct(ProposalCore)442_storage)": {
        "encoding": "mapping",
        "key": "t_uint256",
        "label": "mapping(uint256 => struct Governor.ProposalCore)",
        "numberOfBytes": "32",
        "value": "t_struct(ProposalCore)442_storage"
      },
      "t_mapping(t_uint256,t_struct(ProposalDetails)3300_storage)": {
        "encoding": "mapping",
        "key": "t_uint256",
        "label": "mapping(uint256 => struct GovernorCompatibilityBravo.ProposalDetails)",
        "numberOfBytes": "32",
        "value": "t_struct(ProposalDetails)3300_storage"
      },
      "t_string_storage": {
        "encoding": "bytes",
        "label": "string",
        "numberOfBytes": "32"
      },
      "t_struct(Bytes32Deque)13418_storage": {
        "encoding": "inplace",
        "label": "struct DoubleEndedQueue.Bytes32Deque",
        "members": [
          {
            "astId": 13411,
            "contract": "contracts/gov/ProtocolGovernor.sol:ProtocolGovernor",
            "label": "_begin",
            "offset": 0,
            "slot": "0",
            "type": "t_int128"
          },
          {
            "astId": 13413,
            "contract": "contracts/gov/ProtocolGovernor.sol:ProtocolGovernor",
            "label": "_end",
            "offset": 16,
            "slot": "0",
            "type": "t_int128"
          },
          {
            "astId": 13417,
            "contract": "contracts/gov/ProtocolGovernor.sol:ProtocolGovernor",
            "label": "_data",
            "offset": 0,
            "slot": "1",
            "type": "t_mapping(t_int128,t_bytes32)"
          }
        ],
        "numberOfBytes": "64"
      },
      "t_struct(Checkpoint224)8323_storage": {
        "encoding": "inplace",
        "label": "struct Checkpoints.Checkpoint224",
        "members": [
          {
            "astId": 8320,
            "contract": "contracts/gov/ProtocolGovernor.sol:ProtocolGovernor",
            "label": "_key",
            "offset": 0,
            "slot": "0",
            "type": "t_uint32"
          },
          {
            "astId": 8322,
            "contract": "contracts/gov/ProtocolGovernor.sol:ProtocolGovernor",
            "label": "_value",
            "offset": 4,
            "slot": "0",
            "type": "t_uint224"
          }
        ],
        "numberOfBytes": "32"
      },
      "t_struct(ProposalCore)442_storage": {
        "encoding": "inplace",
        "label": "struct Governor.ProposalCore",
        "members": [
          {
            "astId": 429,
            "contract": "contracts/gov/ProtocolGovernor.sol:ProtocolGovernor",
            "label": "voteStart",
            "offset": 0,
            "slot": "0",
            "type": "t_uint64"
          },
          {
            "astId": 431,
            "contract": "contracts/gov/ProtocolGovernor.sol:ProtocolGovernor",
            "label": "proposer",
            "offset": 8,
            "slot": "0",
            "type": "t_address"
          },
          {
            "astId": 433,
            "contract": "contracts/gov/ProtocolGovernor.sol:ProtocolGovernor",
            "label": "__gap_unused0",
            "offset": 28,
            "slot": "0",
            "type": "t_bytes4"
          },
          {
            "astId": 435,
            "contract": "contracts/gov/ProtocolGovernor.sol:ProtocolGovernor",
            "label": "voteEnd",
            "offset": 0,
            "slot": "1",
            "type": "t_uint64"
          },
          {
            "astId": 437,
            "contract": "contracts/gov/ProtocolGovernor.sol:ProtocolGovernor",
            "label": "__gap_unused1",
            "offset": 8,
            "slot": "1",
            "type": "t_bytes24"
          },
          {
            "astId": 439,
            "contract": "contracts/gov/ProtocolGovernor.sol:ProtocolGovernor",
            "label": "executed",
            "offset": 0,
            "slot": "2",
            "type": "t_bool"
          },
          {
            "astId": 441,
            "contract": "contracts/gov/ProtocolGovernor.sol:ProtocolGovernor",
            "label": "canceled",
            "offset": 1,
            "slot": "2",
            "type": "t_bool"
          }
        ],
        "numberOfBytes": "96"
      },
      "t_struct(ProposalDetails)3300_storage": {
        "encoding": "inplace",
        "label": "struct GovernorCompatibilityBravo.ProposalDetails",
        "members": [
          {
            "astId": 3274,
            "contract": "contracts/gov/ProtocolGovernor.sol:ProtocolGovernor",
            "label": "proposer",
            "offset": 0,
            "slot": "0",
            "type": "t_address"
          },
          {
            "astId": 3277,
            "contract": "contracts/gov/ProtocolGovernor.sol:ProtocolGovernor",
            "label": "targets",
            "offset": 0,
            "slot": "1",
            "type": "t_array(t_address)dyn_storage"
          },
          {
            "astId": 3280,
            "contract": "contracts/gov/ProtocolGovernor.sol:ProtocolGovernor",
            "label": "values",
            "offset": 0,
            "slot": "2",
            "type": "t_array(t_uint256)dyn_storage"
          },
          {
            "astId": 3283,
            "contract": "contracts/gov/ProtocolGovernor.sol:ProtocolGovernor",
            "label": "signatures",
            "offset": 0,
            "slot": "3",
            "type": "t_array(t_string_storage)dyn_storage"
          },
          {
            "astId": 3286,
            "contract": "contracts/gov/ProtocolGovernor.sol:ProtocolGovernor",
            "label": "calldatas",
            "offset": 0,
            "slot": "4",
            "type": "t_array(t_bytes_storage)dyn_storage"
          },
          {
            "astId": 3288,
            "contract": "contracts/gov/ProtocolGovernor.sol:ProtocolGovernor",
            "label": "forVotes",
            "offset": 0,
            "slot": "5",
            "type": "t_uint256"
          },
          {
            "astId": 3290,
            "contract": "contracts/gov/ProtocolGovernor.sol:ProtocolGovernor",
            "label": "againstVotes",
            "offset": 0,
            "slot": "6",
            "type": "t_uint256"
          },
          {
            "astId": 3292,
            "contract": "contracts/gov/ProtocolGovernor.sol:ProtocolGovernor",
            "label": "abstainVotes",
            "offset": 0,
            "slot": "7",
            "type": "t_uint256"
          },
          {
            "astId": 3297,
            "contract": "contracts/gov/ProtocolGovernor.sol:ProtocolGovernor",
            "label": "receipts",
            "offset": 0,
            "slot": "8",
            "type": "t_mapping(t_address,t_struct(Receipt)4177_storage)"
          },
          {
            "astId": 3299,
            "contract": "contracts/gov/ProtocolGovernor.sol:ProtocolGovernor",
            "label": "descriptionHash",
            "offset": 0,
            "slot": "9",
            "type": "t_bytes32"
          }
        ],
        "numberOfBytes": "320"
      },
      "t_struct(Receipt)4177_storage": {
        "encoding": "inplace",
        "label": "struct IGovernorCompatibilityBravo.Receipt",
        "members": [
          {
            "astId": 4172,
            "contract": "contracts/gov/ProtocolGovernor.sol:ProtocolGovernor",
            "label": "hasVoted",
            "offset": 0,
            "slot": "0",
            "type": "t_bool"
          },
          {
            "astId": 4174,
            "contract": "contracts/gov/ProtocolGovernor.sol:ProtocolGovernor",
            "label": "support",
            "offset": 1,
            "slot": "0",
            "type": "t_uint8"
          },
          {
            "astId": 4176,
            "contract": "contracts/gov/ProtocolGovernor.sol:ProtocolGovernor",
            "label": "votes",
            "offset": 2,
            "slot": "0",
            "type": "t_uint96"
          }
        ],
        "numberOfBytes": "32"
      },
      "t_struct(Trace224)8318_storage": {
        "encoding": "inplace",
        "label": "struct Checkpoints.Trace224",
        "members": [
          {
            "astId": 8317,
            "contract": "contracts/gov/ProtocolGovernor.sol:ProtocolGovernor",
            "label": "_checkpoints",
            "offset": 0,
            "slot": "0",
            "type": "t_array(t_struct(Checkpoint224)8323_storage)dyn_storage"
          }
        ],
        "numberOfBytes": "32"
      },
      "t_uint224": {
        "encoding": "inplace",
        "label": "uint224",
        "numberOfBytes": "28"
      },
      "t_uint256": {
        "encoding": "inplace",
        "label": "uint256",
        "numberOfBytes": "32"
      },
      "t_uint32": {
        "encoding": "inplace",
        "label": "uint32",
        "numberOfBytes": "4"
      },
      "t_uint64": {
        "encoding": "inplace",
        "label": "uint64",
        "numberOfBytes": "8"
      },
      "t_uint8": {
        "encoding": "inplace",
        "label": "uint8",
        "numberOfBytes": "1"
      },
      "t_uint96": {
        "encoding": "inplace",
        "label": "uint96",
        "numberOfBytes": "12"
      }
    }
  }
}