{
  "address": "0x3c3d99FD298f679DBC2CEcd132b4eC4d0F5e6e72",
  "abi": [
    {
      "inputs": [],
      "stateMutability": "nonpayable",
      "type": "constructor"
    },
    {
      "inputs": [],
      "name": "ThereMustBeAtLeastOneRoleAdmin",
      "type": "error"
    },
    {
      "inputs": [],
      "name": "ThereMustBeAtLeastOneTimelockMultiSig",
      "type": "error"
    },
    {
      "inputs": [
        {
          "internalType": "address",
          "name": "msgSender",
          "type": "address"
        },
        {
          "internalType": "string",
          "name": "role",
          "type": "string"
        }
      ],
      "name": "Unauthorized",
      "type": "error"
    },
    {
      "inputs": [],
      "name": "getRoleCount",
      "outputs": [
        {
          "internalType": "uint256",
          "name": "",
          "type": "uint256"
        }
      ],
      "stateMutability": "view",
      "type": "function"
    },
    {
      "inputs": [
        {
          "internalType": "bytes32",
          "name": "roleKey",
          "type": "bytes32"
        }
      ],
      "name": "getRoleMemberCount",
      "outputs": [
        {
          "internalType": "uint256",
          "name": "",
          "type": "uint256"
        }
      ],
      "stateMutability": "view",
      "type": "function"
    },
    {
      "inputs": [
        {
          "internalType": "bytes32",
          "name": "roleKey",
          "type": "bytes32"
        },
        {
          "internalType": "uint256",
          "name": "start",
          "type": "uint256"
        },
        {
          "internalType": "uint256",
          "name": "end",
          "type": "uint256"
        }
      ],
      "name": "getRoleMembers",
      "outputs": [
        {
          "internalType": "address[]",
          "name": "",
          "type": "address[]"
        }
      ],
      "stateMutability": "view",
      "type": "function"
    },
    {
      "inputs": [
        {
          "internalType": "uint256",
          "name": "start",
          "type": "uint256"
        },
        {
          "internalType": "uint256",
          "name": "end",
          "type": "uint256"
        }
      ],
      "name": "getRoles",
      "outputs": [
        {
          "internalType": "bytes32[]",
          "name": "",
          "type": "bytes32[]"
        }
      ],
      "stateMutability": "view",
      "type": "function"
    },
    {
      "inputs": [
        {
          "internalType": "address",
          "name": "account",
          "type": "address"
        },
        {
          "internalType": "bytes32",
          "name": "roleKey",
          "type": "bytes32"
        }
      ],
      "name": "grantRole",
      "outputs": [],
      "stateMutability": "nonpayable",
      "type": "function"
    },
    {
      "inputs": [
        {
          "internalType": "address",
          "name": "account",
          "type": "address"
        },
        {
          "internalType": "bytes32",
          "name": "roleKey",
          "type": "bytes32"
        }
      ],
      "name": "hasRole",
      "outputs": [
        {
          "internalType": "bool",
          "name": "",
          "type": "bool"
        }
      ],
      "stateMutability": "view",
      "type": "function"
    },
    {
      "inputs": [
        {
          "internalType": "address",
          "name": "account",
          "type": "address"
        },
        {
          "internalType": "bytes32",
          "name": "roleKey",
          "type": "bytes32"
        }
      ],
      "name": "revokeRole",
      "outputs": [],
      "stateMutability": "nonpayable",
      "type": "function"
    }
  ],
  "transactionHash": "0x913bbba4d56b0c04199ba0f3f8700e64c4b547f770becc03ab12756472cb06cd",
  "args": [],
  "numDeployments": 1,
  "solcInputHash": "8c38905f7fa580b3f5fcce85ee3cb071",
  "bytecode": "0x608060405234801561001057600080fd5b5061006433604051602001610043906020808252600a90820152692927a622afa0a226a4a760b11b604082015260600190565b6040516020818303038152906040528051906020012061006960201b60201c565b61014c565b6100818160006100d760201b61025d1790919060201c565b5060008181526002602090815260409091206100a69184906102696100ec821b17901c565b506001600160a01b03909116600090815260036020908152604080832093835292905220805460ff19166001179055565b60006100e383836100fd565b90505b92915050565b60006100e3836001600160a01b0384165b6000818152600183016020526040812054610144575081546001818101845560008481526020808220909301849055845484825282860190935260409020919091556100e6565b5060006100e6565b6109268061015b6000396000f3fe608060405234801561001057600080fd5b506004361061006d5760003560e01c8063208dd1ff146100725780632a861f5714610087578063821c1898146100b057806383d33319146100d0578063ab2742dc146100e6578063ac4ab3fb146100f9578063ca15c8731461011c575b600080fd5b6100856100803660046106f6565b61012f565b005b61009a61009536600461072e565b610193565b6040516100a7919061075a565b60405180910390f35b6100c36100be3660046107a7565b6101b7565b6040516100a791906107c9565b6100d86101ce565b6040519081526020016100a7565b6100856100f43660046106f6565b6101df565b61010c6101073660046106f6565b61021b565b60405190151581526020016100a7565b6100d861012a366004610801565b610246565b61015d3360405160200161014290610837565b6040516020818303038152906040528051906020012061021b565b610185573360405163a35b150b60e01b815260040161017c9190610849565b60405180910390fd5b61018f828261027e565b5050565b60008381526002602052604090206060906101af908484610387565b949350505050565b60606101c560008484610454565b90505b92915050565b60006101da600061050a565b905090565b6101f23360405160200161014290610837565b610211573360405163a35b150b60e01b815260040161017c9190610849565b61018f8282610514565b6001600160a01b03919091166000908152600360209081526040808320938352929052205460ff1690565b60008181526002602052604081206101c89061050a565b60006101c58383610569565b60006101c5836001600160a01b038416610569565b600081815260026020526040902061029690836105b8565b506001600160a01b03821660009081526003602090815260408083208484528252808320805460ff19169055600290915290206102d29061050a565b60000361018f576040516020016102e890610837565b60405160208183030381529060405280519060200120810361031d57604051635bc1e44560e11b815260040160405180910390fd5b6040516020016103529060208082526011908201527054494d454c4f434b5f4d554c544953494760781b604082015260600190565b60405160208183030381529060405280519060200120810361018f57604051630282b5b760e41b815260040160405180910390fd5b606060006103948561050a565b9050808311156103a2578092505b60006103ae8585610882565b6001600160401b038111156103c5576103c5610895565b6040519080825280602002602001820160405280156103ee578160200160208202803683370190505b509050845b8481101561044a5761040587826105cd565b826104108884610882565b81518110610420576104206108ab565b6001600160a01b039092166020928302919091019091015280610442816108c1565b9150506103f3565b5095945050505050565b606060006104618561050a565b90508083111561046f578092505b600061047b8585610882565b6001600160401b0381111561049257610492610895565b6040519080825280602002602001820160405280156104bb578160200160208202803683370190505b509050845b8481101561044a576104d287826105cd565b826104dd8884610882565b815181106104ed576104ed6108ab565b602090810291909101015280610502816108c1565b9150506104c0565b60006101c8825490565b61051f60008261025d565b5060008181526002602052604090206105389083610269565b506001600160a01b03909116600090815260036020908152604080832093835292905220805460ff19166001179055565b60008181526001830160205260408120546105b0575081546001818101845560008481526020808220909301849055845484825282860190935260409020919091556101c8565b5060006101c8565b60006101c5836001600160a01b0384166105d9565b60006101c583836106cc565b600081815260018301602052604081205480156106c25760006105fd600183610882565b855490915060009061061190600190610882565b9050818114610676576000866000018281548110610631576106316108ab565b9060005260206000200154905080876000018481548110610654576106546108ab565b6000918252602080832090910192909255918252600188019052604090208390555b8554869080610687576106876108da565b6001900381819060005260206000200160009055905585600101600086815260200190815260200160002060009055600193505050506101c8565b60009150506101c8565b60008260000182815481106106e3576106e36108ab565b9060005260206000200154905092915050565b6000806040838503121561070957600080fd5b82356001600160a01b038116811461072057600080fd5b946020939093013593505050565b60008060006060848603121561074357600080fd5b505081359360208301359350604090920135919050565b6020808252825182820181905260009190848201906040850190845b8181101561079b5783516001600160a01b031683529284019291840191600101610776565b50909695505050505050565b600080604083850312156107ba57600080fd5b50508035926020909101359150565b6020808252825182820181905260009190848201906040850190845b8181101561079b578351835292840192918401916001016107e5565b60006020828403121561081357600080fd5b5035919050565b600a8152692927a622afa0a226a4a760b11b602082015260400190565b6020815260006101c86020830161081a565b6001600160a01b03821681526040602082018190526000906101c590830161081a565b634e487b7160e01b600052601160045260246000fd5b818103818111156101c8576101c861086c565b634e487b7160e01b600052604160045260246000fd5b634e487b7160e01b600052603260045260246000fd5b6000600182016108d3576108d361086c565b5060010190565b634e487b7160e01b600052603160045260246000fdfea26469706673582212202a3434c4a71de4ae5b258eec966a3658fc8cef65bbdf15a0740cebaaf534bd4c64736f6c63430008120033",
  "libraries": {},
  "devdoc": {
    "details": "Stores roles and their members.",
    "kind": "dev",
    "methods": {
      "getRoleCount()": {
        "details": "Returns the number of roles stored in the contract.",
        "returns": {
          "_0": "The number of roles."
        }
      },
      "getRoleMemberCount(bytes32)": {
        "details": "Returns the number of members of the specified role.",
        "params": {
          "roleKey": "The key of the role."
        },
        "returns": {
          "_0": "The number of members of the role."
        }
      },
      "getRoleMembers(bytes32,uint256,uint256)": {
        "details": "Returns the members of the specified role.",
        "params": {
          "end": "the end index, the value for this index will not be included.",
          "roleKey": "The key of the role.",
          "start": "the start index, the value for this index will be included."
        },
        "returns": {
          "_0": "The members of the role."
        }
      },
      "getRoles(uint256,uint256)": {
        "details": "Returns the keys of the roles stored in the contract.",
        "params": {
          "end": "The ending index of the range of roles to return.",
          "start": "The starting index of the range of roles to return."
        },
        "returns": {
          "_0": "The keys of the roles."
        }
      },
      "grantRole(address,bytes32)": {
        "details": "Grants the specified role to the given account.",
        "params": {
          "account": "The address of the account.",
          "roleKey": "The key of the role to grant."
        }
      },
      "hasRole(address,bytes32)": {
        "details": "Returns true if the given account has the specified role.",
        "params": {
          "account": "The address of the account.",
          "roleKey": "The key of the role."
        },
        "returns": {
          "_0": "True if the account has the role, false otherwise."
        }
      },
      "revokeRole(address,bytes32)": {
        "details": "Revokes the specified role from the given account.",
        "params": {
          "account": "The address of the account.",
          "roleKey": "The key of the role to revoke."
        }
      }
    },
    "title": "RoleStore",
    "version": 1
  },
  "userdoc": {
    "kind": "user",
    "methods": {},
    "version": 1
  },
  "storageLayout": {
    "storage": [
      {
        "astId": 54435,
        "contract": "contracts/role/RoleStore.sol:RoleStore",
        "label": "roles",
        "offset": 0,
        "slot": "0",
        "type": "t_struct(Bytes32Set)4953_storage"
      },
      {
        "astId": 54440,
        "contract": "contracts/role/RoleStore.sol:RoleStore",
        "label": "roleMembers",
        "offset": 0,
        "slot": "2",
        "type": "t_mapping(t_bytes32,t_struct(AddressSet)5060_storage)"
      },
      {
        "astId": 54446,
        "contract": "contracts/role/RoleStore.sol:RoleStore",
        "label": "roleCache",
        "offset": 0,
        "slot": "3",
        "type": "t_mapping(t_address,t_mapping(t_bytes32,t_bool))"
      }
    ],
    "types": {
      "t_address": {
        "encoding": "inplace",
        "label": "address",
        "numberOfBytes": "20"
      },
      "t_array(t_bytes32)dyn_storage": {
        "base": "t_bytes32",
        "encoding": "dynamic_array",
        "label": "bytes32[]",
        "numberOfBytes": "32"
      },
      "t_bool": {
        "encoding": "inplace",
        "label": "bool",
        "numberOfBytes": "1"
      },
      "t_bytes32": {
        "encoding": "inplace",
        "label": "bytes32",
        "numberOfBytes": "32"
      },
      "t_mapping(t_address,t_mapping(t_bytes32,t_bool))": {
        "encoding": "mapping",
        "key": "t_address",
        "label": "mapping(address => mapping(bytes32 => bool))",
        "numberOfBytes": "32",
        "value": "t_mapping(t_bytes32,t_bool)"
      },
      "t_mapping(t_bytes32,t_bool)": {
        "encoding": "mapping",
        "key": "t_bytes32",
        "label": "mapping(bytes32 => bool)",
        "numberOfBytes": "32",
        "value": "t_bool"
      },
      "t_mapping(t_bytes32,t_struct(AddressSet)5060_storage)": {
        "encoding": "mapping",
        "key": "t_bytes32",
        "label": "mapping(bytes32 => struct EnumerableSet.AddressSet)",
        "numberOfBytes": "32",
        "value": "t_struct(AddressSet)5060_storage"
      },
      "t_mapping(t_bytes32,t_uint256)": {
        "encoding": "mapping",
        "key": "t_bytes32",
        "label": "mapping(bytes32 => uint256)",
        "numberOfBytes": "32",
        "value": "t_uint256"
      },
      "t_struct(AddressSet)5060_storage": {
        "encoding": "inplace",
        "label": "struct EnumerableSet.AddressSet",
        "members": [
          {
            "astId": 5059,
            "contract": "contracts/role/RoleStore.sol:RoleStore",
            "label": "_inner",
            "offset": 0,
            "slot": "0",
            "type": "t_struct(Set)4759_storage"
          }
        ],
        "numberOfBytes": "64"
      },
      "t_struct(Bytes32Set)4953_storage": {
        "encoding": "inplace",
        "label": "struct EnumerableSet.Bytes32Set",
        "members": [
          {
            "astId": 4952,
            "contract": "contracts/role/RoleStore.sol:RoleStore",
            "label": "_inner",
            "offset": 0,
            "slot": "0",
            "type": "t_struct(Set)4759_storage"
          }
        ],
        "numberOfBytes": "64"
      },
      "t_struct(Set)4759_storage": {
        "encoding": "inplace",
        "label": "struct EnumerableSet.Set",
        "members": [
          {
            "astId": 4754,
            "contract": "contracts/role/RoleStore.sol:RoleStore",
            "label": "_values",
            "offset": 0,
            "slot": "0",
            "type": "t_array(t_bytes32)dyn_storage"
          },
          {
            "astId": 4758,
            "contract": "contracts/role/RoleStore.sol:RoleStore",
            "label": "_indexes",
            "offset": 0,
            "slot": "1",
            "type": "t_mapping(t_bytes32,t_uint256)"
          }
        ],
        "numberOfBytes": "64"
      },
      "t_uint256": {
        "encoding": "inplace",
        "label": "uint256",
        "numberOfBytes": "32"
      }
    }
  }
}